{
	"data": {
		"bytecode": {
			"linkReferences": {},
			"object": "6080604052720d0aa6635c109760f7192500f883bf246e957a60035534801561002757600080fd5b50610565806100376000396000f3fe608060405234801561001057600080fd5b50600436106100575760003560e01c80631d263f671461005c5780635a9b0b891461008c57806398afa55f146100ac578063cdeda4f3146100ca578063e6f334d7146100e8575b600080fd5b610076600480360381019061007191906102af565b610106565b60405161008391906102eb565b60405180910390f35b61009461021f565b6040516100a393929190610338565b60405180910390f35b6100b4610253565b6040516100c1919061036f565b60405180910390f35b6100d2610259565b6040516100df91906102eb565b60405180910390f35b6100f061026c565b6040516100fd919061036f565b60405180910390f35b600080600060014361011891906103b9565b905060008140905060008160001c9050826000540361016c576040517f08c379a00000000000000000000000000000000000000000000000000000000081526004016101639061044a565b60405180910390fd5b8260008190555060006002600354836101859190610499565b61018f91906104ca565b1461019d57600193506101a2565b600093505b851515841515036101ee576001600260008282546101c091906104fb565b9250508190555060018060006101000a81548160ff021916908315150217905550600194505050505061021a565b60006002819055506000600160006101000a81548160ff02191690831515021790555060009450505050505b919050565b60008060008060014361023291906103b9565b905060008140905060008160001c9050828282955095509550505050909192565b60005481565b600160009054906101000a900460ff1681565b60025481565b600080fd5b60008115159050919050565b61028c81610277565b811461029757600080fd5b50565b6000813590506102a981610283565b92915050565b6000602082840312156102c5576102c4610272565b5b60006102d38482850161029a565b91505092915050565b6102e581610277565b82525050565b600060208201905061030060008301846102dc565b92915050565b6000819050919050565b61031981610306565b82525050565b6000819050919050565b6103328161031f565b82525050565b600060608201905061034d6000830186610310565b61035a6020830185610329565b6103676040830184610310565b949350505050565b60006020820190506103846000830184610310565b92915050565b7f4e487b7100000000000000000000000000000000000000000000000000000000600052601160045260246000fd5b60006103c482610306565b91506103cf83610306565b92508282039050818111156103e7576103e661038a565b5b92915050565b600082825260208201905092915050565b7f596f7520616c726561647920706c61796564207468697320726f756e64000000600082015250565b6000610434601d836103ed565b915061043f826103fe565b602082019050919050565b6000602082019050818103600083015261046381610427565b9050919050565b7f4e487b7100000000000000000000000000000000000000000000000000000000600052601260045260246000fd5b60006104a482610306565b91506104af83610306565b9250826104bf576104be61046a565b5b828204905092915050565b60006104d582610306565b91506104e083610306565b9250826104f0576104ef61046a565b5b828206905092915050565b600061050682610306565b915061051183610306565b92508282019050808211156105295761052861038a565b5b9291505056fea2646970667358221220dedd3acfb8b01ac165b7cedb50c8ff24837e89ac83d062485aacb4623a3440ea64736f6c63430008110033",
			"opcodes": "PUSH1 0x80 PUSH1 0x40 MSTORE PUSH19 0xD0AA6635C109760F7192500F883BF246E957A PUSH1 0x3 SSTORE CALLVALUE DUP1 ISZERO PUSH2 0x27 JUMPI PUSH1 0x0 DUP1 REVERT JUMPDEST POP PUSH2 0x565 DUP1 PUSH2 0x37 PUSH1 0x0 CODECOPY PUSH1 0x0 RETURN INVALID PUSH1 0x80 PUSH1 0x40 MSTORE CALLVALUE DUP1 ISZERO PUSH2 0x10 JUMPI PUSH1 0x0 DUP1 REVERT JUMPDEST POP PUSH1 0x4 CALLDATASIZE LT PUSH2 0x57 JUMPI PUSH1 0x0 CALLDATALOAD PUSH1 0xE0 SHR DUP1 PUSH4 0x1D263F67 EQ PUSH2 0x5C JUMPI DUP1 PUSH4 0x5A9B0B89 EQ PUSH2 0x8C JUMPI DUP1 PUSH4 0x98AFA55F EQ PUSH2 0xAC JUMPI DUP1 PUSH4 0xCDEDA4F3 EQ PUSH2 0xCA JUMPI DUP1 PUSH4 0xE6F334D7 EQ PUSH2 0xE8 JUMPI JUMPDEST PUSH1 0x0 DUP1 REVERT JUMPDEST PUSH2 0x76 PUSH1 0x4 DUP1 CALLDATASIZE SUB DUP2 ADD SWAP1 PUSH2 0x71 SWAP2 SWAP1 PUSH2 0x2AF JUMP JUMPDEST PUSH2 0x106 JUMP JUMPDEST PUSH1 0x40 MLOAD PUSH2 0x83 SWAP2 SWAP1 PUSH2 0x2EB JUMP JUMPDEST PUSH1 0x40 MLOAD DUP1 SWAP2 SUB SWAP1 RETURN JUMPDEST PUSH2 0x94 PUSH2 0x21F JUMP JUMPDEST PUSH1 0x40 MLOAD PUSH2 0xA3 SWAP4 SWAP3 SWAP2 SWAP1 PUSH2 0x338 JUMP JUMPDEST PUSH1 0x40 MLOAD DUP1 SWAP2 SUB SWAP1 RETURN JUMPDEST PUSH2 0xB4 PUSH2 0x253 JUMP JUMPDEST PUSH1 0x40 MLOAD PUSH2 0xC1 SWAP2 SWAP1 PUSH2 0x36F JUMP JUMPDEST PUSH1 0x40 MLOAD DUP1 SWAP2 SUB SWAP1 RETURN JUMPDEST PUSH2 0xD2 PUSH2 0x259 JUMP JUMPDEST PUSH1 0x40 MLOAD PUSH2 0xDF SWAP2 SWAP1 PUSH2 0x2EB JUMP JUMPDEST PUSH1 0x40 MLOAD DUP1 SWAP2 SUB SWAP1 RETURN JUMPDEST PUSH2 0xF0 PUSH2 0x26C JUMP JUMPDEST PUSH1 0x40 MLOAD PUSH2 0xFD SWAP2 SWAP1 PUSH2 0x36F JUMP JUMPDEST PUSH1 0x40 MLOAD DUP1 SWAP2 SUB SWAP1 RETURN JUMPDEST PUSH1 0x0 DUP1 PUSH1 0x0 PUSH1 0x1 NUMBER PUSH2 0x118 SWAP2 SWAP1 PUSH2 0x3B9 JUMP JUMPDEST SWAP1 POP PUSH1 0x0 DUP2 BLOCKHASH SWAP1 POP PUSH1 0x0 DUP2 PUSH1 0x0 SHR SWAP1 POP DUP3 PUSH1 0x0 SLOAD SUB PUSH2 0x16C JUMPI PUSH1 0x40 MLOAD PUSH32 0x8C379A000000000000000000000000000000000000000000000000000000000 DUP2 MSTORE PUSH1 0x4 ADD PUSH2 0x163 SWAP1 PUSH2 0x44A JUMP JUMPDEST PUSH1 0x40 MLOAD DUP1 SWAP2 SUB SWAP1 REVERT JUMPDEST DUP3 PUSH1 0x0 DUP2 SWAP1 SSTORE POP PUSH1 0x0 PUSH1 0x2 PUSH1 0x3 SLOAD DUP4 PUSH2 0x185 SWAP2 SWAP1 PUSH2 0x499 JUMP JUMPDEST PUSH2 0x18F SWAP2 SWAP1 PUSH2 0x4CA JUMP JUMPDEST EQ PUSH2 0x19D JUMPI PUSH1 0x1 SWAP4 POP PUSH2 0x1A2 JUMP JUMPDEST PUSH1 0x0 SWAP4 POP JUMPDEST DUP6 ISZERO ISZERO DUP5 ISZERO ISZERO SUB PUSH2 0x1EE JUMPI PUSH1 0x1 PUSH1 0x2 PUSH1 0x0 DUP3 DUP3 SLOAD PUSH2 0x1C0 SWAP2 SWAP1 PUSH2 0x4FB JUMP JUMPDEST SWAP3 POP POP DUP2 SWAP1 SSTORE POP PUSH1 0x1 DUP1 PUSH1 0x0 PUSH2 0x100 EXP DUP2 SLOAD DUP2 PUSH1 0xFF MUL NOT AND SWAP1 DUP4 ISZERO ISZERO MUL OR SWAP1 SSTORE POP PUSH1 0x1 SWAP5 POP POP POP POP POP PUSH2 0x21A JUMP JUMPDEST PUSH1 0x0 PUSH1 0x2 DUP2 SWAP1 SSTORE POP PUSH1 0x0 PUSH1 0x1 PUSH1 0x0 PUSH2 0x100 EXP DUP2 SLOAD DUP2 PUSH1 0xFF MUL NOT AND SWAP1 DUP4 ISZERO ISZERO MUL OR SWAP1 SSTORE POP PUSH1 0x0 SWAP5 POP POP POP POP POP JUMPDEST SWAP2 SWAP1 POP JUMP JUMPDEST PUSH1 0x0 DUP1 PUSH1 0x0 DUP1 PUSH1 0x1 NUMBER PUSH2 0x232 SWAP2 SWAP1 PUSH2 0x3B9 JUMP JUMPDEST SWAP1 POP PUSH1 0x0 DUP2 BLOCKHASH SWAP1 POP PUSH1 0x0 DUP2 PUSH1 0x0 SHR SWAP1 POP DUP3 DUP3 DUP3 SWAP6 POP SWAP6 POP SWAP6 POP POP POP POP SWAP1 SWAP2 SWAP3 JUMP JUMPDEST PUSH1 0x0 SLOAD DUP2 JUMP JUMPDEST PUSH1 0x1 PUSH1 0x0 SWAP1 SLOAD SWAP1 PUSH2 0x100 EXP SWAP1 DIV PUSH1 0xFF AND DUP2 JUMP JUMPDEST PUSH1 0x2 SLOAD DUP2 JUMP JUMPDEST PUSH1 0x0 DUP1 REVERT JUMPDEST PUSH1 0x0 DUP2 ISZERO ISZERO SWAP1 POP SWAP2 SWAP1 POP JUMP JUMPDEST PUSH2 0x28C DUP2 PUSH2 0x277 JUMP JUMPDEST DUP2 EQ PUSH2 0x297 JUMPI PUSH1 0x0 DUP1 REVERT JUMPDEST POP JUMP JUMPDEST PUSH1 0x0 DUP2 CALLDATALOAD SWAP1 POP PUSH2 0x2A9 DUP2 PUSH2 0x283 JUMP JUMPDEST SWAP3 SWAP2 POP POP JUMP JUMPDEST PUSH1 0x0 PUSH1 0x20 DUP3 DUP5 SUB SLT ISZERO PUSH2 0x2C5 JUMPI PUSH2 0x2C4 PUSH2 0x272 JUMP JUMPDEST JUMPDEST PUSH1 0x0 PUSH2 0x2D3 DUP5 DUP3 DUP6 ADD PUSH2 0x29A JUMP JUMPDEST SWAP2 POP POP SWAP3 SWAP2 POP POP JUMP JUMPDEST PUSH2 0x2E5 DUP2 PUSH2 0x277 JUMP JUMPDEST DUP3 MSTORE POP POP JUMP JUMPDEST PUSH1 0x0 PUSH1 0x20 DUP3 ADD SWAP1 POP PUSH2 0x300 PUSH1 0x0 DUP4 ADD DUP5 PUSH2 0x2DC JUMP JUMPDEST SWAP3 SWAP2 POP POP JUMP JUMPDEST PUSH1 0x0 DUP2 SWAP1 POP SWAP2 SWAP1 POP JUMP JUMPDEST PUSH2 0x319 DUP2 PUSH2 0x306 JUMP JUMPDEST DUP3 MSTORE POP POP JUMP JUMPDEST PUSH1 0x0 DUP2 SWAP1 POP SWAP2 SWAP1 POP JUMP JUMPDEST PUSH2 0x332 DUP2 PUSH2 0x31F JUMP JUMPDEST DUP3 MSTORE POP POP JUMP JUMPDEST PUSH1 0x0 PUSH1 0x60 DUP3 ADD SWAP1 POP PUSH2 0x34D PUSH1 0x0 DUP4 ADD DUP7 PUSH2 0x310 JUMP JUMPDEST PUSH2 0x35A PUSH1 0x20 DUP4 ADD DUP6 PUSH2 0x329 JUMP JUMPDEST PUSH2 0x367 PUSH1 0x40 DUP4 ADD DUP5 PUSH2 0x310 JUMP JUMPDEST SWAP5 SWAP4 POP POP POP POP JUMP JUMPDEST PUSH1 0x0 PUSH1 0x20 DUP3 ADD SWAP1 POP PUSH2 0x384 PUSH1 0x0 DUP4 ADD DUP5 PUSH2 0x310 JUMP JUMPDEST SWAP3 SWAP2 POP POP JUMP JUMPDEST PUSH32 0x4E487B7100000000000000000000000000000000000000000000000000000000 PUSH1 0x0 MSTORE PUSH1 0x11 PUSH1 0x4 MSTORE PUSH1 0x24 PUSH1 0x0 REVERT JUMPDEST PUSH1 0x0 PUSH2 0x3C4 DUP3 PUSH2 0x306 JUMP JUMPDEST SWAP2 POP PUSH2 0x3CF DUP4 PUSH2 0x306 JUMP JUMPDEST SWAP3 POP DUP3 DUP3 SUB SWAP1 POP DUP2 DUP2 GT ISZERO PUSH2 0x3E7 JUMPI PUSH2 0x3E6 PUSH2 0x38A JUMP JUMPDEST JUMPDEST SWAP3 SWAP2 POP POP JUMP JUMPDEST PUSH1 0x0 DUP3 DUP3 MSTORE PUSH1 0x20 DUP3 ADD SWAP1 POP SWAP3 SWAP2 POP POP JUMP JUMPDEST PUSH32 0x596F7520616C726561647920706C61796564207468697320726F756E64000000 PUSH1 0x0 DUP3 ADD MSTORE POP JUMP JUMPDEST PUSH1 0x0 PUSH2 0x434 PUSH1 0x1D DUP4 PUSH2 0x3ED JUMP JUMPDEST SWAP2 POP PUSH2 0x43F DUP3 PUSH2 0x3FE JUMP JUMPDEST PUSH1 0x20 DUP3 ADD SWAP1 POP SWAP2 SWAP1 POP JUMP JUMPDEST PUSH1 0x0 PUSH1 0x20 DUP3 ADD SWAP1 POP DUP2 DUP2 SUB PUSH1 0x0 DUP4 ADD MSTORE PUSH2 0x463 DUP2 PUSH2 0x427 JUMP JUMPDEST SWAP1 POP SWAP2 SWAP1 POP JUMP JUMPDEST PUSH32 0x4E487B7100000000000000000000000000000000000000000000000000000000 PUSH1 0x0 MSTORE PUSH1 0x12 PUSH1 0x4 MSTORE PUSH1 0x24 PUSH1 0x0 REVERT JUMPDEST PUSH1 0x0 PUSH2 0x4A4 DUP3 PUSH2 0x306 JUMP JUMPDEST SWAP2 POP PUSH2 0x4AF DUP4 PUSH2 0x306 JUMP JUMPDEST SWAP3 POP DUP3 PUSH2 0x4BF JUMPI PUSH2 0x4BE PUSH2 0x46A JUMP JUMPDEST JUMPDEST DUP3 DUP3 DIV SWAP1 POP SWAP3 SWAP2 POP POP JUMP JUMPDEST PUSH1 0x0 PUSH2 0x4D5 DUP3 PUSH2 0x306 JUMP JUMPDEST SWAP2 POP PUSH2 0x4E0 DUP4 PUSH2 0x306 JUMP JUMPDEST SWAP3 POP DUP3 PUSH2 0x4F0 JUMPI PUSH2 0x4EF PUSH2 0x46A JUMP JUMPDEST JUMPDEST DUP3 DUP3 MOD SWAP1 POP SWAP3 SWAP2 POP POP JUMP JUMPDEST PUSH1 0x0 PUSH2 0x506 DUP3 PUSH2 0x306 JUMP JUMPDEST SWAP2 POP PUSH2 0x511 DUP4 PUSH2 0x306 JUMP JUMPDEST SWAP3 POP DUP3 DUP3 ADD SWAP1 POP DUP1 DUP3 GT ISZERO PUSH2 0x529 JUMPI PUSH2 0x528 PUSH2 0x38A JUMP JUMPDEST JUMPDEST SWAP3 SWAP2 POP POP JUMP INVALID LOG2 PUSH5 0x6970667358 0x22 SLT KECCAK256 0xDE 0xDD GASPRICE 0xCF 0xB8 0xB0 BYTE 0xC1 PUSH6 0xB7CEDB50C8FF 0x24 DUP4 PUSH31 0x89AC83D062485AACB4623A3440EA64736F6C63430008110033000000000000 "
		},
		"gasEstimates": {
			"creation": {
				"codeDepositCost": "276200",
				"executionCost": "22424",
				"totalCost": "298624"
			},
			"external": {
				"consecutiveWins()": "2495",
				"flip(bool)": "infinite",
				"getInfo()": "infinite",
				"lastGame()": "2451",
				"lastWin()": "2515"
			}
		},
		"methodIdentifiers": {
			"consecutiveWins()": "e6f334d7",
			"flip(bool)": "1d263f67",
			"getInfo()": "5a9b0b89",
			"lastGame()": "98afa55f",
			"lastWin()": "cdeda4f3"
		}
	},
	"abi": [
		{
			"inputs": [],
			"name": "consecutiveWins",
			"outputs": [
				{
					"internalType": "uint256",
					"name": "",
					"type": "uint256"
				}
			],
			"stateMutability": "view",
			"type": "function"
		},
		{
			"inputs": [
				{
					"internalType": "bool",
					"name": "guess",
					"type": "bool"
				}
			],
			"name": "flip",
			"outputs": [
				{
					"internalType": "bool",
					"name": "",
					"type": "bool"
				}
			],
			"stateMutability": "nonpayable",
			"type": "function"
		},
		{
			"inputs": [],
			"name": "getInfo",
			"outputs": [
				{
					"internalType": "uint256",
					"name": "",
					"type": "uint256"
				},
				{
					"internalType": "bytes32",
					"name": "",
					"type": "bytes32"
				},
				{
					"internalType": "uint256",
					"name": "",
					"type": "uint256"
				}
			],
			"stateMutability": "view",
			"type": "function"
		},
		{
			"inputs": [],
			"name": "lastGame",
			"outputs": [
				{
					"internalType": "uint256",
					"name": "",
					"type": "uint256"
				}
			],
			"stateMutability": "view",
			"type": "function"
		},
		{
			"inputs": [],
			"name": "lastWin",
			"outputs": [
				{
					"internalType": "bool",
					"name": "",
					"type": "bool"
				}
			],
			"stateMutability": "view",
			"type": "function"
		}
	]
}