{
	"udemy solidity course - complete DApp/Exercise_Deploy_Smart_Contract.sol": {
		"names": {
			"abi": [
				{
					"inputs": [],
					"name": "getName",
					"outputs": [
						{
							"internalType": "string",
							"name": "",
							"type": "string"
						}
					],
					"stateMutability": "view",
					"type": "function"
				},
				{
					"inputs": [],
					"name": "name",
					"outputs": [
						{
							"internalType": "string",
							"name": "",
							"type": "string"
						}
					],
					"stateMutability": "view",
					"type": "function"
				},
				{
					"inputs": [
						{
							"internalType": "string",
							"name": "_name",
							"type": "string"
						}
					],
					"name": "setName",
					"outputs": [],
					"stateMutability": "nonpayable",
					"type": "function"
				}
			],
			"devdoc": {
				"kind": "dev",
				"methods": {},
				"version": 1
			},
			"evm": {
				"assembly": "    /* \"udemy solidity course - complete DApp/Exercise_Deploy_Smart_Contract.sol\":271:482  contract names {... */\n  mstore(0x40, 0x80)\n  callvalue\n  dup1\n  iszero\n  tag_1\n  jumpi\n  0x00\n  dup1\n  revert\ntag_1:\n  pop\n  dataSize(sub_0)\n  dup1\n  dataOffset(sub_0)\n  0x00\n  codecopy\n  0x00\n  return\nstop\n\nsub_0: assembly {\n        /* \"udemy solidity course - complete DApp/Exercise_Deploy_Smart_Contract.sol\":271:482  contract names {... */\n      mstore(0x40, 0x80)\n      callvalue\n      dup1\n      iszero\n      tag_1\n      jumpi\n      0x00\n      dup1\n      revert\n    tag_1:\n      pop\n      jumpi(tag_2, lt(calldatasize, 0x04))\n      shr(0xe0, calldataload(0x00))\n      dup1\n      0x06fdde03\n      eq\n      tag_3\n      jumpi\n      dup1\n      0x17d7de7c\n      eq\n      tag_4\n      jumpi\n      dup1\n      0xc47f0027\n      eq\n      tag_5\n      jumpi\n    tag_2:\n      0x00\n      dup1\n      revert\n        /* \"udemy solidity course - complete DApp/Exercise_Deploy_Smart_Contract.sol\":293:311  string public name */\n    tag_3:\n      tag_6\n      tag_7\n      jump\t// in\n    tag_6:\n      mload(0x40)\n      tag_8\n      swap2\n      swap1\n      tag_9\n      jump\t// in\n    tag_8:\n      mload(0x40)\n      dup1\n      swap2\n      sub\n      swap1\n      return\n        /* \"udemy solidity course - complete DApp/Exercise_Deploy_Smart_Contract.sol\":398:480  function getName() public view returns(string memory) {... */\n    tag_4:\n      tag_10\n      tag_11\n      jump\t// in\n    tag_10:\n      mload(0x40)\n      tag_12\n      swap2\n      swap1\n      tag_9\n      jump\t// in\n    tag_12:\n      mload(0x40)\n      dup1\n      swap2\n      sub\n      swap1\n      return\n        /* \"udemy solidity course - complete DApp/Exercise_Deploy_Smart_Contract.sol\":318:392  function setName(string memory _name) public {... */\n    tag_5:\n      tag_13\n      0x04\n      dup1\n      calldatasize\n      sub\n      dup2\n      add\n      swap1\n      tag_14\n      swap2\n      swap1\n      tag_15\n      jump\t// in\n    tag_14:\n      tag_16\n      jump\t// in\n    tag_13:\n      stop\n        /* \"udemy solidity course - complete DApp/Exercise_Deploy_Smart_Contract.sol\":293:311  string public name */\n    tag_7:\n      0x00\n      dup1\n      sload\n      tag_17\n      swap1\n      tag_18\n      jump\t// in\n    tag_17:\n      dup1\n      0x1f\n      add\n      0x20\n      dup1\n      swap2\n      div\n      mul\n      0x20\n      add\n      mload(0x40)\n      swap1\n      dup2\n      add\n      0x40\n      mstore\n      dup1\n      swap3\n      swap2\n      swap1\n      dup2\n      dup2\n      mstore\n      0x20\n      add\n      dup3\n      dup1\n      sload\n      tag_19\n      swap1\n      tag_18\n      jump\t// in\n    tag_19:\n      dup1\n      iszero\n      tag_20\n      jumpi\n      dup1\n      0x1f\n      lt\n      tag_21\n      jumpi\n      0x0100\n      dup1\n      dup4\n      sload\n      div\n      mul\n      dup4\n      mstore\n      swap2\n      0x20\n      add\n      swap2\n      jump(tag_20)\n    tag_21:\n      dup3\n      add\n      swap2\n      swap1\n      0x00\n      mstore\n      keccak256(0x00, 0x20)\n      swap1\n    tag_22:\n      dup2\n      sload\n      dup2\n      mstore\n      swap1\n      0x01\n      add\n      swap1\n      0x20\n      add\n      dup1\n      dup4\n      gt\n      tag_22\n      jumpi\n      dup3\n      swap1\n      sub\n      0x1f\n      and\n      dup3\n      add\n      swap2\n    tag_20:\n      pop\n      pop\n      pop\n      pop\n      pop\n      dup2\n      jump\t// out\n        /* \"udemy solidity course - complete DApp/Exercise_Deploy_Smart_Contract.sol\":398:480  function getName() public view returns(string memory) {... */\n    tag_11:\n        /* \"udemy solidity course - complete DApp/Exercise_Deploy_Smart_Contract.sol\":437:450  string memory */\n      0x60\n        /* \"udemy solidity course - complete DApp/Exercise_Deploy_Smart_Contract.sol\":469:473  name */\n      0x00\n        /* \"udemy solidity course - complete DApp/Exercise_Deploy_Smart_Contract.sol\":462:473  return name */\n      dup1\n      sload\n      tag_24\n      swap1\n      tag_18\n      jump\t// in\n    tag_24:\n      dup1\n      0x1f\n      add\n      0x20\n      dup1\n      swap2\n      div\n      mul\n      0x20\n      add\n      mload(0x40)\n      swap1\n      dup2\n      add\n      0x40\n      mstore\n      dup1\n      swap3\n      swap2\n      swap1\n      dup2\n      dup2\n      mstore\n      0x20\n      add\n      dup3\n      dup1\n      sload\n      tag_25\n      swap1\n      tag_18\n      jump\t// in\n    tag_25:\n      dup1\n      iszero\n      tag_26\n      jumpi\n      dup1\n      0x1f\n      lt\n      tag_27\n      jumpi\n      0x0100\n      dup1\n      dup4\n      sload\n      div\n      mul\n      dup4\n      mstore\n      swap2\n      0x20\n      add\n      swap2\n      jump(tag_26)\n    tag_27:\n      dup3\n      add\n      swap2\n      swap1\n      0x00\n      mstore\n      keccak256(0x00, 0x20)\n      swap1\n    tag_28:\n      dup2\n      sload\n      dup2\n      mstore\n      swap1\n      0x01\n      add\n      swap1\n      0x20\n      add\n      dup1\n      dup4\n      gt\n      tag_28\n      jumpi\n      dup3\n      swap1\n      sub\n      0x1f\n      and\n      dup3\n      add\n      swap2\n    tag_26:\n      pop\n      pop\n      pop\n      pop\n      pop\n      swap1\n      pop\n        /* \"udemy solidity course - complete DApp/Exercise_Deploy_Smart_Contract.sol\":398:480  function getName() public view returns(string memory) {... */\n      swap1\n      jump\t// out\n        /* \"udemy solidity course - complete DApp/Exercise_Deploy_Smart_Contract.sol\":318:392  function setName(string memory _name) public {... */\n    tag_16:\n        /* \"udemy solidity course - complete DApp/Exercise_Deploy_Smart_Contract.sol\":380:385  _name */\n      dup1\n        /* \"udemy solidity course - complete DApp/Exercise_Deploy_Smart_Contract.sol\":373:377  name */\n      0x00\n        /* \"udemy solidity course - complete DApp/Exercise_Deploy_Smart_Contract.sol\":373:385  name = _name */\n      swap1\n      dup1\n      mload\n      swap1\n      0x20\n      add\n      swap1\n      tag_30\n      swap3\n      swap2\n      swap1\n      tag_31\n      jump\t// in\n    tag_30:\n      pop\n        /* \"udemy solidity course - complete DApp/Exercise_Deploy_Smart_Contract.sol\":318:392  function setName(string memory _name) public {... */\n      pop\n      jump\t// out\n    tag_31:\n      dup3\n      dup1\n      sload\n      tag_32\n      swap1\n      tag_18\n      jump\t// in\n    tag_32:\n      swap1\n      0x00\n      mstore\n      keccak256(0x00, 0x20)\n      swap1\n      0x1f\n      add\n      0x20\n      swap1\n      div\n      dup2\n      add\n      swap3\n      dup3\n      tag_34\n      jumpi\n      0x00\n      dup6\n      sstore\n      jump(tag_33)\n    tag_34:\n      dup3\n      0x1f\n      lt\n      tag_35\n      jumpi\n      dup1\n      mload\n      not(0xff)\n      and\n      dup4\n      dup1\n      add\n      or\n      dup6\n      sstore\n      jump(tag_33)\n    tag_35:\n      dup3\n      dup1\n      add\n      0x01\n      add\n      dup6\n      sstore\n      dup3\n      iszero\n      tag_33\n      jumpi\n      swap2\n      dup3\n      add\n    tag_36:\n      dup3\n      dup2\n      gt\n      iszero\n      tag_37\n      jumpi\n      dup3\n      mload\n      dup3\n      sstore\n      swap2\n      0x20\n      add\n      swap2\n      swap1\n      0x01\n      add\n      swap1\n      jump(tag_36)\n    tag_37:\n    tag_33:\n      pop\n      swap1\n      pop\n      tag_38\n      swap2\n      swap1\n      tag_39\n      jump\t// in\n    tag_38:\n      pop\n      swap1\n      jump\t// out\n    tag_39:\n    tag_40:\n      dup1\n      dup3\n      gt\n      iszero\n      tag_41\n      jumpi\n      0x00\n      dup2\n      0x00\n      swap1\n      sstore\n      pop\n      0x01\n      add\n      jump(tag_40)\n    tag_41:\n      pop\n      swap1\n      jump\t// out\n        /* \"#utility.yul\":7:106   */\n    tag_42:\n        /* \"#utility.yul\":59:65   */\n      0x00\n        /* \"#utility.yul\":93:98   */\n      dup2\n        /* \"#utility.yul\":87:99   */\n      mload\n        /* \"#utility.yul\":77:99   */\n      swap1\n      pop\n        /* \"#utility.yul\":7:106   */\n      swap2\n      swap1\n      pop\n      jump\t// out\n        /* \"#utility.yul\":112:281   */\n    tag_43:\n        /* \"#utility.yul\":196:207   */\n      0x00\n        /* \"#utility.yul\":230:236   */\n      dup3\n        /* \"#utility.yul\":225:228   */\n      dup3\n        /* \"#utility.yul\":218:237   */\n      mstore\n        /* \"#utility.yul\":270:274   */\n      0x20\n        /* \"#utility.yul\":265:268   */\n      dup3\n        /* \"#utility.yul\":261:275   */\n      add\n        /* \"#utility.yul\":246:275   */\n      swap1\n      pop\n        /* \"#utility.yul\":112:281   */\n      swap3\n      swap2\n      pop\n      pop\n      jump\t// out\n        /* \"#utility.yul\":287:594   */\n    tag_44:\n        /* \"#utility.yul\":355:356   */\n      0x00\n        /* \"#utility.yul\":365:478   */\n    tag_64:\n        /* \"#utility.yul\":379:385   */\n      dup4\n        /* \"#utility.yul\":376:377   */\n      dup2\n        /* \"#utility.yul\":373:386   */\n      lt\n        /* \"#utility.yul\":365:478   */\n      iszero\n      tag_66\n      jumpi\n        /* \"#utility.yul\":464:465   */\n      dup1\n        /* \"#utility.yul\":459:462   */\n      dup3\n        /* \"#utility.yul\":455:466   */\n      add\n        /* \"#utility.yul\":449:467   */\n      mload\n        /* \"#utility.yul\":445:446   */\n      dup2\n        /* \"#utility.yul\":440:443   */\n      dup5\n        /* \"#utility.yul\":436:447   */\n      add\n        /* \"#utility.yul\":429:468   */\n      mstore\n        /* \"#utility.yul\":401:403   */\n      0x20\n        /* \"#utility.yul\":398:399   */\n      dup2\n        /* \"#utility.yul\":394:404   */\n      add\n        /* \"#utility.yul\":389:404   */\n      swap1\n      pop\n        /* \"#utility.yul\":365:478   */\n      jump(tag_64)\n    tag_66:\n        /* \"#utility.yul\":496:502   */\n      dup4\n        /* \"#utility.yul\":493:494   */\n      dup2\n        /* \"#utility.yul\":490:503   */\n      gt\n        /* \"#utility.yul\":487:588   */\n      iszero\n      tag_67\n      jumpi\n        /* \"#utility.yul\":576:577   */\n      0x00\n        /* \"#utility.yul\":567:573   */\n      dup5\n        /* \"#utility.yul\":562:565   */\n      dup5\n        /* \"#utility.yul\":558:574   */\n      add\n        /* \"#utility.yul\":551:578   */\n      mstore\n        /* \"#utility.yul\":487:588   */\n    tag_67:\n        /* \"#utility.yul\":336:594   */\n      pop\n        /* \"#utility.yul\":287:594   */\n      pop\n      pop\n      pop\n      jump\t// out\n        /* \"#utility.yul\":600:702   */\n    tag_45:\n        /* \"#utility.yul\":641:647   */\n      0x00\n        /* \"#utility.yul\":692:694   */\n      0x1f\n        /* \"#utility.yul\":688:695   */\n      not\n        /* \"#utility.yul\":683:685   */\n      0x1f\n        /* \"#utility.yul\":676:681   */\n      dup4\n        /* \"#utility.yul\":672:686   */\n      add\n        /* \"#utility.yul\":668:696   */\n      and\n        /* \"#utility.yul\":658:696   */\n      swap1\n      pop\n        /* \"#utility.yul\":600:702   */\n      swap2\n      swap1\n      pop\n      jump\t// out\n        /* \"#utility.yul\":708:1072   */\n    tag_46:\n        /* \"#utility.yul\":796:799   */\n      0x00\n        /* \"#utility.yul\":824:863   */\n      tag_70\n        /* \"#utility.yul\":857:862   */\n      dup3\n        /* \"#utility.yul\":824:863   */\n      tag_42\n      jump\t// in\n    tag_70:\n        /* \"#utility.yul\":879:950   */\n      tag_71\n        /* \"#utility.yul\":943:949   */\n      dup2\n        /* \"#utility.yul\":938:941   */\n      dup6\n        /* \"#utility.yul\":879:950   */\n      tag_43\n      jump\t// in\n    tag_71:\n        /* \"#utility.yul\":872:950   */\n      swap4\n      pop\n        /* \"#utility.yul\":959:1011   */\n      tag_72\n        /* \"#utility.yul\":1004:1010   */\n      dup2\n        /* \"#utility.yul\":999:1002   */\n      dup6\n        /* \"#utility.yul\":992:996   */\n      0x20\n        /* \"#utility.yul\":985:990   */\n      dup7\n        /* \"#utility.yul\":981:997   */\n      add\n        /* \"#utility.yul\":959:1011   */\n      tag_44\n      jump\t// in\n    tag_72:\n        /* \"#utility.yul\":1036:1065   */\n      tag_73\n        /* \"#utility.yul\":1058:1064   */\n      dup2\n        /* \"#utility.yul\":1036:1065   */\n      tag_45\n      jump\t// in\n    tag_73:\n        /* \"#utility.yul\":1031:1034   */\n      dup5\n        /* \"#utility.yul\":1027:1066   */\n      add\n        /* \"#utility.yul\":1020:1066   */\n      swap2\n      pop\n        /* \"#utility.yul\":800:1072   */\n      pop\n        /* \"#utility.yul\":708:1072   */\n      swap3\n      swap2\n      pop\n      pop\n      jump\t// out\n        /* \"#utility.yul\":1078:1391   */\n    tag_9:\n        /* \"#utility.yul\":1191:1195   */\n      0x00\n        /* \"#utility.yul\":1229:1231   */\n      0x20\n        /* \"#utility.yul\":1218:1227   */\n      dup3\n        /* \"#utility.yul\":1214:1232   */\n      add\n        /* \"#utility.yul\":1206:1232   */\n      swap1\n      pop\n        /* \"#utility.yul\":1278:1287   */\n      dup2\n        /* \"#utility.yul\":1272:1276   */\n      dup2\n        /* \"#utility.yul\":1268:1288   */\n      sub\n        /* \"#utility.yul\":1264:1265   */\n      0x00\n        /* \"#utility.yul\":1253:1262   */\n      dup4\n        /* \"#utility.yul\":1249:1266   */\n      add\n        /* \"#utility.yul\":1242:1289   */\n      mstore\n        /* \"#utility.yul\":1306:1384   */\n      tag_75\n        /* \"#utility.yul\":1379:1383   */\n      dup2\n        /* \"#utility.yul\":1370:1376   */\n      dup5\n        /* \"#utility.yul\":1306:1384   */\n      tag_46\n      jump\t// in\n    tag_75:\n        /* \"#utility.yul\":1298:1384   */\n      swap1\n      pop\n        /* \"#utility.yul\":1078:1391   */\n      swap3\n      swap2\n      pop\n      pop\n      jump\t// out\n        /* \"#utility.yul\":1397:1472   */\n    tag_47:\n        /* \"#utility.yul\":1430:1436   */\n      0x00\n        /* \"#utility.yul\":1463:1465   */\n      0x40\n        /* \"#utility.yul\":1457:1466   */\n      mload\n        /* \"#utility.yul\":1447:1466   */\n      swap1\n      pop\n        /* \"#utility.yul\":1397:1472   */\n      swap1\n      jump\t// out\n        /* \"#utility.yul\":1478:1595   */\n    tag_48:\n        /* \"#utility.yul\":1587:1588   */\n      0x00\n        /* \"#utility.yul\":1584:1585   */\n      dup1\n        /* \"#utility.yul\":1577:1589   */\n      revert\n        /* \"#utility.yul\":1601:1718   */\n    tag_49:\n        /* \"#utility.yul\":1710:1711   */\n      0x00\n        /* \"#utility.yul\":1707:1708   */\n      dup1\n        /* \"#utility.yul\":1700:1712   */\n      revert\n        /* \"#utility.yul\":1724:1841   */\n    tag_50:\n        /* \"#utility.yul\":1833:1834   */\n      0x00\n        /* \"#utility.yul\":1830:1831   */\n      dup1\n        /* \"#utility.yul\":1823:1835   */\n      revert\n        /* \"#utility.yul\":1847:1964   */\n    tag_51:\n        /* \"#utility.yul\":1956:1957   */\n      0x00\n        /* \"#utility.yul\":1953:1954   */\n      dup1\n        /* \"#utility.yul\":1946:1958   */\n      revert\n        /* \"#utility.yul\":1970:2150   */\n    tag_52:\n        /* \"#utility.yul\":2018:2095   */\n      0x4e487b7100000000000000000000000000000000000000000000000000000000\n        /* \"#utility.yul\":2015:2016   */\n      0x00\n        /* \"#utility.yul\":2008:2096   */\n      mstore\n        /* \"#utility.yul\":2115:2119   */\n      0x41\n        /* \"#utility.yul\":2112:2113   */\n      0x04\n        /* \"#utility.yul\":2105:2120   */\n      mstore\n        /* \"#utility.yul\":2139:2143   */\n      0x24\n        /* \"#utility.yul\":2136:2137   */\n      0x00\n        /* \"#utility.yul\":2129:2144   */\n      revert\n        /* \"#utility.yul\":2156:2437   */\n    tag_53:\n        /* \"#utility.yul\":2239:2266   */\n      tag_83\n        /* \"#utility.yul\":2261:2265   */\n      dup3\n        /* \"#utility.yul\":2239:2266   */\n      tag_45\n      jump\t// in\n    tag_83:\n        /* \"#utility.yul\":2231:2237   */\n      dup2\n        /* \"#utility.yul\":2227:2267   */\n      add\n        /* \"#utility.yul\":2369:2375   */\n      dup2\n        /* \"#utility.yul\":2357:2367   */\n      dup2\n        /* \"#utility.yul\":2354:2376   */\n      lt\n        /* \"#utility.yul\":2333:2351   */\n      0xffffffffffffffff\n        /* \"#utility.yul\":2321:2331   */\n      dup3\n        /* \"#utility.yul\":2318:2352   */\n      gt\n        /* \"#utility.yul\":2315:2377   */\n      or\n        /* \"#utility.yul\":2312:2400   */\n      iszero\n      tag_84\n      jumpi\n        /* \"#utility.yul\":2380:2398   */\n      tag_85\n      tag_52\n      jump\t// in\n    tag_85:\n        /* \"#utility.yul\":2312:2400   */\n    tag_84:\n        /* \"#utility.yul\":2420:2430   */\n      dup1\n        /* \"#utility.yul\":2416:2418   */\n      0x40\n        /* \"#utility.yul\":2409:2431   */\n      mstore\n        /* \"#utility.yul\":2199:2437   */\n      pop\n        /* \"#utility.yul\":2156:2437   */\n      pop\n      pop\n      jump\t// out\n        /* \"#utility.yul\":2443:2572   */\n    tag_54:\n        /* \"#utility.yul\":2477:2483   */\n      0x00\n        /* \"#utility.yul\":2504:2524   */\n      tag_87\n      tag_47\n      jump\t// in\n    tag_87:\n        /* \"#utility.yul\":2494:2524   */\n      swap1\n      pop\n        /* \"#utility.yul\":2533:2566   */\n      tag_88\n        /* \"#utility.yul\":2561:2565   */\n      dup3\n        /* \"#utility.yul\":2553:2559   */\n      dup3\n        /* \"#utility.yul\":2533:2566   */\n      tag_53\n      jump\t// in\n    tag_88:\n        /* \"#utility.yul\":2443:2572   */\n      swap2\n      swap1\n      pop\n      jump\t// out\n        /* \"#utility.yul\":2578:2886   */\n    tag_55:\n        /* \"#utility.yul\":2640:2644   */\n      0x00\n        /* \"#utility.yul\":2730:2748   */\n      0xffffffffffffffff\n        /* \"#utility.yul\":2722:2728   */\n      dup3\n        /* \"#utility.yul\":2719:2749   */\n      gt\n        /* \"#utility.yul\":2716:2772   */\n      iszero\n      tag_90\n      jumpi\n        /* \"#utility.yul\":2752:2770   */\n      tag_91\n      tag_52\n      jump\t// in\n    tag_91:\n        /* \"#utility.yul\":2716:2772   */\n    tag_90:\n        /* \"#utility.yul\":2790:2819   */\n      tag_92\n        /* \"#utility.yul\":2812:2818   */\n      dup3\n        /* \"#utility.yul\":2790:2819   */\n      tag_45\n      jump\t// in\n    tag_92:\n        /* \"#utility.yul\":2782:2819   */\n      swap1\n      pop\n        /* \"#utility.yul\":2874:2878   */\n      0x20\n        /* \"#utility.yul\":2868:2872   */\n      dup2\n        /* \"#utility.yul\":2864:2879   */\n      add\n        /* \"#utility.yul\":2856:2879   */\n      swap1\n      pop\n        /* \"#utility.yul\":2578:2886   */\n      swap2\n      swap1\n      pop\n      jump\t// out\n        /* \"#utility.yul\":2892:3046   */\n    tag_56:\n        /* \"#utility.yul\":2976:2982   */\n      dup3\n        /* \"#utility.yul\":2971:2974   */\n      dup2\n        /* \"#utility.yul\":2966:2969   */\n      dup4\n        /* \"#utility.yul\":2953:2983   */\n      calldatacopy\n        /* \"#utility.yul\":3038:3039   */\n      0x00\n        /* \"#utility.yul\":3029:3035   */\n      dup4\n        /* \"#utility.yul\":3024:3027   */\n      dup4\n        /* \"#utility.yul\":3020:3036   */\n      add\n        /* \"#utility.yul\":3013:3040   */\n      mstore\n        /* \"#utility.yul\":2892:3046   */\n      pop\n      pop\n      pop\n      jump\t// out\n        /* \"#utility.yul\":3052:3464   */\n    tag_57:\n        /* \"#utility.yul\":3130:3135   */\n      0x00\n        /* \"#utility.yul\":3155:3221   */\n      tag_95\n        /* \"#utility.yul\":3171:3220   */\n      tag_96\n        /* \"#utility.yul\":3213:3219   */\n      dup5\n        /* \"#utility.yul\":3171:3220   */\n      tag_55\n      jump\t// in\n    tag_96:\n        /* \"#utility.yul\":3155:3221   */\n      tag_54\n      jump\t// in\n    tag_95:\n        /* \"#utility.yul\":3146:3221   */\n      swap1\n      pop\n        /* \"#utility.yul\":3244:3250   */\n      dup3\n        /* \"#utility.yul\":3237:3242   */\n      dup2\n        /* \"#utility.yul\":3230:3251   */\n      mstore\n        /* \"#utility.yul\":3282:3286   */\n      0x20\n        /* \"#utility.yul\":3275:3280   */\n      dup2\n        /* \"#utility.yul\":3271:3287   */\n      add\n        /* \"#utility.yul\":3320:3323   */\n      dup5\n        /* \"#utility.yul\":3311:3317   */\n      dup5\n        /* \"#utility.yul\":3306:3309   */\n      dup5\n        /* \"#utility.yul\":3302:3318   */\n      add\n        /* \"#utility.yul\":3299:3324   */\n      gt\n        /* \"#utility.yul\":3296:3408   */\n      iszero\n      tag_97\n      jumpi\n        /* \"#utility.yul\":3327:3406   */\n      tag_98\n      tag_51\n      jump\t// in\n    tag_98:\n        /* \"#utility.yul\":3296:3408   */\n    tag_97:\n        /* \"#utility.yul\":3417:3458   */\n      tag_99\n        /* \"#utility.yul\":3451:3457   */\n      dup5\n        /* \"#utility.yul\":3446:3449   */\n      dup3\n        /* \"#utility.yul\":3441:3444   */\n      dup6\n        /* \"#utility.yul\":3417:3458   */\n      tag_56\n      jump\t// in\n    tag_99:\n        /* \"#utility.yul\":3136:3464   */\n      pop\n        /* \"#utility.yul\":3052:3464   */\n      swap4\n      swap3\n      pop\n      pop\n      pop\n      jump\t// out\n        /* \"#utility.yul\":3484:3824   */\n    tag_58:\n        /* \"#utility.yul\":3540:3545   */\n      0x00\n        /* \"#utility.yul\":3589:3592   */\n      dup3\n        /* \"#utility.yul\":3582:3586   */\n      0x1f\n        /* \"#utility.yul\":3574:3580   */\n      dup4\n        /* \"#utility.yul\":3570:3587   */\n      add\n        /* \"#utility.yul\":3566:3593   */\n      slt\n        /* \"#utility.yul\":3556:3678   */\n      tag_101\n      jumpi\n        /* \"#utility.yul\":3597:3676   */\n      tag_102\n      tag_50\n      jump\t// in\n    tag_102:\n        /* \"#utility.yul\":3556:3678   */\n    tag_101:\n        /* \"#utility.yul\":3714:3720   */\n      dup2\n        /* \"#utility.yul\":3701:3721   */\n      calldataload\n        /* \"#utility.yul\":3739:3818   */\n      tag_103\n        /* \"#utility.yul\":3814:3817   */\n      dup5\n        /* \"#utility.yul\":3806:3812   */\n      dup3\n        /* \"#utility.yul\":3799:3803   */\n      0x20\n        /* \"#utility.yul\":3791:3797   */\n      dup7\n        /* \"#utility.yul\":3787:3804   */\n      add\n        /* \"#utility.yul\":3739:3818   */\n      tag_57\n      jump\t// in\n    tag_103:\n        /* \"#utility.yul\":3730:3818   */\n      swap2\n      pop\n        /* \"#utility.yul\":3546:3824   */\n      pop\n        /* \"#utility.yul\":3484:3824   */\n      swap3\n      swap2\n      pop\n      pop\n      jump\t// out\n        /* \"#utility.yul\":3830:4339   */\n    tag_15:\n        /* \"#utility.yul\":3899:3905   */\n      0x00\n        /* \"#utility.yul\":3948:3950   */\n      0x20\n        /* \"#utility.yul\":3936:3945   */\n      dup3\n        /* \"#utility.yul\":3927:3934   */\n      dup5\n        /* \"#utility.yul\":3923:3946   */\n      sub\n        /* \"#utility.yul\":3919:3951   */\n      slt\n        /* \"#utility.yul\":3916:4035   */\n      iszero\n      tag_105\n      jumpi\n        /* \"#utility.yul\":3954:4033   */\n      tag_106\n      tag_48\n      jump\t// in\n    tag_106:\n        /* \"#utility.yul\":3916:4035   */\n    tag_105:\n        /* \"#utility.yul\":4102:4103   */\n      0x00\n        /* \"#utility.yul\":4091:4100   */\n      dup3\n        /* \"#utility.yul\":4087:4104   */\n      add\n        /* \"#utility.yul\":4074:4105   */\n      calldataload\n        /* \"#utility.yul\":4132:4150   */\n      0xffffffffffffffff\n        /* \"#utility.yul\":4124:4130   */\n      dup2\n        /* \"#utility.yul\":4121:4151   */\n      gt\n        /* \"#utility.yul\":4118:4235   */\n      iszero\n      tag_107\n      jumpi\n        /* \"#utility.yul\":4154:4233   */\n      tag_108\n      tag_49\n      jump\t// in\n    tag_108:\n        /* \"#utility.yul\":4118:4235   */\n    tag_107:\n        /* \"#utility.yul\":4259:4322   */\n      tag_109\n        /* \"#utility.yul\":4314:4321   */\n      dup5\n        /* \"#utility.yul\":4305:4311   */\n      dup3\n        /* \"#utility.yul\":4294:4303   */\n      dup6\n        /* \"#utility.yul\":4290:4312   */\n      add\n        /* \"#utility.yul\":4259:4322   */\n      tag_58\n      jump\t// in\n    tag_109:\n        /* \"#utility.yul\":4249:4322   */\n      swap2\n      pop\n        /* \"#utility.yul\":4045:4332   */\n      pop\n        /* \"#utility.yul\":3830:4339   */\n      swap3\n      swap2\n      pop\n      pop\n      jump\t// out\n        /* \"#utility.yul\":4345:4525   */\n    tag_59:\n        /* \"#utility.yul\":4393:4470   */\n      0x4e487b7100000000000000000000000000000000000000000000000000000000\n        /* \"#utility.yul\":4390:4391   */\n      0x00\n        /* \"#utility.yul\":4383:4471   */\n      mstore\n        /* \"#utility.yul\":4490:4494   */\n      0x22\n        /* \"#utility.yul\":4487:4488   */\n      0x04\n        /* \"#utility.yul\":4480:4495   */\n      mstore\n        /* \"#utility.yul\":4514:4518   */\n      0x24\n        /* \"#utility.yul\":4511:4512   */\n      0x00\n        /* \"#utility.yul\":4504:4519   */\n      revert\n        /* \"#utility.yul\":4531:4851   */\n    tag_18:\n        /* \"#utility.yul\":4575:4581   */\n      0x00\n        /* \"#utility.yul\":4612:4613   */\n      0x02\n        /* \"#utility.yul\":4606:4610   */\n      dup3\n        /* \"#utility.yul\":4602:4614   */\n      div\n        /* \"#utility.yul\":4592:4614   */\n      swap1\n      pop\n        /* \"#utility.yul\":4659:4660   */\n      0x01\n        /* \"#utility.yul\":4653:4657   */\n      dup3\n        /* \"#utility.yul\":4649:4661   */\n      and\n        /* \"#utility.yul\":4680:4698   */\n      dup1\n        /* \"#utility.yul\":4670:4751   */\n      tag_112\n      jumpi\n        /* \"#utility.yul\":4736:4740   */\n      0x7f\n        /* \"#utility.yul\":4728:4734   */\n      dup3\n        /* \"#utility.yul\":4724:4741   */\n      and\n        /* \"#utility.yul\":4714:4741   */\n      swap2\n      pop\n        /* \"#utility.yul\":4670:4751   */\n    tag_112:\n        /* \"#utility.yul\":4798:4800   */\n      0x20\n        /* \"#utility.yul\":4790:4796   */\n      dup3\n        /* \"#utility.yul\":4787:4801   */\n      lt\n        /* \"#utility.yul\":4767:4785   */\n      dup2\n        /* \"#utility.yul\":4764:4802   */\n      sub\n        /* \"#utility.yul\":4761:4845   */\n      tag_113\n      jumpi\n        /* \"#utility.yul\":4817:4835   */\n      tag_114\n      tag_59\n      jump\t// in\n    tag_114:\n        /* \"#utility.yul\":4761:4845   */\n    tag_113:\n        /* \"#utility.yul\":4582:4851   */\n      pop\n        /* \"#utility.yul\":4531:4851   */\n      swap2\n      swap1\n      pop\n      jump\t// out\n\n    auxdata: 0xa2646970667358221220435a6f065ca8eb761c29384a446696f50444e44455d518dac59f39b07a85343464736f6c634300080d0033\n}\n",
				"bytecode": {
					"linkReferences": {},
					"object": "608060405234801561001057600080fd5b5061055e806100206000396000f3fe608060405234801561001057600080fd5b50600436106100415760003560e01c806306fdde031461004657806317d7de7c14610064578063c47f002714610082575b600080fd5b61004e61009e565b60405161005b9190610314565b60405180910390f35b61006c61012c565b6040516100799190610314565b60405180910390f35b61009c6004803603810190610097919061047f565b6101be565b005b600080546100ab906104f7565b80601f01602080910402602001604051908101604052809291908181526020018280546100d7906104f7565b80156101245780601f106100f957610100808354040283529160200191610124565b820191906000526020600020905b81548152906001019060200180831161010757829003601f168201915b505050505081565b60606000805461013b906104f7565b80601f0160208091040260200160405190810160405280929190818152602001828054610167906104f7565b80156101b45780601f10610189576101008083540402835291602001916101b4565b820191906000526020600020905b81548152906001019060200180831161019757829003601f168201915b5050505050905090565b80600090805190602001906101d49291906101d8565b5050565b8280546101e4906104f7565b90600052602060002090601f016020900481019282610206576000855561024d565b82601f1061021f57805160ff191683800117855561024d565b8280016001018555821561024d579182015b8281111561024c578251825591602001919060010190610231565b5b50905061025a919061025e565b5090565b5b8082111561027757600081600090555060010161025f565b5090565b600081519050919050565b600082825260208201905092915050565b60005b838110156102b557808201518184015260208101905061029a565b838111156102c4576000848401525b50505050565b6000601f19601f8301169050919050565b60006102e68261027b565b6102f08185610286565b9350610300818560208601610297565b610309816102ca565b840191505092915050565b6000602082019050818103600083015261032e81846102db565b905092915050565b6000604051905090565b600080fd5b600080fd5b600080fd5b600080fd5b7f4e487b7100000000000000000000000000000000000000000000000000000000600052604160045260246000fd5b61038c826102ca565b810181811067ffffffffffffffff821117156103ab576103aa610354565b5b80604052505050565b60006103be610336565b90506103ca8282610383565b919050565b600067ffffffffffffffff8211156103ea576103e9610354565b5b6103f3826102ca565b9050602081019050919050565b82818337600083830152505050565b600061042261041d846103cf565b6103b4565b90508281526020810184848401111561043e5761043d61034f565b5b610449848285610400565b509392505050565b600082601f8301126104665761046561034a565b5b813561047684826020860161040f565b91505092915050565b60006020828403121561049557610494610340565b5b600082013567ffffffffffffffff8111156104b3576104b2610345565b5b6104bf84828501610451565b91505092915050565b7f4e487b7100000000000000000000000000000000000000000000000000000000600052602260045260246000fd5b6000600282049050600182168061050f57607f821691505b602082108103610522576105216104c8565b5b5091905056fea2646970667358221220435a6f065ca8eb761c29384a446696f50444e44455d518dac59f39b07a85343464736f6c634300080d0033",
					"opcodes": "PUSH1 0x80 PUSH1 0x40 MSTORE CALLVALUE DUP1 ISZERO PUSH2 0x10 JUMPI PUSH1 0x0 DUP1 REVERT JUMPDEST POP PUSH2 0x55E DUP1 PUSH2 0x20 PUSH1 0x0 CODECOPY PUSH1 0x0 RETURN INVALID PUSH1 0x80 PUSH1 0x40 MSTORE CALLVALUE DUP1 ISZERO PUSH2 0x10 JUMPI PUSH1 0x0 DUP1 REVERT JUMPDEST POP PUSH1 0x4 CALLDATASIZE LT PUSH2 0x41 JUMPI PUSH1 0x0 CALLDATALOAD PUSH1 0xE0 SHR DUP1 PUSH4 0x6FDDE03 EQ PUSH2 0x46 JUMPI DUP1 PUSH4 0x17D7DE7C EQ PUSH2 0x64 JUMPI DUP1 PUSH4 0xC47F0027 EQ PUSH2 0x82 JUMPI JUMPDEST PUSH1 0x0 DUP1 REVERT JUMPDEST PUSH2 0x4E PUSH2 0x9E JUMP JUMPDEST PUSH1 0x40 MLOAD PUSH2 0x5B SWAP2 SWAP1 PUSH2 0x314 JUMP JUMPDEST PUSH1 0x40 MLOAD DUP1 SWAP2 SUB SWAP1 RETURN JUMPDEST PUSH2 0x6C PUSH2 0x12C JUMP JUMPDEST PUSH1 0x40 MLOAD PUSH2 0x79 SWAP2 SWAP1 PUSH2 0x314 JUMP JUMPDEST PUSH1 0x40 MLOAD DUP1 SWAP2 SUB SWAP1 RETURN JUMPDEST PUSH2 0x9C PUSH1 0x4 DUP1 CALLDATASIZE SUB DUP2 ADD SWAP1 PUSH2 0x97 SWAP2 SWAP1 PUSH2 0x47F JUMP JUMPDEST PUSH2 0x1BE JUMP JUMPDEST STOP JUMPDEST PUSH1 0x0 DUP1 SLOAD PUSH2 0xAB SWAP1 PUSH2 0x4F7 JUMP JUMPDEST DUP1 PUSH1 0x1F ADD PUSH1 0x20 DUP1 SWAP2 DIV MUL PUSH1 0x20 ADD PUSH1 0x40 MLOAD SWAP1 DUP2 ADD PUSH1 0x40 MSTORE DUP1 SWAP3 SWAP2 SWAP1 DUP2 DUP2 MSTORE PUSH1 0x20 ADD DUP3 DUP1 SLOAD PUSH2 0xD7 SWAP1 PUSH2 0x4F7 JUMP JUMPDEST DUP1 ISZERO PUSH2 0x124 JUMPI DUP1 PUSH1 0x1F LT PUSH2 0xF9 JUMPI PUSH2 0x100 DUP1 DUP4 SLOAD DIV MUL DUP4 MSTORE SWAP2 PUSH1 0x20 ADD SWAP2 PUSH2 0x124 JUMP JUMPDEST DUP3 ADD SWAP2 SWAP1 PUSH1 0x0 MSTORE PUSH1 0x20 PUSH1 0x0 KECCAK256 SWAP1 JUMPDEST DUP2 SLOAD DUP2 MSTORE SWAP1 PUSH1 0x1 ADD SWAP1 PUSH1 0x20 ADD DUP1 DUP4 GT PUSH2 0x107 JUMPI DUP3 SWAP1 SUB PUSH1 0x1F AND DUP3 ADD SWAP2 JUMPDEST POP POP POP POP POP DUP2 JUMP JUMPDEST PUSH1 0x60 PUSH1 0x0 DUP1 SLOAD PUSH2 0x13B SWAP1 PUSH2 0x4F7 JUMP JUMPDEST DUP1 PUSH1 0x1F ADD PUSH1 0x20 DUP1 SWAP2 DIV MUL PUSH1 0x20 ADD PUSH1 0x40 MLOAD SWAP1 DUP2 ADD PUSH1 0x40 MSTORE DUP1 SWAP3 SWAP2 SWAP1 DUP2 DUP2 MSTORE PUSH1 0x20 ADD DUP3 DUP1 SLOAD PUSH2 0x167 SWAP1 PUSH2 0x4F7 JUMP JUMPDEST DUP1 ISZERO PUSH2 0x1B4 JUMPI DUP1 PUSH1 0x1F LT PUSH2 0x189 JUMPI PUSH2 0x100 DUP1 DUP4 SLOAD DIV MUL DUP4 MSTORE SWAP2 PUSH1 0x20 ADD SWAP2 PUSH2 0x1B4 JUMP JUMPDEST DUP3 ADD SWAP2 SWAP1 PUSH1 0x0 MSTORE PUSH1 0x20 PUSH1 0x0 KECCAK256 SWAP1 JUMPDEST DUP2 SLOAD DUP2 MSTORE SWAP1 PUSH1 0x1 ADD SWAP1 PUSH1 0x20 ADD DUP1 DUP4 GT PUSH2 0x197 JUMPI DUP3 SWAP1 SUB PUSH1 0x1F AND DUP3 ADD SWAP2 JUMPDEST POP POP POP POP POP SWAP1 POP SWAP1 JUMP JUMPDEST DUP1 PUSH1 0x0 SWAP1 DUP1 MLOAD SWAP1 PUSH1 0x20 ADD SWAP1 PUSH2 0x1D4 SWAP3 SWAP2 SWAP1 PUSH2 0x1D8 JUMP JUMPDEST POP POP JUMP JUMPDEST DUP3 DUP1 SLOAD PUSH2 0x1E4 SWAP1 PUSH2 0x4F7 JUMP JUMPDEST SWAP1 PUSH1 0x0 MSTORE PUSH1 0x20 PUSH1 0x0 KECCAK256 SWAP1 PUSH1 0x1F ADD PUSH1 0x20 SWAP1 DIV DUP2 ADD SWAP3 DUP3 PUSH2 0x206 JUMPI PUSH1 0x0 DUP6 SSTORE PUSH2 0x24D JUMP JUMPDEST DUP3 PUSH1 0x1F LT PUSH2 0x21F JUMPI DUP1 MLOAD PUSH1 0xFF NOT AND DUP4 DUP1 ADD OR DUP6 SSTORE PUSH2 0x24D JUMP JUMPDEST DUP3 DUP1 ADD PUSH1 0x1 ADD DUP6 SSTORE DUP3 ISZERO PUSH2 0x24D JUMPI SWAP2 DUP3 ADD JUMPDEST DUP3 DUP2 GT ISZERO PUSH2 0x24C JUMPI DUP3 MLOAD DUP3 SSTORE SWAP2 PUSH1 0x20 ADD SWAP2 SWAP1 PUSH1 0x1 ADD SWAP1 PUSH2 0x231 JUMP JUMPDEST JUMPDEST POP SWAP1 POP PUSH2 0x25A SWAP2 SWAP1 PUSH2 0x25E JUMP JUMPDEST POP SWAP1 JUMP JUMPDEST JUMPDEST DUP1 DUP3 GT ISZERO PUSH2 0x277 JUMPI PUSH1 0x0 DUP2 PUSH1 0x0 SWAP1 SSTORE POP PUSH1 0x1 ADD PUSH2 0x25F JUMP JUMPDEST POP SWAP1 JUMP JUMPDEST PUSH1 0x0 DUP2 MLOAD SWAP1 POP SWAP2 SWAP1 POP JUMP JUMPDEST PUSH1 0x0 DUP3 DUP3 MSTORE PUSH1 0x20 DUP3 ADD SWAP1 POP SWAP3 SWAP2 POP POP JUMP JUMPDEST PUSH1 0x0 JUMPDEST DUP4 DUP2 LT ISZERO PUSH2 0x2B5 JUMPI DUP1 DUP3 ADD MLOAD DUP2 DUP5 ADD MSTORE PUSH1 0x20 DUP2 ADD SWAP1 POP PUSH2 0x29A JUMP JUMPDEST DUP4 DUP2 GT ISZERO PUSH2 0x2C4 JUMPI PUSH1 0x0 DUP5 DUP5 ADD MSTORE JUMPDEST POP POP POP POP JUMP JUMPDEST PUSH1 0x0 PUSH1 0x1F NOT PUSH1 0x1F DUP4 ADD AND SWAP1 POP SWAP2 SWAP1 POP JUMP JUMPDEST PUSH1 0x0 PUSH2 0x2E6 DUP3 PUSH2 0x27B JUMP JUMPDEST PUSH2 0x2F0 DUP2 DUP6 PUSH2 0x286 JUMP JUMPDEST SWAP4 POP PUSH2 0x300 DUP2 DUP6 PUSH1 0x20 DUP7 ADD PUSH2 0x297 JUMP JUMPDEST PUSH2 0x309 DUP2 PUSH2 0x2CA JUMP JUMPDEST DUP5 ADD SWAP2 POP POP SWAP3 SWAP2 POP POP JUMP JUMPDEST PUSH1 0x0 PUSH1 0x20 DUP3 ADD SWAP1 POP DUP2 DUP2 SUB PUSH1 0x0 DUP4 ADD MSTORE PUSH2 0x32E DUP2 DUP5 PUSH2 0x2DB JUMP JUMPDEST SWAP1 POP SWAP3 SWAP2 POP POP JUMP JUMPDEST PUSH1 0x0 PUSH1 0x40 MLOAD SWAP1 POP SWAP1 JUMP JUMPDEST PUSH1 0x0 DUP1 REVERT JUMPDEST PUSH1 0x0 DUP1 REVERT JUMPDEST PUSH1 0x0 DUP1 REVERT JUMPDEST PUSH1 0x0 DUP1 REVERT JUMPDEST PUSH32 0x4E487B7100000000000000000000000000000000000000000000000000000000 PUSH1 0x0 MSTORE PUSH1 0x41 PUSH1 0x4 MSTORE PUSH1 0x24 PUSH1 0x0 REVERT JUMPDEST PUSH2 0x38C DUP3 PUSH2 0x2CA JUMP JUMPDEST DUP2 ADD DUP2 DUP2 LT PUSH8 0xFFFFFFFFFFFFFFFF DUP3 GT OR ISZERO PUSH2 0x3AB JUMPI PUSH2 0x3AA PUSH2 0x354 JUMP JUMPDEST JUMPDEST DUP1 PUSH1 0x40 MSTORE POP POP POP JUMP JUMPDEST PUSH1 0x0 PUSH2 0x3BE PUSH2 0x336 JUMP JUMPDEST SWAP1 POP PUSH2 0x3CA DUP3 DUP3 PUSH2 0x383 JUMP JUMPDEST SWAP2 SWAP1 POP JUMP JUMPDEST PUSH1 0x0 PUSH8 0xFFFFFFFFFFFFFFFF DUP3 GT ISZERO PUSH2 0x3EA JUMPI PUSH2 0x3E9 PUSH2 0x354 JUMP JUMPDEST JUMPDEST PUSH2 0x3F3 DUP3 PUSH2 0x2CA JUMP JUMPDEST SWAP1 POP PUSH1 0x20 DUP2 ADD SWAP1 POP SWAP2 SWAP1 POP JUMP JUMPDEST DUP3 DUP2 DUP4 CALLDATACOPY PUSH1 0x0 DUP4 DUP4 ADD MSTORE POP POP POP JUMP JUMPDEST PUSH1 0x0 PUSH2 0x422 PUSH2 0x41D DUP5 PUSH2 0x3CF JUMP JUMPDEST PUSH2 0x3B4 JUMP JUMPDEST SWAP1 POP DUP3 DUP2 MSTORE PUSH1 0x20 DUP2 ADD DUP5 DUP5 DUP5 ADD GT ISZERO PUSH2 0x43E JUMPI PUSH2 0x43D PUSH2 0x34F JUMP JUMPDEST JUMPDEST PUSH2 0x449 DUP5 DUP3 DUP6 PUSH2 0x400 JUMP JUMPDEST POP SWAP4 SWAP3 POP POP POP JUMP JUMPDEST PUSH1 0x0 DUP3 PUSH1 0x1F DUP4 ADD SLT PUSH2 0x466 JUMPI PUSH2 0x465 PUSH2 0x34A JUMP JUMPDEST JUMPDEST DUP2 CALLDATALOAD PUSH2 0x476 DUP5 DUP3 PUSH1 0x20 DUP7 ADD PUSH2 0x40F JUMP JUMPDEST SWAP2 POP POP SWAP3 SWAP2 POP POP JUMP JUMPDEST PUSH1 0x0 PUSH1 0x20 DUP3 DUP5 SUB SLT ISZERO PUSH2 0x495 JUMPI PUSH2 0x494 PUSH2 0x340 JUMP JUMPDEST JUMPDEST PUSH1 0x0 DUP3 ADD CALLDATALOAD PUSH8 0xFFFFFFFFFFFFFFFF DUP2 GT ISZERO PUSH2 0x4B3 JUMPI PUSH2 0x4B2 PUSH2 0x345 JUMP JUMPDEST JUMPDEST PUSH2 0x4BF DUP5 DUP3 DUP6 ADD PUSH2 0x451 JUMP JUMPDEST SWAP2 POP POP SWAP3 SWAP2 POP POP JUMP JUMPDEST PUSH32 0x4E487B7100000000000000000000000000000000000000000000000000000000 PUSH1 0x0 MSTORE PUSH1 0x22 PUSH1 0x4 MSTORE PUSH1 0x24 PUSH1 0x0 REVERT JUMPDEST PUSH1 0x0 PUSH1 0x2 DUP3 DIV SWAP1 POP PUSH1 0x1 DUP3 AND DUP1 PUSH2 0x50F JUMPI PUSH1 0x7F DUP3 AND SWAP2 POP JUMPDEST PUSH1 0x20 DUP3 LT DUP2 SUB PUSH2 0x522 JUMPI PUSH2 0x521 PUSH2 0x4C8 JUMP JUMPDEST JUMPDEST POP SWAP2 SWAP1 POP JUMP INVALID LOG2 PUSH5 0x6970667358 0x22 SLT KECCAK256 NUMBER GAS PUSH16 0x65CA8EB761C29384A446696F50444E4 DIFFICULTY SSTORE 0xD5 XOR 0xDA 0xC5 SWAP16 CODECOPY 0xB0 PUSH27 0x85343464736F6C634300080D003300000000000000000000000000 "
				},
				"gasEstimates": {
					"creation": {
						"codeDepositCost": "274800",
						"executionCost": "312",
						"totalCost": "275112"
					},
					"external": {
						"getName()": "infinite",
						"name()": "infinite",
						"setName(string)": "infinite"
					}
				},
				"methodIdentifiers": {
					"getName()": "17d7de7c",
					"name()": "06fdde03",
					"setName(string)": "c47f0027"
				}
			},
			"storageLayout": {
				"storage": [
					{
						"astId": 26,
						"contract": "udemy solidity course - complete DApp/Exercise_Deploy_Smart_Contract.sol:names",
						"label": "name",
						"offset": 0,
						"slot": "0",
						"type": "t_string_storage"
					}
				],
				"types": {
					"t_string_storage": {
						"encoding": "bytes",
						"label": "string",
						"numberOfBytes": "32"
					}
				}
			},
			"userdoc": {
				"kind": "user",
				"methods": {},
				"version": 1
			}
		}
	}
}