{
	"udemy solidity course - complete DApp/Will.sol": {
		"Will": {
			"abi": [
				{
					"inputs": [],
					"stateMutability": "payable",
					"type": "constructor"
				},
				{
					"inputs": [],
					"name": "isDeceased",
					"outputs": [],
					"stateMutability": "nonpayable",
					"type": "function"
				},
				{
					"inputs": [
						{
							"internalType": "address payable",
							"name": "wallet",
							"type": "address"
						},
						{
							"internalType": "uint256",
							"name": "amount",
							"type": "uint256"
						}
					],
					"name": "setFamilyWallets",
					"outputs": [],
					"stateMutability": "nonpayable",
					"type": "function"
				}
			],
			"devdoc": {
				"kind": "dev",
				"methods": {},
				"version": 1
			},
			"evm": {
				"assembly": "    /* \"udemy solidity course - complete DApp/Will.sol\":58:1167  contract Will {... */\n  mstore(0x40, 0x80)\n    /* \"udemy solidity course - complete DApp/Will.sol\":175:185  msg.sender */\n  caller\n    /* \"udemy solidity course - complete DApp/Will.sol\":167:172  owner */\n  0x00\n  dup1\n    /* \"udemy solidity course - complete DApp/Will.sol\":167:185  owner = msg.sender */\n  0x0100\n  exp\n  dup2\n  sload\n  dup2\n  0xffffffffffffffffffffffffffffffffffffffff\n  mul\n  not\n  and\n  swap1\n  dup4\n  0xffffffffffffffffffffffffffffffffffffffff\n  and\n  mul\n  or\n  swap1\n  sstore\n  pop\n    /* \"udemy solidity course - complete DApp/Will.sol\":205:214  msg.value */\n  callvalue\n    /* \"udemy solidity course - complete DApp/Will.sol\":195:202  fortune */\n  0x01\n    /* \"udemy solidity course - complete DApp/Will.sol\":195:214  fortune = msg.value */\n  dup2\n  swap1\n  sstore\n  pop\n    /* \"udemy solidity course - complete DApp/Will.sol\":235:240  false */\n  0x00\n    /* \"udemy solidity course - complete DApp/Will.sol\":224:232  deceased */\n  0x02\n  0x00\n    /* \"udemy solidity course - complete DApp/Will.sol\":224:240  deceased = false */\n  0x0100\n  exp\n  dup2\n  sload\n  dup2\n  0xff\n  mul\n  not\n  and\n  swap1\n  dup4\n  iszero\n  iszero\n  mul\n  or\n  swap1\n  sstore\n  pop\n    /* \"udemy solidity course - complete DApp/Will.sol\":58:1167  contract Will {... */\n  dataSize(sub_0)\n  dup1\n  dataOffset(sub_0)\n  0x00\n  codecopy\n  0x00\n  return\nstop\n\nsub_0: assembly {\n        /* \"udemy solidity course - complete DApp/Will.sol\":58:1167  contract Will {... */\n      mstore(0x40, 0x80)\n      callvalue\n      dup1\n      iszero\n      tag_1\n      jumpi\n      0x00\n      dup1\n      revert\n    tag_1:\n      pop\n      jumpi(tag_2, lt(calldatasize, 0x04))\n      shr(0xe0, calldataload(0x00))\n      dup1\n      0x85ac4515\n      eq\n      tag_3\n      jumpi\n      dup1\n      0xa9464d8d\n      eq\n      tag_4\n      jumpi\n    tag_2:\n      0x00\n      dup1\n      revert\n        /* \"udemy solidity course - complete DApp/Will.sol\":1083:1165  function isDeceased() public {... */\n    tag_3:\n      tag_5\n      tag_6\n      jump\t// in\n    tag_5:\n      stop\n        /* \"udemy solidity course - complete DApp/Will.sol\":544:709  function setFamilyWallets(address payable wallet, uint amount) public onlyOwner {... */\n    tag_4:\n      tag_7\n      0x04\n      dup1\n      calldatasize\n      sub\n      dup2\n      add\n      swap1\n      tag_8\n      swap2\n      swap1\n      tag_9\n      jump\t// in\n    tag_8:\n      tag_10\n      jump\t// in\n    tag_7:\n      stop\n        /* \"udemy solidity course - complete DApp/Will.sol\":1083:1165  function isDeceased() public {... */\n    tag_6:\n        /* \"udemy solidity course - complete DApp/Will.sol\":1134:1138  true */\n      0x01\n        /* \"udemy solidity course - complete DApp/Will.sol\":1122:1138  deceased == true */\n      iszero\n      iszero\n        /* \"udemy solidity course - complete DApp/Will.sol\":1122:1130  deceased */\n      0x02\n      0x00\n      swap1\n      sload\n      swap1\n      0x0100\n      exp\n      swap1\n      pop\n      pop\n        /* \"udemy solidity course - complete DApp/Will.sol\":1122:1138  deceased == true */\n      pop\n        /* \"udemy solidity course - complete DApp/Will.sol\":1148:1158  transfer() */\n      tag_12\n        /* \"udemy solidity course - complete DApp/Will.sol\":1148:1156  transfer */\n      tag_13\n        /* \"udemy solidity course - complete DApp/Will.sol\":1148:1158  transfer() */\n      jump\t// in\n    tag_12:\n        /* \"udemy solidity course - complete DApp/Will.sol\":1083:1165  function isDeceased() public {... */\n      jump\t// out\n        /* \"udemy solidity course - complete DApp/Will.sol\":544:709  function setFamilyWallets(address payable wallet, uint amount) public onlyOwner {... */\n    tag_10:\n        /* \"udemy solidity course - complete DApp/Will.sol\":304:309  owner */\n      0x00\n      dup1\n      sload\n      swap1\n      0x0100\n      exp\n      swap1\n      div\n      0xffffffffffffffffffffffffffffffffffffffff\n      and\n        /* \"udemy solidity course - complete DApp/Will.sol\":290:309  msg.sender == owner */\n      0xffffffffffffffffffffffffffffffffffffffff\n      and\n        /* \"udemy solidity course - complete DApp/Will.sol\":290:300  msg.sender */\n      caller\n        /* \"udemy solidity course - complete DApp/Will.sol\":290:309  msg.sender == owner */\n      0xffffffffffffffffffffffffffffffffffffffff\n      and\n      eq\n        /* \"udemy solidity course - complete DApp/Will.sol\":282:334  require(msg.sender == owner, \"You're not the owner\") */\n      tag_15\n      jumpi\n      mload(0x40)\n      0x08c379a000000000000000000000000000000000000000000000000000000000\n      dup2\n      mstore\n      0x04\n      add\n      tag_16\n      swap1\n      tag_17\n      jump\t// in\n    tag_16:\n      mload(0x40)\n      dup1\n      swap2\n      sub\n      swap1\n      revert\n    tag_15:\n        /* \"udemy solidity course - complete DApp/Will.sol\":634:647  familyWallets */\n      0x03\n        /* \"udemy solidity course - complete DApp/Will.sol\":653:659  wallet */\n      dup3\n        /* \"udemy solidity course - complete DApp/Will.sol\":634:660  familyWallets.push(wallet) */\n      swap1\n      dup1\n      0x01\n      dup2\n      sload\n      add\n      dup1\n      dup3\n      sstore\n      dup1\n      swap2\n      pop\n      pop\n      0x01\n      swap1\n      sub\n      swap1\n      0x00\n      mstore\n      keccak256(0x00, 0x20)\n      add\n      0x00\n      swap1\n      swap2\n      swap1\n      swap2\n      swap1\n      swap2\n      0x0100\n      exp\n      dup2\n      sload\n      dup2\n      0xffffffffffffffffffffffffffffffffffffffff\n      mul\n      not\n      and\n      swap1\n      dup4\n      0xffffffffffffffffffffffffffffffffffffffff\n      and\n      mul\n      or\n      swap1\n      sstore\n      pop\n        /* \"udemy solidity course - complete DApp/Will.sol\":696:702  amount */\n      dup1\n        /* \"udemy solidity course - complete DApp/Will.sol\":670:685  walletsOfFamily */\n      0x04\n        /* \"udemy solidity course - complete DApp/Will.sol\":670:693  walletsOfFamily[wallet] */\n      0x00\n        /* \"udemy solidity course - complete DApp/Will.sol\":686:692  wallet */\n      dup5\n        /* \"udemy solidity course - complete DApp/Will.sol\":670:693  walletsOfFamily[wallet] */\n      0xffffffffffffffffffffffffffffffffffffffff\n      and\n      0xffffffffffffffffffffffffffffffffffffffff\n      and\n      dup2\n      mstore\n      0x20\n      add\n      swap1\n      dup2\n      mstore\n      0x20\n      add\n      0x00\n      keccak256\n        /* \"udemy solidity course - complete DApp/Will.sol\":670:702  walletsOfFamily[wallet] = amount */\n      dup2\n      swap1\n      sstore\n      pop\n        /* \"udemy solidity course - complete DApp/Will.sol\":544:709  function setFamilyWallets(address payable wallet, uint amount) public onlyOwner {... */\n      pop\n      pop\n      jump\t// out\n        /* \"udemy solidity course - complete DApp/Will.sol\":776:1048  function transfer() private mustBeDeceased {... */\n    tag_13:\n        /* \"udemy solidity course - complete DApp/Will.sol\":412:416  true */\n      0x01\n        /* \"udemy solidity course - complete DApp/Will.sol\":400:416  deceased == true */\n      iszero\n      iszero\n        /* \"udemy solidity course - complete DApp/Will.sol\":400:408  deceased */\n      0x02\n      0x00\n      swap1\n      sload\n      swap1\n      0x0100\n      exp\n      swap1\n      div\n      0xff\n      and\n        /* \"udemy solidity course - complete DApp/Will.sol\":400:416  deceased == true */\n      iszero\n      iszero\n      eq\n        /* \"udemy solidity course - complete DApp/Will.sol\":392:435  require(deceased == true, \"Is still alive\") */\n      tag_21\n      jumpi\n      mload(0x40)\n      0x08c379a000000000000000000000000000000000000000000000000000000000\n      dup2\n      mstore\n      0x04\n      add\n      tag_22\n      swap1\n      tag_23\n      jump\t// in\n    tag_22:\n      mload(0x40)\n      dup1\n      swap2\n      sub\n      swap1\n      revert\n    tag_21:\n        /* \"udemy solidity course - complete DApp/Will.sol\":833:839  uint i */\n      0x00\n        /* \"udemy solidity course - complete DApp/Will.sol\":829:1042  for(uint i = 0; i <= familyWallets.length; i++) {... */\n    tag_25:\n        /* \"udemy solidity course - complete DApp/Will.sol\":850:863  familyWallets */\n      0x03\n        /* \"udemy solidity course - complete DApp/Will.sol\":850:870  familyWallets.length */\n      dup1\n      sload\n      swap1\n      pop\n        /* \"udemy solidity course - complete DApp/Will.sol\":845:846  i */\n      dup2\n        /* \"udemy solidity course - complete DApp/Will.sol\":845:870  i <= familyWallets.length */\n      gt\n        /* \"udemy solidity course - complete DApp/Will.sol\":829:1042  for(uint i = 0; i <= familyWallets.length; i++) {... */\n      tag_26\n      jumpi\n        /* \"udemy solidity course - complete DApp/Will.sol\":971:984  familyWallets */\n      0x03\n        /* \"udemy solidity course - complete DApp/Will.sol\":985:986  i */\n      dup2\n        /* \"udemy solidity course - complete DApp/Will.sol\":971:987  familyWallets[i] */\n      dup2\n      sload\n      dup2\n      lt\n      tag_28\n      jumpi\n      tag_29\n      tag_30\n      jump\t// in\n    tag_29:\n    tag_28:\n      swap1\n      0x00\n      mstore\n      keccak256(0x00, 0x20)\n      add\n      0x00\n      swap1\n      sload\n      swap1\n      0x0100\n      exp\n      swap1\n      div\n      0xffffffffffffffffffffffffffffffffffffffff\n      and\n        /* \"udemy solidity course - complete DApp/Will.sol\":971:996  familyWallets[i].transfer */\n      0xffffffffffffffffffffffffffffffffffffffff\n      and\n        /* \"udemy solidity course - complete DApp/Will.sol\":971:1031  familyWallets[i].transfer(walletsOfFamily[familyWallets[i]]) */\n      0x08fc\n        /* \"udemy solidity course - complete DApp/Will.sol\":997:1012  walletsOfFamily */\n      0x04\n        /* \"udemy solidity course - complete DApp/Will.sol\":997:1030  walletsOfFamily[familyWallets[i]] */\n      0x00\n        /* \"udemy solidity course - complete DApp/Will.sol\":1013:1026  familyWallets */\n      0x03\n        /* \"udemy solidity course - complete DApp/Will.sol\":1027:1028  i */\n      dup6\n        /* \"udemy solidity course - complete DApp/Will.sol\":1013:1029  familyWallets[i] */\n      dup2\n      sload\n      dup2\n      lt\n      tag_32\n      jumpi\n      tag_33\n      tag_30\n      jump\t// in\n    tag_33:\n    tag_32:\n      swap1\n      0x00\n      mstore\n      keccak256(0x00, 0x20)\n      add\n      0x00\n      swap1\n      sload\n      swap1\n      0x0100\n      exp\n      swap1\n      div\n      0xffffffffffffffffffffffffffffffffffffffff\n      and\n        /* \"udemy solidity course - complete DApp/Will.sol\":997:1030  walletsOfFamily[familyWallets[i]] */\n      0xffffffffffffffffffffffffffffffffffffffff\n      and\n      0xffffffffffffffffffffffffffffffffffffffff\n      and\n      dup2\n      mstore\n      0x20\n      add\n      swap1\n      dup2\n      mstore\n      0x20\n      add\n      0x00\n      keccak256\n      sload\n        /* \"udemy solidity course - complete DApp/Will.sol\":971:1031  familyWallets[i].transfer(walletsOfFamily[familyWallets[i]]) */\n      swap1\n      dup2\n      iszero\n      mul\n      swap1\n      mload(0x40)\n      0x00\n      mload(0x40)\n      dup1\n      dup4\n      sub\n      dup2\n      dup6\n      dup9\n      dup9\n      call\n      swap4\n      pop\n      pop\n      pop\n      pop\n      iszero\n      dup1\n      iszero\n      tag_36\n      jumpi\n      returndatasize\n      0x00\n      dup1\n      returndatacopy\n      revert(0x00, returndatasize)\n    tag_36:\n      pop\n        /* \"udemy solidity course - complete DApp/Will.sol\":872:875  i++ */\n      dup1\n      dup1\n      tag_37\n      swap1\n      tag_38\n      jump\t// in\n    tag_37:\n      swap2\n      pop\n      pop\n        /* \"udemy solidity course - complete DApp/Will.sol\":829:1042  for(uint i = 0; i <= familyWallets.length; i++) {... */\n      jump(tag_25)\n    tag_26:\n      pop\n        /* \"udemy solidity course - complete DApp/Will.sol\":776:1048  function transfer() private mustBeDeceased {... */\n      jump\t// out\n        /* \"#utility.yul\":88:205   */\n    tag_40:\n        /* \"#utility.yul\":197:198   */\n      0x00\n        /* \"#utility.yul\":194:195   */\n      dup1\n        /* \"#utility.yul\":187:199   */\n      revert\n        /* \"#utility.yul\":334:460   */\n    tag_42:\n        /* \"#utility.yul\":371:378   */\n      0x00\n        /* \"#utility.yul\":411:453   */\n      0xffffffffffffffffffffffffffffffffffffffff\n        /* \"#utility.yul\":404:409   */\n      dup3\n        /* \"#utility.yul\":400:454   */\n      and\n        /* \"#utility.yul\":389:454   */\n      swap1\n      pop\n        /* \"#utility.yul\":334:460   */\n      swap2\n      swap1\n      pop\n      jump\t// out\n        /* \"#utility.yul\":466:570   */\n    tag_43:\n        /* \"#utility.yul\":511:518   */\n      0x00\n        /* \"#utility.yul\":540:564   */\n      tag_61\n        /* \"#utility.yul\":558:563   */\n      dup3\n        /* \"#utility.yul\":540:564   */\n      tag_42\n      jump\t// in\n    tag_61:\n        /* \"#utility.yul\":529:564   */\n      swap1\n      pop\n        /* \"#utility.yul\":466:570   */\n      swap2\n      swap1\n      pop\n      jump\t// out\n        /* \"#utility.yul\":576:714   */\n    tag_44:\n        /* \"#utility.yul\":657:689   */\n      tag_63\n        /* \"#utility.yul\":683:688   */\n      dup2\n        /* \"#utility.yul\":657:689   */\n      tag_43\n      jump\t// in\n    tag_63:\n        /* \"#utility.yul\":650:655   */\n      dup2\n        /* \"#utility.yul\":647:690   */\n      eq\n        /* \"#utility.yul\":637:708   */\n      tag_64\n      jumpi\n        /* \"#utility.yul\":704:705   */\n      0x00\n        /* \"#utility.yul\":701:702   */\n      dup1\n        /* \"#utility.yul\":694:706   */\n      revert\n        /* \"#utility.yul\":637:708   */\n    tag_64:\n        /* \"#utility.yul\":576:714   */\n      pop\n      jump\t// out\n        /* \"#utility.yul\":720:875   */\n    tag_45:\n        /* \"#utility.yul\":774:779   */\n      0x00\n        /* \"#utility.yul\":812:818   */\n      dup2\n        /* \"#utility.yul\":799:819   */\n      calldataload\n        /* \"#utility.yul\":790:819   */\n      swap1\n      pop\n        /* \"#utility.yul\":828:869   */\n      tag_66\n        /* \"#utility.yul\":863:868   */\n      dup2\n        /* \"#utility.yul\":828:869   */\n      tag_44\n      jump\t// in\n    tag_66:\n        /* \"#utility.yul\":720:875   */\n      swap3\n      swap2\n      pop\n      pop\n      jump\t// out\n        /* \"#utility.yul\":881:958   */\n    tag_46:\n        /* \"#utility.yul\":918:925   */\n      0x00\n        /* \"#utility.yul\":947:952   */\n      dup2\n        /* \"#utility.yul\":936:952   */\n      swap1\n      pop\n        /* \"#utility.yul\":881:958   */\n      swap2\n      swap1\n      pop\n      jump\t// out\n        /* \"#utility.yul\":964:1086   */\n    tag_47:\n        /* \"#utility.yul\":1037:1061   */\n      tag_69\n        /* \"#utility.yul\":1055:1060   */\n      dup2\n        /* \"#utility.yul\":1037:1061   */\n      tag_46\n      jump\t// in\n    tag_69:\n        /* \"#utility.yul\":1030:1035   */\n      dup2\n        /* \"#utility.yul\":1027:1062   */\n      eq\n        /* \"#utility.yul\":1017:1080   */\n      tag_70\n      jumpi\n        /* \"#utility.yul\":1076:1077   */\n      0x00\n        /* \"#utility.yul\":1073:1074   */\n      dup1\n        /* \"#utility.yul\":1066:1078   */\n      revert\n        /* \"#utility.yul\":1017:1080   */\n    tag_70:\n        /* \"#utility.yul\":964:1086   */\n      pop\n      jump\t// out\n        /* \"#utility.yul\":1092:1231   */\n    tag_48:\n        /* \"#utility.yul\":1138:1143   */\n      0x00\n        /* \"#utility.yul\":1176:1182   */\n      dup2\n        /* \"#utility.yul\":1163:1183   */\n      calldataload\n        /* \"#utility.yul\":1154:1183   */\n      swap1\n      pop\n        /* \"#utility.yul\":1192:1225   */\n      tag_72\n        /* \"#utility.yul\":1219:1224   */\n      dup2\n        /* \"#utility.yul\":1192:1225   */\n      tag_47\n      jump\t// in\n    tag_72:\n        /* \"#utility.yul\":1092:1231   */\n      swap3\n      swap2\n      pop\n      pop\n      jump\t// out\n        /* \"#utility.yul\":1237:1727   */\n    tag_9:\n        /* \"#utility.yul\":1313:1319   */\n      0x00\n        /* \"#utility.yul\":1321:1327   */\n      dup1\n        /* \"#utility.yul\":1370:1372   */\n      0x40\n        /* \"#utility.yul\":1358:1367   */\n      dup4\n        /* \"#utility.yul\":1349:1356   */\n      dup6\n        /* \"#utility.yul\":1345:1368   */\n      sub\n        /* \"#utility.yul\":1341:1373   */\n      slt\n        /* \"#utility.yul\":1338:1457   */\n      iszero\n      tag_74\n      jumpi\n        /* \"#utility.yul\":1376:1455   */\n      tag_75\n      tag_40\n      jump\t// in\n    tag_75:\n        /* \"#utility.yul\":1338:1457   */\n    tag_74:\n        /* \"#utility.yul\":1496:1497   */\n      0x00\n        /* \"#utility.yul\":1521:1582   */\n      tag_76\n        /* \"#utility.yul\":1574:1581   */\n      dup6\n        /* \"#utility.yul\":1565:1571   */\n      dup3\n        /* \"#utility.yul\":1554:1563   */\n      dup7\n        /* \"#utility.yul\":1550:1572   */\n      add\n        /* \"#utility.yul\":1521:1582   */\n      tag_45\n      jump\t// in\n    tag_76:\n        /* \"#utility.yul\":1511:1582   */\n      swap3\n      pop\n        /* \"#utility.yul\":1467:1592   */\n      pop\n        /* \"#utility.yul\":1631:1633   */\n      0x20\n        /* \"#utility.yul\":1657:1710   */\n      tag_77\n        /* \"#utility.yul\":1702:1709   */\n      dup6\n        /* \"#utility.yul\":1693:1699   */\n      dup3\n        /* \"#utility.yul\":1682:1691   */\n      dup7\n        /* \"#utility.yul\":1678:1700   */\n      add\n        /* \"#utility.yul\":1657:1710   */\n      tag_48\n      jump\t// in\n    tag_77:\n        /* \"#utility.yul\":1647:1710   */\n      swap2\n      pop\n        /* \"#utility.yul\":1602:1720   */\n      pop\n        /* \"#utility.yul\":1237:1727   */\n      swap3\n      pop\n      swap3\n      swap1\n      pop\n      jump\t// out\n        /* \"#utility.yul\":1733:1902   */\n    tag_49:\n        /* \"#utility.yul\":1817:1828   */\n      0x00\n        /* \"#utility.yul\":1851:1857   */\n      dup3\n        /* \"#utility.yul\":1846:1849   */\n      dup3\n        /* \"#utility.yul\":1839:1858   */\n      mstore\n        /* \"#utility.yul\":1891:1895   */\n      0x20\n        /* \"#utility.yul\":1886:1889   */\n      dup3\n        /* \"#utility.yul\":1882:1896   */\n      add\n        /* \"#utility.yul\":1867:1896   */\n      swap1\n      pop\n        /* \"#utility.yul\":1733:1902   */\n      swap3\n      swap2\n      pop\n      pop\n      jump\t// out\n        /* \"#utility.yul\":1908:2078   */\n    tag_50:\n        /* \"#utility.yul\":2048:2070   */\n      0x596f75277265206e6f7420746865206f776e6572000000000000000000000000\n        /* \"#utility.yul\":2044:2045   */\n      0x00\n        /* \"#utility.yul\":2036:2042   */\n      dup3\n        /* \"#utility.yul\":2032:2046   */\n      add\n        /* \"#utility.yul\":2025:2071   */\n      mstore\n        /* \"#utility.yul\":1908:2078   */\n      pop\n      jump\t// out\n        /* \"#utility.yul\":2084:2450   */\n    tag_51:\n        /* \"#utility.yul\":2226:2229   */\n      0x00\n        /* \"#utility.yul\":2247:2314   */\n      tag_81\n        /* \"#utility.yul\":2311:2313   */\n      0x14\n        /* \"#utility.yul\":2306:2309   */\n      dup4\n        /* \"#utility.yul\":2247:2314   */\n      tag_49\n      jump\t// in\n    tag_81:\n        /* \"#utility.yul\":2240:2314   */\n      swap2\n      pop\n        /* \"#utility.yul\":2323:2416   */\n      tag_82\n        /* \"#utility.yul\":2412:2415   */\n      dup3\n        /* \"#utility.yul\":2323:2416   */\n      tag_50\n      jump\t// in\n    tag_82:\n        /* \"#utility.yul\":2441:2443   */\n      0x20\n        /* \"#utility.yul\":2436:2439   */\n      dup3\n        /* \"#utility.yul\":2432:2444   */\n      add\n        /* \"#utility.yul\":2425:2444   */\n      swap1\n      pop\n        /* \"#utility.yul\":2084:2450   */\n      swap2\n      swap1\n      pop\n      jump\t// out\n        /* \"#utility.yul\":2456:2875   */\n    tag_17:\n        /* \"#utility.yul\":2622:2626   */\n      0x00\n        /* \"#utility.yul\":2660:2662   */\n      0x20\n        /* \"#utility.yul\":2649:2658   */\n      dup3\n        /* \"#utility.yul\":2645:2663   */\n      add\n        /* \"#utility.yul\":2637:2663   */\n      swap1\n      pop\n        /* \"#utility.yul\":2709:2718   */\n      dup2\n        /* \"#utility.yul\":2703:2707   */\n      dup2\n        /* \"#utility.yul\":2699:2719   */\n      sub\n        /* \"#utility.yul\":2695:2696   */\n      0x00\n        /* \"#utility.yul\":2684:2693   */\n      dup4\n        /* \"#utility.yul\":2680:2697   */\n      add\n        /* \"#utility.yul\":2673:2720   */\n      mstore\n        /* \"#utility.yul\":2737:2868   */\n      tag_84\n        /* \"#utility.yul\":2863:2867   */\n      dup2\n        /* \"#utility.yul\":2737:2868   */\n      tag_51\n      jump\t// in\n    tag_84:\n        /* \"#utility.yul\":2729:2868   */\n      swap1\n      pop\n        /* \"#utility.yul\":2456:2875   */\n      swap2\n      swap1\n      pop\n      jump\t// out\n        /* \"#utility.yul\":2881:3045   */\n    tag_52:\n        /* \"#utility.yul\":3021:3037   */\n      0x4973207374696c6c20616c697665000000000000000000000000000000000000\n        /* \"#utility.yul\":3017:3018   */\n      0x00\n        /* \"#utility.yul\":3009:3015   */\n      dup3\n        /* \"#utility.yul\":3005:3019   */\n      add\n        /* \"#utility.yul\":2998:3038   */\n      mstore\n        /* \"#utility.yul\":2881:3045   */\n      pop\n      jump\t// out\n        /* \"#utility.yul\":3051:3417   */\n    tag_53:\n        /* \"#utility.yul\":3193:3196   */\n      0x00\n        /* \"#utility.yul\":3214:3281   */\n      tag_87\n        /* \"#utility.yul\":3278:3280   */\n      0x0e\n        /* \"#utility.yul\":3273:3276   */\n      dup4\n        /* \"#utility.yul\":3214:3281   */\n      tag_49\n      jump\t// in\n    tag_87:\n        /* \"#utility.yul\":3207:3281   */\n      swap2\n      pop\n        /* \"#utility.yul\":3290:3383   */\n      tag_88\n        /* \"#utility.yul\":3379:3382   */\n      dup3\n        /* \"#utility.yul\":3290:3383   */\n      tag_52\n      jump\t// in\n    tag_88:\n        /* \"#utility.yul\":3408:3410   */\n      0x20\n        /* \"#utility.yul\":3403:3406   */\n      dup3\n        /* \"#utility.yul\":3399:3411   */\n      add\n        /* \"#utility.yul\":3392:3411   */\n      swap1\n      pop\n        /* \"#utility.yul\":3051:3417   */\n      swap2\n      swap1\n      pop\n      jump\t// out\n        /* \"#utility.yul\":3423:3842   */\n    tag_23:\n        /* \"#utility.yul\":3589:3593   */\n      0x00\n        /* \"#utility.yul\":3627:3629   */\n      0x20\n        /* \"#utility.yul\":3616:3625   */\n      dup3\n        /* \"#utility.yul\":3612:3630   */\n      add\n        /* \"#utility.yul\":3604:3630   */\n      swap1\n      pop\n        /* \"#utility.yul\":3676:3685   */\n      dup2\n        /* \"#utility.yul\":3670:3674   */\n      dup2\n        /* \"#utility.yul\":3666:3686   */\n      sub\n        /* \"#utility.yul\":3662:3663   */\n      0x00\n        /* \"#utility.yul\":3651:3660   */\n      dup4\n        /* \"#utility.yul\":3647:3664   */\n      add\n        /* \"#utility.yul\":3640:3687   */\n      mstore\n        /* \"#utility.yul\":3704:3835   */\n      tag_90\n        /* \"#utility.yul\":3830:3834   */\n      dup2\n        /* \"#utility.yul\":3704:3835   */\n      tag_53\n      jump\t// in\n    tag_90:\n        /* \"#utility.yul\":3696:3835   */\n      swap1\n      pop\n        /* \"#utility.yul\":3423:3842   */\n      swap2\n      swap1\n      pop\n      jump\t// out\n        /* \"#utility.yul\":3848:4028   */\n    tag_30:\n        /* \"#utility.yul\":3896:3973   */\n      0x4e487b7100000000000000000000000000000000000000000000000000000000\n        /* \"#utility.yul\":3893:3894   */\n      0x00\n        /* \"#utility.yul\":3886:3974   */\n      mstore\n        /* \"#utility.yul\":3993:3997   */\n      0x32\n        /* \"#utility.yul\":3990:3991   */\n      0x04\n        /* \"#utility.yul\":3983:3998   */\n      mstore\n        /* \"#utility.yul\":4017:4021   */\n      0x24\n        /* \"#utility.yul\":4014:4015   */\n      0x00\n        /* \"#utility.yul\":4007:4022   */\n      revert\n        /* \"#utility.yul\":4034:4214   */\n    tag_54:\n        /* \"#utility.yul\":4082:4159   */\n      0x4e487b7100000000000000000000000000000000000000000000000000000000\n        /* \"#utility.yul\":4079:4080   */\n      0x00\n        /* \"#utility.yul\":4072:4160   */\n      mstore\n        /* \"#utility.yul\":4179:4183   */\n      0x11\n        /* \"#utility.yul\":4176:4177   */\n      0x04\n        /* \"#utility.yul\":4169:4184   */\n      mstore\n        /* \"#utility.yul\":4203:4207   */\n      0x24\n        /* \"#utility.yul\":4200:4201   */\n      0x00\n        /* \"#utility.yul\":4193:4208   */\n      revert\n        /* \"#utility.yul\":4220:4453   */\n    tag_38:\n        /* \"#utility.yul\":4259:4262   */\n      0x00\n        /* \"#utility.yul\":4282:4306   */\n      tag_94\n        /* \"#utility.yul\":4300:4305   */\n      dup3\n        /* \"#utility.yul\":4282:4306   */\n      tag_46\n      jump\t// in\n    tag_94:\n        /* \"#utility.yul\":4273:4306   */\n      swap2\n      pop\n        /* \"#utility.yul\":4328:4394   */\n      0xffffffffffffffffffffffffffffffffffffffffffffffffffffffffffffffff\n        /* \"#utility.yul\":4321:4326   */\n      dup3\n        /* \"#utility.yul\":4318:4395   */\n      sub\n        /* \"#utility.yul\":4315:4418   */\n      tag_95\n      jumpi\n        /* \"#utility.yul\":4398:4416   */\n      tag_96\n      tag_54\n      jump\t// in\n    tag_96:\n        /* \"#utility.yul\":4315:4418   */\n    tag_95:\n        /* \"#utility.yul\":4445:4446   */\n      0x01\n        /* \"#utility.yul\":4438:4443   */\n      dup3\n        /* \"#utility.yul\":4434:4447   */\n      add\n        /* \"#utility.yul\":4427:4447   */\n      swap1\n      pop\n        /* \"#utility.yul\":4220:4453   */\n      swap2\n      swap1\n      pop\n      jump\t// out\n\n    auxdata: 0xa264697066735822122007d0d24d023d40e4315fb950eacd72e8659ac7a5554fdd0ea9d7d6e61f95ed3f64736f6c634300080d0033\n}\n",
				"bytecode": {
					"linkReferences": {},
					"object": "6080604052336000806101000a81548173ffffffffffffffffffffffffffffffffffffffff021916908373ffffffffffffffffffffffffffffffffffffffff160217905550346001819055506000600260006101000a81548160ff0219169083151502179055506105d2806100756000396000f3fe608060405234801561001057600080fd5b50600436106100365760003560e01c806385ac45151461003b578063a9464d8d14610045575b600080fd5b610043610061565b005b61005f600480360381019061005a91906103cd565b61007e565b005b60011515600260009054906101000a9050505061007c6101b7565b565b60008054906101000a900473ffffffffffffffffffffffffffffffffffffffff1673ffffffffffffffffffffffffffffffffffffffff163373ffffffffffffffffffffffffffffffffffffffff161461010c576040517f08c379a00000000000000000000000000000000000000000000000000000000081526004016101039061046a565b60405180910390fd5b6003829080600181540180825580915050600190039060005260206000200160009091909190916101000a81548173ffffffffffffffffffffffffffffffffffffffff021916908373ffffffffffffffffffffffffffffffffffffffff16021790555080600460008473ffffffffffffffffffffffffffffffffffffffff1673ffffffffffffffffffffffffffffffffffffffff168152602001908152602001600020819055505050565b60011515600260009054906101000a900460ff1615151461020d576040517f08c379a0000000000000000000000000000000000000000000000000000000008152600401610204906104d6565b60405180910390fd5b60005b600380549050811161033157600381815481106102305761022f6104f6565b5b9060005260206000200160009054906101000a900473ffffffffffffffffffffffffffffffffffffffff1673ffffffffffffffffffffffffffffffffffffffff166108fc600460006003858154811061028c5761028b6104f6565b5b9060005260206000200160009054906101000a900473ffffffffffffffffffffffffffffffffffffffff1673ffffffffffffffffffffffffffffffffffffffff1673ffffffffffffffffffffffffffffffffffffffff168152602001908152602001600020549081150290604051600060405180830381858888f1935050505015801561031d573d6000803e3d6000fd5b50808061032990610554565b915050610210565b50565b600080fd5b600073ffffffffffffffffffffffffffffffffffffffff82169050919050565b600061036482610339565b9050919050565b61037481610359565b811461037f57600080fd5b50565b6000813590506103918161036b565b92915050565b6000819050919050565b6103aa81610397565b81146103b557600080fd5b50565b6000813590506103c7816103a1565b92915050565b600080604083850312156103e4576103e3610334565b5b60006103f285828601610382565b9250506020610403858286016103b8565b9150509250929050565b600082825260208201905092915050565b7f596f75277265206e6f7420746865206f776e6572000000000000000000000000600082015250565b600061045460148361040d565b915061045f8261041e565b602082019050919050565b6000602082019050818103600083015261048381610447565b9050919050565b7f4973207374696c6c20616c697665000000000000000000000000000000000000600082015250565b60006104c0600e8361040d565b91506104cb8261048a565b602082019050919050565b600060208201905081810360008301526104ef816104b3565b9050919050565b7f4e487b7100000000000000000000000000000000000000000000000000000000600052603260045260246000fd5b7f4e487b7100000000000000000000000000000000000000000000000000000000600052601160045260246000fd5b600061055f82610397565b91507fffffffffffffffffffffffffffffffffffffffffffffffffffffffffffffffff820361059157610590610525565b5b60018201905091905056fea264697066735822122007d0d24d023d40e4315fb950eacd72e8659ac7a5554fdd0ea9d7d6e61f95ed3f64736f6c634300080d0033",
					"opcodes": "PUSH1 0x80 PUSH1 0x40 MSTORE CALLER PUSH1 0x0 DUP1 PUSH2 0x100 EXP DUP2 SLOAD DUP2 PUSH20 0xFFFFFFFFFFFFFFFFFFFFFFFFFFFFFFFFFFFFFFFF MUL NOT AND SWAP1 DUP4 PUSH20 0xFFFFFFFFFFFFFFFFFFFFFFFFFFFFFFFFFFFFFFFF AND MUL OR SWAP1 SSTORE POP CALLVALUE PUSH1 0x1 DUP2 SWAP1 SSTORE POP PUSH1 0x0 PUSH1 0x2 PUSH1 0x0 PUSH2 0x100 EXP DUP2 SLOAD DUP2 PUSH1 0xFF MUL NOT AND SWAP1 DUP4 ISZERO ISZERO MUL OR SWAP1 SSTORE POP PUSH2 0x5D2 DUP1 PUSH2 0x75 PUSH1 0x0 CODECOPY PUSH1 0x0 RETURN INVALID PUSH1 0x80 PUSH1 0x40 MSTORE CALLVALUE DUP1 ISZERO PUSH2 0x10 JUMPI PUSH1 0x0 DUP1 REVERT JUMPDEST POP PUSH1 0x4 CALLDATASIZE LT PUSH2 0x36 JUMPI PUSH1 0x0 CALLDATALOAD PUSH1 0xE0 SHR DUP1 PUSH4 0x85AC4515 EQ PUSH2 0x3B JUMPI DUP1 PUSH4 0xA9464D8D EQ PUSH2 0x45 JUMPI JUMPDEST PUSH1 0x0 DUP1 REVERT JUMPDEST PUSH2 0x43 PUSH2 0x61 JUMP JUMPDEST STOP JUMPDEST PUSH2 0x5F PUSH1 0x4 DUP1 CALLDATASIZE SUB DUP2 ADD SWAP1 PUSH2 0x5A SWAP2 SWAP1 PUSH2 0x3CD JUMP JUMPDEST PUSH2 0x7E JUMP JUMPDEST STOP JUMPDEST PUSH1 0x1 ISZERO ISZERO PUSH1 0x2 PUSH1 0x0 SWAP1 SLOAD SWAP1 PUSH2 0x100 EXP SWAP1 POP POP POP PUSH2 0x7C PUSH2 0x1B7 JUMP JUMPDEST JUMP JUMPDEST PUSH1 0x0 DUP1 SLOAD SWAP1 PUSH2 0x100 EXP SWAP1 DIV PUSH20 0xFFFFFFFFFFFFFFFFFFFFFFFFFFFFFFFFFFFFFFFF AND PUSH20 0xFFFFFFFFFFFFFFFFFFFFFFFFFFFFFFFFFFFFFFFF AND CALLER PUSH20 0xFFFFFFFFFFFFFFFFFFFFFFFFFFFFFFFFFFFFFFFF AND EQ PUSH2 0x10C JUMPI PUSH1 0x40 MLOAD PUSH32 0x8C379A000000000000000000000000000000000000000000000000000000000 DUP2 MSTORE PUSH1 0x4 ADD PUSH2 0x103 SWAP1 PUSH2 0x46A JUMP JUMPDEST PUSH1 0x40 MLOAD DUP1 SWAP2 SUB SWAP1 REVERT JUMPDEST PUSH1 0x3 DUP3 SWAP1 DUP1 PUSH1 0x1 DUP2 SLOAD ADD DUP1 DUP3 SSTORE DUP1 SWAP2 POP POP PUSH1 0x1 SWAP1 SUB SWAP1 PUSH1 0x0 MSTORE PUSH1 0x20 PUSH1 0x0 KECCAK256 ADD PUSH1 0x0 SWAP1 SWAP2 SWAP1 SWAP2 SWAP1 SWAP2 PUSH2 0x100 EXP DUP2 SLOAD DUP2 PUSH20 0xFFFFFFFFFFFFFFFFFFFFFFFFFFFFFFFFFFFFFFFF MUL NOT AND SWAP1 DUP4 PUSH20 0xFFFFFFFFFFFFFFFFFFFFFFFFFFFFFFFFFFFFFFFF AND MUL OR SWAP1 SSTORE POP DUP1 PUSH1 0x4 PUSH1 0x0 DUP5 PUSH20 0xFFFFFFFFFFFFFFFFFFFFFFFFFFFFFFFFFFFFFFFF AND PUSH20 0xFFFFFFFFFFFFFFFFFFFFFFFFFFFFFFFFFFFFFFFF AND DUP2 MSTORE PUSH1 0x20 ADD SWAP1 DUP2 MSTORE PUSH1 0x20 ADD PUSH1 0x0 KECCAK256 DUP2 SWAP1 SSTORE POP POP POP JUMP JUMPDEST PUSH1 0x1 ISZERO ISZERO PUSH1 0x2 PUSH1 0x0 SWAP1 SLOAD SWAP1 PUSH2 0x100 EXP SWAP1 DIV PUSH1 0xFF AND ISZERO ISZERO EQ PUSH2 0x20D JUMPI PUSH1 0x40 MLOAD PUSH32 0x8C379A000000000000000000000000000000000000000000000000000000000 DUP2 MSTORE PUSH1 0x4 ADD PUSH2 0x204 SWAP1 PUSH2 0x4D6 JUMP JUMPDEST PUSH1 0x40 MLOAD DUP1 SWAP2 SUB SWAP1 REVERT JUMPDEST PUSH1 0x0 JUMPDEST PUSH1 0x3 DUP1 SLOAD SWAP1 POP DUP2 GT PUSH2 0x331 JUMPI PUSH1 0x3 DUP2 DUP2 SLOAD DUP2 LT PUSH2 0x230 JUMPI PUSH2 0x22F PUSH2 0x4F6 JUMP JUMPDEST JUMPDEST SWAP1 PUSH1 0x0 MSTORE PUSH1 0x20 PUSH1 0x0 KECCAK256 ADD PUSH1 0x0 SWAP1 SLOAD SWAP1 PUSH2 0x100 EXP SWAP1 DIV PUSH20 0xFFFFFFFFFFFFFFFFFFFFFFFFFFFFFFFFFFFFFFFF AND PUSH20 0xFFFFFFFFFFFFFFFFFFFFFFFFFFFFFFFFFFFFFFFF AND PUSH2 0x8FC PUSH1 0x4 PUSH1 0x0 PUSH1 0x3 DUP6 DUP2 SLOAD DUP2 LT PUSH2 0x28C JUMPI PUSH2 0x28B PUSH2 0x4F6 JUMP JUMPDEST JUMPDEST SWAP1 PUSH1 0x0 MSTORE PUSH1 0x20 PUSH1 0x0 KECCAK256 ADD PUSH1 0x0 SWAP1 SLOAD SWAP1 PUSH2 0x100 EXP SWAP1 DIV PUSH20 0xFFFFFFFFFFFFFFFFFFFFFFFFFFFFFFFFFFFFFFFF AND PUSH20 0xFFFFFFFFFFFFFFFFFFFFFFFFFFFFFFFFFFFFFFFF AND PUSH20 0xFFFFFFFFFFFFFFFFFFFFFFFFFFFFFFFFFFFFFFFF AND DUP2 MSTORE PUSH1 0x20 ADD SWAP1 DUP2 MSTORE PUSH1 0x20 ADD PUSH1 0x0 KECCAK256 SLOAD SWAP1 DUP2 ISZERO MUL SWAP1 PUSH1 0x40 MLOAD PUSH1 0x0 PUSH1 0x40 MLOAD DUP1 DUP4 SUB DUP2 DUP6 DUP9 DUP9 CALL SWAP4 POP POP POP POP ISZERO DUP1 ISZERO PUSH2 0x31D JUMPI RETURNDATASIZE PUSH1 0x0 DUP1 RETURNDATACOPY RETURNDATASIZE PUSH1 0x0 REVERT JUMPDEST POP DUP1 DUP1 PUSH2 0x329 SWAP1 PUSH2 0x554 JUMP JUMPDEST SWAP2 POP POP PUSH2 0x210 JUMP JUMPDEST POP JUMP JUMPDEST PUSH1 0x0 DUP1 REVERT JUMPDEST PUSH1 0x0 PUSH20 0xFFFFFFFFFFFFFFFFFFFFFFFFFFFFFFFFFFFFFFFF DUP3 AND SWAP1 POP SWAP2 SWAP1 POP JUMP JUMPDEST PUSH1 0x0 PUSH2 0x364 DUP3 PUSH2 0x339 JUMP JUMPDEST SWAP1 POP SWAP2 SWAP1 POP JUMP JUMPDEST PUSH2 0x374 DUP2 PUSH2 0x359 JUMP JUMPDEST DUP2 EQ PUSH2 0x37F JUMPI PUSH1 0x0 DUP1 REVERT JUMPDEST POP JUMP JUMPDEST PUSH1 0x0 DUP2 CALLDATALOAD SWAP1 POP PUSH2 0x391 DUP2 PUSH2 0x36B JUMP JUMPDEST SWAP3 SWAP2 POP POP JUMP JUMPDEST PUSH1 0x0 DUP2 SWAP1 POP SWAP2 SWAP1 POP JUMP JUMPDEST PUSH2 0x3AA DUP2 PUSH2 0x397 JUMP JUMPDEST DUP2 EQ PUSH2 0x3B5 JUMPI PUSH1 0x0 DUP1 REVERT JUMPDEST POP JUMP JUMPDEST PUSH1 0x0 DUP2 CALLDATALOAD SWAP1 POP PUSH2 0x3C7 DUP2 PUSH2 0x3A1 JUMP JUMPDEST SWAP3 SWAP2 POP POP JUMP JUMPDEST PUSH1 0x0 DUP1 PUSH1 0x40 DUP4 DUP6 SUB SLT ISZERO PUSH2 0x3E4 JUMPI PUSH2 0x3E3 PUSH2 0x334 JUMP JUMPDEST JUMPDEST PUSH1 0x0 PUSH2 0x3F2 DUP6 DUP3 DUP7 ADD PUSH2 0x382 JUMP JUMPDEST SWAP3 POP POP PUSH1 0x20 PUSH2 0x403 DUP6 DUP3 DUP7 ADD PUSH2 0x3B8 JUMP JUMPDEST SWAP2 POP POP SWAP3 POP SWAP3 SWAP1 POP JUMP JUMPDEST PUSH1 0x0 DUP3 DUP3 MSTORE PUSH1 0x20 DUP3 ADD SWAP1 POP SWAP3 SWAP2 POP POP JUMP JUMPDEST PUSH32 0x596F75277265206E6F7420746865206F776E6572000000000000000000000000 PUSH1 0x0 DUP3 ADD MSTORE POP JUMP JUMPDEST PUSH1 0x0 PUSH2 0x454 PUSH1 0x14 DUP4 PUSH2 0x40D JUMP JUMPDEST SWAP2 POP PUSH2 0x45F DUP3 PUSH2 0x41E JUMP JUMPDEST PUSH1 0x20 DUP3 ADD SWAP1 POP SWAP2 SWAP1 POP JUMP JUMPDEST PUSH1 0x0 PUSH1 0x20 DUP3 ADD SWAP1 POP DUP2 DUP2 SUB PUSH1 0x0 DUP4 ADD MSTORE PUSH2 0x483 DUP2 PUSH2 0x447 JUMP JUMPDEST SWAP1 POP SWAP2 SWAP1 POP JUMP JUMPDEST PUSH32 0x4973207374696C6C20616C697665000000000000000000000000000000000000 PUSH1 0x0 DUP3 ADD MSTORE POP JUMP JUMPDEST PUSH1 0x0 PUSH2 0x4C0 PUSH1 0xE DUP4 PUSH2 0x40D JUMP JUMPDEST SWAP2 POP PUSH2 0x4CB DUP3 PUSH2 0x48A JUMP JUMPDEST PUSH1 0x20 DUP3 ADD SWAP1 POP SWAP2 SWAP1 POP JUMP JUMPDEST PUSH1 0x0 PUSH1 0x20 DUP3 ADD SWAP1 POP DUP2 DUP2 SUB PUSH1 0x0 DUP4 ADD MSTORE PUSH2 0x4EF DUP2 PUSH2 0x4B3 JUMP JUMPDEST SWAP1 POP SWAP2 SWAP1 POP JUMP JUMPDEST PUSH32 0x4E487B7100000000000000000000000000000000000000000000000000000000 PUSH1 0x0 MSTORE PUSH1 0x32 PUSH1 0x4 MSTORE PUSH1 0x24 PUSH1 0x0 REVERT JUMPDEST PUSH32 0x4E487B7100000000000000000000000000000000000000000000000000000000 PUSH1 0x0 MSTORE PUSH1 0x11 PUSH1 0x4 MSTORE PUSH1 0x24 PUSH1 0x0 REVERT JUMPDEST PUSH1 0x0 PUSH2 0x55F DUP3 PUSH2 0x397 JUMP JUMPDEST SWAP2 POP PUSH32 0xFFFFFFFFFFFFFFFFFFFFFFFFFFFFFFFFFFFFFFFFFFFFFFFFFFFFFFFFFFFFFFFF DUP3 SUB PUSH2 0x591 JUMPI PUSH2 0x590 PUSH2 0x525 JUMP JUMPDEST JUMPDEST PUSH1 0x1 DUP3 ADD SWAP1 POP SWAP2 SWAP1 POP JUMP INVALID LOG2 PUSH5 0x6970667358 0x22 SLT KECCAK256 SMOD 0xD0 0xD2 0x4D MUL RETURNDATASIZE BLOCKHASH 0xE4 BALANCE 0x5F 0xB9 POP 0xEA 0xCD PUSH19 0xE8659AC7A5554FDD0EA9D7D6E61F95ED3F6473 PUSH16 0x6C634300080D00330000000000000000 "
				},
				"gasEstimates": {
					"creation": {
						"codeDepositCost": "298000",
						"executionCost": "70959",
						"totalCost": "368959"
					},
					"external": {
						"isDeceased()": "infinite",
						"setFamilyWallets(address,uint256)": "73578"
					},
					"internal": {
						"transfer()": "infinite"
					}
				},
				"methodIdentifiers": {
					"isDeceased()": "85ac4515",
					"setFamilyWallets(address,uint256)": "a9464d8d"
				}
			},
			"storageLayout": {
				"storage": [
					{
						"astId": 3,
						"contract": "udemy solidity course - complete DApp/Will.sol:Will",
						"label": "owner",
						"offset": 0,
						"slot": "0",
						"type": "t_address"
					},
					{
						"astId": 5,
						"contract": "udemy solidity course - complete DApp/Will.sol:Will",
						"label": "fortune",
						"offset": 0,
						"slot": "1",
						"type": "t_uint256"
					},
					{
						"astId": 7,
						"contract": "udemy solidity course - complete DApp/Will.sol:Will",
						"label": "deceased",
						"offset": 0,
						"slot": "2",
						"type": "t_bool"
					},
					{
						"astId": 51,
						"contract": "udemy solidity course - complete DApp/Will.sol:Will",
						"label": "familyWallets",
						"offset": 0,
						"slot": "3",
						"type": "t_array(t_address_payable)dyn_storage"
					},
					{
						"astId": 55,
						"contract": "udemy solidity course - complete DApp/Will.sol:Will",
						"label": "walletsOfFamily",
						"offset": 0,
						"slot": "4",
						"type": "t_mapping(t_address,t_uint256)"
					}
				],
				"types": {
					"t_address": {
						"encoding": "inplace",
						"label": "address",
						"numberOfBytes": "20"
					},
					"t_address_payable": {
						"encoding": "inplace",
						"label": "address payable",
						"numberOfBytes": "20"
					},
					"t_array(t_address_payable)dyn_storage": {
						"base": "t_address_payable",
						"encoding": "dynamic_array",
						"label": "address payable[]",
						"numberOfBytes": "32"
					},
					"t_bool": {
						"encoding": "inplace",
						"label": "bool",
						"numberOfBytes": "1"
					},
					"t_mapping(t_address,t_uint256)": {
						"encoding": "mapping",
						"key": "t_address",
						"label": "mapping(address => uint256)",
						"numberOfBytes": "32",
						"value": "t_uint256"
					},
					"t_uint256": {
						"encoding": "inplace",
						"label": "uint256",
						"numberOfBytes": "32"
					}
				}
			},
			"userdoc": {
				"kind": "user",
				"methods": {},
				"version": 1
			}
		}
	}
}