{
	"bootcamp/week10/day_2_creating_a_DAO_voting.sol": {
		"Governance": {
			"abi": [
				{
					"inputs": [],
					"stateMutability": "payable",
					"type": "constructor"
				},
				{
					"inputs": [],
					"name": "availableETH",
					"outputs": [
						{
							"internalType": "uint256",
							"name": "",
							"type": "uint256"
						}
					],
					"stateMutability": "view",
					"type": "function"
				},
				{
					"inputs": [
						{
							"internalType": "uint256",
							"name": "propID",
							"type": "uint256"
						}
					],
					"name": "execute",
					"outputs": [],
					"stateMutability": "nonpayable",
					"type": "function"
				},
				{
					"inputs": [
						{
							"internalType": "address",
							"name": "",
							"type": "address"
						},
						{
							"internalType": "uint256",
							"name": "",
							"type": "uint256"
						}
					],
					"name": "memberHasVoted",
					"outputs": [
						{
							"internalType": "bool",
							"name": "",
							"type": "bool"
						}
					],
					"stateMutability": "view",
					"type": "function"
				},
				{
					"inputs": [
						{
							"internalType": "uint256",
							"name": "propID",
							"type": "uint256"
						}
					],
					"name": "state",
					"outputs": [
						{
							"internalType": "enum Governance.ProposalState",
							"name": "",
							"type": "uint8"
						}
					],
					"stateMutability": "view",
					"type": "function"
				},
				{
					"inputs": [
						{
							"internalType": "uint256",
							"name": "newGrantAmount",
							"type": "uint256"
						}
					],
					"name": "submitNewAmountChange",
					"outputs": [],
					"stateMutability": "nonpayable",
					"type": "function"
				},
				{
					"inputs": [
						{
							"internalType": "address",
							"name": "recipient",
							"type": "address"
						}
					],
					"name": "submitNewGrant",
					"outputs": [],
					"stateMutability": "nonpayable",
					"type": "function"
				},
				{
					"inputs": [
						{
							"internalType": "uint256",
							"name": "propID",
							"type": "uint256"
						}
					],
					"name": "voteAgainst",
					"outputs": [],
					"stateMutability": "nonpayable",
					"type": "function"
				},
				{
					"inputs": [
						{
							"internalType": "uint256",
							"name": "propID",
							"type": "uint256"
						}
					],
					"name": "voteFor",
					"outputs": [],
					"stateMutability": "nonpayable",
					"type": "function"
				}
			],
			"devdoc": {
				"kind": "dev",
				"methods": {},
				"version": 1
			},
			"evm": {
				"assembly": "    /* \"bootcamp/week10/day_2_creating_a_DAO_voting.sol\":58:14468  contract Governance {... */\n  mstore(0x40, 0x80)\n    /* \"bootcamp/week10/day_2_creating_a_DAO_voting.sol\":2079:2080  5 */\n  0x05\n    /* \"bootcamp/week10/day_2_creating_a_DAO_voting.sol\":2054:2080  uint256 private quorum = 5 */\n  0x01\n  sstore\n    /* \"bootcamp/week10/day_2_creating_a_DAO_voting.sol\":2456:2466  30 seconds */\n  0x1e\n    /* \"bootcamp/week10/day_2_creating_a_DAO_voting.sol\":2433:2466  uint256 reviewPeriod = 30 seconds */\n  0x03\n  sstore\n    /* \"bootcamp/week10/day_2_creating_a_DAO_voting.sol\":2592:2601  1 minutes */\n  0x3c\n    /* \"bootcamp/week10/day_2_creating_a_DAO_voting.sol\":2569:2601  uint256 votingPeriod = 1 minutes */\n  0x04\n  sstore\n    /* \"bootcamp/week10/day_2_creating_a_DAO_voting.sol\":2677:2684  1 ether */\n  0x0de0b6b3a7640000\n    /* \"bootcamp/week10/day_2_creating_a_DAO_voting.sol\":2655:2684  uint256 grantAmount = 1 ether */\n  0x05\n  sstore\n    /* \"bootcamp/week10/day_2_creating_a_DAO_voting.sol\":2825:2834  msg.value */\n  callvalue\n    /* \"bootcamp/week10/day_2_creating_a_DAO_voting.sol\":2810:2822  availableETH */\n  0x06\n    /* \"bootcamp/week10/day_2_creating_a_DAO_voting.sol\":2810:2834  availableETH = msg.value */\n  dup2\n  swap1\n  sstore\n  pop\n    /* \"bootcamp/week10/day_2_creating_a_DAO_voting.sol\":58:14468  contract Governance {... */\n  dataSize(sub_0)\n  dup1\n  dataOffset(sub_0)\n  0x00\n  codecopy\n  0x00\n  return\nstop\n\nsub_0: assembly {\n        /* \"bootcamp/week10/day_2_creating_a_DAO_voting.sol\":58:14468  contract Governance {... */\n      mstore(0x40, 0x80)\n      callvalue\n      dup1\n      iszero\n      tag_1\n      jumpi\n      0x00\n      dup1\n      revert\n    tag_1:\n      pop\n      jumpi(tag_2, lt(calldatasize, 0x04))\n      shr(0xe0, calldataload(0x00))\n      dup1\n      0xa220e64a\n      gt\n      tag_11\n      jumpi\n      dup1\n      0xa220e64a\n      eq\n      tag_7\n      jumpi\n      dup1\n      0xcf34fa2a\n      eq\n      tag_8\n      jumpi\n      dup1\n      0xfb6ff161\n      eq\n      tag_9\n      jumpi\n      dup1\n      0xfe0d94c1\n      eq\n      tag_10\n      jumpi\n      jump(tag_2)\n    tag_11:\n      dup1\n      0x3e4f49e6\n      eq\n      tag_3\n      jumpi\n      dup1\n      0x7325d4cc\n      eq\n      tag_4\n      jumpi\n      dup1\n      0x750e443a\n      eq\n      tag_5\n      jumpi\n      dup1\n      0x86a50535\n      eq\n      tag_6\n      jumpi\n    tag_2:\n      0x00\n      dup1\n      revert\n        /* \"bootcamp/week10/day_2_creating_a_DAO_voting.sol\":2907:5122  function state(uint256 propID) public view returns(ProposalState) {... */\n    tag_3:\n      tag_12\n      0x04\n      dup1\n      calldatasize\n      sub\n      dup2\n      add\n      swap1\n      tag_13\n      swap2\n      swap1\n      tag_14\n      jump\t// in\n    tag_13:\n      tag_15\n      jump\t// in\n    tag_12:\n      mload(0x40)\n      tag_16\n      swap2\n      swap1\n      tag_17\n      jump\t// in\n    tag_16:\n      mload(0x40)\n      dup1\n      swap2\n      sub\n      swap1\n      return\n        /* \"bootcamp/week10/day_2_creating_a_DAO_voting.sol\":9375:9761  function submitNewAmountChange(uint256 newGrantAmount) public {... */\n    tag_4:\n      tag_18\n      0x04\n      dup1\n      calldatasize\n      sub\n      dup2\n      add\n      swap1\n      tag_19\n      swap2\n      swap1\n      tag_14\n      jump\t// in\n    tag_19:\n      tag_20\n      jump\t// in\n    tag_18:\n      stop\n        /* \"bootcamp/week10/day_2_creating_a_DAO_voting.sol\":11106:11212  function voteAgainst(uint256 propID) public voteChecks(propID) {... */\n    tag_5:\n      tag_21\n      0x04\n      dup1\n      calldatasize\n      sub\n      dup2\n      add\n      swap1\n      tag_22\n      swap2\n      swap1\n      tag_14\n      jump\t// in\n    tag_22:\n      tag_23\n      jump\t// in\n    tag_21:\n      stop\n        /* \"bootcamp/week10/day_2_creating_a_DAO_voting.sol\":10964:11065  function voteFor(uint256 propID) public voteChecks(propID) {... */\n    tag_6:\n      tag_24\n      0x04\n      dup1\n      calldatasize\n      sub\n      dup2\n      add\n      swap1\n      tag_25\n      swap2\n      swap1\n      tag_14\n      jump\t// in\n    tag_25:\n      tag_26\n      jump\t// in\n    tag_24:\n      stop\n        /* \"bootcamp/week10/day_2_creating_a_DAO_voting.sol\":2262:2328  mapping(address => mapping(uint256 => bool)) public memberHasVoted */\n    tag_7:\n      tag_27\n      0x04\n      dup1\n      calldatasize\n      sub\n      dup2\n      add\n      swap1\n      tag_28\n      swap2\n      swap1\n      tag_29\n      jump\t// in\n    tag_28:\n      tag_30\n      jump\t// in\n    tag_27:\n      mload(0x40)\n      tag_31\n      swap2\n      swap1\n      tag_32\n      jump\t// in\n    tag_31:\n      mload(0x40)\n      dup1\n      swap2\n      sub\n      swap1\n      return\n        /* \"bootcamp/week10/day_2_creating_a_DAO_voting.sol\":8698:9319  function submitNewGrant(address recipient) public {... */\n    tag_8:\n      tag_33\n      0x04\n      dup1\n      calldatasize\n      sub\n      dup2\n      add\n      swap1\n      tag_34\n      swap2\n      swap1\n      tag_35\n      jump\t// in\n    tag_34:\n      tag_36\n      jump\t// in\n    tag_33:\n      stop\n        /* \"bootcamp/week10/day_2_creating_a_DAO_voting.sol\":2744:2771  uint256 public availableETH */\n    tag_9:\n      tag_37\n      tag_38\n      jump\t// in\n    tag_37:\n      mload(0x40)\n      tag_39\n      swap2\n      swap1\n      tag_40\n      jump\t// in\n    tag_39:\n      mload(0x40)\n      dup1\n      swap2\n      sub\n      swap1\n      return\n        /* \"bootcamp/week10/day_2_creating_a_DAO_voting.sol\":11309:12976  function execute(uint256 propID) public {... */\n    tag_10:\n      tag_41\n      0x04\n      dup1\n      calldatasize\n      sub\n      dup2\n      add\n      swap1\n      tag_42\n      swap2\n      swap1\n      tag_14\n      jump\t// in\n    tag_42:\n      tag_43\n      jump\t// in\n    tag_41:\n      stop\n        /* \"bootcamp/week10/day_2_creating_a_DAO_voting.sol\":2907:5122  function state(uint256 propID) public view returns(ProposalState) {... */\n    tag_15:\n        /* \"bootcamp/week10/day_2_creating_a_DAO_voting.sol\":2958:2971  ProposalState */\n      0x00\n        /* \"bootcamp/week10/day_2_creating_a_DAO_voting.sol\":3219:3248  ProposalData storage proposal */\n      dup1\n        /* \"bootcamp/week10/day_2_creating_a_DAO_voting.sol\":3251:3260  proposals */\n      0x00\n        /* \"bootcamp/week10/day_2_creating_a_DAO_voting.sol\":3261:3267  propID */\n      dup4\n        /* \"bootcamp/week10/day_2_creating_a_DAO_voting.sol\":3251:3268  proposals[propID] */\n      dup2\n      sload\n      dup2\n      lt\n      tag_45\n      jumpi\n      tag_46\n      tag_47\n      jump\t// in\n    tag_46:\n    tag_45:\n      swap1\n      0x00\n      mstore\n      keccak256(0x00, 0x20)\n      swap1\n      0x07\n      mul\n      add\n        /* \"bootcamp/week10/day_2_creating_a_DAO_voting.sol\":3219:3268  ProposalData storage proposal = proposals[propID] */\n      swap1\n      pop\n        /* \"bootcamp/week10/day_2_creating_a_DAO_voting.sol\":3360:3383  ProposalState propState */\n      0x00\n        /* \"bootcamp/week10/day_2_creating_a_DAO_voting.sol\":3386:3394  proposal */\n      dup2\n        /* \"bootcamp/week10/day_2_creating_a_DAO_voting.sol\":3386:3404  proposal.propState */\n      0x04\n      add\n      0x00\n      swap1\n      sload\n      swap1\n      0x0100\n      exp\n      swap1\n      div\n      0xff\n      and\n        /* \"bootcamp/week10/day_2_creating_a_DAO_voting.sol\":3360:3404  ProposalState propState = proposal.propState */\n      swap1\n      pop\n        /* \"bootcamp/week10/day_2_creating_a_DAO_voting.sol\":3597:3621  ProposalState.Unassigned */\n      0x00\n        /* \"bootcamp/week10/day_2_creating_a_DAO_voting.sol\":3584:3621  propState != ProposalState.Unassigned */\n      0x06\n      dup2\n      gt\n      iszero\n      tag_49\n      jumpi\n      tag_50\n      tag_51\n      jump\t// in\n    tag_50:\n    tag_49:\n        /* \"bootcamp/week10/day_2_creating_a_DAO_voting.sol\":3584:3593  propState */\n      dup2\n        /* \"bootcamp/week10/day_2_creating_a_DAO_voting.sol\":3584:3621  propState != ProposalState.Unassigned */\n      0x06\n      dup2\n      gt\n      iszero\n      tag_52\n      jumpi\n      tag_53\n      tag_51\n      jump\t// in\n    tag_53:\n    tag_52:\n      eq\n        /* \"bootcamp/week10/day_2_creating_a_DAO_voting.sol\":3580:3723  if (propState != ProposalState.Unassigned) {... */\n      tag_54\n      jumpi\n        /* \"bootcamp/week10/day_2_creating_a_DAO_voting.sol\":3703:3712  propState */\n      dup1\n        /* \"bootcamp/week10/day_2_creating_a_DAO_voting.sol\":3696:3712  return propState */\n      swap3\n      pop\n      pop\n      pop\n      jump(tag_44)\n        /* \"bootcamp/week10/day_2_creating_a_DAO_voting.sol\":3580:3723  if (propState != ProposalState.Unassigned) {... */\n    tag_54:\n        /* \"bootcamp/week10/day_2_creating_a_DAO_voting.sol\":3882:3900  uint256 voteBegins */\n      0x00\n        /* \"bootcamp/week10/day_2_creating_a_DAO_voting.sol\":3903:3911  proposal */\n      dup3\n        /* \"bootcamp/week10/day_2_creating_a_DAO_voting.sol\":3903:3922  proposal.voteBegins */\n      0x00\n      add\n      sload\n        /* \"bootcamp/week10/day_2_creating_a_DAO_voting.sol\":3882:3922  uint256 voteBegins = proposal.voteBegins */\n      swap1\n      pop\n        /* \"bootcamp/week10/day_2_creating_a_DAO_voting.sol\":4021:4022  0 */\n      0x00\n        /* \"bootcamp/week10/day_2_creating_a_DAO_voting.sol\":4007:4017  voteBegins */\n      dup2\n        /* \"bootcamp/week10/day_2_creating_a_DAO_voting.sol\":4007:4022  voteBegins == 0 */\n      sub\n        /* \"bootcamp/week10/day_2_creating_a_DAO_voting.sol\":4003:4069  if (voteBegins == 0) {... */\n      tag_55\n      jumpi\n        /* \"bootcamp/week10/day_2_creating_a_DAO_voting.sol\":4038:4058  revert(\"Invalid ID\") */\n      mload(0x40)\n      0x08c379a000000000000000000000000000000000000000000000000000000000\n      dup2\n      mstore\n      0x04\n      add\n      tag_56\n      swap1\n      tag_57\n      jump\t// in\n    tag_56:\n      mload(0x40)\n      dup1\n      swap2\n      sub\n      swap1\n      revert\n        /* \"bootcamp/week10/day_2_creating_a_DAO_voting.sol\":4003:4069  if (voteBegins == 0) {... */\n    tag_55:\n        /* \"bootcamp/week10/day_2_creating_a_DAO_voting.sol\":4432:4447  block.timestamp */\n      timestamp\n        /* \"bootcamp/week10/day_2_creating_a_DAO_voting.sol\":4418:4428  voteBegins */\n      dup2\n        /* \"bootcamp/week10/day_2_creating_a_DAO_voting.sol\":4418:4447  voteBegins >= block.timestamp */\n      lt\n        /* \"bootcamp/week10/day_2_creating_a_DAO_voting.sol\":4414:4502  if (voteBegins >= block.timestamp) {... */\n      tag_58\n      jumpi\n        /* \"bootcamp/week10/day_2_creating_a_DAO_voting.sol\":4470:4491  ProposalState.Pending */\n      0x01\n        /* \"bootcamp/week10/day_2_creating_a_DAO_voting.sol\":4463:4491  return ProposalState.Pending */\n      swap4\n      pop\n      pop\n      pop\n      pop\n      jump(tag_44)\n        /* \"bootcamp/week10/day_2_creating_a_DAO_voting.sol\":4414:4502  if (voteBegins >= block.timestamp) {... */\n    tag_58:\n        /* \"bootcamp/week10/day_2_creating_a_DAO_voting.sol\":4512:4528  uint256 voteEnds */\n      0x00\n        /* \"bootcamp/week10/day_2_creating_a_DAO_voting.sol\":4531:4539  proposal */\n      dup4\n        /* \"bootcamp/week10/day_2_creating_a_DAO_voting.sol\":4531:4548  proposal.voteEnds */\n      0x01\n      add\n      sload\n        /* \"bootcamp/week10/day_2_creating_a_DAO_voting.sol\":4512:4548  uint256 voteEnds = proposal.voteEnds */\n      swap1\n      pop\n        /* \"bootcamp/week10/day_2_creating_a_DAO_voting.sol\":4906:4921  block.timestamp */\n      timestamp\n        /* \"bootcamp/week10/day_2_creating_a_DAO_voting.sol\":4894:4902  voteEnds */\n      dup2\n        /* \"bootcamp/week10/day_2_creating_a_DAO_voting.sol\":4894:4921  voteEnds >= block.timestamp */\n      lt\n        /* \"bootcamp/week10/day_2_creating_a_DAO_voting.sol\":4890:4975  if (voteEnds >= block.timestamp) {... */\n      tag_59\n      jumpi\n        /* \"bootcamp/week10/day_2_creating_a_DAO_voting.sol\":4944:4964  ProposalState.Active */\n      0x02\n        /* \"bootcamp/week10/day_2_creating_a_DAO_voting.sol\":4937:4964  return ProposalState.Active */\n      swap5\n      pop\n      pop\n      pop\n      pop\n      pop\n      jump(tag_44)\n        /* \"bootcamp/week10/day_2_creating_a_DAO_voting.sol\":4890:4975  if (voteEnds >= block.timestamp) {... */\n    tag_59:\n        /* \"bootcamp/week10/day_2_creating_a_DAO_voting.sol\":5095:5115  ProposalState.Queued */\n      0x03\n        /* \"bootcamp/week10/day_2_creating_a_DAO_voting.sol\":5088:5115  return ProposalState.Queued */\n      swap5\n      pop\n      pop\n      pop\n      pop\n      pop\n        /* \"bootcamp/week10/day_2_creating_a_DAO_voting.sol\":2907:5122  function state(uint256 propID) public view returns(ProposalState) {... */\n    tag_44:\n      swap2\n      swap1\n      pop\n      jump\t// out\n        /* \"bootcamp/week10/day_2_creating_a_DAO_voting.sol\":9375:9761  function submitNewAmountChange(uint256 newGrantAmount) public {... */\n    tag_20:\n        /* \"bootcamp/week10/day_2_creating_a_DAO_voting.sol\":9472:9473  0 */\n      0x00\n        /* \"bootcamp/week10/day_2_creating_a_DAO_voting.sol\":9455:9469  newGrantAmount */\n      dup2\n        /* \"bootcamp/week10/day_2_creating_a_DAO_voting.sol\":9455:9473  newGrantAmount > 0 */\n      gt\n        /* \"bootcamp/week10/day_2_creating_a_DAO_voting.sol\":9447:9492  require(newGrantAmount > 0, \"Invalid amount\") */\n      tag_61\n      jumpi\n      mload(0x40)\n      0x08c379a000000000000000000000000000000000000000000000000000000000\n      dup2\n      mstore\n      0x04\n      add\n      tag_62\n      swap1\n      tag_63\n      jump\t// in\n    tag_62:\n      mload(0x40)\n      dup1\n      swap2\n      sub\n      swap1\n      revert\n    tag_61:\n        /* \"bootcamp/week10/day_2_creating_a_DAO_voting.sol\":9683:9754  _submitProposal(ProposalType.IssueGrant, address(0), 0, newGrantAmount) */\n      tag_64\n        /* \"bootcamp/week10/day_2_creating_a_DAO_voting.sol\":9699:9722  ProposalType.IssueGrant */\n      0x00\n        /* \"bootcamp/week10/day_2_creating_a_DAO_voting.sol\":9732:9733  0 */\n      dup1\n        /* \"bootcamp/week10/day_2_creating_a_DAO_voting.sol\":9736:9737  0 */\n      0x00\n        /* \"bootcamp/week10/day_2_creating_a_DAO_voting.sol\":9739:9753  newGrantAmount */\n      dup5\n        /* \"bootcamp/week10/day_2_creating_a_DAO_voting.sol\":9683:9698  _submitProposal */\n      tag_65\n        /* \"bootcamp/week10/day_2_creating_a_DAO_voting.sol\":9683:9754  _submitProposal(ProposalType.IssueGrant, address(0), 0, newGrantAmount) */\n      jump\t// in\n    tag_64:\n        /* \"bootcamp/week10/day_2_creating_a_DAO_voting.sol\":9375:9761  function submitNewAmountChange(uint256 newGrantAmount) public {... */\n      pop\n      jump\t// out\n        /* \"bootcamp/week10/day_2_creating_a_DAO_voting.sol\":11106:11212  function voteAgainst(uint256 propID) public voteChecks(propID) {... */\n    tag_23:\n        /* \"bootcamp/week10/day_2_creating_a_DAO_voting.sol\":11161:11167  propID */\n      dup1\n        /* \"bootcamp/week10/day_2_creating_a_DAO_voting.sol\":9990:10010  ProposalState.Active */\n      0x02\n        /* \"bootcamp/week10/day_2_creating_a_DAO_voting.sol\":9973:10010  state(propID) == ProposalState.Active */\n      0x06\n      dup2\n      gt\n      iszero\n      tag_67\n      jumpi\n      tag_68\n      tag_51\n      jump\t// in\n    tag_68:\n    tag_67:\n        /* \"bootcamp/week10/day_2_creating_a_DAO_voting.sol\":9973:9986  state(propID) */\n      tag_69\n        /* \"bootcamp/week10/day_2_creating_a_DAO_voting.sol\":9979:9985  propID */\n      dup3\n        /* \"bootcamp/week10/day_2_creating_a_DAO_voting.sol\":9973:9978  state */\n      tag_15\n        /* \"bootcamp/week10/day_2_creating_a_DAO_voting.sol\":9973:9986  state(propID) */\n      jump\t// in\n    tag_69:\n        /* \"bootcamp/week10/day_2_creating_a_DAO_voting.sol\":9973:10010  state(propID) == ProposalState.Active */\n      0x06\n      dup2\n      gt\n      iszero\n      tag_70\n      jumpi\n      tag_71\n      tag_51\n      jump\t// in\n    tag_71:\n    tag_70:\n      eq\n        /* \"bootcamp/week10/day_2_creating_a_DAO_voting.sol\":9965:10032  require(state(propID) == ProposalState.Active, \"Proposal Inactive\") */\n      tag_72\n      jumpi\n      mload(0x40)\n      0x08c379a000000000000000000000000000000000000000000000000000000000\n      dup2\n      mstore\n      0x04\n      add\n      tag_73\n      swap1\n      tag_74\n      jump\t// in\n    tag_73:\n      mload(0x40)\n      dup1\n      swap2\n      sub\n      swap1\n      revert\n    tag_72:\n        /* \"bootcamp/week10/day_2_creating_a_DAO_voting.sol\":10140:10145  false */\n      0x00\n        /* \"bootcamp/week10/day_2_creating_a_DAO_voting.sol\":10102:10145  memberHasVoted[msg.sender][propID] == false */\n      iszero\n      iszero\n        /* \"bootcamp/week10/day_2_creating_a_DAO_voting.sol\":10102:10116  memberHasVoted */\n      0x02\n        /* \"bootcamp/week10/day_2_creating_a_DAO_voting.sol\":10102:10128  memberHasVoted[msg.sender] */\n      0x00\n        /* \"bootcamp/week10/day_2_creating_a_DAO_voting.sol\":10117:10127  msg.sender */\n      caller\n        /* \"bootcamp/week10/day_2_creating_a_DAO_voting.sol\":10102:10128  memberHasVoted[msg.sender] */\n      0xffffffffffffffffffffffffffffffffffffffff\n      and\n      0xffffffffffffffffffffffffffffffffffffffff\n      and\n      dup2\n      mstore\n      0x20\n      add\n      swap1\n      dup2\n      mstore\n      0x20\n      add\n      0x00\n      keccak256\n        /* \"bootcamp/week10/day_2_creating_a_DAO_voting.sol\":10102:10136  memberHasVoted[msg.sender][propID] */\n      0x00\n        /* \"bootcamp/week10/day_2_creating_a_DAO_voting.sol\":10129:10135  propID */\n      dup4\n        /* \"bootcamp/week10/day_2_creating_a_DAO_voting.sol\":10102:10136  memberHasVoted[msg.sender][propID] */\n      dup2\n      mstore\n      0x20\n      add\n      swap1\n      dup2\n      mstore\n      0x20\n      add\n      0x00\n      keccak256\n      0x00\n      swap1\n      sload\n      swap1\n      0x0100\n      exp\n      swap1\n      div\n      0xff\n      and\n        /* \"bootcamp/week10/day_2_creating_a_DAO_voting.sol\":10102:10145  memberHasVoted[msg.sender][propID] == false */\n      iszero\n      iszero\n      eq\n        /* \"bootcamp/week10/day_2_creating_a_DAO_voting.sol\":10094:10170  require(memberHasVoted[msg.sender][propID] == false, \"Member already voted\") */\n      tag_75\n      jumpi\n      mload(0x40)\n      0x08c379a000000000000000000000000000000000000000000000000000000000\n      dup2\n      mstore\n      0x04\n      add\n      tag_76\n      swap1\n      tag_77\n      jump\t// in\n    tag_76:\n      mload(0x40)\n      dup1\n      swap2\n      sub\n      swap1\n      revert\n    tag_75:\n        /* \"bootcamp/week10/day_2_creating_a_DAO_voting.sol\":11179:11205  _submitVote(propID, false) */\n      tag_79\n        /* \"bootcamp/week10/day_2_creating_a_DAO_voting.sol\":11191:11197  propID */\n      dup3\n        /* \"bootcamp/week10/day_2_creating_a_DAO_voting.sol\":11199:11204  false */\n      0x00\n        /* \"bootcamp/week10/day_2_creating_a_DAO_voting.sol\":11179:11190  _submitVote */\n      tag_80\n        /* \"bootcamp/week10/day_2_creating_a_DAO_voting.sol\":11179:11205  _submitVote(propID, false) */\n      jump\t// in\n    tag_79:\n        /* \"bootcamp/week10/day_2_creating_a_DAO_voting.sol\":11106:11212  function voteAgainst(uint256 propID) public voteChecks(propID) {... */\n      pop\n      pop\n      jump\t// out\n        /* \"bootcamp/week10/day_2_creating_a_DAO_voting.sol\":10964:11065  function voteFor(uint256 propID) public voteChecks(propID) {... */\n    tag_26:\n        /* \"bootcamp/week10/day_2_creating_a_DAO_voting.sol\":11015:11021  propID */\n      dup1\n        /* \"bootcamp/week10/day_2_creating_a_DAO_voting.sol\":9990:10010  ProposalState.Active */\n      0x02\n        /* \"bootcamp/week10/day_2_creating_a_DAO_voting.sol\":9973:10010  state(propID) == ProposalState.Active */\n      0x06\n      dup2\n      gt\n      iszero\n      tag_82\n      jumpi\n      tag_83\n      tag_51\n      jump\t// in\n    tag_83:\n    tag_82:\n        /* \"bootcamp/week10/day_2_creating_a_DAO_voting.sol\":9973:9986  state(propID) */\n      tag_84\n        /* \"bootcamp/week10/day_2_creating_a_DAO_voting.sol\":9979:9985  propID */\n      dup3\n        /* \"bootcamp/week10/day_2_creating_a_DAO_voting.sol\":9973:9978  state */\n      tag_15\n        /* \"bootcamp/week10/day_2_creating_a_DAO_voting.sol\":9973:9986  state(propID) */\n      jump\t// in\n    tag_84:\n        /* \"bootcamp/week10/day_2_creating_a_DAO_voting.sol\":9973:10010  state(propID) == ProposalState.Active */\n      0x06\n      dup2\n      gt\n      iszero\n      tag_85\n      jumpi\n      tag_86\n      tag_51\n      jump\t// in\n    tag_86:\n    tag_85:\n      eq\n        /* \"bootcamp/week10/day_2_creating_a_DAO_voting.sol\":9965:10032  require(state(propID) == ProposalState.Active, \"Proposal Inactive\") */\n      tag_87\n      jumpi\n      mload(0x40)\n      0x08c379a000000000000000000000000000000000000000000000000000000000\n      dup2\n      mstore\n      0x04\n      add\n      tag_88\n      swap1\n      tag_74\n      jump\t// in\n    tag_88:\n      mload(0x40)\n      dup1\n      swap2\n      sub\n      swap1\n      revert\n    tag_87:\n        /* \"bootcamp/week10/day_2_creating_a_DAO_voting.sol\":10140:10145  false */\n      0x00\n        /* \"bootcamp/week10/day_2_creating_a_DAO_voting.sol\":10102:10145  memberHasVoted[msg.sender][propID] == false */\n      iszero\n      iszero\n        /* \"bootcamp/week10/day_2_creating_a_DAO_voting.sol\":10102:10116  memberHasVoted */\n      0x02\n        /* \"bootcamp/week10/day_2_creating_a_DAO_voting.sol\":10102:10128  memberHasVoted[msg.sender] */\n      0x00\n        /* \"bootcamp/week10/day_2_creating_a_DAO_voting.sol\":10117:10127  msg.sender */\n      caller\n        /* \"bootcamp/week10/day_2_creating_a_DAO_voting.sol\":10102:10128  memberHasVoted[msg.sender] */\n      0xffffffffffffffffffffffffffffffffffffffff\n      and\n      0xffffffffffffffffffffffffffffffffffffffff\n      and\n      dup2\n      mstore\n      0x20\n      add\n      swap1\n      dup2\n      mstore\n      0x20\n      add\n      0x00\n      keccak256\n        /* \"bootcamp/week10/day_2_creating_a_DAO_voting.sol\":10102:10136  memberHasVoted[msg.sender][propID] */\n      0x00\n        /* \"bootcamp/week10/day_2_creating_a_DAO_voting.sol\":10129:10135  propID */\n      dup4\n        /* \"bootcamp/week10/day_2_creating_a_DAO_voting.sol\":10102:10136  memberHasVoted[msg.sender][propID] */\n      dup2\n      mstore\n      0x20\n      add\n      swap1\n      dup2\n      mstore\n      0x20\n      add\n      0x00\n      keccak256\n      0x00\n      swap1\n      sload\n      swap1\n      0x0100\n      exp\n      swap1\n      div\n      0xff\n      and\n        /* \"bootcamp/week10/day_2_creating_a_DAO_voting.sol\":10102:10145  memberHasVoted[msg.sender][propID] == false */\n      iszero\n      iszero\n      eq\n        /* \"bootcamp/week10/day_2_creating_a_DAO_voting.sol\":10094:10170  require(memberHasVoted[msg.sender][propID] == false, \"Member already voted\") */\n      tag_89\n      jumpi\n      mload(0x40)\n      0x08c379a000000000000000000000000000000000000000000000000000000000\n      dup2\n      mstore\n      0x04\n      add\n      tag_90\n      swap1\n      tag_77\n      jump\t// in\n    tag_90:\n      mload(0x40)\n      dup1\n      swap2\n      sub\n      swap1\n      revert\n    tag_89:\n        /* \"bootcamp/week10/day_2_creating_a_DAO_voting.sol\":11033:11058  _submitVote(propID, true) */\n      tag_92\n        /* \"bootcamp/week10/day_2_creating_a_DAO_voting.sol\":11045:11051  propID */\n      dup3\n        /* \"bootcamp/week10/day_2_creating_a_DAO_voting.sol\":11053:11057  true */\n      0x01\n        /* \"bootcamp/week10/day_2_creating_a_DAO_voting.sol\":11033:11044  _submitVote */\n      tag_80\n        /* \"bootcamp/week10/day_2_creating_a_DAO_voting.sol\":11033:11058  _submitVote(propID, true) */\n      jump\t// in\n    tag_92:\n        /* \"bootcamp/week10/day_2_creating_a_DAO_voting.sol\":10964:11065  function voteFor(uint256 propID) public voteChecks(propID) {... */\n      pop\n      pop\n      jump\t// out\n        /* \"bootcamp/week10/day_2_creating_a_DAO_voting.sol\":2262:2328  mapping(address => mapping(uint256 => bool)) public memberHasVoted */\n    tag_30:\n      mstore(0x20, 0x02)\n      dup2\n      0x00\n      mstore\n      mstore(0x20, keccak256(0x00, 0x40))\n      dup1\n      0x00\n      mstore\n      keccak256(0x00, 0x40)\n      0x00\n      swap2\n      pop\n      swap2\n      pop\n      swap1\n      sload\n      swap1\n      0x0100\n      exp\n      swap1\n      div\n      0xff\n      and\n      dup2\n      jump\t// out\n        /* \"bootcamp/week10/day_2_creating_a_DAO_voting.sol\":8698:9319  function submitNewGrant(address recipient) public {... */\n    tag_36:\n        /* \"bootcamp/week10/day_2_creating_a_DAO_voting.sol\":8834:8854  uint256 _grantAmount */\n      0x00\n        /* \"bootcamp/week10/day_2_creating_a_DAO_voting.sol\":8857:8868  grantAmount */\n      sload(0x05)\n        /* \"bootcamp/week10/day_2_creating_a_DAO_voting.sol\":8834:8868  uint256 _grantAmount = grantAmount */\n      swap1\n      pop\n        /* \"bootcamp/week10/day_2_creating_a_DAO_voting.sol\":8975:8987  _grantAmount */\n      dup1\n        /* \"bootcamp/week10/day_2_creating_a_DAO_voting.sol\":8959:8971  availableETH */\n      sload(0x06)\n        /* \"bootcamp/week10/day_2_creating_a_DAO_voting.sol\":8959:8987  availableETH >= _grantAmount */\n      lt\n      iszero\n        /* \"bootcamp/week10/day_2_creating_a_DAO_voting.sol\":8951:9007  require(availableETH >= _grantAmount, \"Insuficient ETH\") */\n      tag_94\n      jumpi\n      mload(0x40)\n      0x08c379a000000000000000000000000000000000000000000000000000000000\n      dup2\n      mstore\n      0x04\n      add\n      tag_95\n      swap1\n      tag_96\n      jump\t// in\n    tag_95:\n      mload(0x40)\n      dup1\n      swap2\n      sub\n      swap1\n      revert\n    tag_94:\n        /* \"bootcamp/week10/day_2_creating_a_DAO_voting.sol\":9079:9091  _grantAmount */\n      dup1\n        /* \"bootcamp/week10/day_2_creating_a_DAO_voting.sol\":9063:9075  availableETH */\n      0x06\n      0x00\n        /* \"bootcamp/week10/day_2_creating_a_DAO_voting.sol\":9063:9091  availableETH -= _grantAmount */\n      dup3\n      dup3\n      sload\n      tag_97\n      swap2\n      swap1\n      tag_98\n      jump\t// in\n    tag_97:\n      swap3\n      pop\n      pop\n      dup2\n      swap1\n      sstore\n      pop\n        /* \"bootcamp/week10/day_2_creating_a_DAO_voting.sol\":9244:9312  _submitProposal(ProposalType.IssueGrant, recipient, _grantAmount, 0) */\n      tag_99\n        /* \"bootcamp/week10/day_2_creating_a_DAO_voting.sol\":9260:9283  ProposalType.IssueGrant */\n      0x00\n        /* \"bootcamp/week10/day_2_creating_a_DAO_voting.sol\":9285:9294  recipient */\n      dup4\n        /* \"bootcamp/week10/day_2_creating_a_DAO_voting.sol\":9296:9308  _grantAmount */\n      dup4\n        /* \"bootcamp/week10/day_2_creating_a_DAO_voting.sol\":9310:9311  0 */\n      0x00\n        /* \"bootcamp/week10/day_2_creating_a_DAO_voting.sol\":9244:9259  _submitProposal */\n      tag_65\n        /* \"bootcamp/week10/day_2_creating_a_DAO_voting.sol\":9244:9312  _submitProposal(ProposalType.IssueGrant, recipient, _grantAmount, 0) */\n      jump\t// in\n    tag_99:\n        /* \"bootcamp/week10/day_2_creating_a_DAO_voting.sol\":8748:9319  {... */\n      pop\n        /* \"bootcamp/week10/day_2_creating_a_DAO_voting.sol\":8698:9319  function submitNewGrant(address recipient) public {... */\n      pop\n      jump\t// out\n        /* \"bootcamp/week10/day_2_creating_a_DAO_voting.sol\":2744:2771  uint256 public availableETH */\n    tag_38:\n      sload(0x06)\n      dup2\n      jump\t// out\n        /* \"bootcamp/week10/day_2_creating_a_DAO_voting.sol\":11309:12976  function execute(uint256 propID) public {... */\n    tag_43:\n        /* \"bootcamp/week10/day_2_creating_a_DAO_voting.sol\":11587:11616  ProposalData storage proposal */\n      0x00\n        /* \"bootcamp/week10/day_2_creating_a_DAO_voting.sol\":11619:11628  proposals */\n      dup1\n        /* \"bootcamp/week10/day_2_creating_a_DAO_voting.sol\":11629:11635  propID */\n      dup3\n        /* \"bootcamp/week10/day_2_creating_a_DAO_voting.sol\":11619:11636  proposals[propID] */\n      dup2\n      sload\n      dup2\n      lt\n      tag_101\n      jumpi\n      tag_102\n      tag_47\n      jump\t// in\n    tag_102:\n    tag_101:\n      swap1\n      0x00\n      mstore\n      keccak256(0x00, 0x20)\n      swap1\n      0x07\n      mul\n      add\n        /* \"bootcamp/week10/day_2_creating_a_DAO_voting.sol\":11587:11636  ProposalData storage proposal = proposals[propID] */\n      swap1\n      pop\n        /* \"bootcamp/week10/day_2_creating_a_DAO_voting.sol\":11720:11743  ProposalState propState */\n      0x00\n        /* \"bootcamp/week10/day_2_creating_a_DAO_voting.sol\":11746:11759  state(propID) */\n      tag_104\n        /* \"bootcamp/week10/day_2_creating_a_DAO_voting.sol\":11752:11758  propID */\n      dup4\n        /* \"bootcamp/week10/day_2_creating_a_DAO_voting.sol\":11746:11751  state */\n      tag_15\n        /* \"bootcamp/week10/day_2_creating_a_DAO_voting.sol\":11746:11759  state(propID) */\n      jump\t// in\n    tag_104:\n        /* \"bootcamp/week10/day_2_creating_a_DAO_voting.sol\":11720:11759  ProposalState propState = state(propID) */\n      swap1\n      pop\n        /* \"bootcamp/week10/day_2_creating_a_DAO_voting.sol\":11988:12008  ProposalState.Queued */\n      0x03\n        /* \"bootcamp/week10/day_2_creating_a_DAO_voting.sol\":11975:12008  propState == ProposalState.Queued */\n      0x06\n      dup2\n      gt\n      iszero\n      tag_105\n      jumpi\n      tag_106\n      tag_51\n      jump\t// in\n    tag_106:\n    tag_105:\n        /* \"bootcamp/week10/day_2_creating_a_DAO_voting.sol\":11975:11984  propState */\n      dup2\n        /* \"bootcamp/week10/day_2_creating_a_DAO_voting.sol\":11975:12008  propState == ProposalState.Queued */\n      0x06\n      dup2\n      gt\n      iszero\n      tag_107\n      jumpi\n      tag_108\n      tag_51\n      jump\t// in\n    tag_108:\n    tag_107:\n      eq\n        /* \"bootcamp/week10/day_2_creating_a_DAO_voting.sol\":11967:12046  require(propState == ProposalState.Queued, \"Proposal not queued for execution\") */\n      tag_109\n      jumpi\n      mload(0x40)\n      0x08c379a000000000000000000000000000000000000000000000000000000000\n      dup2\n      mstore\n      0x04\n      add\n      tag_110\n      swap1\n      tag_111\n      jump\t// in\n    tag_110:\n      mload(0x40)\n      dup1\n      swap2\n      sub\n      swap1\n      revert\n    tag_109:\n        /* \"bootcamp/week10/day_2_creating_a_DAO_voting.sol\":12178:12197  _tallyVotes(propID) */\n      tag_112\n        /* \"bootcamp/week10/day_2_creating_a_DAO_voting.sol\":12190:12196  propID */\n      dup4\n        /* \"bootcamp/week10/day_2_creating_a_DAO_voting.sol\":12178:12189  _tallyVotes */\n      tag_113\n        /* \"bootcamp/week10/day_2_creating_a_DAO_voting.sol\":12178:12197  _tallyVotes(propID) */\n      jump\t// in\n    tag_112:\n        /* \"bootcamp/week10/day_2_creating_a_DAO_voting.sol\":12166:12197  propState = _tallyVotes(propID) */\n      swap1\n      pop\n        /* \"bootcamp/week10/day_2_creating_a_DAO_voting.sol\":12319:12340  ProposalType propType */\n      0x00\n        /* \"bootcamp/week10/day_2_creating_a_DAO_voting.sol\":12343:12351  proposal */\n      dup3\n        /* \"bootcamp/week10/day_2_creating_a_DAO_voting.sol\":12343:12360  proposal.propType */\n      0x04\n      add\n      0x01\n      swap1\n      sload\n      swap1\n      0x0100\n      exp\n      swap1\n      div\n      0xff\n      and\n        /* \"bootcamp/week10/day_2_creating_a_DAO_voting.sol\":12319:12360  ProposalType propType = proposal.propType */\n      swap1\n      pop\n        /* \"bootcamp/week10/day_2_creating_a_DAO_voting.sol\":12388:12411  ProposalState.Succeeded */\n      0x05\n        /* \"bootcamp/week10/day_2_creating_a_DAO_voting.sol\":12375:12411  propState == ProposalState.Succeeded */\n      0x06\n      dup2\n      gt\n      iszero\n      tag_114\n      jumpi\n      tag_115\n      tag_51\n      jump\t// in\n    tag_115:\n    tag_114:\n        /* \"bootcamp/week10/day_2_creating_a_DAO_voting.sol\":12375:12384  propState */\n      dup3\n        /* \"bootcamp/week10/day_2_creating_a_DAO_voting.sol\":12375:12411  propState == ProposalState.Succeeded */\n      0x06\n      dup2\n      gt\n      iszero\n      tag_116\n      jumpi\n      tag_117\n      tag_51\n      jump\t// in\n    tag_117:\n    tag_116:\n      sub\n        /* \"bootcamp/week10/day_2_creating_a_DAO_voting.sol\":12372:12926  if(propState == ProposalState.Succeeded) {... */\n      tag_118\n      jumpi\n        /* \"bootcamp/week10/day_2_creating_a_DAO_voting.sol\":12442:12465  ProposalType.IssueGrant */\n      0x00\n        /* \"bootcamp/week10/day_2_creating_a_DAO_voting.sol\":12430:12465  propType == ProposalType.IssueGrant */\n      0x01\n      dup2\n      gt\n      iszero\n      tag_119\n      jumpi\n      tag_120\n      tag_51\n      jump\t// in\n    tag_120:\n    tag_119:\n        /* \"bootcamp/week10/day_2_creating_a_DAO_voting.sol\":12430:12438  propType */\n      dup2\n        /* \"bootcamp/week10/day_2_creating_a_DAO_voting.sol\":12430:12465  propType == ProposalType.IssueGrant */\n      0x01\n      dup2\n      gt\n      iszero\n      tag_121\n      jumpi\n      tag_122\n      tag_51\n      jump\t// in\n    tag_122:\n    tag_121:\n      sub\n        /* \"bootcamp/week10/day_2_creating_a_DAO_voting.sol\":12427:12616  if(propType == ProposalType.IssueGrant) {... */\n      iszero\n      tag_124\n      jumpi\n        /* \"bootcamp/week10/day_2_creating_a_DAO_voting.sol\":12534:12562  ProposalType.ModifyGrantSize */\n      0x01\n        /* \"bootcamp/week10/day_2_creating_a_DAO_voting.sol\":12522:12562  propType == ProposalType.ModifyGrantSize */\n      dup1\n      dup2\n      gt\n      iszero\n      tag_125\n      jumpi\n      tag_126\n      tag_51\n      jump\t// in\n    tag_126:\n    tag_125:\n        /* \"bootcamp/week10/day_2_creating_a_DAO_voting.sol\":12522:12530  propType */\n      dup2\n        /* \"bootcamp/week10/day_2_creating_a_DAO_voting.sol\":12522:12562  propType == ProposalType.ModifyGrantSize */\n      0x01\n      dup2\n      gt\n      iszero\n      tag_127\n      jumpi\n      tag_128\n      tag_51\n      jump\t// in\n    tag_128:\n    tag_127:\n      pop\n      pop\n        /* \"bootcamp/week10/day_2_creating_a_DAO_voting.sol\":12427:12616  if(propType == ProposalType.IssueGrant) {... */\n    tag_124:\n        /* \"bootcamp/week10/day_2_creating_a_DAO_voting.sol\":12372:12926  if(propState == ProposalState.Succeeded) {... */\n      jump(tag_130)\n    tag_118:\n        /* \"bootcamp/week10/day_2_creating_a_DAO_voting.sol\":12708:12731  ProposalType.IssueGrant */\n      0x00\n        /* \"bootcamp/week10/day_2_creating_a_DAO_voting.sol\":12696:12731  propType == ProposalType.IssueGrant */\n      0x01\n      dup2\n      gt\n      iszero\n      tag_131\n      jumpi\n      tag_132\n      tag_51\n      jump\t// in\n    tag_132:\n    tag_131:\n        /* \"bootcamp/week10/day_2_creating_a_DAO_voting.sol\":12696:12704  propType */\n      dup2\n        /* \"bootcamp/week10/day_2_creating_a_DAO_voting.sol\":12696:12731  propType == ProposalType.IssueGrant */\n      0x01\n      dup2\n      gt\n      iszero\n      tag_133\n      jumpi\n      tag_134\n      tag_51\n      jump\t// in\n    tag_134:\n    tag_133:\n      sub\n        /* \"bootcamp/week10/day_2_creating_a_DAO_voting.sol\":12693:12916  if(propType == ProposalType.IssueGrant) {... */\n      tag_135\n      jumpi\n        /* \"bootcamp/week10/day_2_creating_a_DAO_voting.sol\":12884:12892  proposal */\n      dup3\n        /* \"bootcamp/week10/day_2_creating_a_DAO_voting.sol\":12884:12901  proposal.ethGrant */\n      0x05\n      add\n      sload\n        /* \"bootcamp/week10/day_2_creating_a_DAO_voting.sol\":12868:12880  availableETH */\n      0x06\n      0x00\n        /* \"bootcamp/week10/day_2_creating_a_DAO_voting.sol\":12868:12901  availableETH += proposal.ethGrant */\n      dup3\n      dup3\n      sload\n      tag_136\n      swap2\n      swap1\n      tag_137\n      jump\t// in\n    tag_136:\n      swap3\n      pop\n      pop\n      dup2\n      swap1\n      sstore\n      pop\n        /* \"bootcamp/week10/day_2_creating_a_DAO_voting.sol\":12693:12916  if(propType == ProposalType.IssueGrant) {... */\n    tag_135:\n        /* \"bootcamp/week10/day_2_creating_a_DAO_voting.sol\":12372:12926  if(propState == ProposalState.Succeeded) {... */\n    tag_130:\n        /* \"bootcamp/week10/day_2_creating_a_DAO_voting.sol\":11349:12976  {... */\n      pop\n      pop\n      pop\n        /* \"bootcamp/week10/day_2_creating_a_DAO_voting.sol\":11309:12976  function execute(uint256 propID) public {... */\n      pop\n      jump\t// out\n        /* \"bootcamp/week10/day_2_creating_a_DAO_voting.sol\":7689:8657  function _submitProposal(... */\n    tag_65:\n        /* \"bootcamp/week10/day_2_creating_a_DAO_voting.sol\":7852:7875  uint256 votingBeginDate */\n      0x00\n        /* \"bootcamp/week10/day_2_creating_a_DAO_voting.sol\":7896:7908  reviewPeriod */\n      sload(0x03)\n        /* \"bootcamp/week10/day_2_creating_a_DAO_voting.sol\":7878:7893  block.timestamp */\n      timestamp\n        /* \"bootcamp/week10/day_2_creating_a_DAO_voting.sol\":7878:7908  block.timestamp + reviewPeriod */\n      tag_139\n      swap2\n      swap1\n      tag_137\n      jump\t// in\n    tag_139:\n        /* \"bootcamp/week10/day_2_creating_a_DAO_voting.sol\":7852:7908  uint256 votingBeginDate = block.timestamp + reviewPeriod */\n      swap1\n      pop\n        /* \"bootcamp/week10/day_2_creating_a_DAO_voting.sol\":8083:8114  ProposalData memory newProposal */\n      0x00\n        /* \"bootcamp/week10/day_2_creating_a_DAO_voting.sol\":8117:8504  ProposalData ({... */\n      mload(0x40)\n      dup1\n      0x0120\n      add\n      0x40\n      mstore\n      dup1\n        /* \"bootcamp/week10/day_2_creating_a_DAO_voting.sol\":8157:8172  votingBeginDate */\n      dup4\n        /* \"bootcamp/week10/day_2_creating_a_DAO_voting.sol\":8117:8504  ProposalData ({... */\n      dup2\n      mstore\n      0x20\n      add\n        /* \"bootcamp/week10/day_2_creating_a_DAO_voting.sol\":8214:8226  votingPeriod */\n      sload(0x04)\n        /* \"bootcamp/week10/day_2_creating_a_DAO_voting.sol\":8196:8211  votingBeginDate */\n      dup5\n        /* \"bootcamp/week10/day_2_creating_a_DAO_voting.sol\":8196:8226  votingBeginDate + votingPeriod */\n      tag_140\n      swap2\n      swap1\n      tag_137\n      jump\t// in\n    tag_140:\n        /* \"bootcamp/week10/day_2_creating_a_DAO_voting.sol\":8117:8504  ProposalData ({... */\n      dup2\n      mstore\n      0x20\n      add\n        /* \"bootcamp/week10/day_2_creating_a_DAO_voting.sol\":8250:8251  0 */\n      0x00\n        /* \"bootcamp/week10/day_2_creating_a_DAO_voting.sol\":8117:8504  ProposalData ({... */\n      dup2\n      mstore\n      0x20\n      add\n        /* \"bootcamp/week10/day_2_creating_a_DAO_voting.sol\":8279:8280  0 */\n      0x00\n        /* \"bootcamp/week10/day_2_creating_a_DAO_voting.sol\":8117:8504  ProposalData ({... */\n      dup2\n      mstore\n      0x20\n      add\n        /* \"bootcamp/week10/day_2_creating_a_DAO_voting.sol\":8305:8329  ProposalState.Unassigned */\n      0x00\n        /* \"bootcamp/week10/day_2_creating_a_DAO_voting.sol\":8117:8504  ProposalData ({... */\n      0x06\n      dup2\n      gt\n      iszero\n      tag_141\n      jumpi\n      tag_142\n      tag_51\n      jump\t// in\n    tag_142:\n    tag_141:\n      dup2\n      mstore\n      0x20\n      add\n        /* \"bootcamp/week10/day_2_creating_a_DAO_voting.sol\":8353:8361  propType */\n      dup8\n        /* \"bootcamp/week10/day_2_creating_a_DAO_voting.sol\":8117:8504  ProposalData ({... */\n      0x01\n      dup2\n      gt\n      iszero\n      tag_143\n      jumpi\n      tag_144\n      tag_51\n      jump\t// in\n    tag_144:\n    tag_143:\n      dup2\n      mstore\n      0x20\n      add\n        /* \"bootcamp/week10/day_2_creating_a_DAO_voting.sol\":8413:8422  recipient */\n      dup7\n        /* \"bootcamp/week10/day_2_creating_a_DAO_voting.sol\":8117:8504  ProposalData ({... */\n      0xffffffffffffffffffffffffffffffffffffffff\n      and\n      dup2\n      mstore\n      0x20\n      add\n        /* \"bootcamp/week10/day_2_creating_a_DAO_voting.sol\":8446:8452  amount */\n      dup6\n        /* \"bootcamp/week10/day_2_creating_a_DAO_voting.sol\":8117:8504  ProposalData ({... */\n      dup2\n      mstore\n      0x20\n      add\n        /* \"bootcamp/week10/day_2_creating_a_DAO_voting.sol\":8479:8493  newGrantAmount */\n      dup5\n        /* \"bootcamp/week10/day_2_creating_a_DAO_voting.sol\":8117:8504  ProposalData ({... */\n      dup2\n      mstore\n      pop\n        /* \"bootcamp/week10/day_2_creating_a_DAO_voting.sol\":8083:8504  ProposalData memory newProposal = ProposalData ({... */\n      swap1\n      pop\n        /* \"bootcamp/week10/day_2_creating_a_DAO_voting.sol\":8623:8632  proposals */\n      0x00\n        /* \"bootcamp/week10/day_2_creating_a_DAO_voting.sol\":8638:8649  newProposal */\n      dup2\n        /* \"bootcamp/week10/day_2_creating_a_DAO_voting.sol\":8623:8650  proposals.push(newProposal) */\n      swap1\n      dup1\n      0x01\n      dup2\n      sload\n      add\n      dup1\n      dup3\n      sstore\n      dup1\n      swap2\n      pop\n      pop\n      0x01\n      swap1\n      sub\n      swap1\n      0x00\n      mstore\n      keccak256(0x00, 0x20)\n      swap1\n      0x07\n      mul\n      add\n      0x00\n      swap1\n      swap2\n      swap1\n      swap2\n      swap1\n      swap2\n      pop\n      0x00\n      dup3\n      add\n      mload\n      dup2\n      0x00\n      add\n      sstore\n      0x20\n      dup3\n      add\n      mload\n      dup2\n      0x01\n      add\n      sstore\n      0x40\n      dup3\n      add\n      mload\n      dup2\n      0x02\n      add\n      sstore\n      0x60\n      dup3\n      add\n      mload\n      dup2\n      0x03\n      add\n      sstore\n      0x80\n      dup3\n      add\n      mload\n      dup2\n      0x04\n      add\n      exp(0x0100, 0x00)\n      dup2\n      sload\n      dup2\n      0xff\n      mul\n      not\n      and\n      swap1\n      dup4\n      0x06\n      dup2\n      gt\n      iszero\n      tag_146\n      jumpi\n      tag_147\n      tag_51\n      jump\t// in\n    tag_147:\n    tag_146:\n      mul\n      or\n      swap1\n      sstore\n      pop\n      0xa0\n      dup3\n      add\n      mload\n      dup2\n      0x04\n      add\n      exp(0x0100, 0x01)\n      dup2\n      sload\n      dup2\n      0xff\n      mul\n      not\n      and\n      swap1\n      dup4\n      0x01\n      dup2\n      gt\n      iszero\n      tag_148\n      jumpi\n      tag_149\n      tag_51\n      jump\t// in\n    tag_149:\n    tag_148:\n      mul\n      or\n      swap1\n      sstore\n      pop\n      0xc0\n      dup3\n      add\n      mload\n      dup2\n      0x04\n      add\n      exp(0x0100, 0x02)\n      dup2\n      sload\n      dup2\n      0xffffffffffffffffffffffffffffffffffffffff\n      mul\n      not\n      and\n      swap1\n      dup4\n      0xffffffffffffffffffffffffffffffffffffffff\n      and\n      mul\n      or\n      swap1\n      sstore\n      pop\n      0xe0\n      dup3\n      add\n      mload\n      dup2\n      0x05\n      add\n      sstore\n      0x0100\n      dup3\n      add\n      mload\n      dup2\n      0x06\n      add\n      sstore\n      pop\n      pop\n        /* \"bootcamp/week10/day_2_creating_a_DAO_voting.sol\":7842:8657  {... */\n      pop\n      pop\n        /* \"bootcamp/week10/day_2_creating_a_DAO_voting.sol\":7689:8657  function _submitProposal(... */\n      pop\n      pop\n      pop\n      pop\n      jump\t// out\n        /* \"bootcamp/week10/day_2_creating_a_DAO_voting.sol\":10250:10931  function _submitVote(uint256 propID, bool votedFor) private {... */\n    tag_80:\n        /* \"bootcamp/week10/day_2_creating_a_DAO_voting.sol\":10556:10585  ProposalData storage proposal */\n      0x00\n        /* \"bootcamp/week10/day_2_creating_a_DAO_voting.sol\":10588:10597  proposals */\n      dup1\n        /* \"bootcamp/week10/day_2_creating_a_DAO_voting.sol\":10598:10604  propID */\n      dup4\n        /* \"bootcamp/week10/day_2_creating_a_DAO_voting.sol\":10588:10605  proposals[propID] */\n      dup2\n      sload\n      dup2\n      lt\n      tag_151\n      jumpi\n      tag_152\n      tag_47\n      jump\t// in\n    tag_152:\n    tag_151:\n      swap1\n      0x00\n      mstore\n      keccak256(0x00, 0x20)\n      swap1\n      0x07\n      mul\n      add\n        /* \"bootcamp/week10/day_2_creating_a_DAO_voting.sol\":10556:10605  ProposalData storage proposal = proposals[propID] */\n      swap1\n      pop\n        /* \"bootcamp/week10/day_2_creating_a_DAO_voting.sol\":10712:10720  votedFor */\n      dup2\n        /* \"bootcamp/week10/day_2_creating_a_DAO_voting.sol\":10709:10820  if(votedFor) {... */\n      iszero\n      tag_154\n      jumpi\n        /* \"bootcamp/week10/day_2_creating_a_DAO_voting.sol\":10736:10744  proposal */\n      dup1\n        /* \"bootcamp/week10/day_2_creating_a_DAO_voting.sol\":10736:10753  proposal.votesFor */\n      0x02\n      add\n      0x00\n        /* \"bootcamp/week10/day_2_creating_a_DAO_voting.sol\":10736:10755  proposal.votesFor++ */\n      dup2\n      sload\n      dup1\n      swap3\n      swap2\n      swap1\n      tag_155\n      swap1\n      tag_156\n      jump\t// in\n    tag_155:\n      swap2\n      swap1\n      pop\n      sstore\n      pop\n        /* \"bootcamp/week10/day_2_creating_a_DAO_voting.sol\":10709:10820  if(votedFor) {... */\n      jump(tag_157)\n    tag_154:\n        /* \"bootcamp/week10/day_2_creating_a_DAO_voting.sol\":10786:10794  proposal */\n      dup1\n        /* \"bootcamp/week10/day_2_creating_a_DAO_voting.sol\":10786:10807  proposal.votesAgainst */\n      0x03\n      add\n      0x00\n        /* \"bootcamp/week10/day_2_creating_a_DAO_voting.sol\":10786:10809  proposal.votesAgainst++ */\n      dup2\n      sload\n      dup1\n      swap3\n      swap2\n      swap1\n      tag_158\n      swap1\n      tag_156\n      jump\t// in\n    tag_158:\n      swap2\n      swap1\n      pop\n      sstore\n      pop\n        /* \"bootcamp/week10/day_2_creating_a_DAO_voting.sol\":10709:10820  if(votedFor) {... */\n    tag_157:\n        /* \"bootcamp/week10/day_2_creating_a_DAO_voting.sol\":10920:10924  true */\n      0x01\n        /* \"bootcamp/week10/day_2_creating_a_DAO_voting.sol\":10882:10924  memberHasVoted[msg.sender][propID] == true */\n      iszero\n      iszero\n        /* \"bootcamp/week10/day_2_creating_a_DAO_voting.sol\":10882:10896  memberHasVoted */\n      0x02\n        /* \"bootcamp/week10/day_2_creating_a_DAO_voting.sol\":10882:10908  memberHasVoted[msg.sender] */\n      0x00\n        /* \"bootcamp/week10/day_2_creating_a_DAO_voting.sol\":10897:10907  msg.sender */\n      caller\n        /* \"bootcamp/week10/day_2_creating_a_DAO_voting.sol\":10882:10908  memberHasVoted[msg.sender] */\n      0xffffffffffffffffffffffffffffffffffffffff\n      and\n      0xffffffffffffffffffffffffffffffffffffffff\n      and\n      dup2\n      mstore\n      0x20\n      add\n      swap1\n      dup2\n      mstore\n      0x20\n      add\n      0x00\n      keccak256\n        /* \"bootcamp/week10/day_2_creating_a_DAO_voting.sol\":10882:10916  memberHasVoted[msg.sender][propID] */\n      0x00\n        /* \"bootcamp/week10/day_2_creating_a_DAO_voting.sol\":10909:10915  propID */\n      dup6\n        /* \"bootcamp/week10/day_2_creating_a_DAO_voting.sol\":10882:10916  memberHasVoted[msg.sender][propID] */\n      dup2\n      mstore\n      0x20\n      add\n      swap1\n      dup2\n      mstore\n      0x20\n      add\n      0x00\n      keccak256\n      0x00\n      swap1\n      sload\n      swap1\n      0x0100\n      exp\n      swap1\n      pop\n      pop\n        /* \"bootcamp/week10/day_2_creating_a_DAO_voting.sol\":10882:10924  memberHasVoted[msg.sender][propID] == true */\n      pop\n        /* \"bootcamp/week10/day_2_creating_a_DAO_voting.sol\":10310:10931  {... */\n      pop\n        /* \"bootcamp/week10/day_2_creating_a_DAO_voting.sol\":10250:10931  function _submitVote(uint256 propID, bool votedFor) private {... */\n      pop\n      pop\n      jump\t// out\n        /* \"bootcamp/week10/day_2_creating_a_DAO_voting.sol\":6131:7508  function _tallyVotes(uint256 propID) private view returns(ProposalState) {... */\n    tag_113:\n        /* \"bootcamp/week10/day_2_creating_a_DAO_voting.sol\":6189:6202  ProposalState */\n      0x00\n        /* \"bootcamp/week10/day_2_creating_a_DAO_voting.sol\":6442:6471  ProposalData storage proposal */\n      dup1\n        /* \"bootcamp/week10/day_2_creating_a_DAO_voting.sol\":6474:6483  proposals */\n      0x00\n        /* \"bootcamp/week10/day_2_creating_a_DAO_voting.sol\":6484:6490  propID */\n      dup4\n        /* \"bootcamp/week10/day_2_creating_a_DAO_voting.sol\":6474:6491  proposals[propID] */\n      dup2\n      sload\n      dup2\n      lt\n      tag_160\n      jumpi\n      tag_161\n      tag_47\n      jump\t// in\n    tag_161:\n    tag_160:\n      swap1\n      0x00\n      mstore\n      keccak256(0x00, 0x20)\n      swap1\n      0x07\n      mul\n      add\n        /* \"bootcamp/week10/day_2_creating_a_DAO_voting.sol\":6442:6491  ProposalData storage proposal = proposals[propID] */\n      swap1\n      pop\n        /* \"bootcamp/week10/day_2_creating_a_DAO_voting.sol\":6608:6624  uint256 votesFor */\n      0x00\n        /* \"bootcamp/week10/day_2_creating_a_DAO_voting.sol\":6627:6635  proposal */\n      dup2\n        /* \"bootcamp/week10/day_2_creating_a_DAO_voting.sol\":6627:6644  proposal.votesFor */\n      0x02\n      add\n      sload\n        /* \"bootcamp/week10/day_2_creating_a_DAO_voting.sol\":6608:6644  uint256 votesFor = proposal.votesFor */\n      swap1\n      pop\n        /* \"bootcamp/week10/day_2_creating_a_DAO_voting.sol\":6654:6674  uint256 votesAgainst */\n      0x00\n        /* \"bootcamp/week10/day_2_creating_a_DAO_voting.sol\":6677:6685  proposal */\n      dup3\n        /* \"bootcamp/week10/day_2_creating_a_DAO_voting.sol\":6677:6698  proposal.votesAgainst */\n      0x03\n      add\n      sload\n        /* \"bootcamp/week10/day_2_creating_a_DAO_voting.sol\":6654:6698  uint256 votesAgainst = proposal.votesAgainst */\n      swap1\n      pop\n        /* \"bootcamp/week10/day_2_creating_a_DAO_voting.sol\":6832:6850  bool quorumReached */\n      0x00\n        /* \"bootcamp/week10/day_2_creating_a_DAO_voting.sol\":6853:6891  _quorumReached(votesFor, votesAgainst) */\n      tag_163\n        /* \"bootcamp/week10/day_2_creating_a_DAO_voting.sol\":6868:6876  votesFor */\n      dup4\n        /* \"bootcamp/week10/day_2_creating_a_DAO_voting.sol\":6878:6890  votesAgainst */\n      dup4\n        /* \"bootcamp/week10/day_2_creating_a_DAO_voting.sol\":6853:6867  _quorumReached */\n      tag_164\n        /* \"bootcamp/week10/day_2_creating_a_DAO_voting.sol\":6853:6891  _quorumReached(votesFor, votesAgainst) */\n      jump\t// in\n    tag_163:\n        /* \"bootcamp/week10/day_2_creating_a_DAO_voting.sol\":6832:6891  bool quorumReached = _quorumReached(votesFor, votesAgainst) */\n      swap1\n      pop\n        /* \"bootcamp/week10/day_2_creating_a_DAO_voting.sol\":6981:6994  quorumReached */\n      dup1\n        /* \"bootcamp/week10/day_2_creating_a_DAO_voting.sol\":6977:7502  if(!quorumReached) {... */\n      tag_165\n      jumpi\n        /* \"bootcamp/week10/day_2_creating_a_DAO_voting.sol\":7125:7146  ProposalState.Expired */\n      0x06\n        /* \"bootcamp/week10/day_2_creating_a_DAO_voting.sol\":7118:7146  return ProposalState.Expired */\n      swap5\n      pop\n      pop\n      pop\n      pop\n      pop\n      jump(tag_159)\n        /* \"bootcamp/week10/day_2_creating_a_DAO_voting.sol\":6977:7502  if(!quorumReached) {... */\n    tag_165:\n        /* \"bootcamp/week10/day_2_creating_a_DAO_voting.sol\":7262:7301  _votesSucceeded(votesFor, votesAgainst) */\n      tag_167\n        /* \"bootcamp/week10/day_2_creating_a_DAO_voting.sol\":7278:7286  votesFor */\n      dup4\n        /* \"bootcamp/week10/day_2_creating_a_DAO_voting.sol\":7288:7300  votesAgainst */\n      dup4\n        /* \"bootcamp/week10/day_2_creating_a_DAO_voting.sol\":7262:7277  _votesSucceeded */\n      tag_168\n        /* \"bootcamp/week10/day_2_creating_a_DAO_voting.sol\":7262:7301  _votesSucceeded(votesFor, votesAgainst) */\n      jump\t// in\n    tag_167:\n        /* \"bootcamp/week10/day_2_creating_a_DAO_voting.sol\":7258:7502  if (_votesSucceeded(votesFor, votesAgainst)) {... */\n      iszero\n      tag_169\n      jumpi\n        /* \"bootcamp/week10/day_2_creating_a_DAO_voting.sol\":7324:7347  ProposalState.Succeeded */\n      0x05\n        /* \"bootcamp/week10/day_2_creating_a_DAO_voting.sol\":7317:7347  return ProposalState.Succeeded */\n      swap5\n      pop\n      pop\n      pop\n      pop\n      pop\n      jump(tag_159)\n        /* \"bootcamp/week10/day_2_creating_a_DAO_voting.sol\":7258:7502  if (_votesSucceeded(votesFor, votesAgainst)) {... */\n    tag_169:\n        /* \"bootcamp/week10/day_2_creating_a_DAO_voting.sol\":7469:7491  ProposalState.Defeated */\n      0x04\n        /* \"bootcamp/week10/day_2_creating_a_DAO_voting.sol\":7462:7491  return ProposalState.Defeated */\n      swap5\n      pop\n      pop\n      pop\n      pop\n      pop\n        /* \"bootcamp/week10/day_2_creating_a_DAO_voting.sol\":6131:7508  function _tallyVotes(uint256 propID) private view returns(ProposalState) {... */\n    tag_159:\n      swap2\n      swap1\n      pop\n      jump\t// out\n        /* \"bootcamp/week10/day_2_creating_a_DAO_voting.sol\":5183:5506  function _quorumReached(uint256 votesFor, uint256 votesAgainst) private view returns(bool quorumReached) {... */\n    tag_164:\n        /* \"bootcamp/week10/day_2_creating_a_DAO_voting.sol\":5268:5286  bool quorumReached */\n      0x00\n        /* \"bootcamp/week10/day_2_creating_a_DAO_voting.sol\":5492:5498  quorum */\n      sload(0x01)\n        /* \"bootcamp/week10/day_2_creating_a_DAO_voting.sol\":5476:5488  votesAgainst */\n      dup3\n        /* \"bootcamp/week10/day_2_creating_a_DAO_voting.sol\":5465:5473  votesFor */\n      dup5\n        /* \"bootcamp/week10/day_2_creating_a_DAO_voting.sol\":5465:5488  votesFor + votesAgainst */\n      tag_172\n      swap2\n      swap1\n      tag_137\n      jump\t// in\n    tag_172:\n        /* \"bootcamp/week10/day_2_creating_a_DAO_voting.sol\":5465:5498  votesFor + votesAgainst >= quorum */\n      lt\n      iszero\n        /* \"bootcamp/week10/day_2_creating_a_DAO_voting.sol\":5448:5499  quorumReached = (votesFor + votesAgainst >= quorum) */\n      swap1\n      pop\n        /* \"bootcamp/week10/day_2_creating_a_DAO_voting.sol\":5183:5506  function _quorumReached(uint256 votesFor, uint256 votesAgainst) private view returns(bool quorumReached) {... */\n      swap3\n      swap2\n      pop\n      pop\n      jump\t// out\n        /* \"bootcamp/week10/day_2_creating_a_DAO_voting.sol\":5589:6098  function _votesSucceeded(uint256 votesFor, uint256 votesAgainst) private pure returns(bool voteSucceeded) {... */\n    tag_168:\n        /* \"bootcamp/week10/day_2_creating_a_DAO_voting.sol\":5675:5693  bool voteSucceeded */\n      0x00\n        /* \"bootcamp/week10/day_2_creating_a_DAO_voting.sol\":5732:5744  votesAgainst */\n      dup2\n        /* \"bootcamp/week10/day_2_creating_a_DAO_voting.sol\":5721:5729  votesFor */\n      dup4\n        /* \"bootcamp/week10/day_2_creating_a_DAO_voting.sol\":5721:5744  votesFor > votesAgainst */\n      gt\n        /* \"bootcamp/week10/day_2_creating_a_DAO_voting.sol\":5705:5744  voteSucceeded = votesFor > votesAgainst */\n      swap1\n      pop\n        /* \"bootcamp/week10/day_2_creating_a_DAO_voting.sol\":5589:6098  function _votesSucceeded(uint256 votesFor, uint256 votesAgainst) private pure returns(bool voteSucceeded) {... */\n      swap3\n      swap2\n      pop\n      pop\n      jump\t// out\n        /* \"#utility.yul\":88:205   */\n    tag_175:\n        /* \"#utility.yul\":197:198   */\n      0x00\n        /* \"#utility.yul\":194:195   */\n      dup1\n        /* \"#utility.yul\":187:199   */\n      revert\n        /* \"#utility.yul\":334:411   */\n    tag_177:\n        /* \"#utility.yul\":371:378   */\n      0x00\n        /* \"#utility.yul\":400:405   */\n      dup2\n        /* \"#utility.yul\":389:405   */\n      swap1\n      pop\n        /* \"#utility.yul\":334:411   */\n      swap2\n      swap1\n      pop\n      jump\t// out\n        /* \"#utility.yul\":417:539   */\n    tag_178:\n        /* \"#utility.yul\":490:514   */\n      tag_211\n        /* \"#utility.yul\":508:513   */\n      dup2\n        /* \"#utility.yul\":490:514   */\n      tag_177\n      jump\t// in\n    tag_211:\n        /* \"#utility.yul\":483:488   */\n      dup2\n        /* \"#utility.yul\":480:515   */\n      eq\n        /* \"#utility.yul\":470:533   */\n      tag_212\n      jumpi\n        /* \"#utility.yul\":529:530   */\n      0x00\n        /* \"#utility.yul\":526:527   */\n      dup1\n        /* \"#utility.yul\":519:531   */\n      revert\n        /* \"#utility.yul\":470:533   */\n    tag_212:\n        /* \"#utility.yul\":417:539   */\n      pop\n      jump\t// out\n        /* \"#utility.yul\":545:684   */\n    tag_179:\n        /* \"#utility.yul\":591:596   */\n      0x00\n        /* \"#utility.yul\":629:635   */\n      dup2\n        /* \"#utility.yul\":616:636   */\n      calldataload\n        /* \"#utility.yul\":607:636   */\n      swap1\n      pop\n        /* \"#utility.yul\":645:678   */\n      tag_214\n        /* \"#utility.yul\":672:677   */\n      dup2\n        /* \"#utility.yul\":645:678   */\n      tag_178\n      jump\t// in\n    tag_214:\n        /* \"#utility.yul\":545:684   */\n      swap3\n      swap2\n      pop\n      pop\n      jump\t// out\n        /* \"#utility.yul\":690:1019   */\n    tag_14:\n        /* \"#utility.yul\":749:755   */\n      0x00\n        /* \"#utility.yul\":798:800   */\n      0x20\n        /* \"#utility.yul\":786:795   */\n      dup3\n        /* \"#utility.yul\":777:784   */\n      dup5\n        /* \"#utility.yul\":773:796   */\n      sub\n        /* \"#utility.yul\":769:801   */\n      slt\n        /* \"#utility.yul\":766:885   */\n      iszero\n      tag_216\n      jumpi\n        /* \"#utility.yul\":804:883   */\n      tag_217\n      tag_175\n      jump\t// in\n    tag_217:\n        /* \"#utility.yul\":766:885   */\n    tag_216:\n        /* \"#utility.yul\":924:925   */\n      0x00\n        /* \"#utility.yul\":949:1002   */\n      tag_218\n        /* \"#utility.yul\":994:1001   */\n      dup5\n        /* \"#utility.yul\":985:991   */\n      dup3\n        /* \"#utility.yul\":974:983   */\n      dup6\n        /* \"#utility.yul\":970:992   */\n      add\n        /* \"#utility.yul\":949:1002   */\n      tag_179\n      jump\t// in\n    tag_218:\n        /* \"#utility.yul\":939:1002   */\n      swap2\n      pop\n        /* \"#utility.yul\":895:1012   */\n      pop\n        /* \"#utility.yul\":690:1019   */\n      swap3\n      swap2\n      pop\n      pop\n      jump\t// out\n        /* \"#utility.yul\":1025:1205   */\n    tag_51:\n        /* \"#utility.yul\":1073:1150   */\n      0x4e487b7100000000000000000000000000000000000000000000000000000000\n        /* \"#utility.yul\":1070:1071   */\n      0x00\n        /* \"#utility.yul\":1063:1151   */\n      mstore\n        /* \"#utility.yul\":1170:1174   */\n      0x21\n        /* \"#utility.yul\":1167:1168   */\n      0x04\n        /* \"#utility.yul\":1160:1175   */\n      mstore\n        /* \"#utility.yul\":1194:1198   */\n      0x24\n        /* \"#utility.yul\":1191:1192   */\n      0x00\n        /* \"#utility.yul\":1184:1199   */\n      revert\n        /* \"#utility.yul\":1211:1331   */\n    tag_180:\n        /* \"#utility.yul\":1299:1300   */\n      0x07\n        /* \"#utility.yul\":1292:1297   */\n      dup2\n        /* \"#utility.yul\":1289:1301   */\n      lt\n        /* \"#utility.yul\":1279:1325   */\n      tag_221\n      jumpi\n        /* \"#utility.yul\":1305:1323   */\n      tag_222\n      tag_51\n      jump\t// in\n    tag_222:\n        /* \"#utility.yul\":1279:1325   */\n    tag_221:\n        /* \"#utility.yul\":1211:1331   */\n      pop\n      jump\t// out\n        /* \"#utility.yul\":1337:1478   */\n    tag_181:\n        /* \"#utility.yul\":1389:1396   */\n      0x00\n        /* \"#utility.yul\":1418:1423   */\n      dup2\n        /* \"#utility.yul\":1407:1423   */\n      swap1\n      pop\n        /* \"#utility.yul\":1424:1472   */\n      tag_224\n        /* \"#utility.yul\":1466:1471   */\n      dup3\n        /* \"#utility.yul\":1424:1472   */\n      tag_180\n      jump\t// in\n    tag_224:\n        /* \"#utility.yul\":1337:1478   */\n      swap2\n      swap1\n      pop\n      jump\t// out\n        /* \"#utility.yul\":1484:1625   */\n    tag_182:\n        /* \"#utility.yul\":1547:1556   */\n      0x00\n        /* \"#utility.yul\":1580:1619   */\n      tag_226\n        /* \"#utility.yul\":1613:1618   */\n      dup3\n        /* \"#utility.yul\":1580:1619   */\n      tag_181\n      jump\t// in\n    tag_226:\n        /* \"#utility.yul\":1567:1619   */\n      swap1\n      pop\n        /* \"#utility.yul\":1484:1625   */\n      swap2\n      swap1\n      pop\n      jump\t// out\n        /* \"#utility.yul\":1631:1788   */\n    tag_183:\n        /* \"#utility.yul\":1731:1781   */\n      tag_228\n        /* \"#utility.yul\":1775:1780   */\n      dup2\n        /* \"#utility.yul\":1731:1781   */\n      tag_182\n      jump\t// in\n    tag_228:\n        /* \"#utility.yul\":1726:1729   */\n      dup3\n        /* \"#utility.yul\":1719:1782   */\n      mstore\n        /* \"#utility.yul\":1631:1788   */\n      pop\n      pop\n      jump\t// out\n        /* \"#utility.yul\":1794:2042   */\n    tag_17:\n        /* \"#utility.yul\":1900:1904   */\n      0x00\n        /* \"#utility.yul\":1938:1940   */\n      0x20\n        /* \"#utility.yul\":1927:1936   */\n      dup3\n        /* \"#utility.yul\":1923:1941   */\n      add\n        /* \"#utility.yul\":1915:1941   */\n      swap1\n      pop\n        /* \"#utility.yul\":1951:2035   */\n      tag_230\n        /* \"#utility.yul\":2032:2033   */\n      0x00\n        /* \"#utility.yul\":2021:2030   */\n      dup4\n        /* \"#utility.yul\":2017:2034   */\n      add\n        /* \"#utility.yul\":2008:2014   */\n      dup5\n        /* \"#utility.yul\":1951:2035   */\n      tag_183\n      jump\t// in\n    tag_230:\n        /* \"#utility.yul\":1794:2042   */\n      swap3\n      swap2\n      pop\n      pop\n      jump\t// out\n        /* \"#utility.yul\":2048:2174   */\n    tag_184:\n        /* \"#utility.yul\":2085:2092   */\n      0x00\n        /* \"#utility.yul\":2125:2167   */\n      0xffffffffffffffffffffffffffffffffffffffff\n        /* \"#utility.yul\":2118:2123   */\n      dup3\n        /* \"#utility.yul\":2114:2168   */\n      and\n        /* \"#utility.yul\":2103:2168   */\n      swap1\n      pop\n        /* \"#utility.yul\":2048:2174   */\n      swap2\n      swap1\n      pop\n      jump\t// out\n        /* \"#utility.yul\":2180:2276   */\n    tag_185:\n        /* \"#utility.yul\":2217:2224   */\n      0x00\n        /* \"#utility.yul\":2246:2270   */\n      tag_233\n        /* \"#utility.yul\":2264:2269   */\n      dup3\n        /* \"#utility.yul\":2246:2270   */\n      tag_184\n      jump\t// in\n    tag_233:\n        /* \"#utility.yul\":2235:2270   */\n      swap1\n      pop\n        /* \"#utility.yul\":2180:2276   */\n      swap2\n      swap1\n      pop\n      jump\t// out\n        /* \"#utility.yul\":2282:2404   */\n    tag_186:\n        /* \"#utility.yul\":2355:2379   */\n      tag_235\n        /* \"#utility.yul\":2373:2378   */\n      dup2\n        /* \"#utility.yul\":2355:2379   */\n      tag_185\n      jump\t// in\n    tag_235:\n        /* \"#utility.yul\":2348:2353   */\n      dup2\n        /* \"#utility.yul\":2345:2380   */\n      eq\n        /* \"#utility.yul\":2335:2398   */\n      tag_236\n      jumpi\n        /* \"#utility.yul\":2394:2395   */\n      0x00\n        /* \"#utility.yul\":2391:2392   */\n      dup1\n        /* \"#utility.yul\":2384:2396   */\n      revert\n        /* \"#utility.yul\":2335:2398   */\n    tag_236:\n        /* \"#utility.yul\":2282:2404   */\n      pop\n      jump\t// out\n        /* \"#utility.yul\":2410:2549   */\n    tag_187:\n        /* \"#utility.yul\":2456:2461   */\n      0x00\n        /* \"#utility.yul\":2494:2500   */\n      dup2\n        /* \"#utility.yul\":2481:2501   */\n      calldataload\n        /* \"#utility.yul\":2472:2501   */\n      swap1\n      pop\n        /* \"#utility.yul\":2510:2543   */\n      tag_238\n        /* \"#utility.yul\":2537:2542   */\n      dup2\n        /* \"#utility.yul\":2510:2543   */\n      tag_186\n      jump\t// in\n    tag_238:\n        /* \"#utility.yul\":2410:2549   */\n      swap3\n      swap2\n      pop\n      pop\n      jump\t// out\n        /* \"#utility.yul\":2555:3029   */\n    tag_29:\n        /* \"#utility.yul\":2623:2629   */\n      0x00\n        /* \"#utility.yul\":2631:2637   */\n      dup1\n        /* \"#utility.yul\":2680:2682   */\n      0x40\n        /* \"#utility.yul\":2668:2677   */\n      dup4\n        /* \"#utility.yul\":2659:2666   */\n      dup6\n        /* \"#utility.yul\":2655:2678   */\n      sub\n        /* \"#utility.yul\":2651:2683   */\n      slt\n        /* \"#utility.yul\":2648:2767   */\n      iszero\n      tag_240\n      jumpi\n        /* \"#utility.yul\":2686:2765   */\n      tag_241\n      tag_175\n      jump\t// in\n    tag_241:\n        /* \"#utility.yul\":2648:2767   */\n    tag_240:\n        /* \"#utility.yul\":2806:2807   */\n      0x00\n        /* \"#utility.yul\":2831:2884   */\n      tag_242\n        /* \"#utility.yul\":2876:2883   */\n      dup6\n        /* \"#utility.yul\":2867:2873   */\n      dup3\n        /* \"#utility.yul\":2856:2865   */\n      dup7\n        /* \"#utility.yul\":2852:2874   */\n      add\n        /* \"#utility.yul\":2831:2884   */\n      tag_187\n      jump\t// in\n    tag_242:\n        /* \"#utility.yul\":2821:2884   */\n      swap3\n      pop\n        /* \"#utility.yul\":2777:2894   */\n      pop\n        /* \"#utility.yul\":2933:2935   */\n      0x20\n        /* \"#utility.yul\":2959:3012   */\n      tag_243\n        /* \"#utility.yul\":3004:3011   */\n      dup6\n        /* \"#utility.yul\":2995:3001   */\n      dup3\n        /* \"#utility.yul\":2984:2993   */\n      dup7\n        /* \"#utility.yul\":2980:3002   */\n      add\n        /* \"#utility.yul\":2959:3012   */\n      tag_179\n      jump\t// in\n    tag_243:\n        /* \"#utility.yul\":2949:3012   */\n      swap2\n      pop\n        /* \"#utility.yul\":2904:3022   */\n      pop\n        /* \"#utility.yul\":2555:3029   */\n      swap3\n      pop\n      swap3\n      swap1\n      pop\n      jump\t// out\n        /* \"#utility.yul\":3035:3125   */\n    tag_188:\n        /* \"#utility.yul\":3069:3076   */\n      0x00\n        /* \"#utility.yul\":3112:3117   */\n      dup2\n        /* \"#utility.yul\":3105:3118   */\n      iszero\n        /* \"#utility.yul\":3098:3119   */\n      iszero\n        /* \"#utility.yul\":3087:3119   */\n      swap1\n      pop\n        /* \"#utility.yul\":3035:3125   */\n      swap2\n      swap1\n      pop\n      jump\t// out\n        /* \"#utility.yul\":3131:3240   */\n    tag_189:\n        /* \"#utility.yul\":3212:3233   */\n      tag_246\n        /* \"#utility.yul\":3227:3232   */\n      dup2\n        /* \"#utility.yul\":3212:3233   */\n      tag_188\n      jump\t// in\n    tag_246:\n        /* \"#utility.yul\":3207:3210   */\n      dup3\n        /* \"#utility.yul\":3200:3234   */\n      mstore\n        /* \"#utility.yul\":3131:3240   */\n      pop\n      pop\n      jump\t// out\n        /* \"#utility.yul\":3246:3456   */\n    tag_32:\n        /* \"#utility.yul\":3333:3337   */\n      0x00\n        /* \"#utility.yul\":3371:3373   */\n      0x20\n        /* \"#utility.yul\":3360:3369   */\n      dup3\n        /* \"#utility.yul\":3356:3374   */\n      add\n        /* \"#utility.yul\":3348:3374   */\n      swap1\n      pop\n        /* \"#utility.yul\":3384:3449   */\n      tag_248\n        /* \"#utility.yul\":3446:3447   */\n      0x00\n        /* \"#utility.yul\":3435:3444   */\n      dup4\n        /* \"#utility.yul\":3431:3448   */\n      add\n        /* \"#utility.yul\":3422:3428   */\n      dup5\n        /* \"#utility.yul\":3384:3449   */\n      tag_189\n      jump\t// in\n    tag_248:\n        /* \"#utility.yul\":3246:3456   */\n      swap3\n      swap2\n      pop\n      pop\n      jump\t// out\n        /* \"#utility.yul\":3462:3791   */\n    tag_35:\n        /* \"#utility.yul\":3521:3527   */\n      0x00\n        /* \"#utility.yul\":3570:3572   */\n      0x20\n        /* \"#utility.yul\":3558:3567   */\n      dup3\n        /* \"#utility.yul\":3549:3556   */\n      dup5\n        /* \"#utility.yul\":3545:3568   */\n      sub\n        /* \"#utility.yul\":3541:3573   */\n      slt\n        /* \"#utility.yul\":3538:3657   */\n      iszero\n      tag_250\n      jumpi\n        /* \"#utility.yul\":3576:3655   */\n      tag_251\n      tag_175\n      jump\t// in\n    tag_251:\n        /* \"#utility.yul\":3538:3657   */\n    tag_250:\n        /* \"#utility.yul\":3696:3697   */\n      0x00\n        /* \"#utility.yul\":3721:3774   */\n      tag_252\n        /* \"#utility.yul\":3766:3773   */\n      dup5\n        /* \"#utility.yul\":3757:3763   */\n      dup3\n        /* \"#utility.yul\":3746:3755   */\n      dup6\n        /* \"#utility.yul\":3742:3764   */\n      add\n        /* \"#utility.yul\":3721:3774   */\n      tag_187\n      jump\t// in\n    tag_252:\n        /* \"#utility.yul\":3711:3774   */\n      swap2\n      pop\n        /* \"#utility.yul\":3667:3784   */\n      pop\n        /* \"#utility.yul\":3462:3791   */\n      swap3\n      swap2\n      pop\n      pop\n      jump\t// out\n        /* \"#utility.yul\":3797:3915   */\n    tag_190:\n        /* \"#utility.yul\":3884:3908   */\n      tag_254\n        /* \"#utility.yul\":3902:3907   */\n      dup2\n        /* \"#utility.yul\":3884:3908   */\n      tag_177\n      jump\t// in\n    tag_254:\n        /* \"#utility.yul\":3879:3882   */\n      dup3\n        /* \"#utility.yul\":3872:3909   */\n      mstore\n        /* \"#utility.yul\":3797:3915   */\n      pop\n      pop\n      jump\t// out\n        /* \"#utility.yul\":3921:4143   */\n    tag_40:\n        /* \"#utility.yul\":4014:4018   */\n      0x00\n        /* \"#utility.yul\":4052:4054   */\n      0x20\n        /* \"#utility.yul\":4041:4050   */\n      dup3\n        /* \"#utility.yul\":4037:4055   */\n      add\n        /* \"#utility.yul\":4029:4055   */\n      swap1\n      pop\n        /* \"#utility.yul\":4065:4136   */\n      tag_256\n        /* \"#utility.yul\":4133:4134   */\n      0x00\n        /* \"#utility.yul\":4122:4131   */\n      dup4\n        /* \"#utility.yul\":4118:4135   */\n      add\n        /* \"#utility.yul\":4109:4115   */\n      dup5\n        /* \"#utility.yul\":4065:4136   */\n      tag_190\n      jump\t// in\n    tag_256:\n        /* \"#utility.yul\":3921:4143   */\n      swap3\n      swap2\n      pop\n      pop\n      jump\t// out\n        /* \"#utility.yul\":4149:4329   */\n    tag_47:\n        /* \"#utility.yul\":4197:4274   */\n      0x4e487b7100000000000000000000000000000000000000000000000000000000\n        /* \"#utility.yul\":4194:4195   */\n      0x00\n        /* \"#utility.yul\":4187:4275   */\n      mstore\n        /* \"#utility.yul\":4294:4298   */\n      0x32\n        /* \"#utility.yul\":4291:4292   */\n      0x04\n        /* \"#utility.yul\":4284:4299   */\n      mstore\n        /* \"#utility.yul\":4318:4322   */\n      0x24\n        /* \"#utility.yul\":4315:4316   */\n      0x00\n        /* \"#utility.yul\":4308:4323   */\n      revert\n        /* \"#utility.yul\":4335:4504   */\n    tag_191:\n        /* \"#utility.yul\":4419:4430   */\n      0x00\n        /* \"#utility.yul\":4453:4459   */\n      dup3\n        /* \"#utility.yul\":4448:4451   */\n      dup3\n        /* \"#utility.yul\":4441:4460   */\n      mstore\n        /* \"#utility.yul\":4493:4497   */\n      0x20\n        /* \"#utility.yul\":4488:4491   */\n      dup3\n        /* \"#utility.yul\":4484:4498   */\n      add\n        /* \"#utility.yul\":4469:4498   */\n      swap1\n      pop\n        /* \"#utility.yul\":4335:4504   */\n      swap3\n      swap2\n      pop\n      pop\n      jump\t// out\n        /* \"#utility.yul\":4510:4670   */\n    tag_192:\n        /* \"#utility.yul\":4650:4662   */\n      0x496e76616c696420494400000000000000000000000000000000000000000000\n        /* \"#utility.yul\":4646:4647   */\n      0x00\n        /* \"#utility.yul\":4638:4644   */\n      dup3\n        /* \"#utility.yul\":4634:4648   */\n      add\n        /* \"#utility.yul\":4627:4663   */\n      mstore\n        /* \"#utility.yul\":4510:4670   */\n      pop\n      jump\t// out\n        /* \"#utility.yul\":4676:5042   */\n    tag_193:\n        /* \"#utility.yul\":4818:4821   */\n      0x00\n        /* \"#utility.yul\":4839:4906   */\n      tag_261\n        /* \"#utility.yul\":4903:4905   */\n      0x0a\n        /* \"#utility.yul\":4898:4901   */\n      dup4\n        /* \"#utility.yul\":4839:4906   */\n      tag_191\n      jump\t// in\n    tag_261:\n        /* \"#utility.yul\":4832:4906   */\n      swap2\n      pop\n        /* \"#utility.yul\":4915:5008   */\n      tag_262\n        /* \"#utility.yul\":5004:5007   */\n      dup3\n        /* \"#utility.yul\":4915:5008   */\n      tag_192\n      jump\t// in\n    tag_262:\n        /* \"#utility.yul\":5033:5035   */\n      0x20\n        /* \"#utility.yul\":5028:5031   */\n      dup3\n        /* \"#utility.yul\":5024:5036   */\n      add\n        /* \"#utility.yul\":5017:5036   */\n      swap1\n      pop\n        /* \"#utility.yul\":4676:5042   */\n      swap2\n      swap1\n      pop\n      jump\t// out\n        /* \"#utility.yul\":5048:5467   */\n    tag_57:\n        /* \"#utility.yul\":5214:5218   */\n      0x00\n        /* \"#utility.yul\":5252:5254   */\n      0x20\n        /* \"#utility.yul\":5241:5250   */\n      dup3\n        /* \"#utility.yul\":5237:5255   */\n      add\n        /* \"#utility.yul\":5229:5255   */\n      swap1\n      pop\n        /* \"#utility.yul\":5301:5310   */\n      dup2\n        /* \"#utility.yul\":5295:5299   */\n      dup2\n        /* \"#utility.yul\":5291:5311   */\n      sub\n        /* \"#utility.yul\":5287:5288   */\n      0x00\n        /* \"#utility.yul\":5276:5285   */\n      dup4\n        /* \"#utility.yul\":5272:5289   */\n      add\n        /* \"#utility.yul\":5265:5312   */\n      mstore\n        /* \"#utility.yul\":5329:5460   */\n      tag_264\n        /* \"#utility.yul\":5455:5459   */\n      dup2\n        /* \"#utility.yul\":5329:5460   */\n      tag_193\n      jump\t// in\n    tag_264:\n        /* \"#utility.yul\":5321:5460   */\n      swap1\n      pop\n        /* \"#utility.yul\":5048:5467   */\n      swap2\n      swap1\n      pop\n      jump\t// out\n        /* \"#utility.yul\":5473:5637   */\n    tag_194:\n        /* \"#utility.yul\":5613:5629   */\n      0x496e76616c696420616d6f756e74000000000000000000000000000000000000\n        /* \"#utility.yul\":5609:5610   */\n      0x00\n        /* \"#utility.yul\":5601:5607   */\n      dup3\n        /* \"#utility.yul\":5597:5611   */\n      add\n        /* \"#utility.yul\":5590:5630   */\n      mstore\n        /* \"#utility.yul\":5473:5637   */\n      pop\n      jump\t// out\n        /* \"#utility.yul\":5643:6009   */\n    tag_195:\n        /* \"#utility.yul\":5785:5788   */\n      0x00\n        /* \"#utility.yul\":5806:5873   */\n      tag_267\n        /* \"#utility.yul\":5870:5872   */\n      0x0e\n        /* \"#utility.yul\":5865:5868   */\n      dup4\n        /* \"#utility.yul\":5806:5873   */\n      tag_191\n      jump\t// in\n    tag_267:\n        /* \"#utility.yul\":5799:5873   */\n      swap2\n      pop\n        /* \"#utility.yul\":5882:5975   */\n      tag_268\n        /* \"#utility.yul\":5971:5974   */\n      dup3\n        /* \"#utility.yul\":5882:5975   */\n      tag_194\n      jump\t// in\n    tag_268:\n        /* \"#utility.yul\":6000:6002   */\n      0x20\n        /* \"#utility.yul\":5995:5998   */\n      dup3\n        /* \"#utility.yul\":5991:6003   */\n      add\n        /* \"#utility.yul\":5984:6003   */\n      swap1\n      pop\n        /* \"#utility.yul\":5643:6009   */\n      swap2\n      swap1\n      pop\n      jump\t// out\n        /* \"#utility.yul\":6015:6434   */\n    tag_63:\n        /* \"#utility.yul\":6181:6185   */\n      0x00\n        /* \"#utility.yul\":6219:6221   */\n      0x20\n        /* \"#utility.yul\":6208:6217   */\n      dup3\n        /* \"#utility.yul\":6204:6222   */\n      add\n        /* \"#utility.yul\":6196:6222   */\n      swap1\n      pop\n        /* \"#utility.yul\":6268:6277   */\n      dup2\n        /* \"#utility.yul\":6262:6266   */\n      dup2\n        /* \"#utility.yul\":6258:6278   */\n      sub\n        /* \"#utility.yul\":6254:6255   */\n      0x00\n        /* \"#utility.yul\":6243:6252   */\n      dup4\n        /* \"#utility.yul\":6239:6256   */\n      add\n        /* \"#utility.yul\":6232:6279   */\n      mstore\n        /* \"#utility.yul\":6296:6427   */\n      tag_270\n        /* \"#utility.yul\":6422:6426   */\n      dup2\n        /* \"#utility.yul\":6296:6427   */\n      tag_195\n      jump\t// in\n    tag_270:\n        /* \"#utility.yul\":6288:6427   */\n      swap1\n      pop\n        /* \"#utility.yul\":6015:6434   */\n      swap2\n      swap1\n      pop\n      jump\t// out\n        /* \"#utility.yul\":6440:6607   */\n    tag_196:\n        /* \"#utility.yul\":6580:6599   */\n      0x50726f706f73616c20496e616374697665000000000000000000000000000000\n        /* \"#utility.yul\":6576:6577   */\n      0x00\n        /* \"#utility.yul\":6568:6574   */\n      dup3\n        /* \"#utility.yul\":6564:6578   */\n      add\n        /* \"#utility.yul\":6557:6600   */\n      mstore\n        /* \"#utility.yul\":6440:6607   */\n      pop\n      jump\t// out\n        /* \"#utility.yul\":6613:6979   */\n    tag_197:\n        /* \"#utility.yul\":6755:6758   */\n      0x00\n        /* \"#utility.yul\":6776:6843   */\n      tag_273\n        /* \"#utility.yul\":6840:6842   */\n      0x11\n        /* \"#utility.yul\":6835:6838   */\n      dup4\n        /* \"#utility.yul\":6776:6843   */\n      tag_191\n      jump\t// in\n    tag_273:\n        /* \"#utility.yul\":6769:6843   */\n      swap2\n      pop\n        /* \"#utility.yul\":6852:6945   */\n      tag_274\n        /* \"#utility.yul\":6941:6944   */\n      dup3\n        /* \"#utility.yul\":6852:6945   */\n      tag_196\n      jump\t// in\n    tag_274:\n        /* \"#utility.yul\":6970:6972   */\n      0x20\n        /* \"#utility.yul\":6965:6968   */\n      dup3\n        /* \"#utility.yul\":6961:6973   */\n      add\n        /* \"#utility.yul\":6954:6973   */\n      swap1\n      pop\n        /* \"#utility.yul\":6613:6979   */\n      swap2\n      swap1\n      pop\n      jump\t// out\n        /* \"#utility.yul\":6985:7404   */\n    tag_74:\n        /* \"#utility.yul\":7151:7155   */\n      0x00\n        /* \"#utility.yul\":7189:7191   */\n      0x20\n        /* \"#utility.yul\":7178:7187   */\n      dup3\n        /* \"#utility.yul\":7174:7192   */\n      add\n        /* \"#utility.yul\":7166:7192   */\n      swap1\n      pop\n        /* \"#utility.yul\":7238:7247   */\n      dup2\n        /* \"#utility.yul\":7232:7236   */\n      dup2\n        /* \"#utility.yul\":7228:7248   */\n      sub\n        /* \"#utility.yul\":7224:7225   */\n      0x00\n        /* \"#utility.yul\":7213:7222   */\n      dup4\n        /* \"#utility.yul\":7209:7226   */\n      add\n        /* \"#utility.yul\":7202:7249   */\n      mstore\n        /* \"#utility.yul\":7266:7397   */\n      tag_276\n        /* \"#utility.yul\":7392:7396   */\n      dup2\n        /* \"#utility.yul\":7266:7397   */\n      tag_197\n      jump\t// in\n    tag_276:\n        /* \"#utility.yul\":7258:7397   */\n      swap1\n      pop\n        /* \"#utility.yul\":6985:7404   */\n      swap2\n      swap1\n      pop\n      jump\t// out\n        /* \"#utility.yul\":7410:7580   */\n    tag_198:\n        /* \"#utility.yul\":7550:7572   */\n      0x4d656d62657220616c726561647920766f746564000000000000000000000000\n        /* \"#utility.yul\":7546:7547   */\n      0x00\n        /* \"#utility.yul\":7538:7544   */\n      dup3\n        /* \"#utility.yul\":7534:7548   */\n      add\n        /* \"#utility.yul\":7527:7573   */\n      mstore\n        /* \"#utility.yul\":7410:7580   */\n      pop\n      jump\t// out\n        /* \"#utility.yul\":7586:7952   */\n    tag_199:\n        /* \"#utility.yul\":7728:7731   */\n      0x00\n        /* \"#utility.yul\":7749:7816   */\n      tag_279\n        /* \"#utility.yul\":7813:7815   */\n      0x14\n        /* \"#utility.yul\":7808:7811   */\n      dup4\n        /* \"#utility.yul\":7749:7816   */\n      tag_191\n      jump\t// in\n    tag_279:\n        /* \"#utility.yul\":7742:7816   */\n      swap2\n      pop\n        /* \"#utility.yul\":7825:7918   */\n      tag_280\n        /* \"#utility.yul\":7914:7917   */\n      dup3\n        /* \"#utility.yul\":7825:7918   */\n      tag_198\n      jump\t// in\n    tag_280:\n        /* \"#utility.yul\":7943:7945   */\n      0x20\n        /* \"#utility.yul\":7938:7941   */\n      dup3\n        /* \"#utility.yul\":7934:7946   */\n      add\n        /* \"#utility.yul\":7927:7946   */\n      swap1\n      pop\n        /* \"#utility.yul\":7586:7952   */\n      swap2\n      swap1\n      pop\n      jump\t// out\n        /* \"#utility.yul\":7958:8377   */\n    tag_77:\n        /* \"#utility.yul\":8124:8128   */\n      0x00\n        /* \"#utility.yul\":8162:8164   */\n      0x20\n        /* \"#utility.yul\":8151:8160   */\n      dup3\n        /* \"#utility.yul\":8147:8165   */\n      add\n        /* \"#utility.yul\":8139:8165   */\n      swap1\n      pop\n        /* \"#utility.yul\":8211:8220   */\n      dup2\n        /* \"#utility.yul\":8205:8209   */\n      dup2\n        /* \"#utility.yul\":8201:8221   */\n      sub\n        /* \"#utility.yul\":8197:8198   */\n      0x00\n        /* \"#utility.yul\":8186:8195   */\n      dup4\n        /* \"#utility.yul\":8182:8199   */\n      add\n        /* \"#utility.yul\":8175:8222   */\n      mstore\n        /* \"#utility.yul\":8239:8370   */\n      tag_282\n        /* \"#utility.yul\":8365:8369   */\n      dup2\n        /* \"#utility.yul\":8239:8370   */\n      tag_199\n      jump\t// in\n    tag_282:\n        /* \"#utility.yul\":8231:8370   */\n      swap1\n      pop\n        /* \"#utility.yul\":7958:8377   */\n      swap2\n      swap1\n      pop\n      jump\t// out\n        /* \"#utility.yul\":8383:8548   */\n    tag_200:\n        /* \"#utility.yul\":8523:8540   */\n      0x496e737566696369656e74204554480000000000000000000000000000000000\n        /* \"#utility.yul\":8519:8520   */\n      0x00\n        /* \"#utility.yul\":8511:8517   */\n      dup3\n        /* \"#utility.yul\":8507:8521   */\n      add\n        /* \"#utility.yul\":8500:8541   */\n      mstore\n        /* \"#utility.yul\":8383:8548   */\n      pop\n      jump\t// out\n        /* \"#utility.yul\":8554:8920   */\n    tag_201:\n        /* \"#utility.yul\":8696:8699   */\n      0x00\n        /* \"#utility.yul\":8717:8784   */\n      tag_285\n        /* \"#utility.yul\":8781:8783   */\n      0x0f\n        /* \"#utility.yul\":8776:8779   */\n      dup4\n        /* \"#utility.yul\":8717:8784   */\n      tag_191\n      jump\t// in\n    tag_285:\n        /* \"#utility.yul\":8710:8784   */\n      swap2\n      pop\n        /* \"#utility.yul\":8793:8886   */\n      tag_286\n        /* \"#utility.yul\":8882:8885   */\n      dup3\n        /* \"#utility.yul\":8793:8886   */\n      tag_200\n      jump\t// in\n    tag_286:\n        /* \"#utility.yul\":8911:8913   */\n      0x20\n        /* \"#utility.yul\":8906:8909   */\n      dup3\n        /* \"#utility.yul\":8902:8914   */\n      add\n        /* \"#utility.yul\":8895:8914   */\n      swap1\n      pop\n        /* \"#utility.yul\":8554:8920   */\n      swap2\n      swap1\n      pop\n      jump\t// out\n        /* \"#utility.yul\":8926:9345   */\n    tag_96:\n        /* \"#utility.yul\":9092:9096   */\n      0x00\n        /* \"#utility.yul\":9130:9132   */\n      0x20\n        /* \"#utility.yul\":9119:9128   */\n      dup3\n        /* \"#utility.yul\":9115:9133   */\n      add\n        /* \"#utility.yul\":9107:9133   */\n      swap1\n      pop\n        /* \"#utility.yul\":9179:9188   */\n      dup2\n        /* \"#utility.yul\":9173:9177   */\n      dup2\n        /* \"#utility.yul\":9169:9189   */\n      sub\n        /* \"#utility.yul\":9165:9166   */\n      0x00\n        /* \"#utility.yul\":9154:9163   */\n      dup4\n        /* \"#utility.yul\":9150:9167   */\n      add\n        /* \"#utility.yul\":9143:9190   */\n      mstore\n        /* \"#utility.yul\":9207:9338   */\n      tag_288\n        /* \"#utility.yul\":9333:9337   */\n      dup2\n        /* \"#utility.yul\":9207:9338   */\n      tag_201\n      jump\t// in\n    tag_288:\n        /* \"#utility.yul\":9199:9338   */\n      swap1\n      pop\n        /* \"#utility.yul\":8926:9345   */\n      swap2\n      swap1\n      pop\n      jump\t// out\n        /* \"#utility.yul\":9351:9531   */\n    tag_202:\n        /* \"#utility.yul\":9399:9476   */\n      0x4e487b7100000000000000000000000000000000000000000000000000000000\n        /* \"#utility.yul\":9396:9397   */\n      0x00\n        /* \"#utility.yul\":9389:9477   */\n      mstore\n        /* \"#utility.yul\":9496:9500   */\n      0x11\n        /* \"#utility.yul\":9493:9494   */\n      0x04\n        /* \"#utility.yul\":9486:9501   */\n      mstore\n        /* \"#utility.yul\":9520:9524   */\n      0x24\n        /* \"#utility.yul\":9517:9518   */\n      0x00\n        /* \"#utility.yul\":9510:9525   */\n      revert\n        /* \"#utility.yul\":9537:9731   */\n    tag_98:\n        /* \"#utility.yul\":9577:9581   */\n      0x00\n        /* \"#utility.yul\":9597:9617   */\n      tag_291\n        /* \"#utility.yul\":9615:9616   */\n      dup3\n        /* \"#utility.yul\":9597:9617   */\n      tag_177\n      jump\t// in\n    tag_291:\n        /* \"#utility.yul\":9592:9617   */\n      swap2\n      pop\n        /* \"#utility.yul\":9631:9651   */\n      tag_292\n        /* \"#utility.yul\":9649:9650   */\n      dup4\n        /* \"#utility.yul\":9631:9651   */\n      tag_177\n      jump\t// in\n    tag_292:\n        /* \"#utility.yul\":9626:9651   */\n      swap3\n      pop\n        /* \"#utility.yul\":9675:9676   */\n      dup3\n        /* \"#utility.yul\":9672:9673   */\n      dup3\n        /* \"#utility.yul\":9668:9677   */\n      sub\n        /* \"#utility.yul\":9660:9677   */\n      swap1\n      pop\n        /* \"#utility.yul\":9699:9700   */\n      dup2\n        /* \"#utility.yul\":9693:9697   */\n      dup2\n        /* \"#utility.yul\":9690:9701   */\n      gt\n        /* \"#utility.yul\":9687:9724   */\n      iszero\n      tag_293\n      jumpi\n        /* \"#utility.yul\":9704:9722   */\n      tag_294\n      tag_202\n      jump\t// in\n    tag_294:\n        /* \"#utility.yul\":9687:9724   */\n    tag_293:\n        /* \"#utility.yul\":9537:9731   */\n      swap3\n      swap2\n      pop\n      pop\n      jump\t// out\n        /* \"#utility.yul\":9737:9957   */\n    tag_203:\n        /* \"#utility.yul\":9877:9911   */\n      0x50726f706f73616c206e6f742071756575656420666f7220657865637574696f\n        /* \"#utility.yul\":9873:9874   */\n      0x00\n        /* \"#utility.yul\":9865:9871   */\n      dup3\n        /* \"#utility.yul\":9861:9875   */\n      add\n        /* \"#utility.yul\":9854:9912   */\n      mstore\n        /* \"#utility.yul\":9946:9949   */\n      0x6e00000000000000000000000000000000000000000000000000000000000000\n        /* \"#utility.yul\":9941:9943   */\n      0x20\n        /* \"#utility.yul\":9933:9939   */\n      dup3\n        /* \"#utility.yul\":9929:9944   */\n      add\n        /* \"#utility.yul\":9922:9950   */\n      mstore\n        /* \"#utility.yul\":9737:9957   */\n      pop\n      jump\t// out\n        /* \"#utility.yul\":9963:10329   */\n    tag_204:\n        /* \"#utility.yul\":10105:10108   */\n      0x00\n        /* \"#utility.yul\":10126:10193   */\n      tag_297\n        /* \"#utility.yul\":10190:10192   */\n      0x21\n        /* \"#utility.yul\":10185:10188   */\n      dup4\n        /* \"#utility.yul\":10126:10193   */\n      tag_191\n      jump\t// in\n    tag_297:\n        /* \"#utility.yul\":10119:10193   */\n      swap2\n      pop\n        /* \"#utility.yul\":10202:10295   */\n      tag_298\n        /* \"#utility.yul\":10291:10294   */\n      dup3\n        /* \"#utility.yul\":10202:10295   */\n      tag_203\n      jump\t// in\n    tag_298:\n        /* \"#utility.yul\":10320:10322   */\n      0x40\n        /* \"#utility.yul\":10315:10318   */\n      dup3\n        /* \"#utility.yul\":10311:10323   */\n      add\n        /* \"#utility.yul\":10304:10323   */\n      swap1\n      pop\n        /* \"#utility.yul\":9963:10329   */\n      swap2\n      swap1\n      pop\n      jump\t// out\n        /* \"#utility.yul\":10335:10754   */\n    tag_111:\n        /* \"#utility.yul\":10501:10505   */\n      0x00\n        /* \"#utility.yul\":10539:10541   */\n      0x20\n        /* \"#utility.yul\":10528:10537   */\n      dup3\n        /* \"#utility.yul\":10524:10542   */\n      add\n        /* \"#utility.yul\":10516:10542   */\n      swap1\n      pop\n        /* \"#utility.yul\":10588:10597   */\n      dup2\n        /* \"#utility.yul\":10582:10586   */\n      dup2\n        /* \"#utility.yul\":10578:10598   */\n      sub\n        /* \"#utility.yul\":10574:10575   */\n      0x00\n        /* \"#utility.yul\":10563:10572   */\n      dup4\n        /* \"#utility.yul\":10559:10576   */\n      add\n        /* \"#utility.yul\":10552:10599   */\n      mstore\n        /* \"#utility.yul\":10616:10747   */\n      tag_300\n        /* \"#utility.yul\":10742:10746   */\n      dup2\n        /* \"#utility.yul\":10616:10747   */\n      tag_204\n      jump\t// in\n    tag_300:\n        /* \"#utility.yul\":10608:10747   */\n      swap1\n      pop\n        /* \"#utility.yul\":10335:10754   */\n      swap2\n      swap1\n      pop\n      jump\t// out\n        /* \"#utility.yul\":10760:10951   */\n    tag_137:\n        /* \"#utility.yul\":10800:10803   */\n      0x00\n        /* \"#utility.yul\":10819:10839   */\n      tag_302\n        /* \"#utility.yul\":10837:10838   */\n      dup3\n        /* \"#utility.yul\":10819:10839   */\n      tag_177\n      jump\t// in\n    tag_302:\n        /* \"#utility.yul\":10814:10839   */\n      swap2\n      pop\n        /* \"#utility.yul\":10853:10873   */\n      tag_303\n        /* \"#utility.yul\":10871:10872   */\n      dup4\n        /* \"#utility.yul\":10853:10873   */\n      tag_177\n      jump\t// in\n    tag_303:\n        /* \"#utility.yul\":10848:10873   */\n      swap3\n      pop\n        /* \"#utility.yul\":10896:10897   */\n      dup3\n        /* \"#utility.yul\":10893:10894   */\n      dup3\n        /* \"#utility.yul\":10889:10898   */\n      add\n        /* \"#utility.yul\":10882:10898   */\n      swap1\n      pop\n        /* \"#utility.yul\":10917:10920   */\n      dup1\n        /* \"#utility.yul\":10914:10915   */\n      dup3\n        /* \"#utility.yul\":10911:10921   */\n      gt\n        /* \"#utility.yul\":10908:10944   */\n      iszero\n      tag_304\n      jumpi\n        /* \"#utility.yul\":10924:10942   */\n      tag_305\n      tag_202\n      jump\t// in\n    tag_305:\n        /* \"#utility.yul\":10908:10944   */\n    tag_304:\n        /* \"#utility.yul\":10760:10951   */\n      swap3\n      swap2\n      pop\n      pop\n      jump\t// out\n        /* \"#utility.yul\":10957:11190   */\n    tag_156:\n        /* \"#utility.yul\":10996:10999   */\n      0x00\n        /* \"#utility.yul\":11019:11043   */\n      tag_307\n        /* \"#utility.yul\":11037:11042   */\n      dup3\n        /* \"#utility.yul\":11019:11043   */\n      tag_177\n      jump\t// in\n    tag_307:\n        /* \"#utility.yul\":11010:11043   */\n      swap2\n      pop\n        /* \"#utility.yul\":11065:11131   */\n      0xffffffffffffffffffffffffffffffffffffffffffffffffffffffffffffffff\n        /* \"#utility.yul\":11058:11063   */\n      dup3\n        /* \"#utility.yul\":11055:11132   */\n      sub\n        /* \"#utility.yul\":11052:11155   */\n      tag_308\n      jumpi\n        /* \"#utility.yul\":11135:11153   */\n      tag_309\n      tag_202\n      jump\t// in\n    tag_309:\n        /* \"#utility.yul\":11052:11155   */\n    tag_308:\n        /* \"#utility.yul\":11182:11183   */\n      0x01\n        /* \"#utility.yul\":11175:11180   */\n      dup3\n        /* \"#utility.yul\":11171:11184   */\n      add\n        /* \"#utility.yul\":11164:11184   */\n      swap1\n      pop\n        /* \"#utility.yul\":10957:11190   */\n      swap2\n      swap1\n      pop\n      jump\t// out\n\n    auxdata: 0xa26469706673582212207103978d89109cea7ab9e0089980d6819da40bb1447635bb2284eff2d450d0b264736f6c63430008110033\n}\n",
				"bytecode": {
					"linkReferences": {},
					"object": "60806040526005600155601e600355603c600455670de0b6b3a7640000600555346006819055506110c4806100356000396000f3fe608060405234801561001057600080fd5b50600436106100885760003560e01c8063a220e64a1161005b578063a220e64a14610111578063cf34fa2a14610141578063fb6ff1611461015d578063fe0d94c11461017b57610088565b80633e4f49e61461008d5780637325d4cc146100bd578063750e443a146100d957806386a50535146100f5575b600080fd5b6100a760048036038101906100a29190610ad7565b610197565b6040516100b49190610b7b565b60405180910390f35b6100d760048036038101906100d29190610ad7565b610294565b005b6100f360048036038101906100ee9190610ad7565b6102e8565b005b61010f600480360381019061010a9190610ad7565b61040b565b005b61012b60048036038101906101269190610bf4565b61052e565b6040516101389190610c4f565b60405180910390f35b61015b60048036038101906101569190610c6a565b61055d565b005b6101656105d4565b6040516101729190610ca6565b60405180910390f35b61019560048036038101906101909190610ad7565b6105da565b005b600080600083815481106101ae576101ad610cc1565b5b9060005260206000209060070201905060008160040160009054906101000a900460ff169050600060068111156101e8576101e7610b04565b5b8160068111156101fb576101fa610b04565b5b1461020a57809250505061028f565b60008260000154905060008103610256576040517f08c379a000000000000000000000000000000000000000000000000000000000815260040161024d90610d4d565b60405180910390fd5b428110610269576001935050505061028f565b60008360010154905042811061028657600294505050505061028f565b60039450505050505b919050565b600081116102d7576040517f08c379a00000000000000000000000000000000000000000000000000000000081526004016102ce90610db9565b60405180910390fd5b6102e560008060008461076c565b50565b80600260068111156102fd576102fc610b04565b5b61030682610197565b600681111561031857610317610b04565b5b14610358576040517f08c379a000000000000000000000000000000000000000000000000000000000815260040161034f90610e25565b60405180910390fd5b60001515600260003373ffffffffffffffffffffffffffffffffffffffff1673ffffffffffffffffffffffffffffffffffffffff168152602001908152602001600020600083815260200190815260200160002060009054906101000a900460ff161515146103fc576040517f08c379a00000000000000000000000000000000000000000000000000000000081526004016103f390610e91565b60405180910390fd5b610407826000610926565b5050565b80600260068111156104205761041f610b04565b5b61042982610197565b600681111561043b5761043a610b04565b5b1461047b576040517f08c379a000000000000000000000000000000000000000000000000000000000815260040161047290610e25565b60405180910390fd5b60001515600260003373ffffffffffffffffffffffffffffffffffffffff1673ffffffffffffffffffffffffffffffffffffffff168152602001908152602001600020600083815260200190815260200160002060009054906101000a900460ff1615151461051f576040517f08c379a000000000000000000000000000000000000000000000000000000000815260040161051690610e91565b60405180910390fd5b61052a826001610926565b5050565b60026020528160005260406000206020528060005260406000206000915091509054906101000a900460ff1681565b600060055490508060065410156105a9576040517f08c379a00000000000000000000000000000000000000000000000000000000081526004016105a090610efd565b60405180910390fd5b80600660008282546105bb9190610f4c565b925050819055506105d060008383600061076c565b5050565b60065481565b60008082815481106105ef576105ee610cc1565b5b90600052602060002090600702019050600061060a83610197565b9050600360068111156106205761061f610b04565b5b81600681111561063357610632610b04565b5b14610673576040517f08c379a000000000000000000000000000000000000000000000000000000000815260040161066a90610ff2565b60405180910390fd5b61067c836109f1565b905060008260040160019054906101000a900460ff169050600560068111156106a8576106a7610b04565b5b8260068111156106bb576106ba610b04565b5b0361071b57600060018111156106d4576106d3610b04565b5b8160018111156106e7576106e6610b04565b5b031561071657600180811115610700576106ff610b04565b5b81600181111561071357610712610b04565b5b50505b610766565b6000600181111561072f5761072e610b04565b5b81600181111561074257610741610b04565b5b036107655782600501546006600082825461075d9190611012565b925050819055505b5b50505050565b60006003544261077c9190611012565b90506000604051806101200160405280838152602001600454846107a09190611012565b81526020016000815260200160008152602001600060068111156107c7576107c6610b04565b5b81526020018760018111156107df576107de610b04565b5b81526020018673ffffffffffffffffffffffffffffffffffffffff16815260200185815260200184815250905060008190806001815401808255809150506001900390600052602060002090600702016000909190919091506000820151816000015560208201518160010155604082015181600201556060820151816003015560808201518160040160006101000a81548160ff0219169083600681111561088b5761088a610b04565b5b021790555060a08201518160040160016101000a81548160ff021916908360018111156108bb576108ba610b04565b5b021790555060c08201518160040160026101000a81548173ffffffffffffffffffffffffffffffffffffffff021916908373ffffffffffffffffffffffffffffffffffffffff16021790555060e0820151816005015561010082015181600601555050505050505050565b600080838154811061093b5761093a610cc1565b5b9060005260206000209060070201905081156109705780600201600081548092919061096690611046565b919050555061098b565b80600301600081548092919061098590611046565b91905055505b60011515600260003373ffffffffffffffffffffffffffffffffffffffff1673ffffffffffffffffffffffffffffffffffffffff168152602001908152602001600020600085815260200190815260200160002060009054906101000a90505050505050565b60008060008381548110610a0857610a07610cc1565b5b906000526020600020906007020190506000816002015490506000826003015490506000610a368383610a74565b905080610a4a576006945050505050610a6f565b610a548383610a8f565b15610a66576005945050505050610a6f565b60049450505050505b919050565b60006001548284610a859190611012565b1015905092915050565b6000818311905092915050565b600080fd5b6000819050919050565b610ab481610aa1565b8114610abf57600080fd5b50565b600081359050610ad181610aab565b92915050565b600060208284031215610aed57610aec610a9c565b5b6000610afb84828501610ac2565b91505092915050565b7f4e487b7100000000000000000000000000000000000000000000000000000000600052602160045260246000fd5b60078110610b4457610b43610b04565b5b50565b6000819050610b5582610b33565b919050565b6000610b6582610b47565b9050919050565b610b7581610b5a565b82525050565b6000602082019050610b906000830184610b6c565b92915050565b600073ffffffffffffffffffffffffffffffffffffffff82169050919050565b6000610bc182610b96565b9050919050565b610bd181610bb6565b8114610bdc57600080fd5b50565b600081359050610bee81610bc8565b92915050565b60008060408385031215610c0b57610c0a610a9c565b5b6000610c1985828601610bdf565b9250506020610c2a85828601610ac2565b9150509250929050565b60008115159050919050565b610c4981610c34565b82525050565b6000602082019050610c646000830184610c40565b92915050565b600060208284031215610c8057610c7f610a9c565b5b6000610c8e84828501610bdf565b91505092915050565b610ca081610aa1565b82525050565b6000602082019050610cbb6000830184610c97565b92915050565b7f4e487b7100000000000000000000000000000000000000000000000000000000600052603260045260246000fd5b600082825260208201905092915050565b7f496e76616c696420494400000000000000000000000000000000000000000000600082015250565b6000610d37600a83610cf0565b9150610d4282610d01565b602082019050919050565b60006020820190508181036000830152610d6681610d2a565b9050919050565b7f496e76616c696420616d6f756e74000000000000000000000000000000000000600082015250565b6000610da3600e83610cf0565b9150610dae82610d6d565b602082019050919050565b60006020820190508181036000830152610dd281610d96565b9050919050565b7f50726f706f73616c20496e616374697665000000000000000000000000000000600082015250565b6000610e0f601183610cf0565b9150610e1a82610dd9565b602082019050919050565b60006020820190508181036000830152610e3e81610e02565b9050919050565b7f4d656d62657220616c726561647920766f746564000000000000000000000000600082015250565b6000610e7b601483610cf0565b9150610e8682610e45565b602082019050919050565b60006020820190508181036000830152610eaa81610e6e565b9050919050565b7f496e737566696369656e74204554480000000000000000000000000000000000600082015250565b6000610ee7600f83610cf0565b9150610ef282610eb1565b602082019050919050565b60006020820190508181036000830152610f1681610eda565b9050919050565b7f4e487b7100000000000000000000000000000000000000000000000000000000600052601160045260246000fd5b6000610f5782610aa1565b9150610f6283610aa1565b9250828203905081811115610f7a57610f79610f1d565b5b92915050565b7f50726f706f73616c206e6f742071756575656420666f7220657865637574696f60008201527f6e00000000000000000000000000000000000000000000000000000000000000602082015250565b6000610fdc602183610cf0565b9150610fe782610f80565b604082019050919050565b6000602082019050818103600083015261100b81610fcf565b9050919050565b600061101d82610aa1565b915061102883610aa1565b92508282019050808211156110405761103f610f1d565b5b92915050565b600061105182610aa1565b91507fffffffffffffffffffffffffffffffffffffffffffffffffffffffffffffffff820361108357611082610f1d565b5b60018201905091905056fea26469706673582212207103978d89109cea7ab9e0089980d6819da40bb1447635bb2284eff2d450d0b264736f6c63430008110033",
					"opcodes": "PUSH1 0x80 PUSH1 0x40 MSTORE PUSH1 0x5 PUSH1 0x1 SSTORE PUSH1 0x1E PUSH1 0x3 SSTORE PUSH1 0x3C PUSH1 0x4 SSTORE PUSH8 0xDE0B6B3A7640000 PUSH1 0x5 SSTORE CALLVALUE PUSH1 0x6 DUP2 SWAP1 SSTORE POP PUSH2 0x10C4 DUP1 PUSH2 0x35 PUSH1 0x0 CODECOPY PUSH1 0x0 RETURN INVALID PUSH1 0x80 PUSH1 0x40 MSTORE CALLVALUE DUP1 ISZERO PUSH2 0x10 JUMPI PUSH1 0x0 DUP1 REVERT JUMPDEST POP PUSH1 0x4 CALLDATASIZE LT PUSH2 0x88 JUMPI PUSH1 0x0 CALLDATALOAD PUSH1 0xE0 SHR DUP1 PUSH4 0xA220E64A GT PUSH2 0x5B JUMPI DUP1 PUSH4 0xA220E64A EQ PUSH2 0x111 JUMPI DUP1 PUSH4 0xCF34FA2A EQ PUSH2 0x141 JUMPI DUP1 PUSH4 0xFB6FF161 EQ PUSH2 0x15D JUMPI DUP1 PUSH4 0xFE0D94C1 EQ PUSH2 0x17B JUMPI PUSH2 0x88 JUMP JUMPDEST DUP1 PUSH4 0x3E4F49E6 EQ PUSH2 0x8D JUMPI DUP1 PUSH4 0x7325D4CC EQ PUSH2 0xBD JUMPI DUP1 PUSH4 0x750E443A EQ PUSH2 0xD9 JUMPI DUP1 PUSH4 0x86A50535 EQ PUSH2 0xF5 JUMPI JUMPDEST PUSH1 0x0 DUP1 REVERT JUMPDEST PUSH2 0xA7 PUSH1 0x4 DUP1 CALLDATASIZE SUB DUP2 ADD SWAP1 PUSH2 0xA2 SWAP2 SWAP1 PUSH2 0xAD7 JUMP JUMPDEST PUSH2 0x197 JUMP JUMPDEST PUSH1 0x40 MLOAD PUSH2 0xB4 SWAP2 SWAP1 PUSH2 0xB7B JUMP JUMPDEST PUSH1 0x40 MLOAD DUP1 SWAP2 SUB SWAP1 RETURN JUMPDEST PUSH2 0xD7 PUSH1 0x4 DUP1 CALLDATASIZE SUB DUP2 ADD SWAP1 PUSH2 0xD2 SWAP2 SWAP1 PUSH2 0xAD7 JUMP JUMPDEST PUSH2 0x294 JUMP JUMPDEST STOP JUMPDEST PUSH2 0xF3 PUSH1 0x4 DUP1 CALLDATASIZE SUB DUP2 ADD SWAP1 PUSH2 0xEE SWAP2 SWAP1 PUSH2 0xAD7 JUMP JUMPDEST PUSH2 0x2E8 JUMP JUMPDEST STOP JUMPDEST PUSH2 0x10F PUSH1 0x4 DUP1 CALLDATASIZE SUB DUP2 ADD SWAP1 PUSH2 0x10A SWAP2 SWAP1 PUSH2 0xAD7 JUMP JUMPDEST PUSH2 0x40B JUMP JUMPDEST STOP JUMPDEST PUSH2 0x12B PUSH1 0x4 DUP1 CALLDATASIZE SUB DUP2 ADD SWAP1 PUSH2 0x126 SWAP2 SWAP1 PUSH2 0xBF4 JUMP JUMPDEST PUSH2 0x52E JUMP JUMPDEST PUSH1 0x40 MLOAD PUSH2 0x138 SWAP2 SWAP1 PUSH2 0xC4F JUMP JUMPDEST PUSH1 0x40 MLOAD DUP1 SWAP2 SUB SWAP1 RETURN JUMPDEST PUSH2 0x15B PUSH1 0x4 DUP1 CALLDATASIZE SUB DUP2 ADD SWAP1 PUSH2 0x156 SWAP2 SWAP1 PUSH2 0xC6A JUMP JUMPDEST PUSH2 0x55D JUMP JUMPDEST STOP JUMPDEST PUSH2 0x165 PUSH2 0x5D4 JUMP JUMPDEST PUSH1 0x40 MLOAD PUSH2 0x172 SWAP2 SWAP1 PUSH2 0xCA6 JUMP JUMPDEST PUSH1 0x40 MLOAD DUP1 SWAP2 SUB SWAP1 RETURN JUMPDEST PUSH2 0x195 PUSH1 0x4 DUP1 CALLDATASIZE SUB DUP2 ADD SWAP1 PUSH2 0x190 SWAP2 SWAP1 PUSH2 0xAD7 JUMP JUMPDEST PUSH2 0x5DA JUMP JUMPDEST STOP JUMPDEST PUSH1 0x0 DUP1 PUSH1 0x0 DUP4 DUP2 SLOAD DUP2 LT PUSH2 0x1AE JUMPI PUSH2 0x1AD PUSH2 0xCC1 JUMP JUMPDEST JUMPDEST SWAP1 PUSH1 0x0 MSTORE PUSH1 0x20 PUSH1 0x0 KECCAK256 SWAP1 PUSH1 0x7 MUL ADD SWAP1 POP PUSH1 0x0 DUP2 PUSH1 0x4 ADD PUSH1 0x0 SWAP1 SLOAD SWAP1 PUSH2 0x100 EXP SWAP1 DIV PUSH1 0xFF AND SWAP1 POP PUSH1 0x0 PUSH1 0x6 DUP2 GT ISZERO PUSH2 0x1E8 JUMPI PUSH2 0x1E7 PUSH2 0xB04 JUMP JUMPDEST JUMPDEST DUP2 PUSH1 0x6 DUP2 GT ISZERO PUSH2 0x1FB JUMPI PUSH2 0x1FA PUSH2 0xB04 JUMP JUMPDEST JUMPDEST EQ PUSH2 0x20A JUMPI DUP1 SWAP3 POP POP POP PUSH2 0x28F JUMP JUMPDEST PUSH1 0x0 DUP3 PUSH1 0x0 ADD SLOAD SWAP1 POP PUSH1 0x0 DUP2 SUB PUSH2 0x256 JUMPI PUSH1 0x40 MLOAD PUSH32 0x8C379A000000000000000000000000000000000000000000000000000000000 DUP2 MSTORE PUSH1 0x4 ADD PUSH2 0x24D SWAP1 PUSH2 0xD4D JUMP JUMPDEST PUSH1 0x40 MLOAD DUP1 SWAP2 SUB SWAP1 REVERT JUMPDEST TIMESTAMP DUP2 LT PUSH2 0x269 JUMPI PUSH1 0x1 SWAP4 POP POP POP POP PUSH2 0x28F JUMP JUMPDEST PUSH1 0x0 DUP4 PUSH1 0x1 ADD SLOAD SWAP1 POP TIMESTAMP DUP2 LT PUSH2 0x286 JUMPI PUSH1 0x2 SWAP5 POP POP POP POP POP PUSH2 0x28F JUMP JUMPDEST PUSH1 0x3 SWAP5 POP POP POP POP POP JUMPDEST SWAP2 SWAP1 POP JUMP JUMPDEST PUSH1 0x0 DUP2 GT PUSH2 0x2D7 JUMPI PUSH1 0x40 MLOAD PUSH32 0x8C379A000000000000000000000000000000000000000000000000000000000 DUP2 MSTORE PUSH1 0x4 ADD PUSH2 0x2CE SWAP1 PUSH2 0xDB9 JUMP JUMPDEST PUSH1 0x40 MLOAD DUP1 SWAP2 SUB SWAP1 REVERT JUMPDEST PUSH2 0x2E5 PUSH1 0x0 DUP1 PUSH1 0x0 DUP5 PUSH2 0x76C JUMP JUMPDEST POP JUMP JUMPDEST DUP1 PUSH1 0x2 PUSH1 0x6 DUP2 GT ISZERO PUSH2 0x2FD JUMPI PUSH2 0x2FC PUSH2 0xB04 JUMP JUMPDEST JUMPDEST PUSH2 0x306 DUP3 PUSH2 0x197 JUMP JUMPDEST PUSH1 0x6 DUP2 GT ISZERO PUSH2 0x318 JUMPI PUSH2 0x317 PUSH2 0xB04 JUMP JUMPDEST JUMPDEST EQ PUSH2 0x358 JUMPI PUSH1 0x40 MLOAD PUSH32 0x8C379A000000000000000000000000000000000000000000000000000000000 DUP2 MSTORE PUSH1 0x4 ADD PUSH2 0x34F SWAP1 PUSH2 0xE25 JUMP JUMPDEST PUSH1 0x40 MLOAD DUP1 SWAP2 SUB SWAP1 REVERT JUMPDEST PUSH1 0x0 ISZERO ISZERO PUSH1 0x2 PUSH1 0x0 CALLER PUSH20 0xFFFFFFFFFFFFFFFFFFFFFFFFFFFFFFFFFFFFFFFF AND PUSH20 0xFFFFFFFFFFFFFFFFFFFFFFFFFFFFFFFFFFFFFFFF AND DUP2 MSTORE PUSH1 0x20 ADD SWAP1 DUP2 MSTORE PUSH1 0x20 ADD PUSH1 0x0 KECCAK256 PUSH1 0x0 DUP4 DUP2 MSTORE PUSH1 0x20 ADD SWAP1 DUP2 MSTORE PUSH1 0x20 ADD PUSH1 0x0 KECCAK256 PUSH1 0x0 SWAP1 SLOAD SWAP1 PUSH2 0x100 EXP SWAP1 DIV PUSH1 0xFF AND ISZERO ISZERO EQ PUSH2 0x3FC JUMPI PUSH1 0x40 MLOAD PUSH32 0x8C379A000000000000000000000000000000000000000000000000000000000 DUP2 MSTORE PUSH1 0x4 ADD PUSH2 0x3F3 SWAP1 PUSH2 0xE91 JUMP JUMPDEST PUSH1 0x40 MLOAD DUP1 SWAP2 SUB SWAP1 REVERT JUMPDEST PUSH2 0x407 DUP3 PUSH1 0x0 PUSH2 0x926 JUMP JUMPDEST POP POP JUMP JUMPDEST DUP1 PUSH1 0x2 PUSH1 0x6 DUP2 GT ISZERO PUSH2 0x420 JUMPI PUSH2 0x41F PUSH2 0xB04 JUMP JUMPDEST JUMPDEST PUSH2 0x429 DUP3 PUSH2 0x197 JUMP JUMPDEST PUSH1 0x6 DUP2 GT ISZERO PUSH2 0x43B JUMPI PUSH2 0x43A PUSH2 0xB04 JUMP JUMPDEST JUMPDEST EQ PUSH2 0x47B JUMPI PUSH1 0x40 MLOAD PUSH32 0x8C379A000000000000000000000000000000000000000000000000000000000 DUP2 MSTORE PUSH1 0x4 ADD PUSH2 0x472 SWAP1 PUSH2 0xE25 JUMP JUMPDEST PUSH1 0x40 MLOAD DUP1 SWAP2 SUB SWAP1 REVERT JUMPDEST PUSH1 0x0 ISZERO ISZERO PUSH1 0x2 PUSH1 0x0 CALLER PUSH20 0xFFFFFFFFFFFFFFFFFFFFFFFFFFFFFFFFFFFFFFFF AND PUSH20 0xFFFFFFFFFFFFFFFFFFFFFFFFFFFFFFFFFFFFFFFF AND DUP2 MSTORE PUSH1 0x20 ADD SWAP1 DUP2 MSTORE PUSH1 0x20 ADD PUSH1 0x0 KECCAK256 PUSH1 0x0 DUP4 DUP2 MSTORE PUSH1 0x20 ADD SWAP1 DUP2 MSTORE PUSH1 0x20 ADD PUSH1 0x0 KECCAK256 PUSH1 0x0 SWAP1 SLOAD SWAP1 PUSH2 0x100 EXP SWAP1 DIV PUSH1 0xFF AND ISZERO ISZERO EQ PUSH2 0x51F JUMPI PUSH1 0x40 MLOAD PUSH32 0x8C379A000000000000000000000000000000000000000000000000000000000 DUP2 MSTORE PUSH1 0x4 ADD PUSH2 0x516 SWAP1 PUSH2 0xE91 JUMP JUMPDEST PUSH1 0x40 MLOAD DUP1 SWAP2 SUB SWAP1 REVERT JUMPDEST PUSH2 0x52A DUP3 PUSH1 0x1 PUSH2 0x926 JUMP JUMPDEST POP POP JUMP JUMPDEST PUSH1 0x2 PUSH1 0x20 MSTORE DUP2 PUSH1 0x0 MSTORE PUSH1 0x40 PUSH1 0x0 KECCAK256 PUSH1 0x20 MSTORE DUP1 PUSH1 0x0 MSTORE PUSH1 0x40 PUSH1 0x0 KECCAK256 PUSH1 0x0 SWAP2 POP SWAP2 POP SWAP1 SLOAD SWAP1 PUSH2 0x100 EXP SWAP1 DIV PUSH1 0xFF AND DUP2 JUMP JUMPDEST PUSH1 0x0 PUSH1 0x5 SLOAD SWAP1 POP DUP1 PUSH1 0x6 SLOAD LT ISZERO PUSH2 0x5A9 JUMPI PUSH1 0x40 MLOAD PUSH32 0x8C379A000000000000000000000000000000000000000000000000000000000 DUP2 MSTORE PUSH1 0x4 ADD PUSH2 0x5A0 SWAP1 PUSH2 0xEFD JUMP JUMPDEST PUSH1 0x40 MLOAD DUP1 SWAP2 SUB SWAP1 REVERT JUMPDEST DUP1 PUSH1 0x6 PUSH1 0x0 DUP3 DUP3 SLOAD PUSH2 0x5BB SWAP2 SWAP1 PUSH2 0xF4C JUMP JUMPDEST SWAP3 POP POP DUP2 SWAP1 SSTORE POP PUSH2 0x5D0 PUSH1 0x0 DUP4 DUP4 PUSH1 0x0 PUSH2 0x76C JUMP JUMPDEST POP POP JUMP JUMPDEST PUSH1 0x6 SLOAD DUP2 JUMP JUMPDEST PUSH1 0x0 DUP1 DUP3 DUP2 SLOAD DUP2 LT PUSH2 0x5EF JUMPI PUSH2 0x5EE PUSH2 0xCC1 JUMP JUMPDEST JUMPDEST SWAP1 PUSH1 0x0 MSTORE PUSH1 0x20 PUSH1 0x0 KECCAK256 SWAP1 PUSH1 0x7 MUL ADD SWAP1 POP PUSH1 0x0 PUSH2 0x60A DUP4 PUSH2 0x197 JUMP JUMPDEST SWAP1 POP PUSH1 0x3 PUSH1 0x6 DUP2 GT ISZERO PUSH2 0x620 JUMPI PUSH2 0x61F PUSH2 0xB04 JUMP JUMPDEST JUMPDEST DUP2 PUSH1 0x6 DUP2 GT ISZERO PUSH2 0x633 JUMPI PUSH2 0x632 PUSH2 0xB04 JUMP JUMPDEST JUMPDEST EQ PUSH2 0x673 JUMPI PUSH1 0x40 MLOAD PUSH32 0x8C379A000000000000000000000000000000000000000000000000000000000 DUP2 MSTORE PUSH1 0x4 ADD PUSH2 0x66A SWAP1 PUSH2 0xFF2 JUMP JUMPDEST PUSH1 0x40 MLOAD DUP1 SWAP2 SUB SWAP1 REVERT JUMPDEST PUSH2 0x67C DUP4 PUSH2 0x9F1 JUMP JUMPDEST SWAP1 POP PUSH1 0x0 DUP3 PUSH1 0x4 ADD PUSH1 0x1 SWAP1 SLOAD SWAP1 PUSH2 0x100 EXP SWAP1 DIV PUSH1 0xFF AND SWAP1 POP PUSH1 0x5 PUSH1 0x6 DUP2 GT ISZERO PUSH2 0x6A8 JUMPI PUSH2 0x6A7 PUSH2 0xB04 JUMP JUMPDEST JUMPDEST DUP3 PUSH1 0x6 DUP2 GT ISZERO PUSH2 0x6BB JUMPI PUSH2 0x6BA PUSH2 0xB04 JUMP JUMPDEST JUMPDEST SUB PUSH2 0x71B JUMPI PUSH1 0x0 PUSH1 0x1 DUP2 GT ISZERO PUSH2 0x6D4 JUMPI PUSH2 0x6D3 PUSH2 0xB04 JUMP JUMPDEST JUMPDEST DUP2 PUSH1 0x1 DUP2 GT ISZERO PUSH2 0x6E7 JUMPI PUSH2 0x6E6 PUSH2 0xB04 JUMP JUMPDEST JUMPDEST SUB ISZERO PUSH2 0x716 JUMPI PUSH1 0x1 DUP1 DUP2 GT ISZERO PUSH2 0x700 JUMPI PUSH2 0x6FF PUSH2 0xB04 JUMP JUMPDEST JUMPDEST DUP2 PUSH1 0x1 DUP2 GT ISZERO PUSH2 0x713 JUMPI PUSH2 0x712 PUSH2 0xB04 JUMP JUMPDEST JUMPDEST POP POP JUMPDEST PUSH2 0x766 JUMP JUMPDEST PUSH1 0x0 PUSH1 0x1 DUP2 GT ISZERO PUSH2 0x72F JUMPI PUSH2 0x72E PUSH2 0xB04 JUMP JUMPDEST JUMPDEST DUP2 PUSH1 0x1 DUP2 GT ISZERO PUSH2 0x742 JUMPI PUSH2 0x741 PUSH2 0xB04 JUMP JUMPDEST JUMPDEST SUB PUSH2 0x765 JUMPI DUP3 PUSH1 0x5 ADD SLOAD PUSH1 0x6 PUSH1 0x0 DUP3 DUP3 SLOAD PUSH2 0x75D SWAP2 SWAP1 PUSH2 0x1012 JUMP JUMPDEST SWAP3 POP POP DUP2 SWAP1 SSTORE POP JUMPDEST JUMPDEST POP POP POP POP JUMP JUMPDEST PUSH1 0x0 PUSH1 0x3 SLOAD TIMESTAMP PUSH2 0x77C SWAP2 SWAP1 PUSH2 0x1012 JUMP JUMPDEST SWAP1 POP PUSH1 0x0 PUSH1 0x40 MLOAD DUP1 PUSH2 0x120 ADD PUSH1 0x40 MSTORE DUP1 DUP4 DUP2 MSTORE PUSH1 0x20 ADD PUSH1 0x4 SLOAD DUP5 PUSH2 0x7A0 SWAP2 SWAP1 PUSH2 0x1012 JUMP JUMPDEST DUP2 MSTORE PUSH1 0x20 ADD PUSH1 0x0 DUP2 MSTORE PUSH1 0x20 ADD PUSH1 0x0 DUP2 MSTORE PUSH1 0x20 ADD PUSH1 0x0 PUSH1 0x6 DUP2 GT ISZERO PUSH2 0x7C7 JUMPI PUSH2 0x7C6 PUSH2 0xB04 JUMP JUMPDEST JUMPDEST DUP2 MSTORE PUSH1 0x20 ADD DUP8 PUSH1 0x1 DUP2 GT ISZERO PUSH2 0x7DF JUMPI PUSH2 0x7DE PUSH2 0xB04 JUMP JUMPDEST JUMPDEST DUP2 MSTORE PUSH1 0x20 ADD DUP7 PUSH20 0xFFFFFFFFFFFFFFFFFFFFFFFFFFFFFFFFFFFFFFFF AND DUP2 MSTORE PUSH1 0x20 ADD DUP6 DUP2 MSTORE PUSH1 0x20 ADD DUP5 DUP2 MSTORE POP SWAP1 POP PUSH1 0x0 DUP2 SWAP1 DUP1 PUSH1 0x1 DUP2 SLOAD ADD DUP1 DUP3 SSTORE DUP1 SWAP2 POP POP PUSH1 0x1 SWAP1 SUB SWAP1 PUSH1 0x0 MSTORE PUSH1 0x20 PUSH1 0x0 KECCAK256 SWAP1 PUSH1 0x7 MUL ADD PUSH1 0x0 SWAP1 SWAP2 SWAP1 SWAP2 SWAP1 SWAP2 POP PUSH1 0x0 DUP3 ADD MLOAD DUP2 PUSH1 0x0 ADD SSTORE PUSH1 0x20 DUP3 ADD MLOAD DUP2 PUSH1 0x1 ADD SSTORE PUSH1 0x40 DUP3 ADD MLOAD DUP2 PUSH1 0x2 ADD SSTORE PUSH1 0x60 DUP3 ADD MLOAD DUP2 PUSH1 0x3 ADD SSTORE PUSH1 0x80 DUP3 ADD MLOAD DUP2 PUSH1 0x4 ADD PUSH1 0x0 PUSH2 0x100 EXP DUP2 SLOAD DUP2 PUSH1 0xFF MUL NOT AND SWAP1 DUP4 PUSH1 0x6 DUP2 GT ISZERO PUSH2 0x88B JUMPI PUSH2 0x88A PUSH2 0xB04 JUMP JUMPDEST JUMPDEST MUL OR SWAP1 SSTORE POP PUSH1 0xA0 DUP3 ADD MLOAD DUP2 PUSH1 0x4 ADD PUSH1 0x1 PUSH2 0x100 EXP DUP2 SLOAD DUP2 PUSH1 0xFF MUL NOT AND SWAP1 DUP4 PUSH1 0x1 DUP2 GT ISZERO PUSH2 0x8BB JUMPI PUSH2 0x8BA PUSH2 0xB04 JUMP JUMPDEST JUMPDEST MUL OR SWAP1 SSTORE POP PUSH1 0xC0 DUP3 ADD MLOAD DUP2 PUSH1 0x4 ADD PUSH1 0x2 PUSH2 0x100 EXP DUP2 SLOAD DUP2 PUSH20 0xFFFFFFFFFFFFFFFFFFFFFFFFFFFFFFFFFFFFFFFF MUL NOT AND SWAP1 DUP4 PUSH20 0xFFFFFFFFFFFFFFFFFFFFFFFFFFFFFFFFFFFFFFFF AND MUL OR SWAP1 SSTORE POP PUSH1 0xE0 DUP3 ADD MLOAD DUP2 PUSH1 0x5 ADD SSTORE PUSH2 0x100 DUP3 ADD MLOAD DUP2 PUSH1 0x6 ADD SSTORE POP POP POP POP POP POP POP POP JUMP JUMPDEST PUSH1 0x0 DUP1 DUP4 DUP2 SLOAD DUP2 LT PUSH2 0x93B JUMPI PUSH2 0x93A PUSH2 0xCC1 JUMP JUMPDEST JUMPDEST SWAP1 PUSH1 0x0 MSTORE PUSH1 0x20 PUSH1 0x0 KECCAK256 SWAP1 PUSH1 0x7 MUL ADD SWAP1 POP DUP2 ISZERO PUSH2 0x970 JUMPI DUP1 PUSH1 0x2 ADD PUSH1 0x0 DUP2 SLOAD DUP1 SWAP3 SWAP2 SWAP1 PUSH2 0x966 SWAP1 PUSH2 0x1046 JUMP JUMPDEST SWAP2 SWAP1 POP SSTORE POP PUSH2 0x98B JUMP JUMPDEST DUP1 PUSH1 0x3 ADD PUSH1 0x0 DUP2 SLOAD DUP1 SWAP3 SWAP2 SWAP1 PUSH2 0x985 SWAP1 PUSH2 0x1046 JUMP JUMPDEST SWAP2 SWAP1 POP SSTORE POP JUMPDEST PUSH1 0x1 ISZERO ISZERO PUSH1 0x2 PUSH1 0x0 CALLER PUSH20 0xFFFFFFFFFFFFFFFFFFFFFFFFFFFFFFFFFFFFFFFF AND PUSH20 0xFFFFFFFFFFFFFFFFFFFFFFFFFFFFFFFFFFFFFFFF AND DUP2 MSTORE PUSH1 0x20 ADD SWAP1 DUP2 MSTORE PUSH1 0x20 ADD PUSH1 0x0 KECCAK256 PUSH1 0x0 DUP6 DUP2 MSTORE PUSH1 0x20 ADD SWAP1 DUP2 MSTORE PUSH1 0x20 ADD PUSH1 0x0 KECCAK256 PUSH1 0x0 SWAP1 SLOAD SWAP1 PUSH2 0x100 EXP SWAP1 POP POP POP POP POP POP JUMP JUMPDEST PUSH1 0x0 DUP1 PUSH1 0x0 DUP4 DUP2 SLOAD DUP2 LT PUSH2 0xA08 JUMPI PUSH2 0xA07 PUSH2 0xCC1 JUMP JUMPDEST JUMPDEST SWAP1 PUSH1 0x0 MSTORE PUSH1 0x20 PUSH1 0x0 KECCAK256 SWAP1 PUSH1 0x7 MUL ADD SWAP1 POP PUSH1 0x0 DUP2 PUSH1 0x2 ADD SLOAD SWAP1 POP PUSH1 0x0 DUP3 PUSH1 0x3 ADD SLOAD SWAP1 POP PUSH1 0x0 PUSH2 0xA36 DUP4 DUP4 PUSH2 0xA74 JUMP JUMPDEST SWAP1 POP DUP1 PUSH2 0xA4A JUMPI PUSH1 0x6 SWAP5 POP POP POP POP POP PUSH2 0xA6F JUMP JUMPDEST PUSH2 0xA54 DUP4 DUP4 PUSH2 0xA8F JUMP JUMPDEST ISZERO PUSH2 0xA66 JUMPI PUSH1 0x5 SWAP5 POP POP POP POP POP PUSH2 0xA6F JUMP JUMPDEST PUSH1 0x4 SWAP5 POP POP POP POP POP JUMPDEST SWAP2 SWAP1 POP JUMP JUMPDEST PUSH1 0x0 PUSH1 0x1 SLOAD DUP3 DUP5 PUSH2 0xA85 SWAP2 SWAP1 PUSH2 0x1012 JUMP JUMPDEST LT ISZERO SWAP1 POP SWAP3 SWAP2 POP POP JUMP JUMPDEST PUSH1 0x0 DUP2 DUP4 GT SWAP1 POP SWAP3 SWAP2 POP POP JUMP JUMPDEST PUSH1 0x0 DUP1 REVERT JUMPDEST PUSH1 0x0 DUP2 SWAP1 POP SWAP2 SWAP1 POP JUMP JUMPDEST PUSH2 0xAB4 DUP2 PUSH2 0xAA1 JUMP JUMPDEST DUP2 EQ PUSH2 0xABF JUMPI PUSH1 0x0 DUP1 REVERT JUMPDEST POP JUMP JUMPDEST PUSH1 0x0 DUP2 CALLDATALOAD SWAP1 POP PUSH2 0xAD1 DUP2 PUSH2 0xAAB JUMP JUMPDEST SWAP3 SWAP2 POP POP JUMP JUMPDEST PUSH1 0x0 PUSH1 0x20 DUP3 DUP5 SUB SLT ISZERO PUSH2 0xAED JUMPI PUSH2 0xAEC PUSH2 0xA9C JUMP JUMPDEST JUMPDEST PUSH1 0x0 PUSH2 0xAFB DUP5 DUP3 DUP6 ADD PUSH2 0xAC2 JUMP JUMPDEST SWAP2 POP POP SWAP3 SWAP2 POP POP JUMP JUMPDEST PUSH32 0x4E487B7100000000000000000000000000000000000000000000000000000000 PUSH1 0x0 MSTORE PUSH1 0x21 PUSH1 0x4 MSTORE PUSH1 0x24 PUSH1 0x0 REVERT JUMPDEST PUSH1 0x7 DUP2 LT PUSH2 0xB44 JUMPI PUSH2 0xB43 PUSH2 0xB04 JUMP JUMPDEST JUMPDEST POP JUMP JUMPDEST PUSH1 0x0 DUP2 SWAP1 POP PUSH2 0xB55 DUP3 PUSH2 0xB33 JUMP JUMPDEST SWAP2 SWAP1 POP JUMP JUMPDEST PUSH1 0x0 PUSH2 0xB65 DUP3 PUSH2 0xB47 JUMP JUMPDEST SWAP1 POP SWAP2 SWAP1 POP JUMP JUMPDEST PUSH2 0xB75 DUP2 PUSH2 0xB5A JUMP JUMPDEST DUP3 MSTORE POP POP JUMP JUMPDEST PUSH1 0x0 PUSH1 0x20 DUP3 ADD SWAP1 POP PUSH2 0xB90 PUSH1 0x0 DUP4 ADD DUP5 PUSH2 0xB6C JUMP JUMPDEST SWAP3 SWAP2 POP POP JUMP JUMPDEST PUSH1 0x0 PUSH20 0xFFFFFFFFFFFFFFFFFFFFFFFFFFFFFFFFFFFFFFFF DUP3 AND SWAP1 POP SWAP2 SWAP1 POP JUMP JUMPDEST PUSH1 0x0 PUSH2 0xBC1 DUP3 PUSH2 0xB96 JUMP JUMPDEST SWAP1 POP SWAP2 SWAP1 POP JUMP JUMPDEST PUSH2 0xBD1 DUP2 PUSH2 0xBB6 JUMP JUMPDEST DUP2 EQ PUSH2 0xBDC JUMPI PUSH1 0x0 DUP1 REVERT JUMPDEST POP JUMP JUMPDEST PUSH1 0x0 DUP2 CALLDATALOAD SWAP1 POP PUSH2 0xBEE DUP2 PUSH2 0xBC8 JUMP JUMPDEST SWAP3 SWAP2 POP POP JUMP JUMPDEST PUSH1 0x0 DUP1 PUSH1 0x40 DUP4 DUP6 SUB SLT ISZERO PUSH2 0xC0B JUMPI PUSH2 0xC0A PUSH2 0xA9C JUMP JUMPDEST JUMPDEST PUSH1 0x0 PUSH2 0xC19 DUP6 DUP3 DUP7 ADD PUSH2 0xBDF JUMP JUMPDEST SWAP3 POP POP PUSH1 0x20 PUSH2 0xC2A DUP6 DUP3 DUP7 ADD PUSH2 0xAC2 JUMP JUMPDEST SWAP2 POP POP SWAP3 POP SWAP3 SWAP1 POP JUMP JUMPDEST PUSH1 0x0 DUP2 ISZERO ISZERO SWAP1 POP SWAP2 SWAP1 POP JUMP JUMPDEST PUSH2 0xC49 DUP2 PUSH2 0xC34 JUMP JUMPDEST DUP3 MSTORE POP POP JUMP JUMPDEST PUSH1 0x0 PUSH1 0x20 DUP3 ADD SWAP1 POP PUSH2 0xC64 PUSH1 0x0 DUP4 ADD DUP5 PUSH2 0xC40 JUMP JUMPDEST SWAP3 SWAP2 POP POP JUMP JUMPDEST PUSH1 0x0 PUSH1 0x20 DUP3 DUP5 SUB SLT ISZERO PUSH2 0xC80 JUMPI PUSH2 0xC7F PUSH2 0xA9C JUMP JUMPDEST JUMPDEST PUSH1 0x0 PUSH2 0xC8E DUP5 DUP3 DUP6 ADD PUSH2 0xBDF JUMP JUMPDEST SWAP2 POP POP SWAP3 SWAP2 POP POP JUMP JUMPDEST PUSH2 0xCA0 DUP2 PUSH2 0xAA1 JUMP JUMPDEST DUP3 MSTORE POP POP JUMP JUMPDEST PUSH1 0x0 PUSH1 0x20 DUP3 ADD SWAP1 POP PUSH2 0xCBB PUSH1 0x0 DUP4 ADD DUP5 PUSH2 0xC97 JUMP JUMPDEST SWAP3 SWAP2 POP POP JUMP JUMPDEST PUSH32 0x4E487B7100000000000000000000000000000000000000000000000000000000 PUSH1 0x0 MSTORE PUSH1 0x32 PUSH1 0x4 MSTORE PUSH1 0x24 PUSH1 0x0 REVERT JUMPDEST PUSH1 0x0 DUP3 DUP3 MSTORE PUSH1 0x20 DUP3 ADD SWAP1 POP SWAP3 SWAP2 POP POP JUMP JUMPDEST PUSH32 0x496E76616C696420494400000000000000000000000000000000000000000000 PUSH1 0x0 DUP3 ADD MSTORE POP JUMP JUMPDEST PUSH1 0x0 PUSH2 0xD37 PUSH1 0xA DUP4 PUSH2 0xCF0 JUMP JUMPDEST SWAP2 POP PUSH2 0xD42 DUP3 PUSH2 0xD01 JUMP JUMPDEST PUSH1 0x20 DUP3 ADD SWAP1 POP SWAP2 SWAP1 POP JUMP JUMPDEST PUSH1 0x0 PUSH1 0x20 DUP3 ADD SWAP1 POP DUP2 DUP2 SUB PUSH1 0x0 DUP4 ADD MSTORE PUSH2 0xD66 DUP2 PUSH2 0xD2A JUMP JUMPDEST SWAP1 POP SWAP2 SWAP1 POP JUMP JUMPDEST PUSH32 0x496E76616C696420616D6F756E74000000000000000000000000000000000000 PUSH1 0x0 DUP3 ADD MSTORE POP JUMP JUMPDEST PUSH1 0x0 PUSH2 0xDA3 PUSH1 0xE DUP4 PUSH2 0xCF0 JUMP JUMPDEST SWAP2 POP PUSH2 0xDAE DUP3 PUSH2 0xD6D JUMP JUMPDEST PUSH1 0x20 DUP3 ADD SWAP1 POP SWAP2 SWAP1 POP JUMP JUMPDEST PUSH1 0x0 PUSH1 0x20 DUP3 ADD SWAP1 POP DUP2 DUP2 SUB PUSH1 0x0 DUP4 ADD MSTORE PUSH2 0xDD2 DUP2 PUSH2 0xD96 JUMP JUMPDEST SWAP1 POP SWAP2 SWAP1 POP JUMP JUMPDEST PUSH32 0x50726F706F73616C20496E616374697665000000000000000000000000000000 PUSH1 0x0 DUP3 ADD MSTORE POP JUMP JUMPDEST PUSH1 0x0 PUSH2 0xE0F PUSH1 0x11 DUP4 PUSH2 0xCF0 JUMP JUMPDEST SWAP2 POP PUSH2 0xE1A DUP3 PUSH2 0xDD9 JUMP JUMPDEST PUSH1 0x20 DUP3 ADD SWAP1 POP SWAP2 SWAP1 POP JUMP JUMPDEST PUSH1 0x0 PUSH1 0x20 DUP3 ADD SWAP1 POP DUP2 DUP2 SUB PUSH1 0x0 DUP4 ADD MSTORE PUSH2 0xE3E DUP2 PUSH2 0xE02 JUMP JUMPDEST SWAP1 POP SWAP2 SWAP1 POP JUMP JUMPDEST PUSH32 0x4D656D62657220616C726561647920766F746564000000000000000000000000 PUSH1 0x0 DUP3 ADD MSTORE POP JUMP JUMPDEST PUSH1 0x0 PUSH2 0xE7B PUSH1 0x14 DUP4 PUSH2 0xCF0 JUMP JUMPDEST SWAP2 POP PUSH2 0xE86 DUP3 PUSH2 0xE45 JUMP JUMPDEST PUSH1 0x20 DUP3 ADD SWAP1 POP SWAP2 SWAP1 POP JUMP JUMPDEST PUSH1 0x0 PUSH1 0x20 DUP3 ADD SWAP1 POP DUP2 DUP2 SUB PUSH1 0x0 DUP4 ADD MSTORE PUSH2 0xEAA DUP2 PUSH2 0xE6E JUMP JUMPDEST SWAP1 POP SWAP2 SWAP1 POP JUMP JUMPDEST PUSH32 0x496E737566696369656E74204554480000000000000000000000000000000000 PUSH1 0x0 DUP3 ADD MSTORE POP JUMP JUMPDEST PUSH1 0x0 PUSH2 0xEE7 PUSH1 0xF DUP4 PUSH2 0xCF0 JUMP JUMPDEST SWAP2 POP PUSH2 0xEF2 DUP3 PUSH2 0xEB1 JUMP JUMPDEST PUSH1 0x20 DUP3 ADD SWAP1 POP SWAP2 SWAP1 POP JUMP JUMPDEST PUSH1 0x0 PUSH1 0x20 DUP3 ADD SWAP1 POP DUP2 DUP2 SUB PUSH1 0x0 DUP4 ADD MSTORE PUSH2 0xF16 DUP2 PUSH2 0xEDA JUMP JUMPDEST SWAP1 POP SWAP2 SWAP1 POP JUMP JUMPDEST PUSH32 0x4E487B7100000000000000000000000000000000000000000000000000000000 PUSH1 0x0 MSTORE PUSH1 0x11 PUSH1 0x4 MSTORE PUSH1 0x24 PUSH1 0x0 REVERT JUMPDEST PUSH1 0x0 PUSH2 0xF57 DUP3 PUSH2 0xAA1 JUMP JUMPDEST SWAP2 POP PUSH2 0xF62 DUP4 PUSH2 0xAA1 JUMP JUMPDEST SWAP3 POP DUP3 DUP3 SUB SWAP1 POP DUP2 DUP2 GT ISZERO PUSH2 0xF7A JUMPI PUSH2 0xF79 PUSH2 0xF1D JUMP JUMPDEST JUMPDEST SWAP3 SWAP2 POP POP JUMP JUMPDEST PUSH32 0x50726F706F73616C206E6F742071756575656420666F7220657865637574696F PUSH1 0x0 DUP3 ADD MSTORE PUSH32 0x6E00000000000000000000000000000000000000000000000000000000000000 PUSH1 0x20 DUP3 ADD MSTORE POP JUMP JUMPDEST PUSH1 0x0 PUSH2 0xFDC PUSH1 0x21 DUP4 PUSH2 0xCF0 JUMP JUMPDEST SWAP2 POP PUSH2 0xFE7 DUP3 PUSH2 0xF80 JUMP JUMPDEST PUSH1 0x40 DUP3 ADD SWAP1 POP SWAP2 SWAP1 POP JUMP JUMPDEST PUSH1 0x0 PUSH1 0x20 DUP3 ADD SWAP1 POP DUP2 DUP2 SUB PUSH1 0x0 DUP4 ADD MSTORE PUSH2 0x100B DUP2 PUSH2 0xFCF JUMP JUMPDEST SWAP1 POP SWAP2 SWAP1 POP JUMP JUMPDEST PUSH1 0x0 PUSH2 0x101D DUP3 PUSH2 0xAA1 JUMP JUMPDEST SWAP2 POP PUSH2 0x1028 DUP4 PUSH2 0xAA1 JUMP JUMPDEST SWAP3 POP DUP3 DUP3 ADD SWAP1 POP DUP1 DUP3 GT ISZERO PUSH2 0x1040 JUMPI PUSH2 0x103F PUSH2 0xF1D JUMP JUMPDEST JUMPDEST SWAP3 SWAP2 POP POP JUMP JUMPDEST PUSH1 0x0 PUSH2 0x1051 DUP3 PUSH2 0xAA1 JUMP JUMPDEST SWAP2 POP PUSH32 0xFFFFFFFFFFFFFFFFFFFFFFFFFFFFFFFFFFFFFFFFFFFFFFFFFFFFFFFFFFFFFFFF DUP3 SUB PUSH2 0x1083 JUMPI PUSH2 0x1082 PUSH2 0xF1D JUMP JUMPDEST JUMPDEST PUSH1 0x1 DUP3 ADD SWAP1 POP SWAP2 SWAP1 POP JUMP INVALID LOG2 PUSH5 0x6970667358 0x22 SLT KECCAK256 PUSH18 0x3978D89109CEA7AB9E0089980D6819DA40B 0xB1 DIFFICULTY PUSH23 0x35BB2284EFF2D450D0B264736F6C634300081100330000 "
				},
				"gasEstimates": {
					"creation": {
						"codeDepositCost": "858400",
						"executionCost": "111409",
						"totalCost": "969809"
					},
					"external": {
						"availableETH()": "2473",
						"execute(uint256)": "infinite",
						"memberHasVoted(address,uint256)": "3087",
						"state(uint256)": "9448",
						"submitNewAmountChange(uint256)": "infinite",
						"submitNewGrant(address)": "infinite",
						"voteAgainst(uint256)": "infinite",
						"voteFor(uint256)": "infinite"
					},
					"internal": {
						"_quorumReached(uint256,uint256)": "infinite",
						"_setState(uint256)": "infinite",
						"_submitProposal(enum Governance.ProposalType,address,uint256,uint256)": "infinite",
						"_submitVote(uint256,bool)": "28927",
						"_tallyVotes(uint256)": "infinite",
						"_votesSucceeded(uint256,uint256)": "36"
					}
				},
				"methodIdentifiers": {
					"availableETH()": "fb6ff161",
					"execute(uint256)": "fe0d94c1",
					"memberHasVoted(address,uint256)": "a220e64a",
					"state(uint256)": "3e4f49e6",
					"submitNewAmountChange(uint256)": "7325d4cc",
					"submitNewGrant(address)": "cf34fa2a",
					"voteAgainst(uint256)": "750e443a",
					"voteFor(uint256)": "86a50535"
				}
			},
			"storageLayout": {
				"storage": [
					{
						"astId": 37,
						"contract": "bootcamp/week10/day_2_creating_a_DAO_voting.sol:Governance",
						"label": "proposals",
						"offset": 0,
						"slot": "0",
						"type": "t_array(t_struct(ProposalData)33_storage)dyn_storage"
					},
					{
						"astId": 40,
						"contract": "bootcamp/week10/day_2_creating_a_DAO_voting.sol:Governance",
						"label": "quorum",
						"offset": 0,
						"slot": "1",
						"type": "t_uint256"
					},
					{
						"astId": 46,
						"contract": "bootcamp/week10/day_2_creating_a_DAO_voting.sol:Governance",
						"label": "memberHasVoted",
						"offset": 0,
						"slot": "2",
						"type": "t_mapping(t_address,t_mapping(t_uint256,t_bool))"
					},
					{
						"astId": 49,
						"contract": "bootcamp/week10/day_2_creating_a_DAO_voting.sol:Governance",
						"label": "reviewPeriod",
						"offset": 0,
						"slot": "3",
						"type": "t_uint256"
					},
					{
						"astId": 52,
						"contract": "bootcamp/week10/day_2_creating_a_DAO_voting.sol:Governance",
						"label": "votingPeriod",
						"offset": 0,
						"slot": "4",
						"type": "t_uint256"
					},
					{
						"astId": 55,
						"contract": "bootcamp/week10/day_2_creating_a_DAO_voting.sol:Governance",
						"label": "grantAmount",
						"offset": 0,
						"slot": "5",
						"type": "t_uint256"
					},
					{
						"astId": 57,
						"contract": "bootcamp/week10/day_2_creating_a_DAO_voting.sol:Governance",
						"label": "availableETH",
						"offset": 0,
						"slot": "6",
						"type": "t_uint256"
					}
				],
				"types": {
					"t_address": {
						"encoding": "inplace",
						"label": "address",
						"numberOfBytes": "20"
					},
					"t_array(t_struct(ProposalData)33_storage)dyn_storage": {
						"base": "t_struct(ProposalData)33_storage",
						"encoding": "dynamic_array",
						"label": "struct Governance.ProposalData[]",
						"numberOfBytes": "32"
					},
					"t_bool": {
						"encoding": "inplace",
						"label": "bool",
						"numberOfBytes": "1"
					},
					"t_enum(ProposalState)9": {
						"encoding": "inplace",
						"label": "enum Governance.ProposalState",
						"numberOfBytes": "1"
					},
					"t_enum(ProposalType)12": {
						"encoding": "inplace",
						"label": "enum Governance.ProposalType",
						"numberOfBytes": "1"
					},
					"t_mapping(t_address,t_mapping(t_uint256,t_bool))": {
						"encoding": "mapping",
						"key": "t_address",
						"label": "mapping(address => mapping(uint256 => bool))",
						"numberOfBytes": "32",
						"value": "t_mapping(t_uint256,t_bool)"
					},
					"t_mapping(t_uint256,t_bool)": {
						"encoding": "mapping",
						"key": "t_uint256",
						"label": "mapping(uint256 => bool)",
						"numberOfBytes": "32",
						"value": "t_bool"
					},
					"t_struct(ProposalData)33_storage": {
						"encoding": "inplace",
						"label": "struct Governance.ProposalData",
						"members": [
							{
								"astId": 14,
								"contract": "bootcamp/week10/day_2_creating_a_DAO_voting.sol:Governance",
								"label": "voteBegins",
								"offset": 0,
								"slot": "0",
								"type": "t_uint256"
							},
							{
								"astId": 16,
								"contract": "bootcamp/week10/day_2_creating_a_DAO_voting.sol:Governance",
								"label": "voteEnds",
								"offset": 0,
								"slot": "1",
								"type": "t_uint256"
							},
							{
								"astId": 18,
								"contract": "bootcamp/week10/day_2_creating_a_DAO_voting.sol:Governance",
								"label": "votesFor",
								"offset": 0,
								"slot": "2",
								"type": "t_uint256"
							},
							{
								"astId": 20,
								"contract": "bootcamp/week10/day_2_creating_a_DAO_voting.sol:Governance",
								"label": "votesAgainst",
								"offset": 0,
								"slot": "3",
								"type": "t_uint256"
							},
							{
								"astId": 23,
								"contract": "bootcamp/week10/day_2_creating_a_DAO_voting.sol:Governance",
								"label": "propState",
								"offset": 0,
								"slot": "4",
								"type": "t_enum(ProposalState)9"
							},
							{
								"astId": 26,
								"contract": "bootcamp/week10/day_2_creating_a_DAO_voting.sol:Governance",
								"label": "propType",
								"offset": 1,
								"slot": "4",
								"type": "t_enum(ProposalType)12"
							},
							{
								"astId": 28,
								"contract": "bootcamp/week10/day_2_creating_a_DAO_voting.sol:Governance",
								"label": "recepient",
								"offset": 2,
								"slot": "4",
								"type": "t_address"
							},
							{
								"astId": 30,
								"contract": "bootcamp/week10/day_2_creating_a_DAO_voting.sol:Governance",
								"label": "ethGrant",
								"offset": 0,
								"slot": "5",
								"type": "t_uint256"
							},
							{
								"astId": 32,
								"contract": "bootcamp/week10/day_2_creating_a_DAO_voting.sol:Governance",
								"label": "newETHGrant",
								"offset": 0,
								"slot": "6",
								"type": "t_uint256"
							}
						],
						"numberOfBytes": "224"
					},
					"t_uint256": {
						"encoding": "inplace",
						"label": "uint256",
						"numberOfBytes": "32"
					}
				}
			},
			"userdoc": {
				"kind": "user",
				"methods": {},
				"version": 1
			}
		}
	}
}