{
	"bootcamp/week10/day_2_creating_a_DAO_voting.sol": {
		"Governance": {
			"abi": [
				{
					"inputs": [],
					"stateMutability": "payable",
					"type": "constructor"
				},
				{
					"inputs": [],
					"name": "availableETH",
					"outputs": [
						{
							"internalType": "uint256",
							"name": "",
							"type": "uint256"
						}
					],
					"stateMutability": "view",
					"type": "function"
				},
				{
					"inputs": [
						{
							"internalType": "uint256",
							"name": "propID",
							"type": "uint256"
						}
					],
					"name": "execute",
					"outputs": [],
					"stateMutability": "nonpayable",
					"type": "function"
				},
				{
					"inputs": [
						{
							"internalType": "uint256",
							"name": "propID",
							"type": "uint256"
						}
					],
					"name": "getProposal",
					"outputs": [
						{
							"components": [
								{
									"internalType": "uint256",
									"name": "voteBegins",
									"type": "uint256"
								},
								{
									"internalType": "uint256",
									"name": "voteEnds",
									"type": "uint256"
								},
								{
									"internalType": "uint256",
									"name": "votesFor",
									"type": "uint256"
								},
								{
									"internalType": "uint256",
									"name": "votesAgainst",
									"type": "uint256"
								},
								{
									"internalType": "enum Governance.ProposalState",
									"name": "propState",
									"type": "uint8"
								},
								{
									"internalType": "enum Governance.ProposalType",
									"name": "propType",
									"type": "uint8"
								},
								{
									"internalType": "address",
									"name": "recipient",
									"type": "address"
								},
								{
									"internalType": "uint256",
									"name": "ethGrant",
									"type": "uint256"
								},
								{
									"internalType": "uint256",
									"name": "newETHGrant",
									"type": "uint256"
								}
							],
							"internalType": "struct Governance.ProposalData",
							"name": "proposal",
							"type": "tuple"
						}
					],
					"stateMutability": "view",
					"type": "function"
				},
				{
					"inputs": [],
					"name": "getQuorum",
					"outputs": [
						{
							"internalType": "uint256",
							"name": "",
							"type": "uint256"
						}
					],
					"stateMutability": "view",
					"type": "function"
				},
				{
					"inputs": [
						{
							"internalType": "uint256",
							"name": "propID",
							"type": "uint256"
						}
					],
					"name": "getReviewTimeRemaining",
					"outputs": [
						{
							"internalType": "uint256",
							"name": "timeRemaining",
							"type": "uint256"
						}
					],
					"stateMutability": "view",
					"type": "function"
				},
				{
					"inputs": [],
					"name": "getTimestamp",
					"outputs": [
						{
							"internalType": "uint256",
							"name": "timestamp",
							"type": "uint256"
						}
					],
					"stateMutability": "view",
					"type": "function"
				},
				{
					"inputs": [],
					"name": "getTotalProposals",
					"outputs": [
						{
							"internalType": "uint256",
							"name": "totalProposals",
							"type": "uint256"
						}
					],
					"stateMutability": "view",
					"type": "function"
				},
				{
					"inputs": [
						{
							"internalType": "uint256",
							"name": "propID",
							"type": "uint256"
						}
					],
					"name": "getVoteTimeRemaining",
					"outputs": [
						{
							"internalType": "uint256",
							"name": "timeRemaining",
							"type": "uint256"
						}
					],
					"stateMutability": "view",
					"type": "function"
				},
				{
					"inputs": [],
					"name": "grantAmount",
					"outputs": [
						{
							"internalType": "uint256",
							"name": "",
							"type": "uint256"
						}
					],
					"stateMutability": "view",
					"type": "function"
				},
				{
					"inputs": [
						{
							"internalType": "address",
							"name": "",
							"type": "address"
						},
						{
							"internalType": "uint256",
							"name": "",
							"type": "uint256"
						}
					],
					"name": "memberHasVoted",
					"outputs": [
						{
							"internalType": "bool",
							"name": "",
							"type": "bool"
						}
					],
					"stateMutability": "view",
					"type": "function"
				},
				{
					"inputs": [
						{
							"internalType": "uint256",
							"name": "propID",
							"type": "uint256"
						}
					],
					"name": "state",
					"outputs": [
						{
							"internalType": "enum Governance.ProposalState",
							"name": "",
							"type": "uint8"
						}
					],
					"stateMutability": "view",
					"type": "function"
				},
				{
					"inputs": [
						{
							"internalType": "uint256",
							"name": "newGrantAmount",
							"type": "uint256"
						}
					],
					"name": "submitNewAmountChange",
					"outputs": [],
					"stateMutability": "nonpayable",
					"type": "function"
				},
				{
					"inputs": [
						{
							"internalType": "address",
							"name": "recipient",
							"type": "address"
						}
					],
					"name": "submitNewGrant",
					"outputs": [],
					"stateMutability": "nonpayable",
					"type": "function"
				},
				{
					"inputs": [
						{
							"internalType": "uint256",
							"name": "propID",
							"type": "uint256"
						}
					],
					"name": "voteAgainst",
					"outputs": [],
					"stateMutability": "nonpayable",
					"type": "function"
				},
				{
					"inputs": [
						{
							"internalType": "uint256",
							"name": "propID",
							"type": "uint256"
						}
					],
					"name": "voteFor",
					"outputs": [],
					"stateMutability": "nonpayable",
					"type": "function"
				}
			],
			"devdoc": {
				"kind": "dev",
				"methods": {},
				"version": 1
			},
			"evm": {
				"assembly": "    /* \"bootcamp/week10/day_2_creating_a_DAO_voting.sol\":58:21082  contract Governance {... */\n  mstore(0x40, 0x80)\n    /* \"bootcamp/week10/day_2_creating_a_DAO_voting.sol\":2190:2191  5 */\n  0x05\n    /* \"bootcamp/week10/day_2_creating_a_DAO_voting.sol\":2165:2191  uint256 private quorum = 5 */\n  0x01\n  sstore\n    /* \"bootcamp/week10/day_2_creating_a_DAO_voting.sol\":2567:2576  1 minutes */\n  0x3c\n    /* \"bootcamp/week10/day_2_creating_a_DAO_voting.sol\":2544:2576  uint256 reviewPeriod = 1 minutes */\n  0x03\n  sstore\n    /* \"bootcamp/week10/day_2_creating_a_DAO_voting.sol\":2702:2711  1 minutes */\n  0x3c\n    /* \"bootcamp/week10/day_2_creating_a_DAO_voting.sol\":2679:2711  uint256 votingPeriod = 1 minutes */\n  0x04\n  sstore\n    /* \"bootcamp/week10/day_2_creating_a_DAO_voting.sol\":2794:2801  1 ether */\n  0x0de0b6b3a7640000\n    /* \"bootcamp/week10/day_2_creating_a_DAO_voting.sol\":2765:2801  uint256 public grantAmount = 1 ether */\n  0x05\n  sstore\n    /* \"bootcamp/week10/day_2_creating_a_DAO_voting.sol\":2942:2951  msg.value */\n  callvalue\n    /* \"bootcamp/week10/day_2_creating_a_DAO_voting.sol\":2927:2939  availableETH */\n  0x06\n    /* \"bootcamp/week10/day_2_creating_a_DAO_voting.sol\":2927:2951  availableETH = msg.value */\n  dup2\n  swap1\n  sstore\n  pop\n    /* \"bootcamp/week10/day_2_creating_a_DAO_voting.sol\":58:21082  contract Governance {... */\n  dataSize(sub_0)\n  dup1\n  dataOffset(sub_0)\n  0x00\n  codecopy\n  0x00\n  return\nstop\n\nsub_0: assembly {\n        /* \"bootcamp/week10/day_2_creating_a_DAO_voting.sol\":58:21082  contract Governance {... */\n      mstore(0x40, 0x80)\n      callvalue\n      dup1\n      iszero\n      tag_1\n      jumpi\n      0x00\n      dup1\n      revert\n    tag_1:\n      pop\n      jumpi(tag_2, lt(calldatasize, 0x04))\n      shr(0xe0, calldataload(0x00))\n      dup1\n      0x9190ca40\n      gt\n      tag_18\n      jumpi\n      dup1\n      0xc7f758a8\n      gt\n      tag_19\n      jumpi\n      dup1\n      0xc7f758a8\n      eq\n      tag_14\n      jumpi\n      dup1\n      0xcf34fa2a\n      eq\n      tag_15\n      jumpi\n      dup1\n      0xfb6ff161\n      eq\n      tag_16\n      jumpi\n      dup1\n      0xfe0d94c1\n      eq\n      tag_17\n      jumpi\n      jump(tag_2)\n    tag_19:\n      dup1\n      0x9190ca40\n      eq\n      tag_10\n      jumpi\n      dup1\n      0x99a1fb5c\n      eq\n      tag_11\n      jumpi\n      dup1\n      0xa220e64a\n      eq\n      tag_12\n      jumpi\n      dup1\n      0xc26c12eb\n      eq\n      tag_13\n      jumpi\n      jump(tag_2)\n    tag_18:\n      dup1\n      0x52fdb2bb\n      gt\n      tag_20\n      jumpi\n      dup1\n      0x52fdb2bb\n      eq\n      tag_6\n      jumpi\n      dup1\n      0x7325d4cc\n      eq\n      tag_7\n      jumpi\n      dup1\n      0x750e443a\n      eq\n      tag_8\n      jumpi\n      dup1\n      0x86a50535\n      eq\n      tag_9\n      jumpi\n      jump(tag_2)\n    tag_20:\n      dup1\n      0x188ec356\n      eq\n      tag_3\n      jumpi\n      dup1\n      0x1a5007dd\n      eq\n      tag_4\n      jumpi\n      dup1\n      0x3e4f49e6\n      eq\n      tag_5\n      jumpi\n    tag_2:\n      0x00\n      dup1\n      revert\n        /* \"bootcamp/week10/day_2_creating_a_DAO_voting.sol\":19450:19552  function getTimestamp() public view returns(uint256 timestamp) {... */\n    tag_3:\n      tag_21\n      tag_22\n      jump\t// in\n    tag_21:\n      mload(0x40)\n      tag_23\n      swap2\n      swap1\n      tag_24\n      jump\t// in\n    tag_23:\n      mload(0x40)\n      dup1\n      swap2\n      sub\n      swap1\n      return\n        /* \"bootcamp/week10/day_2_creating_a_DAO_voting.sol\":18453:18576  function getTotalProposals() public view returns(uint256 totalProposals) {... */\n    tag_4:\n      tag_25\n      tag_26\n      jump\t// in\n    tag_25:\n      mload(0x40)\n      tag_27\n      swap2\n      swap1\n      tag_24\n      jump\t// in\n    tag_27:\n      mload(0x40)\n      dup1\n      swap2\n      sub\n      swap1\n      return\n        /* \"bootcamp/week10/day_2_creating_a_DAO_voting.sol\":3267:6562  function state(uint256 propID) public view returns(ProposalState) {... */\n    tag_5:\n      tag_28\n      0x04\n      dup1\n      calldatasize\n      sub\n      dup2\n      add\n      swap1\n      tag_29\n      swap2\n      swap1\n      tag_30\n      jump\t// in\n    tag_29:\n      tag_31\n      jump\t// in\n    tag_28:\n      mload(0x40)\n      tag_32\n      swap2\n      swap1\n      tag_33\n      jump\t// in\n    tag_32:\n      mload(0x40)\n      dup1\n      swap2\n      sub\n      swap1\n      return\n        /* \"bootcamp/week10/day_2_creating_a_DAO_voting.sol\":2765:2801  uint256 public grantAmount = 1 ether */\n    tag_6:\n      tag_34\n      tag_35\n      jump\t// in\n    tag_34:\n      mload(0x40)\n      tag_36\n      swap2\n      swap1\n      tag_24\n      jump\t// in\n    tag_36:\n      mload(0x40)\n      dup1\n      swap2\n      sub\n      swap1\n      return\n        /* \"bootcamp/week10/day_2_creating_a_DAO_voting.sol\":10995:11397  function submitNewAmountChange(uint256 newGrantAmount) public {... */\n    tag_7:\n      tag_37\n      0x04\n      dup1\n      calldatasize\n      sub\n      dup2\n      add\n      swap1\n      tag_38\n      swap2\n      swap1\n      tag_30\n      jump\t// in\n    tag_38:\n      tag_39\n      jump\t// in\n    tag_37:\n      stop\n        /* \"bootcamp/week10/day_2_creating_a_DAO_voting.sol\":12874:12980  function voteAgainst(uint256 propID) public voteChecks(propID) {... */\n    tag_8:\n      tag_40\n      0x04\n      dup1\n      calldatasize\n      sub\n      dup2\n      add\n      swap1\n      tag_41\n      swap2\n      swap1\n      tag_30\n      jump\t// in\n    tag_41:\n      tag_42\n      jump\t// in\n    tag_40:\n      stop\n        /* \"bootcamp/week10/day_2_creating_a_DAO_voting.sol\":12732:12833  function voteFor(uint256 propID) public voteChecks(propID) {... */\n    tag_9:\n      tag_43\n      0x04\n      dup1\n      calldatasize\n      sub\n      dup2\n      add\n      swap1\n      tag_44\n      swap2\n      swap1\n      tag_30\n      jump\t// in\n    tag_44:\n      tag_45\n      jump\t// in\n    tag_43:\n      stop\n        /* \"bootcamp/week10/day_2_creating_a_DAO_voting.sol\":20281:20993  function getVoteTimeRemaining(uint256 propID) public view returns(uint256 timeRemaining) {... */\n    tag_10:\n      tag_46\n      0x04\n      dup1\n      calldatasize\n      sub\n      dup2\n      add\n      swap1\n      tag_47\n      swap2\n      swap1\n      tag_30\n      jump\t// in\n    tag_47:\n      tag_48\n      jump\t// in\n    tag_46:\n      mload(0x40)\n      tag_49\n      swap2\n      swap1\n      tag_24\n      jump\t// in\n    tag_49:\n      mload(0x40)\n      dup1\n      swap2\n      sub\n      swap1\n      return\n        /* \"bootcamp/week10/day_2_creating_a_DAO_voting.sol\":19558:20275  function getReviewTimeRemaining(uint256 propID) public view returns(uint256 timeRemaining) {... */\n    tag_11:\n      tag_50\n      0x04\n      dup1\n      calldatasize\n      sub\n      dup2\n      add\n      swap1\n      tag_51\n      swap2\n      swap1\n      tag_30\n      jump\t// in\n    tag_51:\n      tag_52\n      jump\t// in\n    tag_50:\n      mload(0x40)\n      tag_53\n      swap2\n      swap1\n      tag_24\n      jump\t// in\n    tag_53:\n      mload(0x40)\n      dup1\n      swap2\n      sub\n      swap1\n      return\n        /* \"bootcamp/week10/day_2_creating_a_DAO_voting.sol\":2373:2439  mapping(address => mapping(uint256 => bool)) public memberHasVoted */\n    tag_12:\n      tag_54\n      0x04\n      dup1\n      calldatasize\n      sub\n      dup2\n      add\n      swap1\n      tag_55\n      swap2\n      swap1\n      tag_56\n      jump\t// in\n    tag_55:\n      tag_57\n      jump\t// in\n    tag_54:\n      mload(0x40)\n      tag_58\n      swap2\n      swap1\n      tag_59\n      jump\t// in\n    tag_58:\n      mload(0x40)\n      dup1\n      swap2\n      sub\n      swap1\n      return\n        /* \"bootcamp/week10/day_2_creating_a_DAO_voting.sol\":20999:21079  function getQuorum() public view returns(uint256) {... */\n    tag_13:\n      tag_60\n      tag_61\n      jump\t// in\n    tag_60:\n      mload(0x40)\n      tag_62\n      swap2\n      swap1\n      tag_24\n      jump\t// in\n    tag_62:\n      mload(0x40)\n      dup1\n      swap2\n      sub\n      swap1\n      return\n        /* \"bootcamp/week10/day_2_creating_a_DAO_voting.sol\":18923:19412  function getProposal(uint256 propID) public view returns(ProposalData memory proposal) {... */\n    tag_14:\n      tag_63\n      0x04\n      dup1\n      calldatasize\n      sub\n      dup2\n      add\n      swap1\n      tag_64\n      swap2\n      swap1\n      tag_30\n      jump\t// in\n    tag_64:\n      tag_65\n      jump\t// in\n    tag_63:\n      mload(0x40)\n      tag_66\n      swap2\n      swap1\n      tag_67\n      jump\t// in\n    tag_66:\n      mload(0x40)\n      dup1\n      swap2\n      sub\n      swap1\n      return\n        /* \"bootcamp/week10/day_2_creating_a_DAO_voting.sol\":10317:10939  function submitNewGrant(address recipient) public {... */\n    tag_15:\n      tag_68\n      0x04\n      dup1\n      calldatasize\n      sub\n      dup2\n      add\n      swap1\n      tag_69\n      swap2\n      swap1\n      tag_70\n      jump\t// in\n    tag_69:\n      tag_71\n      jump\t// in\n    tag_68:\n      stop\n        /* \"bootcamp/week10/day_2_creating_a_DAO_voting.sol\":2861:2888  uint256 public availableETH */\n    tag_16:\n      tag_72\n      tag_73\n      jump\t// in\n    tag_72:\n      mload(0x40)\n      tag_74\n      swap2\n      swap1\n      tag_24\n      jump\t// in\n    tag_74:\n      mload(0x40)\n      dup1\n      swap2\n      sub\n      swap1\n      return\n        /* \"bootcamp/week10/day_2_creating_a_DAO_voting.sol\":13077:14975  function execute(uint256 propID) public {... */\n    tag_17:\n      tag_75\n      0x04\n      dup1\n      calldatasize\n      sub\n      dup2\n      add\n      swap1\n      tag_76\n      swap2\n      swap1\n      tag_30\n      jump\t// in\n    tag_76:\n      tag_77\n      jump\t// in\n    tag_75:\n      stop\n        /* \"bootcamp/week10/day_2_creating_a_DAO_voting.sol\":19450:19552  function getTimestamp() public view returns(uint256 timestamp) {... */\n    tag_22:\n        /* \"bootcamp/week10/day_2_creating_a_DAO_voting.sol\":19494:19511  uint256 timestamp */\n      0x00\n        /* \"bootcamp/week10/day_2_creating_a_DAO_voting.sol\":19530:19545  block.timestamp */\n      timestamp\n        /* \"bootcamp/week10/day_2_creating_a_DAO_voting.sol\":19523:19545  return block.timestamp */\n      swap1\n      pop\n        /* \"bootcamp/week10/day_2_creating_a_DAO_voting.sol\":19450:19552  function getTimestamp() public view returns(uint256 timestamp) {... */\n      swap1\n      jump\t// out\n        /* \"bootcamp/week10/day_2_creating_a_DAO_voting.sol\":18453:18576  function getTotalProposals() public view returns(uint256 totalProposals) {... */\n    tag_26:\n        /* \"bootcamp/week10/day_2_creating_a_DAO_voting.sol\":18502:18524  uint256 totalProposals */\n      0x00\n        /* \"bootcamp/week10/day_2_creating_a_DAO_voting.sol\":18553:18562  proposals */\n      dup1\n        /* \"bootcamp/week10/day_2_creating_a_DAO_voting.sol\":18553:18569  proposals.length */\n      dup1\n      sload\n      swap1\n      pop\n        /* \"bootcamp/week10/day_2_creating_a_DAO_voting.sol\":18536:18569  totalProposals = proposals.length */\n      swap1\n      pop\n        /* \"bootcamp/week10/day_2_creating_a_DAO_voting.sol\":18453:18576  function getTotalProposals() public view returns(uint256 totalProposals) {... */\n      swap1\n      jump\t// out\n        /* \"bootcamp/week10/day_2_creating_a_DAO_voting.sol\":3267:6562  function state(uint256 propID) public view returns(ProposalState) {... */\n    tag_31:\n        /* \"bootcamp/week10/day_2_creating_a_DAO_voting.sol\":3318:3331  ProposalState */\n      0x00\n        /* \"bootcamp/week10/day_2_creating_a_DAO_voting.sol\":3704:3733  ProposalData storage proposal */\n      dup1\n        /* \"bootcamp/week10/day_2_creating_a_DAO_voting.sol\":3736:3745  proposals */\n      0x00\n        /* \"bootcamp/week10/day_2_creating_a_DAO_voting.sol\":3746:3752  propID */\n      dup4\n        /* \"bootcamp/week10/day_2_creating_a_DAO_voting.sol\":3736:3753  proposals[propID] */\n      dup2\n      sload\n      dup2\n      lt\n      tag_81\n      jumpi\n      tag_82\n      tag_83\n      jump\t// in\n    tag_82:\n    tag_81:\n      swap1\n      0x00\n      mstore\n      keccak256(0x00, 0x20)\n      swap1\n      0x07\n      mul\n      add\n        /* \"bootcamp/week10/day_2_creating_a_DAO_voting.sol\":3704:3753  ProposalData storage proposal = proposals[propID] */\n      swap1\n      pop\n        /* \"bootcamp/week10/day_2_creating_a_DAO_voting.sol\":3979:4002  ProposalState propState */\n      0x00\n        /* \"bootcamp/week10/day_2_creating_a_DAO_voting.sol\":4005:4013  proposal */\n      dup2\n        /* \"bootcamp/week10/day_2_creating_a_DAO_voting.sol\":4005:4023  proposal.propState */\n      0x04\n      add\n      0x00\n      swap1\n      sload\n      swap1\n      0x0100\n      exp\n      swap1\n      div\n      0xff\n      and\n        /* \"bootcamp/week10/day_2_creating_a_DAO_voting.sol\":3979:4023  ProposalState propState = proposal.propState */\n      swap1\n      pop\n        /* \"bootcamp/week10/day_2_creating_a_DAO_voting.sol\":4153:4177  ProposalState.Unassigned */\n      0x00\n        /* \"bootcamp/week10/day_2_creating_a_DAO_voting.sol\":4140:4177  propState != ProposalState.Unassigned */\n      0x06\n      dup2\n      gt\n      iszero\n      tag_85\n      jumpi\n      tag_86\n      tag_87\n      jump\t// in\n    tag_86:\n    tag_85:\n        /* \"bootcamp/week10/day_2_creating_a_DAO_voting.sol\":4140:4149  propState */\n      dup2\n        /* \"bootcamp/week10/day_2_creating_a_DAO_voting.sol\":4140:4177  propState != ProposalState.Unassigned */\n      0x06\n      dup2\n      gt\n      iszero\n      tag_88\n      jumpi\n      tag_89\n      tag_87\n      jump\t// in\n    tag_89:\n    tag_88:\n      eq\n        /* \"bootcamp/week10/day_2_creating_a_DAO_voting.sol\":4136:4310  if (propState != ProposalState.Unassigned) {... */\n      tag_90\n      jumpi\n        /* \"bootcamp/week10/day_2_creating_a_DAO_voting.sol\":4290:4299  propState */\n      dup1\n        /* \"bootcamp/week10/day_2_creating_a_DAO_voting.sol\":4283:4299  return propState */\n      swap3\n      pop\n      pop\n      pop\n      jump(tag_80)\n        /* \"bootcamp/week10/day_2_creating_a_DAO_voting.sol\":4136:4310  if (propState != ProposalState.Unassigned) {... */\n    tag_90:\n        /* \"bootcamp/week10/day_2_creating_a_DAO_voting.sol\":4509:4527  uint256 voteBegins */\n      0x00\n        /* \"bootcamp/week10/day_2_creating_a_DAO_voting.sol\":4530:4538  proposal */\n      dup3\n        /* \"bootcamp/week10/day_2_creating_a_DAO_voting.sol\":4530:4549  proposal.voteBegins */\n      0x00\n      add\n      sload\n        /* \"bootcamp/week10/day_2_creating_a_DAO_voting.sol\":4509:4549  uint256 voteBegins = proposal.voteBegins */\n      swap1\n      pop\n        /* \"bootcamp/week10/day_2_creating_a_DAO_voting.sol\":4648:4649  0 */\n      0x00\n        /* \"bootcamp/week10/day_2_creating_a_DAO_voting.sol\":4634:4644  voteBegins */\n      dup2\n        /* \"bootcamp/week10/day_2_creating_a_DAO_voting.sol\":4634:4649  voteBegins == 0 */\n      sub\n        /* \"bootcamp/week10/day_2_creating_a_DAO_voting.sol\":4630:4710  if (voteBegins == 0) {... */\n      tag_91\n      jumpi\n        /* \"bootcamp/week10/day_2_creating_a_DAO_voting.sol\":4678:4698  revert(\"Invalid ID\") */\n      mload(0x40)\n      0x08c379a000000000000000000000000000000000000000000000000000000000\n      dup2\n      mstore\n      0x04\n      add\n      tag_92\n      swap1\n      tag_93\n      jump\t// in\n    tag_92:\n      mload(0x40)\n      dup1\n      swap2\n      sub\n      swap1\n      revert\n        /* \"bootcamp/week10/day_2_creating_a_DAO_voting.sol\":4630:4710  if (voteBegins == 0) {... */\n    tag_91:\n        /* \"bootcamp/week10/day_2_creating_a_DAO_voting.sol\":5199:5214  block.timestamp */\n      timestamp\n        /* \"bootcamp/week10/day_2_creating_a_DAO_voting.sol\":5185:5195  voteBegins */\n      dup2\n        /* \"bootcamp/week10/day_2_creating_a_DAO_voting.sol\":5185:5214  voteBegins >= block.timestamp */\n      lt\n        /* \"bootcamp/week10/day_2_creating_a_DAO_voting.sol\":5181:5318  if (voteBegins >= block.timestamp) {... */\n      tag_94\n      jumpi\n        /* \"bootcamp/week10/day_2_creating_a_DAO_voting.sol\":5286:5307  ProposalState.Pending */\n      0x01\n        /* \"bootcamp/week10/day_2_creating_a_DAO_voting.sol\":5279:5307  return ProposalState.Pending */\n      swap4\n      pop\n      pop\n      pop\n      pop\n      jump(tag_80)\n        /* \"bootcamp/week10/day_2_creating_a_DAO_voting.sol\":5181:5318  if (voteBegins >= block.timestamp) {... */\n    tag_94:\n        /* \"bootcamp/week10/day_2_creating_a_DAO_voting.sol\":5588:5604  uint256 voteEnds */\n      0x00\n        /* \"bootcamp/week10/day_2_creating_a_DAO_voting.sol\":5607:5615  proposal */\n      dup4\n        /* \"bootcamp/week10/day_2_creating_a_DAO_voting.sol\":5607:5624  proposal.voteEnds */\n      0x01\n      add\n      sload\n        /* \"bootcamp/week10/day_2_creating_a_DAO_voting.sol\":5588:5624  uint256 voteEnds = proposal.voteEnds */\n      swap1\n      pop\n        /* \"bootcamp/week10/day_2_creating_a_DAO_voting.sol\":5977:5992  block.timestamp */\n      timestamp\n        /* \"bootcamp/week10/day_2_creating_a_DAO_voting.sol\":5965:5973  voteEnds */\n      dup2\n        /* \"bootcamp/week10/day_2_creating_a_DAO_voting.sol\":5965:5992  voteEnds >= block.timestamp */\n      lt\n        /* \"bootcamp/week10/day_2_creating_a_DAO_voting.sol\":5961:6094  if (voteEnds >= block.timestamp) {... */\n      tag_95\n      jumpi\n        /* \"bootcamp/week10/day_2_creating_a_DAO_voting.sol\":6063:6083  ProposalState.Active */\n      0x02\n        /* \"bootcamp/week10/day_2_creating_a_DAO_voting.sol\":6056:6083  return ProposalState.Active */\n      swap5\n      pop\n      pop\n      pop\n      pop\n      pop\n      jump(tag_80)\n        /* \"bootcamp/week10/day_2_creating_a_DAO_voting.sol\":5961:6094  if (voteEnds >= block.timestamp) {... */\n    tag_95:\n        /* \"bootcamp/week10/day_2_creating_a_DAO_voting.sol\":6535:6555  ProposalState.Queued */\n      0x03\n        /* \"bootcamp/week10/day_2_creating_a_DAO_voting.sol\":6528:6555  return ProposalState.Queued */\n      swap5\n      pop\n      pop\n      pop\n      pop\n      pop\n        /* \"bootcamp/week10/day_2_creating_a_DAO_voting.sol\":3267:6562  function state(uint256 propID) public view returns(ProposalState) {... */\n    tag_80:\n      swap2\n      swap1\n      pop\n      jump\t// out\n        /* \"bootcamp/week10/day_2_creating_a_DAO_voting.sol\":2765:2801  uint256 public grantAmount = 1 ether */\n    tag_35:\n      sload(0x05)\n      dup2\n      jump\t// out\n        /* \"bootcamp/week10/day_2_creating_a_DAO_voting.sol\":10995:11397  function submitNewAmountChange(uint256 newGrantAmount) public {... */\n    tag_39:\n        /* \"bootcamp/week10/day_2_creating_a_DAO_voting.sol\":11092:11093  0 */\n      0x00\n        /* \"bootcamp/week10/day_2_creating_a_DAO_voting.sol\":11075:11089  newGrantAmount */\n      dup2\n        /* \"bootcamp/week10/day_2_creating_a_DAO_voting.sol\":11075:11093  newGrantAmount > 0 */\n      gt\n        /* \"bootcamp/week10/day_2_creating_a_DAO_voting.sol\":11067:11112  require(newGrantAmount > 0, \"Invalid amount\") */\n      tag_97\n      jumpi\n      mload(0x40)\n      0x08c379a000000000000000000000000000000000000000000000000000000000\n      dup2\n      mstore\n      0x04\n      add\n      tag_98\n      swap1\n      tag_99\n      jump\t// in\n    tag_98:\n      mload(0x40)\n      dup1\n      swap2\n      sub\n      swap1\n      revert\n    tag_97:\n        /* \"bootcamp/week10/day_2_creating_a_DAO_voting.sol\":11308:11384  _submitProposal(ProposalType.ModifyGrantSize, address(0), 0, newGrantAmount) */\n      tag_100\n        /* \"bootcamp/week10/day_2_creating_a_DAO_voting.sol\":11324:11352  ProposalType.ModifyGrantSize */\n      0x01\n        /* \"bootcamp/week10/day_2_creating_a_DAO_voting.sol\":11362:11363  0 */\n      0x00\n        /* \"bootcamp/week10/day_2_creating_a_DAO_voting.sol\":11366:11367  0 */\n      dup1\n        /* \"bootcamp/week10/day_2_creating_a_DAO_voting.sol\":11369:11383  newGrantAmount */\n      dup5\n        /* \"bootcamp/week10/day_2_creating_a_DAO_voting.sol\":11308:11323  _submitProposal */\n      tag_101\n        /* \"bootcamp/week10/day_2_creating_a_DAO_voting.sol\":11308:11384  _submitProposal(ProposalType.ModifyGrantSize, address(0), 0, newGrantAmount) */\n      jump\t// in\n    tag_100:\n        /* \"bootcamp/week10/day_2_creating_a_DAO_voting.sol\":10995:11397  function submitNewAmountChange(uint256 newGrantAmount) public {... */\n      pop\n      jump\t// out\n        /* \"bootcamp/week10/day_2_creating_a_DAO_voting.sol\":12874:12980  function voteAgainst(uint256 propID) public voteChecks(propID) {... */\n    tag_42:\n        /* \"bootcamp/week10/day_2_creating_a_DAO_voting.sol\":12929:12935  propID */\n      dup1\n        /* \"bootcamp/week10/day_2_creating_a_DAO_voting.sol\":11634:11654  ProposalState.Active */\n      0x02\n        /* \"bootcamp/week10/day_2_creating_a_DAO_voting.sol\":11617:11654  state(propID) == ProposalState.Active */\n      0x06\n      dup2\n      gt\n      iszero\n      tag_103\n      jumpi\n      tag_104\n      tag_87\n      jump\t// in\n    tag_104:\n    tag_103:\n        /* \"bootcamp/week10/day_2_creating_a_DAO_voting.sol\":11617:11630  state(propID) */\n      tag_105\n        /* \"bootcamp/week10/day_2_creating_a_DAO_voting.sol\":11623:11629  propID */\n      dup3\n        /* \"bootcamp/week10/day_2_creating_a_DAO_voting.sol\":11617:11622  state */\n      tag_31\n        /* \"bootcamp/week10/day_2_creating_a_DAO_voting.sol\":11617:11630  state(propID) */\n      jump\t// in\n    tag_105:\n        /* \"bootcamp/week10/day_2_creating_a_DAO_voting.sol\":11617:11654  state(propID) == ProposalState.Active */\n      0x06\n      dup2\n      gt\n      iszero\n      tag_106\n      jumpi\n      tag_107\n      tag_87\n      jump\t// in\n    tag_107:\n    tag_106:\n      eq\n        /* \"bootcamp/week10/day_2_creating_a_DAO_voting.sol\":11609:11676  require(state(propID) == ProposalState.Active, \"Proposal Inactive\") */\n      tag_108\n      jumpi\n      mload(0x40)\n      0x08c379a000000000000000000000000000000000000000000000000000000000\n      dup2\n      mstore\n      0x04\n      add\n      tag_109\n      swap1\n      tag_110\n      jump\t// in\n    tag_109:\n      mload(0x40)\n      dup1\n      swap2\n      sub\n      swap1\n      revert\n    tag_108:\n        /* \"bootcamp/week10/day_2_creating_a_DAO_voting.sol\":11784:11789  false */\n      0x00\n        /* \"bootcamp/week10/day_2_creating_a_DAO_voting.sol\":11746:11789  memberHasVoted[msg.sender][propID] == false */\n      iszero\n      iszero\n        /* \"bootcamp/week10/day_2_creating_a_DAO_voting.sol\":11746:11760  memberHasVoted */\n      0x02\n        /* \"bootcamp/week10/day_2_creating_a_DAO_voting.sol\":11746:11772  memberHasVoted[msg.sender] */\n      0x00\n        /* \"bootcamp/week10/day_2_creating_a_DAO_voting.sol\":11761:11771  msg.sender */\n      caller\n        /* \"bootcamp/week10/day_2_creating_a_DAO_voting.sol\":11746:11772  memberHasVoted[msg.sender] */\n      0xffffffffffffffffffffffffffffffffffffffff\n      and\n      0xffffffffffffffffffffffffffffffffffffffff\n      and\n      dup2\n      mstore\n      0x20\n      add\n      swap1\n      dup2\n      mstore\n      0x20\n      add\n      0x00\n      keccak256\n        /* \"bootcamp/week10/day_2_creating_a_DAO_voting.sol\":11746:11780  memberHasVoted[msg.sender][propID] */\n      0x00\n        /* \"bootcamp/week10/day_2_creating_a_DAO_voting.sol\":11773:11779  propID */\n      dup4\n        /* \"bootcamp/week10/day_2_creating_a_DAO_voting.sol\":11746:11780  memberHasVoted[msg.sender][propID] */\n      dup2\n      mstore\n      0x20\n      add\n      swap1\n      dup2\n      mstore\n      0x20\n      add\n      0x00\n      keccak256\n      0x00\n      swap1\n      sload\n      swap1\n      0x0100\n      exp\n      swap1\n      div\n      0xff\n      and\n        /* \"bootcamp/week10/day_2_creating_a_DAO_voting.sol\":11746:11789  memberHasVoted[msg.sender][propID] == false */\n      iszero\n      iszero\n      eq\n        /* \"bootcamp/week10/day_2_creating_a_DAO_voting.sol\":11738:11814  require(memberHasVoted[msg.sender][propID] == false, \"Member already voted\") */\n      tag_111\n      jumpi\n      mload(0x40)\n      0x08c379a000000000000000000000000000000000000000000000000000000000\n      dup2\n      mstore\n      0x04\n      add\n      tag_112\n      swap1\n      tag_113\n      jump\t// in\n    tag_112:\n      mload(0x40)\n      dup1\n      swap2\n      sub\n      swap1\n      revert\n    tag_111:\n        /* \"bootcamp/week10/day_2_creating_a_DAO_voting.sol\":12947:12973  _submitVote(propID, false) */\n      tag_115\n        /* \"bootcamp/week10/day_2_creating_a_DAO_voting.sol\":12959:12965  propID */\n      dup3\n        /* \"bootcamp/week10/day_2_creating_a_DAO_voting.sol\":12967:12972  false */\n      0x00\n        /* \"bootcamp/week10/day_2_creating_a_DAO_voting.sol\":12947:12958  _submitVote */\n      tag_116\n        /* \"bootcamp/week10/day_2_creating_a_DAO_voting.sol\":12947:12973  _submitVote(propID, false) */\n      jump\t// in\n    tag_115:\n        /* \"bootcamp/week10/day_2_creating_a_DAO_voting.sol\":12874:12980  function voteAgainst(uint256 propID) public voteChecks(propID) {... */\n      pop\n      pop\n      jump\t// out\n        /* \"bootcamp/week10/day_2_creating_a_DAO_voting.sol\":12732:12833  function voteFor(uint256 propID) public voteChecks(propID) {... */\n    tag_45:\n        /* \"bootcamp/week10/day_2_creating_a_DAO_voting.sol\":12783:12789  propID */\n      dup1\n        /* \"bootcamp/week10/day_2_creating_a_DAO_voting.sol\":11634:11654  ProposalState.Active */\n      0x02\n        /* \"bootcamp/week10/day_2_creating_a_DAO_voting.sol\":11617:11654  state(propID) == ProposalState.Active */\n      0x06\n      dup2\n      gt\n      iszero\n      tag_118\n      jumpi\n      tag_119\n      tag_87\n      jump\t// in\n    tag_119:\n    tag_118:\n        /* \"bootcamp/week10/day_2_creating_a_DAO_voting.sol\":11617:11630  state(propID) */\n      tag_120\n        /* \"bootcamp/week10/day_2_creating_a_DAO_voting.sol\":11623:11629  propID */\n      dup3\n        /* \"bootcamp/week10/day_2_creating_a_DAO_voting.sol\":11617:11622  state */\n      tag_31\n        /* \"bootcamp/week10/day_2_creating_a_DAO_voting.sol\":11617:11630  state(propID) */\n      jump\t// in\n    tag_120:\n        /* \"bootcamp/week10/day_2_creating_a_DAO_voting.sol\":11617:11654  state(propID) == ProposalState.Active */\n      0x06\n      dup2\n      gt\n      iszero\n      tag_121\n      jumpi\n      tag_122\n      tag_87\n      jump\t// in\n    tag_122:\n    tag_121:\n      eq\n        /* \"bootcamp/week10/day_2_creating_a_DAO_voting.sol\":11609:11676  require(state(propID) == ProposalState.Active, \"Proposal Inactive\") */\n      tag_123\n      jumpi\n      mload(0x40)\n      0x08c379a000000000000000000000000000000000000000000000000000000000\n      dup2\n      mstore\n      0x04\n      add\n      tag_124\n      swap1\n      tag_110\n      jump\t// in\n    tag_124:\n      mload(0x40)\n      dup1\n      swap2\n      sub\n      swap1\n      revert\n    tag_123:\n        /* \"bootcamp/week10/day_2_creating_a_DAO_voting.sol\":11784:11789  false */\n      0x00\n        /* \"bootcamp/week10/day_2_creating_a_DAO_voting.sol\":11746:11789  memberHasVoted[msg.sender][propID] == false */\n      iszero\n      iszero\n        /* \"bootcamp/week10/day_2_creating_a_DAO_voting.sol\":11746:11760  memberHasVoted */\n      0x02\n        /* \"bootcamp/week10/day_2_creating_a_DAO_voting.sol\":11746:11772  memberHasVoted[msg.sender] */\n      0x00\n        /* \"bootcamp/week10/day_2_creating_a_DAO_voting.sol\":11761:11771  msg.sender */\n      caller\n        /* \"bootcamp/week10/day_2_creating_a_DAO_voting.sol\":11746:11772  memberHasVoted[msg.sender] */\n      0xffffffffffffffffffffffffffffffffffffffff\n      and\n      0xffffffffffffffffffffffffffffffffffffffff\n      and\n      dup2\n      mstore\n      0x20\n      add\n      swap1\n      dup2\n      mstore\n      0x20\n      add\n      0x00\n      keccak256\n        /* \"bootcamp/week10/day_2_creating_a_DAO_voting.sol\":11746:11780  memberHasVoted[msg.sender][propID] */\n      0x00\n        /* \"bootcamp/week10/day_2_creating_a_DAO_voting.sol\":11773:11779  propID */\n      dup4\n        /* \"bootcamp/week10/day_2_creating_a_DAO_voting.sol\":11746:11780  memberHasVoted[msg.sender][propID] */\n      dup2\n      mstore\n      0x20\n      add\n      swap1\n      dup2\n      mstore\n      0x20\n      add\n      0x00\n      keccak256\n      0x00\n      swap1\n      sload\n      swap1\n      0x0100\n      exp\n      swap1\n      div\n      0xff\n      and\n        /* \"bootcamp/week10/day_2_creating_a_DAO_voting.sol\":11746:11789  memberHasVoted[msg.sender][propID] == false */\n      iszero\n      iszero\n      eq\n        /* \"bootcamp/week10/day_2_creating_a_DAO_voting.sol\":11738:11814  require(memberHasVoted[msg.sender][propID] == false, \"Member already voted\") */\n      tag_125\n      jumpi\n      mload(0x40)\n      0x08c379a000000000000000000000000000000000000000000000000000000000\n      dup2\n      mstore\n      0x04\n      add\n      tag_126\n      swap1\n      tag_113\n      jump\t// in\n    tag_126:\n      mload(0x40)\n      dup1\n      swap2\n      sub\n      swap1\n      revert\n    tag_125:\n        /* \"bootcamp/week10/day_2_creating_a_DAO_voting.sol\":12801:12826  _submitVote(propID, true) */\n      tag_128\n        /* \"bootcamp/week10/day_2_creating_a_DAO_voting.sol\":12813:12819  propID */\n      dup3\n        /* \"bootcamp/week10/day_2_creating_a_DAO_voting.sol\":12821:12825  true */\n      0x01\n        /* \"bootcamp/week10/day_2_creating_a_DAO_voting.sol\":12801:12812  _submitVote */\n      tag_116\n        /* \"bootcamp/week10/day_2_creating_a_DAO_voting.sol\":12801:12826  _submitVote(propID, true) */\n      jump\t// in\n    tag_128:\n        /* \"bootcamp/week10/day_2_creating_a_DAO_voting.sol\":12732:12833  function voteFor(uint256 propID) public voteChecks(propID) {... */\n      pop\n      pop\n      jump\t// out\n        /* \"bootcamp/week10/day_2_creating_a_DAO_voting.sol\":20281:20993  function getVoteTimeRemaining(uint256 propID) public view returns(uint256 timeRemaining) {... */\n    tag_48:\n        /* \"bootcamp/week10/day_2_creating_a_DAO_voting.sol\":20347:20368  uint256 timeRemaining */\n      0x00\n        /* \"bootcamp/week10/day_2_creating_a_DAO_voting.sol\":20733:20762  ProposalData storage proposal */\n      dup1\n        /* \"bootcamp/week10/day_2_creating_a_DAO_voting.sol\":20765:20774  proposals */\n      0x00\n        /* \"bootcamp/week10/day_2_creating_a_DAO_voting.sol\":20775:20781  propID */\n      dup4\n        /* \"bootcamp/week10/day_2_creating_a_DAO_voting.sol\":20765:20782  proposals[propID] */\n      dup2\n      sload\n      dup2\n      lt\n      tag_130\n      jumpi\n      tag_131\n      tag_83\n      jump\t// in\n    tag_131:\n    tag_130:\n      swap1\n      0x00\n      mstore\n      keccak256(0x00, 0x20)\n      swap1\n      0x07\n      mul\n      add\n        /* \"bootcamp/week10/day_2_creating_a_DAO_voting.sol\":20733:20782  ProposalData storage proposal = proposals[propID] */\n      swap1\n      pop\n        /* \"bootcamp/week10/day_2_creating_a_DAO_voting.sol\":20814:20834  ProposalState.Active */\n      0x02\n        /* \"bootcamp/week10/day_2_creating_a_DAO_voting.sol\":20797:20834  state(propID) == ProposalState.Active */\n      0x06\n      dup2\n      gt\n      iszero\n      tag_133\n      jumpi\n      tag_134\n      tag_87\n      jump\t// in\n    tag_134:\n    tag_133:\n        /* \"bootcamp/week10/day_2_creating_a_DAO_voting.sol\":20797:20810  state(propID) */\n      tag_135\n        /* \"bootcamp/week10/day_2_creating_a_DAO_voting.sol\":20803:20809  propID */\n      dup5\n        /* \"bootcamp/week10/day_2_creating_a_DAO_voting.sol\":20797:20802  state */\n      tag_31\n        /* \"bootcamp/week10/day_2_creating_a_DAO_voting.sol\":20797:20810  state(propID) */\n      jump\t// in\n    tag_135:\n        /* \"bootcamp/week10/day_2_creating_a_DAO_voting.sol\":20797:20834  state(propID) == ProposalState.Active */\n      0x06\n      dup2\n      gt\n      iszero\n      tag_136\n      jumpi\n      tag_137\n      tag_87\n      jump\t// in\n    tag_137:\n    tag_136:\n      sub\n        /* \"bootcamp/week10/day_2_creating_a_DAO_voting.sol\":20794:20987  if(state(propID) == ProposalState.Active) {... */\n      tag_138\n      jumpi\n        /* \"bootcamp/week10/day_2_creating_a_DAO_voting.sol\":20923:20937  getTimestamp() */\n      tag_139\n        /* \"bootcamp/week10/day_2_creating_a_DAO_voting.sol\":20923:20935  getTimestamp */\n      tag_22\n        /* \"bootcamp/week10/day_2_creating_a_DAO_voting.sol\":20923:20937  getTimestamp() */\n      jump\t// in\n    tag_139:\n        /* \"bootcamp/week10/day_2_creating_a_DAO_voting.sol\":20903:20911  proposal */\n      dup2\n        /* \"bootcamp/week10/day_2_creating_a_DAO_voting.sol\":20903:20920  proposal.voteEnds */\n      0x01\n      add\n      sload\n        /* \"bootcamp/week10/day_2_creating_a_DAO_voting.sol\":20903:20937  proposal.voteEnds - getTimestamp() */\n      tag_140\n      swap2\n      swap1\n      tag_141\n      jump\t// in\n    tag_140:\n        /* \"bootcamp/week10/day_2_creating_a_DAO_voting.sol\":20896:20937  return proposal.voteEnds - getTimestamp() */\n      swap2\n      pop\n      pop\n      jump(tag_129)\n        /* \"bootcamp/week10/day_2_creating_a_DAO_voting.sol\":20794:20987  if(state(propID) == ProposalState.Active) {... */\n    tag_138:\n        /* \"bootcamp/week10/day_2_creating_a_DAO_voting.sol\":20975:20976  0 */\n      0x00\n        /* \"bootcamp/week10/day_2_creating_a_DAO_voting.sol\":20968:20976  return 0 */\n      swap2\n      pop\n      pop\n        /* \"bootcamp/week10/day_2_creating_a_DAO_voting.sol\":20281:20993  function getVoteTimeRemaining(uint256 propID) public view returns(uint256 timeRemaining) {... */\n    tag_129:\n      swap2\n      swap1\n      pop\n      jump\t// out\n        /* \"bootcamp/week10/day_2_creating_a_DAO_voting.sol\":19558:20275  function getReviewTimeRemaining(uint256 propID) public view returns(uint256 timeRemaining) {... */\n    tag_52:\n        /* \"bootcamp/week10/day_2_creating_a_DAO_voting.sol\":19626:19647  uint256 timeRemaining */\n      0x00\n        /* \"bootcamp/week10/day_2_creating_a_DAO_voting.sol\":20012:20041  ProposalData storage proposal */\n      dup1\n        /* \"bootcamp/week10/day_2_creating_a_DAO_voting.sol\":20044:20053  proposals */\n      0x00\n        /* \"bootcamp/week10/day_2_creating_a_DAO_voting.sol\":20054:20060  propID */\n      dup4\n        /* \"bootcamp/week10/day_2_creating_a_DAO_voting.sol\":20044:20061  proposals[propID] */\n      dup2\n      sload\n      dup2\n      lt\n      tag_144\n      jumpi\n      tag_145\n      tag_83\n      jump\t// in\n    tag_145:\n    tag_144:\n      swap1\n      0x00\n      mstore\n      keccak256(0x00, 0x20)\n      swap1\n      0x07\n      mul\n      add\n        /* \"bootcamp/week10/day_2_creating_a_DAO_voting.sol\":20012:20061  ProposalData storage proposal = proposals[propID] */\n      swap1\n      pop\n        /* \"bootcamp/week10/day_2_creating_a_DAO_voting.sol\":20093:20114  ProposalState.Pending */\n      0x01\n        /* \"bootcamp/week10/day_2_creating_a_DAO_voting.sol\":20076:20114  state(propID) == ProposalState.Pending */\n      0x06\n      dup2\n      gt\n      iszero\n      tag_147\n      jumpi\n      tag_148\n      tag_87\n      jump\t// in\n    tag_148:\n    tag_147:\n        /* \"bootcamp/week10/day_2_creating_a_DAO_voting.sol\":20076:20089  state(propID) */\n      tag_149\n        /* \"bootcamp/week10/day_2_creating_a_DAO_voting.sol\":20082:20088  propID */\n      dup5\n        /* \"bootcamp/week10/day_2_creating_a_DAO_voting.sol\":20076:20081  state */\n      tag_31\n        /* \"bootcamp/week10/day_2_creating_a_DAO_voting.sol\":20076:20089  state(propID) */\n      jump\t// in\n    tag_149:\n        /* \"bootcamp/week10/day_2_creating_a_DAO_voting.sol\":20076:20114  state(propID) == ProposalState.Pending */\n      0x06\n      dup2\n      gt\n      iszero\n      tag_150\n      jumpi\n      tag_151\n      tag_87\n      jump\t// in\n    tag_151:\n    tag_150:\n      sub\n        /* \"bootcamp/week10/day_2_creating_a_DAO_voting.sol\":20073:20269  if(state(propID) == ProposalState.Pending) {... */\n      tag_152\n      jumpi\n        /* \"bootcamp/week10/day_2_creating_a_DAO_voting.sol\":20205:20219  getTimestamp() */\n      tag_153\n        /* \"bootcamp/week10/day_2_creating_a_DAO_voting.sol\":20205:20217  getTimestamp */\n      tag_22\n        /* \"bootcamp/week10/day_2_creating_a_DAO_voting.sol\":20205:20219  getTimestamp() */\n      jump\t// in\n    tag_153:\n        /* \"bootcamp/week10/day_2_creating_a_DAO_voting.sol\":20183:20191  proposal */\n      dup2\n        /* \"bootcamp/week10/day_2_creating_a_DAO_voting.sol\":20183:20202  proposal.voteBegins */\n      0x00\n      add\n      sload\n        /* \"bootcamp/week10/day_2_creating_a_DAO_voting.sol\":20183:20219  proposal.voteBegins - getTimestamp() */\n      tag_154\n      swap2\n      swap1\n      tag_141\n      jump\t// in\n    tag_154:\n        /* \"bootcamp/week10/day_2_creating_a_DAO_voting.sol\":20176:20219  return proposal.voteBegins - getTimestamp() */\n      swap2\n      pop\n      pop\n      jump(tag_143)\n        /* \"bootcamp/week10/day_2_creating_a_DAO_voting.sol\":20073:20269  if(state(propID) == ProposalState.Pending) {... */\n    tag_152:\n        /* \"bootcamp/week10/day_2_creating_a_DAO_voting.sol\":20257:20258  0 */\n      0x00\n        /* \"bootcamp/week10/day_2_creating_a_DAO_voting.sol\":20250:20258  return 0 */\n      swap2\n      pop\n      pop\n        /* \"bootcamp/week10/day_2_creating_a_DAO_voting.sol\":19558:20275  function getReviewTimeRemaining(uint256 propID) public view returns(uint256 timeRemaining) {... */\n    tag_143:\n      swap2\n      swap1\n      pop\n      jump\t// out\n        /* \"bootcamp/week10/day_2_creating_a_DAO_voting.sol\":2373:2439  mapping(address => mapping(uint256 => bool)) public memberHasVoted */\n    tag_57:\n      mstore(0x20, 0x02)\n      dup2\n      0x00\n      mstore\n      mstore(0x20, keccak256(0x00, 0x40))\n      dup1\n      0x00\n      mstore\n      keccak256(0x00, 0x40)\n      0x00\n      swap2\n      pop\n      swap2\n      pop\n      swap1\n      sload\n      swap1\n      0x0100\n      exp\n      swap1\n      div\n      0xff\n      and\n      dup2\n      jump\t// out\n        /* \"bootcamp/week10/day_2_creating_a_DAO_voting.sol\":20999:21079  function getQuorum() public view returns(uint256) {... */\n    tag_61:\n        /* \"bootcamp/week10/day_2_creating_a_DAO_voting.sol\":21040:21047  uint256 */\n      0x00\n        /* \"bootcamp/week10/day_2_creating_a_DAO_voting.sol\":21066:21072  quorum */\n      sload(0x01)\n        /* \"bootcamp/week10/day_2_creating_a_DAO_voting.sol\":21059:21072  return quorum */\n      swap1\n      pop\n        /* \"bootcamp/week10/day_2_creating_a_DAO_voting.sol\":20999:21079  function getQuorum() public view returns(uint256) {... */\n      swap1\n      jump\t// out\n        /* \"bootcamp/week10/day_2_creating_a_DAO_voting.sol\":18923:19412  function getProposal(uint256 propID) public view returns(ProposalData memory proposal) {... */\n    tag_65:\n        /* \"bootcamp/week10/day_2_creating_a_DAO_voting.sol\":18980:19008  ProposalData memory proposal */\n      tag_157\n      tag_158\n      jump\t// in\n    tag_157:\n        /* \"bootcamp/week10/day_2_creating_a_DAO_voting.sol\":19137:19146  proposals */\n      0x00\n        /* \"bootcamp/week10/day_2_creating_a_DAO_voting.sol\":19147:19153  propID */\n      dup3\n        /* \"bootcamp/week10/day_2_creating_a_DAO_voting.sol\":19137:19154  proposals[propID] */\n      dup2\n      sload\n      dup2\n      lt\n      tag_160\n      jumpi\n      tag_161\n      tag_83\n      jump\t// in\n    tag_161:\n    tag_160:\n      swap1\n      0x00\n      mstore\n      keccak256(0x00, 0x20)\n      swap1\n      0x07\n      mul\n      add\n        /* \"bootcamp/week10/day_2_creating_a_DAO_voting.sol\":19126:19154  proposal = proposals[propID] */\n      mload(0x40)\n      dup1\n      0x0120\n      add\n      0x40\n      mstore\n      swap1\n      dup2\n      0x00\n      dup3\n      add\n      sload\n      dup2\n      mstore\n      0x20\n      add\n      0x01\n      dup3\n      add\n      sload\n      dup2\n      mstore\n      0x20\n      add\n      0x02\n      dup3\n      add\n      sload\n      dup2\n      mstore\n      0x20\n      add\n      0x03\n      dup3\n      add\n      sload\n      dup2\n      mstore\n      0x20\n      add\n      0x04\n      dup3\n      add\n      0x00\n      swap1\n      sload\n      swap1\n      0x0100\n      exp\n      swap1\n      div\n      0xff\n      and\n      0x06\n      dup2\n      gt\n      iszero\n      tag_163\n      jumpi\n      tag_164\n      tag_87\n      jump\t// in\n    tag_164:\n    tag_163:\n      0x06\n      dup2\n      gt\n      iszero\n      tag_165\n      jumpi\n      tag_166\n      tag_87\n      jump\t// in\n    tag_166:\n    tag_165:\n      dup2\n      mstore\n      0x20\n      add\n      0x04\n      dup3\n      add\n      0x01\n      swap1\n      sload\n      swap1\n      0x0100\n      exp\n      swap1\n      div\n      0xff\n      and\n      0x01\n      dup2\n      gt\n      iszero\n      tag_167\n      jumpi\n      tag_168\n      tag_87\n      jump\t// in\n    tag_168:\n    tag_167:\n      0x01\n      dup2\n      gt\n      iszero\n      tag_169\n      jumpi\n      tag_170\n      tag_87\n      jump\t// in\n    tag_170:\n    tag_169:\n      dup2\n      mstore\n      0x20\n      add\n      0x04\n      dup3\n      add\n      0x02\n      swap1\n      sload\n      swap1\n      0x0100\n      exp\n      swap1\n      div\n      0xffffffffffffffffffffffffffffffffffffffff\n      and\n      0xffffffffffffffffffffffffffffffffffffffff\n      and\n      0xffffffffffffffffffffffffffffffffffffffff\n      and\n      dup2\n      mstore\n      0x20\n      add\n      0x05\n      dup3\n      add\n      sload\n      dup2\n      mstore\n      0x20\n      add\n      0x06\n      dup3\n      add\n      sload\n      dup2\n      mstore\n      pop\n      pop\n      swap1\n      pop\n        /* \"bootcamp/week10/day_2_creating_a_DAO_voting.sol\":19283:19296  state(propID) */\n      tag_171\n        /* \"bootcamp/week10/day_2_creating_a_DAO_voting.sol\":19289:19295  propID */\n      dup3\n        /* \"bootcamp/week10/day_2_creating_a_DAO_voting.sol\":19283:19288  state */\n      tag_31\n        /* \"bootcamp/week10/day_2_creating_a_DAO_voting.sol\":19283:19296  state(propID) */\n      jump\t// in\n    tag_171:\n        /* \"bootcamp/week10/day_2_creating_a_DAO_voting.sol\":19262:19270  proposal */\n      dup2\n        /* \"bootcamp/week10/day_2_creating_a_DAO_voting.sol\":19262:19280  proposal.propState */\n      0x80\n      add\n        /* \"bootcamp/week10/day_2_creating_a_DAO_voting.sol\":19262:19296  proposal.propState = state(propID) */\n      swap1\n      0x06\n      dup2\n      gt\n      iszero\n      tag_172\n      jumpi\n      tag_173\n      tag_87\n      jump\t// in\n    tag_173:\n    tag_172:\n      swap1\n      dup2\n      0x06\n      dup2\n      gt\n      iszero\n      tag_174\n      jumpi\n      tag_175\n      tag_87\n      jump\t// in\n    tag_175:\n    tag_174:\n      dup2\n      mstore\n      pop\n      pop\n        /* \"bootcamp/week10/day_2_creating_a_DAO_voting.sol\":18923:19412  function getProposal(uint256 propID) public view returns(ProposalData memory proposal) {... */\n      swap2\n      swap1\n      pop\n      jump\t// out\n        /* \"bootcamp/week10/day_2_creating_a_DAO_voting.sol\":10317:10939  function submitNewGrant(address recipient) public {... */\n    tag_71:\n        /* \"bootcamp/week10/day_2_creating_a_DAO_voting.sol\":10453:10473  uint256 _grantAmount */\n      0x00\n        /* \"bootcamp/week10/day_2_creating_a_DAO_voting.sol\":10476:10487  grantAmount */\n      sload(0x05)\n        /* \"bootcamp/week10/day_2_creating_a_DAO_voting.sol\":10453:10487  uint256 _grantAmount = grantAmount */\n      swap1\n      pop\n        /* \"bootcamp/week10/day_2_creating_a_DAO_voting.sol\":10594:10606  _grantAmount */\n      dup1\n        /* \"bootcamp/week10/day_2_creating_a_DAO_voting.sol\":10578:10590  availableETH */\n      sload(0x06)\n        /* \"bootcamp/week10/day_2_creating_a_DAO_voting.sol\":10578:10606  availableETH >= _grantAmount */\n      lt\n      iszero\n        /* \"bootcamp/week10/day_2_creating_a_DAO_voting.sol\":10570:10627  require(availableETH >= _grantAmount, \"Insufficient ETH\") */\n      tag_177\n      jumpi\n      mload(0x40)\n      0x08c379a000000000000000000000000000000000000000000000000000000000\n      dup2\n      mstore\n      0x04\n      add\n      tag_178\n      swap1\n      tag_179\n      jump\t// in\n    tag_178:\n      mload(0x40)\n      dup1\n      swap2\n      sub\n      swap1\n      revert\n    tag_177:\n        /* \"bootcamp/week10/day_2_creating_a_DAO_voting.sol\":10699:10711  _grantAmount */\n      dup1\n        /* \"bootcamp/week10/day_2_creating_a_DAO_voting.sol\":10683:10695  availableETH */\n      0x06\n      0x00\n        /* \"bootcamp/week10/day_2_creating_a_DAO_voting.sol\":10683:10711  availableETH -= _grantAmount */\n      dup3\n      dup3\n      sload\n      tag_180\n      swap2\n      swap1\n      tag_141\n      jump\t// in\n    tag_180:\n      swap3\n      pop\n      pop\n      dup2\n      swap1\n      sstore\n      pop\n        /* \"bootcamp/week10/day_2_creating_a_DAO_voting.sol\":10864:10932  _submitProposal(ProposalType.IssueGrant, recipient, _grantAmount, 0) */\n      tag_181\n        /* \"bootcamp/week10/day_2_creating_a_DAO_voting.sol\":10880:10903  ProposalType.IssueGrant */\n      0x00\n        /* \"bootcamp/week10/day_2_creating_a_DAO_voting.sol\":10905:10914  recipient */\n      dup4\n        /* \"bootcamp/week10/day_2_creating_a_DAO_voting.sol\":10916:10928  _grantAmount */\n      dup4\n        /* \"bootcamp/week10/day_2_creating_a_DAO_voting.sol\":10930:10931  0 */\n      0x00\n        /* \"bootcamp/week10/day_2_creating_a_DAO_voting.sol\":10864:10879  _submitProposal */\n      tag_101\n        /* \"bootcamp/week10/day_2_creating_a_DAO_voting.sol\":10864:10932  _submitProposal(ProposalType.IssueGrant, recipient, _grantAmount, 0) */\n      jump\t// in\n    tag_181:\n        /* \"bootcamp/week10/day_2_creating_a_DAO_voting.sol\":10367:10939  {... */\n      pop\n        /* \"bootcamp/week10/day_2_creating_a_DAO_voting.sol\":10317:10939  function submitNewGrant(address recipient) public {... */\n      pop\n      jump\t// out\n        /* \"bootcamp/week10/day_2_creating_a_DAO_voting.sol\":2861:2888  uint256 public availableETH */\n    tag_73:\n      sload(0x06)\n      dup2\n      jump\t// out\n        /* \"bootcamp/week10/day_2_creating_a_DAO_voting.sol\":13077:14975  function execute(uint256 propID) public {... */\n    tag_77:\n        /* \"bootcamp/week10/day_2_creating_a_DAO_voting.sol\":13480:13509  ProposalData storage proposal */\n      0x00\n        /* \"bootcamp/week10/day_2_creating_a_DAO_voting.sol\":13512:13521  proposals */\n      dup1\n        /* \"bootcamp/week10/day_2_creating_a_DAO_voting.sol\":13522:13528  propID */\n      dup3\n        /* \"bootcamp/week10/day_2_creating_a_DAO_voting.sol\":13512:13529  proposals[propID] */\n      dup2\n      sload\n      dup2\n      lt\n      tag_183\n      jumpi\n      tag_184\n      tag_83\n      jump\t// in\n    tag_184:\n    tag_183:\n      swap1\n      0x00\n      mstore\n      keccak256(0x00, 0x20)\n      swap1\n      0x07\n      mul\n      add\n        /* \"bootcamp/week10/day_2_creating_a_DAO_voting.sol\":13480:13529  ProposalData storage proposal = proposals[propID] */\n      swap1\n      pop\n        /* \"bootcamp/week10/day_2_creating_a_DAO_voting.sol\":13613:13636  ProposalState propState */\n      0x00\n        /* \"bootcamp/week10/day_2_creating_a_DAO_voting.sol\":13639:13652  state(propID) */\n      tag_186\n        /* \"bootcamp/week10/day_2_creating_a_DAO_voting.sol\":13645:13651  propID */\n      dup4\n        /* \"bootcamp/week10/day_2_creating_a_DAO_voting.sol\":13639:13644  state */\n      tag_31\n        /* \"bootcamp/week10/day_2_creating_a_DAO_voting.sol\":13639:13652  state(propID) */\n      jump\t// in\n    tag_186:\n        /* \"bootcamp/week10/day_2_creating_a_DAO_voting.sol\":13613:13652  ProposalState propState = state(propID) */\n      swap1\n      pop\n        /* \"bootcamp/week10/day_2_creating_a_DAO_voting.sol\":13881:13901  ProposalState.Queued */\n      0x03\n        /* \"bootcamp/week10/day_2_creating_a_DAO_voting.sol\":13868:13901  propState == ProposalState.Queued */\n      0x06\n      dup2\n      gt\n      iszero\n      tag_187\n      jumpi\n      tag_188\n      tag_87\n      jump\t// in\n    tag_188:\n    tag_187:\n        /* \"bootcamp/week10/day_2_creating_a_DAO_voting.sol\":13868:13877  propState */\n      dup2\n        /* \"bootcamp/week10/day_2_creating_a_DAO_voting.sol\":13868:13901  propState == ProposalState.Queued */\n      0x06\n      dup2\n      gt\n      iszero\n      tag_189\n      jumpi\n      tag_190\n      tag_87\n      jump\t// in\n    tag_190:\n    tag_189:\n      eq\n        /* \"bootcamp/week10/day_2_creating_a_DAO_voting.sol\":13860:13939  require(propState == ProposalState.Queued, \"Proposal not queued for execution\") */\n      tag_191\n      jumpi\n      mload(0x40)\n      0x08c379a000000000000000000000000000000000000000000000000000000000\n      dup2\n      mstore\n      0x04\n      add\n      tag_192\n      swap1\n      tag_193\n      jump\t// in\n    tag_192:\n      mload(0x40)\n      dup1\n      swap2\n      sub\n      swap1\n      revert\n    tag_191:\n        /* \"bootcamp/week10/day_2_creating_a_DAO_voting.sol\":14071:14090  _tallyVotes(propID) */\n      tag_194\n        /* \"bootcamp/week10/day_2_creating_a_DAO_voting.sol\":14083:14089  propID */\n      dup4\n        /* \"bootcamp/week10/day_2_creating_a_DAO_voting.sol\":14071:14082  _tallyVotes */\n      tag_195\n        /* \"bootcamp/week10/day_2_creating_a_DAO_voting.sol\":14071:14090  _tallyVotes(propID) */\n      jump\t// in\n    tag_194:\n        /* \"bootcamp/week10/day_2_creating_a_DAO_voting.sol\":14059:14090  propState = _tallyVotes(propID) */\n      swap1\n      pop\n        /* \"bootcamp/week10/day_2_creating_a_DAO_voting.sol\":14212:14233  ProposalType propType */\n      0x00\n        /* \"bootcamp/week10/day_2_creating_a_DAO_voting.sol\":14236:14244  proposal */\n      dup3\n        /* \"bootcamp/week10/day_2_creating_a_DAO_voting.sol\":14236:14253  proposal.propType */\n      0x04\n      add\n      0x01\n      swap1\n      sload\n      swap1\n      0x0100\n      exp\n      swap1\n      div\n      0xff\n      and\n        /* \"bootcamp/week10/day_2_creating_a_DAO_voting.sol\":14212:14253  ProposalType propType = proposal.propType */\n      swap1\n      pop\n        /* \"bootcamp/week10/day_2_creating_a_DAO_voting.sol\":14281:14304  ProposalState.Succeeded */\n      0x05\n        /* \"bootcamp/week10/day_2_creating_a_DAO_voting.sol\":14268:14304  propState == ProposalState.Succeeded */\n      0x06\n      dup2\n      gt\n      iszero\n      tag_196\n      jumpi\n      tag_197\n      tag_87\n      jump\t// in\n    tag_197:\n    tag_196:\n        /* \"bootcamp/week10/day_2_creating_a_DAO_voting.sol\":14268:14277  propState */\n      dup3\n        /* \"bootcamp/week10/day_2_creating_a_DAO_voting.sol\":14268:14304  propState == ProposalState.Succeeded */\n      0x06\n      dup2\n      gt\n      iszero\n      tag_198\n      jumpi\n      tag_199\n      tag_87\n      jump\t// in\n    tag_199:\n    tag_198:\n      sub\n        /* \"bootcamp/week10/day_2_creating_a_DAO_voting.sol\":14265:14898  if(propState == ProposalState.Succeeded) {... */\n      tag_200\n      jumpi\n        /* \"bootcamp/week10/day_2_creating_a_DAO_voting.sol\":14335:14358  ProposalType.IssueGrant */\n      0x00\n        /* \"bootcamp/week10/day_2_creating_a_DAO_voting.sol\":14323:14358  propType == ProposalType.IssueGrant */\n      0x01\n      dup2\n      gt\n      iszero\n      tag_201\n      jumpi\n      tag_202\n      tag_87\n      jump\t// in\n    tag_202:\n    tag_201:\n        /* \"bootcamp/week10/day_2_creating_a_DAO_voting.sol\":14323:14331  propType */\n      dup2\n        /* \"bootcamp/week10/day_2_creating_a_DAO_voting.sol\":14323:14358  propType == ProposalType.IssueGrant */\n      0x01\n      dup2\n      gt\n      iszero\n      tag_203\n      jumpi\n      tag_204\n      tag_87\n      jump\t// in\n    tag_204:\n    tag_203:\n      sub\n        /* \"bootcamp/week10/day_2_creating_a_DAO_voting.sol\":14320:14588  if(propType == ProposalType.IssueGrant) {... */\n      tag_205\n      jumpi\n        /* \"bootcamp/week10/day_2_creating_a_DAO_voting.sol\":14409:14428  _issueGrant(propID) */\n      tag_206\n        /* \"bootcamp/week10/day_2_creating_a_DAO_voting.sol\":14421:14427  propID */\n      dup5\n        /* \"bootcamp/week10/day_2_creating_a_DAO_voting.sol\":14409:14420  _issueGrant */\n      tag_207\n        /* \"bootcamp/week10/day_2_creating_a_DAO_voting.sol\":14409:14428  _issueGrant(propID) */\n      jump\t// in\n    tag_206:\n        /* \"bootcamp/week10/day_2_creating_a_DAO_voting.sol\":14320:14588  if(propType == ProposalType.IssueGrant) {... */\n      jump(tag_208)\n    tag_205:\n        /* \"bootcamp/week10/day_2_creating_a_DAO_voting.sol\":14464:14492  ProposalType.ModifyGrantSize */\n      0x01\n        /* \"bootcamp/week10/day_2_creating_a_DAO_voting.sol\":14452:14492  propType == ProposalType.ModifyGrantSize */\n      dup1\n      dup2\n      gt\n      iszero\n      tag_209\n      jumpi\n      tag_210\n      tag_87\n      jump\t// in\n    tag_210:\n    tag_209:\n        /* \"bootcamp/week10/day_2_creating_a_DAO_voting.sol\":14452:14460  propType */\n      dup2\n        /* \"bootcamp/week10/day_2_creating_a_DAO_voting.sol\":14452:14492  propType == ProposalType.ModifyGrantSize */\n      0x01\n      dup2\n      gt\n      iszero\n      tag_211\n      jumpi\n      tag_212\n      tag_87\n      jump\t// in\n    tag_212:\n    tag_211:\n      sub\n        /* \"bootcamp/week10/day_2_creating_a_DAO_voting.sol\":14449:14588  if(propType == ProposalType.ModifyGrantSize) {... */\n      tag_213\n      jumpi\n        /* \"bootcamp/week10/day_2_creating_a_DAO_voting.sol\":14549:14573  _modifyGrantSize(propID) */\n      tag_214\n        /* \"bootcamp/week10/day_2_creating_a_DAO_voting.sol\":14566:14572  propID */\n      dup5\n        /* \"bootcamp/week10/day_2_creating_a_DAO_voting.sol\":14549:14565  _modifyGrantSize */\n      tag_215\n        /* \"bootcamp/week10/day_2_creating_a_DAO_voting.sol\":14549:14573  _modifyGrantSize(propID) */\n      jump\t// in\n    tag_214:\n        /* \"bootcamp/week10/day_2_creating_a_DAO_voting.sol\":14449:14588  if(propType == ProposalType.ModifyGrantSize) {... */\n    tag_213:\n        /* \"bootcamp/week10/day_2_creating_a_DAO_voting.sol\":14320:14588  if(propType == ProposalType.IssueGrant) {... */\n    tag_208:\n        /* \"bootcamp/week10/day_2_creating_a_DAO_voting.sol\":14265:14898  if(propState == ProposalState.Succeeded) {... */\n      jump(tag_216)\n    tag_200:\n        /* \"bootcamp/week10/day_2_creating_a_DAO_voting.sol\":14680:14703  ProposalType.IssueGrant */\n      0x00\n        /* \"bootcamp/week10/day_2_creating_a_DAO_voting.sol\":14668:14703  propType == ProposalType.IssueGrant */\n      0x01\n      dup2\n      gt\n      iszero\n      tag_217\n      jumpi\n      tag_218\n      tag_87\n      jump\t// in\n    tag_218:\n    tag_217:\n        /* \"bootcamp/week10/day_2_creating_a_DAO_voting.sol\":14668:14676  propType */\n      dup2\n        /* \"bootcamp/week10/day_2_creating_a_DAO_voting.sol\":14668:14703  propType == ProposalType.IssueGrant */\n      0x01\n      dup2\n      gt\n      iszero\n      tag_219\n      jumpi\n      tag_220\n      tag_87\n      jump\t// in\n    tag_220:\n    tag_219:\n      sub\n        /* \"bootcamp/week10/day_2_creating_a_DAO_voting.sol\":14665:14888  if(propType == ProposalType.IssueGrant) {... */\n      tag_221\n      jumpi\n        /* \"bootcamp/week10/day_2_creating_a_DAO_voting.sol\":14856:14864  proposal */\n      dup3\n        /* \"bootcamp/week10/day_2_creating_a_DAO_voting.sol\":14856:14873  proposal.ethGrant */\n      0x05\n      add\n      sload\n        /* \"bootcamp/week10/day_2_creating_a_DAO_voting.sol\":14840:14852  availableETH */\n      0x06\n      0x00\n        /* \"bootcamp/week10/day_2_creating_a_DAO_voting.sol\":14840:14873  availableETH += proposal.ethGrant */\n      dup3\n      dup3\n      sload\n      tag_222\n      swap2\n      swap1\n      tag_223\n      jump\t// in\n    tag_222:\n      swap3\n      pop\n      pop\n      dup2\n      swap1\n      sstore\n      pop\n        /* \"bootcamp/week10/day_2_creating_a_DAO_voting.sol\":14665:14888  if(propType == ProposalType.IssueGrant) {... */\n    tag_221:\n        /* \"bootcamp/week10/day_2_creating_a_DAO_voting.sol\":14265:14898  if(propState == ProposalState.Succeeded) {... */\n    tag_216:\n        /* \"bootcamp/week10/day_2_creating_a_DAO_voting.sol\":14950:14967  _setState(propID) */\n      tag_224\n        /* \"bootcamp/week10/day_2_creating_a_DAO_voting.sol\":14960:14966  propID */\n      dup5\n        /* \"bootcamp/week10/day_2_creating_a_DAO_voting.sol\":14950:14959  _setState */\n      tag_225\n        /* \"bootcamp/week10/day_2_creating_a_DAO_voting.sol\":14950:14967  _setState(propID) */\n      jump\t// in\n    tag_224:\n        /* \"bootcamp/week10/day_2_creating_a_DAO_voting.sol\":13117:14975  {... */\n      pop\n      pop\n      pop\n        /* \"bootcamp/week10/day_2_creating_a_DAO_voting.sol\":13077:14975  function execute(uint256 propID) public {... */\n      pop\n      jump\t// out\n        /* \"bootcamp/week10/day_2_creating_a_DAO_voting.sol\":9308:10276  function _submitProposal(... */\n    tag_101:\n        /* \"bootcamp/week10/day_2_creating_a_DAO_voting.sol\":9471:9494  uint256 votingBeginDate */\n      0x00\n        /* \"bootcamp/week10/day_2_creating_a_DAO_voting.sol\":9515:9527  reviewPeriod */\n      sload(0x03)\n        /* \"bootcamp/week10/day_2_creating_a_DAO_voting.sol\":9497:9512  block.timestamp */\n      timestamp\n        /* \"bootcamp/week10/day_2_creating_a_DAO_voting.sol\":9497:9527  block.timestamp + reviewPeriod */\n      tag_227\n      swap2\n      swap1\n      tag_223\n      jump\t// in\n    tag_227:\n        /* \"bootcamp/week10/day_2_creating_a_DAO_voting.sol\":9471:9527  uint256 votingBeginDate = block.timestamp + reviewPeriod */\n      swap1\n      pop\n        /* \"bootcamp/week10/day_2_creating_a_DAO_voting.sol\":9702:9733  ProposalData memory newProposal */\n      0x00\n        /* \"bootcamp/week10/day_2_creating_a_DAO_voting.sol\":9736:10123  ProposalData ({... */\n      mload(0x40)\n      dup1\n      0x0120\n      add\n      0x40\n      mstore\n      dup1\n        /* \"bootcamp/week10/day_2_creating_a_DAO_voting.sol\":9776:9791  votingBeginDate */\n      dup4\n        /* \"bootcamp/week10/day_2_creating_a_DAO_voting.sol\":9736:10123  ProposalData ({... */\n      dup2\n      mstore\n      0x20\n      add\n        /* \"bootcamp/week10/day_2_creating_a_DAO_voting.sol\":9833:9845  votingPeriod */\n      sload(0x04)\n        /* \"bootcamp/week10/day_2_creating_a_DAO_voting.sol\":9815:9830  votingBeginDate */\n      dup5\n        /* \"bootcamp/week10/day_2_creating_a_DAO_voting.sol\":9815:9845  votingBeginDate + votingPeriod */\n      tag_228\n      swap2\n      swap1\n      tag_223\n      jump\t// in\n    tag_228:\n        /* \"bootcamp/week10/day_2_creating_a_DAO_voting.sol\":9736:10123  ProposalData ({... */\n      dup2\n      mstore\n      0x20\n      add\n        /* \"bootcamp/week10/day_2_creating_a_DAO_voting.sol\":9869:9870  0 */\n      0x00\n        /* \"bootcamp/week10/day_2_creating_a_DAO_voting.sol\":9736:10123  ProposalData ({... */\n      dup2\n      mstore\n      0x20\n      add\n        /* \"bootcamp/week10/day_2_creating_a_DAO_voting.sol\":9898:9899  0 */\n      0x00\n        /* \"bootcamp/week10/day_2_creating_a_DAO_voting.sol\":9736:10123  ProposalData ({... */\n      dup2\n      mstore\n      0x20\n      add\n        /* \"bootcamp/week10/day_2_creating_a_DAO_voting.sol\":9924:9948  ProposalState.Unassigned */\n      0x00\n        /* \"bootcamp/week10/day_2_creating_a_DAO_voting.sol\":9736:10123  ProposalData ({... */\n      0x06\n      dup2\n      gt\n      iszero\n      tag_229\n      jumpi\n      tag_230\n      tag_87\n      jump\t// in\n    tag_230:\n    tag_229:\n      dup2\n      mstore\n      0x20\n      add\n        /* \"bootcamp/week10/day_2_creating_a_DAO_voting.sol\":9972:9980  propType */\n      dup8\n        /* \"bootcamp/week10/day_2_creating_a_DAO_voting.sol\":9736:10123  ProposalData ({... */\n      0x01\n      dup2\n      gt\n      iszero\n      tag_231\n      jumpi\n      tag_232\n      tag_87\n      jump\t// in\n    tag_232:\n    tag_231:\n      dup2\n      mstore\n      0x20\n      add\n        /* \"bootcamp/week10/day_2_creating_a_DAO_voting.sol\":10032:10041  recipient */\n      dup7\n        /* \"bootcamp/week10/day_2_creating_a_DAO_voting.sol\":9736:10123  ProposalData ({... */\n      0xffffffffffffffffffffffffffffffffffffffff\n      and\n      dup2\n      mstore\n      0x20\n      add\n        /* \"bootcamp/week10/day_2_creating_a_DAO_voting.sol\":10065:10071  amount */\n      dup6\n        /* \"bootcamp/week10/day_2_creating_a_DAO_voting.sol\":9736:10123  ProposalData ({... */\n      dup2\n      mstore\n      0x20\n      add\n        /* \"bootcamp/week10/day_2_creating_a_DAO_voting.sol\":10098:10112  newGrantAmount */\n      dup5\n        /* \"bootcamp/week10/day_2_creating_a_DAO_voting.sol\":9736:10123  ProposalData ({... */\n      dup2\n      mstore\n      pop\n        /* \"bootcamp/week10/day_2_creating_a_DAO_voting.sol\":9702:10123  ProposalData memory newProposal = ProposalData ({... */\n      swap1\n      pop\n        /* \"bootcamp/week10/day_2_creating_a_DAO_voting.sol\":10242:10251  proposals */\n      0x00\n        /* \"bootcamp/week10/day_2_creating_a_DAO_voting.sol\":10257:10268  newProposal */\n      dup2\n        /* \"bootcamp/week10/day_2_creating_a_DAO_voting.sol\":10242:10269  proposals.push(newProposal) */\n      swap1\n      dup1\n      0x01\n      dup2\n      sload\n      add\n      dup1\n      dup3\n      sstore\n      dup1\n      swap2\n      pop\n      pop\n      0x01\n      swap1\n      sub\n      swap1\n      0x00\n      mstore\n      keccak256(0x00, 0x20)\n      swap1\n      0x07\n      mul\n      add\n      0x00\n      swap1\n      swap2\n      swap1\n      swap2\n      swap1\n      swap2\n      pop\n      0x00\n      dup3\n      add\n      mload\n      dup2\n      0x00\n      add\n      sstore\n      0x20\n      dup3\n      add\n      mload\n      dup2\n      0x01\n      add\n      sstore\n      0x40\n      dup3\n      add\n      mload\n      dup2\n      0x02\n      add\n      sstore\n      0x60\n      dup3\n      add\n      mload\n      dup2\n      0x03\n      add\n      sstore\n      0x80\n      dup3\n      add\n      mload\n      dup2\n      0x04\n      add\n      exp(0x0100, 0x00)\n      dup2\n      sload\n      dup2\n      0xff\n      mul\n      not\n      and\n      swap1\n      dup4\n      0x06\n      dup2\n      gt\n      iszero\n      tag_234\n      jumpi\n      tag_235\n      tag_87\n      jump\t// in\n    tag_235:\n    tag_234:\n      mul\n      or\n      swap1\n      sstore\n      pop\n      0xa0\n      dup3\n      add\n      mload\n      dup2\n      0x04\n      add\n      exp(0x0100, 0x01)\n      dup2\n      sload\n      dup2\n      0xff\n      mul\n      not\n      and\n      swap1\n      dup4\n      0x01\n      dup2\n      gt\n      iszero\n      tag_236\n      jumpi\n      tag_237\n      tag_87\n      jump\t// in\n    tag_237:\n    tag_236:\n      mul\n      or\n      swap1\n      sstore\n      pop\n      0xc0\n      dup3\n      add\n      mload\n      dup2\n      0x04\n      add\n      exp(0x0100, 0x02)\n      dup2\n      sload\n      dup2\n      0xffffffffffffffffffffffffffffffffffffffff\n      mul\n      not\n      and\n      swap1\n      dup4\n      0xffffffffffffffffffffffffffffffffffffffff\n      and\n      mul\n      or\n      swap1\n      sstore\n      pop\n      0xe0\n      dup3\n      add\n      mload\n      dup2\n      0x05\n      add\n      sstore\n      0x0100\n      dup3\n      add\n      mload\n      dup2\n      0x06\n      add\n      sstore\n      pop\n      pop\n        /* \"bootcamp/week10/day_2_creating_a_DAO_voting.sol\":9461:10276  {... */\n      pop\n      pop\n        /* \"bootcamp/week10/day_2_creating_a_DAO_voting.sol\":9308:10276  function _submitProposal(... */\n      pop\n      pop\n      pop\n      pop\n      jump\t// out\n        /* \"bootcamp/week10/day_2_creating_a_DAO_voting.sol\":11894:12699  function _submitVote(uint256 propID, bool votedFor) private {... */\n    tag_116:\n        /* \"bootcamp/week10/day_2_creating_a_DAO_voting.sol\":12325:12354  ProposalData storage proposal */\n      0x00\n        /* \"bootcamp/week10/day_2_creating_a_DAO_voting.sol\":12357:12366  proposals */\n      dup1\n        /* \"bootcamp/week10/day_2_creating_a_DAO_voting.sol\":12367:12373  propID */\n      dup4\n        /* \"bootcamp/week10/day_2_creating_a_DAO_voting.sol\":12357:12374  proposals[propID] */\n      dup2\n      sload\n      dup2\n      lt\n      tag_239\n      jumpi\n      tag_240\n      tag_83\n      jump\t// in\n    tag_240:\n    tag_239:\n      swap1\n      0x00\n      mstore\n      keccak256(0x00, 0x20)\n      swap1\n      0x07\n      mul\n      add\n        /* \"bootcamp/week10/day_2_creating_a_DAO_voting.sol\":12325:12374  ProposalData storage proposal = proposals[propID] */\n      swap1\n      pop\n        /* \"bootcamp/week10/day_2_creating_a_DAO_voting.sol\":12481:12489  votedFor */\n      dup2\n        /* \"bootcamp/week10/day_2_creating_a_DAO_voting.sol\":12478:12589  if(votedFor) {... */\n      iszero\n      tag_242\n      jumpi\n        /* \"bootcamp/week10/day_2_creating_a_DAO_voting.sol\":12505:12513  proposal */\n      dup1\n        /* \"bootcamp/week10/day_2_creating_a_DAO_voting.sol\":12505:12522  proposal.votesFor */\n      0x02\n      add\n      0x00\n        /* \"bootcamp/week10/day_2_creating_a_DAO_voting.sol\":12505:12524  proposal.votesFor++ */\n      dup2\n      sload\n      dup1\n      swap3\n      swap2\n      swap1\n      tag_243\n      swap1\n      tag_244\n      jump\t// in\n    tag_243:\n      swap2\n      swap1\n      pop\n      sstore\n      pop\n        /* \"bootcamp/week10/day_2_creating_a_DAO_voting.sol\":12478:12589  if(votedFor) {... */\n      jump(tag_245)\n    tag_242:\n        /* \"bootcamp/week10/day_2_creating_a_DAO_voting.sol\":12555:12563  proposal */\n      dup1\n        /* \"bootcamp/week10/day_2_creating_a_DAO_voting.sol\":12555:12576  proposal.votesAgainst */\n      0x03\n      add\n      0x00\n        /* \"bootcamp/week10/day_2_creating_a_DAO_voting.sol\":12555:12578  proposal.votesAgainst++ */\n      dup2\n      sload\n      dup1\n      swap3\n      swap2\n      swap1\n      tag_246\n      swap1\n      tag_244\n      jump\t// in\n    tag_246:\n      swap2\n      swap1\n      pop\n      sstore\n      pop\n        /* \"bootcamp/week10/day_2_creating_a_DAO_voting.sol\":12478:12589  if(votedFor) {... */\n    tag_245:\n        /* \"bootcamp/week10/day_2_creating_a_DAO_voting.sol\":12688:12692  true */\n      0x01\n        /* \"bootcamp/week10/day_2_creating_a_DAO_voting.sol\":12651:12665  memberHasVoted */\n      0x02\n        /* \"bootcamp/week10/day_2_creating_a_DAO_voting.sol\":12651:12677  memberHasVoted[msg.sender] */\n      0x00\n        /* \"bootcamp/week10/day_2_creating_a_DAO_voting.sol\":12666:12676  msg.sender */\n      caller\n        /* \"bootcamp/week10/day_2_creating_a_DAO_voting.sol\":12651:12677  memberHasVoted[msg.sender] */\n      0xffffffffffffffffffffffffffffffffffffffff\n      and\n      0xffffffffffffffffffffffffffffffffffffffff\n      and\n      dup2\n      mstore\n      0x20\n      add\n      swap1\n      dup2\n      mstore\n      0x20\n      add\n      0x00\n      keccak256\n        /* \"bootcamp/week10/day_2_creating_a_DAO_voting.sol\":12651:12685  memberHasVoted[msg.sender][propID] */\n      0x00\n        /* \"bootcamp/week10/day_2_creating_a_DAO_voting.sol\":12678:12684  propID */\n      dup6\n        /* \"bootcamp/week10/day_2_creating_a_DAO_voting.sol\":12651:12685  memberHasVoted[msg.sender][propID] */\n      dup2\n      mstore\n      0x20\n      add\n      swap1\n      dup2\n      mstore\n      0x20\n      add\n      0x00\n      keccak256\n      0x00\n        /* \"bootcamp/week10/day_2_creating_a_DAO_voting.sol\":12651:12692  memberHasVoted[msg.sender][propID] = true */\n      0x0100\n      exp\n      dup2\n      sload\n      dup2\n      0xff\n      mul\n      not\n      and\n      swap1\n      dup4\n      iszero\n      iszero\n      mul\n      or\n      swap1\n      sstore\n      pop\n        /* \"bootcamp/week10/day_2_creating_a_DAO_voting.sol\":11954:12699  {... */\n      pop\n        /* \"bootcamp/week10/day_2_creating_a_DAO_voting.sol\":11894:12699  function _submitVote(uint256 propID, bool votedFor) private {... */\n      pop\n      pop\n      jump\t// out\n        /* \"bootcamp/week10/day_2_creating_a_DAO_voting.sol\":7571:9127  function _tallyVotes(uint256 propID) private view returns(ProposalState) {... */\n    tag_195:\n        /* \"bootcamp/week10/day_2_creating_a_DAO_voting.sol\":7629:7642  ProposalState */\n      0x00\n        /* \"bootcamp/week10/day_2_creating_a_DAO_voting.sol\":8007:8036  ProposalData storage proposal */\n      dup1\n        /* \"bootcamp/week10/day_2_creating_a_DAO_voting.sol\":8039:8048  proposals */\n      0x00\n        /* \"bootcamp/week10/day_2_creating_a_DAO_voting.sol\":8049:8055  propID */\n      dup4\n        /* \"bootcamp/week10/day_2_creating_a_DAO_voting.sol\":8039:8056  proposals[propID] */\n      dup2\n      sload\n      dup2\n      lt\n      tag_248\n      jumpi\n      tag_249\n      tag_83\n      jump\t// in\n    tag_249:\n    tag_248:\n      swap1\n      0x00\n      mstore\n      keccak256(0x00, 0x20)\n      swap1\n      0x07\n      mul\n      add\n        /* \"bootcamp/week10/day_2_creating_a_DAO_voting.sol\":8007:8056  ProposalData storage proposal = proposals[propID] */\n      swap1\n      pop\n        /* \"bootcamp/week10/day_2_creating_a_DAO_voting.sol\":8173:8189  uint256 votesFor */\n      0x00\n        /* \"bootcamp/week10/day_2_creating_a_DAO_voting.sol\":8192:8200  proposal */\n      dup2\n        /* \"bootcamp/week10/day_2_creating_a_DAO_voting.sol\":8192:8209  proposal.votesFor */\n      0x02\n      add\n      sload\n        /* \"bootcamp/week10/day_2_creating_a_DAO_voting.sol\":8173:8209  uint256 votesFor = proposal.votesFor */\n      swap1\n      pop\n        /* \"bootcamp/week10/day_2_creating_a_DAO_voting.sol\":8219:8239  uint256 votesAgainst */\n      0x00\n        /* \"bootcamp/week10/day_2_creating_a_DAO_voting.sol\":8242:8250  proposal */\n      dup3\n        /* \"bootcamp/week10/day_2_creating_a_DAO_voting.sol\":8242:8263  proposal.votesAgainst */\n      0x03\n      add\n      sload\n        /* \"bootcamp/week10/day_2_creating_a_DAO_voting.sol\":8219:8263  uint256 votesAgainst = proposal.votesAgainst */\n      swap1\n      pop\n        /* \"bootcamp/week10/day_2_creating_a_DAO_voting.sol\":8397:8415  bool quorumReached */\n      0x00\n        /* \"bootcamp/week10/day_2_creating_a_DAO_voting.sol\":8418:8456  _quorumReached(votesFor, votesAgainst) */\n      tag_251\n        /* \"bootcamp/week10/day_2_creating_a_DAO_voting.sol\":8433:8441  votesFor */\n      dup4\n        /* \"bootcamp/week10/day_2_creating_a_DAO_voting.sol\":8443:8455  votesAgainst */\n      dup4\n        /* \"bootcamp/week10/day_2_creating_a_DAO_voting.sol\":8418:8432  _quorumReached */\n      tag_252\n        /* \"bootcamp/week10/day_2_creating_a_DAO_voting.sol\":8418:8456  _quorumReached(votesFor, votesAgainst) */\n      jump\t// in\n    tag_251:\n        /* \"bootcamp/week10/day_2_creating_a_DAO_voting.sol\":8397:8456  bool quorumReached = _quorumReached(votesFor, votesAgainst) */\n      swap1\n      pop\n        /* \"bootcamp/week10/day_2_creating_a_DAO_voting.sol\":8546:8559  quorumReached */\n      dup1\n        /* \"bootcamp/week10/day_2_creating_a_DAO_voting.sol\":8542:9121  if(!quorumReached) {... */\n      tag_253\n      jumpi\n        /* \"bootcamp/week10/day_2_creating_a_DAO_voting.sol\":8707:8728  ProposalState.Expired */\n      0x06\n        /* \"bootcamp/week10/day_2_creating_a_DAO_voting.sol\":8700:8728  return ProposalState.Expired */\n      swap5\n      pop\n      pop\n      pop\n      pop\n      pop\n      jump(tag_247)\n        /* \"bootcamp/week10/day_2_creating_a_DAO_voting.sol\":8542:9121  if(!quorumReached) {... */\n    tag_253:\n        /* \"bootcamp/week10/day_2_creating_a_DAO_voting.sol\":8863:8902  _votesSucceeded(votesFor, votesAgainst) */\n      tag_255\n        /* \"bootcamp/week10/day_2_creating_a_DAO_voting.sol\":8879:8887  votesFor */\n      dup4\n        /* \"bootcamp/week10/day_2_creating_a_DAO_voting.sol\":8889:8901  votesAgainst */\n      dup4\n        /* \"bootcamp/week10/day_2_creating_a_DAO_voting.sol\":8863:8878  _votesSucceeded */\n      tag_256\n        /* \"bootcamp/week10/day_2_creating_a_DAO_voting.sol\":8863:8902  _votesSucceeded(votesFor, votesAgainst) */\n      jump\t// in\n    tag_255:\n        /* \"bootcamp/week10/day_2_creating_a_DAO_voting.sol\":8859:9121  if (_votesSucceeded(votesFor, votesAgainst)) {... */\n      iszero\n      tag_257\n      jumpi\n        /* \"bootcamp/week10/day_2_creating_a_DAO_voting.sol\":8925:8948  ProposalState.Succeeded */\n      0x05\n        /* \"bootcamp/week10/day_2_creating_a_DAO_voting.sol\":8918:8948  return ProposalState.Succeeded */\n      swap5\n      pop\n      pop\n      pop\n      pop\n      pop\n      jump(tag_247)\n        /* \"bootcamp/week10/day_2_creating_a_DAO_voting.sol\":8859:9121  if (_votesSucceeded(votesFor, votesAgainst)) {... */\n    tag_257:\n        /* \"bootcamp/week10/day_2_creating_a_DAO_voting.sol\":9088:9110  ProposalState.Defeated */\n      0x04\n        /* \"bootcamp/week10/day_2_creating_a_DAO_voting.sol\":9081:9110  return ProposalState.Defeated */\n      swap5\n      pop\n      pop\n      pop\n      pop\n      pop\n        /* \"bootcamp/week10/day_2_creating_a_DAO_voting.sol\":7571:9127  function _tallyVotes(uint256 propID) private view returns(ProposalState) {... */\n    tag_247:\n      swap2\n      swap1\n      pop\n      jump\t// out\n        /* \"bootcamp/week10/day_2_creating_a_DAO_voting.sol\":14981:15844  function _issueGrant(uint256 propID) private {... */\n    tag_207:\n        /* \"bootcamp/week10/day_2_creating_a_DAO_voting.sol\":15389:15418  ProposalData storage proposal */\n      0x00\n        /* \"bootcamp/week10/day_2_creating_a_DAO_voting.sol\":15421:15430  proposals */\n      dup1\n        /* \"bootcamp/week10/day_2_creating_a_DAO_voting.sol\":15431:15437  propID */\n      dup3\n        /* \"bootcamp/week10/day_2_creating_a_DAO_voting.sol\":15421:15438  proposals[propID] */\n      dup2\n      sload\n      dup2\n      lt\n      tag_260\n      jumpi\n      tag_261\n      tag_83\n      jump\t// in\n    tag_261:\n    tag_260:\n      swap1\n      0x00\n      mstore\n      keccak256(0x00, 0x20)\n      swap1\n      0x07\n      mul\n      add\n        /* \"bootcamp/week10/day_2_creating_a_DAO_voting.sol\":15389:15438  ProposalData storage proposal = proposals[propID] */\n      swap1\n      pop\n        /* \"bootcamp/week10/day_2_creating_a_DAO_voting.sol\":15603:15615  bool success */\n      0x00\n        /* \"bootcamp/week10/day_2_creating_a_DAO_voting.sol\":15621:15629  proposal */\n      dup2\n        /* \"bootcamp/week10/day_2_creating_a_DAO_voting.sol\":15621:15639  proposal.recipient */\n      0x04\n      add\n      0x02\n      swap1\n      sload\n      swap1\n      0x0100\n      exp\n      swap1\n      div\n      0xffffffffffffffffffffffffffffffffffffffff\n      and\n        /* \"bootcamp/week10/day_2_creating_a_DAO_voting.sol\":15621:15644  proposal.recipient.call */\n      0xffffffffffffffffffffffffffffffffffffffff\n      and\n        /* \"bootcamp/week10/day_2_creating_a_DAO_voting.sol\":15652:15660  proposal */\n      dup3\n        /* \"bootcamp/week10/day_2_creating_a_DAO_voting.sol\":15652:15669  proposal.ethGrant */\n      0x05\n      add\n      sload\n        /* \"bootcamp/week10/day_2_creating_a_DAO_voting.sol\":15621:15674  proposal.recipient.call{value: proposal.ethGrant}(\"\") */\n      mload(0x40)\n      tag_263\n      swap1\n      tag_264\n      jump\t// in\n    tag_263:\n      0x00\n      mload(0x40)\n      dup1\n      dup4\n      sub\n      dup2\n      dup6\n      dup8\n      gas\n      call\n      swap3\n      pop\n      pop\n      pop\n      returndatasize\n      dup1\n      0x00\n      dup2\n      eq\n      tag_267\n      jumpi\n      mload(0x40)\n      swap2\n      pop\n      and(add(returndatasize, 0x3f), not(0x1f))\n      dup3\n      add\n      0x40\n      mstore\n      returndatasize\n      dup3\n      mstore\n      returndatasize\n      0x00\n      0x20\n      dup5\n      add\n      returndatacopy\n      jump(tag_266)\n    tag_267:\n      0x60\n      swap2\n      pop\n    tag_266:\n      pop\n        /* \"bootcamp/week10/day_2_creating_a_DAO_voting.sol\":15602:15674  (bool success, ) = proposal.recipient.call{value: proposal.ethGrant}(\"\") */\n      pop\n      swap1\n      pop\n        /* \"bootcamp/week10/day_2_creating_a_DAO_voting.sol\":15771:15778  success */\n      dup1\n        /* \"bootcamp/week10/day_2_creating_a_DAO_voting.sol\":15767:15838  if(!success) {... */\n      tag_268\n      jumpi\n        /* \"bootcamp/week10/day_2_creating_a_DAO_voting.sol\":15810:15818  proposal */\n      dup2\n        /* \"bootcamp/week10/day_2_creating_a_DAO_voting.sol\":15810:15827  proposal.ethGrant */\n      0x05\n      add\n      sload\n        /* \"bootcamp/week10/day_2_creating_a_DAO_voting.sol\":15794:15806  availableETH */\n      0x06\n      0x00\n        /* \"bootcamp/week10/day_2_creating_a_DAO_voting.sol\":15794:15827  availableETH += proposal.ethGrant */\n      dup3\n      dup3\n      sload\n      tag_269\n      swap2\n      swap1\n      tag_223\n      jump\t// in\n    tag_269:\n      swap3\n      pop\n      pop\n      dup2\n      swap1\n      sstore\n      pop\n        /* \"bootcamp/week10/day_2_creating_a_DAO_voting.sol\":15767:15838  if(!success) {... */\n    tag_268:\n        /* \"bootcamp/week10/day_2_creating_a_DAO_voting.sol\":15026:15844  {... */\n      pop\n      pop\n        /* \"bootcamp/week10/day_2_creating_a_DAO_voting.sol\":14981:15844  function _issueGrant(uint256 propID) private {... */\n      pop\n      jump\t// out\n        /* \"bootcamp/week10/day_2_creating_a_DAO_voting.sol\":15850:16552  function _modifyGrantSize(uint256 propID) private {... */\n    tag_215:\n        /* \"bootcamp/week10/day_2_creating_a_DAO_voting.sol\":16384:16413  ProposalData storage proposal */\n      0x00\n        /* \"bootcamp/week10/day_2_creating_a_DAO_voting.sol\":16416:16425  proposals */\n      dup1\n        /* \"bootcamp/week10/day_2_creating_a_DAO_voting.sol\":16426:16432  propID */\n      dup3\n        /* \"bootcamp/week10/day_2_creating_a_DAO_voting.sol\":16416:16433  proposals[propID] */\n      dup2\n      sload\n      dup2\n      lt\n      tag_271\n      jumpi\n      tag_272\n      tag_83\n      jump\t// in\n    tag_272:\n    tag_271:\n      swap1\n      0x00\n      mstore\n      keccak256(0x00, 0x20)\n      swap1\n      0x07\n      mul\n      add\n        /* \"bootcamp/week10/day_2_creating_a_DAO_voting.sol\":16384:16433  ProposalData storage proposal = proposals[propID] */\n      swap1\n      pop\n        /* \"bootcamp/week10/day_2_creating_a_DAO_voting.sol\":16523:16531  proposal */\n      dup1\n        /* \"bootcamp/week10/day_2_creating_a_DAO_voting.sol\":16523:16543  proposal.newETHGrant */\n      0x06\n      add\n      sload\n        /* \"bootcamp/week10/day_2_creating_a_DAO_voting.sol\":16509:16520  grantAmount */\n      0x05\n        /* \"bootcamp/week10/day_2_creating_a_DAO_voting.sol\":16509:16543  grantAmount = proposal.newETHGrant */\n      dup2\n      swap1\n      sstore\n      pop\n        /* \"bootcamp/week10/day_2_creating_a_DAO_voting.sol\":15900:16552  {... */\n      pop\n        /* \"bootcamp/week10/day_2_creating_a_DAO_voting.sol\":15850:16552  function _modifyGrantSize(uint256 propID) private {... */\n      pop\n      jump\t// out\n        /* \"bootcamp/week10/day_2_creating_a_DAO_voting.sol\":16583:18289  function _setState(uint propID) private {... */\n    tag_225:\n        /* \"bootcamp/week10/day_2_creating_a_DAO_voting.sol\":16998:17027  ProposalData storage proposal */\n      0x00\n        /* \"bootcamp/week10/day_2_creating_a_DAO_voting.sol\":17030:17039  proposals */\n      dup1\n        /* \"bootcamp/week10/day_2_creating_a_DAO_voting.sol\":17040:17046  propID */\n      dup3\n        /* \"bootcamp/week10/day_2_creating_a_DAO_voting.sol\":17030:17047  proposals[propID] */\n      dup2\n      sload\n      dup2\n      lt\n      tag_275\n      jumpi\n      tag_276\n      tag_83\n      jump\t// in\n    tag_276:\n    tag_275:\n      swap1\n      0x00\n      mstore\n      keccak256(0x00, 0x20)\n      swap1\n      0x07\n      mul\n      add\n        /* \"bootcamp/week10/day_2_creating_a_DAO_voting.sol\":16998:17047  ProposalData storage proposal = proposals[propID] */\n      swap1\n      pop\n        /* \"bootcamp/week10/day_2_creating_a_DAO_voting.sol\":17158:17174  uint256 votesFor */\n      0x00\n        /* \"bootcamp/week10/day_2_creating_a_DAO_voting.sol\":17177:17185  proposal */\n      dup2\n        /* \"bootcamp/week10/day_2_creating_a_DAO_voting.sol\":17177:17194  proposal.votesFor */\n      0x02\n      add\n      sload\n        /* \"bootcamp/week10/day_2_creating_a_DAO_voting.sol\":17158:17194  uint256 votesFor = proposal.votesFor */\n      swap1\n      pop\n        /* \"bootcamp/week10/day_2_creating_a_DAO_voting.sol\":17204:17224  uint256 votesAgainst */\n      0x00\n        /* \"bootcamp/week10/day_2_creating_a_DAO_voting.sol\":17227:17235  proposal */\n      dup3\n        /* \"bootcamp/week10/day_2_creating_a_DAO_voting.sol\":17227:17248  proposal.votesAgainst */\n      0x03\n      add\n      sload\n        /* \"bootcamp/week10/day_2_creating_a_DAO_voting.sol\":17204:17248  uint256 votesAgainst = proposal.votesAgainst */\n      swap1\n      pop\n        /* \"bootcamp/week10/day_2_creating_a_DAO_voting.sol\":17511:17529  bool quorumReached */\n      0x00\n        /* \"bootcamp/week10/day_2_creating_a_DAO_voting.sol\":17532:17570  _quorumReached(votesFor, votesAgainst) */\n      tag_278\n        /* \"bootcamp/week10/day_2_creating_a_DAO_voting.sol\":17547:17555  votesFor */\n      dup4\n        /* \"bootcamp/week10/day_2_creating_a_DAO_voting.sol\":17557:17569  votesAgainst */\n      dup4\n        /* \"bootcamp/week10/day_2_creating_a_DAO_voting.sol\":17532:17546  _quorumReached */\n      tag_252\n        /* \"bootcamp/week10/day_2_creating_a_DAO_voting.sol\":17532:17570  _quorumReached(votesFor, votesAgainst) */\n      jump\t// in\n    tag_278:\n        /* \"bootcamp/week10/day_2_creating_a_DAO_voting.sol\":17511:17570  bool quorumReached = _quorumReached(votesFor, votesAgainst) */\n      swap1\n      pop\n        /* \"bootcamp/week10/day_2_creating_a_DAO_voting.sol\":17668:17681  quorumReached */\n      dup1\n        /* \"bootcamp/week10/day_2_creating_a_DAO_voting.sol\":17664:18282  if(!quorumReached) {... */\n      tag_279\n      jumpi\n        /* \"bootcamp/week10/day_2_creating_a_DAO_voting.sol\":17842:17863  ProposalState.Expired */\n      0x06\n        /* \"bootcamp/week10/day_2_creating_a_DAO_voting.sol\":17821:17829  proposal */\n      dup5\n        /* \"bootcamp/week10/day_2_creating_a_DAO_voting.sol\":17821:17839  proposal.propState */\n      0x04\n      add\n      0x00\n        /* \"bootcamp/week10/day_2_creating_a_DAO_voting.sol\":17821:17863  proposal.propState = ProposalState.Expired */\n      0x0100\n      exp\n      dup2\n      sload\n      dup2\n      0xff\n      mul\n      not\n      and\n      swap1\n      dup4\n      0x06\n      dup2\n      gt\n      iszero\n      tag_280\n      jumpi\n      tag_281\n      tag_87\n      jump\t// in\n    tag_281:\n    tag_280:\n      mul\n      or\n      swap1\n      sstore\n      pop\n        /* \"bootcamp/week10/day_2_creating_a_DAO_voting.sol\":17664:18282  if(!quorumReached) {... */\n      jump(tag_282)\n    tag_279:\n        /* \"bootcamp/week10/day_2_creating_a_DAO_voting.sol\":17997:18036  _votesSucceeded(votesFor, votesAgainst) */\n      tag_283\n        /* \"bootcamp/week10/day_2_creating_a_DAO_voting.sol\":18013:18021  votesFor */\n      dup4\n        /* \"bootcamp/week10/day_2_creating_a_DAO_voting.sol\":18023:18035  votesAgainst */\n      dup4\n        /* \"bootcamp/week10/day_2_creating_a_DAO_voting.sol\":17997:18012  _votesSucceeded */\n      tag_256\n        /* \"bootcamp/week10/day_2_creating_a_DAO_voting.sol\":17997:18036  _votesSucceeded(votesFor, votesAgainst) */\n      jump\t// in\n    tag_283:\n        /* \"bootcamp/week10/day_2_creating_a_DAO_voting.sol\":17993:18282  if (_votesSucceeded(votesFor, votesAgainst)) {... */\n      iszero\n      tag_284\n      jumpi\n        /* \"bootcamp/week10/day_2_creating_a_DAO_voting.sol\":18073:18096  ProposalState.Succeeded */\n      0x05\n        /* \"bootcamp/week10/day_2_creating_a_DAO_voting.sol\":18052:18060  proposal */\n      dup5\n        /* \"bootcamp/week10/day_2_creating_a_DAO_voting.sol\":18052:18070  proposal.propState */\n      0x04\n      add\n      0x00\n        /* \"bootcamp/week10/day_2_creating_a_DAO_voting.sol\":18052:18096  proposal.propState = ProposalState.Succeeded */\n      0x0100\n      exp\n      dup2\n      sload\n      dup2\n      0xff\n      mul\n      not\n      and\n      swap1\n      dup4\n      0x06\n      dup2\n      gt\n      iszero\n      tag_285\n      jumpi\n      tag_286\n      tag_87\n      jump\t// in\n    tag_286:\n    tag_285:\n      mul\n      or\n      swap1\n      sstore\n      pop\n        /* \"bootcamp/week10/day_2_creating_a_DAO_voting.sol\":17993:18282  if (_votesSucceeded(votesFor, votesAgainst)) {... */\n      jump(tag_287)\n    tag_284:\n        /* \"bootcamp/week10/day_2_creating_a_DAO_voting.sol\":18249:18271  ProposalState.Defeated */\n      0x04\n        /* \"bootcamp/week10/day_2_creating_a_DAO_voting.sol\":18228:18236  proposal */\n      dup5\n        /* \"bootcamp/week10/day_2_creating_a_DAO_voting.sol\":18228:18246  proposal.propState */\n      0x04\n      add\n      0x00\n        /* \"bootcamp/week10/day_2_creating_a_DAO_voting.sol\":18228:18271  proposal.propState = ProposalState.Defeated */\n      0x0100\n      exp\n      dup2\n      sload\n      dup2\n      0xff\n      mul\n      not\n      and\n      swap1\n      dup4\n      0x06\n      dup2\n      gt\n      iszero\n      tag_288\n      jumpi\n      tag_289\n      tag_87\n      jump\t// in\n    tag_289:\n    tag_288:\n      mul\n      or\n      swap1\n      sstore\n      pop\n        /* \"bootcamp/week10/day_2_creating_a_DAO_voting.sol\":17993:18282  if (_votesSucceeded(votesFor, votesAgainst)) {... */\n    tag_287:\n        /* \"bootcamp/week10/day_2_creating_a_DAO_voting.sol\":17664:18282  if(!quorumReached) {... */\n    tag_282:\n        /* \"bootcamp/week10/day_2_creating_a_DAO_voting.sol\":16623:18289  {... */\n      pop\n      pop\n      pop\n      pop\n        /* \"bootcamp/week10/day_2_creating_a_DAO_voting.sol\":16583:18289  function _setState(uint propID) private {... */\n      pop\n      jump\t// out\n        /* \"bootcamp/week10/day_2_creating_a_DAO_voting.sol\":6623:6946  function _quorumReached(uint256 votesFor, uint256 votesAgainst) private view returns(bool quorumReached) {... */\n    tag_252:\n        /* \"bootcamp/week10/day_2_creating_a_DAO_voting.sol\":6708:6726  bool quorumReached */\n      0x00\n        /* \"bootcamp/week10/day_2_creating_a_DAO_voting.sol\":6932:6938  quorum */\n      sload(0x01)\n        /* \"bootcamp/week10/day_2_creating_a_DAO_voting.sol\":6916:6928  votesAgainst */\n      dup3\n        /* \"bootcamp/week10/day_2_creating_a_DAO_voting.sol\":6905:6913  votesFor */\n      dup5\n        /* \"bootcamp/week10/day_2_creating_a_DAO_voting.sol\":6905:6928  votesFor + votesAgainst */\n      tag_291\n      swap2\n      swap1\n      tag_223\n      jump\t// in\n    tag_291:\n        /* \"bootcamp/week10/day_2_creating_a_DAO_voting.sol\":6905:6938  votesFor + votesAgainst >= quorum */\n      lt\n      iszero\n        /* \"bootcamp/week10/day_2_creating_a_DAO_voting.sol\":6888:6939  quorumReached = (votesFor + votesAgainst >= quorum) */\n      swap1\n      pop\n        /* \"bootcamp/week10/day_2_creating_a_DAO_voting.sol\":6623:6946  function _quorumReached(uint256 votesFor, uint256 votesAgainst) private view returns(bool quorumReached) {... */\n      swap3\n      swap2\n      pop\n      pop\n      jump\t// out\n        /* \"bootcamp/week10/day_2_creating_a_DAO_voting.sol\":7029:7538  function _votesSucceeded(uint256 votesFor, uint256 votesAgainst) private pure returns(bool voteSucceeded) {... */\n    tag_256:\n        /* \"bootcamp/week10/day_2_creating_a_DAO_voting.sol\":7115:7133  bool voteSucceeded */\n      0x00\n        /* \"bootcamp/week10/day_2_creating_a_DAO_voting.sol\":7172:7184  votesAgainst */\n      dup2\n        /* \"bootcamp/week10/day_2_creating_a_DAO_voting.sol\":7161:7169  votesFor */\n      dup4\n        /* \"bootcamp/week10/day_2_creating_a_DAO_voting.sol\":7161:7184  votesFor > votesAgainst */\n      gt\n        /* \"bootcamp/week10/day_2_creating_a_DAO_voting.sol\":7145:7184  voteSucceeded = votesFor > votesAgainst */\n      swap1\n      pop\n        /* \"bootcamp/week10/day_2_creating_a_DAO_voting.sol\":7029:7538  function _votesSucceeded(uint256 votesFor, uint256 votesAgainst) private pure returns(bool voteSucceeded) {... */\n      swap3\n      swap2\n      pop\n      pop\n      jump\t// out\n    tag_158:\n      mload(0x40)\n      dup1\n      0x0120\n      add\n      0x40\n      mstore\n      dup1\n      0x00\n      dup2\n      mstore\n      0x20\n      add\n      0x00\n      dup2\n      mstore\n      0x20\n      add\n      0x00\n      dup2\n      mstore\n      0x20\n      add\n      0x00\n      dup2\n      mstore\n      0x20\n      add\n      0x00\n      0x06\n      dup2\n      gt\n      iszero\n      tag_293\n      jumpi\n      tag_294\n      tag_87\n      jump\t// in\n    tag_294:\n    tag_293:\n      dup2\n      mstore\n      0x20\n      add\n      0x00\n      0x01\n      dup2\n      gt\n      iszero\n      tag_295\n      jumpi\n      tag_296\n      tag_87\n      jump\t// in\n    tag_296:\n    tag_295:\n      dup2\n      mstore\n      0x20\n      add\n      and(0xffffffffffffffffffffffffffffffffffffffff, 0x00)\n      dup2\n      mstore\n      0x20\n      add\n      0x00\n      dup2\n      mstore\n      0x20\n      add\n      0x00\n      dup2\n      mstore\n      pop\n      swap1\n      jump\t// out\n        /* \"#utility.yul\":7:84   */\n    tag_297:\n        /* \"#utility.yul\":44:51   */\n      0x00\n        /* \"#utility.yul\":73:78   */\n      dup2\n        /* \"#utility.yul\":62:78   */\n      swap1\n      pop\n        /* \"#utility.yul\":7:84   */\n      swap2\n      swap1\n      pop\n      jump\t// out\n        /* \"#utility.yul\":90:208   */\n    tag_298:\n        /* \"#utility.yul\":177:201   */\n      tag_342\n        /* \"#utility.yul\":195:200   */\n      dup2\n        /* \"#utility.yul\":177:201   */\n      tag_297\n      jump\t// in\n    tag_342:\n        /* \"#utility.yul\":172:175   */\n      dup3\n        /* \"#utility.yul\":165:202   */\n      mstore\n        /* \"#utility.yul\":90:208   */\n      pop\n      pop\n      jump\t// out\n        /* \"#utility.yul\":214:436   */\n    tag_24:\n        /* \"#utility.yul\":307:311   */\n      0x00\n        /* \"#utility.yul\":345:347   */\n      0x20\n        /* \"#utility.yul\":334:343   */\n      dup3\n        /* \"#utility.yul\":330:348   */\n      add\n        /* \"#utility.yul\":322:348   */\n      swap1\n      pop\n        /* \"#utility.yul\":358:429   */\n      tag_344\n        /* \"#utility.yul\":426:427   */\n      0x00\n        /* \"#utility.yul\":415:424   */\n      dup4\n        /* \"#utility.yul\":411:428   */\n      add\n        /* \"#utility.yul\":402:408   */\n      dup5\n        /* \"#utility.yul\":358:429   */\n      tag_298\n      jump\t// in\n    tag_344:\n        /* \"#utility.yul\":214:436   */\n      swap3\n      swap2\n      pop\n      pop\n      jump\t// out\n        /* \"#utility.yul\":523:640   */\n    tag_300:\n        /* \"#utility.yul\":632:633   */\n      0x00\n        /* \"#utility.yul\":629:630   */\n      dup1\n        /* \"#utility.yul\":622:634   */\n      revert\n        /* \"#utility.yul\":769:891   */\n    tag_302:\n        /* \"#utility.yul\":842:866   */\n      tag_349\n        /* \"#utility.yul\":860:865   */\n      dup2\n        /* \"#utility.yul\":842:866   */\n      tag_297\n      jump\t// in\n    tag_349:\n        /* \"#utility.yul\":835:840   */\n      dup2\n        /* \"#utility.yul\":832:867   */\n      eq\n        /* \"#utility.yul\":822:885   */\n      tag_350\n      jumpi\n        /* \"#utility.yul\":881:882   */\n      0x00\n        /* \"#utility.yul\":878:879   */\n      dup1\n        /* \"#utility.yul\":871:883   */\n      revert\n        /* \"#utility.yul\":822:885   */\n    tag_350:\n        /* \"#utility.yul\":769:891   */\n      pop\n      jump\t// out\n        /* \"#utility.yul\":897:1036   */\n    tag_303:\n        /* \"#utility.yul\":943:948   */\n      0x00\n        /* \"#utility.yul\":981:987   */\n      dup2\n        /* \"#utility.yul\":968:988   */\n      calldataload\n        /* \"#utility.yul\":959:988   */\n      swap1\n      pop\n        /* \"#utility.yul\":997:1030   */\n      tag_352\n        /* \"#utility.yul\":1024:1029   */\n      dup2\n        /* \"#utility.yul\":997:1030   */\n      tag_302\n      jump\t// in\n    tag_352:\n        /* \"#utility.yul\":897:1036   */\n      swap3\n      swap2\n      pop\n      pop\n      jump\t// out\n        /* \"#utility.yul\":1042:1371   */\n    tag_30:\n        /* \"#utility.yul\":1101:1107   */\n      0x00\n        /* \"#utility.yul\":1150:1152   */\n      0x20\n        /* \"#utility.yul\":1138:1147   */\n      dup3\n        /* \"#utility.yul\":1129:1136   */\n      dup5\n        /* \"#utility.yul\":1125:1148   */\n      sub\n        /* \"#utility.yul\":1121:1153   */\n      slt\n        /* \"#utility.yul\":1118:1237   */\n      iszero\n      tag_354\n      jumpi\n        /* \"#utility.yul\":1156:1235   */\n      tag_355\n      tag_300\n      jump\t// in\n    tag_355:\n        /* \"#utility.yul\":1118:1237   */\n    tag_354:\n        /* \"#utility.yul\":1276:1277   */\n      0x00\n        /* \"#utility.yul\":1301:1354   */\n      tag_356\n        /* \"#utility.yul\":1346:1353   */\n      dup5\n        /* \"#utility.yul\":1337:1343   */\n      dup3\n        /* \"#utility.yul\":1326:1335   */\n      dup6\n        /* \"#utility.yul\":1322:1344   */\n      add\n        /* \"#utility.yul\":1301:1354   */\n      tag_303\n      jump\t// in\n    tag_356:\n        /* \"#utility.yul\":1291:1354   */\n      swap2\n      pop\n        /* \"#utility.yul\":1247:1364   */\n      pop\n        /* \"#utility.yul\":1042:1371   */\n      swap3\n      swap2\n      pop\n      pop\n      jump\t// out\n        /* \"#utility.yul\":1377:1557   */\n    tag_87:\n        /* \"#utility.yul\":1425:1502   */\n      0x4e487b7100000000000000000000000000000000000000000000000000000000\n        /* \"#utility.yul\":1422:1423   */\n      0x00\n        /* \"#utility.yul\":1415:1503   */\n      mstore\n        /* \"#utility.yul\":1522:1526   */\n      0x21\n        /* \"#utility.yul\":1519:1520   */\n      0x04\n        /* \"#utility.yul\":1512:1527   */\n      mstore\n        /* \"#utility.yul\":1546:1550   */\n      0x24\n        /* \"#utility.yul\":1543:1544   */\n      0x00\n        /* \"#utility.yul\":1536:1551   */\n      revert\n        /* \"#utility.yul\":1563:1683   */\n    tag_304:\n        /* \"#utility.yul\":1651:1652   */\n      0x07\n        /* \"#utility.yul\":1644:1649   */\n      dup2\n        /* \"#utility.yul\":1641:1653   */\n      lt\n        /* \"#utility.yul\":1631:1677   */\n      tag_359\n      jumpi\n        /* \"#utility.yul\":1657:1675   */\n      tag_360\n      tag_87\n      jump\t// in\n    tag_360:\n        /* \"#utility.yul\":1631:1677   */\n    tag_359:\n        /* \"#utility.yul\":1563:1683   */\n      pop\n      jump\t// out\n        /* \"#utility.yul\":1689:1830   */\n    tag_305:\n        /* \"#utility.yul\":1741:1748   */\n      0x00\n        /* \"#utility.yul\":1770:1775   */\n      dup2\n        /* \"#utility.yul\":1759:1775   */\n      swap1\n      pop\n        /* \"#utility.yul\":1776:1824   */\n      tag_362\n        /* \"#utility.yul\":1818:1823   */\n      dup3\n        /* \"#utility.yul\":1776:1824   */\n      tag_304\n      jump\t// in\n    tag_362:\n        /* \"#utility.yul\":1689:1830   */\n      swap2\n      swap1\n      pop\n      jump\t// out\n        /* \"#utility.yul\":1836:1977   */\n    tag_306:\n        /* \"#utility.yul\":1899:1908   */\n      0x00\n        /* \"#utility.yul\":1932:1971   */\n      tag_364\n        /* \"#utility.yul\":1965:1970   */\n      dup3\n        /* \"#utility.yul\":1932:1971   */\n      tag_305\n      jump\t// in\n    tag_364:\n        /* \"#utility.yul\":1919:1971   */\n      swap1\n      pop\n        /* \"#utility.yul\":1836:1977   */\n      swap2\n      swap1\n      pop\n      jump\t// out\n        /* \"#utility.yul\":1983:2140   */\n    tag_307:\n        /* \"#utility.yul\":2083:2133   */\n      tag_366\n        /* \"#utility.yul\":2127:2132   */\n      dup2\n        /* \"#utility.yul\":2083:2133   */\n      tag_306\n      jump\t// in\n    tag_366:\n        /* \"#utility.yul\":2078:2081   */\n      dup3\n        /* \"#utility.yul\":2071:2134   */\n      mstore\n        /* \"#utility.yul\":1983:2140   */\n      pop\n      pop\n      jump\t// out\n        /* \"#utility.yul\":2146:2394   */\n    tag_33:\n        /* \"#utility.yul\":2252:2256   */\n      0x00\n        /* \"#utility.yul\":2290:2292   */\n      0x20\n        /* \"#utility.yul\":2279:2288   */\n      dup3\n        /* \"#utility.yul\":2275:2293   */\n      add\n        /* \"#utility.yul\":2267:2293   */\n      swap1\n      pop\n        /* \"#utility.yul\":2303:2387   */\n      tag_368\n        /* \"#utility.yul\":2384:2385   */\n      0x00\n        /* \"#utility.yul\":2373:2382   */\n      dup4\n        /* \"#utility.yul\":2369:2386   */\n      add\n        /* \"#utility.yul\":2360:2366   */\n      dup5\n        /* \"#utility.yul\":2303:2387   */\n      tag_307\n      jump\t// in\n    tag_368:\n        /* \"#utility.yul\":2146:2394   */\n      swap3\n      swap2\n      pop\n      pop\n      jump\t// out\n        /* \"#utility.yul\":2400:2526   */\n    tag_308:\n        /* \"#utility.yul\":2437:2444   */\n      0x00\n        /* \"#utility.yul\":2477:2519   */\n      0xffffffffffffffffffffffffffffffffffffffff\n        /* \"#utility.yul\":2470:2475   */\n      dup3\n        /* \"#utility.yul\":2466:2520   */\n      and\n        /* \"#utility.yul\":2455:2520   */\n      swap1\n      pop\n        /* \"#utility.yul\":2400:2526   */\n      swap2\n      swap1\n      pop\n      jump\t// out\n        /* \"#utility.yul\":2532:2628   */\n    tag_309:\n        /* \"#utility.yul\":2569:2576   */\n      0x00\n        /* \"#utility.yul\":2598:2622   */\n      tag_371\n        /* \"#utility.yul\":2616:2621   */\n      dup3\n        /* \"#utility.yul\":2598:2622   */\n      tag_308\n      jump\t// in\n    tag_371:\n        /* \"#utility.yul\":2587:2622   */\n      swap1\n      pop\n        /* \"#utility.yul\":2532:2628   */\n      swap2\n      swap1\n      pop\n      jump\t// out\n        /* \"#utility.yul\":2634:2756   */\n    tag_310:\n        /* \"#utility.yul\":2707:2731   */\n      tag_373\n        /* \"#utility.yul\":2725:2730   */\n      dup2\n        /* \"#utility.yul\":2707:2731   */\n      tag_309\n      jump\t// in\n    tag_373:\n        /* \"#utility.yul\":2700:2705   */\n      dup2\n        /* \"#utility.yul\":2697:2732   */\n      eq\n        /* \"#utility.yul\":2687:2750   */\n      tag_374\n      jumpi\n        /* \"#utility.yul\":2746:2747   */\n      0x00\n        /* \"#utility.yul\":2743:2744   */\n      dup1\n        /* \"#utility.yul\":2736:2748   */\n      revert\n        /* \"#utility.yul\":2687:2750   */\n    tag_374:\n        /* \"#utility.yul\":2634:2756   */\n      pop\n      jump\t// out\n        /* \"#utility.yul\":2762:2901   */\n    tag_311:\n        /* \"#utility.yul\":2808:2813   */\n      0x00\n        /* \"#utility.yul\":2846:2852   */\n      dup2\n        /* \"#utility.yul\":2833:2853   */\n      calldataload\n        /* \"#utility.yul\":2824:2853   */\n      swap1\n      pop\n        /* \"#utility.yul\":2862:2895   */\n      tag_376\n        /* \"#utility.yul\":2889:2894   */\n      dup2\n        /* \"#utility.yul\":2862:2895   */\n      tag_310\n      jump\t// in\n    tag_376:\n        /* \"#utility.yul\":2762:2901   */\n      swap3\n      swap2\n      pop\n      pop\n      jump\t// out\n        /* \"#utility.yul\":2907:3381   */\n    tag_56:\n        /* \"#utility.yul\":2975:2981   */\n      0x00\n        /* \"#utility.yul\":2983:2989   */\n      dup1\n        /* \"#utility.yul\":3032:3034   */\n      0x40\n        /* \"#utility.yul\":3020:3029   */\n      dup4\n        /* \"#utility.yul\":3011:3018   */\n      dup6\n        /* \"#utility.yul\":3007:3030   */\n      sub\n        /* \"#utility.yul\":3003:3035   */\n      slt\n        /* \"#utility.yul\":3000:3119   */\n      iszero\n      tag_378\n      jumpi\n        /* \"#utility.yul\":3038:3117   */\n      tag_379\n      tag_300\n      jump\t// in\n    tag_379:\n        /* \"#utility.yul\":3000:3119   */\n    tag_378:\n        /* \"#utility.yul\":3158:3159   */\n      0x00\n        /* \"#utility.yul\":3183:3236   */\n      tag_380\n        /* \"#utility.yul\":3228:3235   */\n      dup6\n        /* \"#utility.yul\":3219:3225   */\n      dup3\n        /* \"#utility.yul\":3208:3217   */\n      dup7\n        /* \"#utility.yul\":3204:3226   */\n      add\n        /* \"#utility.yul\":3183:3236   */\n      tag_311\n      jump\t// in\n    tag_380:\n        /* \"#utility.yul\":3173:3236   */\n      swap3\n      pop\n        /* \"#utility.yul\":3129:3246   */\n      pop\n        /* \"#utility.yul\":3285:3287   */\n      0x20\n        /* \"#utility.yul\":3311:3364   */\n      tag_381\n        /* \"#utility.yul\":3356:3363   */\n      dup6\n        /* \"#utility.yul\":3347:3353   */\n      dup3\n        /* \"#utility.yul\":3336:3345   */\n      dup7\n        /* \"#utility.yul\":3332:3354   */\n      add\n        /* \"#utility.yul\":3311:3364   */\n      tag_303\n      jump\t// in\n    tag_381:\n        /* \"#utility.yul\":3301:3364   */\n      swap2\n      pop\n        /* \"#utility.yul\":3256:3374   */\n      pop\n        /* \"#utility.yul\":2907:3381   */\n      swap3\n      pop\n      swap3\n      swap1\n      pop\n      jump\t// out\n        /* \"#utility.yul\":3387:3477   */\n    tag_312:\n        /* \"#utility.yul\":3421:3428   */\n      0x00\n        /* \"#utility.yul\":3464:3469   */\n      dup2\n        /* \"#utility.yul\":3457:3470   */\n      iszero\n        /* \"#utility.yul\":3450:3471   */\n      iszero\n        /* \"#utility.yul\":3439:3471   */\n      swap1\n      pop\n        /* \"#utility.yul\":3387:3477   */\n      swap2\n      swap1\n      pop\n      jump\t// out\n        /* \"#utility.yul\":3483:3592   */\n    tag_313:\n        /* \"#utility.yul\":3564:3585   */\n      tag_384\n        /* \"#utility.yul\":3579:3584   */\n      dup2\n        /* \"#utility.yul\":3564:3585   */\n      tag_312\n      jump\t// in\n    tag_384:\n        /* \"#utility.yul\":3559:3562   */\n      dup3\n        /* \"#utility.yul\":3552:3586   */\n      mstore\n        /* \"#utility.yul\":3483:3592   */\n      pop\n      pop\n      jump\t// out\n        /* \"#utility.yul\":3598:3808   */\n    tag_59:\n        /* \"#utility.yul\":3685:3689   */\n      0x00\n        /* \"#utility.yul\":3723:3725   */\n      0x20\n        /* \"#utility.yul\":3712:3721   */\n      dup3\n        /* \"#utility.yul\":3708:3726   */\n      add\n        /* \"#utility.yul\":3700:3726   */\n      swap1\n      pop\n        /* \"#utility.yul\":3736:3801   */\n      tag_386\n        /* \"#utility.yul\":3798:3799   */\n      0x00\n        /* \"#utility.yul\":3787:3796   */\n      dup4\n        /* \"#utility.yul\":3783:3800   */\n      add\n        /* \"#utility.yul\":3774:3780   */\n      dup5\n        /* \"#utility.yul\":3736:3801   */\n      tag_313\n      jump\t// in\n    tag_386:\n        /* \"#utility.yul\":3598:3808   */\n      swap3\n      swap2\n      pop\n      pop\n      jump\t// out\n        /* \"#utility.yul\":3814:3922   */\n    tag_314:\n        /* \"#utility.yul\":3891:3915   */\n      tag_388\n        /* \"#utility.yul\":3909:3914   */\n      dup2\n        /* \"#utility.yul\":3891:3915   */\n      tag_297\n      jump\t// in\n    tag_388:\n        /* \"#utility.yul\":3886:3889   */\n      dup3\n        /* \"#utility.yul\":3879:3916   */\n      mstore\n        /* \"#utility.yul\":3814:3922   */\n      pop\n      pop\n      jump\t// out\n        /* \"#utility.yul\":3928:4075   */\n    tag_315:\n        /* \"#utility.yul\":4018:4068   */\n      tag_390\n        /* \"#utility.yul\":4062:4067   */\n      dup2\n        /* \"#utility.yul\":4018:4068   */\n      tag_306\n      jump\t// in\n    tag_390:\n        /* \"#utility.yul\":4013:4016   */\n      dup3\n        /* \"#utility.yul\":4006:4069   */\n      mstore\n        /* \"#utility.yul\":3928:4075   */\n      pop\n      pop\n      jump\t// out\n        /* \"#utility.yul\":4081:4201   */\n    tag_316:\n        /* \"#utility.yul\":4169:4170   */\n      0x02\n        /* \"#utility.yul\":4162:4167   */\n      dup2\n        /* \"#utility.yul\":4159:4171   */\n      lt\n        /* \"#utility.yul\":4149:4195   */\n      tag_392\n      jumpi\n        /* \"#utility.yul\":4175:4193   */\n      tag_393\n      tag_87\n      jump\t// in\n    tag_393:\n        /* \"#utility.yul\":4149:4195   */\n    tag_392:\n        /* \"#utility.yul\":4081:4201   */\n      pop\n      jump\t// out\n        /* \"#utility.yul\":4207:4348   */\n    tag_317:\n        /* \"#utility.yul\":4259:4266   */\n      0x00\n        /* \"#utility.yul\":4288:4293   */\n      dup2\n        /* \"#utility.yul\":4277:4293   */\n      swap1\n      pop\n        /* \"#utility.yul\":4294:4342   */\n      tag_395\n        /* \"#utility.yul\":4336:4341   */\n      dup3\n        /* \"#utility.yul\":4294:4342   */\n      tag_316\n      jump\t// in\n    tag_395:\n        /* \"#utility.yul\":4207:4348   */\n      swap2\n      swap1\n      pop\n      jump\t// out\n        /* \"#utility.yul\":4354:4495   */\n    tag_318:\n        /* \"#utility.yul\":4417:4426   */\n      0x00\n        /* \"#utility.yul\":4450:4489   */\n      tag_397\n        /* \"#utility.yul\":4483:4488   */\n      dup3\n        /* \"#utility.yul\":4450:4489   */\n      tag_317\n      jump\t// in\n    tag_397:\n        /* \"#utility.yul\":4437:4489   */\n      swap1\n      pop\n        /* \"#utility.yul\":4354:4495   */\n      swap2\n      swap1\n      pop\n      jump\t// out\n        /* \"#utility.yul\":4501:4648   */\n    tag_319:\n        /* \"#utility.yul\":4591:4641   */\n      tag_399\n        /* \"#utility.yul\":4635:4640   */\n      dup2\n        /* \"#utility.yul\":4591:4641   */\n      tag_318\n      jump\t// in\n    tag_399:\n        /* \"#utility.yul\":4586:4589   */\n      dup3\n        /* \"#utility.yul\":4579:4642   */\n      mstore\n        /* \"#utility.yul\":4501:4648   */\n      pop\n      pop\n      jump\t// out\n        /* \"#utility.yul\":4654:4762   */\n    tag_320:\n        /* \"#utility.yul\":4731:4755   */\n      tag_401\n        /* \"#utility.yul\":4749:4754   */\n      dup2\n        /* \"#utility.yul\":4731:4755   */\n      tag_309\n      jump\t// in\n    tag_401:\n        /* \"#utility.yul\":4726:4729   */\n      dup3\n        /* \"#utility.yul\":4719:4756   */\n      mstore\n        /* \"#utility.yul\":4654:4762   */\n      pop\n      pop\n      jump\t// out\n        /* \"#utility.yul\":4840:6650   */\n    tag_321:\n        /* \"#utility.yul\":4993:4999   */\n      0x0120\n        /* \"#utility.yul\":4988:4991   */\n      dup3\n        /* \"#utility.yul\":4984:5000   */\n      add\n        /* \"#utility.yul\":5088:5092   */\n      0x00\n        /* \"#utility.yul\":5081:5086   */\n      dup3\n        /* \"#utility.yul\":5077:5093   */\n      add\n        /* \"#utility.yul\":5071:5094   */\n      mload\n        /* \"#utility.yul\":5107:5170   */\n      tag_403\n        /* \"#utility.yul\":5164:5168   */\n      0x00\n        /* \"#utility.yul\":5159:5162   */\n      dup6\n        /* \"#utility.yul\":5155:5169   */\n      add\n        /* \"#utility.yul\":5141:5153   */\n      dup3\n        /* \"#utility.yul\":5107:5170   */\n      tag_314\n      jump\t// in\n    tag_403:\n        /* \"#utility.yul\":5010:5180   */\n      pop\n        /* \"#utility.yul\":5266:5270   */\n      0x20\n        /* \"#utility.yul\":5259:5264   */\n      dup3\n        /* \"#utility.yul\":5255:5271   */\n      add\n        /* \"#utility.yul\":5249:5272   */\n      mload\n        /* \"#utility.yul\":5285:5348   */\n      tag_404\n        /* \"#utility.yul\":5342:5346   */\n      0x20\n        /* \"#utility.yul\":5337:5340   */\n      dup6\n        /* \"#utility.yul\":5333:5347   */\n      add\n        /* \"#utility.yul\":5319:5331   */\n      dup3\n        /* \"#utility.yul\":5285:5348   */\n      tag_314\n      jump\t// in\n    tag_404:\n        /* \"#utility.yul\":5190:5358   */\n      pop\n        /* \"#utility.yul\":5444:5448   */\n      0x40\n        /* \"#utility.yul\":5437:5442   */\n      dup3\n        /* \"#utility.yul\":5433:5449   */\n      add\n        /* \"#utility.yul\":5427:5450   */\n      mload\n        /* \"#utility.yul\":5463:5526   */\n      tag_405\n        /* \"#utility.yul\":5520:5524   */\n      0x40\n        /* \"#utility.yul\":5515:5518   */\n      dup6\n        /* \"#utility.yul\":5511:5525   */\n      add\n        /* \"#utility.yul\":5497:5509   */\n      dup3\n        /* \"#utility.yul\":5463:5526   */\n      tag_314\n      jump\t// in\n    tag_405:\n        /* \"#utility.yul\":5368:5536   */\n      pop\n        /* \"#utility.yul\":5626:5630   */\n      0x60\n        /* \"#utility.yul\":5619:5624   */\n      dup3\n        /* \"#utility.yul\":5615:5631   */\n      add\n        /* \"#utility.yul\":5609:5632   */\n      mload\n        /* \"#utility.yul\":5645:5708   */\n      tag_406\n        /* \"#utility.yul\":5702:5706   */\n      0x60\n        /* \"#utility.yul\":5697:5700   */\n      dup6\n        /* \"#utility.yul\":5693:5707   */\n      add\n        /* \"#utility.yul\":5679:5691   */\n      dup3\n        /* \"#utility.yul\":5645:5708   */\n      tag_314\n      jump\t// in\n    tag_406:\n        /* \"#utility.yul\":5546:5718   */\n      pop\n        /* \"#utility.yul\":5805:5809   */\n      0x80\n        /* \"#utility.yul\":5798:5803   */\n      dup3\n        /* \"#utility.yul\":5794:5810   */\n      add\n        /* \"#utility.yul\":5788:5811   */\n      mload\n        /* \"#utility.yul\":5824:5900   */\n      tag_407\n        /* \"#utility.yul\":5894:5898   */\n      0x80\n        /* \"#utility.yul\":5889:5892   */\n      dup6\n        /* \"#utility.yul\":5885:5899   */\n      add\n        /* \"#utility.yul\":5871:5883   */\n      dup3\n        /* \"#utility.yul\":5824:5900   */\n      tag_315\n      jump\t// in\n    tag_407:\n        /* \"#utility.yul\":5728:5910   */\n      pop\n        /* \"#utility.yul\":5996:6000   */\n      0xa0\n        /* \"#utility.yul\":5989:5994   */\n      dup3\n        /* \"#utility.yul\":5985:6001   */\n      add\n        /* \"#utility.yul\":5979:6002   */\n      mload\n        /* \"#utility.yul\":6015:6091   */\n      tag_408\n        /* \"#utility.yul\":6085:6089   */\n      0xa0\n        /* \"#utility.yul\":6080:6083   */\n      dup6\n        /* \"#utility.yul\":6076:6090   */\n      add\n        /* \"#utility.yul\":6062:6074   */\n      dup3\n        /* \"#utility.yul\":6015:6091   */\n      tag_319\n      jump\t// in\n    tag_408:\n        /* \"#utility.yul\":5920:6101   */\n      pop\n        /* \"#utility.yul\":6188:6192   */\n      0xc0\n        /* \"#utility.yul\":6181:6186   */\n      dup3\n        /* \"#utility.yul\":6177:6193   */\n      add\n        /* \"#utility.yul\":6171:6194   */\n      mload\n        /* \"#utility.yul\":6207:6270   */\n      tag_409\n        /* \"#utility.yul\":6264:6268   */\n      0xc0\n        /* \"#utility.yul\":6259:6262   */\n      dup6\n        /* \"#utility.yul\":6255:6269   */\n      add\n        /* \"#utility.yul\":6241:6253   */\n      dup3\n        /* \"#utility.yul\":6207:6270   */\n      tag_320\n      jump\t// in\n    tag_409:\n        /* \"#utility.yul\":6111:6280   */\n      pop\n        /* \"#utility.yul\":6366:6370   */\n      0xe0\n        /* \"#utility.yul\":6359:6364   */\n      dup3\n        /* \"#utility.yul\":6355:6371   */\n      add\n        /* \"#utility.yul\":6349:6372   */\n      mload\n        /* \"#utility.yul\":6385:6448   */\n      tag_410\n        /* \"#utility.yul\":6442:6446   */\n      0xe0\n        /* \"#utility.yul\":6437:6440   */\n      dup6\n        /* \"#utility.yul\":6433:6447   */\n      add\n        /* \"#utility.yul\":6419:6431   */\n      dup3\n        /* \"#utility.yul\":6385:6448   */\n      tag_314\n      jump\t// in\n    tag_410:\n        /* \"#utility.yul\":6290:6458   */\n      pop\n        /* \"#utility.yul\":6547:6553   */\n      0x0100\n        /* \"#utility.yul\":6540:6545   */\n      dup3\n        /* \"#utility.yul\":6536:6554   */\n      add\n        /* \"#utility.yul\":6530:6555   */\n      mload\n        /* \"#utility.yul\":6568:6633   */\n      tag_411\n        /* \"#utility.yul\":6625:6631   */\n      0x0100\n        /* \"#utility.yul\":6620:6623   */\n      dup6\n        /* \"#utility.yul\":6616:6632   */\n      add\n        /* \"#utility.yul\":6602:6614   */\n      dup3\n        /* \"#utility.yul\":6568:6633   */\n      tag_314\n      jump\t// in\n    tag_411:\n        /* \"#utility.yul\":6468:6643   */\n      pop\n        /* \"#utility.yul\":4962:6650   */\n      pop\n        /* \"#utility.yul\":4840:6650   */\n      pop\n      pop\n      jump\t// out\n        /* \"#utility.yul\":6656:6991   */\n    tag_67:\n        /* \"#utility.yul\":6805:6809   */\n      0x00\n        /* \"#utility.yul\":6843:6846   */\n      0x0120\n        /* \"#utility.yul\":6832:6841   */\n      dup3\n        /* \"#utility.yul\":6828:6847   */\n      add\n        /* \"#utility.yul\":6820:6847   */\n      swap1\n      pop\n        /* \"#utility.yul\":6857:6984   */\n      tag_413\n        /* \"#utility.yul\":6981:6982   */\n      0x00\n        /* \"#utility.yul\":6970:6979   */\n      dup4\n        /* \"#utility.yul\":6966:6983   */\n      add\n        /* \"#utility.yul\":6957:6963   */\n      dup5\n        /* \"#utility.yul\":6857:6984   */\n      tag_321\n      jump\t// in\n    tag_413:\n        /* \"#utility.yul\":6656:6991   */\n      swap3\n      swap2\n      pop\n      pop\n      jump\t// out\n        /* \"#utility.yul\":6997:7326   */\n    tag_70:\n        /* \"#utility.yul\":7056:7062   */\n      0x00\n        /* \"#utility.yul\":7105:7107   */\n      0x20\n        /* \"#utility.yul\":7093:7102   */\n      dup3\n        /* \"#utility.yul\":7084:7091   */\n      dup5\n        /* \"#utility.yul\":7080:7103   */\n      sub\n        /* \"#utility.yul\":7076:7108   */\n      slt\n        /* \"#utility.yul\":7073:7192   */\n      iszero\n      tag_415\n      jumpi\n        /* \"#utility.yul\":7111:7190   */\n      tag_416\n      tag_300\n      jump\t// in\n    tag_416:\n        /* \"#utility.yul\":7073:7192   */\n    tag_415:\n        /* \"#utility.yul\":7231:7232   */\n      0x00\n        /* \"#utility.yul\":7256:7309   */\n      tag_417\n        /* \"#utility.yul\":7301:7308   */\n      dup5\n        /* \"#utility.yul\":7292:7298   */\n      dup3\n        /* \"#utility.yul\":7281:7290   */\n      dup6\n        /* \"#utility.yul\":7277:7299   */\n      add\n        /* \"#utility.yul\":7256:7309   */\n      tag_311\n      jump\t// in\n    tag_417:\n        /* \"#utility.yul\":7246:7309   */\n      swap2\n      pop\n        /* \"#utility.yul\":7202:7319   */\n      pop\n        /* \"#utility.yul\":6997:7326   */\n      swap3\n      swap2\n      pop\n      pop\n      jump\t// out\n        /* \"#utility.yul\":7332:7512   */\n    tag_83:\n        /* \"#utility.yul\":7380:7457   */\n      0x4e487b7100000000000000000000000000000000000000000000000000000000\n        /* \"#utility.yul\":7377:7378   */\n      0x00\n        /* \"#utility.yul\":7370:7458   */\n      mstore\n        /* \"#utility.yul\":7477:7481   */\n      0x32\n        /* \"#utility.yul\":7474:7475   */\n      0x04\n        /* \"#utility.yul\":7467:7482   */\n      mstore\n        /* \"#utility.yul\":7501:7505   */\n      0x24\n        /* \"#utility.yul\":7498:7499   */\n      0x00\n        /* \"#utility.yul\":7491:7506   */\n      revert\n        /* \"#utility.yul\":7518:7687   */\n    tag_322:\n        /* \"#utility.yul\":7602:7613   */\n      0x00\n        /* \"#utility.yul\":7636:7642   */\n      dup3\n        /* \"#utility.yul\":7631:7634   */\n      dup3\n        /* \"#utility.yul\":7624:7643   */\n      mstore\n        /* \"#utility.yul\":7676:7680   */\n      0x20\n        /* \"#utility.yul\":7671:7674   */\n      dup3\n        /* \"#utility.yul\":7667:7681   */\n      add\n        /* \"#utility.yul\":7652:7681   */\n      swap1\n      pop\n        /* \"#utility.yul\":7518:7687   */\n      swap3\n      swap2\n      pop\n      pop\n      jump\t// out\n        /* \"#utility.yul\":7693:7853   */\n    tag_323:\n        /* \"#utility.yul\":7833:7845   */\n      0x496e76616c696420494400000000000000000000000000000000000000000000\n        /* \"#utility.yul\":7829:7830   */\n      0x00\n        /* \"#utility.yul\":7821:7827   */\n      dup3\n        /* \"#utility.yul\":7817:7831   */\n      add\n        /* \"#utility.yul\":7810:7846   */\n      mstore\n        /* \"#utility.yul\":7693:7853   */\n      pop\n      jump\t// out\n        /* \"#utility.yul\":7859:8225   */\n    tag_324:\n        /* \"#utility.yul\":8001:8004   */\n      0x00\n        /* \"#utility.yul\":8022:8089   */\n      tag_422\n        /* \"#utility.yul\":8086:8088   */\n      0x0a\n        /* \"#utility.yul\":8081:8084   */\n      dup4\n        /* \"#utility.yul\":8022:8089   */\n      tag_322\n      jump\t// in\n    tag_422:\n        /* \"#utility.yul\":8015:8089   */\n      swap2\n      pop\n        /* \"#utility.yul\":8098:8191   */\n      tag_423\n        /* \"#utility.yul\":8187:8190   */\n      dup3\n        /* \"#utility.yul\":8098:8191   */\n      tag_323\n      jump\t// in\n    tag_423:\n        /* \"#utility.yul\":8216:8218   */\n      0x20\n        /* \"#utility.yul\":8211:8214   */\n      dup3\n        /* \"#utility.yul\":8207:8219   */\n      add\n        /* \"#utility.yul\":8200:8219   */\n      swap1\n      pop\n        /* \"#utility.yul\":7859:8225   */\n      swap2\n      swap1\n      pop\n      jump\t// out\n        /* \"#utility.yul\":8231:8650   */\n    tag_93:\n        /* \"#utility.yul\":8397:8401   */\n      0x00\n        /* \"#utility.yul\":8435:8437   */\n      0x20\n        /* \"#utility.yul\":8424:8433   */\n      dup3\n        /* \"#utility.yul\":8420:8438   */\n      add\n        /* \"#utility.yul\":8412:8438   */\n      swap1\n      pop\n        /* \"#utility.yul\":8484:8493   */\n      dup2\n        /* \"#utility.yul\":8478:8482   */\n      dup2\n        /* \"#utility.yul\":8474:8494   */\n      sub\n        /* \"#utility.yul\":8470:8471   */\n      0x00\n        /* \"#utility.yul\":8459:8468   */\n      dup4\n        /* \"#utility.yul\":8455:8472   */\n      add\n        /* \"#utility.yul\":8448:8495   */\n      mstore\n        /* \"#utility.yul\":8512:8643   */\n      tag_425\n        /* \"#utility.yul\":8638:8642   */\n      dup2\n        /* \"#utility.yul\":8512:8643   */\n      tag_324\n      jump\t// in\n    tag_425:\n        /* \"#utility.yul\":8504:8643   */\n      swap1\n      pop\n        /* \"#utility.yul\":8231:8650   */\n      swap2\n      swap1\n      pop\n      jump\t// out\n        /* \"#utility.yul\":8656:8820   */\n    tag_325:\n        /* \"#utility.yul\":8796:8812   */\n      0x496e76616c696420616d6f756e74000000000000000000000000000000000000\n        /* \"#utility.yul\":8792:8793   */\n      0x00\n        /* \"#utility.yul\":8784:8790   */\n      dup3\n        /* \"#utility.yul\":8780:8794   */\n      add\n        /* \"#utility.yul\":8773:8813   */\n      mstore\n        /* \"#utility.yul\":8656:8820   */\n      pop\n      jump\t// out\n        /* \"#utility.yul\":8826:9192   */\n    tag_326:\n        /* \"#utility.yul\":8968:8971   */\n      0x00\n        /* \"#utility.yul\":8989:9056   */\n      tag_428\n        /* \"#utility.yul\":9053:9055   */\n      0x0e\n        /* \"#utility.yul\":9048:9051   */\n      dup4\n        /* \"#utility.yul\":8989:9056   */\n      tag_322\n      jump\t// in\n    tag_428:\n        /* \"#utility.yul\":8982:9056   */\n      swap2\n      pop\n        /* \"#utility.yul\":9065:9158   */\n      tag_429\n        /* \"#utility.yul\":9154:9157   */\n      dup3\n        /* \"#utility.yul\":9065:9158   */\n      tag_325\n      jump\t// in\n    tag_429:\n        /* \"#utility.yul\":9183:9185   */\n      0x20\n        /* \"#utility.yul\":9178:9181   */\n      dup3\n        /* \"#utility.yul\":9174:9186   */\n      add\n        /* \"#utility.yul\":9167:9186   */\n      swap1\n      pop\n        /* \"#utility.yul\":8826:9192   */\n      swap2\n      swap1\n      pop\n      jump\t// out\n        /* \"#utility.yul\":9198:9617   */\n    tag_99:\n        /* \"#utility.yul\":9364:9368   */\n      0x00\n        /* \"#utility.yul\":9402:9404   */\n      0x20\n        /* \"#utility.yul\":9391:9400   */\n      dup3\n        /* \"#utility.yul\":9387:9405   */\n      add\n        /* \"#utility.yul\":9379:9405   */\n      swap1\n      pop\n        /* \"#utility.yul\":9451:9460   */\n      dup2\n        /* \"#utility.yul\":9445:9449   */\n      dup2\n        /* \"#utility.yul\":9441:9461   */\n      sub\n        /* \"#utility.yul\":9437:9438   */\n      0x00\n        /* \"#utility.yul\":9426:9435   */\n      dup4\n        /* \"#utility.yul\":9422:9439   */\n      add\n        /* \"#utility.yul\":9415:9462   */\n      mstore\n        /* \"#utility.yul\":9479:9610   */\n      tag_431\n        /* \"#utility.yul\":9605:9609   */\n      dup2\n        /* \"#utility.yul\":9479:9610   */\n      tag_326\n      jump\t// in\n    tag_431:\n        /* \"#utility.yul\":9471:9610   */\n      swap1\n      pop\n        /* \"#utility.yul\":9198:9617   */\n      swap2\n      swap1\n      pop\n      jump\t// out\n        /* \"#utility.yul\":9623:9790   */\n    tag_327:\n        /* \"#utility.yul\":9763:9782   */\n      0x50726f706f73616c20496e616374697665000000000000000000000000000000\n        /* \"#utility.yul\":9759:9760   */\n      0x00\n        /* \"#utility.yul\":9751:9757   */\n      dup3\n        /* \"#utility.yul\":9747:9761   */\n      add\n        /* \"#utility.yul\":9740:9783   */\n      mstore\n        /* \"#utility.yul\":9623:9790   */\n      pop\n      jump\t// out\n        /* \"#utility.yul\":9796:10162   */\n    tag_328:\n        /* \"#utility.yul\":9938:9941   */\n      0x00\n        /* \"#utility.yul\":9959:10026   */\n      tag_434\n        /* \"#utility.yul\":10023:10025   */\n      0x11\n        /* \"#utility.yul\":10018:10021   */\n      dup4\n        /* \"#utility.yul\":9959:10026   */\n      tag_322\n      jump\t// in\n    tag_434:\n        /* \"#utility.yul\":9952:10026   */\n      swap2\n      pop\n        /* \"#utility.yul\":10035:10128   */\n      tag_435\n        /* \"#utility.yul\":10124:10127   */\n      dup3\n        /* \"#utility.yul\":10035:10128   */\n      tag_327\n      jump\t// in\n    tag_435:\n        /* \"#utility.yul\":10153:10155   */\n      0x20\n        /* \"#utility.yul\":10148:10151   */\n      dup3\n        /* \"#utility.yul\":10144:10156   */\n      add\n        /* \"#utility.yul\":10137:10156   */\n      swap1\n      pop\n        /* \"#utility.yul\":9796:10162   */\n      swap2\n      swap1\n      pop\n      jump\t// out\n        /* \"#utility.yul\":10168:10587   */\n    tag_110:\n        /* \"#utility.yul\":10334:10338   */\n      0x00\n        /* \"#utility.yul\":10372:10374   */\n      0x20\n        /* \"#utility.yul\":10361:10370   */\n      dup3\n        /* \"#utility.yul\":10357:10375   */\n      add\n        /* \"#utility.yul\":10349:10375   */\n      swap1\n      pop\n        /* \"#utility.yul\":10421:10430   */\n      dup2\n        /* \"#utility.yul\":10415:10419   */\n      dup2\n        /* \"#utility.yul\":10411:10431   */\n      sub\n        /* \"#utility.yul\":10407:10408   */\n      0x00\n        /* \"#utility.yul\":10396:10405   */\n      dup4\n        /* \"#utility.yul\":10392:10409   */\n      add\n        /* \"#utility.yul\":10385:10432   */\n      mstore\n        /* \"#utility.yul\":10449:10580   */\n      tag_437\n        /* \"#utility.yul\":10575:10579   */\n      dup2\n        /* \"#utility.yul\":10449:10580   */\n      tag_328\n      jump\t// in\n    tag_437:\n        /* \"#utility.yul\":10441:10580   */\n      swap1\n      pop\n        /* \"#utility.yul\":10168:10587   */\n      swap2\n      swap1\n      pop\n      jump\t// out\n        /* \"#utility.yul\":10593:10763   */\n    tag_329:\n        /* \"#utility.yul\":10733:10755   */\n      0x4d656d62657220616c726561647920766f746564000000000000000000000000\n        /* \"#utility.yul\":10729:10730   */\n      0x00\n        /* \"#utility.yul\":10721:10727   */\n      dup3\n        /* \"#utility.yul\":10717:10731   */\n      add\n        /* \"#utility.yul\":10710:10756   */\n      mstore\n        /* \"#utility.yul\":10593:10763   */\n      pop\n      jump\t// out\n        /* \"#utility.yul\":10769:11135   */\n    tag_330:\n        /* \"#utility.yul\":10911:10914   */\n      0x00\n        /* \"#utility.yul\":10932:10999   */\n      tag_440\n        /* \"#utility.yul\":10996:10998   */\n      0x14\n        /* \"#utility.yul\":10991:10994   */\n      dup4\n        /* \"#utility.yul\":10932:10999   */\n      tag_322\n      jump\t// in\n    tag_440:\n        /* \"#utility.yul\":10925:10999   */\n      swap2\n      pop\n        /* \"#utility.yul\":11008:11101   */\n      tag_441\n        /* \"#utility.yul\":11097:11100   */\n      dup3\n        /* \"#utility.yul\":11008:11101   */\n      tag_329\n      jump\t// in\n    tag_441:\n        /* \"#utility.yul\":11126:11128   */\n      0x20\n        /* \"#utility.yul\":11121:11124   */\n      dup3\n        /* \"#utility.yul\":11117:11129   */\n      add\n        /* \"#utility.yul\":11110:11129   */\n      swap1\n      pop\n        /* \"#utility.yul\":10769:11135   */\n      swap2\n      swap1\n      pop\n      jump\t// out\n        /* \"#utility.yul\":11141:11560   */\n    tag_113:\n        /* \"#utility.yul\":11307:11311   */\n      0x00\n        /* \"#utility.yul\":11345:11347   */\n      0x20\n        /* \"#utility.yul\":11334:11343   */\n      dup3\n        /* \"#utility.yul\":11330:11348   */\n      add\n        /* \"#utility.yul\":11322:11348   */\n      swap1\n      pop\n        /* \"#utility.yul\":11394:11403   */\n      dup2\n        /* \"#utility.yul\":11388:11392   */\n      dup2\n        /* \"#utility.yul\":11384:11404   */\n      sub\n        /* \"#utility.yul\":11380:11381   */\n      0x00\n        /* \"#utility.yul\":11369:11378   */\n      dup4\n        /* \"#utility.yul\":11365:11382   */\n      add\n        /* \"#utility.yul\":11358:11405   */\n      mstore\n        /* \"#utility.yul\":11422:11553   */\n      tag_443\n        /* \"#utility.yul\":11548:11552   */\n      dup2\n        /* \"#utility.yul\":11422:11553   */\n      tag_330\n      jump\t// in\n    tag_443:\n        /* \"#utility.yul\":11414:11553   */\n      swap1\n      pop\n        /* \"#utility.yul\":11141:11560   */\n      swap2\n      swap1\n      pop\n      jump\t// out\n        /* \"#utility.yul\":11566:11746   */\n    tag_331:\n        /* \"#utility.yul\":11614:11691   */\n      0x4e487b7100000000000000000000000000000000000000000000000000000000\n        /* \"#utility.yul\":11611:11612   */\n      0x00\n        /* \"#utility.yul\":11604:11692   */\n      mstore\n        /* \"#utility.yul\":11711:11715   */\n      0x11\n        /* \"#utility.yul\":11708:11709   */\n      0x04\n        /* \"#utility.yul\":11701:11716   */\n      mstore\n        /* \"#utility.yul\":11735:11739   */\n      0x24\n        /* \"#utility.yul\":11732:11733   */\n      0x00\n        /* \"#utility.yul\":11725:11740   */\n      revert\n        /* \"#utility.yul\":11752:11946   */\n    tag_141:\n        /* \"#utility.yul\":11792:11796   */\n      0x00\n        /* \"#utility.yul\":11812:11832   */\n      tag_446\n        /* \"#utility.yul\":11830:11831   */\n      dup3\n        /* \"#utility.yul\":11812:11832   */\n      tag_297\n      jump\t// in\n    tag_446:\n        /* \"#utility.yul\":11807:11832   */\n      swap2\n      pop\n        /* \"#utility.yul\":11846:11866   */\n      tag_447\n        /* \"#utility.yul\":11864:11865   */\n      dup4\n        /* \"#utility.yul\":11846:11866   */\n      tag_297\n      jump\t// in\n    tag_447:\n        /* \"#utility.yul\":11841:11866   */\n      swap3\n      pop\n        /* \"#utility.yul\":11890:11891   */\n      dup3\n        /* \"#utility.yul\":11887:11888   */\n      dup3\n        /* \"#utility.yul\":11883:11892   */\n      sub\n        /* \"#utility.yul\":11875:11892   */\n      swap1\n      pop\n        /* \"#utility.yul\":11914:11915   */\n      dup2\n        /* \"#utility.yul\":11908:11912   */\n      dup2\n        /* \"#utility.yul\":11905:11916   */\n      gt\n        /* \"#utility.yul\":11902:11939   */\n      iszero\n      tag_448\n      jumpi\n        /* \"#utility.yul\":11919:11937   */\n      tag_449\n      tag_331\n      jump\t// in\n    tag_449:\n        /* \"#utility.yul\":11902:11939   */\n    tag_448:\n        /* \"#utility.yul\":11752:11946   */\n      swap3\n      swap2\n      pop\n      pop\n      jump\t// out\n        /* \"#utility.yul\":11952:12118   */\n    tag_332:\n        /* \"#utility.yul\":12092:12110   */\n      0x496e73756666696369656e742045544800000000000000000000000000000000\n        /* \"#utility.yul\":12088:12089   */\n      0x00\n        /* \"#utility.yul\":12080:12086   */\n      dup3\n        /* \"#utility.yul\":12076:12090   */\n      add\n        /* \"#utility.yul\":12069:12111   */\n      mstore\n        /* \"#utility.yul\":11952:12118   */\n      pop\n      jump\t// out\n        /* \"#utility.yul\":12124:12490   */\n    tag_333:\n        /* \"#utility.yul\":12266:12269   */\n      0x00\n        /* \"#utility.yul\":12287:12354   */\n      tag_452\n        /* \"#utility.yul\":12351:12353   */\n      0x10\n        /* \"#utility.yul\":12346:12349   */\n      dup4\n        /* \"#utility.yul\":12287:12354   */\n      tag_322\n      jump\t// in\n    tag_452:\n        /* \"#utility.yul\":12280:12354   */\n      swap2\n      pop\n        /* \"#utility.yul\":12363:12456   */\n      tag_453\n        /* \"#utility.yul\":12452:12455   */\n      dup3\n        /* \"#utility.yul\":12363:12456   */\n      tag_332\n      jump\t// in\n    tag_453:\n        /* \"#utility.yul\":12481:12483   */\n      0x20\n        /* \"#utility.yul\":12476:12479   */\n      dup3\n        /* \"#utility.yul\":12472:12484   */\n      add\n        /* \"#utility.yul\":12465:12484   */\n      swap1\n      pop\n        /* \"#utility.yul\":12124:12490   */\n      swap2\n      swap1\n      pop\n      jump\t// out\n        /* \"#utility.yul\":12496:12915   */\n    tag_179:\n        /* \"#utility.yul\":12662:12666   */\n      0x00\n        /* \"#utility.yul\":12700:12702   */\n      0x20\n        /* \"#utility.yul\":12689:12698   */\n      dup3\n        /* \"#utility.yul\":12685:12703   */\n      add\n        /* \"#utility.yul\":12677:12703   */\n      swap1\n      pop\n        /* \"#utility.yul\":12749:12758   */\n      dup2\n        /* \"#utility.yul\":12743:12747   */\n      dup2\n        /* \"#utility.yul\":12739:12759   */\n      sub\n        /* \"#utility.yul\":12735:12736   */\n      0x00\n        /* \"#utility.yul\":12724:12733   */\n      dup4\n        /* \"#utility.yul\":12720:12737   */\n      add\n        /* \"#utility.yul\":12713:12760   */\n      mstore\n        /* \"#utility.yul\":12777:12908   */\n      tag_455\n        /* \"#utility.yul\":12903:12907   */\n      dup2\n        /* \"#utility.yul\":12777:12908   */\n      tag_333\n      jump\t// in\n    tag_455:\n        /* \"#utility.yul\":12769:12908   */\n      swap1\n      pop\n        /* \"#utility.yul\":12496:12915   */\n      swap2\n      swap1\n      pop\n      jump\t// out\n        /* \"#utility.yul\":12921:13141   */\n    tag_334:\n        /* \"#utility.yul\":13061:13095   */\n      0x50726f706f73616c206e6f742071756575656420666f7220657865637574696f\n        /* \"#utility.yul\":13057:13058   */\n      0x00\n        /* \"#utility.yul\":13049:13055   */\n      dup3\n        /* \"#utility.yul\":13045:13059   */\n      add\n        /* \"#utility.yul\":13038:13096   */\n      mstore\n        /* \"#utility.yul\":13130:13133   */\n      0x6e00000000000000000000000000000000000000000000000000000000000000\n        /* \"#utility.yul\":13125:13127   */\n      0x20\n        /* \"#utility.yul\":13117:13123   */\n      dup3\n        /* \"#utility.yul\":13113:13128   */\n      add\n        /* \"#utility.yul\":13106:13134   */\n      mstore\n        /* \"#utility.yul\":12921:13141   */\n      pop\n      jump\t// out\n        /* \"#utility.yul\":13147:13513   */\n    tag_335:\n        /* \"#utility.yul\":13289:13292   */\n      0x00\n        /* \"#utility.yul\":13310:13377   */\n      tag_458\n        /* \"#utility.yul\":13374:13376   */\n      0x21\n        /* \"#utility.yul\":13369:13372   */\n      dup4\n        /* \"#utility.yul\":13310:13377   */\n      tag_322\n      jump\t// in\n    tag_458:\n        /* \"#utility.yul\":13303:13377   */\n      swap2\n      pop\n        /* \"#utility.yul\":13386:13479   */\n      tag_459\n        /* \"#utility.yul\":13475:13478   */\n      dup3\n        /* \"#utility.yul\":13386:13479   */\n      tag_334\n      jump\t// in\n    tag_459:\n        /* \"#utility.yul\":13504:13506   */\n      0x40\n        /* \"#utility.yul\":13499:13502   */\n      dup3\n        /* \"#utility.yul\":13495:13507   */\n      add\n        /* \"#utility.yul\":13488:13507   */\n      swap1\n      pop\n        /* \"#utility.yul\":13147:13513   */\n      swap2\n      swap1\n      pop\n      jump\t// out\n        /* \"#utility.yul\":13519:13938   */\n    tag_193:\n        /* \"#utility.yul\":13685:13689   */\n      0x00\n        /* \"#utility.yul\":13723:13725   */\n      0x20\n        /* \"#utility.yul\":13712:13721   */\n      dup3\n        /* \"#utility.yul\":13708:13726   */\n      add\n        /* \"#utility.yul\":13700:13726   */\n      swap1\n      pop\n        /* \"#utility.yul\":13772:13781   */\n      dup2\n        /* \"#utility.yul\":13766:13770   */\n      dup2\n        /* \"#utility.yul\":13762:13782   */\n      sub\n        /* \"#utility.yul\":13758:13759   */\n      0x00\n        /* \"#utility.yul\":13747:13756   */\n      dup4\n        /* \"#utility.yul\":13743:13760   */\n      add\n        /* \"#utility.yul\":13736:13783   */\n      mstore\n        /* \"#utility.yul\":13800:13931   */\n      tag_461\n        /* \"#utility.yul\":13926:13930   */\n      dup2\n        /* \"#utility.yul\":13800:13931   */\n      tag_335\n      jump\t// in\n    tag_461:\n        /* \"#utility.yul\":13792:13931   */\n      swap1\n      pop\n        /* \"#utility.yul\":13519:13938   */\n      swap2\n      swap1\n      pop\n      jump\t// out\n        /* \"#utility.yul\":13944:14135   */\n    tag_223:\n        /* \"#utility.yul\":13984:13987   */\n      0x00\n        /* \"#utility.yul\":14003:14023   */\n      tag_463\n        /* \"#utility.yul\":14021:14022   */\n      dup3\n        /* \"#utility.yul\":14003:14023   */\n      tag_297\n      jump\t// in\n    tag_463:\n        /* \"#utility.yul\":13998:14023   */\n      swap2\n      pop\n        /* \"#utility.yul\":14037:14057   */\n      tag_464\n        /* \"#utility.yul\":14055:14056   */\n      dup4\n        /* \"#utility.yul\":14037:14057   */\n      tag_297\n      jump\t// in\n    tag_464:\n        /* \"#utility.yul\":14032:14057   */\n      swap3\n      pop\n        /* \"#utility.yul\":14080:14081   */\n      dup3\n        /* \"#utility.yul\":14077:14078   */\n      dup3\n        /* \"#utility.yul\":14073:14082   */\n      add\n        /* \"#utility.yul\":14066:14082   */\n      swap1\n      pop\n        /* \"#utility.yul\":14101:14104   */\n      dup1\n        /* \"#utility.yul\":14098:14099   */\n      dup3\n        /* \"#utility.yul\":14095:14105   */\n      gt\n        /* \"#utility.yul\":14092:14128   */\n      iszero\n      tag_465\n      jumpi\n        /* \"#utility.yul\":14108:14126   */\n      tag_466\n      tag_331\n      jump\t// in\n    tag_466:\n        /* \"#utility.yul\":14092:14128   */\n    tag_465:\n        /* \"#utility.yul\":13944:14135   */\n      swap3\n      swap2\n      pop\n      pop\n      jump\t// out\n        /* \"#utility.yul\":14141:14374   */\n    tag_244:\n        /* \"#utility.yul\":14180:14183   */\n      0x00\n        /* \"#utility.yul\":14203:14227   */\n      tag_468\n        /* \"#utility.yul\":14221:14226   */\n      dup3\n        /* \"#utility.yul\":14203:14227   */\n      tag_297\n      jump\t// in\n    tag_468:\n        /* \"#utility.yul\":14194:14227   */\n      swap2\n      pop\n        /* \"#utility.yul\":14249:14315   */\n      0xffffffffffffffffffffffffffffffffffffffffffffffffffffffffffffffff\n        /* \"#utility.yul\":14242:14247   */\n      dup3\n        /* \"#utility.yul\":14239:14316   */\n      sub\n        /* \"#utility.yul\":14236:14339   */\n      tag_469\n      jumpi\n        /* \"#utility.yul\":14319:14337   */\n      tag_470\n      tag_331\n      jump\t// in\n    tag_470:\n        /* \"#utility.yul\":14236:14339   */\n    tag_469:\n        /* \"#utility.yul\":14366:14367   */\n      0x01\n        /* \"#utility.yul\":14359:14364   */\n      dup3\n        /* \"#utility.yul\":14355:14368   */\n      add\n        /* \"#utility.yul\":14348:14368   */\n      swap1\n      pop\n        /* \"#utility.yul\":14141:14374   */\n      swap2\n      swap1\n      pop\n      jump\t// out\n        /* \"#utility.yul\":14380:14527   */\n    tag_336:\n        /* \"#utility.yul\":14481:14492   */\n      0x00\n        /* \"#utility.yul\":14518:14521   */\n      dup2\n        /* \"#utility.yul\":14503:14521   */\n      swap1\n      pop\n        /* \"#utility.yul\":14380:14527   */\n      swap3\n      swap2\n      pop\n      pop\n      jump\t// out\n        /* \"#utility.yul\":14533:14647   */\n    tag_337:\n      pop\n      jump\t// out\n        /* \"#utility.yul\":14653:15051   */\n    tag_338:\n        /* \"#utility.yul\":14812:14815   */\n      0x00\n        /* \"#utility.yul\":14833:14916   */\n      tag_474\n        /* \"#utility.yul\":14914:14915   */\n      0x00\n        /* \"#utility.yul\":14909:14912   */\n      dup4\n        /* \"#utility.yul\":14833:14916   */\n      tag_336\n      jump\t// in\n    tag_474:\n        /* \"#utility.yul\":14826:14916   */\n      swap2\n      pop\n        /* \"#utility.yul\":14925:15018   */\n      tag_475\n        /* \"#utility.yul\":15014:15017   */\n      dup3\n        /* \"#utility.yul\":14925:15018   */\n      tag_337\n      jump\t// in\n    tag_475:\n        /* \"#utility.yul\":15043:15044   */\n      0x00\n        /* \"#utility.yul\":15038:15041   */\n      dup3\n        /* \"#utility.yul\":15034:15045   */\n      add\n        /* \"#utility.yul\":15027:15045   */\n      swap1\n      pop\n        /* \"#utility.yul\":14653:15051   */\n      swap2\n      swap1\n      pop\n      jump\t// out\n        /* \"#utility.yul\":15057:15436   */\n    tag_264:\n        /* \"#utility.yul\":15241:15244   */\n      0x00\n        /* \"#utility.yul\":15263:15410   */\n      tag_477\n        /* \"#utility.yul\":15406:15409   */\n      dup3\n        /* \"#utility.yul\":15263:15410   */\n      tag_338\n      jump\t// in\n    tag_477:\n        /* \"#utility.yul\":15256:15410   */\n      swap2\n      pop\n        /* \"#utility.yul\":15427:15430   */\n      dup2\n        /* \"#utility.yul\":15420:15430   */\n      swap1\n      pop\n        /* \"#utility.yul\":15057:15436   */\n      swap2\n      swap1\n      pop\n      jump\t// out\n\n    auxdata: 0xa2646970667358221220ddd03748c156b2ee25b28caddb3fb9699806712acc36aa42dc693dc8125f733864736f6c63430008110033\n}\n",
				"bytecode": {
					"linkReferences": {},
					"object": "60806040526005600155603c600355603c600455670de0b6b3a76400006005553460068190555061192b806100356000396000f3fe608060405234801561001057600080fd5b50600436106100f55760003560e01c80639190ca4011610097578063c7f758a811610066578063c7f758a814610286578063cf34fa2a146102b6578063fb6ff161146102d2578063fe0d94c1146102f0576100f5565b80639190ca40146101d857806399a1fb5c14610208578063a220e64a14610238578063c26c12eb14610268576100f5565b806352fdb2bb116100d357806352fdb2bb146101665780637325d4cc14610184578063750e443a146101a057806386a50535146101bc576100f5565b8063188ec356146100fa5780631a5007dd146101185780633e4f49e614610136575b600080fd5b61010261030c565b60405161010f919061118e565b60405180910390f35b610120610314565b60405161012d919061118e565b60405180910390f35b610150600480360381019061014b91906111da565b610320565b60405161015d919061127e565b60405180910390f35b61016e61041d565b60405161017b919061118e565b60405180910390f35b61019e600480360381019061019991906111da565b610423565b005b6101ba60048036038101906101b591906111da565b610477565b005b6101d660048036038101906101d191906111da565b61059a565b005b6101f260048036038101906101ed91906111da565b6106bd565b6040516101ff919061118e565b60405180910390f35b610222600480360381019061021d91906111da565b610742565b60405161022f919061118e565b60405180910390f35b610252600480360381019061024d91906112f7565b6107c7565b60405161025f9190611352565b60405180910390f35b6102706107f6565b60405161027d919061118e565b60405180910390f35b6102a0600480360381019061029b91906111da565b610800565b6040516102ad9190611499565b60405180910390f35b6102d060048036038101906102cb91906114b5565b61097d565b005b6102da6109f4565b6040516102e7919061118e565b60405180910390f35b61030a600480360381019061030591906111da565b6109fa565b005b600042905090565b60008080549050905090565b60008060008381548110610337576103366114e2565b5b9060005260206000209060070201905060008160040160009054906101000a900460ff1690506000600681111561037157610370611207565b5b81600681111561038457610383611207565b5b14610393578092505050610418565b600082600001549050600081036103df576040517f08c379a00000000000000000000000000000000000000000000000000000000081526004016103d69061156e565b60405180910390fd5b4281106103f25760019350505050610418565b60008360010154905042811061040f576002945050505050610418565b60039450505050505b919050565b60055481565b60008111610466576040517f08c379a000000000000000000000000000000000000000000000000000000000815260040161045d906115da565b60405180910390fd5b610474600160008084610baf565b50565b806002600681111561048c5761048b611207565b5b61049582610320565b60068111156104a7576104a6611207565b5b146104e7576040517f08c379a00000000000000000000000000000000000000000000000000000000081526004016104de90611646565b60405180910390fd5b60001515600260003373ffffffffffffffffffffffffffffffffffffffff1673ffffffffffffffffffffffffffffffffffffffff168152602001908152602001600020600083815260200190815260200160002060009054906101000a900460ff1615151461058b576040517f08c379a0000000000000000000000000000000000000000000000000000000008152600401610582906116b2565b60405180910390fd5b610596826000610d69565b5050565b80600260068111156105af576105ae611207565b5b6105b882610320565b60068111156105ca576105c9611207565b5b1461060a576040517f08c379a000000000000000000000000000000000000000000000000000000000815260040161060190611646565b60405180910390fd5b60001515600260003373ffffffffffffffffffffffffffffffffffffffff1673ffffffffffffffffffffffffffffffffffffffff168152602001908152602001600020600083815260200190815260200160002060009054906101000a900460ff161515146106ae576040517f08c379a00000000000000000000000000000000000000000000000000000000081526004016106a5906116b2565b60405180910390fd5b6106b9826001610d69565b5050565b600080600083815481106106d4576106d36114e2565b5b90600052602060002090600702019050600260068111156106f8576106f7611207565b5b61070184610320565b600681111561071357610712611207565b5b036107375761072061030c565b816001015461072f9190611701565b91505061073d565b60009150505b919050565b60008060008381548110610759576107586114e2565b5b906000526020600020906007020190506001600681111561077d5761077c611207565b5b61078684610320565b600681111561079857610797611207565b5b036107bc576107a561030c565b81600001546107b49190611701565b9150506107c2565b60009150505b919050565b60026020528160005260406000206020528060005260406000206000915091509054906101000a900460ff1681565b6000600154905090565b6108086110ef565b6000828154811061081c5761081b6114e2565b5b906000526020600020906007020160405180610120016040529081600082015481526020016001820154815260200160028201548152602001600382015481526020016004820160009054906101000a900460ff16600681111561088357610882611207565b5b600681111561089557610894611207565b5b81526020016004820160019054906101000a900460ff1660018111156108be576108bd611207565b5b60018111156108d0576108cf611207565b5b81526020016004820160029054906101000a900473ffffffffffffffffffffffffffffffffffffffff1673ffffffffffffffffffffffffffffffffffffffff1673ffffffffffffffffffffffffffffffffffffffff16815260200160058201548152602001600682015481525050905061094982610320565b816080019060068111156109605761095f611207565b5b9081600681111561097457610973611207565b5b81525050919050565b600060055490508060065410156109c9576040517f08c379a00000000000000000000000000000000000000000000000000000000081526004016109c090611781565b60405180910390fd5b80600660008282546109db9190611701565b925050819055506109f0600083836000610baf565b5050565b60065481565b6000808281548110610a0f57610a0e6114e2565b5b906000526020600020906007020190506000610a2a83610320565b905060036006811115610a4057610a3f611207565b5b816006811115610a5357610a52611207565b5b14610a93576040517f08c379a0000000000000000000000000000000000000000000000000000000008152600401610a8a90611813565b60405180910390fd5b610a9c83610e3c565b905060008260040160019054906101000a900460ff16905060056006811115610ac857610ac7611207565b5b826006811115610adb57610ada611207565b5b03610b555760006001811115610af457610af3611207565b5b816001811115610b0757610b06611207565b5b03610b1a57610b1584610ebf565b610b50565b600180811115610b2d57610b2c611207565b5b816001811115610b4057610b3f611207565b5b03610b4f57610b4e84610fa0565b5b5b610ba0565b60006001811115610b6957610b68611207565b5b816001811115610b7c57610b7b611207565b5b03610b9f57826005015460066000828254610b979190611833565b925050819055505b5b610ba984610fd4565b50505050565b600060035442610bbf9190611833565b9050600060405180610120016040528083815260200160045484610be39190611833565b8152602001600081526020016000815260200160006006811115610c0a57610c09611207565b5b8152602001876001811115610c2257610c21611207565b5b81526020018673ffffffffffffffffffffffffffffffffffffffff16815260200185815260200184815250905060008190806001815401808255809150506001900390600052602060002090600702016000909190919091506000820151816000015560208201518160010155604082015181600201556060820151816003015560808201518160040160006101000a81548160ff02191690836006811115610cce57610ccd611207565b5b021790555060a08201518160040160016101000a81548160ff02191690836001811115610cfe57610cfd611207565b5b021790555060c08201518160040160026101000a81548173ffffffffffffffffffffffffffffffffffffffff021916908373ffffffffffffffffffffffffffffffffffffffff16021790555060e0820151816005015561010082015181600601555050505050505050565b6000808381548110610d7e57610d7d6114e2565b5b906000526020600020906007020190508115610db357806002016000815480929190610da990611867565b9190505550610dce565b806003016000815480929190610dc890611867565b91905055505b6001600260003373ffffffffffffffffffffffffffffffffffffffff1673ffffffffffffffffffffffffffffffffffffffff168152602001908152602001600020600085815260200190815260200160002060006101000a81548160ff021916908315150217905550505050565b60008060008381548110610e5357610e526114e2565b5b906000526020600020906007020190506000816002015490506000826003015490506000610e8183836110c7565b905080610e95576006945050505050610eba565b610e9f83836110e2565b15610eb1576005945050505050610eba565b60049450505050505b919050565b6000808281548110610ed457610ed36114e2565b5b9060005260206000209060070201905060008160040160029054906101000a900473ffffffffffffffffffffffffffffffffffffffff1673ffffffffffffffffffffffffffffffffffffffff168260050154604051610f32906118e0565b60006040518083038185875af1925050503d8060008114610f6f576040519150601f19603f3d011682016040523d82523d6000602084013e610f74565b606091505b5050905080610f9b57816005015460066000828254610f939190611833565b925050819055505b505050565b6000808281548110610fb557610fb46114e2565b5b9060005260206000209060070201905080600601546005819055505050565b6000808281548110610fe957610fe86114e2565b5b90600052602060002090600702019050600081600201549050600082600301549050600061101783836110c7565b9050806110505760068460040160006101000a81548160ff0219169083600681111561104657611045611207565b5b02179055506110c0565b61105a83836110e2565b156110915760058460040160006101000a81548160ff0219169083600681111561108757611086611207565b5b02179055506110bf565b60048460040160006101000a81548160ff021916908360068111156110b9576110b8611207565b5b02179055505b5b5050505050565b600060015482846110d89190611833565b1015905092915050565b6000818311905092915050565b604051806101200160405280600081526020016000815260200160008152602001600081526020016000600681111561112b5761112a611207565b5b81526020016000600181111561114457611143611207565b5b8152602001600073ffffffffffffffffffffffffffffffffffffffff16815260200160008152602001600081525090565b6000819050919050565b61118881611175565b82525050565b60006020820190506111a3600083018461117f565b92915050565b600080fd5b6111b781611175565b81146111c257600080fd5b50565b6000813590506111d4816111ae565b92915050565b6000602082840312156111f0576111ef6111a9565b5b60006111fe848285016111c5565b91505092915050565b7f4e487b7100000000000000000000000000000000000000000000000000000000600052602160045260246000fd5b6007811061124757611246611207565b5b50565b600081905061125882611236565b919050565b60006112688261124a565b9050919050565b6112788161125d565b82525050565b6000602082019050611293600083018461126f565b92915050565b600073ffffffffffffffffffffffffffffffffffffffff82169050919050565b60006112c482611299565b9050919050565b6112d4816112b9565b81146112df57600080fd5b50565b6000813590506112f1816112cb565b92915050565b6000806040838503121561130e5761130d6111a9565b5b600061131c858286016112e2565b925050602061132d858286016111c5565b9150509250929050565b60008115159050919050565b61134c81611337565b82525050565b60006020820190506113676000830184611343565b92915050565b61137681611175565b82525050565b6113858161125d565b82525050565b6002811061139c5761139b611207565b5b50565b60008190506113ad8261138b565b919050565b60006113bd8261139f565b9050919050565b6113cd816113b2565b82525050565b6113dc816112b9565b82525050565b610120820160008201516113f9600085018261136d565b50602082015161140c602085018261136d565b50604082015161141f604085018261136d565b506060820151611432606085018261136d565b506080820151611445608085018261137c565b5060a082015161145860a08501826113c4565b5060c082015161146b60c08501826113d3565b5060e082015161147e60e085018261136d565b5061010082015161149361010085018261136d565b50505050565b6000610120820190506114af60008301846113e2565b92915050565b6000602082840312156114cb576114ca6111a9565b5b60006114d9848285016112e2565b91505092915050565b7f4e487b7100000000000000000000000000000000000000000000000000000000600052603260045260246000fd5b600082825260208201905092915050565b7f496e76616c696420494400000000000000000000000000000000000000000000600082015250565b6000611558600a83611511565b915061156382611522565b602082019050919050565b600060208201905081810360008301526115878161154b565b9050919050565b7f496e76616c696420616d6f756e74000000000000000000000000000000000000600082015250565b60006115c4600e83611511565b91506115cf8261158e565b602082019050919050565b600060208201905081810360008301526115f3816115b7565b9050919050565b7f50726f706f73616c20496e616374697665000000000000000000000000000000600082015250565b6000611630601183611511565b915061163b826115fa565b602082019050919050565b6000602082019050818103600083015261165f81611623565b9050919050565b7f4d656d62657220616c726561647920766f746564000000000000000000000000600082015250565b600061169c601483611511565b91506116a782611666565b602082019050919050565b600060208201905081810360008301526116cb8161168f565b9050919050565b7f4e487b7100000000000000000000000000000000000000000000000000000000600052601160045260246000fd5b600061170c82611175565b915061171783611175565b925082820390508181111561172f5761172e6116d2565b5b92915050565b7f496e73756666696369656e742045544800000000000000000000000000000000600082015250565b600061176b601083611511565b915061177682611735565b602082019050919050565b6000602082019050818103600083015261179a8161175e565b9050919050565b7f50726f706f73616c206e6f742071756575656420666f7220657865637574696f60008201527f6e00000000000000000000000000000000000000000000000000000000000000602082015250565b60006117fd602183611511565b9150611808826117a1565b604082019050919050565b6000602082019050818103600083015261182c816117f0565b9050919050565b600061183e82611175565b915061184983611175565b9250828201905080821115611861576118606116d2565b5b92915050565b600061187282611175565b91507fffffffffffffffffffffffffffffffffffffffffffffffffffffffffffffffff82036118a4576118a36116d2565b5b600182019050919050565b600081905092915050565b50565b60006118ca6000836118af565b91506118d5826118ba565b600082019050919050565b60006118eb826118bd565b915081905091905056fea2646970667358221220ddd03748c156b2ee25b28caddb3fb9699806712acc36aa42dc693dc8125f733864736f6c63430008110033",
					"opcodes": "PUSH1 0x80 PUSH1 0x40 MSTORE PUSH1 0x5 PUSH1 0x1 SSTORE PUSH1 0x3C PUSH1 0x3 SSTORE PUSH1 0x3C PUSH1 0x4 SSTORE PUSH8 0xDE0B6B3A7640000 PUSH1 0x5 SSTORE CALLVALUE PUSH1 0x6 DUP2 SWAP1 SSTORE POP PUSH2 0x192B DUP1 PUSH2 0x35 PUSH1 0x0 CODECOPY PUSH1 0x0 RETURN INVALID PUSH1 0x80 PUSH1 0x40 MSTORE CALLVALUE DUP1 ISZERO PUSH2 0x10 JUMPI PUSH1 0x0 DUP1 REVERT JUMPDEST POP PUSH1 0x4 CALLDATASIZE LT PUSH2 0xF5 JUMPI PUSH1 0x0 CALLDATALOAD PUSH1 0xE0 SHR DUP1 PUSH4 0x9190CA40 GT PUSH2 0x97 JUMPI DUP1 PUSH4 0xC7F758A8 GT PUSH2 0x66 JUMPI DUP1 PUSH4 0xC7F758A8 EQ PUSH2 0x286 JUMPI DUP1 PUSH4 0xCF34FA2A EQ PUSH2 0x2B6 JUMPI DUP1 PUSH4 0xFB6FF161 EQ PUSH2 0x2D2 JUMPI DUP1 PUSH4 0xFE0D94C1 EQ PUSH2 0x2F0 JUMPI PUSH2 0xF5 JUMP JUMPDEST DUP1 PUSH4 0x9190CA40 EQ PUSH2 0x1D8 JUMPI DUP1 PUSH4 0x99A1FB5C EQ PUSH2 0x208 JUMPI DUP1 PUSH4 0xA220E64A EQ PUSH2 0x238 JUMPI DUP1 PUSH4 0xC26C12EB EQ PUSH2 0x268 JUMPI PUSH2 0xF5 JUMP JUMPDEST DUP1 PUSH4 0x52FDB2BB GT PUSH2 0xD3 JUMPI DUP1 PUSH4 0x52FDB2BB EQ PUSH2 0x166 JUMPI DUP1 PUSH4 0x7325D4CC EQ PUSH2 0x184 JUMPI DUP1 PUSH4 0x750E443A EQ PUSH2 0x1A0 JUMPI DUP1 PUSH4 0x86A50535 EQ PUSH2 0x1BC JUMPI PUSH2 0xF5 JUMP JUMPDEST DUP1 PUSH4 0x188EC356 EQ PUSH2 0xFA JUMPI DUP1 PUSH4 0x1A5007DD EQ PUSH2 0x118 JUMPI DUP1 PUSH4 0x3E4F49E6 EQ PUSH2 0x136 JUMPI JUMPDEST PUSH1 0x0 DUP1 REVERT JUMPDEST PUSH2 0x102 PUSH2 0x30C JUMP JUMPDEST PUSH1 0x40 MLOAD PUSH2 0x10F SWAP2 SWAP1 PUSH2 0x118E JUMP JUMPDEST PUSH1 0x40 MLOAD DUP1 SWAP2 SUB SWAP1 RETURN JUMPDEST PUSH2 0x120 PUSH2 0x314 JUMP JUMPDEST PUSH1 0x40 MLOAD PUSH2 0x12D SWAP2 SWAP1 PUSH2 0x118E JUMP JUMPDEST PUSH1 0x40 MLOAD DUP1 SWAP2 SUB SWAP1 RETURN JUMPDEST PUSH2 0x150 PUSH1 0x4 DUP1 CALLDATASIZE SUB DUP2 ADD SWAP1 PUSH2 0x14B SWAP2 SWAP1 PUSH2 0x11DA JUMP JUMPDEST PUSH2 0x320 JUMP JUMPDEST PUSH1 0x40 MLOAD PUSH2 0x15D SWAP2 SWAP1 PUSH2 0x127E JUMP JUMPDEST PUSH1 0x40 MLOAD DUP1 SWAP2 SUB SWAP1 RETURN JUMPDEST PUSH2 0x16E PUSH2 0x41D JUMP JUMPDEST PUSH1 0x40 MLOAD PUSH2 0x17B SWAP2 SWAP1 PUSH2 0x118E JUMP JUMPDEST PUSH1 0x40 MLOAD DUP1 SWAP2 SUB SWAP1 RETURN JUMPDEST PUSH2 0x19E PUSH1 0x4 DUP1 CALLDATASIZE SUB DUP2 ADD SWAP1 PUSH2 0x199 SWAP2 SWAP1 PUSH2 0x11DA JUMP JUMPDEST PUSH2 0x423 JUMP JUMPDEST STOP JUMPDEST PUSH2 0x1BA PUSH1 0x4 DUP1 CALLDATASIZE SUB DUP2 ADD SWAP1 PUSH2 0x1B5 SWAP2 SWAP1 PUSH2 0x11DA JUMP JUMPDEST PUSH2 0x477 JUMP JUMPDEST STOP JUMPDEST PUSH2 0x1D6 PUSH1 0x4 DUP1 CALLDATASIZE SUB DUP2 ADD SWAP1 PUSH2 0x1D1 SWAP2 SWAP1 PUSH2 0x11DA JUMP JUMPDEST PUSH2 0x59A JUMP JUMPDEST STOP JUMPDEST PUSH2 0x1F2 PUSH1 0x4 DUP1 CALLDATASIZE SUB DUP2 ADD SWAP1 PUSH2 0x1ED SWAP2 SWAP1 PUSH2 0x11DA JUMP JUMPDEST PUSH2 0x6BD JUMP JUMPDEST PUSH1 0x40 MLOAD PUSH2 0x1FF SWAP2 SWAP1 PUSH2 0x118E JUMP JUMPDEST PUSH1 0x40 MLOAD DUP1 SWAP2 SUB SWAP1 RETURN JUMPDEST PUSH2 0x222 PUSH1 0x4 DUP1 CALLDATASIZE SUB DUP2 ADD SWAP1 PUSH2 0x21D SWAP2 SWAP1 PUSH2 0x11DA JUMP JUMPDEST PUSH2 0x742 JUMP JUMPDEST PUSH1 0x40 MLOAD PUSH2 0x22F SWAP2 SWAP1 PUSH2 0x118E JUMP JUMPDEST PUSH1 0x40 MLOAD DUP1 SWAP2 SUB SWAP1 RETURN JUMPDEST PUSH2 0x252 PUSH1 0x4 DUP1 CALLDATASIZE SUB DUP2 ADD SWAP1 PUSH2 0x24D SWAP2 SWAP1 PUSH2 0x12F7 JUMP JUMPDEST PUSH2 0x7C7 JUMP JUMPDEST PUSH1 0x40 MLOAD PUSH2 0x25F SWAP2 SWAP1 PUSH2 0x1352 JUMP JUMPDEST PUSH1 0x40 MLOAD DUP1 SWAP2 SUB SWAP1 RETURN JUMPDEST PUSH2 0x270 PUSH2 0x7F6 JUMP JUMPDEST PUSH1 0x40 MLOAD PUSH2 0x27D SWAP2 SWAP1 PUSH2 0x118E JUMP JUMPDEST PUSH1 0x40 MLOAD DUP1 SWAP2 SUB SWAP1 RETURN JUMPDEST PUSH2 0x2A0 PUSH1 0x4 DUP1 CALLDATASIZE SUB DUP2 ADD SWAP1 PUSH2 0x29B SWAP2 SWAP1 PUSH2 0x11DA JUMP JUMPDEST PUSH2 0x800 JUMP JUMPDEST PUSH1 0x40 MLOAD PUSH2 0x2AD SWAP2 SWAP1 PUSH2 0x1499 JUMP JUMPDEST PUSH1 0x40 MLOAD DUP1 SWAP2 SUB SWAP1 RETURN JUMPDEST PUSH2 0x2D0 PUSH1 0x4 DUP1 CALLDATASIZE SUB DUP2 ADD SWAP1 PUSH2 0x2CB SWAP2 SWAP1 PUSH2 0x14B5 JUMP JUMPDEST PUSH2 0x97D JUMP JUMPDEST STOP JUMPDEST PUSH2 0x2DA PUSH2 0x9F4 JUMP JUMPDEST PUSH1 0x40 MLOAD PUSH2 0x2E7 SWAP2 SWAP1 PUSH2 0x118E JUMP JUMPDEST PUSH1 0x40 MLOAD DUP1 SWAP2 SUB SWAP1 RETURN JUMPDEST PUSH2 0x30A PUSH1 0x4 DUP1 CALLDATASIZE SUB DUP2 ADD SWAP1 PUSH2 0x305 SWAP2 SWAP1 PUSH2 0x11DA JUMP JUMPDEST PUSH2 0x9FA JUMP JUMPDEST STOP JUMPDEST PUSH1 0x0 TIMESTAMP SWAP1 POP SWAP1 JUMP JUMPDEST PUSH1 0x0 DUP1 DUP1 SLOAD SWAP1 POP SWAP1 POP SWAP1 JUMP JUMPDEST PUSH1 0x0 DUP1 PUSH1 0x0 DUP4 DUP2 SLOAD DUP2 LT PUSH2 0x337 JUMPI PUSH2 0x336 PUSH2 0x14E2 JUMP JUMPDEST JUMPDEST SWAP1 PUSH1 0x0 MSTORE PUSH1 0x20 PUSH1 0x0 KECCAK256 SWAP1 PUSH1 0x7 MUL ADD SWAP1 POP PUSH1 0x0 DUP2 PUSH1 0x4 ADD PUSH1 0x0 SWAP1 SLOAD SWAP1 PUSH2 0x100 EXP SWAP1 DIV PUSH1 0xFF AND SWAP1 POP PUSH1 0x0 PUSH1 0x6 DUP2 GT ISZERO PUSH2 0x371 JUMPI PUSH2 0x370 PUSH2 0x1207 JUMP JUMPDEST JUMPDEST DUP2 PUSH1 0x6 DUP2 GT ISZERO PUSH2 0x384 JUMPI PUSH2 0x383 PUSH2 0x1207 JUMP JUMPDEST JUMPDEST EQ PUSH2 0x393 JUMPI DUP1 SWAP3 POP POP POP PUSH2 0x418 JUMP JUMPDEST PUSH1 0x0 DUP3 PUSH1 0x0 ADD SLOAD SWAP1 POP PUSH1 0x0 DUP2 SUB PUSH2 0x3DF JUMPI PUSH1 0x40 MLOAD PUSH32 0x8C379A000000000000000000000000000000000000000000000000000000000 DUP2 MSTORE PUSH1 0x4 ADD PUSH2 0x3D6 SWAP1 PUSH2 0x156E JUMP JUMPDEST PUSH1 0x40 MLOAD DUP1 SWAP2 SUB SWAP1 REVERT JUMPDEST TIMESTAMP DUP2 LT PUSH2 0x3F2 JUMPI PUSH1 0x1 SWAP4 POP POP POP POP PUSH2 0x418 JUMP JUMPDEST PUSH1 0x0 DUP4 PUSH1 0x1 ADD SLOAD SWAP1 POP TIMESTAMP DUP2 LT PUSH2 0x40F JUMPI PUSH1 0x2 SWAP5 POP POP POP POP POP PUSH2 0x418 JUMP JUMPDEST PUSH1 0x3 SWAP5 POP POP POP POP POP JUMPDEST SWAP2 SWAP1 POP JUMP JUMPDEST PUSH1 0x5 SLOAD DUP2 JUMP JUMPDEST PUSH1 0x0 DUP2 GT PUSH2 0x466 JUMPI PUSH1 0x40 MLOAD PUSH32 0x8C379A000000000000000000000000000000000000000000000000000000000 DUP2 MSTORE PUSH1 0x4 ADD PUSH2 0x45D SWAP1 PUSH2 0x15DA JUMP JUMPDEST PUSH1 0x40 MLOAD DUP1 SWAP2 SUB SWAP1 REVERT JUMPDEST PUSH2 0x474 PUSH1 0x1 PUSH1 0x0 DUP1 DUP5 PUSH2 0xBAF JUMP JUMPDEST POP JUMP JUMPDEST DUP1 PUSH1 0x2 PUSH1 0x6 DUP2 GT ISZERO PUSH2 0x48C JUMPI PUSH2 0x48B PUSH2 0x1207 JUMP JUMPDEST JUMPDEST PUSH2 0x495 DUP3 PUSH2 0x320 JUMP JUMPDEST PUSH1 0x6 DUP2 GT ISZERO PUSH2 0x4A7 JUMPI PUSH2 0x4A6 PUSH2 0x1207 JUMP JUMPDEST JUMPDEST EQ PUSH2 0x4E7 JUMPI PUSH1 0x40 MLOAD PUSH32 0x8C379A000000000000000000000000000000000000000000000000000000000 DUP2 MSTORE PUSH1 0x4 ADD PUSH2 0x4DE SWAP1 PUSH2 0x1646 JUMP JUMPDEST PUSH1 0x40 MLOAD DUP1 SWAP2 SUB SWAP1 REVERT JUMPDEST PUSH1 0x0 ISZERO ISZERO PUSH1 0x2 PUSH1 0x0 CALLER PUSH20 0xFFFFFFFFFFFFFFFFFFFFFFFFFFFFFFFFFFFFFFFF AND PUSH20 0xFFFFFFFFFFFFFFFFFFFFFFFFFFFFFFFFFFFFFFFF AND DUP2 MSTORE PUSH1 0x20 ADD SWAP1 DUP2 MSTORE PUSH1 0x20 ADD PUSH1 0x0 KECCAK256 PUSH1 0x0 DUP4 DUP2 MSTORE PUSH1 0x20 ADD SWAP1 DUP2 MSTORE PUSH1 0x20 ADD PUSH1 0x0 KECCAK256 PUSH1 0x0 SWAP1 SLOAD SWAP1 PUSH2 0x100 EXP SWAP1 DIV PUSH1 0xFF AND ISZERO ISZERO EQ PUSH2 0x58B JUMPI PUSH1 0x40 MLOAD PUSH32 0x8C379A000000000000000000000000000000000000000000000000000000000 DUP2 MSTORE PUSH1 0x4 ADD PUSH2 0x582 SWAP1 PUSH2 0x16B2 JUMP JUMPDEST PUSH1 0x40 MLOAD DUP1 SWAP2 SUB SWAP1 REVERT JUMPDEST PUSH2 0x596 DUP3 PUSH1 0x0 PUSH2 0xD69 JUMP JUMPDEST POP POP JUMP JUMPDEST DUP1 PUSH1 0x2 PUSH1 0x6 DUP2 GT ISZERO PUSH2 0x5AF JUMPI PUSH2 0x5AE PUSH2 0x1207 JUMP JUMPDEST JUMPDEST PUSH2 0x5B8 DUP3 PUSH2 0x320 JUMP JUMPDEST PUSH1 0x6 DUP2 GT ISZERO PUSH2 0x5CA JUMPI PUSH2 0x5C9 PUSH2 0x1207 JUMP JUMPDEST JUMPDEST EQ PUSH2 0x60A JUMPI PUSH1 0x40 MLOAD PUSH32 0x8C379A000000000000000000000000000000000000000000000000000000000 DUP2 MSTORE PUSH1 0x4 ADD PUSH2 0x601 SWAP1 PUSH2 0x1646 JUMP JUMPDEST PUSH1 0x40 MLOAD DUP1 SWAP2 SUB SWAP1 REVERT JUMPDEST PUSH1 0x0 ISZERO ISZERO PUSH1 0x2 PUSH1 0x0 CALLER PUSH20 0xFFFFFFFFFFFFFFFFFFFFFFFFFFFFFFFFFFFFFFFF AND PUSH20 0xFFFFFFFFFFFFFFFFFFFFFFFFFFFFFFFFFFFFFFFF AND DUP2 MSTORE PUSH1 0x20 ADD SWAP1 DUP2 MSTORE PUSH1 0x20 ADD PUSH1 0x0 KECCAK256 PUSH1 0x0 DUP4 DUP2 MSTORE PUSH1 0x20 ADD SWAP1 DUP2 MSTORE PUSH1 0x20 ADD PUSH1 0x0 KECCAK256 PUSH1 0x0 SWAP1 SLOAD SWAP1 PUSH2 0x100 EXP SWAP1 DIV PUSH1 0xFF AND ISZERO ISZERO EQ PUSH2 0x6AE JUMPI PUSH1 0x40 MLOAD PUSH32 0x8C379A000000000000000000000000000000000000000000000000000000000 DUP2 MSTORE PUSH1 0x4 ADD PUSH2 0x6A5 SWAP1 PUSH2 0x16B2 JUMP JUMPDEST PUSH1 0x40 MLOAD DUP1 SWAP2 SUB SWAP1 REVERT JUMPDEST PUSH2 0x6B9 DUP3 PUSH1 0x1 PUSH2 0xD69 JUMP JUMPDEST POP POP JUMP JUMPDEST PUSH1 0x0 DUP1 PUSH1 0x0 DUP4 DUP2 SLOAD DUP2 LT PUSH2 0x6D4 JUMPI PUSH2 0x6D3 PUSH2 0x14E2 JUMP JUMPDEST JUMPDEST SWAP1 PUSH1 0x0 MSTORE PUSH1 0x20 PUSH1 0x0 KECCAK256 SWAP1 PUSH1 0x7 MUL ADD SWAP1 POP PUSH1 0x2 PUSH1 0x6 DUP2 GT ISZERO PUSH2 0x6F8 JUMPI PUSH2 0x6F7 PUSH2 0x1207 JUMP JUMPDEST JUMPDEST PUSH2 0x701 DUP5 PUSH2 0x320 JUMP JUMPDEST PUSH1 0x6 DUP2 GT ISZERO PUSH2 0x713 JUMPI PUSH2 0x712 PUSH2 0x1207 JUMP JUMPDEST JUMPDEST SUB PUSH2 0x737 JUMPI PUSH2 0x720 PUSH2 0x30C JUMP JUMPDEST DUP2 PUSH1 0x1 ADD SLOAD PUSH2 0x72F SWAP2 SWAP1 PUSH2 0x1701 JUMP JUMPDEST SWAP2 POP POP PUSH2 0x73D JUMP JUMPDEST PUSH1 0x0 SWAP2 POP POP JUMPDEST SWAP2 SWAP1 POP JUMP JUMPDEST PUSH1 0x0 DUP1 PUSH1 0x0 DUP4 DUP2 SLOAD DUP2 LT PUSH2 0x759 JUMPI PUSH2 0x758 PUSH2 0x14E2 JUMP JUMPDEST JUMPDEST SWAP1 PUSH1 0x0 MSTORE PUSH1 0x20 PUSH1 0x0 KECCAK256 SWAP1 PUSH1 0x7 MUL ADD SWAP1 POP PUSH1 0x1 PUSH1 0x6 DUP2 GT ISZERO PUSH2 0x77D JUMPI PUSH2 0x77C PUSH2 0x1207 JUMP JUMPDEST JUMPDEST PUSH2 0x786 DUP5 PUSH2 0x320 JUMP JUMPDEST PUSH1 0x6 DUP2 GT ISZERO PUSH2 0x798 JUMPI PUSH2 0x797 PUSH2 0x1207 JUMP JUMPDEST JUMPDEST SUB PUSH2 0x7BC JUMPI PUSH2 0x7A5 PUSH2 0x30C JUMP JUMPDEST DUP2 PUSH1 0x0 ADD SLOAD PUSH2 0x7B4 SWAP2 SWAP1 PUSH2 0x1701 JUMP JUMPDEST SWAP2 POP POP PUSH2 0x7C2 JUMP JUMPDEST PUSH1 0x0 SWAP2 POP POP JUMPDEST SWAP2 SWAP1 POP JUMP JUMPDEST PUSH1 0x2 PUSH1 0x20 MSTORE DUP2 PUSH1 0x0 MSTORE PUSH1 0x40 PUSH1 0x0 KECCAK256 PUSH1 0x20 MSTORE DUP1 PUSH1 0x0 MSTORE PUSH1 0x40 PUSH1 0x0 KECCAK256 PUSH1 0x0 SWAP2 POP SWAP2 POP SWAP1 SLOAD SWAP1 PUSH2 0x100 EXP SWAP1 DIV PUSH1 0xFF AND DUP2 JUMP JUMPDEST PUSH1 0x0 PUSH1 0x1 SLOAD SWAP1 POP SWAP1 JUMP JUMPDEST PUSH2 0x808 PUSH2 0x10EF JUMP JUMPDEST PUSH1 0x0 DUP3 DUP2 SLOAD DUP2 LT PUSH2 0x81C JUMPI PUSH2 0x81B PUSH2 0x14E2 JUMP JUMPDEST JUMPDEST SWAP1 PUSH1 0x0 MSTORE PUSH1 0x20 PUSH1 0x0 KECCAK256 SWAP1 PUSH1 0x7 MUL ADD PUSH1 0x40 MLOAD DUP1 PUSH2 0x120 ADD PUSH1 0x40 MSTORE SWAP1 DUP2 PUSH1 0x0 DUP3 ADD SLOAD DUP2 MSTORE PUSH1 0x20 ADD PUSH1 0x1 DUP3 ADD SLOAD DUP2 MSTORE PUSH1 0x20 ADD PUSH1 0x2 DUP3 ADD SLOAD DUP2 MSTORE PUSH1 0x20 ADD PUSH1 0x3 DUP3 ADD SLOAD DUP2 MSTORE PUSH1 0x20 ADD PUSH1 0x4 DUP3 ADD PUSH1 0x0 SWAP1 SLOAD SWAP1 PUSH2 0x100 EXP SWAP1 DIV PUSH1 0xFF AND PUSH1 0x6 DUP2 GT ISZERO PUSH2 0x883 JUMPI PUSH2 0x882 PUSH2 0x1207 JUMP JUMPDEST JUMPDEST PUSH1 0x6 DUP2 GT ISZERO PUSH2 0x895 JUMPI PUSH2 0x894 PUSH2 0x1207 JUMP JUMPDEST JUMPDEST DUP2 MSTORE PUSH1 0x20 ADD PUSH1 0x4 DUP3 ADD PUSH1 0x1 SWAP1 SLOAD SWAP1 PUSH2 0x100 EXP SWAP1 DIV PUSH1 0xFF AND PUSH1 0x1 DUP2 GT ISZERO PUSH2 0x8BE JUMPI PUSH2 0x8BD PUSH2 0x1207 JUMP JUMPDEST JUMPDEST PUSH1 0x1 DUP2 GT ISZERO PUSH2 0x8D0 JUMPI PUSH2 0x8CF PUSH2 0x1207 JUMP JUMPDEST JUMPDEST DUP2 MSTORE PUSH1 0x20 ADD PUSH1 0x4 DUP3 ADD PUSH1 0x2 SWAP1 SLOAD SWAP1 PUSH2 0x100 EXP SWAP1 DIV PUSH20 0xFFFFFFFFFFFFFFFFFFFFFFFFFFFFFFFFFFFFFFFF AND PUSH20 0xFFFFFFFFFFFFFFFFFFFFFFFFFFFFFFFFFFFFFFFF AND PUSH20 0xFFFFFFFFFFFFFFFFFFFFFFFFFFFFFFFFFFFFFFFF AND DUP2 MSTORE PUSH1 0x20 ADD PUSH1 0x5 DUP3 ADD SLOAD DUP2 MSTORE PUSH1 0x20 ADD PUSH1 0x6 DUP3 ADD SLOAD DUP2 MSTORE POP POP SWAP1 POP PUSH2 0x949 DUP3 PUSH2 0x320 JUMP JUMPDEST DUP2 PUSH1 0x80 ADD SWAP1 PUSH1 0x6 DUP2 GT ISZERO PUSH2 0x960 JUMPI PUSH2 0x95F PUSH2 0x1207 JUMP JUMPDEST JUMPDEST SWAP1 DUP2 PUSH1 0x6 DUP2 GT ISZERO PUSH2 0x974 JUMPI PUSH2 0x973 PUSH2 0x1207 JUMP JUMPDEST JUMPDEST DUP2 MSTORE POP POP SWAP2 SWAP1 POP JUMP JUMPDEST PUSH1 0x0 PUSH1 0x5 SLOAD SWAP1 POP DUP1 PUSH1 0x6 SLOAD LT ISZERO PUSH2 0x9C9 JUMPI PUSH1 0x40 MLOAD PUSH32 0x8C379A000000000000000000000000000000000000000000000000000000000 DUP2 MSTORE PUSH1 0x4 ADD PUSH2 0x9C0 SWAP1 PUSH2 0x1781 JUMP JUMPDEST PUSH1 0x40 MLOAD DUP1 SWAP2 SUB SWAP1 REVERT JUMPDEST DUP1 PUSH1 0x6 PUSH1 0x0 DUP3 DUP3 SLOAD PUSH2 0x9DB SWAP2 SWAP1 PUSH2 0x1701 JUMP JUMPDEST SWAP3 POP POP DUP2 SWAP1 SSTORE POP PUSH2 0x9F0 PUSH1 0x0 DUP4 DUP4 PUSH1 0x0 PUSH2 0xBAF JUMP JUMPDEST POP POP JUMP JUMPDEST PUSH1 0x6 SLOAD DUP2 JUMP JUMPDEST PUSH1 0x0 DUP1 DUP3 DUP2 SLOAD DUP2 LT PUSH2 0xA0F JUMPI PUSH2 0xA0E PUSH2 0x14E2 JUMP JUMPDEST JUMPDEST SWAP1 PUSH1 0x0 MSTORE PUSH1 0x20 PUSH1 0x0 KECCAK256 SWAP1 PUSH1 0x7 MUL ADD SWAP1 POP PUSH1 0x0 PUSH2 0xA2A DUP4 PUSH2 0x320 JUMP JUMPDEST SWAP1 POP PUSH1 0x3 PUSH1 0x6 DUP2 GT ISZERO PUSH2 0xA40 JUMPI PUSH2 0xA3F PUSH2 0x1207 JUMP JUMPDEST JUMPDEST DUP2 PUSH1 0x6 DUP2 GT ISZERO PUSH2 0xA53 JUMPI PUSH2 0xA52 PUSH2 0x1207 JUMP JUMPDEST JUMPDEST EQ PUSH2 0xA93 JUMPI PUSH1 0x40 MLOAD PUSH32 0x8C379A000000000000000000000000000000000000000000000000000000000 DUP2 MSTORE PUSH1 0x4 ADD PUSH2 0xA8A SWAP1 PUSH2 0x1813 JUMP JUMPDEST PUSH1 0x40 MLOAD DUP1 SWAP2 SUB SWAP1 REVERT JUMPDEST PUSH2 0xA9C DUP4 PUSH2 0xE3C JUMP JUMPDEST SWAP1 POP PUSH1 0x0 DUP3 PUSH1 0x4 ADD PUSH1 0x1 SWAP1 SLOAD SWAP1 PUSH2 0x100 EXP SWAP1 DIV PUSH1 0xFF AND SWAP1 POP PUSH1 0x5 PUSH1 0x6 DUP2 GT ISZERO PUSH2 0xAC8 JUMPI PUSH2 0xAC7 PUSH2 0x1207 JUMP JUMPDEST JUMPDEST DUP3 PUSH1 0x6 DUP2 GT ISZERO PUSH2 0xADB JUMPI PUSH2 0xADA PUSH2 0x1207 JUMP JUMPDEST JUMPDEST SUB PUSH2 0xB55 JUMPI PUSH1 0x0 PUSH1 0x1 DUP2 GT ISZERO PUSH2 0xAF4 JUMPI PUSH2 0xAF3 PUSH2 0x1207 JUMP JUMPDEST JUMPDEST DUP2 PUSH1 0x1 DUP2 GT ISZERO PUSH2 0xB07 JUMPI PUSH2 0xB06 PUSH2 0x1207 JUMP JUMPDEST JUMPDEST SUB PUSH2 0xB1A JUMPI PUSH2 0xB15 DUP5 PUSH2 0xEBF JUMP JUMPDEST PUSH2 0xB50 JUMP JUMPDEST PUSH1 0x1 DUP1 DUP2 GT ISZERO PUSH2 0xB2D JUMPI PUSH2 0xB2C PUSH2 0x1207 JUMP JUMPDEST JUMPDEST DUP2 PUSH1 0x1 DUP2 GT ISZERO PUSH2 0xB40 JUMPI PUSH2 0xB3F PUSH2 0x1207 JUMP JUMPDEST JUMPDEST SUB PUSH2 0xB4F JUMPI PUSH2 0xB4E DUP5 PUSH2 0xFA0 JUMP JUMPDEST JUMPDEST JUMPDEST PUSH2 0xBA0 JUMP JUMPDEST PUSH1 0x0 PUSH1 0x1 DUP2 GT ISZERO PUSH2 0xB69 JUMPI PUSH2 0xB68 PUSH2 0x1207 JUMP JUMPDEST JUMPDEST DUP2 PUSH1 0x1 DUP2 GT ISZERO PUSH2 0xB7C JUMPI PUSH2 0xB7B PUSH2 0x1207 JUMP JUMPDEST JUMPDEST SUB PUSH2 0xB9F JUMPI DUP3 PUSH1 0x5 ADD SLOAD PUSH1 0x6 PUSH1 0x0 DUP3 DUP3 SLOAD PUSH2 0xB97 SWAP2 SWAP1 PUSH2 0x1833 JUMP JUMPDEST SWAP3 POP POP DUP2 SWAP1 SSTORE POP JUMPDEST JUMPDEST PUSH2 0xBA9 DUP5 PUSH2 0xFD4 JUMP JUMPDEST POP POP POP POP JUMP JUMPDEST PUSH1 0x0 PUSH1 0x3 SLOAD TIMESTAMP PUSH2 0xBBF SWAP2 SWAP1 PUSH2 0x1833 JUMP JUMPDEST SWAP1 POP PUSH1 0x0 PUSH1 0x40 MLOAD DUP1 PUSH2 0x120 ADD PUSH1 0x40 MSTORE DUP1 DUP4 DUP2 MSTORE PUSH1 0x20 ADD PUSH1 0x4 SLOAD DUP5 PUSH2 0xBE3 SWAP2 SWAP1 PUSH2 0x1833 JUMP JUMPDEST DUP2 MSTORE PUSH1 0x20 ADD PUSH1 0x0 DUP2 MSTORE PUSH1 0x20 ADD PUSH1 0x0 DUP2 MSTORE PUSH1 0x20 ADD PUSH1 0x0 PUSH1 0x6 DUP2 GT ISZERO PUSH2 0xC0A JUMPI PUSH2 0xC09 PUSH2 0x1207 JUMP JUMPDEST JUMPDEST DUP2 MSTORE PUSH1 0x20 ADD DUP8 PUSH1 0x1 DUP2 GT ISZERO PUSH2 0xC22 JUMPI PUSH2 0xC21 PUSH2 0x1207 JUMP JUMPDEST JUMPDEST DUP2 MSTORE PUSH1 0x20 ADD DUP7 PUSH20 0xFFFFFFFFFFFFFFFFFFFFFFFFFFFFFFFFFFFFFFFF AND DUP2 MSTORE PUSH1 0x20 ADD DUP6 DUP2 MSTORE PUSH1 0x20 ADD DUP5 DUP2 MSTORE POP SWAP1 POP PUSH1 0x0 DUP2 SWAP1 DUP1 PUSH1 0x1 DUP2 SLOAD ADD DUP1 DUP3 SSTORE DUP1 SWAP2 POP POP PUSH1 0x1 SWAP1 SUB SWAP1 PUSH1 0x0 MSTORE PUSH1 0x20 PUSH1 0x0 KECCAK256 SWAP1 PUSH1 0x7 MUL ADD PUSH1 0x0 SWAP1 SWAP2 SWAP1 SWAP2 SWAP1 SWAP2 POP PUSH1 0x0 DUP3 ADD MLOAD DUP2 PUSH1 0x0 ADD SSTORE PUSH1 0x20 DUP3 ADD MLOAD DUP2 PUSH1 0x1 ADD SSTORE PUSH1 0x40 DUP3 ADD MLOAD DUP2 PUSH1 0x2 ADD SSTORE PUSH1 0x60 DUP3 ADD MLOAD DUP2 PUSH1 0x3 ADD SSTORE PUSH1 0x80 DUP3 ADD MLOAD DUP2 PUSH1 0x4 ADD PUSH1 0x0 PUSH2 0x100 EXP DUP2 SLOAD DUP2 PUSH1 0xFF MUL NOT AND SWAP1 DUP4 PUSH1 0x6 DUP2 GT ISZERO PUSH2 0xCCE JUMPI PUSH2 0xCCD PUSH2 0x1207 JUMP JUMPDEST JUMPDEST MUL OR SWAP1 SSTORE POP PUSH1 0xA0 DUP3 ADD MLOAD DUP2 PUSH1 0x4 ADD PUSH1 0x1 PUSH2 0x100 EXP DUP2 SLOAD DUP2 PUSH1 0xFF MUL NOT AND SWAP1 DUP4 PUSH1 0x1 DUP2 GT ISZERO PUSH2 0xCFE JUMPI PUSH2 0xCFD PUSH2 0x1207 JUMP JUMPDEST JUMPDEST MUL OR SWAP1 SSTORE POP PUSH1 0xC0 DUP3 ADD MLOAD DUP2 PUSH1 0x4 ADD PUSH1 0x2 PUSH2 0x100 EXP DUP2 SLOAD DUP2 PUSH20 0xFFFFFFFFFFFFFFFFFFFFFFFFFFFFFFFFFFFFFFFF MUL NOT AND SWAP1 DUP4 PUSH20 0xFFFFFFFFFFFFFFFFFFFFFFFFFFFFFFFFFFFFFFFF AND MUL OR SWAP1 SSTORE POP PUSH1 0xE0 DUP3 ADD MLOAD DUP2 PUSH1 0x5 ADD SSTORE PUSH2 0x100 DUP3 ADD MLOAD DUP2 PUSH1 0x6 ADD SSTORE POP POP POP POP POP POP POP POP JUMP JUMPDEST PUSH1 0x0 DUP1 DUP4 DUP2 SLOAD DUP2 LT PUSH2 0xD7E JUMPI PUSH2 0xD7D PUSH2 0x14E2 JUMP JUMPDEST JUMPDEST SWAP1 PUSH1 0x0 MSTORE PUSH1 0x20 PUSH1 0x0 KECCAK256 SWAP1 PUSH1 0x7 MUL ADD SWAP1 POP DUP2 ISZERO PUSH2 0xDB3 JUMPI DUP1 PUSH1 0x2 ADD PUSH1 0x0 DUP2 SLOAD DUP1 SWAP3 SWAP2 SWAP1 PUSH2 0xDA9 SWAP1 PUSH2 0x1867 JUMP JUMPDEST SWAP2 SWAP1 POP SSTORE POP PUSH2 0xDCE JUMP JUMPDEST DUP1 PUSH1 0x3 ADD PUSH1 0x0 DUP2 SLOAD DUP1 SWAP3 SWAP2 SWAP1 PUSH2 0xDC8 SWAP1 PUSH2 0x1867 JUMP JUMPDEST SWAP2 SWAP1 POP SSTORE POP JUMPDEST PUSH1 0x1 PUSH1 0x2 PUSH1 0x0 CALLER PUSH20 0xFFFFFFFFFFFFFFFFFFFFFFFFFFFFFFFFFFFFFFFF AND PUSH20 0xFFFFFFFFFFFFFFFFFFFFFFFFFFFFFFFFFFFFFFFF AND DUP2 MSTORE PUSH1 0x20 ADD SWAP1 DUP2 MSTORE PUSH1 0x20 ADD PUSH1 0x0 KECCAK256 PUSH1 0x0 DUP6 DUP2 MSTORE PUSH1 0x20 ADD SWAP1 DUP2 MSTORE PUSH1 0x20 ADD PUSH1 0x0 KECCAK256 PUSH1 0x0 PUSH2 0x100 EXP DUP2 SLOAD DUP2 PUSH1 0xFF MUL NOT AND SWAP1 DUP4 ISZERO ISZERO MUL OR SWAP1 SSTORE POP POP POP POP JUMP JUMPDEST PUSH1 0x0 DUP1 PUSH1 0x0 DUP4 DUP2 SLOAD DUP2 LT PUSH2 0xE53 JUMPI PUSH2 0xE52 PUSH2 0x14E2 JUMP JUMPDEST JUMPDEST SWAP1 PUSH1 0x0 MSTORE PUSH1 0x20 PUSH1 0x0 KECCAK256 SWAP1 PUSH1 0x7 MUL ADD SWAP1 POP PUSH1 0x0 DUP2 PUSH1 0x2 ADD SLOAD SWAP1 POP PUSH1 0x0 DUP3 PUSH1 0x3 ADD SLOAD SWAP1 POP PUSH1 0x0 PUSH2 0xE81 DUP4 DUP4 PUSH2 0x10C7 JUMP JUMPDEST SWAP1 POP DUP1 PUSH2 0xE95 JUMPI PUSH1 0x6 SWAP5 POP POP POP POP POP PUSH2 0xEBA JUMP JUMPDEST PUSH2 0xE9F DUP4 DUP4 PUSH2 0x10E2 JUMP JUMPDEST ISZERO PUSH2 0xEB1 JUMPI PUSH1 0x5 SWAP5 POP POP POP POP POP PUSH2 0xEBA JUMP JUMPDEST PUSH1 0x4 SWAP5 POP POP POP POP POP JUMPDEST SWAP2 SWAP1 POP JUMP JUMPDEST PUSH1 0x0 DUP1 DUP3 DUP2 SLOAD DUP2 LT PUSH2 0xED4 JUMPI PUSH2 0xED3 PUSH2 0x14E2 JUMP JUMPDEST JUMPDEST SWAP1 PUSH1 0x0 MSTORE PUSH1 0x20 PUSH1 0x0 KECCAK256 SWAP1 PUSH1 0x7 MUL ADD SWAP1 POP PUSH1 0x0 DUP2 PUSH1 0x4 ADD PUSH1 0x2 SWAP1 SLOAD SWAP1 PUSH2 0x100 EXP SWAP1 DIV PUSH20 0xFFFFFFFFFFFFFFFFFFFFFFFFFFFFFFFFFFFFFFFF AND PUSH20 0xFFFFFFFFFFFFFFFFFFFFFFFFFFFFFFFFFFFFFFFF AND DUP3 PUSH1 0x5 ADD SLOAD PUSH1 0x40 MLOAD PUSH2 0xF32 SWAP1 PUSH2 0x18E0 JUMP JUMPDEST PUSH1 0x0 PUSH1 0x40 MLOAD DUP1 DUP4 SUB DUP2 DUP6 DUP8 GAS CALL SWAP3 POP POP POP RETURNDATASIZE DUP1 PUSH1 0x0 DUP2 EQ PUSH2 0xF6F JUMPI PUSH1 0x40 MLOAD SWAP2 POP PUSH1 0x1F NOT PUSH1 0x3F RETURNDATASIZE ADD AND DUP3 ADD PUSH1 0x40 MSTORE RETURNDATASIZE DUP3 MSTORE RETURNDATASIZE PUSH1 0x0 PUSH1 0x20 DUP5 ADD RETURNDATACOPY PUSH2 0xF74 JUMP JUMPDEST PUSH1 0x60 SWAP2 POP JUMPDEST POP POP SWAP1 POP DUP1 PUSH2 0xF9B JUMPI DUP2 PUSH1 0x5 ADD SLOAD PUSH1 0x6 PUSH1 0x0 DUP3 DUP3 SLOAD PUSH2 0xF93 SWAP2 SWAP1 PUSH2 0x1833 JUMP JUMPDEST SWAP3 POP POP DUP2 SWAP1 SSTORE POP JUMPDEST POP POP POP JUMP JUMPDEST PUSH1 0x0 DUP1 DUP3 DUP2 SLOAD DUP2 LT PUSH2 0xFB5 JUMPI PUSH2 0xFB4 PUSH2 0x14E2 JUMP JUMPDEST JUMPDEST SWAP1 PUSH1 0x0 MSTORE PUSH1 0x20 PUSH1 0x0 KECCAK256 SWAP1 PUSH1 0x7 MUL ADD SWAP1 POP DUP1 PUSH1 0x6 ADD SLOAD PUSH1 0x5 DUP2 SWAP1 SSTORE POP POP POP JUMP JUMPDEST PUSH1 0x0 DUP1 DUP3 DUP2 SLOAD DUP2 LT PUSH2 0xFE9 JUMPI PUSH2 0xFE8 PUSH2 0x14E2 JUMP JUMPDEST JUMPDEST SWAP1 PUSH1 0x0 MSTORE PUSH1 0x20 PUSH1 0x0 KECCAK256 SWAP1 PUSH1 0x7 MUL ADD SWAP1 POP PUSH1 0x0 DUP2 PUSH1 0x2 ADD SLOAD SWAP1 POP PUSH1 0x0 DUP3 PUSH1 0x3 ADD SLOAD SWAP1 POP PUSH1 0x0 PUSH2 0x1017 DUP4 DUP4 PUSH2 0x10C7 JUMP JUMPDEST SWAP1 POP DUP1 PUSH2 0x1050 JUMPI PUSH1 0x6 DUP5 PUSH1 0x4 ADD PUSH1 0x0 PUSH2 0x100 EXP DUP2 SLOAD DUP2 PUSH1 0xFF MUL NOT AND SWAP1 DUP4 PUSH1 0x6 DUP2 GT ISZERO PUSH2 0x1046 JUMPI PUSH2 0x1045 PUSH2 0x1207 JUMP JUMPDEST JUMPDEST MUL OR SWAP1 SSTORE POP PUSH2 0x10C0 JUMP JUMPDEST PUSH2 0x105A DUP4 DUP4 PUSH2 0x10E2 JUMP JUMPDEST ISZERO PUSH2 0x1091 JUMPI PUSH1 0x5 DUP5 PUSH1 0x4 ADD PUSH1 0x0 PUSH2 0x100 EXP DUP2 SLOAD DUP2 PUSH1 0xFF MUL NOT AND SWAP1 DUP4 PUSH1 0x6 DUP2 GT ISZERO PUSH2 0x1087 JUMPI PUSH2 0x1086 PUSH2 0x1207 JUMP JUMPDEST JUMPDEST MUL OR SWAP1 SSTORE POP PUSH2 0x10BF JUMP JUMPDEST PUSH1 0x4 DUP5 PUSH1 0x4 ADD PUSH1 0x0 PUSH2 0x100 EXP DUP2 SLOAD DUP2 PUSH1 0xFF MUL NOT AND SWAP1 DUP4 PUSH1 0x6 DUP2 GT ISZERO PUSH2 0x10B9 JUMPI PUSH2 0x10B8 PUSH2 0x1207 JUMP JUMPDEST JUMPDEST MUL OR SWAP1 SSTORE POP JUMPDEST JUMPDEST POP POP POP POP POP JUMP JUMPDEST PUSH1 0x0 PUSH1 0x1 SLOAD DUP3 DUP5 PUSH2 0x10D8 SWAP2 SWAP1 PUSH2 0x1833 JUMP JUMPDEST LT ISZERO SWAP1 POP SWAP3 SWAP2 POP POP JUMP JUMPDEST PUSH1 0x0 DUP2 DUP4 GT SWAP1 POP SWAP3 SWAP2 POP POP JUMP JUMPDEST PUSH1 0x40 MLOAD DUP1 PUSH2 0x120 ADD PUSH1 0x40 MSTORE DUP1 PUSH1 0x0 DUP2 MSTORE PUSH1 0x20 ADD PUSH1 0x0 DUP2 MSTORE PUSH1 0x20 ADD PUSH1 0x0 DUP2 MSTORE PUSH1 0x20 ADD PUSH1 0x0 DUP2 MSTORE PUSH1 0x20 ADD PUSH1 0x0 PUSH1 0x6 DUP2 GT ISZERO PUSH2 0x112B JUMPI PUSH2 0x112A PUSH2 0x1207 JUMP JUMPDEST JUMPDEST DUP2 MSTORE PUSH1 0x20 ADD PUSH1 0x0 PUSH1 0x1 DUP2 GT ISZERO PUSH2 0x1144 JUMPI PUSH2 0x1143 PUSH2 0x1207 JUMP JUMPDEST JUMPDEST DUP2 MSTORE PUSH1 0x20 ADD PUSH1 0x0 PUSH20 0xFFFFFFFFFFFFFFFFFFFFFFFFFFFFFFFFFFFFFFFF AND DUP2 MSTORE PUSH1 0x20 ADD PUSH1 0x0 DUP2 MSTORE PUSH1 0x20 ADD PUSH1 0x0 DUP2 MSTORE POP SWAP1 JUMP JUMPDEST PUSH1 0x0 DUP2 SWAP1 POP SWAP2 SWAP1 POP JUMP JUMPDEST PUSH2 0x1188 DUP2 PUSH2 0x1175 JUMP JUMPDEST DUP3 MSTORE POP POP JUMP JUMPDEST PUSH1 0x0 PUSH1 0x20 DUP3 ADD SWAP1 POP PUSH2 0x11A3 PUSH1 0x0 DUP4 ADD DUP5 PUSH2 0x117F JUMP JUMPDEST SWAP3 SWAP2 POP POP JUMP JUMPDEST PUSH1 0x0 DUP1 REVERT JUMPDEST PUSH2 0x11B7 DUP2 PUSH2 0x1175 JUMP JUMPDEST DUP2 EQ PUSH2 0x11C2 JUMPI PUSH1 0x0 DUP1 REVERT JUMPDEST POP JUMP JUMPDEST PUSH1 0x0 DUP2 CALLDATALOAD SWAP1 POP PUSH2 0x11D4 DUP2 PUSH2 0x11AE JUMP JUMPDEST SWAP3 SWAP2 POP POP JUMP JUMPDEST PUSH1 0x0 PUSH1 0x20 DUP3 DUP5 SUB SLT ISZERO PUSH2 0x11F0 JUMPI PUSH2 0x11EF PUSH2 0x11A9 JUMP JUMPDEST JUMPDEST PUSH1 0x0 PUSH2 0x11FE DUP5 DUP3 DUP6 ADD PUSH2 0x11C5 JUMP JUMPDEST SWAP2 POP POP SWAP3 SWAP2 POP POP JUMP JUMPDEST PUSH32 0x4E487B7100000000000000000000000000000000000000000000000000000000 PUSH1 0x0 MSTORE PUSH1 0x21 PUSH1 0x4 MSTORE PUSH1 0x24 PUSH1 0x0 REVERT JUMPDEST PUSH1 0x7 DUP2 LT PUSH2 0x1247 JUMPI PUSH2 0x1246 PUSH2 0x1207 JUMP JUMPDEST JUMPDEST POP JUMP JUMPDEST PUSH1 0x0 DUP2 SWAP1 POP PUSH2 0x1258 DUP3 PUSH2 0x1236 JUMP JUMPDEST SWAP2 SWAP1 POP JUMP JUMPDEST PUSH1 0x0 PUSH2 0x1268 DUP3 PUSH2 0x124A JUMP JUMPDEST SWAP1 POP SWAP2 SWAP1 POP JUMP JUMPDEST PUSH2 0x1278 DUP2 PUSH2 0x125D JUMP JUMPDEST DUP3 MSTORE POP POP JUMP JUMPDEST PUSH1 0x0 PUSH1 0x20 DUP3 ADD SWAP1 POP PUSH2 0x1293 PUSH1 0x0 DUP4 ADD DUP5 PUSH2 0x126F JUMP JUMPDEST SWAP3 SWAP2 POP POP JUMP JUMPDEST PUSH1 0x0 PUSH20 0xFFFFFFFFFFFFFFFFFFFFFFFFFFFFFFFFFFFFFFFF DUP3 AND SWAP1 POP SWAP2 SWAP1 POP JUMP JUMPDEST PUSH1 0x0 PUSH2 0x12C4 DUP3 PUSH2 0x1299 JUMP JUMPDEST SWAP1 POP SWAP2 SWAP1 POP JUMP JUMPDEST PUSH2 0x12D4 DUP2 PUSH2 0x12B9 JUMP JUMPDEST DUP2 EQ PUSH2 0x12DF JUMPI PUSH1 0x0 DUP1 REVERT JUMPDEST POP JUMP JUMPDEST PUSH1 0x0 DUP2 CALLDATALOAD SWAP1 POP PUSH2 0x12F1 DUP2 PUSH2 0x12CB JUMP JUMPDEST SWAP3 SWAP2 POP POP JUMP JUMPDEST PUSH1 0x0 DUP1 PUSH1 0x40 DUP4 DUP6 SUB SLT ISZERO PUSH2 0x130E JUMPI PUSH2 0x130D PUSH2 0x11A9 JUMP JUMPDEST JUMPDEST PUSH1 0x0 PUSH2 0x131C DUP6 DUP3 DUP7 ADD PUSH2 0x12E2 JUMP JUMPDEST SWAP3 POP POP PUSH1 0x20 PUSH2 0x132D DUP6 DUP3 DUP7 ADD PUSH2 0x11C5 JUMP JUMPDEST SWAP2 POP POP SWAP3 POP SWAP3 SWAP1 POP JUMP JUMPDEST PUSH1 0x0 DUP2 ISZERO ISZERO SWAP1 POP SWAP2 SWAP1 POP JUMP JUMPDEST PUSH2 0x134C DUP2 PUSH2 0x1337 JUMP JUMPDEST DUP3 MSTORE POP POP JUMP JUMPDEST PUSH1 0x0 PUSH1 0x20 DUP3 ADD SWAP1 POP PUSH2 0x1367 PUSH1 0x0 DUP4 ADD DUP5 PUSH2 0x1343 JUMP JUMPDEST SWAP3 SWAP2 POP POP JUMP JUMPDEST PUSH2 0x1376 DUP2 PUSH2 0x1175 JUMP JUMPDEST DUP3 MSTORE POP POP JUMP JUMPDEST PUSH2 0x1385 DUP2 PUSH2 0x125D JUMP JUMPDEST DUP3 MSTORE POP POP JUMP JUMPDEST PUSH1 0x2 DUP2 LT PUSH2 0x139C JUMPI PUSH2 0x139B PUSH2 0x1207 JUMP JUMPDEST JUMPDEST POP JUMP JUMPDEST PUSH1 0x0 DUP2 SWAP1 POP PUSH2 0x13AD DUP3 PUSH2 0x138B JUMP JUMPDEST SWAP2 SWAP1 POP JUMP JUMPDEST PUSH1 0x0 PUSH2 0x13BD DUP3 PUSH2 0x139F JUMP JUMPDEST SWAP1 POP SWAP2 SWAP1 POP JUMP JUMPDEST PUSH2 0x13CD DUP2 PUSH2 0x13B2 JUMP JUMPDEST DUP3 MSTORE POP POP JUMP JUMPDEST PUSH2 0x13DC DUP2 PUSH2 0x12B9 JUMP JUMPDEST DUP3 MSTORE POP POP JUMP JUMPDEST PUSH2 0x120 DUP3 ADD PUSH1 0x0 DUP3 ADD MLOAD PUSH2 0x13F9 PUSH1 0x0 DUP6 ADD DUP3 PUSH2 0x136D JUMP JUMPDEST POP PUSH1 0x20 DUP3 ADD MLOAD PUSH2 0x140C PUSH1 0x20 DUP6 ADD DUP3 PUSH2 0x136D JUMP JUMPDEST POP PUSH1 0x40 DUP3 ADD MLOAD PUSH2 0x141F PUSH1 0x40 DUP6 ADD DUP3 PUSH2 0x136D JUMP JUMPDEST POP PUSH1 0x60 DUP3 ADD MLOAD PUSH2 0x1432 PUSH1 0x60 DUP6 ADD DUP3 PUSH2 0x136D JUMP JUMPDEST POP PUSH1 0x80 DUP3 ADD MLOAD PUSH2 0x1445 PUSH1 0x80 DUP6 ADD DUP3 PUSH2 0x137C JUMP JUMPDEST POP PUSH1 0xA0 DUP3 ADD MLOAD PUSH2 0x1458 PUSH1 0xA0 DUP6 ADD DUP3 PUSH2 0x13C4 JUMP JUMPDEST POP PUSH1 0xC0 DUP3 ADD MLOAD PUSH2 0x146B PUSH1 0xC0 DUP6 ADD DUP3 PUSH2 0x13D3 JUMP JUMPDEST POP PUSH1 0xE0 DUP3 ADD MLOAD PUSH2 0x147E PUSH1 0xE0 DUP6 ADD DUP3 PUSH2 0x136D JUMP JUMPDEST POP PUSH2 0x100 DUP3 ADD MLOAD PUSH2 0x1493 PUSH2 0x100 DUP6 ADD DUP3 PUSH2 0x136D JUMP JUMPDEST POP POP POP POP JUMP JUMPDEST PUSH1 0x0 PUSH2 0x120 DUP3 ADD SWAP1 POP PUSH2 0x14AF PUSH1 0x0 DUP4 ADD DUP5 PUSH2 0x13E2 JUMP JUMPDEST SWAP3 SWAP2 POP POP JUMP JUMPDEST PUSH1 0x0 PUSH1 0x20 DUP3 DUP5 SUB SLT ISZERO PUSH2 0x14CB JUMPI PUSH2 0x14CA PUSH2 0x11A9 JUMP JUMPDEST JUMPDEST PUSH1 0x0 PUSH2 0x14D9 DUP5 DUP3 DUP6 ADD PUSH2 0x12E2 JUMP JUMPDEST SWAP2 POP POP SWAP3 SWAP2 POP POP JUMP JUMPDEST PUSH32 0x4E487B7100000000000000000000000000000000000000000000000000000000 PUSH1 0x0 MSTORE PUSH1 0x32 PUSH1 0x4 MSTORE PUSH1 0x24 PUSH1 0x0 REVERT JUMPDEST PUSH1 0x0 DUP3 DUP3 MSTORE PUSH1 0x20 DUP3 ADD SWAP1 POP SWAP3 SWAP2 POP POP JUMP JUMPDEST PUSH32 0x496E76616C696420494400000000000000000000000000000000000000000000 PUSH1 0x0 DUP3 ADD MSTORE POP JUMP JUMPDEST PUSH1 0x0 PUSH2 0x1558 PUSH1 0xA DUP4 PUSH2 0x1511 JUMP JUMPDEST SWAP2 POP PUSH2 0x1563 DUP3 PUSH2 0x1522 JUMP JUMPDEST PUSH1 0x20 DUP3 ADD SWAP1 POP SWAP2 SWAP1 POP JUMP JUMPDEST PUSH1 0x0 PUSH1 0x20 DUP3 ADD SWAP1 POP DUP2 DUP2 SUB PUSH1 0x0 DUP4 ADD MSTORE PUSH2 0x1587 DUP2 PUSH2 0x154B JUMP JUMPDEST SWAP1 POP SWAP2 SWAP1 POP JUMP JUMPDEST PUSH32 0x496E76616C696420616D6F756E74000000000000000000000000000000000000 PUSH1 0x0 DUP3 ADD MSTORE POP JUMP JUMPDEST PUSH1 0x0 PUSH2 0x15C4 PUSH1 0xE DUP4 PUSH2 0x1511 JUMP JUMPDEST SWAP2 POP PUSH2 0x15CF DUP3 PUSH2 0x158E JUMP JUMPDEST PUSH1 0x20 DUP3 ADD SWAP1 POP SWAP2 SWAP1 POP JUMP JUMPDEST PUSH1 0x0 PUSH1 0x20 DUP3 ADD SWAP1 POP DUP2 DUP2 SUB PUSH1 0x0 DUP4 ADD MSTORE PUSH2 0x15F3 DUP2 PUSH2 0x15B7 JUMP JUMPDEST SWAP1 POP SWAP2 SWAP1 POP JUMP JUMPDEST PUSH32 0x50726F706F73616C20496E616374697665000000000000000000000000000000 PUSH1 0x0 DUP3 ADD MSTORE POP JUMP JUMPDEST PUSH1 0x0 PUSH2 0x1630 PUSH1 0x11 DUP4 PUSH2 0x1511 JUMP JUMPDEST SWAP2 POP PUSH2 0x163B DUP3 PUSH2 0x15FA JUMP JUMPDEST PUSH1 0x20 DUP3 ADD SWAP1 POP SWAP2 SWAP1 POP JUMP JUMPDEST PUSH1 0x0 PUSH1 0x20 DUP3 ADD SWAP1 POP DUP2 DUP2 SUB PUSH1 0x0 DUP4 ADD MSTORE PUSH2 0x165F DUP2 PUSH2 0x1623 JUMP JUMPDEST SWAP1 POP SWAP2 SWAP1 POP JUMP JUMPDEST PUSH32 0x4D656D62657220616C726561647920766F746564000000000000000000000000 PUSH1 0x0 DUP3 ADD MSTORE POP JUMP JUMPDEST PUSH1 0x0 PUSH2 0x169C PUSH1 0x14 DUP4 PUSH2 0x1511 JUMP JUMPDEST SWAP2 POP PUSH2 0x16A7 DUP3 PUSH2 0x1666 JUMP JUMPDEST PUSH1 0x20 DUP3 ADD SWAP1 POP SWAP2 SWAP1 POP JUMP JUMPDEST PUSH1 0x0 PUSH1 0x20 DUP3 ADD SWAP1 POP DUP2 DUP2 SUB PUSH1 0x0 DUP4 ADD MSTORE PUSH2 0x16CB DUP2 PUSH2 0x168F JUMP JUMPDEST SWAP1 POP SWAP2 SWAP1 POP JUMP JUMPDEST PUSH32 0x4E487B7100000000000000000000000000000000000000000000000000000000 PUSH1 0x0 MSTORE PUSH1 0x11 PUSH1 0x4 MSTORE PUSH1 0x24 PUSH1 0x0 REVERT JUMPDEST PUSH1 0x0 PUSH2 0x170C DUP3 PUSH2 0x1175 JUMP JUMPDEST SWAP2 POP PUSH2 0x1717 DUP4 PUSH2 0x1175 JUMP JUMPDEST SWAP3 POP DUP3 DUP3 SUB SWAP1 POP DUP2 DUP2 GT ISZERO PUSH2 0x172F JUMPI PUSH2 0x172E PUSH2 0x16D2 JUMP JUMPDEST JUMPDEST SWAP3 SWAP2 POP POP JUMP JUMPDEST PUSH32 0x496E73756666696369656E742045544800000000000000000000000000000000 PUSH1 0x0 DUP3 ADD MSTORE POP JUMP JUMPDEST PUSH1 0x0 PUSH2 0x176B PUSH1 0x10 DUP4 PUSH2 0x1511 JUMP JUMPDEST SWAP2 POP PUSH2 0x1776 DUP3 PUSH2 0x1735 JUMP JUMPDEST PUSH1 0x20 DUP3 ADD SWAP1 POP SWAP2 SWAP1 POP JUMP JUMPDEST PUSH1 0x0 PUSH1 0x20 DUP3 ADD SWAP1 POP DUP2 DUP2 SUB PUSH1 0x0 DUP4 ADD MSTORE PUSH2 0x179A DUP2 PUSH2 0x175E JUMP JUMPDEST SWAP1 POP SWAP2 SWAP1 POP JUMP JUMPDEST PUSH32 0x50726F706F73616C206E6F742071756575656420666F7220657865637574696F PUSH1 0x0 DUP3 ADD MSTORE PUSH32 0x6E00000000000000000000000000000000000000000000000000000000000000 PUSH1 0x20 DUP3 ADD MSTORE POP JUMP JUMPDEST PUSH1 0x0 PUSH2 0x17FD PUSH1 0x21 DUP4 PUSH2 0x1511 JUMP JUMPDEST SWAP2 POP PUSH2 0x1808 DUP3 PUSH2 0x17A1 JUMP JUMPDEST PUSH1 0x40 DUP3 ADD SWAP1 POP SWAP2 SWAP1 POP JUMP JUMPDEST PUSH1 0x0 PUSH1 0x20 DUP3 ADD SWAP1 POP DUP2 DUP2 SUB PUSH1 0x0 DUP4 ADD MSTORE PUSH2 0x182C DUP2 PUSH2 0x17F0 JUMP JUMPDEST SWAP1 POP SWAP2 SWAP1 POP JUMP JUMPDEST PUSH1 0x0 PUSH2 0x183E DUP3 PUSH2 0x1175 JUMP JUMPDEST SWAP2 POP PUSH2 0x1849 DUP4 PUSH2 0x1175 JUMP JUMPDEST SWAP3 POP DUP3 DUP3 ADD SWAP1 POP DUP1 DUP3 GT ISZERO PUSH2 0x1861 JUMPI PUSH2 0x1860 PUSH2 0x16D2 JUMP JUMPDEST JUMPDEST SWAP3 SWAP2 POP POP JUMP JUMPDEST PUSH1 0x0 PUSH2 0x1872 DUP3 PUSH2 0x1175 JUMP JUMPDEST SWAP2 POP PUSH32 0xFFFFFFFFFFFFFFFFFFFFFFFFFFFFFFFFFFFFFFFFFFFFFFFFFFFFFFFFFFFFFFFF DUP3 SUB PUSH2 0x18A4 JUMPI PUSH2 0x18A3 PUSH2 0x16D2 JUMP JUMPDEST JUMPDEST PUSH1 0x1 DUP3 ADD SWAP1 POP SWAP2 SWAP1 POP JUMP JUMPDEST PUSH1 0x0 DUP2 SWAP1 POP SWAP3 SWAP2 POP POP JUMP JUMPDEST POP JUMP JUMPDEST PUSH1 0x0 PUSH2 0x18CA PUSH1 0x0 DUP4 PUSH2 0x18AF JUMP JUMPDEST SWAP2 POP PUSH2 0x18D5 DUP3 PUSH2 0x18BA JUMP JUMPDEST PUSH1 0x0 DUP3 ADD SWAP1 POP SWAP2 SWAP1 POP JUMP JUMPDEST PUSH1 0x0 PUSH2 0x18EB DUP3 PUSH2 0x18BD JUMP JUMPDEST SWAP2 POP DUP2 SWAP1 POP SWAP2 SWAP1 POP JUMP INVALID LOG2 PUSH5 0x6970667358 0x22 SLT KECCAK256 0xDD 0xD0 CALLDATACOPY BASEFEE 0xC1 JUMP 0xB2 0xEE 0x25 0xB2 DUP13 0xAD 0xDB EXTCODEHASH 0xB9 PUSH10 0x9806712ACC36AA42DC69 RETURNDATASIZE 0xC8 SLT 0x5F PUSH20 0x3864736F6C634300081100330000000000000000 "
				},
				"gasEstimates": {
					"creation": {
						"codeDepositCost": "1288600",
						"executionCost": "111855",
						"totalCost": "1400455"
					},
					"external": {
						"availableETH()": "2495",
						"execute(uint256)": "infinite",
						"getProposal(uint256)": "infinite",
						"getQuorum()": "2526",
						"getReviewTimeRemaining(uint256)": "infinite",
						"getTimestamp()": "360",
						"getTotalProposals()": "2491",
						"getVoteTimeRemaining(uint256)": "infinite",
						"grantAmount()": "2452",
						"memberHasVoted(address,uint256)": "3154",
						"state(uint256)": "9515",
						"submitNewAmountChange(uint256)": "infinite",
						"submitNewGrant(address)": "infinite",
						"voteAgainst(uint256)": "infinite",
						"voteFor(uint256)": "infinite"
					},
					"internal": {
						"_issueGrant(uint256)": "infinite",
						"_modifyGrantSize(uint256)": "26438",
						"_quorumReached(uint256,uint256)": "infinite",
						"_setState(uint256)": "infinite",
						"_submitProposal(enum Governance.ProposalType,address,uint256,uint256)": "infinite",
						"_submitVote(uint256,bool)": "51051",
						"_tallyVotes(uint256)": "infinite",
						"_votesSucceeded(uint256,uint256)": "36"
					}
				},
				"methodIdentifiers": {
					"availableETH()": "fb6ff161",
					"execute(uint256)": "fe0d94c1",
					"getProposal(uint256)": "c7f758a8",
					"getQuorum()": "c26c12eb",
					"getReviewTimeRemaining(uint256)": "99a1fb5c",
					"getTimestamp()": "188ec356",
					"getTotalProposals()": "1a5007dd",
					"getVoteTimeRemaining(uint256)": "9190ca40",
					"grantAmount()": "52fdb2bb",
					"memberHasVoted(address,uint256)": "a220e64a",
					"state(uint256)": "3e4f49e6",
					"submitNewAmountChange(uint256)": "7325d4cc",
					"submitNewGrant(address)": "cf34fa2a",
					"voteAgainst(uint256)": "750e443a",
					"voteFor(uint256)": "86a50535"
				}
			},
			"storageLayout": {
				"storage": [
					{
						"astId": 37,
						"contract": "bootcamp/week10/day_2_creating_a_DAO_voting.sol:Governance",
						"label": "proposals",
						"offset": 0,
						"slot": "0",
						"type": "t_array(t_struct(ProposalData)33_storage)dyn_storage"
					},
					{
						"astId": 40,
						"contract": "bootcamp/week10/day_2_creating_a_DAO_voting.sol:Governance",
						"label": "quorum",
						"offset": 0,
						"slot": "1",
						"type": "t_uint256"
					},
					{
						"astId": 46,
						"contract": "bootcamp/week10/day_2_creating_a_DAO_voting.sol:Governance",
						"label": "memberHasVoted",
						"offset": 0,
						"slot": "2",
						"type": "t_mapping(t_address,t_mapping(t_uint256,t_bool))"
					},
					{
						"astId": 49,
						"contract": "bootcamp/week10/day_2_creating_a_DAO_voting.sol:Governance",
						"label": "reviewPeriod",
						"offset": 0,
						"slot": "3",
						"type": "t_uint256"
					},
					{
						"astId": 52,
						"contract": "bootcamp/week10/day_2_creating_a_DAO_voting.sol:Governance",
						"label": "votingPeriod",
						"offset": 0,
						"slot": "4",
						"type": "t_uint256"
					},
					{
						"astId": 55,
						"contract": "bootcamp/week10/day_2_creating_a_DAO_voting.sol:Governance",
						"label": "grantAmount",
						"offset": 0,
						"slot": "5",
						"type": "t_uint256"
					},
					{
						"astId": 57,
						"contract": "bootcamp/week10/day_2_creating_a_DAO_voting.sol:Governance",
						"label": "availableETH",
						"offset": 0,
						"slot": "6",
						"type": "t_uint256"
					}
				],
				"types": {
					"t_address": {
						"encoding": "inplace",
						"label": "address",
						"numberOfBytes": "20"
					},
					"t_array(t_struct(ProposalData)33_storage)dyn_storage": {
						"base": "t_struct(ProposalData)33_storage",
						"encoding": "dynamic_array",
						"label": "struct Governance.ProposalData[]",
						"numberOfBytes": "32"
					},
					"t_bool": {
						"encoding": "inplace",
						"label": "bool",
						"numberOfBytes": "1"
					},
					"t_enum(ProposalState)9": {
						"encoding": "inplace",
						"label": "enum Governance.ProposalState",
						"numberOfBytes": "1"
					},
					"t_enum(ProposalType)12": {
						"encoding": "inplace",
						"label": "enum Governance.ProposalType",
						"numberOfBytes": "1"
					},
					"t_mapping(t_address,t_mapping(t_uint256,t_bool))": {
						"encoding": "mapping",
						"key": "t_address",
						"label": "mapping(address => mapping(uint256 => bool))",
						"numberOfBytes": "32",
						"value": "t_mapping(t_uint256,t_bool)"
					},
					"t_mapping(t_uint256,t_bool)": {
						"encoding": "mapping",
						"key": "t_uint256",
						"label": "mapping(uint256 => bool)",
						"numberOfBytes": "32",
						"value": "t_bool"
					},
					"t_struct(ProposalData)33_storage": {
						"encoding": "inplace",
						"label": "struct Governance.ProposalData",
						"members": [
							{
								"astId": 14,
								"contract": "bootcamp/week10/day_2_creating_a_DAO_voting.sol:Governance",
								"label": "voteBegins",
								"offset": 0,
								"slot": "0",
								"type": "t_uint256"
							},
							{
								"astId": 16,
								"contract": "bootcamp/week10/day_2_creating_a_DAO_voting.sol:Governance",
								"label": "voteEnds",
								"offset": 0,
								"slot": "1",
								"type": "t_uint256"
							},
							{
								"astId": 18,
								"contract": "bootcamp/week10/day_2_creating_a_DAO_voting.sol:Governance",
								"label": "votesFor",
								"offset": 0,
								"slot": "2",
								"type": "t_uint256"
							},
							{
								"astId": 20,
								"contract": "bootcamp/week10/day_2_creating_a_DAO_voting.sol:Governance",
								"label": "votesAgainst",
								"offset": 0,
								"slot": "3",
								"type": "t_uint256"
							},
							{
								"astId": 23,
								"contract": "bootcamp/week10/day_2_creating_a_DAO_voting.sol:Governance",
								"label": "propState",
								"offset": 0,
								"slot": "4",
								"type": "t_enum(ProposalState)9"
							},
							{
								"astId": 26,
								"contract": "bootcamp/week10/day_2_creating_a_DAO_voting.sol:Governance",
								"label": "propType",
								"offset": 1,
								"slot": "4",
								"type": "t_enum(ProposalType)12"
							},
							{
								"astId": 28,
								"contract": "bootcamp/week10/day_2_creating_a_DAO_voting.sol:Governance",
								"label": "recipient",
								"offset": 2,
								"slot": "4",
								"type": "t_address"
							},
							{
								"astId": 30,
								"contract": "bootcamp/week10/day_2_creating_a_DAO_voting.sol:Governance",
								"label": "ethGrant",
								"offset": 0,
								"slot": "5",
								"type": "t_uint256"
							},
							{
								"astId": 32,
								"contract": "bootcamp/week10/day_2_creating_a_DAO_voting.sol:Governance",
								"label": "newETHGrant",
								"offset": 0,
								"slot": "6",
								"type": "t_uint256"
							}
						],
						"numberOfBytes": "224"
					},
					"t_uint256": {
						"encoding": "inplace",
						"label": "uint256",
						"numberOfBytes": "32"
					}
				}
			},
			"userdoc": {
				"kind": "user",
				"methods": {},
				"version": 1
			}
		}
	}
}