{
	"bootcamp/week10/day_2_creating_a_DAO_voting.sol": {
		"Governance": {
			"abi": [
				{
					"inputs": [],
					"stateMutability": "payable",
					"type": "constructor"
				},
				{
					"inputs": [],
					"name": "availableETH",
					"outputs": [
						{
							"internalType": "uint256",
							"name": "",
							"type": "uint256"
						}
					],
					"stateMutability": "view",
					"type": "function"
				},
				{
					"inputs": [
						{
							"internalType": "address",
							"name": "",
							"type": "address"
						},
						{
							"internalType": "uint256",
							"name": "",
							"type": "uint256"
						}
					],
					"name": "memberHasVoted",
					"outputs": [
						{
							"internalType": "bool",
							"name": "",
							"type": "bool"
						}
					],
					"stateMutability": "view",
					"type": "function"
				},
				{
					"inputs": [
						{
							"internalType": "uint256",
							"name": "propID",
							"type": "uint256"
						}
					],
					"name": "state",
					"outputs": [
						{
							"internalType": "enum Governance.ProposalState",
							"name": "",
							"type": "uint8"
						}
					],
					"stateMutability": "view",
					"type": "function"
				},
				{
					"inputs": [
						{
							"internalType": "uint256",
							"name": "newGrantAmount",
							"type": "uint256"
						}
					],
					"name": "submitNewAmountChange",
					"outputs": [],
					"stateMutability": "nonpayable",
					"type": "function"
				},
				{
					"inputs": [
						{
							"internalType": "address",
							"name": "recipient",
							"type": "address"
						}
					],
					"name": "submitNewGrant",
					"outputs": [],
					"stateMutability": "nonpayable",
					"type": "function"
				},
				{
					"inputs": [
						{
							"internalType": "uint256",
							"name": "propID",
							"type": "uint256"
						}
					],
					"name": "voteFor",
					"outputs": [],
					"stateMutability": "nonpayable",
					"type": "function"
				},
				{
					"inputs": [
						{
							"internalType": "uint256",
							"name": "propID",
							"type": "uint256"
						}
					],
					"name": "votesAgainst",
					"outputs": [],
					"stateMutability": "nonpayable",
					"type": "function"
				}
			],
			"devdoc": {
				"kind": "dev",
				"methods": {},
				"version": 1
			},
			"evm": {
				"assembly": "    /* \"bootcamp/week10/day_2_creating_a_DAO_voting.sol\":58:11235  contract Governance {... */\n  mstore(0x40, 0x80)\n    /* \"bootcamp/week10/day_2_creating_a_DAO_voting.sol\":2079:2080  5 */\n  0x05\n    /* \"bootcamp/week10/day_2_creating_a_DAO_voting.sol\":2054:2080  uint256 private quorum = 5 */\n  0x01\n  sstore\n    /* \"bootcamp/week10/day_2_creating_a_DAO_voting.sol\":2456:2466  30 seconds */\n  0x1e\n    /* \"bootcamp/week10/day_2_creating_a_DAO_voting.sol\":2433:2466  uint256 reviewPeriod = 30 seconds */\n  0x03\n  sstore\n    /* \"bootcamp/week10/day_2_creating_a_DAO_voting.sol\":2592:2601  1 minutes */\n  0x3c\n    /* \"bootcamp/week10/day_2_creating_a_DAO_voting.sol\":2569:2601  uint256 votingPeriod = 1 minutes */\n  0x04\n  sstore\n    /* \"bootcamp/week10/day_2_creating_a_DAO_voting.sol\":2677:2684  1 ether */\n  0x0de0b6b3a7640000\n    /* \"bootcamp/week10/day_2_creating_a_DAO_voting.sol\":2655:2684  uint256 grantAmount = 1 ether */\n  0x05\n  sstore\n    /* \"bootcamp/week10/day_2_creating_a_DAO_voting.sol\":2825:2834  msg.value */\n  callvalue\n    /* \"bootcamp/week10/day_2_creating_a_DAO_voting.sol\":2810:2822  availableETH */\n  0x06\n    /* \"bootcamp/week10/day_2_creating_a_DAO_voting.sol\":2810:2834  availableETH = msg.value */\n  dup2\n  swap1\n  sstore\n  pop\n    /* \"bootcamp/week10/day_2_creating_a_DAO_voting.sol\":58:11235  contract Governance {... */\n  dataSize(sub_0)\n  dup1\n  dataOffset(sub_0)\n  0x00\n  codecopy\n  0x00\n  return\nstop\n\nsub_0: assembly {\n        /* \"bootcamp/week10/day_2_creating_a_DAO_voting.sol\":58:11235  contract Governance {... */\n      mstore(0x40, 0x80)\n      callvalue\n      dup1\n      iszero\n      tag_1\n      jumpi\n      0x00\n      dup1\n      revert\n    tag_1:\n      pop\n      jumpi(tag_2, lt(calldatasize, 0x04))\n      shr(0xe0, calldataload(0x00))\n      dup1\n      0x86a50535\n      gt\n      tag_10\n      jumpi\n      dup1\n      0x86a50535\n      eq\n      tag_6\n      jumpi\n      dup1\n      0xa220e64a\n      eq\n      tag_7\n      jumpi\n      dup1\n      0xcf34fa2a\n      eq\n      tag_8\n      jumpi\n      dup1\n      0xfb6ff161\n      eq\n      tag_9\n      jumpi\n      jump(tag_2)\n    tag_10:\n      dup1\n      0x23b4a998\n      eq\n      tag_3\n      jumpi\n      dup1\n      0x3e4f49e6\n      eq\n      tag_4\n      jumpi\n      dup1\n      0x7325d4cc\n      eq\n      tag_5\n      jumpi\n    tag_2:\n      0x00\n      dup1\n      revert\n        /* \"bootcamp/week10/day_2_creating_a_DAO_voting.sol\":11111:11218  function votesAgainst(uint256 propID) public voteChecks(propID) {... */\n    tag_3:\n      tag_11\n      0x04\n      dup1\n      calldatasize\n      sub\n      dup2\n      add\n      swap1\n      tag_12\n      swap2\n      swap1\n      tag_13\n      jump\t// in\n    tag_12:\n      tag_14\n      jump\t// in\n    tag_11:\n      stop\n        /* \"bootcamp/week10/day_2_creating_a_DAO_voting.sol\":2907:5122  function state(uint256 propID) public view returns(ProposalState) {... */\n    tag_4:\n      tag_15\n      0x04\n      dup1\n      calldatasize\n      sub\n      dup2\n      add\n      swap1\n      tag_16\n      swap2\n      swap1\n      tag_13\n      jump\t// in\n    tag_16:\n      tag_17\n      jump\t// in\n    tag_15:\n      mload(0x40)\n      tag_18\n      swap2\n      swap1\n      tag_19\n      jump\t// in\n    tag_18:\n      mload(0x40)\n      dup1\n      swap2\n      sub\n      swap1\n      return\n        /* \"bootcamp/week10/day_2_creating_a_DAO_voting.sol\":9379:9765  function submitNewAmountChange(uint256 newGrantAmount) public {... */\n    tag_5:\n      tag_20\n      0x04\n      dup1\n      calldatasize\n      sub\n      dup2\n      add\n      swap1\n      tag_21\n      swap2\n      swap1\n      tag_13\n      jump\t// in\n    tag_21:\n      tag_22\n      jump\t// in\n    tag_20:\n      stop\n        /* \"bootcamp/week10/day_2_creating_a_DAO_voting.sol\":10968:11069  function voteFor(uint256 propID) public voteChecks(propID) {... */\n    tag_6:\n      tag_23\n      0x04\n      dup1\n      calldatasize\n      sub\n      dup2\n      add\n      swap1\n      tag_24\n      swap2\n      swap1\n      tag_13\n      jump\t// in\n    tag_24:\n      tag_25\n      jump\t// in\n    tag_23:\n      stop\n        /* \"bootcamp/week10/day_2_creating_a_DAO_voting.sol\":2262:2328  mapping(address => mapping(uint256 => bool)) public memberHasVoted */\n    tag_7:\n      tag_26\n      0x04\n      dup1\n      calldatasize\n      sub\n      dup2\n      add\n      swap1\n      tag_27\n      swap2\n      swap1\n      tag_28\n      jump\t// in\n    tag_27:\n      tag_29\n      jump\t// in\n    tag_26:\n      mload(0x40)\n      tag_30\n      swap2\n      swap1\n      tag_31\n      jump\t// in\n    tag_30:\n      mload(0x40)\n      dup1\n      swap2\n      sub\n      swap1\n      return\n        /* \"bootcamp/week10/day_2_creating_a_DAO_voting.sol\":8702:9323  function submitNewGrant(address recipient) public {... */\n    tag_8:\n      tag_32\n      0x04\n      dup1\n      calldatasize\n      sub\n      dup2\n      add\n      swap1\n      tag_33\n      swap2\n      swap1\n      tag_34\n      jump\t// in\n    tag_33:\n      tag_35\n      jump\t// in\n    tag_32:\n      stop\n        /* \"bootcamp/week10/day_2_creating_a_DAO_voting.sol\":2744:2771  uint256 public availableETH */\n    tag_9:\n      tag_36\n      tag_37\n      jump\t// in\n    tag_36:\n      mload(0x40)\n      tag_38\n      swap2\n      swap1\n      tag_39\n      jump\t// in\n    tag_38:\n      mload(0x40)\n      dup1\n      swap2\n      sub\n      swap1\n      return\n        /* \"bootcamp/week10/day_2_creating_a_DAO_voting.sol\":11111:11218  function votesAgainst(uint256 propID) public voteChecks(propID) {... */\n    tag_14:\n        /* \"bootcamp/week10/day_2_creating_a_DAO_voting.sol\":11167:11173  propID */\n      dup1\n        /* \"bootcamp/week10/day_2_creating_a_DAO_voting.sol\":9994:10014  ProposalState.Active */\n      0x02\n        /* \"bootcamp/week10/day_2_creating_a_DAO_voting.sol\":9977:10014  state(propID) == ProposalState.Active */\n      0x06\n      dup2\n      gt\n      iszero\n      tag_41\n      jumpi\n      tag_42\n      tag_43\n      jump\t// in\n    tag_42:\n    tag_41:\n        /* \"bootcamp/week10/day_2_creating_a_DAO_voting.sol\":9977:9990  state(propID) */\n      tag_44\n        /* \"bootcamp/week10/day_2_creating_a_DAO_voting.sol\":9983:9989  propID */\n      dup3\n        /* \"bootcamp/week10/day_2_creating_a_DAO_voting.sol\":9977:9982  state */\n      tag_17\n        /* \"bootcamp/week10/day_2_creating_a_DAO_voting.sol\":9977:9990  state(propID) */\n      jump\t// in\n    tag_44:\n        /* \"bootcamp/week10/day_2_creating_a_DAO_voting.sol\":9977:10014  state(propID) == ProposalState.Active */\n      0x06\n      dup2\n      gt\n      iszero\n      tag_45\n      jumpi\n      tag_46\n      tag_43\n      jump\t// in\n    tag_46:\n    tag_45:\n      eq\n        /* \"bootcamp/week10/day_2_creating_a_DAO_voting.sol\":9969:10036  require(state(propID) == ProposalState.Active, \"Proposal Inactive\") */\n      tag_47\n      jumpi\n      mload(0x40)\n      0x08c379a000000000000000000000000000000000000000000000000000000000\n      dup2\n      mstore\n      0x04\n      add\n      tag_48\n      swap1\n      tag_49\n      jump\t// in\n    tag_48:\n      mload(0x40)\n      dup1\n      swap2\n      sub\n      swap1\n      revert\n    tag_47:\n        /* \"bootcamp/week10/day_2_creating_a_DAO_voting.sol\":10144:10149  false */\n      0x00\n        /* \"bootcamp/week10/day_2_creating_a_DAO_voting.sol\":10106:10149  memberHasVoted[msg.sender][propID] == false */\n      iszero\n      iszero\n        /* \"bootcamp/week10/day_2_creating_a_DAO_voting.sol\":10106:10120  memberHasVoted */\n      0x02\n        /* \"bootcamp/week10/day_2_creating_a_DAO_voting.sol\":10106:10132  memberHasVoted[msg.sender] */\n      0x00\n        /* \"bootcamp/week10/day_2_creating_a_DAO_voting.sol\":10121:10131  msg.sender */\n      caller\n        /* \"bootcamp/week10/day_2_creating_a_DAO_voting.sol\":10106:10132  memberHasVoted[msg.sender] */\n      0xffffffffffffffffffffffffffffffffffffffff\n      and\n      0xffffffffffffffffffffffffffffffffffffffff\n      and\n      dup2\n      mstore\n      0x20\n      add\n      swap1\n      dup2\n      mstore\n      0x20\n      add\n      0x00\n      keccak256\n        /* \"bootcamp/week10/day_2_creating_a_DAO_voting.sol\":10106:10140  memberHasVoted[msg.sender][propID] */\n      0x00\n        /* \"bootcamp/week10/day_2_creating_a_DAO_voting.sol\":10133:10139  propID */\n      dup4\n        /* \"bootcamp/week10/day_2_creating_a_DAO_voting.sol\":10106:10140  memberHasVoted[msg.sender][propID] */\n      dup2\n      mstore\n      0x20\n      add\n      swap1\n      dup2\n      mstore\n      0x20\n      add\n      0x00\n      keccak256\n      0x00\n      swap1\n      sload\n      swap1\n      0x0100\n      exp\n      swap1\n      div\n      0xff\n      and\n        /* \"bootcamp/week10/day_2_creating_a_DAO_voting.sol\":10106:10149  memberHasVoted[msg.sender][propID] == false */\n      iszero\n      iszero\n      eq\n        /* \"bootcamp/week10/day_2_creating_a_DAO_voting.sol\":10098:10174  require(memberHasVoted[msg.sender][propID] == false, \"Member already voted\") */\n      tag_50\n      jumpi\n      mload(0x40)\n      0x08c379a000000000000000000000000000000000000000000000000000000000\n      dup2\n      mstore\n      0x04\n      add\n      tag_51\n      swap1\n      tag_52\n      jump\t// in\n    tag_51:\n      mload(0x40)\n      dup1\n      swap2\n      sub\n      swap1\n      revert\n    tag_50:\n        /* \"bootcamp/week10/day_2_creating_a_DAO_voting.sol\":11185:11211  _submitVote(propID, false) */\n      tag_54\n        /* \"bootcamp/week10/day_2_creating_a_DAO_voting.sol\":11197:11203  propID */\n      dup3\n        /* \"bootcamp/week10/day_2_creating_a_DAO_voting.sol\":11205:11210  false */\n      0x00\n        /* \"bootcamp/week10/day_2_creating_a_DAO_voting.sol\":11185:11196  _submitVote */\n      tag_55\n        /* \"bootcamp/week10/day_2_creating_a_DAO_voting.sol\":11185:11211  _submitVote(propID, false) */\n      jump\t// in\n    tag_54:\n        /* \"bootcamp/week10/day_2_creating_a_DAO_voting.sol\":11111:11218  function votesAgainst(uint256 propID) public voteChecks(propID) {... */\n      pop\n      pop\n      jump\t// out\n        /* \"bootcamp/week10/day_2_creating_a_DAO_voting.sol\":2907:5122  function state(uint256 propID) public view returns(ProposalState) {... */\n    tag_17:\n        /* \"bootcamp/week10/day_2_creating_a_DAO_voting.sol\":2958:2971  ProposalState */\n      0x00\n        /* \"bootcamp/week10/day_2_creating_a_DAO_voting.sol\":3219:3248  ProposalData storage proposal */\n      dup1\n        /* \"bootcamp/week10/day_2_creating_a_DAO_voting.sol\":3251:3260  proposals */\n      0x00\n        /* \"bootcamp/week10/day_2_creating_a_DAO_voting.sol\":3261:3267  propID */\n      dup4\n        /* \"bootcamp/week10/day_2_creating_a_DAO_voting.sol\":3251:3268  proposals[propID] */\n      dup2\n      sload\n      dup2\n      lt\n      tag_57\n      jumpi\n      tag_58\n      tag_59\n      jump\t// in\n    tag_58:\n    tag_57:\n      swap1\n      0x00\n      mstore\n      keccak256(0x00, 0x20)\n      swap1\n      0x07\n      mul\n      add\n        /* \"bootcamp/week10/day_2_creating_a_DAO_voting.sol\":3219:3268  ProposalData storage proposal = proposals[propID] */\n      swap1\n      pop\n        /* \"bootcamp/week10/day_2_creating_a_DAO_voting.sol\":3360:3383  ProposalState propState */\n      0x00\n        /* \"bootcamp/week10/day_2_creating_a_DAO_voting.sol\":3386:3394  proposal */\n      dup2\n        /* \"bootcamp/week10/day_2_creating_a_DAO_voting.sol\":3386:3404  proposal.propState */\n      0x04\n      add\n      0x00\n      swap1\n      sload\n      swap1\n      0x0100\n      exp\n      swap1\n      div\n      0xff\n      and\n        /* \"bootcamp/week10/day_2_creating_a_DAO_voting.sol\":3360:3404  ProposalState propState = proposal.propState */\n      swap1\n      pop\n        /* \"bootcamp/week10/day_2_creating_a_DAO_voting.sol\":3597:3621  ProposalState.Unassigned */\n      0x00\n        /* \"bootcamp/week10/day_2_creating_a_DAO_voting.sol\":3584:3621  propState != ProposalState.Unassigned */\n      0x06\n      dup2\n      gt\n      iszero\n      tag_61\n      jumpi\n      tag_62\n      tag_43\n      jump\t// in\n    tag_62:\n    tag_61:\n        /* \"bootcamp/week10/day_2_creating_a_DAO_voting.sol\":3584:3593  propState */\n      dup2\n        /* \"bootcamp/week10/day_2_creating_a_DAO_voting.sol\":3584:3621  propState != ProposalState.Unassigned */\n      0x06\n      dup2\n      gt\n      iszero\n      tag_63\n      jumpi\n      tag_64\n      tag_43\n      jump\t// in\n    tag_64:\n    tag_63:\n      eq\n        /* \"bootcamp/week10/day_2_creating_a_DAO_voting.sol\":3580:3723  if (propState != ProposalState.Unassigned) {... */\n      tag_65\n      jumpi\n        /* \"bootcamp/week10/day_2_creating_a_DAO_voting.sol\":3703:3712  propState */\n      dup1\n        /* \"bootcamp/week10/day_2_creating_a_DAO_voting.sol\":3696:3712  return propState */\n      swap3\n      pop\n      pop\n      pop\n      jump(tag_56)\n        /* \"bootcamp/week10/day_2_creating_a_DAO_voting.sol\":3580:3723  if (propState != ProposalState.Unassigned) {... */\n    tag_65:\n        /* \"bootcamp/week10/day_2_creating_a_DAO_voting.sol\":3882:3900  uint256 voteBegins */\n      0x00\n        /* \"bootcamp/week10/day_2_creating_a_DAO_voting.sol\":3903:3911  proposal */\n      dup3\n        /* \"bootcamp/week10/day_2_creating_a_DAO_voting.sol\":3903:3922  proposal.voteBegins */\n      0x00\n      add\n      sload\n        /* \"bootcamp/week10/day_2_creating_a_DAO_voting.sol\":3882:3922  uint256 voteBegins = proposal.voteBegins */\n      swap1\n      pop\n        /* \"bootcamp/week10/day_2_creating_a_DAO_voting.sol\":4021:4022  0 */\n      0x00\n        /* \"bootcamp/week10/day_2_creating_a_DAO_voting.sol\":4007:4017  voteBegins */\n      dup2\n        /* \"bootcamp/week10/day_2_creating_a_DAO_voting.sol\":4007:4022  voteBegins == 0 */\n      sub\n        /* \"bootcamp/week10/day_2_creating_a_DAO_voting.sol\":4003:4069  if (voteBegins == 0) {... */\n      tag_66\n      jumpi\n        /* \"bootcamp/week10/day_2_creating_a_DAO_voting.sol\":4038:4058  revert(\"Invalid ID\") */\n      mload(0x40)\n      0x08c379a000000000000000000000000000000000000000000000000000000000\n      dup2\n      mstore\n      0x04\n      add\n      tag_67\n      swap1\n      tag_68\n      jump\t// in\n    tag_67:\n      mload(0x40)\n      dup1\n      swap2\n      sub\n      swap1\n      revert\n        /* \"bootcamp/week10/day_2_creating_a_DAO_voting.sol\":4003:4069  if (voteBegins == 0) {... */\n    tag_66:\n        /* \"bootcamp/week10/day_2_creating_a_DAO_voting.sol\":4432:4447  block.timestamp */\n      timestamp\n        /* \"bootcamp/week10/day_2_creating_a_DAO_voting.sol\":4418:4428  voteBegins */\n      dup2\n        /* \"bootcamp/week10/day_2_creating_a_DAO_voting.sol\":4418:4447  voteBegins >= block.timestamp */\n      lt\n        /* \"bootcamp/week10/day_2_creating_a_DAO_voting.sol\":4414:4502  if (voteBegins >= block.timestamp) {... */\n      tag_69\n      jumpi\n        /* \"bootcamp/week10/day_2_creating_a_DAO_voting.sol\":4470:4491  ProposalState.Pending */\n      0x01\n        /* \"bootcamp/week10/day_2_creating_a_DAO_voting.sol\":4463:4491  return ProposalState.Pending */\n      swap4\n      pop\n      pop\n      pop\n      pop\n      jump(tag_56)\n        /* \"bootcamp/week10/day_2_creating_a_DAO_voting.sol\":4414:4502  if (voteBegins >= block.timestamp) {... */\n    tag_69:\n        /* \"bootcamp/week10/day_2_creating_a_DAO_voting.sol\":4512:4528  uint256 voteEnds */\n      0x00\n        /* \"bootcamp/week10/day_2_creating_a_DAO_voting.sol\":4531:4539  proposal */\n      dup4\n        /* \"bootcamp/week10/day_2_creating_a_DAO_voting.sol\":4531:4548  proposal.voteEnds */\n      0x01\n      add\n      sload\n        /* \"bootcamp/week10/day_2_creating_a_DAO_voting.sol\":4512:4548  uint256 voteEnds = proposal.voteEnds */\n      swap1\n      pop\n        /* \"bootcamp/week10/day_2_creating_a_DAO_voting.sol\":4906:4921  block.timestamp */\n      timestamp\n        /* \"bootcamp/week10/day_2_creating_a_DAO_voting.sol\":4894:4902  voteEnds */\n      dup2\n        /* \"bootcamp/week10/day_2_creating_a_DAO_voting.sol\":4894:4921  voteEnds >= block.timestamp */\n      lt\n        /* \"bootcamp/week10/day_2_creating_a_DAO_voting.sol\":4890:4975  if (voteEnds >= block.timestamp) {... */\n      tag_70\n      jumpi\n        /* \"bootcamp/week10/day_2_creating_a_DAO_voting.sol\":4944:4964  ProposalState.Active */\n      0x02\n        /* \"bootcamp/week10/day_2_creating_a_DAO_voting.sol\":4937:4964  return ProposalState.Active */\n      swap5\n      pop\n      pop\n      pop\n      pop\n      pop\n      jump(tag_56)\n        /* \"bootcamp/week10/day_2_creating_a_DAO_voting.sol\":4890:4975  if (voteEnds >= block.timestamp) {... */\n    tag_70:\n        /* \"bootcamp/week10/day_2_creating_a_DAO_voting.sol\":5095:5115  ProposalState.Queued */\n      0x03\n        /* \"bootcamp/week10/day_2_creating_a_DAO_voting.sol\":5088:5115  return ProposalState.Queued */\n      swap5\n      pop\n      pop\n      pop\n      pop\n      pop\n        /* \"bootcamp/week10/day_2_creating_a_DAO_voting.sol\":2907:5122  function state(uint256 propID) public view returns(ProposalState) {... */\n    tag_56:\n      swap2\n      swap1\n      pop\n      jump\t// out\n        /* \"bootcamp/week10/day_2_creating_a_DAO_voting.sol\":9379:9765  function submitNewAmountChange(uint256 newGrantAmount) public {... */\n    tag_22:\n        /* \"bootcamp/week10/day_2_creating_a_DAO_voting.sol\":9476:9477  0 */\n      0x00\n        /* \"bootcamp/week10/day_2_creating_a_DAO_voting.sol\":9459:9473  newGrantAmount */\n      dup2\n        /* \"bootcamp/week10/day_2_creating_a_DAO_voting.sol\":9459:9477  newGrantAmount > 0 */\n      gt\n        /* \"bootcamp/week10/day_2_creating_a_DAO_voting.sol\":9451:9496  require(newGrantAmount > 0, \"Invalid amount\") */\n      tag_72\n      jumpi\n      mload(0x40)\n      0x08c379a000000000000000000000000000000000000000000000000000000000\n      dup2\n      mstore\n      0x04\n      add\n      tag_73\n      swap1\n      tag_74\n      jump\t// in\n    tag_73:\n      mload(0x40)\n      dup1\n      swap2\n      sub\n      swap1\n      revert\n    tag_72:\n        /* \"bootcamp/week10/day_2_creating_a_DAO_voting.sol\":9687:9758  _submitProposal(ProposalType.IssueGrant, address(0), 0, newGrantAmount) */\n      tag_75\n        /* \"bootcamp/week10/day_2_creating_a_DAO_voting.sol\":9703:9726  ProposalType.IssueGrant */\n      0x00\n        /* \"bootcamp/week10/day_2_creating_a_DAO_voting.sol\":9736:9737  0 */\n      dup1\n        /* \"bootcamp/week10/day_2_creating_a_DAO_voting.sol\":9740:9741  0 */\n      0x00\n        /* \"bootcamp/week10/day_2_creating_a_DAO_voting.sol\":9743:9757  newGrantAmount */\n      dup5\n        /* \"bootcamp/week10/day_2_creating_a_DAO_voting.sol\":9687:9702  _submitProposal */\n      tag_76\n        /* \"bootcamp/week10/day_2_creating_a_DAO_voting.sol\":9687:9758  _submitProposal(ProposalType.IssueGrant, address(0), 0, newGrantAmount) */\n      jump\t// in\n    tag_75:\n        /* \"bootcamp/week10/day_2_creating_a_DAO_voting.sol\":9379:9765  function submitNewAmountChange(uint256 newGrantAmount) public {... */\n      pop\n      jump\t// out\n        /* \"bootcamp/week10/day_2_creating_a_DAO_voting.sol\":10968:11069  function voteFor(uint256 propID) public voteChecks(propID) {... */\n    tag_25:\n        /* \"bootcamp/week10/day_2_creating_a_DAO_voting.sol\":11019:11025  propID */\n      dup1\n        /* \"bootcamp/week10/day_2_creating_a_DAO_voting.sol\":9994:10014  ProposalState.Active */\n      0x02\n        /* \"bootcamp/week10/day_2_creating_a_DAO_voting.sol\":9977:10014  state(propID) == ProposalState.Active */\n      0x06\n      dup2\n      gt\n      iszero\n      tag_78\n      jumpi\n      tag_79\n      tag_43\n      jump\t// in\n    tag_79:\n    tag_78:\n        /* \"bootcamp/week10/day_2_creating_a_DAO_voting.sol\":9977:9990  state(propID) */\n      tag_80\n        /* \"bootcamp/week10/day_2_creating_a_DAO_voting.sol\":9983:9989  propID */\n      dup3\n        /* \"bootcamp/week10/day_2_creating_a_DAO_voting.sol\":9977:9982  state */\n      tag_17\n        /* \"bootcamp/week10/day_2_creating_a_DAO_voting.sol\":9977:9990  state(propID) */\n      jump\t// in\n    tag_80:\n        /* \"bootcamp/week10/day_2_creating_a_DAO_voting.sol\":9977:10014  state(propID) == ProposalState.Active */\n      0x06\n      dup2\n      gt\n      iszero\n      tag_81\n      jumpi\n      tag_82\n      tag_43\n      jump\t// in\n    tag_82:\n    tag_81:\n      eq\n        /* \"bootcamp/week10/day_2_creating_a_DAO_voting.sol\":9969:10036  require(state(propID) == ProposalState.Active, \"Proposal Inactive\") */\n      tag_83\n      jumpi\n      mload(0x40)\n      0x08c379a000000000000000000000000000000000000000000000000000000000\n      dup2\n      mstore\n      0x04\n      add\n      tag_84\n      swap1\n      tag_49\n      jump\t// in\n    tag_84:\n      mload(0x40)\n      dup1\n      swap2\n      sub\n      swap1\n      revert\n    tag_83:\n        /* \"bootcamp/week10/day_2_creating_a_DAO_voting.sol\":10144:10149  false */\n      0x00\n        /* \"bootcamp/week10/day_2_creating_a_DAO_voting.sol\":10106:10149  memberHasVoted[msg.sender][propID] == false */\n      iszero\n      iszero\n        /* \"bootcamp/week10/day_2_creating_a_DAO_voting.sol\":10106:10120  memberHasVoted */\n      0x02\n        /* \"bootcamp/week10/day_2_creating_a_DAO_voting.sol\":10106:10132  memberHasVoted[msg.sender] */\n      0x00\n        /* \"bootcamp/week10/day_2_creating_a_DAO_voting.sol\":10121:10131  msg.sender */\n      caller\n        /* \"bootcamp/week10/day_2_creating_a_DAO_voting.sol\":10106:10132  memberHasVoted[msg.sender] */\n      0xffffffffffffffffffffffffffffffffffffffff\n      and\n      0xffffffffffffffffffffffffffffffffffffffff\n      and\n      dup2\n      mstore\n      0x20\n      add\n      swap1\n      dup2\n      mstore\n      0x20\n      add\n      0x00\n      keccak256\n        /* \"bootcamp/week10/day_2_creating_a_DAO_voting.sol\":10106:10140  memberHasVoted[msg.sender][propID] */\n      0x00\n        /* \"bootcamp/week10/day_2_creating_a_DAO_voting.sol\":10133:10139  propID */\n      dup4\n        /* \"bootcamp/week10/day_2_creating_a_DAO_voting.sol\":10106:10140  memberHasVoted[msg.sender][propID] */\n      dup2\n      mstore\n      0x20\n      add\n      swap1\n      dup2\n      mstore\n      0x20\n      add\n      0x00\n      keccak256\n      0x00\n      swap1\n      sload\n      swap1\n      0x0100\n      exp\n      swap1\n      div\n      0xff\n      and\n        /* \"bootcamp/week10/day_2_creating_a_DAO_voting.sol\":10106:10149  memberHasVoted[msg.sender][propID] == false */\n      iszero\n      iszero\n      eq\n        /* \"bootcamp/week10/day_2_creating_a_DAO_voting.sol\":10098:10174  require(memberHasVoted[msg.sender][propID] == false, \"Member already voted\") */\n      tag_85\n      jumpi\n      mload(0x40)\n      0x08c379a000000000000000000000000000000000000000000000000000000000\n      dup2\n      mstore\n      0x04\n      add\n      tag_86\n      swap1\n      tag_52\n      jump\t// in\n    tag_86:\n      mload(0x40)\n      dup1\n      swap2\n      sub\n      swap1\n      revert\n    tag_85:\n        /* \"bootcamp/week10/day_2_creating_a_DAO_voting.sol\":11037:11062  _submitVote(propID, true) */\n      tag_88\n        /* \"bootcamp/week10/day_2_creating_a_DAO_voting.sol\":11049:11055  propID */\n      dup3\n        /* \"bootcamp/week10/day_2_creating_a_DAO_voting.sol\":11057:11061  true */\n      0x01\n        /* \"bootcamp/week10/day_2_creating_a_DAO_voting.sol\":11037:11048  _submitVote */\n      tag_55\n        /* \"bootcamp/week10/day_2_creating_a_DAO_voting.sol\":11037:11062  _submitVote(propID, true) */\n      jump\t// in\n    tag_88:\n        /* \"bootcamp/week10/day_2_creating_a_DAO_voting.sol\":10968:11069  function voteFor(uint256 propID) public voteChecks(propID) {... */\n      pop\n      pop\n      jump\t// out\n        /* \"bootcamp/week10/day_2_creating_a_DAO_voting.sol\":2262:2328  mapping(address => mapping(uint256 => bool)) public memberHasVoted */\n    tag_29:\n      mstore(0x20, 0x02)\n      dup2\n      0x00\n      mstore\n      mstore(0x20, keccak256(0x00, 0x40))\n      dup1\n      0x00\n      mstore\n      keccak256(0x00, 0x40)\n      0x00\n      swap2\n      pop\n      swap2\n      pop\n      swap1\n      sload\n      swap1\n      0x0100\n      exp\n      swap1\n      div\n      0xff\n      and\n      dup2\n      jump\t// out\n        /* \"bootcamp/week10/day_2_creating_a_DAO_voting.sol\":8702:9323  function submitNewGrant(address recipient) public {... */\n    tag_35:\n        /* \"bootcamp/week10/day_2_creating_a_DAO_voting.sol\":8838:8858  uint256 _grantAmount */\n      0x00\n        /* \"bootcamp/week10/day_2_creating_a_DAO_voting.sol\":8861:8872  grantAmount */\n      sload(0x05)\n        /* \"bootcamp/week10/day_2_creating_a_DAO_voting.sol\":8838:8872  uint256 _grantAmount = grantAmount */\n      swap1\n      pop\n        /* \"bootcamp/week10/day_2_creating_a_DAO_voting.sol\":8979:8991  _grantAmount */\n      dup1\n        /* \"bootcamp/week10/day_2_creating_a_DAO_voting.sol\":8963:8975  availableETH */\n      sload(0x06)\n        /* \"bootcamp/week10/day_2_creating_a_DAO_voting.sol\":8963:8991  availableETH >= _grantAmount */\n      lt\n      iszero\n        /* \"bootcamp/week10/day_2_creating_a_DAO_voting.sol\":8955:9011  require(availableETH >= _grantAmount, \"Insuficient ETH\") */\n      tag_90\n      jumpi\n      mload(0x40)\n      0x08c379a000000000000000000000000000000000000000000000000000000000\n      dup2\n      mstore\n      0x04\n      add\n      tag_91\n      swap1\n      tag_92\n      jump\t// in\n    tag_91:\n      mload(0x40)\n      dup1\n      swap2\n      sub\n      swap1\n      revert\n    tag_90:\n        /* \"bootcamp/week10/day_2_creating_a_DAO_voting.sol\":9083:9095  _grantAmount */\n      dup1\n        /* \"bootcamp/week10/day_2_creating_a_DAO_voting.sol\":9067:9079  availableETH */\n      0x06\n      0x00\n        /* \"bootcamp/week10/day_2_creating_a_DAO_voting.sol\":9067:9095  availableETH -= _grantAmount */\n      dup3\n      dup3\n      sload\n      tag_93\n      swap2\n      swap1\n      tag_94\n      jump\t// in\n    tag_93:\n      swap3\n      pop\n      pop\n      dup2\n      swap1\n      sstore\n      pop\n        /* \"bootcamp/week10/day_2_creating_a_DAO_voting.sol\":9248:9316  _submitProposal(ProposalType.IssueGrant, recipient, _grantAmount, 0) */\n      tag_95\n        /* \"bootcamp/week10/day_2_creating_a_DAO_voting.sol\":9264:9287  ProposalType.IssueGrant */\n      0x00\n        /* \"bootcamp/week10/day_2_creating_a_DAO_voting.sol\":9289:9298  recipient */\n      dup4\n        /* \"bootcamp/week10/day_2_creating_a_DAO_voting.sol\":9300:9312  _grantAmount */\n      dup4\n        /* \"bootcamp/week10/day_2_creating_a_DAO_voting.sol\":9314:9315  0 */\n      0x00\n        /* \"bootcamp/week10/day_2_creating_a_DAO_voting.sol\":9248:9263  _submitProposal */\n      tag_76\n        /* \"bootcamp/week10/day_2_creating_a_DAO_voting.sol\":9248:9316  _submitProposal(ProposalType.IssueGrant, recipient, _grantAmount, 0) */\n      jump\t// in\n    tag_95:\n        /* \"bootcamp/week10/day_2_creating_a_DAO_voting.sol\":8752:9323  {... */\n      pop\n        /* \"bootcamp/week10/day_2_creating_a_DAO_voting.sol\":8702:9323  function submitNewGrant(address recipient) public {... */\n      pop\n      jump\t// out\n        /* \"bootcamp/week10/day_2_creating_a_DAO_voting.sol\":2744:2771  uint256 public availableETH */\n    tag_37:\n      sload(0x06)\n      dup2\n      jump\t// out\n        /* \"bootcamp/week10/day_2_creating_a_DAO_voting.sol\":10254:10935  function _submitVote(uint256 propID, bool votedFor) private {... */\n    tag_55:\n        /* \"bootcamp/week10/day_2_creating_a_DAO_voting.sol\":10560:10589  ProposalData storage proposal */\n      0x00\n        /* \"bootcamp/week10/day_2_creating_a_DAO_voting.sol\":10592:10601  proposals */\n      dup1\n        /* \"bootcamp/week10/day_2_creating_a_DAO_voting.sol\":10602:10608  propID */\n      dup4\n        /* \"bootcamp/week10/day_2_creating_a_DAO_voting.sol\":10592:10609  proposals[propID] */\n      dup2\n      sload\n      dup2\n      lt\n      tag_97\n      jumpi\n      tag_98\n      tag_59\n      jump\t// in\n    tag_98:\n    tag_97:\n      swap1\n      0x00\n      mstore\n      keccak256(0x00, 0x20)\n      swap1\n      0x07\n      mul\n      add\n        /* \"bootcamp/week10/day_2_creating_a_DAO_voting.sol\":10560:10609  ProposalData storage proposal = proposals[propID] */\n      swap1\n      pop\n        /* \"bootcamp/week10/day_2_creating_a_DAO_voting.sol\":10716:10724  votedFor */\n      dup2\n        /* \"bootcamp/week10/day_2_creating_a_DAO_voting.sol\":10713:10824  if(votedFor) {... */\n      iszero\n      tag_100\n      jumpi\n        /* \"bootcamp/week10/day_2_creating_a_DAO_voting.sol\":10740:10748  proposal */\n      dup1\n        /* \"bootcamp/week10/day_2_creating_a_DAO_voting.sol\":10740:10757  proposal.votesFor */\n      0x02\n      add\n      0x00\n        /* \"bootcamp/week10/day_2_creating_a_DAO_voting.sol\":10740:10759  proposal.votesFor++ */\n      dup2\n      sload\n      dup1\n      swap3\n      swap2\n      swap1\n      tag_101\n      swap1\n      tag_102\n      jump\t// in\n    tag_101:\n      swap2\n      swap1\n      pop\n      sstore\n      pop\n        /* \"bootcamp/week10/day_2_creating_a_DAO_voting.sol\":10713:10824  if(votedFor) {... */\n      jump(tag_103)\n    tag_100:\n        /* \"bootcamp/week10/day_2_creating_a_DAO_voting.sol\":10790:10798  proposal */\n      dup1\n        /* \"bootcamp/week10/day_2_creating_a_DAO_voting.sol\":10790:10811  proposal.votesAgainst */\n      0x03\n      add\n      0x00\n        /* \"bootcamp/week10/day_2_creating_a_DAO_voting.sol\":10790:10813  proposal.votesAgainst++ */\n      dup2\n      sload\n      dup1\n      swap3\n      swap2\n      swap1\n      tag_104\n      swap1\n      tag_102\n      jump\t// in\n    tag_104:\n      swap2\n      swap1\n      pop\n      sstore\n      pop\n        /* \"bootcamp/week10/day_2_creating_a_DAO_voting.sol\":10713:10824  if(votedFor) {... */\n    tag_103:\n        /* \"bootcamp/week10/day_2_creating_a_DAO_voting.sol\":10924:10928  true */\n      0x01\n        /* \"bootcamp/week10/day_2_creating_a_DAO_voting.sol\":10886:10928  memberHasVoted[msg.sender][propID] == true */\n      iszero\n      iszero\n        /* \"bootcamp/week10/day_2_creating_a_DAO_voting.sol\":10886:10900  memberHasVoted */\n      0x02\n        /* \"bootcamp/week10/day_2_creating_a_DAO_voting.sol\":10886:10912  memberHasVoted[msg.sender] */\n      0x00\n        /* \"bootcamp/week10/day_2_creating_a_DAO_voting.sol\":10901:10911  msg.sender */\n      caller\n        /* \"bootcamp/week10/day_2_creating_a_DAO_voting.sol\":10886:10912  memberHasVoted[msg.sender] */\n      0xffffffffffffffffffffffffffffffffffffffff\n      and\n      0xffffffffffffffffffffffffffffffffffffffff\n      and\n      dup2\n      mstore\n      0x20\n      add\n      swap1\n      dup2\n      mstore\n      0x20\n      add\n      0x00\n      keccak256\n        /* \"bootcamp/week10/day_2_creating_a_DAO_voting.sol\":10886:10920  memberHasVoted[msg.sender][propID] */\n      0x00\n        /* \"bootcamp/week10/day_2_creating_a_DAO_voting.sol\":10913:10919  propID */\n      dup6\n        /* \"bootcamp/week10/day_2_creating_a_DAO_voting.sol\":10886:10920  memberHasVoted[msg.sender][propID] */\n      dup2\n      mstore\n      0x20\n      add\n      swap1\n      dup2\n      mstore\n      0x20\n      add\n      0x00\n      keccak256\n      0x00\n      swap1\n      sload\n      swap1\n      0x0100\n      exp\n      swap1\n      pop\n      pop\n        /* \"bootcamp/week10/day_2_creating_a_DAO_voting.sol\":10886:10928  memberHasVoted[msg.sender][propID] == true */\n      pop\n        /* \"bootcamp/week10/day_2_creating_a_DAO_voting.sol\":10314:10935  {... */\n      pop\n        /* \"bootcamp/week10/day_2_creating_a_DAO_voting.sol\":10254:10935  function _submitVote(uint256 propID, bool votedFor) private {... */\n      pop\n      pop\n      jump\t// out\n        /* \"bootcamp/week10/day_2_creating_a_DAO_voting.sol\":7693:8661  function _submitProposal(... */\n    tag_76:\n        /* \"bootcamp/week10/day_2_creating_a_DAO_voting.sol\":7856:7879  uint256 votingBeginDate */\n      0x00\n        /* \"bootcamp/week10/day_2_creating_a_DAO_voting.sol\":7900:7912  reviewPeriod */\n      sload(0x03)\n        /* \"bootcamp/week10/day_2_creating_a_DAO_voting.sol\":7882:7897  block.timestamp */\n      timestamp\n        /* \"bootcamp/week10/day_2_creating_a_DAO_voting.sol\":7882:7912  block.timestamp + reviewPeriod */\n      tag_106\n      swap2\n      swap1\n      tag_107\n      jump\t// in\n    tag_106:\n        /* \"bootcamp/week10/day_2_creating_a_DAO_voting.sol\":7856:7912  uint256 votingBeginDate = block.timestamp + reviewPeriod */\n      swap1\n      pop\n        /* \"bootcamp/week10/day_2_creating_a_DAO_voting.sol\":8087:8118  ProposalData memory newProposal */\n      0x00\n        /* \"bootcamp/week10/day_2_creating_a_DAO_voting.sol\":8121:8508  ProposalData ({... */\n      mload(0x40)\n      dup1\n      0x0120\n      add\n      0x40\n      mstore\n      dup1\n        /* \"bootcamp/week10/day_2_creating_a_DAO_voting.sol\":8161:8176  votingBeginDate */\n      dup4\n        /* \"bootcamp/week10/day_2_creating_a_DAO_voting.sol\":8121:8508  ProposalData ({... */\n      dup2\n      mstore\n      0x20\n      add\n        /* \"bootcamp/week10/day_2_creating_a_DAO_voting.sol\":8218:8230  votingPeriod */\n      sload(0x04)\n        /* \"bootcamp/week10/day_2_creating_a_DAO_voting.sol\":8200:8215  votingBeginDate */\n      dup5\n        /* \"bootcamp/week10/day_2_creating_a_DAO_voting.sol\":8200:8230  votingBeginDate + votingPeriod */\n      tag_108\n      swap2\n      swap1\n      tag_107\n      jump\t// in\n    tag_108:\n        /* \"bootcamp/week10/day_2_creating_a_DAO_voting.sol\":8121:8508  ProposalData ({... */\n      dup2\n      mstore\n      0x20\n      add\n        /* \"bootcamp/week10/day_2_creating_a_DAO_voting.sol\":8254:8255  0 */\n      0x00\n        /* \"bootcamp/week10/day_2_creating_a_DAO_voting.sol\":8121:8508  ProposalData ({... */\n      dup2\n      mstore\n      0x20\n      add\n        /* \"bootcamp/week10/day_2_creating_a_DAO_voting.sol\":8283:8284  0 */\n      0x00\n        /* \"bootcamp/week10/day_2_creating_a_DAO_voting.sol\":8121:8508  ProposalData ({... */\n      dup2\n      mstore\n      0x20\n      add\n        /* \"bootcamp/week10/day_2_creating_a_DAO_voting.sol\":8309:8333  ProposalState.Unassigned */\n      0x00\n        /* \"bootcamp/week10/day_2_creating_a_DAO_voting.sol\":8121:8508  ProposalData ({... */\n      0x06\n      dup2\n      gt\n      iszero\n      tag_109\n      jumpi\n      tag_110\n      tag_43\n      jump\t// in\n    tag_110:\n    tag_109:\n      dup2\n      mstore\n      0x20\n      add\n        /* \"bootcamp/week10/day_2_creating_a_DAO_voting.sol\":8357:8365  propType */\n      dup8\n        /* \"bootcamp/week10/day_2_creating_a_DAO_voting.sol\":8121:8508  ProposalData ({... */\n      0x01\n      dup2\n      gt\n      iszero\n      tag_111\n      jumpi\n      tag_112\n      tag_43\n      jump\t// in\n    tag_112:\n    tag_111:\n      dup2\n      mstore\n      0x20\n      add\n        /* \"bootcamp/week10/day_2_creating_a_DAO_voting.sol\":8417:8426  recipient */\n      dup7\n        /* \"bootcamp/week10/day_2_creating_a_DAO_voting.sol\":8121:8508  ProposalData ({... */\n      0xffffffffffffffffffffffffffffffffffffffff\n      and\n      dup2\n      mstore\n      0x20\n      add\n        /* \"bootcamp/week10/day_2_creating_a_DAO_voting.sol\":8450:8456  amount */\n      dup6\n        /* \"bootcamp/week10/day_2_creating_a_DAO_voting.sol\":8121:8508  ProposalData ({... */\n      dup2\n      mstore\n      0x20\n      add\n        /* \"bootcamp/week10/day_2_creating_a_DAO_voting.sol\":8483:8497  newGrantAmount */\n      dup5\n        /* \"bootcamp/week10/day_2_creating_a_DAO_voting.sol\":8121:8508  ProposalData ({... */\n      dup2\n      mstore\n      pop\n        /* \"bootcamp/week10/day_2_creating_a_DAO_voting.sol\":8087:8508  ProposalData memory newProposal = ProposalData ({... */\n      swap1\n      pop\n        /* \"bootcamp/week10/day_2_creating_a_DAO_voting.sol\":8627:8636  proposals */\n      0x00\n        /* \"bootcamp/week10/day_2_creating_a_DAO_voting.sol\":8642:8653  newProposal */\n      dup2\n        /* \"bootcamp/week10/day_2_creating_a_DAO_voting.sol\":8627:8654  proposals.push(newProposal) */\n      swap1\n      dup1\n      0x01\n      dup2\n      sload\n      add\n      dup1\n      dup3\n      sstore\n      dup1\n      swap2\n      pop\n      pop\n      0x01\n      swap1\n      sub\n      swap1\n      0x00\n      mstore\n      keccak256(0x00, 0x20)\n      swap1\n      0x07\n      mul\n      add\n      0x00\n      swap1\n      swap2\n      swap1\n      swap2\n      swap1\n      swap2\n      pop\n      0x00\n      dup3\n      add\n      mload\n      dup2\n      0x00\n      add\n      sstore\n      0x20\n      dup3\n      add\n      mload\n      dup2\n      0x01\n      add\n      sstore\n      0x40\n      dup3\n      add\n      mload\n      dup2\n      0x02\n      add\n      sstore\n      0x60\n      dup3\n      add\n      mload\n      dup2\n      0x03\n      add\n      sstore\n      0x80\n      dup3\n      add\n      mload\n      dup2\n      0x04\n      add\n      exp(0x0100, 0x00)\n      dup2\n      sload\n      dup2\n      0xff\n      mul\n      not\n      and\n      swap1\n      dup4\n      0x06\n      dup2\n      gt\n      iszero\n      tag_114\n      jumpi\n      tag_115\n      tag_43\n      jump\t// in\n    tag_115:\n    tag_114:\n      mul\n      or\n      swap1\n      sstore\n      pop\n      0xa0\n      dup3\n      add\n      mload\n      dup2\n      0x04\n      add\n      exp(0x0100, 0x01)\n      dup2\n      sload\n      dup2\n      0xff\n      mul\n      not\n      and\n      swap1\n      dup4\n      0x01\n      dup2\n      gt\n      iszero\n      tag_116\n      jumpi\n      tag_117\n      tag_43\n      jump\t// in\n    tag_117:\n    tag_116:\n      mul\n      or\n      swap1\n      sstore\n      pop\n      0xc0\n      dup3\n      add\n      mload\n      dup2\n      0x04\n      add\n      exp(0x0100, 0x02)\n      dup2\n      sload\n      dup2\n      0xffffffffffffffffffffffffffffffffffffffff\n      mul\n      not\n      and\n      swap1\n      dup4\n      0xffffffffffffffffffffffffffffffffffffffff\n      and\n      mul\n      or\n      swap1\n      sstore\n      pop\n      0xe0\n      dup3\n      add\n      mload\n      dup2\n      0x05\n      add\n      sstore\n      0x0100\n      dup3\n      add\n      mload\n      dup2\n      0x06\n      add\n      sstore\n      pop\n      pop\n        /* \"bootcamp/week10/day_2_creating_a_DAO_voting.sol\":7846:8661  {... */\n      pop\n      pop\n        /* \"bootcamp/week10/day_2_creating_a_DAO_voting.sol\":7693:8661  function _submitProposal(... */\n      pop\n      pop\n      pop\n      pop\n      jump\t// out\n        /* \"#utility.yul\":88:205   */\n    tag_119:\n        /* \"#utility.yul\":197:198   */\n      0x00\n        /* \"#utility.yul\":194:195   */\n      dup1\n        /* \"#utility.yul\":187:199   */\n      revert\n        /* \"#utility.yul\":334:411   */\n    tag_121:\n        /* \"#utility.yul\":371:378   */\n      0x00\n        /* \"#utility.yul\":400:405   */\n      dup2\n        /* \"#utility.yul\":389:405   */\n      swap1\n      pop\n        /* \"#utility.yul\":334:411   */\n      swap2\n      swap1\n      pop\n      jump\t// out\n        /* \"#utility.yul\":417:539   */\n    tag_122:\n        /* \"#utility.yul\":490:514   */\n      tag_153\n        /* \"#utility.yul\":508:513   */\n      dup2\n        /* \"#utility.yul\":490:514   */\n      tag_121\n      jump\t// in\n    tag_153:\n        /* \"#utility.yul\":483:488   */\n      dup2\n        /* \"#utility.yul\":480:515   */\n      eq\n        /* \"#utility.yul\":470:533   */\n      tag_154\n      jumpi\n        /* \"#utility.yul\":529:530   */\n      0x00\n        /* \"#utility.yul\":526:527   */\n      dup1\n        /* \"#utility.yul\":519:531   */\n      revert\n        /* \"#utility.yul\":470:533   */\n    tag_154:\n        /* \"#utility.yul\":417:539   */\n      pop\n      jump\t// out\n        /* \"#utility.yul\":545:684   */\n    tag_123:\n        /* \"#utility.yul\":591:596   */\n      0x00\n        /* \"#utility.yul\":629:635   */\n      dup2\n        /* \"#utility.yul\":616:636   */\n      calldataload\n        /* \"#utility.yul\":607:636   */\n      swap1\n      pop\n        /* \"#utility.yul\":645:678   */\n      tag_156\n        /* \"#utility.yul\":672:677   */\n      dup2\n        /* \"#utility.yul\":645:678   */\n      tag_122\n      jump\t// in\n    tag_156:\n        /* \"#utility.yul\":545:684   */\n      swap3\n      swap2\n      pop\n      pop\n      jump\t// out\n        /* \"#utility.yul\":690:1019   */\n    tag_13:\n        /* \"#utility.yul\":749:755   */\n      0x00\n        /* \"#utility.yul\":798:800   */\n      0x20\n        /* \"#utility.yul\":786:795   */\n      dup3\n        /* \"#utility.yul\":777:784   */\n      dup5\n        /* \"#utility.yul\":773:796   */\n      sub\n        /* \"#utility.yul\":769:801   */\n      slt\n        /* \"#utility.yul\":766:885   */\n      iszero\n      tag_158\n      jumpi\n        /* \"#utility.yul\":804:883   */\n      tag_159\n      tag_119\n      jump\t// in\n    tag_159:\n        /* \"#utility.yul\":766:885   */\n    tag_158:\n        /* \"#utility.yul\":924:925   */\n      0x00\n        /* \"#utility.yul\":949:1002   */\n      tag_160\n        /* \"#utility.yul\":994:1001   */\n      dup5\n        /* \"#utility.yul\":985:991   */\n      dup3\n        /* \"#utility.yul\":974:983   */\n      dup6\n        /* \"#utility.yul\":970:992   */\n      add\n        /* \"#utility.yul\":949:1002   */\n      tag_123\n      jump\t// in\n    tag_160:\n        /* \"#utility.yul\":939:1002   */\n      swap2\n      pop\n        /* \"#utility.yul\":895:1012   */\n      pop\n        /* \"#utility.yul\":690:1019   */\n      swap3\n      swap2\n      pop\n      pop\n      jump\t// out\n        /* \"#utility.yul\":1025:1205   */\n    tag_43:\n        /* \"#utility.yul\":1073:1150   */\n      0x4e487b7100000000000000000000000000000000000000000000000000000000\n        /* \"#utility.yul\":1070:1071   */\n      0x00\n        /* \"#utility.yul\":1063:1151   */\n      mstore\n        /* \"#utility.yul\":1170:1174   */\n      0x21\n        /* \"#utility.yul\":1167:1168   */\n      0x04\n        /* \"#utility.yul\":1160:1175   */\n      mstore\n        /* \"#utility.yul\":1194:1198   */\n      0x24\n        /* \"#utility.yul\":1191:1192   */\n      0x00\n        /* \"#utility.yul\":1184:1199   */\n      revert\n        /* \"#utility.yul\":1211:1331   */\n    tag_124:\n        /* \"#utility.yul\":1299:1300   */\n      0x07\n        /* \"#utility.yul\":1292:1297   */\n      dup2\n        /* \"#utility.yul\":1289:1301   */\n      lt\n        /* \"#utility.yul\":1279:1325   */\n      tag_163\n      jumpi\n        /* \"#utility.yul\":1305:1323   */\n      tag_164\n      tag_43\n      jump\t// in\n    tag_164:\n        /* \"#utility.yul\":1279:1325   */\n    tag_163:\n        /* \"#utility.yul\":1211:1331   */\n      pop\n      jump\t// out\n        /* \"#utility.yul\":1337:1478   */\n    tag_125:\n        /* \"#utility.yul\":1389:1396   */\n      0x00\n        /* \"#utility.yul\":1418:1423   */\n      dup2\n        /* \"#utility.yul\":1407:1423   */\n      swap1\n      pop\n        /* \"#utility.yul\":1424:1472   */\n      tag_166\n        /* \"#utility.yul\":1466:1471   */\n      dup3\n        /* \"#utility.yul\":1424:1472   */\n      tag_124\n      jump\t// in\n    tag_166:\n        /* \"#utility.yul\":1337:1478   */\n      swap2\n      swap1\n      pop\n      jump\t// out\n        /* \"#utility.yul\":1484:1625   */\n    tag_126:\n        /* \"#utility.yul\":1547:1556   */\n      0x00\n        /* \"#utility.yul\":1580:1619   */\n      tag_168\n        /* \"#utility.yul\":1613:1618   */\n      dup3\n        /* \"#utility.yul\":1580:1619   */\n      tag_125\n      jump\t// in\n    tag_168:\n        /* \"#utility.yul\":1567:1619   */\n      swap1\n      pop\n        /* \"#utility.yul\":1484:1625   */\n      swap2\n      swap1\n      pop\n      jump\t// out\n        /* \"#utility.yul\":1631:1788   */\n    tag_127:\n        /* \"#utility.yul\":1731:1781   */\n      tag_170\n        /* \"#utility.yul\":1775:1780   */\n      dup2\n        /* \"#utility.yul\":1731:1781   */\n      tag_126\n      jump\t// in\n    tag_170:\n        /* \"#utility.yul\":1726:1729   */\n      dup3\n        /* \"#utility.yul\":1719:1782   */\n      mstore\n        /* \"#utility.yul\":1631:1788   */\n      pop\n      pop\n      jump\t// out\n        /* \"#utility.yul\":1794:2042   */\n    tag_19:\n        /* \"#utility.yul\":1900:1904   */\n      0x00\n        /* \"#utility.yul\":1938:1940   */\n      0x20\n        /* \"#utility.yul\":1927:1936   */\n      dup3\n        /* \"#utility.yul\":1923:1941   */\n      add\n        /* \"#utility.yul\":1915:1941   */\n      swap1\n      pop\n        /* \"#utility.yul\":1951:2035   */\n      tag_172\n        /* \"#utility.yul\":2032:2033   */\n      0x00\n        /* \"#utility.yul\":2021:2030   */\n      dup4\n        /* \"#utility.yul\":2017:2034   */\n      add\n        /* \"#utility.yul\":2008:2014   */\n      dup5\n        /* \"#utility.yul\":1951:2035   */\n      tag_127\n      jump\t// in\n    tag_172:\n        /* \"#utility.yul\":1794:2042   */\n      swap3\n      swap2\n      pop\n      pop\n      jump\t// out\n        /* \"#utility.yul\":2048:2174   */\n    tag_128:\n        /* \"#utility.yul\":2085:2092   */\n      0x00\n        /* \"#utility.yul\":2125:2167   */\n      0xffffffffffffffffffffffffffffffffffffffff\n        /* \"#utility.yul\":2118:2123   */\n      dup3\n        /* \"#utility.yul\":2114:2168   */\n      and\n        /* \"#utility.yul\":2103:2168   */\n      swap1\n      pop\n        /* \"#utility.yul\":2048:2174   */\n      swap2\n      swap1\n      pop\n      jump\t// out\n        /* \"#utility.yul\":2180:2276   */\n    tag_129:\n        /* \"#utility.yul\":2217:2224   */\n      0x00\n        /* \"#utility.yul\":2246:2270   */\n      tag_175\n        /* \"#utility.yul\":2264:2269   */\n      dup3\n        /* \"#utility.yul\":2246:2270   */\n      tag_128\n      jump\t// in\n    tag_175:\n        /* \"#utility.yul\":2235:2270   */\n      swap1\n      pop\n        /* \"#utility.yul\":2180:2276   */\n      swap2\n      swap1\n      pop\n      jump\t// out\n        /* \"#utility.yul\":2282:2404   */\n    tag_130:\n        /* \"#utility.yul\":2355:2379   */\n      tag_177\n        /* \"#utility.yul\":2373:2378   */\n      dup2\n        /* \"#utility.yul\":2355:2379   */\n      tag_129\n      jump\t// in\n    tag_177:\n        /* \"#utility.yul\":2348:2353   */\n      dup2\n        /* \"#utility.yul\":2345:2380   */\n      eq\n        /* \"#utility.yul\":2335:2398   */\n      tag_178\n      jumpi\n        /* \"#utility.yul\":2394:2395   */\n      0x00\n        /* \"#utility.yul\":2391:2392   */\n      dup1\n        /* \"#utility.yul\":2384:2396   */\n      revert\n        /* \"#utility.yul\":2335:2398   */\n    tag_178:\n        /* \"#utility.yul\":2282:2404   */\n      pop\n      jump\t// out\n        /* \"#utility.yul\":2410:2549   */\n    tag_131:\n        /* \"#utility.yul\":2456:2461   */\n      0x00\n        /* \"#utility.yul\":2494:2500   */\n      dup2\n        /* \"#utility.yul\":2481:2501   */\n      calldataload\n        /* \"#utility.yul\":2472:2501   */\n      swap1\n      pop\n        /* \"#utility.yul\":2510:2543   */\n      tag_180\n        /* \"#utility.yul\":2537:2542   */\n      dup2\n        /* \"#utility.yul\":2510:2543   */\n      tag_130\n      jump\t// in\n    tag_180:\n        /* \"#utility.yul\":2410:2549   */\n      swap3\n      swap2\n      pop\n      pop\n      jump\t// out\n        /* \"#utility.yul\":2555:3029   */\n    tag_28:\n        /* \"#utility.yul\":2623:2629   */\n      0x00\n        /* \"#utility.yul\":2631:2637   */\n      dup1\n        /* \"#utility.yul\":2680:2682   */\n      0x40\n        /* \"#utility.yul\":2668:2677   */\n      dup4\n        /* \"#utility.yul\":2659:2666   */\n      dup6\n        /* \"#utility.yul\":2655:2678   */\n      sub\n        /* \"#utility.yul\":2651:2683   */\n      slt\n        /* \"#utility.yul\":2648:2767   */\n      iszero\n      tag_182\n      jumpi\n        /* \"#utility.yul\":2686:2765   */\n      tag_183\n      tag_119\n      jump\t// in\n    tag_183:\n        /* \"#utility.yul\":2648:2767   */\n    tag_182:\n        /* \"#utility.yul\":2806:2807   */\n      0x00\n        /* \"#utility.yul\":2831:2884   */\n      tag_184\n        /* \"#utility.yul\":2876:2883   */\n      dup6\n        /* \"#utility.yul\":2867:2873   */\n      dup3\n        /* \"#utility.yul\":2856:2865   */\n      dup7\n        /* \"#utility.yul\":2852:2874   */\n      add\n        /* \"#utility.yul\":2831:2884   */\n      tag_131\n      jump\t// in\n    tag_184:\n        /* \"#utility.yul\":2821:2884   */\n      swap3\n      pop\n        /* \"#utility.yul\":2777:2894   */\n      pop\n        /* \"#utility.yul\":2933:2935   */\n      0x20\n        /* \"#utility.yul\":2959:3012   */\n      tag_185\n        /* \"#utility.yul\":3004:3011   */\n      dup6\n        /* \"#utility.yul\":2995:3001   */\n      dup3\n        /* \"#utility.yul\":2984:2993   */\n      dup7\n        /* \"#utility.yul\":2980:3002   */\n      add\n        /* \"#utility.yul\":2959:3012   */\n      tag_123\n      jump\t// in\n    tag_185:\n        /* \"#utility.yul\":2949:3012   */\n      swap2\n      pop\n        /* \"#utility.yul\":2904:3022   */\n      pop\n        /* \"#utility.yul\":2555:3029   */\n      swap3\n      pop\n      swap3\n      swap1\n      pop\n      jump\t// out\n        /* \"#utility.yul\":3035:3125   */\n    tag_132:\n        /* \"#utility.yul\":3069:3076   */\n      0x00\n        /* \"#utility.yul\":3112:3117   */\n      dup2\n        /* \"#utility.yul\":3105:3118   */\n      iszero\n        /* \"#utility.yul\":3098:3119   */\n      iszero\n        /* \"#utility.yul\":3087:3119   */\n      swap1\n      pop\n        /* \"#utility.yul\":3035:3125   */\n      swap2\n      swap1\n      pop\n      jump\t// out\n        /* \"#utility.yul\":3131:3240   */\n    tag_133:\n        /* \"#utility.yul\":3212:3233   */\n      tag_188\n        /* \"#utility.yul\":3227:3232   */\n      dup2\n        /* \"#utility.yul\":3212:3233   */\n      tag_132\n      jump\t// in\n    tag_188:\n        /* \"#utility.yul\":3207:3210   */\n      dup3\n        /* \"#utility.yul\":3200:3234   */\n      mstore\n        /* \"#utility.yul\":3131:3240   */\n      pop\n      pop\n      jump\t// out\n        /* \"#utility.yul\":3246:3456   */\n    tag_31:\n        /* \"#utility.yul\":3333:3337   */\n      0x00\n        /* \"#utility.yul\":3371:3373   */\n      0x20\n        /* \"#utility.yul\":3360:3369   */\n      dup3\n        /* \"#utility.yul\":3356:3374   */\n      add\n        /* \"#utility.yul\":3348:3374   */\n      swap1\n      pop\n        /* \"#utility.yul\":3384:3449   */\n      tag_190\n        /* \"#utility.yul\":3446:3447   */\n      0x00\n        /* \"#utility.yul\":3435:3444   */\n      dup4\n        /* \"#utility.yul\":3431:3448   */\n      add\n        /* \"#utility.yul\":3422:3428   */\n      dup5\n        /* \"#utility.yul\":3384:3449   */\n      tag_133\n      jump\t// in\n    tag_190:\n        /* \"#utility.yul\":3246:3456   */\n      swap3\n      swap2\n      pop\n      pop\n      jump\t// out\n        /* \"#utility.yul\":3462:3791   */\n    tag_34:\n        /* \"#utility.yul\":3521:3527   */\n      0x00\n        /* \"#utility.yul\":3570:3572   */\n      0x20\n        /* \"#utility.yul\":3558:3567   */\n      dup3\n        /* \"#utility.yul\":3549:3556   */\n      dup5\n        /* \"#utility.yul\":3545:3568   */\n      sub\n        /* \"#utility.yul\":3541:3573   */\n      slt\n        /* \"#utility.yul\":3538:3657   */\n      iszero\n      tag_192\n      jumpi\n        /* \"#utility.yul\":3576:3655   */\n      tag_193\n      tag_119\n      jump\t// in\n    tag_193:\n        /* \"#utility.yul\":3538:3657   */\n    tag_192:\n        /* \"#utility.yul\":3696:3697   */\n      0x00\n        /* \"#utility.yul\":3721:3774   */\n      tag_194\n        /* \"#utility.yul\":3766:3773   */\n      dup5\n        /* \"#utility.yul\":3757:3763   */\n      dup3\n        /* \"#utility.yul\":3746:3755   */\n      dup6\n        /* \"#utility.yul\":3742:3764   */\n      add\n        /* \"#utility.yul\":3721:3774   */\n      tag_131\n      jump\t// in\n    tag_194:\n        /* \"#utility.yul\":3711:3774   */\n      swap2\n      pop\n        /* \"#utility.yul\":3667:3784   */\n      pop\n        /* \"#utility.yul\":3462:3791   */\n      swap3\n      swap2\n      pop\n      pop\n      jump\t// out\n        /* \"#utility.yul\":3797:3915   */\n    tag_134:\n        /* \"#utility.yul\":3884:3908   */\n      tag_196\n        /* \"#utility.yul\":3902:3907   */\n      dup2\n        /* \"#utility.yul\":3884:3908   */\n      tag_121\n      jump\t// in\n    tag_196:\n        /* \"#utility.yul\":3879:3882   */\n      dup3\n        /* \"#utility.yul\":3872:3909   */\n      mstore\n        /* \"#utility.yul\":3797:3915   */\n      pop\n      pop\n      jump\t// out\n        /* \"#utility.yul\":3921:4143   */\n    tag_39:\n        /* \"#utility.yul\":4014:4018   */\n      0x00\n        /* \"#utility.yul\":4052:4054   */\n      0x20\n        /* \"#utility.yul\":4041:4050   */\n      dup3\n        /* \"#utility.yul\":4037:4055   */\n      add\n        /* \"#utility.yul\":4029:4055   */\n      swap1\n      pop\n        /* \"#utility.yul\":4065:4136   */\n      tag_198\n        /* \"#utility.yul\":4133:4134   */\n      0x00\n        /* \"#utility.yul\":4122:4131   */\n      dup4\n        /* \"#utility.yul\":4118:4135   */\n      add\n        /* \"#utility.yul\":4109:4115   */\n      dup5\n        /* \"#utility.yul\":4065:4136   */\n      tag_134\n      jump\t// in\n    tag_198:\n        /* \"#utility.yul\":3921:4143   */\n      swap3\n      swap2\n      pop\n      pop\n      jump\t// out\n        /* \"#utility.yul\":4149:4318   */\n    tag_135:\n        /* \"#utility.yul\":4233:4244   */\n      0x00\n        /* \"#utility.yul\":4267:4273   */\n      dup3\n        /* \"#utility.yul\":4262:4265   */\n      dup3\n        /* \"#utility.yul\":4255:4274   */\n      mstore\n        /* \"#utility.yul\":4307:4311   */\n      0x20\n        /* \"#utility.yul\":4302:4305   */\n      dup3\n        /* \"#utility.yul\":4298:4312   */\n      add\n        /* \"#utility.yul\":4283:4312   */\n      swap1\n      pop\n        /* \"#utility.yul\":4149:4318   */\n      swap3\n      swap2\n      pop\n      pop\n      jump\t// out\n        /* \"#utility.yul\":4324:4491   */\n    tag_136:\n        /* \"#utility.yul\":4464:4483   */\n      0x50726f706f73616c20496e616374697665000000000000000000000000000000\n        /* \"#utility.yul\":4460:4461   */\n      0x00\n        /* \"#utility.yul\":4452:4458   */\n      dup3\n        /* \"#utility.yul\":4448:4462   */\n      add\n        /* \"#utility.yul\":4441:4484   */\n      mstore\n        /* \"#utility.yul\":4324:4491   */\n      pop\n      jump\t// out\n        /* \"#utility.yul\":4497:4863   */\n    tag_137:\n        /* \"#utility.yul\":4639:4642   */\n      0x00\n        /* \"#utility.yul\":4660:4727   */\n      tag_202\n        /* \"#utility.yul\":4724:4726   */\n      0x11\n        /* \"#utility.yul\":4719:4722   */\n      dup4\n        /* \"#utility.yul\":4660:4727   */\n      tag_135\n      jump\t// in\n    tag_202:\n        /* \"#utility.yul\":4653:4727   */\n      swap2\n      pop\n        /* \"#utility.yul\":4736:4829   */\n      tag_203\n        /* \"#utility.yul\":4825:4828   */\n      dup3\n        /* \"#utility.yul\":4736:4829   */\n      tag_136\n      jump\t// in\n    tag_203:\n        /* \"#utility.yul\":4854:4856   */\n      0x20\n        /* \"#utility.yul\":4849:4852   */\n      dup3\n        /* \"#utility.yul\":4845:4857   */\n      add\n        /* \"#utility.yul\":4838:4857   */\n      swap1\n      pop\n        /* \"#utility.yul\":4497:4863   */\n      swap2\n      swap1\n      pop\n      jump\t// out\n        /* \"#utility.yul\":4869:5288   */\n    tag_49:\n        /* \"#utility.yul\":5035:5039   */\n      0x00\n        /* \"#utility.yul\":5073:5075   */\n      0x20\n        /* \"#utility.yul\":5062:5071   */\n      dup3\n        /* \"#utility.yul\":5058:5076   */\n      add\n        /* \"#utility.yul\":5050:5076   */\n      swap1\n      pop\n        /* \"#utility.yul\":5122:5131   */\n      dup2\n        /* \"#utility.yul\":5116:5120   */\n      dup2\n        /* \"#utility.yul\":5112:5132   */\n      sub\n        /* \"#utility.yul\":5108:5109   */\n      0x00\n        /* \"#utility.yul\":5097:5106   */\n      dup4\n        /* \"#utility.yul\":5093:5110   */\n      add\n        /* \"#utility.yul\":5086:5133   */\n      mstore\n        /* \"#utility.yul\":5150:5281   */\n      tag_205\n        /* \"#utility.yul\":5276:5280   */\n      dup2\n        /* \"#utility.yul\":5150:5281   */\n      tag_137\n      jump\t// in\n    tag_205:\n        /* \"#utility.yul\":5142:5281   */\n      swap1\n      pop\n        /* \"#utility.yul\":4869:5288   */\n      swap2\n      swap1\n      pop\n      jump\t// out\n        /* \"#utility.yul\":5294:5464   */\n    tag_138:\n        /* \"#utility.yul\":5434:5456   */\n      0x4d656d62657220616c726561647920766f746564000000000000000000000000\n        /* \"#utility.yul\":5430:5431   */\n      0x00\n        /* \"#utility.yul\":5422:5428   */\n      dup3\n        /* \"#utility.yul\":5418:5432   */\n      add\n        /* \"#utility.yul\":5411:5457   */\n      mstore\n        /* \"#utility.yul\":5294:5464   */\n      pop\n      jump\t// out\n        /* \"#utility.yul\":5470:5836   */\n    tag_139:\n        /* \"#utility.yul\":5612:5615   */\n      0x00\n        /* \"#utility.yul\":5633:5700   */\n      tag_208\n        /* \"#utility.yul\":5697:5699   */\n      0x14\n        /* \"#utility.yul\":5692:5695   */\n      dup4\n        /* \"#utility.yul\":5633:5700   */\n      tag_135\n      jump\t// in\n    tag_208:\n        /* \"#utility.yul\":5626:5700   */\n      swap2\n      pop\n        /* \"#utility.yul\":5709:5802   */\n      tag_209\n        /* \"#utility.yul\":5798:5801   */\n      dup3\n        /* \"#utility.yul\":5709:5802   */\n      tag_138\n      jump\t// in\n    tag_209:\n        /* \"#utility.yul\":5827:5829   */\n      0x20\n        /* \"#utility.yul\":5822:5825   */\n      dup3\n        /* \"#utility.yul\":5818:5830   */\n      add\n        /* \"#utility.yul\":5811:5830   */\n      swap1\n      pop\n        /* \"#utility.yul\":5470:5836   */\n      swap2\n      swap1\n      pop\n      jump\t// out\n        /* \"#utility.yul\":5842:6261   */\n    tag_52:\n        /* \"#utility.yul\":6008:6012   */\n      0x00\n        /* \"#utility.yul\":6046:6048   */\n      0x20\n        /* \"#utility.yul\":6035:6044   */\n      dup3\n        /* \"#utility.yul\":6031:6049   */\n      add\n        /* \"#utility.yul\":6023:6049   */\n      swap1\n      pop\n        /* \"#utility.yul\":6095:6104   */\n      dup2\n        /* \"#utility.yul\":6089:6093   */\n      dup2\n        /* \"#utility.yul\":6085:6105   */\n      sub\n        /* \"#utility.yul\":6081:6082   */\n      0x00\n        /* \"#utility.yul\":6070:6079   */\n      dup4\n        /* \"#utility.yul\":6066:6083   */\n      add\n        /* \"#utility.yul\":6059:6106   */\n      mstore\n        /* \"#utility.yul\":6123:6254   */\n      tag_211\n        /* \"#utility.yul\":6249:6253   */\n      dup2\n        /* \"#utility.yul\":6123:6254   */\n      tag_139\n      jump\t// in\n    tag_211:\n        /* \"#utility.yul\":6115:6254   */\n      swap1\n      pop\n        /* \"#utility.yul\":5842:6261   */\n      swap2\n      swap1\n      pop\n      jump\t// out\n        /* \"#utility.yul\":6267:6447   */\n    tag_59:\n        /* \"#utility.yul\":6315:6392   */\n      0x4e487b7100000000000000000000000000000000000000000000000000000000\n        /* \"#utility.yul\":6312:6313   */\n      0x00\n        /* \"#utility.yul\":6305:6393   */\n      mstore\n        /* \"#utility.yul\":6412:6416   */\n      0x32\n        /* \"#utility.yul\":6409:6410   */\n      0x04\n        /* \"#utility.yul\":6402:6417   */\n      mstore\n        /* \"#utility.yul\":6436:6440   */\n      0x24\n        /* \"#utility.yul\":6433:6434   */\n      0x00\n        /* \"#utility.yul\":6426:6441   */\n      revert\n        /* \"#utility.yul\":6453:6613   */\n    tag_140:\n        /* \"#utility.yul\":6593:6605   */\n      0x496e76616c696420494400000000000000000000000000000000000000000000\n        /* \"#utility.yul\":6589:6590   */\n      0x00\n        /* \"#utility.yul\":6581:6587   */\n      dup3\n        /* \"#utility.yul\":6577:6591   */\n      add\n        /* \"#utility.yul\":6570:6606   */\n      mstore\n        /* \"#utility.yul\":6453:6613   */\n      pop\n      jump\t// out\n        /* \"#utility.yul\":6619:6985   */\n    tag_141:\n        /* \"#utility.yul\":6761:6764   */\n      0x00\n        /* \"#utility.yul\":6782:6849   */\n      tag_215\n        /* \"#utility.yul\":6846:6848   */\n      0x0a\n        /* \"#utility.yul\":6841:6844   */\n      dup4\n        /* \"#utility.yul\":6782:6849   */\n      tag_135\n      jump\t// in\n    tag_215:\n        /* \"#utility.yul\":6775:6849   */\n      swap2\n      pop\n        /* \"#utility.yul\":6858:6951   */\n      tag_216\n        /* \"#utility.yul\":6947:6950   */\n      dup3\n        /* \"#utility.yul\":6858:6951   */\n      tag_140\n      jump\t// in\n    tag_216:\n        /* \"#utility.yul\":6976:6978   */\n      0x20\n        /* \"#utility.yul\":6971:6974   */\n      dup3\n        /* \"#utility.yul\":6967:6979   */\n      add\n        /* \"#utility.yul\":6960:6979   */\n      swap1\n      pop\n        /* \"#utility.yul\":6619:6985   */\n      swap2\n      swap1\n      pop\n      jump\t// out\n        /* \"#utility.yul\":6991:7410   */\n    tag_68:\n        /* \"#utility.yul\":7157:7161   */\n      0x00\n        /* \"#utility.yul\":7195:7197   */\n      0x20\n        /* \"#utility.yul\":7184:7193   */\n      dup3\n        /* \"#utility.yul\":7180:7198   */\n      add\n        /* \"#utility.yul\":7172:7198   */\n      swap1\n      pop\n        /* \"#utility.yul\":7244:7253   */\n      dup2\n        /* \"#utility.yul\":7238:7242   */\n      dup2\n        /* \"#utility.yul\":7234:7254   */\n      sub\n        /* \"#utility.yul\":7230:7231   */\n      0x00\n        /* \"#utility.yul\":7219:7228   */\n      dup4\n        /* \"#utility.yul\":7215:7232   */\n      add\n        /* \"#utility.yul\":7208:7255   */\n      mstore\n        /* \"#utility.yul\":7272:7403   */\n      tag_218\n        /* \"#utility.yul\":7398:7402   */\n      dup2\n        /* \"#utility.yul\":7272:7403   */\n      tag_141\n      jump\t// in\n    tag_218:\n        /* \"#utility.yul\":7264:7403   */\n      swap1\n      pop\n        /* \"#utility.yul\":6991:7410   */\n      swap2\n      swap1\n      pop\n      jump\t// out\n        /* \"#utility.yul\":7416:7580   */\n    tag_142:\n        /* \"#utility.yul\":7556:7572   */\n      0x496e76616c696420616d6f756e74000000000000000000000000000000000000\n        /* \"#utility.yul\":7552:7553   */\n      0x00\n        /* \"#utility.yul\":7544:7550   */\n      dup3\n        /* \"#utility.yul\":7540:7554   */\n      add\n        /* \"#utility.yul\":7533:7573   */\n      mstore\n        /* \"#utility.yul\":7416:7580   */\n      pop\n      jump\t// out\n        /* \"#utility.yul\":7586:7952   */\n    tag_143:\n        /* \"#utility.yul\":7728:7731   */\n      0x00\n        /* \"#utility.yul\":7749:7816   */\n      tag_221\n        /* \"#utility.yul\":7813:7815   */\n      0x0e\n        /* \"#utility.yul\":7808:7811   */\n      dup4\n        /* \"#utility.yul\":7749:7816   */\n      tag_135\n      jump\t// in\n    tag_221:\n        /* \"#utility.yul\":7742:7816   */\n      swap2\n      pop\n        /* \"#utility.yul\":7825:7918   */\n      tag_222\n        /* \"#utility.yul\":7914:7917   */\n      dup3\n        /* \"#utility.yul\":7825:7918   */\n      tag_142\n      jump\t// in\n    tag_222:\n        /* \"#utility.yul\":7943:7945   */\n      0x20\n        /* \"#utility.yul\":7938:7941   */\n      dup3\n        /* \"#utility.yul\":7934:7946   */\n      add\n        /* \"#utility.yul\":7927:7946   */\n      swap1\n      pop\n        /* \"#utility.yul\":7586:7952   */\n      swap2\n      swap1\n      pop\n      jump\t// out\n        /* \"#utility.yul\":7958:8377   */\n    tag_74:\n        /* \"#utility.yul\":8124:8128   */\n      0x00\n        /* \"#utility.yul\":8162:8164   */\n      0x20\n        /* \"#utility.yul\":8151:8160   */\n      dup3\n        /* \"#utility.yul\":8147:8165   */\n      add\n        /* \"#utility.yul\":8139:8165   */\n      swap1\n      pop\n        /* \"#utility.yul\":8211:8220   */\n      dup2\n        /* \"#utility.yul\":8205:8209   */\n      dup2\n        /* \"#utility.yul\":8201:8221   */\n      sub\n        /* \"#utility.yul\":8197:8198   */\n      0x00\n        /* \"#utility.yul\":8186:8195   */\n      dup4\n        /* \"#utility.yul\":8182:8199   */\n      add\n        /* \"#utility.yul\":8175:8222   */\n      mstore\n        /* \"#utility.yul\":8239:8370   */\n      tag_224\n        /* \"#utility.yul\":8365:8369   */\n      dup2\n        /* \"#utility.yul\":8239:8370   */\n      tag_143\n      jump\t// in\n    tag_224:\n        /* \"#utility.yul\":8231:8370   */\n      swap1\n      pop\n        /* \"#utility.yul\":7958:8377   */\n      swap2\n      swap1\n      pop\n      jump\t// out\n        /* \"#utility.yul\":8383:8548   */\n    tag_144:\n        /* \"#utility.yul\":8523:8540   */\n      0x496e737566696369656e74204554480000000000000000000000000000000000\n        /* \"#utility.yul\":8519:8520   */\n      0x00\n        /* \"#utility.yul\":8511:8517   */\n      dup3\n        /* \"#utility.yul\":8507:8521   */\n      add\n        /* \"#utility.yul\":8500:8541   */\n      mstore\n        /* \"#utility.yul\":8383:8548   */\n      pop\n      jump\t// out\n        /* \"#utility.yul\":8554:8920   */\n    tag_145:\n        /* \"#utility.yul\":8696:8699   */\n      0x00\n        /* \"#utility.yul\":8717:8784   */\n      tag_227\n        /* \"#utility.yul\":8781:8783   */\n      0x0f\n        /* \"#utility.yul\":8776:8779   */\n      dup4\n        /* \"#utility.yul\":8717:8784   */\n      tag_135\n      jump\t// in\n    tag_227:\n        /* \"#utility.yul\":8710:8784   */\n      swap2\n      pop\n        /* \"#utility.yul\":8793:8886   */\n      tag_228\n        /* \"#utility.yul\":8882:8885   */\n      dup3\n        /* \"#utility.yul\":8793:8886   */\n      tag_144\n      jump\t// in\n    tag_228:\n        /* \"#utility.yul\":8911:8913   */\n      0x20\n        /* \"#utility.yul\":8906:8909   */\n      dup3\n        /* \"#utility.yul\":8902:8914   */\n      add\n        /* \"#utility.yul\":8895:8914   */\n      swap1\n      pop\n        /* \"#utility.yul\":8554:8920   */\n      swap2\n      swap1\n      pop\n      jump\t// out\n        /* \"#utility.yul\":8926:9345   */\n    tag_92:\n        /* \"#utility.yul\":9092:9096   */\n      0x00\n        /* \"#utility.yul\":9130:9132   */\n      0x20\n        /* \"#utility.yul\":9119:9128   */\n      dup3\n        /* \"#utility.yul\":9115:9133   */\n      add\n        /* \"#utility.yul\":9107:9133   */\n      swap1\n      pop\n        /* \"#utility.yul\":9179:9188   */\n      dup2\n        /* \"#utility.yul\":9173:9177   */\n      dup2\n        /* \"#utility.yul\":9169:9189   */\n      sub\n        /* \"#utility.yul\":9165:9166   */\n      0x00\n        /* \"#utility.yul\":9154:9163   */\n      dup4\n        /* \"#utility.yul\":9150:9167   */\n      add\n        /* \"#utility.yul\":9143:9190   */\n      mstore\n        /* \"#utility.yul\":9207:9338   */\n      tag_230\n        /* \"#utility.yul\":9333:9337   */\n      dup2\n        /* \"#utility.yul\":9207:9338   */\n      tag_145\n      jump\t// in\n    tag_230:\n        /* \"#utility.yul\":9199:9338   */\n      swap1\n      pop\n        /* \"#utility.yul\":8926:9345   */\n      swap2\n      swap1\n      pop\n      jump\t// out\n        /* \"#utility.yul\":9351:9531   */\n    tag_146:\n        /* \"#utility.yul\":9399:9476   */\n      0x4e487b7100000000000000000000000000000000000000000000000000000000\n        /* \"#utility.yul\":9396:9397   */\n      0x00\n        /* \"#utility.yul\":9389:9477   */\n      mstore\n        /* \"#utility.yul\":9496:9500   */\n      0x11\n        /* \"#utility.yul\":9493:9494   */\n      0x04\n        /* \"#utility.yul\":9486:9501   */\n      mstore\n        /* \"#utility.yul\":9520:9524   */\n      0x24\n        /* \"#utility.yul\":9517:9518   */\n      0x00\n        /* \"#utility.yul\":9510:9525   */\n      revert\n        /* \"#utility.yul\":9537:9731   */\n    tag_94:\n        /* \"#utility.yul\":9577:9581   */\n      0x00\n        /* \"#utility.yul\":9597:9617   */\n      tag_233\n        /* \"#utility.yul\":9615:9616   */\n      dup3\n        /* \"#utility.yul\":9597:9617   */\n      tag_121\n      jump\t// in\n    tag_233:\n        /* \"#utility.yul\":9592:9617   */\n      swap2\n      pop\n        /* \"#utility.yul\":9631:9651   */\n      tag_234\n        /* \"#utility.yul\":9649:9650   */\n      dup4\n        /* \"#utility.yul\":9631:9651   */\n      tag_121\n      jump\t// in\n    tag_234:\n        /* \"#utility.yul\":9626:9651   */\n      swap3\n      pop\n        /* \"#utility.yul\":9675:9676   */\n      dup3\n        /* \"#utility.yul\":9672:9673   */\n      dup3\n        /* \"#utility.yul\":9668:9677   */\n      sub\n        /* \"#utility.yul\":9660:9677   */\n      swap1\n      pop\n        /* \"#utility.yul\":9699:9700   */\n      dup2\n        /* \"#utility.yul\":9693:9697   */\n      dup2\n        /* \"#utility.yul\":9690:9701   */\n      gt\n        /* \"#utility.yul\":9687:9724   */\n      iszero\n      tag_235\n      jumpi\n        /* \"#utility.yul\":9704:9722   */\n      tag_236\n      tag_146\n      jump\t// in\n    tag_236:\n        /* \"#utility.yul\":9687:9724   */\n    tag_235:\n        /* \"#utility.yul\":9537:9731   */\n      swap3\n      swap2\n      pop\n      pop\n      jump\t// out\n        /* \"#utility.yul\":9737:9970   */\n    tag_102:\n        /* \"#utility.yul\":9776:9779   */\n      0x00\n        /* \"#utility.yul\":9799:9823   */\n      tag_238\n        /* \"#utility.yul\":9817:9822   */\n      dup3\n        /* \"#utility.yul\":9799:9823   */\n      tag_121\n      jump\t// in\n    tag_238:\n        /* \"#utility.yul\":9790:9823   */\n      swap2\n      pop\n        /* \"#utility.yul\":9845:9911   */\n      0xffffffffffffffffffffffffffffffffffffffffffffffffffffffffffffffff\n        /* \"#utility.yul\":9838:9843   */\n      dup3\n        /* \"#utility.yul\":9835:9912   */\n      sub\n        /* \"#utility.yul\":9832:9935   */\n      tag_239\n      jumpi\n        /* \"#utility.yul\":9915:9933   */\n      tag_240\n      tag_146\n      jump\t// in\n    tag_240:\n        /* \"#utility.yul\":9832:9935   */\n    tag_239:\n        /* \"#utility.yul\":9962:9963   */\n      0x01\n        /* \"#utility.yul\":9955:9960   */\n      dup3\n        /* \"#utility.yul\":9951:9964   */\n      add\n        /* \"#utility.yul\":9944:9964   */\n      swap1\n      pop\n        /* \"#utility.yul\":9737:9970   */\n      swap2\n      swap1\n      pop\n      jump\t// out\n        /* \"#utility.yul\":9976:10167   */\n    tag_107:\n        /* \"#utility.yul\":10016:10019   */\n      0x00\n        /* \"#utility.yul\":10035:10055   */\n      tag_242\n        /* \"#utility.yul\":10053:10054   */\n      dup3\n        /* \"#utility.yul\":10035:10055   */\n      tag_121\n      jump\t// in\n    tag_242:\n        /* \"#utility.yul\":10030:10055   */\n      swap2\n      pop\n        /* \"#utility.yul\":10069:10089   */\n      tag_243\n        /* \"#utility.yul\":10087:10088   */\n      dup4\n        /* \"#utility.yul\":10069:10089   */\n      tag_121\n      jump\t// in\n    tag_243:\n        /* \"#utility.yul\":10064:10089   */\n      swap3\n      pop\n        /* \"#utility.yul\":10112:10113   */\n      dup3\n        /* \"#utility.yul\":10109:10110   */\n      dup3\n        /* \"#utility.yul\":10105:10114   */\n      add\n        /* \"#utility.yul\":10098:10114   */\n      swap1\n      pop\n        /* \"#utility.yul\":10133:10136   */\n      dup1\n        /* \"#utility.yul\":10130:10131   */\n      dup3\n        /* \"#utility.yul\":10127:10137   */\n      gt\n        /* \"#utility.yul\":10124:10160   */\n      iszero\n      tag_244\n      jumpi\n        /* \"#utility.yul\":10140:10158   */\n      tag_245\n      tag_146\n      jump\t// in\n    tag_245:\n        /* \"#utility.yul\":10124:10160   */\n    tag_244:\n        /* \"#utility.yul\":9976:10167   */\n      swap3\n      swap2\n      pop\n      pop\n      jump\t// out\n\n    auxdata: 0xa2646970667358221220495fab053b7fe61a6a7a51bf1352954ec6e0b6cffe50978df1c5600b74f86e0964736f6c63430008110033\n}\n",
				"bytecode": {
					"linkReferences": {},
					"object": "60806040526005600155601e600355603c600455670de0b6b3a764000060055534600681905550610dce806100356000396000f3fe608060405234801561001057600080fd5b506004361061007d5760003560e01c806386a505351161005b57806386a50535146100ea578063a220e64a14610106578063cf34fa2a14610136578063fb6ff161146101525761007d565b806323b4a998146100825780633e4f49e61461009e5780637325d4cc146100ce575b600080fd5b61009c60048036038101906100979190610873565b610170565b005b6100b860048036038101906100b39190610873565b610293565b6040516100c59190610917565b60405180910390f35b6100e860048036038101906100e39190610873565b610390565b005b61010460048036038101906100ff9190610873565b6103e4565b005b610120600480360381019061011b9190610990565b610507565b60405161012d91906109eb565b60405180910390f35b610150600480360381019061014b9190610a06565b610536565b005b61015a6105ad565b6040516101679190610a42565b60405180910390f35b8060026006811115610185576101846108a0565b5b61018e82610293565b60068111156101a05761019f6108a0565b5b146101e0576040517f08c379a00000000000000000000000000000000000000000000000000000000081526004016101d790610aba565b60405180910390fd5b60001515600260003373ffffffffffffffffffffffffffffffffffffffff1673ffffffffffffffffffffffffffffffffffffffff168152602001908152602001600020600083815260200190815260200160002060009054906101000a900460ff16151514610284576040517f08c379a000000000000000000000000000000000000000000000000000000000815260040161027b90610b26565b60405180910390fd5b61028f8260006105b3565b5050565b600080600083815481106102aa576102a9610b46565b5b9060005260206000209060070201905060008160040160009054906101000a900460ff169050600060068111156102e4576102e36108a0565b5b8160068111156102f7576102f66108a0565b5b1461030657809250505061038b565b60008260000154905060008103610352576040517f08c379a000000000000000000000000000000000000000000000000000000000815260040161034990610bc1565b60405180910390fd5b428110610365576001935050505061038b565b60008360010154905042811061038257600294505050505061038b565b60039450505050505b919050565b600081116103d3576040517f08c379a00000000000000000000000000000000000000000000000000000000081526004016103ca90610c2d565b60405180910390fd5b6103e160008060008461067e565b50565b80600260068111156103f9576103f86108a0565b5b61040282610293565b6006811115610414576104136108a0565b5b14610454576040517f08c379a000000000000000000000000000000000000000000000000000000000815260040161044b90610aba565b60405180910390fd5b60001515600260003373ffffffffffffffffffffffffffffffffffffffff1673ffffffffffffffffffffffffffffffffffffffff168152602001908152602001600020600083815260200190815260200160002060009054906101000a900460ff161515146104f8576040517f08c379a00000000000000000000000000000000000000000000000000000000081526004016104ef90610b26565b60405180910390fd5b6105038260016105b3565b5050565b60026020528160005260406000206020528060005260406000206000915091509054906101000a900460ff1681565b60006005549050806006541015610582576040517f08c379a000000000000000000000000000000000000000000000000000000000815260040161057990610c99565b60405180910390fd5b80600660008282546105949190610ce8565b925050819055506105a960008383600061067e565b5050565b60065481565b60008083815481106105c8576105c7610b46565b5b9060005260206000209060070201905081156105fd578060020160008154809291906105f390610d1c565b9190505550610618565b80600301600081548092919061061290610d1c565b91905055505b60011515600260003373ffffffffffffffffffffffffffffffffffffffff1673ffffffffffffffffffffffffffffffffffffffff168152602001908152602001600020600085815260200190815260200160002060009054906101000a90505050505050565b60006003544261068e9190610d64565b90506000604051806101200160405280838152602001600454846106b29190610d64565b81526020016000815260200160008152602001600060068111156106d9576106d86108a0565b5b81526020018760018111156106f1576106f06108a0565b5b81526020018673ffffffffffffffffffffffffffffffffffffffff16815260200185815260200184815250905060008190806001815401808255809150506001900390600052602060002090600702016000909190919091506000820151816000015560208201518160010155604082015181600201556060820151816003015560808201518160040160006101000a81548160ff0219169083600681111561079d5761079c6108a0565b5b021790555060a08201518160040160016101000a81548160ff021916908360018111156107cd576107cc6108a0565b5b021790555060c08201518160040160026101000a81548173ffffffffffffffffffffffffffffffffffffffff021916908373ffffffffffffffffffffffffffffffffffffffff16021790555060e0820151816005015561010082015181600601555050505050505050565b600080fd5b6000819050919050565b6108508161083d565b811461085b57600080fd5b50565b60008135905061086d81610847565b92915050565b60006020828403121561088957610888610838565b5b60006108978482850161085e565b91505092915050565b7f4e487b7100000000000000000000000000000000000000000000000000000000600052602160045260246000fd5b600781106108e0576108df6108a0565b5b50565b60008190506108f1826108cf565b919050565b6000610901826108e3565b9050919050565b610911816108f6565b82525050565b600060208201905061092c6000830184610908565b92915050565b600073ffffffffffffffffffffffffffffffffffffffff82169050919050565b600061095d82610932565b9050919050565b61096d81610952565b811461097857600080fd5b50565b60008135905061098a81610964565b92915050565b600080604083850312156109a7576109a6610838565b5b60006109b58582860161097b565b92505060206109c68582860161085e565b9150509250929050565b60008115159050919050565b6109e5816109d0565b82525050565b6000602082019050610a0060008301846109dc565b92915050565b600060208284031215610a1c57610a1b610838565b5b6000610a2a8482850161097b565b91505092915050565b610a3c8161083d565b82525050565b6000602082019050610a576000830184610a33565b92915050565b600082825260208201905092915050565b7f50726f706f73616c20496e616374697665000000000000000000000000000000600082015250565b6000610aa4601183610a5d565b9150610aaf82610a6e565b602082019050919050565b60006020820190508181036000830152610ad381610a97565b9050919050565b7f4d656d62657220616c726561647920766f746564000000000000000000000000600082015250565b6000610b10601483610a5d565b9150610b1b82610ada565b602082019050919050565b60006020820190508181036000830152610b3f81610b03565b9050919050565b7f4e487b7100000000000000000000000000000000000000000000000000000000600052603260045260246000fd5b7f496e76616c696420494400000000000000000000000000000000000000000000600082015250565b6000610bab600a83610a5d565b9150610bb682610b75565b602082019050919050565b60006020820190508181036000830152610bda81610b9e565b9050919050565b7f496e76616c696420616d6f756e74000000000000000000000000000000000000600082015250565b6000610c17600e83610a5d565b9150610c2282610be1565b602082019050919050565b60006020820190508181036000830152610c4681610c0a565b9050919050565b7f496e737566696369656e74204554480000000000000000000000000000000000600082015250565b6000610c83600f83610a5d565b9150610c8e82610c4d565b602082019050919050565b60006020820190508181036000830152610cb281610c76565b9050919050565b7f4e487b7100000000000000000000000000000000000000000000000000000000600052601160045260246000fd5b6000610cf38261083d565b9150610cfe8361083d565b9250828203905081811115610d1657610d15610cb9565b5b92915050565b6000610d278261083d565b91507fffffffffffffffffffffffffffffffffffffffffffffffffffffffffffffffff8203610d5957610d58610cb9565b5b600182019050919050565b6000610d6f8261083d565b9150610d7a8361083d565b9250828201905080821115610d9257610d91610cb9565b5b9291505056fea2646970667358221220495fab053b7fe61a6a7a51bf1352954ec6e0b6cffe50978df1c5600b74f86e0964736f6c63430008110033",
					"opcodes": "PUSH1 0x80 PUSH1 0x40 MSTORE PUSH1 0x5 PUSH1 0x1 SSTORE PUSH1 0x1E PUSH1 0x3 SSTORE PUSH1 0x3C PUSH1 0x4 SSTORE PUSH8 0xDE0B6B3A7640000 PUSH1 0x5 SSTORE CALLVALUE PUSH1 0x6 DUP2 SWAP1 SSTORE POP PUSH2 0xDCE DUP1 PUSH2 0x35 PUSH1 0x0 CODECOPY PUSH1 0x0 RETURN INVALID PUSH1 0x80 PUSH1 0x40 MSTORE CALLVALUE DUP1 ISZERO PUSH2 0x10 JUMPI PUSH1 0x0 DUP1 REVERT JUMPDEST POP PUSH1 0x4 CALLDATASIZE LT PUSH2 0x7D JUMPI PUSH1 0x0 CALLDATALOAD PUSH1 0xE0 SHR DUP1 PUSH4 0x86A50535 GT PUSH2 0x5B JUMPI DUP1 PUSH4 0x86A50535 EQ PUSH2 0xEA JUMPI DUP1 PUSH4 0xA220E64A EQ PUSH2 0x106 JUMPI DUP1 PUSH4 0xCF34FA2A EQ PUSH2 0x136 JUMPI DUP1 PUSH4 0xFB6FF161 EQ PUSH2 0x152 JUMPI PUSH2 0x7D JUMP JUMPDEST DUP1 PUSH4 0x23B4A998 EQ PUSH2 0x82 JUMPI DUP1 PUSH4 0x3E4F49E6 EQ PUSH2 0x9E JUMPI DUP1 PUSH4 0x7325D4CC EQ PUSH2 0xCE JUMPI JUMPDEST PUSH1 0x0 DUP1 REVERT JUMPDEST PUSH2 0x9C PUSH1 0x4 DUP1 CALLDATASIZE SUB DUP2 ADD SWAP1 PUSH2 0x97 SWAP2 SWAP1 PUSH2 0x873 JUMP JUMPDEST PUSH2 0x170 JUMP JUMPDEST STOP JUMPDEST PUSH2 0xB8 PUSH1 0x4 DUP1 CALLDATASIZE SUB DUP2 ADD SWAP1 PUSH2 0xB3 SWAP2 SWAP1 PUSH2 0x873 JUMP JUMPDEST PUSH2 0x293 JUMP JUMPDEST PUSH1 0x40 MLOAD PUSH2 0xC5 SWAP2 SWAP1 PUSH2 0x917 JUMP JUMPDEST PUSH1 0x40 MLOAD DUP1 SWAP2 SUB SWAP1 RETURN JUMPDEST PUSH2 0xE8 PUSH1 0x4 DUP1 CALLDATASIZE SUB DUP2 ADD SWAP1 PUSH2 0xE3 SWAP2 SWAP1 PUSH2 0x873 JUMP JUMPDEST PUSH2 0x390 JUMP JUMPDEST STOP JUMPDEST PUSH2 0x104 PUSH1 0x4 DUP1 CALLDATASIZE SUB DUP2 ADD SWAP1 PUSH2 0xFF SWAP2 SWAP1 PUSH2 0x873 JUMP JUMPDEST PUSH2 0x3E4 JUMP JUMPDEST STOP JUMPDEST PUSH2 0x120 PUSH1 0x4 DUP1 CALLDATASIZE SUB DUP2 ADD SWAP1 PUSH2 0x11B SWAP2 SWAP1 PUSH2 0x990 JUMP JUMPDEST PUSH2 0x507 JUMP JUMPDEST PUSH1 0x40 MLOAD PUSH2 0x12D SWAP2 SWAP1 PUSH2 0x9EB JUMP JUMPDEST PUSH1 0x40 MLOAD DUP1 SWAP2 SUB SWAP1 RETURN JUMPDEST PUSH2 0x150 PUSH1 0x4 DUP1 CALLDATASIZE SUB DUP2 ADD SWAP1 PUSH2 0x14B SWAP2 SWAP1 PUSH2 0xA06 JUMP JUMPDEST PUSH2 0x536 JUMP JUMPDEST STOP JUMPDEST PUSH2 0x15A PUSH2 0x5AD JUMP JUMPDEST PUSH1 0x40 MLOAD PUSH2 0x167 SWAP2 SWAP1 PUSH2 0xA42 JUMP JUMPDEST PUSH1 0x40 MLOAD DUP1 SWAP2 SUB SWAP1 RETURN JUMPDEST DUP1 PUSH1 0x2 PUSH1 0x6 DUP2 GT ISZERO PUSH2 0x185 JUMPI PUSH2 0x184 PUSH2 0x8A0 JUMP JUMPDEST JUMPDEST PUSH2 0x18E DUP3 PUSH2 0x293 JUMP JUMPDEST PUSH1 0x6 DUP2 GT ISZERO PUSH2 0x1A0 JUMPI PUSH2 0x19F PUSH2 0x8A0 JUMP JUMPDEST JUMPDEST EQ PUSH2 0x1E0 JUMPI PUSH1 0x40 MLOAD PUSH32 0x8C379A000000000000000000000000000000000000000000000000000000000 DUP2 MSTORE PUSH1 0x4 ADD PUSH2 0x1D7 SWAP1 PUSH2 0xABA JUMP JUMPDEST PUSH1 0x40 MLOAD DUP1 SWAP2 SUB SWAP1 REVERT JUMPDEST PUSH1 0x0 ISZERO ISZERO PUSH1 0x2 PUSH1 0x0 CALLER PUSH20 0xFFFFFFFFFFFFFFFFFFFFFFFFFFFFFFFFFFFFFFFF AND PUSH20 0xFFFFFFFFFFFFFFFFFFFFFFFFFFFFFFFFFFFFFFFF AND DUP2 MSTORE PUSH1 0x20 ADD SWAP1 DUP2 MSTORE PUSH1 0x20 ADD PUSH1 0x0 KECCAK256 PUSH1 0x0 DUP4 DUP2 MSTORE PUSH1 0x20 ADD SWAP1 DUP2 MSTORE PUSH1 0x20 ADD PUSH1 0x0 KECCAK256 PUSH1 0x0 SWAP1 SLOAD SWAP1 PUSH2 0x100 EXP SWAP1 DIV PUSH1 0xFF AND ISZERO ISZERO EQ PUSH2 0x284 JUMPI PUSH1 0x40 MLOAD PUSH32 0x8C379A000000000000000000000000000000000000000000000000000000000 DUP2 MSTORE PUSH1 0x4 ADD PUSH2 0x27B SWAP1 PUSH2 0xB26 JUMP JUMPDEST PUSH1 0x40 MLOAD DUP1 SWAP2 SUB SWAP1 REVERT JUMPDEST PUSH2 0x28F DUP3 PUSH1 0x0 PUSH2 0x5B3 JUMP JUMPDEST POP POP JUMP JUMPDEST PUSH1 0x0 DUP1 PUSH1 0x0 DUP4 DUP2 SLOAD DUP2 LT PUSH2 0x2AA JUMPI PUSH2 0x2A9 PUSH2 0xB46 JUMP JUMPDEST JUMPDEST SWAP1 PUSH1 0x0 MSTORE PUSH1 0x20 PUSH1 0x0 KECCAK256 SWAP1 PUSH1 0x7 MUL ADD SWAP1 POP PUSH1 0x0 DUP2 PUSH1 0x4 ADD PUSH1 0x0 SWAP1 SLOAD SWAP1 PUSH2 0x100 EXP SWAP1 DIV PUSH1 0xFF AND SWAP1 POP PUSH1 0x0 PUSH1 0x6 DUP2 GT ISZERO PUSH2 0x2E4 JUMPI PUSH2 0x2E3 PUSH2 0x8A0 JUMP JUMPDEST JUMPDEST DUP2 PUSH1 0x6 DUP2 GT ISZERO PUSH2 0x2F7 JUMPI PUSH2 0x2F6 PUSH2 0x8A0 JUMP JUMPDEST JUMPDEST EQ PUSH2 0x306 JUMPI DUP1 SWAP3 POP POP POP PUSH2 0x38B JUMP JUMPDEST PUSH1 0x0 DUP3 PUSH1 0x0 ADD SLOAD SWAP1 POP PUSH1 0x0 DUP2 SUB PUSH2 0x352 JUMPI PUSH1 0x40 MLOAD PUSH32 0x8C379A000000000000000000000000000000000000000000000000000000000 DUP2 MSTORE PUSH1 0x4 ADD PUSH2 0x349 SWAP1 PUSH2 0xBC1 JUMP JUMPDEST PUSH1 0x40 MLOAD DUP1 SWAP2 SUB SWAP1 REVERT JUMPDEST TIMESTAMP DUP2 LT PUSH2 0x365 JUMPI PUSH1 0x1 SWAP4 POP POP POP POP PUSH2 0x38B JUMP JUMPDEST PUSH1 0x0 DUP4 PUSH1 0x1 ADD SLOAD SWAP1 POP TIMESTAMP DUP2 LT PUSH2 0x382 JUMPI PUSH1 0x2 SWAP5 POP POP POP POP POP PUSH2 0x38B JUMP JUMPDEST PUSH1 0x3 SWAP5 POP POP POP POP POP JUMPDEST SWAP2 SWAP1 POP JUMP JUMPDEST PUSH1 0x0 DUP2 GT PUSH2 0x3D3 JUMPI PUSH1 0x40 MLOAD PUSH32 0x8C379A000000000000000000000000000000000000000000000000000000000 DUP2 MSTORE PUSH1 0x4 ADD PUSH2 0x3CA SWAP1 PUSH2 0xC2D JUMP JUMPDEST PUSH1 0x40 MLOAD DUP1 SWAP2 SUB SWAP1 REVERT JUMPDEST PUSH2 0x3E1 PUSH1 0x0 DUP1 PUSH1 0x0 DUP5 PUSH2 0x67E JUMP JUMPDEST POP JUMP JUMPDEST DUP1 PUSH1 0x2 PUSH1 0x6 DUP2 GT ISZERO PUSH2 0x3F9 JUMPI PUSH2 0x3F8 PUSH2 0x8A0 JUMP JUMPDEST JUMPDEST PUSH2 0x402 DUP3 PUSH2 0x293 JUMP JUMPDEST PUSH1 0x6 DUP2 GT ISZERO PUSH2 0x414 JUMPI PUSH2 0x413 PUSH2 0x8A0 JUMP JUMPDEST JUMPDEST EQ PUSH2 0x454 JUMPI PUSH1 0x40 MLOAD PUSH32 0x8C379A000000000000000000000000000000000000000000000000000000000 DUP2 MSTORE PUSH1 0x4 ADD PUSH2 0x44B SWAP1 PUSH2 0xABA JUMP JUMPDEST PUSH1 0x40 MLOAD DUP1 SWAP2 SUB SWAP1 REVERT JUMPDEST PUSH1 0x0 ISZERO ISZERO PUSH1 0x2 PUSH1 0x0 CALLER PUSH20 0xFFFFFFFFFFFFFFFFFFFFFFFFFFFFFFFFFFFFFFFF AND PUSH20 0xFFFFFFFFFFFFFFFFFFFFFFFFFFFFFFFFFFFFFFFF AND DUP2 MSTORE PUSH1 0x20 ADD SWAP1 DUP2 MSTORE PUSH1 0x20 ADD PUSH1 0x0 KECCAK256 PUSH1 0x0 DUP4 DUP2 MSTORE PUSH1 0x20 ADD SWAP1 DUP2 MSTORE PUSH1 0x20 ADD PUSH1 0x0 KECCAK256 PUSH1 0x0 SWAP1 SLOAD SWAP1 PUSH2 0x100 EXP SWAP1 DIV PUSH1 0xFF AND ISZERO ISZERO EQ PUSH2 0x4F8 JUMPI PUSH1 0x40 MLOAD PUSH32 0x8C379A000000000000000000000000000000000000000000000000000000000 DUP2 MSTORE PUSH1 0x4 ADD PUSH2 0x4EF SWAP1 PUSH2 0xB26 JUMP JUMPDEST PUSH1 0x40 MLOAD DUP1 SWAP2 SUB SWAP1 REVERT JUMPDEST PUSH2 0x503 DUP3 PUSH1 0x1 PUSH2 0x5B3 JUMP JUMPDEST POP POP JUMP JUMPDEST PUSH1 0x2 PUSH1 0x20 MSTORE DUP2 PUSH1 0x0 MSTORE PUSH1 0x40 PUSH1 0x0 KECCAK256 PUSH1 0x20 MSTORE DUP1 PUSH1 0x0 MSTORE PUSH1 0x40 PUSH1 0x0 KECCAK256 PUSH1 0x0 SWAP2 POP SWAP2 POP SWAP1 SLOAD SWAP1 PUSH2 0x100 EXP SWAP1 DIV PUSH1 0xFF AND DUP2 JUMP JUMPDEST PUSH1 0x0 PUSH1 0x5 SLOAD SWAP1 POP DUP1 PUSH1 0x6 SLOAD LT ISZERO PUSH2 0x582 JUMPI PUSH1 0x40 MLOAD PUSH32 0x8C379A000000000000000000000000000000000000000000000000000000000 DUP2 MSTORE PUSH1 0x4 ADD PUSH2 0x579 SWAP1 PUSH2 0xC99 JUMP JUMPDEST PUSH1 0x40 MLOAD DUP1 SWAP2 SUB SWAP1 REVERT JUMPDEST DUP1 PUSH1 0x6 PUSH1 0x0 DUP3 DUP3 SLOAD PUSH2 0x594 SWAP2 SWAP1 PUSH2 0xCE8 JUMP JUMPDEST SWAP3 POP POP DUP2 SWAP1 SSTORE POP PUSH2 0x5A9 PUSH1 0x0 DUP4 DUP4 PUSH1 0x0 PUSH2 0x67E JUMP JUMPDEST POP POP JUMP JUMPDEST PUSH1 0x6 SLOAD DUP2 JUMP JUMPDEST PUSH1 0x0 DUP1 DUP4 DUP2 SLOAD DUP2 LT PUSH2 0x5C8 JUMPI PUSH2 0x5C7 PUSH2 0xB46 JUMP JUMPDEST JUMPDEST SWAP1 PUSH1 0x0 MSTORE PUSH1 0x20 PUSH1 0x0 KECCAK256 SWAP1 PUSH1 0x7 MUL ADD SWAP1 POP DUP2 ISZERO PUSH2 0x5FD JUMPI DUP1 PUSH1 0x2 ADD PUSH1 0x0 DUP2 SLOAD DUP1 SWAP3 SWAP2 SWAP1 PUSH2 0x5F3 SWAP1 PUSH2 0xD1C JUMP JUMPDEST SWAP2 SWAP1 POP SSTORE POP PUSH2 0x618 JUMP JUMPDEST DUP1 PUSH1 0x3 ADD PUSH1 0x0 DUP2 SLOAD DUP1 SWAP3 SWAP2 SWAP1 PUSH2 0x612 SWAP1 PUSH2 0xD1C JUMP JUMPDEST SWAP2 SWAP1 POP SSTORE POP JUMPDEST PUSH1 0x1 ISZERO ISZERO PUSH1 0x2 PUSH1 0x0 CALLER PUSH20 0xFFFFFFFFFFFFFFFFFFFFFFFFFFFFFFFFFFFFFFFF AND PUSH20 0xFFFFFFFFFFFFFFFFFFFFFFFFFFFFFFFFFFFFFFFF AND DUP2 MSTORE PUSH1 0x20 ADD SWAP1 DUP2 MSTORE PUSH1 0x20 ADD PUSH1 0x0 KECCAK256 PUSH1 0x0 DUP6 DUP2 MSTORE PUSH1 0x20 ADD SWAP1 DUP2 MSTORE PUSH1 0x20 ADD PUSH1 0x0 KECCAK256 PUSH1 0x0 SWAP1 SLOAD SWAP1 PUSH2 0x100 EXP SWAP1 POP POP POP POP POP POP JUMP JUMPDEST PUSH1 0x0 PUSH1 0x3 SLOAD TIMESTAMP PUSH2 0x68E SWAP2 SWAP1 PUSH2 0xD64 JUMP JUMPDEST SWAP1 POP PUSH1 0x0 PUSH1 0x40 MLOAD DUP1 PUSH2 0x120 ADD PUSH1 0x40 MSTORE DUP1 DUP4 DUP2 MSTORE PUSH1 0x20 ADD PUSH1 0x4 SLOAD DUP5 PUSH2 0x6B2 SWAP2 SWAP1 PUSH2 0xD64 JUMP JUMPDEST DUP2 MSTORE PUSH1 0x20 ADD PUSH1 0x0 DUP2 MSTORE PUSH1 0x20 ADD PUSH1 0x0 DUP2 MSTORE PUSH1 0x20 ADD PUSH1 0x0 PUSH1 0x6 DUP2 GT ISZERO PUSH2 0x6D9 JUMPI PUSH2 0x6D8 PUSH2 0x8A0 JUMP JUMPDEST JUMPDEST DUP2 MSTORE PUSH1 0x20 ADD DUP8 PUSH1 0x1 DUP2 GT ISZERO PUSH2 0x6F1 JUMPI PUSH2 0x6F0 PUSH2 0x8A0 JUMP JUMPDEST JUMPDEST DUP2 MSTORE PUSH1 0x20 ADD DUP7 PUSH20 0xFFFFFFFFFFFFFFFFFFFFFFFFFFFFFFFFFFFFFFFF AND DUP2 MSTORE PUSH1 0x20 ADD DUP6 DUP2 MSTORE PUSH1 0x20 ADD DUP5 DUP2 MSTORE POP SWAP1 POP PUSH1 0x0 DUP2 SWAP1 DUP1 PUSH1 0x1 DUP2 SLOAD ADD DUP1 DUP3 SSTORE DUP1 SWAP2 POP POP PUSH1 0x1 SWAP1 SUB SWAP1 PUSH1 0x0 MSTORE PUSH1 0x20 PUSH1 0x0 KECCAK256 SWAP1 PUSH1 0x7 MUL ADD PUSH1 0x0 SWAP1 SWAP2 SWAP1 SWAP2 SWAP1 SWAP2 POP PUSH1 0x0 DUP3 ADD MLOAD DUP2 PUSH1 0x0 ADD SSTORE PUSH1 0x20 DUP3 ADD MLOAD DUP2 PUSH1 0x1 ADD SSTORE PUSH1 0x40 DUP3 ADD MLOAD DUP2 PUSH1 0x2 ADD SSTORE PUSH1 0x60 DUP3 ADD MLOAD DUP2 PUSH1 0x3 ADD SSTORE PUSH1 0x80 DUP3 ADD MLOAD DUP2 PUSH1 0x4 ADD PUSH1 0x0 PUSH2 0x100 EXP DUP2 SLOAD DUP2 PUSH1 0xFF MUL NOT AND SWAP1 DUP4 PUSH1 0x6 DUP2 GT ISZERO PUSH2 0x79D JUMPI PUSH2 0x79C PUSH2 0x8A0 JUMP JUMPDEST JUMPDEST MUL OR SWAP1 SSTORE POP PUSH1 0xA0 DUP3 ADD MLOAD DUP2 PUSH1 0x4 ADD PUSH1 0x1 PUSH2 0x100 EXP DUP2 SLOAD DUP2 PUSH1 0xFF MUL NOT AND SWAP1 DUP4 PUSH1 0x1 DUP2 GT ISZERO PUSH2 0x7CD JUMPI PUSH2 0x7CC PUSH2 0x8A0 JUMP JUMPDEST JUMPDEST MUL OR SWAP1 SSTORE POP PUSH1 0xC0 DUP3 ADD MLOAD DUP2 PUSH1 0x4 ADD PUSH1 0x2 PUSH2 0x100 EXP DUP2 SLOAD DUP2 PUSH20 0xFFFFFFFFFFFFFFFFFFFFFFFFFFFFFFFFFFFFFFFF MUL NOT AND SWAP1 DUP4 PUSH20 0xFFFFFFFFFFFFFFFFFFFFFFFFFFFFFFFFFFFFFFFF AND MUL OR SWAP1 SSTORE POP PUSH1 0xE0 DUP3 ADD MLOAD DUP2 PUSH1 0x5 ADD SSTORE PUSH2 0x100 DUP3 ADD MLOAD DUP2 PUSH1 0x6 ADD SSTORE POP POP POP POP POP POP POP POP JUMP JUMPDEST PUSH1 0x0 DUP1 REVERT JUMPDEST PUSH1 0x0 DUP2 SWAP1 POP SWAP2 SWAP1 POP JUMP JUMPDEST PUSH2 0x850 DUP2 PUSH2 0x83D JUMP JUMPDEST DUP2 EQ PUSH2 0x85B JUMPI PUSH1 0x0 DUP1 REVERT JUMPDEST POP JUMP JUMPDEST PUSH1 0x0 DUP2 CALLDATALOAD SWAP1 POP PUSH2 0x86D DUP2 PUSH2 0x847 JUMP JUMPDEST SWAP3 SWAP2 POP POP JUMP JUMPDEST PUSH1 0x0 PUSH1 0x20 DUP3 DUP5 SUB SLT ISZERO PUSH2 0x889 JUMPI PUSH2 0x888 PUSH2 0x838 JUMP JUMPDEST JUMPDEST PUSH1 0x0 PUSH2 0x897 DUP5 DUP3 DUP6 ADD PUSH2 0x85E JUMP JUMPDEST SWAP2 POP POP SWAP3 SWAP2 POP POP JUMP JUMPDEST PUSH32 0x4E487B7100000000000000000000000000000000000000000000000000000000 PUSH1 0x0 MSTORE PUSH1 0x21 PUSH1 0x4 MSTORE PUSH1 0x24 PUSH1 0x0 REVERT JUMPDEST PUSH1 0x7 DUP2 LT PUSH2 0x8E0 JUMPI PUSH2 0x8DF PUSH2 0x8A0 JUMP JUMPDEST JUMPDEST POP JUMP JUMPDEST PUSH1 0x0 DUP2 SWAP1 POP PUSH2 0x8F1 DUP3 PUSH2 0x8CF JUMP JUMPDEST SWAP2 SWAP1 POP JUMP JUMPDEST PUSH1 0x0 PUSH2 0x901 DUP3 PUSH2 0x8E3 JUMP JUMPDEST SWAP1 POP SWAP2 SWAP1 POP JUMP JUMPDEST PUSH2 0x911 DUP2 PUSH2 0x8F6 JUMP JUMPDEST DUP3 MSTORE POP POP JUMP JUMPDEST PUSH1 0x0 PUSH1 0x20 DUP3 ADD SWAP1 POP PUSH2 0x92C PUSH1 0x0 DUP4 ADD DUP5 PUSH2 0x908 JUMP JUMPDEST SWAP3 SWAP2 POP POP JUMP JUMPDEST PUSH1 0x0 PUSH20 0xFFFFFFFFFFFFFFFFFFFFFFFFFFFFFFFFFFFFFFFF DUP3 AND SWAP1 POP SWAP2 SWAP1 POP JUMP JUMPDEST PUSH1 0x0 PUSH2 0x95D DUP3 PUSH2 0x932 JUMP JUMPDEST SWAP1 POP SWAP2 SWAP1 POP JUMP JUMPDEST PUSH2 0x96D DUP2 PUSH2 0x952 JUMP JUMPDEST DUP2 EQ PUSH2 0x978 JUMPI PUSH1 0x0 DUP1 REVERT JUMPDEST POP JUMP JUMPDEST PUSH1 0x0 DUP2 CALLDATALOAD SWAP1 POP PUSH2 0x98A DUP2 PUSH2 0x964 JUMP JUMPDEST SWAP3 SWAP2 POP POP JUMP JUMPDEST PUSH1 0x0 DUP1 PUSH1 0x40 DUP4 DUP6 SUB SLT ISZERO PUSH2 0x9A7 JUMPI PUSH2 0x9A6 PUSH2 0x838 JUMP JUMPDEST JUMPDEST PUSH1 0x0 PUSH2 0x9B5 DUP6 DUP3 DUP7 ADD PUSH2 0x97B JUMP JUMPDEST SWAP3 POP POP PUSH1 0x20 PUSH2 0x9C6 DUP6 DUP3 DUP7 ADD PUSH2 0x85E JUMP JUMPDEST SWAP2 POP POP SWAP3 POP SWAP3 SWAP1 POP JUMP JUMPDEST PUSH1 0x0 DUP2 ISZERO ISZERO SWAP1 POP SWAP2 SWAP1 POP JUMP JUMPDEST PUSH2 0x9E5 DUP2 PUSH2 0x9D0 JUMP JUMPDEST DUP3 MSTORE POP POP JUMP JUMPDEST PUSH1 0x0 PUSH1 0x20 DUP3 ADD SWAP1 POP PUSH2 0xA00 PUSH1 0x0 DUP4 ADD DUP5 PUSH2 0x9DC JUMP JUMPDEST SWAP3 SWAP2 POP POP JUMP JUMPDEST PUSH1 0x0 PUSH1 0x20 DUP3 DUP5 SUB SLT ISZERO PUSH2 0xA1C JUMPI PUSH2 0xA1B PUSH2 0x838 JUMP JUMPDEST JUMPDEST PUSH1 0x0 PUSH2 0xA2A DUP5 DUP3 DUP6 ADD PUSH2 0x97B JUMP JUMPDEST SWAP2 POP POP SWAP3 SWAP2 POP POP JUMP JUMPDEST PUSH2 0xA3C DUP2 PUSH2 0x83D JUMP JUMPDEST DUP3 MSTORE POP POP JUMP JUMPDEST PUSH1 0x0 PUSH1 0x20 DUP3 ADD SWAP1 POP PUSH2 0xA57 PUSH1 0x0 DUP4 ADD DUP5 PUSH2 0xA33 JUMP JUMPDEST SWAP3 SWAP2 POP POP JUMP JUMPDEST PUSH1 0x0 DUP3 DUP3 MSTORE PUSH1 0x20 DUP3 ADD SWAP1 POP SWAP3 SWAP2 POP POP JUMP JUMPDEST PUSH32 0x50726F706F73616C20496E616374697665000000000000000000000000000000 PUSH1 0x0 DUP3 ADD MSTORE POP JUMP JUMPDEST PUSH1 0x0 PUSH2 0xAA4 PUSH1 0x11 DUP4 PUSH2 0xA5D JUMP JUMPDEST SWAP2 POP PUSH2 0xAAF DUP3 PUSH2 0xA6E JUMP JUMPDEST PUSH1 0x20 DUP3 ADD SWAP1 POP SWAP2 SWAP1 POP JUMP JUMPDEST PUSH1 0x0 PUSH1 0x20 DUP3 ADD SWAP1 POP DUP2 DUP2 SUB PUSH1 0x0 DUP4 ADD MSTORE PUSH2 0xAD3 DUP2 PUSH2 0xA97 JUMP JUMPDEST SWAP1 POP SWAP2 SWAP1 POP JUMP JUMPDEST PUSH32 0x4D656D62657220616C726561647920766F746564000000000000000000000000 PUSH1 0x0 DUP3 ADD MSTORE POP JUMP JUMPDEST PUSH1 0x0 PUSH2 0xB10 PUSH1 0x14 DUP4 PUSH2 0xA5D JUMP JUMPDEST SWAP2 POP PUSH2 0xB1B DUP3 PUSH2 0xADA JUMP JUMPDEST PUSH1 0x20 DUP3 ADD SWAP1 POP SWAP2 SWAP1 POP JUMP JUMPDEST PUSH1 0x0 PUSH1 0x20 DUP3 ADD SWAP1 POP DUP2 DUP2 SUB PUSH1 0x0 DUP4 ADD MSTORE PUSH2 0xB3F DUP2 PUSH2 0xB03 JUMP JUMPDEST SWAP1 POP SWAP2 SWAP1 POP JUMP JUMPDEST PUSH32 0x4E487B7100000000000000000000000000000000000000000000000000000000 PUSH1 0x0 MSTORE PUSH1 0x32 PUSH1 0x4 MSTORE PUSH1 0x24 PUSH1 0x0 REVERT JUMPDEST PUSH32 0x496E76616C696420494400000000000000000000000000000000000000000000 PUSH1 0x0 DUP3 ADD MSTORE POP JUMP JUMPDEST PUSH1 0x0 PUSH2 0xBAB PUSH1 0xA DUP4 PUSH2 0xA5D JUMP JUMPDEST SWAP2 POP PUSH2 0xBB6 DUP3 PUSH2 0xB75 JUMP JUMPDEST PUSH1 0x20 DUP3 ADD SWAP1 POP SWAP2 SWAP1 POP JUMP JUMPDEST PUSH1 0x0 PUSH1 0x20 DUP3 ADD SWAP1 POP DUP2 DUP2 SUB PUSH1 0x0 DUP4 ADD MSTORE PUSH2 0xBDA DUP2 PUSH2 0xB9E JUMP JUMPDEST SWAP1 POP SWAP2 SWAP1 POP JUMP JUMPDEST PUSH32 0x496E76616C696420616D6F756E74000000000000000000000000000000000000 PUSH1 0x0 DUP3 ADD MSTORE POP JUMP JUMPDEST PUSH1 0x0 PUSH2 0xC17 PUSH1 0xE DUP4 PUSH2 0xA5D JUMP JUMPDEST SWAP2 POP PUSH2 0xC22 DUP3 PUSH2 0xBE1 JUMP JUMPDEST PUSH1 0x20 DUP3 ADD SWAP1 POP SWAP2 SWAP1 POP JUMP JUMPDEST PUSH1 0x0 PUSH1 0x20 DUP3 ADD SWAP1 POP DUP2 DUP2 SUB PUSH1 0x0 DUP4 ADD MSTORE PUSH2 0xC46 DUP2 PUSH2 0xC0A JUMP JUMPDEST SWAP1 POP SWAP2 SWAP1 POP JUMP JUMPDEST PUSH32 0x496E737566696369656E74204554480000000000000000000000000000000000 PUSH1 0x0 DUP3 ADD MSTORE POP JUMP JUMPDEST PUSH1 0x0 PUSH2 0xC83 PUSH1 0xF DUP4 PUSH2 0xA5D JUMP JUMPDEST SWAP2 POP PUSH2 0xC8E DUP3 PUSH2 0xC4D JUMP JUMPDEST PUSH1 0x20 DUP3 ADD SWAP1 POP SWAP2 SWAP1 POP JUMP JUMPDEST PUSH1 0x0 PUSH1 0x20 DUP3 ADD SWAP1 POP DUP2 DUP2 SUB PUSH1 0x0 DUP4 ADD MSTORE PUSH2 0xCB2 DUP2 PUSH2 0xC76 JUMP JUMPDEST SWAP1 POP SWAP2 SWAP1 POP JUMP JUMPDEST PUSH32 0x4E487B7100000000000000000000000000000000000000000000000000000000 PUSH1 0x0 MSTORE PUSH1 0x11 PUSH1 0x4 MSTORE PUSH1 0x24 PUSH1 0x0 REVERT JUMPDEST PUSH1 0x0 PUSH2 0xCF3 DUP3 PUSH2 0x83D JUMP JUMPDEST SWAP2 POP PUSH2 0xCFE DUP4 PUSH2 0x83D JUMP JUMPDEST SWAP3 POP DUP3 DUP3 SUB SWAP1 POP DUP2 DUP2 GT ISZERO PUSH2 0xD16 JUMPI PUSH2 0xD15 PUSH2 0xCB9 JUMP JUMPDEST JUMPDEST SWAP3 SWAP2 POP POP JUMP JUMPDEST PUSH1 0x0 PUSH2 0xD27 DUP3 PUSH2 0x83D JUMP JUMPDEST SWAP2 POP PUSH32 0xFFFFFFFFFFFFFFFFFFFFFFFFFFFFFFFFFFFFFFFFFFFFFFFFFFFFFFFFFFFFFFFF DUP3 SUB PUSH2 0xD59 JUMPI PUSH2 0xD58 PUSH2 0xCB9 JUMP JUMPDEST JUMPDEST PUSH1 0x1 DUP3 ADD SWAP1 POP SWAP2 SWAP1 POP JUMP JUMPDEST PUSH1 0x0 PUSH2 0xD6F DUP3 PUSH2 0x83D JUMP JUMPDEST SWAP2 POP PUSH2 0xD7A DUP4 PUSH2 0x83D JUMP JUMPDEST SWAP3 POP DUP3 DUP3 ADD SWAP1 POP DUP1 DUP3 GT ISZERO PUSH2 0xD92 JUMPI PUSH2 0xD91 PUSH2 0xCB9 JUMP JUMPDEST JUMPDEST SWAP3 SWAP2 POP POP JUMP INVALID LOG2 PUSH5 0x6970667358 0x22 SLT KECCAK256 0x49 0x5F 0xAB SDIV EXTCODESIZE PUSH32 0xE61A6A7A51BF1352954EC6E0B6CFFE50978DF1C5600B74F86E0964736F6C6343 STOP ADDMOD GT STOP CALLER "
				},
				"gasEstimates": {
					"creation": {
						"codeDepositCost": "706800",
						"executionCost": "111254",
						"totalCost": "818054"
					},
					"external": {
						"availableETH()": "2495",
						"memberHasVoted(address,uint256)": "3109",
						"state(uint256)": "9470",
						"submitNewAmountChange(uint256)": "infinite",
						"submitNewGrant(address)": "infinite",
						"voteFor(uint256)": "infinite",
						"votesAgainst(uint256)": "infinite"
					},
					"internal": {
						"_quorumReached(uint256,uint256)": "infinite",
						"_submitProposal(enum Governance.ProposalType,address,uint256,uint256)": "infinite",
						"_submitVote(uint256,bool)": "28927",
						"_tallyVotes(uint256)": "infinite",
						"_votesSucceeded(uint256,uint256)": "infinite"
					}
				},
				"methodIdentifiers": {
					"availableETH()": "fb6ff161",
					"memberHasVoted(address,uint256)": "a220e64a",
					"state(uint256)": "3e4f49e6",
					"submitNewAmountChange(uint256)": "7325d4cc",
					"submitNewGrant(address)": "cf34fa2a",
					"voteFor(uint256)": "86a50535",
					"votesAgainst(uint256)": "23b4a998"
				}
			},
			"storageLayout": {
				"storage": [
					{
						"astId": 37,
						"contract": "bootcamp/week10/day_2_creating_a_DAO_voting.sol:Governance",
						"label": "proposals",
						"offset": 0,
						"slot": "0",
						"type": "t_array(t_struct(ProposalData)33_storage)dyn_storage"
					},
					{
						"astId": 40,
						"contract": "bootcamp/week10/day_2_creating_a_DAO_voting.sol:Governance",
						"label": "quorum",
						"offset": 0,
						"slot": "1",
						"type": "t_uint256"
					},
					{
						"astId": 46,
						"contract": "bootcamp/week10/day_2_creating_a_DAO_voting.sol:Governance",
						"label": "memberHasVoted",
						"offset": 0,
						"slot": "2",
						"type": "t_mapping(t_address,t_mapping(t_uint256,t_bool))"
					},
					{
						"astId": 49,
						"contract": "bootcamp/week10/day_2_creating_a_DAO_voting.sol:Governance",
						"label": "reviewPeriod",
						"offset": 0,
						"slot": "3",
						"type": "t_uint256"
					},
					{
						"astId": 52,
						"contract": "bootcamp/week10/day_2_creating_a_DAO_voting.sol:Governance",
						"label": "votingPeriod",
						"offset": 0,
						"slot": "4",
						"type": "t_uint256"
					},
					{
						"astId": 55,
						"contract": "bootcamp/week10/day_2_creating_a_DAO_voting.sol:Governance",
						"label": "grantAmount",
						"offset": 0,
						"slot": "5",
						"type": "t_uint256"
					},
					{
						"astId": 57,
						"contract": "bootcamp/week10/day_2_creating_a_DAO_voting.sol:Governance",
						"label": "availableETH",
						"offset": 0,
						"slot": "6",
						"type": "t_uint256"
					}
				],
				"types": {
					"t_address": {
						"encoding": "inplace",
						"label": "address",
						"numberOfBytes": "20"
					},
					"t_array(t_struct(ProposalData)33_storage)dyn_storage": {
						"base": "t_struct(ProposalData)33_storage",
						"encoding": "dynamic_array",
						"label": "struct Governance.ProposalData[]",
						"numberOfBytes": "32"
					},
					"t_bool": {
						"encoding": "inplace",
						"label": "bool",
						"numberOfBytes": "1"
					},
					"t_enum(ProposalState)9": {
						"encoding": "inplace",
						"label": "enum Governance.ProposalState",
						"numberOfBytes": "1"
					},
					"t_enum(ProposalType)12": {
						"encoding": "inplace",
						"label": "enum Governance.ProposalType",
						"numberOfBytes": "1"
					},
					"t_mapping(t_address,t_mapping(t_uint256,t_bool))": {
						"encoding": "mapping",
						"key": "t_address",
						"label": "mapping(address => mapping(uint256 => bool))",
						"numberOfBytes": "32",
						"value": "t_mapping(t_uint256,t_bool)"
					},
					"t_mapping(t_uint256,t_bool)": {
						"encoding": "mapping",
						"key": "t_uint256",
						"label": "mapping(uint256 => bool)",
						"numberOfBytes": "32",
						"value": "t_bool"
					},
					"t_struct(ProposalData)33_storage": {
						"encoding": "inplace",
						"label": "struct Governance.ProposalData",
						"members": [
							{
								"astId": 14,
								"contract": "bootcamp/week10/day_2_creating_a_DAO_voting.sol:Governance",
								"label": "voteBegins",
								"offset": 0,
								"slot": "0",
								"type": "t_uint256"
							},
							{
								"astId": 16,
								"contract": "bootcamp/week10/day_2_creating_a_DAO_voting.sol:Governance",
								"label": "voteEnds",
								"offset": 0,
								"slot": "1",
								"type": "t_uint256"
							},
							{
								"astId": 18,
								"contract": "bootcamp/week10/day_2_creating_a_DAO_voting.sol:Governance",
								"label": "votesFor",
								"offset": 0,
								"slot": "2",
								"type": "t_uint256"
							},
							{
								"astId": 20,
								"contract": "bootcamp/week10/day_2_creating_a_DAO_voting.sol:Governance",
								"label": "votesAgainst",
								"offset": 0,
								"slot": "3",
								"type": "t_uint256"
							},
							{
								"astId": 23,
								"contract": "bootcamp/week10/day_2_creating_a_DAO_voting.sol:Governance",
								"label": "propState",
								"offset": 0,
								"slot": "4",
								"type": "t_enum(ProposalState)9"
							},
							{
								"astId": 26,
								"contract": "bootcamp/week10/day_2_creating_a_DAO_voting.sol:Governance",
								"label": "propType",
								"offset": 1,
								"slot": "4",
								"type": "t_enum(ProposalType)12"
							},
							{
								"astId": 28,
								"contract": "bootcamp/week10/day_2_creating_a_DAO_voting.sol:Governance",
								"label": "recepient",
								"offset": 2,
								"slot": "4",
								"type": "t_address"
							},
							{
								"astId": 30,
								"contract": "bootcamp/week10/day_2_creating_a_DAO_voting.sol:Governance",
								"label": "ethGrant",
								"offset": 0,
								"slot": "5",
								"type": "t_uint256"
							},
							{
								"astId": 32,
								"contract": "bootcamp/week10/day_2_creating_a_DAO_voting.sol:Governance",
								"label": "newETHGrant",
								"offset": 0,
								"slot": "6",
								"type": "t_uint256"
							}
						],
						"numberOfBytes": "224"
					},
					"t_uint256": {
						"encoding": "inplace",
						"label": "uint256",
						"numberOfBytes": "32"
					}
				}
			},
			"userdoc": {
				"kind": "user",
				"methods": {},
				"version": 1
			}
		}
	}
}