{
	"bootcamp/week10/day_2_creating_a_DAO_voting.sol": {
		"Governance": {
			"abi": [
				{
					"inputs": [],
					"stateMutability": "payable",
					"type": "constructor"
				},
				{
					"inputs": [],
					"name": "availableETH",
					"outputs": [
						{
							"internalType": "uint256",
							"name": "",
							"type": "uint256"
						}
					],
					"stateMutability": "view",
					"type": "function"
				},
				{
					"inputs": [
						{
							"internalType": "address",
							"name": "",
							"type": "address"
						},
						{
							"internalType": "uint256",
							"name": "",
							"type": "uint256"
						}
					],
					"name": "memberHasVoted",
					"outputs": [
						{
							"internalType": "bool",
							"name": "",
							"type": "bool"
						}
					],
					"stateMutability": "view",
					"type": "function"
				},
				{
					"inputs": [
						{
							"internalType": "uint256",
							"name": "propID",
							"type": "uint256"
						}
					],
					"name": "state",
					"outputs": [
						{
							"internalType": "enum Governance.ProposalState",
							"name": "",
							"type": "uint8"
						}
					],
					"stateMutability": "view",
					"type": "function"
				}
			],
			"devdoc": {
				"kind": "dev",
				"methods": {},
				"version": 1
			},
			"evm": {
				"assembly": "    /* \"bootcamp/week10/day_2_creating_a_DAO_voting.sol\":58:4954  contract Governance {... */\n  mstore(0x40, 0x80)\n    /* \"bootcamp/week10/day_2_creating_a_DAO_voting.sol\":2079:2080  5 */\n  0x05\n    /* \"bootcamp/week10/day_2_creating_a_DAO_voting.sol\":2054:2080  uint256 private quorum = 5 */\n  0x01\n  sstore\n    /* \"bootcamp/week10/day_2_creating_a_DAO_voting.sol\":2456:2466  30 seconds */\n  0x1e\n    /* \"bootcamp/week10/day_2_creating_a_DAO_voting.sol\":2433:2466  uint256 reviewPeriod = 30 seconds */\n  0x03\n  sstore\n    /* \"bootcamp/week10/day_2_creating_a_DAO_voting.sol\":2592:2601  1 minutes */\n  0x3c\n    /* \"bootcamp/week10/day_2_creating_a_DAO_voting.sol\":2569:2601  uint256 votingPeriod = 1 minutes */\n  0x04\n  sstore\n    /* \"bootcamp/week10/day_2_creating_a_DAO_voting.sol\":2677:2684  1 ether */\n  0x0de0b6b3a7640000\n    /* \"bootcamp/week10/day_2_creating_a_DAO_voting.sol\":2655:2684  uint256 grantAmount = 1 ether */\n  0x05\n  sstore\n    /* \"bootcamp/week10/day_2_creating_a_DAO_voting.sol\":2825:2834  msg.value */\n  callvalue\n    /* \"bootcamp/week10/day_2_creating_a_DAO_voting.sol\":2810:2822  availableETH */\n  0x06\n    /* \"bootcamp/week10/day_2_creating_a_DAO_voting.sol\":2810:2834  availableETH = msg.value */\n  dup2\n  swap1\n  sstore\n  pop\n    /* \"bootcamp/week10/day_2_creating_a_DAO_voting.sol\":58:4954  contract Governance {... */\n  dataSize(sub_0)\n  dup1\n  dataOffset(sub_0)\n  0x00\n  codecopy\n  0x00\n  return\nstop\n\nsub_0: assembly {\n        /* \"bootcamp/week10/day_2_creating_a_DAO_voting.sol\":58:4954  contract Governance {... */\n      mstore(0x40, 0x80)\n      callvalue\n      dup1\n      iszero\n      tag_1\n      jumpi\n      0x00\n      dup1\n      revert\n    tag_1:\n      pop\n      jumpi(tag_2, lt(calldatasize, 0x04))\n      shr(0xe0, calldataload(0x00))\n      dup1\n      0x3e4f49e6\n      eq\n      tag_3\n      jumpi\n      dup1\n      0xa220e64a\n      eq\n      tag_4\n      jumpi\n      dup1\n      0xfb6ff161\n      eq\n      tag_5\n      jumpi\n    tag_2:\n      0x00\n      dup1\n      revert\n        /* \"bootcamp/week10/day_2_creating_a_DAO_voting.sol\":2907:4946  function state(uint256 propID) public view returns(ProposalState) {... */\n    tag_3:\n      tag_6\n      0x04\n      dup1\n      calldatasize\n      sub\n      dup2\n      add\n      swap1\n      tag_7\n      swap2\n      swap1\n      tag_8\n      jump\t// in\n    tag_7:\n      tag_9\n      jump\t// in\n    tag_6:\n      mload(0x40)\n      tag_10\n      swap2\n      swap1\n      tag_11\n      jump\t// in\n    tag_10:\n      mload(0x40)\n      dup1\n      swap2\n      sub\n      swap1\n      return\n        /* \"bootcamp/week10/day_2_creating_a_DAO_voting.sol\":2262:2328  mapping(address => mapping(uint256 => bool)) public memberHasVoted */\n    tag_4:\n      tag_12\n      0x04\n      dup1\n      calldatasize\n      sub\n      dup2\n      add\n      swap1\n      tag_13\n      swap2\n      swap1\n      tag_14\n      jump\t// in\n    tag_13:\n      tag_15\n      jump\t// in\n    tag_12:\n      mload(0x40)\n      tag_16\n      swap2\n      swap1\n      tag_17\n      jump\t// in\n    tag_16:\n      mload(0x40)\n      dup1\n      swap2\n      sub\n      swap1\n      return\n        /* \"bootcamp/week10/day_2_creating_a_DAO_voting.sol\":2744:2771  uint256 public availableETH */\n    tag_5:\n      tag_18\n      tag_19\n      jump\t// in\n    tag_18:\n      mload(0x40)\n      tag_20\n      swap2\n      swap1\n      tag_21\n      jump\t// in\n    tag_20:\n      mload(0x40)\n      dup1\n      swap2\n      sub\n      swap1\n      return\n        /* \"bootcamp/week10/day_2_creating_a_DAO_voting.sol\":2907:4946  function state(uint256 propID) public view returns(ProposalState) {... */\n    tag_9:\n        /* \"bootcamp/week10/day_2_creating_a_DAO_voting.sol\":2958:2971  ProposalState */\n      0x00\n        /* \"bootcamp/week10/day_2_creating_a_DAO_voting.sol\":3043:3072  ProposalData storage proposal */\n      dup1\n        /* \"bootcamp/week10/day_2_creating_a_DAO_voting.sol\":3075:3084  proposals */\n      0x00\n        /* \"bootcamp/week10/day_2_creating_a_DAO_voting.sol\":3085:3091  propID */\n      dup4\n        /* \"bootcamp/week10/day_2_creating_a_DAO_voting.sol\":3075:3092  proposals[propID] */\n      dup2\n      sload\n      dup2\n      lt\n      tag_23\n      jumpi\n      tag_24\n      tag_25\n      jump\t// in\n    tag_24:\n    tag_23:\n      swap1\n      0x00\n      mstore\n      keccak256(0x00, 0x20)\n      swap1\n      0x07\n      mul\n      add\n        /* \"bootcamp/week10/day_2_creating_a_DAO_voting.sol\":3043:3092  ProposalData storage proposal = proposals[propID] */\n      swap1\n      pop\n        /* \"bootcamp/week10/day_2_creating_a_DAO_voting.sol\":3184:3207  ProposalState propState */\n      0x00\n        /* \"bootcamp/week10/day_2_creating_a_DAO_voting.sol\":3210:3218  proposal */\n      dup2\n        /* \"bootcamp/week10/day_2_creating_a_DAO_voting.sol\":3210:3228  proposal.propState */\n      0x04\n      add\n      0x00\n      swap1\n      sload\n      swap1\n      0x0100\n      exp\n      swap1\n      div\n      0xff\n      and\n        /* \"bootcamp/week10/day_2_creating_a_DAO_voting.sol\":3184:3228  ProposalState propState = proposal.propState */\n      swap1\n      pop\n        /* \"bootcamp/week10/day_2_creating_a_DAO_voting.sol\":3421:3445  ProposalState.Unassigned */\n      0x00\n        /* \"bootcamp/week10/day_2_creating_a_DAO_voting.sol\":3408:3445  propState != ProposalState.Unassigned */\n      0x06\n      dup2\n      gt\n      iszero\n      tag_27\n      jumpi\n      tag_28\n      tag_29\n      jump\t// in\n    tag_28:\n    tag_27:\n        /* \"bootcamp/week10/day_2_creating_a_DAO_voting.sol\":3408:3417  propState */\n      dup2\n        /* \"bootcamp/week10/day_2_creating_a_DAO_voting.sol\":3408:3445  propState != ProposalState.Unassigned */\n      0x06\n      dup2\n      gt\n      iszero\n      tag_30\n      jumpi\n      tag_31\n      tag_29\n      jump\t// in\n    tag_31:\n    tag_30:\n      eq\n        /* \"bootcamp/week10/day_2_creating_a_DAO_voting.sol\":3404:3547  if (propState != ProposalState.Unassigned) {... */\n      tag_32\n      jumpi\n        /* \"bootcamp/week10/day_2_creating_a_DAO_voting.sol\":3527:3536  propState */\n      dup1\n        /* \"bootcamp/week10/day_2_creating_a_DAO_voting.sol\":3520:3536  return propState */\n      swap3\n      pop\n      pop\n      pop\n      jump(tag_22)\n        /* \"bootcamp/week10/day_2_creating_a_DAO_voting.sol\":3404:3547  if (propState != ProposalState.Unassigned) {... */\n    tag_32:\n        /* \"bootcamp/week10/day_2_creating_a_DAO_voting.sol\":3706:3724  uint256 voteBegins */\n      0x00\n        /* \"bootcamp/week10/day_2_creating_a_DAO_voting.sol\":3727:3735  proposal */\n      dup3\n        /* \"bootcamp/week10/day_2_creating_a_DAO_voting.sol\":3727:3746  proposal.voteBegins */\n      0x00\n      add\n      sload\n        /* \"bootcamp/week10/day_2_creating_a_DAO_voting.sol\":3706:3746  uint256 voteBegins = proposal.voteBegins */\n      swap1\n      pop\n        /* \"bootcamp/week10/day_2_creating_a_DAO_voting.sol\":3845:3846  0 */\n      0x00\n        /* \"bootcamp/week10/day_2_creating_a_DAO_voting.sol\":3831:3841  voteBegins */\n      dup2\n        /* \"bootcamp/week10/day_2_creating_a_DAO_voting.sol\":3831:3846  voteBegins == 0 */\n      sub\n        /* \"bootcamp/week10/day_2_creating_a_DAO_voting.sol\":3827:3893  if (voteBegins == 0) {... */\n      tag_33\n      jumpi\n        /* \"bootcamp/week10/day_2_creating_a_DAO_voting.sol\":3862:3882  revert(\"Invalid ID\") */\n      mload(0x40)\n      0x08c379a000000000000000000000000000000000000000000000000000000000\n      dup2\n      mstore\n      0x04\n      add\n      tag_34\n      swap1\n      tag_35\n      jump\t// in\n    tag_34:\n      mload(0x40)\n      dup1\n      swap2\n      sub\n      swap1\n      revert\n        /* \"bootcamp/week10/day_2_creating_a_DAO_voting.sol\":3827:3893  if (voteBegins == 0) {... */\n    tag_33:\n        /* \"bootcamp/week10/day_2_creating_a_DAO_voting.sol\":4256:4271  block.timestamp */\n      timestamp\n        /* \"bootcamp/week10/day_2_creating_a_DAO_voting.sol\":4242:4252  voteBegins */\n      dup2\n        /* \"bootcamp/week10/day_2_creating_a_DAO_voting.sol\":4242:4271  voteBegins >= block.timestamp */\n      lt\n        /* \"bootcamp/week10/day_2_creating_a_DAO_voting.sol\":4238:4326  if (voteBegins >= block.timestamp) {... */\n      tag_36\n      jumpi\n        /* \"bootcamp/week10/day_2_creating_a_DAO_voting.sol\":4294:4315  ProposalState.Pending */\n      0x01\n        /* \"bootcamp/week10/day_2_creating_a_DAO_voting.sol\":4287:4315  return ProposalState.Pending */\n      swap4\n      pop\n      pop\n      pop\n      pop\n      jump(tag_22)\n        /* \"bootcamp/week10/day_2_creating_a_DAO_voting.sol\":4238:4326  if (voteBegins >= block.timestamp) {... */\n    tag_36:\n        /* \"bootcamp/week10/day_2_creating_a_DAO_voting.sol\":4336:4352  uint256 voteEnds */\n      0x00\n        /* \"bootcamp/week10/day_2_creating_a_DAO_voting.sol\":4355:4363  proposal */\n      dup4\n        /* \"bootcamp/week10/day_2_creating_a_DAO_voting.sol\":4355:4372  proposal.voteEnds */\n      0x01\n      add\n      sload\n        /* \"bootcamp/week10/day_2_creating_a_DAO_voting.sol\":4336:4372  uint256 voteEnds = proposal.voteEnds */\n      swap1\n      pop\n        /* \"bootcamp/week10/day_2_creating_a_DAO_voting.sol\":4730:4745  block.timestamp */\n      timestamp\n        /* \"bootcamp/week10/day_2_creating_a_DAO_voting.sol\":4718:4726  voteEnds */\n      dup2\n        /* \"bootcamp/week10/day_2_creating_a_DAO_voting.sol\":4718:4745  voteEnds >= block.timestamp */\n      lt\n        /* \"bootcamp/week10/day_2_creating_a_DAO_voting.sol\":4714:4799  if (voteEnds >= block.timestamp) {... */\n      tag_37\n      jumpi\n        /* \"bootcamp/week10/day_2_creating_a_DAO_voting.sol\":4768:4788  ProposalState.Active */\n      0x02\n        /* \"bootcamp/week10/day_2_creating_a_DAO_voting.sol\":4761:4788  return ProposalState.Active */\n      swap5\n      pop\n      pop\n      pop\n      pop\n      pop\n      jump(tag_22)\n        /* \"bootcamp/week10/day_2_creating_a_DAO_voting.sol\":4714:4799  if (voteEnds >= block.timestamp) {... */\n    tag_37:\n        /* \"bootcamp/week10/day_2_creating_a_DAO_voting.sol\":4919:4939  ProposalState.Queued */\n      0x03\n        /* \"bootcamp/week10/day_2_creating_a_DAO_voting.sol\":4912:4939  return ProposalState.Queued */\n      swap5\n      pop\n      pop\n      pop\n      pop\n      pop\n        /* \"bootcamp/week10/day_2_creating_a_DAO_voting.sol\":2907:4946  function state(uint256 propID) public view returns(ProposalState) {... */\n    tag_22:\n      swap2\n      swap1\n      pop\n      jump\t// out\n        /* \"bootcamp/week10/day_2_creating_a_DAO_voting.sol\":2262:2328  mapping(address => mapping(uint256 => bool)) public memberHasVoted */\n    tag_15:\n      mstore(0x20, 0x02)\n      dup2\n      0x00\n      mstore\n      mstore(0x20, keccak256(0x00, 0x40))\n      dup1\n      0x00\n      mstore\n      keccak256(0x00, 0x40)\n      0x00\n      swap2\n      pop\n      swap2\n      pop\n      swap1\n      sload\n      swap1\n      0x0100\n      exp\n      swap1\n      div\n      0xff\n      and\n      dup2\n      jump\t// out\n        /* \"bootcamp/week10/day_2_creating_a_DAO_voting.sol\":2744:2771  uint256 public availableETH */\n    tag_19:\n      sload(0x06)\n      dup2\n      jump\t// out\n        /* \"#utility.yul\":88:205   */\n    tag_39:\n        /* \"#utility.yul\":197:198   */\n      0x00\n        /* \"#utility.yul\":194:195   */\n      dup1\n        /* \"#utility.yul\":187:199   */\n      revert\n        /* \"#utility.yul\":334:411   */\n    tag_41:\n        /* \"#utility.yul\":371:378   */\n      0x00\n        /* \"#utility.yul\":400:405   */\n      dup2\n        /* \"#utility.yul\":389:405   */\n      swap1\n      pop\n        /* \"#utility.yul\":334:411   */\n      swap2\n      swap1\n      pop\n      jump\t// out\n        /* \"#utility.yul\":417:539   */\n    tag_42:\n        /* \"#utility.yul\":490:514   */\n      tag_64\n        /* \"#utility.yul\":508:513   */\n      dup2\n        /* \"#utility.yul\":490:514   */\n      tag_41\n      jump\t// in\n    tag_64:\n        /* \"#utility.yul\":483:488   */\n      dup2\n        /* \"#utility.yul\":480:515   */\n      eq\n        /* \"#utility.yul\":470:533   */\n      tag_65\n      jumpi\n        /* \"#utility.yul\":529:530   */\n      0x00\n        /* \"#utility.yul\":526:527   */\n      dup1\n        /* \"#utility.yul\":519:531   */\n      revert\n        /* \"#utility.yul\":470:533   */\n    tag_65:\n        /* \"#utility.yul\":417:539   */\n      pop\n      jump\t// out\n        /* \"#utility.yul\":545:684   */\n    tag_43:\n        /* \"#utility.yul\":591:596   */\n      0x00\n        /* \"#utility.yul\":629:635   */\n      dup2\n        /* \"#utility.yul\":616:636   */\n      calldataload\n        /* \"#utility.yul\":607:636   */\n      swap1\n      pop\n        /* \"#utility.yul\":645:678   */\n      tag_67\n        /* \"#utility.yul\":672:677   */\n      dup2\n        /* \"#utility.yul\":645:678   */\n      tag_42\n      jump\t// in\n    tag_67:\n        /* \"#utility.yul\":545:684   */\n      swap3\n      swap2\n      pop\n      pop\n      jump\t// out\n        /* \"#utility.yul\":690:1019   */\n    tag_8:\n        /* \"#utility.yul\":749:755   */\n      0x00\n        /* \"#utility.yul\":798:800   */\n      0x20\n        /* \"#utility.yul\":786:795   */\n      dup3\n        /* \"#utility.yul\":777:784   */\n      dup5\n        /* \"#utility.yul\":773:796   */\n      sub\n        /* \"#utility.yul\":769:801   */\n      slt\n        /* \"#utility.yul\":766:885   */\n      iszero\n      tag_69\n      jumpi\n        /* \"#utility.yul\":804:883   */\n      tag_70\n      tag_39\n      jump\t// in\n    tag_70:\n        /* \"#utility.yul\":766:885   */\n    tag_69:\n        /* \"#utility.yul\":924:925   */\n      0x00\n        /* \"#utility.yul\":949:1002   */\n      tag_71\n        /* \"#utility.yul\":994:1001   */\n      dup5\n        /* \"#utility.yul\":985:991   */\n      dup3\n        /* \"#utility.yul\":974:983   */\n      dup6\n        /* \"#utility.yul\":970:992   */\n      add\n        /* \"#utility.yul\":949:1002   */\n      tag_43\n      jump\t// in\n    tag_71:\n        /* \"#utility.yul\":939:1002   */\n      swap2\n      pop\n        /* \"#utility.yul\":895:1012   */\n      pop\n        /* \"#utility.yul\":690:1019   */\n      swap3\n      swap2\n      pop\n      pop\n      jump\t// out\n        /* \"#utility.yul\":1025:1205   */\n    tag_29:\n        /* \"#utility.yul\":1073:1150   */\n      0x4e487b7100000000000000000000000000000000000000000000000000000000\n        /* \"#utility.yul\":1070:1071   */\n      0x00\n        /* \"#utility.yul\":1063:1151   */\n      mstore\n        /* \"#utility.yul\":1170:1174   */\n      0x21\n        /* \"#utility.yul\":1167:1168   */\n      0x04\n        /* \"#utility.yul\":1160:1175   */\n      mstore\n        /* \"#utility.yul\":1194:1198   */\n      0x24\n        /* \"#utility.yul\":1191:1192   */\n      0x00\n        /* \"#utility.yul\":1184:1199   */\n      revert\n        /* \"#utility.yul\":1211:1331   */\n    tag_44:\n        /* \"#utility.yul\":1299:1300   */\n      0x07\n        /* \"#utility.yul\":1292:1297   */\n      dup2\n        /* \"#utility.yul\":1289:1301   */\n      lt\n        /* \"#utility.yul\":1279:1325   */\n      tag_74\n      jumpi\n        /* \"#utility.yul\":1305:1323   */\n      tag_75\n      tag_29\n      jump\t// in\n    tag_75:\n        /* \"#utility.yul\":1279:1325   */\n    tag_74:\n        /* \"#utility.yul\":1211:1331   */\n      pop\n      jump\t// out\n        /* \"#utility.yul\":1337:1478   */\n    tag_45:\n        /* \"#utility.yul\":1389:1396   */\n      0x00\n        /* \"#utility.yul\":1418:1423   */\n      dup2\n        /* \"#utility.yul\":1407:1423   */\n      swap1\n      pop\n        /* \"#utility.yul\":1424:1472   */\n      tag_77\n        /* \"#utility.yul\":1466:1471   */\n      dup3\n        /* \"#utility.yul\":1424:1472   */\n      tag_44\n      jump\t// in\n    tag_77:\n        /* \"#utility.yul\":1337:1478   */\n      swap2\n      swap1\n      pop\n      jump\t// out\n        /* \"#utility.yul\":1484:1625   */\n    tag_46:\n        /* \"#utility.yul\":1547:1556   */\n      0x00\n        /* \"#utility.yul\":1580:1619   */\n      tag_79\n        /* \"#utility.yul\":1613:1618   */\n      dup3\n        /* \"#utility.yul\":1580:1619   */\n      tag_45\n      jump\t// in\n    tag_79:\n        /* \"#utility.yul\":1567:1619   */\n      swap1\n      pop\n        /* \"#utility.yul\":1484:1625   */\n      swap2\n      swap1\n      pop\n      jump\t// out\n        /* \"#utility.yul\":1631:1788   */\n    tag_47:\n        /* \"#utility.yul\":1731:1781   */\n      tag_81\n        /* \"#utility.yul\":1775:1780   */\n      dup2\n        /* \"#utility.yul\":1731:1781   */\n      tag_46\n      jump\t// in\n    tag_81:\n        /* \"#utility.yul\":1726:1729   */\n      dup3\n        /* \"#utility.yul\":1719:1782   */\n      mstore\n        /* \"#utility.yul\":1631:1788   */\n      pop\n      pop\n      jump\t// out\n        /* \"#utility.yul\":1794:2042   */\n    tag_11:\n        /* \"#utility.yul\":1900:1904   */\n      0x00\n        /* \"#utility.yul\":1938:1940   */\n      0x20\n        /* \"#utility.yul\":1927:1936   */\n      dup3\n        /* \"#utility.yul\":1923:1941   */\n      add\n        /* \"#utility.yul\":1915:1941   */\n      swap1\n      pop\n        /* \"#utility.yul\":1951:2035   */\n      tag_83\n        /* \"#utility.yul\":2032:2033   */\n      0x00\n        /* \"#utility.yul\":2021:2030   */\n      dup4\n        /* \"#utility.yul\":2017:2034   */\n      add\n        /* \"#utility.yul\":2008:2014   */\n      dup5\n        /* \"#utility.yul\":1951:2035   */\n      tag_47\n      jump\t// in\n    tag_83:\n        /* \"#utility.yul\":1794:2042   */\n      swap3\n      swap2\n      pop\n      pop\n      jump\t// out\n        /* \"#utility.yul\":2048:2174   */\n    tag_48:\n        /* \"#utility.yul\":2085:2092   */\n      0x00\n        /* \"#utility.yul\":2125:2167   */\n      0xffffffffffffffffffffffffffffffffffffffff\n        /* \"#utility.yul\":2118:2123   */\n      dup3\n        /* \"#utility.yul\":2114:2168   */\n      and\n        /* \"#utility.yul\":2103:2168   */\n      swap1\n      pop\n        /* \"#utility.yul\":2048:2174   */\n      swap2\n      swap1\n      pop\n      jump\t// out\n        /* \"#utility.yul\":2180:2276   */\n    tag_49:\n        /* \"#utility.yul\":2217:2224   */\n      0x00\n        /* \"#utility.yul\":2246:2270   */\n      tag_86\n        /* \"#utility.yul\":2264:2269   */\n      dup3\n        /* \"#utility.yul\":2246:2270   */\n      tag_48\n      jump\t// in\n    tag_86:\n        /* \"#utility.yul\":2235:2270   */\n      swap1\n      pop\n        /* \"#utility.yul\":2180:2276   */\n      swap2\n      swap1\n      pop\n      jump\t// out\n        /* \"#utility.yul\":2282:2404   */\n    tag_50:\n        /* \"#utility.yul\":2355:2379   */\n      tag_88\n        /* \"#utility.yul\":2373:2378   */\n      dup2\n        /* \"#utility.yul\":2355:2379   */\n      tag_49\n      jump\t// in\n    tag_88:\n        /* \"#utility.yul\":2348:2353   */\n      dup2\n        /* \"#utility.yul\":2345:2380   */\n      eq\n        /* \"#utility.yul\":2335:2398   */\n      tag_89\n      jumpi\n        /* \"#utility.yul\":2394:2395   */\n      0x00\n        /* \"#utility.yul\":2391:2392   */\n      dup1\n        /* \"#utility.yul\":2384:2396   */\n      revert\n        /* \"#utility.yul\":2335:2398   */\n    tag_89:\n        /* \"#utility.yul\":2282:2404   */\n      pop\n      jump\t// out\n        /* \"#utility.yul\":2410:2549   */\n    tag_51:\n        /* \"#utility.yul\":2456:2461   */\n      0x00\n        /* \"#utility.yul\":2494:2500   */\n      dup2\n        /* \"#utility.yul\":2481:2501   */\n      calldataload\n        /* \"#utility.yul\":2472:2501   */\n      swap1\n      pop\n        /* \"#utility.yul\":2510:2543   */\n      tag_91\n        /* \"#utility.yul\":2537:2542   */\n      dup2\n        /* \"#utility.yul\":2510:2543   */\n      tag_50\n      jump\t// in\n    tag_91:\n        /* \"#utility.yul\":2410:2549   */\n      swap3\n      swap2\n      pop\n      pop\n      jump\t// out\n        /* \"#utility.yul\":2555:3029   */\n    tag_14:\n        /* \"#utility.yul\":2623:2629   */\n      0x00\n        /* \"#utility.yul\":2631:2637   */\n      dup1\n        /* \"#utility.yul\":2680:2682   */\n      0x40\n        /* \"#utility.yul\":2668:2677   */\n      dup4\n        /* \"#utility.yul\":2659:2666   */\n      dup6\n        /* \"#utility.yul\":2655:2678   */\n      sub\n        /* \"#utility.yul\":2651:2683   */\n      slt\n        /* \"#utility.yul\":2648:2767   */\n      iszero\n      tag_93\n      jumpi\n        /* \"#utility.yul\":2686:2765   */\n      tag_94\n      tag_39\n      jump\t// in\n    tag_94:\n        /* \"#utility.yul\":2648:2767   */\n    tag_93:\n        /* \"#utility.yul\":2806:2807   */\n      0x00\n        /* \"#utility.yul\":2831:2884   */\n      tag_95\n        /* \"#utility.yul\":2876:2883   */\n      dup6\n        /* \"#utility.yul\":2867:2873   */\n      dup3\n        /* \"#utility.yul\":2856:2865   */\n      dup7\n        /* \"#utility.yul\":2852:2874   */\n      add\n        /* \"#utility.yul\":2831:2884   */\n      tag_51\n      jump\t// in\n    tag_95:\n        /* \"#utility.yul\":2821:2884   */\n      swap3\n      pop\n        /* \"#utility.yul\":2777:2894   */\n      pop\n        /* \"#utility.yul\":2933:2935   */\n      0x20\n        /* \"#utility.yul\":2959:3012   */\n      tag_96\n        /* \"#utility.yul\":3004:3011   */\n      dup6\n        /* \"#utility.yul\":2995:3001   */\n      dup3\n        /* \"#utility.yul\":2984:2993   */\n      dup7\n        /* \"#utility.yul\":2980:3002   */\n      add\n        /* \"#utility.yul\":2959:3012   */\n      tag_43\n      jump\t// in\n    tag_96:\n        /* \"#utility.yul\":2949:3012   */\n      swap2\n      pop\n        /* \"#utility.yul\":2904:3022   */\n      pop\n        /* \"#utility.yul\":2555:3029   */\n      swap3\n      pop\n      swap3\n      swap1\n      pop\n      jump\t// out\n        /* \"#utility.yul\":3035:3125   */\n    tag_52:\n        /* \"#utility.yul\":3069:3076   */\n      0x00\n        /* \"#utility.yul\":3112:3117   */\n      dup2\n        /* \"#utility.yul\":3105:3118   */\n      iszero\n        /* \"#utility.yul\":3098:3119   */\n      iszero\n        /* \"#utility.yul\":3087:3119   */\n      swap1\n      pop\n        /* \"#utility.yul\":3035:3125   */\n      swap2\n      swap1\n      pop\n      jump\t// out\n        /* \"#utility.yul\":3131:3240   */\n    tag_53:\n        /* \"#utility.yul\":3212:3233   */\n      tag_99\n        /* \"#utility.yul\":3227:3232   */\n      dup2\n        /* \"#utility.yul\":3212:3233   */\n      tag_52\n      jump\t// in\n    tag_99:\n        /* \"#utility.yul\":3207:3210   */\n      dup3\n        /* \"#utility.yul\":3200:3234   */\n      mstore\n        /* \"#utility.yul\":3131:3240   */\n      pop\n      pop\n      jump\t// out\n        /* \"#utility.yul\":3246:3456   */\n    tag_17:\n        /* \"#utility.yul\":3333:3337   */\n      0x00\n        /* \"#utility.yul\":3371:3373   */\n      0x20\n        /* \"#utility.yul\":3360:3369   */\n      dup3\n        /* \"#utility.yul\":3356:3374   */\n      add\n        /* \"#utility.yul\":3348:3374   */\n      swap1\n      pop\n        /* \"#utility.yul\":3384:3449   */\n      tag_101\n        /* \"#utility.yul\":3446:3447   */\n      0x00\n        /* \"#utility.yul\":3435:3444   */\n      dup4\n        /* \"#utility.yul\":3431:3448   */\n      add\n        /* \"#utility.yul\":3422:3428   */\n      dup5\n        /* \"#utility.yul\":3384:3449   */\n      tag_53\n      jump\t// in\n    tag_101:\n        /* \"#utility.yul\":3246:3456   */\n      swap3\n      swap2\n      pop\n      pop\n      jump\t// out\n        /* \"#utility.yul\":3462:3580   */\n    tag_54:\n        /* \"#utility.yul\":3549:3573   */\n      tag_103\n        /* \"#utility.yul\":3567:3572   */\n      dup2\n        /* \"#utility.yul\":3549:3573   */\n      tag_41\n      jump\t// in\n    tag_103:\n        /* \"#utility.yul\":3544:3547   */\n      dup3\n        /* \"#utility.yul\":3537:3574   */\n      mstore\n        /* \"#utility.yul\":3462:3580   */\n      pop\n      pop\n      jump\t// out\n        /* \"#utility.yul\":3586:3808   */\n    tag_21:\n        /* \"#utility.yul\":3679:3683   */\n      0x00\n        /* \"#utility.yul\":3717:3719   */\n      0x20\n        /* \"#utility.yul\":3706:3715   */\n      dup3\n        /* \"#utility.yul\":3702:3720   */\n      add\n        /* \"#utility.yul\":3694:3720   */\n      swap1\n      pop\n        /* \"#utility.yul\":3730:3801   */\n      tag_105\n        /* \"#utility.yul\":3798:3799   */\n      0x00\n        /* \"#utility.yul\":3787:3796   */\n      dup4\n        /* \"#utility.yul\":3783:3800   */\n      add\n        /* \"#utility.yul\":3774:3780   */\n      dup5\n        /* \"#utility.yul\":3730:3801   */\n      tag_54\n      jump\t// in\n    tag_105:\n        /* \"#utility.yul\":3586:3808   */\n      swap3\n      swap2\n      pop\n      pop\n      jump\t// out\n        /* \"#utility.yul\":3814:3994   */\n    tag_25:\n        /* \"#utility.yul\":3862:3939   */\n      0x4e487b7100000000000000000000000000000000000000000000000000000000\n        /* \"#utility.yul\":3859:3860   */\n      0x00\n        /* \"#utility.yul\":3852:3940   */\n      mstore\n        /* \"#utility.yul\":3959:3963   */\n      0x32\n        /* \"#utility.yul\":3956:3957   */\n      0x04\n        /* \"#utility.yul\":3949:3964   */\n      mstore\n        /* \"#utility.yul\":3983:3987   */\n      0x24\n        /* \"#utility.yul\":3980:3981   */\n      0x00\n        /* \"#utility.yul\":3973:3988   */\n      revert\n        /* \"#utility.yul\":4000:4169   */\n    tag_55:\n        /* \"#utility.yul\":4084:4095   */\n      0x00\n        /* \"#utility.yul\":4118:4124   */\n      dup3\n        /* \"#utility.yul\":4113:4116   */\n      dup3\n        /* \"#utility.yul\":4106:4125   */\n      mstore\n        /* \"#utility.yul\":4158:4162   */\n      0x20\n        /* \"#utility.yul\":4153:4156   */\n      dup3\n        /* \"#utility.yul\":4149:4163   */\n      add\n        /* \"#utility.yul\":4134:4163   */\n      swap1\n      pop\n        /* \"#utility.yul\":4000:4169   */\n      swap3\n      swap2\n      pop\n      pop\n      jump\t// out\n        /* \"#utility.yul\":4175:4335   */\n    tag_56:\n        /* \"#utility.yul\":4315:4327   */\n      0x496e76616c696420494400000000000000000000000000000000000000000000\n        /* \"#utility.yul\":4311:4312   */\n      0x00\n        /* \"#utility.yul\":4303:4309   */\n      dup3\n        /* \"#utility.yul\":4299:4313   */\n      add\n        /* \"#utility.yul\":4292:4328   */\n      mstore\n        /* \"#utility.yul\":4175:4335   */\n      pop\n      jump\t// out\n        /* \"#utility.yul\":4341:4707   */\n    tag_57:\n        /* \"#utility.yul\":4483:4486   */\n      0x00\n        /* \"#utility.yul\":4504:4571   */\n      tag_110\n        /* \"#utility.yul\":4568:4570   */\n      0x0a\n        /* \"#utility.yul\":4563:4566   */\n      dup4\n        /* \"#utility.yul\":4504:4571   */\n      tag_55\n      jump\t// in\n    tag_110:\n        /* \"#utility.yul\":4497:4571   */\n      swap2\n      pop\n        /* \"#utility.yul\":4580:4673   */\n      tag_111\n        /* \"#utility.yul\":4669:4672   */\n      dup3\n        /* \"#utility.yul\":4580:4673   */\n      tag_56\n      jump\t// in\n    tag_111:\n        /* \"#utility.yul\":4698:4700   */\n      0x20\n        /* \"#utility.yul\":4693:4696   */\n      dup3\n        /* \"#utility.yul\":4689:4701   */\n      add\n        /* \"#utility.yul\":4682:4701   */\n      swap1\n      pop\n        /* \"#utility.yul\":4341:4707   */\n      swap2\n      swap1\n      pop\n      jump\t// out\n        /* \"#utility.yul\":4713:5132   */\n    tag_35:\n        /* \"#utility.yul\":4879:4883   */\n      0x00\n        /* \"#utility.yul\":4917:4919   */\n      0x20\n        /* \"#utility.yul\":4906:4915   */\n      dup3\n        /* \"#utility.yul\":4902:4920   */\n      add\n        /* \"#utility.yul\":4894:4920   */\n      swap1\n      pop\n        /* \"#utility.yul\":4966:4975   */\n      dup2\n        /* \"#utility.yul\":4960:4964   */\n      dup2\n        /* \"#utility.yul\":4956:4976   */\n      sub\n        /* \"#utility.yul\":4952:4953   */\n      0x00\n        /* \"#utility.yul\":4941:4950   */\n      dup4\n        /* \"#utility.yul\":4937:4954   */\n      add\n        /* \"#utility.yul\":4930:4977   */\n      mstore\n        /* \"#utility.yul\":4994:5125   */\n      tag_113\n        /* \"#utility.yul\":5120:5124   */\n      dup2\n        /* \"#utility.yul\":4994:5125   */\n      tag_57\n      jump\t// in\n    tag_113:\n        /* \"#utility.yul\":4986:5125   */\n      swap1\n      pop\n        /* \"#utility.yul\":4713:5132   */\n      swap2\n      swap1\n      pop\n      jump\t// out\n\n    auxdata: 0xa2646970667358221220ed1a4cdbac00d7de159618fc98e978f78e5d55db5870bab7e41a931fcee39bb464736f6c63430008110033\n}\n",
				"bytecode": {
					"linkReferences": {},
					"object": "60806040526005600155601e600355603c600455670de0b6b3a7640000600555346006819055506104d0806100356000396000f3fe608060405234801561001057600080fd5b50600436106100415760003560e01c80633e4f49e614610046578063a220e64a14610076578063fb6ff161146100a6575b600080fd5b610060600480360381019061005b9190610231565b6100c4565b60405161006d91906102d5565b60405180910390f35b610090600480360381019061008b919061034e565b6101c1565b60405161009d91906103a9565b60405180910390f35b6100ae6101f0565b6040516100bb91906103d3565b60405180910390f35b600080600083815481106100db576100da6103ee565b5b9060005260206000209060070201905060008160040160009054906101000a900460ff169050600060068111156101155761011461025e565b5b8160068111156101285761012761025e565b5b146101375780925050506101bc565b60008260000154905060008103610183576040517f08c379a000000000000000000000000000000000000000000000000000000000815260040161017a9061047a565b60405180910390fd5b42811061019657600193505050506101bc565b6000836001015490504281106101b35760029450505050506101bc565b60039450505050505b919050565b60026020528160005260406000206020528060005260406000206000915091509054906101000a900460ff1681565b60065481565b600080fd5b6000819050919050565b61020e816101fb565b811461021957600080fd5b50565b60008135905061022b81610205565b92915050565b600060208284031215610247576102466101f6565b5b60006102558482850161021c565b91505092915050565b7f4e487b7100000000000000000000000000000000000000000000000000000000600052602160045260246000fd5b6007811061029e5761029d61025e565b5b50565b60008190506102af8261028d565b919050565b60006102bf826102a1565b9050919050565b6102cf816102b4565b82525050565b60006020820190506102ea60008301846102c6565b92915050565b600073ffffffffffffffffffffffffffffffffffffffff82169050919050565b600061031b826102f0565b9050919050565b61032b81610310565b811461033657600080fd5b50565b60008135905061034881610322565b92915050565b60008060408385031215610365576103646101f6565b5b600061037385828601610339565b92505060206103848582860161021c565b9150509250929050565b60008115159050919050565b6103a38161038e565b82525050565b60006020820190506103be600083018461039a565b92915050565b6103cd816101fb565b82525050565b60006020820190506103e860008301846103c4565b92915050565b7f4e487b7100000000000000000000000000000000000000000000000000000000600052603260045260246000fd5b600082825260208201905092915050565b7f496e76616c696420494400000000000000000000000000000000000000000000600082015250565b6000610464600a8361041d565b915061046f8261042e565b602082019050919050565b6000602082019050818103600083015261049381610457565b905091905056fea2646970667358221220ed1a4cdbac00d7de159618fc98e978f78e5d55db5870bab7e41a931fcee39bb464736f6c63430008110033",
					"opcodes": "PUSH1 0x80 PUSH1 0x40 MSTORE PUSH1 0x5 PUSH1 0x1 SSTORE PUSH1 0x1E PUSH1 0x3 SSTORE PUSH1 0x3C PUSH1 0x4 SSTORE PUSH8 0xDE0B6B3A7640000 PUSH1 0x5 SSTORE CALLVALUE PUSH1 0x6 DUP2 SWAP1 SSTORE POP PUSH2 0x4D0 DUP1 PUSH2 0x35 PUSH1 0x0 CODECOPY PUSH1 0x0 RETURN INVALID PUSH1 0x80 PUSH1 0x40 MSTORE CALLVALUE DUP1 ISZERO PUSH2 0x10 JUMPI PUSH1 0x0 DUP1 REVERT JUMPDEST POP PUSH1 0x4 CALLDATASIZE LT PUSH2 0x41 JUMPI PUSH1 0x0 CALLDATALOAD PUSH1 0xE0 SHR DUP1 PUSH4 0x3E4F49E6 EQ PUSH2 0x46 JUMPI DUP1 PUSH4 0xA220E64A EQ PUSH2 0x76 JUMPI DUP1 PUSH4 0xFB6FF161 EQ PUSH2 0xA6 JUMPI JUMPDEST PUSH1 0x0 DUP1 REVERT JUMPDEST PUSH2 0x60 PUSH1 0x4 DUP1 CALLDATASIZE SUB DUP2 ADD SWAP1 PUSH2 0x5B SWAP2 SWAP1 PUSH2 0x231 JUMP JUMPDEST PUSH2 0xC4 JUMP JUMPDEST PUSH1 0x40 MLOAD PUSH2 0x6D SWAP2 SWAP1 PUSH2 0x2D5 JUMP JUMPDEST PUSH1 0x40 MLOAD DUP1 SWAP2 SUB SWAP1 RETURN JUMPDEST PUSH2 0x90 PUSH1 0x4 DUP1 CALLDATASIZE SUB DUP2 ADD SWAP1 PUSH2 0x8B SWAP2 SWAP1 PUSH2 0x34E JUMP JUMPDEST PUSH2 0x1C1 JUMP JUMPDEST PUSH1 0x40 MLOAD PUSH2 0x9D SWAP2 SWAP1 PUSH2 0x3A9 JUMP JUMPDEST PUSH1 0x40 MLOAD DUP1 SWAP2 SUB SWAP1 RETURN JUMPDEST PUSH2 0xAE PUSH2 0x1F0 JUMP JUMPDEST PUSH1 0x40 MLOAD PUSH2 0xBB SWAP2 SWAP1 PUSH2 0x3D3 JUMP JUMPDEST PUSH1 0x40 MLOAD DUP1 SWAP2 SUB SWAP1 RETURN JUMPDEST PUSH1 0x0 DUP1 PUSH1 0x0 DUP4 DUP2 SLOAD DUP2 LT PUSH2 0xDB JUMPI PUSH2 0xDA PUSH2 0x3EE JUMP JUMPDEST JUMPDEST SWAP1 PUSH1 0x0 MSTORE PUSH1 0x20 PUSH1 0x0 KECCAK256 SWAP1 PUSH1 0x7 MUL ADD SWAP1 POP PUSH1 0x0 DUP2 PUSH1 0x4 ADD PUSH1 0x0 SWAP1 SLOAD SWAP1 PUSH2 0x100 EXP SWAP1 DIV PUSH1 0xFF AND SWAP1 POP PUSH1 0x0 PUSH1 0x6 DUP2 GT ISZERO PUSH2 0x115 JUMPI PUSH2 0x114 PUSH2 0x25E JUMP JUMPDEST JUMPDEST DUP2 PUSH1 0x6 DUP2 GT ISZERO PUSH2 0x128 JUMPI PUSH2 0x127 PUSH2 0x25E JUMP JUMPDEST JUMPDEST EQ PUSH2 0x137 JUMPI DUP1 SWAP3 POP POP POP PUSH2 0x1BC JUMP JUMPDEST PUSH1 0x0 DUP3 PUSH1 0x0 ADD SLOAD SWAP1 POP PUSH1 0x0 DUP2 SUB PUSH2 0x183 JUMPI PUSH1 0x40 MLOAD PUSH32 0x8C379A000000000000000000000000000000000000000000000000000000000 DUP2 MSTORE PUSH1 0x4 ADD PUSH2 0x17A SWAP1 PUSH2 0x47A JUMP JUMPDEST PUSH1 0x40 MLOAD DUP1 SWAP2 SUB SWAP1 REVERT JUMPDEST TIMESTAMP DUP2 LT PUSH2 0x196 JUMPI PUSH1 0x1 SWAP4 POP POP POP POP PUSH2 0x1BC JUMP JUMPDEST PUSH1 0x0 DUP4 PUSH1 0x1 ADD SLOAD SWAP1 POP TIMESTAMP DUP2 LT PUSH2 0x1B3 JUMPI PUSH1 0x2 SWAP5 POP POP POP POP POP PUSH2 0x1BC JUMP JUMPDEST PUSH1 0x3 SWAP5 POP POP POP POP POP JUMPDEST SWAP2 SWAP1 POP JUMP JUMPDEST PUSH1 0x2 PUSH1 0x20 MSTORE DUP2 PUSH1 0x0 MSTORE PUSH1 0x40 PUSH1 0x0 KECCAK256 PUSH1 0x20 MSTORE DUP1 PUSH1 0x0 MSTORE PUSH1 0x40 PUSH1 0x0 KECCAK256 PUSH1 0x0 SWAP2 POP SWAP2 POP SWAP1 SLOAD SWAP1 PUSH2 0x100 EXP SWAP1 DIV PUSH1 0xFF AND DUP2 JUMP JUMPDEST PUSH1 0x6 SLOAD DUP2 JUMP JUMPDEST PUSH1 0x0 DUP1 REVERT JUMPDEST PUSH1 0x0 DUP2 SWAP1 POP SWAP2 SWAP1 POP JUMP JUMPDEST PUSH2 0x20E DUP2 PUSH2 0x1FB JUMP JUMPDEST DUP2 EQ PUSH2 0x219 JUMPI PUSH1 0x0 DUP1 REVERT JUMPDEST POP JUMP JUMPDEST PUSH1 0x0 DUP2 CALLDATALOAD SWAP1 POP PUSH2 0x22B DUP2 PUSH2 0x205 JUMP JUMPDEST SWAP3 SWAP2 POP POP JUMP JUMPDEST PUSH1 0x0 PUSH1 0x20 DUP3 DUP5 SUB SLT ISZERO PUSH2 0x247 JUMPI PUSH2 0x246 PUSH2 0x1F6 JUMP JUMPDEST JUMPDEST PUSH1 0x0 PUSH2 0x255 DUP5 DUP3 DUP6 ADD PUSH2 0x21C JUMP JUMPDEST SWAP2 POP POP SWAP3 SWAP2 POP POP JUMP JUMPDEST PUSH32 0x4E487B7100000000000000000000000000000000000000000000000000000000 PUSH1 0x0 MSTORE PUSH1 0x21 PUSH1 0x4 MSTORE PUSH1 0x24 PUSH1 0x0 REVERT JUMPDEST PUSH1 0x7 DUP2 LT PUSH2 0x29E JUMPI PUSH2 0x29D PUSH2 0x25E JUMP JUMPDEST JUMPDEST POP JUMP JUMPDEST PUSH1 0x0 DUP2 SWAP1 POP PUSH2 0x2AF DUP3 PUSH2 0x28D JUMP JUMPDEST SWAP2 SWAP1 POP JUMP JUMPDEST PUSH1 0x0 PUSH2 0x2BF DUP3 PUSH2 0x2A1 JUMP JUMPDEST SWAP1 POP SWAP2 SWAP1 POP JUMP JUMPDEST PUSH2 0x2CF DUP2 PUSH2 0x2B4 JUMP JUMPDEST DUP3 MSTORE POP POP JUMP JUMPDEST PUSH1 0x0 PUSH1 0x20 DUP3 ADD SWAP1 POP PUSH2 0x2EA PUSH1 0x0 DUP4 ADD DUP5 PUSH2 0x2C6 JUMP JUMPDEST SWAP3 SWAP2 POP POP JUMP JUMPDEST PUSH1 0x0 PUSH20 0xFFFFFFFFFFFFFFFFFFFFFFFFFFFFFFFFFFFFFFFF DUP3 AND SWAP1 POP SWAP2 SWAP1 POP JUMP JUMPDEST PUSH1 0x0 PUSH2 0x31B DUP3 PUSH2 0x2F0 JUMP JUMPDEST SWAP1 POP SWAP2 SWAP1 POP JUMP JUMPDEST PUSH2 0x32B DUP2 PUSH2 0x310 JUMP JUMPDEST DUP2 EQ PUSH2 0x336 JUMPI PUSH1 0x0 DUP1 REVERT JUMPDEST POP JUMP JUMPDEST PUSH1 0x0 DUP2 CALLDATALOAD SWAP1 POP PUSH2 0x348 DUP2 PUSH2 0x322 JUMP JUMPDEST SWAP3 SWAP2 POP POP JUMP JUMPDEST PUSH1 0x0 DUP1 PUSH1 0x40 DUP4 DUP6 SUB SLT ISZERO PUSH2 0x365 JUMPI PUSH2 0x364 PUSH2 0x1F6 JUMP JUMPDEST JUMPDEST PUSH1 0x0 PUSH2 0x373 DUP6 DUP3 DUP7 ADD PUSH2 0x339 JUMP JUMPDEST SWAP3 POP POP PUSH1 0x20 PUSH2 0x384 DUP6 DUP3 DUP7 ADD PUSH2 0x21C JUMP JUMPDEST SWAP2 POP POP SWAP3 POP SWAP3 SWAP1 POP JUMP JUMPDEST PUSH1 0x0 DUP2 ISZERO ISZERO SWAP1 POP SWAP2 SWAP1 POP JUMP JUMPDEST PUSH2 0x3A3 DUP2 PUSH2 0x38E JUMP JUMPDEST DUP3 MSTORE POP POP JUMP JUMPDEST PUSH1 0x0 PUSH1 0x20 DUP3 ADD SWAP1 POP PUSH2 0x3BE PUSH1 0x0 DUP4 ADD DUP5 PUSH2 0x39A JUMP JUMPDEST SWAP3 SWAP2 POP POP JUMP JUMPDEST PUSH2 0x3CD DUP2 PUSH2 0x1FB JUMP JUMPDEST DUP3 MSTORE POP POP JUMP JUMPDEST PUSH1 0x0 PUSH1 0x20 DUP3 ADD SWAP1 POP PUSH2 0x3E8 PUSH1 0x0 DUP4 ADD DUP5 PUSH2 0x3C4 JUMP JUMPDEST SWAP3 SWAP2 POP POP JUMP JUMPDEST PUSH32 0x4E487B7100000000000000000000000000000000000000000000000000000000 PUSH1 0x0 MSTORE PUSH1 0x32 PUSH1 0x4 MSTORE PUSH1 0x24 PUSH1 0x0 REVERT JUMPDEST PUSH1 0x0 DUP3 DUP3 MSTORE PUSH1 0x20 DUP3 ADD SWAP1 POP SWAP3 SWAP2 POP POP JUMP JUMPDEST PUSH32 0x496E76616C696420494400000000000000000000000000000000000000000000 PUSH1 0x0 DUP3 ADD MSTORE POP JUMP JUMPDEST PUSH1 0x0 PUSH2 0x464 PUSH1 0xA DUP4 PUSH2 0x41D JUMP JUMPDEST SWAP2 POP PUSH2 0x46F DUP3 PUSH2 0x42E JUMP JUMPDEST PUSH1 0x20 DUP3 ADD SWAP1 POP SWAP2 SWAP1 POP JUMP JUMPDEST PUSH1 0x0 PUSH1 0x20 DUP3 ADD SWAP1 POP DUP2 DUP2 SUB PUSH1 0x0 DUP4 ADD MSTORE PUSH2 0x493 DUP2 PUSH2 0x457 JUMP JUMPDEST SWAP1 POP SWAP2 SWAP1 POP JUMP INVALID LOG2 PUSH5 0x6970667358 0x22 SLT KECCAK256 0xED BYTE 0x4C 0xDB 0xAC STOP 0xD7 0xDE ISZERO SWAP7 XOR 0xFC SWAP9 0xE9 PUSH25 0xF78E5D55DB5870BAB7E41A931FCEE39BB464736F6C63430008 GT STOP CALLER "
				},
				"gasEstimates": {
					"creation": {
						"codeDepositCost": "246400",
						"executionCost": "110800",
						"totalCost": "357200"
					},
					"external": {
						"availableETH()": "2451",
						"memberHasVoted(address,uint256)": "3087",
						"state(uint256)": "9425"
					}
				},
				"methodIdentifiers": {
					"availableETH()": "fb6ff161",
					"memberHasVoted(address,uint256)": "a220e64a",
					"state(uint256)": "3e4f49e6"
				}
			},
			"storageLayout": {
				"storage": [
					{
						"astId": 37,
						"contract": "bootcamp/week10/day_2_creating_a_DAO_voting.sol:Governance",
						"label": "proposals",
						"offset": 0,
						"slot": "0",
						"type": "t_array(t_struct(ProposalData)33_storage)dyn_storage"
					},
					{
						"astId": 40,
						"contract": "bootcamp/week10/day_2_creating_a_DAO_voting.sol:Governance",
						"label": "quorum",
						"offset": 0,
						"slot": "1",
						"type": "t_uint256"
					},
					{
						"astId": 46,
						"contract": "bootcamp/week10/day_2_creating_a_DAO_voting.sol:Governance",
						"label": "memberHasVoted",
						"offset": 0,
						"slot": "2",
						"type": "t_mapping(t_address,t_mapping(t_uint256,t_bool))"
					},
					{
						"astId": 49,
						"contract": "bootcamp/week10/day_2_creating_a_DAO_voting.sol:Governance",
						"label": "reviewPeriod",
						"offset": 0,
						"slot": "3",
						"type": "t_uint256"
					},
					{
						"astId": 52,
						"contract": "bootcamp/week10/day_2_creating_a_DAO_voting.sol:Governance",
						"label": "votingPeriod",
						"offset": 0,
						"slot": "4",
						"type": "t_uint256"
					},
					{
						"astId": 55,
						"contract": "bootcamp/week10/day_2_creating_a_DAO_voting.sol:Governance",
						"label": "grantAmount",
						"offset": 0,
						"slot": "5",
						"type": "t_uint256"
					},
					{
						"astId": 57,
						"contract": "bootcamp/week10/day_2_creating_a_DAO_voting.sol:Governance",
						"label": "availableETH",
						"offset": 0,
						"slot": "6",
						"type": "t_uint256"
					}
				],
				"types": {
					"t_address": {
						"encoding": "inplace",
						"label": "address",
						"numberOfBytes": "20"
					},
					"t_array(t_struct(ProposalData)33_storage)dyn_storage": {
						"base": "t_struct(ProposalData)33_storage",
						"encoding": "dynamic_array",
						"label": "struct Governance.ProposalData[]",
						"numberOfBytes": "32"
					},
					"t_bool": {
						"encoding": "inplace",
						"label": "bool",
						"numberOfBytes": "1"
					},
					"t_enum(ProposalState)9": {
						"encoding": "inplace",
						"label": "enum Governance.ProposalState",
						"numberOfBytes": "1"
					},
					"t_enum(ProposalType)12": {
						"encoding": "inplace",
						"label": "enum Governance.ProposalType",
						"numberOfBytes": "1"
					},
					"t_mapping(t_address,t_mapping(t_uint256,t_bool))": {
						"encoding": "mapping",
						"key": "t_address",
						"label": "mapping(address => mapping(uint256 => bool))",
						"numberOfBytes": "32",
						"value": "t_mapping(t_uint256,t_bool)"
					},
					"t_mapping(t_uint256,t_bool)": {
						"encoding": "mapping",
						"key": "t_uint256",
						"label": "mapping(uint256 => bool)",
						"numberOfBytes": "32",
						"value": "t_bool"
					},
					"t_struct(ProposalData)33_storage": {
						"encoding": "inplace",
						"label": "struct Governance.ProposalData",
						"members": [
							{
								"astId": 14,
								"contract": "bootcamp/week10/day_2_creating_a_DAO_voting.sol:Governance",
								"label": "voteBegins",
								"offset": 0,
								"slot": "0",
								"type": "t_uint256"
							},
							{
								"astId": 16,
								"contract": "bootcamp/week10/day_2_creating_a_DAO_voting.sol:Governance",
								"label": "voteEnds",
								"offset": 0,
								"slot": "1",
								"type": "t_uint256"
							},
							{
								"astId": 18,
								"contract": "bootcamp/week10/day_2_creating_a_DAO_voting.sol:Governance",
								"label": "votesFor",
								"offset": 0,
								"slot": "2",
								"type": "t_uint256"
							},
							{
								"astId": 20,
								"contract": "bootcamp/week10/day_2_creating_a_DAO_voting.sol:Governance",
								"label": "votesAgainst",
								"offset": 0,
								"slot": "3",
								"type": "t_uint256"
							},
							{
								"astId": 23,
								"contract": "bootcamp/week10/day_2_creating_a_DAO_voting.sol:Governance",
								"label": "propState",
								"offset": 0,
								"slot": "4",
								"type": "t_enum(ProposalState)9"
							},
							{
								"astId": 26,
								"contract": "bootcamp/week10/day_2_creating_a_DAO_voting.sol:Governance",
								"label": "propType",
								"offset": 1,
								"slot": "4",
								"type": "t_enum(ProposalType)12"
							},
							{
								"astId": 28,
								"contract": "bootcamp/week10/day_2_creating_a_DAO_voting.sol:Governance",
								"label": "recepient",
								"offset": 2,
								"slot": "4",
								"type": "t_address"
							},
							{
								"astId": 30,
								"contract": "bootcamp/week10/day_2_creating_a_DAO_voting.sol:Governance",
								"label": "ethGrant",
								"offset": 0,
								"slot": "5",
								"type": "t_uint256"
							},
							{
								"astId": 32,
								"contract": "bootcamp/week10/day_2_creating_a_DAO_voting.sol:Governance",
								"label": "newETHGrant",
								"offset": 0,
								"slot": "6",
								"type": "t_uint256"
							}
						],
						"numberOfBytes": "224"
					},
					"t_uint256": {
						"encoding": "inplace",
						"label": "uint256",
						"numberOfBytes": "32"
					}
				}
			},
			"userdoc": {
				"kind": "user",
				"methods": {},
				"version": 1
			}
		}
	}
}