{
	"FreeCodeCamp/StorageFactory.sol": {
		"StorageFactory": {
			"abi": [
				{
					"inputs": [],
					"name": "createSimpleStorageContract",
					"outputs": [],
					"stateMutability": "nonpayable",
					"type": "function"
				},
				{
					"inputs": [
						{
							"internalType": "uint256",
							"name": "",
							"type": "uint256"
						}
					],
					"name": "simpleStorageArray",
					"outputs": [
						{
							"internalType": "contract SimpleStorage",
							"name": "",
							"type": "address"
						}
					],
					"stateMutability": "view",
					"type": "function"
				}
			],
			"devdoc": {
				"kind": "dev",
				"methods": {},
				"version": 1
			},
			"evm": {
				"assembly": "    /* \"FreeCodeCamp/StorageFactory.sol\":89:577  contract StorageFactory {... */\n  mstore(0x40, 0x80)\n  callvalue\n  dup1\n  iszero\n  tag_1\n  jumpi\n  0x00\n  dup1\n  revert\ntag_1:\n  pop\n  dataSize(sub_0)\n  dup1\n  dataOffset(sub_0)\n  0x00\n  codecopy\n  0x00\n  return\nstop\n\nsub_0: assembly {\n        /* \"FreeCodeCamp/StorageFactory.sol\":89:577  contract StorageFactory {... */\n      mstore(0x40, 0x80)\n      callvalue\n      dup1\n      iszero\n      tag_1\n      jumpi\n      0x00\n      dup1\n      revert\n    tag_1:\n      pop\n      jumpi(tag_2, lt(calldatasize, 0x04))\n      shr(0xe0, calldataload(0x00))\n      dup1\n      0x1dda6541\n      eq\n      tag_3\n      jumpi\n      dup1\n      0x64591bf1\n      eq\n      tag_4\n      jumpi\n    tag_2:\n      0x00\n      dup1\n      revert\n        /* \"FreeCodeCamp/StorageFactory.sol\":265:575  function createSimpleStorageContract() public {... */\n    tag_3:\n      tag_5\n      tag_6\n      jump\t// in\n    tag_5:\n      stop\n        /* \"FreeCodeCamp/StorageFactory.sol\":155:196  SimpleStorage[] public simpleStorageArray */\n    tag_4:\n      tag_7\n      0x04\n      dup1\n      calldatasize\n      sub\n      dup2\n      add\n      swap1\n      tag_8\n      swap2\n      swap1\n      tag_9\n      jump\t// in\n    tag_8:\n      tag_10\n      jump\t// in\n    tag_7:\n      mload(0x40)\n      tag_11\n      swap2\n      swap1\n      tag_12\n      jump\t// in\n    tag_11:\n      mload(0x40)\n      dup1\n      swap2\n      sub\n      swap1\n      return\n        /* \"FreeCodeCamp/StorageFactory.sol\":265:575  function createSimpleStorageContract() public {... */\n    tag_6:\n        /* \"FreeCodeCamp/StorageFactory.sol\":403:430  SimpleStorage simpleStorage */\n      0x00\n        /* \"FreeCodeCamp/StorageFactory.sol\":433:452  new SimpleStorage() */\n      mload(0x40)\n      tag_14\n      swap1\n      tag_15\n      jump\t// in\n    tag_14:\n      mload(0x40)\n      dup1\n      swap2\n      sub\n      swap1\n      0x00\n      create\n      dup1\n      iszero\n      dup1\n      iszero\n      tag_16\n      jumpi\n      returndatasize\n      0x00\n      dup1\n      returndatacopy\n      revert(0x00, returndatasize)\n    tag_16:\n      pop\n        /* \"FreeCodeCamp/StorageFactory.sol\":403:452  SimpleStorage simpleStorage = new SimpleStorage() */\n      swap1\n      pop\n        /* \"FreeCodeCamp/StorageFactory.sol\":530:548  simpleStorageArray */\n      0x00\n        /* \"FreeCodeCamp/StorageFactory.sol\":554:567  simpleStorage */\n      dup2\n        /* \"FreeCodeCamp/StorageFactory.sol\":530:568  simpleStorageArray.push(simpleStorage) */\n      swap1\n      dup1\n      0x01\n      dup2\n      sload\n      add\n      dup1\n      dup3\n      sstore\n      dup1\n      swap2\n      pop\n      pop\n      0x01\n      swap1\n      sub\n      swap1\n      0x00\n      mstore\n      keccak256(0x00, 0x20)\n      add\n      0x00\n      swap1\n      swap2\n      swap1\n      swap2\n      swap1\n      swap2\n      0x0100\n      exp\n      dup2\n      sload\n      dup2\n      0xffffffffffffffffffffffffffffffffffffffff\n      mul\n      not\n      and\n      swap1\n      dup4\n      0xffffffffffffffffffffffffffffffffffffffff\n      and\n      mul\n      or\n      swap1\n      sstore\n      pop\n        /* \"FreeCodeCamp/StorageFactory.sol\":311:575  {... */\n      pop\n        /* \"FreeCodeCamp/StorageFactory.sol\":265:575  function createSimpleStorageContract() public {... */\n      jump\t// out\n        /* \"FreeCodeCamp/StorageFactory.sol\":155:196  SimpleStorage[] public simpleStorageArray */\n    tag_10:\n      0x00\n      dup2\n      dup2\n      sload\n      dup2\n      lt\n      tag_18\n      jumpi\n      0x00\n      dup1\n      revert\n    tag_18:\n      swap1\n      0x00\n      mstore\n      keccak256(0x00, 0x20)\n      add\n      0x00\n      swap2\n      pop\n      sload\n      swap1\n      0x0100\n      exp\n      swap1\n      div\n      0xffffffffffffffffffffffffffffffffffffffff\n      and\n      dup2\n      jump\t// out\n    tag_15:\n      dataSize(sub_0)\n      dup1\n      dataOffset(sub_0)\n      dup4\n      codecopy\n      add\n      swap1\n      jump\t// out\n        /* \"#utility.yul\":88:205   */\n    tag_21:\n        /* \"#utility.yul\":197:198   */\n      0x00\n        /* \"#utility.yul\":194:195   */\n      dup1\n        /* \"#utility.yul\":187:199   */\n      revert\n        /* \"#utility.yul\":334:411   */\n    tag_23:\n        /* \"#utility.yul\":371:378   */\n      0x00\n        /* \"#utility.yul\":400:405   */\n      dup2\n        /* \"#utility.yul\":389:405   */\n      swap1\n      pop\n        /* \"#utility.yul\":334:411   */\n      swap2\n      swap1\n      pop\n      jump\t// out\n        /* \"#utility.yul\":417:539   */\n    tag_24:\n        /* \"#utility.yul\":490:514   */\n      tag_38\n        /* \"#utility.yul\":508:513   */\n      dup2\n        /* \"#utility.yul\":490:514   */\n      tag_23\n      jump\t// in\n    tag_38:\n        /* \"#utility.yul\":483:488   */\n      dup2\n        /* \"#utility.yul\":480:515   */\n      eq\n        /* \"#utility.yul\":470:533   */\n      tag_39\n      jumpi\n        /* \"#utility.yul\":529:530   */\n      0x00\n        /* \"#utility.yul\":526:527   */\n      dup1\n        /* \"#utility.yul\":519:531   */\n      revert\n        /* \"#utility.yul\":470:533   */\n    tag_39:\n        /* \"#utility.yul\":417:539   */\n      pop\n      jump\t// out\n        /* \"#utility.yul\":545:684   */\n    tag_25:\n        /* \"#utility.yul\":591:596   */\n      0x00\n        /* \"#utility.yul\":629:635   */\n      dup2\n        /* \"#utility.yul\":616:636   */\n      calldataload\n        /* \"#utility.yul\":607:636   */\n      swap1\n      pop\n        /* \"#utility.yul\":645:678   */\n      tag_41\n        /* \"#utility.yul\":672:677   */\n      dup2\n        /* \"#utility.yul\":645:678   */\n      tag_24\n      jump\t// in\n    tag_41:\n        /* \"#utility.yul\":545:684   */\n      swap3\n      swap2\n      pop\n      pop\n      jump\t// out\n        /* \"#utility.yul\":690:1019   */\n    tag_9:\n        /* \"#utility.yul\":749:755   */\n      0x00\n        /* \"#utility.yul\":798:800   */\n      0x20\n        /* \"#utility.yul\":786:795   */\n      dup3\n        /* \"#utility.yul\":777:784   */\n      dup5\n        /* \"#utility.yul\":773:796   */\n      sub\n        /* \"#utility.yul\":769:801   */\n      slt\n        /* \"#utility.yul\":766:885   */\n      iszero\n      tag_43\n      jumpi\n        /* \"#utility.yul\":804:883   */\n      tag_44\n      tag_21\n      jump\t// in\n    tag_44:\n        /* \"#utility.yul\":766:885   */\n    tag_43:\n        /* \"#utility.yul\":924:925   */\n      0x00\n        /* \"#utility.yul\":949:1002   */\n      tag_45\n        /* \"#utility.yul\":994:1001   */\n      dup5\n        /* \"#utility.yul\":985:991   */\n      dup3\n        /* \"#utility.yul\":974:983   */\n      dup6\n        /* \"#utility.yul\":970:992   */\n      add\n        /* \"#utility.yul\":949:1002   */\n      tag_25\n      jump\t// in\n    tag_45:\n        /* \"#utility.yul\":939:1002   */\n      swap2\n      pop\n        /* \"#utility.yul\":895:1012   */\n      pop\n        /* \"#utility.yul\":690:1019   */\n      swap3\n      swap2\n      pop\n      pop\n      jump\t// out\n        /* \"#utility.yul\":1025:1151   */\n    tag_26:\n        /* \"#utility.yul\":1062:1069   */\n      0x00\n        /* \"#utility.yul\":1102:1144   */\n      0xffffffffffffffffffffffffffffffffffffffff\n        /* \"#utility.yul\":1095:1100   */\n      dup3\n        /* \"#utility.yul\":1091:1145   */\n      and\n        /* \"#utility.yul\":1080:1145   */\n      swap1\n      pop\n        /* \"#utility.yul\":1025:1151   */\n      swap2\n      swap1\n      pop\n      jump\t// out\n        /* \"#utility.yul\":1157:1217   */\n    tag_27:\n        /* \"#utility.yul\":1185:1188   */\n      0x00\n        /* \"#utility.yul\":1206:1211   */\n      dup2\n        /* \"#utility.yul\":1199:1211   */\n      swap1\n      pop\n        /* \"#utility.yul\":1157:1217   */\n      swap2\n      swap1\n      pop\n      jump\t// out\n        /* \"#utility.yul\":1223:1365   */\n    tag_28:\n        /* \"#utility.yul\":1273:1282   */\n      0x00\n        /* \"#utility.yul\":1306:1359   */\n      tag_49\n        /* \"#utility.yul\":1324:1358   */\n      tag_50\n        /* \"#utility.yul\":1333:1357   */\n      tag_51\n        /* \"#utility.yul\":1351:1356   */\n      dup5\n        /* \"#utility.yul\":1333:1357   */\n      tag_26\n      jump\t// in\n    tag_51:\n        /* \"#utility.yul\":1324:1358   */\n      tag_27\n      jump\t// in\n    tag_50:\n        /* \"#utility.yul\":1306:1359   */\n      tag_26\n      jump\t// in\n    tag_49:\n        /* \"#utility.yul\":1293:1359   */\n      swap1\n      pop\n        /* \"#utility.yul\":1223:1365   */\n      swap2\n      swap1\n      pop\n      jump\t// out\n        /* \"#utility.yul\":1371:1497   */\n    tag_29:\n        /* \"#utility.yul\":1421:1430   */\n      0x00\n        /* \"#utility.yul\":1454:1491   */\n      tag_53\n        /* \"#utility.yul\":1485:1490   */\n      dup3\n        /* \"#utility.yul\":1454:1491   */\n      tag_28\n      jump\t// in\n    tag_53:\n        /* \"#utility.yul\":1441:1491   */\n      swap1\n      pop\n        /* \"#utility.yul\":1371:1497   */\n      swap2\n      swap1\n      pop\n      jump\t// out\n        /* \"#utility.yul\":1503:1649   */\n    tag_30:\n        /* \"#utility.yul\":1573:1582   */\n      0x00\n        /* \"#utility.yul\":1606:1643   */\n      tag_55\n        /* \"#utility.yul\":1637:1642   */\n      dup3\n        /* \"#utility.yul\":1606:1643   */\n      tag_29\n      jump\t// in\n    tag_55:\n        /* \"#utility.yul\":1593:1643   */\n      swap1\n      pop\n        /* \"#utility.yul\":1503:1649   */\n      swap2\n      swap1\n      pop\n      jump\t// out\n        /* \"#utility.yul\":1655:1826   */\n    tag_31:\n        /* \"#utility.yul\":1762:1819   */\n      tag_57\n        /* \"#utility.yul\":1813:1818   */\n      dup2\n        /* \"#utility.yul\":1762:1819   */\n      tag_30\n      jump\t// in\n    tag_57:\n        /* \"#utility.yul\":1757:1760   */\n      dup3\n        /* \"#utility.yul\":1750:1820   */\n      mstore\n        /* \"#utility.yul\":1655:1826   */\n      pop\n      pop\n      jump\t// out\n        /* \"#utility.yul\":1832:2094   */\n    tag_12:\n        /* \"#utility.yul\":1945:1949   */\n      0x00\n        /* \"#utility.yul\":1983:1985   */\n      0x20\n        /* \"#utility.yul\":1972:1981   */\n      dup3\n        /* \"#utility.yul\":1968:1986   */\n      add\n        /* \"#utility.yul\":1960:1986   */\n      swap1\n      pop\n        /* \"#utility.yul\":1996:2087   */\n      tag_59\n        /* \"#utility.yul\":2084:2085   */\n      0x00\n        /* \"#utility.yul\":2073:2082   */\n      dup4\n        /* \"#utility.yul\":2069:2086   */\n      add\n        /* \"#utility.yul\":2060:2066   */\n      dup5\n        /* \"#utility.yul\":1996:2087   */\n      tag_31\n      jump\t// in\n    tag_59:\n        /* \"#utility.yul\":1832:2094   */\n      swap3\n      swap2\n      pop\n      pop\n      jump\t// out\n    stop\n\n    sub_0: assembly {\n            /* \"FreeCodeCamp/SimpleStorage.sol\":58:616  contract SimpleStorage {... */\n          mstore(0x40, 0x80)\n          callvalue\n          dup1\n          iszero\n          tag_1\n          jumpi\n          0x00\n          dup1\n          revert\n        tag_1:\n          pop\n          dataSize(sub_0)\n          dup1\n          dataOffset(sub_0)\n          0x00\n          codecopy\n          0x00\n          return\n        stop\n\n        sub_0: assembly {\n                /* \"FreeCodeCamp/SimpleStorage.sol\":58:616  contract SimpleStorage {... */\n              mstore(0x40, 0x80)\n              callvalue\n              dup1\n              iszero\n              tag_1\n              jumpi\n              0x00\n              dup1\n              revert\n            tag_1:\n              pop\n              jumpi(tag_2, lt(calldatasize, 0x04))\n              shr(0xe0, calldataload(0x00))\n              dup1\n              0x246982c4\n              eq\n              tag_3\n              jumpi\n              dup1\n              0x8bab8dd5\n              eq\n              tag_4\n              jumpi\n              dup1\n              0x9e7a13ad\n              eq\n              tag_5\n              jumpi\n              dup1\n              0xbc832d4e\n              eq\n              tag_6\n              jumpi\n            tag_2:\n              0x00\n              dup1\n              revert\n                /* \"FreeCodeCamp/SimpleStorage.sol\":477:614  function getPerson(uint x) public view returns(uint256, string memory) {... */\n            tag_3:\n              tag_7\n              0x04\n              dup1\n              calldatasize\n              sub\n              dup2\n              add\n              swap1\n              tag_8\n              swap2\n              swap1\n              tag_9\n              jump\t// in\n            tag_8:\n              tag_10\n              jump\t// in\n            tag_7:\n              mload(0x40)\n              tag_11\n              swap3\n              swap2\n              swap1\n              tag_12\n              jump\t// in\n            tag_11:\n              mload(0x40)\n              dup1\n              swap2\n              sub\n              swap1\n              return\n                /* \"FreeCodeCamp/SimpleStorage.sol\":114:168  mapping(string => uint256) public nameToFavoriteNumber */\n            tag_4:\n              tag_13\n              0x04\n              dup1\n              calldatasize\n              sub\n              dup2\n              add\n              swap1\n              tag_14\n              swap2\n              swap1\n              tag_15\n              jump\t// in\n            tag_14:\n              tag_16\n              jump\t// in\n            tag_13:\n              mload(0x40)\n              tag_17\n              swap2\n              swap1\n              tag_18\n              jump\t// in\n            tag_17:\n              mload(0x40)\n              dup1\n              swap2\n              sub\n              swap1\n              return\n                /* \"FreeCodeCamp/SimpleStorage.sol\":255:277  People[] public people */\n            tag_5:\n              tag_19\n              0x04\n              dup1\n              calldatasize\n              sub\n              dup2\n              add\n              swap1\n              tag_20\n              swap2\n              swap1\n              tag_9\n              jump\t// in\n            tag_20:\n              tag_21\n              jump\t// in\n            tag_19:\n              mload(0x40)\n              tag_22\n              swap3\n              swap2\n              swap1\n              tag_12\n              jump\t// in\n            tag_22:\n              mload(0x40)\n              dup1\n              swap2\n              sub\n              swap1\n              return\n                /* \"FreeCodeCamp/SimpleStorage.sol\":284:471  function addPerson(uint256 _favoriteNumber, string memory _name) public {... */\n            tag_6:\n              tag_23\n              0x04\n              dup1\n              calldatasize\n              sub\n              dup2\n              add\n              swap1\n              tag_24\n              swap2\n              swap1\n              tag_25\n              jump\t// in\n            tag_24:\n              tag_26\n              jump\t// in\n            tag_23:\n              stop\n                /* \"FreeCodeCamp/SimpleStorage.sol\":477:614  function getPerson(uint x) public view returns(uint256, string memory) {... */\n            tag_10:\n                /* \"FreeCodeCamp/SimpleStorage.sol\":524:531  uint256 */\n              0x00\n                /* \"FreeCodeCamp/SimpleStorage.sol\":533:546  string memory */\n              0x60\n                /* \"FreeCodeCamp/SimpleStorage.sol\":566:572  people */\n              0x02\n                /* \"FreeCodeCamp/SimpleStorage.sol\":573:574  x */\n              dup4\n                /* \"FreeCodeCamp/SimpleStorage.sol\":566:575  people[x] */\n              dup2\n              sload\n              dup2\n              lt\n              tag_28\n              jumpi\n              tag_29\n              tag_30\n              jump\t// in\n            tag_29:\n            tag_28:\n              swap1\n              0x00\n              mstore\n              keccak256(0x00, 0x20)\n              swap1\n              0x02\n              mul\n              add\n                /* \"FreeCodeCamp/SimpleStorage.sol\":566:590  people[x].favoriteNumber */\n              0x00\n              add\n              sload\n                /* \"FreeCodeCamp/SimpleStorage.sol\":592:598  people */\n              0x02\n                /* \"FreeCodeCamp/SimpleStorage.sol\":599:600  x */\n              dup5\n                /* \"FreeCodeCamp/SimpleStorage.sol\":592:601  people[x] */\n              dup2\n              sload\n              dup2\n              lt\n              tag_32\n              jumpi\n              tag_33\n              tag_30\n              jump\t// in\n            tag_33:\n            tag_32:\n              swap1\n              0x00\n              mstore\n              keccak256(0x00, 0x20)\n              swap1\n              0x02\n              mul\n              add\n                /* \"FreeCodeCamp/SimpleStorage.sol\":592:606  people[x].name */\n              0x01\n              add\n                /* \"FreeCodeCamp/SimpleStorage.sol\":558:607  return (people[x].favoriteNumber, people[x].name) */\n              dup1\n              dup1\n              sload\n              tag_35\n              swap1\n              tag_36\n              jump\t// in\n            tag_35:\n              dup1\n              0x1f\n              add\n              0x20\n              dup1\n              swap2\n              div\n              mul\n              0x20\n              add\n              mload(0x40)\n              swap1\n              dup2\n              add\n              0x40\n              mstore\n              dup1\n              swap3\n              swap2\n              swap1\n              dup2\n              dup2\n              mstore\n              0x20\n              add\n              dup3\n              dup1\n              sload\n              tag_37\n              swap1\n              tag_36\n              jump\t// in\n            tag_37:\n              dup1\n              iszero\n              tag_38\n              jumpi\n              dup1\n              0x1f\n              lt\n              tag_39\n              jumpi\n              0x0100\n              dup1\n              dup4\n              sload\n              div\n              mul\n              dup4\n              mstore\n              swap2\n              0x20\n              add\n              swap2\n              jump(tag_38)\n            tag_39:\n              dup3\n              add\n              swap2\n              swap1\n              0x00\n              mstore\n              keccak256(0x00, 0x20)\n              swap1\n            tag_40:\n              dup2\n              sload\n              dup2\n              mstore\n              swap1\n              0x01\n              add\n              swap1\n              0x20\n              add\n              dup1\n              dup4\n              gt\n              tag_40\n              jumpi\n              dup3\n              swap1\n              sub\n              0x1f\n              and\n              dup3\n              add\n              swap2\n            tag_38:\n              pop\n              pop\n              pop\n              pop\n              pop\n              swap1\n              pop\n              swap2\n              pop\n              swap2\n              pop\n                /* \"FreeCodeCamp/SimpleStorage.sol\":477:614  function getPerson(uint x) public view returns(uint256, string memory) {... */\n              swap2\n              pop\n              swap2\n              jump\t// out\n                /* \"FreeCodeCamp/SimpleStorage.sol\":114:168  mapping(string => uint256) public nameToFavoriteNumber */\n            tag_16:\n              0x01\n              dup2\n              dup1\n              mload\n              0x20\n              dup2\n              add\n              dup3\n              add\n              dup1\n              mload\n              dup5\n              dup3\n              mstore\n              0x20\n              dup4\n              add\n              0x20\n              dup6\n              add\n              keccak256\n              dup2\n              dup4\n              mstore\n              dup1\n              swap6\n              pop\n              pop\n              pop\n              pop\n              pop\n              pop\n              0x00\n              swap2\n              pop\n              swap1\n              pop\n              sload\n              dup2\n              jump\t// out\n                /* \"FreeCodeCamp/SimpleStorage.sol\":255:277  People[] public people */\n            tag_21:\n              0x02\n              dup2\n              dup2\n              sload\n              dup2\n              lt\n              tag_41\n              jumpi\n              0x00\n              dup1\n              revert\n            tag_41:\n              swap1\n              0x00\n              mstore\n              keccak256(0x00, 0x20)\n              swap1\n              0x02\n              mul\n              add\n              0x00\n              swap2\n              pop\n              swap1\n              pop\n              dup1\n              0x00\n              add\n              sload\n              swap1\n              dup1\n              0x01\n              add\n              dup1\n              sload\n              tag_43\n              swap1\n              tag_36\n              jump\t// in\n            tag_43:\n              dup1\n              0x1f\n              add\n              0x20\n              dup1\n              swap2\n              div\n              mul\n              0x20\n              add\n              mload(0x40)\n              swap1\n              dup2\n              add\n              0x40\n              mstore\n              dup1\n              swap3\n              swap2\n              swap1\n              dup2\n              dup2\n              mstore\n              0x20\n              add\n              dup3\n              dup1\n              sload\n              tag_44\n              swap1\n              tag_36\n              jump\t// in\n            tag_44:\n              dup1\n              iszero\n              tag_45\n              jumpi\n              dup1\n              0x1f\n              lt\n              tag_46\n              jumpi\n              0x0100\n              dup1\n              dup4\n              sload\n              div\n              mul\n              dup4\n              mstore\n              swap2\n              0x20\n              add\n              swap2\n              jump(tag_45)\n            tag_46:\n              dup3\n              add\n              swap2\n              swap1\n              0x00\n              mstore\n              keccak256(0x00, 0x20)\n              swap1\n            tag_47:\n              dup2\n              sload\n              dup2\n              mstore\n              swap1\n              0x01\n              add\n              swap1\n              0x20\n              add\n              dup1\n              dup4\n              gt\n              tag_47\n              jumpi\n              dup3\n              swap1\n              sub\n              0x1f\n              and\n              dup3\n              add\n              swap2\n            tag_45:\n              pop\n              pop\n              pop\n              pop\n              pop\n              swap1\n              pop\n              dup3\n              jump\t// out\n                /* \"FreeCodeCamp/SimpleStorage.sol\":284:471  function addPerson(uint256 _favoriteNumber, string memory _name) public {... */\n            tag_26:\n                /* \"FreeCodeCamp/SimpleStorage.sol\":366:372  people */\n              0x02\n                /* \"FreeCodeCamp/SimpleStorage.sol\":378:408  People(_favoriteNumber, _name) */\n              mload(0x40)\n              dup1\n              0x40\n              add\n              0x40\n              mstore\n              dup1\n                /* \"FreeCodeCamp/SimpleStorage.sol\":385:400  _favoriteNumber */\n              dup5\n                /* \"FreeCodeCamp/SimpleStorage.sol\":378:408  People(_favoriteNumber, _name) */\n              dup2\n              mstore\n              0x20\n              add\n                /* \"FreeCodeCamp/SimpleStorage.sol\":402:407  _name */\n              dup4\n                /* \"FreeCodeCamp/SimpleStorage.sol\":378:408  People(_favoriteNumber, _name) */\n              dup2\n              mstore\n              pop\n                /* \"FreeCodeCamp/SimpleStorage.sol\":366:409  people.push(People(_favoriteNumber, _name)) */\n              swap1\n              dup1\n              0x01\n              dup2\n              sload\n              add\n              dup1\n              dup3\n              sstore\n              dup1\n              swap2\n              pop\n              pop\n              0x01\n              swap1\n              sub\n              swap1\n              0x00\n              mstore\n              keccak256(0x00, 0x20)\n              swap1\n              0x02\n              mul\n              add\n              0x00\n              swap1\n              swap2\n              swap1\n              swap2\n              swap1\n              swap2\n              pop\n              0x00\n              dup3\n              add\n              mload\n              dup2\n              0x00\n              add\n              sstore\n              0x20\n              dup3\n              add\n              mload\n              dup2\n              0x01\n              add\n              swap1\n              dup1\n              mload\n              swap1\n              0x20\n              add\n              swap1\n              tag_50\n              swap3\n              swap2\n              swap1\n              tag_51\n              jump\t// in\n            tag_50:\n              pop\n              pop\n              pop\n                /* \"FreeCodeCamp/SimpleStorage.sol\":449:464  _favoriteNumber */\n              dup2\n                /* \"FreeCodeCamp/SimpleStorage.sol\":419:439  nameToFavoriteNumber */\n              0x01\n                /* \"FreeCodeCamp/SimpleStorage.sol\":440:445  _name */\n              dup3\n                /* \"FreeCodeCamp/SimpleStorage.sol\":419:446  nameToFavoriteNumber[_name] */\n              mload(0x40)\n              tag_52\n              swap2\n              swap1\n              tag_53\n              jump\t// in\n            tag_52:\n              swap1\n              dup2\n              mstore\n              0x20\n              add\n              mload(0x40)\n              dup1\n              swap2\n              sub\n              swap1\n              keccak256\n                /* \"FreeCodeCamp/SimpleStorage.sol\":419:464  nameToFavoriteNumber[_name] = _favoriteNumber */\n              dup2\n              swap1\n              sstore\n              pop\n                /* \"FreeCodeCamp/SimpleStorage.sol\":284:471  function addPerson(uint256 _favoriteNumber, string memory _name) public {... */\n              pop\n              pop\n              jump\t// out\n            tag_51:\n              dup3\n              dup1\n              sload\n              tag_54\n              swap1\n              tag_36\n              jump\t// in\n            tag_54:\n              swap1\n              0x00\n              mstore\n              keccak256(0x00, 0x20)\n              swap1\n              0x1f\n              add\n              0x20\n              swap1\n              div\n              dup2\n              add\n              swap3\n              dup3\n              tag_56\n              jumpi\n              0x00\n              dup6\n              sstore\n              jump(tag_55)\n            tag_56:\n              dup3\n              0x1f\n              lt\n              tag_57\n              jumpi\n              dup1\n              mload\n              not(0xff)\n              and\n              dup4\n              dup1\n              add\n              or\n              dup6\n              sstore\n              jump(tag_55)\n            tag_57:\n              dup3\n              dup1\n              add\n              0x01\n              add\n              dup6\n              sstore\n              dup3\n              iszero\n              tag_55\n              jumpi\n              swap2\n              dup3\n              add\n            tag_58:\n              dup3\n              dup2\n              gt\n              iszero\n              tag_59\n              jumpi\n              dup3\n              mload\n              dup3\n              sstore\n              swap2\n              0x20\n              add\n              swap2\n              swap1\n              0x01\n              add\n              swap1\n              jump(tag_58)\n            tag_59:\n            tag_55:\n              pop\n              swap1\n              pop\n              tag_60\n              swap2\n              swap1\n              tag_61\n              jump\t// in\n            tag_60:\n              pop\n              swap1\n              jump\t// out\n            tag_61:\n            tag_62:\n              dup1\n              dup3\n              gt\n              iszero\n              tag_63\n              jumpi\n              0x00\n              dup2\n              0x00\n              swap1\n              sstore\n              pop\n              0x01\n              add\n              jump(tag_62)\n            tag_63:\n              pop\n              swap1\n              jump\t// out\n                /* \"#utility.yul\":7:82   */\n            tag_64:\n                /* \"#utility.yul\":40:46   */\n              0x00\n                /* \"#utility.yul\":73:75   */\n              0x40\n                /* \"#utility.yul\":67:76   */\n              mload\n                /* \"#utility.yul\":57:76   */\n              swap1\n              pop\n                /* \"#utility.yul\":7:82   */\n              swap1\n              jump\t// out\n                /* \"#utility.yul\":88:205   */\n            tag_65:\n                /* \"#utility.yul\":197:198   */\n              0x00\n                /* \"#utility.yul\":194:195   */\n              dup1\n                /* \"#utility.yul\":187:199   */\n              revert\n                /* \"#utility.yul\":211:328   */\n            tag_66:\n                /* \"#utility.yul\":320:321   */\n              0x00\n                /* \"#utility.yul\":317:318   */\n              dup1\n                /* \"#utility.yul\":310:322   */\n              revert\n                /* \"#utility.yul\":334:411   */\n            tag_67:\n                /* \"#utility.yul\":371:378   */\n              0x00\n                /* \"#utility.yul\":400:405   */\n              dup2\n                /* \"#utility.yul\":389:405   */\n              swap1\n              pop\n                /* \"#utility.yul\":334:411   */\n              swap2\n              swap1\n              pop\n              jump\t// out\n                /* \"#utility.yul\":417:539   */\n            tag_68:\n                /* \"#utility.yul\":490:514   */\n              tag_94\n                /* \"#utility.yul\":508:513   */\n              dup2\n                /* \"#utility.yul\":490:514   */\n              tag_67\n              jump\t// in\n            tag_94:\n                /* \"#utility.yul\":483:488   */\n              dup2\n                /* \"#utility.yul\":480:515   */\n              eq\n                /* \"#utility.yul\":470:533   */\n              tag_95\n              jumpi\n                /* \"#utility.yul\":529:530   */\n              0x00\n                /* \"#utility.yul\":526:527   */\n              dup1\n                /* \"#utility.yul\":519:531   */\n              revert\n                /* \"#utility.yul\":470:533   */\n            tag_95:\n                /* \"#utility.yul\":417:539   */\n              pop\n              jump\t// out\n                /* \"#utility.yul\":545:684   */\n            tag_69:\n                /* \"#utility.yul\":591:596   */\n              0x00\n                /* \"#utility.yul\":629:635   */\n              dup2\n                /* \"#utility.yul\":616:636   */\n              calldataload\n                /* \"#utility.yul\":607:636   */\n              swap1\n              pop\n                /* \"#utility.yul\":645:678   */\n              tag_97\n                /* \"#utility.yul\":672:677   */\n              dup2\n                /* \"#utility.yul\":645:678   */\n              tag_68\n              jump\t// in\n            tag_97:\n                /* \"#utility.yul\":545:684   */\n              swap3\n              swap2\n              pop\n              pop\n              jump\t// out\n                /* \"#utility.yul\":690:1019   */\n            tag_9:\n                /* \"#utility.yul\":749:755   */\n              0x00\n                /* \"#utility.yul\":798:800   */\n              0x20\n                /* \"#utility.yul\":786:795   */\n              dup3\n                /* \"#utility.yul\":777:784   */\n              dup5\n                /* \"#utility.yul\":773:796   */\n              sub\n                /* \"#utility.yul\":769:801   */\n              slt\n                /* \"#utility.yul\":766:885   */\n              iszero\n              tag_99\n              jumpi\n                /* \"#utility.yul\":804:883   */\n              tag_100\n              tag_65\n              jump\t// in\n            tag_100:\n                /* \"#utility.yul\":766:885   */\n            tag_99:\n                /* \"#utility.yul\":924:925   */\n              0x00\n                /* \"#utility.yul\":949:1002   */\n              tag_101\n                /* \"#utility.yul\":994:1001   */\n              dup5\n                /* \"#utility.yul\":985:991   */\n              dup3\n                /* \"#utility.yul\":974:983   */\n              dup6\n                /* \"#utility.yul\":970:992   */\n              add\n                /* \"#utility.yul\":949:1002   */\n              tag_69\n              jump\t// in\n            tag_101:\n                /* \"#utility.yul\":939:1002   */\n              swap2\n              pop\n                /* \"#utility.yul\":895:1012   */\n              pop\n                /* \"#utility.yul\":690:1019   */\n              swap3\n              swap2\n              pop\n              pop\n              jump\t// out\n                /* \"#utility.yul\":1025:1143   */\n            tag_70:\n                /* \"#utility.yul\":1112:1136   */\n              tag_103\n                /* \"#utility.yul\":1130:1135   */\n              dup2\n                /* \"#utility.yul\":1112:1136   */\n              tag_67\n              jump\t// in\n            tag_103:\n                /* \"#utility.yul\":1107:1110   */\n              dup3\n                /* \"#utility.yul\":1100:1137   */\n              mstore\n                /* \"#utility.yul\":1025:1143   */\n              pop\n              pop\n              jump\t// out\n                /* \"#utility.yul\":1149:1248   */\n            tag_71:\n                /* \"#utility.yul\":1201:1207   */\n              0x00\n                /* \"#utility.yul\":1235:1240   */\n              dup2\n                /* \"#utility.yul\":1229:1241   */\n              mload\n                /* \"#utility.yul\":1219:1241   */\n              swap1\n              pop\n                /* \"#utility.yul\":1149:1248   */\n              swap2\n              swap1\n              pop\n              jump\t// out\n                /* \"#utility.yul\":1254:1423   */\n            tag_72:\n                /* \"#utility.yul\":1338:1349   */\n              0x00\n                /* \"#utility.yul\":1372:1378   */\n              dup3\n                /* \"#utility.yul\":1367:1370   */\n              dup3\n                /* \"#utility.yul\":1360:1379   */\n              mstore\n                /* \"#utility.yul\":1412:1416   */\n              0x20\n                /* \"#utility.yul\":1407:1410   */\n              dup3\n                /* \"#utility.yul\":1403:1417   */\n              add\n                /* \"#utility.yul\":1388:1417   */\n              swap1\n              pop\n                /* \"#utility.yul\":1254:1423   */\n              swap3\n              swap2\n              pop\n              pop\n              jump\t// out\n                /* \"#utility.yul\":1429:1736   */\n            tag_73:\n                /* \"#utility.yul\":1497:1498   */\n              0x00\n                /* \"#utility.yul\":1507:1620   */\n            tag_107:\n                /* \"#utility.yul\":1521:1527   */\n              dup4\n                /* \"#utility.yul\":1518:1519   */\n              dup2\n                /* \"#utility.yul\":1515:1528   */\n              lt\n                /* \"#utility.yul\":1507:1620   */\n              iszero\n              tag_109\n              jumpi\n                /* \"#utility.yul\":1606:1607   */\n              dup1\n                /* \"#utility.yul\":1601:1604   */\n              dup3\n                /* \"#utility.yul\":1597:1608   */\n              add\n                /* \"#utility.yul\":1591:1609   */\n              mload\n                /* \"#utility.yul\":1587:1588   */\n              dup2\n                /* \"#utility.yul\":1582:1585   */\n              dup5\n                /* \"#utility.yul\":1578:1589   */\n              add\n                /* \"#utility.yul\":1571:1610   */\n              mstore\n                /* \"#utility.yul\":1543:1545   */\n              0x20\n                /* \"#utility.yul\":1540:1541   */\n              dup2\n                /* \"#utility.yul\":1536:1546   */\n              add\n                /* \"#utility.yul\":1531:1546   */\n              swap1\n              pop\n                /* \"#utility.yul\":1507:1620   */\n              jump(tag_107)\n            tag_109:\n                /* \"#utility.yul\":1638:1644   */\n              dup4\n                /* \"#utility.yul\":1635:1636   */\n              dup2\n                /* \"#utility.yul\":1632:1645   */\n              gt\n                /* \"#utility.yul\":1629:1730   */\n              iszero\n              tag_110\n              jumpi\n                /* \"#utility.yul\":1718:1719   */\n              0x00\n                /* \"#utility.yul\":1709:1715   */\n              dup5\n                /* \"#utility.yul\":1704:1707   */\n              dup5\n                /* \"#utility.yul\":1700:1716   */\n              add\n                /* \"#utility.yul\":1693:1720   */\n              mstore\n                /* \"#utility.yul\":1629:1730   */\n            tag_110:\n                /* \"#utility.yul\":1478:1736   */\n              pop\n                /* \"#utility.yul\":1429:1736   */\n              pop\n              pop\n              pop\n              jump\t// out\n                /* \"#utility.yul\":1742:1844   */\n            tag_74:\n                /* \"#utility.yul\":1783:1789   */\n              0x00\n                /* \"#utility.yul\":1834:1836   */\n              0x1f\n                /* \"#utility.yul\":1830:1837   */\n              not\n                /* \"#utility.yul\":1825:1827   */\n              0x1f\n                /* \"#utility.yul\":1818:1823   */\n              dup4\n                /* \"#utility.yul\":1814:1828   */\n              add\n                /* \"#utility.yul\":1810:1838   */\n              and\n                /* \"#utility.yul\":1800:1838   */\n              swap1\n              pop\n                /* \"#utility.yul\":1742:1844   */\n              swap2\n              swap1\n              pop\n              jump\t// out\n                /* \"#utility.yul\":1850:2214   */\n            tag_75:\n                /* \"#utility.yul\":1938:1941   */\n              0x00\n                /* \"#utility.yul\":1966:2005   */\n              tag_113\n                /* \"#utility.yul\":1999:2004   */\n              dup3\n                /* \"#utility.yul\":1966:2005   */\n              tag_71\n              jump\t// in\n            tag_113:\n                /* \"#utility.yul\":2021:2092   */\n              tag_114\n                /* \"#utility.yul\":2085:2091   */\n              dup2\n                /* \"#utility.yul\":2080:2083   */\n              dup6\n                /* \"#utility.yul\":2021:2092   */\n              tag_72\n              jump\t// in\n            tag_114:\n                /* \"#utility.yul\":2014:2092   */\n              swap4\n              pop\n                /* \"#utility.yul\":2101:2153   */\n              tag_115\n                /* \"#utility.yul\":2146:2152   */\n              dup2\n                /* \"#utility.yul\":2141:2144   */\n              dup6\n                /* \"#utility.yul\":2134:2138   */\n              0x20\n                /* \"#utility.yul\":2127:2132   */\n              dup7\n                /* \"#utility.yul\":2123:2139   */\n              add\n                /* \"#utility.yul\":2101:2153   */\n              tag_73\n              jump\t// in\n            tag_115:\n                /* \"#utility.yul\":2178:2207   */\n              tag_116\n                /* \"#utility.yul\":2200:2206   */\n              dup2\n                /* \"#utility.yul\":2178:2207   */\n              tag_74\n              jump\t// in\n            tag_116:\n                /* \"#utility.yul\":2173:2176   */\n              dup5\n                /* \"#utility.yul\":2169:2208   */\n              add\n                /* \"#utility.yul\":2162:2208   */\n              swap2\n              pop\n                /* \"#utility.yul\":1942:2214   */\n              pop\n                /* \"#utility.yul\":1850:2214   */\n              swap3\n              swap2\n              pop\n              pop\n              jump\t// out\n                /* \"#utility.yul\":2220:2643   */\n            tag_12:\n                /* \"#utility.yul\":2361:2365   */\n              0x00\n                /* \"#utility.yul\":2399:2401   */\n              0x40\n                /* \"#utility.yul\":2388:2397   */\n              dup3\n                /* \"#utility.yul\":2384:2402   */\n              add\n                /* \"#utility.yul\":2376:2402   */\n              swap1\n              pop\n                /* \"#utility.yul\":2412:2483   */\n              tag_118\n                /* \"#utility.yul\":2480:2481   */\n              0x00\n                /* \"#utility.yul\":2469:2478   */\n              dup4\n                /* \"#utility.yul\":2465:2482   */\n              add\n                /* \"#utility.yul\":2456:2462   */\n              dup6\n                /* \"#utility.yul\":2412:2483   */\n              tag_70\n              jump\t// in\n            tag_118:\n                /* \"#utility.yul\":2530:2539   */\n              dup2\n                /* \"#utility.yul\":2524:2528   */\n              dup2\n                /* \"#utility.yul\":2520:2540   */\n              sub\n                /* \"#utility.yul\":2515:2517   */\n              0x20\n                /* \"#utility.yul\":2504:2513   */\n              dup4\n                /* \"#utility.yul\":2500:2518   */\n              add\n                /* \"#utility.yul\":2493:2541   */\n              mstore\n                /* \"#utility.yul\":2558:2636   */\n              tag_119\n                /* \"#utility.yul\":2631:2635   */\n              dup2\n                /* \"#utility.yul\":2622:2628   */\n              dup5\n                /* \"#utility.yul\":2558:2636   */\n              tag_75\n              jump\t// in\n            tag_119:\n                /* \"#utility.yul\":2550:2636   */\n              swap1\n              pop\n                /* \"#utility.yul\":2220:2643   */\n              swap4\n              swap3\n              pop\n              pop\n              pop\n              jump\t// out\n                /* \"#utility.yul\":2649:2766   */\n            tag_76:\n                /* \"#utility.yul\":2758:2759   */\n              0x00\n                /* \"#utility.yul\":2755:2756   */\n              dup1\n                /* \"#utility.yul\":2748:2760   */\n              revert\n                /* \"#utility.yul\":2772:2889   */\n            tag_77:\n                /* \"#utility.yul\":2881:2882   */\n              0x00\n                /* \"#utility.yul\":2878:2879   */\n              dup1\n                /* \"#utility.yul\":2871:2883   */\n              revert\n                /* \"#utility.yul\":2895:3075   */\n            tag_78:\n                /* \"#utility.yul\":2943:3020   */\n              0x4e487b7100000000000000000000000000000000000000000000000000000000\n                /* \"#utility.yul\":2940:2941   */\n              0x00\n                /* \"#utility.yul\":2933:3021   */\n              mstore\n                /* \"#utility.yul\":3040:3044   */\n              0x41\n                /* \"#utility.yul\":3037:3038   */\n              0x04\n                /* \"#utility.yul\":3030:3045   */\n              mstore\n                /* \"#utility.yul\":3064:3068   */\n              0x24\n                /* \"#utility.yul\":3061:3062   */\n              0x00\n                /* \"#utility.yul\":3054:3069   */\n              revert\n                /* \"#utility.yul\":3081:3362   */\n            tag_79:\n                /* \"#utility.yul\":3164:3191   */\n              tag_124\n                /* \"#utility.yul\":3186:3190   */\n              dup3\n                /* \"#utility.yul\":3164:3191   */\n              tag_74\n              jump\t// in\n            tag_124:\n                /* \"#utility.yul\":3156:3162   */\n              dup2\n                /* \"#utility.yul\":3152:3192   */\n              add\n                /* \"#utility.yul\":3294:3300   */\n              dup2\n                /* \"#utility.yul\":3282:3292   */\n              dup2\n                /* \"#utility.yul\":3279:3301   */\n              lt\n                /* \"#utility.yul\":3258:3276   */\n              0xffffffffffffffff\n                /* \"#utility.yul\":3246:3256   */\n              dup3\n                /* \"#utility.yul\":3243:3277   */\n              gt\n                /* \"#utility.yul\":3240:3302   */\n              or\n                /* \"#utility.yul\":3237:3325   */\n              iszero\n              tag_125\n              jumpi\n                /* \"#utility.yul\":3305:3323   */\n              tag_126\n              tag_78\n              jump\t// in\n            tag_126:\n                /* \"#utility.yul\":3237:3325   */\n            tag_125:\n                /* \"#utility.yul\":3345:3355   */\n              dup1\n                /* \"#utility.yul\":3341:3343   */\n              0x40\n                /* \"#utility.yul\":3334:3356   */\n              mstore\n                /* \"#utility.yul\":3124:3362   */\n              pop\n                /* \"#utility.yul\":3081:3362   */\n              pop\n              pop\n              jump\t// out\n                /* \"#utility.yul\":3368:3497   */\n            tag_80:\n                /* \"#utility.yul\":3402:3408   */\n              0x00\n                /* \"#utility.yul\":3429:3449   */\n              tag_128\n              tag_64\n              jump\t// in\n            tag_128:\n                /* \"#utility.yul\":3419:3449   */\n              swap1\n              pop\n                /* \"#utility.yul\":3458:3491   */\n              tag_129\n                /* \"#utility.yul\":3486:3490   */\n              dup3\n                /* \"#utility.yul\":3478:3484   */\n              dup3\n                /* \"#utility.yul\":3458:3491   */\n              tag_79\n              jump\t// in\n            tag_129:\n                /* \"#utility.yul\":3368:3497   */\n              swap2\n              swap1\n              pop\n              jump\t// out\n                /* \"#utility.yul\":3503:3811   */\n            tag_81:\n                /* \"#utility.yul\":3565:3569   */\n              0x00\n                /* \"#utility.yul\":3655:3673   */\n              0xffffffffffffffff\n                /* \"#utility.yul\":3647:3653   */\n              dup3\n                /* \"#utility.yul\":3644:3674   */\n              gt\n                /* \"#utility.yul\":3641:3697   */\n              iszero\n              tag_131\n              jumpi\n                /* \"#utility.yul\":3677:3695   */\n              tag_132\n              tag_78\n              jump\t// in\n            tag_132:\n                /* \"#utility.yul\":3641:3697   */\n            tag_131:\n                /* \"#utility.yul\":3715:3744   */\n              tag_133\n                /* \"#utility.yul\":3737:3743   */\n              dup3\n                /* \"#utility.yul\":3715:3744   */\n              tag_74\n              jump\t// in\n            tag_133:\n                /* \"#utility.yul\":3707:3744   */\n              swap1\n              pop\n                /* \"#utility.yul\":3799:3803   */\n              0x20\n                /* \"#utility.yul\":3793:3797   */\n              dup2\n                /* \"#utility.yul\":3789:3804   */\n              add\n                /* \"#utility.yul\":3781:3804   */\n              swap1\n              pop\n                /* \"#utility.yul\":3503:3811   */\n              swap2\n              swap1\n              pop\n              jump\t// out\n                /* \"#utility.yul\":3817:3971   */\n            tag_82:\n                /* \"#utility.yul\":3901:3907   */\n              dup3\n                /* \"#utility.yul\":3896:3899   */\n              dup2\n                /* \"#utility.yul\":3891:3894   */\n              dup4\n                /* \"#utility.yul\":3878:3908   */\n              calldatacopy\n                /* \"#utility.yul\":3963:3964   */\n              0x00\n                /* \"#utility.yul\":3954:3960   */\n              dup4\n                /* \"#utility.yul\":3949:3952   */\n              dup4\n                /* \"#utility.yul\":3945:3961   */\n              add\n                /* \"#utility.yul\":3938:3965   */\n              mstore\n                /* \"#utility.yul\":3817:3971   */\n              pop\n              pop\n              pop\n              jump\t// out\n                /* \"#utility.yul\":3977:4389   */\n            tag_83:\n                /* \"#utility.yul\":4055:4060   */\n              0x00\n                /* \"#utility.yul\":4080:4146   */\n              tag_136\n                /* \"#utility.yul\":4096:4145   */\n              tag_137\n                /* \"#utility.yul\":4138:4144   */\n              dup5\n                /* \"#utility.yul\":4096:4145   */\n              tag_81\n              jump\t// in\n            tag_137:\n                /* \"#utility.yul\":4080:4146   */\n              tag_80\n              jump\t// in\n            tag_136:\n                /* \"#utility.yul\":4071:4146   */\n              swap1\n              pop\n                /* \"#utility.yul\":4169:4175   */\n              dup3\n                /* \"#utility.yul\":4162:4167   */\n              dup2\n                /* \"#utility.yul\":4155:4176   */\n              mstore\n                /* \"#utility.yul\":4207:4211   */\n              0x20\n                /* \"#utility.yul\":4200:4205   */\n              dup2\n                /* \"#utility.yul\":4196:4212   */\n              add\n                /* \"#utility.yul\":4245:4248   */\n              dup5\n                /* \"#utility.yul\":4236:4242   */\n              dup5\n                /* \"#utility.yul\":4231:4234   */\n              dup5\n                /* \"#utility.yul\":4227:4243   */\n              add\n                /* \"#utility.yul\":4224:4249   */\n              gt\n                /* \"#utility.yul\":4221:4333   */\n              iszero\n              tag_138\n              jumpi\n                /* \"#utility.yul\":4252:4331   */\n              tag_139\n              tag_77\n              jump\t// in\n            tag_139:\n                /* \"#utility.yul\":4221:4333   */\n            tag_138:\n                /* \"#utility.yul\":4342:4383   */\n              tag_140\n                /* \"#utility.yul\":4376:4382   */\n              dup5\n                /* \"#utility.yul\":4371:4374   */\n              dup3\n                /* \"#utility.yul\":4366:4369   */\n              dup6\n                /* \"#utility.yul\":4342:4383   */\n              tag_82\n              jump\t// in\n            tag_140:\n                /* \"#utility.yul\":4061:4389   */\n              pop\n                /* \"#utility.yul\":3977:4389   */\n              swap4\n              swap3\n              pop\n              pop\n              pop\n              jump\t// out\n                /* \"#utility.yul\":4409:4749   */\n            tag_84:\n                /* \"#utility.yul\":4465:4470   */\n              0x00\n                /* \"#utility.yul\":4514:4517   */\n              dup3\n                /* \"#utility.yul\":4507:4511   */\n              0x1f\n                /* \"#utility.yul\":4499:4505   */\n              dup4\n                /* \"#utility.yul\":4495:4512   */\n              add\n                /* \"#utility.yul\":4491:4518   */\n              slt\n                /* \"#utility.yul\":4481:4603   */\n              tag_142\n              jumpi\n                /* \"#utility.yul\":4522:4601   */\n              tag_143\n              tag_76\n              jump\t// in\n            tag_143:\n                /* \"#utility.yul\":4481:4603   */\n            tag_142:\n                /* \"#utility.yul\":4639:4645   */\n              dup2\n                /* \"#utility.yul\":4626:4646   */\n              calldataload\n                /* \"#utility.yul\":4664:4743   */\n              tag_144\n                /* \"#utility.yul\":4739:4742   */\n              dup5\n                /* \"#utility.yul\":4731:4737   */\n              dup3\n                /* \"#utility.yul\":4724:4728   */\n              0x20\n                /* \"#utility.yul\":4716:4722   */\n              dup7\n                /* \"#utility.yul\":4712:4729   */\n              add\n                /* \"#utility.yul\":4664:4743   */\n              tag_83\n              jump\t// in\n            tag_144:\n                /* \"#utility.yul\":4655:4743   */\n              swap2\n              pop\n                /* \"#utility.yul\":4471:4749   */\n              pop\n                /* \"#utility.yul\":4409:4749   */\n              swap3\n              swap2\n              pop\n              pop\n              jump\t// out\n                /* \"#utility.yul\":4755:5264   */\n            tag_15:\n                /* \"#utility.yul\":4824:4830   */\n              0x00\n                /* \"#utility.yul\":4873:4875   */\n              0x20\n                /* \"#utility.yul\":4861:4870   */\n              dup3\n                /* \"#utility.yul\":4852:4859   */\n              dup5\n                /* \"#utility.yul\":4848:4871   */\n              sub\n                /* \"#utility.yul\":4844:4876   */\n              slt\n                /* \"#utility.yul\":4841:4960   */\n              iszero\n              tag_146\n              jumpi\n                /* \"#utility.yul\":4879:4958   */\n              tag_147\n              tag_65\n              jump\t// in\n            tag_147:\n                /* \"#utility.yul\":4841:4960   */\n            tag_146:\n                /* \"#utility.yul\":5027:5028   */\n              0x00\n                /* \"#utility.yul\":5016:5025   */\n              dup3\n                /* \"#utility.yul\":5012:5029   */\n              add\n                /* \"#utility.yul\":4999:5030   */\n              calldataload\n                /* \"#utility.yul\":5057:5075   */\n              0xffffffffffffffff\n                /* \"#utility.yul\":5049:5055   */\n              dup2\n                /* \"#utility.yul\":5046:5076   */\n              gt\n                /* \"#utility.yul\":5043:5160   */\n              iszero\n              tag_148\n              jumpi\n                /* \"#utility.yul\":5079:5158   */\n              tag_149\n              tag_66\n              jump\t// in\n            tag_149:\n                /* \"#utility.yul\":5043:5160   */\n            tag_148:\n                /* \"#utility.yul\":5184:5247   */\n              tag_150\n                /* \"#utility.yul\":5239:5246   */\n              dup5\n                /* \"#utility.yul\":5230:5236   */\n              dup3\n                /* \"#utility.yul\":5219:5228   */\n              dup6\n                /* \"#utility.yul\":5215:5237   */\n              add\n                /* \"#utility.yul\":5184:5247   */\n              tag_84\n              jump\t// in\n            tag_150:\n                /* \"#utility.yul\":5174:5247   */\n              swap2\n              pop\n                /* \"#utility.yul\":4970:5257   */\n              pop\n                /* \"#utility.yul\":4755:5264   */\n              swap3\n              swap2\n              pop\n              pop\n              jump\t// out\n                /* \"#utility.yul\":5270:5492   */\n            tag_18:\n                /* \"#utility.yul\":5363:5367   */\n              0x00\n                /* \"#utility.yul\":5401:5403   */\n              0x20\n                /* \"#utility.yul\":5390:5399   */\n              dup3\n                /* \"#utility.yul\":5386:5404   */\n              add\n                /* \"#utility.yul\":5378:5404   */\n              swap1\n              pop\n                /* \"#utility.yul\":5414:5485   */\n              tag_152\n                /* \"#utility.yul\":5482:5483   */\n              0x00\n                /* \"#utility.yul\":5471:5480   */\n              dup4\n                /* \"#utility.yul\":5467:5484   */\n              add\n                /* \"#utility.yul\":5458:5464   */\n              dup5\n                /* \"#utility.yul\":5414:5485   */\n              tag_70\n              jump\t// in\n            tag_152:\n                /* \"#utility.yul\":5270:5492   */\n              swap3\n              swap2\n              pop\n              pop\n              jump\t// out\n                /* \"#utility.yul\":5498:6152   */\n            tag_25:\n                /* \"#utility.yul\":5576:5582   */\n              0x00\n                /* \"#utility.yul\":5584:5590   */\n              dup1\n                /* \"#utility.yul\":5633:5635   */\n              0x40\n                /* \"#utility.yul\":5621:5630   */\n              dup4\n                /* \"#utility.yul\":5612:5619   */\n              dup6\n                /* \"#utility.yul\":5608:5631   */\n              sub\n                /* \"#utility.yul\":5604:5636   */\n              slt\n                /* \"#utility.yul\":5601:5720   */\n              iszero\n              tag_154\n              jumpi\n                /* \"#utility.yul\":5639:5718   */\n              tag_155\n              tag_65\n              jump\t// in\n            tag_155:\n                /* \"#utility.yul\":5601:5720   */\n            tag_154:\n                /* \"#utility.yul\":5759:5760   */\n              0x00\n                /* \"#utility.yul\":5784:5837   */\n              tag_156\n                /* \"#utility.yul\":5829:5836   */\n              dup6\n                /* \"#utility.yul\":5820:5826   */\n              dup3\n                /* \"#utility.yul\":5809:5818   */\n              dup7\n                /* \"#utility.yul\":5805:5827   */\n              add\n                /* \"#utility.yul\":5784:5837   */\n              tag_69\n              jump\t// in\n            tag_156:\n                /* \"#utility.yul\":5774:5837   */\n              swap3\n              pop\n                /* \"#utility.yul\":5730:5847   */\n              pop\n                /* \"#utility.yul\":5914:5916   */\n              0x20\n                /* \"#utility.yul\":5903:5912   */\n              dup4\n                /* \"#utility.yul\":5899:5917   */\n              add\n                /* \"#utility.yul\":5886:5918   */\n              calldataload\n                /* \"#utility.yul\":5945:5963   */\n              0xffffffffffffffff\n                /* \"#utility.yul\":5937:5943   */\n              dup2\n                /* \"#utility.yul\":5934:5964   */\n              gt\n                /* \"#utility.yul\":5931:6048   */\n              iszero\n              tag_157\n              jumpi\n                /* \"#utility.yul\":5967:6046   */\n              tag_158\n              tag_66\n              jump\t// in\n            tag_158:\n                /* \"#utility.yul\":5931:6048   */\n            tag_157:\n                /* \"#utility.yul\":6072:6135   */\n              tag_159\n                /* \"#utility.yul\":6127:6134   */\n              dup6\n                /* \"#utility.yul\":6118:6124   */\n              dup3\n                /* \"#utility.yul\":6107:6116   */\n              dup7\n                /* \"#utility.yul\":6103:6125   */\n              add\n                /* \"#utility.yul\":6072:6135   */\n              tag_84\n              jump\t// in\n            tag_159:\n                /* \"#utility.yul\":6062:6135   */\n              swap2\n              pop\n                /* \"#utility.yul\":5857:6145   */\n              pop\n                /* \"#utility.yul\":5498:6152   */\n              swap3\n              pop\n              swap3\n              swap1\n              pop\n              jump\t// out\n                /* \"#utility.yul\":6158:6338   */\n            tag_30:\n                /* \"#utility.yul\":6206:6283   */\n              0x4e487b7100000000000000000000000000000000000000000000000000000000\n                /* \"#utility.yul\":6203:6204   */\n              0x00\n                /* \"#utility.yul\":6196:6284   */\n              mstore\n                /* \"#utility.yul\":6303:6307   */\n              0x32\n                /* \"#utility.yul\":6300:6301   */\n              0x04\n                /* \"#utility.yul\":6293:6308   */\n              mstore\n                /* \"#utility.yul\":6327:6331   */\n              0x24\n                /* \"#utility.yul\":6324:6325   */\n              0x00\n                /* \"#utility.yul\":6317:6332   */\n              revert\n                /* \"#utility.yul\":6344:6524   */\n            tag_85:\n                /* \"#utility.yul\":6392:6469   */\n              0x4e487b7100000000000000000000000000000000000000000000000000000000\n                /* \"#utility.yul\":6389:6390   */\n              0x00\n                /* \"#utility.yul\":6382:6470   */\n              mstore\n                /* \"#utility.yul\":6489:6493   */\n              0x22\n                /* \"#utility.yul\":6486:6487   */\n              0x04\n                /* \"#utility.yul\":6479:6494   */\n              mstore\n                /* \"#utility.yul\":6513:6517   */\n              0x24\n                /* \"#utility.yul\":6510:6511   */\n              0x00\n                /* \"#utility.yul\":6503:6518   */\n              revert\n                /* \"#utility.yul\":6530:6850   */\n            tag_36:\n                /* \"#utility.yul\":6574:6580   */\n              0x00\n                /* \"#utility.yul\":6611:6612   */\n              0x02\n                /* \"#utility.yul\":6605:6609   */\n              dup3\n                /* \"#utility.yul\":6601:6613   */\n              div\n                /* \"#utility.yul\":6591:6613   */\n              swap1\n              pop\n                /* \"#utility.yul\":6658:6659   */\n              0x01\n                /* \"#utility.yul\":6652:6656   */\n              dup3\n                /* \"#utility.yul\":6648:6660   */\n              and\n                /* \"#utility.yul\":6679:6697   */\n              dup1\n                /* \"#utility.yul\":6669:6750   */\n              tag_163\n              jumpi\n                /* \"#utility.yul\":6735:6739   */\n              0x7f\n                /* \"#utility.yul\":6727:6733   */\n              dup3\n                /* \"#utility.yul\":6723:6740   */\n              and\n                /* \"#utility.yul\":6713:6740   */\n              swap2\n              pop\n                /* \"#utility.yul\":6669:6750   */\n            tag_163:\n                /* \"#utility.yul\":6797:6799   */\n              0x20\n                /* \"#utility.yul\":6789:6795   */\n              dup3\n                /* \"#utility.yul\":6786:6800   */\n              lt\n                /* \"#utility.yul\":6766:6784   */\n              dup2\n                /* \"#utility.yul\":6763:6801   */\n              sub\n                /* \"#utility.yul\":6760:6844   */\n              tag_164\n              jumpi\n                /* \"#utility.yul\":6816:6834   */\n              tag_165\n              tag_85\n              jump\t// in\n            tag_165:\n                /* \"#utility.yul\":6760:6844   */\n            tag_164:\n                /* \"#utility.yul\":6581:6850   */\n              pop\n                /* \"#utility.yul\":6530:6850   */\n              swap2\n              swap1\n              pop\n              jump\t// out\n                /* \"#utility.yul\":6856:7004   */\n            tag_86:\n                /* \"#utility.yul\":6958:6969   */\n              0x00\n                /* \"#utility.yul\":6995:6998   */\n              dup2\n                /* \"#utility.yul\":6980:6998   */\n              swap1\n              pop\n                /* \"#utility.yul\":6856:7004   */\n              swap3\n              swap2\n              pop\n              pop\n              jump\t// out\n                /* \"#utility.yul\":7010:7387   */\n            tag_87:\n                /* \"#utility.yul\":7116:7119   */\n              0x00\n                /* \"#utility.yul\":7144:7183   */\n              tag_168\n                /* \"#utility.yul\":7177:7182   */\n              dup3\n                /* \"#utility.yul\":7144:7183   */\n              tag_71\n              jump\t// in\n            tag_168:\n                /* \"#utility.yul\":7199:7288   */\n              tag_169\n                /* \"#utility.yul\":7281:7287   */\n              dup2\n                /* \"#utility.yul\":7276:7279   */\n              dup6\n                /* \"#utility.yul\":7199:7288   */\n              tag_86\n              jump\t// in\n            tag_169:\n                /* \"#utility.yul\":7192:7288   */\n              swap4\n              pop\n                /* \"#utility.yul\":7297:7349   */\n              tag_170\n                /* \"#utility.yul\":7342:7348   */\n              dup2\n                /* \"#utility.yul\":7337:7340   */\n              dup6\n                /* \"#utility.yul\":7330:7334   */\n              0x20\n                /* \"#utility.yul\":7323:7328   */\n              dup7\n                /* \"#utility.yul\":7319:7335   */\n              add\n                /* \"#utility.yul\":7297:7349   */\n              tag_73\n              jump\t// in\n            tag_170:\n                /* \"#utility.yul\":7374:7380   */\n              dup1\n                /* \"#utility.yul\":7369:7372   */\n              dup5\n                /* \"#utility.yul\":7365:7381   */\n              add\n                /* \"#utility.yul\":7358:7381   */\n              swap2\n              pop\n                /* \"#utility.yul\":7120:7387   */\n              pop\n                /* \"#utility.yul\":7010:7387   */\n              swap3\n              swap2\n              pop\n              pop\n              jump\t// out\n                /* \"#utility.yul\":7393:7668   */\n            tag_53:\n                /* \"#utility.yul\":7525:7528   */\n              0x00\n                /* \"#utility.yul\":7547:7642   */\n              tag_172\n                /* \"#utility.yul\":7638:7641   */\n              dup3\n                /* \"#utility.yul\":7629:7635   */\n              dup5\n                /* \"#utility.yul\":7547:7642   */\n              tag_87\n              jump\t// in\n            tag_172:\n                /* \"#utility.yul\":7540:7642   */\n              swap2\n              pop\n                /* \"#utility.yul\":7659:7662   */\n              dup2\n                /* \"#utility.yul\":7652:7662   */\n              swap1\n              pop\n                /* \"#utility.yul\":7393:7668   */\n              swap3\n              swap2\n              pop\n              pop\n              jump\t// out\n\n            auxdata: 0xa2646970667358221220c5f740aff4f1d5c541ffe2132934e7f0e7573e3de30d0ca1067c42de1565b5d364736f6c634300080d0033\n        }\n    }\n\n    auxdata: 0xa2646970667358221220881b4c96662632ac67e6d0919bf2232751cbab36df3adcfd829dda98154b1ccc64736f6c634300080d0033\n}\n",
				"bytecode": {
					"linkReferences": {},
					"object": "608060405234801561001057600080fd5b50610b08806100206000396000f3fe608060405234801561001057600080fd5b50600436106100365760003560e01c80631dda65411461003b57806364591bf114610045575b600080fd5b610043610075565b005b61005f600480360381019061005a919061018f565b610108565b60405161006c919061023b565b60405180910390f35b600060405161008390610147565b604051809103906000f08015801561009f573d6000803e3d6000fd5b5090506000819080600181540180825580915050600190039060005260206000200160009091909190916101000a81548173ffffffffffffffffffffffffffffffffffffffff021916908373ffffffffffffffffffffffffffffffffffffffff16021790555050565b6000818154811061011857600080fd5b906000526020600020016000915054906101000a900473ffffffffffffffffffffffffffffffffffffffff1681565b61087c8061025783390190565b600080fd5b6000819050919050565b61016c81610159565b811461017757600080fd5b50565b60008135905061018981610163565b92915050565b6000602082840312156101a5576101a4610154565b5b60006101b38482850161017a565b91505092915050565b600073ffffffffffffffffffffffffffffffffffffffff82169050919050565b6000819050919050565b60006102016101fc6101f7846101bc565b6101dc565b6101bc565b9050919050565b6000610213826101e6565b9050919050565b600061022582610208565b9050919050565b6102358161021a565b82525050565b6000602082019050610250600083018461022c565b9291505056fe608060405234801561001057600080fd5b5061085c806100206000396000f3fe608060405234801561001057600080fd5b506004361061004c5760003560e01c8063246982c4146100515780638bab8dd5146100825780639e7a13ad146100b2578063bc832d4e146100e3575b600080fd5b61006b6004803603810190610066919061044a565b6100ff565b60405161007992919061051f565b60405180910390f35b61009c60048036038101906100979190610684565b6101e3565b6040516100a991906106cd565b60405180910390f35b6100cc60048036038101906100c7919061044a565b610211565b6040516100da92919061051f565b60405180910390f35b6100fd60048036038101906100f891906106e8565b6102cd565b005b600060606002838154811061011757610116610744565b5b9060005260206000209060020201600001546002848154811061013d5761013c610744565b5b906000526020600020906002020160010180805461015a906107a2565b80601f0160208091040260200160405190810160405280929190818152602001828054610186906107a2565b80156101d35780601f106101a8576101008083540402835291602001916101d3565b820191906000526020600020905b8154815290600101906020018083116101b657829003601f168201915b5050505050905091509150915091565b6001818051602081018201805184825260208301602085012081835280955050505050506000915090505481565b6002818154811061022157600080fd5b906000526020600020906002020160009150905080600001549080600101805461024a906107a2565b80601f0160208091040260200160405190810160405280929190818152602001828054610276906107a2565b80156102c35780601f10610298576101008083540402835291602001916102c3565b820191906000526020600020905b8154815290600101906020018083116102a657829003601f168201915b5050505050905082565b6002604051806040016040528084815260200183815250908060018154018082558091505060019003906000526020600020906002020160009091909190915060008201518160000155602082015181600101908051906020019061033392919061035d565b50505081600182604051610347919061080f565b9081526020016040518091039020819055505050565b828054610369906107a2565b90600052602060002090601f01602090048101928261038b57600085556103d2565b82601f106103a457805160ff19168380011785556103d2565b828001600101855582156103d2579182015b828111156103d15782518255916020019190600101906103b6565b5b5090506103df91906103e3565b5090565b5b808211156103fc5760008160009055506001016103e4565b5090565b6000604051905090565b600080fd5b600080fd5b6000819050919050565b61042781610414565b811461043257600080fd5b50565b6000813590506104448161041e565b92915050565b6000602082840312156104605761045f61040a565b5b600061046e84828501610435565b91505092915050565b61048081610414565b82525050565b600081519050919050565b600082825260208201905092915050565b60005b838110156104c05780820151818401526020810190506104a5565b838111156104cf576000848401525b50505050565b6000601f19601f8301169050919050565b60006104f182610486565b6104fb8185610491565b935061050b8185602086016104a2565b610514816104d5565b840191505092915050565b60006040820190506105346000830185610477565b818103602083015261054681846104e6565b90509392505050565b600080fd5b600080fd5b7f4e487b7100000000000000000000000000000000000000000000000000000000600052604160045260246000fd5b610591826104d5565b810181811067ffffffffffffffff821117156105b0576105af610559565b5b80604052505050565b60006105c3610400565b90506105cf8282610588565b919050565b600067ffffffffffffffff8211156105ef576105ee610559565b5b6105f8826104d5565b9050602081019050919050565b82818337600083830152505050565b6000610627610622846105d4565b6105b9565b90508281526020810184848401111561064357610642610554565b5b61064e848285610605565b509392505050565b600082601f83011261066b5761066a61054f565b5b813561067b848260208601610614565b91505092915050565b60006020828403121561069a5761069961040a565b5b600082013567ffffffffffffffff8111156106b8576106b761040f565b5b6106c484828501610656565b91505092915050565b60006020820190506106e26000830184610477565b92915050565b600080604083850312156106ff576106fe61040a565b5b600061070d85828601610435565b925050602083013567ffffffffffffffff81111561072e5761072d61040f565b5b61073a85828601610656565b9150509250929050565b7f4e487b7100000000000000000000000000000000000000000000000000000000600052603260045260246000fd5b7f4e487b7100000000000000000000000000000000000000000000000000000000600052602260045260246000fd5b600060028204905060018216806107ba57607f821691505b6020821081036107cd576107cc610773565b5b50919050565b600081905092915050565b60006107e982610486565b6107f381856107d3565b93506108038185602086016104a2565b80840191505092915050565b600061081b82846107de565b91508190509291505056fea2646970667358221220c5f740aff4f1d5c541ffe2132934e7f0e7573e3de30d0ca1067c42de1565b5d364736f6c634300080d0033a2646970667358221220881b4c96662632ac67e6d0919bf2232751cbab36df3adcfd829dda98154b1ccc64736f6c634300080d0033",
					"opcodes": "PUSH1 0x80 PUSH1 0x40 MSTORE CALLVALUE DUP1 ISZERO PUSH2 0x10 JUMPI PUSH1 0x0 DUP1 REVERT JUMPDEST POP PUSH2 0xB08 DUP1 PUSH2 0x20 PUSH1 0x0 CODECOPY PUSH1 0x0 RETURN INVALID PUSH1 0x80 PUSH1 0x40 MSTORE CALLVALUE DUP1 ISZERO PUSH2 0x10 JUMPI PUSH1 0x0 DUP1 REVERT JUMPDEST POP PUSH1 0x4 CALLDATASIZE LT PUSH2 0x36 JUMPI PUSH1 0x0 CALLDATALOAD PUSH1 0xE0 SHR DUP1 PUSH4 0x1DDA6541 EQ PUSH2 0x3B JUMPI DUP1 PUSH4 0x64591BF1 EQ PUSH2 0x45 JUMPI JUMPDEST PUSH1 0x0 DUP1 REVERT JUMPDEST PUSH2 0x43 PUSH2 0x75 JUMP JUMPDEST STOP JUMPDEST PUSH2 0x5F PUSH1 0x4 DUP1 CALLDATASIZE SUB DUP2 ADD SWAP1 PUSH2 0x5A SWAP2 SWAP1 PUSH2 0x18F JUMP JUMPDEST PUSH2 0x108 JUMP JUMPDEST PUSH1 0x40 MLOAD PUSH2 0x6C SWAP2 SWAP1 PUSH2 0x23B JUMP JUMPDEST PUSH1 0x40 MLOAD DUP1 SWAP2 SUB SWAP1 RETURN JUMPDEST PUSH1 0x0 PUSH1 0x40 MLOAD PUSH2 0x83 SWAP1 PUSH2 0x147 JUMP JUMPDEST PUSH1 0x40 MLOAD DUP1 SWAP2 SUB SWAP1 PUSH1 0x0 CREATE DUP1 ISZERO DUP1 ISZERO PUSH2 0x9F JUMPI RETURNDATASIZE PUSH1 0x0 DUP1 RETURNDATACOPY RETURNDATASIZE PUSH1 0x0 REVERT JUMPDEST POP SWAP1 POP PUSH1 0x0 DUP2 SWAP1 DUP1 PUSH1 0x1 DUP2 SLOAD ADD DUP1 DUP3 SSTORE DUP1 SWAP2 POP POP PUSH1 0x1 SWAP1 SUB SWAP1 PUSH1 0x0 MSTORE PUSH1 0x20 PUSH1 0x0 KECCAK256 ADD PUSH1 0x0 SWAP1 SWAP2 SWAP1 SWAP2 SWAP1 SWAP2 PUSH2 0x100 EXP DUP2 SLOAD DUP2 PUSH20 0xFFFFFFFFFFFFFFFFFFFFFFFFFFFFFFFFFFFFFFFF MUL NOT AND SWAP1 DUP4 PUSH20 0xFFFFFFFFFFFFFFFFFFFFFFFFFFFFFFFFFFFFFFFF AND MUL OR SWAP1 SSTORE POP POP JUMP JUMPDEST PUSH1 0x0 DUP2 DUP2 SLOAD DUP2 LT PUSH2 0x118 JUMPI PUSH1 0x0 DUP1 REVERT JUMPDEST SWAP1 PUSH1 0x0 MSTORE PUSH1 0x20 PUSH1 0x0 KECCAK256 ADD PUSH1 0x0 SWAP2 POP SLOAD SWAP1 PUSH2 0x100 EXP SWAP1 DIV PUSH20 0xFFFFFFFFFFFFFFFFFFFFFFFFFFFFFFFFFFFFFFFF AND DUP2 JUMP JUMPDEST PUSH2 0x87C DUP1 PUSH2 0x257 DUP4 CODECOPY ADD SWAP1 JUMP JUMPDEST PUSH1 0x0 DUP1 REVERT JUMPDEST PUSH1 0x0 DUP2 SWAP1 POP SWAP2 SWAP1 POP JUMP JUMPDEST PUSH2 0x16C DUP2 PUSH2 0x159 JUMP JUMPDEST DUP2 EQ PUSH2 0x177 JUMPI PUSH1 0x0 DUP1 REVERT JUMPDEST POP JUMP JUMPDEST PUSH1 0x0 DUP2 CALLDATALOAD SWAP1 POP PUSH2 0x189 DUP2 PUSH2 0x163 JUMP JUMPDEST SWAP3 SWAP2 POP POP JUMP JUMPDEST PUSH1 0x0 PUSH1 0x20 DUP3 DUP5 SUB SLT ISZERO PUSH2 0x1A5 JUMPI PUSH2 0x1A4 PUSH2 0x154 JUMP JUMPDEST JUMPDEST PUSH1 0x0 PUSH2 0x1B3 DUP5 DUP3 DUP6 ADD PUSH2 0x17A JUMP JUMPDEST SWAP2 POP POP SWAP3 SWAP2 POP POP JUMP JUMPDEST PUSH1 0x0 PUSH20 0xFFFFFFFFFFFFFFFFFFFFFFFFFFFFFFFFFFFFFFFF DUP3 AND SWAP1 POP SWAP2 SWAP1 POP JUMP JUMPDEST PUSH1 0x0 DUP2 SWAP1 POP SWAP2 SWAP1 POP JUMP JUMPDEST PUSH1 0x0 PUSH2 0x201 PUSH2 0x1FC PUSH2 0x1F7 DUP5 PUSH2 0x1BC JUMP JUMPDEST PUSH2 0x1DC JUMP JUMPDEST PUSH2 0x1BC JUMP JUMPDEST SWAP1 POP SWAP2 SWAP1 POP JUMP JUMPDEST PUSH1 0x0 PUSH2 0x213 DUP3 PUSH2 0x1E6 JUMP JUMPDEST SWAP1 POP SWAP2 SWAP1 POP JUMP JUMPDEST PUSH1 0x0 PUSH2 0x225 DUP3 PUSH2 0x208 JUMP JUMPDEST SWAP1 POP SWAP2 SWAP1 POP JUMP JUMPDEST PUSH2 0x235 DUP2 PUSH2 0x21A JUMP JUMPDEST DUP3 MSTORE POP POP JUMP JUMPDEST PUSH1 0x0 PUSH1 0x20 DUP3 ADD SWAP1 POP PUSH2 0x250 PUSH1 0x0 DUP4 ADD DUP5 PUSH2 0x22C JUMP JUMPDEST SWAP3 SWAP2 POP POP JUMP INVALID PUSH1 0x80 PUSH1 0x40 MSTORE CALLVALUE DUP1 ISZERO PUSH2 0x10 JUMPI PUSH1 0x0 DUP1 REVERT JUMPDEST POP PUSH2 0x85C DUP1 PUSH2 0x20 PUSH1 0x0 CODECOPY PUSH1 0x0 RETURN INVALID PUSH1 0x80 PUSH1 0x40 MSTORE CALLVALUE DUP1 ISZERO PUSH2 0x10 JUMPI PUSH1 0x0 DUP1 REVERT JUMPDEST POP PUSH1 0x4 CALLDATASIZE LT PUSH2 0x4C JUMPI PUSH1 0x0 CALLDATALOAD PUSH1 0xE0 SHR DUP1 PUSH4 0x246982C4 EQ PUSH2 0x51 JUMPI DUP1 PUSH4 0x8BAB8DD5 EQ PUSH2 0x82 JUMPI DUP1 PUSH4 0x9E7A13AD EQ PUSH2 0xB2 JUMPI DUP1 PUSH4 0xBC832D4E EQ PUSH2 0xE3 JUMPI JUMPDEST PUSH1 0x0 DUP1 REVERT JUMPDEST PUSH2 0x6B PUSH1 0x4 DUP1 CALLDATASIZE SUB DUP2 ADD SWAP1 PUSH2 0x66 SWAP2 SWAP1 PUSH2 0x44A JUMP JUMPDEST PUSH2 0xFF JUMP JUMPDEST PUSH1 0x40 MLOAD PUSH2 0x79 SWAP3 SWAP2 SWAP1 PUSH2 0x51F JUMP JUMPDEST PUSH1 0x40 MLOAD DUP1 SWAP2 SUB SWAP1 RETURN JUMPDEST PUSH2 0x9C PUSH1 0x4 DUP1 CALLDATASIZE SUB DUP2 ADD SWAP1 PUSH2 0x97 SWAP2 SWAP1 PUSH2 0x684 JUMP JUMPDEST PUSH2 0x1E3 JUMP JUMPDEST PUSH1 0x40 MLOAD PUSH2 0xA9 SWAP2 SWAP1 PUSH2 0x6CD JUMP JUMPDEST PUSH1 0x40 MLOAD DUP1 SWAP2 SUB SWAP1 RETURN JUMPDEST PUSH2 0xCC PUSH1 0x4 DUP1 CALLDATASIZE SUB DUP2 ADD SWAP1 PUSH2 0xC7 SWAP2 SWAP1 PUSH2 0x44A JUMP JUMPDEST PUSH2 0x211 JUMP JUMPDEST PUSH1 0x40 MLOAD PUSH2 0xDA SWAP3 SWAP2 SWAP1 PUSH2 0x51F JUMP JUMPDEST PUSH1 0x40 MLOAD DUP1 SWAP2 SUB SWAP1 RETURN JUMPDEST PUSH2 0xFD PUSH1 0x4 DUP1 CALLDATASIZE SUB DUP2 ADD SWAP1 PUSH2 0xF8 SWAP2 SWAP1 PUSH2 0x6E8 JUMP JUMPDEST PUSH2 0x2CD JUMP JUMPDEST STOP JUMPDEST PUSH1 0x0 PUSH1 0x60 PUSH1 0x2 DUP4 DUP2 SLOAD DUP2 LT PUSH2 0x117 JUMPI PUSH2 0x116 PUSH2 0x744 JUMP JUMPDEST JUMPDEST SWAP1 PUSH1 0x0 MSTORE PUSH1 0x20 PUSH1 0x0 KECCAK256 SWAP1 PUSH1 0x2 MUL ADD PUSH1 0x0 ADD SLOAD PUSH1 0x2 DUP5 DUP2 SLOAD DUP2 LT PUSH2 0x13D JUMPI PUSH2 0x13C PUSH2 0x744 JUMP JUMPDEST JUMPDEST SWAP1 PUSH1 0x0 MSTORE PUSH1 0x20 PUSH1 0x0 KECCAK256 SWAP1 PUSH1 0x2 MUL ADD PUSH1 0x1 ADD DUP1 DUP1 SLOAD PUSH2 0x15A SWAP1 PUSH2 0x7A2 JUMP JUMPDEST DUP1 PUSH1 0x1F ADD PUSH1 0x20 DUP1 SWAP2 DIV MUL PUSH1 0x20 ADD PUSH1 0x40 MLOAD SWAP1 DUP2 ADD PUSH1 0x40 MSTORE DUP1 SWAP3 SWAP2 SWAP1 DUP2 DUP2 MSTORE PUSH1 0x20 ADD DUP3 DUP1 SLOAD PUSH2 0x186 SWAP1 PUSH2 0x7A2 JUMP JUMPDEST DUP1 ISZERO PUSH2 0x1D3 JUMPI DUP1 PUSH1 0x1F LT PUSH2 0x1A8 JUMPI PUSH2 0x100 DUP1 DUP4 SLOAD DIV MUL DUP4 MSTORE SWAP2 PUSH1 0x20 ADD SWAP2 PUSH2 0x1D3 JUMP JUMPDEST DUP3 ADD SWAP2 SWAP1 PUSH1 0x0 MSTORE PUSH1 0x20 PUSH1 0x0 KECCAK256 SWAP1 JUMPDEST DUP2 SLOAD DUP2 MSTORE SWAP1 PUSH1 0x1 ADD SWAP1 PUSH1 0x20 ADD DUP1 DUP4 GT PUSH2 0x1B6 JUMPI DUP3 SWAP1 SUB PUSH1 0x1F AND DUP3 ADD SWAP2 JUMPDEST POP POP POP POP POP SWAP1 POP SWAP2 POP SWAP2 POP SWAP2 POP SWAP2 JUMP JUMPDEST PUSH1 0x1 DUP2 DUP1 MLOAD PUSH1 0x20 DUP2 ADD DUP3 ADD DUP1 MLOAD DUP5 DUP3 MSTORE PUSH1 0x20 DUP4 ADD PUSH1 0x20 DUP6 ADD KECCAK256 DUP2 DUP4 MSTORE DUP1 SWAP6 POP POP POP POP POP POP PUSH1 0x0 SWAP2 POP SWAP1 POP SLOAD DUP2 JUMP JUMPDEST PUSH1 0x2 DUP2 DUP2 SLOAD DUP2 LT PUSH2 0x221 JUMPI PUSH1 0x0 DUP1 REVERT JUMPDEST SWAP1 PUSH1 0x0 MSTORE PUSH1 0x20 PUSH1 0x0 KECCAK256 SWAP1 PUSH1 0x2 MUL ADD PUSH1 0x0 SWAP2 POP SWAP1 POP DUP1 PUSH1 0x0 ADD SLOAD SWAP1 DUP1 PUSH1 0x1 ADD DUP1 SLOAD PUSH2 0x24A SWAP1 PUSH2 0x7A2 JUMP JUMPDEST DUP1 PUSH1 0x1F ADD PUSH1 0x20 DUP1 SWAP2 DIV MUL PUSH1 0x20 ADD PUSH1 0x40 MLOAD SWAP1 DUP2 ADD PUSH1 0x40 MSTORE DUP1 SWAP3 SWAP2 SWAP1 DUP2 DUP2 MSTORE PUSH1 0x20 ADD DUP3 DUP1 SLOAD PUSH2 0x276 SWAP1 PUSH2 0x7A2 JUMP JUMPDEST DUP1 ISZERO PUSH2 0x2C3 JUMPI DUP1 PUSH1 0x1F LT PUSH2 0x298 JUMPI PUSH2 0x100 DUP1 DUP4 SLOAD DIV MUL DUP4 MSTORE SWAP2 PUSH1 0x20 ADD SWAP2 PUSH2 0x2C3 JUMP JUMPDEST DUP3 ADD SWAP2 SWAP1 PUSH1 0x0 MSTORE PUSH1 0x20 PUSH1 0x0 KECCAK256 SWAP1 JUMPDEST DUP2 SLOAD DUP2 MSTORE SWAP1 PUSH1 0x1 ADD SWAP1 PUSH1 0x20 ADD DUP1 DUP4 GT PUSH2 0x2A6 JUMPI DUP3 SWAP1 SUB PUSH1 0x1F AND DUP3 ADD SWAP2 JUMPDEST POP POP POP POP POP SWAP1 POP DUP3 JUMP JUMPDEST PUSH1 0x2 PUSH1 0x40 MLOAD DUP1 PUSH1 0x40 ADD PUSH1 0x40 MSTORE DUP1 DUP5 DUP2 MSTORE PUSH1 0x20 ADD DUP4 DUP2 MSTORE POP SWAP1 DUP1 PUSH1 0x1 DUP2 SLOAD ADD DUP1 DUP3 SSTORE DUP1 SWAP2 POP POP PUSH1 0x1 SWAP1 SUB SWAP1 PUSH1 0x0 MSTORE PUSH1 0x20 PUSH1 0x0 KECCAK256 SWAP1 PUSH1 0x2 MUL ADD PUSH1 0x0 SWAP1 SWAP2 SWAP1 SWAP2 SWAP1 SWAP2 POP PUSH1 0x0 DUP3 ADD MLOAD DUP2 PUSH1 0x0 ADD SSTORE PUSH1 0x20 DUP3 ADD MLOAD DUP2 PUSH1 0x1 ADD SWAP1 DUP1 MLOAD SWAP1 PUSH1 0x20 ADD SWAP1 PUSH2 0x333 SWAP3 SWAP2 SWAP1 PUSH2 0x35D JUMP JUMPDEST POP POP POP DUP2 PUSH1 0x1 DUP3 PUSH1 0x40 MLOAD PUSH2 0x347 SWAP2 SWAP1 PUSH2 0x80F JUMP JUMPDEST SWAP1 DUP2 MSTORE PUSH1 0x20 ADD PUSH1 0x40 MLOAD DUP1 SWAP2 SUB SWAP1 KECCAK256 DUP2 SWAP1 SSTORE POP POP POP JUMP JUMPDEST DUP3 DUP1 SLOAD PUSH2 0x369 SWAP1 PUSH2 0x7A2 JUMP JUMPDEST SWAP1 PUSH1 0x0 MSTORE PUSH1 0x20 PUSH1 0x0 KECCAK256 SWAP1 PUSH1 0x1F ADD PUSH1 0x20 SWAP1 DIV DUP2 ADD SWAP3 DUP3 PUSH2 0x38B JUMPI PUSH1 0x0 DUP6 SSTORE PUSH2 0x3D2 JUMP JUMPDEST DUP3 PUSH1 0x1F LT PUSH2 0x3A4 JUMPI DUP1 MLOAD PUSH1 0xFF NOT AND DUP4 DUP1 ADD OR DUP6 SSTORE PUSH2 0x3D2 JUMP JUMPDEST DUP3 DUP1 ADD PUSH1 0x1 ADD DUP6 SSTORE DUP3 ISZERO PUSH2 0x3D2 JUMPI SWAP2 DUP3 ADD JUMPDEST DUP3 DUP2 GT ISZERO PUSH2 0x3D1 JUMPI DUP3 MLOAD DUP3 SSTORE SWAP2 PUSH1 0x20 ADD SWAP2 SWAP1 PUSH1 0x1 ADD SWAP1 PUSH2 0x3B6 JUMP JUMPDEST JUMPDEST POP SWAP1 POP PUSH2 0x3DF SWAP2 SWAP1 PUSH2 0x3E3 JUMP JUMPDEST POP SWAP1 JUMP JUMPDEST JUMPDEST DUP1 DUP3 GT ISZERO PUSH2 0x3FC JUMPI PUSH1 0x0 DUP2 PUSH1 0x0 SWAP1 SSTORE POP PUSH1 0x1 ADD PUSH2 0x3E4 JUMP JUMPDEST POP SWAP1 JUMP JUMPDEST PUSH1 0x0 PUSH1 0x40 MLOAD SWAP1 POP SWAP1 JUMP JUMPDEST PUSH1 0x0 DUP1 REVERT JUMPDEST PUSH1 0x0 DUP1 REVERT JUMPDEST PUSH1 0x0 DUP2 SWAP1 POP SWAP2 SWAP1 POP JUMP JUMPDEST PUSH2 0x427 DUP2 PUSH2 0x414 JUMP JUMPDEST DUP2 EQ PUSH2 0x432 JUMPI PUSH1 0x0 DUP1 REVERT JUMPDEST POP JUMP JUMPDEST PUSH1 0x0 DUP2 CALLDATALOAD SWAP1 POP PUSH2 0x444 DUP2 PUSH2 0x41E JUMP JUMPDEST SWAP3 SWAP2 POP POP JUMP JUMPDEST PUSH1 0x0 PUSH1 0x20 DUP3 DUP5 SUB SLT ISZERO PUSH2 0x460 JUMPI PUSH2 0x45F PUSH2 0x40A JUMP JUMPDEST JUMPDEST PUSH1 0x0 PUSH2 0x46E DUP5 DUP3 DUP6 ADD PUSH2 0x435 JUMP JUMPDEST SWAP2 POP POP SWAP3 SWAP2 POP POP JUMP JUMPDEST PUSH2 0x480 DUP2 PUSH2 0x414 JUMP JUMPDEST DUP3 MSTORE POP POP JUMP JUMPDEST PUSH1 0x0 DUP2 MLOAD SWAP1 POP SWAP2 SWAP1 POP JUMP JUMPDEST PUSH1 0x0 DUP3 DUP3 MSTORE PUSH1 0x20 DUP3 ADD SWAP1 POP SWAP3 SWAP2 POP POP JUMP JUMPDEST PUSH1 0x0 JUMPDEST DUP4 DUP2 LT ISZERO PUSH2 0x4C0 JUMPI DUP1 DUP3 ADD MLOAD DUP2 DUP5 ADD MSTORE PUSH1 0x20 DUP2 ADD SWAP1 POP PUSH2 0x4A5 JUMP JUMPDEST DUP4 DUP2 GT ISZERO PUSH2 0x4CF JUMPI PUSH1 0x0 DUP5 DUP5 ADD MSTORE JUMPDEST POP POP POP POP JUMP JUMPDEST PUSH1 0x0 PUSH1 0x1F NOT PUSH1 0x1F DUP4 ADD AND SWAP1 POP SWAP2 SWAP1 POP JUMP JUMPDEST PUSH1 0x0 PUSH2 0x4F1 DUP3 PUSH2 0x486 JUMP JUMPDEST PUSH2 0x4FB DUP2 DUP6 PUSH2 0x491 JUMP JUMPDEST SWAP4 POP PUSH2 0x50B DUP2 DUP6 PUSH1 0x20 DUP7 ADD PUSH2 0x4A2 JUMP JUMPDEST PUSH2 0x514 DUP2 PUSH2 0x4D5 JUMP JUMPDEST DUP5 ADD SWAP2 POP POP SWAP3 SWAP2 POP POP JUMP JUMPDEST PUSH1 0x0 PUSH1 0x40 DUP3 ADD SWAP1 POP PUSH2 0x534 PUSH1 0x0 DUP4 ADD DUP6 PUSH2 0x477 JUMP JUMPDEST DUP2 DUP2 SUB PUSH1 0x20 DUP4 ADD MSTORE PUSH2 0x546 DUP2 DUP5 PUSH2 0x4E6 JUMP JUMPDEST SWAP1 POP SWAP4 SWAP3 POP POP POP JUMP JUMPDEST PUSH1 0x0 DUP1 REVERT JUMPDEST PUSH1 0x0 DUP1 REVERT JUMPDEST PUSH32 0x4E487B7100000000000000000000000000000000000000000000000000000000 PUSH1 0x0 MSTORE PUSH1 0x41 PUSH1 0x4 MSTORE PUSH1 0x24 PUSH1 0x0 REVERT JUMPDEST PUSH2 0x591 DUP3 PUSH2 0x4D5 JUMP JUMPDEST DUP2 ADD DUP2 DUP2 LT PUSH8 0xFFFFFFFFFFFFFFFF DUP3 GT OR ISZERO PUSH2 0x5B0 JUMPI PUSH2 0x5AF PUSH2 0x559 JUMP JUMPDEST JUMPDEST DUP1 PUSH1 0x40 MSTORE POP POP POP JUMP JUMPDEST PUSH1 0x0 PUSH2 0x5C3 PUSH2 0x400 JUMP JUMPDEST SWAP1 POP PUSH2 0x5CF DUP3 DUP3 PUSH2 0x588 JUMP JUMPDEST SWAP2 SWAP1 POP JUMP JUMPDEST PUSH1 0x0 PUSH8 0xFFFFFFFFFFFFFFFF DUP3 GT ISZERO PUSH2 0x5EF JUMPI PUSH2 0x5EE PUSH2 0x559 JUMP JUMPDEST JUMPDEST PUSH2 0x5F8 DUP3 PUSH2 0x4D5 JUMP JUMPDEST SWAP1 POP PUSH1 0x20 DUP2 ADD SWAP1 POP SWAP2 SWAP1 POP JUMP JUMPDEST DUP3 DUP2 DUP4 CALLDATACOPY PUSH1 0x0 DUP4 DUP4 ADD MSTORE POP POP POP JUMP JUMPDEST PUSH1 0x0 PUSH2 0x627 PUSH2 0x622 DUP5 PUSH2 0x5D4 JUMP JUMPDEST PUSH2 0x5B9 JUMP JUMPDEST SWAP1 POP DUP3 DUP2 MSTORE PUSH1 0x20 DUP2 ADD DUP5 DUP5 DUP5 ADD GT ISZERO PUSH2 0x643 JUMPI PUSH2 0x642 PUSH2 0x554 JUMP JUMPDEST JUMPDEST PUSH2 0x64E DUP5 DUP3 DUP6 PUSH2 0x605 JUMP JUMPDEST POP SWAP4 SWAP3 POP POP POP JUMP JUMPDEST PUSH1 0x0 DUP3 PUSH1 0x1F DUP4 ADD SLT PUSH2 0x66B JUMPI PUSH2 0x66A PUSH2 0x54F JUMP JUMPDEST JUMPDEST DUP2 CALLDATALOAD PUSH2 0x67B DUP5 DUP3 PUSH1 0x20 DUP7 ADD PUSH2 0x614 JUMP JUMPDEST SWAP2 POP POP SWAP3 SWAP2 POP POP JUMP JUMPDEST PUSH1 0x0 PUSH1 0x20 DUP3 DUP5 SUB SLT ISZERO PUSH2 0x69A JUMPI PUSH2 0x699 PUSH2 0x40A JUMP JUMPDEST JUMPDEST PUSH1 0x0 DUP3 ADD CALLDATALOAD PUSH8 0xFFFFFFFFFFFFFFFF DUP2 GT ISZERO PUSH2 0x6B8 JUMPI PUSH2 0x6B7 PUSH2 0x40F JUMP JUMPDEST JUMPDEST PUSH2 0x6C4 DUP5 DUP3 DUP6 ADD PUSH2 0x656 JUMP JUMPDEST SWAP2 POP POP SWAP3 SWAP2 POP POP JUMP JUMPDEST PUSH1 0x0 PUSH1 0x20 DUP3 ADD SWAP1 POP PUSH2 0x6E2 PUSH1 0x0 DUP4 ADD DUP5 PUSH2 0x477 JUMP JUMPDEST SWAP3 SWAP2 POP POP JUMP JUMPDEST PUSH1 0x0 DUP1 PUSH1 0x40 DUP4 DUP6 SUB SLT ISZERO PUSH2 0x6FF JUMPI PUSH2 0x6FE PUSH2 0x40A JUMP JUMPDEST JUMPDEST PUSH1 0x0 PUSH2 0x70D DUP6 DUP3 DUP7 ADD PUSH2 0x435 JUMP JUMPDEST SWAP3 POP POP PUSH1 0x20 DUP4 ADD CALLDATALOAD PUSH8 0xFFFFFFFFFFFFFFFF DUP2 GT ISZERO PUSH2 0x72E JUMPI PUSH2 0x72D PUSH2 0x40F JUMP JUMPDEST JUMPDEST PUSH2 0x73A DUP6 DUP3 DUP7 ADD PUSH2 0x656 JUMP JUMPDEST SWAP2 POP POP SWAP3 POP SWAP3 SWAP1 POP JUMP JUMPDEST PUSH32 0x4E487B7100000000000000000000000000000000000000000000000000000000 PUSH1 0x0 MSTORE PUSH1 0x32 PUSH1 0x4 MSTORE PUSH1 0x24 PUSH1 0x0 REVERT JUMPDEST PUSH32 0x4E487B7100000000000000000000000000000000000000000000000000000000 PUSH1 0x0 MSTORE PUSH1 0x22 PUSH1 0x4 MSTORE PUSH1 0x24 PUSH1 0x0 REVERT JUMPDEST PUSH1 0x0 PUSH1 0x2 DUP3 DIV SWAP1 POP PUSH1 0x1 DUP3 AND DUP1 PUSH2 0x7BA JUMPI PUSH1 0x7F DUP3 AND SWAP2 POP JUMPDEST PUSH1 0x20 DUP3 LT DUP2 SUB PUSH2 0x7CD JUMPI PUSH2 0x7CC PUSH2 0x773 JUMP JUMPDEST JUMPDEST POP SWAP2 SWAP1 POP JUMP JUMPDEST PUSH1 0x0 DUP2 SWAP1 POP SWAP3 SWAP2 POP POP JUMP JUMPDEST PUSH1 0x0 PUSH2 0x7E9 DUP3 PUSH2 0x486 JUMP JUMPDEST PUSH2 0x7F3 DUP2 DUP6 PUSH2 0x7D3 JUMP JUMPDEST SWAP4 POP PUSH2 0x803 DUP2 DUP6 PUSH1 0x20 DUP7 ADD PUSH2 0x4A2 JUMP JUMPDEST DUP1 DUP5 ADD SWAP2 POP POP SWAP3 SWAP2 POP POP JUMP JUMPDEST PUSH1 0x0 PUSH2 0x81B DUP3 DUP5 PUSH2 0x7DE JUMP JUMPDEST SWAP2 POP DUP2 SWAP1 POP SWAP3 SWAP2 POP POP JUMP INVALID LOG2 PUSH5 0x6970667358 0x22 SLT KECCAK256 0xC5 0xF7 BLOCKHASH 0xAF DELEGATECALL CALL 0xD5 0xC5 COINBASE SELFDESTRUCT 0xE2 SGT 0x29 CALLVALUE 0xE7 CREATE 0xE7 JUMPI RETURNDATACOPY RETURNDATASIZE 0xE3 0xD 0xC LOG1 MOD PUSH29 0x42DE1565B5D364736F6C634300080D0033A2646970667358221220881B 0x4C SWAP7 PUSH7 0x2632AC67E6D091 SWAP12 CALLCODE 0x23 0x27 MLOAD 0xCB 0xAB CALLDATASIZE 0xDF GASPRICE 0xDC REVERT DUP3 SWAP14 0xDA SWAP9 ISZERO 0x4B SHR 0xCC PUSH5 0x736F6C6343 STOP ADDMOD 0xD STOP CALLER "
				},
				"gasEstimates": {
					"creation": {
						"codeDepositCost": "564800",
						"executionCost": "600",
						"totalCost": "565400"
					},
					"external": {
						"createSimpleStorageContract()": "infinite",
						"simpleStorageArray(uint256)": "infinite"
					}
				},
				"methodIdentifiers": {
					"createSimpleStorageContract()": "1dda6541",
					"simpleStorageArray(uint256)": "64591bf1"
				}
			},
			"storageLayout": {
				"storage": [
					{
						"astId": 67,
						"contract": "FreeCodeCamp/StorageFactory.sol:StorageFactory",
						"label": "simpleStorageArray",
						"offset": 0,
						"slot": "0",
						"type": "t_array(t_contract(SimpleStorage)60)dyn_storage"
					}
				],
				"types": {
					"t_array(t_contract(SimpleStorage)60)dyn_storage": {
						"base": "t_contract(SimpleStorage)60",
						"encoding": "dynamic_array",
						"label": "contract SimpleStorage[]",
						"numberOfBytes": "32"
					},
					"t_contract(SimpleStorage)60": {
						"encoding": "inplace",
						"label": "contract SimpleStorage",
						"numberOfBytes": "20"
					}
				}
			},
			"userdoc": {
				"kind": "user",
				"methods": {},
				"version": 1
			}
		}
	}
}