{
	"FreeCodeCamp/ExtraStorage.sol": {
		"ExtraStorage": {
			"abi": [
				{
					"inputs": [
						{
							"internalType": "uint256",
							"name": "_favoriteNumber",
							"type": "uint256"
						},
						{
							"internalType": "string",
							"name": "_name",
							"type": "string"
						}
					],
					"name": "addPerson",
					"outputs": [],
					"stateMutability": "nonpayable",
					"type": "function"
				},
				{
					"inputs": [
						{
							"internalType": "uint256",
							"name": "x",
							"type": "uint256"
						}
					],
					"name": "getPerson",
					"outputs": [
						{
							"internalType": "uint256",
							"name": "",
							"type": "uint256"
						},
						{
							"internalType": "string",
							"name": "",
							"type": "string"
						}
					],
					"stateMutability": "view",
					"type": "function"
				},
				{
					"inputs": [
						{
							"internalType": "string",
							"name": "",
							"type": "string"
						}
					],
					"name": "nameToFavoriteNumber",
					"outputs": [
						{
							"internalType": "uint256",
							"name": "",
							"type": "uint256"
						}
					],
					"stateMutability": "view",
					"type": "function"
				},
				{
					"inputs": [
						{
							"internalType": "uint256",
							"name": "",
							"type": "uint256"
						}
					],
					"name": "people",
					"outputs": [
						{
							"internalType": "uint256",
							"name": "favoriteNumber",
							"type": "uint256"
						},
						{
							"internalType": "string",
							"name": "name",
							"type": "string"
						}
					],
					"stateMutability": "view",
					"type": "function"
				},
				{
					"inputs": [],
					"name": "retrieve",
					"outputs": [
						{
							"internalType": "uint256",
							"name": "",
							"type": "uint256"
						}
					],
					"stateMutability": "view",
					"type": "function"
				},
				{
					"inputs": [
						{
							"internalType": "uint256",
							"name": "_favoriteNumber",
							"type": "uint256"
						}
					],
					"name": "store",
					"outputs": [],
					"stateMutability": "nonpayable",
					"type": "function"
				}
			],
			"devdoc": {
				"kind": "dev",
				"methods": {},
				"version": 1
			},
			"evm": {
				"assembly": "    /* \"FreeCodeCamp/ExtraStorage.sol\":89:367  contract ExtraStorage is SimpleStorage {... */\n  mstore(0x40, 0x80)\n  callvalue\n  dup1\n  iszero\n  tag_1\n  jumpi\n  0x00\n  dup1\n  revert\ntag_1:\n  pop\n  dataSize(sub_0)\n  dup1\n  dataOffset(sub_0)\n  0x00\n  codecopy\n  0x00\n  return\nstop\n\nsub_0: assembly {\n        /* \"FreeCodeCamp/ExtraStorage.sol\":89:367  contract ExtraStorage is SimpleStorage {... */\n      mstore(0x40, 0x80)\n      callvalue\n      dup1\n      iszero\n      tag_1\n      jumpi\n      0x00\n      dup1\n      revert\n    tag_1:\n      pop\n      jumpi(tag_2, lt(calldatasize, 0x04))\n      shr(0xe0, calldataload(0x00))\n      dup1\n      0x246982c4\n      eq\n      tag_3\n      jumpi\n      dup1\n      0x2e64cec1\n      eq\n      tag_4\n      jumpi\n      dup1\n      0x6057361d\n      eq\n      tag_5\n      jumpi\n      dup1\n      0x8bab8dd5\n      eq\n      tag_6\n      jumpi\n      dup1\n      0x9e7a13ad\n      eq\n      tag_7\n      jumpi\n      dup1\n      0xbc832d4e\n      eq\n      tag_8\n      jumpi\n    tag_2:\n      0x00\n      dup1\n      revert\n        /* \"FreeCodeCamp/SimpleStorage.sol\":680:817  function getPerson(uint x) public view returns(uint256, string memory) {... */\n    tag_3:\n      tag_9\n      0x04\n      dup1\n      calldatasize\n      sub\n      dup2\n      add\n      swap1\n      tag_10\n      swap2\n      swap1\n      tag_11\n      jump\t// in\n    tag_10:\n      tag_12\n      jump\t// in\n    tag_9:\n      mload(0x40)\n      tag_13\n      swap3\n      swap2\n      swap1\n      tag_14\n      jump\t// in\n    tag_13:\n      mload(0x40)\n      dup1\n      swap2\n      sub\n      swap1\n      return\n        /* \"FreeCodeCamp/SimpleStorage.sol\":587:674  function retrieve() public view returns (uint256){... */\n    tag_4:\n      tag_15\n      tag_16\n      jump\t// in\n    tag_15:\n      mload(0x40)\n      tag_17\n      swap2\n      swap1\n      tag_18\n      jump\t// in\n    tag_17:\n      mload(0x40)\n      dup1\n      swap2\n      sub\n      swap1\n      return\n        /* \"FreeCodeCamp/ExtraStorage.sol\":256:365  function store(uint256 _favoriteNumber) public override {... */\n    tag_5:\n      tag_19\n      0x04\n      dup1\n      calldatasize\n      sub\n      dup2\n      add\n      swap1\n      tag_20\n      swap2\n      swap1\n      tag_11\n      jump\t// in\n    tag_20:\n      tag_21\n      jump\t// in\n    tag_19:\n      stop\n        /* \"FreeCodeCamp/SimpleStorage.sol\":114:168  mapping(string => uint256) public nameToFavoriteNumber */\n    tag_6:\n      tag_22\n      0x04\n      dup1\n      calldatasize\n      sub\n      dup2\n      add\n      swap1\n      tag_23\n      swap2\n      swap1\n      tag_24\n      jump\t// in\n    tag_23:\n      tag_25\n      jump\t// in\n    tag_22:\n      mload(0x40)\n      tag_26\n      swap2\n      swap1\n      tag_18\n      jump\t// in\n    tag_26:\n      mload(0x40)\n      dup1\n      swap2\n      sub\n      swap1\n      return\n        /* \"FreeCodeCamp/SimpleStorage.sol\":255:277  People[] public people */\n    tag_7:\n      tag_27\n      0x04\n      dup1\n      calldatasize\n      sub\n      dup2\n      add\n      swap1\n      tag_28\n      swap2\n      swap1\n      tag_11\n      jump\t// in\n    tag_28:\n      tag_29\n      jump\t// in\n    tag_27:\n      mload(0x40)\n      tag_30\n      swap3\n      swap2\n      swap1\n      tag_14\n      jump\t// in\n    tag_30:\n      mload(0x40)\n      dup1\n      swap2\n      sub\n      swap1\n      return\n        /* \"FreeCodeCamp/SimpleStorage.sol\":284:471  function addPerson(uint256 _favoriteNumber, string memory _name) public {... */\n    tag_8:\n      tag_31\n      0x04\n      dup1\n      calldatasize\n      sub\n      dup2\n      add\n      swap1\n      tag_32\n      swap2\n      swap1\n      tag_33\n      jump\t// in\n    tag_32:\n      tag_34\n      jump\t// in\n    tag_31:\n      stop\n        /* \"FreeCodeCamp/SimpleStorage.sol\":680:817  function getPerson(uint x) public view returns(uint256, string memory) {... */\n    tag_12:\n        /* \"FreeCodeCamp/SimpleStorage.sol\":727:734  uint256 */\n      0x00\n        /* \"FreeCodeCamp/SimpleStorage.sol\":736:749  string memory */\n      0x60\n        /* \"FreeCodeCamp/SimpleStorage.sol\":769:775  people */\n      0x02\n        /* \"FreeCodeCamp/SimpleStorage.sol\":776:777  x */\n      dup4\n        /* \"FreeCodeCamp/SimpleStorage.sol\":769:778  people[x] */\n      dup2\n      sload\n      dup2\n      lt\n      tag_36\n      jumpi\n      tag_37\n      tag_38\n      jump\t// in\n    tag_37:\n    tag_36:\n      swap1\n      0x00\n      mstore\n      keccak256(0x00, 0x20)\n      swap1\n      0x02\n      mul\n      add\n        /* \"FreeCodeCamp/SimpleStorage.sol\":769:793  people[x].favoriteNumber */\n      0x00\n      add\n      sload\n        /* \"FreeCodeCamp/SimpleStorage.sol\":795:801  people */\n      0x02\n        /* \"FreeCodeCamp/SimpleStorage.sol\":802:803  x */\n      dup5\n        /* \"FreeCodeCamp/SimpleStorage.sol\":795:804  people[x] */\n      dup2\n      sload\n      dup2\n      lt\n      tag_40\n      jumpi\n      tag_41\n      tag_38\n      jump\t// in\n    tag_41:\n    tag_40:\n      swap1\n      0x00\n      mstore\n      keccak256(0x00, 0x20)\n      swap1\n      0x02\n      mul\n      add\n        /* \"FreeCodeCamp/SimpleStorage.sol\":795:809  people[x].name */\n      0x01\n      add\n        /* \"FreeCodeCamp/SimpleStorage.sol\":761:810  return (people[x].favoriteNumber, people[x].name) */\n      dup1\n      dup1\n      sload\n      tag_43\n      swap1\n      tag_44\n      jump\t// in\n    tag_43:\n      dup1\n      0x1f\n      add\n      0x20\n      dup1\n      swap2\n      div\n      mul\n      0x20\n      add\n      mload(0x40)\n      swap1\n      dup2\n      add\n      0x40\n      mstore\n      dup1\n      swap3\n      swap2\n      swap1\n      dup2\n      dup2\n      mstore\n      0x20\n      add\n      dup3\n      dup1\n      sload\n      tag_45\n      swap1\n      tag_44\n      jump\t// in\n    tag_45:\n      dup1\n      iszero\n      tag_46\n      jumpi\n      dup1\n      0x1f\n      lt\n      tag_47\n      jumpi\n      0x0100\n      dup1\n      dup4\n      sload\n      div\n      mul\n      dup4\n      mstore\n      swap2\n      0x20\n      add\n      swap2\n      jump(tag_46)\n    tag_47:\n      dup3\n      add\n      swap2\n      swap1\n      0x00\n      mstore\n      keccak256(0x00, 0x20)\n      swap1\n    tag_48:\n      dup2\n      sload\n      dup2\n      mstore\n      swap1\n      0x01\n      add\n      swap1\n      0x20\n      add\n      dup1\n      dup4\n      gt\n      tag_48\n      jumpi\n      dup3\n      swap1\n      sub\n      0x1f\n      and\n      dup3\n      add\n      swap2\n    tag_46:\n      pop\n      pop\n      pop\n      pop\n      pop\n      swap1\n      pop\n      swap2\n      pop\n      swap2\n      pop\n        /* \"FreeCodeCamp/SimpleStorage.sol\":680:817  function getPerson(uint x) public view returns(uint256, string memory) {... */\n      swap2\n      pop\n      swap2\n      jump\t// out\n        /* \"FreeCodeCamp/SimpleStorage.sol\":587:674  function retrieve() public view returns (uint256){... */\n    tag_16:\n        /* \"FreeCodeCamp/SimpleStorage.sol\":628:635  uint256 */\n      0x00\n        /* \"FreeCodeCamp/SimpleStorage.sol\":653:667  favoriteNumber */\n      dup1\n      sload\n        /* \"FreeCodeCamp/SimpleStorage.sol\":646:667  return favoriteNumber */\n      swap1\n      pop\n        /* \"FreeCodeCamp/SimpleStorage.sol\":587:674  function retrieve() public view returns (uint256){... */\n      swap1\n      jump\t// out\n        /* \"FreeCodeCamp/ExtraStorage.sol\":256:365  function store(uint256 _favoriteNumber) public override {... */\n    tag_21:\n        /* \"FreeCodeCamp/ExtraStorage.sol\":357:358  5 */\n      0x05\n        /* \"FreeCodeCamp/ExtraStorage.sol\":339:354  _favoriteNumber */\n      dup2\n        /* \"FreeCodeCamp/ExtraStorage.sol\":339:358  _favoriteNumber + 5 */\n      tag_51\n      swap2\n      swap1\n      tag_52\n      jump\t// in\n    tag_51:\n        /* \"FreeCodeCamp/ExtraStorage.sol\":322:336  favoriteNumber */\n      0x00\n        /* \"FreeCodeCamp/ExtraStorage.sol\":322:358  favoriteNumber = _favoriteNumber + 5 */\n      dup2\n      swap1\n      sstore\n      pop\n        /* \"FreeCodeCamp/ExtraStorage.sol\":256:365  function store(uint256 _favoriteNumber) public override {... */\n      pop\n      jump\t// out\n        /* \"FreeCodeCamp/SimpleStorage.sol\":114:168  mapping(string => uint256) public nameToFavoriteNumber */\n    tag_25:\n      0x01\n      dup2\n      dup1\n      mload\n      0x20\n      dup2\n      add\n      dup3\n      add\n      dup1\n      mload\n      dup5\n      dup3\n      mstore\n      0x20\n      dup4\n      add\n      0x20\n      dup6\n      add\n      keccak256\n      dup2\n      dup4\n      mstore\n      dup1\n      swap6\n      pop\n      pop\n      pop\n      pop\n      pop\n      pop\n      0x00\n      swap2\n      pop\n      swap1\n      pop\n      sload\n      dup2\n      jump\t// out\n        /* \"FreeCodeCamp/SimpleStorage.sol\":255:277  People[] public people */\n    tag_29:\n      0x02\n      dup2\n      dup2\n      sload\n      dup2\n      lt\n      tag_53\n      jumpi\n      0x00\n      dup1\n      revert\n    tag_53:\n      swap1\n      0x00\n      mstore\n      keccak256(0x00, 0x20)\n      swap1\n      0x02\n      mul\n      add\n      0x00\n      swap2\n      pop\n      swap1\n      pop\n      dup1\n      0x00\n      add\n      sload\n      swap1\n      dup1\n      0x01\n      add\n      dup1\n      sload\n      tag_55\n      swap1\n      tag_44\n      jump\t// in\n    tag_55:\n      dup1\n      0x1f\n      add\n      0x20\n      dup1\n      swap2\n      div\n      mul\n      0x20\n      add\n      mload(0x40)\n      swap1\n      dup2\n      add\n      0x40\n      mstore\n      dup1\n      swap3\n      swap2\n      swap1\n      dup2\n      dup2\n      mstore\n      0x20\n      add\n      dup3\n      dup1\n      sload\n      tag_56\n      swap1\n      tag_44\n      jump\t// in\n    tag_56:\n      dup1\n      iszero\n      tag_57\n      jumpi\n      dup1\n      0x1f\n      lt\n      tag_58\n      jumpi\n      0x0100\n      dup1\n      dup4\n      sload\n      div\n      mul\n      dup4\n      mstore\n      swap2\n      0x20\n      add\n      swap2\n      jump(tag_57)\n    tag_58:\n      dup3\n      add\n      swap2\n      swap1\n      0x00\n      mstore\n      keccak256(0x00, 0x20)\n      swap1\n    tag_59:\n      dup2\n      sload\n      dup2\n      mstore\n      swap1\n      0x01\n      add\n      swap1\n      0x20\n      add\n      dup1\n      dup4\n      gt\n      tag_59\n      jumpi\n      dup3\n      swap1\n      sub\n      0x1f\n      and\n      dup3\n      add\n      swap2\n    tag_57:\n      pop\n      pop\n      pop\n      pop\n      pop\n      swap1\n      pop\n      dup3\n      jump\t// out\n        /* \"FreeCodeCamp/SimpleStorage.sol\":284:471  function addPerson(uint256 _favoriteNumber, string memory _name) public {... */\n    tag_34:\n        /* \"FreeCodeCamp/SimpleStorage.sol\":366:372  people */\n      0x02\n        /* \"FreeCodeCamp/SimpleStorage.sol\":378:408  People(_favoriteNumber, _name) */\n      mload(0x40)\n      dup1\n      0x40\n      add\n      0x40\n      mstore\n      dup1\n        /* \"FreeCodeCamp/SimpleStorage.sol\":385:400  _favoriteNumber */\n      dup5\n        /* \"FreeCodeCamp/SimpleStorage.sol\":378:408  People(_favoriteNumber, _name) */\n      dup2\n      mstore\n      0x20\n      add\n        /* \"FreeCodeCamp/SimpleStorage.sol\":402:407  _name */\n      dup4\n        /* \"FreeCodeCamp/SimpleStorage.sol\":378:408  People(_favoriteNumber, _name) */\n      dup2\n      mstore\n      pop\n        /* \"FreeCodeCamp/SimpleStorage.sol\":366:409  people.push(People(_favoriteNumber, _name)) */\n      swap1\n      dup1\n      0x01\n      dup2\n      sload\n      add\n      dup1\n      dup3\n      sstore\n      dup1\n      swap2\n      pop\n      pop\n      0x01\n      swap1\n      sub\n      swap1\n      0x00\n      mstore\n      keccak256(0x00, 0x20)\n      swap1\n      0x02\n      mul\n      add\n      0x00\n      swap1\n      swap2\n      swap1\n      swap2\n      swap1\n      swap2\n      pop\n      0x00\n      dup3\n      add\n      mload\n      dup2\n      0x00\n      add\n      sstore\n      0x20\n      dup3\n      add\n      mload\n      dup2\n      0x01\n      add\n      swap1\n      dup1\n      mload\n      swap1\n      0x20\n      add\n      swap1\n      tag_62\n      swap3\n      swap2\n      swap1\n      tag_63\n      jump\t// in\n    tag_62:\n      pop\n      pop\n      pop\n        /* \"FreeCodeCamp/SimpleStorage.sol\":449:464  _favoriteNumber */\n      dup2\n        /* \"FreeCodeCamp/SimpleStorage.sol\":419:439  nameToFavoriteNumber */\n      0x01\n        /* \"FreeCodeCamp/SimpleStorage.sol\":440:445  _name */\n      dup3\n        /* \"FreeCodeCamp/SimpleStorage.sol\":419:446  nameToFavoriteNumber[_name] */\n      mload(0x40)\n      tag_64\n      swap2\n      swap1\n      tag_65\n      jump\t// in\n    tag_64:\n      swap1\n      dup2\n      mstore\n      0x20\n      add\n      mload(0x40)\n      dup1\n      swap2\n      sub\n      swap1\n      keccak256\n        /* \"FreeCodeCamp/SimpleStorage.sol\":419:464  nameToFavoriteNumber[_name] = _favoriteNumber */\n      dup2\n      swap1\n      sstore\n      pop\n        /* \"FreeCodeCamp/SimpleStorage.sol\":284:471  function addPerson(uint256 _favoriteNumber, string memory _name) public {... */\n      pop\n      pop\n      jump\t// out\n    tag_63:\n      dup3\n      dup1\n      sload\n      tag_66\n      swap1\n      tag_44\n      jump\t// in\n    tag_66:\n      swap1\n      0x00\n      mstore\n      keccak256(0x00, 0x20)\n      swap1\n      0x1f\n      add\n      0x20\n      swap1\n      div\n      dup2\n      add\n      swap3\n      dup3\n      tag_68\n      jumpi\n      0x00\n      dup6\n      sstore\n      jump(tag_67)\n    tag_68:\n      dup3\n      0x1f\n      lt\n      tag_69\n      jumpi\n      dup1\n      mload\n      not(0xff)\n      and\n      dup4\n      dup1\n      add\n      or\n      dup6\n      sstore\n      jump(tag_67)\n    tag_69:\n      dup3\n      dup1\n      add\n      0x01\n      add\n      dup6\n      sstore\n      dup3\n      iszero\n      tag_67\n      jumpi\n      swap2\n      dup3\n      add\n    tag_70:\n      dup3\n      dup2\n      gt\n      iszero\n      tag_71\n      jumpi\n      dup3\n      mload\n      dup3\n      sstore\n      swap2\n      0x20\n      add\n      swap2\n      swap1\n      0x01\n      add\n      swap1\n      jump(tag_70)\n    tag_71:\n    tag_67:\n      pop\n      swap1\n      pop\n      tag_72\n      swap2\n      swap1\n      tag_73\n      jump\t// in\n    tag_72:\n      pop\n      swap1\n      jump\t// out\n    tag_73:\n    tag_74:\n      dup1\n      dup3\n      gt\n      iszero\n      tag_75\n      jumpi\n      0x00\n      dup2\n      0x00\n      swap1\n      sstore\n      pop\n      0x01\n      add\n      jump(tag_74)\n    tag_75:\n      pop\n      swap1\n      jump\t// out\n        /* \"#utility.yul\":7:82   */\n    tag_76:\n        /* \"#utility.yul\":40:46   */\n      0x00\n        /* \"#utility.yul\":73:75   */\n      0x40\n        /* \"#utility.yul\":67:76   */\n      mload\n        /* \"#utility.yul\":57:76   */\n      swap1\n      pop\n        /* \"#utility.yul\":7:82   */\n      swap1\n      jump\t// out\n        /* \"#utility.yul\":88:205   */\n    tag_77:\n        /* \"#utility.yul\":197:198   */\n      0x00\n        /* \"#utility.yul\":194:195   */\n      dup1\n        /* \"#utility.yul\":187:199   */\n      revert\n        /* \"#utility.yul\":211:328   */\n    tag_78:\n        /* \"#utility.yul\":320:321   */\n      0x00\n        /* \"#utility.yul\":317:318   */\n      dup1\n        /* \"#utility.yul\":310:322   */\n      revert\n        /* \"#utility.yul\":334:411   */\n    tag_79:\n        /* \"#utility.yul\":371:378   */\n      0x00\n        /* \"#utility.yul\":400:405   */\n      dup2\n        /* \"#utility.yul\":389:405   */\n      swap1\n      pop\n        /* \"#utility.yul\":334:411   */\n      swap2\n      swap1\n      pop\n      jump\t// out\n        /* \"#utility.yul\":417:539   */\n    tag_80:\n        /* \"#utility.yul\":490:514   */\n      tag_107\n        /* \"#utility.yul\":508:513   */\n      dup2\n        /* \"#utility.yul\":490:514   */\n      tag_79\n      jump\t// in\n    tag_107:\n        /* \"#utility.yul\":483:488   */\n      dup2\n        /* \"#utility.yul\":480:515   */\n      eq\n        /* \"#utility.yul\":470:533   */\n      tag_108\n      jumpi\n        /* \"#utility.yul\":529:530   */\n      0x00\n        /* \"#utility.yul\":526:527   */\n      dup1\n        /* \"#utility.yul\":519:531   */\n      revert\n        /* \"#utility.yul\":470:533   */\n    tag_108:\n        /* \"#utility.yul\":417:539   */\n      pop\n      jump\t// out\n        /* \"#utility.yul\":545:684   */\n    tag_81:\n        /* \"#utility.yul\":591:596   */\n      0x00\n        /* \"#utility.yul\":629:635   */\n      dup2\n        /* \"#utility.yul\":616:636   */\n      calldataload\n        /* \"#utility.yul\":607:636   */\n      swap1\n      pop\n        /* \"#utility.yul\":645:678   */\n      tag_110\n        /* \"#utility.yul\":672:677   */\n      dup2\n        /* \"#utility.yul\":645:678   */\n      tag_80\n      jump\t// in\n    tag_110:\n        /* \"#utility.yul\":545:684   */\n      swap3\n      swap2\n      pop\n      pop\n      jump\t// out\n        /* \"#utility.yul\":690:1019   */\n    tag_11:\n        /* \"#utility.yul\":749:755   */\n      0x00\n        /* \"#utility.yul\":798:800   */\n      0x20\n        /* \"#utility.yul\":786:795   */\n      dup3\n        /* \"#utility.yul\":777:784   */\n      dup5\n        /* \"#utility.yul\":773:796   */\n      sub\n        /* \"#utility.yul\":769:801   */\n      slt\n        /* \"#utility.yul\":766:885   */\n      iszero\n      tag_112\n      jumpi\n        /* \"#utility.yul\":804:883   */\n      tag_113\n      tag_77\n      jump\t// in\n    tag_113:\n        /* \"#utility.yul\":766:885   */\n    tag_112:\n        /* \"#utility.yul\":924:925   */\n      0x00\n        /* \"#utility.yul\":949:1002   */\n      tag_114\n        /* \"#utility.yul\":994:1001   */\n      dup5\n        /* \"#utility.yul\":985:991   */\n      dup3\n        /* \"#utility.yul\":974:983   */\n      dup6\n        /* \"#utility.yul\":970:992   */\n      add\n        /* \"#utility.yul\":949:1002   */\n      tag_81\n      jump\t// in\n    tag_114:\n        /* \"#utility.yul\":939:1002   */\n      swap2\n      pop\n        /* \"#utility.yul\":895:1012   */\n      pop\n        /* \"#utility.yul\":690:1019   */\n      swap3\n      swap2\n      pop\n      pop\n      jump\t// out\n        /* \"#utility.yul\":1025:1143   */\n    tag_82:\n        /* \"#utility.yul\":1112:1136   */\n      tag_116\n        /* \"#utility.yul\":1130:1135   */\n      dup2\n        /* \"#utility.yul\":1112:1136   */\n      tag_79\n      jump\t// in\n    tag_116:\n        /* \"#utility.yul\":1107:1110   */\n      dup3\n        /* \"#utility.yul\":1100:1137   */\n      mstore\n        /* \"#utility.yul\":1025:1143   */\n      pop\n      pop\n      jump\t// out\n        /* \"#utility.yul\":1149:1248   */\n    tag_83:\n        /* \"#utility.yul\":1201:1207   */\n      0x00\n        /* \"#utility.yul\":1235:1240   */\n      dup2\n        /* \"#utility.yul\":1229:1241   */\n      mload\n        /* \"#utility.yul\":1219:1241   */\n      swap1\n      pop\n        /* \"#utility.yul\":1149:1248   */\n      swap2\n      swap1\n      pop\n      jump\t// out\n        /* \"#utility.yul\":1254:1423   */\n    tag_84:\n        /* \"#utility.yul\":1338:1349   */\n      0x00\n        /* \"#utility.yul\":1372:1378   */\n      dup3\n        /* \"#utility.yul\":1367:1370   */\n      dup3\n        /* \"#utility.yul\":1360:1379   */\n      mstore\n        /* \"#utility.yul\":1412:1416   */\n      0x20\n        /* \"#utility.yul\":1407:1410   */\n      dup3\n        /* \"#utility.yul\":1403:1417   */\n      add\n        /* \"#utility.yul\":1388:1417   */\n      swap1\n      pop\n        /* \"#utility.yul\":1254:1423   */\n      swap3\n      swap2\n      pop\n      pop\n      jump\t// out\n        /* \"#utility.yul\":1429:1736   */\n    tag_85:\n        /* \"#utility.yul\":1497:1498   */\n      0x00\n        /* \"#utility.yul\":1507:1620   */\n    tag_120:\n        /* \"#utility.yul\":1521:1527   */\n      dup4\n        /* \"#utility.yul\":1518:1519   */\n      dup2\n        /* \"#utility.yul\":1515:1528   */\n      lt\n        /* \"#utility.yul\":1507:1620   */\n      iszero\n      tag_122\n      jumpi\n        /* \"#utility.yul\":1606:1607   */\n      dup1\n        /* \"#utility.yul\":1601:1604   */\n      dup3\n        /* \"#utility.yul\":1597:1608   */\n      add\n        /* \"#utility.yul\":1591:1609   */\n      mload\n        /* \"#utility.yul\":1587:1588   */\n      dup2\n        /* \"#utility.yul\":1582:1585   */\n      dup5\n        /* \"#utility.yul\":1578:1589   */\n      add\n        /* \"#utility.yul\":1571:1610   */\n      mstore\n        /* \"#utility.yul\":1543:1545   */\n      0x20\n        /* \"#utility.yul\":1540:1541   */\n      dup2\n        /* \"#utility.yul\":1536:1546   */\n      add\n        /* \"#utility.yul\":1531:1546   */\n      swap1\n      pop\n        /* \"#utility.yul\":1507:1620   */\n      jump(tag_120)\n    tag_122:\n        /* \"#utility.yul\":1638:1644   */\n      dup4\n        /* \"#utility.yul\":1635:1636   */\n      dup2\n        /* \"#utility.yul\":1632:1645   */\n      gt\n        /* \"#utility.yul\":1629:1730   */\n      iszero\n      tag_123\n      jumpi\n        /* \"#utility.yul\":1718:1719   */\n      0x00\n        /* \"#utility.yul\":1709:1715   */\n      dup5\n        /* \"#utility.yul\":1704:1707   */\n      dup5\n        /* \"#utility.yul\":1700:1716   */\n      add\n        /* \"#utility.yul\":1693:1720   */\n      mstore\n        /* \"#utility.yul\":1629:1730   */\n    tag_123:\n        /* \"#utility.yul\":1478:1736   */\n      pop\n        /* \"#utility.yul\":1429:1736   */\n      pop\n      pop\n      pop\n      jump\t// out\n        /* \"#utility.yul\":1742:1844   */\n    tag_86:\n        /* \"#utility.yul\":1783:1789   */\n      0x00\n        /* \"#utility.yul\":1834:1836   */\n      0x1f\n        /* \"#utility.yul\":1830:1837   */\n      not\n        /* \"#utility.yul\":1825:1827   */\n      0x1f\n        /* \"#utility.yul\":1818:1823   */\n      dup4\n        /* \"#utility.yul\":1814:1828   */\n      add\n        /* \"#utility.yul\":1810:1838   */\n      and\n        /* \"#utility.yul\":1800:1838   */\n      swap1\n      pop\n        /* \"#utility.yul\":1742:1844   */\n      swap2\n      swap1\n      pop\n      jump\t// out\n        /* \"#utility.yul\":1850:2214   */\n    tag_87:\n        /* \"#utility.yul\":1938:1941   */\n      0x00\n        /* \"#utility.yul\":1966:2005   */\n      tag_126\n        /* \"#utility.yul\":1999:2004   */\n      dup3\n        /* \"#utility.yul\":1966:2005   */\n      tag_83\n      jump\t// in\n    tag_126:\n        /* \"#utility.yul\":2021:2092   */\n      tag_127\n        /* \"#utility.yul\":2085:2091   */\n      dup2\n        /* \"#utility.yul\":2080:2083   */\n      dup6\n        /* \"#utility.yul\":2021:2092   */\n      tag_84\n      jump\t// in\n    tag_127:\n        /* \"#utility.yul\":2014:2092   */\n      swap4\n      pop\n        /* \"#utility.yul\":2101:2153   */\n      tag_128\n        /* \"#utility.yul\":2146:2152   */\n      dup2\n        /* \"#utility.yul\":2141:2144   */\n      dup6\n        /* \"#utility.yul\":2134:2138   */\n      0x20\n        /* \"#utility.yul\":2127:2132   */\n      dup7\n        /* \"#utility.yul\":2123:2139   */\n      add\n        /* \"#utility.yul\":2101:2153   */\n      tag_85\n      jump\t// in\n    tag_128:\n        /* \"#utility.yul\":2178:2207   */\n      tag_129\n        /* \"#utility.yul\":2200:2206   */\n      dup2\n        /* \"#utility.yul\":2178:2207   */\n      tag_86\n      jump\t// in\n    tag_129:\n        /* \"#utility.yul\":2173:2176   */\n      dup5\n        /* \"#utility.yul\":2169:2208   */\n      add\n        /* \"#utility.yul\":2162:2208   */\n      swap2\n      pop\n        /* \"#utility.yul\":1942:2214   */\n      pop\n        /* \"#utility.yul\":1850:2214   */\n      swap3\n      swap2\n      pop\n      pop\n      jump\t// out\n        /* \"#utility.yul\":2220:2643   */\n    tag_14:\n        /* \"#utility.yul\":2361:2365   */\n      0x00\n        /* \"#utility.yul\":2399:2401   */\n      0x40\n        /* \"#utility.yul\":2388:2397   */\n      dup3\n        /* \"#utility.yul\":2384:2402   */\n      add\n        /* \"#utility.yul\":2376:2402   */\n      swap1\n      pop\n        /* \"#utility.yul\":2412:2483   */\n      tag_131\n        /* \"#utility.yul\":2480:2481   */\n      0x00\n        /* \"#utility.yul\":2469:2478   */\n      dup4\n        /* \"#utility.yul\":2465:2482   */\n      add\n        /* \"#utility.yul\":2456:2462   */\n      dup6\n        /* \"#utility.yul\":2412:2483   */\n      tag_82\n      jump\t// in\n    tag_131:\n        /* \"#utility.yul\":2530:2539   */\n      dup2\n        /* \"#utility.yul\":2524:2528   */\n      dup2\n        /* \"#utility.yul\":2520:2540   */\n      sub\n        /* \"#utility.yul\":2515:2517   */\n      0x20\n        /* \"#utility.yul\":2504:2513   */\n      dup4\n        /* \"#utility.yul\":2500:2518   */\n      add\n        /* \"#utility.yul\":2493:2541   */\n      mstore\n        /* \"#utility.yul\":2558:2636   */\n      tag_132\n        /* \"#utility.yul\":2631:2635   */\n      dup2\n        /* \"#utility.yul\":2622:2628   */\n      dup5\n        /* \"#utility.yul\":2558:2636   */\n      tag_87\n      jump\t// in\n    tag_132:\n        /* \"#utility.yul\":2550:2636   */\n      swap1\n      pop\n        /* \"#utility.yul\":2220:2643   */\n      swap4\n      swap3\n      pop\n      pop\n      pop\n      jump\t// out\n        /* \"#utility.yul\":2649:2871   */\n    tag_18:\n        /* \"#utility.yul\":2742:2746   */\n      0x00\n        /* \"#utility.yul\":2780:2782   */\n      0x20\n        /* \"#utility.yul\":2769:2778   */\n      dup3\n        /* \"#utility.yul\":2765:2783   */\n      add\n        /* \"#utility.yul\":2757:2783   */\n      swap1\n      pop\n        /* \"#utility.yul\":2793:2864   */\n      tag_134\n        /* \"#utility.yul\":2861:2862   */\n      0x00\n        /* \"#utility.yul\":2850:2859   */\n      dup4\n        /* \"#utility.yul\":2846:2863   */\n      add\n        /* \"#utility.yul\":2837:2843   */\n      dup5\n        /* \"#utility.yul\":2793:2864   */\n      tag_82\n      jump\t// in\n    tag_134:\n        /* \"#utility.yul\":2649:2871   */\n      swap3\n      swap2\n      pop\n      pop\n      jump\t// out\n        /* \"#utility.yul\":2877:2994   */\n    tag_88:\n        /* \"#utility.yul\":2986:2987   */\n      0x00\n        /* \"#utility.yul\":2983:2984   */\n      dup1\n        /* \"#utility.yul\":2976:2988   */\n      revert\n        /* \"#utility.yul\":3000:3117   */\n    tag_89:\n        /* \"#utility.yul\":3109:3110   */\n      0x00\n        /* \"#utility.yul\":3106:3107   */\n      dup1\n        /* \"#utility.yul\":3099:3111   */\n      revert\n        /* \"#utility.yul\":3123:3303   */\n    tag_90:\n        /* \"#utility.yul\":3171:3248   */\n      0x4e487b7100000000000000000000000000000000000000000000000000000000\n        /* \"#utility.yul\":3168:3169   */\n      0x00\n        /* \"#utility.yul\":3161:3249   */\n      mstore\n        /* \"#utility.yul\":3268:3272   */\n      0x41\n        /* \"#utility.yul\":3265:3266   */\n      0x04\n        /* \"#utility.yul\":3258:3273   */\n      mstore\n        /* \"#utility.yul\":3292:3296   */\n      0x24\n        /* \"#utility.yul\":3289:3290   */\n      0x00\n        /* \"#utility.yul\":3282:3297   */\n      revert\n        /* \"#utility.yul\":3309:3590   */\n    tag_91:\n        /* \"#utility.yul\":3392:3419   */\n      tag_139\n        /* \"#utility.yul\":3414:3418   */\n      dup3\n        /* \"#utility.yul\":3392:3419   */\n      tag_86\n      jump\t// in\n    tag_139:\n        /* \"#utility.yul\":3384:3390   */\n      dup2\n        /* \"#utility.yul\":3380:3420   */\n      add\n        /* \"#utility.yul\":3522:3528   */\n      dup2\n        /* \"#utility.yul\":3510:3520   */\n      dup2\n        /* \"#utility.yul\":3507:3529   */\n      lt\n        /* \"#utility.yul\":3486:3504   */\n      0xffffffffffffffff\n        /* \"#utility.yul\":3474:3484   */\n      dup3\n        /* \"#utility.yul\":3471:3505   */\n      gt\n        /* \"#utility.yul\":3468:3530   */\n      or\n        /* \"#utility.yul\":3465:3553   */\n      iszero\n      tag_140\n      jumpi\n        /* \"#utility.yul\":3533:3551   */\n      tag_141\n      tag_90\n      jump\t// in\n    tag_141:\n        /* \"#utility.yul\":3465:3553   */\n    tag_140:\n        /* \"#utility.yul\":3573:3583   */\n      dup1\n        /* \"#utility.yul\":3569:3571   */\n      0x40\n        /* \"#utility.yul\":3562:3584   */\n      mstore\n        /* \"#utility.yul\":3352:3590   */\n      pop\n        /* \"#utility.yul\":3309:3590   */\n      pop\n      pop\n      jump\t// out\n        /* \"#utility.yul\":3596:3725   */\n    tag_92:\n        /* \"#utility.yul\":3630:3636   */\n      0x00\n        /* \"#utility.yul\":3657:3677   */\n      tag_143\n      tag_76\n      jump\t// in\n    tag_143:\n        /* \"#utility.yul\":3647:3677   */\n      swap1\n      pop\n        /* \"#utility.yul\":3686:3719   */\n      tag_144\n        /* \"#utility.yul\":3714:3718   */\n      dup3\n        /* \"#utility.yul\":3706:3712   */\n      dup3\n        /* \"#utility.yul\":3686:3719   */\n      tag_91\n      jump\t// in\n    tag_144:\n        /* \"#utility.yul\":3596:3725   */\n      swap2\n      swap1\n      pop\n      jump\t// out\n        /* \"#utility.yul\":3731:4039   */\n    tag_93:\n        /* \"#utility.yul\":3793:3797   */\n      0x00\n        /* \"#utility.yul\":3883:3901   */\n      0xffffffffffffffff\n        /* \"#utility.yul\":3875:3881   */\n      dup3\n        /* \"#utility.yul\":3872:3902   */\n      gt\n        /* \"#utility.yul\":3869:3925   */\n      iszero\n      tag_146\n      jumpi\n        /* \"#utility.yul\":3905:3923   */\n      tag_147\n      tag_90\n      jump\t// in\n    tag_147:\n        /* \"#utility.yul\":3869:3925   */\n    tag_146:\n        /* \"#utility.yul\":3943:3972   */\n      tag_148\n        /* \"#utility.yul\":3965:3971   */\n      dup3\n        /* \"#utility.yul\":3943:3972   */\n      tag_86\n      jump\t// in\n    tag_148:\n        /* \"#utility.yul\":3935:3972   */\n      swap1\n      pop\n        /* \"#utility.yul\":4027:4031   */\n      0x20\n        /* \"#utility.yul\":4021:4025   */\n      dup2\n        /* \"#utility.yul\":4017:4032   */\n      add\n        /* \"#utility.yul\":4009:4032   */\n      swap1\n      pop\n        /* \"#utility.yul\":3731:4039   */\n      swap2\n      swap1\n      pop\n      jump\t// out\n        /* \"#utility.yul\":4045:4199   */\n    tag_94:\n        /* \"#utility.yul\":4129:4135   */\n      dup3\n        /* \"#utility.yul\":4124:4127   */\n      dup2\n        /* \"#utility.yul\":4119:4122   */\n      dup4\n        /* \"#utility.yul\":4106:4136   */\n      calldatacopy\n        /* \"#utility.yul\":4191:4192   */\n      0x00\n        /* \"#utility.yul\":4182:4188   */\n      dup4\n        /* \"#utility.yul\":4177:4180   */\n      dup4\n        /* \"#utility.yul\":4173:4189   */\n      add\n        /* \"#utility.yul\":4166:4193   */\n      mstore\n        /* \"#utility.yul\":4045:4199   */\n      pop\n      pop\n      pop\n      jump\t// out\n        /* \"#utility.yul\":4205:4617   */\n    tag_95:\n        /* \"#utility.yul\":4283:4288   */\n      0x00\n        /* \"#utility.yul\":4308:4374   */\n      tag_151\n        /* \"#utility.yul\":4324:4373   */\n      tag_152\n        /* \"#utility.yul\":4366:4372   */\n      dup5\n        /* \"#utility.yul\":4324:4373   */\n      tag_93\n      jump\t// in\n    tag_152:\n        /* \"#utility.yul\":4308:4374   */\n      tag_92\n      jump\t// in\n    tag_151:\n        /* \"#utility.yul\":4299:4374   */\n      swap1\n      pop\n        /* \"#utility.yul\":4397:4403   */\n      dup3\n        /* \"#utility.yul\":4390:4395   */\n      dup2\n        /* \"#utility.yul\":4383:4404   */\n      mstore\n        /* \"#utility.yul\":4435:4439   */\n      0x20\n        /* \"#utility.yul\":4428:4433   */\n      dup2\n        /* \"#utility.yul\":4424:4440   */\n      add\n        /* \"#utility.yul\":4473:4476   */\n      dup5\n        /* \"#utility.yul\":4464:4470   */\n      dup5\n        /* \"#utility.yul\":4459:4462   */\n      dup5\n        /* \"#utility.yul\":4455:4471   */\n      add\n        /* \"#utility.yul\":4452:4477   */\n      gt\n        /* \"#utility.yul\":4449:4561   */\n      iszero\n      tag_153\n      jumpi\n        /* \"#utility.yul\":4480:4559   */\n      tag_154\n      tag_89\n      jump\t// in\n    tag_154:\n        /* \"#utility.yul\":4449:4561   */\n    tag_153:\n        /* \"#utility.yul\":4570:4611   */\n      tag_155\n        /* \"#utility.yul\":4604:4610   */\n      dup5\n        /* \"#utility.yul\":4599:4602   */\n      dup3\n        /* \"#utility.yul\":4594:4597   */\n      dup6\n        /* \"#utility.yul\":4570:4611   */\n      tag_94\n      jump\t// in\n    tag_155:\n        /* \"#utility.yul\":4289:4617   */\n      pop\n        /* \"#utility.yul\":4205:4617   */\n      swap4\n      swap3\n      pop\n      pop\n      pop\n      jump\t// out\n        /* \"#utility.yul\":4637:4977   */\n    tag_96:\n        /* \"#utility.yul\":4693:4698   */\n      0x00\n        /* \"#utility.yul\":4742:4745   */\n      dup3\n        /* \"#utility.yul\":4735:4739   */\n      0x1f\n        /* \"#utility.yul\":4727:4733   */\n      dup4\n        /* \"#utility.yul\":4723:4740   */\n      add\n        /* \"#utility.yul\":4719:4746   */\n      slt\n        /* \"#utility.yul\":4709:4831   */\n      tag_157\n      jumpi\n        /* \"#utility.yul\":4750:4829   */\n      tag_158\n      tag_88\n      jump\t// in\n    tag_158:\n        /* \"#utility.yul\":4709:4831   */\n    tag_157:\n        /* \"#utility.yul\":4867:4873   */\n      dup2\n        /* \"#utility.yul\":4854:4874   */\n      calldataload\n        /* \"#utility.yul\":4892:4971   */\n      tag_159\n        /* \"#utility.yul\":4967:4970   */\n      dup5\n        /* \"#utility.yul\":4959:4965   */\n      dup3\n        /* \"#utility.yul\":4952:4956   */\n      0x20\n        /* \"#utility.yul\":4944:4950   */\n      dup7\n        /* \"#utility.yul\":4940:4957   */\n      add\n        /* \"#utility.yul\":4892:4971   */\n      tag_95\n      jump\t// in\n    tag_159:\n        /* \"#utility.yul\":4883:4971   */\n      swap2\n      pop\n        /* \"#utility.yul\":4699:4977   */\n      pop\n        /* \"#utility.yul\":4637:4977   */\n      swap3\n      swap2\n      pop\n      pop\n      jump\t// out\n        /* \"#utility.yul\":4983:5492   */\n    tag_24:\n        /* \"#utility.yul\":5052:5058   */\n      0x00\n        /* \"#utility.yul\":5101:5103   */\n      0x20\n        /* \"#utility.yul\":5089:5098   */\n      dup3\n        /* \"#utility.yul\":5080:5087   */\n      dup5\n        /* \"#utility.yul\":5076:5099   */\n      sub\n        /* \"#utility.yul\":5072:5104   */\n      slt\n        /* \"#utility.yul\":5069:5188   */\n      iszero\n      tag_161\n      jumpi\n        /* \"#utility.yul\":5107:5186   */\n      tag_162\n      tag_77\n      jump\t// in\n    tag_162:\n        /* \"#utility.yul\":5069:5188   */\n    tag_161:\n        /* \"#utility.yul\":5255:5256   */\n      0x00\n        /* \"#utility.yul\":5244:5253   */\n      dup3\n        /* \"#utility.yul\":5240:5257   */\n      add\n        /* \"#utility.yul\":5227:5258   */\n      calldataload\n        /* \"#utility.yul\":5285:5303   */\n      0xffffffffffffffff\n        /* \"#utility.yul\":5277:5283   */\n      dup2\n        /* \"#utility.yul\":5274:5304   */\n      gt\n        /* \"#utility.yul\":5271:5388   */\n      iszero\n      tag_163\n      jumpi\n        /* \"#utility.yul\":5307:5386   */\n      tag_164\n      tag_78\n      jump\t// in\n    tag_164:\n        /* \"#utility.yul\":5271:5388   */\n    tag_163:\n        /* \"#utility.yul\":5412:5475   */\n      tag_165\n        /* \"#utility.yul\":5467:5474   */\n      dup5\n        /* \"#utility.yul\":5458:5464   */\n      dup3\n        /* \"#utility.yul\":5447:5456   */\n      dup6\n        /* \"#utility.yul\":5443:5465   */\n      add\n        /* \"#utility.yul\":5412:5475   */\n      tag_96\n      jump\t// in\n    tag_165:\n        /* \"#utility.yul\":5402:5475   */\n      swap2\n      pop\n        /* \"#utility.yul\":5198:5485   */\n      pop\n        /* \"#utility.yul\":4983:5492   */\n      swap3\n      swap2\n      pop\n      pop\n      jump\t// out\n        /* \"#utility.yul\":5498:6152   */\n    tag_33:\n        /* \"#utility.yul\":5576:5582   */\n      0x00\n        /* \"#utility.yul\":5584:5590   */\n      dup1\n        /* \"#utility.yul\":5633:5635   */\n      0x40\n        /* \"#utility.yul\":5621:5630   */\n      dup4\n        /* \"#utility.yul\":5612:5619   */\n      dup6\n        /* \"#utility.yul\":5608:5631   */\n      sub\n        /* \"#utility.yul\":5604:5636   */\n      slt\n        /* \"#utility.yul\":5601:5720   */\n      iszero\n      tag_167\n      jumpi\n        /* \"#utility.yul\":5639:5718   */\n      tag_168\n      tag_77\n      jump\t// in\n    tag_168:\n        /* \"#utility.yul\":5601:5720   */\n    tag_167:\n        /* \"#utility.yul\":5759:5760   */\n      0x00\n        /* \"#utility.yul\":5784:5837   */\n      tag_169\n        /* \"#utility.yul\":5829:5836   */\n      dup6\n        /* \"#utility.yul\":5820:5826   */\n      dup3\n        /* \"#utility.yul\":5809:5818   */\n      dup7\n        /* \"#utility.yul\":5805:5827   */\n      add\n        /* \"#utility.yul\":5784:5837   */\n      tag_81\n      jump\t// in\n    tag_169:\n        /* \"#utility.yul\":5774:5837   */\n      swap3\n      pop\n        /* \"#utility.yul\":5730:5847   */\n      pop\n        /* \"#utility.yul\":5914:5916   */\n      0x20\n        /* \"#utility.yul\":5903:5912   */\n      dup4\n        /* \"#utility.yul\":5899:5917   */\n      add\n        /* \"#utility.yul\":5886:5918   */\n      calldataload\n        /* \"#utility.yul\":5945:5963   */\n      0xffffffffffffffff\n        /* \"#utility.yul\":5937:5943   */\n      dup2\n        /* \"#utility.yul\":5934:5964   */\n      gt\n        /* \"#utility.yul\":5931:6048   */\n      iszero\n      tag_170\n      jumpi\n        /* \"#utility.yul\":5967:6046   */\n      tag_171\n      tag_78\n      jump\t// in\n    tag_171:\n        /* \"#utility.yul\":5931:6048   */\n    tag_170:\n        /* \"#utility.yul\":6072:6135   */\n      tag_172\n        /* \"#utility.yul\":6127:6134   */\n      dup6\n        /* \"#utility.yul\":6118:6124   */\n      dup3\n        /* \"#utility.yul\":6107:6116   */\n      dup7\n        /* \"#utility.yul\":6103:6125   */\n      add\n        /* \"#utility.yul\":6072:6135   */\n      tag_96\n      jump\t// in\n    tag_172:\n        /* \"#utility.yul\":6062:6135   */\n      swap2\n      pop\n        /* \"#utility.yul\":5857:6145   */\n      pop\n        /* \"#utility.yul\":5498:6152   */\n      swap3\n      pop\n      swap3\n      swap1\n      pop\n      jump\t// out\n        /* \"#utility.yul\":6158:6338   */\n    tag_38:\n        /* \"#utility.yul\":6206:6283   */\n      0x4e487b7100000000000000000000000000000000000000000000000000000000\n        /* \"#utility.yul\":6203:6204   */\n      0x00\n        /* \"#utility.yul\":6196:6284   */\n      mstore\n        /* \"#utility.yul\":6303:6307   */\n      0x32\n        /* \"#utility.yul\":6300:6301   */\n      0x04\n        /* \"#utility.yul\":6293:6308   */\n      mstore\n        /* \"#utility.yul\":6327:6331   */\n      0x24\n        /* \"#utility.yul\":6324:6325   */\n      0x00\n        /* \"#utility.yul\":6317:6332   */\n      revert\n        /* \"#utility.yul\":6344:6524   */\n    tag_97:\n        /* \"#utility.yul\":6392:6469   */\n      0x4e487b7100000000000000000000000000000000000000000000000000000000\n        /* \"#utility.yul\":6389:6390   */\n      0x00\n        /* \"#utility.yul\":6382:6470   */\n      mstore\n        /* \"#utility.yul\":6489:6493   */\n      0x22\n        /* \"#utility.yul\":6486:6487   */\n      0x04\n        /* \"#utility.yul\":6479:6494   */\n      mstore\n        /* \"#utility.yul\":6513:6517   */\n      0x24\n        /* \"#utility.yul\":6510:6511   */\n      0x00\n        /* \"#utility.yul\":6503:6518   */\n      revert\n        /* \"#utility.yul\":6530:6850   */\n    tag_44:\n        /* \"#utility.yul\":6574:6580   */\n      0x00\n        /* \"#utility.yul\":6611:6612   */\n      0x02\n        /* \"#utility.yul\":6605:6609   */\n      dup3\n        /* \"#utility.yul\":6601:6613   */\n      div\n        /* \"#utility.yul\":6591:6613   */\n      swap1\n      pop\n        /* \"#utility.yul\":6658:6659   */\n      0x01\n        /* \"#utility.yul\":6652:6656   */\n      dup3\n        /* \"#utility.yul\":6648:6660   */\n      and\n        /* \"#utility.yul\":6679:6697   */\n      dup1\n        /* \"#utility.yul\":6669:6750   */\n      tag_176\n      jumpi\n        /* \"#utility.yul\":6735:6739   */\n      0x7f\n        /* \"#utility.yul\":6727:6733   */\n      dup3\n        /* \"#utility.yul\":6723:6740   */\n      and\n        /* \"#utility.yul\":6713:6740   */\n      swap2\n      pop\n        /* \"#utility.yul\":6669:6750   */\n    tag_176:\n        /* \"#utility.yul\":6797:6799   */\n      0x20\n        /* \"#utility.yul\":6789:6795   */\n      dup3\n        /* \"#utility.yul\":6786:6800   */\n      lt\n        /* \"#utility.yul\":6766:6784   */\n      dup2\n        /* \"#utility.yul\":6763:6801   */\n      sub\n        /* \"#utility.yul\":6760:6844   */\n      tag_177\n      jumpi\n        /* \"#utility.yul\":6816:6834   */\n      tag_178\n      tag_97\n      jump\t// in\n    tag_178:\n        /* \"#utility.yul\":6760:6844   */\n    tag_177:\n        /* \"#utility.yul\":6581:6850   */\n      pop\n        /* \"#utility.yul\":6530:6850   */\n      swap2\n      swap1\n      pop\n      jump\t// out\n        /* \"#utility.yul\":6856:7036   */\n    tag_98:\n        /* \"#utility.yul\":6904:6981   */\n      0x4e487b7100000000000000000000000000000000000000000000000000000000\n        /* \"#utility.yul\":6901:6902   */\n      0x00\n        /* \"#utility.yul\":6894:6982   */\n      mstore\n        /* \"#utility.yul\":7001:7005   */\n      0x11\n        /* \"#utility.yul\":6998:6999   */\n      0x04\n        /* \"#utility.yul\":6991:7006   */\n      mstore\n        /* \"#utility.yul\":7025:7029   */\n      0x24\n        /* \"#utility.yul\":7022:7023   */\n      0x00\n        /* \"#utility.yul\":7015:7030   */\n      revert\n        /* \"#utility.yul\":7042:7347   */\n    tag_52:\n        /* \"#utility.yul\":7082:7085   */\n      0x00\n        /* \"#utility.yul\":7101:7121   */\n      tag_181\n        /* \"#utility.yul\":7119:7120   */\n      dup3\n        /* \"#utility.yul\":7101:7121   */\n      tag_79\n      jump\t// in\n    tag_181:\n        /* \"#utility.yul\":7096:7121   */\n      swap2\n      pop\n        /* \"#utility.yul\":7135:7155   */\n      tag_182\n        /* \"#utility.yul\":7153:7154   */\n      dup4\n        /* \"#utility.yul\":7135:7155   */\n      tag_79\n      jump\t// in\n    tag_182:\n        /* \"#utility.yul\":7130:7155   */\n      swap3\n      pop\n        /* \"#utility.yul\":7289:7290   */\n      dup3\n        /* \"#utility.yul\":7221:7287   */\n      0xffffffffffffffffffffffffffffffffffffffffffffffffffffffffffffffff\n        /* \"#utility.yul\":7217:7291   */\n      sub\n        /* \"#utility.yul\":7214:7215   */\n      dup3\n        /* \"#utility.yul\":7211:7292   */\n      gt\n        /* \"#utility.yul\":7208:7315   */\n      iszero\n      tag_183\n      jumpi\n        /* \"#utility.yul\":7295:7313   */\n      tag_184\n      tag_98\n      jump\t// in\n    tag_184:\n        /* \"#utility.yul\":7208:7315   */\n    tag_183:\n        /* \"#utility.yul\":7339:7340   */\n      dup3\n        /* \"#utility.yul\":7336:7337   */\n      dup3\n        /* \"#utility.yul\":7332:7341   */\n      add\n        /* \"#utility.yul\":7325:7341   */\n      swap1\n      pop\n        /* \"#utility.yul\":7042:7347   */\n      swap3\n      swap2\n      pop\n      pop\n      jump\t// out\n        /* \"#utility.yul\":7353:7501   */\n    tag_99:\n        /* \"#utility.yul\":7455:7466   */\n      0x00\n        /* \"#utility.yul\":7492:7495   */\n      dup2\n        /* \"#utility.yul\":7477:7495   */\n      swap1\n      pop\n        /* \"#utility.yul\":7353:7501   */\n      swap3\n      swap2\n      pop\n      pop\n      jump\t// out\n        /* \"#utility.yul\":7507:7884   */\n    tag_100:\n        /* \"#utility.yul\":7613:7616   */\n      0x00\n        /* \"#utility.yul\":7641:7680   */\n      tag_187\n        /* \"#utility.yul\":7674:7679   */\n      dup3\n        /* \"#utility.yul\":7641:7680   */\n      tag_83\n      jump\t// in\n    tag_187:\n        /* \"#utility.yul\":7696:7785   */\n      tag_188\n        /* \"#utility.yul\":7778:7784   */\n      dup2\n        /* \"#utility.yul\":7773:7776   */\n      dup6\n        /* \"#utility.yul\":7696:7785   */\n      tag_99\n      jump\t// in\n    tag_188:\n        /* \"#utility.yul\":7689:7785   */\n      swap4\n      pop\n        /* \"#utility.yul\":7794:7846   */\n      tag_189\n        /* \"#utility.yul\":7839:7845   */\n      dup2\n        /* \"#utility.yul\":7834:7837   */\n      dup6\n        /* \"#utility.yul\":7827:7831   */\n      0x20\n        /* \"#utility.yul\":7820:7825   */\n      dup7\n        /* \"#utility.yul\":7816:7832   */\n      add\n        /* \"#utility.yul\":7794:7846   */\n      tag_85\n      jump\t// in\n    tag_189:\n        /* \"#utility.yul\":7871:7877   */\n      dup1\n        /* \"#utility.yul\":7866:7869   */\n      dup5\n        /* \"#utility.yul\":7862:7878   */\n      add\n        /* \"#utility.yul\":7855:7878   */\n      swap2\n      pop\n        /* \"#utility.yul\":7617:7884   */\n      pop\n        /* \"#utility.yul\":7507:7884   */\n      swap3\n      swap2\n      pop\n      pop\n      jump\t// out\n        /* \"#utility.yul\":7890:8165   */\n    tag_65:\n        /* \"#utility.yul\":8022:8025   */\n      0x00\n        /* \"#utility.yul\":8044:8139   */\n      tag_191\n        /* \"#utility.yul\":8135:8138   */\n      dup3\n        /* \"#utility.yul\":8126:8132   */\n      dup5\n        /* \"#utility.yul\":8044:8139   */\n      tag_100\n      jump\t// in\n    tag_191:\n        /* \"#utility.yul\":8037:8139   */\n      swap2\n      pop\n        /* \"#utility.yul\":8156:8159   */\n      dup2\n        /* \"#utility.yul\":8149:8159   */\n      swap1\n      pop\n        /* \"#utility.yul\":7890:8165   */\n      swap3\n      swap2\n      pop\n      pop\n      jump\t// out\n\n    auxdata: 0xa26469706673582212207ffcc0b46eebb4af36a477faedf654a7ed8b5965ff20a19d9a978f85e2efa97b64736f6c634300080d0033\n}\n",
				"bytecode": {
					"linkReferences": {},
					"object": "608060405234801561001057600080fd5b50610950806100206000396000f3fe608060405234801561001057600080fd5b50600436106100625760003560e01c8063246982c4146100675780632e64cec1146100985780636057361d146100b65780638bab8dd5146100d25780639e7a13ad14610102578063bc832d4e14610133575b600080fd5b610081600480360381019061007c91906104b9565b61014f565b60405161008f92919061058e565b60405180910390f35b6100a0610233565b6040516100ad91906105be565b60405180910390f35b6100d060048036038101906100cb91906104b9565b61023c565b005b6100ec60048036038101906100e7919061070e565b610252565b6040516100f991906105be565b60405180910390f35b61011c600480360381019061011791906104b9565b610280565b60405161012a92919061058e565b60405180910390f35b61014d60048036038101906101489190610757565b61033c565b005b6000606060028381548110610167576101666107b3565b5b9060005260206000209060020201600001546002848154811061018d5761018c6107b3565b5b90600052602060002090600202016001018080546101aa90610811565b80601f01602080910402602001604051908101604052809291908181526020018280546101d690610811565b80156102235780601f106101f857610100808354040283529160200191610223565b820191906000526020600020905b81548152906001019060200180831161020657829003601f168201915b5050505050905091509150915091565b60008054905090565b6005816102499190610871565b60008190555050565b6001818051602081018201805184825260208301602085012081835280955050505050506000915090505481565b6002818154811061029057600080fd5b90600052602060002090600202016000915090508060000154908060010180546102b990610811565b80601f01602080910402602001604051908101604052809291908181526020018280546102e590610811565b80156103325780601f1061030757610100808354040283529160200191610332565b820191906000526020600020905b81548152906001019060200180831161031557829003601f168201915b5050505050905082565b600260405180604001604052808481526020018381525090806001815401808255809150506001900390600052602060002090600202016000909190919091506000820151816000015560208201518160010190805190602001906103a29291906103cc565b505050816001826040516103b69190610903565b9081526020016040518091039020819055505050565b8280546103d890610811565b90600052602060002090601f0160209004810192826103fa5760008555610441565b82601f1061041357805160ff1916838001178555610441565b82800160010185558215610441579182015b82811115610440578251825591602001919060010190610425565b5b50905061044e9190610452565b5090565b5b8082111561046b576000816000905550600101610453565b5090565b6000604051905090565b600080fd5b600080fd5b6000819050919050565b61049681610483565b81146104a157600080fd5b50565b6000813590506104b38161048d565b92915050565b6000602082840312156104cf576104ce610479565b5b60006104dd848285016104a4565b91505092915050565b6104ef81610483565b82525050565b600081519050919050565b600082825260208201905092915050565b60005b8381101561052f578082015181840152602081019050610514565b8381111561053e576000848401525b50505050565b6000601f19601f8301169050919050565b6000610560826104f5565b61056a8185610500565b935061057a818560208601610511565b61058381610544565b840191505092915050565b60006040820190506105a360008301856104e6565b81810360208301526105b58184610555565b90509392505050565b60006020820190506105d360008301846104e6565b92915050565b600080fd5b600080fd5b7f4e487b7100000000000000000000000000000000000000000000000000000000600052604160045260246000fd5b61061b82610544565b810181811067ffffffffffffffff8211171561063a576106396105e3565b5b80604052505050565b600061064d61046f565b90506106598282610612565b919050565b600067ffffffffffffffff821115610679576106786105e3565b5b61068282610544565b9050602081019050919050565b82818337600083830152505050565b60006106b16106ac8461065e565b610643565b9050828152602081018484840111156106cd576106cc6105de565b5b6106d884828561068f565b509392505050565b600082601f8301126106f5576106f46105d9565b5b813561070584826020860161069e565b91505092915050565b60006020828403121561072457610723610479565b5b600082013567ffffffffffffffff8111156107425761074161047e565b5b61074e848285016106e0565b91505092915050565b6000806040838503121561076e5761076d610479565b5b600061077c858286016104a4565b925050602083013567ffffffffffffffff81111561079d5761079c61047e565b5b6107a9858286016106e0565b9150509250929050565b7f4e487b7100000000000000000000000000000000000000000000000000000000600052603260045260246000fd5b7f4e487b7100000000000000000000000000000000000000000000000000000000600052602260045260246000fd5b6000600282049050600182168061082957607f821691505b60208210810361083c5761083b6107e2565b5b50919050565b7f4e487b7100000000000000000000000000000000000000000000000000000000600052601160045260246000fd5b600061087c82610483565b915061088783610483565b9250827fffffffffffffffffffffffffffffffffffffffffffffffffffffffffffffffff038211156108bc576108bb610842565b5b828201905092915050565b600081905092915050565b60006108dd826104f5565b6108e781856108c7565b93506108f7818560208601610511565b80840191505092915050565b600061090f82846108d2565b91508190509291505056fea26469706673582212207ffcc0b46eebb4af36a477faedf654a7ed8b5965ff20a19d9a978f85e2efa97b64736f6c634300080d0033",
					"opcodes": "PUSH1 0x80 PUSH1 0x40 MSTORE CALLVALUE DUP1 ISZERO PUSH2 0x10 JUMPI PUSH1 0x0 DUP1 REVERT JUMPDEST POP PUSH2 0x950 DUP1 PUSH2 0x20 PUSH1 0x0 CODECOPY PUSH1 0x0 RETURN INVALID PUSH1 0x80 PUSH1 0x40 MSTORE CALLVALUE DUP1 ISZERO PUSH2 0x10 JUMPI PUSH1 0x0 DUP1 REVERT JUMPDEST POP PUSH1 0x4 CALLDATASIZE LT PUSH2 0x62 JUMPI PUSH1 0x0 CALLDATALOAD PUSH1 0xE0 SHR DUP1 PUSH4 0x246982C4 EQ PUSH2 0x67 JUMPI DUP1 PUSH4 0x2E64CEC1 EQ PUSH2 0x98 JUMPI DUP1 PUSH4 0x6057361D EQ PUSH2 0xB6 JUMPI DUP1 PUSH4 0x8BAB8DD5 EQ PUSH2 0xD2 JUMPI DUP1 PUSH4 0x9E7A13AD EQ PUSH2 0x102 JUMPI DUP1 PUSH4 0xBC832D4E EQ PUSH2 0x133 JUMPI JUMPDEST PUSH1 0x0 DUP1 REVERT JUMPDEST PUSH2 0x81 PUSH1 0x4 DUP1 CALLDATASIZE SUB DUP2 ADD SWAP1 PUSH2 0x7C SWAP2 SWAP1 PUSH2 0x4B9 JUMP JUMPDEST PUSH2 0x14F JUMP JUMPDEST PUSH1 0x40 MLOAD PUSH2 0x8F SWAP3 SWAP2 SWAP1 PUSH2 0x58E JUMP JUMPDEST PUSH1 0x40 MLOAD DUP1 SWAP2 SUB SWAP1 RETURN JUMPDEST PUSH2 0xA0 PUSH2 0x233 JUMP JUMPDEST PUSH1 0x40 MLOAD PUSH2 0xAD SWAP2 SWAP1 PUSH2 0x5BE JUMP JUMPDEST PUSH1 0x40 MLOAD DUP1 SWAP2 SUB SWAP1 RETURN JUMPDEST PUSH2 0xD0 PUSH1 0x4 DUP1 CALLDATASIZE SUB DUP2 ADD SWAP1 PUSH2 0xCB SWAP2 SWAP1 PUSH2 0x4B9 JUMP JUMPDEST PUSH2 0x23C JUMP JUMPDEST STOP JUMPDEST PUSH2 0xEC PUSH1 0x4 DUP1 CALLDATASIZE SUB DUP2 ADD SWAP1 PUSH2 0xE7 SWAP2 SWAP1 PUSH2 0x70E JUMP JUMPDEST PUSH2 0x252 JUMP JUMPDEST PUSH1 0x40 MLOAD PUSH2 0xF9 SWAP2 SWAP1 PUSH2 0x5BE JUMP JUMPDEST PUSH1 0x40 MLOAD DUP1 SWAP2 SUB SWAP1 RETURN JUMPDEST PUSH2 0x11C PUSH1 0x4 DUP1 CALLDATASIZE SUB DUP2 ADD SWAP1 PUSH2 0x117 SWAP2 SWAP1 PUSH2 0x4B9 JUMP JUMPDEST PUSH2 0x280 JUMP JUMPDEST PUSH1 0x40 MLOAD PUSH2 0x12A SWAP3 SWAP2 SWAP1 PUSH2 0x58E JUMP JUMPDEST PUSH1 0x40 MLOAD DUP1 SWAP2 SUB SWAP1 RETURN JUMPDEST PUSH2 0x14D PUSH1 0x4 DUP1 CALLDATASIZE SUB DUP2 ADD SWAP1 PUSH2 0x148 SWAP2 SWAP1 PUSH2 0x757 JUMP JUMPDEST PUSH2 0x33C JUMP JUMPDEST STOP JUMPDEST PUSH1 0x0 PUSH1 0x60 PUSH1 0x2 DUP4 DUP2 SLOAD DUP2 LT PUSH2 0x167 JUMPI PUSH2 0x166 PUSH2 0x7B3 JUMP JUMPDEST JUMPDEST SWAP1 PUSH1 0x0 MSTORE PUSH1 0x20 PUSH1 0x0 KECCAK256 SWAP1 PUSH1 0x2 MUL ADD PUSH1 0x0 ADD SLOAD PUSH1 0x2 DUP5 DUP2 SLOAD DUP2 LT PUSH2 0x18D JUMPI PUSH2 0x18C PUSH2 0x7B3 JUMP JUMPDEST JUMPDEST SWAP1 PUSH1 0x0 MSTORE PUSH1 0x20 PUSH1 0x0 KECCAK256 SWAP1 PUSH1 0x2 MUL ADD PUSH1 0x1 ADD DUP1 DUP1 SLOAD PUSH2 0x1AA SWAP1 PUSH2 0x811 JUMP JUMPDEST DUP1 PUSH1 0x1F ADD PUSH1 0x20 DUP1 SWAP2 DIV MUL PUSH1 0x20 ADD PUSH1 0x40 MLOAD SWAP1 DUP2 ADD PUSH1 0x40 MSTORE DUP1 SWAP3 SWAP2 SWAP1 DUP2 DUP2 MSTORE PUSH1 0x20 ADD DUP3 DUP1 SLOAD PUSH2 0x1D6 SWAP1 PUSH2 0x811 JUMP JUMPDEST DUP1 ISZERO PUSH2 0x223 JUMPI DUP1 PUSH1 0x1F LT PUSH2 0x1F8 JUMPI PUSH2 0x100 DUP1 DUP4 SLOAD DIV MUL DUP4 MSTORE SWAP2 PUSH1 0x20 ADD SWAP2 PUSH2 0x223 JUMP JUMPDEST DUP3 ADD SWAP2 SWAP1 PUSH1 0x0 MSTORE PUSH1 0x20 PUSH1 0x0 KECCAK256 SWAP1 JUMPDEST DUP2 SLOAD DUP2 MSTORE SWAP1 PUSH1 0x1 ADD SWAP1 PUSH1 0x20 ADD DUP1 DUP4 GT PUSH2 0x206 JUMPI DUP3 SWAP1 SUB PUSH1 0x1F AND DUP3 ADD SWAP2 JUMPDEST POP POP POP POP POP SWAP1 POP SWAP2 POP SWAP2 POP SWAP2 POP SWAP2 JUMP JUMPDEST PUSH1 0x0 DUP1 SLOAD SWAP1 POP SWAP1 JUMP JUMPDEST PUSH1 0x5 DUP2 PUSH2 0x249 SWAP2 SWAP1 PUSH2 0x871 JUMP JUMPDEST PUSH1 0x0 DUP2 SWAP1 SSTORE POP POP JUMP JUMPDEST PUSH1 0x1 DUP2 DUP1 MLOAD PUSH1 0x20 DUP2 ADD DUP3 ADD DUP1 MLOAD DUP5 DUP3 MSTORE PUSH1 0x20 DUP4 ADD PUSH1 0x20 DUP6 ADD KECCAK256 DUP2 DUP4 MSTORE DUP1 SWAP6 POP POP POP POP POP POP PUSH1 0x0 SWAP2 POP SWAP1 POP SLOAD DUP2 JUMP JUMPDEST PUSH1 0x2 DUP2 DUP2 SLOAD DUP2 LT PUSH2 0x290 JUMPI PUSH1 0x0 DUP1 REVERT JUMPDEST SWAP1 PUSH1 0x0 MSTORE PUSH1 0x20 PUSH1 0x0 KECCAK256 SWAP1 PUSH1 0x2 MUL ADD PUSH1 0x0 SWAP2 POP SWAP1 POP DUP1 PUSH1 0x0 ADD SLOAD SWAP1 DUP1 PUSH1 0x1 ADD DUP1 SLOAD PUSH2 0x2B9 SWAP1 PUSH2 0x811 JUMP JUMPDEST DUP1 PUSH1 0x1F ADD PUSH1 0x20 DUP1 SWAP2 DIV MUL PUSH1 0x20 ADD PUSH1 0x40 MLOAD SWAP1 DUP2 ADD PUSH1 0x40 MSTORE DUP1 SWAP3 SWAP2 SWAP1 DUP2 DUP2 MSTORE PUSH1 0x20 ADD DUP3 DUP1 SLOAD PUSH2 0x2E5 SWAP1 PUSH2 0x811 JUMP JUMPDEST DUP1 ISZERO PUSH2 0x332 JUMPI DUP1 PUSH1 0x1F LT PUSH2 0x307 JUMPI PUSH2 0x100 DUP1 DUP4 SLOAD DIV MUL DUP4 MSTORE SWAP2 PUSH1 0x20 ADD SWAP2 PUSH2 0x332 JUMP JUMPDEST DUP3 ADD SWAP2 SWAP1 PUSH1 0x0 MSTORE PUSH1 0x20 PUSH1 0x0 KECCAK256 SWAP1 JUMPDEST DUP2 SLOAD DUP2 MSTORE SWAP1 PUSH1 0x1 ADD SWAP1 PUSH1 0x20 ADD DUP1 DUP4 GT PUSH2 0x315 JUMPI DUP3 SWAP1 SUB PUSH1 0x1F AND DUP3 ADD SWAP2 JUMPDEST POP POP POP POP POP SWAP1 POP DUP3 JUMP JUMPDEST PUSH1 0x2 PUSH1 0x40 MLOAD DUP1 PUSH1 0x40 ADD PUSH1 0x40 MSTORE DUP1 DUP5 DUP2 MSTORE PUSH1 0x20 ADD DUP4 DUP2 MSTORE POP SWAP1 DUP1 PUSH1 0x1 DUP2 SLOAD ADD DUP1 DUP3 SSTORE DUP1 SWAP2 POP POP PUSH1 0x1 SWAP1 SUB SWAP1 PUSH1 0x0 MSTORE PUSH1 0x20 PUSH1 0x0 KECCAK256 SWAP1 PUSH1 0x2 MUL ADD PUSH1 0x0 SWAP1 SWAP2 SWAP1 SWAP2 SWAP1 SWAP2 POP PUSH1 0x0 DUP3 ADD MLOAD DUP2 PUSH1 0x0 ADD SSTORE PUSH1 0x20 DUP3 ADD MLOAD DUP2 PUSH1 0x1 ADD SWAP1 DUP1 MLOAD SWAP1 PUSH1 0x20 ADD SWAP1 PUSH2 0x3A2 SWAP3 SWAP2 SWAP1 PUSH2 0x3CC JUMP JUMPDEST POP POP POP DUP2 PUSH1 0x1 DUP3 PUSH1 0x40 MLOAD PUSH2 0x3B6 SWAP2 SWAP1 PUSH2 0x903 JUMP JUMPDEST SWAP1 DUP2 MSTORE PUSH1 0x20 ADD PUSH1 0x40 MLOAD DUP1 SWAP2 SUB SWAP1 KECCAK256 DUP2 SWAP1 SSTORE POP POP POP JUMP JUMPDEST DUP3 DUP1 SLOAD PUSH2 0x3D8 SWAP1 PUSH2 0x811 JUMP JUMPDEST SWAP1 PUSH1 0x0 MSTORE PUSH1 0x20 PUSH1 0x0 KECCAK256 SWAP1 PUSH1 0x1F ADD PUSH1 0x20 SWAP1 DIV DUP2 ADD SWAP3 DUP3 PUSH2 0x3FA JUMPI PUSH1 0x0 DUP6 SSTORE PUSH2 0x441 JUMP JUMPDEST DUP3 PUSH1 0x1F LT PUSH2 0x413 JUMPI DUP1 MLOAD PUSH1 0xFF NOT AND DUP4 DUP1 ADD OR DUP6 SSTORE PUSH2 0x441 JUMP JUMPDEST DUP3 DUP1 ADD PUSH1 0x1 ADD DUP6 SSTORE DUP3 ISZERO PUSH2 0x441 JUMPI SWAP2 DUP3 ADD JUMPDEST DUP3 DUP2 GT ISZERO PUSH2 0x440 JUMPI DUP3 MLOAD DUP3 SSTORE SWAP2 PUSH1 0x20 ADD SWAP2 SWAP1 PUSH1 0x1 ADD SWAP1 PUSH2 0x425 JUMP JUMPDEST JUMPDEST POP SWAP1 POP PUSH2 0x44E SWAP2 SWAP1 PUSH2 0x452 JUMP JUMPDEST POP SWAP1 JUMP JUMPDEST JUMPDEST DUP1 DUP3 GT ISZERO PUSH2 0x46B JUMPI PUSH1 0x0 DUP2 PUSH1 0x0 SWAP1 SSTORE POP PUSH1 0x1 ADD PUSH2 0x453 JUMP JUMPDEST POP SWAP1 JUMP JUMPDEST PUSH1 0x0 PUSH1 0x40 MLOAD SWAP1 POP SWAP1 JUMP JUMPDEST PUSH1 0x0 DUP1 REVERT JUMPDEST PUSH1 0x0 DUP1 REVERT JUMPDEST PUSH1 0x0 DUP2 SWAP1 POP SWAP2 SWAP1 POP JUMP JUMPDEST PUSH2 0x496 DUP2 PUSH2 0x483 JUMP JUMPDEST DUP2 EQ PUSH2 0x4A1 JUMPI PUSH1 0x0 DUP1 REVERT JUMPDEST POP JUMP JUMPDEST PUSH1 0x0 DUP2 CALLDATALOAD SWAP1 POP PUSH2 0x4B3 DUP2 PUSH2 0x48D JUMP JUMPDEST SWAP3 SWAP2 POP POP JUMP JUMPDEST PUSH1 0x0 PUSH1 0x20 DUP3 DUP5 SUB SLT ISZERO PUSH2 0x4CF JUMPI PUSH2 0x4CE PUSH2 0x479 JUMP JUMPDEST JUMPDEST PUSH1 0x0 PUSH2 0x4DD DUP5 DUP3 DUP6 ADD PUSH2 0x4A4 JUMP JUMPDEST SWAP2 POP POP SWAP3 SWAP2 POP POP JUMP JUMPDEST PUSH2 0x4EF DUP2 PUSH2 0x483 JUMP JUMPDEST DUP3 MSTORE POP POP JUMP JUMPDEST PUSH1 0x0 DUP2 MLOAD SWAP1 POP SWAP2 SWAP1 POP JUMP JUMPDEST PUSH1 0x0 DUP3 DUP3 MSTORE PUSH1 0x20 DUP3 ADD SWAP1 POP SWAP3 SWAP2 POP POP JUMP JUMPDEST PUSH1 0x0 JUMPDEST DUP4 DUP2 LT ISZERO PUSH2 0x52F JUMPI DUP1 DUP3 ADD MLOAD DUP2 DUP5 ADD MSTORE PUSH1 0x20 DUP2 ADD SWAP1 POP PUSH2 0x514 JUMP JUMPDEST DUP4 DUP2 GT ISZERO PUSH2 0x53E JUMPI PUSH1 0x0 DUP5 DUP5 ADD MSTORE JUMPDEST POP POP POP POP JUMP JUMPDEST PUSH1 0x0 PUSH1 0x1F NOT PUSH1 0x1F DUP4 ADD AND SWAP1 POP SWAP2 SWAP1 POP JUMP JUMPDEST PUSH1 0x0 PUSH2 0x560 DUP3 PUSH2 0x4F5 JUMP JUMPDEST PUSH2 0x56A DUP2 DUP6 PUSH2 0x500 JUMP JUMPDEST SWAP4 POP PUSH2 0x57A DUP2 DUP6 PUSH1 0x20 DUP7 ADD PUSH2 0x511 JUMP JUMPDEST PUSH2 0x583 DUP2 PUSH2 0x544 JUMP JUMPDEST DUP5 ADD SWAP2 POP POP SWAP3 SWAP2 POP POP JUMP JUMPDEST PUSH1 0x0 PUSH1 0x40 DUP3 ADD SWAP1 POP PUSH2 0x5A3 PUSH1 0x0 DUP4 ADD DUP6 PUSH2 0x4E6 JUMP JUMPDEST DUP2 DUP2 SUB PUSH1 0x20 DUP4 ADD MSTORE PUSH2 0x5B5 DUP2 DUP5 PUSH2 0x555 JUMP JUMPDEST SWAP1 POP SWAP4 SWAP3 POP POP POP JUMP JUMPDEST PUSH1 0x0 PUSH1 0x20 DUP3 ADD SWAP1 POP PUSH2 0x5D3 PUSH1 0x0 DUP4 ADD DUP5 PUSH2 0x4E6 JUMP JUMPDEST SWAP3 SWAP2 POP POP JUMP JUMPDEST PUSH1 0x0 DUP1 REVERT JUMPDEST PUSH1 0x0 DUP1 REVERT JUMPDEST PUSH32 0x4E487B7100000000000000000000000000000000000000000000000000000000 PUSH1 0x0 MSTORE PUSH1 0x41 PUSH1 0x4 MSTORE PUSH1 0x24 PUSH1 0x0 REVERT JUMPDEST PUSH2 0x61B DUP3 PUSH2 0x544 JUMP JUMPDEST DUP2 ADD DUP2 DUP2 LT PUSH8 0xFFFFFFFFFFFFFFFF DUP3 GT OR ISZERO PUSH2 0x63A JUMPI PUSH2 0x639 PUSH2 0x5E3 JUMP JUMPDEST JUMPDEST DUP1 PUSH1 0x40 MSTORE POP POP POP JUMP JUMPDEST PUSH1 0x0 PUSH2 0x64D PUSH2 0x46F JUMP JUMPDEST SWAP1 POP PUSH2 0x659 DUP3 DUP3 PUSH2 0x612 JUMP JUMPDEST SWAP2 SWAP1 POP JUMP JUMPDEST PUSH1 0x0 PUSH8 0xFFFFFFFFFFFFFFFF DUP3 GT ISZERO PUSH2 0x679 JUMPI PUSH2 0x678 PUSH2 0x5E3 JUMP JUMPDEST JUMPDEST PUSH2 0x682 DUP3 PUSH2 0x544 JUMP JUMPDEST SWAP1 POP PUSH1 0x20 DUP2 ADD SWAP1 POP SWAP2 SWAP1 POP JUMP JUMPDEST DUP3 DUP2 DUP4 CALLDATACOPY PUSH1 0x0 DUP4 DUP4 ADD MSTORE POP POP POP JUMP JUMPDEST PUSH1 0x0 PUSH2 0x6B1 PUSH2 0x6AC DUP5 PUSH2 0x65E JUMP JUMPDEST PUSH2 0x643 JUMP JUMPDEST SWAP1 POP DUP3 DUP2 MSTORE PUSH1 0x20 DUP2 ADD DUP5 DUP5 DUP5 ADD GT ISZERO PUSH2 0x6CD JUMPI PUSH2 0x6CC PUSH2 0x5DE JUMP JUMPDEST JUMPDEST PUSH2 0x6D8 DUP5 DUP3 DUP6 PUSH2 0x68F JUMP JUMPDEST POP SWAP4 SWAP3 POP POP POP JUMP JUMPDEST PUSH1 0x0 DUP3 PUSH1 0x1F DUP4 ADD SLT PUSH2 0x6F5 JUMPI PUSH2 0x6F4 PUSH2 0x5D9 JUMP JUMPDEST JUMPDEST DUP2 CALLDATALOAD PUSH2 0x705 DUP5 DUP3 PUSH1 0x20 DUP7 ADD PUSH2 0x69E JUMP JUMPDEST SWAP2 POP POP SWAP3 SWAP2 POP POP JUMP JUMPDEST PUSH1 0x0 PUSH1 0x20 DUP3 DUP5 SUB SLT ISZERO PUSH2 0x724 JUMPI PUSH2 0x723 PUSH2 0x479 JUMP JUMPDEST JUMPDEST PUSH1 0x0 DUP3 ADD CALLDATALOAD PUSH8 0xFFFFFFFFFFFFFFFF DUP2 GT ISZERO PUSH2 0x742 JUMPI PUSH2 0x741 PUSH2 0x47E JUMP JUMPDEST JUMPDEST PUSH2 0x74E DUP5 DUP3 DUP6 ADD PUSH2 0x6E0 JUMP JUMPDEST SWAP2 POP POP SWAP3 SWAP2 POP POP JUMP JUMPDEST PUSH1 0x0 DUP1 PUSH1 0x40 DUP4 DUP6 SUB SLT ISZERO PUSH2 0x76E JUMPI PUSH2 0x76D PUSH2 0x479 JUMP JUMPDEST JUMPDEST PUSH1 0x0 PUSH2 0x77C DUP6 DUP3 DUP7 ADD PUSH2 0x4A4 JUMP JUMPDEST SWAP3 POP POP PUSH1 0x20 DUP4 ADD CALLDATALOAD PUSH8 0xFFFFFFFFFFFFFFFF DUP2 GT ISZERO PUSH2 0x79D JUMPI PUSH2 0x79C PUSH2 0x47E JUMP JUMPDEST JUMPDEST PUSH2 0x7A9 DUP6 DUP3 DUP7 ADD PUSH2 0x6E0 JUMP JUMPDEST SWAP2 POP POP SWAP3 POP SWAP3 SWAP1 POP JUMP JUMPDEST PUSH32 0x4E487B7100000000000000000000000000000000000000000000000000000000 PUSH1 0x0 MSTORE PUSH1 0x32 PUSH1 0x4 MSTORE PUSH1 0x24 PUSH1 0x0 REVERT JUMPDEST PUSH32 0x4E487B7100000000000000000000000000000000000000000000000000000000 PUSH1 0x0 MSTORE PUSH1 0x22 PUSH1 0x4 MSTORE PUSH1 0x24 PUSH1 0x0 REVERT JUMPDEST PUSH1 0x0 PUSH1 0x2 DUP3 DIV SWAP1 POP PUSH1 0x1 DUP3 AND DUP1 PUSH2 0x829 JUMPI PUSH1 0x7F DUP3 AND SWAP2 POP JUMPDEST PUSH1 0x20 DUP3 LT DUP2 SUB PUSH2 0x83C JUMPI PUSH2 0x83B PUSH2 0x7E2 JUMP JUMPDEST JUMPDEST POP SWAP2 SWAP1 POP JUMP JUMPDEST PUSH32 0x4E487B7100000000000000000000000000000000000000000000000000000000 PUSH1 0x0 MSTORE PUSH1 0x11 PUSH1 0x4 MSTORE PUSH1 0x24 PUSH1 0x0 REVERT JUMPDEST PUSH1 0x0 PUSH2 0x87C DUP3 PUSH2 0x483 JUMP JUMPDEST SWAP2 POP PUSH2 0x887 DUP4 PUSH2 0x483 JUMP JUMPDEST SWAP3 POP DUP3 PUSH32 0xFFFFFFFFFFFFFFFFFFFFFFFFFFFFFFFFFFFFFFFFFFFFFFFFFFFFFFFFFFFFFFFF SUB DUP3 GT ISZERO PUSH2 0x8BC JUMPI PUSH2 0x8BB PUSH2 0x842 JUMP JUMPDEST JUMPDEST DUP3 DUP3 ADD SWAP1 POP SWAP3 SWAP2 POP POP JUMP JUMPDEST PUSH1 0x0 DUP2 SWAP1 POP SWAP3 SWAP2 POP POP JUMP JUMPDEST PUSH1 0x0 PUSH2 0x8DD DUP3 PUSH2 0x4F5 JUMP JUMPDEST PUSH2 0x8E7 DUP2 DUP6 PUSH2 0x8C7 JUMP JUMPDEST SWAP4 POP PUSH2 0x8F7 DUP2 DUP6 PUSH1 0x20 DUP7 ADD PUSH2 0x511 JUMP JUMPDEST DUP1 DUP5 ADD SWAP2 POP POP SWAP3 SWAP2 POP POP JUMP JUMPDEST PUSH1 0x0 PUSH2 0x90F DUP3 DUP5 PUSH2 0x8D2 JUMP JUMPDEST SWAP2 POP DUP2 SWAP1 POP SWAP3 SWAP2 POP POP JUMP INVALID LOG2 PUSH5 0x6970667358 0x22 SLT KECCAK256 PUSH32 0xFCC0B46EEBB4AF36A477FAEDF654A7ED8B5965FF20A19D9A978F85E2EFA97B64 PUSH20 0x6F6C634300080D00330000000000000000000000 "
				},
				"gasEstimates": {
					"creation": {
						"codeDepositCost": "476800",
						"executionCost": "511",
						"totalCost": "477311"
					},
					"external": {
						"addPerson(uint256,string)": "infinite",
						"getPerson(uint256)": "infinite",
						"nameToFavoriteNumber(string)": "infinite",
						"people(uint256)": "infinite",
						"retrieve()": "2437",
						"store(uint256)": "infinite"
					}
				},
				"methodIdentifiers": {
					"addPerson(uint256,string)": "bc832d4e",
					"getPerson(uint256)": "246982c4",
					"nameToFavoriteNumber(string)": "8bab8dd5",
					"people(uint256)": "9e7a13ad",
					"retrieve()": "2e64cec1",
					"store(uint256)": "6057361d"
				}
			},
			"storageLayout": {
				"storage": [
					{
						"astId": 22,
						"contract": "FreeCodeCamp/ExtraStorage.sol:ExtraStorage",
						"label": "favoriteNumber",
						"offset": 0,
						"slot": "0",
						"type": "t_uint256"
					},
					{
						"astId": 26,
						"contract": "FreeCodeCamp/ExtraStorage.sol:ExtraStorage",
						"label": "nameToFavoriteNumber",
						"offset": 0,
						"slot": "1",
						"type": "t_mapping(t_string_memory_ptr,t_uint256)"
					},
					{
						"astId": 35,
						"contract": "FreeCodeCamp/ExtraStorage.sol:ExtraStorage",
						"label": "people",
						"offset": 0,
						"slot": "2",
						"type": "t_array(t_struct(People)31_storage)dyn_storage"
					}
				],
				"types": {
					"t_array(t_struct(People)31_storage)dyn_storage": {
						"base": "t_struct(People)31_storage",
						"encoding": "dynamic_array",
						"label": "struct SimpleStorage.People[]",
						"numberOfBytes": "32"
					},
					"t_mapping(t_string_memory_ptr,t_uint256)": {
						"encoding": "mapping",
						"key": "t_string_memory_ptr",
						"label": "mapping(string => uint256)",
						"numberOfBytes": "32",
						"value": "t_uint256"
					},
					"t_string_memory_ptr": {
						"encoding": "bytes",
						"label": "string",
						"numberOfBytes": "32"
					},
					"t_string_storage": {
						"encoding": "bytes",
						"label": "string",
						"numberOfBytes": "32"
					},
					"t_struct(People)31_storage": {
						"encoding": "inplace",
						"label": "struct SimpleStorage.People",
						"members": [
							{
								"astId": 28,
								"contract": "FreeCodeCamp/ExtraStorage.sol:ExtraStorage",
								"label": "favoriteNumber",
								"offset": 0,
								"slot": "0",
								"type": "t_uint256"
							},
							{
								"astId": 30,
								"contract": "FreeCodeCamp/ExtraStorage.sol:ExtraStorage",
								"label": "name",
								"offset": 0,
								"slot": "1",
								"type": "t_string_storage"
							}
						],
						"numberOfBytes": "64"
					},
					"t_uint256": {
						"encoding": "inplace",
						"label": "uint256",
						"numberOfBytes": "32"
					}
				}
			},
			"userdoc": {
				"kind": "user",
				"methods": {},
				"version": 1
			}
		}
	}
}