{
	"FirstSteps_officialDocs/cereate_own_token.sol": {
		"coin": {
			"abi": [
				{
					"inputs": [],
					"stateMutability": "nonpayable",
					"type": "constructor"
				},
				{
					"inputs": [
						{
							"internalType": "uint256",
							"name": "requested",
							"type": "uint256"
						},
						{
							"internalType": "uint256",
							"name": "available",
							"type": "uint256"
						}
					],
					"name": "InsufficientBalance",
					"type": "error"
				},
				{
					"anonymous": false,
					"inputs": [
						{
							"indexed": false,
							"internalType": "address",
							"name": "from",
							"type": "address"
						},
						{
							"indexed": false,
							"internalType": "address",
							"name": "to",
							"type": "address"
						},
						{
							"indexed": false,
							"internalType": "uint256",
							"name": "amount",
							"type": "uint256"
						}
					],
					"name": "Sent",
					"type": "event"
				},
				{
					"inputs": [
						{
							"internalType": "address",
							"name": "",
							"type": "address"
						}
					],
					"name": "balances",
					"outputs": [
						{
							"internalType": "uint256",
							"name": "",
							"type": "uint256"
						}
					],
					"stateMutability": "view",
					"type": "function"
				},
				{
					"inputs": [
						{
							"internalType": "address",
							"name": "receiver",
							"type": "address"
						},
						{
							"internalType": "uint256",
							"name": "amount",
							"type": "uint256"
						}
					],
					"name": "mint",
					"outputs": [],
					"stateMutability": "nonpayable",
					"type": "function"
				},
				{
					"inputs": [
						{
							"internalType": "address",
							"name": "receiver",
							"type": "address"
						},
						{
							"internalType": "uint256",
							"name": "amount",
							"type": "uint256"
						}
					],
					"name": "send",
					"outputs": [],
					"stateMutability": "nonpayable",
					"type": "function"
				}
			],
			"devdoc": {
				"kind": "dev",
				"methods": {},
				"version": 1
			},
			"evm": {
				"assembly": "    /* \"FirstSteps_officialDocs/cereate_own_token.sol\":59:880  contract coin {... */\n  mstore(0x40, 0x80)\n    /* \"FirstSteps_officialDocs/cereate_own_token.sol\":108:157  constructor() {... */\n  callvalue\n  dup1\n  iszero\n  tag_1\n  jumpi\n  0x00\n  dup1\n  revert\ntag_1:\n  pop\n    /* \"FirstSteps_officialDocs/cereate_own_token.sol\":140:150  msg.sender */\n  caller\n    /* \"FirstSteps_officialDocs/cereate_own_token.sol\":132:137  owner */\n  0x00\n  dup1\n    /* \"FirstSteps_officialDocs/cereate_own_token.sol\":132:150  owner = msg.sender */\n  0x0100\n  exp\n  dup2\n  sload\n  dup2\n  0xffffffffffffffffffffffffffffffffffffffff\n  mul\n  not\n  and\n  swap1\n  dup4\n  0xffffffffffffffffffffffffffffffffffffffff\n  and\n  mul\n  or\n  swap1\n  sstore\n  pop\n    /* \"FirstSteps_officialDocs/cereate_own_token.sol\":59:880  contract coin {... */\n  dataSize(sub_0)\n  dup1\n  dataOffset(sub_0)\n  0x00\n  codecopy\n  0x00\n  return\nstop\n\nsub_0: assembly {\n        /* \"FirstSteps_officialDocs/cereate_own_token.sol\":59:880  contract coin {... */\n      mstore(0x40, 0x80)\n      callvalue\n      dup1\n      iszero\n      tag_1\n      jumpi\n      0x00\n      dup1\n      revert\n    tag_1:\n      pop\n      jumpi(tag_2, lt(calldatasize, 0x04))\n      shr(0xe0, calldataload(0x00))\n      dup1\n      0x27e235e3\n      eq\n      tag_3\n      jumpi\n      dup1\n      0x40c10f19\n      eq\n      tag_4\n      jumpi\n      dup1\n      0xd0679d34\n      eq\n      tag_5\n      jumpi\n    tag_2:\n      0x00\n      dup1\n      revert\n        /* \"FirstSteps_officialDocs/cereate_own_token.sol\":163:204  mapping (address => uint) public balances */\n    tag_3:\n      tag_6\n      0x04\n      dup1\n      calldatasize\n      sub\n      dup2\n      add\n      swap1\n      tag_7\n      swap2\n      swap1\n      tag_8\n      jump\t// in\n    tag_7:\n      tag_9\n      jump\t// in\n    tag_6:\n      mload(0x40)\n      tag_10\n      swap2\n      swap1\n      tag_11\n      jump\t// in\n    tag_10:\n      mload(0x40)\n      dup1\n      swap2\n      sub\n      swap1\n      return\n        /* \"FirstSteps_officialDocs/cereate_own_token.sol\":267:427  function mint(address receiver, uint amount) public {... */\n    tag_4:\n      tag_12\n      0x04\n      dup1\n      calldatasize\n      sub\n      dup2\n      add\n      swap1\n      tag_13\n      swap2\n      swap1\n      tag_14\n      jump\t// in\n    tag_13:\n      tag_15\n      jump\t// in\n    tag_12:\n      stop\n        /* \"FirstSteps_officialDocs/cereate_own_token.sol\":498:878  function send(address receiver, uint amount) public {... */\n    tag_5:\n      tag_16\n      0x04\n      dup1\n      calldatasize\n      sub\n      dup2\n      add\n      swap1\n      tag_17\n      swap2\n      swap1\n      tag_14\n      jump\t// in\n    tag_17:\n      tag_18\n      jump\t// in\n    tag_16:\n      stop\n        /* \"FirstSteps_officialDocs/cereate_own_token.sol\":163:204  mapping (address => uint) public balances */\n    tag_9:\n      mstore(0x20, 0x01)\n      dup1\n      0x00\n      mstore\n      keccak256(0x00, 0x40)\n      0x00\n      swap2\n      pop\n      swap1\n      pop\n      sload\n      dup2\n      jump\t// out\n        /* \"FirstSteps_officialDocs/cereate_own_token.sol\":267:427  function mint(address receiver, uint amount) public {... */\n    tag_15:\n        /* \"FirstSteps_officialDocs/cereate_own_token.sol\":351:356  owner */\n      0x00\n      dup1\n      sload\n      swap1\n      0x0100\n      exp\n      swap1\n      div\n      0xffffffffffffffffffffffffffffffffffffffff\n      and\n        /* \"FirstSteps_officialDocs/cereate_own_token.sol\":337:356  msg.sender == owner */\n      0xffffffffffffffffffffffffffffffffffffffff\n      and\n        /* \"FirstSteps_officialDocs/cereate_own_token.sol\":337:347  msg.sender */\n      caller\n        /* \"FirstSteps_officialDocs/cereate_own_token.sol\":337:356  msg.sender == owner */\n      0xffffffffffffffffffffffffffffffffffffffff\n      and\n      eq\n        /* \"FirstSteps_officialDocs/cereate_own_token.sol\":329:382  require(msg.sender == owner, \"You're not the owner!\") */\n      tag_20\n      jumpi\n      mload(0x40)\n      0x08c379a000000000000000000000000000000000000000000000000000000000\n      dup2\n      mstore\n      0x04\n      add\n      tag_21\n      swap1\n      tag_22\n      jump\t// in\n    tag_21:\n      mload(0x40)\n      dup1\n      swap2\n      sub\n      swap1\n      revert\n    tag_20:\n        /* \"FirstSteps_officialDocs/cereate_own_token.sol\":414:420  amount */\n      dup1\n        /* \"FirstSteps_officialDocs/cereate_own_token.sol\":392:400  balances */\n      0x01\n        /* \"FirstSteps_officialDocs/cereate_own_token.sol\":392:410  balances[receiver] */\n      0x00\n        /* \"FirstSteps_officialDocs/cereate_own_token.sol\":401:409  receiver */\n      dup5\n        /* \"FirstSteps_officialDocs/cereate_own_token.sol\":392:410  balances[receiver] */\n      0xffffffffffffffffffffffffffffffffffffffff\n      and\n      0xffffffffffffffffffffffffffffffffffffffff\n      and\n      dup2\n      mstore\n      0x20\n      add\n      swap1\n      dup2\n      mstore\n      0x20\n      add\n      0x00\n      keccak256\n      0x00\n        /* \"FirstSteps_officialDocs/cereate_own_token.sol\":392:420  balances[receiver] += amount */\n      dup3\n      dup3\n      sload\n      tag_23\n      swap2\n      swap1\n      tag_24\n      jump\t// in\n    tag_23:\n      swap3\n      pop\n      pop\n      dup2\n      swap1\n      sstore\n      pop\n        /* \"FirstSteps_officialDocs/cereate_own_token.sol\":267:427  function mint(address receiver, uint amount) public {... */\n      pop\n      pop\n      jump\t// out\n        /* \"FirstSteps_officialDocs/cereate_own_token.sol\":498:878  function send(address receiver, uint amount) public {... */\n    tag_18:\n        /* \"FirstSteps_officialDocs/cereate_own_token.sol\":572:580  balances */\n      0x01\n        /* \"FirstSteps_officialDocs/cereate_own_token.sol\":572:592  balances[msg.sender] */\n      0x00\n        /* \"FirstSteps_officialDocs/cereate_own_token.sol\":581:591  msg.sender */\n      caller\n        /* \"FirstSteps_officialDocs/cereate_own_token.sol\":572:592  balances[msg.sender] */\n      0xffffffffffffffffffffffffffffffffffffffff\n      and\n      0xffffffffffffffffffffffffffffffffffffffff\n      and\n      dup2\n      mstore\n      0x20\n      add\n      swap1\n      dup2\n      mstore\n      0x20\n      add\n      0x00\n      keccak256\n      sload\n        /* \"FirstSteps_officialDocs/cereate_own_token.sol\":563:569  amount */\n      dup2\n        /* \"FirstSteps_officialDocs/cereate_own_token.sol\":563:592  amount > balances[msg.sender] */\n      gt\n        /* \"FirstSteps_officialDocs/cereate_own_token.sol\":560:745  if(amount > balances[msg.sender]) {... */\n      iszero\n      tag_26\n      jumpi\n        /* \"FirstSteps_officialDocs/cereate_own_token.sol\":664:670  amount */\n      dup1\n        /* \"FirstSteps_officialDocs/cereate_own_token.sol\":699:707  balances */\n      0x01\n        /* \"FirstSteps_officialDocs/cereate_own_token.sol\":699:719  balances[msg.sender] */\n      0x00\n        /* \"FirstSteps_officialDocs/cereate_own_token.sol\":708:718  msg.sender */\n      caller\n        /* \"FirstSteps_officialDocs/cereate_own_token.sol\":699:719  balances[msg.sender] */\n      0xffffffffffffffffffffffffffffffffffffffff\n      and\n      0xffffffffffffffffffffffffffffffffffffffff\n      and\n      dup2\n      mstore\n      0x20\n      add\n      swap1\n      dup2\n      mstore\n      0x20\n      add\n      0x00\n      keccak256\n      sload\n        /* \"FirstSteps_officialDocs/cereate_own_token.sol\":615:734  InsufficientBalance({... */\n      mload(0x40)\n      0xcf47918100000000000000000000000000000000000000000000000000000000\n      dup2\n      mstore\n      0x04\n      add\n      tag_27\n      swap3\n      swap2\n      swap1\n      tag_28\n      jump\t// in\n    tag_27:\n      mload(0x40)\n      dup1\n      swap2\n      sub\n      swap1\n      revert\n        /* \"FirstSteps_officialDocs/cereate_own_token.sol\":560:745  if(amount > balances[msg.sender]) {... */\n    tag_26:\n        /* \"FirstSteps_officialDocs/cereate_own_token.sol\":778:784  amount */\n      dup1\n        /* \"FirstSteps_officialDocs/cereate_own_token.sol\":754:762  balances */\n      0x01\n        /* \"FirstSteps_officialDocs/cereate_own_token.sol\":754:774  balances[msg.sender] */\n      0x00\n        /* \"FirstSteps_officialDocs/cereate_own_token.sol\":763:773  msg.sender */\n      caller\n        /* \"FirstSteps_officialDocs/cereate_own_token.sol\":754:774  balances[msg.sender] */\n      0xffffffffffffffffffffffffffffffffffffffff\n      and\n      0xffffffffffffffffffffffffffffffffffffffff\n      and\n      dup2\n      mstore\n      0x20\n      add\n      swap1\n      dup2\n      mstore\n      0x20\n      add\n      0x00\n      keccak256\n      0x00\n        /* \"FirstSteps_officialDocs/cereate_own_token.sol\":754:784  balances[msg.sender] -= amount */\n      dup3\n      dup3\n      sload\n      tag_29\n      swap2\n      swap1\n      tag_30\n      jump\t// in\n    tag_29:\n      swap3\n      pop\n      pop\n      dup2\n      swap1\n      sstore\n      pop\n        /* \"FirstSteps_officialDocs/cereate_own_token.sol\":816:822  amount */\n      dup1\n        /* \"FirstSteps_officialDocs/cereate_own_token.sol\":794:802  balances */\n      0x01\n        /* \"FirstSteps_officialDocs/cereate_own_token.sol\":794:812  balances[receiver] */\n      0x00\n        /* \"FirstSteps_officialDocs/cereate_own_token.sol\":803:811  receiver */\n      dup5\n        /* \"FirstSteps_officialDocs/cereate_own_token.sol\":794:812  balances[receiver] */\n      0xffffffffffffffffffffffffffffffffffffffff\n      and\n      0xffffffffffffffffffffffffffffffffffffffff\n      and\n      dup2\n      mstore\n      0x20\n      add\n      swap1\n      dup2\n      mstore\n      0x20\n      add\n      0x00\n      keccak256\n      0x00\n        /* \"FirstSteps_officialDocs/cereate_own_token.sol\":794:822  balances[receiver] += amount */\n      dup3\n      dup3\n      sload\n      tag_31\n      swap2\n      swap1\n      tag_24\n      jump\t// in\n    tag_31:\n      swap3\n      pop\n      pop\n      dup2\n      swap1\n      sstore\n      pop\n        /* \"FirstSteps_officialDocs/cereate_own_token.sol\":837:871  Sent(msg.sender, receiver, amount) */\n      0x3990db2d31862302a685e8086b5755072a6e2b5b780af1ee81ece35ee3cd3345\n        /* \"FirstSteps_officialDocs/cereate_own_token.sol\":842:852  msg.sender */\n      caller\n        /* \"FirstSteps_officialDocs/cereate_own_token.sol\":854:862  receiver */\n      dup4\n        /* \"FirstSteps_officialDocs/cereate_own_token.sol\":864:870  amount */\n      dup4\n        /* \"FirstSteps_officialDocs/cereate_own_token.sol\":837:871  Sent(msg.sender, receiver, amount) */\n      mload(0x40)\n      tag_32\n      swap4\n      swap3\n      swap2\n      swap1\n      tag_33\n      jump\t// in\n    tag_32:\n      mload(0x40)\n      dup1\n      swap2\n      sub\n      swap1\n      log1\n        /* \"FirstSteps_officialDocs/cereate_own_token.sol\":498:878  function send(address receiver, uint amount) public {... */\n      pop\n      pop\n      jump\t// out\n        /* \"#utility.yul\":88:205   */\n    tag_35:\n        /* \"#utility.yul\":197:198   */\n      0x00\n        /* \"#utility.yul\":194:195   */\n      dup1\n        /* \"#utility.yul\":187:199   */\n      revert\n        /* \"#utility.yul\":334:460   */\n    tag_37:\n        /* \"#utility.yul\":371:378   */\n      0x00\n        /* \"#utility.yul\":411:453   */\n      0xffffffffffffffffffffffffffffffffffffffff\n        /* \"#utility.yul\":404:409   */\n      dup3\n        /* \"#utility.yul\":400:454   */\n      and\n        /* \"#utility.yul\":389:454   */\n      swap1\n      pop\n        /* \"#utility.yul\":334:460   */\n      swap2\n      swap1\n      pop\n      jump\t// out\n        /* \"#utility.yul\":466:562   */\n    tag_38:\n        /* \"#utility.yul\":503:510   */\n      0x00\n        /* \"#utility.yul\":532:556   */\n      tag_56\n        /* \"#utility.yul\":550:555   */\n      dup3\n        /* \"#utility.yul\":532:556   */\n      tag_37\n      jump\t// in\n    tag_56:\n        /* \"#utility.yul\":521:556   */\n      swap1\n      pop\n        /* \"#utility.yul\":466:562   */\n      swap2\n      swap1\n      pop\n      jump\t// out\n        /* \"#utility.yul\":568:690   */\n    tag_39:\n        /* \"#utility.yul\":641:665   */\n      tag_58\n        /* \"#utility.yul\":659:664   */\n      dup2\n        /* \"#utility.yul\":641:665   */\n      tag_38\n      jump\t// in\n    tag_58:\n        /* \"#utility.yul\":634:639   */\n      dup2\n        /* \"#utility.yul\":631:666   */\n      eq\n        /* \"#utility.yul\":621:684   */\n      tag_59\n      jumpi\n        /* \"#utility.yul\":680:681   */\n      0x00\n        /* \"#utility.yul\":677:678   */\n      dup1\n        /* \"#utility.yul\":670:682   */\n      revert\n        /* \"#utility.yul\":621:684   */\n    tag_59:\n        /* \"#utility.yul\":568:690   */\n      pop\n      jump\t// out\n        /* \"#utility.yul\":696:835   */\n    tag_40:\n        /* \"#utility.yul\":742:747   */\n      0x00\n        /* \"#utility.yul\":780:786   */\n      dup2\n        /* \"#utility.yul\":767:787   */\n      calldataload\n        /* \"#utility.yul\":758:787   */\n      swap1\n      pop\n        /* \"#utility.yul\":796:829   */\n      tag_61\n        /* \"#utility.yul\":823:828   */\n      dup2\n        /* \"#utility.yul\":796:829   */\n      tag_39\n      jump\t// in\n    tag_61:\n        /* \"#utility.yul\":696:835   */\n      swap3\n      swap2\n      pop\n      pop\n      jump\t// out\n        /* \"#utility.yul\":841:1170   */\n    tag_8:\n        /* \"#utility.yul\":900:906   */\n      0x00\n        /* \"#utility.yul\":949:951   */\n      0x20\n        /* \"#utility.yul\":937:946   */\n      dup3\n        /* \"#utility.yul\":928:935   */\n      dup5\n        /* \"#utility.yul\":924:947   */\n      sub\n        /* \"#utility.yul\":920:952   */\n      slt\n        /* \"#utility.yul\":917:1036   */\n      iszero\n      tag_63\n      jumpi\n        /* \"#utility.yul\":955:1034   */\n      tag_64\n      tag_35\n      jump\t// in\n    tag_64:\n        /* \"#utility.yul\":917:1036   */\n    tag_63:\n        /* \"#utility.yul\":1075:1076   */\n      0x00\n        /* \"#utility.yul\":1100:1153   */\n      tag_65\n        /* \"#utility.yul\":1145:1152   */\n      dup5\n        /* \"#utility.yul\":1136:1142   */\n      dup3\n        /* \"#utility.yul\":1125:1134   */\n      dup6\n        /* \"#utility.yul\":1121:1143   */\n      add\n        /* \"#utility.yul\":1100:1153   */\n      tag_40\n      jump\t// in\n    tag_65:\n        /* \"#utility.yul\":1090:1153   */\n      swap2\n      pop\n        /* \"#utility.yul\":1046:1163   */\n      pop\n        /* \"#utility.yul\":841:1170   */\n      swap3\n      swap2\n      pop\n      pop\n      jump\t// out\n        /* \"#utility.yul\":1176:1253   */\n    tag_41:\n        /* \"#utility.yul\":1213:1220   */\n      0x00\n        /* \"#utility.yul\":1242:1247   */\n      dup2\n        /* \"#utility.yul\":1231:1247   */\n      swap1\n      pop\n        /* \"#utility.yul\":1176:1253   */\n      swap2\n      swap1\n      pop\n      jump\t// out\n        /* \"#utility.yul\":1259:1377   */\n    tag_42:\n        /* \"#utility.yul\":1346:1370   */\n      tag_68\n        /* \"#utility.yul\":1364:1369   */\n      dup2\n        /* \"#utility.yul\":1346:1370   */\n      tag_41\n      jump\t// in\n    tag_68:\n        /* \"#utility.yul\":1341:1344   */\n      dup3\n        /* \"#utility.yul\":1334:1371   */\n      mstore\n        /* \"#utility.yul\":1259:1377   */\n      pop\n      pop\n      jump\t// out\n        /* \"#utility.yul\":1383:1605   */\n    tag_11:\n        /* \"#utility.yul\":1476:1480   */\n      0x00\n        /* \"#utility.yul\":1514:1516   */\n      0x20\n        /* \"#utility.yul\":1503:1512   */\n      dup3\n        /* \"#utility.yul\":1499:1517   */\n      add\n        /* \"#utility.yul\":1491:1517   */\n      swap1\n      pop\n        /* \"#utility.yul\":1527:1598   */\n      tag_70\n        /* \"#utility.yul\":1595:1596   */\n      0x00\n        /* \"#utility.yul\":1584:1593   */\n      dup4\n        /* \"#utility.yul\":1580:1597   */\n      add\n        /* \"#utility.yul\":1571:1577   */\n      dup5\n        /* \"#utility.yul\":1527:1598   */\n      tag_42\n      jump\t// in\n    tag_70:\n        /* \"#utility.yul\":1383:1605   */\n      swap3\n      swap2\n      pop\n      pop\n      jump\t// out\n        /* \"#utility.yul\":1611:1733   */\n    tag_43:\n        /* \"#utility.yul\":1684:1708   */\n      tag_72\n        /* \"#utility.yul\":1702:1707   */\n      dup2\n        /* \"#utility.yul\":1684:1708   */\n      tag_41\n      jump\t// in\n    tag_72:\n        /* \"#utility.yul\":1677:1682   */\n      dup2\n        /* \"#utility.yul\":1674:1709   */\n      eq\n        /* \"#utility.yul\":1664:1727   */\n      tag_73\n      jumpi\n        /* \"#utility.yul\":1723:1724   */\n      0x00\n        /* \"#utility.yul\":1720:1721   */\n      dup1\n        /* \"#utility.yul\":1713:1725   */\n      revert\n        /* \"#utility.yul\":1664:1727   */\n    tag_73:\n        /* \"#utility.yul\":1611:1733   */\n      pop\n      jump\t// out\n        /* \"#utility.yul\":1739:1878   */\n    tag_44:\n        /* \"#utility.yul\":1785:1790   */\n      0x00\n        /* \"#utility.yul\":1823:1829   */\n      dup2\n        /* \"#utility.yul\":1810:1830   */\n      calldataload\n        /* \"#utility.yul\":1801:1830   */\n      swap1\n      pop\n        /* \"#utility.yul\":1839:1872   */\n      tag_75\n        /* \"#utility.yul\":1866:1871   */\n      dup2\n        /* \"#utility.yul\":1839:1872   */\n      tag_43\n      jump\t// in\n    tag_75:\n        /* \"#utility.yul\":1739:1878   */\n      swap3\n      swap2\n      pop\n      pop\n      jump\t// out\n        /* \"#utility.yul\":1884:2358   */\n    tag_14:\n        /* \"#utility.yul\":1952:1958   */\n      0x00\n        /* \"#utility.yul\":1960:1966   */\n      dup1\n        /* \"#utility.yul\":2009:2011   */\n      0x40\n        /* \"#utility.yul\":1997:2006   */\n      dup4\n        /* \"#utility.yul\":1988:1995   */\n      dup6\n        /* \"#utility.yul\":1984:2007   */\n      sub\n        /* \"#utility.yul\":1980:2012   */\n      slt\n        /* \"#utility.yul\":1977:2096   */\n      iszero\n      tag_77\n      jumpi\n        /* \"#utility.yul\":2015:2094   */\n      tag_78\n      tag_35\n      jump\t// in\n    tag_78:\n        /* \"#utility.yul\":1977:2096   */\n    tag_77:\n        /* \"#utility.yul\":2135:2136   */\n      0x00\n        /* \"#utility.yul\":2160:2213   */\n      tag_79\n        /* \"#utility.yul\":2205:2212   */\n      dup6\n        /* \"#utility.yul\":2196:2202   */\n      dup3\n        /* \"#utility.yul\":2185:2194   */\n      dup7\n        /* \"#utility.yul\":2181:2203   */\n      add\n        /* \"#utility.yul\":2160:2213   */\n      tag_40\n      jump\t// in\n    tag_79:\n        /* \"#utility.yul\":2150:2213   */\n      swap3\n      pop\n        /* \"#utility.yul\":2106:2223   */\n      pop\n        /* \"#utility.yul\":2262:2264   */\n      0x20\n        /* \"#utility.yul\":2288:2341   */\n      tag_80\n        /* \"#utility.yul\":2333:2340   */\n      dup6\n        /* \"#utility.yul\":2324:2330   */\n      dup3\n        /* \"#utility.yul\":2313:2322   */\n      dup7\n        /* \"#utility.yul\":2309:2331   */\n      add\n        /* \"#utility.yul\":2288:2341   */\n      tag_44\n      jump\t// in\n    tag_80:\n        /* \"#utility.yul\":2278:2341   */\n      swap2\n      pop\n        /* \"#utility.yul\":2233:2351   */\n      pop\n        /* \"#utility.yul\":1884:2358   */\n      swap3\n      pop\n      swap3\n      swap1\n      pop\n      jump\t// out\n        /* \"#utility.yul\":2364:2533   */\n    tag_45:\n        /* \"#utility.yul\":2448:2459   */\n      0x00\n        /* \"#utility.yul\":2482:2488   */\n      dup3\n        /* \"#utility.yul\":2477:2480   */\n      dup3\n        /* \"#utility.yul\":2470:2489   */\n      mstore\n        /* \"#utility.yul\":2522:2526   */\n      0x20\n        /* \"#utility.yul\":2517:2520   */\n      dup3\n        /* \"#utility.yul\":2513:2527   */\n      add\n        /* \"#utility.yul\":2498:2527   */\n      swap1\n      pop\n        /* \"#utility.yul\":2364:2533   */\n      swap3\n      swap2\n      pop\n      pop\n      jump\t// out\n        /* \"#utility.yul\":2539:2710   */\n    tag_46:\n        /* \"#utility.yul\":2679:2702   */\n      0x596f75277265206e6f7420746865206f776e6572210000000000000000000000\n        /* \"#utility.yul\":2675:2676   */\n      0x00\n        /* \"#utility.yul\":2667:2673   */\n      dup3\n        /* \"#utility.yul\":2663:2677   */\n      add\n        /* \"#utility.yul\":2656:2703   */\n      mstore\n        /* \"#utility.yul\":2539:2710   */\n      pop\n      jump\t// out\n        /* \"#utility.yul\":2716:3082   */\n    tag_47:\n        /* \"#utility.yul\":2858:2861   */\n      0x00\n        /* \"#utility.yul\":2879:2946   */\n      tag_84\n        /* \"#utility.yul\":2943:2945   */\n      0x15\n        /* \"#utility.yul\":2938:2941   */\n      dup4\n        /* \"#utility.yul\":2879:2946   */\n      tag_45\n      jump\t// in\n    tag_84:\n        /* \"#utility.yul\":2872:2946   */\n      swap2\n      pop\n        /* \"#utility.yul\":2955:3048   */\n      tag_85\n        /* \"#utility.yul\":3044:3047   */\n      dup3\n        /* \"#utility.yul\":2955:3048   */\n      tag_46\n      jump\t// in\n    tag_85:\n        /* \"#utility.yul\":3073:3075   */\n      0x20\n        /* \"#utility.yul\":3068:3071   */\n      dup3\n        /* \"#utility.yul\":3064:3076   */\n      add\n        /* \"#utility.yul\":3057:3076   */\n      swap1\n      pop\n        /* \"#utility.yul\":2716:3082   */\n      swap2\n      swap1\n      pop\n      jump\t// out\n        /* \"#utility.yul\":3088:3507   */\n    tag_22:\n        /* \"#utility.yul\":3254:3258   */\n      0x00\n        /* \"#utility.yul\":3292:3294   */\n      0x20\n        /* \"#utility.yul\":3281:3290   */\n      dup3\n        /* \"#utility.yul\":3277:3295   */\n      add\n        /* \"#utility.yul\":3269:3295   */\n      swap1\n      pop\n        /* \"#utility.yul\":3341:3350   */\n      dup2\n        /* \"#utility.yul\":3335:3339   */\n      dup2\n        /* \"#utility.yul\":3331:3351   */\n      sub\n        /* \"#utility.yul\":3327:3328   */\n      0x00\n        /* \"#utility.yul\":3316:3325   */\n      dup4\n        /* \"#utility.yul\":3312:3329   */\n      add\n        /* \"#utility.yul\":3305:3352   */\n      mstore\n        /* \"#utility.yul\":3369:3500   */\n      tag_87\n        /* \"#utility.yul\":3495:3499   */\n      dup2\n        /* \"#utility.yul\":3369:3500   */\n      tag_47\n      jump\t// in\n    tag_87:\n        /* \"#utility.yul\":3361:3500   */\n      swap1\n      pop\n        /* \"#utility.yul\":3088:3507   */\n      swap2\n      swap1\n      pop\n      jump\t// out\n        /* \"#utility.yul\":3513:3693   */\n    tag_48:\n        /* \"#utility.yul\":3561:3638   */\n      0x4e487b7100000000000000000000000000000000000000000000000000000000\n        /* \"#utility.yul\":3558:3559   */\n      0x00\n        /* \"#utility.yul\":3551:3639   */\n      mstore\n        /* \"#utility.yul\":3658:3662   */\n      0x11\n        /* \"#utility.yul\":3655:3656   */\n      0x04\n        /* \"#utility.yul\":3648:3663   */\n      mstore\n        /* \"#utility.yul\":3682:3686   */\n      0x24\n        /* \"#utility.yul\":3679:3680   */\n      0x00\n        /* \"#utility.yul\":3672:3687   */\n      revert\n        /* \"#utility.yul\":3699:4004   */\n    tag_24:\n        /* \"#utility.yul\":3739:3742   */\n      0x00\n        /* \"#utility.yul\":3758:3778   */\n      tag_90\n        /* \"#utility.yul\":3776:3777   */\n      dup3\n        /* \"#utility.yul\":3758:3778   */\n      tag_41\n      jump\t// in\n    tag_90:\n        /* \"#utility.yul\":3753:3778   */\n      swap2\n      pop\n        /* \"#utility.yul\":3792:3812   */\n      tag_91\n        /* \"#utility.yul\":3810:3811   */\n      dup4\n        /* \"#utility.yul\":3792:3812   */\n      tag_41\n      jump\t// in\n    tag_91:\n        /* \"#utility.yul\":3787:3812   */\n      swap3\n      pop\n        /* \"#utility.yul\":3946:3947   */\n      dup3\n        /* \"#utility.yul\":3878:3944   */\n      0xffffffffffffffffffffffffffffffffffffffffffffffffffffffffffffffff\n        /* \"#utility.yul\":3874:3948   */\n      sub\n        /* \"#utility.yul\":3871:3872   */\n      dup3\n        /* \"#utility.yul\":3868:3949   */\n      gt\n        /* \"#utility.yul\":3865:3972   */\n      iszero\n      tag_92\n      jumpi\n        /* \"#utility.yul\":3952:3970   */\n      tag_93\n      tag_48\n      jump\t// in\n    tag_93:\n        /* \"#utility.yul\":3865:3972   */\n    tag_92:\n        /* \"#utility.yul\":3996:3997   */\n      dup3\n        /* \"#utility.yul\":3993:3994   */\n      dup3\n        /* \"#utility.yul\":3989:3998   */\n      add\n        /* \"#utility.yul\":3982:3998   */\n      swap1\n      pop\n        /* \"#utility.yul\":3699:4004   */\n      swap3\n      swap2\n      pop\n      pop\n      jump\t// out\n        /* \"#utility.yul\":4010:4342   */\n    tag_28:\n        /* \"#utility.yul\":4131:4135   */\n      0x00\n        /* \"#utility.yul\":4169:4171   */\n      0x40\n        /* \"#utility.yul\":4158:4167   */\n      dup3\n        /* \"#utility.yul\":4154:4172   */\n      add\n        /* \"#utility.yul\":4146:4172   */\n      swap1\n      pop\n        /* \"#utility.yul\":4182:4253   */\n      tag_95\n        /* \"#utility.yul\":4250:4251   */\n      0x00\n        /* \"#utility.yul\":4239:4248   */\n      dup4\n        /* \"#utility.yul\":4235:4252   */\n      add\n        /* \"#utility.yul\":4226:4232   */\n      dup6\n        /* \"#utility.yul\":4182:4253   */\n      tag_42\n      jump\t// in\n    tag_95:\n        /* \"#utility.yul\":4263:4335   */\n      tag_96\n        /* \"#utility.yul\":4331:4333   */\n      0x20\n        /* \"#utility.yul\":4320:4329   */\n      dup4\n        /* \"#utility.yul\":4316:4334   */\n      add\n        /* \"#utility.yul\":4307:4313   */\n      dup5\n        /* \"#utility.yul\":4263:4335   */\n      tag_42\n      jump\t// in\n    tag_96:\n        /* \"#utility.yul\":4010:4342   */\n      swap4\n      swap3\n      pop\n      pop\n      pop\n      jump\t// out\n        /* \"#utility.yul\":4348:4539   */\n    tag_30:\n        /* \"#utility.yul\":4388:4392   */\n      0x00\n        /* \"#utility.yul\":4408:4428   */\n      tag_98\n        /* \"#utility.yul\":4426:4427   */\n      dup3\n        /* \"#utility.yul\":4408:4428   */\n      tag_41\n      jump\t// in\n    tag_98:\n        /* \"#utility.yul\":4403:4428   */\n      swap2\n      pop\n        /* \"#utility.yul\":4442:4462   */\n      tag_99\n        /* \"#utility.yul\":4460:4461   */\n      dup4\n        /* \"#utility.yul\":4442:4462   */\n      tag_41\n      jump\t// in\n    tag_99:\n        /* \"#utility.yul\":4437:4462   */\n      swap3\n      pop\n        /* \"#utility.yul\":4481:4482   */\n      dup3\n        /* \"#utility.yul\":4478:4479   */\n      dup3\n        /* \"#utility.yul\":4475:4483   */\n      lt\n        /* \"#utility.yul\":4472:4506   */\n      iszero\n      tag_100\n      jumpi\n        /* \"#utility.yul\":4486:4504   */\n      tag_101\n      tag_48\n      jump\t// in\n    tag_101:\n        /* \"#utility.yul\":4472:4506   */\n    tag_100:\n        /* \"#utility.yul\":4531:4532   */\n      dup3\n        /* \"#utility.yul\":4528:4529   */\n      dup3\n        /* \"#utility.yul\":4524:4533   */\n      sub\n        /* \"#utility.yul\":4516:4533   */\n      swap1\n      pop\n        /* \"#utility.yul\":4348:4539   */\n      swap3\n      swap2\n      pop\n      pop\n      jump\t// out\n        /* \"#utility.yul\":4545:4663   */\n    tag_49:\n        /* \"#utility.yul\":4632:4656   */\n      tag_103\n        /* \"#utility.yul\":4650:4655   */\n      dup2\n        /* \"#utility.yul\":4632:4656   */\n      tag_38\n      jump\t// in\n    tag_103:\n        /* \"#utility.yul\":4627:4630   */\n      dup3\n        /* \"#utility.yul\":4620:4657   */\n      mstore\n        /* \"#utility.yul\":4545:4663   */\n      pop\n      pop\n      jump\t// out\n        /* \"#utility.yul\":4669:5111   */\n    tag_33:\n        /* \"#utility.yul\":4818:4822   */\n      0x00\n        /* \"#utility.yul\":4856:4858   */\n      0x60\n        /* \"#utility.yul\":4845:4854   */\n      dup3\n        /* \"#utility.yul\":4841:4859   */\n      add\n        /* \"#utility.yul\":4833:4859   */\n      swap1\n      pop\n        /* \"#utility.yul\":4869:4940   */\n      tag_105\n        /* \"#utility.yul\":4937:4938   */\n      0x00\n        /* \"#utility.yul\":4926:4935   */\n      dup4\n        /* \"#utility.yul\":4922:4939   */\n      add\n        /* \"#utility.yul\":4913:4919   */\n      dup7\n        /* \"#utility.yul\":4869:4940   */\n      tag_49\n      jump\t// in\n    tag_105:\n        /* \"#utility.yul\":4950:5022   */\n      tag_106\n        /* \"#utility.yul\":5018:5020   */\n      0x20\n        /* \"#utility.yul\":5007:5016   */\n      dup4\n        /* \"#utility.yul\":5003:5021   */\n      add\n        /* \"#utility.yul\":4994:5000   */\n      dup6\n        /* \"#utility.yul\":4950:5022   */\n      tag_49\n      jump\t// in\n    tag_106:\n        /* \"#utility.yul\":5032:5104   */\n      tag_107\n        /* \"#utility.yul\":5100:5102   */\n      0x40\n        /* \"#utility.yul\":5089:5098   */\n      dup4\n        /* \"#utility.yul\":5085:5103   */\n      add\n        /* \"#utility.yul\":5076:5082   */\n      dup5\n        /* \"#utility.yul\":5032:5104   */\n      tag_42\n      jump\t// in\n    tag_107:\n        /* \"#utility.yul\":4669:5111   */\n      swap5\n      swap4\n      pop\n      pop\n      pop\n      pop\n      jump\t// out\n\n    auxdata: 0xa264697066735822122063400dbf0657953ce093b712782effd2f76a439ea9ac0017def9380bc6f61eaa64736f6c634300080d0033\n}\n",
				"bytecode": {
					"linkReferences": {},
					"object": "608060405234801561001057600080fd5b50336000806101000a81548173ffffffffffffffffffffffffffffffffffffffff021916908373ffffffffffffffffffffffffffffffffffffffff160217905550610669806100606000396000f3fe608060405234801561001057600080fd5b50600436106100415760003560e01c806327e235e31461004657806340c10f1914610076578063d0679d3414610092575b600080fd5b610060600480360381019061005b91906103c1565b6100ae565b60405161006d9190610407565b60405180910390f35b610090600480360381019061008b919061044e565b6100c6565b005b6100ac60048036038101906100a7919061044e565b6101ae565b005b60016020528060005260406000206000915090505481565b60008054906101000a900473ffffffffffffffffffffffffffffffffffffffff1673ffffffffffffffffffffffffffffffffffffffff163373ffffffffffffffffffffffffffffffffffffffff1614610154576040517f08c379a000000000000000000000000000000000000000000000000000000000815260040161014b906104eb565b60405180910390fd5b80600160008473ffffffffffffffffffffffffffffffffffffffff1673ffffffffffffffffffffffffffffffffffffffff16815260200190815260200160002060008282546101a3919061053a565b925050819055505050565b600160003373ffffffffffffffffffffffffffffffffffffffff1673ffffffffffffffffffffffffffffffffffffffff168152602001908152602001600020548111156102735780600160003373ffffffffffffffffffffffffffffffffffffffff1673ffffffffffffffffffffffffffffffffffffffff168152602001908152602001600020546040517fcf47918100000000000000000000000000000000000000000000000000000000815260040161026a929190610590565b60405180910390fd5b80600160003373ffffffffffffffffffffffffffffffffffffffff1673ffffffffffffffffffffffffffffffffffffffff16815260200190815260200160002060008282546102c291906105b9565b9250508190555080600160008473ffffffffffffffffffffffffffffffffffffffff1673ffffffffffffffffffffffffffffffffffffffff1681526020019081526020016000206000828254610318919061053a565b925050819055507f3990db2d31862302a685e8086b5755072a6e2b5b780af1ee81ece35ee3cd3345338383604051610352939291906105fc565b60405180910390a15050565b600080fd5b600073ffffffffffffffffffffffffffffffffffffffff82169050919050565b600061038e82610363565b9050919050565b61039e81610383565b81146103a957600080fd5b50565b6000813590506103bb81610395565b92915050565b6000602082840312156103d7576103d661035e565b5b60006103e5848285016103ac565b91505092915050565b6000819050919050565b610401816103ee565b82525050565b600060208201905061041c60008301846103f8565b92915050565b61042b816103ee565b811461043657600080fd5b50565b60008135905061044881610422565b92915050565b600080604083850312156104655761046461035e565b5b6000610473858286016103ac565b925050602061048485828601610439565b9150509250929050565b600082825260208201905092915050565b7f596f75277265206e6f7420746865206f776e6572210000000000000000000000600082015250565b60006104d560158361048e565b91506104e08261049f565b602082019050919050565b60006020820190508181036000830152610504816104c8565b9050919050565b7f4e487b7100000000000000000000000000000000000000000000000000000000600052601160045260246000fd5b6000610545826103ee565b9150610550836103ee565b9250827fffffffffffffffffffffffffffffffffffffffffffffffffffffffffffffffff038211156105855761058461050b565b5b828201905092915050565b60006040820190506105a560008301856103f8565b6105b260208301846103f8565b9392505050565b60006105c4826103ee565b91506105cf836103ee565b9250828210156105e2576105e161050b565b5b828203905092915050565b6105f681610383565b82525050565b600060608201905061061160008301866105ed565b61061e60208301856105ed565b61062b60408301846103f8565b94935050505056fea264697066735822122063400dbf0657953ce093b712782effd2f76a439ea9ac0017def9380bc6f61eaa64736f6c634300080d0033",
					"opcodes": "PUSH1 0x80 PUSH1 0x40 MSTORE CALLVALUE DUP1 ISZERO PUSH2 0x10 JUMPI PUSH1 0x0 DUP1 REVERT JUMPDEST POP CALLER PUSH1 0x0 DUP1 PUSH2 0x100 EXP DUP2 SLOAD DUP2 PUSH20 0xFFFFFFFFFFFFFFFFFFFFFFFFFFFFFFFFFFFFFFFF MUL NOT AND SWAP1 DUP4 PUSH20 0xFFFFFFFFFFFFFFFFFFFFFFFFFFFFFFFFFFFFFFFF AND MUL OR SWAP1 SSTORE POP PUSH2 0x669 DUP1 PUSH2 0x60 PUSH1 0x0 CODECOPY PUSH1 0x0 RETURN INVALID PUSH1 0x80 PUSH1 0x40 MSTORE CALLVALUE DUP1 ISZERO PUSH2 0x10 JUMPI PUSH1 0x0 DUP1 REVERT JUMPDEST POP PUSH1 0x4 CALLDATASIZE LT PUSH2 0x41 JUMPI PUSH1 0x0 CALLDATALOAD PUSH1 0xE0 SHR DUP1 PUSH4 0x27E235E3 EQ PUSH2 0x46 JUMPI DUP1 PUSH4 0x40C10F19 EQ PUSH2 0x76 JUMPI DUP1 PUSH4 0xD0679D34 EQ PUSH2 0x92 JUMPI JUMPDEST PUSH1 0x0 DUP1 REVERT JUMPDEST PUSH2 0x60 PUSH1 0x4 DUP1 CALLDATASIZE SUB DUP2 ADD SWAP1 PUSH2 0x5B SWAP2 SWAP1 PUSH2 0x3C1 JUMP JUMPDEST PUSH2 0xAE JUMP JUMPDEST PUSH1 0x40 MLOAD PUSH2 0x6D SWAP2 SWAP1 PUSH2 0x407 JUMP JUMPDEST PUSH1 0x40 MLOAD DUP1 SWAP2 SUB SWAP1 RETURN JUMPDEST PUSH2 0x90 PUSH1 0x4 DUP1 CALLDATASIZE SUB DUP2 ADD SWAP1 PUSH2 0x8B SWAP2 SWAP1 PUSH2 0x44E JUMP JUMPDEST PUSH2 0xC6 JUMP JUMPDEST STOP JUMPDEST PUSH2 0xAC PUSH1 0x4 DUP1 CALLDATASIZE SUB DUP2 ADD SWAP1 PUSH2 0xA7 SWAP2 SWAP1 PUSH2 0x44E JUMP JUMPDEST PUSH2 0x1AE JUMP JUMPDEST STOP JUMPDEST PUSH1 0x1 PUSH1 0x20 MSTORE DUP1 PUSH1 0x0 MSTORE PUSH1 0x40 PUSH1 0x0 KECCAK256 PUSH1 0x0 SWAP2 POP SWAP1 POP SLOAD DUP2 JUMP JUMPDEST PUSH1 0x0 DUP1 SLOAD SWAP1 PUSH2 0x100 EXP SWAP1 DIV PUSH20 0xFFFFFFFFFFFFFFFFFFFFFFFFFFFFFFFFFFFFFFFF AND PUSH20 0xFFFFFFFFFFFFFFFFFFFFFFFFFFFFFFFFFFFFFFFF AND CALLER PUSH20 0xFFFFFFFFFFFFFFFFFFFFFFFFFFFFFFFFFFFFFFFF AND EQ PUSH2 0x154 JUMPI PUSH1 0x40 MLOAD PUSH32 0x8C379A000000000000000000000000000000000000000000000000000000000 DUP2 MSTORE PUSH1 0x4 ADD PUSH2 0x14B SWAP1 PUSH2 0x4EB JUMP JUMPDEST PUSH1 0x40 MLOAD DUP1 SWAP2 SUB SWAP1 REVERT JUMPDEST DUP1 PUSH1 0x1 PUSH1 0x0 DUP5 PUSH20 0xFFFFFFFFFFFFFFFFFFFFFFFFFFFFFFFFFFFFFFFF AND PUSH20 0xFFFFFFFFFFFFFFFFFFFFFFFFFFFFFFFFFFFFFFFF AND DUP2 MSTORE PUSH1 0x20 ADD SWAP1 DUP2 MSTORE PUSH1 0x20 ADD PUSH1 0x0 KECCAK256 PUSH1 0x0 DUP3 DUP3 SLOAD PUSH2 0x1A3 SWAP2 SWAP1 PUSH2 0x53A JUMP JUMPDEST SWAP3 POP POP DUP2 SWAP1 SSTORE POP POP POP JUMP JUMPDEST PUSH1 0x1 PUSH1 0x0 CALLER PUSH20 0xFFFFFFFFFFFFFFFFFFFFFFFFFFFFFFFFFFFFFFFF AND PUSH20 0xFFFFFFFFFFFFFFFFFFFFFFFFFFFFFFFFFFFFFFFF AND DUP2 MSTORE PUSH1 0x20 ADD SWAP1 DUP2 MSTORE PUSH1 0x20 ADD PUSH1 0x0 KECCAK256 SLOAD DUP2 GT ISZERO PUSH2 0x273 JUMPI DUP1 PUSH1 0x1 PUSH1 0x0 CALLER PUSH20 0xFFFFFFFFFFFFFFFFFFFFFFFFFFFFFFFFFFFFFFFF AND PUSH20 0xFFFFFFFFFFFFFFFFFFFFFFFFFFFFFFFFFFFFFFFF AND DUP2 MSTORE PUSH1 0x20 ADD SWAP1 DUP2 MSTORE PUSH1 0x20 ADD PUSH1 0x0 KECCAK256 SLOAD PUSH1 0x40 MLOAD PUSH32 0xCF47918100000000000000000000000000000000000000000000000000000000 DUP2 MSTORE PUSH1 0x4 ADD PUSH2 0x26A SWAP3 SWAP2 SWAP1 PUSH2 0x590 JUMP JUMPDEST PUSH1 0x40 MLOAD DUP1 SWAP2 SUB SWAP1 REVERT JUMPDEST DUP1 PUSH1 0x1 PUSH1 0x0 CALLER PUSH20 0xFFFFFFFFFFFFFFFFFFFFFFFFFFFFFFFFFFFFFFFF AND PUSH20 0xFFFFFFFFFFFFFFFFFFFFFFFFFFFFFFFFFFFFFFFF AND DUP2 MSTORE PUSH1 0x20 ADD SWAP1 DUP2 MSTORE PUSH1 0x20 ADD PUSH1 0x0 KECCAK256 PUSH1 0x0 DUP3 DUP3 SLOAD PUSH2 0x2C2 SWAP2 SWAP1 PUSH2 0x5B9 JUMP JUMPDEST SWAP3 POP POP DUP2 SWAP1 SSTORE POP DUP1 PUSH1 0x1 PUSH1 0x0 DUP5 PUSH20 0xFFFFFFFFFFFFFFFFFFFFFFFFFFFFFFFFFFFFFFFF AND PUSH20 0xFFFFFFFFFFFFFFFFFFFFFFFFFFFFFFFFFFFFFFFF AND DUP2 MSTORE PUSH1 0x20 ADD SWAP1 DUP2 MSTORE PUSH1 0x20 ADD PUSH1 0x0 KECCAK256 PUSH1 0x0 DUP3 DUP3 SLOAD PUSH2 0x318 SWAP2 SWAP1 PUSH2 0x53A JUMP JUMPDEST SWAP3 POP POP DUP2 SWAP1 SSTORE POP PUSH32 0x3990DB2D31862302A685E8086B5755072A6E2B5B780AF1EE81ECE35EE3CD3345 CALLER DUP4 DUP4 PUSH1 0x40 MLOAD PUSH2 0x352 SWAP4 SWAP3 SWAP2 SWAP1 PUSH2 0x5FC JUMP JUMPDEST PUSH1 0x40 MLOAD DUP1 SWAP2 SUB SWAP1 LOG1 POP POP JUMP JUMPDEST PUSH1 0x0 DUP1 REVERT JUMPDEST PUSH1 0x0 PUSH20 0xFFFFFFFFFFFFFFFFFFFFFFFFFFFFFFFFFFFFFFFF DUP3 AND SWAP1 POP SWAP2 SWAP1 POP JUMP JUMPDEST PUSH1 0x0 PUSH2 0x38E DUP3 PUSH2 0x363 JUMP JUMPDEST SWAP1 POP SWAP2 SWAP1 POP JUMP JUMPDEST PUSH2 0x39E DUP2 PUSH2 0x383 JUMP JUMPDEST DUP2 EQ PUSH2 0x3A9 JUMPI PUSH1 0x0 DUP1 REVERT JUMPDEST POP JUMP JUMPDEST PUSH1 0x0 DUP2 CALLDATALOAD SWAP1 POP PUSH2 0x3BB DUP2 PUSH2 0x395 JUMP JUMPDEST SWAP3 SWAP2 POP POP JUMP JUMPDEST PUSH1 0x0 PUSH1 0x20 DUP3 DUP5 SUB SLT ISZERO PUSH2 0x3D7 JUMPI PUSH2 0x3D6 PUSH2 0x35E JUMP JUMPDEST JUMPDEST PUSH1 0x0 PUSH2 0x3E5 DUP5 DUP3 DUP6 ADD PUSH2 0x3AC JUMP JUMPDEST SWAP2 POP POP SWAP3 SWAP2 POP POP JUMP JUMPDEST PUSH1 0x0 DUP2 SWAP1 POP SWAP2 SWAP1 POP JUMP JUMPDEST PUSH2 0x401 DUP2 PUSH2 0x3EE JUMP JUMPDEST DUP3 MSTORE POP POP JUMP JUMPDEST PUSH1 0x0 PUSH1 0x20 DUP3 ADD SWAP1 POP PUSH2 0x41C PUSH1 0x0 DUP4 ADD DUP5 PUSH2 0x3F8 JUMP JUMPDEST SWAP3 SWAP2 POP POP JUMP JUMPDEST PUSH2 0x42B DUP2 PUSH2 0x3EE JUMP JUMPDEST DUP2 EQ PUSH2 0x436 JUMPI PUSH1 0x0 DUP1 REVERT JUMPDEST POP JUMP JUMPDEST PUSH1 0x0 DUP2 CALLDATALOAD SWAP1 POP PUSH2 0x448 DUP2 PUSH2 0x422 JUMP JUMPDEST SWAP3 SWAP2 POP POP JUMP JUMPDEST PUSH1 0x0 DUP1 PUSH1 0x40 DUP4 DUP6 SUB SLT ISZERO PUSH2 0x465 JUMPI PUSH2 0x464 PUSH2 0x35E JUMP JUMPDEST JUMPDEST PUSH1 0x0 PUSH2 0x473 DUP6 DUP3 DUP7 ADD PUSH2 0x3AC JUMP JUMPDEST SWAP3 POP POP PUSH1 0x20 PUSH2 0x484 DUP6 DUP3 DUP7 ADD PUSH2 0x439 JUMP JUMPDEST SWAP2 POP POP SWAP3 POP SWAP3 SWAP1 POP JUMP JUMPDEST PUSH1 0x0 DUP3 DUP3 MSTORE PUSH1 0x20 DUP3 ADD SWAP1 POP SWAP3 SWAP2 POP POP JUMP JUMPDEST PUSH32 0x596F75277265206E6F7420746865206F776E6572210000000000000000000000 PUSH1 0x0 DUP3 ADD MSTORE POP JUMP JUMPDEST PUSH1 0x0 PUSH2 0x4D5 PUSH1 0x15 DUP4 PUSH2 0x48E JUMP JUMPDEST SWAP2 POP PUSH2 0x4E0 DUP3 PUSH2 0x49F JUMP JUMPDEST PUSH1 0x20 DUP3 ADD SWAP1 POP SWAP2 SWAP1 POP JUMP JUMPDEST PUSH1 0x0 PUSH1 0x20 DUP3 ADD SWAP1 POP DUP2 DUP2 SUB PUSH1 0x0 DUP4 ADD MSTORE PUSH2 0x504 DUP2 PUSH2 0x4C8 JUMP JUMPDEST SWAP1 POP SWAP2 SWAP1 POP JUMP JUMPDEST PUSH32 0x4E487B7100000000000000000000000000000000000000000000000000000000 PUSH1 0x0 MSTORE PUSH1 0x11 PUSH1 0x4 MSTORE PUSH1 0x24 PUSH1 0x0 REVERT JUMPDEST PUSH1 0x0 PUSH2 0x545 DUP3 PUSH2 0x3EE JUMP JUMPDEST SWAP2 POP PUSH2 0x550 DUP4 PUSH2 0x3EE JUMP JUMPDEST SWAP3 POP DUP3 PUSH32 0xFFFFFFFFFFFFFFFFFFFFFFFFFFFFFFFFFFFFFFFFFFFFFFFFFFFFFFFFFFFFFFFF SUB DUP3 GT ISZERO PUSH2 0x585 JUMPI PUSH2 0x584 PUSH2 0x50B JUMP JUMPDEST JUMPDEST DUP3 DUP3 ADD SWAP1 POP SWAP3 SWAP2 POP POP JUMP JUMPDEST PUSH1 0x0 PUSH1 0x40 DUP3 ADD SWAP1 POP PUSH2 0x5A5 PUSH1 0x0 DUP4 ADD DUP6 PUSH2 0x3F8 JUMP JUMPDEST PUSH2 0x5B2 PUSH1 0x20 DUP4 ADD DUP5 PUSH2 0x3F8 JUMP JUMPDEST SWAP4 SWAP3 POP POP POP JUMP JUMPDEST PUSH1 0x0 PUSH2 0x5C4 DUP3 PUSH2 0x3EE JUMP JUMPDEST SWAP2 POP PUSH2 0x5CF DUP4 PUSH2 0x3EE JUMP JUMPDEST SWAP3 POP DUP3 DUP3 LT ISZERO PUSH2 0x5E2 JUMPI PUSH2 0x5E1 PUSH2 0x50B JUMP JUMPDEST JUMPDEST DUP3 DUP3 SUB SWAP1 POP SWAP3 SWAP2 POP POP JUMP JUMPDEST PUSH2 0x5F6 DUP2 PUSH2 0x383 JUMP JUMPDEST DUP3 MSTORE POP POP JUMP JUMPDEST PUSH1 0x0 PUSH1 0x60 DUP3 ADD SWAP1 POP PUSH2 0x611 PUSH1 0x0 DUP4 ADD DUP7 PUSH2 0x5ED JUMP JUMPDEST PUSH2 0x61E PUSH1 0x20 DUP4 ADD DUP6 PUSH2 0x5ED JUMP JUMPDEST PUSH2 0x62B PUSH1 0x40 DUP4 ADD DUP5 PUSH2 0x3F8 JUMP JUMPDEST SWAP5 SWAP4 POP POP POP POP JUMP INVALID LOG2 PUSH5 0x6970667358 0x22 SLT KECCAK256 PUSH4 0x400DBF06 JUMPI SWAP6 EXTCODECOPY 0xE0 SWAP4 0xB7 SLT PUSH25 0x2EFFD2F76A439EA9AC0017DEF9380BC6F61EAA64736F6C6343 STOP ADDMOD 0xD STOP CALLER "
				},
				"gasEstimates": {
					"creation": {
						"codeDepositCost": "328200",
						"executionCost": "24634",
						"totalCost": "352834"
					},
					"external": {
						"balances(address)": "2792",
						"mint(address,uint256)": "infinite",
						"send(address,uint256)": "infinite"
					}
				},
				"methodIdentifiers": {
					"balances(address)": "27e235e3",
					"mint(address,uint256)": "40c10f19",
					"send(address,uint256)": "d0679d34"
				}
			},
			"storageLayout": {
				"storage": [
					{
						"astId": 3,
						"contract": "FirstSteps_officialDocs/cereate_own_token.sol:coin",
						"label": "owner",
						"offset": 0,
						"slot": "0",
						"type": "t_address"
					},
					{
						"astId": 16,
						"contract": "FirstSteps_officialDocs/cereate_own_token.sol:coin",
						"label": "balances",
						"offset": 0,
						"slot": "1",
						"type": "t_mapping(t_address,t_uint256)"
					}
				],
				"types": {
					"t_address": {
						"encoding": "inplace",
						"label": "address",
						"numberOfBytes": "20"
					},
					"t_mapping(t_address,t_uint256)": {
						"encoding": "mapping",
						"key": "t_address",
						"label": "mapping(address => uint256)",
						"numberOfBytes": "32",
						"value": "t_uint256"
					},
					"t_uint256": {
						"encoding": "inplace",
						"label": "uint256",
						"numberOfBytes": "32"
					}
				}
			},
			"userdoc": {
				"kind": "user",
				"methods": {},
				"version": 1
			}
		}
	}
}