{
	"bootcamp/week3/day_4_multiSigWallet.sol": {
		"multiSigLesson": {
			"abi": [
				{
					"inputs": [],
					"stateMutability": "nonpayable",
					"type": "constructor"
				},
				{
					"inputs": [
						{
							"internalType": "address",
							"name": "_address",
							"type": "address"
						}
					],
					"name": "addAddressToOwners",
					"outputs": [],
					"stateMutability": "nonpayable",
					"type": "function"
				},
				{
					"inputs": [
						{
							"internalType": "uint256",
							"name": "",
							"type": "uint256"
						},
						{
							"internalType": "address",
							"name": "",
							"type": "address"
						}
					],
					"name": "alreadyVoted",
					"outputs": [
						{
							"internalType": "bool",
							"name": "",
							"type": "bool"
						}
					],
					"stateMutability": "view",
					"type": "function"
				},
				{
					"inputs": [],
					"name": "approvalsNeeded",
					"outputs": [
						{
							"internalType": "uint256",
							"name": "",
							"type": "uint256"
						}
					],
					"stateMutability": "view",
					"type": "function"
				},
				{
					"inputs": [
						{
							"internalType": "uint256",
							"name": "index",
							"type": "uint256"
						}
					],
					"name": "executeTransaction",
					"outputs": [],
					"stateMutability": "nonpayable",
					"type": "function"
				},
				{
					"inputs": [
						{
							"internalType": "uint256",
							"name": "numberOfVotes",
							"type": "uint256"
						}
					],
					"name": "numberOfVotesRequire",
					"outputs": [],
					"stateMutability": "nonpayable",
					"type": "function"
				},
				{
					"inputs": [
						{
							"internalType": "address",
							"name": "",
							"type": "address"
						}
					],
					"name": "ownerList",
					"outputs": [
						{
							"internalType": "bool",
							"name": "",
							"type": "bool"
						}
					],
					"stateMutability": "view",
					"type": "function"
				},
				{
					"inputs": [],
					"name": "ownerListLength",
					"outputs": [
						{
							"internalType": "uint256",
							"name": "",
							"type": "uint256"
						}
					],
					"stateMutability": "view",
					"type": "function"
				},
				{
					"inputs": [
						{
							"internalType": "uint256",
							"name": "",
							"type": "uint256"
						}
					],
					"name": "owners",
					"outputs": [
						{
							"internalType": "address",
							"name": "",
							"type": "address"
						}
					],
					"stateMutability": "view",
					"type": "function"
				},
				{
					"inputs": [
						{
							"internalType": "address",
							"name": "to",
							"type": "address"
						},
						{
							"internalType": "uint256",
							"name": "amount",
							"type": "uint256"
						}
					],
					"name": "proposeTransaction",
					"outputs": [],
					"stateMutability": "nonpayable",
					"type": "function"
				},
				{
					"inputs": [
						{
							"internalType": "uint256",
							"name": "index",
							"type": "uint256"
						}
					],
					"name": "revokeOnTransaction",
					"outputs": [],
					"stateMutability": "nonpayable",
					"type": "function"
				},
				{
					"inputs": [
						{
							"internalType": "uint256",
							"name": "",
							"type": "uint256"
						}
					],
					"name": "transactions",
					"outputs": [
						{
							"internalType": "address",
							"name": "sendingTo",
							"type": "address"
						},
						{
							"internalType": "uint256",
							"name": "value",
							"type": "uint256"
						},
						{
							"internalType": "bool",
							"name": "alreadyExecuted",
							"type": "bool"
						},
						{
							"internalType": "uint256",
							"name": "approvals",
							"type": "uint256"
						}
					],
					"stateMutability": "view",
					"type": "function"
				},
				{
					"inputs": [
						{
							"internalType": "uint256",
							"name": "index",
							"type": "uint256"
						}
					],
					"name": "voteOnTransaction",
					"outputs": [],
					"stateMutability": "nonpayable",
					"type": "function"
				},
				{
					"stateMutability": "payable",
					"type": "receive"
				}
			],
			"devdoc": {
				"kind": "dev",
				"methods": {},
				"version": 1
			},
			"evm": {
				"assembly": "    /* \"bootcamp/week3/day_4_multiSigWallet.sol\":57:3734  contract multiSigLesson {... */\n  mstore(0x40, 0x80)\n    /* \"bootcamp/week3/day_4_multiSigWallet.sol\":219:220  2 */\n  0x02\n    /* \"bootcamp/week3/day_4_multiSigWallet.sol\":189:220  uint public approvalsNeeded = 2 */\n  0x01\n  sstore\n    /* \"bootcamp/week3/day_4_multiSigWallet.sol\":763:991  constructor() {... */\n  callvalue\n  dup1\n  iszero\n  tag_1\n  jumpi\n  0x00\n  dup1\n  revert\ntag_1:\n  pop\n    /* \"bootcamp/week3/day_4_multiSigWallet.sol\":787:793  owners */\n  0x00\n    /* \"bootcamp/week3/day_4_multiSigWallet.sol\":799:809  msg.sender */\n  caller\n    /* \"bootcamp/week3/day_4_multiSigWallet.sol\":787:810  owners.push(msg.sender) */\n  swap1\n  dup1\n  0x01\n  dup2\n  sload\n  add\n  dup1\n  dup3\n  sstore\n  dup1\n  swap2\n  pop\n  pop\n  0x01\n  swap1\n  sub\n  swap1\n  0x00\n  mstore\n  keccak256(0x00, 0x20)\n  add\n  0x00\n  swap1\n  swap2\n  swap1\n  swap2\n  swap1\n  swap2\n  0x0100\n  exp\n  dup2\n  sload\n  dup2\n  0xffffffffffffffffffffffffffffffffffffffff\n  mul\n  not\n  and\n  swap1\n  dup4\n  0xffffffffffffffffffffffffffffffffffffffff\n  and\n  mul\n  or\n  swap1\n  sstore\n  pop\n    /* \"bootcamp/week3/day_4_multiSigWallet.sol\":844:848  true */\n  0x01\n    /* \"bootcamp/week3/day_4_multiSigWallet.sol\":820:829  ownerList */\n  0x02\n    /* \"bootcamp/week3/day_4_multiSigWallet.sol\":820:841  ownerList[msg.sender] */\n  0x00\n    /* \"bootcamp/week3/day_4_multiSigWallet.sol\":830:840  msg.sender */\n  caller\n    /* \"bootcamp/week3/day_4_multiSigWallet.sol\":820:841  ownerList[msg.sender] */\n  0xffffffffffffffffffffffffffffffffffffffff\n  and\n  0xffffffffffffffffffffffffffffffffffffffff\n  and\n  dup2\n  mstore\n  0x20\n  add\n  swap1\n  dup2\n  mstore\n  0x20\n  add\n  0x00\n  keccak256\n  0x00\n    /* \"bootcamp/week3/day_4_multiSigWallet.sol\":820:848  ownerList[msg.sender] = true */\n  0x0100\n  exp\n  dup2\n  sload\n  dup2\n  0xff\n  mul\n  not\n  and\n  swap1\n  dup4\n  iszero\n  iszero\n  mul\n  or\n  swap1\n  sstore\n  pop\n    /* \"bootcamp/week3/day_4_multiSigWallet.sol\":859:865  owners */\n  0x00\n    /* \"bootcamp/week3/day_4_multiSigWallet.sol\":871:913  0xAb8483F64d9C6d1EcF9b849Ae677dD3315835cb2 */\n  0xab8483f64d9c6d1ecf9b849ae677dd3315835cb2\n    /* \"bootcamp/week3/day_4_multiSigWallet.sol\":859:914  owners.push(0xAb8483F64d9C6d1EcF9b849Ae677dD3315835cb2) */\n  swap1\n  dup1\n  0x01\n  dup2\n  sload\n  add\n  dup1\n  dup3\n  sstore\n  dup1\n  swap2\n  pop\n  pop\n  0x01\n  swap1\n  sub\n  swap1\n  0x00\n  mstore\n  keccak256(0x00, 0x20)\n  add\n  0x00\n  swap1\n  swap2\n  swap1\n  swap2\n  swap1\n  swap2\n  0x0100\n  exp\n  dup2\n  sload\n  dup2\n  0xffffffffffffffffffffffffffffffffffffffff\n  mul\n  not\n  and\n  swap1\n  dup4\n  0xffffffffffffffffffffffffffffffffffffffff\n  and\n  mul\n  or\n  swap1\n  sstore\n  pop\n    /* \"bootcamp/week3/day_4_multiSigWallet.sol\":980:984  true */\n  0x01\n    /* \"bootcamp/week3/day_4_multiSigWallet.sol\":924:933  ownerList */\n  0x02\n    /* \"bootcamp/week3/day_4_multiSigWallet.sol\":924:977  ownerList[0xAb8483F64d9C6d1EcF9b849Ae677dD3315835cb2] */\n  0x00\n    /* \"bootcamp/week3/day_4_multiSigWallet.sol\":934:976  0xAb8483F64d9C6d1EcF9b849Ae677dD3315835cb2 */\n  0xab8483f64d9c6d1ecf9b849ae677dd3315835cb2\n    /* \"bootcamp/week3/day_4_multiSigWallet.sol\":924:977  ownerList[0xAb8483F64d9C6d1EcF9b849Ae677dD3315835cb2] */\n  0xffffffffffffffffffffffffffffffffffffffff\n  and\n  0xffffffffffffffffffffffffffffffffffffffff\n  and\n  dup2\n  mstore\n  0x20\n  add\n  swap1\n  dup2\n  mstore\n  0x20\n  add\n  0x00\n  keccak256\n  0x00\n    /* \"bootcamp/week3/day_4_multiSigWallet.sol\":924:984  ownerList[0xAb8483F64d9C6d1EcF9b849Ae677dD3315835cb2] = true */\n  0x0100\n  exp\n  dup2\n  sload\n  dup2\n  0xff\n  mul\n  not\n  and\n  swap1\n  dup4\n  iszero\n  iszero\n  mul\n  or\n  swap1\n  sstore\n  pop\n    /* \"bootcamp/week3/day_4_multiSigWallet.sol\":57:3734  contract multiSigLesson {... */\n  dataSize(sub_0)\n  dup1\n  dataOffset(sub_0)\n  0x00\n  codecopy\n  0x00\n  return\nstop\n\nsub_0: assembly {\n        /* \"bootcamp/week3/day_4_multiSigWallet.sol\":57:3734  contract multiSigLesson {... */\n      mstore(0x40, 0x80)\n      jumpi(tag_1, lt(calldatasize, 0x04))\n      shr(0xe0, calldataload(0x00))\n      dup1\n      0xd579b696\n      gt\n      tag_15\n      jumpi\n      dup1\n      0xd579b696\n      eq\n      tag_9\n      jumpi\n      dup1\n      0xee22610b\n      eq\n      tag_10\n      jumpi\n      dup1\n      0xf19a6682\n      eq\n      tag_11\n      jumpi\n      dup1\n      0xf5358aa8\n      eq\n      tag_12\n      jumpi\n      dup1\n      0xf9a7c0b1\n      eq\n      tag_13\n      jumpi\n      dup1\n      0xfc1983ab\n      eq\n      tag_14\n      jumpi\n      jump(tag_2)\n    tag_15:\n      dup1\n      0x025e7c27\n      eq\n      tag_3\n      jumpi\n      dup1\n      0x3349a734\n      eq\n      tag_4\n      jumpi\n      dup1\n      0x51f22a72\n      eq\n      tag_5\n      jumpi\n      dup1\n      0x60c8b28d\n      eq\n      tag_6\n      jumpi\n      dup1\n      0x9ace38c2\n      eq\n      tag_7\n      jumpi\n      dup1\n      0xd43c98bc\n      eq\n      tag_8\n      jumpi\n      jump(tag_2)\n    tag_1:\n      jumpi(tag_2, calldatasize)\n      stop\n    tag_2:\n      0x00\n      dup1\n      revert\n        /* \"bootcamp/week3/day_4_multiSigWallet.sol\":110:133  address[] public owners */\n    tag_3:\n      callvalue\n      dup1\n      iszero\n      tag_18\n      jumpi\n      0x00\n      dup1\n      revert\n    tag_18:\n      pop\n      tag_19\n      0x04\n      dup1\n      calldatasize\n      sub\n      dup2\n      add\n      swap1\n      tag_20\n      swap2\n      swap1\n      tag_21\n      jump\t// in\n    tag_20:\n      tag_22\n      jump\t// in\n    tag_19:\n      mload(0x40)\n      tag_23\n      swap2\n      swap1\n      tag_24\n      jump\t// in\n    tag_23:\n      mload(0x40)\n      dup1\n      swap2\n      sub\n      swap1\n      return\n        /* \"bootcamp/week3/day_4_multiSigWallet.sol\":189:220  uint public approvalsNeeded = 2 */\n    tag_4:\n      callvalue\n      dup1\n      iszero\n      tag_25\n      jumpi\n      0x00\n      dup1\n      revert\n    tag_25:\n      pop\n      tag_26\n      tag_27\n      jump\t// in\n    tag_26:\n      mload(0x40)\n      tag_28\n      swap2\n      swap1\n      tag_29\n      jump\t// in\n    tag_28:\n      mload(0x40)\n      dup1\n      swap2\n      sub\n      swap1\n      return\n        /* \"bootcamp/week3/day_4_multiSigWallet.sol\":342:383  mapping(address => bool) public ownerList */\n    tag_5:\n      callvalue\n      dup1\n      iszero\n      tag_30\n      jumpi\n      0x00\n      dup1\n      revert\n    tag_30:\n      pop\n      tag_31\n      0x04\n      dup1\n      calldatasize\n      sub\n      dup2\n      add\n      swap1\n      tag_32\n      swap2\n      swap1\n      tag_33\n      jump\t// in\n    tag_32:\n      tag_34\n      jump\t// in\n    tag_31:\n      mload(0x40)\n      tag_35\n      swap2\n      swap1\n      tag_36\n      jump\t// in\n    tag_35:\n      mload(0x40)\n      dup1\n      swap2\n      sub\n      swap1\n      return\n        /* \"bootcamp/week3/day_4_multiSigWallet.sol\":531:592  mapping(uint => mapping(address => bool)) public alreadyVoted */\n    tag_6:\n      callvalue\n      dup1\n      iszero\n      tag_37\n      jumpi\n      0x00\n      dup1\n      revert\n    tag_37:\n      pop\n      tag_38\n      0x04\n      dup1\n      calldatasize\n      sub\n      dup2\n      add\n      swap1\n      tag_39\n      swap2\n      swap1\n      tag_40\n      jump\t// in\n    tag_39:\n      tag_41\n      jump\t// in\n    tag_38:\n      mload(0x40)\n      tag_42\n      swap2\n      swap1\n      tag_36\n      jump\t// in\n    tag_42:\n      mload(0x40)\n      dup1\n      swap2\n      sub\n      swap1\n      return\n        /* \"bootcamp/week3/day_4_multiSigWallet.sol\":1217:1250  Transaction[] public transactions */\n    tag_7:\n      callvalue\n      dup1\n      iszero\n      tag_43\n      jumpi\n      0x00\n      dup1\n      revert\n    tag_43:\n      pop\n      tag_44\n      0x04\n      dup1\n      calldatasize\n      sub\n      dup2\n      add\n      swap1\n      tag_45\n      swap2\n      swap1\n      tag_21\n      jump\t// in\n    tag_45:\n      tag_46\n      jump\t// in\n    tag_44:\n      mload(0x40)\n      tag_47\n      swap5\n      swap4\n      swap3\n      swap2\n      swap1\n      tag_48\n      jump\t// in\n    tag_47:\n      mload(0x40)\n      dup1\n      swap2\n      sub\n      swap1\n      return\n        /* \"bootcamp/week3/day_4_multiSigWallet.sol\":1294:1431  function addAddressToOwners(address _address) public OnlyOwner {... */\n    tag_8:\n      callvalue\n      dup1\n      iszero\n      tag_49\n      jumpi\n      0x00\n      dup1\n      revert\n    tag_49:\n      pop\n      tag_50\n      0x04\n      dup1\n      calldatasize\n      sub\n      dup2\n      add\n      swap1\n      tag_51\n      swap2\n      swap1\n      tag_33\n      jump\t// in\n    tag_51:\n      tag_52\n      jump\t// in\n    tag_50:\n      stop\n        /* \"bootcamp/week3/day_4_multiSigWallet.sol\":2001:2361  function voteOnTransaction(uint index) public OnlyOwner {... */\n    tag_9:\n      callvalue\n      dup1\n      iszero\n      tag_53\n      jumpi\n      0x00\n      dup1\n      revert\n    tag_53:\n      pop\n      tag_54\n      0x04\n      dup1\n      calldatasize\n      sub\n      dup2\n      add\n      swap1\n      tag_55\n      swap2\n      swap1\n      tag_21\n      jump\t// in\n    tag_55:\n      tag_56\n      jump\t// in\n    tag_54:\n      stop\n        /* \"bootcamp/week3/day_4_multiSigWallet.sol\":2772:3636  function executeTransaction(uint index) public OnlyOwner {... */\n    tag_10:\n      callvalue\n      dup1\n      iszero\n      tag_57\n      jumpi\n      0x00\n      dup1\n      revert\n    tag_57:\n      pop\n      tag_58\n      0x04\n      dup1\n      calldatasize\n      sub\n      dup2\n      add\n      swap1\n      tag_59\n      swap2\n      swap1\n      tag_21\n      jump\t// in\n    tag_59:\n      tag_60\n      jump\t// in\n    tag_58:\n      stop\n        /* \"bootcamp/week3/day_4_multiSigWallet.sol\":1722:1967  function proposeTransaction(address to, uint amount) public OnlyOwner {... */\n    tag_11:\n      callvalue\n      dup1\n      iszero\n      tag_61\n      jumpi\n      0x00\n      dup1\n      revert\n    tag_61:\n      pop\n      tag_62\n      0x04\n      dup1\n      calldatasize\n      sub\n      dup2\n      add\n      swap1\n      tag_63\n      swap2\n      swap1\n      tag_64\n      jump\t// in\n    tag_63:\n      tag_65\n      jump\t// in\n    tag_62:\n      stop\n        /* \"bootcamp/week3/day_4_multiSigWallet.sol\":3642:3732  function ownerListLength() public view returns(uint) {... */\n    tag_12:\n      callvalue\n      dup1\n      iszero\n      tag_66\n      jumpi\n      0x00\n      dup1\n      revert\n    tag_66:\n      pop\n      tag_67\n      tag_68\n      jump\t// in\n    tag_67:\n      mload(0x40)\n      tag_69\n      swap2\n      swap1\n      tag_29\n      jump\t// in\n    tag_69:\n      mload(0x40)\n      dup1\n      swap2\n      sub\n      swap1\n      return\n        /* \"bootcamp/week3/day_4_multiSigWallet.sol\":2437:2678  function revokeOnTransaction(uint index) public OnlyOwner {... */\n    tag_13:\n      callvalue\n      dup1\n      iszero\n      tag_70\n      jumpi\n      0x00\n      dup1\n      revert\n    tag_70:\n      pop\n      tag_71\n      0x04\n      dup1\n      calldatasize\n      sub\n      dup2\n      add\n      swap1\n      tag_72\n      swap2\n      swap1\n      tag_21\n      jump\t// in\n    tag_72:\n      tag_73\n      jump\t// in\n    tag_71:\n      stop\n        /* \"bootcamp/week3/day_4_multiSigWallet.sol\":1495:1610  function numberOfVotesRequire(uint numberOfVotes) public OnlyOwner {... */\n    tag_14:\n      callvalue\n      dup1\n      iszero\n      tag_74\n      jumpi\n      0x00\n      dup1\n      revert\n    tag_74:\n      pop\n      tag_75\n      0x04\n      dup1\n      calldatasize\n      sub\n      dup2\n      add\n      swap1\n      tag_76\n      swap2\n      swap1\n      tag_21\n      jump\t// in\n    tag_76:\n      tag_77\n      jump\t// in\n    tag_75:\n      stop\n        /* \"bootcamp/week3/day_4_multiSigWallet.sol\":110:133  address[] public owners */\n    tag_22:\n      0x00\n      dup2\n      dup2\n      sload\n      dup2\n      lt\n      tag_78\n      jumpi\n      0x00\n      dup1\n      revert\n    tag_78:\n      swap1\n      0x00\n      mstore\n      keccak256(0x00, 0x20)\n      add\n      0x00\n      swap2\n      pop\n      sload\n      swap1\n      0x0100\n      exp\n      swap1\n      div\n      0xffffffffffffffffffffffffffffffffffffffff\n      and\n      dup2\n      jump\t// out\n        /* \"bootcamp/week3/day_4_multiSigWallet.sol\":189:220  uint public approvalsNeeded = 2 */\n    tag_27:\n      sload(0x01)\n      dup2\n      jump\t// out\n        /* \"bootcamp/week3/day_4_multiSigWallet.sol\":342:383  mapping(address => bool) public ownerList */\n    tag_34:\n      mstore(0x20, 0x02)\n      dup1\n      0x00\n      mstore\n      keccak256(0x00, 0x40)\n      0x00\n      swap2\n      pop\n      sload\n      swap1\n      0x0100\n      exp\n      swap1\n      div\n      0xff\n      and\n      dup2\n      jump\t// out\n        /* \"bootcamp/week3/day_4_multiSigWallet.sol\":531:592  mapping(uint => mapping(address => bool)) public alreadyVoted */\n    tag_41:\n      mstore(0x20, 0x03)\n      dup2\n      0x00\n      mstore\n      mstore(0x20, keccak256(0x00, 0x40))\n      dup1\n      0x00\n      mstore\n      keccak256(0x00, 0x40)\n      0x00\n      swap2\n      pop\n      swap2\n      pop\n      swap1\n      sload\n      swap1\n      0x0100\n      exp\n      swap1\n      div\n      0xff\n      and\n      dup2\n      jump\t// out\n        /* \"bootcamp/week3/day_4_multiSigWallet.sol\":1217:1250  Transaction[] public transactions */\n    tag_46:\n      0x04\n      dup2\n      dup2\n      sload\n      dup2\n      lt\n      tag_80\n      jumpi\n      0x00\n      dup1\n      revert\n    tag_80:\n      swap1\n      0x00\n      mstore\n      keccak256(0x00, 0x20)\n      swap1\n      0x04\n      mul\n      add\n      0x00\n      swap2\n      pop\n      swap1\n      pop\n      dup1\n      0x00\n      add\n      0x00\n      swap1\n      sload\n      swap1\n      0x0100\n      exp\n      swap1\n      div\n      0xffffffffffffffffffffffffffffffffffffffff\n      and\n      swap1\n      dup1\n      0x01\n      add\n      sload\n      swap1\n      dup1\n      0x02\n      add\n      0x00\n      swap1\n      sload\n      swap1\n      0x0100\n      exp\n      swap1\n      div\n      0xff\n      and\n      swap1\n      dup1\n      0x03\n      add\n      sload\n      swap1\n      pop\n      dup5\n      jump\t// out\n        /* \"bootcamp/week3/day_4_multiSigWallet.sol\":1294:1431  function addAddressToOwners(address _address) public OnlyOwner {... */\n    tag_52:\n        /* \"bootcamp/week3/day_4_multiSigWallet.sol\":695:699  true */\n      0x01\n        /* \"bootcamp/week3/day_4_multiSigWallet.sol\":670:699  ownerList[msg.sender] == true */\n      iszero\n      iszero\n        /* \"bootcamp/week3/day_4_multiSigWallet.sol\":670:679  ownerList */\n      0x02\n        /* \"bootcamp/week3/day_4_multiSigWallet.sol\":670:691  ownerList[msg.sender] */\n      0x00\n        /* \"bootcamp/week3/day_4_multiSigWallet.sol\":680:690  msg.sender */\n      caller\n        /* \"bootcamp/week3/day_4_multiSigWallet.sol\":670:691  ownerList[msg.sender] */\n      0xffffffffffffffffffffffffffffffffffffffff\n      and\n      0xffffffffffffffffffffffffffffffffffffffff\n      and\n      dup2\n      mstore\n      0x20\n      add\n      swap1\n      dup2\n      mstore\n      0x20\n      add\n      0x00\n      keccak256\n      0x00\n      swap1\n      sload\n      swap1\n      0x0100\n      exp\n      swap1\n      div\n      0xff\n      and\n        /* \"bootcamp/week3/day_4_multiSigWallet.sol\":670:699  ownerList[msg.sender] == true */\n      iszero\n      iszero\n      eq\n        /* \"bootcamp/week3/day_4_multiSigWallet.sol\":662:739  require(ownerList[msg.sender] == true, \"Your're not an owner of this wallet\") */\n      tag_83\n      jumpi\n      mload(0x40)\n      0x08c379a000000000000000000000000000000000000000000000000000000000\n      dup2\n      mstore\n      0x04\n      add\n      tag_84\n      swap1\n      tag_85\n      jump\t// in\n    tag_84:\n      mload(0x40)\n      dup1\n      swap2\n      sub\n      swap1\n      revert\n    tag_83:\n        /* \"bootcamp/week3/day_4_multiSigWallet.sol\":1367:1373  owners */\n      0x00\n        /* \"bootcamp/week3/day_4_multiSigWallet.sol\":1379:1387  _address */\n      dup2\n        /* \"bootcamp/week3/day_4_multiSigWallet.sol\":1367:1388  owners.push(_address) */\n      swap1\n      dup1\n      0x01\n      dup2\n      sload\n      add\n      dup1\n      dup3\n      sstore\n      dup1\n      swap2\n      pop\n      pop\n      0x01\n      swap1\n      sub\n      swap1\n      0x00\n      mstore\n      keccak256(0x00, 0x20)\n      add\n      0x00\n      swap1\n      swap2\n      swap1\n      swap2\n      swap1\n      swap2\n      0x0100\n      exp\n      dup2\n      sload\n      dup2\n      0xffffffffffffffffffffffffffffffffffffffff\n      mul\n      not\n      and\n      swap1\n      dup4\n      0xffffffffffffffffffffffffffffffffffffffff\n      and\n      mul\n      or\n      swap1\n      sstore\n      pop\n        /* \"bootcamp/week3/day_4_multiSigWallet.sol\":1420:1424  true */\n      0x01\n        /* \"bootcamp/week3/day_4_multiSigWallet.sol\":1398:1407  ownerList */\n      0x02\n        /* \"bootcamp/week3/day_4_multiSigWallet.sol\":1398:1417  ownerList[_address] */\n      0x00\n        /* \"bootcamp/week3/day_4_multiSigWallet.sol\":1408:1416  _address */\n      dup4\n        /* \"bootcamp/week3/day_4_multiSigWallet.sol\":1398:1417  ownerList[_address] */\n      0xffffffffffffffffffffffffffffffffffffffff\n      and\n      0xffffffffffffffffffffffffffffffffffffffff\n      and\n      dup2\n      mstore\n      0x20\n      add\n      swap1\n      dup2\n      mstore\n      0x20\n      add\n      0x00\n      keccak256\n      0x00\n        /* \"bootcamp/week3/day_4_multiSigWallet.sol\":1398:1424  ownerList[_address] = true */\n      0x0100\n      exp\n      dup2\n      sload\n      dup2\n      0xff\n      mul\n      not\n      and\n      swap1\n      dup4\n      iszero\n      iszero\n      mul\n      or\n      swap1\n      sstore\n      pop\n        /* \"bootcamp/week3/day_4_multiSigWallet.sol\":1294:1431  function addAddressToOwners(address _address) public OnlyOwner {... */\n      pop\n      jump\t// out\n        /* \"bootcamp/week3/day_4_multiSigWallet.sol\":2001:2361  function voteOnTransaction(uint index) public OnlyOwner {... */\n    tag_56:\n        /* \"bootcamp/week3/day_4_multiSigWallet.sol\":695:699  true */\n      0x01\n        /* \"bootcamp/week3/day_4_multiSigWallet.sol\":670:699  ownerList[msg.sender] == true */\n      iszero\n      iszero\n        /* \"bootcamp/week3/day_4_multiSigWallet.sol\":670:679  ownerList */\n      0x02\n        /* \"bootcamp/week3/day_4_multiSigWallet.sol\":670:691  ownerList[msg.sender] */\n      0x00\n        /* \"bootcamp/week3/day_4_multiSigWallet.sol\":680:690  msg.sender */\n      caller\n        /* \"bootcamp/week3/day_4_multiSigWallet.sol\":670:691  ownerList[msg.sender] */\n      0xffffffffffffffffffffffffffffffffffffffff\n      and\n      0xffffffffffffffffffffffffffffffffffffffff\n      and\n      dup2\n      mstore\n      0x20\n      add\n      swap1\n      dup2\n      mstore\n      0x20\n      add\n      0x00\n      keccak256\n      0x00\n      swap1\n      sload\n      swap1\n      0x0100\n      exp\n      swap1\n      div\n      0xff\n      and\n        /* \"bootcamp/week3/day_4_multiSigWallet.sol\":670:699  ownerList[msg.sender] == true */\n      iszero\n      iszero\n      eq\n        /* \"bootcamp/week3/day_4_multiSigWallet.sol\":662:739  require(ownerList[msg.sender] == true, \"Your're not an owner of this wallet\") */\n      tag_89\n      jumpi\n      mload(0x40)\n      0x08c379a000000000000000000000000000000000000000000000000000000000\n      dup2\n      mstore\n      0x04\n      add\n      tag_90\n      swap1\n      tag_85\n      jump\t// in\n    tag_90:\n      mload(0x40)\n      dup1\n      swap2\n      sub\n      swap1\n      revert\n    tag_89:\n        /* \"bootcamp/week3/day_4_multiSigWallet.sol\":2232:2237  false */\n      0x00\n        /* \"bootcamp/week3/day_4_multiSigWallet.sol\":2197:2237  alreadyVoted[index][msg.sender] == false */\n      iszero\n      iszero\n        /* \"bootcamp/week3/day_4_multiSigWallet.sol\":2197:2209  alreadyVoted */\n      0x03\n        /* \"bootcamp/week3/day_4_multiSigWallet.sol\":2197:2216  alreadyVoted[index] */\n      0x00\n        /* \"bootcamp/week3/day_4_multiSigWallet.sol\":2210:2215  index */\n      dup4\n        /* \"bootcamp/week3/day_4_multiSigWallet.sol\":2197:2216  alreadyVoted[index] */\n      dup2\n      mstore\n      0x20\n      add\n      swap1\n      dup2\n      mstore\n      0x20\n      add\n      0x00\n      keccak256\n        /* \"bootcamp/week3/day_4_multiSigWallet.sol\":2197:2228  alreadyVoted[index][msg.sender] */\n      0x00\n        /* \"bootcamp/week3/day_4_multiSigWallet.sol\":2217:2227  msg.sender */\n      caller\n        /* \"bootcamp/week3/day_4_multiSigWallet.sol\":2197:2228  alreadyVoted[index][msg.sender] */\n      0xffffffffffffffffffffffffffffffffffffffff\n      and\n      0xffffffffffffffffffffffffffffffffffffffff\n      and\n      dup2\n      mstore\n      0x20\n      add\n      swap1\n      dup2\n      mstore\n      0x20\n      add\n      0x00\n      keccak256\n      0x00\n      swap1\n      sload\n      swap1\n      0x0100\n      exp\n      swap1\n      div\n      0xff\n      and\n        /* \"bootcamp/week3/day_4_multiSigWallet.sol\":2197:2237  alreadyVoted[index][msg.sender] == false */\n      iszero\n      iszero\n      eq\n        /* \"bootcamp/week3/day_4_multiSigWallet.sol\":2189:2262  require(alreadyVoted[index][msg.sender] == false, \"You've already voted\") */\n      tag_92\n      jumpi\n      mload(0x40)\n      0x08c379a000000000000000000000000000000000000000000000000000000000\n      dup2\n      mstore\n      0x04\n      add\n      tag_93\n      swap1\n      tag_94\n      jump\t// in\n    tag_93:\n      mload(0x40)\n      dup1\n      swap2\n      sub\n      swap1\n      revert\n    tag_92:\n        /* \"bootcamp/week3/day_4_multiSigWallet.sol\":2305:2306  1 */\n      0x01\n        /* \"bootcamp/week3/day_4_multiSigWallet.sol\":2272:2284  transactions */\n      0x04\n        /* \"bootcamp/week3/day_4_multiSigWallet.sol\":2285:2290  index */\n      dup3\n        /* \"bootcamp/week3/day_4_multiSigWallet.sol\":2272:2291  transactions[index] */\n      dup2\n      sload\n      dup2\n      lt\n      tag_95\n      jumpi\n      tag_96\n      tag_97\n      jump\t// in\n    tag_96:\n    tag_95:\n      swap1\n      0x00\n      mstore\n      keccak256(0x00, 0x20)\n      swap1\n      0x04\n      mul\n      add\n        /* \"bootcamp/week3/day_4_multiSigWallet.sol\":2272:2301  transactions[index].approvals */\n      0x03\n      add\n      0x00\n        /* \"bootcamp/week3/day_4_multiSigWallet.sol\":2272:2306  transactions[index].approvals += 1 */\n      dup3\n      dup3\n      sload\n      tag_99\n      swap2\n      swap1\n      tag_100\n      jump\t// in\n    tag_99:\n      swap3\n      pop\n      pop\n      dup2\n      swap1\n      sstore\n      pop\n        /* \"bootcamp/week3/day_4_multiSigWallet.sol\":2350:2354  true */\n      0x01\n        /* \"bootcamp/week3/day_4_multiSigWallet.sol\":2316:2328  alreadyVoted */\n      0x03\n        /* \"bootcamp/week3/day_4_multiSigWallet.sol\":2316:2335  alreadyVoted[index] */\n      0x00\n        /* \"bootcamp/week3/day_4_multiSigWallet.sol\":2329:2334  index */\n      dup4\n        /* \"bootcamp/week3/day_4_multiSigWallet.sol\":2316:2335  alreadyVoted[index] */\n      dup2\n      mstore\n      0x20\n      add\n      swap1\n      dup2\n      mstore\n      0x20\n      add\n      0x00\n      keccak256\n        /* \"bootcamp/week3/day_4_multiSigWallet.sol\":2316:2347  alreadyVoted[index][msg.sender] */\n      0x00\n        /* \"bootcamp/week3/day_4_multiSigWallet.sol\":2336:2346  msg.sender */\n      caller\n        /* \"bootcamp/week3/day_4_multiSigWallet.sol\":2316:2347  alreadyVoted[index][msg.sender] */\n      0xffffffffffffffffffffffffffffffffffffffff\n      and\n      0xffffffffffffffffffffffffffffffffffffffff\n      and\n      dup2\n      mstore\n      0x20\n      add\n      swap1\n      dup2\n      mstore\n      0x20\n      add\n      0x00\n      keccak256\n      0x00\n        /* \"bootcamp/week3/day_4_multiSigWallet.sol\":2316:2354  alreadyVoted[index][msg.sender] = true */\n      0x0100\n      exp\n      dup2\n      sload\n      dup2\n      0xff\n      mul\n      not\n      and\n      swap1\n      dup4\n      iszero\n      iszero\n      mul\n      or\n      swap1\n      sstore\n      pop\n        /* \"bootcamp/week3/day_4_multiSigWallet.sol\":2001:2361  function voteOnTransaction(uint index) public OnlyOwner {... */\n      pop\n      jump\t// out\n        /* \"bootcamp/week3/day_4_multiSigWallet.sol\":2772:3636  function executeTransaction(uint index) public OnlyOwner {... */\n    tag_60:\n        /* \"bootcamp/week3/day_4_multiSigWallet.sol\":695:699  true */\n      0x01\n        /* \"bootcamp/week3/day_4_multiSigWallet.sol\":670:699  ownerList[msg.sender] == true */\n      iszero\n      iszero\n        /* \"bootcamp/week3/day_4_multiSigWallet.sol\":670:679  ownerList */\n      0x02\n        /* \"bootcamp/week3/day_4_multiSigWallet.sol\":670:691  ownerList[msg.sender] */\n      0x00\n        /* \"bootcamp/week3/day_4_multiSigWallet.sol\":680:690  msg.sender */\n      caller\n        /* \"bootcamp/week3/day_4_multiSigWallet.sol\":670:691  ownerList[msg.sender] */\n      0xffffffffffffffffffffffffffffffffffffffff\n      and\n      0xffffffffffffffffffffffffffffffffffffffff\n      and\n      dup2\n      mstore\n      0x20\n      add\n      swap1\n      dup2\n      mstore\n      0x20\n      add\n      0x00\n      keccak256\n      0x00\n      swap1\n      sload\n      swap1\n      0x0100\n      exp\n      swap1\n      div\n      0xff\n      and\n        /* \"bootcamp/week3/day_4_multiSigWallet.sol\":670:699  ownerList[msg.sender] == true */\n      iszero\n      iszero\n      eq\n        /* \"bootcamp/week3/day_4_multiSigWallet.sol\":662:739  require(ownerList[msg.sender] == true, \"Your're not an owner of this wallet\") */\n      tag_102\n      jumpi\n      mload(0x40)\n      0x08c379a000000000000000000000000000000000000000000000000000000000\n      dup2\n      mstore\n      0x04\n      add\n      tag_103\n      swap1\n      tag_85\n      jump\t// in\n    tag_103:\n      mload(0x40)\n      dup1\n      swap2\n      sub\n      swap1\n      revert\n    tag_102:\n        /* \"bootcamp/week3/day_4_multiSigWallet.sol\":2917:2932  approvalsNeeded */\n      sload(0x01)\n        /* \"bootcamp/week3/day_4_multiSigWallet.sol\":2884:2896  transactions */\n      0x04\n        /* \"bootcamp/week3/day_4_multiSigWallet.sol\":2897:2902  index */\n      dup3\n        /* \"bootcamp/week3/day_4_multiSigWallet.sol\":2884:2903  transactions[index] */\n      dup2\n      sload\n      dup2\n      lt\n      tag_105\n      jumpi\n      tag_106\n      tag_97\n      jump\t// in\n    tag_106:\n    tag_105:\n      swap1\n      0x00\n      mstore\n      keccak256(0x00, 0x20)\n      swap1\n      0x04\n      mul\n      add\n        /* \"bootcamp/week3/day_4_multiSigWallet.sol\":2884:2913  transactions[index].approvals */\n      0x03\n      add\n      sload\n        /* \"bootcamp/week3/day_4_multiSigWallet.sol\":2884:2932  transactions[index].approvals >= approvalsNeeded */\n      lt\n      iszero\n        /* \"bootcamp/week3/day_4_multiSigWallet.sol\":2876:2957  require(transactions[index].approvals >= approvalsNeeded, \"Not enough approvals\") */\n      tag_108\n      jumpi\n      mload(0x40)\n      0x08c379a000000000000000000000000000000000000000000000000000000000\n      dup2\n      mstore\n      0x04\n      add\n      tag_109\n      swap1\n      tag_110\n      jump\t// in\n    tag_109:\n      mload(0x40)\n      dup1\n      swap2\n      sub\n      swap1\n      revert\n    tag_108:\n        /* \"bootcamp/week3/day_4_multiSigWallet.sol\":3057:3062  false */\n      0x00\n        /* \"bootcamp/week3/day_4_multiSigWallet.sol\":3018:3062  transactions[index].alreadyExecuted == false */\n      iszero\n      iszero\n        /* \"bootcamp/week3/day_4_multiSigWallet.sol\":3018:3030  transactions */\n      0x04\n        /* \"bootcamp/week3/day_4_multiSigWallet.sol\":3031:3036  index */\n      dup3\n        /* \"bootcamp/week3/day_4_multiSigWallet.sol\":3018:3037  transactions[index] */\n      dup2\n      sload\n      dup2\n      lt\n      tag_111\n      jumpi\n      tag_112\n      tag_97\n      jump\t// in\n    tag_112:\n    tag_111:\n      swap1\n      0x00\n      mstore\n      keccak256(0x00, 0x20)\n      swap1\n      0x04\n      mul\n      add\n        /* \"bootcamp/week3/day_4_multiSigWallet.sol\":3018:3053  transactions[index].alreadyExecuted */\n      0x02\n      add\n      0x00\n      swap1\n      sload\n      swap1\n      0x0100\n      exp\n      swap1\n      div\n      0xff\n      and\n        /* \"bootcamp/week3/day_4_multiSigWallet.sol\":3018:3062  transactions[index].alreadyExecuted == false */\n      iszero\n      iszero\n      eq\n        /* \"bootcamp/week3/day_4_multiSigWallet.sol\":3010:3080  require(transactions[index].alreadyExecuted == false, \"Already voted\") */\n      tag_114\n      jumpi\n      mload(0x40)\n      0x08c379a000000000000000000000000000000000000000000000000000000000\n      dup2\n      mstore\n      0x04\n      add\n      tag_115\n      swap1\n      tag_116\n      jump\t// in\n    tag_115:\n      mload(0x40)\n      dup1\n      swap2\n      sub\n      swap1\n      revert\n    tag_114:\n        /* \"bootcamp/week3/day_4_multiSigWallet.sol\":3090:3112  address payable toSend */\n      0x00\n        /* \"bootcamp/week3/day_4_multiSigWallet.sol\":3124:3136  transactions */\n      0x04\n        /* \"bootcamp/week3/day_4_multiSigWallet.sol\":3137:3142  index */\n      dup3\n        /* \"bootcamp/week3/day_4_multiSigWallet.sol\":3124:3143  transactions[index] */\n      dup2\n      sload\n      dup2\n      lt\n      tag_117\n      jumpi\n      tag_118\n      tag_97\n      jump\t// in\n    tag_118:\n    tag_117:\n      swap1\n      0x00\n      mstore\n      keccak256(0x00, 0x20)\n      swap1\n      0x04\n      mul\n      add\n        /* \"bootcamp/week3/day_4_multiSigWallet.sol\":3124:3153  transactions[index].sendingTo */\n      0x00\n      add\n      0x00\n      swap1\n      sload\n      swap1\n      0x0100\n      exp\n      swap1\n      div\n      0xffffffffffffffffffffffffffffffffffffffff\n      and\n        /* \"bootcamp/week3/day_4_multiSigWallet.sol\":3090:3154  address payable toSend = payable (transactions[index].sendingTo) */\n      swap1\n      pop\n        /* \"bootcamp/week3/day_4_multiSigWallet.sol\":3247:3261  bool tryToSend */\n      0x00\n        /* \"bootcamp/week3/day_4_multiSigWallet.sol\":3267:3273  toSend */\n      dup2\n        /* \"bootcamp/week3/day_4_multiSigWallet.sol\":3267:3278  toSend.call */\n      0xffffffffffffffffffffffffffffffffffffffff\n      and\n        /* \"bootcamp/week3/day_4_multiSigWallet.sol\":3286:3298  transactions */\n      0x04\n        /* \"bootcamp/week3/day_4_multiSigWallet.sol\":3299:3304  index */\n      dup5\n        /* \"bootcamp/week3/day_4_multiSigWallet.sol\":3286:3305  transactions[index] */\n      dup2\n      sload\n      dup2\n      lt\n      tag_120\n      jumpi\n      tag_121\n      tag_97\n      jump\t// in\n    tag_121:\n    tag_120:\n      swap1\n      0x00\n      mstore\n      keccak256(0x00, 0x20)\n      swap1\n      0x04\n      mul\n      add\n        /* \"bootcamp/week3/day_4_multiSigWallet.sol\":3286:3311  transactions[index].value */\n      0x01\n      add\n      sload\n        /* \"bootcamp/week3/day_4_multiSigWallet.sol\":3318:3322  5000 */\n      0x1388\n        /* \"bootcamp/week3/day_4_multiSigWallet.sol\":3267:3327  toSend.call{value: transactions[index].value, gas: 5000}(\"\") */\n      swap1\n      mload(0x40)\n      tag_123\n      swap1\n      tag_124\n      jump\t// in\n    tag_123:\n      0x00\n      mload(0x40)\n      dup1\n      dup4\n      sub\n      dup2\n      dup6\n      dup9\n      dup9\n      call\n      swap4\n      pop\n      pop\n      pop\n      pop\n      returndatasize\n      dup1\n      0x00\n      dup2\n      eq\n      tag_127\n      jumpi\n      mload(0x40)\n      swap2\n      pop\n      and(add(returndatasize, 0x3f), not(0x1f))\n      dup3\n      add\n      0x40\n      mstore\n      returndatasize\n      dup3\n      mstore\n      returndatasize\n      0x00\n      0x20\n      dup5\n      add\n      returndatacopy\n      jump(tag_126)\n    tag_127:\n      0x60\n      swap2\n      pop\n    tag_126:\n      pop\n        /* \"bootcamp/week3/day_4_multiSigWallet.sol\":3246:3327  (bool tryToSend, ) = toSend.call{value: transactions[index].value, gas: 5000}(\"\") */\n      pop\n      swap1\n      pop\n        /* \"bootcamp/week3/day_4_multiSigWallet.sol\":3444:3453  tryToSend */\n      dup1\n        /* \"bootcamp/week3/day_4_multiSigWallet.sol\":3436:3486  require(tryToSend, \"You don't have enough tokens\") */\n      tag_128\n      jumpi\n      mload(0x40)\n      0x08c379a000000000000000000000000000000000000000000000000000000000\n      dup2\n      mstore\n      0x04\n      add\n      tag_129\n      swap1\n      tag_130\n      jump\t// in\n    tag_129:\n      mload(0x40)\n      dup1\n      swap2\n      sub\n      swap1\n      revert\n    tag_128:\n        /* \"bootcamp/week3/day_4_multiSigWallet.sol\":3625:3629  true */\n      0x01\n        /* \"bootcamp/week3/day_4_multiSigWallet.sol\":3587:3599  transactions */\n      0x04\n        /* \"bootcamp/week3/day_4_multiSigWallet.sol\":3600:3605  index */\n      dup5\n        /* \"bootcamp/week3/day_4_multiSigWallet.sol\":3587:3606  transactions[index] */\n      dup2\n      sload\n      dup2\n      lt\n      tag_131\n      jumpi\n      tag_132\n      tag_97\n      jump\t// in\n    tag_132:\n    tag_131:\n      swap1\n      0x00\n      mstore\n      keccak256(0x00, 0x20)\n      swap1\n      0x04\n      mul\n      add\n        /* \"bootcamp/week3/day_4_multiSigWallet.sol\":3587:3622  transactions[index].alreadyExecuted */\n      0x02\n      add\n      0x00\n        /* \"bootcamp/week3/day_4_multiSigWallet.sol\":3587:3629  transactions[index].alreadyExecuted = true */\n      0x0100\n      exp\n      dup2\n      sload\n      dup2\n      0xff\n      mul\n      not\n      and\n      swap1\n      dup4\n      iszero\n      iszero\n      mul\n      or\n      swap1\n      sstore\n      pop\n        /* \"bootcamp/week3/day_4_multiSigWallet.sol\":2829:3636  {... */\n      pop\n      pop\n        /* \"bootcamp/week3/day_4_multiSigWallet.sol\":2772:3636  function executeTransaction(uint index) public OnlyOwner {... */\n      pop\n      jump\t// out\n        /* \"bootcamp/week3/day_4_multiSigWallet.sol\":1722:1967  function proposeTransaction(address to, uint amount) public OnlyOwner {... */\n    tag_65:\n        /* \"bootcamp/week3/day_4_multiSigWallet.sol\":695:699  true */\n      0x01\n        /* \"bootcamp/week3/day_4_multiSigWallet.sol\":670:699  ownerList[msg.sender] == true */\n      iszero\n      iszero\n        /* \"bootcamp/week3/day_4_multiSigWallet.sol\":670:679  ownerList */\n      0x02\n        /* \"bootcamp/week3/day_4_multiSigWallet.sol\":670:691  ownerList[msg.sender] */\n      0x00\n        /* \"bootcamp/week3/day_4_multiSigWallet.sol\":680:690  msg.sender */\n      caller\n        /* \"bootcamp/week3/day_4_multiSigWallet.sol\":670:691  ownerList[msg.sender] */\n      0xffffffffffffffffffffffffffffffffffffffff\n      and\n      0xffffffffffffffffffffffffffffffffffffffff\n      and\n      dup2\n      mstore\n      0x20\n      add\n      swap1\n      dup2\n      mstore\n      0x20\n      add\n      0x00\n      keccak256\n      0x00\n      swap1\n      sload\n      swap1\n      0x0100\n      exp\n      swap1\n      div\n      0xff\n      and\n        /* \"bootcamp/week3/day_4_multiSigWallet.sol\":670:699  ownerList[msg.sender] == true */\n      iszero\n      iszero\n      eq\n        /* \"bootcamp/week3/day_4_multiSigWallet.sol\":662:739  require(ownerList[msg.sender] == true, \"Your're not an owner of this wallet\") */\n      tag_135\n      jumpi\n      mload(0x40)\n      0x08c379a000000000000000000000000000000000000000000000000000000000\n      dup2\n      mstore\n      0x04\n      add\n      tag_136\n      swap1\n      tag_85\n      jump\t// in\n    tag_136:\n      mload(0x40)\n      dup1\n      swap2\n      sub\n      swap1\n      revert\n    tag_135:\n        /* \"bootcamp/week3/day_4_multiSigWallet.sol\":1802:1814  transactions */\n      0x04\n        /* \"bootcamp/week3/day_4_multiSigWallet.sol\":1820:1959  Transaction({... */\n      mload(0x40)\n      dup1\n      0x80\n      add\n      0x40\n      mstore\n      dup1\n        /* \"bootcamp/week3/day_4_multiSigWallet.sol\":1857:1859  to */\n      dup5\n        /* \"bootcamp/week3/day_4_multiSigWallet.sol\":1820:1959  Transaction({... */\n      0xffffffffffffffffffffffffffffffffffffffff\n      and\n      dup2\n      mstore\n      0x20\n      add\n        /* \"bootcamp/week3/day_4_multiSigWallet.sol\":1880:1886  amount */\n      dup4\n        /* \"bootcamp/week3/day_4_multiSigWallet.sol\":1820:1959  Transaction({... */\n      dup2\n      mstore\n      0x20\n      add\n        /* \"bootcamp/week3/day_4_multiSigWallet.sol\":1917:1922  false */\n      0x00\n        /* \"bootcamp/week3/day_4_multiSigWallet.sol\":1820:1959  Transaction({... */\n      iszero\n      iszero\n      dup2\n      mstore\n      0x20\n      add\n        /* \"bootcamp/week3/day_4_multiSigWallet.sol\":1947:1948  0 */\n      0x00\n        /* \"bootcamp/week3/day_4_multiSigWallet.sol\":1820:1959  Transaction({... */\n      dup2\n      mstore\n      pop\n        /* \"bootcamp/week3/day_4_multiSigWallet.sol\":1802:1960  transactions.push(Transaction({... */\n      swap1\n      dup1\n      0x01\n      dup2\n      sload\n      add\n      dup1\n      dup3\n      sstore\n      dup1\n      swap2\n      pop\n      pop\n      0x01\n      swap1\n      sub\n      swap1\n      0x00\n      mstore\n      keccak256(0x00, 0x20)\n      swap1\n      0x04\n      mul\n      add\n      0x00\n      swap1\n      swap2\n      swap1\n      swap2\n      swap1\n      swap2\n      pop\n      0x00\n      dup3\n      add\n      mload\n      dup2\n      0x00\n      add\n      exp(0x0100, 0x00)\n      dup2\n      sload\n      dup2\n      0xffffffffffffffffffffffffffffffffffffffff\n      mul\n      not\n      and\n      swap1\n      dup4\n      0xffffffffffffffffffffffffffffffffffffffff\n      and\n      mul\n      or\n      swap1\n      sstore\n      pop\n      0x20\n      dup3\n      add\n      mload\n      dup2\n      0x01\n      add\n      sstore\n      0x40\n      dup3\n      add\n      mload\n      dup2\n      0x02\n      add\n      exp(0x0100, 0x00)\n      dup2\n      sload\n      dup2\n      0xff\n      mul\n      not\n      and\n      swap1\n      dup4\n      iszero\n      iszero\n      mul\n      or\n      swap1\n      sstore\n      pop\n      0x60\n      dup3\n      add\n      mload\n      dup2\n      0x03\n      add\n      sstore\n      pop\n      pop\n        /* \"bootcamp/week3/day_4_multiSigWallet.sol\":1722:1967  function proposeTransaction(address to, uint amount) public OnlyOwner {... */\n      pop\n      pop\n      jump\t// out\n        /* \"bootcamp/week3/day_4_multiSigWallet.sol\":3642:3732  function ownerListLength() public view returns(uint) {... */\n    tag_68:\n        /* \"bootcamp/week3/day_4_multiSigWallet.sol\":3689:3693  uint */\n      0x00\n        /* \"bootcamp/week3/day_4_multiSigWallet.sol\":3712:3718  owners */\n      dup1\n        /* \"bootcamp/week3/day_4_multiSigWallet.sol\":3712:3725  owners.length */\n      dup1\n      sload\n      swap1\n      pop\n        /* \"bootcamp/week3/day_4_multiSigWallet.sol\":3705:3725  return owners.length */\n      swap1\n      pop\n        /* \"bootcamp/week3/day_4_multiSigWallet.sol\":3642:3732  function ownerListLength() public view returns(uint) {... */\n      swap1\n      jump\t// out\n        /* \"bootcamp/week3/day_4_multiSigWallet.sol\":2437:2678  function revokeOnTransaction(uint index) public OnlyOwner {... */\n    tag_73:\n        /* \"bootcamp/week3/day_4_multiSigWallet.sol\":695:699  true */\n      0x01\n        /* \"bootcamp/week3/day_4_multiSigWallet.sol\":670:699  ownerList[msg.sender] == true */\n      iszero\n      iszero\n        /* \"bootcamp/week3/day_4_multiSigWallet.sol\":670:679  ownerList */\n      0x02\n        /* \"bootcamp/week3/day_4_multiSigWallet.sol\":670:691  ownerList[msg.sender] */\n      0x00\n        /* \"bootcamp/week3/day_4_multiSigWallet.sol\":680:690  msg.sender */\n      caller\n        /* \"bootcamp/week3/day_4_multiSigWallet.sol\":670:691  ownerList[msg.sender] */\n      0xffffffffffffffffffffffffffffffffffffffff\n      and\n      0xffffffffffffffffffffffffffffffffffffffff\n      and\n      dup2\n      mstore\n      0x20\n      add\n      swap1\n      dup2\n      mstore\n      0x20\n      add\n      0x00\n      keccak256\n      0x00\n      swap1\n      sload\n      swap1\n      0x0100\n      exp\n      swap1\n      div\n      0xff\n      and\n        /* \"bootcamp/week3/day_4_multiSigWallet.sol\":670:699  ownerList[msg.sender] == true */\n      iszero\n      iszero\n      eq\n        /* \"bootcamp/week3/day_4_multiSigWallet.sol\":662:739  require(ownerList[msg.sender] == true, \"Your're not an owner of this wallet\") */\n      tag_141\n      jumpi\n      mload(0x40)\n      0x08c379a000000000000000000000000000000000000000000000000000000000\n      dup2\n      mstore\n      0x04\n      add\n      tag_142\n      swap1\n      tag_85\n      jump\t// in\n    tag_142:\n      mload(0x40)\n      dup1\n      swap2\n      sub\n      swap1\n      revert\n    tag_141:\n        /* \"bootcamp/week3/day_4_multiSigWallet.sol\":2548:2552  true */\n      0x01\n        /* \"bootcamp/week3/day_4_multiSigWallet.sol\":2513:2552  alreadyVoted[index][msg.sender] == true */\n      iszero\n      iszero\n        /* \"bootcamp/week3/day_4_multiSigWallet.sol\":2513:2525  alreadyVoted */\n      0x03\n        /* \"bootcamp/week3/day_4_multiSigWallet.sol\":2513:2532  alreadyVoted[index] */\n      0x00\n        /* \"bootcamp/week3/day_4_multiSigWallet.sol\":2526:2531  index */\n      dup4\n        /* \"bootcamp/week3/day_4_multiSigWallet.sol\":2513:2532  alreadyVoted[index] */\n      dup2\n      mstore\n      0x20\n      add\n      swap1\n      dup2\n      mstore\n      0x20\n      add\n      0x00\n      keccak256\n        /* \"bootcamp/week3/day_4_multiSigWallet.sol\":2513:2544  alreadyVoted[index][msg.sender] */\n      0x00\n        /* \"bootcamp/week3/day_4_multiSigWallet.sol\":2533:2543  msg.sender */\n      caller\n        /* \"bootcamp/week3/day_4_multiSigWallet.sol\":2513:2544  alreadyVoted[index][msg.sender] */\n      0xffffffffffffffffffffffffffffffffffffffff\n      and\n      0xffffffffffffffffffffffffffffffffffffffff\n      and\n      dup2\n      mstore\n      0x20\n      add\n      swap1\n      dup2\n      mstore\n      0x20\n      add\n      0x00\n      keccak256\n      0x00\n      swap1\n      sload\n      swap1\n      0x0100\n      exp\n      swap1\n      div\n      0xff\n      and\n        /* \"bootcamp/week3/day_4_multiSigWallet.sol\":2513:2552  alreadyVoted[index][msg.sender] == true */\n      iszero\n      iszero\n      eq\n        /* \"bootcamp/week3/day_4_multiSigWallet.sol\":2505:2578  require(alreadyVoted[index][msg.sender] == true, \"You haven't voted yet\") */\n      tag_144\n      jumpi\n      mload(0x40)\n      0x08c379a000000000000000000000000000000000000000000000000000000000\n      dup2\n      mstore\n      0x04\n      add\n      tag_145\n      swap1\n      tag_146\n      jump\t// in\n    tag_145:\n      mload(0x40)\n      dup1\n      swap2\n      sub\n      swap1\n      revert\n    tag_144:\n        /* \"bootcamp/week3/day_4_multiSigWallet.sol\":2621:2622  1 */\n      0x01\n        /* \"bootcamp/week3/day_4_multiSigWallet.sol\":2588:2600  transactions */\n      0x04\n        /* \"bootcamp/week3/day_4_multiSigWallet.sol\":2601:2606  index */\n      dup3\n        /* \"bootcamp/week3/day_4_multiSigWallet.sol\":2588:2607  transactions[index] */\n      dup2\n      sload\n      dup2\n      lt\n      tag_147\n      jumpi\n      tag_148\n      tag_97\n      jump\t// in\n    tag_148:\n    tag_147:\n      swap1\n      0x00\n      mstore\n      keccak256(0x00, 0x20)\n      swap1\n      0x04\n      mul\n      add\n        /* \"bootcamp/week3/day_4_multiSigWallet.sol\":2588:2617  transactions[index].approvals */\n      0x03\n      add\n      0x00\n        /* \"bootcamp/week3/day_4_multiSigWallet.sol\":2588:2622  transactions[index].approvals -= 1 */\n      dup3\n      dup3\n      sload\n      tag_150\n      swap2\n      swap1\n      tag_151\n      jump\t// in\n    tag_150:\n      swap3\n      pop\n      pop\n      dup2\n      swap1\n      sstore\n      pop\n        /* \"bootcamp/week3/day_4_multiSigWallet.sol\":2666:2671  false */\n      0x00\n        /* \"bootcamp/week3/day_4_multiSigWallet.sol\":2632:2644  alreadyVoted */\n      0x03\n        /* \"bootcamp/week3/day_4_multiSigWallet.sol\":2632:2651  alreadyVoted[index] */\n      0x00\n        /* \"bootcamp/week3/day_4_multiSigWallet.sol\":2645:2650  index */\n      dup4\n        /* \"bootcamp/week3/day_4_multiSigWallet.sol\":2632:2651  alreadyVoted[index] */\n      dup2\n      mstore\n      0x20\n      add\n      swap1\n      dup2\n      mstore\n      0x20\n      add\n      0x00\n      keccak256\n        /* \"bootcamp/week3/day_4_multiSigWallet.sol\":2632:2663  alreadyVoted[index][msg.sender] */\n      0x00\n        /* \"bootcamp/week3/day_4_multiSigWallet.sol\":2652:2662  msg.sender */\n      caller\n        /* \"bootcamp/week3/day_4_multiSigWallet.sol\":2632:2663  alreadyVoted[index][msg.sender] */\n      0xffffffffffffffffffffffffffffffffffffffff\n      and\n      0xffffffffffffffffffffffffffffffffffffffff\n      and\n      dup2\n      mstore\n      0x20\n      add\n      swap1\n      dup2\n      mstore\n      0x20\n      add\n      0x00\n      keccak256\n      0x00\n        /* \"bootcamp/week3/day_4_multiSigWallet.sol\":2632:2671  alreadyVoted[index][msg.sender] = false */\n      0x0100\n      exp\n      dup2\n      sload\n      dup2\n      0xff\n      mul\n      not\n      and\n      swap1\n      dup4\n      iszero\n      iszero\n      mul\n      or\n      swap1\n      sstore\n      pop\n        /* \"bootcamp/week3/day_4_multiSigWallet.sol\":2437:2678  function revokeOnTransaction(uint index) public OnlyOwner {... */\n      pop\n      jump\t// out\n        /* \"bootcamp/week3/day_4_multiSigWallet.sol\":1495:1610  function numberOfVotesRequire(uint numberOfVotes) public OnlyOwner {... */\n    tag_77:\n        /* \"bootcamp/week3/day_4_multiSigWallet.sol\":695:699  true */\n      0x01\n        /* \"bootcamp/week3/day_4_multiSigWallet.sol\":670:699  ownerList[msg.sender] == true */\n      iszero\n      iszero\n        /* \"bootcamp/week3/day_4_multiSigWallet.sol\":670:679  ownerList */\n      0x02\n        /* \"bootcamp/week3/day_4_multiSigWallet.sol\":670:691  ownerList[msg.sender] */\n      0x00\n        /* \"bootcamp/week3/day_4_multiSigWallet.sol\":680:690  msg.sender */\n      caller\n        /* \"bootcamp/week3/day_4_multiSigWallet.sol\":670:691  ownerList[msg.sender] */\n      0xffffffffffffffffffffffffffffffffffffffff\n      and\n      0xffffffffffffffffffffffffffffffffffffffff\n      and\n      dup2\n      mstore\n      0x20\n      add\n      swap1\n      dup2\n      mstore\n      0x20\n      add\n      0x00\n      keccak256\n      0x00\n      swap1\n      sload\n      swap1\n      0x0100\n      exp\n      swap1\n      div\n      0xff\n      and\n        /* \"bootcamp/week3/day_4_multiSigWallet.sol\":670:699  ownerList[msg.sender] == true */\n      iszero\n      iszero\n      eq\n        /* \"bootcamp/week3/day_4_multiSigWallet.sol\":662:739  require(ownerList[msg.sender] == true, \"Your're not an owner of this wallet\") */\n      tag_153\n      jumpi\n      mload(0x40)\n      0x08c379a000000000000000000000000000000000000000000000000000000000\n      dup2\n      mstore\n      0x04\n      add\n      tag_154\n      swap1\n      tag_85\n      jump\t// in\n    tag_154:\n      mload(0x40)\n      dup1\n      swap2\n      sub\n      swap1\n      revert\n    tag_153:\n        /* \"bootcamp/week3/day_4_multiSigWallet.sol\":1590:1603  numberOfVotes */\n      dup1\n        /* \"bootcamp/week3/day_4_multiSigWallet.sol\":1572:1587  approvalsNeeded */\n      0x01\n        /* \"bootcamp/week3/day_4_multiSigWallet.sol\":1572:1603  approvalsNeeded = numberOfVotes */\n      dup2\n      swap1\n      sstore\n      pop\n        /* \"bootcamp/week3/day_4_multiSigWallet.sol\":1495:1610  function numberOfVotesRequire(uint numberOfVotes) public OnlyOwner {... */\n      pop\n      jump\t// out\n        /* \"#utility.yul\":88:205   */\n    tag_157:\n        /* \"#utility.yul\":197:198   */\n      0x00\n        /* \"#utility.yul\":194:195   */\n      dup1\n        /* \"#utility.yul\":187:199   */\n      revert\n        /* \"#utility.yul\":334:411   */\n    tag_159:\n        /* \"#utility.yul\":371:378   */\n      0x00\n        /* \"#utility.yul\":400:405   */\n      dup2\n        /* \"#utility.yul\":389:405   */\n      swap1\n      pop\n        /* \"#utility.yul\":334:411   */\n      swap2\n      swap1\n      pop\n      jump\t// out\n        /* \"#utility.yul\":417:539   */\n    tag_160:\n        /* \"#utility.yul\":490:514   */\n      tag_193\n        /* \"#utility.yul\":508:513   */\n      dup2\n        /* \"#utility.yul\":490:514   */\n      tag_159\n      jump\t// in\n    tag_193:\n        /* \"#utility.yul\":483:488   */\n      dup2\n        /* \"#utility.yul\":480:515   */\n      eq\n        /* \"#utility.yul\":470:533   */\n      tag_194\n      jumpi\n        /* \"#utility.yul\":529:530   */\n      0x00\n        /* \"#utility.yul\":526:527   */\n      dup1\n        /* \"#utility.yul\":519:531   */\n      revert\n        /* \"#utility.yul\":470:533   */\n    tag_194:\n        /* \"#utility.yul\":417:539   */\n      pop\n      jump\t// out\n        /* \"#utility.yul\":545:684   */\n    tag_161:\n        /* \"#utility.yul\":591:596   */\n      0x00\n        /* \"#utility.yul\":629:635   */\n      dup2\n        /* \"#utility.yul\":616:636   */\n      calldataload\n        /* \"#utility.yul\":607:636   */\n      swap1\n      pop\n        /* \"#utility.yul\":645:678   */\n      tag_196\n        /* \"#utility.yul\":672:677   */\n      dup2\n        /* \"#utility.yul\":645:678   */\n      tag_160\n      jump\t// in\n    tag_196:\n        /* \"#utility.yul\":545:684   */\n      swap3\n      swap2\n      pop\n      pop\n      jump\t// out\n        /* \"#utility.yul\":690:1019   */\n    tag_21:\n        /* \"#utility.yul\":749:755   */\n      0x00\n        /* \"#utility.yul\":798:800   */\n      0x20\n        /* \"#utility.yul\":786:795   */\n      dup3\n        /* \"#utility.yul\":777:784   */\n      dup5\n        /* \"#utility.yul\":773:796   */\n      sub\n        /* \"#utility.yul\":769:801   */\n      slt\n        /* \"#utility.yul\":766:885   */\n      iszero\n      tag_198\n      jumpi\n        /* \"#utility.yul\":804:883   */\n      tag_199\n      tag_157\n      jump\t// in\n    tag_199:\n        /* \"#utility.yul\":766:885   */\n    tag_198:\n        /* \"#utility.yul\":924:925   */\n      0x00\n        /* \"#utility.yul\":949:1002   */\n      tag_200\n        /* \"#utility.yul\":994:1001   */\n      dup5\n        /* \"#utility.yul\":985:991   */\n      dup3\n        /* \"#utility.yul\":974:983   */\n      dup6\n        /* \"#utility.yul\":970:992   */\n      add\n        /* \"#utility.yul\":949:1002   */\n      tag_161\n      jump\t// in\n    tag_200:\n        /* \"#utility.yul\":939:1002   */\n      swap2\n      pop\n        /* \"#utility.yul\":895:1012   */\n      pop\n        /* \"#utility.yul\":690:1019   */\n      swap3\n      swap2\n      pop\n      pop\n      jump\t// out\n        /* \"#utility.yul\":1025:1151   */\n    tag_162:\n        /* \"#utility.yul\":1062:1069   */\n      0x00\n        /* \"#utility.yul\":1102:1144   */\n      0xffffffffffffffffffffffffffffffffffffffff\n        /* \"#utility.yul\":1095:1100   */\n      dup3\n        /* \"#utility.yul\":1091:1145   */\n      and\n        /* \"#utility.yul\":1080:1145   */\n      swap1\n      pop\n        /* \"#utility.yul\":1025:1151   */\n      swap2\n      swap1\n      pop\n      jump\t// out\n        /* \"#utility.yul\":1157:1253   */\n    tag_163:\n        /* \"#utility.yul\":1194:1201   */\n      0x00\n        /* \"#utility.yul\":1223:1247   */\n      tag_203\n        /* \"#utility.yul\":1241:1246   */\n      dup3\n        /* \"#utility.yul\":1223:1247   */\n      tag_162\n      jump\t// in\n    tag_203:\n        /* \"#utility.yul\":1212:1247   */\n      swap1\n      pop\n        /* \"#utility.yul\":1157:1253   */\n      swap2\n      swap1\n      pop\n      jump\t// out\n        /* \"#utility.yul\":1259:1377   */\n    tag_164:\n        /* \"#utility.yul\":1346:1370   */\n      tag_205\n        /* \"#utility.yul\":1364:1369   */\n      dup2\n        /* \"#utility.yul\":1346:1370   */\n      tag_163\n      jump\t// in\n    tag_205:\n        /* \"#utility.yul\":1341:1344   */\n      dup3\n        /* \"#utility.yul\":1334:1371   */\n      mstore\n        /* \"#utility.yul\":1259:1377   */\n      pop\n      pop\n      jump\t// out\n        /* \"#utility.yul\":1383:1605   */\n    tag_24:\n        /* \"#utility.yul\":1476:1480   */\n      0x00\n        /* \"#utility.yul\":1514:1516   */\n      0x20\n        /* \"#utility.yul\":1503:1512   */\n      dup3\n        /* \"#utility.yul\":1499:1517   */\n      add\n        /* \"#utility.yul\":1491:1517   */\n      swap1\n      pop\n        /* \"#utility.yul\":1527:1598   */\n      tag_207\n        /* \"#utility.yul\":1595:1596   */\n      0x00\n        /* \"#utility.yul\":1584:1593   */\n      dup4\n        /* \"#utility.yul\":1580:1597   */\n      add\n        /* \"#utility.yul\":1571:1577   */\n      dup5\n        /* \"#utility.yul\":1527:1598   */\n      tag_164\n      jump\t// in\n    tag_207:\n        /* \"#utility.yul\":1383:1605   */\n      swap3\n      swap2\n      pop\n      pop\n      jump\t// out\n        /* \"#utility.yul\":1611:1729   */\n    tag_165:\n        /* \"#utility.yul\":1698:1722   */\n      tag_209\n        /* \"#utility.yul\":1716:1721   */\n      dup2\n        /* \"#utility.yul\":1698:1722   */\n      tag_159\n      jump\t// in\n    tag_209:\n        /* \"#utility.yul\":1693:1696   */\n      dup3\n        /* \"#utility.yul\":1686:1723   */\n      mstore\n        /* \"#utility.yul\":1611:1729   */\n      pop\n      pop\n      jump\t// out\n        /* \"#utility.yul\":1735:1957   */\n    tag_29:\n        /* \"#utility.yul\":1828:1832   */\n      0x00\n        /* \"#utility.yul\":1866:1868   */\n      0x20\n        /* \"#utility.yul\":1855:1864   */\n      dup3\n        /* \"#utility.yul\":1851:1869   */\n      add\n        /* \"#utility.yul\":1843:1869   */\n      swap1\n      pop\n        /* \"#utility.yul\":1879:1950   */\n      tag_211\n        /* \"#utility.yul\":1947:1948   */\n      0x00\n        /* \"#utility.yul\":1936:1945   */\n      dup4\n        /* \"#utility.yul\":1932:1949   */\n      add\n        /* \"#utility.yul\":1923:1929   */\n      dup5\n        /* \"#utility.yul\":1879:1950   */\n      tag_165\n      jump\t// in\n    tag_211:\n        /* \"#utility.yul\":1735:1957   */\n      swap3\n      swap2\n      pop\n      pop\n      jump\t// out\n        /* \"#utility.yul\":1963:2085   */\n    tag_166:\n        /* \"#utility.yul\":2036:2060   */\n      tag_213\n        /* \"#utility.yul\":2054:2059   */\n      dup2\n        /* \"#utility.yul\":2036:2060   */\n      tag_163\n      jump\t// in\n    tag_213:\n        /* \"#utility.yul\":2029:2034   */\n      dup2\n        /* \"#utility.yul\":2026:2061   */\n      eq\n        /* \"#utility.yul\":2016:2079   */\n      tag_214\n      jumpi\n        /* \"#utility.yul\":2075:2076   */\n      0x00\n        /* \"#utility.yul\":2072:2073   */\n      dup1\n        /* \"#utility.yul\":2065:2077   */\n      revert\n        /* \"#utility.yul\":2016:2079   */\n    tag_214:\n        /* \"#utility.yul\":1963:2085   */\n      pop\n      jump\t// out\n        /* \"#utility.yul\":2091:2230   */\n    tag_167:\n        /* \"#utility.yul\":2137:2142   */\n      0x00\n        /* \"#utility.yul\":2175:2181   */\n      dup2\n        /* \"#utility.yul\":2162:2182   */\n      calldataload\n        /* \"#utility.yul\":2153:2182   */\n      swap1\n      pop\n        /* \"#utility.yul\":2191:2224   */\n      tag_216\n        /* \"#utility.yul\":2218:2223   */\n      dup2\n        /* \"#utility.yul\":2191:2224   */\n      tag_166\n      jump\t// in\n    tag_216:\n        /* \"#utility.yul\":2091:2230   */\n      swap3\n      swap2\n      pop\n      pop\n      jump\t// out\n        /* \"#utility.yul\":2236:2565   */\n    tag_33:\n        /* \"#utility.yul\":2295:2301   */\n      0x00\n        /* \"#utility.yul\":2344:2346   */\n      0x20\n        /* \"#utility.yul\":2332:2341   */\n      dup3\n        /* \"#utility.yul\":2323:2330   */\n      dup5\n        /* \"#utility.yul\":2319:2342   */\n      sub\n        /* \"#utility.yul\":2315:2347   */\n      slt\n        /* \"#utility.yul\":2312:2431   */\n      iszero\n      tag_218\n      jumpi\n        /* \"#utility.yul\":2350:2429   */\n      tag_219\n      tag_157\n      jump\t// in\n    tag_219:\n        /* \"#utility.yul\":2312:2431   */\n    tag_218:\n        /* \"#utility.yul\":2470:2471   */\n      0x00\n        /* \"#utility.yul\":2495:2548   */\n      tag_220\n        /* \"#utility.yul\":2540:2547   */\n      dup5\n        /* \"#utility.yul\":2531:2537   */\n      dup3\n        /* \"#utility.yul\":2520:2529   */\n      dup6\n        /* \"#utility.yul\":2516:2538   */\n      add\n        /* \"#utility.yul\":2495:2548   */\n      tag_167\n      jump\t// in\n    tag_220:\n        /* \"#utility.yul\":2485:2548   */\n      swap2\n      pop\n        /* \"#utility.yul\":2441:2558   */\n      pop\n        /* \"#utility.yul\":2236:2565   */\n      swap3\n      swap2\n      pop\n      pop\n      jump\t// out\n        /* \"#utility.yul\":2571:2661   */\n    tag_168:\n        /* \"#utility.yul\":2605:2612   */\n      0x00\n        /* \"#utility.yul\":2648:2653   */\n      dup2\n        /* \"#utility.yul\":2641:2654   */\n      iszero\n        /* \"#utility.yul\":2634:2655   */\n      iszero\n        /* \"#utility.yul\":2623:2655   */\n      swap1\n      pop\n        /* \"#utility.yul\":2571:2661   */\n      swap2\n      swap1\n      pop\n      jump\t// out\n        /* \"#utility.yul\":2667:2776   */\n    tag_169:\n        /* \"#utility.yul\":2748:2769   */\n      tag_223\n        /* \"#utility.yul\":2763:2768   */\n      dup2\n        /* \"#utility.yul\":2748:2769   */\n      tag_168\n      jump\t// in\n    tag_223:\n        /* \"#utility.yul\":2743:2746   */\n      dup3\n        /* \"#utility.yul\":2736:2770   */\n      mstore\n        /* \"#utility.yul\":2667:2776   */\n      pop\n      pop\n      jump\t// out\n        /* \"#utility.yul\":2782:2992   */\n    tag_36:\n        /* \"#utility.yul\":2869:2873   */\n      0x00\n        /* \"#utility.yul\":2907:2909   */\n      0x20\n        /* \"#utility.yul\":2896:2905   */\n      dup3\n        /* \"#utility.yul\":2892:2910   */\n      add\n        /* \"#utility.yul\":2884:2910   */\n      swap1\n      pop\n        /* \"#utility.yul\":2920:2985   */\n      tag_225\n        /* \"#utility.yul\":2982:2983   */\n      0x00\n        /* \"#utility.yul\":2971:2980   */\n      dup4\n        /* \"#utility.yul\":2967:2984   */\n      add\n        /* \"#utility.yul\":2958:2964   */\n      dup5\n        /* \"#utility.yul\":2920:2985   */\n      tag_169\n      jump\t// in\n    tag_225:\n        /* \"#utility.yul\":2782:2992   */\n      swap3\n      swap2\n      pop\n      pop\n      jump\t// out\n        /* \"#utility.yul\":2998:3472   */\n    tag_40:\n        /* \"#utility.yul\":3066:3072   */\n      0x00\n        /* \"#utility.yul\":3074:3080   */\n      dup1\n        /* \"#utility.yul\":3123:3125   */\n      0x40\n        /* \"#utility.yul\":3111:3120   */\n      dup4\n        /* \"#utility.yul\":3102:3109   */\n      dup6\n        /* \"#utility.yul\":3098:3121   */\n      sub\n        /* \"#utility.yul\":3094:3126   */\n      slt\n        /* \"#utility.yul\":3091:3210   */\n      iszero\n      tag_227\n      jumpi\n        /* \"#utility.yul\":3129:3208   */\n      tag_228\n      tag_157\n      jump\t// in\n    tag_228:\n        /* \"#utility.yul\":3091:3210   */\n    tag_227:\n        /* \"#utility.yul\":3249:3250   */\n      0x00\n        /* \"#utility.yul\":3274:3327   */\n      tag_229\n        /* \"#utility.yul\":3319:3326   */\n      dup6\n        /* \"#utility.yul\":3310:3316   */\n      dup3\n        /* \"#utility.yul\":3299:3308   */\n      dup7\n        /* \"#utility.yul\":3295:3317   */\n      add\n        /* \"#utility.yul\":3274:3327   */\n      tag_161\n      jump\t// in\n    tag_229:\n        /* \"#utility.yul\":3264:3327   */\n      swap3\n      pop\n        /* \"#utility.yul\":3220:3337   */\n      pop\n        /* \"#utility.yul\":3376:3378   */\n      0x20\n        /* \"#utility.yul\":3402:3455   */\n      tag_230\n        /* \"#utility.yul\":3447:3454   */\n      dup6\n        /* \"#utility.yul\":3438:3444   */\n      dup3\n        /* \"#utility.yul\":3427:3436   */\n      dup7\n        /* \"#utility.yul\":3423:3445   */\n      add\n        /* \"#utility.yul\":3402:3455   */\n      tag_167\n      jump\t// in\n    tag_230:\n        /* \"#utility.yul\":3392:3455   */\n      swap2\n      pop\n        /* \"#utility.yul\":3347:3465   */\n      pop\n        /* \"#utility.yul\":2998:3472   */\n      swap3\n      pop\n      swap3\n      swap1\n      pop\n      jump\t// out\n        /* \"#utility.yul\":3478:4019   */\n    tag_48:\n        /* \"#utility.yul\":3649:3653   */\n      0x00\n        /* \"#utility.yul\":3687:3690   */\n      0x80\n        /* \"#utility.yul\":3676:3685   */\n      dup3\n        /* \"#utility.yul\":3672:3691   */\n      add\n        /* \"#utility.yul\":3664:3691   */\n      swap1\n      pop\n        /* \"#utility.yul\":3701:3772   */\n      tag_232\n        /* \"#utility.yul\":3769:3770   */\n      0x00\n        /* \"#utility.yul\":3758:3767   */\n      dup4\n        /* \"#utility.yul\":3754:3771   */\n      add\n        /* \"#utility.yul\":3745:3751   */\n      dup8\n        /* \"#utility.yul\":3701:3772   */\n      tag_164\n      jump\t// in\n    tag_232:\n        /* \"#utility.yul\":3782:3854   */\n      tag_233\n        /* \"#utility.yul\":3850:3852   */\n      0x20\n        /* \"#utility.yul\":3839:3848   */\n      dup4\n        /* \"#utility.yul\":3835:3853   */\n      add\n        /* \"#utility.yul\":3826:3832   */\n      dup7\n        /* \"#utility.yul\":3782:3854   */\n      tag_165\n      jump\t// in\n    tag_233:\n        /* \"#utility.yul\":3864:3930   */\n      tag_234\n        /* \"#utility.yul\":3926:3928   */\n      0x40\n        /* \"#utility.yul\":3915:3924   */\n      dup4\n        /* \"#utility.yul\":3911:3929   */\n      add\n        /* \"#utility.yul\":3902:3908   */\n      dup6\n        /* \"#utility.yul\":3864:3930   */\n      tag_169\n      jump\t// in\n    tag_234:\n        /* \"#utility.yul\":3940:4012   */\n      tag_235\n        /* \"#utility.yul\":4008:4010   */\n      0x60\n        /* \"#utility.yul\":3997:4006   */\n      dup4\n        /* \"#utility.yul\":3993:4011   */\n      add\n        /* \"#utility.yul\":3984:3990   */\n      dup5\n        /* \"#utility.yul\":3940:4012   */\n      tag_165\n      jump\t// in\n    tag_235:\n        /* \"#utility.yul\":3478:4019   */\n      swap6\n      swap5\n      pop\n      pop\n      pop\n      pop\n      pop\n      jump\t// out\n        /* \"#utility.yul\":4025:4499   */\n    tag_64:\n        /* \"#utility.yul\":4093:4099   */\n      0x00\n        /* \"#utility.yul\":4101:4107   */\n      dup1\n        /* \"#utility.yul\":4150:4152   */\n      0x40\n        /* \"#utility.yul\":4138:4147   */\n      dup4\n        /* \"#utility.yul\":4129:4136   */\n      dup6\n        /* \"#utility.yul\":4125:4148   */\n      sub\n        /* \"#utility.yul\":4121:4153   */\n      slt\n        /* \"#utility.yul\":4118:4237   */\n      iszero\n      tag_237\n      jumpi\n        /* \"#utility.yul\":4156:4235   */\n      tag_238\n      tag_157\n      jump\t// in\n    tag_238:\n        /* \"#utility.yul\":4118:4237   */\n    tag_237:\n        /* \"#utility.yul\":4276:4277   */\n      0x00\n        /* \"#utility.yul\":4301:4354   */\n      tag_239\n        /* \"#utility.yul\":4346:4353   */\n      dup6\n        /* \"#utility.yul\":4337:4343   */\n      dup3\n        /* \"#utility.yul\":4326:4335   */\n      dup7\n        /* \"#utility.yul\":4322:4344   */\n      add\n        /* \"#utility.yul\":4301:4354   */\n      tag_167\n      jump\t// in\n    tag_239:\n        /* \"#utility.yul\":4291:4354   */\n      swap3\n      pop\n        /* \"#utility.yul\":4247:4364   */\n      pop\n        /* \"#utility.yul\":4403:4405   */\n      0x20\n        /* \"#utility.yul\":4429:4482   */\n      tag_240\n        /* \"#utility.yul\":4474:4481   */\n      dup6\n        /* \"#utility.yul\":4465:4471   */\n      dup3\n        /* \"#utility.yul\":4454:4463   */\n      dup7\n        /* \"#utility.yul\":4450:4472   */\n      add\n        /* \"#utility.yul\":4429:4482   */\n      tag_161\n      jump\t// in\n    tag_240:\n        /* \"#utility.yul\":4419:4482   */\n      swap2\n      pop\n        /* \"#utility.yul\":4374:4492   */\n      pop\n        /* \"#utility.yul\":4025:4499   */\n      swap3\n      pop\n      swap3\n      swap1\n      pop\n      jump\t// out\n        /* \"#utility.yul\":4505:4674   */\n    tag_170:\n        /* \"#utility.yul\":4589:4600   */\n      0x00\n        /* \"#utility.yul\":4623:4629   */\n      dup3\n        /* \"#utility.yul\":4618:4621   */\n      dup3\n        /* \"#utility.yul\":4611:4630   */\n      mstore\n        /* \"#utility.yul\":4663:4667   */\n      0x20\n        /* \"#utility.yul\":4658:4661   */\n      dup3\n        /* \"#utility.yul\":4654:4668   */\n      add\n        /* \"#utility.yul\":4639:4668   */\n      swap1\n      pop\n        /* \"#utility.yul\":4505:4674   */\n      swap3\n      swap2\n      pop\n      pop\n      jump\t// out\n        /* \"#utility.yul\":4680:4902   */\n    tag_171:\n        /* \"#utility.yul\":4820:4854   */\n      0x596f7572277265206e6f7420616e206f776e6572206f6620746869732077616c\n        /* \"#utility.yul\":4816:4817   */\n      0x00\n        /* \"#utility.yul\":4808:4814   */\n      dup3\n        /* \"#utility.yul\":4804:4818   */\n      add\n        /* \"#utility.yul\":4797:4855   */\n      mstore\n        /* \"#utility.yul\":4889:4894   */\n      0x6c65740000000000000000000000000000000000000000000000000000000000\n        /* \"#utility.yul\":4884:4886   */\n      0x20\n        /* \"#utility.yul\":4876:4882   */\n      dup3\n        /* \"#utility.yul\":4872:4887   */\n      add\n        /* \"#utility.yul\":4865:4895   */\n      mstore\n        /* \"#utility.yul\":4680:4902   */\n      pop\n      jump\t// out\n        /* \"#utility.yul\":4908:5274   */\n    tag_172:\n        /* \"#utility.yul\":5050:5053   */\n      0x00\n        /* \"#utility.yul\":5071:5138   */\n      tag_244\n        /* \"#utility.yul\":5135:5137   */\n      0x23\n        /* \"#utility.yul\":5130:5133   */\n      dup4\n        /* \"#utility.yul\":5071:5138   */\n      tag_170\n      jump\t// in\n    tag_244:\n        /* \"#utility.yul\":5064:5138   */\n      swap2\n      pop\n        /* \"#utility.yul\":5147:5240   */\n      tag_245\n        /* \"#utility.yul\":5236:5239   */\n      dup3\n        /* \"#utility.yul\":5147:5240   */\n      tag_171\n      jump\t// in\n    tag_245:\n        /* \"#utility.yul\":5265:5267   */\n      0x40\n        /* \"#utility.yul\":5260:5263   */\n      dup3\n        /* \"#utility.yul\":5256:5268   */\n      add\n        /* \"#utility.yul\":5249:5268   */\n      swap1\n      pop\n        /* \"#utility.yul\":4908:5274   */\n      swap2\n      swap1\n      pop\n      jump\t// out\n        /* \"#utility.yul\":5280:5699   */\n    tag_85:\n        /* \"#utility.yul\":5446:5450   */\n      0x00\n        /* \"#utility.yul\":5484:5486   */\n      0x20\n        /* \"#utility.yul\":5473:5482   */\n      dup3\n        /* \"#utility.yul\":5469:5487   */\n      add\n        /* \"#utility.yul\":5461:5487   */\n      swap1\n      pop\n        /* \"#utility.yul\":5533:5542   */\n      dup2\n        /* \"#utility.yul\":5527:5531   */\n      dup2\n        /* \"#utility.yul\":5523:5543   */\n      sub\n        /* \"#utility.yul\":5519:5520   */\n      0x00\n        /* \"#utility.yul\":5508:5517   */\n      dup4\n        /* \"#utility.yul\":5504:5521   */\n      add\n        /* \"#utility.yul\":5497:5544   */\n      mstore\n        /* \"#utility.yul\":5561:5692   */\n      tag_247\n        /* \"#utility.yul\":5687:5691   */\n      dup2\n        /* \"#utility.yul\":5561:5692   */\n      tag_172\n      jump\t// in\n    tag_247:\n        /* \"#utility.yul\":5553:5692   */\n      swap1\n      pop\n        /* \"#utility.yul\":5280:5699   */\n      swap2\n      swap1\n      pop\n      jump\t// out\n        /* \"#utility.yul\":5705:5875   */\n    tag_173:\n        /* \"#utility.yul\":5845:5867   */\n      0x596f7527766520616c726561647920766f746564000000000000000000000000\n        /* \"#utility.yul\":5841:5842   */\n      0x00\n        /* \"#utility.yul\":5833:5839   */\n      dup3\n        /* \"#utility.yul\":5829:5843   */\n      add\n        /* \"#utility.yul\":5822:5868   */\n      mstore\n        /* \"#utility.yul\":5705:5875   */\n      pop\n      jump\t// out\n        /* \"#utility.yul\":5881:6247   */\n    tag_174:\n        /* \"#utility.yul\":6023:6026   */\n      0x00\n        /* \"#utility.yul\":6044:6111   */\n      tag_250\n        /* \"#utility.yul\":6108:6110   */\n      0x14\n        /* \"#utility.yul\":6103:6106   */\n      dup4\n        /* \"#utility.yul\":6044:6111   */\n      tag_170\n      jump\t// in\n    tag_250:\n        /* \"#utility.yul\":6037:6111   */\n      swap2\n      pop\n        /* \"#utility.yul\":6120:6213   */\n      tag_251\n        /* \"#utility.yul\":6209:6212   */\n      dup3\n        /* \"#utility.yul\":6120:6213   */\n      tag_173\n      jump\t// in\n    tag_251:\n        /* \"#utility.yul\":6238:6240   */\n      0x20\n        /* \"#utility.yul\":6233:6236   */\n      dup3\n        /* \"#utility.yul\":6229:6241   */\n      add\n        /* \"#utility.yul\":6222:6241   */\n      swap1\n      pop\n        /* \"#utility.yul\":5881:6247   */\n      swap2\n      swap1\n      pop\n      jump\t// out\n        /* \"#utility.yul\":6253:6672   */\n    tag_94:\n        /* \"#utility.yul\":6419:6423   */\n      0x00\n        /* \"#utility.yul\":6457:6459   */\n      0x20\n        /* \"#utility.yul\":6446:6455   */\n      dup3\n        /* \"#utility.yul\":6442:6460   */\n      add\n        /* \"#utility.yul\":6434:6460   */\n      swap1\n      pop\n        /* \"#utility.yul\":6506:6515   */\n      dup2\n        /* \"#utility.yul\":6500:6504   */\n      dup2\n        /* \"#utility.yul\":6496:6516   */\n      sub\n        /* \"#utility.yul\":6492:6493   */\n      0x00\n        /* \"#utility.yul\":6481:6490   */\n      dup4\n        /* \"#utility.yul\":6477:6494   */\n      add\n        /* \"#utility.yul\":6470:6517   */\n      mstore\n        /* \"#utility.yul\":6534:6665   */\n      tag_253\n        /* \"#utility.yul\":6660:6664   */\n      dup2\n        /* \"#utility.yul\":6534:6665   */\n      tag_174\n      jump\t// in\n    tag_253:\n        /* \"#utility.yul\":6526:6665   */\n      swap1\n      pop\n        /* \"#utility.yul\":6253:6672   */\n      swap2\n      swap1\n      pop\n      jump\t// out\n        /* \"#utility.yul\":6678:6858   */\n    tag_97:\n        /* \"#utility.yul\":6726:6803   */\n      0x4e487b7100000000000000000000000000000000000000000000000000000000\n        /* \"#utility.yul\":6723:6724   */\n      0x00\n        /* \"#utility.yul\":6716:6804   */\n      mstore\n        /* \"#utility.yul\":6823:6827   */\n      0x32\n        /* \"#utility.yul\":6820:6821   */\n      0x04\n        /* \"#utility.yul\":6813:6828   */\n      mstore\n        /* \"#utility.yul\":6847:6851   */\n      0x24\n        /* \"#utility.yul\":6844:6845   */\n      0x00\n        /* \"#utility.yul\":6837:6852   */\n      revert\n        /* \"#utility.yul\":6864:7044   */\n    tag_175:\n        /* \"#utility.yul\":6912:6989   */\n      0x4e487b7100000000000000000000000000000000000000000000000000000000\n        /* \"#utility.yul\":6909:6910   */\n      0x00\n        /* \"#utility.yul\":6902:6990   */\n      mstore\n        /* \"#utility.yul\":7009:7013   */\n      0x11\n        /* \"#utility.yul\":7006:7007   */\n      0x04\n        /* \"#utility.yul\":6999:7014   */\n      mstore\n        /* \"#utility.yul\":7033:7037   */\n      0x24\n        /* \"#utility.yul\":7030:7031   */\n      0x00\n        /* \"#utility.yul\":7023:7038   */\n      revert\n        /* \"#utility.yul\":7050:7355   */\n    tag_100:\n        /* \"#utility.yul\":7090:7093   */\n      0x00\n        /* \"#utility.yul\":7109:7129   */\n      tag_257\n        /* \"#utility.yul\":7127:7128   */\n      dup3\n        /* \"#utility.yul\":7109:7129   */\n      tag_159\n      jump\t// in\n    tag_257:\n        /* \"#utility.yul\":7104:7129   */\n      swap2\n      pop\n        /* \"#utility.yul\":7143:7163   */\n      tag_258\n        /* \"#utility.yul\":7161:7162   */\n      dup4\n        /* \"#utility.yul\":7143:7163   */\n      tag_159\n      jump\t// in\n    tag_258:\n        /* \"#utility.yul\":7138:7163   */\n      swap3\n      pop\n        /* \"#utility.yul\":7297:7298   */\n      dup3\n        /* \"#utility.yul\":7229:7295   */\n      0xffffffffffffffffffffffffffffffffffffffffffffffffffffffffffffffff\n        /* \"#utility.yul\":7225:7299   */\n      sub\n        /* \"#utility.yul\":7222:7223   */\n      dup3\n        /* \"#utility.yul\":7219:7300   */\n      gt\n        /* \"#utility.yul\":7216:7323   */\n      iszero\n      tag_259\n      jumpi\n        /* \"#utility.yul\":7303:7321   */\n      tag_260\n      tag_175\n      jump\t// in\n    tag_260:\n        /* \"#utility.yul\":7216:7323   */\n    tag_259:\n        /* \"#utility.yul\":7347:7348   */\n      dup3\n        /* \"#utility.yul\":7344:7345   */\n      dup3\n        /* \"#utility.yul\":7340:7349   */\n      add\n        /* \"#utility.yul\":7333:7349   */\n      swap1\n      pop\n        /* \"#utility.yul\":7050:7355   */\n      swap3\n      swap2\n      pop\n      pop\n      jump\t// out\n        /* \"#utility.yul\":7361:7531   */\n    tag_176:\n        /* \"#utility.yul\":7501:7523   */\n      0x4e6f7420656e6f75676820617070726f76616c73000000000000000000000000\n        /* \"#utility.yul\":7497:7498   */\n      0x00\n        /* \"#utility.yul\":7489:7495   */\n      dup3\n        /* \"#utility.yul\":7485:7499   */\n      add\n        /* \"#utility.yul\":7478:7524   */\n      mstore\n        /* \"#utility.yul\":7361:7531   */\n      pop\n      jump\t// out\n        /* \"#utility.yul\":7537:7903   */\n    tag_177:\n        /* \"#utility.yul\":7679:7682   */\n      0x00\n        /* \"#utility.yul\":7700:7767   */\n      tag_263\n        /* \"#utility.yul\":7764:7766   */\n      0x14\n        /* \"#utility.yul\":7759:7762   */\n      dup4\n        /* \"#utility.yul\":7700:7767   */\n      tag_170\n      jump\t// in\n    tag_263:\n        /* \"#utility.yul\":7693:7767   */\n      swap2\n      pop\n        /* \"#utility.yul\":7776:7869   */\n      tag_264\n        /* \"#utility.yul\":7865:7868   */\n      dup3\n        /* \"#utility.yul\":7776:7869   */\n      tag_176\n      jump\t// in\n    tag_264:\n        /* \"#utility.yul\":7894:7896   */\n      0x20\n        /* \"#utility.yul\":7889:7892   */\n      dup3\n        /* \"#utility.yul\":7885:7897   */\n      add\n        /* \"#utility.yul\":7878:7897   */\n      swap1\n      pop\n        /* \"#utility.yul\":7537:7903   */\n      swap2\n      swap1\n      pop\n      jump\t// out\n        /* \"#utility.yul\":7909:8328   */\n    tag_110:\n        /* \"#utility.yul\":8075:8079   */\n      0x00\n        /* \"#utility.yul\":8113:8115   */\n      0x20\n        /* \"#utility.yul\":8102:8111   */\n      dup3\n        /* \"#utility.yul\":8098:8116   */\n      add\n        /* \"#utility.yul\":8090:8116   */\n      swap1\n      pop\n        /* \"#utility.yul\":8162:8171   */\n      dup2\n        /* \"#utility.yul\":8156:8160   */\n      dup2\n        /* \"#utility.yul\":8152:8172   */\n      sub\n        /* \"#utility.yul\":8148:8149   */\n      0x00\n        /* \"#utility.yul\":8137:8146   */\n      dup4\n        /* \"#utility.yul\":8133:8150   */\n      add\n        /* \"#utility.yul\":8126:8173   */\n      mstore\n        /* \"#utility.yul\":8190:8321   */\n      tag_266\n        /* \"#utility.yul\":8316:8320   */\n      dup2\n        /* \"#utility.yul\":8190:8321   */\n      tag_177\n      jump\t// in\n    tag_266:\n        /* \"#utility.yul\":8182:8321   */\n      swap1\n      pop\n        /* \"#utility.yul\":7909:8328   */\n      swap2\n      swap1\n      pop\n      jump\t// out\n        /* \"#utility.yul\":8334:8497   */\n    tag_178:\n        /* \"#utility.yul\":8474:8489   */\n      0x416c726561647920766f74656400000000000000000000000000000000000000\n        /* \"#utility.yul\":8470:8471   */\n      0x00\n        /* \"#utility.yul\":8462:8468   */\n      dup3\n        /* \"#utility.yul\":8458:8472   */\n      add\n        /* \"#utility.yul\":8451:8490   */\n      mstore\n        /* \"#utility.yul\":8334:8497   */\n      pop\n      jump\t// out\n        /* \"#utility.yul\":8503:8869   */\n    tag_179:\n        /* \"#utility.yul\":8645:8648   */\n      0x00\n        /* \"#utility.yul\":8666:8733   */\n      tag_269\n        /* \"#utility.yul\":8730:8732   */\n      0x0d\n        /* \"#utility.yul\":8725:8728   */\n      dup4\n        /* \"#utility.yul\":8666:8733   */\n      tag_170\n      jump\t// in\n    tag_269:\n        /* \"#utility.yul\":8659:8733   */\n      swap2\n      pop\n        /* \"#utility.yul\":8742:8835   */\n      tag_270\n        /* \"#utility.yul\":8831:8834   */\n      dup3\n        /* \"#utility.yul\":8742:8835   */\n      tag_178\n      jump\t// in\n    tag_270:\n        /* \"#utility.yul\":8860:8862   */\n      0x20\n        /* \"#utility.yul\":8855:8858   */\n      dup3\n        /* \"#utility.yul\":8851:8863   */\n      add\n        /* \"#utility.yul\":8844:8863   */\n      swap1\n      pop\n        /* \"#utility.yul\":8503:8869   */\n      swap2\n      swap1\n      pop\n      jump\t// out\n        /* \"#utility.yul\":8875:9294   */\n    tag_116:\n        /* \"#utility.yul\":9041:9045   */\n      0x00\n        /* \"#utility.yul\":9079:9081   */\n      0x20\n        /* \"#utility.yul\":9068:9077   */\n      dup3\n        /* \"#utility.yul\":9064:9082   */\n      add\n        /* \"#utility.yul\":9056:9082   */\n      swap1\n      pop\n        /* \"#utility.yul\":9128:9137   */\n      dup2\n        /* \"#utility.yul\":9122:9126   */\n      dup2\n        /* \"#utility.yul\":9118:9138   */\n      sub\n        /* \"#utility.yul\":9114:9115   */\n      0x00\n        /* \"#utility.yul\":9103:9112   */\n      dup4\n        /* \"#utility.yul\":9099:9116   */\n      add\n        /* \"#utility.yul\":9092:9139   */\n      mstore\n        /* \"#utility.yul\":9156:9287   */\n      tag_272\n        /* \"#utility.yul\":9282:9286   */\n      dup2\n        /* \"#utility.yul\":9156:9287   */\n      tag_179\n      jump\t// in\n    tag_272:\n        /* \"#utility.yul\":9148:9287   */\n      swap1\n      pop\n        /* \"#utility.yul\":8875:9294   */\n      swap2\n      swap1\n      pop\n      jump\t// out\n        /* \"#utility.yul\":9300:9447   */\n    tag_180:\n        /* \"#utility.yul\":9401:9412   */\n      0x00\n        /* \"#utility.yul\":9438:9441   */\n      dup2\n        /* \"#utility.yul\":9423:9441   */\n      swap1\n      pop\n        /* \"#utility.yul\":9300:9447   */\n      swap3\n      swap2\n      pop\n      pop\n      jump\t// out\n        /* \"#utility.yul\":9453:9567   */\n    tag_181:\n      pop\n      jump\t// out\n        /* \"#utility.yul\":9573:9971   */\n    tag_182:\n        /* \"#utility.yul\":9732:9735   */\n      0x00\n        /* \"#utility.yul\":9753:9836   */\n      tag_276\n        /* \"#utility.yul\":9834:9835   */\n      0x00\n        /* \"#utility.yul\":9829:9832   */\n      dup4\n        /* \"#utility.yul\":9753:9836   */\n      tag_180\n      jump\t// in\n    tag_276:\n        /* \"#utility.yul\":9746:9836   */\n      swap2\n      pop\n        /* \"#utility.yul\":9845:9938   */\n      tag_277\n        /* \"#utility.yul\":9934:9937   */\n      dup3\n        /* \"#utility.yul\":9845:9938   */\n      tag_181\n      jump\t// in\n    tag_277:\n        /* \"#utility.yul\":9963:9964   */\n      0x00\n        /* \"#utility.yul\":9958:9961   */\n      dup3\n        /* \"#utility.yul\":9954:9965   */\n      add\n        /* \"#utility.yul\":9947:9965   */\n      swap1\n      pop\n        /* \"#utility.yul\":9573:9971   */\n      swap2\n      swap1\n      pop\n      jump\t// out\n        /* \"#utility.yul\":9977:10356   */\n    tag_124:\n        /* \"#utility.yul\":10161:10164   */\n      0x00\n        /* \"#utility.yul\":10183:10330   */\n      tag_279\n        /* \"#utility.yul\":10326:10329   */\n      dup3\n        /* \"#utility.yul\":10183:10330   */\n      tag_182\n      jump\t// in\n    tag_279:\n        /* \"#utility.yul\":10176:10330   */\n      swap2\n      pop\n        /* \"#utility.yul\":10347:10350   */\n      dup2\n        /* \"#utility.yul\":10340:10350   */\n      swap1\n      pop\n        /* \"#utility.yul\":9977:10356   */\n      swap2\n      swap1\n      pop\n      jump\t// out\n        /* \"#utility.yul\":10362:10540   */\n    tag_183:\n        /* \"#utility.yul\":10502:10532   */\n      0x596f7520646f6e2774206861766520656e6f75676820746f6b656e7300000000\n        /* \"#utility.yul\":10498:10499   */\n      0x00\n        /* \"#utility.yul\":10490:10496   */\n      dup3\n        /* \"#utility.yul\":10486:10500   */\n      add\n        /* \"#utility.yul\":10479:10533   */\n      mstore\n        /* \"#utility.yul\":10362:10540   */\n      pop\n      jump\t// out\n        /* \"#utility.yul\":10546:10912   */\n    tag_184:\n        /* \"#utility.yul\":10688:10691   */\n      0x00\n        /* \"#utility.yul\":10709:10776   */\n      tag_282\n        /* \"#utility.yul\":10773:10775   */\n      0x1c\n        /* \"#utility.yul\":10768:10771   */\n      dup4\n        /* \"#utility.yul\":10709:10776   */\n      tag_170\n      jump\t// in\n    tag_282:\n        /* \"#utility.yul\":10702:10776   */\n      swap2\n      pop\n        /* \"#utility.yul\":10785:10878   */\n      tag_283\n        /* \"#utility.yul\":10874:10877   */\n      dup3\n        /* \"#utility.yul\":10785:10878   */\n      tag_183\n      jump\t// in\n    tag_283:\n        /* \"#utility.yul\":10903:10905   */\n      0x20\n        /* \"#utility.yul\":10898:10901   */\n      dup3\n        /* \"#utility.yul\":10894:10906   */\n      add\n        /* \"#utility.yul\":10887:10906   */\n      swap1\n      pop\n        /* \"#utility.yul\":10546:10912   */\n      swap2\n      swap1\n      pop\n      jump\t// out\n        /* \"#utility.yul\":10918:11337   */\n    tag_130:\n        /* \"#utility.yul\":11084:11088   */\n      0x00\n        /* \"#utility.yul\":11122:11124   */\n      0x20\n        /* \"#utility.yul\":11111:11120   */\n      dup3\n        /* \"#utility.yul\":11107:11125   */\n      add\n        /* \"#utility.yul\":11099:11125   */\n      swap1\n      pop\n        /* \"#utility.yul\":11171:11180   */\n      dup2\n        /* \"#utility.yul\":11165:11169   */\n      dup2\n        /* \"#utility.yul\":11161:11181   */\n      sub\n        /* \"#utility.yul\":11157:11158   */\n      0x00\n        /* \"#utility.yul\":11146:11155   */\n      dup4\n        /* \"#utility.yul\":11142:11159   */\n      add\n        /* \"#utility.yul\":11135:11182   */\n      mstore\n        /* \"#utility.yul\":11199:11330   */\n      tag_285\n        /* \"#utility.yul\":11325:11329   */\n      dup2\n        /* \"#utility.yul\":11199:11330   */\n      tag_184\n      jump\t// in\n    tag_285:\n        /* \"#utility.yul\":11191:11330   */\n      swap1\n      pop\n        /* \"#utility.yul\":10918:11337   */\n      swap2\n      swap1\n      pop\n      jump\t// out\n        /* \"#utility.yul\":11343:11514   */\n    tag_185:\n        /* \"#utility.yul\":11483:11506   */\n      0x596f7520686176656e277420766f746564207965740000000000000000000000\n        /* \"#utility.yul\":11479:11480   */\n      0x00\n        /* \"#utility.yul\":11471:11477   */\n      dup3\n        /* \"#utility.yul\":11467:11481   */\n      add\n        /* \"#utility.yul\":11460:11507   */\n      mstore\n        /* \"#utility.yul\":11343:11514   */\n      pop\n      jump\t// out\n        /* \"#utility.yul\":11520:11886   */\n    tag_186:\n        /* \"#utility.yul\":11662:11665   */\n      0x00\n        /* \"#utility.yul\":11683:11750   */\n      tag_288\n        /* \"#utility.yul\":11747:11749   */\n      0x15\n        /* \"#utility.yul\":11742:11745   */\n      dup4\n        /* \"#utility.yul\":11683:11750   */\n      tag_170\n      jump\t// in\n    tag_288:\n        /* \"#utility.yul\":11676:11750   */\n      swap2\n      pop\n        /* \"#utility.yul\":11759:11852   */\n      tag_289\n        /* \"#utility.yul\":11848:11851   */\n      dup3\n        /* \"#utility.yul\":11759:11852   */\n      tag_185\n      jump\t// in\n    tag_289:\n        /* \"#utility.yul\":11877:11879   */\n      0x20\n        /* \"#utility.yul\":11872:11875   */\n      dup3\n        /* \"#utility.yul\":11868:11880   */\n      add\n        /* \"#utility.yul\":11861:11880   */\n      swap1\n      pop\n        /* \"#utility.yul\":11520:11886   */\n      swap2\n      swap1\n      pop\n      jump\t// out\n        /* \"#utility.yul\":11892:12311   */\n    tag_146:\n        /* \"#utility.yul\":12058:12062   */\n      0x00\n        /* \"#utility.yul\":12096:12098   */\n      0x20\n        /* \"#utility.yul\":12085:12094   */\n      dup3\n        /* \"#utility.yul\":12081:12099   */\n      add\n        /* \"#utility.yul\":12073:12099   */\n      swap1\n      pop\n        /* \"#utility.yul\":12145:12154   */\n      dup2\n        /* \"#utility.yul\":12139:12143   */\n      dup2\n        /* \"#utility.yul\":12135:12155   */\n      sub\n        /* \"#utility.yul\":12131:12132   */\n      0x00\n        /* \"#utility.yul\":12120:12129   */\n      dup4\n        /* \"#utility.yul\":12116:12133   */\n      add\n        /* \"#utility.yul\":12109:12156   */\n      mstore\n        /* \"#utility.yul\":12173:12304   */\n      tag_291\n        /* \"#utility.yul\":12299:12303   */\n      dup2\n        /* \"#utility.yul\":12173:12304   */\n      tag_186\n      jump\t// in\n    tag_291:\n        /* \"#utility.yul\":12165:12304   */\n      swap1\n      pop\n        /* \"#utility.yul\":11892:12311   */\n      swap2\n      swap1\n      pop\n      jump\t// out\n        /* \"#utility.yul\":12317:12508   */\n    tag_151:\n        /* \"#utility.yul\":12357:12361   */\n      0x00\n        /* \"#utility.yul\":12377:12397   */\n      tag_293\n        /* \"#utility.yul\":12395:12396   */\n      dup3\n        /* \"#utility.yul\":12377:12397   */\n      tag_159\n      jump\t// in\n    tag_293:\n        /* \"#utility.yul\":12372:12397   */\n      swap2\n      pop\n        /* \"#utility.yul\":12411:12431   */\n      tag_294\n        /* \"#utility.yul\":12429:12430   */\n      dup4\n        /* \"#utility.yul\":12411:12431   */\n      tag_159\n      jump\t// in\n    tag_294:\n        /* \"#utility.yul\":12406:12431   */\n      swap3\n      pop\n        /* \"#utility.yul\":12450:12451   */\n      dup3\n        /* \"#utility.yul\":12447:12448   */\n      dup3\n        /* \"#utility.yul\":12444:12452   */\n      lt\n        /* \"#utility.yul\":12441:12475   */\n      iszero\n      tag_295\n      jumpi\n        /* \"#utility.yul\":12455:12473   */\n      tag_296\n      tag_175\n      jump\t// in\n    tag_296:\n        /* \"#utility.yul\":12441:12475   */\n    tag_295:\n        /* \"#utility.yul\":12500:12501   */\n      dup3\n        /* \"#utility.yul\":12497:12498   */\n      dup3\n        /* \"#utility.yul\":12493:12502   */\n      sub\n        /* \"#utility.yul\":12485:12502   */\n      swap1\n      pop\n        /* \"#utility.yul\":12317:12508   */\n      swap3\n      swap2\n      pop\n      pop\n      jump\t// out\n\n    auxdata: 0xa2646970667358221220aa53415f4645c6eccccfe688fc7ebf670461a41a500069d867463f53fcb555ea64736f6c634300080d0033\n}\n",
				"bytecode": {
					"linkReferences": {},
					"object": "6080604052600260015534801561001557600080fd5b506000339080600181540180825580915050600190039060005260206000200160009091909190916101000a81548173ffffffffffffffffffffffffffffffffffffffff021916908373ffffffffffffffffffffffffffffffffffffffff1602179055506001600260003373ffffffffffffffffffffffffffffffffffffffff1673ffffffffffffffffffffffffffffffffffffffff16815260200190815260200160002060006101000a81548160ff021916908315150217905550600073ab8483f64d9c6d1ecf9b849ae677dd3315835cb29080600181540180825580915050600190039060005260206000200160009091909190916101000a81548173ffffffffffffffffffffffffffffffffffffffff021916908373ffffffffffffffffffffffffffffffffffffffff16021790555060016002600073ab8483f64d9c6d1ecf9b849ae677dd3315835cb273ffffffffffffffffffffffffffffffffffffffff1673ffffffffffffffffffffffffffffffffffffffff16815260200190815260200160002060006101000a81548160ff02191690831515021790555061146d806101c36000396000f3fe6080604052600436106100ab5760003560e01c8063d579b69611610064578063d579b69614610202578063ee22610b1461022b578063f19a668214610254578063f5358aa81461027d578063f9a7c0b1146102a8578063fc1983ab146102d1576100b2565b8063025e7c27146100b75780633349a734146100f457806351f22a721461011f57806360c8b28d1461015c5780639ace38c214610199578063d43c98bc146101d9576100b2565b366100b257005b600080fd5b3480156100c357600080fd5b506100de60048036038101906100d99190610e43565b6102fa565b6040516100eb9190610eb1565b60405180910390f35b34801561010057600080fd5b50610109610339565b6040516101169190610edb565b60405180910390f35b34801561012b57600080fd5b5061014660048036038101906101419190610f22565b61033f565b6040516101539190610f6a565b60405180910390f35b34801561016857600080fd5b50610183600480360381019061017e9190610f85565b61035f565b6040516101909190610f6a565b60405180910390f35b3480156101a557600080fd5b506101c060048036038101906101bb9190610e43565b61038e565b6040516101d09493929190610fc5565b60405180910390f35b3480156101e557600080fd5b5061020060048036038101906101fb9190610f22565b6103fb565b005b34801561020e57600080fd5b5061022960048036038101906102249190610e43565b61054c565b005b34801561023757600080fd5b50610252600480360381019061024d9190610e43565b61072c565b005b34801561026057600080fd5b5061027b6004803603810190610276919061100a565b610a05565b005b34801561028957600080fd5b50610292610b7f565b60405161029f9190610edb565b60405180910390f35b3480156102b457600080fd5b506102cf60048036038101906102ca9190610e43565b610b8b565b005b3480156102dd57600080fd5b506102f860048036038101906102f39190610e43565b610d6b565b005b6000818154811061030a57600080fd5b906000526020600020016000915054906101000a900473ffffffffffffffffffffffffffffffffffffffff1681565b60015481565b60026020528060005260406000206000915054906101000a900460ff1681565b60036020528160005260406000206020528060005260406000206000915091509054906101000a900460ff1681565b6004818154811061039e57600080fd5b90600052602060002090600402016000915090508060000160009054906101000a900473ffffffffffffffffffffffffffffffffffffffff16908060010154908060020160009054906101000a900460ff16908060030154905084565b60011515600260003373ffffffffffffffffffffffffffffffffffffffff1673ffffffffffffffffffffffffffffffffffffffff16815260200190815260200160002060009054906101000a900460ff1615151461048e576040517f08c379a0000000000000000000000000000000000000000000000000000000008152600401610485906110cd565b60405180910390fd5b6000819080600181540180825580915050600190039060005260206000200160009091909190916101000a81548173ffffffffffffffffffffffffffffffffffffffff021916908373ffffffffffffffffffffffffffffffffffffffff1602179055506001600260008373ffffffffffffffffffffffffffffffffffffffff1673ffffffffffffffffffffffffffffffffffffffff16815260200190815260200160002060006101000a81548160ff02191690831515021790555050565b60011515600260003373ffffffffffffffffffffffffffffffffffffffff1673ffffffffffffffffffffffffffffffffffffffff16815260200190815260200160002060009054906101000a900460ff161515146105df576040517f08c379a00000000000000000000000000000000000000000000000000000000081526004016105d6906110cd565b60405180910390fd5b600015156003600083815260200190815260200160002060003373ffffffffffffffffffffffffffffffffffffffff1673ffffffffffffffffffffffffffffffffffffffff16815260200190815260200160002060009054906101000a900460ff16151514610683576040517f08c379a000000000000000000000000000000000000000000000000000000000815260040161067a90611139565b60405180910390fd5b60016004828154811061069957610698611159565b5b906000526020600020906004020160030160008282546106b991906111b7565b9250508190555060016003600083815260200190815260200160002060003373ffffffffffffffffffffffffffffffffffffffff1673ffffffffffffffffffffffffffffffffffffffff16815260200190815260200160002060006101000a81548160ff02191690831515021790555050565b60011515600260003373ffffffffffffffffffffffffffffffffffffffff1673ffffffffffffffffffffffffffffffffffffffff16815260200190815260200160002060009054906101000a900460ff161515146107bf576040517f08c379a00000000000000000000000000000000000000000000000000000000081526004016107b6906110cd565b60405180910390fd5b600154600482815481106107d6576107d5611159565b5b9060005260206000209060040201600301541015610829576040517f08c379a000000000000000000000000000000000000000000000000000000000815260040161082090611259565b60405180910390fd5b600015156004828154811061084157610840611159565b5b906000526020600020906004020160020160009054906101000a900460ff161515146108a2576040517f08c379a0000000000000000000000000000000000000000000000000000000008152600401610899906112c5565b60405180910390fd5b6000600482815481106108b8576108b7611159565b5b906000526020600020906004020160000160009054906101000a900473ffffffffffffffffffffffffffffffffffffffff16905060008173ffffffffffffffffffffffffffffffffffffffff166004848154811061091957610918611159565b5b9060005260206000209060040201600101546113889060405161093b90611316565b600060405180830381858888f193505050503d8060008114610979576040519150601f19603f3d011682016040523d82523d6000602084013e61097e565b606091505b50509050806109c2576040517f08c379a00000000000000000000000000000000000000000000000000000000081526004016109b990611377565b60405180910390fd5b6001600484815481106109d8576109d7611159565b5b906000526020600020906004020160020160006101000a81548160ff021916908315150217905550505050565b60011515600260003373ffffffffffffffffffffffffffffffffffffffff1673ffffffffffffffffffffffffffffffffffffffff16815260200190815260200160002060009054906101000a900460ff16151514610a98576040517f08c379a0000000000000000000000000000000000000000000000000000000008152600401610a8f906110cd565b60405180910390fd5b600460405180608001604052808473ffffffffffffffffffffffffffffffffffffffff1681526020018381526020016000151581526020016000815250908060018154018082558091505060019003906000526020600020906004020160009091909190915060008201518160000160006101000a81548173ffffffffffffffffffffffffffffffffffffffff021916908373ffffffffffffffffffffffffffffffffffffffff1602179055506020820151816001015560408201518160020160006101000a81548160ff0219169083151502179055506060820151816003015550505050565b60008080549050905090565b60011515600260003373ffffffffffffffffffffffffffffffffffffffff1673ffffffffffffffffffffffffffffffffffffffff16815260200190815260200160002060009054906101000a900460ff16151514610c1e576040517f08c379a0000000000000000000000000000000000000000000000000000000008152600401610c15906110cd565b60405180910390fd5b600115156003600083815260200190815260200160002060003373ffffffffffffffffffffffffffffffffffffffff1673ffffffffffffffffffffffffffffffffffffffff16815260200190815260200160002060009054906101000a900460ff16151514610cc2576040517f08c379a0000000000000000000000000000000000000000000000000000000008152600401610cb9906113e3565b60405180910390fd5b600160048281548110610cd857610cd7611159565b5b90600052602060002090600402016003016000828254610cf89190611403565b9250508190555060006003600083815260200190815260200160002060003373ffffffffffffffffffffffffffffffffffffffff1673ffffffffffffffffffffffffffffffffffffffff16815260200190815260200160002060006101000a81548160ff02191690831515021790555050565b60011515600260003373ffffffffffffffffffffffffffffffffffffffff1673ffffffffffffffffffffffffffffffffffffffff16815260200190815260200160002060009054906101000a900460ff16151514610dfe576040517f08c379a0000000000000000000000000000000000000000000000000000000008152600401610df5906110cd565b60405180910390fd5b8060018190555050565b600080fd5b6000819050919050565b610e2081610e0d565b8114610e2b57600080fd5b50565b600081359050610e3d81610e17565b92915050565b600060208284031215610e5957610e58610e08565b5b6000610e6784828501610e2e565b91505092915050565b600073ffffffffffffffffffffffffffffffffffffffff82169050919050565b6000610e9b82610e70565b9050919050565b610eab81610e90565b82525050565b6000602082019050610ec66000830184610ea2565b92915050565b610ed581610e0d565b82525050565b6000602082019050610ef06000830184610ecc565b92915050565b610eff81610e90565b8114610f0a57600080fd5b50565b600081359050610f1c81610ef6565b92915050565b600060208284031215610f3857610f37610e08565b5b6000610f4684828501610f0d565b91505092915050565b60008115159050919050565b610f6481610f4f565b82525050565b6000602082019050610f7f6000830184610f5b565b92915050565b60008060408385031215610f9c57610f9b610e08565b5b6000610faa85828601610e2e565b9250506020610fbb85828601610f0d565b9150509250929050565b6000608082019050610fda6000830187610ea2565b610fe76020830186610ecc565b610ff46040830185610f5b565b6110016060830184610ecc565b95945050505050565b6000806040838503121561102157611020610e08565b5b600061102f85828601610f0d565b925050602061104085828601610e2e565b9150509250929050565b600082825260208201905092915050565b7f596f7572277265206e6f7420616e206f776e6572206f6620746869732077616c60008201527f6c65740000000000000000000000000000000000000000000000000000000000602082015250565b60006110b760238361104a565b91506110c28261105b565b604082019050919050565b600060208201905081810360008301526110e6816110aa565b9050919050565b7f596f7527766520616c726561647920766f746564000000000000000000000000600082015250565b600061112360148361104a565b915061112e826110ed565b602082019050919050565b6000602082019050818103600083015261115281611116565b9050919050565b7f4e487b7100000000000000000000000000000000000000000000000000000000600052603260045260246000fd5b7f4e487b7100000000000000000000000000000000000000000000000000000000600052601160045260246000fd5b60006111c282610e0d565b91506111cd83610e0d565b9250827fffffffffffffffffffffffffffffffffffffffffffffffffffffffffffffffff0382111561120257611201611188565b5b828201905092915050565b7f4e6f7420656e6f75676820617070726f76616c73000000000000000000000000600082015250565b600061124360148361104a565b915061124e8261120d565b602082019050919050565b6000602082019050818103600083015261127281611236565b9050919050565b7f416c726561647920766f74656400000000000000000000000000000000000000600082015250565b60006112af600d8361104a565b91506112ba82611279565b602082019050919050565b600060208201905081810360008301526112de816112a2565b9050919050565b600081905092915050565b50565b60006113006000836112e5565b915061130b826112f0565b600082019050919050565b6000611321826112f3565b9150819050919050565b7f596f7520646f6e2774206861766520656e6f75676820746f6b656e7300000000600082015250565b6000611361601c8361104a565b915061136c8261132b565b602082019050919050565b6000602082019050818103600083015261139081611354565b9050919050565b7f596f7520686176656e277420766f746564207965740000000000000000000000600082015250565b60006113cd60158361104a565b91506113d882611397565b602082019050919050565b600060208201905081810360008301526113fc816113c0565b9050919050565b600061140e82610e0d565b915061141983610e0d565b92508282101561142c5761142b611188565b5b82820390509291505056fea2646970667358221220aa53415f4645c6eccccfe688fc7ebf670461a41a500069d867463f53fcb555ea64736f6c634300080d0033",
					"opcodes": "PUSH1 0x80 PUSH1 0x40 MSTORE PUSH1 0x2 PUSH1 0x1 SSTORE CALLVALUE DUP1 ISZERO PUSH2 0x15 JUMPI PUSH1 0x0 DUP1 REVERT JUMPDEST POP PUSH1 0x0 CALLER SWAP1 DUP1 PUSH1 0x1 DUP2 SLOAD ADD DUP1 DUP3 SSTORE DUP1 SWAP2 POP POP PUSH1 0x1 SWAP1 SUB SWAP1 PUSH1 0x0 MSTORE PUSH1 0x20 PUSH1 0x0 KECCAK256 ADD PUSH1 0x0 SWAP1 SWAP2 SWAP1 SWAP2 SWAP1 SWAP2 PUSH2 0x100 EXP DUP2 SLOAD DUP2 PUSH20 0xFFFFFFFFFFFFFFFFFFFFFFFFFFFFFFFFFFFFFFFF MUL NOT AND SWAP1 DUP4 PUSH20 0xFFFFFFFFFFFFFFFFFFFFFFFFFFFFFFFFFFFFFFFF AND MUL OR SWAP1 SSTORE POP PUSH1 0x1 PUSH1 0x2 PUSH1 0x0 CALLER PUSH20 0xFFFFFFFFFFFFFFFFFFFFFFFFFFFFFFFFFFFFFFFF AND PUSH20 0xFFFFFFFFFFFFFFFFFFFFFFFFFFFFFFFFFFFFFFFF AND DUP2 MSTORE PUSH1 0x20 ADD SWAP1 DUP2 MSTORE PUSH1 0x20 ADD PUSH1 0x0 KECCAK256 PUSH1 0x0 PUSH2 0x100 EXP DUP2 SLOAD DUP2 PUSH1 0xFF MUL NOT AND SWAP1 DUP4 ISZERO ISZERO MUL OR SWAP1 SSTORE POP PUSH1 0x0 PUSH20 0xAB8483F64D9C6D1ECF9B849AE677DD3315835CB2 SWAP1 DUP1 PUSH1 0x1 DUP2 SLOAD ADD DUP1 DUP3 SSTORE DUP1 SWAP2 POP POP PUSH1 0x1 SWAP1 SUB SWAP1 PUSH1 0x0 MSTORE PUSH1 0x20 PUSH1 0x0 KECCAK256 ADD PUSH1 0x0 SWAP1 SWAP2 SWAP1 SWAP2 SWAP1 SWAP2 PUSH2 0x100 EXP DUP2 SLOAD DUP2 PUSH20 0xFFFFFFFFFFFFFFFFFFFFFFFFFFFFFFFFFFFFFFFF MUL NOT AND SWAP1 DUP4 PUSH20 0xFFFFFFFFFFFFFFFFFFFFFFFFFFFFFFFFFFFFFFFF AND MUL OR SWAP1 SSTORE POP PUSH1 0x1 PUSH1 0x2 PUSH1 0x0 PUSH20 0xAB8483F64D9C6D1ECF9B849AE677DD3315835CB2 PUSH20 0xFFFFFFFFFFFFFFFFFFFFFFFFFFFFFFFFFFFFFFFF AND PUSH20 0xFFFFFFFFFFFFFFFFFFFFFFFFFFFFFFFFFFFFFFFF AND DUP2 MSTORE PUSH1 0x20 ADD SWAP1 DUP2 MSTORE PUSH1 0x20 ADD PUSH1 0x0 KECCAK256 PUSH1 0x0 PUSH2 0x100 EXP DUP2 SLOAD DUP2 PUSH1 0xFF MUL NOT AND SWAP1 DUP4 ISZERO ISZERO MUL OR SWAP1 SSTORE POP PUSH2 0x146D DUP1 PUSH2 0x1C3 PUSH1 0x0 CODECOPY PUSH1 0x0 RETURN INVALID PUSH1 0x80 PUSH1 0x40 MSTORE PUSH1 0x4 CALLDATASIZE LT PUSH2 0xAB JUMPI PUSH1 0x0 CALLDATALOAD PUSH1 0xE0 SHR DUP1 PUSH4 0xD579B696 GT PUSH2 0x64 JUMPI DUP1 PUSH4 0xD579B696 EQ PUSH2 0x202 JUMPI DUP1 PUSH4 0xEE22610B EQ PUSH2 0x22B JUMPI DUP1 PUSH4 0xF19A6682 EQ PUSH2 0x254 JUMPI DUP1 PUSH4 0xF5358AA8 EQ PUSH2 0x27D JUMPI DUP1 PUSH4 0xF9A7C0B1 EQ PUSH2 0x2A8 JUMPI DUP1 PUSH4 0xFC1983AB EQ PUSH2 0x2D1 JUMPI PUSH2 0xB2 JUMP JUMPDEST DUP1 PUSH4 0x25E7C27 EQ PUSH2 0xB7 JUMPI DUP1 PUSH4 0x3349A734 EQ PUSH2 0xF4 JUMPI DUP1 PUSH4 0x51F22A72 EQ PUSH2 0x11F JUMPI DUP1 PUSH4 0x60C8B28D EQ PUSH2 0x15C JUMPI DUP1 PUSH4 0x9ACE38C2 EQ PUSH2 0x199 JUMPI DUP1 PUSH4 0xD43C98BC EQ PUSH2 0x1D9 JUMPI PUSH2 0xB2 JUMP JUMPDEST CALLDATASIZE PUSH2 0xB2 JUMPI STOP JUMPDEST PUSH1 0x0 DUP1 REVERT JUMPDEST CALLVALUE DUP1 ISZERO PUSH2 0xC3 JUMPI PUSH1 0x0 DUP1 REVERT JUMPDEST POP PUSH2 0xDE PUSH1 0x4 DUP1 CALLDATASIZE SUB DUP2 ADD SWAP1 PUSH2 0xD9 SWAP2 SWAP1 PUSH2 0xE43 JUMP JUMPDEST PUSH2 0x2FA JUMP JUMPDEST PUSH1 0x40 MLOAD PUSH2 0xEB SWAP2 SWAP1 PUSH2 0xEB1 JUMP JUMPDEST PUSH1 0x40 MLOAD DUP1 SWAP2 SUB SWAP1 RETURN JUMPDEST CALLVALUE DUP1 ISZERO PUSH2 0x100 JUMPI PUSH1 0x0 DUP1 REVERT JUMPDEST POP PUSH2 0x109 PUSH2 0x339 JUMP JUMPDEST PUSH1 0x40 MLOAD PUSH2 0x116 SWAP2 SWAP1 PUSH2 0xEDB JUMP JUMPDEST PUSH1 0x40 MLOAD DUP1 SWAP2 SUB SWAP1 RETURN JUMPDEST CALLVALUE DUP1 ISZERO PUSH2 0x12B JUMPI PUSH1 0x0 DUP1 REVERT JUMPDEST POP PUSH2 0x146 PUSH1 0x4 DUP1 CALLDATASIZE SUB DUP2 ADD SWAP1 PUSH2 0x141 SWAP2 SWAP1 PUSH2 0xF22 JUMP JUMPDEST PUSH2 0x33F JUMP JUMPDEST PUSH1 0x40 MLOAD PUSH2 0x153 SWAP2 SWAP1 PUSH2 0xF6A JUMP JUMPDEST PUSH1 0x40 MLOAD DUP1 SWAP2 SUB SWAP1 RETURN JUMPDEST CALLVALUE DUP1 ISZERO PUSH2 0x168 JUMPI PUSH1 0x0 DUP1 REVERT JUMPDEST POP PUSH2 0x183 PUSH1 0x4 DUP1 CALLDATASIZE SUB DUP2 ADD SWAP1 PUSH2 0x17E SWAP2 SWAP1 PUSH2 0xF85 JUMP JUMPDEST PUSH2 0x35F JUMP JUMPDEST PUSH1 0x40 MLOAD PUSH2 0x190 SWAP2 SWAP1 PUSH2 0xF6A JUMP JUMPDEST PUSH1 0x40 MLOAD DUP1 SWAP2 SUB SWAP1 RETURN JUMPDEST CALLVALUE DUP1 ISZERO PUSH2 0x1A5 JUMPI PUSH1 0x0 DUP1 REVERT JUMPDEST POP PUSH2 0x1C0 PUSH1 0x4 DUP1 CALLDATASIZE SUB DUP2 ADD SWAP1 PUSH2 0x1BB SWAP2 SWAP1 PUSH2 0xE43 JUMP JUMPDEST PUSH2 0x38E JUMP JUMPDEST PUSH1 0x40 MLOAD PUSH2 0x1D0 SWAP5 SWAP4 SWAP3 SWAP2 SWAP1 PUSH2 0xFC5 JUMP JUMPDEST PUSH1 0x40 MLOAD DUP1 SWAP2 SUB SWAP1 RETURN JUMPDEST CALLVALUE DUP1 ISZERO PUSH2 0x1E5 JUMPI PUSH1 0x0 DUP1 REVERT JUMPDEST POP PUSH2 0x200 PUSH1 0x4 DUP1 CALLDATASIZE SUB DUP2 ADD SWAP1 PUSH2 0x1FB SWAP2 SWAP1 PUSH2 0xF22 JUMP JUMPDEST PUSH2 0x3FB JUMP JUMPDEST STOP JUMPDEST CALLVALUE DUP1 ISZERO PUSH2 0x20E JUMPI PUSH1 0x0 DUP1 REVERT JUMPDEST POP PUSH2 0x229 PUSH1 0x4 DUP1 CALLDATASIZE SUB DUP2 ADD SWAP1 PUSH2 0x224 SWAP2 SWAP1 PUSH2 0xE43 JUMP JUMPDEST PUSH2 0x54C JUMP JUMPDEST STOP JUMPDEST CALLVALUE DUP1 ISZERO PUSH2 0x237 JUMPI PUSH1 0x0 DUP1 REVERT JUMPDEST POP PUSH2 0x252 PUSH1 0x4 DUP1 CALLDATASIZE SUB DUP2 ADD SWAP1 PUSH2 0x24D SWAP2 SWAP1 PUSH2 0xE43 JUMP JUMPDEST PUSH2 0x72C JUMP JUMPDEST STOP JUMPDEST CALLVALUE DUP1 ISZERO PUSH2 0x260 JUMPI PUSH1 0x0 DUP1 REVERT JUMPDEST POP PUSH2 0x27B PUSH1 0x4 DUP1 CALLDATASIZE SUB DUP2 ADD SWAP1 PUSH2 0x276 SWAP2 SWAP1 PUSH2 0x100A JUMP JUMPDEST PUSH2 0xA05 JUMP JUMPDEST STOP JUMPDEST CALLVALUE DUP1 ISZERO PUSH2 0x289 JUMPI PUSH1 0x0 DUP1 REVERT JUMPDEST POP PUSH2 0x292 PUSH2 0xB7F JUMP JUMPDEST PUSH1 0x40 MLOAD PUSH2 0x29F SWAP2 SWAP1 PUSH2 0xEDB JUMP JUMPDEST PUSH1 0x40 MLOAD DUP1 SWAP2 SUB SWAP1 RETURN JUMPDEST CALLVALUE DUP1 ISZERO PUSH2 0x2B4 JUMPI PUSH1 0x0 DUP1 REVERT JUMPDEST POP PUSH2 0x2CF PUSH1 0x4 DUP1 CALLDATASIZE SUB DUP2 ADD SWAP1 PUSH2 0x2CA SWAP2 SWAP1 PUSH2 0xE43 JUMP JUMPDEST PUSH2 0xB8B JUMP JUMPDEST STOP JUMPDEST CALLVALUE DUP1 ISZERO PUSH2 0x2DD JUMPI PUSH1 0x0 DUP1 REVERT JUMPDEST POP PUSH2 0x2F8 PUSH1 0x4 DUP1 CALLDATASIZE SUB DUP2 ADD SWAP1 PUSH2 0x2F3 SWAP2 SWAP1 PUSH2 0xE43 JUMP JUMPDEST PUSH2 0xD6B JUMP JUMPDEST STOP JUMPDEST PUSH1 0x0 DUP2 DUP2 SLOAD DUP2 LT PUSH2 0x30A JUMPI PUSH1 0x0 DUP1 REVERT JUMPDEST SWAP1 PUSH1 0x0 MSTORE PUSH1 0x20 PUSH1 0x0 KECCAK256 ADD PUSH1 0x0 SWAP2 POP SLOAD SWAP1 PUSH2 0x100 EXP SWAP1 DIV PUSH20 0xFFFFFFFFFFFFFFFFFFFFFFFFFFFFFFFFFFFFFFFF AND DUP2 JUMP JUMPDEST PUSH1 0x1 SLOAD DUP2 JUMP JUMPDEST PUSH1 0x2 PUSH1 0x20 MSTORE DUP1 PUSH1 0x0 MSTORE PUSH1 0x40 PUSH1 0x0 KECCAK256 PUSH1 0x0 SWAP2 POP SLOAD SWAP1 PUSH2 0x100 EXP SWAP1 DIV PUSH1 0xFF AND DUP2 JUMP JUMPDEST PUSH1 0x3 PUSH1 0x20 MSTORE DUP2 PUSH1 0x0 MSTORE PUSH1 0x40 PUSH1 0x0 KECCAK256 PUSH1 0x20 MSTORE DUP1 PUSH1 0x0 MSTORE PUSH1 0x40 PUSH1 0x0 KECCAK256 PUSH1 0x0 SWAP2 POP SWAP2 POP SWAP1 SLOAD SWAP1 PUSH2 0x100 EXP SWAP1 DIV PUSH1 0xFF AND DUP2 JUMP JUMPDEST PUSH1 0x4 DUP2 DUP2 SLOAD DUP2 LT PUSH2 0x39E JUMPI PUSH1 0x0 DUP1 REVERT JUMPDEST SWAP1 PUSH1 0x0 MSTORE PUSH1 0x20 PUSH1 0x0 KECCAK256 SWAP1 PUSH1 0x4 MUL ADD PUSH1 0x0 SWAP2 POP SWAP1 POP DUP1 PUSH1 0x0 ADD PUSH1 0x0 SWAP1 SLOAD SWAP1 PUSH2 0x100 EXP SWAP1 DIV PUSH20 0xFFFFFFFFFFFFFFFFFFFFFFFFFFFFFFFFFFFFFFFF AND SWAP1 DUP1 PUSH1 0x1 ADD SLOAD SWAP1 DUP1 PUSH1 0x2 ADD PUSH1 0x0 SWAP1 SLOAD SWAP1 PUSH2 0x100 EXP SWAP1 DIV PUSH1 0xFF AND SWAP1 DUP1 PUSH1 0x3 ADD SLOAD SWAP1 POP DUP5 JUMP JUMPDEST PUSH1 0x1 ISZERO ISZERO PUSH1 0x2 PUSH1 0x0 CALLER PUSH20 0xFFFFFFFFFFFFFFFFFFFFFFFFFFFFFFFFFFFFFFFF AND PUSH20 0xFFFFFFFFFFFFFFFFFFFFFFFFFFFFFFFFFFFFFFFF AND DUP2 MSTORE PUSH1 0x20 ADD SWAP1 DUP2 MSTORE PUSH1 0x20 ADD PUSH1 0x0 KECCAK256 PUSH1 0x0 SWAP1 SLOAD SWAP1 PUSH2 0x100 EXP SWAP1 DIV PUSH1 0xFF AND ISZERO ISZERO EQ PUSH2 0x48E JUMPI PUSH1 0x40 MLOAD PUSH32 0x8C379A000000000000000000000000000000000000000000000000000000000 DUP2 MSTORE PUSH1 0x4 ADD PUSH2 0x485 SWAP1 PUSH2 0x10CD JUMP JUMPDEST PUSH1 0x40 MLOAD DUP1 SWAP2 SUB SWAP1 REVERT JUMPDEST PUSH1 0x0 DUP2 SWAP1 DUP1 PUSH1 0x1 DUP2 SLOAD ADD DUP1 DUP3 SSTORE DUP1 SWAP2 POP POP PUSH1 0x1 SWAP1 SUB SWAP1 PUSH1 0x0 MSTORE PUSH1 0x20 PUSH1 0x0 KECCAK256 ADD PUSH1 0x0 SWAP1 SWAP2 SWAP1 SWAP2 SWAP1 SWAP2 PUSH2 0x100 EXP DUP2 SLOAD DUP2 PUSH20 0xFFFFFFFFFFFFFFFFFFFFFFFFFFFFFFFFFFFFFFFF MUL NOT AND SWAP1 DUP4 PUSH20 0xFFFFFFFFFFFFFFFFFFFFFFFFFFFFFFFFFFFFFFFF AND MUL OR SWAP1 SSTORE POP PUSH1 0x1 PUSH1 0x2 PUSH1 0x0 DUP4 PUSH20 0xFFFFFFFFFFFFFFFFFFFFFFFFFFFFFFFFFFFFFFFF AND PUSH20 0xFFFFFFFFFFFFFFFFFFFFFFFFFFFFFFFFFFFFFFFF AND DUP2 MSTORE PUSH1 0x20 ADD SWAP1 DUP2 MSTORE PUSH1 0x20 ADD PUSH1 0x0 KECCAK256 PUSH1 0x0 PUSH2 0x100 EXP DUP2 SLOAD DUP2 PUSH1 0xFF MUL NOT AND SWAP1 DUP4 ISZERO ISZERO MUL OR SWAP1 SSTORE POP POP JUMP JUMPDEST PUSH1 0x1 ISZERO ISZERO PUSH1 0x2 PUSH1 0x0 CALLER PUSH20 0xFFFFFFFFFFFFFFFFFFFFFFFFFFFFFFFFFFFFFFFF AND PUSH20 0xFFFFFFFFFFFFFFFFFFFFFFFFFFFFFFFFFFFFFFFF AND DUP2 MSTORE PUSH1 0x20 ADD SWAP1 DUP2 MSTORE PUSH1 0x20 ADD PUSH1 0x0 KECCAK256 PUSH1 0x0 SWAP1 SLOAD SWAP1 PUSH2 0x100 EXP SWAP1 DIV PUSH1 0xFF AND ISZERO ISZERO EQ PUSH2 0x5DF JUMPI PUSH1 0x40 MLOAD PUSH32 0x8C379A000000000000000000000000000000000000000000000000000000000 DUP2 MSTORE PUSH1 0x4 ADD PUSH2 0x5D6 SWAP1 PUSH2 0x10CD JUMP JUMPDEST PUSH1 0x40 MLOAD DUP1 SWAP2 SUB SWAP1 REVERT JUMPDEST PUSH1 0x0 ISZERO ISZERO PUSH1 0x3 PUSH1 0x0 DUP4 DUP2 MSTORE PUSH1 0x20 ADD SWAP1 DUP2 MSTORE PUSH1 0x20 ADD PUSH1 0x0 KECCAK256 PUSH1 0x0 CALLER PUSH20 0xFFFFFFFFFFFFFFFFFFFFFFFFFFFFFFFFFFFFFFFF AND PUSH20 0xFFFFFFFFFFFFFFFFFFFFFFFFFFFFFFFFFFFFFFFF AND DUP2 MSTORE PUSH1 0x20 ADD SWAP1 DUP2 MSTORE PUSH1 0x20 ADD PUSH1 0x0 KECCAK256 PUSH1 0x0 SWAP1 SLOAD SWAP1 PUSH2 0x100 EXP SWAP1 DIV PUSH1 0xFF AND ISZERO ISZERO EQ PUSH2 0x683 JUMPI PUSH1 0x40 MLOAD PUSH32 0x8C379A000000000000000000000000000000000000000000000000000000000 DUP2 MSTORE PUSH1 0x4 ADD PUSH2 0x67A SWAP1 PUSH2 0x1139 JUMP JUMPDEST PUSH1 0x40 MLOAD DUP1 SWAP2 SUB SWAP1 REVERT JUMPDEST PUSH1 0x1 PUSH1 0x4 DUP3 DUP2 SLOAD DUP2 LT PUSH2 0x699 JUMPI PUSH2 0x698 PUSH2 0x1159 JUMP JUMPDEST JUMPDEST SWAP1 PUSH1 0x0 MSTORE PUSH1 0x20 PUSH1 0x0 KECCAK256 SWAP1 PUSH1 0x4 MUL ADD PUSH1 0x3 ADD PUSH1 0x0 DUP3 DUP3 SLOAD PUSH2 0x6B9 SWAP2 SWAP1 PUSH2 0x11B7 JUMP JUMPDEST SWAP3 POP POP DUP2 SWAP1 SSTORE POP PUSH1 0x1 PUSH1 0x3 PUSH1 0x0 DUP4 DUP2 MSTORE PUSH1 0x20 ADD SWAP1 DUP2 MSTORE PUSH1 0x20 ADD PUSH1 0x0 KECCAK256 PUSH1 0x0 CALLER PUSH20 0xFFFFFFFFFFFFFFFFFFFFFFFFFFFFFFFFFFFFFFFF AND PUSH20 0xFFFFFFFFFFFFFFFFFFFFFFFFFFFFFFFFFFFFFFFF AND DUP2 MSTORE PUSH1 0x20 ADD SWAP1 DUP2 MSTORE PUSH1 0x20 ADD PUSH1 0x0 KECCAK256 PUSH1 0x0 PUSH2 0x100 EXP DUP2 SLOAD DUP2 PUSH1 0xFF MUL NOT AND SWAP1 DUP4 ISZERO ISZERO MUL OR SWAP1 SSTORE POP POP JUMP JUMPDEST PUSH1 0x1 ISZERO ISZERO PUSH1 0x2 PUSH1 0x0 CALLER PUSH20 0xFFFFFFFFFFFFFFFFFFFFFFFFFFFFFFFFFFFFFFFF AND PUSH20 0xFFFFFFFFFFFFFFFFFFFFFFFFFFFFFFFFFFFFFFFF AND DUP2 MSTORE PUSH1 0x20 ADD SWAP1 DUP2 MSTORE PUSH1 0x20 ADD PUSH1 0x0 KECCAK256 PUSH1 0x0 SWAP1 SLOAD SWAP1 PUSH2 0x100 EXP SWAP1 DIV PUSH1 0xFF AND ISZERO ISZERO EQ PUSH2 0x7BF JUMPI PUSH1 0x40 MLOAD PUSH32 0x8C379A000000000000000000000000000000000000000000000000000000000 DUP2 MSTORE PUSH1 0x4 ADD PUSH2 0x7B6 SWAP1 PUSH2 0x10CD JUMP JUMPDEST PUSH1 0x40 MLOAD DUP1 SWAP2 SUB SWAP1 REVERT JUMPDEST PUSH1 0x1 SLOAD PUSH1 0x4 DUP3 DUP2 SLOAD DUP2 LT PUSH2 0x7D6 JUMPI PUSH2 0x7D5 PUSH2 0x1159 JUMP JUMPDEST JUMPDEST SWAP1 PUSH1 0x0 MSTORE PUSH1 0x20 PUSH1 0x0 KECCAK256 SWAP1 PUSH1 0x4 MUL ADD PUSH1 0x3 ADD SLOAD LT ISZERO PUSH2 0x829 JUMPI PUSH1 0x40 MLOAD PUSH32 0x8C379A000000000000000000000000000000000000000000000000000000000 DUP2 MSTORE PUSH1 0x4 ADD PUSH2 0x820 SWAP1 PUSH2 0x1259 JUMP JUMPDEST PUSH1 0x40 MLOAD DUP1 SWAP2 SUB SWAP1 REVERT JUMPDEST PUSH1 0x0 ISZERO ISZERO PUSH1 0x4 DUP3 DUP2 SLOAD DUP2 LT PUSH2 0x841 JUMPI PUSH2 0x840 PUSH2 0x1159 JUMP JUMPDEST JUMPDEST SWAP1 PUSH1 0x0 MSTORE PUSH1 0x20 PUSH1 0x0 KECCAK256 SWAP1 PUSH1 0x4 MUL ADD PUSH1 0x2 ADD PUSH1 0x0 SWAP1 SLOAD SWAP1 PUSH2 0x100 EXP SWAP1 DIV PUSH1 0xFF AND ISZERO ISZERO EQ PUSH2 0x8A2 JUMPI PUSH1 0x40 MLOAD PUSH32 0x8C379A000000000000000000000000000000000000000000000000000000000 DUP2 MSTORE PUSH1 0x4 ADD PUSH2 0x899 SWAP1 PUSH2 0x12C5 JUMP JUMPDEST PUSH1 0x40 MLOAD DUP1 SWAP2 SUB SWAP1 REVERT JUMPDEST PUSH1 0x0 PUSH1 0x4 DUP3 DUP2 SLOAD DUP2 LT PUSH2 0x8B8 JUMPI PUSH2 0x8B7 PUSH2 0x1159 JUMP JUMPDEST JUMPDEST SWAP1 PUSH1 0x0 MSTORE PUSH1 0x20 PUSH1 0x0 KECCAK256 SWAP1 PUSH1 0x4 MUL ADD PUSH1 0x0 ADD PUSH1 0x0 SWAP1 SLOAD SWAP1 PUSH2 0x100 EXP SWAP1 DIV PUSH20 0xFFFFFFFFFFFFFFFFFFFFFFFFFFFFFFFFFFFFFFFF AND SWAP1 POP PUSH1 0x0 DUP2 PUSH20 0xFFFFFFFFFFFFFFFFFFFFFFFFFFFFFFFFFFFFFFFF AND PUSH1 0x4 DUP5 DUP2 SLOAD DUP2 LT PUSH2 0x919 JUMPI PUSH2 0x918 PUSH2 0x1159 JUMP JUMPDEST JUMPDEST SWAP1 PUSH1 0x0 MSTORE PUSH1 0x20 PUSH1 0x0 KECCAK256 SWAP1 PUSH1 0x4 MUL ADD PUSH1 0x1 ADD SLOAD PUSH2 0x1388 SWAP1 PUSH1 0x40 MLOAD PUSH2 0x93B SWAP1 PUSH2 0x1316 JUMP JUMPDEST PUSH1 0x0 PUSH1 0x40 MLOAD DUP1 DUP4 SUB DUP2 DUP6 DUP9 DUP9 CALL SWAP4 POP POP POP POP RETURNDATASIZE DUP1 PUSH1 0x0 DUP2 EQ PUSH2 0x979 JUMPI PUSH1 0x40 MLOAD SWAP2 POP PUSH1 0x1F NOT PUSH1 0x3F RETURNDATASIZE ADD AND DUP3 ADD PUSH1 0x40 MSTORE RETURNDATASIZE DUP3 MSTORE RETURNDATASIZE PUSH1 0x0 PUSH1 0x20 DUP5 ADD RETURNDATACOPY PUSH2 0x97E JUMP JUMPDEST PUSH1 0x60 SWAP2 POP JUMPDEST POP POP SWAP1 POP DUP1 PUSH2 0x9C2 JUMPI PUSH1 0x40 MLOAD PUSH32 0x8C379A000000000000000000000000000000000000000000000000000000000 DUP2 MSTORE PUSH1 0x4 ADD PUSH2 0x9B9 SWAP1 PUSH2 0x1377 JUMP JUMPDEST PUSH1 0x40 MLOAD DUP1 SWAP2 SUB SWAP1 REVERT JUMPDEST PUSH1 0x1 PUSH1 0x4 DUP5 DUP2 SLOAD DUP2 LT PUSH2 0x9D8 JUMPI PUSH2 0x9D7 PUSH2 0x1159 JUMP JUMPDEST JUMPDEST SWAP1 PUSH1 0x0 MSTORE PUSH1 0x20 PUSH1 0x0 KECCAK256 SWAP1 PUSH1 0x4 MUL ADD PUSH1 0x2 ADD PUSH1 0x0 PUSH2 0x100 EXP DUP2 SLOAD DUP2 PUSH1 0xFF MUL NOT AND SWAP1 DUP4 ISZERO ISZERO MUL OR SWAP1 SSTORE POP POP POP POP JUMP JUMPDEST PUSH1 0x1 ISZERO ISZERO PUSH1 0x2 PUSH1 0x0 CALLER PUSH20 0xFFFFFFFFFFFFFFFFFFFFFFFFFFFFFFFFFFFFFFFF AND PUSH20 0xFFFFFFFFFFFFFFFFFFFFFFFFFFFFFFFFFFFFFFFF AND DUP2 MSTORE PUSH1 0x20 ADD SWAP1 DUP2 MSTORE PUSH1 0x20 ADD PUSH1 0x0 KECCAK256 PUSH1 0x0 SWAP1 SLOAD SWAP1 PUSH2 0x100 EXP SWAP1 DIV PUSH1 0xFF AND ISZERO ISZERO EQ PUSH2 0xA98 JUMPI PUSH1 0x40 MLOAD PUSH32 0x8C379A000000000000000000000000000000000000000000000000000000000 DUP2 MSTORE PUSH1 0x4 ADD PUSH2 0xA8F SWAP1 PUSH2 0x10CD JUMP JUMPDEST PUSH1 0x40 MLOAD DUP1 SWAP2 SUB SWAP1 REVERT JUMPDEST PUSH1 0x4 PUSH1 0x40 MLOAD DUP1 PUSH1 0x80 ADD PUSH1 0x40 MSTORE DUP1 DUP5 PUSH20 0xFFFFFFFFFFFFFFFFFFFFFFFFFFFFFFFFFFFFFFFF AND DUP2 MSTORE PUSH1 0x20 ADD DUP4 DUP2 MSTORE PUSH1 0x20 ADD PUSH1 0x0 ISZERO ISZERO DUP2 MSTORE PUSH1 0x20 ADD PUSH1 0x0 DUP2 MSTORE POP SWAP1 DUP1 PUSH1 0x1 DUP2 SLOAD ADD DUP1 DUP3 SSTORE DUP1 SWAP2 POP POP PUSH1 0x1 SWAP1 SUB SWAP1 PUSH1 0x0 MSTORE PUSH1 0x20 PUSH1 0x0 KECCAK256 SWAP1 PUSH1 0x4 MUL ADD PUSH1 0x0 SWAP1 SWAP2 SWAP1 SWAP2 SWAP1 SWAP2 POP PUSH1 0x0 DUP3 ADD MLOAD DUP2 PUSH1 0x0 ADD PUSH1 0x0 PUSH2 0x100 EXP DUP2 SLOAD DUP2 PUSH20 0xFFFFFFFFFFFFFFFFFFFFFFFFFFFFFFFFFFFFFFFF MUL NOT AND SWAP1 DUP4 PUSH20 0xFFFFFFFFFFFFFFFFFFFFFFFFFFFFFFFFFFFFFFFF AND MUL OR SWAP1 SSTORE POP PUSH1 0x20 DUP3 ADD MLOAD DUP2 PUSH1 0x1 ADD SSTORE PUSH1 0x40 DUP3 ADD MLOAD DUP2 PUSH1 0x2 ADD PUSH1 0x0 PUSH2 0x100 EXP DUP2 SLOAD DUP2 PUSH1 0xFF MUL NOT AND SWAP1 DUP4 ISZERO ISZERO MUL OR SWAP1 SSTORE POP PUSH1 0x60 DUP3 ADD MLOAD DUP2 PUSH1 0x3 ADD SSTORE POP POP POP POP JUMP JUMPDEST PUSH1 0x0 DUP1 DUP1 SLOAD SWAP1 POP SWAP1 POP SWAP1 JUMP JUMPDEST PUSH1 0x1 ISZERO ISZERO PUSH1 0x2 PUSH1 0x0 CALLER PUSH20 0xFFFFFFFFFFFFFFFFFFFFFFFFFFFFFFFFFFFFFFFF AND PUSH20 0xFFFFFFFFFFFFFFFFFFFFFFFFFFFFFFFFFFFFFFFF AND DUP2 MSTORE PUSH1 0x20 ADD SWAP1 DUP2 MSTORE PUSH1 0x20 ADD PUSH1 0x0 KECCAK256 PUSH1 0x0 SWAP1 SLOAD SWAP1 PUSH2 0x100 EXP SWAP1 DIV PUSH1 0xFF AND ISZERO ISZERO EQ PUSH2 0xC1E JUMPI PUSH1 0x40 MLOAD PUSH32 0x8C379A000000000000000000000000000000000000000000000000000000000 DUP2 MSTORE PUSH1 0x4 ADD PUSH2 0xC15 SWAP1 PUSH2 0x10CD JUMP JUMPDEST PUSH1 0x40 MLOAD DUP1 SWAP2 SUB SWAP1 REVERT JUMPDEST PUSH1 0x1 ISZERO ISZERO PUSH1 0x3 PUSH1 0x0 DUP4 DUP2 MSTORE PUSH1 0x20 ADD SWAP1 DUP2 MSTORE PUSH1 0x20 ADD PUSH1 0x0 KECCAK256 PUSH1 0x0 CALLER PUSH20 0xFFFFFFFFFFFFFFFFFFFFFFFFFFFFFFFFFFFFFFFF AND PUSH20 0xFFFFFFFFFFFFFFFFFFFFFFFFFFFFFFFFFFFFFFFF AND DUP2 MSTORE PUSH1 0x20 ADD SWAP1 DUP2 MSTORE PUSH1 0x20 ADD PUSH1 0x0 KECCAK256 PUSH1 0x0 SWAP1 SLOAD SWAP1 PUSH2 0x100 EXP SWAP1 DIV PUSH1 0xFF AND ISZERO ISZERO EQ PUSH2 0xCC2 JUMPI PUSH1 0x40 MLOAD PUSH32 0x8C379A000000000000000000000000000000000000000000000000000000000 DUP2 MSTORE PUSH1 0x4 ADD PUSH2 0xCB9 SWAP1 PUSH2 0x13E3 JUMP JUMPDEST PUSH1 0x40 MLOAD DUP1 SWAP2 SUB SWAP1 REVERT JUMPDEST PUSH1 0x1 PUSH1 0x4 DUP3 DUP2 SLOAD DUP2 LT PUSH2 0xCD8 JUMPI PUSH2 0xCD7 PUSH2 0x1159 JUMP JUMPDEST JUMPDEST SWAP1 PUSH1 0x0 MSTORE PUSH1 0x20 PUSH1 0x0 KECCAK256 SWAP1 PUSH1 0x4 MUL ADD PUSH1 0x3 ADD PUSH1 0x0 DUP3 DUP3 SLOAD PUSH2 0xCF8 SWAP2 SWAP1 PUSH2 0x1403 JUMP JUMPDEST SWAP3 POP POP DUP2 SWAP1 SSTORE POP PUSH1 0x0 PUSH1 0x3 PUSH1 0x0 DUP4 DUP2 MSTORE PUSH1 0x20 ADD SWAP1 DUP2 MSTORE PUSH1 0x20 ADD PUSH1 0x0 KECCAK256 PUSH1 0x0 CALLER PUSH20 0xFFFFFFFFFFFFFFFFFFFFFFFFFFFFFFFFFFFFFFFF AND PUSH20 0xFFFFFFFFFFFFFFFFFFFFFFFFFFFFFFFFFFFFFFFF AND DUP2 MSTORE PUSH1 0x20 ADD SWAP1 DUP2 MSTORE PUSH1 0x20 ADD PUSH1 0x0 KECCAK256 PUSH1 0x0 PUSH2 0x100 EXP DUP2 SLOAD DUP2 PUSH1 0xFF MUL NOT AND SWAP1 DUP4 ISZERO ISZERO MUL OR SWAP1 SSTORE POP POP JUMP JUMPDEST PUSH1 0x1 ISZERO ISZERO PUSH1 0x2 PUSH1 0x0 CALLER PUSH20 0xFFFFFFFFFFFFFFFFFFFFFFFFFFFFFFFFFFFFFFFF AND PUSH20 0xFFFFFFFFFFFFFFFFFFFFFFFFFFFFFFFFFFFFFFFF AND DUP2 MSTORE PUSH1 0x20 ADD SWAP1 DUP2 MSTORE PUSH1 0x20 ADD PUSH1 0x0 KECCAK256 PUSH1 0x0 SWAP1 SLOAD SWAP1 PUSH2 0x100 EXP SWAP1 DIV PUSH1 0xFF AND ISZERO ISZERO EQ PUSH2 0xDFE JUMPI PUSH1 0x40 MLOAD PUSH32 0x8C379A000000000000000000000000000000000000000000000000000000000 DUP2 MSTORE PUSH1 0x4 ADD PUSH2 0xDF5 SWAP1 PUSH2 0x10CD JUMP JUMPDEST PUSH1 0x40 MLOAD DUP1 SWAP2 SUB SWAP1 REVERT JUMPDEST DUP1 PUSH1 0x1 DUP2 SWAP1 SSTORE POP POP JUMP JUMPDEST PUSH1 0x0 DUP1 REVERT JUMPDEST PUSH1 0x0 DUP2 SWAP1 POP SWAP2 SWAP1 POP JUMP JUMPDEST PUSH2 0xE20 DUP2 PUSH2 0xE0D JUMP JUMPDEST DUP2 EQ PUSH2 0xE2B JUMPI PUSH1 0x0 DUP1 REVERT JUMPDEST POP JUMP JUMPDEST PUSH1 0x0 DUP2 CALLDATALOAD SWAP1 POP PUSH2 0xE3D DUP2 PUSH2 0xE17 JUMP JUMPDEST SWAP3 SWAP2 POP POP JUMP JUMPDEST PUSH1 0x0 PUSH1 0x20 DUP3 DUP5 SUB SLT ISZERO PUSH2 0xE59 JUMPI PUSH2 0xE58 PUSH2 0xE08 JUMP JUMPDEST JUMPDEST PUSH1 0x0 PUSH2 0xE67 DUP5 DUP3 DUP6 ADD PUSH2 0xE2E JUMP JUMPDEST SWAP2 POP POP SWAP3 SWAP2 POP POP JUMP JUMPDEST PUSH1 0x0 PUSH20 0xFFFFFFFFFFFFFFFFFFFFFFFFFFFFFFFFFFFFFFFF DUP3 AND SWAP1 POP SWAP2 SWAP1 POP JUMP JUMPDEST PUSH1 0x0 PUSH2 0xE9B DUP3 PUSH2 0xE70 JUMP JUMPDEST SWAP1 POP SWAP2 SWAP1 POP JUMP JUMPDEST PUSH2 0xEAB DUP2 PUSH2 0xE90 JUMP JUMPDEST DUP3 MSTORE POP POP JUMP JUMPDEST PUSH1 0x0 PUSH1 0x20 DUP3 ADD SWAP1 POP PUSH2 0xEC6 PUSH1 0x0 DUP4 ADD DUP5 PUSH2 0xEA2 JUMP JUMPDEST SWAP3 SWAP2 POP POP JUMP JUMPDEST PUSH2 0xED5 DUP2 PUSH2 0xE0D JUMP JUMPDEST DUP3 MSTORE POP POP JUMP JUMPDEST PUSH1 0x0 PUSH1 0x20 DUP3 ADD SWAP1 POP PUSH2 0xEF0 PUSH1 0x0 DUP4 ADD DUP5 PUSH2 0xECC JUMP JUMPDEST SWAP3 SWAP2 POP POP JUMP JUMPDEST PUSH2 0xEFF DUP2 PUSH2 0xE90 JUMP JUMPDEST DUP2 EQ PUSH2 0xF0A JUMPI PUSH1 0x0 DUP1 REVERT JUMPDEST POP JUMP JUMPDEST PUSH1 0x0 DUP2 CALLDATALOAD SWAP1 POP PUSH2 0xF1C DUP2 PUSH2 0xEF6 JUMP JUMPDEST SWAP3 SWAP2 POP POP JUMP JUMPDEST PUSH1 0x0 PUSH1 0x20 DUP3 DUP5 SUB SLT ISZERO PUSH2 0xF38 JUMPI PUSH2 0xF37 PUSH2 0xE08 JUMP JUMPDEST JUMPDEST PUSH1 0x0 PUSH2 0xF46 DUP5 DUP3 DUP6 ADD PUSH2 0xF0D JUMP JUMPDEST SWAP2 POP POP SWAP3 SWAP2 POP POP JUMP JUMPDEST PUSH1 0x0 DUP2 ISZERO ISZERO SWAP1 POP SWAP2 SWAP1 POP JUMP JUMPDEST PUSH2 0xF64 DUP2 PUSH2 0xF4F JUMP JUMPDEST DUP3 MSTORE POP POP JUMP JUMPDEST PUSH1 0x0 PUSH1 0x20 DUP3 ADD SWAP1 POP PUSH2 0xF7F PUSH1 0x0 DUP4 ADD DUP5 PUSH2 0xF5B JUMP JUMPDEST SWAP3 SWAP2 POP POP JUMP JUMPDEST PUSH1 0x0 DUP1 PUSH1 0x40 DUP4 DUP6 SUB SLT ISZERO PUSH2 0xF9C JUMPI PUSH2 0xF9B PUSH2 0xE08 JUMP JUMPDEST JUMPDEST PUSH1 0x0 PUSH2 0xFAA DUP6 DUP3 DUP7 ADD PUSH2 0xE2E JUMP JUMPDEST SWAP3 POP POP PUSH1 0x20 PUSH2 0xFBB DUP6 DUP3 DUP7 ADD PUSH2 0xF0D JUMP JUMPDEST SWAP2 POP POP SWAP3 POP SWAP3 SWAP1 POP JUMP JUMPDEST PUSH1 0x0 PUSH1 0x80 DUP3 ADD SWAP1 POP PUSH2 0xFDA PUSH1 0x0 DUP4 ADD DUP8 PUSH2 0xEA2 JUMP JUMPDEST PUSH2 0xFE7 PUSH1 0x20 DUP4 ADD DUP7 PUSH2 0xECC JUMP JUMPDEST PUSH2 0xFF4 PUSH1 0x40 DUP4 ADD DUP6 PUSH2 0xF5B JUMP JUMPDEST PUSH2 0x1001 PUSH1 0x60 DUP4 ADD DUP5 PUSH2 0xECC JUMP JUMPDEST SWAP6 SWAP5 POP POP POP POP POP JUMP JUMPDEST PUSH1 0x0 DUP1 PUSH1 0x40 DUP4 DUP6 SUB SLT ISZERO PUSH2 0x1021 JUMPI PUSH2 0x1020 PUSH2 0xE08 JUMP JUMPDEST JUMPDEST PUSH1 0x0 PUSH2 0x102F DUP6 DUP3 DUP7 ADD PUSH2 0xF0D JUMP JUMPDEST SWAP3 POP POP PUSH1 0x20 PUSH2 0x1040 DUP6 DUP3 DUP7 ADD PUSH2 0xE2E JUMP JUMPDEST SWAP2 POP POP SWAP3 POP SWAP3 SWAP1 POP JUMP JUMPDEST PUSH1 0x0 DUP3 DUP3 MSTORE PUSH1 0x20 DUP3 ADD SWAP1 POP SWAP3 SWAP2 POP POP JUMP JUMPDEST PUSH32 0x596F7572277265206E6F7420616E206F776E6572206F6620746869732077616C PUSH1 0x0 DUP3 ADD MSTORE PUSH32 0x6C65740000000000000000000000000000000000000000000000000000000000 PUSH1 0x20 DUP3 ADD MSTORE POP JUMP JUMPDEST PUSH1 0x0 PUSH2 0x10B7 PUSH1 0x23 DUP4 PUSH2 0x104A JUMP JUMPDEST SWAP2 POP PUSH2 0x10C2 DUP3 PUSH2 0x105B JUMP JUMPDEST PUSH1 0x40 DUP3 ADD SWAP1 POP SWAP2 SWAP1 POP JUMP JUMPDEST PUSH1 0x0 PUSH1 0x20 DUP3 ADD SWAP1 POP DUP2 DUP2 SUB PUSH1 0x0 DUP4 ADD MSTORE PUSH2 0x10E6 DUP2 PUSH2 0x10AA JUMP JUMPDEST SWAP1 POP SWAP2 SWAP1 POP JUMP JUMPDEST PUSH32 0x596F7527766520616C726561647920766F746564000000000000000000000000 PUSH1 0x0 DUP3 ADD MSTORE POP JUMP JUMPDEST PUSH1 0x0 PUSH2 0x1123 PUSH1 0x14 DUP4 PUSH2 0x104A JUMP JUMPDEST SWAP2 POP PUSH2 0x112E DUP3 PUSH2 0x10ED JUMP JUMPDEST PUSH1 0x20 DUP3 ADD SWAP1 POP SWAP2 SWAP1 POP JUMP JUMPDEST PUSH1 0x0 PUSH1 0x20 DUP3 ADD SWAP1 POP DUP2 DUP2 SUB PUSH1 0x0 DUP4 ADD MSTORE PUSH2 0x1152 DUP2 PUSH2 0x1116 JUMP JUMPDEST SWAP1 POP SWAP2 SWAP1 POP JUMP JUMPDEST PUSH32 0x4E487B7100000000000000000000000000000000000000000000000000000000 PUSH1 0x0 MSTORE PUSH1 0x32 PUSH1 0x4 MSTORE PUSH1 0x24 PUSH1 0x0 REVERT JUMPDEST PUSH32 0x4E487B7100000000000000000000000000000000000000000000000000000000 PUSH1 0x0 MSTORE PUSH1 0x11 PUSH1 0x4 MSTORE PUSH1 0x24 PUSH1 0x0 REVERT JUMPDEST PUSH1 0x0 PUSH2 0x11C2 DUP3 PUSH2 0xE0D JUMP JUMPDEST SWAP2 POP PUSH2 0x11CD DUP4 PUSH2 0xE0D JUMP JUMPDEST SWAP3 POP DUP3 PUSH32 0xFFFFFFFFFFFFFFFFFFFFFFFFFFFFFFFFFFFFFFFFFFFFFFFFFFFFFFFFFFFFFFFF SUB DUP3 GT ISZERO PUSH2 0x1202 JUMPI PUSH2 0x1201 PUSH2 0x1188 JUMP JUMPDEST JUMPDEST DUP3 DUP3 ADD SWAP1 POP SWAP3 SWAP2 POP POP JUMP JUMPDEST PUSH32 0x4E6F7420656E6F75676820617070726F76616C73000000000000000000000000 PUSH1 0x0 DUP3 ADD MSTORE POP JUMP JUMPDEST PUSH1 0x0 PUSH2 0x1243 PUSH1 0x14 DUP4 PUSH2 0x104A JUMP JUMPDEST SWAP2 POP PUSH2 0x124E DUP3 PUSH2 0x120D JUMP JUMPDEST PUSH1 0x20 DUP3 ADD SWAP1 POP SWAP2 SWAP1 POP JUMP JUMPDEST PUSH1 0x0 PUSH1 0x20 DUP3 ADD SWAP1 POP DUP2 DUP2 SUB PUSH1 0x0 DUP4 ADD MSTORE PUSH2 0x1272 DUP2 PUSH2 0x1236 JUMP JUMPDEST SWAP1 POP SWAP2 SWAP1 POP JUMP JUMPDEST PUSH32 0x416C726561647920766F74656400000000000000000000000000000000000000 PUSH1 0x0 DUP3 ADD MSTORE POP JUMP JUMPDEST PUSH1 0x0 PUSH2 0x12AF PUSH1 0xD DUP4 PUSH2 0x104A JUMP JUMPDEST SWAP2 POP PUSH2 0x12BA DUP3 PUSH2 0x1279 JUMP JUMPDEST PUSH1 0x20 DUP3 ADD SWAP1 POP SWAP2 SWAP1 POP JUMP JUMPDEST PUSH1 0x0 PUSH1 0x20 DUP3 ADD SWAP1 POP DUP2 DUP2 SUB PUSH1 0x0 DUP4 ADD MSTORE PUSH2 0x12DE DUP2 PUSH2 0x12A2 JUMP JUMPDEST SWAP1 POP SWAP2 SWAP1 POP JUMP JUMPDEST PUSH1 0x0 DUP2 SWAP1 POP SWAP3 SWAP2 POP POP JUMP JUMPDEST POP JUMP JUMPDEST PUSH1 0x0 PUSH2 0x1300 PUSH1 0x0 DUP4 PUSH2 0x12E5 JUMP JUMPDEST SWAP2 POP PUSH2 0x130B DUP3 PUSH2 0x12F0 JUMP JUMPDEST PUSH1 0x0 DUP3 ADD SWAP1 POP SWAP2 SWAP1 POP JUMP JUMPDEST PUSH1 0x0 PUSH2 0x1321 DUP3 PUSH2 0x12F3 JUMP JUMPDEST SWAP2 POP DUP2 SWAP1 POP SWAP2 SWAP1 POP JUMP JUMPDEST PUSH32 0x596F7520646F6E2774206861766520656E6F75676820746F6B656E7300000000 PUSH1 0x0 DUP3 ADD MSTORE POP JUMP JUMPDEST PUSH1 0x0 PUSH2 0x1361 PUSH1 0x1C DUP4 PUSH2 0x104A JUMP JUMPDEST SWAP2 POP PUSH2 0x136C DUP3 PUSH2 0x132B JUMP JUMPDEST PUSH1 0x20 DUP3 ADD SWAP1 POP SWAP2 SWAP1 POP JUMP JUMPDEST PUSH1 0x0 PUSH1 0x20 DUP3 ADD SWAP1 POP DUP2 DUP2 SUB PUSH1 0x0 DUP4 ADD MSTORE PUSH2 0x1390 DUP2 PUSH2 0x1354 JUMP JUMPDEST SWAP1 POP SWAP2 SWAP1 POP JUMP JUMPDEST PUSH32 0x596F7520686176656E277420766F746564207965740000000000000000000000 PUSH1 0x0 DUP3 ADD MSTORE POP JUMP JUMPDEST PUSH1 0x0 PUSH2 0x13CD PUSH1 0x15 DUP4 PUSH2 0x104A JUMP JUMPDEST SWAP2 POP PUSH2 0x13D8 DUP3 PUSH2 0x1397 JUMP JUMPDEST PUSH1 0x20 DUP3 ADD SWAP1 POP SWAP2 SWAP1 POP JUMP JUMPDEST PUSH1 0x0 PUSH1 0x20 DUP3 ADD SWAP1 POP DUP2 DUP2 SUB PUSH1 0x0 DUP4 ADD MSTORE PUSH2 0x13FC DUP2 PUSH2 0x13C0 JUMP JUMPDEST SWAP1 POP SWAP2 SWAP1 POP JUMP JUMPDEST PUSH1 0x0 PUSH2 0x140E DUP3 PUSH2 0xE0D JUMP JUMPDEST SWAP2 POP PUSH2 0x1419 DUP4 PUSH2 0xE0D JUMP JUMPDEST SWAP3 POP DUP3 DUP3 LT ISZERO PUSH2 0x142C JUMPI PUSH2 0x142B PUSH2 0x1188 JUMP JUMPDEST JUMPDEST DUP3 DUP3 SUB SWAP1 POP SWAP3 SWAP2 POP POP JUMP INVALID LOG2 PUSH5 0x6970667358 0x22 SLT KECCAK256 0xAA MSTORE8 COINBASE 0x5F CHAINID GASLIMIT 0xC6 0xEC 0xCC 0xCF 0xE6 DUP9 0xFC PUSH31 0xBF670461A41A500069D867463F53FCB555EA64736F6C634300080D00330000 "
				},
				"gasEstimates": {
					"creation": {
						"codeDepositCost": "1045800",
						"executionCost": "169063",
						"totalCost": "1214863"
					},
					"external": {
						"addAddressToOwners(address)": "75762",
						"alreadyVoted(uint256,address)": "3154",
						"approvalsNeeded()": "2452",
						"executeTransaction(uint256)": "infinite",
						"numberOfVotesRequire(uint256)": "24890",
						"ownerList(address)": "2890",
						"ownerListLength()": "2511",
						"owners(uint256)": "4957",
						"proposeTransaction(address,uint256)": "103080",
						"revokeOnTransaction(uint256)": "infinite",
						"transactions(uint256)": "infinite",
						"voteOnTransaction(uint256)": "infinite"
					}
				},
				"methodIdentifiers": {
					"addAddressToOwners(address)": "d43c98bc",
					"alreadyVoted(uint256,address)": "60c8b28d",
					"approvalsNeeded()": "3349a734",
					"executeTransaction(uint256)": "ee22610b",
					"numberOfVotesRequire(uint256)": "fc1983ab",
					"ownerList(address)": "51f22a72",
					"ownerListLength()": "f5358aa8",
					"owners(uint256)": "025e7c27",
					"proposeTransaction(address,uint256)": "f19a6682",
					"revokeOnTransaction(uint256)": "f9a7c0b1",
					"transactions(uint256)": "9ace38c2",
					"voteOnTransaction(uint256)": "d579b696"
				}
			},
			"storageLayout": {
				"storage": [
					{
						"astId": 4,
						"contract": "bootcamp/week3/day_4_multiSigWallet.sol:multiSigLesson",
						"label": "owners",
						"offset": 0,
						"slot": "0",
						"type": "t_array(t_address)dyn_storage"
					},
					{
						"astId": 7,
						"contract": "bootcamp/week3/day_4_multiSigWallet.sol:multiSigLesson",
						"label": "approvalsNeeded",
						"offset": 0,
						"slot": "1",
						"type": "t_uint256"
					},
					{
						"astId": 11,
						"contract": "bootcamp/week3/day_4_multiSigWallet.sol:multiSigLesson",
						"label": "ownerList",
						"offset": 0,
						"slot": "2",
						"type": "t_mapping(t_address,t_bool)"
					},
					{
						"astId": 17,
						"contract": "bootcamp/week3/day_4_multiSigWallet.sol:multiSigLesson",
						"label": "alreadyVoted",
						"offset": 0,
						"slot": "3",
						"type": "t_mapping(t_uint256,t_mapping(t_address,t_bool))"
					},
					{
						"astId": 78,
						"contract": "bootcamp/week3/day_4_multiSigWallet.sol:multiSigLesson",
						"label": "transactions",
						"offset": 0,
						"slot": "4",
						"type": "t_array(t_struct(Transaction)74_storage)dyn_storage"
					}
				],
				"types": {
					"t_address": {
						"encoding": "inplace",
						"label": "address",
						"numberOfBytes": "20"
					},
					"t_array(t_address)dyn_storage": {
						"base": "t_address",
						"encoding": "dynamic_array",
						"label": "address[]",
						"numberOfBytes": "32"
					},
					"t_array(t_struct(Transaction)74_storage)dyn_storage": {
						"base": "t_struct(Transaction)74_storage",
						"encoding": "dynamic_array",
						"label": "struct multiSigLesson.Transaction[]",
						"numberOfBytes": "32"
					},
					"t_bool": {
						"encoding": "inplace",
						"label": "bool",
						"numberOfBytes": "1"
					},
					"t_mapping(t_address,t_bool)": {
						"encoding": "mapping",
						"key": "t_address",
						"label": "mapping(address => bool)",
						"numberOfBytes": "32",
						"value": "t_bool"
					},
					"t_mapping(t_uint256,t_mapping(t_address,t_bool))": {
						"encoding": "mapping",
						"key": "t_uint256",
						"label": "mapping(uint256 => mapping(address => bool))",
						"numberOfBytes": "32",
						"value": "t_mapping(t_address,t_bool)"
					},
					"t_struct(Transaction)74_storage": {
						"encoding": "inplace",
						"label": "struct multiSigLesson.Transaction",
						"members": [
							{
								"astId": 67,
								"contract": "bootcamp/week3/day_4_multiSigWallet.sol:multiSigLesson",
								"label": "sendingTo",
								"offset": 0,
								"slot": "0",
								"type": "t_address"
							},
							{
								"astId": 69,
								"contract": "bootcamp/week3/day_4_multiSigWallet.sol:multiSigLesson",
								"label": "value",
								"offset": 0,
								"slot": "1",
								"type": "t_uint256"
							},
							{
								"astId": 71,
								"contract": "bootcamp/week3/day_4_multiSigWallet.sol:multiSigLesson",
								"label": "alreadyExecuted",
								"offset": 0,
								"slot": "2",
								"type": "t_bool"
							},
							{
								"astId": 73,
								"contract": "bootcamp/week3/day_4_multiSigWallet.sol:multiSigLesson",
								"label": "approvals",
								"offset": 0,
								"slot": "3",
								"type": "t_uint256"
							}
						],
						"numberOfBytes": "128"
					},
					"t_uint256": {
						"encoding": "inplace",
						"label": "uint256",
						"numberOfBytes": "32"
					}
				}
			},
			"userdoc": {
				"kind": "user",
				"methods": {},
				"version": 1
			}
		}
	}
}