{
	"bootcamp/week3/day_1_create_token.sol": {
		"token": {
			"abi": [
				{
					"inputs": [],
					"stateMutability": "payable",
					"type": "constructor"
				},
				{
					"anonymous": false,
					"inputs": [
						{
							"indexed": true,
							"internalType": "address",
							"name": "owner",
							"type": "address"
						},
						{
							"indexed": true,
							"internalType": "address",
							"name": "spender",
							"type": "address"
						},
						{
							"indexed": false,
							"internalType": "uint256",
							"name": "value",
							"type": "uint256"
						}
					],
					"name": "Approval",
					"type": "event"
				},
				{
					"anonymous": false,
					"inputs": [
						{
							"indexed": true,
							"internalType": "address",
							"name": "from",
							"type": "address"
						},
						{
							"indexed": true,
							"internalType": "address",
							"name": "to",
							"type": "address"
						},
						{
							"indexed": false,
							"internalType": "uint256",
							"name": "value",
							"type": "uint256"
						}
					],
					"name": "Transfer",
					"type": "event"
				},
				{
					"inputs": [
						{
							"internalType": "address",
							"name": "owner",
							"type": "address"
						},
						{
							"internalType": "address",
							"name": "spender",
							"type": "address"
						}
					],
					"name": "allowance",
					"outputs": [
						{
							"internalType": "uint256",
							"name": "",
							"type": "uint256"
						}
					],
					"stateMutability": "view",
					"type": "function"
				},
				{
					"inputs": [
						{
							"internalType": "address",
							"name": "spender",
							"type": "address"
						},
						{
							"internalType": "uint256",
							"name": "amount",
							"type": "uint256"
						}
					],
					"name": "approve",
					"outputs": [
						{
							"internalType": "bool",
							"name": "",
							"type": "bool"
						}
					],
					"stateMutability": "nonpayable",
					"type": "function"
				},
				{
					"inputs": [
						{
							"internalType": "address",
							"name": "account",
							"type": "address"
						}
					],
					"name": "balanceOf",
					"outputs": [
						{
							"internalType": "uint256",
							"name": "",
							"type": "uint256"
						}
					],
					"stateMutability": "view",
					"type": "function"
				},
				{
					"inputs": [
						{
							"internalType": "address",
							"name": "",
							"type": "address"
						}
					],
					"name": "balances",
					"outputs": [
						{
							"internalType": "uint256",
							"name": "",
							"type": "uint256"
						}
					],
					"stateMutability": "view",
					"type": "function"
				},
				{
					"inputs": [
						{
							"internalType": "uint256",
							"name": "amount",
							"type": "uint256"
						}
					],
					"name": "burnAndAdd",
					"outputs": [],
					"stateMutability": "nonpayable",
					"type": "function"
				},
				{
					"inputs": [
						{
							"internalType": "address",
							"name": "_address",
							"type": "address"
						}
					],
					"name": "burned",
					"outputs": [
						{
							"internalType": "uint256",
							"name": "",
							"type": "uint256"
						}
					],
					"stateMutability": "view",
					"type": "function"
				},
				{
					"inputs": [],
					"name": "decimals",
					"outputs": [
						{
							"internalType": "uint8",
							"name": "",
							"type": "uint8"
						}
					],
					"stateMutability": "view",
					"type": "function"
				},
				{
					"inputs": [
						{
							"internalType": "address",
							"name": "spender",
							"type": "address"
						},
						{
							"internalType": "uint256",
							"name": "subtractedValue",
							"type": "uint256"
						}
					],
					"name": "decreaseAllowance",
					"outputs": [
						{
							"internalType": "bool",
							"name": "",
							"type": "bool"
						}
					],
					"stateMutability": "nonpayable",
					"type": "function"
				},
				{
					"inputs": [
						{
							"internalType": "address",
							"name": "spender",
							"type": "address"
						},
						{
							"internalType": "uint256",
							"name": "addedValue",
							"type": "uint256"
						}
					],
					"name": "increaseAllowance",
					"outputs": [
						{
							"internalType": "bool",
							"name": "",
							"type": "bool"
						}
					],
					"stateMutability": "nonpayable",
					"type": "function"
				},
				{
					"inputs": [
						{
							"internalType": "uint256",
							"name": "amount",
							"type": "uint256"
						}
					],
					"name": "mintNewTokens",
					"outputs": [],
					"stateMutability": "nonpayable",
					"type": "function"
				},
				{
					"inputs": [],
					"name": "name",
					"outputs": [
						{
							"internalType": "string",
							"name": "",
							"type": "string"
						}
					],
					"stateMutability": "view",
					"type": "function"
				},
				{
					"inputs": [],
					"name": "owner",
					"outputs": [
						{
							"internalType": "address",
							"name": "",
							"type": "address"
						}
					],
					"stateMutability": "view",
					"type": "function"
				},
				{
					"inputs": [],
					"name": "symbol",
					"outputs": [
						{
							"internalType": "string",
							"name": "",
							"type": "string"
						}
					],
					"stateMutability": "view",
					"type": "function"
				},
				{
					"inputs": [],
					"name": "totalSupply",
					"outputs": [
						{
							"internalType": "uint256",
							"name": "",
							"type": "uint256"
						}
					],
					"stateMutability": "view",
					"type": "function"
				},
				{
					"inputs": [
						{
							"internalType": "address",
							"name": "to",
							"type": "address"
						},
						{
							"internalType": "uint256",
							"name": "amount",
							"type": "uint256"
						}
					],
					"name": "transfer",
					"outputs": [
						{
							"internalType": "bool",
							"name": "",
							"type": "bool"
						}
					],
					"stateMutability": "nonpayable",
					"type": "function"
				},
				{
					"inputs": [
						{
							"internalType": "address",
							"name": "from",
							"type": "address"
						},
						{
							"internalType": "address",
							"name": "to",
							"type": "address"
						},
						{
							"internalType": "uint256",
							"name": "amount",
							"type": "uint256"
						}
					],
					"name": "transferFrom",
					"outputs": [
						{
							"internalType": "bool",
							"name": "",
							"type": "bool"
						}
					],
					"stateMutability": "nonpayable",
					"type": "function"
				},
				{
					"inputs": [],
					"name": "win",
					"outputs": [],
					"stateMutability": "nonpayable",
					"type": "function"
				}
			],
			"devdoc": {
				"kind": "dev",
				"methods": {
					"allowance(address,address)": {
						"details": "See {IERC20-allowance}."
					},
					"approve(address,uint256)": {
						"details": "See {IERC20-approve}. NOTE: If `amount` is the maximum `uint256`, the allowance is not updated on `transferFrom`. This is semantically equivalent to an infinite approval. Requirements: - `spender` cannot be the zero address."
					},
					"balanceOf(address)": {
						"details": "See {IERC20-balanceOf}."
					},
					"decimals()": {
						"details": "Returns the number of decimals used to get its user representation. For example, if `decimals` equals `2`, a balance of `505` tokens should be displayed to a user as `5.05` (`505 / 10 ** 2`). Tokens usually opt for a value of 18, imitating the relationship between Ether and Wei. This is the value {ERC20} uses, unless this function is overridden; NOTE: This information is only used for _display_ purposes: it in no way affects any of the arithmetic of the contract, including {IERC20-balanceOf} and {IERC20-transfer}."
					},
					"decreaseAllowance(address,uint256)": {
						"details": "Atomically decreases the allowance granted to `spender` by the caller. This is an alternative to {approve} that can be used as a mitigation for problems described in {IERC20-approve}. Emits an {Approval} event indicating the updated allowance. Requirements: - `spender` cannot be the zero address. - `spender` must have allowance for the caller of at least `subtractedValue`."
					},
					"increaseAllowance(address,uint256)": {
						"details": "Atomically increases the allowance granted to `spender` by the caller. This is an alternative to {approve} that can be used as a mitigation for problems described in {IERC20-approve}. Emits an {Approval} event indicating the updated allowance. Requirements: - `spender` cannot be the zero address."
					},
					"name()": {
						"details": "Returns the name of the token."
					},
					"symbol()": {
						"details": "Returns the symbol of the token, usually a shorter version of the name."
					},
					"totalSupply()": {
						"details": "See {IERC20-totalSupply}."
					},
					"transfer(address,uint256)": {
						"details": "See {IERC20-transfer}. Requirements: - `to` cannot be the zero address. - the caller must have a balance of at least `amount`."
					},
					"transferFrom(address,address,uint256)": {
						"details": "See {IERC20-transferFrom}. Emits an {Approval} event indicating the updated allowance. This is not required by the EIP. See the note at the beginning of {ERC20}. NOTE: Does not update the allowance if the current allowance is the maximum `uint256`. Requirements: - `from` and `to` cannot be the zero address. - `from` must have a balance of at least `amount`. - the caller must have allowance for ``from``'s tokens of at least `amount`."
					}
				},
				"version": 1
			},
			"evm": {
				"assembly": "    /* \"bootcamp/week3/day_1_create_token.sol\":114:1052  contract token is ERC20 (\"WBCTEST\", \"WBCT\") {... */\n  mstore(0x40, 0x80)\n    /* \"@openzeppelin/contracts/token/ERC20/ERC20.sol\":1976:2089  constructor(string memory name_, string memory symbol_) {... */\n  mload(0x40)\n  dup1\n  0x40\n  add\n  0x40\n  mstore\n  dup1\n  0x07\n  dup2\n  mstore\n  0x20\n  add\n  0x5742435445535400000000000000000000000000000000000000000000000000\n  dup2\n  mstore\n  pop\n  mload(0x40)\n  dup1\n  0x40\n  add\n  0x40\n  mstore\n  dup1\n  0x04\n  dup2\n  mstore\n  0x20\n  add\n  0x5742435400000000000000000000000000000000000000000000000000000000\n  dup2\n  mstore\n  pop\n    /* \"@openzeppelin/contracts/token/ERC20/ERC20.sol\":2050:2055  name_ */\n  dup2\n    /* \"@openzeppelin/contracts/token/ERC20/ERC20.sol\":2042:2047  _name */\n  0x03\n    /* \"@openzeppelin/contracts/token/ERC20/ERC20.sol\":2042:2055  _name = name_ */\n  swap1\n  dup1\n  mload\n  swap1\n  0x20\n  add\n  swap1\n  tag_4\n  swap3\n  swap2\n  swap1\n  tag_5\n  jump\t// in\ntag_4:\n  pop\n    /* \"@openzeppelin/contracts/token/ERC20/ERC20.sol\":2075:2082  symbol_ */\n  dup1\n    /* \"@openzeppelin/contracts/token/ERC20/ERC20.sol\":2065:2072  _symbol */\n  0x04\n    /* \"@openzeppelin/contracts/token/ERC20/ERC20.sol\":2065:2082  _symbol = symbol_ */\n  swap1\n  dup1\n  mload\n  swap1\n  0x20\n  add\n  swap1\n  tag_6\n  swap3\n  swap2\n  swap1\n  tag_5\n  jump\t// in\ntag_6:\n  pop\n    /* \"@openzeppelin/contracts/token/ERC20/ERC20.sol\":1976:2089  constructor(string memory name_, string memory symbol_) {... */\n  pop\n  pop\n    /* \"bootcamp/week3/day_1_create_token.sol\":280:290  msg.sender */\n  caller\n    /* \"bootcamp/week3/day_1_create_token.sol\":272:277  owner */\n  0x06\n  0x00\n    /* \"bootcamp/week3/day_1_create_token.sol\":272:290  owner = msg.sender */\n  0x0100\n  exp\n  dup2\n  sload\n  dup2\n  0xffffffffffffffffffffffffffffffffffffffff\n  mul\n  not\n  and\n  swap1\n  dup4\n  0xffffffffffffffffffffffffffffffffffffffff\n  and\n  mul\n  or\n  swap1\n  sstore\n  pop\n    /* \"bootcamp/week3/day_1_create_token.sol\":114:1052  contract token is ERC20 (\"WBCTEST\", \"WBCT\") {... */\n  jump(tag_8)\ntag_5:\n  dup3\n  dup1\n  sload\n  tag_9\n  swap1\n  tag_10\n  jump\t// in\ntag_9:\n  swap1\n  0x00\n  mstore\n  keccak256(0x00, 0x20)\n  swap1\n  0x1f\n  add\n  0x20\n  swap1\n  div\n  dup2\n  add\n  swap3\n  dup3\n  tag_12\n  jumpi\n  0x00\n  dup6\n  sstore\n  jump(tag_11)\ntag_12:\n  dup3\n  0x1f\n  lt\n  tag_13\n  jumpi\n  dup1\n  mload\n  not(0xff)\n  and\n  dup4\n  dup1\n  add\n  or\n  dup6\n  sstore\n  jump(tag_11)\ntag_13:\n  dup3\n  dup1\n  add\n  0x01\n  add\n  dup6\n  sstore\n  dup3\n  iszero\n  tag_11\n  jumpi\n  swap2\n  dup3\n  add\ntag_14:\n  dup3\n  dup2\n  gt\n  iszero\n  tag_15\n  jumpi\n  dup3\n  mload\n  dup3\n  sstore\n  swap2\n  0x20\n  add\n  swap2\n  swap1\n  0x01\n  add\n  swap1\n  jump(tag_14)\ntag_15:\ntag_11:\n  pop\n  swap1\n  pop\n  tag_16\n  swap2\n  swap1\n  tag_17\n  jump\t// in\ntag_16:\n  pop\n  swap1\n  jump\t// out\ntag_17:\ntag_18:\n  dup1\n  dup3\n  gt\n  iszero\n  tag_19\n  jumpi\n  0x00\n  dup2\n  0x00\n  swap1\n  sstore\n  pop\n  0x01\n  add\n  jump(tag_18)\ntag_19:\n  pop\n  swap1\n  jump\t// out\n    /* \"#utility.yul\":7:187   */\ntag_20:\n    /* \"#utility.yul\":55:132   */\n  0x4e487b7100000000000000000000000000000000000000000000000000000000\n    /* \"#utility.yul\":52:53   */\n  0x00\n    /* \"#utility.yul\":45:133   */\n  mstore\n    /* \"#utility.yul\":152:156   */\n  0x22\n    /* \"#utility.yul\":149:150   */\n  0x04\n    /* \"#utility.yul\":142:157   */\n  mstore\n    /* \"#utility.yul\":176:180   */\n  0x24\n    /* \"#utility.yul\":173:174   */\n  0x00\n    /* \"#utility.yul\":166:181   */\n  revert\n    /* \"#utility.yul\":193:513   */\ntag_10:\n    /* \"#utility.yul\":237:243   */\n  0x00\n    /* \"#utility.yul\":274:275   */\n  0x02\n    /* \"#utility.yul\":268:272   */\n  dup3\n    /* \"#utility.yul\":264:276   */\n  div\n    /* \"#utility.yul\":254:276   */\n  swap1\n  pop\n    /* \"#utility.yul\":321:322   */\n  0x01\n    /* \"#utility.yul\":315:319   */\n  dup3\n    /* \"#utility.yul\":311:323   */\n  and\n    /* \"#utility.yul\":342:360   */\n  dup1\n    /* \"#utility.yul\":332:413   */\n  tag_24\n  jumpi\n    /* \"#utility.yul\":398:402   */\n  0x7f\n    /* \"#utility.yul\":390:396   */\n  dup3\n    /* \"#utility.yul\":386:403   */\n  and\n    /* \"#utility.yul\":376:403   */\n  swap2\n  pop\n    /* \"#utility.yul\":332:413   */\ntag_24:\n    /* \"#utility.yul\":460:462   */\n  0x20\n    /* \"#utility.yul\":452:458   */\n  dup3\n    /* \"#utility.yul\":449:463   */\n  lt\n    /* \"#utility.yul\":429:447   */\n  dup2\n    /* \"#utility.yul\":426:464   */\n  sub\n    /* \"#utility.yul\":423:507   */\n  tag_25\n  jumpi\n    /* \"#utility.yul\":479:497   */\n  tag_26\n  tag_20\n  jump\t// in\ntag_26:\n    /* \"#utility.yul\":423:507   */\ntag_25:\n    /* \"#utility.yul\":244:513   */\n  pop\n    /* \"#utility.yul\":193:513   */\n  swap2\n  swap1\n  pop\n  jump\t// out\n    /* \"bootcamp/week3/day_1_create_token.sol\":114:1052  contract token is ERC20 (\"WBCTEST\", \"WBCT\") {... */\ntag_8:\n  dataSize(sub_0)\n  dup1\n  dataOffset(sub_0)\n  0x00\n  codecopy\n  0x00\n  return\nstop\n\nsub_0: assembly {\n        /* \"bootcamp/week3/day_1_create_token.sol\":114:1052  contract token is ERC20 (\"WBCTEST\", \"WBCT\") {... */\n      mstore(0x40, 0x80)\n      callvalue\n      dup1\n      iszero\n      tag_1\n      jumpi\n      0x00\n      dup1\n      revert\n    tag_1:\n      pop\n      jumpi(tag_2, lt(calldatasize, 0x04))\n      shr(0xe0, calldataload(0x00))\n      dup1\n      0x473ca96c\n      gt\n      tag_20\n      jumpi\n      dup1\n      0xa457c2d7\n      gt\n      tag_21\n      jumpi\n      dup1\n      0xa457c2d7\n      eq\n      tag_15\n      jumpi\n      dup1\n      0xa7509b83\n      eq\n      tag_16\n      jumpi\n      dup1\n      0xa9059cbb\n      eq\n      tag_17\n      jumpi\n      dup1\n      0xb76a8cca\n      eq\n      tag_18\n      jumpi\n      dup1\n      0xdd62ed3e\n      eq\n      tag_19\n      jumpi\n      jump(tag_2)\n    tag_21:\n      dup1\n      0x473ca96c\n      eq\n      tag_11\n      jumpi\n      dup1\n      0x70a08231\n      eq\n      tag_12\n      jumpi\n      dup1\n      0x8da5cb5b\n      eq\n      tag_13\n      jumpi\n      dup1\n      0x95d89b41\n      eq\n      tag_14\n      jumpi\n      jump(tag_2)\n    tag_20:\n      dup1\n      0x27e235e3\n      gt\n      tag_22\n      jumpi\n      dup1\n      0x27e235e3\n      eq\n      tag_7\n      jumpi\n      dup1\n      0x310c6226\n      eq\n      tag_8\n      jumpi\n      dup1\n      0x313ce567\n      eq\n      tag_9\n      jumpi\n      dup1\n      0x39509351\n      eq\n      tag_10\n      jumpi\n      jump(tag_2)\n    tag_22:\n      dup1\n      0x06fdde03\n      eq\n      tag_3\n      jumpi\n      dup1\n      0x095ea7b3\n      eq\n      tag_4\n      jumpi\n      dup1\n      0x18160ddd\n      eq\n      tag_5\n      jumpi\n      dup1\n      0x23b872dd\n      eq\n      tag_6\n      jumpi\n    tag_2:\n      0x00\n      dup1\n      revert\n        /* \"@openzeppelin/contracts/token/ERC20/ERC20.sol\":2154:2252  function name() public view virtual override returns (string memory) {... */\n    tag_3:\n      tag_23\n      tag_24\n      jump\t// in\n    tag_23:\n      mload(0x40)\n      tag_25\n      swap2\n      swap1\n      tag_26\n      jump\t// in\n    tag_25:\n      mload(0x40)\n      dup1\n      swap2\n      sub\n      swap1\n      return\n        /* \"@openzeppelin/contracts/token/ERC20/ERC20.sol\":4431:4628  function approve(address spender, uint256 amount) public virtual override returns (bool) {... */\n    tag_4:\n      tag_27\n      0x04\n      dup1\n      calldatasize\n      sub\n      dup2\n      add\n      swap1\n      tag_28\n      swap2\n      swap1\n      tag_29\n      jump\t// in\n    tag_28:\n      tag_30\n      jump\t// in\n    tag_27:\n      mload(0x40)\n      tag_31\n      swap2\n      swap1\n      tag_32\n      jump\t// in\n    tag_31:\n      mload(0x40)\n      dup1\n      swap2\n      sub\n      swap1\n      return\n        /* \"@openzeppelin/contracts/token/ERC20/ERC20.sol\":3242:3348  function totalSupply() public view virtual override returns (uint256) {... */\n    tag_5:\n      tag_33\n      tag_34\n      jump\t// in\n    tag_33:\n      mload(0x40)\n      tag_35\n      swap2\n      swap1\n      tag_36\n      jump\t// in\n    tag_35:\n      mload(0x40)\n      dup1\n      swap2\n      sub\n      swap1\n      return\n        /* \"@openzeppelin/contracts/token/ERC20/ERC20.sol\":5190:5476  function transferFrom(... */\n    tag_6:\n      tag_37\n      0x04\n      dup1\n      calldatasize\n      sub\n      dup2\n      add\n      swap1\n      tag_38\n      swap2\n      swap1\n      tag_39\n      jump\t// in\n    tag_38:\n      tag_40\n      jump\t// in\n    tag_37:\n      mload(0x40)\n      tag_41\n      swap2\n      swap1\n      tag_32\n      jump\t// in\n    tag_41:\n      mload(0x40)\n      dup1\n      swap2\n      sub\n      swap1\n      return\n        /* \"bootcamp/week3/day_1_create_token.sol\":165:206  mapping (address => uint) public balances */\n    tag_7:\n      tag_42\n      0x04\n      dup1\n      calldatasize\n      sub\n      dup2\n      add\n      swap1\n      tag_43\n      swap2\n      swap1\n      tag_44\n      jump\t// in\n    tag_43:\n      tag_45\n      jump\t// in\n    tag_42:\n      mload(0x40)\n      tag_46\n      swap2\n      swap1\n      tag_36\n      jump\t// in\n    tag_46:\n      mload(0x40)\n      dup1\n      swap2\n      sub\n      swap1\n      return\n        /* \"bootcamp/week3/day_1_create_token.sol\":409:504  function mintNewTokens(uint amount) public onlyOwner {... */\n    tag_8:\n      tag_47\n      0x04\n      dup1\n      calldatasize\n      sub\n      dup2\n      add\n      swap1\n      tag_48\n      swap2\n      swap1\n      tag_49\n      jump\t// in\n    tag_48:\n      tag_50\n      jump\t// in\n    tag_47:\n      stop\n        /* \"@openzeppelin/contracts/token/ERC20/ERC20.sol\":3091:3182  function decimals() public view virtual override returns (uint8) {... */\n    tag_9:\n      tag_51\n      tag_52\n      jump\t// in\n    tag_51:\n      mload(0x40)\n      tag_53\n      swap2\n      swap1\n      tag_54\n      jump\t// in\n    tag_53:\n      mload(0x40)\n      dup1\n      swap2\n      sub\n      swap1\n      return\n        /* \"@openzeppelin/contracts/token/ERC20/ERC20.sol\":5871:6105  function increaseAllowance(address spender, uint256 addedValue) public virtual returns (bool) {... */\n    tag_10:\n      tag_55\n      0x04\n      dup1\n      calldatasize\n      sub\n      dup2\n      add\n      swap1\n      tag_56\n      swap2\n      swap1\n      tag_29\n      jump\t// in\n    tag_56:\n      tag_57\n      jump\t// in\n    tag_55:\n      mload(0x40)\n      tag_58\n      swap2\n      swap1\n      tag_32\n      jump\t// in\n    tag_58:\n      mload(0x40)\n      dup1\n      swap2\n      sub\n      swap1\n      return\n        /* \"bootcamp/week3/day_1_create_token.sol\":746:1050  function win() public {... */\n    tag_11:\n      tag_59\n      tag_60\n      jump\t// in\n    tag_59:\n      stop\n        /* \"@openzeppelin/contracts/token/ERC20/ERC20.sol\":3406:3531  function balanceOf(address account) public view virtual override returns (uint256) {... */\n    tag_12:\n      tag_61\n      0x04\n      dup1\n      calldatasize\n      sub\n      dup2\n      add\n      swap1\n      tag_62\n      swap2\n      swap1\n      tag_44\n      jump\t// in\n    tag_62:\n      tag_63\n      jump\t// in\n    tag_61:\n      mload(0x40)\n      tag_64\n      swap2\n      swap1\n      tag_36\n      jump\t// in\n    tag_64:\n      mload(0x40)\n      dup1\n      swap2\n      sub\n      swap1\n      return\n        /* \"bootcamp/week3/day_1_create_token.sol\":213:233  address public owner */\n    tag_13:\n      tag_65\n      tag_66\n      jump\t// in\n    tag_65:\n      mload(0x40)\n      tag_67\n      swap2\n      swap1\n      tag_68\n      jump\t// in\n    tag_67:\n      mload(0x40)\n      dup1\n      swap2\n      sub\n      swap1\n      return\n        /* \"@openzeppelin/contracts/token/ERC20/ERC20.sol\":2365:2467  function symbol() public view virtual override returns (string memory) {... */\n    tag_14:\n      tag_69\n      tag_70\n      jump\t// in\n    tag_69:\n      mload(0x40)\n      tag_71\n      swap2\n      swap1\n      tag_26\n      jump\t// in\n    tag_71:\n      mload(0x40)\n      dup1\n      swap2\n      sub\n      swap1\n      return\n        /* \"@openzeppelin/contracts/token/ERC20/ERC20.sol\":6592:7019  function decreaseAllowance(address spender, uint256 subtractedValue) public virtual returns (bool) {... */\n    tag_15:\n      tag_72\n      0x04\n      dup1\n      calldatasize\n      sub\n      dup2\n      add\n      swap1\n      tag_73\n      swap2\n      swap1\n      tag_29\n      jump\t// in\n    tag_73:\n      tag_74\n      jump\t// in\n    tag_72:\n      mload(0x40)\n      tag_75\n      swap2\n      swap1\n      tag_32\n      jump\t// in\n    tag_75:\n      mload(0x40)\n      dup1\n      swap2\n      sub\n      swap1\n      return\n        /* \"bootcamp/week3/day_1_create_token.sol\":638:740  function burned(address _address) public view returns(uint) {... */\n    tag_16:\n      tag_76\n      0x04\n      dup1\n      calldatasize\n      sub\n      dup2\n      add\n      swap1\n      tag_77\n      swap2\n      swap1\n      tag_44\n      jump\t// in\n    tag_77:\n      tag_78\n      jump\t// in\n    tag_76:\n      mload(0x40)\n      tag_79\n      swap2\n      swap1\n      tag_36\n      jump\t// in\n    tag_79:\n      mload(0x40)\n      dup1\n      swap2\n      sub\n      swap1\n      return\n        /* \"@openzeppelin/contracts/token/ERC20/ERC20.sol\":3727:3916  function transfer(address to, uint256 amount) public virtual override returns (bool) {... */\n    tag_17:\n      tag_80\n      0x04\n      dup1\n      calldatasize\n      sub\n      dup2\n      add\n      swap1\n      tag_81\n      swap2\n      swap1\n      tag_29\n      jump\t// in\n    tag_81:\n      tag_82\n      jump\t// in\n    tag_80:\n      mload(0x40)\n      tag_83\n      swap2\n      swap1\n      tag_32\n      jump\t// in\n    tag_83:\n      mload(0x40)\n      dup1\n      swap2\n      sub\n      swap1\n      return\n        /* \"bootcamp/week3/day_1_create_token.sol\":510:632  function burnAndAdd(uint amount) public {... */\n    tag_18:\n      tag_84\n      0x04\n      dup1\n      calldatasize\n      sub\n      dup2\n      add\n      swap1\n      tag_85\n      swap2\n      swap1\n      tag_49\n      jump\t// in\n    tag_85:\n      tag_86\n      jump\t// in\n    tag_84:\n      stop\n        /* \"@openzeppelin/contracts/token/ERC20/ERC20.sol\":3974:4123  function allowance(address owner, address spender) public view virtual override returns (uint256) {... */\n    tag_19:\n      tag_87\n      0x04\n      dup1\n      calldatasize\n      sub\n      dup2\n      add\n      swap1\n      tag_88\n      swap2\n      swap1\n      tag_89\n      jump\t// in\n    tag_88:\n      tag_90\n      jump\t// in\n    tag_87:\n      mload(0x40)\n      tag_91\n      swap2\n      swap1\n      tag_36\n      jump\t// in\n    tag_91:\n      mload(0x40)\n      dup1\n      swap2\n      sub\n      swap1\n      return\n        /* \"@openzeppelin/contracts/token/ERC20/ERC20.sol\":2154:2252  function name() public view virtual override returns (string memory) {... */\n    tag_24:\n        /* \"@openzeppelin/contracts/token/ERC20/ERC20.sol\":2208:2221  string memory */\n      0x60\n        /* \"@openzeppelin/contracts/token/ERC20/ERC20.sol\":2240:2245  _name */\n      0x03\n        /* \"@openzeppelin/contracts/token/ERC20/ERC20.sol\":2233:2245  return _name */\n      dup1\n      sload\n      tag_93\n      swap1\n      tag_94\n      jump\t// in\n    tag_93:\n      dup1\n      0x1f\n      add\n      0x20\n      dup1\n      swap2\n      div\n      mul\n      0x20\n      add\n      mload(0x40)\n      swap1\n      dup2\n      add\n      0x40\n      mstore\n      dup1\n      swap3\n      swap2\n      swap1\n      dup2\n      dup2\n      mstore\n      0x20\n      add\n      dup3\n      dup1\n      sload\n      tag_95\n      swap1\n      tag_94\n      jump\t// in\n    tag_95:\n      dup1\n      iszero\n      tag_96\n      jumpi\n      dup1\n      0x1f\n      lt\n      tag_97\n      jumpi\n      0x0100\n      dup1\n      dup4\n      sload\n      div\n      mul\n      dup4\n      mstore\n      swap2\n      0x20\n      add\n      swap2\n      jump(tag_96)\n    tag_97:\n      dup3\n      add\n      swap2\n      swap1\n      0x00\n      mstore\n      keccak256(0x00, 0x20)\n      swap1\n    tag_98:\n      dup2\n      sload\n      dup2\n      mstore\n      swap1\n      0x01\n      add\n      swap1\n      0x20\n      add\n      dup1\n      dup4\n      gt\n      tag_98\n      jumpi\n      dup3\n      swap1\n      sub\n      0x1f\n      and\n      dup3\n      add\n      swap2\n    tag_96:\n      pop\n      pop\n      pop\n      pop\n      pop\n      swap1\n      pop\n        /* \"@openzeppelin/contracts/token/ERC20/ERC20.sol\":2154:2252  function name() public view virtual override returns (string memory) {... */\n      swap1\n      jump\t// out\n        /* \"@openzeppelin/contracts/token/ERC20/ERC20.sol\":4431:4628  function approve(address spender, uint256 amount) public virtual override returns (bool) {... */\n    tag_30:\n        /* \"@openzeppelin/contracts/token/ERC20/ERC20.sol\":4514:4518  bool */\n      0x00\n        /* \"@openzeppelin/contracts/token/ERC20/ERC20.sol\":4530:4543  address owner */\n      dup1\n        /* \"@openzeppelin/contracts/token/ERC20/ERC20.sol\":4546:4558  _msgSender() */\n      tag_100\n        /* \"@openzeppelin/contracts/token/ERC20/ERC20.sol\":4546:4556  _msgSender */\n      tag_101\n        /* \"@openzeppelin/contracts/token/ERC20/ERC20.sol\":4546:4558  _msgSender() */\n      jump\t// in\n    tag_100:\n        /* \"@openzeppelin/contracts/token/ERC20/ERC20.sol\":4530:4558  address owner = _msgSender() */\n      swap1\n      pop\n        /* \"@openzeppelin/contracts/token/ERC20/ERC20.sol\":4568:4600  _approve(owner, spender, amount) */\n      tag_102\n        /* \"@openzeppelin/contracts/token/ERC20/ERC20.sol\":4577:4582  owner */\n      dup2\n        /* \"@openzeppelin/contracts/token/ERC20/ERC20.sol\":4584:4591  spender */\n      dup6\n        /* \"@openzeppelin/contracts/token/ERC20/ERC20.sol\":4593:4599  amount */\n      dup6\n        /* \"@openzeppelin/contracts/token/ERC20/ERC20.sol\":4568:4576  _approve */\n      tag_103\n        /* \"@openzeppelin/contracts/token/ERC20/ERC20.sol\":4568:4600  _approve(owner, spender, amount) */\n      jump\t// in\n    tag_102:\n        /* \"@openzeppelin/contracts/token/ERC20/ERC20.sol\":4617:4621  true */\n      0x01\n        /* \"@openzeppelin/contracts/token/ERC20/ERC20.sol\":4610:4621  return true */\n      swap2\n      pop\n      pop\n        /* \"@openzeppelin/contracts/token/ERC20/ERC20.sol\":4431:4628  function approve(address spender, uint256 amount) public virtual override returns (bool) {... */\n      swap3\n      swap2\n      pop\n      pop\n      jump\t// out\n        /* \"@openzeppelin/contracts/token/ERC20/ERC20.sol\":3242:3348  function totalSupply() public view virtual override returns (uint256) {... */\n    tag_34:\n        /* \"@openzeppelin/contracts/token/ERC20/ERC20.sol\":3303:3310  uint256 */\n      0x00\n        /* \"@openzeppelin/contracts/token/ERC20/ERC20.sol\":3329:3341  _totalSupply */\n      sload(0x02)\n        /* \"@openzeppelin/contracts/token/ERC20/ERC20.sol\":3322:3341  return _totalSupply */\n      swap1\n      pop\n        /* \"@openzeppelin/contracts/token/ERC20/ERC20.sol\":3242:3348  function totalSupply() public view virtual override returns (uint256) {... */\n      swap1\n      jump\t// out\n        /* \"@openzeppelin/contracts/token/ERC20/ERC20.sol\":5190:5476  function transferFrom(... */\n    tag_40:\n        /* \"@openzeppelin/contracts/token/ERC20/ERC20.sol\":5317:5321  bool */\n      0x00\n        /* \"@openzeppelin/contracts/token/ERC20/ERC20.sol\":5333:5348  address spender */\n      dup1\n        /* \"@openzeppelin/contracts/token/ERC20/ERC20.sol\":5351:5363  _msgSender() */\n      tag_106\n        /* \"@openzeppelin/contracts/token/ERC20/ERC20.sol\":5351:5361  _msgSender */\n      tag_101\n        /* \"@openzeppelin/contracts/token/ERC20/ERC20.sol\":5351:5363  _msgSender() */\n      jump\t// in\n    tag_106:\n        /* \"@openzeppelin/contracts/token/ERC20/ERC20.sol\":5333:5363  address spender = _msgSender() */\n      swap1\n      pop\n        /* \"@openzeppelin/contracts/token/ERC20/ERC20.sol\":5373:5411  _spendAllowance(from, spender, amount) */\n      tag_107\n        /* \"@openzeppelin/contracts/token/ERC20/ERC20.sol\":5389:5393  from */\n      dup6\n        /* \"@openzeppelin/contracts/token/ERC20/ERC20.sol\":5395:5402  spender */\n      dup3\n        /* \"@openzeppelin/contracts/token/ERC20/ERC20.sol\":5404:5410  amount */\n      dup6\n        /* \"@openzeppelin/contracts/token/ERC20/ERC20.sol\":5373:5388  _spendAllowance */\n      tag_108\n        /* \"@openzeppelin/contracts/token/ERC20/ERC20.sol\":5373:5411  _spendAllowance(from, spender, amount) */\n      jump\t// in\n    tag_107:\n        /* \"@openzeppelin/contracts/token/ERC20/ERC20.sol\":5421:5448  _transfer(from, to, amount) */\n      tag_109\n        /* \"@openzeppelin/contracts/token/ERC20/ERC20.sol\":5431:5435  from */\n      dup6\n        /* \"@openzeppelin/contracts/token/ERC20/ERC20.sol\":5437:5439  to */\n      dup6\n        /* \"@openzeppelin/contracts/token/ERC20/ERC20.sol\":5441:5447  amount */\n      dup6\n        /* \"@openzeppelin/contracts/token/ERC20/ERC20.sol\":5421:5430  _transfer */\n      tag_110\n        /* \"@openzeppelin/contracts/token/ERC20/ERC20.sol\":5421:5448  _transfer(from, to, amount) */\n      jump\t// in\n    tag_109:\n        /* \"@openzeppelin/contracts/token/ERC20/ERC20.sol\":5465:5469  true */\n      0x01\n        /* \"@openzeppelin/contracts/token/ERC20/ERC20.sol\":5458:5469  return true */\n      swap2\n      pop\n      pop\n        /* \"@openzeppelin/contracts/token/ERC20/ERC20.sol\":5190:5476  function transferFrom(... */\n      swap4\n      swap3\n      pop\n      pop\n      pop\n      jump\t// out\n        /* \"bootcamp/week3/day_1_create_token.sol\":165:206  mapping (address => uint) public balances */\n    tag_45:\n      mstore(0x20, 0x05)\n      dup1\n      0x00\n      mstore\n      keccak256(0x00, 0x40)\n      0x00\n      swap2\n      pop\n      swap1\n      pop\n      sload\n      dup2\n      jump\t// out\n        /* \"bootcamp/week3/day_1_create_token.sol\":409:504  function mintNewTokens(uint amount) public onlyOwner {... */\n    tag_50:\n        /* \"bootcamp/week3/day_1_create_token.sol\":349:359  msg.sender */\n      caller\n        /* \"bootcamp/week3/day_1_create_token.sol\":340:359  owner == msg.sender */\n      0xffffffffffffffffffffffffffffffffffffffff\n      and\n        /* \"bootcamp/week3/day_1_create_token.sol\":340:345  owner */\n      0x06\n      0x00\n      swap1\n      sload\n      swap1\n      0x0100\n      exp\n      swap1\n      div\n      0xffffffffffffffffffffffffffffffffffffffff\n      and\n        /* \"bootcamp/week3/day_1_create_token.sol\":340:359  owner == msg.sender */\n      0xffffffffffffffffffffffffffffffffffffffff\n      and\n      eq\n        /* \"bootcamp/week3/day_1_create_token.sol\":332:385  require(owner == msg.sender, \"You're not the owner!\") */\n      tag_112\n      jumpi\n      mload(0x40)\n      0x08c379a000000000000000000000000000000000000000000000000000000000\n      dup2\n      mstore\n      0x04\n      add\n      tag_113\n      swap1\n      tag_114\n      jump\t// in\n    tag_113:\n      mload(0x40)\n      dup1\n      swap2\n      sub\n      swap1\n      revert\n    tag_112:\n        /* \"bootcamp/week3/day_1_create_token.sol\":472:497  _mint(msg.sender, amount) */\n      tag_116\n        /* \"bootcamp/week3/day_1_create_token.sol\":478:488  msg.sender */\n      caller\n        /* \"bootcamp/week3/day_1_create_token.sol\":490:496  amount */\n      dup3\n        /* \"bootcamp/week3/day_1_create_token.sol\":472:477  _mint */\n      tag_117\n        /* \"bootcamp/week3/day_1_create_token.sol\":472:497  _mint(msg.sender, amount) */\n      jump\t// in\n    tag_116:\n        /* \"bootcamp/week3/day_1_create_token.sol\":409:504  function mintNewTokens(uint amount) public onlyOwner {... */\n      pop\n      jump\t// out\n        /* \"@openzeppelin/contracts/token/ERC20/ERC20.sol\":3091:3182  function decimals() public view virtual override returns (uint8) {... */\n    tag_52:\n        /* \"@openzeppelin/contracts/token/ERC20/ERC20.sol\":3149:3154  uint8 */\n      0x00\n        /* \"@openzeppelin/contracts/token/ERC20/ERC20.sol\":3173:3175  18 */\n      0x12\n        /* \"@openzeppelin/contracts/token/ERC20/ERC20.sol\":3166:3175  return 18 */\n      swap1\n      pop\n        /* \"@openzeppelin/contracts/token/ERC20/ERC20.sol\":3091:3182  function decimals() public view virtual override returns (uint8) {... */\n      swap1\n      jump\t// out\n        /* \"@openzeppelin/contracts/token/ERC20/ERC20.sol\":5871:6105  function increaseAllowance(address spender, uint256 addedValue) public virtual returns (bool) {... */\n    tag_57:\n        /* \"@openzeppelin/contracts/token/ERC20/ERC20.sol\":5959:5963  bool */\n      0x00\n        /* \"@openzeppelin/contracts/token/ERC20/ERC20.sol\":5975:5988  address owner */\n      dup1\n        /* \"@openzeppelin/contracts/token/ERC20/ERC20.sol\":5991:6003  _msgSender() */\n      tag_120\n        /* \"@openzeppelin/contracts/token/ERC20/ERC20.sol\":5991:6001  _msgSender */\n      tag_101\n        /* \"@openzeppelin/contracts/token/ERC20/ERC20.sol\":5991:6003  _msgSender() */\n      jump\t// in\n    tag_120:\n        /* \"@openzeppelin/contracts/token/ERC20/ERC20.sol\":5975:6003  address owner = _msgSender() */\n      swap1\n      pop\n        /* \"@openzeppelin/contracts/token/ERC20/ERC20.sol\":6013:6077  _approve(owner, spender, allowance(owner, spender) + addedValue) */\n      tag_121\n        /* \"@openzeppelin/contracts/token/ERC20/ERC20.sol\":6022:6027  owner */\n      dup2\n        /* \"@openzeppelin/contracts/token/ERC20/ERC20.sol\":6029:6036  spender */\n      dup6\n        /* \"@openzeppelin/contracts/token/ERC20/ERC20.sol\":6066:6076  addedValue */\n      dup6\n        /* \"@openzeppelin/contracts/token/ERC20/ERC20.sol\":6038:6063  allowance(owner, spender) */\n      tag_122\n        /* \"@openzeppelin/contracts/token/ERC20/ERC20.sol\":6048:6053  owner */\n      dup6\n        /* \"@openzeppelin/contracts/token/ERC20/ERC20.sol\":6055:6062  spender */\n      dup10\n        /* \"@openzeppelin/contracts/token/ERC20/ERC20.sol\":6038:6047  allowance */\n      tag_90\n        /* \"@openzeppelin/contracts/token/ERC20/ERC20.sol\":6038:6063  allowance(owner, spender) */\n      jump\t// in\n    tag_122:\n        /* \"@openzeppelin/contracts/token/ERC20/ERC20.sol\":6038:6076  allowance(owner, spender) + addedValue */\n      tag_123\n      swap2\n      swap1\n      tag_124\n      jump\t// in\n    tag_123:\n        /* \"@openzeppelin/contracts/token/ERC20/ERC20.sol\":6013:6021  _approve */\n      tag_103\n        /* \"@openzeppelin/contracts/token/ERC20/ERC20.sol\":6013:6077  _approve(owner, spender, allowance(owner, spender) + addedValue) */\n      jump\t// in\n    tag_121:\n        /* \"@openzeppelin/contracts/token/ERC20/ERC20.sol\":6094:6098  true */\n      0x01\n        /* \"@openzeppelin/contracts/token/ERC20/ERC20.sol\":6087:6098  return true */\n      swap2\n      pop\n      pop\n        /* \"@openzeppelin/contracts/token/ERC20/ERC20.sol\":5871:6105  function increaseAllowance(address spender, uint256 addedValue) public virtual returns (bool) {... */\n      swap3\n      swap2\n      pop\n      pop\n      jump\t// out\n        /* \"bootcamp/week3/day_1_create_token.sol\":746:1050  function win() public {... */\n    tag_60:\n        /* \"bootcamp/week3/day_1_create_token.sol\":805:806  5 */\n      0x05\n        /* \"bootcamp/week3/day_1_create_token.sol\":781:789  balances */\n      dup1\n        /* \"bootcamp/week3/day_1_create_token.sol\":781:801  balances[msg.sender] */\n      0x00\n        /* \"bootcamp/week3/day_1_create_token.sol\":790:800  msg.sender */\n      caller\n        /* \"bootcamp/week3/day_1_create_token.sol\":781:801  balances[msg.sender] */\n      0xffffffffffffffffffffffffffffffffffffffff\n      and\n      0xffffffffffffffffffffffffffffffffffffffff\n      and\n      dup2\n      mstore\n      0x20\n      add\n      swap1\n      dup2\n      mstore\n      0x20\n      add\n      0x00\n      keccak256\n      sload\n        /* \"bootcamp/week3/day_1_create_token.sol\":781:806  balances[msg.sender] >= 5 */\n      lt\n        /* \"bootcamp/week3/day_1_create_token.sol\":778:1044  if(balances[msg.sender] >= 5) {... */\n      tag_126\n      jumpi\n        /* \"bootcamp/week3/day_1_create_token.sol\":944:954  msg.sender */\n      caller\n        /* \"bootcamp/week3/day_1_create_token.sol\":923:956  selfdestruct(payable(msg.sender)) */\n      0xffffffffffffffffffffffffffffffffffffffff\n      and\n      selfdestruct\n        /* \"bootcamp/week3/day_1_create_token.sol\":778:1044  if(balances[msg.sender] >= 5) {... */\n    tag_126:\n        /* \"bootcamp/week3/day_1_create_token.sol\":987:1033  revert(\"You didn't have enough points to win\") */\n      mload(0x40)\n      0x08c379a000000000000000000000000000000000000000000000000000000000\n      dup2\n      mstore\n      0x04\n      add\n      tag_128\n      swap1\n      tag_129\n      jump\t// in\n    tag_128:\n      mload(0x40)\n      dup1\n      swap2\n      sub\n      swap1\n      revert\n        /* \"@openzeppelin/contracts/token/ERC20/ERC20.sol\":3406:3531  function balanceOf(address account) public view virtual override returns (uint256) {... */\n    tag_63:\n        /* \"@openzeppelin/contracts/token/ERC20/ERC20.sol\":3480:3487  uint256 */\n      0x00\n        /* \"@openzeppelin/contracts/token/ERC20/ERC20.sol\":3506:3515  _balances */\n      dup1\n        /* \"@openzeppelin/contracts/token/ERC20/ERC20.sol\":3506:3524  _balances[account] */\n      0x00\n        /* \"@openzeppelin/contracts/token/ERC20/ERC20.sol\":3516:3523  account */\n      dup4\n        /* \"@openzeppelin/contracts/token/ERC20/ERC20.sol\":3506:3524  _balances[account] */\n      0xffffffffffffffffffffffffffffffffffffffff\n      and\n      0xffffffffffffffffffffffffffffffffffffffff\n      and\n      dup2\n      mstore\n      0x20\n      add\n      swap1\n      dup2\n      mstore\n      0x20\n      add\n      0x00\n      keccak256\n      sload\n        /* \"@openzeppelin/contracts/token/ERC20/ERC20.sol\":3499:3524  return _balances[account] */\n      swap1\n      pop\n        /* \"@openzeppelin/contracts/token/ERC20/ERC20.sol\":3406:3531  function balanceOf(address account) public view virtual override returns (uint256) {... */\n      swap2\n      swap1\n      pop\n      jump\t// out\n        /* \"bootcamp/week3/day_1_create_token.sol\":213:233  address public owner */\n    tag_66:\n      0x06\n      0x00\n      swap1\n      sload\n      swap1\n      0x0100\n      exp\n      swap1\n      div\n      0xffffffffffffffffffffffffffffffffffffffff\n      and\n      dup2\n      jump\t// out\n        /* \"@openzeppelin/contracts/token/ERC20/ERC20.sol\":2365:2467  function symbol() public view virtual override returns (string memory) {... */\n    tag_70:\n        /* \"@openzeppelin/contracts/token/ERC20/ERC20.sol\":2421:2434  string memory */\n      0x60\n        /* \"@openzeppelin/contracts/token/ERC20/ERC20.sol\":2453:2460  _symbol */\n      0x04\n        /* \"@openzeppelin/contracts/token/ERC20/ERC20.sol\":2446:2460  return _symbol */\n      dup1\n      sload\n      tag_132\n      swap1\n      tag_94\n      jump\t// in\n    tag_132:\n      dup1\n      0x1f\n      add\n      0x20\n      dup1\n      swap2\n      div\n      mul\n      0x20\n      add\n      mload(0x40)\n      swap1\n      dup2\n      add\n      0x40\n      mstore\n      dup1\n      swap3\n      swap2\n      swap1\n      dup2\n      dup2\n      mstore\n      0x20\n      add\n      dup3\n      dup1\n      sload\n      tag_133\n      swap1\n      tag_94\n      jump\t// in\n    tag_133:\n      dup1\n      iszero\n      tag_134\n      jumpi\n      dup1\n      0x1f\n      lt\n      tag_135\n      jumpi\n      0x0100\n      dup1\n      dup4\n      sload\n      div\n      mul\n      dup4\n      mstore\n      swap2\n      0x20\n      add\n      swap2\n      jump(tag_134)\n    tag_135:\n      dup3\n      add\n      swap2\n      swap1\n      0x00\n      mstore\n      keccak256(0x00, 0x20)\n      swap1\n    tag_136:\n      dup2\n      sload\n      dup2\n      mstore\n      swap1\n      0x01\n      add\n      swap1\n      0x20\n      add\n      dup1\n      dup4\n      gt\n      tag_136\n      jumpi\n      dup3\n      swap1\n      sub\n      0x1f\n      and\n      dup3\n      add\n      swap2\n    tag_134:\n      pop\n      pop\n      pop\n      pop\n      pop\n      swap1\n      pop\n        /* \"@openzeppelin/contracts/token/ERC20/ERC20.sol\":2365:2467  function symbol() public view virtual override returns (string memory) {... */\n      swap1\n      jump\t// out\n        /* \"@openzeppelin/contracts/token/ERC20/ERC20.sol\":6592:7019  function decreaseAllowance(address spender, uint256 subtractedValue) public virtual returns (bool) {... */\n    tag_74:\n        /* \"@openzeppelin/contracts/token/ERC20/ERC20.sol\":6685:6689  bool */\n      0x00\n        /* \"@openzeppelin/contracts/token/ERC20/ERC20.sol\":6701:6714  address owner */\n      dup1\n        /* \"@openzeppelin/contracts/token/ERC20/ERC20.sol\":6717:6729  _msgSender() */\n      tag_138\n        /* \"@openzeppelin/contracts/token/ERC20/ERC20.sol\":6717:6727  _msgSender */\n      tag_101\n        /* \"@openzeppelin/contracts/token/ERC20/ERC20.sol\":6717:6729  _msgSender() */\n      jump\t// in\n    tag_138:\n        /* \"@openzeppelin/contracts/token/ERC20/ERC20.sol\":6701:6729  address owner = _msgSender() */\n      swap1\n      pop\n        /* \"@openzeppelin/contracts/token/ERC20/ERC20.sol\":6739:6763  uint256 currentAllowance */\n      0x00\n        /* \"@openzeppelin/contracts/token/ERC20/ERC20.sol\":6766:6791  allowance(owner, spender) */\n      tag_139\n        /* \"@openzeppelin/contracts/token/ERC20/ERC20.sol\":6776:6781  owner */\n      dup3\n        /* \"@openzeppelin/contracts/token/ERC20/ERC20.sol\":6783:6790  spender */\n      dup7\n        /* \"@openzeppelin/contracts/token/ERC20/ERC20.sol\":6766:6775  allowance */\n      tag_90\n        /* \"@openzeppelin/contracts/token/ERC20/ERC20.sol\":6766:6791  allowance(owner, spender) */\n      jump\t// in\n    tag_139:\n        /* \"@openzeppelin/contracts/token/ERC20/ERC20.sol\":6739:6791  uint256 currentAllowance = allowance(owner, spender) */\n      swap1\n      pop\n        /* \"@openzeppelin/contracts/token/ERC20/ERC20.sol\":6829:6844  subtractedValue */\n      dup4\n        /* \"@openzeppelin/contracts/token/ERC20/ERC20.sol\":6809:6825  currentAllowance */\n      dup2\n        /* \"@openzeppelin/contracts/token/ERC20/ERC20.sol\":6809:6844  currentAllowance >= subtractedValue */\n      lt\n      iszero\n        /* \"@openzeppelin/contracts/token/ERC20/ERC20.sol\":6801:6886  require(currentAllowance >= subtractedValue, \"ERC20: decreased allowance below zero\") */\n      tag_140\n      jumpi\n      mload(0x40)\n      0x08c379a000000000000000000000000000000000000000000000000000000000\n      dup2\n      mstore\n      0x04\n      add\n      tag_141\n      swap1\n      tag_142\n      jump\t// in\n    tag_141:\n      mload(0x40)\n      dup1\n      swap2\n      sub\n      swap1\n      revert\n    tag_140:\n        /* \"@openzeppelin/contracts/token/ERC20/ERC20.sol\":6920:6980  _approve(owner, spender, currentAllowance - subtractedValue) */\n      tag_143\n        /* \"@openzeppelin/contracts/token/ERC20/ERC20.sol\":6929:6934  owner */\n      dup3\n        /* \"@openzeppelin/contracts/token/ERC20/ERC20.sol\":6936:6943  spender */\n      dup7\n        /* \"@openzeppelin/contracts/token/ERC20/ERC20.sol\":6964:6979  subtractedValue */\n      dup7\n        /* \"@openzeppelin/contracts/token/ERC20/ERC20.sol\":6945:6961  currentAllowance */\n      dup5\n        /* \"@openzeppelin/contracts/token/ERC20/ERC20.sol\":6945:6979  currentAllowance - subtractedValue */\n      sub\n        /* \"@openzeppelin/contracts/token/ERC20/ERC20.sol\":6920:6928  _approve */\n      tag_103\n        /* \"@openzeppelin/contracts/token/ERC20/ERC20.sol\":6920:6980  _approve(owner, spender, currentAllowance - subtractedValue) */\n      jump\t// in\n    tag_143:\n        /* \"@openzeppelin/contracts/token/ERC20/ERC20.sol\":7008:7012  true */\n      0x01\n        /* \"@openzeppelin/contracts/token/ERC20/ERC20.sol\":7001:7012  return true */\n      swap3\n      pop\n      pop\n      pop\n        /* \"@openzeppelin/contracts/token/ERC20/ERC20.sol\":6592:7019  function decreaseAllowance(address spender, uint256 subtractedValue) public virtual returns (bool) {... */\n      swap3\n      swap2\n      pop\n      pop\n      jump\t// out\n        /* \"bootcamp/week3/day_1_create_token.sol\":638:740  function burned(address _address) public view returns(uint) {... */\n    tag_78:\n        /* \"bootcamp/week3/day_1_create_token.sol\":692:696  uint */\n      0x00\n        /* \"bootcamp/week3/day_1_create_token.sol\":715:723  balances */\n      0x05\n        /* \"bootcamp/week3/day_1_create_token.sol\":715:733  balances[_address] */\n      0x00\n        /* \"bootcamp/week3/day_1_create_token.sol\":724:732  _address */\n      dup4\n        /* \"bootcamp/week3/day_1_create_token.sol\":715:733  balances[_address] */\n      0xffffffffffffffffffffffffffffffffffffffff\n      and\n      0xffffffffffffffffffffffffffffffffffffffff\n      and\n      dup2\n      mstore\n      0x20\n      add\n      swap1\n      dup2\n      mstore\n      0x20\n      add\n      0x00\n      keccak256\n      sload\n        /* \"bootcamp/week3/day_1_create_token.sol\":708:733  return balances[_address] */\n      swap1\n      pop\n        /* \"bootcamp/week3/day_1_create_token.sol\":638:740  function burned(address _address) public view returns(uint) {... */\n      swap2\n      swap1\n      pop\n      jump\t// out\n        /* \"@openzeppelin/contracts/token/ERC20/ERC20.sol\":3727:3916  function transfer(address to, uint256 amount) public virtual override returns (bool) {... */\n    tag_82:\n        /* \"@openzeppelin/contracts/token/ERC20/ERC20.sol\":3806:3810  bool */\n      0x00\n        /* \"@openzeppelin/contracts/token/ERC20/ERC20.sol\":3822:3835  address owner */\n      dup1\n        /* \"@openzeppelin/contracts/token/ERC20/ERC20.sol\":3838:3850  _msgSender() */\n      tag_146\n        /* \"@openzeppelin/contracts/token/ERC20/ERC20.sol\":3838:3848  _msgSender */\n      tag_101\n        /* \"@openzeppelin/contracts/token/ERC20/ERC20.sol\":3838:3850  _msgSender() */\n      jump\t// in\n    tag_146:\n        /* \"@openzeppelin/contracts/token/ERC20/ERC20.sol\":3822:3850  address owner = _msgSender() */\n      swap1\n      pop\n        /* \"@openzeppelin/contracts/token/ERC20/ERC20.sol\":3860:3888  _transfer(owner, to, amount) */\n      tag_147\n        /* \"@openzeppelin/contracts/token/ERC20/ERC20.sol\":3870:3875  owner */\n      dup2\n        /* \"@openzeppelin/contracts/token/ERC20/ERC20.sol\":3877:3879  to */\n      dup6\n        /* \"@openzeppelin/contracts/token/ERC20/ERC20.sol\":3881:3887  amount */\n      dup6\n        /* \"@openzeppelin/contracts/token/ERC20/ERC20.sol\":3860:3869  _transfer */\n      tag_110\n        /* \"@openzeppelin/contracts/token/ERC20/ERC20.sol\":3860:3888  _transfer(owner, to, amount) */\n      jump\t// in\n    tag_147:\n        /* \"@openzeppelin/contracts/token/ERC20/ERC20.sol\":3905:3909  true */\n      0x01\n        /* \"@openzeppelin/contracts/token/ERC20/ERC20.sol\":3898:3909  return true */\n      swap2\n      pop\n      pop\n        /* \"@openzeppelin/contracts/token/ERC20/ERC20.sol\":3727:3916  function transfer(address to, uint256 amount) public virtual override returns (bool) {... */\n      swap3\n      swap2\n      pop\n      pop\n      jump\t// out\n        /* \"bootcamp/week3/day_1_create_token.sol\":510:632  function burnAndAdd(uint amount) public {... */\n    tag_86:\n        /* \"bootcamp/week3/day_1_create_token.sol\":560:585  _burn(msg.sender, amount) */\n      tag_149\n        /* \"bootcamp/week3/day_1_create_token.sol\":566:576  msg.sender */\n      caller\n        /* \"bootcamp/week3/day_1_create_token.sol\":578:584  amount */\n      dup3\n        /* \"bootcamp/week3/day_1_create_token.sol\":560:565  _burn */\n      tag_150\n        /* \"bootcamp/week3/day_1_create_token.sol\":560:585  _burn(msg.sender, amount) */\n      jump\t// in\n    tag_149:\n        /* \"bootcamp/week3/day_1_create_token.sol\":619:625  amount */\n      dup1\n        /* \"bootcamp/week3/day_1_create_token.sol\":595:603  balances */\n      0x05\n        /* \"bootcamp/week3/day_1_create_token.sol\":595:615  balances[msg.sender] */\n      0x00\n        /* \"bootcamp/week3/day_1_create_token.sol\":604:614  msg.sender */\n      caller\n        /* \"bootcamp/week3/day_1_create_token.sol\":595:615  balances[msg.sender] */\n      0xffffffffffffffffffffffffffffffffffffffff\n      and\n      0xffffffffffffffffffffffffffffffffffffffff\n      and\n      dup2\n      mstore\n      0x20\n      add\n      swap1\n      dup2\n      mstore\n      0x20\n      add\n      0x00\n      keccak256\n      0x00\n        /* \"bootcamp/week3/day_1_create_token.sol\":595:625  balances[msg.sender] += amount */\n      dup3\n      dup3\n      sload\n      tag_151\n      swap2\n      swap1\n      tag_124\n      jump\t// in\n    tag_151:\n      swap3\n      pop\n      pop\n      dup2\n      swap1\n      sstore\n      pop\n        /* \"bootcamp/week3/day_1_create_token.sol\":510:632  function burnAndAdd(uint amount) public {... */\n      pop\n      jump\t// out\n        /* \"@openzeppelin/contracts/token/ERC20/ERC20.sol\":3974:4123  function allowance(address owner, address spender) public view virtual override returns (uint256) {... */\n    tag_90:\n        /* \"@openzeppelin/contracts/token/ERC20/ERC20.sol\":4063:4070  uint256 */\n      0x00\n        /* \"@openzeppelin/contracts/token/ERC20/ERC20.sol\":4089:4100  _allowances */\n      0x01\n        /* \"@openzeppelin/contracts/token/ERC20/ERC20.sol\":4089:4107  _allowances[owner] */\n      0x00\n        /* \"@openzeppelin/contracts/token/ERC20/ERC20.sol\":4101:4106  owner */\n      dup5\n        /* \"@openzeppelin/contracts/token/ERC20/ERC20.sol\":4089:4107  _allowances[owner] */\n      0xffffffffffffffffffffffffffffffffffffffff\n      and\n      0xffffffffffffffffffffffffffffffffffffffff\n      and\n      dup2\n      mstore\n      0x20\n      add\n      swap1\n      dup2\n      mstore\n      0x20\n      add\n      0x00\n      keccak256\n        /* \"@openzeppelin/contracts/token/ERC20/ERC20.sol\":4089:4116  _allowances[owner][spender] */\n      0x00\n        /* \"@openzeppelin/contracts/token/ERC20/ERC20.sol\":4108:4115  spender */\n      dup4\n        /* \"@openzeppelin/contracts/token/ERC20/ERC20.sol\":4089:4116  _allowances[owner][spender] */\n      0xffffffffffffffffffffffffffffffffffffffff\n      and\n      0xffffffffffffffffffffffffffffffffffffffff\n      and\n      dup2\n      mstore\n      0x20\n      add\n      swap1\n      dup2\n      mstore\n      0x20\n      add\n      0x00\n      keccak256\n      sload\n        /* \"@openzeppelin/contracts/token/ERC20/ERC20.sol\":4082:4116  return _allowances[owner][spender] */\n      swap1\n      pop\n        /* \"@openzeppelin/contracts/token/ERC20/ERC20.sol\":3974:4123  function allowance(address owner, address spender) public view virtual override returns (uint256) {... */\n      swap3\n      swap2\n      pop\n      pop\n      jump\t// out\n        /* \"@openzeppelin/contracts/utils/Context.sol\":640:736  function _msgSender() internal view virtual returns (address) {... */\n    tag_101:\n        /* \"@openzeppelin/contracts/utils/Context.sol\":693:700  address */\n      0x00\n        /* \"@openzeppelin/contracts/utils/Context.sol\":719:729  msg.sender */\n      caller\n        /* \"@openzeppelin/contracts/utils/Context.sol\":712:729  return msg.sender */\n      swap1\n      pop\n        /* \"@openzeppelin/contracts/utils/Context.sol\":640:736  function _msgSender() internal view virtual returns (address) {... */\n      swap1\n      jump\t// out\n        /* \"@openzeppelin/contracts/token/ERC20/ERC20.sol\":10504:10874  function _approve(... */\n    tag_103:\n        /* \"@openzeppelin/contracts/token/ERC20/ERC20.sol\":10652:10653  0 */\n      0x00\n        /* \"@openzeppelin/contracts/token/ERC20/ERC20.sol\":10635:10654  owner != address(0) */\n      0xffffffffffffffffffffffffffffffffffffffff\n      and\n        /* \"@openzeppelin/contracts/token/ERC20/ERC20.sol\":10635:10640  owner */\n      dup4\n        /* \"@openzeppelin/contracts/token/ERC20/ERC20.sol\":10635:10654  owner != address(0) */\n      0xffffffffffffffffffffffffffffffffffffffff\n      and\n      sub\n        /* \"@openzeppelin/contracts/token/ERC20/ERC20.sol\":10627:10695  require(owner != address(0), \"ERC20: approve from the zero address\") */\n      tag_155\n      jumpi\n      mload(0x40)\n      0x08c379a000000000000000000000000000000000000000000000000000000000\n      dup2\n      mstore\n      0x04\n      add\n      tag_156\n      swap1\n      tag_157\n      jump\t// in\n    tag_156:\n      mload(0x40)\n      dup1\n      swap2\n      sub\n      swap1\n      revert\n    tag_155:\n        /* \"@openzeppelin/contracts/token/ERC20/ERC20.sol\":10732:10733  0 */\n      0x00\n        /* \"@openzeppelin/contracts/token/ERC20/ERC20.sol\":10713:10734  spender != address(0) */\n      0xffffffffffffffffffffffffffffffffffffffff\n      and\n        /* \"@openzeppelin/contracts/token/ERC20/ERC20.sol\":10713:10720  spender */\n      dup3\n        /* \"@openzeppelin/contracts/token/ERC20/ERC20.sol\":10713:10734  spender != address(0) */\n      0xffffffffffffffffffffffffffffffffffffffff\n      and\n      sub\n        /* \"@openzeppelin/contracts/token/ERC20/ERC20.sol\":10705:10773  require(spender != address(0), \"ERC20: approve to the zero address\") */\n      tag_158\n      jumpi\n      mload(0x40)\n      0x08c379a000000000000000000000000000000000000000000000000000000000\n      dup2\n      mstore\n      0x04\n      add\n      tag_159\n      swap1\n      tag_160\n      jump\t// in\n    tag_159:\n      mload(0x40)\n      dup1\n      swap2\n      sub\n      swap1\n      revert\n    tag_158:\n        /* \"@openzeppelin/contracts/token/ERC20/ERC20.sol\":10814:10820  amount */\n      dup1\n        /* \"@openzeppelin/contracts/token/ERC20/ERC20.sol\":10784:10795  _allowances */\n      0x01\n        /* \"@openzeppelin/contracts/token/ERC20/ERC20.sol\":10784:10802  _allowances[owner] */\n      0x00\n        /* \"@openzeppelin/contracts/token/ERC20/ERC20.sol\":10796:10801  owner */\n      dup6\n        /* \"@openzeppelin/contracts/token/ERC20/ERC20.sol\":10784:10802  _allowances[owner] */\n      0xffffffffffffffffffffffffffffffffffffffff\n      and\n      0xffffffffffffffffffffffffffffffffffffffff\n      and\n      dup2\n      mstore\n      0x20\n      add\n      swap1\n      dup2\n      mstore\n      0x20\n      add\n      0x00\n      keccak256\n        /* \"@openzeppelin/contracts/token/ERC20/ERC20.sol\":10784:10811  _allowances[owner][spender] */\n      0x00\n        /* \"@openzeppelin/contracts/token/ERC20/ERC20.sol\":10803:10810  spender */\n      dup5\n        /* \"@openzeppelin/contracts/token/ERC20/ERC20.sol\":10784:10811  _allowances[owner][spender] */\n      0xffffffffffffffffffffffffffffffffffffffff\n      and\n      0xffffffffffffffffffffffffffffffffffffffff\n      and\n      dup2\n      mstore\n      0x20\n      add\n      swap1\n      dup2\n      mstore\n      0x20\n      add\n      0x00\n      keccak256\n        /* \"@openzeppelin/contracts/token/ERC20/ERC20.sol\":10784:10820  _allowances[owner][spender] = amount */\n      dup2\n      swap1\n      sstore\n      pop\n        /* \"@openzeppelin/contracts/token/ERC20/ERC20.sol\":10851:10858  spender */\n      dup2\n        /* \"@openzeppelin/contracts/token/ERC20/ERC20.sol\":10835:10867  Approval(owner, spender, amount) */\n      0xffffffffffffffffffffffffffffffffffffffff\n      and\n        /* \"@openzeppelin/contracts/token/ERC20/ERC20.sol\":10844:10849  owner */\n      dup4\n        /* \"@openzeppelin/contracts/token/ERC20/ERC20.sol\":10835:10867  Approval(owner, spender, amount) */\n      0xffffffffffffffffffffffffffffffffffffffff\n      and\n      0x8c5be1e5ebec7d5bd14f71427d1e84f3dd0314c0f7b2291e5b200ac8c7c3b925\n        /* \"@openzeppelin/contracts/token/ERC20/ERC20.sol\":10860:10866  amount */\n      dup4\n        /* \"@openzeppelin/contracts/token/ERC20/ERC20.sol\":10835:10867  Approval(owner, spender, amount) */\n      mload(0x40)\n      tag_161\n      swap2\n      swap1\n      tag_36\n      jump\t// in\n    tag_161:\n      mload(0x40)\n      dup1\n      swap2\n      sub\n      swap1\n      log3\n        /* \"@openzeppelin/contracts/token/ERC20/ERC20.sol\":10504:10874  function _approve(... */\n      pop\n      pop\n      pop\n      jump\t// out\n        /* \"@openzeppelin/contracts/token/ERC20/ERC20.sol\":11155:11596  function _spendAllowance(... */\n    tag_108:\n        /* \"@openzeppelin/contracts/token/ERC20/ERC20.sol\":11285:11309  uint256 currentAllowance */\n      0x00\n        /* \"@openzeppelin/contracts/token/ERC20/ERC20.sol\":11312:11337  allowance(owner, spender) */\n      tag_163\n        /* \"@openzeppelin/contracts/token/ERC20/ERC20.sol\":11322:11327  owner */\n      dup5\n        /* \"@openzeppelin/contracts/token/ERC20/ERC20.sol\":11329:11336  spender */\n      dup5\n        /* \"@openzeppelin/contracts/token/ERC20/ERC20.sol\":11312:11321  allowance */\n      tag_90\n        /* \"@openzeppelin/contracts/token/ERC20/ERC20.sol\":11312:11337  allowance(owner, spender) */\n      jump\t// in\n    tag_163:\n        /* \"@openzeppelin/contracts/token/ERC20/ERC20.sol\":11285:11337  uint256 currentAllowance = allowance(owner, spender) */\n      swap1\n      pop\n        /* \"@openzeppelin/contracts/token/ERC20/ERC20.sol\":11371:11388  type(uint256).max */\n      0xffffffffffffffffffffffffffffffffffffffffffffffffffffffffffffffff\n        /* \"@openzeppelin/contracts/token/ERC20/ERC20.sol\":11351:11367  currentAllowance */\n      dup2\n        /* \"@openzeppelin/contracts/token/ERC20/ERC20.sol\":11351:11388  currentAllowance != type(uint256).max */\n      eq\n        /* \"@openzeppelin/contracts/token/ERC20/ERC20.sol\":11347:11590  if (currentAllowance != type(uint256).max) {... */\n      tag_164\n      jumpi\n        /* \"@openzeppelin/contracts/token/ERC20/ERC20.sol\":11432:11438  amount */\n      dup2\n        /* \"@openzeppelin/contracts/token/ERC20/ERC20.sol\":11412:11428  currentAllowance */\n      dup2\n        /* \"@openzeppelin/contracts/token/ERC20/ERC20.sol\":11412:11438  currentAllowance >= amount */\n      lt\n      iszero\n        /* \"@openzeppelin/contracts/token/ERC20/ERC20.sol\":11404:11472  require(currentAllowance >= amount, \"ERC20: insufficient allowance\") */\n      tag_165\n      jumpi\n      mload(0x40)\n      0x08c379a000000000000000000000000000000000000000000000000000000000\n      dup2\n      mstore\n      0x04\n      add\n      tag_166\n      swap1\n      tag_167\n      jump\t// in\n    tag_166:\n      mload(0x40)\n      dup1\n      swap2\n      sub\n      swap1\n      revert\n    tag_165:\n        /* \"@openzeppelin/contracts/token/ERC20/ERC20.sol\":11514:11565  _approve(owner, spender, currentAllowance - amount) */\n      tag_168\n        /* \"@openzeppelin/contracts/token/ERC20/ERC20.sol\":11523:11528  owner */\n      dup5\n        /* \"@openzeppelin/contracts/token/ERC20/ERC20.sol\":11530:11537  spender */\n      dup5\n        /* \"@openzeppelin/contracts/token/ERC20/ERC20.sol\":11558:11564  amount */\n      dup5\n        /* \"@openzeppelin/contracts/token/ERC20/ERC20.sol\":11539:11555  currentAllowance */\n      dup5\n        /* \"@openzeppelin/contracts/token/ERC20/ERC20.sol\":11539:11564  currentAllowance - amount */\n      sub\n        /* \"@openzeppelin/contracts/token/ERC20/ERC20.sol\":11514:11522  _approve */\n      tag_103\n        /* \"@openzeppelin/contracts/token/ERC20/ERC20.sol\":11514:11565  _approve(owner, spender, currentAllowance - amount) */\n      jump\t// in\n    tag_168:\n        /* \"@openzeppelin/contracts/token/ERC20/ERC20.sol\":11347:11590  if (currentAllowance != type(uint256).max) {... */\n    tag_164:\n        /* \"@openzeppelin/contracts/token/ERC20/ERC20.sol\":11275:11596  {... */\n      pop\n        /* \"@openzeppelin/contracts/token/ERC20/ERC20.sol\":11155:11596  function _spendAllowance(... */\n      pop\n      pop\n      pop\n      jump\t// out\n        /* \"@openzeppelin/contracts/token/ERC20/ERC20.sol\":7473:8291  function _transfer(... */\n    tag_110:\n        /* \"@openzeppelin/contracts/token/ERC20/ERC20.sol\":7615:7616  0 */\n      0x00\n        /* \"@openzeppelin/contracts/token/ERC20/ERC20.sol\":7599:7617  from != address(0) */\n      0xffffffffffffffffffffffffffffffffffffffff\n      and\n        /* \"@openzeppelin/contracts/token/ERC20/ERC20.sol\":7599:7603  from */\n      dup4\n        /* \"@openzeppelin/contracts/token/ERC20/ERC20.sol\":7599:7617  from != address(0) */\n      0xffffffffffffffffffffffffffffffffffffffff\n      and\n      sub\n        /* \"@openzeppelin/contracts/token/ERC20/ERC20.sol\":7591:7659  require(from != address(0), \"ERC20: transfer from the zero address\") */\n      tag_170\n      jumpi\n      mload(0x40)\n      0x08c379a000000000000000000000000000000000000000000000000000000000\n      dup2\n      mstore\n      0x04\n      add\n      tag_171\n      swap1\n      tag_172\n      jump\t// in\n    tag_171:\n      mload(0x40)\n      dup1\n      swap2\n      sub\n      swap1\n      revert\n    tag_170:\n        /* \"@openzeppelin/contracts/token/ERC20/ERC20.sol\":7691:7692  0 */\n      0x00\n        /* \"@openzeppelin/contracts/token/ERC20/ERC20.sol\":7677:7693  to != address(0) */\n      0xffffffffffffffffffffffffffffffffffffffff\n      and\n        /* \"@openzeppelin/contracts/token/ERC20/ERC20.sol\":7677:7679  to */\n      dup3\n        /* \"@openzeppelin/contracts/token/ERC20/ERC20.sol\":7677:7693  to != address(0) */\n      0xffffffffffffffffffffffffffffffffffffffff\n      and\n      sub\n        /* \"@openzeppelin/contracts/token/ERC20/ERC20.sol\":7669:7733  require(to != address(0), \"ERC20: transfer to the zero address\") */\n      tag_173\n      jumpi\n      mload(0x40)\n      0x08c379a000000000000000000000000000000000000000000000000000000000\n      dup2\n      mstore\n      0x04\n      add\n      tag_174\n      swap1\n      tag_175\n      jump\t// in\n    tag_174:\n      mload(0x40)\n      dup1\n      swap2\n      sub\n      swap1\n      revert\n    tag_173:\n        /* \"@openzeppelin/contracts/token/ERC20/ERC20.sol\":7744:7782  _beforeTokenTransfer(from, to, amount) */\n      tag_176\n        /* \"@openzeppelin/contracts/token/ERC20/ERC20.sol\":7765:7769  from */\n      dup4\n        /* \"@openzeppelin/contracts/token/ERC20/ERC20.sol\":7771:7773  to */\n      dup4\n        /* \"@openzeppelin/contracts/token/ERC20/ERC20.sol\":7775:7781  amount */\n      dup4\n        /* \"@openzeppelin/contracts/token/ERC20/ERC20.sol\":7744:7764  _beforeTokenTransfer */\n      tag_177\n        /* \"@openzeppelin/contracts/token/ERC20/ERC20.sol\":7744:7782  _beforeTokenTransfer(from, to, amount) */\n      jump\t// in\n    tag_176:\n        /* \"@openzeppelin/contracts/token/ERC20/ERC20.sol\":7793:7812  uint256 fromBalance */\n      0x00\n        /* \"@openzeppelin/contracts/token/ERC20/ERC20.sol\":7815:7824  _balances */\n      dup1\n        /* \"@openzeppelin/contracts/token/ERC20/ERC20.sol\":7815:7830  _balances[from] */\n      0x00\n        /* \"@openzeppelin/contracts/token/ERC20/ERC20.sol\":7825:7829  from */\n      dup6\n        /* \"@openzeppelin/contracts/token/ERC20/ERC20.sol\":7815:7830  _balances[from] */\n      0xffffffffffffffffffffffffffffffffffffffff\n      and\n      0xffffffffffffffffffffffffffffffffffffffff\n      and\n      dup2\n      mstore\n      0x20\n      add\n      swap1\n      dup2\n      mstore\n      0x20\n      add\n      0x00\n      keccak256\n      sload\n        /* \"@openzeppelin/contracts/token/ERC20/ERC20.sol\":7793:7830  uint256 fromBalance = _balances[from] */\n      swap1\n      pop\n        /* \"@openzeppelin/contracts/token/ERC20/ERC20.sol\":7863:7869  amount */\n      dup2\n        /* \"@openzeppelin/contracts/token/ERC20/ERC20.sol\":7848:7859  fromBalance */\n      dup2\n        /* \"@openzeppelin/contracts/token/ERC20/ERC20.sol\":7848:7869  fromBalance >= amount */\n      lt\n      iszero\n        /* \"@openzeppelin/contracts/token/ERC20/ERC20.sol\":7840:7912  require(fromBalance >= amount, \"ERC20: transfer amount exceeds balance\") */\n      tag_178\n      jumpi\n      mload(0x40)\n      0x08c379a000000000000000000000000000000000000000000000000000000000\n      dup2\n      mstore\n      0x04\n      add\n      tag_179\n      swap1\n      tag_180\n      jump\t// in\n    tag_179:\n      mload(0x40)\n      dup1\n      swap2\n      sub\n      swap1\n      revert\n    tag_178:\n        /* \"@openzeppelin/contracts/token/ERC20/ERC20.sol\":7978:7984  amount */\n      dup2\n        /* \"@openzeppelin/contracts/token/ERC20/ERC20.sol\":7964:7975  fromBalance */\n      dup2\n        /* \"@openzeppelin/contracts/token/ERC20/ERC20.sol\":7964:7984  fromBalance - amount */\n      sub\n        /* \"@openzeppelin/contracts/token/ERC20/ERC20.sol\":7946:7955  _balances */\n      0x00\n        /* \"@openzeppelin/contracts/token/ERC20/ERC20.sol\":7946:7961  _balances[from] */\n      dup1\n        /* \"@openzeppelin/contracts/token/ERC20/ERC20.sol\":7956:7960  from */\n      dup7\n        /* \"@openzeppelin/contracts/token/ERC20/ERC20.sol\":7946:7961  _balances[from] */\n      0xffffffffffffffffffffffffffffffffffffffff\n      and\n      0xffffffffffffffffffffffffffffffffffffffff\n      and\n      dup2\n      mstore\n      0x20\n      add\n      swap1\n      dup2\n      mstore\n      0x20\n      add\n      0x00\n      keccak256\n        /* \"@openzeppelin/contracts/token/ERC20/ERC20.sol\":7946:7984  _balances[from] = fromBalance - amount */\n      dup2\n      swap1\n      sstore\n      pop\n        /* \"@openzeppelin/contracts/token/ERC20/ERC20.sol\":8178:8184  amount */\n      dup2\n        /* \"@openzeppelin/contracts/token/ERC20/ERC20.sol\":8161:8170  _balances */\n      0x00\n        /* \"@openzeppelin/contracts/token/ERC20/ERC20.sol\":8161:8174  _balances[to] */\n      dup1\n        /* \"@openzeppelin/contracts/token/ERC20/ERC20.sol\":8171:8173  to */\n      dup6\n        /* \"@openzeppelin/contracts/token/ERC20/ERC20.sol\":8161:8174  _balances[to] */\n      0xffffffffffffffffffffffffffffffffffffffff\n      and\n      0xffffffffffffffffffffffffffffffffffffffff\n      and\n      dup2\n      mstore\n      0x20\n      add\n      swap1\n      dup2\n      mstore\n      0x20\n      add\n      0x00\n      keccak256\n      0x00\n        /* \"@openzeppelin/contracts/token/ERC20/ERC20.sol\":8161:8184  _balances[to] += amount */\n      dup3\n      dup3\n      sload\n      add\n      swap3\n      pop\n      pop\n      dup2\n      swap1\n      sstore\n      pop\n        /* \"@openzeppelin/contracts/token/ERC20/ERC20.sol\":8225:8227  to */\n      dup3\n        /* \"@openzeppelin/contracts/token/ERC20/ERC20.sol\":8210:8236  Transfer(from, to, amount) */\n      0xffffffffffffffffffffffffffffffffffffffff\n      and\n        /* \"@openzeppelin/contracts/token/ERC20/ERC20.sol\":8219:8223  from */\n      dup5\n        /* \"@openzeppelin/contracts/token/ERC20/ERC20.sol\":8210:8236  Transfer(from, to, amount) */\n      0xffffffffffffffffffffffffffffffffffffffff\n      and\n      0xddf252ad1be2c89b69c2b068fc378daa952ba7f163c4a11628f55a4df523b3ef\n        /* \"@openzeppelin/contracts/token/ERC20/ERC20.sol\":8229:8235  amount */\n      dup5\n        /* \"@openzeppelin/contracts/token/ERC20/ERC20.sol\":8210:8236  Transfer(from, to, amount) */\n      mload(0x40)\n      tag_181\n      swap2\n      swap1\n      tag_36\n      jump\t// in\n    tag_181:\n      mload(0x40)\n      dup1\n      swap2\n      sub\n      swap1\n      log3\n        /* \"@openzeppelin/contracts/token/ERC20/ERC20.sol\":8247:8284  _afterTokenTransfer(from, to, amount) */\n      tag_182\n        /* \"@openzeppelin/contracts/token/ERC20/ERC20.sol\":8267:8271  from */\n      dup5\n        /* \"@openzeppelin/contracts/token/ERC20/ERC20.sol\":8273:8275  to */\n      dup5\n        /* \"@openzeppelin/contracts/token/ERC20/ERC20.sol\":8277:8283  amount */\n      dup5\n        /* \"@openzeppelin/contracts/token/ERC20/ERC20.sol\":8247:8266  _afterTokenTransfer */\n      tag_183\n        /* \"@openzeppelin/contracts/token/ERC20/ERC20.sol\":8247:8284  _afterTokenTransfer(from, to, amount) */\n      jump\t// in\n    tag_182:\n        /* \"@openzeppelin/contracts/token/ERC20/ERC20.sol\":7581:8291  {... */\n      pop\n        /* \"@openzeppelin/contracts/token/ERC20/ERC20.sol\":7473:8291  function _transfer(... */\n      pop\n      pop\n      pop\n      jump\t// out\n        /* \"@openzeppelin/contracts/token/ERC20/ERC20.sol\":8567:9102  function _mint(address account, uint256 amount) internal virtual {... */\n    tag_117:\n        /* \"@openzeppelin/contracts/token/ERC20/ERC20.sol\":8669:8670  0 */\n      0x00\n        /* \"@openzeppelin/contracts/token/ERC20/ERC20.sol\":8650:8671  account != address(0) */\n      0xffffffffffffffffffffffffffffffffffffffff\n      and\n        /* \"@openzeppelin/contracts/token/ERC20/ERC20.sol\":8650:8657  account */\n      dup3\n        /* \"@openzeppelin/contracts/token/ERC20/ERC20.sol\":8650:8671  account != address(0) */\n      0xffffffffffffffffffffffffffffffffffffffff\n      and\n      sub\n        /* \"@openzeppelin/contracts/token/ERC20/ERC20.sol\":8642:8707  require(account != address(0), \"ERC20: mint to the zero address\") */\n      tag_185\n      jumpi\n      mload(0x40)\n      0x08c379a000000000000000000000000000000000000000000000000000000000\n      dup2\n      mstore\n      0x04\n      add\n      tag_186\n      swap1\n      tag_187\n      jump\t// in\n    tag_186:\n      mload(0x40)\n      dup1\n      swap2\n      sub\n      swap1\n      revert\n    tag_185:\n        /* \"@openzeppelin/contracts/token/ERC20/ERC20.sol\":8718:8767  _beforeTokenTransfer(address(0), account, amount) */\n      tag_188\n        /* \"@openzeppelin/contracts/token/ERC20/ERC20.sol\":8747:8748  0 */\n      0x00\n        /* \"@openzeppelin/contracts/token/ERC20/ERC20.sol\":8751:8758  account */\n      dup4\n        /* \"@openzeppelin/contracts/token/ERC20/ERC20.sol\":8760:8766  amount */\n      dup4\n        /* \"@openzeppelin/contracts/token/ERC20/ERC20.sol\":8718:8738  _beforeTokenTransfer */\n      tag_177\n        /* \"@openzeppelin/contracts/token/ERC20/ERC20.sol\":8718:8767  _beforeTokenTransfer(address(0), account, amount) */\n      jump\t// in\n    tag_188:\n        /* \"@openzeppelin/contracts/token/ERC20/ERC20.sol\":8794:8800  amount */\n      dup1\n        /* \"@openzeppelin/contracts/token/ERC20/ERC20.sol\":8778:8790  _totalSupply */\n      0x02\n      0x00\n        /* \"@openzeppelin/contracts/token/ERC20/ERC20.sol\":8778:8800  _totalSupply += amount */\n      dup3\n      dup3\n      sload\n      tag_189\n      swap2\n      swap1\n      tag_124\n      jump\t// in\n    tag_189:\n      swap3\n      pop\n      pop\n      dup2\n      swap1\n      sstore\n      pop\n        /* \"@openzeppelin/contracts/token/ERC20/ERC20.sol\":8968:8974  amount */\n      dup1\n        /* \"@openzeppelin/contracts/token/ERC20/ERC20.sol\":8946:8955  _balances */\n      0x00\n        /* \"@openzeppelin/contracts/token/ERC20/ERC20.sol\":8946:8964  _balances[account] */\n      dup1\n        /* \"@openzeppelin/contracts/token/ERC20/ERC20.sol\":8956:8963  account */\n      dup5\n        /* \"@openzeppelin/contracts/token/ERC20/ERC20.sol\":8946:8964  _balances[account] */\n      0xffffffffffffffffffffffffffffffffffffffff\n      and\n      0xffffffffffffffffffffffffffffffffffffffff\n      and\n      dup2\n      mstore\n      0x20\n      add\n      swap1\n      dup2\n      mstore\n      0x20\n      add\n      0x00\n      keccak256\n      0x00\n        /* \"@openzeppelin/contracts/token/ERC20/ERC20.sol\":8946:8974  _balances[account] += amount */\n      dup3\n      dup3\n      sload\n      add\n      swap3\n      pop\n      pop\n      dup2\n      swap1\n      sstore\n      pop\n        /* \"@openzeppelin/contracts/token/ERC20/ERC20.sol\":9020:9027  account */\n      dup2\n        /* \"@openzeppelin/contracts/token/ERC20/ERC20.sol\":8999:9036  Transfer(address(0), account, amount) */\n      0xffffffffffffffffffffffffffffffffffffffff\n      and\n        /* \"@openzeppelin/contracts/token/ERC20/ERC20.sol\":9016:9017  0 */\n      0x00\n        /* \"@openzeppelin/contracts/token/ERC20/ERC20.sol\":8999:9036  Transfer(address(0), account, amount) */\n      0xffffffffffffffffffffffffffffffffffffffff\n      and\n      0xddf252ad1be2c89b69c2b068fc378daa952ba7f163c4a11628f55a4df523b3ef\n        /* \"@openzeppelin/contracts/token/ERC20/ERC20.sol\":9029:9035  amount */\n      dup4\n        /* \"@openzeppelin/contracts/token/ERC20/ERC20.sol\":8999:9036  Transfer(address(0), account, amount) */\n      mload(0x40)\n      tag_190\n      swap2\n      swap1\n      tag_36\n      jump\t// in\n    tag_190:\n      mload(0x40)\n      dup1\n      swap2\n      sub\n      swap1\n      log3\n        /* \"@openzeppelin/contracts/token/ERC20/ERC20.sol\":9047:9095  _afterTokenTransfer(address(0), account, amount) */\n      tag_191\n        /* \"@openzeppelin/contracts/token/ERC20/ERC20.sol\":9075:9076  0 */\n      0x00\n        /* \"@openzeppelin/contracts/token/ERC20/ERC20.sol\":9079:9086  account */\n      dup4\n        /* \"@openzeppelin/contracts/token/ERC20/ERC20.sol\":9088:9094  amount */\n      dup4\n        /* \"@openzeppelin/contracts/token/ERC20/ERC20.sol\":9047:9066  _afterTokenTransfer */\n      tag_183\n        /* \"@openzeppelin/contracts/token/ERC20/ERC20.sol\":9047:9095  _afterTokenTransfer(address(0), account, amount) */\n      jump\t// in\n    tag_191:\n        /* \"@openzeppelin/contracts/token/ERC20/ERC20.sol\":8567:9102  function _mint(address account, uint256 amount) internal virtual {... */\n      pop\n      pop\n      jump\t// out\n        /* \"@openzeppelin/contracts/token/ERC20/ERC20.sol\":9422:10081  function _burn(address account, uint256 amount) internal virtual {... */\n    tag_150:\n        /* \"@openzeppelin/contracts/token/ERC20/ERC20.sol\":9524:9525  0 */\n      0x00\n        /* \"@openzeppelin/contracts/token/ERC20/ERC20.sol\":9505:9526  account != address(0) */\n      0xffffffffffffffffffffffffffffffffffffffff\n      and\n        /* \"@openzeppelin/contracts/token/ERC20/ERC20.sol\":9505:9512  account */\n      dup3\n        /* \"@openzeppelin/contracts/token/ERC20/ERC20.sol\":9505:9526  account != address(0) */\n      0xffffffffffffffffffffffffffffffffffffffff\n      and\n      sub\n        /* \"@openzeppelin/contracts/token/ERC20/ERC20.sol\":9497:9564  require(account != address(0), \"ERC20: burn from the zero address\") */\n      tag_193\n      jumpi\n      mload(0x40)\n      0x08c379a000000000000000000000000000000000000000000000000000000000\n      dup2\n      mstore\n      0x04\n      add\n      tag_194\n      swap1\n      tag_195\n      jump\t// in\n    tag_194:\n      mload(0x40)\n      dup1\n      swap2\n      sub\n      swap1\n      revert\n    tag_193:\n        /* \"@openzeppelin/contracts/token/ERC20/ERC20.sol\":9575:9624  _beforeTokenTransfer(account, address(0), amount) */\n      tag_196\n        /* \"@openzeppelin/contracts/token/ERC20/ERC20.sol\":9596:9603  account */\n      dup3\n        /* \"@openzeppelin/contracts/token/ERC20/ERC20.sol\":9613:9614  0 */\n      0x00\n        /* \"@openzeppelin/contracts/token/ERC20/ERC20.sol\":9617:9623  amount */\n      dup4\n        /* \"@openzeppelin/contracts/token/ERC20/ERC20.sol\":9575:9595  _beforeTokenTransfer */\n      tag_177\n        /* \"@openzeppelin/contracts/token/ERC20/ERC20.sol\":9575:9624  _beforeTokenTransfer(account, address(0), amount) */\n      jump\t// in\n    tag_196:\n        /* \"@openzeppelin/contracts/token/ERC20/ERC20.sol\":9635:9657  uint256 accountBalance */\n      0x00\n        /* \"@openzeppelin/contracts/token/ERC20/ERC20.sol\":9660:9669  _balances */\n      dup1\n        /* \"@openzeppelin/contracts/token/ERC20/ERC20.sol\":9660:9678  _balances[account] */\n      0x00\n        /* \"@openzeppelin/contracts/token/ERC20/ERC20.sol\":9670:9677  account */\n      dup5\n        /* \"@openzeppelin/contracts/token/ERC20/ERC20.sol\":9660:9678  _balances[account] */\n      0xffffffffffffffffffffffffffffffffffffffff\n      and\n      0xffffffffffffffffffffffffffffffffffffffff\n      and\n      dup2\n      mstore\n      0x20\n      add\n      swap1\n      dup2\n      mstore\n      0x20\n      add\n      0x00\n      keccak256\n      sload\n        /* \"@openzeppelin/contracts/token/ERC20/ERC20.sol\":9635:9678  uint256 accountBalance = _balances[account] */\n      swap1\n      pop\n        /* \"@openzeppelin/contracts/token/ERC20/ERC20.sol\":9714:9720  amount */\n      dup2\n        /* \"@openzeppelin/contracts/token/ERC20/ERC20.sol\":9696:9710  accountBalance */\n      dup2\n        /* \"@openzeppelin/contracts/token/ERC20/ERC20.sol\":9696:9720  accountBalance >= amount */\n      lt\n      iszero\n        /* \"@openzeppelin/contracts/token/ERC20/ERC20.sol\":9688:9759  require(accountBalance >= amount, \"ERC20: burn amount exceeds balance\") */\n      tag_197\n      jumpi\n      mload(0x40)\n      0x08c379a000000000000000000000000000000000000000000000000000000000\n      dup2\n      mstore\n      0x04\n      add\n      tag_198\n      swap1\n      tag_199\n      jump\t// in\n    tag_198:\n      mload(0x40)\n      dup1\n      swap2\n      sub\n      swap1\n      revert\n    tag_197:\n        /* \"@openzeppelin/contracts/token/ERC20/ERC20.sol\":9831:9837  amount */\n      dup2\n        /* \"@openzeppelin/contracts/token/ERC20/ERC20.sol\":9814:9828  accountBalance */\n      dup2\n        /* \"@openzeppelin/contracts/token/ERC20/ERC20.sol\":9814:9837  accountBalance - amount */\n      sub\n        /* \"@openzeppelin/contracts/token/ERC20/ERC20.sol\":9793:9802  _balances */\n      0x00\n        /* \"@openzeppelin/contracts/token/ERC20/ERC20.sol\":9793:9811  _balances[account] */\n      dup1\n        /* \"@openzeppelin/contracts/token/ERC20/ERC20.sol\":9803:9810  account */\n      dup6\n        /* \"@openzeppelin/contracts/token/ERC20/ERC20.sol\":9793:9811  _balances[account] */\n      0xffffffffffffffffffffffffffffffffffffffff\n      and\n      0xffffffffffffffffffffffffffffffffffffffff\n      and\n      dup2\n      mstore\n      0x20\n      add\n      swap1\n      dup2\n      mstore\n      0x20\n      add\n      0x00\n      keccak256\n        /* \"@openzeppelin/contracts/token/ERC20/ERC20.sol\":9793:9837  _balances[account] = accountBalance - amount */\n      dup2\n      swap1\n      sstore\n      pop\n        /* \"@openzeppelin/contracts/token/ERC20/ERC20.sol\":9946:9952  amount */\n      dup2\n        /* \"@openzeppelin/contracts/token/ERC20/ERC20.sol\":9930:9942  _totalSupply */\n      0x02\n      0x00\n        /* \"@openzeppelin/contracts/token/ERC20/ERC20.sol\":9930:9952  _totalSupply -= amount */\n      dup3\n      dup3\n      sload\n      sub\n      swap3\n      pop\n      pop\n      dup2\n      swap1\n      sstore\n      pop\n        /* \"@openzeppelin/contracts/token/ERC20/ERC20.sol\":10004:10005  0 */\n      0x00\n        /* \"@openzeppelin/contracts/token/ERC20/ERC20.sol\":9978:10015  Transfer(account, address(0), amount) */\n      0xffffffffffffffffffffffffffffffffffffffff\n      and\n        /* \"@openzeppelin/contracts/token/ERC20/ERC20.sol\":9987:9994  account */\n      dup4\n        /* \"@openzeppelin/contracts/token/ERC20/ERC20.sol\":9978:10015  Transfer(account, address(0), amount) */\n      0xffffffffffffffffffffffffffffffffffffffff\n      and\n      0xddf252ad1be2c89b69c2b068fc378daa952ba7f163c4a11628f55a4df523b3ef\n        /* \"@openzeppelin/contracts/token/ERC20/ERC20.sol\":10008:10014  amount */\n      dup5\n        /* \"@openzeppelin/contracts/token/ERC20/ERC20.sol\":9978:10015  Transfer(account, address(0), amount) */\n      mload(0x40)\n      tag_200\n      swap2\n      swap1\n      tag_36\n      jump\t// in\n    tag_200:\n      mload(0x40)\n      dup1\n      swap2\n      sub\n      swap1\n      log3\n        /* \"@openzeppelin/contracts/token/ERC20/ERC20.sol\":10026:10074  _afterTokenTransfer(account, address(0), amount) */\n      tag_201\n        /* \"@openzeppelin/contracts/token/ERC20/ERC20.sol\":10046:10053  account */\n      dup4\n        /* \"@openzeppelin/contracts/token/ERC20/ERC20.sol\":10063:10064  0 */\n      0x00\n        /* \"@openzeppelin/contracts/token/ERC20/ERC20.sol\":10067:10073  amount */\n      dup5\n        /* \"@openzeppelin/contracts/token/ERC20/ERC20.sol\":10026:10045  _afterTokenTransfer */\n      tag_183\n        /* \"@openzeppelin/contracts/token/ERC20/ERC20.sol\":10026:10074  _afterTokenTransfer(account, address(0), amount) */\n      jump\t// in\n    tag_201:\n        /* \"@openzeppelin/contracts/token/ERC20/ERC20.sol\":9487:10081  {... */\n      pop\n        /* \"@openzeppelin/contracts/token/ERC20/ERC20.sol\":9422:10081  function _burn(address account, uint256 amount) internal virtual {... */\n      pop\n      pop\n      jump\t// out\n        /* \"@openzeppelin/contracts/token/ERC20/ERC20.sol\":12180:12301  function _beforeTokenTransfer(... */\n    tag_177:\n      pop\n      pop\n      pop\n      jump\t// out\n        /* \"@openzeppelin/contracts/token/ERC20/ERC20.sol\":12889:13009  function _afterTokenTransfer(... */\n    tag_183:\n      pop\n      pop\n      pop\n      jump\t// out\n        /* \"#utility.yul\":7:106   */\n    tag_204:\n        /* \"#utility.yul\":59:65   */\n      0x00\n        /* \"#utility.yul\":93:98   */\n      dup2\n        /* \"#utility.yul\":87:99   */\n      mload\n        /* \"#utility.yul\":77:99   */\n      swap1\n      pop\n        /* \"#utility.yul\":7:106   */\n      swap2\n      swap1\n      pop\n      jump\t// out\n        /* \"#utility.yul\":112:281   */\n    tag_205:\n        /* \"#utility.yul\":196:207   */\n      0x00\n        /* \"#utility.yul\":230:236   */\n      dup3\n        /* \"#utility.yul\":225:228   */\n      dup3\n        /* \"#utility.yul\":218:237   */\n      mstore\n        /* \"#utility.yul\":270:274   */\n      0x20\n        /* \"#utility.yul\":265:268   */\n      dup3\n        /* \"#utility.yul\":261:275   */\n      add\n        /* \"#utility.yul\":246:275   */\n      swap1\n      pop\n        /* \"#utility.yul\":112:281   */\n      swap3\n      swap2\n      pop\n      pop\n      jump\t// out\n        /* \"#utility.yul\":287:594   */\n    tag_206:\n        /* \"#utility.yul\":355:356   */\n      0x00\n        /* \"#utility.yul\":365:478   */\n    tag_255:\n        /* \"#utility.yul\":379:385   */\n      dup4\n        /* \"#utility.yul\":376:377   */\n      dup2\n        /* \"#utility.yul\":373:386   */\n      lt\n        /* \"#utility.yul\":365:478   */\n      iszero\n      tag_257\n      jumpi\n        /* \"#utility.yul\":464:465   */\n      dup1\n        /* \"#utility.yul\":459:462   */\n      dup3\n        /* \"#utility.yul\":455:466   */\n      add\n        /* \"#utility.yul\":449:467   */\n      mload\n        /* \"#utility.yul\":445:446   */\n      dup2\n        /* \"#utility.yul\":440:443   */\n      dup5\n        /* \"#utility.yul\":436:447   */\n      add\n        /* \"#utility.yul\":429:468   */\n      mstore\n        /* \"#utility.yul\":401:403   */\n      0x20\n        /* \"#utility.yul\":398:399   */\n      dup2\n        /* \"#utility.yul\":394:404   */\n      add\n        /* \"#utility.yul\":389:404   */\n      swap1\n      pop\n        /* \"#utility.yul\":365:478   */\n      jump(tag_255)\n    tag_257:\n        /* \"#utility.yul\":496:502   */\n      dup4\n        /* \"#utility.yul\":493:494   */\n      dup2\n        /* \"#utility.yul\":490:503   */\n      gt\n        /* \"#utility.yul\":487:588   */\n      iszero\n      tag_258\n      jumpi\n        /* \"#utility.yul\":576:577   */\n      0x00\n        /* \"#utility.yul\":567:573   */\n      dup5\n        /* \"#utility.yul\":562:565   */\n      dup5\n        /* \"#utility.yul\":558:574   */\n      add\n        /* \"#utility.yul\":551:578   */\n      mstore\n        /* \"#utility.yul\":487:588   */\n    tag_258:\n        /* \"#utility.yul\":336:594   */\n      pop\n        /* \"#utility.yul\":287:594   */\n      pop\n      pop\n      pop\n      jump\t// out\n        /* \"#utility.yul\":600:702   */\n    tag_207:\n        /* \"#utility.yul\":641:647   */\n      0x00\n        /* \"#utility.yul\":692:694   */\n      0x1f\n        /* \"#utility.yul\":688:695   */\n      not\n        /* \"#utility.yul\":683:685   */\n      0x1f\n        /* \"#utility.yul\":676:681   */\n      dup4\n        /* \"#utility.yul\":672:686   */\n      add\n        /* \"#utility.yul\":668:696   */\n      and\n        /* \"#utility.yul\":658:696   */\n      swap1\n      pop\n        /* \"#utility.yul\":600:702   */\n      swap2\n      swap1\n      pop\n      jump\t// out\n        /* \"#utility.yul\":708:1072   */\n    tag_208:\n        /* \"#utility.yul\":796:799   */\n      0x00\n        /* \"#utility.yul\":824:863   */\n      tag_261\n        /* \"#utility.yul\":857:862   */\n      dup3\n        /* \"#utility.yul\":824:863   */\n      tag_204\n      jump\t// in\n    tag_261:\n        /* \"#utility.yul\":879:950   */\n      tag_262\n        /* \"#utility.yul\":943:949   */\n      dup2\n        /* \"#utility.yul\":938:941   */\n      dup6\n        /* \"#utility.yul\":879:950   */\n      tag_205\n      jump\t// in\n    tag_262:\n        /* \"#utility.yul\":872:950   */\n      swap4\n      pop\n        /* \"#utility.yul\":959:1011   */\n      tag_263\n        /* \"#utility.yul\":1004:1010   */\n      dup2\n        /* \"#utility.yul\":999:1002   */\n      dup6\n        /* \"#utility.yul\":992:996   */\n      0x20\n        /* \"#utility.yul\":985:990   */\n      dup7\n        /* \"#utility.yul\":981:997   */\n      add\n        /* \"#utility.yul\":959:1011   */\n      tag_206\n      jump\t// in\n    tag_263:\n        /* \"#utility.yul\":1036:1065   */\n      tag_264\n        /* \"#utility.yul\":1058:1064   */\n      dup2\n        /* \"#utility.yul\":1036:1065   */\n      tag_207\n      jump\t// in\n    tag_264:\n        /* \"#utility.yul\":1031:1034   */\n      dup5\n        /* \"#utility.yul\":1027:1066   */\n      add\n        /* \"#utility.yul\":1020:1066   */\n      swap2\n      pop\n        /* \"#utility.yul\":800:1072   */\n      pop\n        /* \"#utility.yul\":708:1072   */\n      swap3\n      swap2\n      pop\n      pop\n      jump\t// out\n        /* \"#utility.yul\":1078:1391   */\n    tag_26:\n        /* \"#utility.yul\":1191:1195   */\n      0x00\n        /* \"#utility.yul\":1229:1231   */\n      0x20\n        /* \"#utility.yul\":1218:1227   */\n      dup3\n        /* \"#utility.yul\":1214:1232   */\n      add\n        /* \"#utility.yul\":1206:1232   */\n      swap1\n      pop\n        /* \"#utility.yul\":1278:1287   */\n      dup2\n        /* \"#utility.yul\":1272:1276   */\n      dup2\n        /* \"#utility.yul\":1268:1288   */\n      sub\n        /* \"#utility.yul\":1264:1265   */\n      0x00\n        /* \"#utility.yul\":1253:1262   */\n      dup4\n        /* \"#utility.yul\":1249:1266   */\n      add\n        /* \"#utility.yul\":1242:1289   */\n      mstore\n        /* \"#utility.yul\":1306:1384   */\n      tag_266\n        /* \"#utility.yul\":1379:1383   */\n      dup2\n        /* \"#utility.yul\":1370:1376   */\n      dup5\n        /* \"#utility.yul\":1306:1384   */\n      tag_208\n      jump\t// in\n    tag_266:\n        /* \"#utility.yul\":1298:1384   */\n      swap1\n      pop\n        /* \"#utility.yul\":1078:1391   */\n      swap3\n      swap2\n      pop\n      pop\n      jump\t// out\n        /* \"#utility.yul\":1478:1595   */\n    tag_210:\n        /* \"#utility.yul\":1587:1588   */\n      0x00\n        /* \"#utility.yul\":1584:1585   */\n      dup1\n        /* \"#utility.yul\":1577:1589   */\n      revert\n        /* \"#utility.yul\":1724:1850   */\n    tag_212:\n        /* \"#utility.yul\":1761:1768   */\n      0x00\n        /* \"#utility.yul\":1801:1843   */\n      0xffffffffffffffffffffffffffffffffffffffff\n        /* \"#utility.yul\":1794:1799   */\n      dup3\n        /* \"#utility.yul\":1790:1844   */\n      and\n        /* \"#utility.yul\":1779:1844   */\n      swap1\n      pop\n        /* \"#utility.yul\":1724:1850   */\n      swap2\n      swap1\n      pop\n      jump\t// out\n        /* \"#utility.yul\":1856:1952   */\n    tag_213:\n        /* \"#utility.yul\":1893:1900   */\n      0x00\n        /* \"#utility.yul\":1922:1946   */\n      tag_272\n        /* \"#utility.yul\":1940:1945   */\n      dup3\n        /* \"#utility.yul\":1922:1946   */\n      tag_212\n      jump\t// in\n    tag_272:\n        /* \"#utility.yul\":1911:1946   */\n      swap1\n      pop\n        /* \"#utility.yul\":1856:1952   */\n      swap2\n      swap1\n      pop\n      jump\t// out\n        /* \"#utility.yul\":1958:2080   */\n    tag_214:\n        /* \"#utility.yul\":2031:2055   */\n      tag_274\n        /* \"#utility.yul\":2049:2054   */\n      dup2\n        /* \"#utility.yul\":2031:2055   */\n      tag_213\n      jump\t// in\n    tag_274:\n        /* \"#utility.yul\":2024:2029   */\n      dup2\n        /* \"#utility.yul\":2021:2056   */\n      eq\n        /* \"#utility.yul\":2011:2074   */\n      tag_275\n      jumpi\n        /* \"#utility.yul\":2070:2071   */\n      0x00\n        /* \"#utility.yul\":2067:2068   */\n      dup1\n        /* \"#utility.yul\":2060:2072   */\n      revert\n        /* \"#utility.yul\":2011:2074   */\n    tag_275:\n        /* \"#utility.yul\":1958:2080   */\n      pop\n      jump\t// out\n        /* \"#utility.yul\":2086:2225   */\n    tag_215:\n        /* \"#utility.yul\":2132:2137   */\n      0x00\n        /* \"#utility.yul\":2170:2176   */\n      dup2\n        /* \"#utility.yul\":2157:2177   */\n      calldataload\n        /* \"#utility.yul\":2148:2177   */\n      swap1\n      pop\n        /* \"#utility.yul\":2186:2219   */\n      tag_277\n        /* \"#utility.yul\":2213:2218   */\n      dup2\n        /* \"#utility.yul\":2186:2219   */\n      tag_214\n      jump\t// in\n    tag_277:\n        /* \"#utility.yul\":2086:2225   */\n      swap3\n      swap2\n      pop\n      pop\n      jump\t// out\n        /* \"#utility.yul\":2231:2308   */\n    tag_216:\n        /* \"#utility.yul\":2268:2275   */\n      0x00\n        /* \"#utility.yul\":2297:2302   */\n      dup2\n        /* \"#utility.yul\":2286:2302   */\n      swap1\n      pop\n        /* \"#utility.yul\":2231:2308   */\n      swap2\n      swap1\n      pop\n      jump\t// out\n        /* \"#utility.yul\":2314:2436   */\n    tag_217:\n        /* \"#utility.yul\":2387:2411   */\n      tag_280\n        /* \"#utility.yul\":2405:2410   */\n      dup2\n        /* \"#utility.yul\":2387:2411   */\n      tag_216\n      jump\t// in\n    tag_280:\n        /* \"#utility.yul\":2380:2385   */\n      dup2\n        /* \"#utility.yul\":2377:2412   */\n      eq\n        /* \"#utility.yul\":2367:2430   */\n      tag_281\n      jumpi\n        /* \"#utility.yul\":2426:2427   */\n      0x00\n        /* \"#utility.yul\":2423:2424   */\n      dup1\n        /* \"#utility.yul\":2416:2428   */\n      revert\n        /* \"#utility.yul\":2367:2430   */\n    tag_281:\n        /* \"#utility.yul\":2314:2436   */\n      pop\n      jump\t// out\n        /* \"#utility.yul\":2442:2581   */\n    tag_218:\n        /* \"#utility.yul\":2488:2493   */\n      0x00\n        /* \"#utility.yul\":2526:2532   */\n      dup2\n        /* \"#utility.yul\":2513:2533   */\n      calldataload\n        /* \"#utility.yul\":2504:2533   */\n      swap1\n      pop\n        /* \"#utility.yul\":2542:2575   */\n      tag_283\n        /* \"#utility.yul\":2569:2574   */\n      dup2\n        /* \"#utility.yul\":2542:2575   */\n      tag_217\n      jump\t// in\n    tag_283:\n        /* \"#utility.yul\":2442:2581   */\n      swap3\n      swap2\n      pop\n      pop\n      jump\t// out\n        /* \"#utility.yul\":2587:3061   */\n    tag_29:\n        /* \"#utility.yul\":2655:2661   */\n      0x00\n        /* \"#utility.yul\":2663:2669   */\n      dup1\n        /* \"#utility.yul\":2712:2714   */\n      0x40\n        /* \"#utility.yul\":2700:2709   */\n      dup4\n        /* \"#utility.yul\":2691:2698   */\n      dup6\n        /* \"#utility.yul\":2687:2710   */\n      sub\n        /* \"#utility.yul\":2683:2715   */\n      slt\n        /* \"#utility.yul\":2680:2799   */\n      iszero\n      tag_285\n      jumpi\n        /* \"#utility.yul\":2718:2797   */\n      tag_286\n      tag_210\n      jump\t// in\n    tag_286:\n        /* \"#utility.yul\":2680:2799   */\n    tag_285:\n        /* \"#utility.yul\":2838:2839   */\n      0x00\n        /* \"#utility.yul\":2863:2916   */\n      tag_287\n        /* \"#utility.yul\":2908:2915   */\n      dup6\n        /* \"#utility.yul\":2899:2905   */\n      dup3\n        /* \"#utility.yul\":2888:2897   */\n      dup7\n        /* \"#utility.yul\":2884:2906   */\n      add\n        /* \"#utility.yul\":2863:2916   */\n      tag_215\n      jump\t// in\n    tag_287:\n        /* \"#utility.yul\":2853:2916   */\n      swap3\n      pop\n        /* \"#utility.yul\":2809:2926   */\n      pop\n        /* \"#utility.yul\":2965:2967   */\n      0x20\n        /* \"#utility.yul\":2991:3044   */\n      tag_288\n        /* \"#utility.yul\":3036:3043   */\n      dup6\n        /* \"#utility.yul\":3027:3033   */\n      dup3\n        /* \"#utility.yul\":3016:3025   */\n      dup7\n        /* \"#utility.yul\":3012:3034   */\n      add\n        /* \"#utility.yul\":2991:3044   */\n      tag_218\n      jump\t// in\n    tag_288:\n        /* \"#utility.yul\":2981:3044   */\n      swap2\n      pop\n        /* \"#utility.yul\":2936:3054   */\n      pop\n        /* \"#utility.yul\":2587:3061   */\n      swap3\n      pop\n      swap3\n      swap1\n      pop\n      jump\t// out\n        /* \"#utility.yul\":3067:3157   */\n    tag_219:\n        /* \"#utility.yul\":3101:3108   */\n      0x00\n        /* \"#utility.yul\":3144:3149   */\n      dup2\n        /* \"#utility.yul\":3137:3150   */\n      iszero\n        /* \"#utility.yul\":3130:3151   */\n      iszero\n        /* \"#utility.yul\":3119:3151   */\n      swap1\n      pop\n        /* \"#utility.yul\":3067:3157   */\n      swap2\n      swap1\n      pop\n      jump\t// out\n        /* \"#utility.yul\":3163:3272   */\n    tag_220:\n        /* \"#utility.yul\":3244:3265   */\n      tag_291\n        /* \"#utility.yul\":3259:3264   */\n      dup2\n        /* \"#utility.yul\":3244:3265   */\n      tag_219\n      jump\t// in\n    tag_291:\n        /* \"#utility.yul\":3239:3242   */\n      dup3\n        /* \"#utility.yul\":3232:3266   */\n      mstore\n        /* \"#utility.yul\":3163:3272   */\n      pop\n      pop\n      jump\t// out\n        /* \"#utility.yul\":3278:3488   */\n    tag_32:\n        /* \"#utility.yul\":3365:3369   */\n      0x00\n        /* \"#utility.yul\":3403:3405   */\n      0x20\n        /* \"#utility.yul\":3392:3401   */\n      dup3\n        /* \"#utility.yul\":3388:3406   */\n      add\n        /* \"#utility.yul\":3380:3406   */\n      swap1\n      pop\n        /* \"#utility.yul\":3416:3481   */\n      tag_293\n        /* \"#utility.yul\":3478:3479   */\n      0x00\n        /* \"#utility.yul\":3467:3476   */\n      dup4\n        /* \"#utility.yul\":3463:3480   */\n      add\n        /* \"#utility.yul\":3454:3460   */\n      dup5\n        /* \"#utility.yul\":3416:3481   */\n      tag_220\n      jump\t// in\n    tag_293:\n        /* \"#utility.yul\":3278:3488   */\n      swap3\n      swap2\n      pop\n      pop\n      jump\t// out\n        /* \"#utility.yul\":3494:3612   */\n    tag_221:\n        /* \"#utility.yul\":3581:3605   */\n      tag_295\n        /* \"#utility.yul\":3599:3604   */\n      dup2\n        /* \"#utility.yul\":3581:3605   */\n      tag_216\n      jump\t// in\n    tag_295:\n        /* \"#utility.yul\":3576:3579   */\n      dup3\n        /* \"#utility.yul\":3569:3606   */\n      mstore\n        /* \"#utility.yul\":3494:3612   */\n      pop\n      pop\n      jump\t// out\n        /* \"#utility.yul\":3618:3840   */\n    tag_36:\n        /* \"#utility.yul\":3711:3715   */\n      0x00\n        /* \"#utility.yul\":3749:3751   */\n      0x20\n        /* \"#utility.yul\":3738:3747   */\n      dup3\n        /* \"#utility.yul\":3734:3752   */\n      add\n        /* \"#utility.yul\":3726:3752   */\n      swap1\n      pop\n        /* \"#utility.yul\":3762:3833   */\n      tag_297\n        /* \"#utility.yul\":3830:3831   */\n      0x00\n        /* \"#utility.yul\":3819:3828   */\n      dup4\n        /* \"#utility.yul\":3815:3832   */\n      add\n        /* \"#utility.yul\":3806:3812   */\n      dup5\n        /* \"#utility.yul\":3762:3833   */\n      tag_221\n      jump\t// in\n    tag_297:\n        /* \"#utility.yul\":3618:3840   */\n      swap3\n      swap2\n      pop\n      pop\n      jump\t// out\n        /* \"#utility.yul\":3846:4465   */\n    tag_39:\n        /* \"#utility.yul\":3923:3929   */\n      0x00\n        /* \"#utility.yul\":3931:3937   */\n      dup1\n        /* \"#utility.yul\":3939:3945   */\n      0x00\n        /* \"#utility.yul\":3988:3990   */\n      0x60\n        /* \"#utility.yul\":3976:3985   */\n      dup5\n        /* \"#utility.yul\":3967:3974   */\n      dup7\n        /* \"#utility.yul\":3963:3986   */\n      sub\n        /* \"#utility.yul\":3959:3991   */\n      slt\n        /* \"#utility.yul\":3956:4075   */\n      iszero\n      tag_299\n      jumpi\n        /* \"#utility.yul\":3994:4073   */\n      tag_300\n      tag_210\n      jump\t// in\n    tag_300:\n        /* \"#utility.yul\":3956:4075   */\n    tag_299:\n        /* \"#utility.yul\":4114:4115   */\n      0x00\n        /* \"#utility.yul\":4139:4192   */\n      tag_301\n        /* \"#utility.yul\":4184:4191   */\n      dup7\n        /* \"#utility.yul\":4175:4181   */\n      dup3\n        /* \"#utility.yul\":4164:4173   */\n      dup8\n        /* \"#utility.yul\":4160:4182   */\n      add\n        /* \"#utility.yul\":4139:4192   */\n      tag_215\n      jump\t// in\n    tag_301:\n        /* \"#utility.yul\":4129:4192   */\n      swap4\n      pop\n        /* \"#utility.yul\":4085:4202   */\n      pop\n        /* \"#utility.yul\":4241:4243   */\n      0x20\n        /* \"#utility.yul\":4267:4320   */\n      tag_302\n        /* \"#utility.yul\":4312:4319   */\n      dup7\n        /* \"#utility.yul\":4303:4309   */\n      dup3\n        /* \"#utility.yul\":4292:4301   */\n      dup8\n        /* \"#utility.yul\":4288:4310   */\n      add\n        /* \"#utility.yul\":4267:4320   */\n      tag_215\n      jump\t// in\n    tag_302:\n        /* \"#utility.yul\":4257:4320   */\n      swap3\n      pop\n        /* \"#utility.yul\":4212:4330   */\n      pop\n        /* \"#utility.yul\":4369:4371   */\n      0x40\n        /* \"#utility.yul\":4395:4448   */\n      tag_303\n        /* \"#utility.yul\":4440:4447   */\n      dup7\n        /* \"#utility.yul\":4431:4437   */\n      dup3\n        /* \"#utility.yul\":4420:4429   */\n      dup8\n        /* \"#utility.yul\":4416:4438   */\n      add\n        /* \"#utility.yul\":4395:4448   */\n      tag_218\n      jump\t// in\n    tag_303:\n        /* \"#utility.yul\":4385:4448   */\n      swap2\n      pop\n        /* \"#utility.yul\":4340:4458   */\n      pop\n        /* \"#utility.yul\":3846:4465   */\n      swap3\n      pop\n      swap3\n      pop\n      swap3\n      jump\t// out\n        /* \"#utility.yul\":4471:4800   */\n    tag_44:\n        /* \"#utility.yul\":4530:4536   */\n      0x00\n        /* \"#utility.yul\":4579:4581   */\n      0x20\n        /* \"#utility.yul\":4567:4576   */\n      dup3\n        /* \"#utility.yul\":4558:4565   */\n      dup5\n        /* \"#utility.yul\":4554:4577   */\n      sub\n        /* \"#utility.yul\":4550:4582   */\n      slt\n        /* \"#utility.yul\":4547:4666   */\n      iszero\n      tag_305\n      jumpi\n        /* \"#utility.yul\":4585:4664   */\n      tag_306\n      tag_210\n      jump\t// in\n    tag_306:\n        /* \"#utility.yul\":4547:4666   */\n    tag_305:\n        /* \"#utility.yul\":4705:4706   */\n      0x00\n        /* \"#utility.yul\":4730:4783   */\n      tag_307\n        /* \"#utility.yul\":4775:4782   */\n      dup5\n        /* \"#utility.yul\":4766:4772   */\n      dup3\n        /* \"#utility.yul\":4755:4764   */\n      dup6\n        /* \"#utility.yul\":4751:4773   */\n      add\n        /* \"#utility.yul\":4730:4783   */\n      tag_215\n      jump\t// in\n    tag_307:\n        /* \"#utility.yul\":4720:4783   */\n      swap2\n      pop\n        /* \"#utility.yul\":4676:4793   */\n      pop\n        /* \"#utility.yul\":4471:4800   */\n      swap3\n      swap2\n      pop\n      pop\n      jump\t// out\n        /* \"#utility.yul\":4806:5135   */\n    tag_49:\n        /* \"#utility.yul\":4865:4871   */\n      0x00\n        /* \"#utility.yul\":4914:4916   */\n      0x20\n        /* \"#utility.yul\":4902:4911   */\n      dup3\n        /* \"#utility.yul\":4893:4900   */\n      dup5\n        /* \"#utility.yul\":4889:4912   */\n      sub\n        /* \"#utility.yul\":4885:4917   */\n      slt\n        /* \"#utility.yul\":4882:5001   */\n      iszero\n      tag_309\n      jumpi\n        /* \"#utility.yul\":4920:4999   */\n      tag_310\n      tag_210\n      jump\t// in\n    tag_310:\n        /* \"#utility.yul\":4882:5001   */\n    tag_309:\n        /* \"#utility.yul\":5040:5041   */\n      0x00\n        /* \"#utility.yul\":5065:5118   */\n      tag_311\n        /* \"#utility.yul\":5110:5117   */\n      dup5\n        /* \"#utility.yul\":5101:5107   */\n      dup3\n        /* \"#utility.yul\":5090:5099   */\n      dup6\n        /* \"#utility.yul\":5086:5108   */\n      add\n        /* \"#utility.yul\":5065:5118   */\n      tag_218\n      jump\t// in\n    tag_311:\n        /* \"#utility.yul\":5055:5118   */\n      swap2\n      pop\n        /* \"#utility.yul\":5011:5128   */\n      pop\n        /* \"#utility.yul\":4806:5135   */\n      swap3\n      swap2\n      pop\n      pop\n      jump\t// out\n        /* \"#utility.yul\":5141:5227   */\n    tag_222:\n        /* \"#utility.yul\":5176:5183   */\n      0x00\n        /* \"#utility.yul\":5216:5220   */\n      0xff\n        /* \"#utility.yul\":5209:5214   */\n      dup3\n        /* \"#utility.yul\":5205:5221   */\n      and\n        /* \"#utility.yul\":5194:5221   */\n      swap1\n      pop\n        /* \"#utility.yul\":5141:5227   */\n      swap2\n      swap1\n      pop\n      jump\t// out\n        /* \"#utility.yul\":5233:5345   */\n    tag_223:\n        /* \"#utility.yul\":5316:5338   */\n      tag_314\n        /* \"#utility.yul\":5332:5337   */\n      dup2\n        /* \"#utility.yul\":5316:5338   */\n      tag_222\n      jump\t// in\n    tag_314:\n        /* \"#utility.yul\":5311:5314   */\n      dup3\n        /* \"#utility.yul\":5304:5339   */\n      mstore\n        /* \"#utility.yul\":5233:5345   */\n      pop\n      pop\n      jump\t// out\n        /* \"#utility.yul\":5351:5565   */\n    tag_54:\n        /* \"#utility.yul\":5440:5444   */\n      0x00\n        /* \"#utility.yul\":5478:5480   */\n      0x20\n        /* \"#utility.yul\":5467:5476   */\n      dup3\n        /* \"#utility.yul\":5463:5481   */\n      add\n        /* \"#utility.yul\":5455:5481   */\n      swap1\n      pop\n        /* \"#utility.yul\":5491:5558   */\n      tag_316\n        /* \"#utility.yul\":5555:5556   */\n      0x00\n        /* \"#utility.yul\":5544:5553   */\n      dup4\n        /* \"#utility.yul\":5540:5557   */\n      add\n        /* \"#utility.yul\":5531:5537   */\n      dup5\n        /* \"#utility.yul\":5491:5558   */\n      tag_223\n      jump\t// in\n    tag_316:\n        /* \"#utility.yul\":5351:5565   */\n      swap3\n      swap2\n      pop\n      pop\n      jump\t// out\n        /* \"#utility.yul\":5571:5689   */\n    tag_224:\n        /* \"#utility.yul\":5658:5682   */\n      tag_318\n        /* \"#utility.yul\":5676:5681   */\n      dup2\n        /* \"#utility.yul\":5658:5682   */\n      tag_213\n      jump\t// in\n    tag_318:\n        /* \"#utility.yul\":5653:5656   */\n      dup3\n        /* \"#utility.yul\":5646:5683   */\n      mstore\n        /* \"#utility.yul\":5571:5689   */\n      pop\n      pop\n      jump\t// out\n        /* \"#utility.yul\":5695:5917   */\n    tag_68:\n        /* \"#utility.yul\":5788:5792   */\n      0x00\n        /* \"#utility.yul\":5826:5828   */\n      0x20\n        /* \"#utility.yul\":5815:5824   */\n      dup3\n        /* \"#utility.yul\":5811:5829   */\n      add\n        /* \"#utility.yul\":5803:5829   */\n      swap1\n      pop\n        /* \"#utility.yul\":5839:5910   */\n      tag_320\n        /* \"#utility.yul\":5907:5908   */\n      0x00\n        /* \"#utility.yul\":5896:5905   */\n      dup4\n        /* \"#utility.yul\":5892:5909   */\n      add\n        /* \"#utility.yul\":5883:5889   */\n      dup5\n        /* \"#utility.yul\":5839:5910   */\n      tag_224\n      jump\t// in\n    tag_320:\n        /* \"#utility.yul\":5695:5917   */\n      swap3\n      swap2\n      pop\n      pop\n      jump\t// out\n        /* \"#utility.yul\":5923:6397   */\n    tag_89:\n        /* \"#utility.yul\":5991:5997   */\n      0x00\n        /* \"#utility.yul\":5999:6005   */\n      dup1\n        /* \"#utility.yul\":6048:6050   */\n      0x40\n        /* \"#utility.yul\":6036:6045   */\n      dup4\n        /* \"#utility.yul\":6027:6034   */\n      dup6\n        /* \"#utility.yul\":6023:6046   */\n      sub\n        /* \"#utility.yul\":6019:6051   */\n      slt\n        /* \"#utility.yul\":6016:6135   */\n      iszero\n      tag_322\n      jumpi\n        /* \"#utility.yul\":6054:6133   */\n      tag_323\n      tag_210\n      jump\t// in\n    tag_323:\n        /* \"#utility.yul\":6016:6135   */\n    tag_322:\n        /* \"#utility.yul\":6174:6175   */\n      0x00\n        /* \"#utility.yul\":6199:6252   */\n      tag_324\n        /* \"#utility.yul\":6244:6251   */\n      dup6\n        /* \"#utility.yul\":6235:6241   */\n      dup3\n        /* \"#utility.yul\":6224:6233   */\n      dup7\n        /* \"#utility.yul\":6220:6242   */\n      add\n        /* \"#utility.yul\":6199:6252   */\n      tag_215\n      jump\t// in\n    tag_324:\n        /* \"#utility.yul\":6189:6252   */\n      swap3\n      pop\n        /* \"#utility.yul\":6145:6262   */\n      pop\n        /* \"#utility.yul\":6301:6303   */\n      0x20\n        /* \"#utility.yul\":6327:6380   */\n      tag_325\n        /* \"#utility.yul\":6372:6379   */\n      dup6\n        /* \"#utility.yul\":6363:6369   */\n      dup3\n        /* \"#utility.yul\":6352:6361   */\n      dup7\n        /* \"#utility.yul\":6348:6370   */\n      add\n        /* \"#utility.yul\":6327:6380   */\n      tag_215\n      jump\t// in\n    tag_325:\n        /* \"#utility.yul\":6317:6380   */\n      swap2\n      pop\n        /* \"#utility.yul\":6272:6390   */\n      pop\n        /* \"#utility.yul\":5923:6397   */\n      swap3\n      pop\n      swap3\n      swap1\n      pop\n      jump\t// out\n        /* \"#utility.yul\":6403:6583   */\n    tag_225:\n        /* \"#utility.yul\":6451:6528   */\n      0x4e487b7100000000000000000000000000000000000000000000000000000000\n        /* \"#utility.yul\":6448:6449   */\n      0x00\n        /* \"#utility.yul\":6441:6529   */\n      mstore\n        /* \"#utility.yul\":6548:6552   */\n      0x22\n        /* \"#utility.yul\":6545:6546   */\n      0x04\n        /* \"#utility.yul\":6538:6553   */\n      mstore\n        /* \"#utility.yul\":6572:6576   */\n      0x24\n        /* \"#utility.yul\":6569:6570   */\n      0x00\n        /* \"#utility.yul\":6562:6577   */\n      revert\n        /* \"#utility.yul\":6589:6909   */\n    tag_94:\n        /* \"#utility.yul\":6633:6639   */\n      0x00\n        /* \"#utility.yul\":6670:6671   */\n      0x02\n        /* \"#utility.yul\":6664:6668   */\n      dup3\n        /* \"#utility.yul\":6660:6672   */\n      div\n        /* \"#utility.yul\":6650:6672   */\n      swap1\n      pop\n        /* \"#utility.yul\":6717:6718   */\n      0x01\n        /* \"#utility.yul\":6711:6715   */\n      dup3\n        /* \"#utility.yul\":6707:6719   */\n      and\n        /* \"#utility.yul\":6738:6756   */\n      dup1\n        /* \"#utility.yul\":6728:6809   */\n      tag_328\n      jumpi\n        /* \"#utility.yul\":6794:6798   */\n      0x7f\n        /* \"#utility.yul\":6786:6792   */\n      dup3\n        /* \"#utility.yul\":6782:6799   */\n      and\n        /* \"#utility.yul\":6772:6799   */\n      swap2\n      pop\n        /* \"#utility.yul\":6728:6809   */\n    tag_328:\n        /* \"#utility.yul\":6856:6858   */\n      0x20\n        /* \"#utility.yul\":6848:6854   */\n      dup3\n        /* \"#utility.yul\":6845:6859   */\n      lt\n        /* \"#utility.yul\":6825:6843   */\n      dup2\n        /* \"#utility.yul\":6822:6860   */\n      sub\n        /* \"#utility.yul\":6819:6903   */\n      tag_329\n      jumpi\n        /* \"#utility.yul\":6875:6893   */\n      tag_330\n      tag_225\n      jump\t// in\n    tag_330:\n        /* \"#utility.yul\":6819:6903   */\n    tag_329:\n        /* \"#utility.yul\":6640:6909   */\n      pop\n        /* \"#utility.yul\":6589:6909   */\n      swap2\n      swap1\n      pop\n      jump\t// out\n        /* \"#utility.yul\":6915:7086   */\n    tag_226:\n        /* \"#utility.yul\":7055:7078   */\n      0x596f75277265206e6f7420746865206f776e6572210000000000000000000000\n        /* \"#utility.yul\":7051:7052   */\n      0x00\n        /* \"#utility.yul\":7043:7049   */\n      dup3\n        /* \"#utility.yul\":7039:7053   */\n      add\n        /* \"#utility.yul\":7032:7079   */\n      mstore\n        /* \"#utility.yul\":6915:7086   */\n      pop\n      jump\t// out\n        /* \"#utility.yul\":7092:7458   */\n    tag_227:\n        /* \"#utility.yul\":7234:7237   */\n      0x00\n        /* \"#utility.yul\":7255:7322   */\n      tag_333\n        /* \"#utility.yul\":7319:7321   */\n      0x15\n        /* \"#utility.yul\":7314:7317   */\n      dup4\n        /* \"#utility.yul\":7255:7322   */\n      tag_205\n      jump\t// in\n    tag_333:\n        /* \"#utility.yul\":7248:7322   */\n      swap2\n      pop\n        /* \"#utility.yul\":7331:7424   */\n      tag_334\n        /* \"#utility.yul\":7420:7423   */\n      dup3\n        /* \"#utility.yul\":7331:7424   */\n      tag_226\n      jump\t// in\n    tag_334:\n        /* \"#utility.yul\":7449:7451   */\n      0x20\n        /* \"#utility.yul\":7444:7447   */\n      dup3\n        /* \"#utility.yul\":7440:7452   */\n      add\n        /* \"#utility.yul\":7433:7452   */\n      swap1\n      pop\n        /* \"#utility.yul\":7092:7458   */\n      swap2\n      swap1\n      pop\n      jump\t// out\n        /* \"#utility.yul\":7464:7883   */\n    tag_114:\n        /* \"#utility.yul\":7630:7634   */\n      0x00\n        /* \"#utility.yul\":7668:7670   */\n      0x20\n        /* \"#utility.yul\":7657:7666   */\n      dup3\n        /* \"#utility.yul\":7653:7671   */\n      add\n        /* \"#utility.yul\":7645:7671   */\n      swap1\n      pop\n        /* \"#utility.yul\":7717:7726   */\n      dup2\n        /* \"#utility.yul\":7711:7715   */\n      dup2\n        /* \"#utility.yul\":7707:7727   */\n      sub\n        /* \"#utility.yul\":7703:7704   */\n      0x00\n        /* \"#utility.yul\":7692:7701   */\n      dup4\n        /* \"#utility.yul\":7688:7705   */\n      add\n        /* \"#utility.yul\":7681:7728   */\n      mstore\n        /* \"#utility.yul\":7745:7876   */\n      tag_336\n        /* \"#utility.yul\":7871:7875   */\n      dup2\n        /* \"#utility.yul\":7745:7876   */\n      tag_227\n      jump\t// in\n    tag_336:\n        /* \"#utility.yul\":7737:7876   */\n      swap1\n      pop\n        /* \"#utility.yul\":7464:7883   */\n      swap2\n      swap1\n      pop\n      jump\t// out\n        /* \"#utility.yul\":7889:8069   */\n    tag_228:\n        /* \"#utility.yul\":7937:8014   */\n      0x4e487b7100000000000000000000000000000000000000000000000000000000\n        /* \"#utility.yul\":7934:7935   */\n      0x00\n        /* \"#utility.yul\":7927:8015   */\n      mstore\n        /* \"#utility.yul\":8034:8038   */\n      0x11\n        /* \"#utility.yul\":8031:8032   */\n      0x04\n        /* \"#utility.yul\":8024:8039   */\n      mstore\n        /* \"#utility.yul\":8058:8062   */\n      0x24\n        /* \"#utility.yul\":8055:8056   */\n      0x00\n        /* \"#utility.yul\":8048:8063   */\n      revert\n        /* \"#utility.yul\":8075:8380   */\n    tag_124:\n        /* \"#utility.yul\":8115:8118   */\n      0x00\n        /* \"#utility.yul\":8134:8154   */\n      tag_339\n        /* \"#utility.yul\":8152:8153   */\n      dup3\n        /* \"#utility.yul\":8134:8154   */\n      tag_216\n      jump\t// in\n    tag_339:\n        /* \"#utility.yul\":8129:8154   */\n      swap2\n      pop\n        /* \"#utility.yul\":8168:8188   */\n      tag_340\n        /* \"#utility.yul\":8186:8187   */\n      dup4\n        /* \"#utility.yul\":8168:8188   */\n      tag_216\n      jump\t// in\n    tag_340:\n        /* \"#utility.yul\":8163:8188   */\n      swap3\n      pop\n        /* \"#utility.yul\":8322:8323   */\n      dup3\n        /* \"#utility.yul\":8254:8320   */\n      0xffffffffffffffffffffffffffffffffffffffffffffffffffffffffffffffff\n        /* \"#utility.yul\":8250:8324   */\n      sub\n        /* \"#utility.yul\":8247:8248   */\n      dup3\n        /* \"#utility.yul\":8244:8325   */\n      gt\n        /* \"#utility.yul\":8241:8348   */\n      iszero\n      tag_341\n      jumpi\n        /* \"#utility.yul\":8328:8346   */\n      tag_342\n      tag_228\n      jump\t// in\n    tag_342:\n        /* \"#utility.yul\":8241:8348   */\n    tag_341:\n        /* \"#utility.yul\":8372:8373   */\n      dup3\n        /* \"#utility.yul\":8369:8370   */\n      dup3\n        /* \"#utility.yul\":8365:8374   */\n      add\n        /* \"#utility.yul\":8358:8374   */\n      swap1\n      pop\n        /* \"#utility.yul\":8075:8380   */\n      swap3\n      swap2\n      pop\n      pop\n      jump\t// out\n        /* \"#utility.yul\":8386:8609   */\n    tag_229:\n        /* \"#utility.yul\":8526:8560   */\n      0x596f75206469646e2774206861766520656e6f75676820706f696e747320746f\n        /* \"#utility.yul\":8522:8523   */\n      0x00\n        /* \"#utility.yul\":8514:8520   */\n      dup3\n        /* \"#utility.yul\":8510:8524   */\n      add\n        /* \"#utility.yul\":8503:8561   */\n      mstore\n        /* \"#utility.yul\":8595:8601   */\n      0x2077696e00000000000000000000000000000000000000000000000000000000\n        /* \"#utility.yul\":8590:8592   */\n      0x20\n        /* \"#utility.yul\":8582:8588   */\n      dup3\n        /* \"#utility.yul\":8578:8593   */\n      add\n        /* \"#utility.yul\":8571:8602   */\n      mstore\n        /* \"#utility.yul\":8386:8609   */\n      pop\n      jump\t// out\n        /* \"#utility.yul\":8615:8981   */\n    tag_230:\n        /* \"#utility.yul\":8757:8760   */\n      0x00\n        /* \"#utility.yul\":8778:8845   */\n      tag_345\n        /* \"#utility.yul\":8842:8844   */\n      0x24\n        /* \"#utility.yul\":8837:8840   */\n      dup4\n        /* \"#utility.yul\":8778:8845   */\n      tag_205\n      jump\t// in\n    tag_345:\n        /* \"#utility.yul\":8771:8845   */\n      swap2\n      pop\n        /* \"#utility.yul\":8854:8947   */\n      tag_346\n        /* \"#utility.yul\":8943:8946   */\n      dup3\n        /* \"#utility.yul\":8854:8947   */\n      tag_229\n      jump\t// in\n    tag_346:\n        /* \"#utility.yul\":8972:8974   */\n      0x40\n        /* \"#utility.yul\":8967:8970   */\n      dup3\n        /* \"#utility.yul\":8963:8975   */\n      add\n        /* \"#utility.yul\":8956:8975   */\n      swap1\n      pop\n        /* \"#utility.yul\":8615:8981   */\n      swap2\n      swap1\n      pop\n      jump\t// out\n        /* \"#utility.yul\":8987:9406   */\n    tag_129:\n        /* \"#utility.yul\":9153:9157   */\n      0x00\n        /* \"#utility.yul\":9191:9193   */\n      0x20\n        /* \"#utility.yul\":9180:9189   */\n      dup3\n        /* \"#utility.yul\":9176:9194   */\n      add\n        /* \"#utility.yul\":9168:9194   */\n      swap1\n      pop\n        /* \"#utility.yul\":9240:9249   */\n      dup2\n        /* \"#utility.yul\":9234:9238   */\n      dup2\n        /* \"#utility.yul\":9230:9250   */\n      sub\n        /* \"#utility.yul\":9226:9227   */\n      0x00\n        /* \"#utility.yul\":9215:9224   */\n      dup4\n        /* \"#utility.yul\":9211:9228   */\n      add\n        /* \"#utility.yul\":9204:9251   */\n      mstore\n        /* \"#utility.yul\":9268:9399   */\n      tag_348\n        /* \"#utility.yul\":9394:9398   */\n      dup2\n        /* \"#utility.yul\":9268:9399   */\n      tag_230\n      jump\t// in\n    tag_348:\n        /* \"#utility.yul\":9260:9399   */\n      swap1\n      pop\n        /* \"#utility.yul\":8987:9406   */\n      swap2\n      swap1\n      pop\n      jump\t// out\n        /* \"#utility.yul\":9412:9636   */\n    tag_231:\n        /* \"#utility.yul\":9552:9586   */\n      0x45524332303a2064656372656173656420616c6c6f77616e63652062656c6f77\n        /* \"#utility.yul\":9548:9549   */\n      0x00\n        /* \"#utility.yul\":9540:9546   */\n      dup3\n        /* \"#utility.yul\":9536:9550   */\n      add\n        /* \"#utility.yul\":9529:9587   */\n      mstore\n        /* \"#utility.yul\":9621:9628   */\n      0x207a65726f000000000000000000000000000000000000000000000000000000\n        /* \"#utility.yul\":9616:9618   */\n      0x20\n        /* \"#utility.yul\":9608:9614   */\n      dup3\n        /* \"#utility.yul\":9604:9619   */\n      add\n        /* \"#utility.yul\":9597:9629   */\n      mstore\n        /* \"#utility.yul\":9412:9636   */\n      pop\n      jump\t// out\n        /* \"#utility.yul\":9642:10008   */\n    tag_232:\n        /* \"#utility.yul\":9784:9787   */\n      0x00\n        /* \"#utility.yul\":9805:9872   */\n      tag_351\n        /* \"#utility.yul\":9869:9871   */\n      0x25\n        /* \"#utility.yul\":9864:9867   */\n      dup4\n        /* \"#utility.yul\":9805:9872   */\n      tag_205\n      jump\t// in\n    tag_351:\n        /* \"#utility.yul\":9798:9872   */\n      swap2\n      pop\n        /* \"#utility.yul\":9881:9974   */\n      tag_352\n        /* \"#utility.yul\":9970:9973   */\n      dup3\n        /* \"#utility.yul\":9881:9974   */\n      tag_231\n      jump\t// in\n    tag_352:\n        /* \"#utility.yul\":9999:10001   */\n      0x40\n        /* \"#utility.yul\":9994:9997   */\n      dup3\n        /* \"#utility.yul\":9990:10002   */\n      add\n        /* \"#utility.yul\":9983:10002   */\n      swap1\n      pop\n        /* \"#utility.yul\":9642:10008   */\n      swap2\n      swap1\n      pop\n      jump\t// out\n        /* \"#utility.yul\":10014:10433   */\n    tag_142:\n        /* \"#utility.yul\":10180:10184   */\n      0x00\n        /* \"#utility.yul\":10218:10220   */\n      0x20\n        /* \"#utility.yul\":10207:10216   */\n      dup3\n        /* \"#utility.yul\":10203:10221   */\n      add\n        /* \"#utility.yul\":10195:10221   */\n      swap1\n      pop\n        /* \"#utility.yul\":10267:10276   */\n      dup2\n        /* \"#utility.yul\":10261:10265   */\n      dup2\n        /* \"#utility.yul\":10257:10277   */\n      sub\n        /* \"#utility.yul\":10253:10254   */\n      0x00\n        /* \"#utility.yul\":10242:10251   */\n      dup4\n        /* \"#utility.yul\":10238:10255   */\n      add\n        /* \"#utility.yul\":10231:10278   */\n      mstore\n        /* \"#utility.yul\":10295:10426   */\n      tag_354\n        /* \"#utility.yul\":10421:10425   */\n      dup2\n        /* \"#utility.yul\":10295:10426   */\n      tag_232\n      jump\t// in\n    tag_354:\n        /* \"#utility.yul\":10287:10426   */\n      swap1\n      pop\n        /* \"#utility.yul\":10014:10433   */\n      swap2\n      swap1\n      pop\n      jump\t// out\n        /* \"#utility.yul\":10439:10662   */\n    tag_233:\n        /* \"#utility.yul\":10579:10613   */\n      0x45524332303a20617070726f76652066726f6d20746865207a65726f20616464\n        /* \"#utility.yul\":10575:10576   */\n      0x00\n        /* \"#utility.yul\":10567:10573   */\n      dup3\n        /* \"#utility.yul\":10563:10577   */\n      add\n        /* \"#utility.yul\":10556:10614   */\n      mstore\n        /* \"#utility.yul\":10648:10654   */\n      0x7265737300000000000000000000000000000000000000000000000000000000\n        /* \"#utility.yul\":10643:10645   */\n      0x20\n        /* \"#utility.yul\":10635:10641   */\n      dup3\n        /* \"#utility.yul\":10631:10646   */\n      add\n        /* \"#utility.yul\":10624:10655   */\n      mstore\n        /* \"#utility.yul\":10439:10662   */\n      pop\n      jump\t// out\n        /* \"#utility.yul\":10668:11034   */\n    tag_234:\n        /* \"#utility.yul\":10810:10813   */\n      0x00\n        /* \"#utility.yul\":10831:10898   */\n      tag_357\n        /* \"#utility.yul\":10895:10897   */\n      0x24\n        /* \"#utility.yul\":10890:10893   */\n      dup4\n        /* \"#utility.yul\":10831:10898   */\n      tag_205\n      jump\t// in\n    tag_357:\n        /* \"#utility.yul\":10824:10898   */\n      swap2\n      pop\n        /* \"#utility.yul\":10907:11000   */\n      tag_358\n        /* \"#utility.yul\":10996:10999   */\n      dup3\n        /* \"#utility.yul\":10907:11000   */\n      tag_233\n      jump\t// in\n    tag_358:\n        /* \"#utility.yul\":11025:11027   */\n      0x40\n        /* \"#utility.yul\":11020:11023   */\n      dup3\n        /* \"#utility.yul\":11016:11028   */\n      add\n        /* \"#utility.yul\":11009:11028   */\n      swap1\n      pop\n        /* \"#utility.yul\":10668:11034   */\n      swap2\n      swap1\n      pop\n      jump\t// out\n        /* \"#utility.yul\":11040:11459   */\n    tag_157:\n        /* \"#utility.yul\":11206:11210   */\n      0x00\n        /* \"#utility.yul\":11244:11246   */\n      0x20\n        /* \"#utility.yul\":11233:11242   */\n      dup3\n        /* \"#utility.yul\":11229:11247   */\n      add\n        /* \"#utility.yul\":11221:11247   */\n      swap1\n      pop\n        /* \"#utility.yul\":11293:11302   */\n      dup2\n        /* \"#utility.yul\":11287:11291   */\n      dup2\n        /* \"#utility.yul\":11283:11303   */\n      sub\n        /* \"#utility.yul\":11279:11280   */\n      0x00\n        /* \"#utility.yul\":11268:11277   */\n      dup4\n        /* \"#utility.yul\":11264:11281   */\n      add\n        /* \"#utility.yul\":11257:11304   */\n      mstore\n        /* \"#utility.yul\":11321:11452   */\n      tag_360\n        /* \"#utility.yul\":11447:11451   */\n      dup2\n        /* \"#utility.yul\":11321:11452   */\n      tag_234\n      jump\t// in\n    tag_360:\n        /* \"#utility.yul\":11313:11452   */\n      swap1\n      pop\n        /* \"#utility.yul\":11040:11459   */\n      swap2\n      swap1\n      pop\n      jump\t// out\n        /* \"#utility.yul\":11465:11686   */\n    tag_235:\n        /* \"#utility.yul\":11605:11639   */\n      0x45524332303a20617070726f766520746f20746865207a65726f206164647265\n        /* \"#utility.yul\":11601:11602   */\n      0x00\n        /* \"#utility.yul\":11593:11599   */\n      dup3\n        /* \"#utility.yul\":11589:11603   */\n      add\n        /* \"#utility.yul\":11582:11640   */\n      mstore\n        /* \"#utility.yul\":11674:11678   */\n      0x7373000000000000000000000000000000000000000000000000000000000000\n        /* \"#utility.yul\":11669:11671   */\n      0x20\n        /* \"#utility.yul\":11661:11667   */\n      dup3\n        /* \"#utility.yul\":11657:11672   */\n      add\n        /* \"#utility.yul\":11650:11679   */\n      mstore\n        /* \"#utility.yul\":11465:11686   */\n      pop\n      jump\t// out\n        /* \"#utility.yul\":11692:12058   */\n    tag_236:\n        /* \"#utility.yul\":11834:11837   */\n      0x00\n        /* \"#utility.yul\":11855:11922   */\n      tag_363\n        /* \"#utility.yul\":11919:11921   */\n      0x22\n        /* \"#utility.yul\":11914:11917   */\n      dup4\n        /* \"#utility.yul\":11855:11922   */\n      tag_205\n      jump\t// in\n    tag_363:\n        /* \"#utility.yul\":11848:11922   */\n      swap2\n      pop\n        /* \"#utility.yul\":11931:12024   */\n      tag_364\n        /* \"#utility.yul\":12020:12023   */\n      dup3\n        /* \"#utility.yul\":11931:12024   */\n      tag_235\n      jump\t// in\n    tag_364:\n        /* \"#utility.yul\":12049:12051   */\n      0x40\n        /* \"#utility.yul\":12044:12047   */\n      dup3\n        /* \"#utility.yul\":12040:12052   */\n      add\n        /* \"#utility.yul\":12033:12052   */\n      swap1\n      pop\n        /* \"#utility.yul\":11692:12058   */\n      swap2\n      swap1\n      pop\n      jump\t// out\n        /* \"#utility.yul\":12064:12483   */\n    tag_160:\n        /* \"#utility.yul\":12230:12234   */\n      0x00\n        /* \"#utility.yul\":12268:12270   */\n      0x20\n        /* \"#utility.yul\":12257:12266   */\n      dup3\n        /* \"#utility.yul\":12253:12271   */\n      add\n        /* \"#utility.yul\":12245:12271   */\n      swap1\n      pop\n        /* \"#utility.yul\":12317:12326   */\n      dup2\n        /* \"#utility.yul\":12311:12315   */\n      dup2\n        /* \"#utility.yul\":12307:12327   */\n      sub\n        /* \"#utility.yul\":12303:12304   */\n      0x00\n        /* \"#utility.yul\":12292:12301   */\n      dup4\n        /* \"#utility.yul\":12288:12305   */\n      add\n        /* \"#utility.yul\":12281:12328   */\n      mstore\n        /* \"#utility.yul\":12345:12476   */\n      tag_366\n        /* \"#utility.yul\":12471:12475   */\n      dup2\n        /* \"#utility.yul\":12345:12476   */\n      tag_236\n      jump\t// in\n    tag_366:\n        /* \"#utility.yul\":12337:12476   */\n      swap1\n      pop\n        /* \"#utility.yul\":12064:12483   */\n      swap2\n      swap1\n      pop\n      jump\t// out\n        /* \"#utility.yul\":12489:12668   */\n    tag_237:\n        /* \"#utility.yul\":12629:12660   */\n      0x45524332303a20696e73756666696369656e7420616c6c6f77616e6365000000\n        /* \"#utility.yul\":12625:12626   */\n      0x00\n        /* \"#utility.yul\":12617:12623   */\n      dup3\n        /* \"#utility.yul\":12613:12627   */\n      add\n        /* \"#utility.yul\":12606:12661   */\n      mstore\n        /* \"#utility.yul\":12489:12668   */\n      pop\n      jump\t// out\n        /* \"#utility.yul\":12674:13040   */\n    tag_238:\n        /* \"#utility.yul\":12816:12819   */\n      0x00\n        /* \"#utility.yul\":12837:12904   */\n      tag_369\n        /* \"#utility.yul\":12901:12903   */\n      0x1d\n        /* \"#utility.yul\":12896:12899   */\n      dup4\n        /* \"#utility.yul\":12837:12904   */\n      tag_205\n      jump\t// in\n    tag_369:\n        /* \"#utility.yul\":12830:12904   */\n      swap2\n      pop\n        /* \"#utility.yul\":12913:13006   */\n      tag_370\n        /* \"#utility.yul\":13002:13005   */\n      dup3\n        /* \"#utility.yul\":12913:13006   */\n      tag_237\n      jump\t// in\n    tag_370:\n        /* \"#utility.yul\":13031:13033   */\n      0x20\n        /* \"#utility.yul\":13026:13029   */\n      dup3\n        /* \"#utility.yul\":13022:13034   */\n      add\n        /* \"#utility.yul\":13015:13034   */\n      swap1\n      pop\n        /* \"#utility.yul\":12674:13040   */\n      swap2\n      swap1\n      pop\n      jump\t// out\n        /* \"#utility.yul\":13046:13465   */\n    tag_167:\n        /* \"#utility.yul\":13212:13216   */\n      0x00\n        /* \"#utility.yul\":13250:13252   */\n      0x20\n        /* \"#utility.yul\":13239:13248   */\n      dup3\n        /* \"#utility.yul\":13235:13253   */\n      add\n        /* \"#utility.yul\":13227:13253   */\n      swap1\n      pop\n        /* \"#utility.yul\":13299:13308   */\n      dup2\n        /* \"#utility.yul\":13293:13297   */\n      dup2\n        /* \"#utility.yul\":13289:13309   */\n      sub\n        /* \"#utility.yul\":13285:13286   */\n      0x00\n        /* \"#utility.yul\":13274:13283   */\n      dup4\n        /* \"#utility.yul\":13270:13287   */\n      add\n        /* \"#utility.yul\":13263:13310   */\n      mstore\n        /* \"#utility.yul\":13327:13458   */\n      tag_372\n        /* \"#utility.yul\":13453:13457   */\n      dup2\n        /* \"#utility.yul\":13327:13458   */\n      tag_238\n      jump\t// in\n    tag_372:\n        /* \"#utility.yul\":13319:13458   */\n      swap1\n      pop\n        /* \"#utility.yul\":13046:13465   */\n      swap2\n      swap1\n      pop\n      jump\t// out\n        /* \"#utility.yul\":13471:13695   */\n    tag_239:\n        /* \"#utility.yul\":13611:13645   */\n      0x45524332303a207472616e736665722066726f6d20746865207a65726f206164\n        /* \"#utility.yul\":13607:13608   */\n      0x00\n        /* \"#utility.yul\":13599:13605   */\n      dup3\n        /* \"#utility.yul\":13595:13609   */\n      add\n        /* \"#utility.yul\":13588:13646   */\n      mstore\n        /* \"#utility.yul\":13680:13687   */\n      0x6472657373000000000000000000000000000000000000000000000000000000\n        /* \"#utility.yul\":13675:13677   */\n      0x20\n        /* \"#utility.yul\":13667:13673   */\n      dup3\n        /* \"#utility.yul\":13663:13678   */\n      add\n        /* \"#utility.yul\":13656:13688   */\n      mstore\n        /* \"#utility.yul\":13471:13695   */\n      pop\n      jump\t// out\n        /* \"#utility.yul\":13701:14067   */\n    tag_240:\n        /* \"#utility.yul\":13843:13846   */\n      0x00\n        /* \"#utility.yul\":13864:13931   */\n      tag_375\n        /* \"#utility.yul\":13928:13930   */\n      0x25\n        /* \"#utility.yul\":13923:13926   */\n      dup4\n        /* \"#utility.yul\":13864:13931   */\n      tag_205\n      jump\t// in\n    tag_375:\n        /* \"#utility.yul\":13857:13931   */\n      swap2\n      pop\n        /* \"#utility.yul\":13940:14033   */\n      tag_376\n        /* \"#utility.yul\":14029:14032   */\n      dup3\n        /* \"#utility.yul\":13940:14033   */\n      tag_239\n      jump\t// in\n    tag_376:\n        /* \"#utility.yul\":14058:14060   */\n      0x40\n        /* \"#utility.yul\":14053:14056   */\n      dup3\n        /* \"#utility.yul\":14049:14061   */\n      add\n        /* \"#utility.yul\":14042:14061   */\n      swap1\n      pop\n        /* \"#utility.yul\":13701:14067   */\n      swap2\n      swap1\n      pop\n      jump\t// out\n        /* \"#utility.yul\":14073:14492   */\n    tag_172:\n        /* \"#utility.yul\":14239:14243   */\n      0x00\n        /* \"#utility.yul\":14277:14279   */\n      0x20\n        /* \"#utility.yul\":14266:14275   */\n      dup3\n        /* \"#utility.yul\":14262:14280   */\n      add\n        /* \"#utility.yul\":14254:14280   */\n      swap1\n      pop\n        /* \"#utility.yul\":14326:14335   */\n      dup2\n        /* \"#utility.yul\":14320:14324   */\n      dup2\n        /* \"#utility.yul\":14316:14336   */\n      sub\n        /* \"#utility.yul\":14312:14313   */\n      0x00\n        /* \"#utility.yul\":14301:14310   */\n      dup4\n        /* \"#utility.yul\":14297:14314   */\n      add\n        /* \"#utility.yul\":14290:14337   */\n      mstore\n        /* \"#utility.yul\":14354:14485   */\n      tag_378\n        /* \"#utility.yul\":14480:14484   */\n      dup2\n        /* \"#utility.yul\":14354:14485   */\n      tag_240\n      jump\t// in\n    tag_378:\n        /* \"#utility.yul\":14346:14485   */\n      swap1\n      pop\n        /* \"#utility.yul\":14073:14492   */\n      swap2\n      swap1\n      pop\n      jump\t// out\n        /* \"#utility.yul\":14498:14720   */\n    tag_241:\n        /* \"#utility.yul\":14638:14672   */\n      0x45524332303a207472616e7366657220746f20746865207a65726f2061646472\n        /* \"#utility.yul\":14634:14635   */\n      0x00\n        /* \"#utility.yul\":14626:14632   */\n      dup3\n        /* \"#utility.yul\":14622:14636   */\n      add\n        /* \"#utility.yul\":14615:14673   */\n      mstore\n        /* \"#utility.yul\":14707:14712   */\n      0x6573730000000000000000000000000000000000000000000000000000000000\n        /* \"#utility.yul\":14702:14704   */\n      0x20\n        /* \"#utility.yul\":14694:14700   */\n      dup3\n        /* \"#utility.yul\":14690:14705   */\n      add\n        /* \"#utility.yul\":14683:14713   */\n      mstore\n        /* \"#utility.yul\":14498:14720   */\n      pop\n      jump\t// out\n        /* \"#utility.yul\":14726:15092   */\n    tag_242:\n        /* \"#utility.yul\":14868:14871   */\n      0x00\n        /* \"#utility.yul\":14889:14956   */\n      tag_381\n        /* \"#utility.yul\":14953:14955   */\n      0x23\n        /* \"#utility.yul\":14948:14951   */\n      dup4\n        /* \"#utility.yul\":14889:14956   */\n      tag_205\n      jump\t// in\n    tag_381:\n        /* \"#utility.yul\":14882:14956   */\n      swap2\n      pop\n        /* \"#utility.yul\":14965:15058   */\n      tag_382\n        /* \"#utility.yul\":15054:15057   */\n      dup3\n        /* \"#utility.yul\":14965:15058   */\n      tag_241\n      jump\t// in\n    tag_382:\n        /* \"#utility.yul\":15083:15085   */\n      0x40\n        /* \"#utility.yul\":15078:15081   */\n      dup3\n        /* \"#utility.yul\":15074:15086   */\n      add\n        /* \"#utility.yul\":15067:15086   */\n      swap1\n      pop\n        /* \"#utility.yul\":14726:15092   */\n      swap2\n      swap1\n      pop\n      jump\t// out\n        /* \"#utility.yul\":15098:15517   */\n    tag_175:\n        /* \"#utility.yul\":15264:15268   */\n      0x00\n        /* \"#utility.yul\":15302:15304   */\n      0x20\n        /* \"#utility.yul\":15291:15300   */\n      dup3\n        /* \"#utility.yul\":15287:15305   */\n      add\n        /* \"#utility.yul\":15279:15305   */\n      swap1\n      pop\n        /* \"#utility.yul\":15351:15360   */\n      dup2\n        /* \"#utility.yul\":15345:15349   */\n      dup2\n        /* \"#utility.yul\":15341:15361   */\n      sub\n        /* \"#utility.yul\":15337:15338   */\n      0x00\n        /* \"#utility.yul\":15326:15335   */\n      dup4\n        /* \"#utility.yul\":15322:15339   */\n      add\n        /* \"#utility.yul\":15315:15362   */\n      mstore\n        /* \"#utility.yul\":15379:15510   */\n      tag_384\n        /* \"#utility.yul\":15505:15509   */\n      dup2\n        /* \"#utility.yul\":15379:15510   */\n      tag_242\n      jump\t// in\n    tag_384:\n        /* \"#utility.yul\":15371:15510   */\n      swap1\n      pop\n        /* \"#utility.yul\":15098:15517   */\n      swap2\n      swap1\n      pop\n      jump\t// out\n        /* \"#utility.yul\":15523:15748   */\n    tag_243:\n        /* \"#utility.yul\":15663:15697   */\n      0x45524332303a207472616e7366657220616d6f756e7420657863656564732062\n        /* \"#utility.yul\":15659:15660   */\n      0x00\n        /* \"#utility.yul\":15651:15657   */\n      dup3\n        /* \"#utility.yul\":15647:15661   */\n      add\n        /* \"#utility.yul\":15640:15698   */\n      mstore\n        /* \"#utility.yul\":15732:15740   */\n      0x616c616e63650000000000000000000000000000000000000000000000000000\n        /* \"#utility.yul\":15727:15729   */\n      0x20\n        /* \"#utility.yul\":15719:15725   */\n      dup3\n        /* \"#utility.yul\":15715:15730   */\n      add\n        /* \"#utility.yul\":15708:15741   */\n      mstore\n        /* \"#utility.yul\":15523:15748   */\n      pop\n      jump\t// out\n        /* \"#utility.yul\":15754:16120   */\n    tag_244:\n        /* \"#utility.yul\":15896:15899   */\n      0x00\n        /* \"#utility.yul\":15917:15984   */\n      tag_387\n        /* \"#utility.yul\":15981:15983   */\n      0x26\n        /* \"#utility.yul\":15976:15979   */\n      dup4\n        /* \"#utility.yul\":15917:15984   */\n      tag_205\n      jump\t// in\n    tag_387:\n        /* \"#utility.yul\":15910:15984   */\n      swap2\n      pop\n        /* \"#utility.yul\":15993:16086   */\n      tag_388\n        /* \"#utility.yul\":16082:16085   */\n      dup3\n        /* \"#utility.yul\":15993:16086   */\n      tag_243\n      jump\t// in\n    tag_388:\n        /* \"#utility.yul\":16111:16113   */\n      0x40\n        /* \"#utility.yul\":16106:16109   */\n      dup3\n        /* \"#utility.yul\":16102:16114   */\n      add\n        /* \"#utility.yul\":16095:16114   */\n      swap1\n      pop\n        /* \"#utility.yul\":15754:16120   */\n      swap2\n      swap1\n      pop\n      jump\t// out\n        /* \"#utility.yul\":16126:16545   */\n    tag_180:\n        /* \"#utility.yul\":16292:16296   */\n      0x00\n        /* \"#utility.yul\":16330:16332   */\n      0x20\n        /* \"#utility.yul\":16319:16328   */\n      dup3\n        /* \"#utility.yul\":16315:16333   */\n      add\n        /* \"#utility.yul\":16307:16333   */\n      swap1\n      pop\n        /* \"#utility.yul\":16379:16388   */\n      dup2\n        /* \"#utility.yul\":16373:16377   */\n      dup2\n        /* \"#utility.yul\":16369:16389   */\n      sub\n        /* \"#utility.yul\":16365:16366   */\n      0x00\n        /* \"#utility.yul\":16354:16363   */\n      dup4\n        /* \"#utility.yul\":16350:16367   */\n      add\n        /* \"#utility.yul\":16343:16390   */\n      mstore\n        /* \"#utility.yul\":16407:16538   */\n      tag_390\n        /* \"#utility.yul\":16533:16537   */\n      dup2\n        /* \"#utility.yul\":16407:16538   */\n      tag_244\n      jump\t// in\n    tag_390:\n        /* \"#utility.yul\":16399:16538   */\n      swap1\n      pop\n        /* \"#utility.yul\":16126:16545   */\n      swap2\n      swap1\n      pop\n      jump\t// out\n        /* \"#utility.yul\":16551:16732   */\n    tag_245:\n        /* \"#utility.yul\":16691:16724   */\n      0x45524332303a206d696e7420746f20746865207a65726f206164647265737300\n        /* \"#utility.yul\":16687:16688   */\n      0x00\n        /* \"#utility.yul\":16679:16685   */\n      dup3\n        /* \"#utility.yul\":16675:16689   */\n      add\n        /* \"#utility.yul\":16668:16725   */\n      mstore\n        /* \"#utility.yul\":16551:16732   */\n      pop\n      jump\t// out\n        /* \"#utility.yul\":16738:17104   */\n    tag_246:\n        /* \"#utility.yul\":16880:16883   */\n      0x00\n        /* \"#utility.yul\":16901:16968   */\n      tag_393\n        /* \"#utility.yul\":16965:16967   */\n      0x1f\n        /* \"#utility.yul\":16960:16963   */\n      dup4\n        /* \"#utility.yul\":16901:16968   */\n      tag_205\n      jump\t// in\n    tag_393:\n        /* \"#utility.yul\":16894:16968   */\n      swap2\n      pop\n        /* \"#utility.yul\":16977:17070   */\n      tag_394\n        /* \"#utility.yul\":17066:17069   */\n      dup3\n        /* \"#utility.yul\":16977:17070   */\n      tag_245\n      jump\t// in\n    tag_394:\n        /* \"#utility.yul\":17095:17097   */\n      0x20\n        /* \"#utility.yul\":17090:17093   */\n      dup3\n        /* \"#utility.yul\":17086:17098   */\n      add\n        /* \"#utility.yul\":17079:17098   */\n      swap1\n      pop\n        /* \"#utility.yul\":16738:17104   */\n      swap2\n      swap1\n      pop\n      jump\t// out\n        /* \"#utility.yul\":17110:17529   */\n    tag_187:\n        /* \"#utility.yul\":17276:17280   */\n      0x00\n        /* \"#utility.yul\":17314:17316   */\n      0x20\n        /* \"#utility.yul\":17303:17312   */\n      dup3\n        /* \"#utility.yul\":17299:17317   */\n      add\n        /* \"#utility.yul\":17291:17317   */\n      swap1\n      pop\n        /* \"#utility.yul\":17363:17372   */\n      dup2\n        /* \"#utility.yul\":17357:17361   */\n      dup2\n        /* \"#utility.yul\":17353:17373   */\n      sub\n        /* \"#utility.yul\":17349:17350   */\n      0x00\n        /* \"#utility.yul\":17338:17347   */\n      dup4\n        /* \"#utility.yul\":17334:17351   */\n      add\n        /* \"#utility.yul\":17327:17374   */\n      mstore\n        /* \"#utility.yul\":17391:17522   */\n      tag_396\n        /* \"#utility.yul\":17517:17521   */\n      dup2\n        /* \"#utility.yul\":17391:17522   */\n      tag_246\n      jump\t// in\n    tag_396:\n        /* \"#utility.yul\":17383:17522   */\n      swap1\n      pop\n        /* \"#utility.yul\":17110:17529   */\n      swap2\n      swap1\n      pop\n      jump\t// out\n        /* \"#utility.yul\":17535:17755   */\n    tag_247:\n        /* \"#utility.yul\":17675:17709   */\n      0x45524332303a206275726e2066726f6d20746865207a65726f20616464726573\n        /* \"#utility.yul\":17671:17672   */\n      0x00\n        /* \"#utility.yul\":17663:17669   */\n      dup3\n        /* \"#utility.yul\":17659:17673   */\n      add\n        /* \"#utility.yul\":17652:17710   */\n      mstore\n        /* \"#utility.yul\":17744:17747   */\n      0x7300000000000000000000000000000000000000000000000000000000000000\n        /* \"#utility.yul\":17739:17741   */\n      0x20\n        /* \"#utility.yul\":17731:17737   */\n      dup3\n        /* \"#utility.yul\":17727:17742   */\n      add\n        /* \"#utility.yul\":17720:17748   */\n      mstore\n        /* \"#utility.yul\":17535:17755   */\n      pop\n      jump\t// out\n        /* \"#utility.yul\":17761:18127   */\n    tag_248:\n        /* \"#utility.yul\":17903:17906   */\n      0x00\n        /* \"#utility.yul\":17924:17991   */\n      tag_399\n        /* \"#utility.yul\":17988:17990   */\n      0x21\n        /* \"#utility.yul\":17983:17986   */\n      dup4\n        /* \"#utility.yul\":17924:17991   */\n      tag_205\n      jump\t// in\n    tag_399:\n        /* \"#utility.yul\":17917:17991   */\n      swap2\n      pop\n        /* \"#utility.yul\":18000:18093   */\n      tag_400\n        /* \"#utility.yul\":18089:18092   */\n      dup3\n        /* \"#utility.yul\":18000:18093   */\n      tag_247\n      jump\t// in\n    tag_400:\n        /* \"#utility.yul\":18118:18120   */\n      0x40\n        /* \"#utility.yul\":18113:18116   */\n      dup3\n        /* \"#utility.yul\":18109:18121   */\n      add\n        /* \"#utility.yul\":18102:18121   */\n      swap1\n      pop\n        /* \"#utility.yul\":17761:18127   */\n      swap2\n      swap1\n      pop\n      jump\t// out\n        /* \"#utility.yul\":18133:18552   */\n    tag_195:\n        /* \"#utility.yul\":18299:18303   */\n      0x00\n        /* \"#utility.yul\":18337:18339   */\n      0x20\n        /* \"#utility.yul\":18326:18335   */\n      dup3\n        /* \"#utility.yul\":18322:18340   */\n      add\n        /* \"#utility.yul\":18314:18340   */\n      swap1\n      pop\n        /* \"#utility.yul\":18386:18395   */\n      dup2\n        /* \"#utility.yul\":18380:18384   */\n      dup2\n        /* \"#utility.yul\":18376:18396   */\n      sub\n        /* \"#utility.yul\":18372:18373   */\n      0x00\n        /* \"#utility.yul\":18361:18370   */\n      dup4\n        /* \"#utility.yul\":18357:18374   */\n      add\n        /* \"#utility.yul\":18350:18397   */\n      mstore\n        /* \"#utility.yul\":18414:18545   */\n      tag_402\n        /* \"#utility.yul\":18540:18544   */\n      dup2\n        /* \"#utility.yul\":18414:18545   */\n      tag_248\n      jump\t// in\n    tag_402:\n        /* \"#utility.yul\":18406:18545   */\n      swap1\n      pop\n        /* \"#utility.yul\":18133:18552   */\n      swap2\n      swap1\n      pop\n      jump\t// out\n        /* \"#utility.yul\":18558:18779   */\n    tag_249:\n        /* \"#utility.yul\":18698:18732   */\n      0x45524332303a206275726e20616d6f756e7420657863656564732062616c616e\n        /* \"#utility.yul\":18694:18695   */\n      0x00\n        /* \"#utility.yul\":18686:18692   */\n      dup3\n        /* \"#utility.yul\":18682:18696   */\n      add\n        /* \"#utility.yul\":18675:18733   */\n      mstore\n        /* \"#utility.yul\":18767:18771   */\n      0x6365000000000000000000000000000000000000000000000000000000000000\n        /* \"#utility.yul\":18762:18764   */\n      0x20\n        /* \"#utility.yul\":18754:18760   */\n      dup3\n        /* \"#utility.yul\":18750:18765   */\n      add\n        /* \"#utility.yul\":18743:18772   */\n      mstore\n        /* \"#utility.yul\":18558:18779   */\n      pop\n      jump\t// out\n        /* \"#utility.yul\":18785:19151   */\n    tag_250:\n        /* \"#utility.yul\":18927:18930   */\n      0x00\n        /* \"#utility.yul\":18948:19015   */\n      tag_405\n        /* \"#utility.yul\":19012:19014   */\n      0x22\n        /* \"#utility.yul\":19007:19010   */\n      dup4\n        /* \"#utility.yul\":18948:19015   */\n      tag_205\n      jump\t// in\n    tag_405:\n        /* \"#utility.yul\":18941:19015   */\n      swap2\n      pop\n        /* \"#utility.yul\":19024:19117   */\n      tag_406\n        /* \"#utility.yul\":19113:19116   */\n      dup3\n        /* \"#utility.yul\":19024:19117   */\n      tag_249\n      jump\t// in\n    tag_406:\n        /* \"#utility.yul\":19142:19144   */\n      0x40\n        /* \"#utility.yul\":19137:19140   */\n      dup3\n        /* \"#utility.yul\":19133:19145   */\n      add\n        /* \"#utility.yul\":19126:19145   */\n      swap1\n      pop\n        /* \"#utility.yul\":18785:19151   */\n      swap2\n      swap1\n      pop\n      jump\t// out\n        /* \"#utility.yul\":19157:19576   */\n    tag_199:\n        /* \"#utility.yul\":19323:19327   */\n      0x00\n        /* \"#utility.yul\":19361:19363   */\n      0x20\n        /* \"#utility.yul\":19350:19359   */\n      dup3\n        /* \"#utility.yul\":19346:19364   */\n      add\n        /* \"#utility.yul\":19338:19364   */\n      swap1\n      pop\n        /* \"#utility.yul\":19410:19419   */\n      dup2\n        /* \"#utility.yul\":19404:19408   */\n      dup2\n        /* \"#utility.yul\":19400:19420   */\n      sub\n        /* \"#utility.yul\":19396:19397   */\n      0x00\n        /* \"#utility.yul\":19385:19394   */\n      dup4\n        /* \"#utility.yul\":19381:19398   */\n      add\n        /* \"#utility.yul\":19374:19421   */\n      mstore\n        /* \"#utility.yul\":19438:19569   */\n      tag_408\n        /* \"#utility.yul\":19564:19568   */\n      dup2\n        /* \"#utility.yul\":19438:19569   */\n      tag_250\n      jump\t// in\n    tag_408:\n        /* \"#utility.yul\":19430:19569   */\n      swap1\n      pop\n        /* \"#utility.yul\":19157:19576   */\n      swap2\n      swap1\n      pop\n      jump\t// out\n\n    auxdata: 0xa26469706673582212201a650b521a521991a760366d7d8cf3abf8fbb6c58f5ebc2a7bf2c2e92d034f1964736f6c634300080d0033\n}\n",
				"bytecode": {
					"linkReferences": {},
					"object": "60806040526040518060400160405280600781526020017f57424354455354000000000000000000000000000000000000000000000000008152506040518060400160405280600481526020017f5742435400000000000000000000000000000000000000000000000000000000815250816003908051906020019062000088929190620000eb565b508060049080519060200190620000a1929190620000eb565b50505033600660006101000a81548173ffffffffffffffffffffffffffffffffffffffff021916908373ffffffffffffffffffffffffffffffffffffffff160217905550620001ff565b828054620000f990620001ca565b90600052602060002090601f0160209004810192826200011d576000855562000169565b82601f106200013857805160ff191683800117855562000169565b8280016001018555821562000169579182015b82811115620001685782518255916020019190600101906200014b565b5b5090506200017891906200017c565b5090565b5b80821115620001975760008160009055506001016200017d565b5090565b7f4e487b7100000000000000000000000000000000000000000000000000000000600052602260045260246000fd5b60006002820490506001821680620001e357607f821691505b602082108103620001f957620001f86200019b565b5b50919050565b611ba5806200020f6000396000f3fe608060405234801561001057600080fd5b506004361061010b5760003560e01c8063473ca96c116100a2578063a457c2d711610071578063a457c2d7146102bc578063a7509b83146102ec578063a9059cbb1461031c578063b76a8cca1461034c578063dd62ed3e146103685761010b565b8063473ca96c1461024657806370a08231146102505780638da5cb5b1461028057806395d89b411461029e5761010b565b806327e235e3116100de57806327e235e3146101ac578063310c6226146101dc578063313ce567146101f857806339509351146102165761010b565b806306fdde0314610110578063095ea7b31461012e57806318160ddd1461015e57806323b872dd1461017c575b600080fd5b610118610398565b604051610125919061117b565b60405180910390f35b61014860048036038101906101439190611236565b61042a565b6040516101559190611291565b60405180910390f35b61016661044d565b60405161017391906112bb565b60405180910390f35b610196600480360381019061019191906112d6565b610457565b6040516101a39190611291565b60405180910390f35b6101c660048036038101906101c19190611329565b610486565b6040516101d391906112bb565b60405180910390f35b6101f660048036038101906101f19190611356565b61049e565b005b61020061053b565b60405161020d919061139f565b60405180910390f35b610230600480360381019061022b9190611236565b610544565b60405161023d9190611291565b60405180910390f35b61024e61057b565b005b61026a60048036038101906102659190611329565b610615565b60405161027791906112bb565b60405180910390f35b61028861065d565b60405161029591906113c9565b60405180910390f35b6102a6610683565b6040516102b3919061117b565b60405180910390f35b6102d660048036038101906102d19190611236565b610715565b6040516102e39190611291565b60405180910390f35b61030660048036038101906103019190611329565b61078c565b60405161031391906112bb565b60405180910390f35b61033660048036038101906103319190611236565b6107d5565b6040516103439190611291565b60405180910390f35b61036660048036038101906103619190611356565b6107f8565b005b610382600480360381019061037d91906113e4565b61085b565b60405161038f91906112bb565b60405180910390f35b6060600380546103a790611453565b80601f01602080910402602001604051908101604052809291908181526020018280546103d390611453565b80156104205780601f106103f557610100808354040283529160200191610420565b820191906000526020600020905b81548152906001019060200180831161040357829003601f168201915b5050505050905090565b6000806104356108e2565b90506104428185856108ea565b600191505092915050565b6000600254905090565b6000806104626108e2565b905061046f858285610ab3565b61047a858585610b3f565b60019150509392505050565b60056020528060005260406000206000915090505481565b3373ffffffffffffffffffffffffffffffffffffffff16600660009054906101000a900473ffffffffffffffffffffffffffffffffffffffff1673ffffffffffffffffffffffffffffffffffffffff161461052e576040517f08c379a0000000000000000000000000000000000000000000000000000000008152600401610525906114d0565b60405180910390fd5b6105383382610db5565b50565b60006012905090565b60008061054f6108e2565b9050610570818585610561858961085b565b61056b919061151f565b6108ea565b600191505092915050565b60058060003373ffffffffffffffffffffffffffffffffffffffff1673ffffffffffffffffffffffffffffffffffffffff16815260200190815260200160002054106105da573373ffffffffffffffffffffffffffffffffffffffff16ff5b6040517f08c379a000000000000000000000000000000000000000000000000000000000815260040161060c906115e7565b60405180910390fd5b60008060008373ffffffffffffffffffffffffffffffffffffffff1673ffffffffffffffffffffffffffffffffffffffff168152602001908152602001600020549050919050565b600660009054906101000a900473ffffffffffffffffffffffffffffffffffffffff1681565b60606004805461069290611453565b80601f01602080910402602001604051908101604052809291908181526020018280546106be90611453565b801561070b5780601f106106e05761010080835404028352916020019161070b565b820191906000526020600020905b8154815290600101906020018083116106ee57829003601f168201915b5050505050905090565b6000806107206108e2565b9050600061072e828661085b565b905083811015610773576040517f08c379a000000000000000000000000000000000000000000000000000000000815260040161076a90611679565b60405180910390fd5b61078082868684036108ea565b60019250505092915050565b6000600560008373ffffffffffffffffffffffffffffffffffffffff1673ffffffffffffffffffffffffffffffffffffffff168152602001908152602001600020549050919050565b6000806107e06108e2565b90506107ed818585610b3f565b600191505092915050565b6108023382610f0b565b80600560003373ffffffffffffffffffffffffffffffffffffffff1673ffffffffffffffffffffffffffffffffffffffff1681526020019081526020016000206000828254610851919061151f565b9250508190555050565b6000600160008473ffffffffffffffffffffffffffffffffffffffff1673ffffffffffffffffffffffffffffffffffffffff16815260200190815260200160002060008373ffffffffffffffffffffffffffffffffffffffff1673ffffffffffffffffffffffffffffffffffffffff16815260200190815260200160002054905092915050565b600033905090565b600073ffffffffffffffffffffffffffffffffffffffff168373ffffffffffffffffffffffffffffffffffffffff1603610959576040517f08c379a00000000000000000000000000000000000000000000000000000000081526004016109509061170b565b60405180910390fd5b600073ffffffffffffffffffffffffffffffffffffffff168273ffffffffffffffffffffffffffffffffffffffff16036109c8576040517f08c379a00000000000000000000000000000000000000000000000000000000081526004016109bf9061179d565b60405180910390fd5b80600160008573ffffffffffffffffffffffffffffffffffffffff1673ffffffffffffffffffffffffffffffffffffffff16815260200190815260200160002060008473ffffffffffffffffffffffffffffffffffffffff1673ffffffffffffffffffffffffffffffffffffffff168152602001908152602001600020819055508173ffffffffffffffffffffffffffffffffffffffff168373ffffffffffffffffffffffffffffffffffffffff167f8c5be1e5ebec7d5bd14f71427d1e84f3dd0314c0f7b2291e5b200ac8c7c3b92583604051610aa691906112bb565b60405180910390a3505050565b6000610abf848461085b565b90507fffffffffffffffffffffffffffffffffffffffffffffffffffffffffffffffff8114610b395781811015610b2b576040517f08c379a0000000000000000000000000000000000000000000000000000000008152600401610b2290611809565b60405180910390fd5b610b3884848484036108ea565b5b50505050565b600073ffffffffffffffffffffffffffffffffffffffff168373ffffffffffffffffffffffffffffffffffffffff1603610bae576040517f08c379a0000000000000000000000000000000000000000000000000000000008152600401610ba59061189b565b60405180910390fd5b600073ffffffffffffffffffffffffffffffffffffffff168273ffffffffffffffffffffffffffffffffffffffff1603610c1d576040517f08c379a0000000000000000000000000000000000000000000000000000000008152600401610c149061192d565b60405180910390fd5b610c288383836110d8565b60008060008573ffffffffffffffffffffffffffffffffffffffff1673ffffffffffffffffffffffffffffffffffffffff16815260200190815260200160002054905081811015610cae576040517f08c379a0000000000000000000000000000000000000000000000000000000008152600401610ca5906119bf565b60405180910390fd5b8181036000808673ffffffffffffffffffffffffffffffffffffffff1673ffffffffffffffffffffffffffffffffffffffff16815260200190815260200160002081905550816000808573ffffffffffffffffffffffffffffffffffffffff1673ffffffffffffffffffffffffffffffffffffffff168152602001908152602001600020600082825401925050819055508273ffffffffffffffffffffffffffffffffffffffff168473ffffffffffffffffffffffffffffffffffffffff167fddf252ad1be2c89b69c2b068fc378daa952ba7f163c4a11628f55a4df523b3ef84604051610d9c91906112bb565b60405180910390a3610daf8484846110dd565b50505050565b600073ffffffffffffffffffffffffffffffffffffffff168273ffffffffffffffffffffffffffffffffffffffff1603610e24576040517f08c379a0000000000000000000000000000000000000000000000000000000008152600401610e1b90611a2b565b60405180910390fd5b610e30600083836110d8565b8060026000828254610e42919061151f565b92505081905550806000808473ffffffffffffffffffffffffffffffffffffffff1673ffffffffffffffffffffffffffffffffffffffff168152602001908152602001600020600082825401925050819055508173ffffffffffffffffffffffffffffffffffffffff16600073ffffffffffffffffffffffffffffffffffffffff167fddf252ad1be2c89b69c2b068fc378daa952ba7f163c4a11628f55a4df523b3ef83604051610ef391906112bb565b60405180910390a3610f07600083836110dd565b5050565b600073ffffffffffffffffffffffffffffffffffffffff168273ffffffffffffffffffffffffffffffffffffffff1603610f7a576040517f08c379a0000000000000000000000000000000000000000000000000000000008152600401610f7190611abd565b60405180910390fd5b610f86826000836110d8565b60008060008473ffffffffffffffffffffffffffffffffffffffff1673ffffffffffffffffffffffffffffffffffffffff1681526020019081526020016000205490508181101561100c576040517f08c379a000000000000000000000000000000000000000000000000000000000815260040161100390611b4f565b60405180910390fd5b8181036000808573ffffffffffffffffffffffffffffffffffffffff1673ffffffffffffffffffffffffffffffffffffffff1681526020019081526020016000208190555081600260008282540392505081905550600073ffffffffffffffffffffffffffffffffffffffff168373ffffffffffffffffffffffffffffffffffffffff167fddf252ad1be2c89b69c2b068fc378daa952ba7f163c4a11628f55a4df523b3ef846040516110bf91906112bb565b60405180910390a36110d3836000846110dd565b505050565b505050565b505050565b600081519050919050565b600082825260208201905092915050565b60005b8381101561111c578082015181840152602081019050611101565b8381111561112b576000848401525b50505050565b6000601f19601f8301169050919050565b600061114d826110e2565b61115781856110ed565b93506111678185602086016110fe565b61117081611131565b840191505092915050565b600060208201905081810360008301526111958184611142565b905092915050565b600080fd5b600073ffffffffffffffffffffffffffffffffffffffff82169050919050565b60006111cd826111a2565b9050919050565b6111dd816111c2565b81146111e857600080fd5b50565b6000813590506111fa816111d4565b92915050565b6000819050919050565b61121381611200565b811461121e57600080fd5b50565b6000813590506112308161120a565b92915050565b6000806040838503121561124d5761124c61119d565b5b600061125b858286016111eb565b925050602061126c85828601611221565b9150509250929050565b60008115159050919050565b61128b81611276565b82525050565b60006020820190506112a66000830184611282565b92915050565b6112b581611200565b82525050565b60006020820190506112d060008301846112ac565b92915050565b6000806000606084860312156112ef576112ee61119d565b5b60006112fd868287016111eb565b935050602061130e868287016111eb565b925050604061131f86828701611221565b9150509250925092565b60006020828403121561133f5761133e61119d565b5b600061134d848285016111eb565b91505092915050565b60006020828403121561136c5761136b61119d565b5b600061137a84828501611221565b91505092915050565b600060ff82169050919050565b61139981611383565b82525050565b60006020820190506113b46000830184611390565b92915050565b6113c3816111c2565b82525050565b60006020820190506113de60008301846113ba565b92915050565b600080604083850312156113fb576113fa61119d565b5b6000611409858286016111eb565b925050602061141a858286016111eb565b9150509250929050565b7f4e487b7100000000000000000000000000000000000000000000000000000000600052602260045260246000fd5b6000600282049050600182168061146b57607f821691505b60208210810361147e5761147d611424565b5b50919050565b7f596f75277265206e6f7420746865206f776e6572210000000000000000000000600082015250565b60006114ba6015836110ed565b91506114c582611484565b602082019050919050565b600060208201905081810360008301526114e9816114ad565b9050919050565b7f4e487b7100000000000000000000000000000000000000000000000000000000600052601160045260246000fd5b600061152a82611200565b915061153583611200565b9250827fffffffffffffffffffffffffffffffffffffffffffffffffffffffffffffffff0382111561156a576115696114f0565b5b828201905092915050565b7f596f75206469646e2774206861766520656e6f75676820706f696e747320746f60008201527f2077696e00000000000000000000000000000000000000000000000000000000602082015250565b60006115d16024836110ed565b91506115dc82611575565b604082019050919050565b60006020820190508181036000830152611600816115c4565b9050919050565b7f45524332303a2064656372656173656420616c6c6f77616e63652062656c6f7760008201527f207a65726f000000000000000000000000000000000000000000000000000000602082015250565b60006116636025836110ed565b915061166e82611607565b604082019050919050565b6000602082019050818103600083015261169281611656565b9050919050565b7f45524332303a20617070726f76652066726f6d20746865207a65726f2061646460008201527f7265737300000000000000000000000000000000000000000000000000000000602082015250565b60006116f56024836110ed565b915061170082611699565b604082019050919050565b60006020820190508181036000830152611724816116e8565b9050919050565b7f45524332303a20617070726f766520746f20746865207a65726f20616464726560008201527f7373000000000000000000000000000000000000000000000000000000000000602082015250565b60006117876022836110ed565b91506117928261172b565b604082019050919050565b600060208201905081810360008301526117b68161177a565b9050919050565b7f45524332303a20696e73756666696369656e7420616c6c6f77616e6365000000600082015250565b60006117f3601d836110ed565b91506117fe826117bd565b602082019050919050565b60006020820190508181036000830152611822816117e6565b9050919050565b7f45524332303a207472616e736665722066726f6d20746865207a65726f20616460008201527f6472657373000000000000000000000000000000000000000000000000000000602082015250565b60006118856025836110ed565b915061189082611829565b604082019050919050565b600060208201905081810360008301526118b481611878565b9050919050565b7f45524332303a207472616e7366657220746f20746865207a65726f206164647260008201527f6573730000000000000000000000000000000000000000000000000000000000602082015250565b60006119176023836110ed565b9150611922826118bb565b604082019050919050565b600060208201905081810360008301526119468161190a565b9050919050565b7f45524332303a207472616e7366657220616d6f756e742065786365656473206260008201527f616c616e63650000000000000000000000000000000000000000000000000000602082015250565b60006119a96026836110ed565b91506119b48261194d565b604082019050919050565b600060208201905081810360008301526119d88161199c565b9050919050565b7f45524332303a206d696e7420746f20746865207a65726f206164647265737300600082015250565b6000611a15601f836110ed565b9150611a20826119df565b602082019050919050565b60006020820190508181036000830152611a4481611a08565b9050919050565b7f45524332303a206275726e2066726f6d20746865207a65726f2061646472657360008201527f7300000000000000000000000000000000000000000000000000000000000000602082015250565b6000611aa76021836110ed565b9150611ab282611a4b565b604082019050919050565b60006020820190508181036000830152611ad681611a9a565b9050919050565b7f45524332303a206275726e20616d6f756e7420657863656564732062616c616e60008201527f6365000000000000000000000000000000000000000000000000000000000000602082015250565b6000611b396022836110ed565b9150611b4482611add565b604082019050919050565b60006020820190508181036000830152611b6881611b2c565b905091905056fea26469706673582212201a650b521a521991a760366d7d8cf3abf8fbb6c58f5ebc2a7bf2c2e92d034f1964736f6c634300080d0033",
					"opcodes": "PUSH1 0x80 PUSH1 0x40 MSTORE PUSH1 0x40 MLOAD DUP1 PUSH1 0x40 ADD PUSH1 0x40 MSTORE DUP1 PUSH1 0x7 DUP2 MSTORE PUSH1 0x20 ADD PUSH32 0x5742435445535400000000000000000000000000000000000000000000000000 DUP2 MSTORE POP PUSH1 0x40 MLOAD DUP1 PUSH1 0x40 ADD PUSH1 0x40 MSTORE DUP1 PUSH1 0x4 DUP2 MSTORE PUSH1 0x20 ADD PUSH32 0x5742435400000000000000000000000000000000000000000000000000000000 DUP2 MSTORE POP DUP2 PUSH1 0x3 SWAP1 DUP1 MLOAD SWAP1 PUSH1 0x20 ADD SWAP1 PUSH3 0x88 SWAP3 SWAP2 SWAP1 PUSH3 0xEB JUMP JUMPDEST POP DUP1 PUSH1 0x4 SWAP1 DUP1 MLOAD SWAP1 PUSH1 0x20 ADD SWAP1 PUSH3 0xA1 SWAP3 SWAP2 SWAP1 PUSH3 0xEB JUMP JUMPDEST POP POP POP CALLER PUSH1 0x6 PUSH1 0x0 PUSH2 0x100 EXP DUP2 SLOAD DUP2 PUSH20 0xFFFFFFFFFFFFFFFFFFFFFFFFFFFFFFFFFFFFFFFF MUL NOT AND SWAP1 DUP4 PUSH20 0xFFFFFFFFFFFFFFFFFFFFFFFFFFFFFFFFFFFFFFFF AND MUL OR SWAP1 SSTORE POP PUSH3 0x1FF JUMP JUMPDEST DUP3 DUP1 SLOAD PUSH3 0xF9 SWAP1 PUSH3 0x1CA JUMP JUMPDEST SWAP1 PUSH1 0x0 MSTORE PUSH1 0x20 PUSH1 0x0 KECCAK256 SWAP1 PUSH1 0x1F ADD PUSH1 0x20 SWAP1 DIV DUP2 ADD SWAP3 DUP3 PUSH3 0x11D JUMPI PUSH1 0x0 DUP6 SSTORE PUSH3 0x169 JUMP JUMPDEST DUP3 PUSH1 0x1F LT PUSH3 0x138 JUMPI DUP1 MLOAD PUSH1 0xFF NOT AND DUP4 DUP1 ADD OR DUP6 SSTORE PUSH3 0x169 JUMP JUMPDEST DUP3 DUP1 ADD PUSH1 0x1 ADD DUP6 SSTORE DUP3 ISZERO PUSH3 0x169 JUMPI SWAP2 DUP3 ADD JUMPDEST DUP3 DUP2 GT ISZERO PUSH3 0x168 JUMPI DUP3 MLOAD DUP3 SSTORE SWAP2 PUSH1 0x20 ADD SWAP2 SWAP1 PUSH1 0x1 ADD SWAP1 PUSH3 0x14B JUMP JUMPDEST JUMPDEST POP SWAP1 POP PUSH3 0x178 SWAP2 SWAP1 PUSH3 0x17C JUMP JUMPDEST POP SWAP1 JUMP JUMPDEST JUMPDEST DUP1 DUP3 GT ISZERO PUSH3 0x197 JUMPI PUSH1 0x0 DUP2 PUSH1 0x0 SWAP1 SSTORE POP PUSH1 0x1 ADD PUSH3 0x17D JUMP JUMPDEST POP SWAP1 JUMP JUMPDEST PUSH32 0x4E487B7100000000000000000000000000000000000000000000000000000000 PUSH1 0x0 MSTORE PUSH1 0x22 PUSH1 0x4 MSTORE PUSH1 0x24 PUSH1 0x0 REVERT JUMPDEST PUSH1 0x0 PUSH1 0x2 DUP3 DIV SWAP1 POP PUSH1 0x1 DUP3 AND DUP1 PUSH3 0x1E3 JUMPI PUSH1 0x7F DUP3 AND SWAP2 POP JUMPDEST PUSH1 0x20 DUP3 LT DUP2 SUB PUSH3 0x1F9 JUMPI PUSH3 0x1F8 PUSH3 0x19B JUMP JUMPDEST JUMPDEST POP SWAP2 SWAP1 POP JUMP JUMPDEST PUSH2 0x1BA5 DUP1 PUSH3 0x20F PUSH1 0x0 CODECOPY PUSH1 0x0 RETURN INVALID PUSH1 0x80 PUSH1 0x40 MSTORE CALLVALUE DUP1 ISZERO PUSH2 0x10 JUMPI PUSH1 0x0 DUP1 REVERT JUMPDEST POP PUSH1 0x4 CALLDATASIZE LT PUSH2 0x10B JUMPI PUSH1 0x0 CALLDATALOAD PUSH1 0xE0 SHR DUP1 PUSH4 0x473CA96C GT PUSH2 0xA2 JUMPI DUP1 PUSH4 0xA457C2D7 GT PUSH2 0x71 JUMPI DUP1 PUSH4 0xA457C2D7 EQ PUSH2 0x2BC JUMPI DUP1 PUSH4 0xA7509B83 EQ PUSH2 0x2EC JUMPI DUP1 PUSH4 0xA9059CBB EQ PUSH2 0x31C JUMPI DUP1 PUSH4 0xB76A8CCA EQ PUSH2 0x34C JUMPI DUP1 PUSH4 0xDD62ED3E EQ PUSH2 0x368 JUMPI PUSH2 0x10B JUMP JUMPDEST DUP1 PUSH4 0x473CA96C EQ PUSH2 0x246 JUMPI DUP1 PUSH4 0x70A08231 EQ PUSH2 0x250 JUMPI DUP1 PUSH4 0x8DA5CB5B EQ PUSH2 0x280 JUMPI DUP1 PUSH4 0x95D89B41 EQ PUSH2 0x29E JUMPI PUSH2 0x10B JUMP JUMPDEST DUP1 PUSH4 0x27E235E3 GT PUSH2 0xDE JUMPI DUP1 PUSH4 0x27E235E3 EQ PUSH2 0x1AC JUMPI DUP1 PUSH4 0x310C6226 EQ PUSH2 0x1DC JUMPI DUP1 PUSH4 0x313CE567 EQ PUSH2 0x1F8 JUMPI DUP1 PUSH4 0x39509351 EQ PUSH2 0x216 JUMPI PUSH2 0x10B JUMP JUMPDEST DUP1 PUSH4 0x6FDDE03 EQ PUSH2 0x110 JUMPI DUP1 PUSH4 0x95EA7B3 EQ PUSH2 0x12E JUMPI DUP1 PUSH4 0x18160DDD EQ PUSH2 0x15E JUMPI DUP1 PUSH4 0x23B872DD EQ PUSH2 0x17C JUMPI JUMPDEST PUSH1 0x0 DUP1 REVERT JUMPDEST PUSH2 0x118 PUSH2 0x398 JUMP JUMPDEST PUSH1 0x40 MLOAD PUSH2 0x125 SWAP2 SWAP1 PUSH2 0x117B JUMP JUMPDEST PUSH1 0x40 MLOAD DUP1 SWAP2 SUB SWAP1 RETURN JUMPDEST PUSH2 0x148 PUSH1 0x4 DUP1 CALLDATASIZE SUB DUP2 ADD SWAP1 PUSH2 0x143 SWAP2 SWAP1 PUSH2 0x1236 JUMP JUMPDEST PUSH2 0x42A JUMP JUMPDEST PUSH1 0x40 MLOAD PUSH2 0x155 SWAP2 SWAP1 PUSH2 0x1291 JUMP JUMPDEST PUSH1 0x40 MLOAD DUP1 SWAP2 SUB SWAP1 RETURN JUMPDEST PUSH2 0x166 PUSH2 0x44D JUMP JUMPDEST PUSH1 0x40 MLOAD PUSH2 0x173 SWAP2 SWAP1 PUSH2 0x12BB JUMP JUMPDEST PUSH1 0x40 MLOAD DUP1 SWAP2 SUB SWAP1 RETURN JUMPDEST PUSH2 0x196 PUSH1 0x4 DUP1 CALLDATASIZE SUB DUP2 ADD SWAP1 PUSH2 0x191 SWAP2 SWAP1 PUSH2 0x12D6 JUMP JUMPDEST PUSH2 0x457 JUMP JUMPDEST PUSH1 0x40 MLOAD PUSH2 0x1A3 SWAP2 SWAP1 PUSH2 0x1291 JUMP JUMPDEST PUSH1 0x40 MLOAD DUP1 SWAP2 SUB SWAP1 RETURN JUMPDEST PUSH2 0x1C6 PUSH1 0x4 DUP1 CALLDATASIZE SUB DUP2 ADD SWAP1 PUSH2 0x1C1 SWAP2 SWAP1 PUSH2 0x1329 JUMP JUMPDEST PUSH2 0x486 JUMP JUMPDEST PUSH1 0x40 MLOAD PUSH2 0x1D3 SWAP2 SWAP1 PUSH2 0x12BB JUMP JUMPDEST PUSH1 0x40 MLOAD DUP1 SWAP2 SUB SWAP1 RETURN JUMPDEST PUSH2 0x1F6 PUSH1 0x4 DUP1 CALLDATASIZE SUB DUP2 ADD SWAP1 PUSH2 0x1F1 SWAP2 SWAP1 PUSH2 0x1356 JUMP JUMPDEST PUSH2 0x49E JUMP JUMPDEST STOP JUMPDEST PUSH2 0x200 PUSH2 0x53B JUMP JUMPDEST PUSH1 0x40 MLOAD PUSH2 0x20D SWAP2 SWAP1 PUSH2 0x139F JUMP JUMPDEST PUSH1 0x40 MLOAD DUP1 SWAP2 SUB SWAP1 RETURN JUMPDEST PUSH2 0x230 PUSH1 0x4 DUP1 CALLDATASIZE SUB DUP2 ADD SWAP1 PUSH2 0x22B SWAP2 SWAP1 PUSH2 0x1236 JUMP JUMPDEST PUSH2 0x544 JUMP JUMPDEST PUSH1 0x40 MLOAD PUSH2 0x23D SWAP2 SWAP1 PUSH2 0x1291 JUMP JUMPDEST PUSH1 0x40 MLOAD DUP1 SWAP2 SUB SWAP1 RETURN JUMPDEST PUSH2 0x24E PUSH2 0x57B JUMP JUMPDEST STOP JUMPDEST PUSH2 0x26A PUSH1 0x4 DUP1 CALLDATASIZE SUB DUP2 ADD SWAP1 PUSH2 0x265 SWAP2 SWAP1 PUSH2 0x1329 JUMP JUMPDEST PUSH2 0x615 JUMP JUMPDEST PUSH1 0x40 MLOAD PUSH2 0x277 SWAP2 SWAP1 PUSH2 0x12BB JUMP JUMPDEST PUSH1 0x40 MLOAD DUP1 SWAP2 SUB SWAP1 RETURN JUMPDEST PUSH2 0x288 PUSH2 0x65D JUMP JUMPDEST PUSH1 0x40 MLOAD PUSH2 0x295 SWAP2 SWAP1 PUSH2 0x13C9 JUMP JUMPDEST PUSH1 0x40 MLOAD DUP1 SWAP2 SUB SWAP1 RETURN JUMPDEST PUSH2 0x2A6 PUSH2 0x683 JUMP JUMPDEST PUSH1 0x40 MLOAD PUSH2 0x2B3 SWAP2 SWAP1 PUSH2 0x117B JUMP JUMPDEST PUSH1 0x40 MLOAD DUP1 SWAP2 SUB SWAP1 RETURN JUMPDEST PUSH2 0x2D6 PUSH1 0x4 DUP1 CALLDATASIZE SUB DUP2 ADD SWAP1 PUSH2 0x2D1 SWAP2 SWAP1 PUSH2 0x1236 JUMP JUMPDEST PUSH2 0x715 JUMP JUMPDEST PUSH1 0x40 MLOAD PUSH2 0x2E3 SWAP2 SWAP1 PUSH2 0x1291 JUMP JUMPDEST PUSH1 0x40 MLOAD DUP1 SWAP2 SUB SWAP1 RETURN JUMPDEST PUSH2 0x306 PUSH1 0x4 DUP1 CALLDATASIZE SUB DUP2 ADD SWAP1 PUSH2 0x301 SWAP2 SWAP1 PUSH2 0x1329 JUMP JUMPDEST PUSH2 0x78C JUMP JUMPDEST PUSH1 0x40 MLOAD PUSH2 0x313 SWAP2 SWAP1 PUSH2 0x12BB JUMP JUMPDEST PUSH1 0x40 MLOAD DUP1 SWAP2 SUB SWAP1 RETURN JUMPDEST PUSH2 0x336 PUSH1 0x4 DUP1 CALLDATASIZE SUB DUP2 ADD SWAP1 PUSH2 0x331 SWAP2 SWAP1 PUSH2 0x1236 JUMP JUMPDEST PUSH2 0x7D5 JUMP JUMPDEST PUSH1 0x40 MLOAD PUSH2 0x343 SWAP2 SWAP1 PUSH2 0x1291 JUMP JUMPDEST PUSH1 0x40 MLOAD DUP1 SWAP2 SUB SWAP1 RETURN JUMPDEST PUSH2 0x366 PUSH1 0x4 DUP1 CALLDATASIZE SUB DUP2 ADD SWAP1 PUSH2 0x361 SWAP2 SWAP1 PUSH2 0x1356 JUMP JUMPDEST PUSH2 0x7F8 JUMP JUMPDEST STOP JUMPDEST PUSH2 0x382 PUSH1 0x4 DUP1 CALLDATASIZE SUB DUP2 ADD SWAP1 PUSH2 0x37D SWAP2 SWAP1 PUSH2 0x13E4 JUMP JUMPDEST PUSH2 0x85B JUMP JUMPDEST PUSH1 0x40 MLOAD PUSH2 0x38F SWAP2 SWAP1 PUSH2 0x12BB JUMP JUMPDEST PUSH1 0x40 MLOAD DUP1 SWAP2 SUB SWAP1 RETURN JUMPDEST PUSH1 0x60 PUSH1 0x3 DUP1 SLOAD PUSH2 0x3A7 SWAP1 PUSH2 0x1453 JUMP JUMPDEST DUP1 PUSH1 0x1F ADD PUSH1 0x20 DUP1 SWAP2 DIV MUL PUSH1 0x20 ADD PUSH1 0x40 MLOAD SWAP1 DUP2 ADD PUSH1 0x40 MSTORE DUP1 SWAP3 SWAP2 SWAP1 DUP2 DUP2 MSTORE PUSH1 0x20 ADD DUP3 DUP1 SLOAD PUSH2 0x3D3 SWAP1 PUSH2 0x1453 JUMP JUMPDEST DUP1 ISZERO PUSH2 0x420 JUMPI DUP1 PUSH1 0x1F LT PUSH2 0x3F5 JUMPI PUSH2 0x100 DUP1 DUP4 SLOAD DIV MUL DUP4 MSTORE SWAP2 PUSH1 0x20 ADD SWAP2 PUSH2 0x420 JUMP JUMPDEST DUP3 ADD SWAP2 SWAP1 PUSH1 0x0 MSTORE PUSH1 0x20 PUSH1 0x0 KECCAK256 SWAP1 JUMPDEST DUP2 SLOAD DUP2 MSTORE SWAP1 PUSH1 0x1 ADD SWAP1 PUSH1 0x20 ADD DUP1 DUP4 GT PUSH2 0x403 JUMPI DUP3 SWAP1 SUB PUSH1 0x1F AND DUP3 ADD SWAP2 JUMPDEST POP POP POP POP POP SWAP1 POP SWAP1 JUMP JUMPDEST PUSH1 0x0 DUP1 PUSH2 0x435 PUSH2 0x8E2 JUMP JUMPDEST SWAP1 POP PUSH2 0x442 DUP2 DUP6 DUP6 PUSH2 0x8EA JUMP JUMPDEST PUSH1 0x1 SWAP2 POP POP SWAP3 SWAP2 POP POP JUMP JUMPDEST PUSH1 0x0 PUSH1 0x2 SLOAD SWAP1 POP SWAP1 JUMP JUMPDEST PUSH1 0x0 DUP1 PUSH2 0x462 PUSH2 0x8E2 JUMP JUMPDEST SWAP1 POP PUSH2 0x46F DUP6 DUP3 DUP6 PUSH2 0xAB3 JUMP JUMPDEST PUSH2 0x47A DUP6 DUP6 DUP6 PUSH2 0xB3F JUMP JUMPDEST PUSH1 0x1 SWAP2 POP POP SWAP4 SWAP3 POP POP POP JUMP JUMPDEST PUSH1 0x5 PUSH1 0x20 MSTORE DUP1 PUSH1 0x0 MSTORE PUSH1 0x40 PUSH1 0x0 KECCAK256 PUSH1 0x0 SWAP2 POP SWAP1 POP SLOAD DUP2 JUMP JUMPDEST CALLER PUSH20 0xFFFFFFFFFFFFFFFFFFFFFFFFFFFFFFFFFFFFFFFF AND PUSH1 0x6 PUSH1 0x0 SWAP1 SLOAD SWAP1 PUSH2 0x100 EXP SWAP1 DIV PUSH20 0xFFFFFFFFFFFFFFFFFFFFFFFFFFFFFFFFFFFFFFFF AND PUSH20 0xFFFFFFFFFFFFFFFFFFFFFFFFFFFFFFFFFFFFFFFF AND EQ PUSH2 0x52E JUMPI PUSH1 0x40 MLOAD PUSH32 0x8C379A000000000000000000000000000000000000000000000000000000000 DUP2 MSTORE PUSH1 0x4 ADD PUSH2 0x525 SWAP1 PUSH2 0x14D0 JUMP JUMPDEST PUSH1 0x40 MLOAD DUP1 SWAP2 SUB SWAP1 REVERT JUMPDEST PUSH2 0x538 CALLER DUP3 PUSH2 0xDB5 JUMP JUMPDEST POP JUMP JUMPDEST PUSH1 0x0 PUSH1 0x12 SWAP1 POP SWAP1 JUMP JUMPDEST PUSH1 0x0 DUP1 PUSH2 0x54F PUSH2 0x8E2 JUMP JUMPDEST SWAP1 POP PUSH2 0x570 DUP2 DUP6 DUP6 PUSH2 0x561 DUP6 DUP10 PUSH2 0x85B JUMP JUMPDEST PUSH2 0x56B SWAP2 SWAP1 PUSH2 0x151F JUMP JUMPDEST PUSH2 0x8EA JUMP JUMPDEST PUSH1 0x1 SWAP2 POP POP SWAP3 SWAP2 POP POP JUMP JUMPDEST PUSH1 0x5 DUP1 PUSH1 0x0 CALLER PUSH20 0xFFFFFFFFFFFFFFFFFFFFFFFFFFFFFFFFFFFFFFFF AND PUSH20 0xFFFFFFFFFFFFFFFFFFFFFFFFFFFFFFFFFFFFFFFF AND DUP2 MSTORE PUSH1 0x20 ADD SWAP1 DUP2 MSTORE PUSH1 0x20 ADD PUSH1 0x0 KECCAK256 SLOAD LT PUSH2 0x5DA JUMPI CALLER PUSH20 0xFFFFFFFFFFFFFFFFFFFFFFFFFFFFFFFFFFFFFFFF AND SELFDESTRUCT JUMPDEST PUSH1 0x40 MLOAD PUSH32 0x8C379A000000000000000000000000000000000000000000000000000000000 DUP2 MSTORE PUSH1 0x4 ADD PUSH2 0x60C SWAP1 PUSH2 0x15E7 JUMP JUMPDEST PUSH1 0x40 MLOAD DUP1 SWAP2 SUB SWAP1 REVERT JUMPDEST PUSH1 0x0 DUP1 PUSH1 0x0 DUP4 PUSH20 0xFFFFFFFFFFFFFFFFFFFFFFFFFFFFFFFFFFFFFFFF AND PUSH20 0xFFFFFFFFFFFFFFFFFFFFFFFFFFFFFFFFFFFFFFFF AND DUP2 MSTORE PUSH1 0x20 ADD SWAP1 DUP2 MSTORE PUSH1 0x20 ADD PUSH1 0x0 KECCAK256 SLOAD SWAP1 POP SWAP2 SWAP1 POP JUMP JUMPDEST PUSH1 0x6 PUSH1 0x0 SWAP1 SLOAD SWAP1 PUSH2 0x100 EXP SWAP1 DIV PUSH20 0xFFFFFFFFFFFFFFFFFFFFFFFFFFFFFFFFFFFFFFFF AND DUP2 JUMP JUMPDEST PUSH1 0x60 PUSH1 0x4 DUP1 SLOAD PUSH2 0x692 SWAP1 PUSH2 0x1453 JUMP JUMPDEST DUP1 PUSH1 0x1F ADD PUSH1 0x20 DUP1 SWAP2 DIV MUL PUSH1 0x20 ADD PUSH1 0x40 MLOAD SWAP1 DUP2 ADD PUSH1 0x40 MSTORE DUP1 SWAP3 SWAP2 SWAP1 DUP2 DUP2 MSTORE PUSH1 0x20 ADD DUP3 DUP1 SLOAD PUSH2 0x6BE SWAP1 PUSH2 0x1453 JUMP JUMPDEST DUP1 ISZERO PUSH2 0x70B JUMPI DUP1 PUSH1 0x1F LT PUSH2 0x6E0 JUMPI PUSH2 0x100 DUP1 DUP4 SLOAD DIV MUL DUP4 MSTORE SWAP2 PUSH1 0x20 ADD SWAP2 PUSH2 0x70B JUMP JUMPDEST DUP3 ADD SWAP2 SWAP1 PUSH1 0x0 MSTORE PUSH1 0x20 PUSH1 0x0 KECCAK256 SWAP1 JUMPDEST DUP2 SLOAD DUP2 MSTORE SWAP1 PUSH1 0x1 ADD SWAP1 PUSH1 0x20 ADD DUP1 DUP4 GT PUSH2 0x6EE JUMPI DUP3 SWAP1 SUB PUSH1 0x1F AND DUP3 ADD SWAP2 JUMPDEST POP POP POP POP POP SWAP1 POP SWAP1 JUMP JUMPDEST PUSH1 0x0 DUP1 PUSH2 0x720 PUSH2 0x8E2 JUMP JUMPDEST SWAP1 POP PUSH1 0x0 PUSH2 0x72E DUP3 DUP7 PUSH2 0x85B JUMP JUMPDEST SWAP1 POP DUP4 DUP2 LT ISZERO PUSH2 0x773 JUMPI PUSH1 0x40 MLOAD PUSH32 0x8C379A000000000000000000000000000000000000000000000000000000000 DUP2 MSTORE PUSH1 0x4 ADD PUSH2 0x76A SWAP1 PUSH2 0x1679 JUMP JUMPDEST PUSH1 0x40 MLOAD DUP1 SWAP2 SUB SWAP1 REVERT JUMPDEST PUSH2 0x780 DUP3 DUP7 DUP7 DUP5 SUB PUSH2 0x8EA JUMP JUMPDEST PUSH1 0x1 SWAP3 POP POP POP SWAP3 SWAP2 POP POP JUMP JUMPDEST PUSH1 0x0 PUSH1 0x5 PUSH1 0x0 DUP4 PUSH20 0xFFFFFFFFFFFFFFFFFFFFFFFFFFFFFFFFFFFFFFFF AND PUSH20 0xFFFFFFFFFFFFFFFFFFFFFFFFFFFFFFFFFFFFFFFF AND DUP2 MSTORE PUSH1 0x20 ADD SWAP1 DUP2 MSTORE PUSH1 0x20 ADD PUSH1 0x0 KECCAK256 SLOAD SWAP1 POP SWAP2 SWAP1 POP JUMP JUMPDEST PUSH1 0x0 DUP1 PUSH2 0x7E0 PUSH2 0x8E2 JUMP JUMPDEST SWAP1 POP PUSH2 0x7ED DUP2 DUP6 DUP6 PUSH2 0xB3F JUMP JUMPDEST PUSH1 0x1 SWAP2 POP POP SWAP3 SWAP2 POP POP JUMP JUMPDEST PUSH2 0x802 CALLER DUP3 PUSH2 0xF0B JUMP JUMPDEST DUP1 PUSH1 0x5 PUSH1 0x0 CALLER PUSH20 0xFFFFFFFFFFFFFFFFFFFFFFFFFFFFFFFFFFFFFFFF AND PUSH20 0xFFFFFFFFFFFFFFFFFFFFFFFFFFFFFFFFFFFFFFFF AND DUP2 MSTORE PUSH1 0x20 ADD SWAP1 DUP2 MSTORE PUSH1 0x20 ADD PUSH1 0x0 KECCAK256 PUSH1 0x0 DUP3 DUP3 SLOAD PUSH2 0x851 SWAP2 SWAP1 PUSH2 0x151F JUMP JUMPDEST SWAP3 POP POP DUP2 SWAP1 SSTORE POP POP JUMP JUMPDEST PUSH1 0x0 PUSH1 0x1 PUSH1 0x0 DUP5 PUSH20 0xFFFFFFFFFFFFFFFFFFFFFFFFFFFFFFFFFFFFFFFF AND PUSH20 0xFFFFFFFFFFFFFFFFFFFFFFFFFFFFFFFFFFFFFFFF AND DUP2 MSTORE PUSH1 0x20 ADD SWAP1 DUP2 MSTORE PUSH1 0x20 ADD PUSH1 0x0 KECCAK256 PUSH1 0x0 DUP4 PUSH20 0xFFFFFFFFFFFFFFFFFFFFFFFFFFFFFFFFFFFFFFFF AND PUSH20 0xFFFFFFFFFFFFFFFFFFFFFFFFFFFFFFFFFFFFFFFF AND DUP2 MSTORE PUSH1 0x20 ADD SWAP1 DUP2 MSTORE PUSH1 0x20 ADD PUSH1 0x0 KECCAK256 SLOAD SWAP1 POP SWAP3 SWAP2 POP POP JUMP JUMPDEST PUSH1 0x0 CALLER SWAP1 POP SWAP1 JUMP JUMPDEST PUSH1 0x0 PUSH20 0xFFFFFFFFFFFFFFFFFFFFFFFFFFFFFFFFFFFFFFFF AND DUP4 PUSH20 0xFFFFFFFFFFFFFFFFFFFFFFFFFFFFFFFFFFFFFFFF AND SUB PUSH2 0x959 JUMPI PUSH1 0x40 MLOAD PUSH32 0x8C379A000000000000000000000000000000000000000000000000000000000 DUP2 MSTORE PUSH1 0x4 ADD PUSH2 0x950 SWAP1 PUSH2 0x170B JUMP JUMPDEST PUSH1 0x40 MLOAD DUP1 SWAP2 SUB SWAP1 REVERT JUMPDEST PUSH1 0x0 PUSH20 0xFFFFFFFFFFFFFFFFFFFFFFFFFFFFFFFFFFFFFFFF AND DUP3 PUSH20 0xFFFFFFFFFFFFFFFFFFFFFFFFFFFFFFFFFFFFFFFF AND SUB PUSH2 0x9C8 JUMPI PUSH1 0x40 MLOAD PUSH32 0x8C379A000000000000000000000000000000000000000000000000000000000 DUP2 MSTORE PUSH1 0x4 ADD PUSH2 0x9BF SWAP1 PUSH2 0x179D JUMP JUMPDEST PUSH1 0x40 MLOAD DUP1 SWAP2 SUB SWAP1 REVERT JUMPDEST DUP1 PUSH1 0x1 PUSH1 0x0 DUP6 PUSH20 0xFFFFFFFFFFFFFFFFFFFFFFFFFFFFFFFFFFFFFFFF AND PUSH20 0xFFFFFFFFFFFFFFFFFFFFFFFFFFFFFFFFFFFFFFFF AND DUP2 MSTORE PUSH1 0x20 ADD SWAP1 DUP2 MSTORE PUSH1 0x20 ADD PUSH1 0x0 KECCAK256 PUSH1 0x0 DUP5 PUSH20 0xFFFFFFFFFFFFFFFFFFFFFFFFFFFFFFFFFFFFFFFF AND PUSH20 0xFFFFFFFFFFFFFFFFFFFFFFFFFFFFFFFFFFFFFFFF AND DUP2 MSTORE PUSH1 0x20 ADD SWAP1 DUP2 MSTORE PUSH1 0x20 ADD PUSH1 0x0 KECCAK256 DUP2 SWAP1 SSTORE POP DUP2 PUSH20 0xFFFFFFFFFFFFFFFFFFFFFFFFFFFFFFFFFFFFFFFF AND DUP4 PUSH20 0xFFFFFFFFFFFFFFFFFFFFFFFFFFFFFFFFFFFFFFFF AND PUSH32 0x8C5BE1E5EBEC7D5BD14F71427D1E84F3DD0314C0F7B2291E5B200AC8C7C3B925 DUP4 PUSH1 0x40 MLOAD PUSH2 0xAA6 SWAP2 SWAP1 PUSH2 0x12BB JUMP JUMPDEST PUSH1 0x40 MLOAD DUP1 SWAP2 SUB SWAP1 LOG3 POP POP POP JUMP JUMPDEST PUSH1 0x0 PUSH2 0xABF DUP5 DUP5 PUSH2 0x85B JUMP JUMPDEST SWAP1 POP PUSH32 0xFFFFFFFFFFFFFFFFFFFFFFFFFFFFFFFFFFFFFFFFFFFFFFFFFFFFFFFFFFFFFFFF DUP2 EQ PUSH2 0xB39 JUMPI DUP2 DUP2 LT ISZERO PUSH2 0xB2B JUMPI PUSH1 0x40 MLOAD PUSH32 0x8C379A000000000000000000000000000000000000000000000000000000000 DUP2 MSTORE PUSH1 0x4 ADD PUSH2 0xB22 SWAP1 PUSH2 0x1809 JUMP JUMPDEST PUSH1 0x40 MLOAD DUP1 SWAP2 SUB SWAP1 REVERT JUMPDEST PUSH2 0xB38 DUP5 DUP5 DUP5 DUP5 SUB PUSH2 0x8EA JUMP JUMPDEST JUMPDEST POP POP POP POP JUMP JUMPDEST PUSH1 0x0 PUSH20 0xFFFFFFFFFFFFFFFFFFFFFFFFFFFFFFFFFFFFFFFF AND DUP4 PUSH20 0xFFFFFFFFFFFFFFFFFFFFFFFFFFFFFFFFFFFFFFFF AND SUB PUSH2 0xBAE JUMPI PUSH1 0x40 MLOAD PUSH32 0x8C379A000000000000000000000000000000000000000000000000000000000 DUP2 MSTORE PUSH1 0x4 ADD PUSH2 0xBA5 SWAP1 PUSH2 0x189B JUMP JUMPDEST PUSH1 0x40 MLOAD DUP1 SWAP2 SUB SWAP1 REVERT JUMPDEST PUSH1 0x0 PUSH20 0xFFFFFFFFFFFFFFFFFFFFFFFFFFFFFFFFFFFFFFFF AND DUP3 PUSH20 0xFFFFFFFFFFFFFFFFFFFFFFFFFFFFFFFFFFFFFFFF AND SUB PUSH2 0xC1D JUMPI PUSH1 0x40 MLOAD PUSH32 0x8C379A000000000000000000000000000000000000000000000000000000000 DUP2 MSTORE PUSH1 0x4 ADD PUSH2 0xC14 SWAP1 PUSH2 0x192D JUMP JUMPDEST PUSH1 0x40 MLOAD DUP1 SWAP2 SUB SWAP1 REVERT JUMPDEST PUSH2 0xC28 DUP4 DUP4 DUP4 PUSH2 0x10D8 JUMP JUMPDEST PUSH1 0x0 DUP1 PUSH1 0x0 DUP6 PUSH20 0xFFFFFFFFFFFFFFFFFFFFFFFFFFFFFFFFFFFFFFFF AND PUSH20 0xFFFFFFFFFFFFFFFFFFFFFFFFFFFFFFFFFFFFFFFF AND DUP2 MSTORE PUSH1 0x20 ADD SWAP1 DUP2 MSTORE PUSH1 0x20 ADD PUSH1 0x0 KECCAK256 SLOAD SWAP1 POP DUP2 DUP2 LT ISZERO PUSH2 0xCAE JUMPI PUSH1 0x40 MLOAD PUSH32 0x8C379A000000000000000000000000000000000000000000000000000000000 DUP2 MSTORE PUSH1 0x4 ADD PUSH2 0xCA5 SWAP1 PUSH2 0x19BF JUMP JUMPDEST PUSH1 0x40 MLOAD DUP1 SWAP2 SUB SWAP1 REVERT JUMPDEST DUP2 DUP2 SUB PUSH1 0x0 DUP1 DUP7 PUSH20 0xFFFFFFFFFFFFFFFFFFFFFFFFFFFFFFFFFFFFFFFF AND PUSH20 0xFFFFFFFFFFFFFFFFFFFFFFFFFFFFFFFFFFFFFFFF AND DUP2 MSTORE PUSH1 0x20 ADD SWAP1 DUP2 MSTORE PUSH1 0x20 ADD PUSH1 0x0 KECCAK256 DUP2 SWAP1 SSTORE POP DUP2 PUSH1 0x0 DUP1 DUP6 PUSH20 0xFFFFFFFFFFFFFFFFFFFFFFFFFFFFFFFFFFFFFFFF AND PUSH20 0xFFFFFFFFFFFFFFFFFFFFFFFFFFFFFFFFFFFFFFFF AND DUP2 MSTORE PUSH1 0x20 ADD SWAP1 DUP2 MSTORE PUSH1 0x20 ADD PUSH1 0x0 KECCAK256 PUSH1 0x0 DUP3 DUP3 SLOAD ADD SWAP3 POP POP DUP2 SWAP1 SSTORE POP DUP3 PUSH20 0xFFFFFFFFFFFFFFFFFFFFFFFFFFFFFFFFFFFFFFFF AND DUP5 PUSH20 0xFFFFFFFFFFFFFFFFFFFFFFFFFFFFFFFFFFFFFFFF AND PUSH32 0xDDF252AD1BE2C89B69C2B068FC378DAA952BA7F163C4A11628F55A4DF523B3EF DUP5 PUSH1 0x40 MLOAD PUSH2 0xD9C SWAP2 SWAP1 PUSH2 0x12BB JUMP JUMPDEST PUSH1 0x40 MLOAD DUP1 SWAP2 SUB SWAP1 LOG3 PUSH2 0xDAF DUP5 DUP5 DUP5 PUSH2 0x10DD JUMP JUMPDEST POP POP POP POP JUMP JUMPDEST PUSH1 0x0 PUSH20 0xFFFFFFFFFFFFFFFFFFFFFFFFFFFFFFFFFFFFFFFF AND DUP3 PUSH20 0xFFFFFFFFFFFFFFFFFFFFFFFFFFFFFFFFFFFFFFFF AND SUB PUSH2 0xE24 JUMPI PUSH1 0x40 MLOAD PUSH32 0x8C379A000000000000000000000000000000000000000000000000000000000 DUP2 MSTORE PUSH1 0x4 ADD PUSH2 0xE1B SWAP1 PUSH2 0x1A2B JUMP JUMPDEST PUSH1 0x40 MLOAD DUP1 SWAP2 SUB SWAP1 REVERT JUMPDEST PUSH2 0xE30 PUSH1 0x0 DUP4 DUP4 PUSH2 0x10D8 JUMP JUMPDEST DUP1 PUSH1 0x2 PUSH1 0x0 DUP3 DUP3 SLOAD PUSH2 0xE42 SWAP2 SWAP1 PUSH2 0x151F JUMP JUMPDEST SWAP3 POP POP DUP2 SWAP1 SSTORE POP DUP1 PUSH1 0x0 DUP1 DUP5 PUSH20 0xFFFFFFFFFFFFFFFFFFFFFFFFFFFFFFFFFFFFFFFF AND PUSH20 0xFFFFFFFFFFFFFFFFFFFFFFFFFFFFFFFFFFFFFFFF AND DUP2 MSTORE PUSH1 0x20 ADD SWAP1 DUP2 MSTORE PUSH1 0x20 ADD PUSH1 0x0 KECCAK256 PUSH1 0x0 DUP3 DUP3 SLOAD ADD SWAP3 POP POP DUP2 SWAP1 SSTORE POP DUP2 PUSH20 0xFFFFFFFFFFFFFFFFFFFFFFFFFFFFFFFFFFFFFFFF AND PUSH1 0x0 PUSH20 0xFFFFFFFFFFFFFFFFFFFFFFFFFFFFFFFFFFFFFFFF AND PUSH32 0xDDF252AD1BE2C89B69C2B068FC378DAA952BA7F163C4A11628F55A4DF523B3EF DUP4 PUSH1 0x40 MLOAD PUSH2 0xEF3 SWAP2 SWAP1 PUSH2 0x12BB JUMP JUMPDEST PUSH1 0x40 MLOAD DUP1 SWAP2 SUB SWAP1 LOG3 PUSH2 0xF07 PUSH1 0x0 DUP4 DUP4 PUSH2 0x10DD JUMP JUMPDEST POP POP JUMP JUMPDEST PUSH1 0x0 PUSH20 0xFFFFFFFFFFFFFFFFFFFFFFFFFFFFFFFFFFFFFFFF AND DUP3 PUSH20 0xFFFFFFFFFFFFFFFFFFFFFFFFFFFFFFFFFFFFFFFF AND SUB PUSH2 0xF7A JUMPI PUSH1 0x40 MLOAD PUSH32 0x8C379A000000000000000000000000000000000000000000000000000000000 DUP2 MSTORE PUSH1 0x4 ADD PUSH2 0xF71 SWAP1 PUSH2 0x1ABD JUMP JUMPDEST PUSH1 0x40 MLOAD DUP1 SWAP2 SUB SWAP1 REVERT JUMPDEST PUSH2 0xF86 DUP3 PUSH1 0x0 DUP4 PUSH2 0x10D8 JUMP JUMPDEST PUSH1 0x0 DUP1 PUSH1 0x0 DUP5 PUSH20 0xFFFFFFFFFFFFFFFFFFFFFFFFFFFFFFFFFFFFFFFF AND PUSH20 0xFFFFFFFFFFFFFFFFFFFFFFFFFFFFFFFFFFFFFFFF AND DUP2 MSTORE PUSH1 0x20 ADD SWAP1 DUP2 MSTORE PUSH1 0x20 ADD PUSH1 0x0 KECCAK256 SLOAD SWAP1 POP DUP2 DUP2 LT ISZERO PUSH2 0x100C JUMPI PUSH1 0x40 MLOAD PUSH32 0x8C379A000000000000000000000000000000000000000000000000000000000 DUP2 MSTORE PUSH1 0x4 ADD PUSH2 0x1003 SWAP1 PUSH2 0x1B4F JUMP JUMPDEST PUSH1 0x40 MLOAD DUP1 SWAP2 SUB SWAP1 REVERT JUMPDEST DUP2 DUP2 SUB PUSH1 0x0 DUP1 DUP6 PUSH20 0xFFFFFFFFFFFFFFFFFFFFFFFFFFFFFFFFFFFFFFFF AND PUSH20 0xFFFFFFFFFFFFFFFFFFFFFFFFFFFFFFFFFFFFFFFF AND DUP2 MSTORE PUSH1 0x20 ADD SWAP1 DUP2 MSTORE PUSH1 0x20 ADD PUSH1 0x0 KECCAK256 DUP2 SWAP1 SSTORE POP DUP2 PUSH1 0x2 PUSH1 0x0 DUP3 DUP3 SLOAD SUB SWAP3 POP POP DUP2 SWAP1 SSTORE POP PUSH1 0x0 PUSH20 0xFFFFFFFFFFFFFFFFFFFFFFFFFFFFFFFFFFFFFFFF AND DUP4 PUSH20 0xFFFFFFFFFFFFFFFFFFFFFFFFFFFFFFFFFFFFFFFF AND PUSH32 0xDDF252AD1BE2C89B69C2B068FC378DAA952BA7F163C4A11628F55A4DF523B3EF DUP5 PUSH1 0x40 MLOAD PUSH2 0x10BF SWAP2 SWAP1 PUSH2 0x12BB JUMP JUMPDEST PUSH1 0x40 MLOAD DUP1 SWAP2 SUB SWAP1 LOG3 PUSH2 0x10D3 DUP4 PUSH1 0x0 DUP5 PUSH2 0x10DD JUMP JUMPDEST POP POP POP JUMP JUMPDEST POP POP POP JUMP JUMPDEST POP POP POP JUMP JUMPDEST PUSH1 0x0 DUP2 MLOAD SWAP1 POP SWAP2 SWAP1 POP JUMP JUMPDEST PUSH1 0x0 DUP3 DUP3 MSTORE PUSH1 0x20 DUP3 ADD SWAP1 POP SWAP3 SWAP2 POP POP JUMP JUMPDEST PUSH1 0x0 JUMPDEST DUP4 DUP2 LT ISZERO PUSH2 0x111C JUMPI DUP1 DUP3 ADD MLOAD DUP2 DUP5 ADD MSTORE PUSH1 0x20 DUP2 ADD SWAP1 POP PUSH2 0x1101 JUMP JUMPDEST DUP4 DUP2 GT ISZERO PUSH2 0x112B JUMPI PUSH1 0x0 DUP5 DUP5 ADD MSTORE JUMPDEST POP POP POP POP JUMP JUMPDEST PUSH1 0x0 PUSH1 0x1F NOT PUSH1 0x1F DUP4 ADD AND SWAP1 POP SWAP2 SWAP1 POP JUMP JUMPDEST PUSH1 0x0 PUSH2 0x114D DUP3 PUSH2 0x10E2 JUMP JUMPDEST PUSH2 0x1157 DUP2 DUP6 PUSH2 0x10ED JUMP JUMPDEST SWAP4 POP PUSH2 0x1167 DUP2 DUP6 PUSH1 0x20 DUP7 ADD PUSH2 0x10FE JUMP JUMPDEST PUSH2 0x1170 DUP2 PUSH2 0x1131 JUMP JUMPDEST DUP5 ADD SWAP2 POP POP SWAP3 SWAP2 POP POP JUMP JUMPDEST PUSH1 0x0 PUSH1 0x20 DUP3 ADD SWAP1 POP DUP2 DUP2 SUB PUSH1 0x0 DUP4 ADD MSTORE PUSH2 0x1195 DUP2 DUP5 PUSH2 0x1142 JUMP JUMPDEST SWAP1 POP SWAP3 SWAP2 POP POP JUMP JUMPDEST PUSH1 0x0 DUP1 REVERT JUMPDEST PUSH1 0x0 PUSH20 0xFFFFFFFFFFFFFFFFFFFFFFFFFFFFFFFFFFFFFFFF DUP3 AND SWAP1 POP SWAP2 SWAP1 POP JUMP JUMPDEST PUSH1 0x0 PUSH2 0x11CD DUP3 PUSH2 0x11A2 JUMP JUMPDEST SWAP1 POP SWAP2 SWAP1 POP JUMP JUMPDEST PUSH2 0x11DD DUP2 PUSH2 0x11C2 JUMP JUMPDEST DUP2 EQ PUSH2 0x11E8 JUMPI PUSH1 0x0 DUP1 REVERT JUMPDEST POP JUMP JUMPDEST PUSH1 0x0 DUP2 CALLDATALOAD SWAP1 POP PUSH2 0x11FA DUP2 PUSH2 0x11D4 JUMP JUMPDEST SWAP3 SWAP2 POP POP JUMP JUMPDEST PUSH1 0x0 DUP2 SWAP1 POP SWAP2 SWAP1 POP JUMP JUMPDEST PUSH2 0x1213 DUP2 PUSH2 0x1200 JUMP JUMPDEST DUP2 EQ PUSH2 0x121E JUMPI PUSH1 0x0 DUP1 REVERT JUMPDEST POP JUMP JUMPDEST PUSH1 0x0 DUP2 CALLDATALOAD SWAP1 POP PUSH2 0x1230 DUP2 PUSH2 0x120A JUMP JUMPDEST SWAP3 SWAP2 POP POP JUMP JUMPDEST PUSH1 0x0 DUP1 PUSH1 0x40 DUP4 DUP6 SUB SLT ISZERO PUSH2 0x124D JUMPI PUSH2 0x124C PUSH2 0x119D JUMP JUMPDEST JUMPDEST PUSH1 0x0 PUSH2 0x125B DUP6 DUP3 DUP7 ADD PUSH2 0x11EB JUMP JUMPDEST SWAP3 POP POP PUSH1 0x20 PUSH2 0x126C DUP6 DUP3 DUP7 ADD PUSH2 0x1221 JUMP JUMPDEST SWAP2 POP POP SWAP3 POP SWAP3 SWAP1 POP JUMP JUMPDEST PUSH1 0x0 DUP2 ISZERO ISZERO SWAP1 POP SWAP2 SWAP1 POP JUMP JUMPDEST PUSH2 0x128B DUP2 PUSH2 0x1276 JUMP JUMPDEST DUP3 MSTORE POP POP JUMP JUMPDEST PUSH1 0x0 PUSH1 0x20 DUP3 ADD SWAP1 POP PUSH2 0x12A6 PUSH1 0x0 DUP4 ADD DUP5 PUSH2 0x1282 JUMP JUMPDEST SWAP3 SWAP2 POP POP JUMP JUMPDEST PUSH2 0x12B5 DUP2 PUSH2 0x1200 JUMP JUMPDEST DUP3 MSTORE POP POP JUMP JUMPDEST PUSH1 0x0 PUSH1 0x20 DUP3 ADD SWAP1 POP PUSH2 0x12D0 PUSH1 0x0 DUP4 ADD DUP5 PUSH2 0x12AC JUMP JUMPDEST SWAP3 SWAP2 POP POP JUMP JUMPDEST PUSH1 0x0 DUP1 PUSH1 0x0 PUSH1 0x60 DUP5 DUP7 SUB SLT ISZERO PUSH2 0x12EF JUMPI PUSH2 0x12EE PUSH2 0x119D JUMP JUMPDEST JUMPDEST PUSH1 0x0 PUSH2 0x12FD DUP7 DUP3 DUP8 ADD PUSH2 0x11EB JUMP JUMPDEST SWAP4 POP POP PUSH1 0x20 PUSH2 0x130E DUP7 DUP3 DUP8 ADD PUSH2 0x11EB JUMP JUMPDEST SWAP3 POP POP PUSH1 0x40 PUSH2 0x131F DUP7 DUP3 DUP8 ADD PUSH2 0x1221 JUMP JUMPDEST SWAP2 POP POP SWAP3 POP SWAP3 POP SWAP3 JUMP JUMPDEST PUSH1 0x0 PUSH1 0x20 DUP3 DUP5 SUB SLT ISZERO PUSH2 0x133F JUMPI PUSH2 0x133E PUSH2 0x119D JUMP JUMPDEST JUMPDEST PUSH1 0x0 PUSH2 0x134D DUP5 DUP3 DUP6 ADD PUSH2 0x11EB JUMP JUMPDEST SWAP2 POP POP SWAP3 SWAP2 POP POP JUMP JUMPDEST PUSH1 0x0 PUSH1 0x20 DUP3 DUP5 SUB SLT ISZERO PUSH2 0x136C JUMPI PUSH2 0x136B PUSH2 0x119D JUMP JUMPDEST JUMPDEST PUSH1 0x0 PUSH2 0x137A DUP5 DUP3 DUP6 ADD PUSH2 0x1221 JUMP JUMPDEST SWAP2 POP POP SWAP3 SWAP2 POP POP JUMP JUMPDEST PUSH1 0x0 PUSH1 0xFF DUP3 AND SWAP1 POP SWAP2 SWAP1 POP JUMP JUMPDEST PUSH2 0x1399 DUP2 PUSH2 0x1383 JUMP JUMPDEST DUP3 MSTORE POP POP JUMP JUMPDEST PUSH1 0x0 PUSH1 0x20 DUP3 ADD SWAP1 POP PUSH2 0x13B4 PUSH1 0x0 DUP4 ADD DUP5 PUSH2 0x1390 JUMP JUMPDEST SWAP3 SWAP2 POP POP JUMP JUMPDEST PUSH2 0x13C3 DUP2 PUSH2 0x11C2 JUMP JUMPDEST DUP3 MSTORE POP POP JUMP JUMPDEST PUSH1 0x0 PUSH1 0x20 DUP3 ADD SWAP1 POP PUSH2 0x13DE PUSH1 0x0 DUP4 ADD DUP5 PUSH2 0x13BA JUMP JUMPDEST SWAP3 SWAP2 POP POP JUMP JUMPDEST PUSH1 0x0 DUP1 PUSH1 0x40 DUP4 DUP6 SUB SLT ISZERO PUSH2 0x13FB JUMPI PUSH2 0x13FA PUSH2 0x119D JUMP JUMPDEST JUMPDEST PUSH1 0x0 PUSH2 0x1409 DUP6 DUP3 DUP7 ADD PUSH2 0x11EB JUMP JUMPDEST SWAP3 POP POP PUSH1 0x20 PUSH2 0x141A DUP6 DUP3 DUP7 ADD PUSH2 0x11EB JUMP JUMPDEST SWAP2 POP POP SWAP3 POP SWAP3 SWAP1 POP JUMP JUMPDEST PUSH32 0x4E487B7100000000000000000000000000000000000000000000000000000000 PUSH1 0x0 MSTORE PUSH1 0x22 PUSH1 0x4 MSTORE PUSH1 0x24 PUSH1 0x0 REVERT JUMPDEST PUSH1 0x0 PUSH1 0x2 DUP3 DIV SWAP1 POP PUSH1 0x1 DUP3 AND DUP1 PUSH2 0x146B JUMPI PUSH1 0x7F DUP3 AND SWAP2 POP JUMPDEST PUSH1 0x20 DUP3 LT DUP2 SUB PUSH2 0x147E JUMPI PUSH2 0x147D PUSH2 0x1424 JUMP JUMPDEST JUMPDEST POP SWAP2 SWAP1 POP JUMP JUMPDEST PUSH32 0x596F75277265206E6F7420746865206F776E6572210000000000000000000000 PUSH1 0x0 DUP3 ADD MSTORE POP JUMP JUMPDEST PUSH1 0x0 PUSH2 0x14BA PUSH1 0x15 DUP4 PUSH2 0x10ED JUMP JUMPDEST SWAP2 POP PUSH2 0x14C5 DUP3 PUSH2 0x1484 JUMP JUMPDEST PUSH1 0x20 DUP3 ADD SWAP1 POP SWAP2 SWAP1 POP JUMP JUMPDEST PUSH1 0x0 PUSH1 0x20 DUP3 ADD SWAP1 POP DUP2 DUP2 SUB PUSH1 0x0 DUP4 ADD MSTORE PUSH2 0x14E9 DUP2 PUSH2 0x14AD JUMP JUMPDEST SWAP1 POP SWAP2 SWAP1 POP JUMP JUMPDEST PUSH32 0x4E487B7100000000000000000000000000000000000000000000000000000000 PUSH1 0x0 MSTORE PUSH1 0x11 PUSH1 0x4 MSTORE PUSH1 0x24 PUSH1 0x0 REVERT JUMPDEST PUSH1 0x0 PUSH2 0x152A DUP3 PUSH2 0x1200 JUMP JUMPDEST SWAP2 POP PUSH2 0x1535 DUP4 PUSH2 0x1200 JUMP JUMPDEST SWAP3 POP DUP3 PUSH32 0xFFFFFFFFFFFFFFFFFFFFFFFFFFFFFFFFFFFFFFFFFFFFFFFFFFFFFFFFFFFFFFFF SUB DUP3 GT ISZERO PUSH2 0x156A JUMPI PUSH2 0x1569 PUSH2 0x14F0 JUMP JUMPDEST JUMPDEST DUP3 DUP3 ADD SWAP1 POP SWAP3 SWAP2 POP POP JUMP JUMPDEST PUSH32 0x596F75206469646E2774206861766520656E6F75676820706F696E747320746F PUSH1 0x0 DUP3 ADD MSTORE PUSH32 0x2077696E00000000000000000000000000000000000000000000000000000000 PUSH1 0x20 DUP3 ADD MSTORE POP JUMP JUMPDEST PUSH1 0x0 PUSH2 0x15D1 PUSH1 0x24 DUP4 PUSH2 0x10ED JUMP JUMPDEST SWAP2 POP PUSH2 0x15DC DUP3 PUSH2 0x1575 JUMP JUMPDEST PUSH1 0x40 DUP3 ADD SWAP1 POP SWAP2 SWAP1 POP JUMP JUMPDEST PUSH1 0x0 PUSH1 0x20 DUP3 ADD SWAP1 POP DUP2 DUP2 SUB PUSH1 0x0 DUP4 ADD MSTORE PUSH2 0x1600 DUP2 PUSH2 0x15C4 JUMP JUMPDEST SWAP1 POP SWAP2 SWAP1 POP JUMP JUMPDEST PUSH32 0x45524332303A2064656372656173656420616C6C6F77616E63652062656C6F77 PUSH1 0x0 DUP3 ADD MSTORE PUSH32 0x207A65726F000000000000000000000000000000000000000000000000000000 PUSH1 0x20 DUP3 ADD MSTORE POP JUMP JUMPDEST PUSH1 0x0 PUSH2 0x1663 PUSH1 0x25 DUP4 PUSH2 0x10ED JUMP JUMPDEST SWAP2 POP PUSH2 0x166E DUP3 PUSH2 0x1607 JUMP JUMPDEST PUSH1 0x40 DUP3 ADD SWAP1 POP SWAP2 SWAP1 POP JUMP JUMPDEST PUSH1 0x0 PUSH1 0x20 DUP3 ADD SWAP1 POP DUP2 DUP2 SUB PUSH1 0x0 DUP4 ADD MSTORE PUSH2 0x1692 DUP2 PUSH2 0x1656 JUMP JUMPDEST SWAP1 POP SWAP2 SWAP1 POP JUMP JUMPDEST PUSH32 0x45524332303A20617070726F76652066726F6D20746865207A65726F20616464 PUSH1 0x0 DUP3 ADD MSTORE PUSH32 0x7265737300000000000000000000000000000000000000000000000000000000 PUSH1 0x20 DUP3 ADD MSTORE POP JUMP JUMPDEST PUSH1 0x0 PUSH2 0x16F5 PUSH1 0x24 DUP4 PUSH2 0x10ED JUMP JUMPDEST SWAP2 POP PUSH2 0x1700 DUP3 PUSH2 0x1699 JUMP JUMPDEST PUSH1 0x40 DUP3 ADD SWAP1 POP SWAP2 SWAP1 POP JUMP JUMPDEST PUSH1 0x0 PUSH1 0x20 DUP3 ADD SWAP1 POP DUP2 DUP2 SUB PUSH1 0x0 DUP4 ADD MSTORE PUSH2 0x1724 DUP2 PUSH2 0x16E8 JUMP JUMPDEST SWAP1 POP SWAP2 SWAP1 POP JUMP JUMPDEST PUSH32 0x45524332303A20617070726F766520746F20746865207A65726F206164647265 PUSH1 0x0 DUP3 ADD MSTORE PUSH32 0x7373000000000000000000000000000000000000000000000000000000000000 PUSH1 0x20 DUP3 ADD MSTORE POP JUMP JUMPDEST PUSH1 0x0 PUSH2 0x1787 PUSH1 0x22 DUP4 PUSH2 0x10ED JUMP JUMPDEST SWAP2 POP PUSH2 0x1792 DUP3 PUSH2 0x172B JUMP JUMPDEST PUSH1 0x40 DUP3 ADD SWAP1 POP SWAP2 SWAP1 POP JUMP JUMPDEST PUSH1 0x0 PUSH1 0x20 DUP3 ADD SWAP1 POP DUP2 DUP2 SUB PUSH1 0x0 DUP4 ADD MSTORE PUSH2 0x17B6 DUP2 PUSH2 0x177A JUMP JUMPDEST SWAP1 POP SWAP2 SWAP1 POP JUMP JUMPDEST PUSH32 0x45524332303A20696E73756666696369656E7420616C6C6F77616E6365000000 PUSH1 0x0 DUP3 ADD MSTORE POP JUMP JUMPDEST PUSH1 0x0 PUSH2 0x17F3 PUSH1 0x1D DUP4 PUSH2 0x10ED JUMP JUMPDEST SWAP2 POP PUSH2 0x17FE DUP3 PUSH2 0x17BD JUMP JUMPDEST PUSH1 0x20 DUP3 ADD SWAP1 POP SWAP2 SWAP1 POP JUMP JUMPDEST PUSH1 0x0 PUSH1 0x20 DUP3 ADD SWAP1 POP DUP2 DUP2 SUB PUSH1 0x0 DUP4 ADD MSTORE PUSH2 0x1822 DUP2 PUSH2 0x17E6 JUMP JUMPDEST SWAP1 POP SWAP2 SWAP1 POP JUMP JUMPDEST PUSH32 0x45524332303A207472616E736665722066726F6D20746865207A65726F206164 PUSH1 0x0 DUP3 ADD MSTORE PUSH32 0x6472657373000000000000000000000000000000000000000000000000000000 PUSH1 0x20 DUP3 ADD MSTORE POP JUMP JUMPDEST PUSH1 0x0 PUSH2 0x1885 PUSH1 0x25 DUP4 PUSH2 0x10ED JUMP JUMPDEST SWAP2 POP PUSH2 0x1890 DUP3 PUSH2 0x1829 JUMP JUMPDEST PUSH1 0x40 DUP3 ADD SWAP1 POP SWAP2 SWAP1 POP JUMP JUMPDEST PUSH1 0x0 PUSH1 0x20 DUP3 ADD SWAP1 POP DUP2 DUP2 SUB PUSH1 0x0 DUP4 ADD MSTORE PUSH2 0x18B4 DUP2 PUSH2 0x1878 JUMP JUMPDEST SWAP1 POP SWAP2 SWAP1 POP JUMP JUMPDEST PUSH32 0x45524332303A207472616E7366657220746F20746865207A65726F2061646472 PUSH1 0x0 DUP3 ADD MSTORE PUSH32 0x6573730000000000000000000000000000000000000000000000000000000000 PUSH1 0x20 DUP3 ADD MSTORE POP JUMP JUMPDEST PUSH1 0x0 PUSH2 0x1917 PUSH1 0x23 DUP4 PUSH2 0x10ED JUMP JUMPDEST SWAP2 POP PUSH2 0x1922 DUP3 PUSH2 0x18BB JUMP JUMPDEST PUSH1 0x40 DUP3 ADD SWAP1 POP SWAP2 SWAP1 POP JUMP JUMPDEST PUSH1 0x0 PUSH1 0x20 DUP3 ADD SWAP1 POP DUP2 DUP2 SUB PUSH1 0x0 DUP4 ADD MSTORE PUSH2 0x1946 DUP2 PUSH2 0x190A JUMP JUMPDEST SWAP1 POP SWAP2 SWAP1 POP JUMP JUMPDEST PUSH32 0x45524332303A207472616E7366657220616D6F756E7420657863656564732062 PUSH1 0x0 DUP3 ADD MSTORE PUSH32 0x616C616E63650000000000000000000000000000000000000000000000000000 PUSH1 0x20 DUP3 ADD MSTORE POP JUMP JUMPDEST PUSH1 0x0 PUSH2 0x19A9 PUSH1 0x26 DUP4 PUSH2 0x10ED JUMP JUMPDEST SWAP2 POP PUSH2 0x19B4 DUP3 PUSH2 0x194D JUMP JUMPDEST PUSH1 0x40 DUP3 ADD SWAP1 POP SWAP2 SWAP1 POP JUMP JUMPDEST PUSH1 0x0 PUSH1 0x20 DUP3 ADD SWAP1 POP DUP2 DUP2 SUB PUSH1 0x0 DUP4 ADD MSTORE PUSH2 0x19D8 DUP2 PUSH2 0x199C JUMP JUMPDEST SWAP1 POP SWAP2 SWAP1 POP JUMP JUMPDEST PUSH32 0x45524332303A206D696E7420746F20746865207A65726F206164647265737300 PUSH1 0x0 DUP3 ADD MSTORE POP JUMP JUMPDEST PUSH1 0x0 PUSH2 0x1A15 PUSH1 0x1F DUP4 PUSH2 0x10ED JUMP JUMPDEST SWAP2 POP PUSH2 0x1A20 DUP3 PUSH2 0x19DF JUMP JUMPDEST PUSH1 0x20 DUP3 ADD SWAP1 POP SWAP2 SWAP1 POP JUMP JUMPDEST PUSH1 0x0 PUSH1 0x20 DUP3 ADD SWAP1 POP DUP2 DUP2 SUB PUSH1 0x0 DUP4 ADD MSTORE PUSH2 0x1A44 DUP2 PUSH2 0x1A08 JUMP JUMPDEST SWAP1 POP SWAP2 SWAP1 POP JUMP JUMPDEST PUSH32 0x45524332303A206275726E2066726F6D20746865207A65726F20616464726573 PUSH1 0x0 DUP3 ADD MSTORE PUSH32 0x7300000000000000000000000000000000000000000000000000000000000000 PUSH1 0x20 DUP3 ADD MSTORE POP JUMP JUMPDEST PUSH1 0x0 PUSH2 0x1AA7 PUSH1 0x21 DUP4 PUSH2 0x10ED JUMP JUMPDEST SWAP2 POP PUSH2 0x1AB2 DUP3 PUSH2 0x1A4B JUMP JUMPDEST PUSH1 0x40 DUP3 ADD SWAP1 POP SWAP2 SWAP1 POP JUMP JUMPDEST PUSH1 0x0 PUSH1 0x20 DUP3 ADD SWAP1 POP DUP2 DUP2 SUB PUSH1 0x0 DUP4 ADD MSTORE PUSH2 0x1AD6 DUP2 PUSH2 0x1A9A JUMP JUMPDEST SWAP1 POP SWAP2 SWAP1 POP JUMP JUMPDEST PUSH32 0x45524332303A206275726E20616D6F756E7420657863656564732062616C616E PUSH1 0x0 DUP3 ADD MSTORE PUSH32 0x6365000000000000000000000000000000000000000000000000000000000000 PUSH1 0x20 DUP3 ADD MSTORE POP JUMP JUMPDEST PUSH1 0x0 PUSH2 0x1B39 PUSH1 0x22 DUP4 PUSH2 0x10ED JUMP JUMPDEST SWAP2 POP PUSH2 0x1B44 DUP3 PUSH2 0x1ADD JUMP JUMPDEST PUSH1 0x40 DUP3 ADD SWAP1 POP SWAP2 SWAP1 POP JUMP JUMPDEST PUSH1 0x0 PUSH1 0x20 DUP3 ADD SWAP1 POP DUP2 DUP2 SUB PUSH1 0x0 DUP4 ADD MSTORE PUSH2 0x1B68 DUP2 PUSH2 0x1B2C JUMP JUMPDEST SWAP1 POP SWAP2 SWAP1 POP JUMP INVALID LOG2 PUSH5 0x6970667358 0x22 SLT KECCAK256 BYTE PUSH6 0xB521A521991 0xA7 PUSH1 0x36 PUSH14 0x7D8CF3ABF8FBB6C58F5EBC2A7BF2 0xC2 0xE9 0x2D SUB 0x4F NOT PUSH5 0x736F6C6343 STOP ADDMOD 0xD STOP CALLER "
				},
				"gasEstimates": {
					"creation": {
						"codeDepositCost": "1415400",
						"executionCost": "infinite",
						"totalCost": "infinite"
					},
					"external": {
						"allowance(address,address)": "infinite",
						"approve(address,uint256)": "infinite",
						"balanceOf(address)": "2886",
						"balances(address)": "2837",
						"burnAndAdd(uint256)": "infinite",
						"burned(address)": "2885",
						"decimals()": "410",
						"decreaseAllowance(address,uint256)": "infinite",
						"increaseAllowance(address,uint256)": "infinite",
						"mintNewTokens(uint256)": "infinite",
						"name()": "infinite",
						"owner()": "2581",
						"symbol()": "infinite",
						"totalSupply()": "2505",
						"transfer(address,uint256)": "infinite",
						"transferFrom(address,address,uint256)": "infinite",
						"win()": "29977"
					}
				},
				"methodIdentifiers": {
					"allowance(address,address)": "dd62ed3e",
					"approve(address,uint256)": "095ea7b3",
					"balanceOf(address)": "70a08231",
					"balances(address)": "27e235e3",
					"burnAndAdd(uint256)": "b76a8cca",
					"burned(address)": "a7509b83",
					"decimals()": "313ce567",
					"decreaseAllowance(address,uint256)": "a457c2d7",
					"increaseAllowance(address,uint256)": "39509351",
					"mintNewTokens(uint256)": "310c6226",
					"name()": "06fdde03",
					"owner()": "8da5cb5b",
					"symbol()": "95d89b41",
					"totalSupply()": "18160ddd",
					"transfer(address,uint256)": "a9059cbb",
					"transferFrom(address,address,uint256)": "23b872dd",
					"win()": "473ca96c"
				}
			},
			"storageLayout": {
				"storage": [
					{
						"astId": 15,
						"contract": "bootcamp/week3/day_1_create_token.sol:token",
						"label": "_balances",
						"offset": 0,
						"slot": "0",
						"type": "t_mapping(t_address,t_uint256)"
					},
					{
						"astId": 21,
						"contract": "bootcamp/week3/day_1_create_token.sol:token",
						"label": "_allowances",
						"offset": 0,
						"slot": "1",
						"type": "t_mapping(t_address,t_mapping(t_address,t_uint256))"
					},
					{
						"astId": 23,
						"contract": "bootcamp/week3/day_1_create_token.sol:token",
						"label": "_totalSupply",
						"offset": 0,
						"slot": "2",
						"type": "t_uint256"
					},
					{
						"astId": 25,
						"contract": "bootcamp/week3/day_1_create_token.sol:token",
						"label": "_name",
						"offset": 0,
						"slot": "3",
						"type": "t_string_storage"
					},
					{
						"astId": 27,
						"contract": "bootcamp/week3/day_1_create_token.sol:token",
						"label": "_symbol",
						"offset": 0,
						"slot": "4",
						"type": "t_string_storage"
					},
					{
						"astId": 722,
						"contract": "bootcamp/week3/day_1_create_token.sol:token",
						"label": "balances",
						"offset": 0,
						"slot": "5",
						"type": "t_mapping(t_address,t_uint256)"
					},
					{
						"astId": 724,
						"contract": "bootcamp/week3/day_1_create_token.sol:token",
						"label": "owner",
						"offset": 0,
						"slot": "6",
						"type": "t_address"
					}
				],
				"types": {
					"t_address": {
						"encoding": "inplace",
						"label": "address",
						"numberOfBytes": "20"
					},
					"t_mapping(t_address,t_mapping(t_address,t_uint256))": {
						"encoding": "mapping",
						"key": "t_address",
						"label": "mapping(address => mapping(address => uint256))",
						"numberOfBytes": "32",
						"value": "t_mapping(t_address,t_uint256)"
					},
					"t_mapping(t_address,t_uint256)": {
						"encoding": "mapping",
						"key": "t_address",
						"label": "mapping(address => uint256)",
						"numberOfBytes": "32",
						"value": "t_uint256"
					},
					"t_string_storage": {
						"encoding": "bytes",
						"label": "string",
						"numberOfBytes": "32"
					},
					"t_uint256": {
						"encoding": "inplace",
						"label": "uint256",
						"numberOfBytes": "32"
					}
				}
			},
			"userdoc": {
				"kind": "user",
				"methods": {},
				"version": 1
			}
		}
	}
}