{
	"bootcamp/week3/day_2_timed_token_transfer.sol": {
		"timed": {
			"abi": [
				{
					"inputs": [],
					"name": "canMint",
					"outputs": [
						{
							"internalType": "bool",
							"name": "",
							"type": "bool"
						}
					],
					"stateMutability": "view",
					"type": "function"
				},
				{
					"inputs": [],
					"name": "getTime",
					"outputs": [
						{
							"internalType": "uint256",
							"name": "",
							"type": "uint256"
						}
					],
					"stateMutability": "view",
					"type": "function"
				},
				{
					"inputs": [],
					"name": "launchTime",
					"outputs": [
						{
							"internalType": "uint256",
							"name": "",
							"type": "uint256"
						}
					],
					"stateMutability": "view",
					"type": "function"
				},
				{
					"inputs": [],
					"name": "mintTokens",
					"outputs": [],
					"stateMutability": "nonpayable",
					"type": "function"
				}
			],
			"devdoc": {
				"kind": "dev",
				"methods": {},
				"version": 1
			},
			"evm": {
				"assembly": "    /* \"bootcamp/week3/day_2_timed_token_transfer.sol\":59:405  contract timed {... */\n  mstore(0x40, 0x80)\n    /* \"bootcamp/week3/day_2_timed_token_transfer.sol\":125:137  1 hours / 60 */\n  0x3c\n    /* \"bootcamp/week3/day_2_timed_token_transfer.sol\":106:121  block.timestamp */\n  timestamp\n    /* \"bootcamp/week3/day_2_timed_token_transfer.sol\":106:138  block.timestamp * (1 hours / 60) */\n  tag_1\n  swap2\n  swap1\n  tag_2\n  jump\t// in\ntag_1:\n    /* \"bootcamp/week3/day_2_timed_token_transfer.sol\":81:138  uint public launchTime = block.timestamp * (1 hours / 60) */\n  0x00\n  sstore\n    /* \"bootcamp/week3/day_2_timed_token_transfer.sol\":166:171  false */\n  0x00\n    /* \"bootcamp/week3/day_2_timed_token_transfer.sol\":144:171  bool public canMint = false */\n  0x01\n  exp(0x0100, 0x00)\n  dup2\n  sload\n  dup2\n  0xff\n  mul\n  not\n  and\n  swap1\n  dup4\n  iszero\n  iszero\n  mul\n  or\n  swap1\n  sstore\n  pop\n    /* \"bootcamp/week3/day_2_timed_token_transfer.sol\":59:405  contract timed {... */\n  callvalue\n  dup1\n  iszero\n  tag_3\n  jumpi\n  0x00\n  dup1\n  revert\ntag_3:\n  pop\n  jump(tag_4)\n    /* \"#utility.yul\":7:84   */\ntag_5:\n    /* \"#utility.yul\":44:51   */\n  0x00\n    /* \"#utility.yul\":73:78   */\n  dup2\n    /* \"#utility.yul\":62:78   */\n  swap1\n  pop\n    /* \"#utility.yul\":7:84   */\n  swap2\n  swap1\n  pop\n  jump\t// out\n    /* \"#utility.yul\":90:270   */\ntag_6:\n    /* \"#utility.yul\":138:215   */\n  0x4e487b7100000000000000000000000000000000000000000000000000000000\n    /* \"#utility.yul\":135:136   */\n  0x00\n    /* \"#utility.yul\":128:216   */\n  mstore\n    /* \"#utility.yul\":235:239   */\n  0x11\n    /* \"#utility.yul\":232:233   */\n  0x04\n    /* \"#utility.yul\":225:240   */\n  mstore\n    /* \"#utility.yul\":259:263   */\n  0x24\n    /* \"#utility.yul\":256:257   */\n  0x00\n    /* \"#utility.yul\":249:264   */\n  revert\n    /* \"#utility.yul\":276:624   */\ntag_2:\n    /* \"#utility.yul\":316:323   */\n  0x00\n    /* \"#utility.yul\":339:359   */\n  tag_11\n    /* \"#utility.yul\":357:358   */\n  dup3\n    /* \"#utility.yul\":339:359   */\n  tag_5\n  jump\t// in\ntag_11:\n    /* \"#utility.yul\":334:359   */\n  swap2\n  pop\n    /* \"#utility.yul\":373:393   */\n  tag_12\n    /* \"#utility.yul\":391:392   */\n  dup4\n    /* \"#utility.yul\":373:393   */\n  tag_5\n  jump\t// in\ntag_12:\n    /* \"#utility.yul\":368:393   */\n  swap3\n  pop\n    /* \"#utility.yul\":561:562   */\n  dup2\n    /* \"#utility.yul\":493:559   */\n  0xffffffffffffffffffffffffffffffffffffffffffffffffffffffffffffffff\n    /* \"#utility.yul\":489:563   */\n  div\n    /* \"#utility.yul\":486:487   */\n  dup4\n    /* \"#utility.yul\":483:564   */\n  gt\n    /* \"#utility.yul\":478:479   */\n  dup3\n    /* \"#utility.yul\":471:480   */\n  iszero\n    /* \"#utility.yul\":464:481   */\n  iszero\n    /* \"#utility.yul\":460:565   */\n  and\n    /* \"#utility.yul\":457:588   */\n  iszero\n  tag_13\n  jumpi\n    /* \"#utility.yul\":568:586   */\n  tag_14\n  tag_6\n  jump\t// in\ntag_14:\n    /* \"#utility.yul\":457:588   */\ntag_13:\n    /* \"#utility.yul\":616:617   */\n  dup3\n    /* \"#utility.yul\":613:614   */\n  dup3\n    /* \"#utility.yul\":609:618   */\n  mul\n    /* \"#utility.yul\":598:618   */\n  swap1\n  pop\n    /* \"#utility.yul\":276:624   */\n  swap3\n  swap2\n  pop\n  pop\n  jump\t// out\n    /* \"bootcamp/week3/day_2_timed_token_transfer.sol\":59:405  contract timed {... */\ntag_4:\n  dataSize(sub_0)\n  dup1\n  dataOffset(sub_0)\n  0x00\n  codecopy\n  0x00\n  return\nstop\n\nsub_0: assembly {\n        /* \"bootcamp/week3/day_2_timed_token_transfer.sol\":59:405  contract timed {... */\n      mstore(0x40, 0x80)\n      callvalue\n      dup1\n      iszero\n      tag_1\n      jumpi\n      0x00\n      dup1\n      revert\n    tag_1:\n      pop\n      jumpi(tag_2, lt(calldatasize, 0x04))\n      shr(0xe0, calldataload(0x00))\n      dup1\n      0x557ed1ba\n      eq\n      tag_3\n      jumpi\n      dup1\n      0x790ca413\n      eq\n      tag_4\n      jumpi\n      dup1\n      0xbeb9716d\n      eq\n      tag_5\n      jumpi\n      dup1\n      0xeeb9635c\n      eq\n      tag_6\n      jumpi\n    tag_2:\n      0x00\n      dup1\n      revert\n        /* \"bootcamp/week3/day_2_timed_token_transfer.sol\":178:262  function getTime() public view returns(uint) {... */\n    tag_3:\n      tag_7\n      tag_8\n      jump\t// in\n    tag_7:\n      mload(0x40)\n      tag_9\n      swap2\n      swap1\n      tag_10\n      jump\t// in\n    tag_9:\n      mload(0x40)\n      dup1\n      swap2\n      sub\n      swap1\n      return\n        /* \"bootcamp/week3/day_2_timed_token_transfer.sol\":81:138  uint public launchTime = block.timestamp * (1 hours / 60) */\n    tag_4:\n      tag_11\n      tag_12\n      jump\t// in\n    tag_11:\n      mload(0x40)\n      tag_13\n      swap2\n      swap1\n      tag_10\n      jump\t// in\n    tag_13:\n      mload(0x40)\n      dup1\n      swap2\n      sub\n      swap1\n      return\n        /* \"bootcamp/week3/day_2_timed_token_transfer.sol\":144:171  bool public canMint = false */\n    tag_5:\n      tag_14\n      tag_15\n      jump\t// in\n    tag_14:\n      mload(0x40)\n      tag_16\n      swap2\n      swap1\n      tag_17\n      jump\t// in\n    tag_16:\n      mload(0x40)\n      dup1\n      swap2\n      sub\n      swap1\n      return\n        /* \"bootcamp/week3/day_2_timed_token_transfer.sol\":268:403  function mintTokens() public {... */\n    tag_6:\n      tag_18\n      tag_19\n      jump\t// in\n    tag_18:\n      stop\n        /* \"bootcamp/week3/day_2_timed_token_transfer.sol\":178:262  function getTime() public view returns(uint) {... */\n    tag_8:\n        /* \"bootcamp/week3/day_2_timed_token_transfer.sol\":217:221  uint */\n      0x00\n        /* \"bootcamp/week3/day_2_timed_token_transfer.sol\":240:255  block.timestamp */\n      timestamp\n        /* \"bootcamp/week3/day_2_timed_token_transfer.sol\":233:255  return block.timestamp */\n      swap1\n      pop\n        /* \"bootcamp/week3/day_2_timed_token_transfer.sol\":178:262  function getTime() public view returns(uint) {... */\n      swap1\n      jump\t// out\n        /* \"bootcamp/week3/day_2_timed_token_transfer.sol\":81:138  uint public launchTime = block.timestamp * (1 hours / 60) */\n    tag_12:\n      sload(0x00)\n      dup2\n      jump\t// out\n        /* \"bootcamp/week3/day_2_timed_token_transfer.sol\":144:171  bool public canMint = false */\n    tag_15:\n      0x01\n      0x00\n      swap1\n      sload\n      swap1\n      0x0100\n      exp\n      swap1\n      div\n      0xff\n      and\n      dup2\n      jump\t// out\n        /* \"bootcamp/week3/day_2_timed_token_transfer.sol\":268:403  function mintTokens() public {... */\n    tag_19:\n        /* \"bootcamp/week3/day_2_timed_token_transfer.sol\":323:338  block.timestamp */\n      timestamp\n        /* \"bootcamp/week3/day_2_timed_token_transfer.sol\":310:320  launchTime */\n      sload(0x00)\n        /* \"bootcamp/week3/day_2_timed_token_transfer.sol\":310:338  launchTime < block.timestamp */\n      lt\n        /* \"bootcamp/week3/day_2_timed_token_transfer.sol\":307:397  if(launchTime < block.timestamp) {... */\n      iszero\n      tag_22\n      jumpi\n        /* \"bootcamp/week3/day_2_timed_token_transfer.sol\":364:368  true */\n      0x01\n        /* \"bootcamp/week3/day_2_timed_token_transfer.sol\":354:361  canMint */\n      dup1\n      0x00\n        /* \"bootcamp/week3/day_2_timed_token_transfer.sol\":354:368  canMint = true */\n      0x0100\n      exp\n      dup2\n      sload\n      dup2\n      0xff\n      mul\n      not\n      and\n      swap1\n      dup4\n      iszero\n      iszero\n      mul\n      or\n      swap1\n      sstore\n      pop\n        /* \"bootcamp/week3/day_2_timed_token_transfer.sol\":307:397  if(launchTime < block.timestamp) {... */\n      jump(tag_23)\n    tag_22:\n    tag_23:\n        /* \"bootcamp/week3/day_2_timed_token_transfer.sol\":268:403  function mintTokens() public {... */\n      jump\t// out\n        /* \"#utility.yul\":7:84   */\n    tag_24:\n        /* \"#utility.yul\":44:51   */\n      0x00\n        /* \"#utility.yul\":73:78   */\n      dup2\n        /* \"#utility.yul\":62:78   */\n      swap1\n      pop\n        /* \"#utility.yul\":7:84   */\n      swap2\n      swap1\n      pop\n      jump\t// out\n        /* \"#utility.yul\":90:208   */\n    tag_25:\n        /* \"#utility.yul\":177:201   */\n      tag_31\n        /* \"#utility.yul\":195:200   */\n      dup2\n        /* \"#utility.yul\":177:201   */\n      tag_24\n      jump\t// in\n    tag_31:\n        /* \"#utility.yul\":172:175   */\n      dup3\n        /* \"#utility.yul\":165:202   */\n      mstore\n        /* \"#utility.yul\":90:208   */\n      pop\n      pop\n      jump\t// out\n        /* \"#utility.yul\":214:436   */\n    tag_10:\n        /* \"#utility.yul\":307:311   */\n      0x00\n        /* \"#utility.yul\":345:347   */\n      0x20\n        /* \"#utility.yul\":334:343   */\n      dup3\n        /* \"#utility.yul\":330:348   */\n      add\n        /* \"#utility.yul\":322:348   */\n      swap1\n      pop\n        /* \"#utility.yul\":358:429   */\n      tag_33\n        /* \"#utility.yul\":426:427   */\n      0x00\n        /* \"#utility.yul\":415:424   */\n      dup4\n        /* \"#utility.yul\":411:428   */\n      add\n        /* \"#utility.yul\":402:408   */\n      dup5\n        /* \"#utility.yul\":358:429   */\n      tag_25\n      jump\t// in\n    tag_33:\n        /* \"#utility.yul\":214:436   */\n      swap3\n      swap2\n      pop\n      pop\n      jump\t// out\n        /* \"#utility.yul\":442:532   */\n    tag_26:\n        /* \"#utility.yul\":476:483   */\n      0x00\n        /* \"#utility.yul\":519:524   */\n      dup2\n        /* \"#utility.yul\":512:525   */\n      iszero\n        /* \"#utility.yul\":505:526   */\n      iszero\n        /* \"#utility.yul\":494:526   */\n      swap1\n      pop\n        /* \"#utility.yul\":442:532   */\n      swap2\n      swap1\n      pop\n      jump\t// out\n        /* \"#utility.yul\":538:647   */\n    tag_27:\n        /* \"#utility.yul\":619:640   */\n      tag_36\n        /* \"#utility.yul\":634:639   */\n      dup2\n        /* \"#utility.yul\":619:640   */\n      tag_26\n      jump\t// in\n    tag_36:\n        /* \"#utility.yul\":614:617   */\n      dup3\n        /* \"#utility.yul\":607:641   */\n      mstore\n        /* \"#utility.yul\":538:647   */\n      pop\n      pop\n      jump\t// out\n        /* \"#utility.yul\":653:863   */\n    tag_17:\n        /* \"#utility.yul\":740:744   */\n      0x00\n        /* \"#utility.yul\":778:780   */\n      0x20\n        /* \"#utility.yul\":767:776   */\n      dup3\n        /* \"#utility.yul\":763:781   */\n      add\n        /* \"#utility.yul\":755:781   */\n      swap1\n      pop\n        /* \"#utility.yul\":791:856   */\n      tag_38\n        /* \"#utility.yul\":853:854   */\n      0x00\n        /* \"#utility.yul\":842:851   */\n      dup4\n        /* \"#utility.yul\":838:855   */\n      add\n        /* \"#utility.yul\":829:835   */\n      dup5\n        /* \"#utility.yul\":791:856   */\n      tag_27\n      jump\t// in\n    tag_38:\n        /* \"#utility.yul\":653:863   */\n      swap3\n      swap2\n      pop\n      pop\n      jump\t// out\n\n    auxdata: 0xa26469706673582212200c459fe256a9db0eb53d810766c3ca799cb5dba0cc42dece01b38873e57922b464736f6c634300080d0033\n}\n",
				"bytecode": {
					"linkReferences": {},
					"object": "6080604052603c42610011919061007a565b6000556000600160006101000a81548160ff02191690831515021790555034801561003b57600080fd5b506100d4565b6000819050919050565b7f4e487b7100000000000000000000000000000000000000000000000000000000600052601160045260246000fd5b600061008582610041565b915061009083610041565b9250817fffffffffffffffffffffffffffffffffffffffffffffffffffffffffffffffff04831182151516156100c9576100c861004b565b5b828202905092915050565b6101a2806100e36000396000f3fe608060405234801561001057600080fd5b506004361061004c5760003560e01c8063557ed1ba14610051578063790ca4131461006f578063beb9716d1461008d578063eeb9635c146100ab575b600080fd5b6100596100b5565b604051610066919061011b565b60405180910390f35b6100776100bd565b604051610084919061011b565b60405180910390f35b6100956100c3565b6040516100a29190610151565b60405180910390f35b6100b36100d6565b005b600042905090565b60005481565b600160009054906101000a900460ff1681565b4260005410156100ff5760018060006101000a81548160ff021916908315150217905550610100565b5b565b6000819050919050565b61011581610102565b82525050565b6000602082019050610130600083018461010c565b92915050565b60008115159050919050565b61014b81610136565b82525050565b60006020820190506101666000830184610142565b9291505056fea26469706673582212200c459fe256a9db0eb53d810766c3ca799cb5dba0cc42dece01b38873e57922b464736f6c634300080d0033",
					"opcodes": "PUSH1 0x80 PUSH1 0x40 MSTORE PUSH1 0x3C TIMESTAMP PUSH2 0x11 SWAP2 SWAP1 PUSH2 0x7A JUMP JUMPDEST PUSH1 0x0 SSTORE PUSH1 0x0 PUSH1 0x1 PUSH1 0x0 PUSH2 0x100 EXP DUP2 SLOAD DUP2 PUSH1 0xFF MUL NOT AND SWAP1 DUP4 ISZERO ISZERO MUL OR SWAP1 SSTORE POP CALLVALUE DUP1 ISZERO PUSH2 0x3B JUMPI PUSH1 0x0 DUP1 REVERT JUMPDEST POP PUSH2 0xD4 JUMP JUMPDEST PUSH1 0x0 DUP2 SWAP1 POP SWAP2 SWAP1 POP JUMP JUMPDEST PUSH32 0x4E487B7100000000000000000000000000000000000000000000000000000000 PUSH1 0x0 MSTORE PUSH1 0x11 PUSH1 0x4 MSTORE PUSH1 0x24 PUSH1 0x0 REVERT JUMPDEST PUSH1 0x0 PUSH2 0x85 DUP3 PUSH2 0x41 JUMP JUMPDEST SWAP2 POP PUSH2 0x90 DUP4 PUSH2 0x41 JUMP JUMPDEST SWAP3 POP DUP2 PUSH32 0xFFFFFFFFFFFFFFFFFFFFFFFFFFFFFFFFFFFFFFFFFFFFFFFFFFFFFFFFFFFFFFFF DIV DUP4 GT DUP3 ISZERO ISZERO AND ISZERO PUSH2 0xC9 JUMPI PUSH2 0xC8 PUSH2 0x4B JUMP JUMPDEST JUMPDEST DUP3 DUP3 MUL SWAP1 POP SWAP3 SWAP2 POP POP JUMP JUMPDEST PUSH2 0x1A2 DUP1 PUSH2 0xE3 PUSH1 0x0 CODECOPY PUSH1 0x0 RETURN INVALID PUSH1 0x80 PUSH1 0x40 MSTORE CALLVALUE DUP1 ISZERO PUSH2 0x10 JUMPI PUSH1 0x0 DUP1 REVERT JUMPDEST POP PUSH1 0x4 CALLDATASIZE LT PUSH2 0x4C JUMPI PUSH1 0x0 CALLDATALOAD PUSH1 0xE0 SHR DUP1 PUSH4 0x557ED1BA EQ PUSH2 0x51 JUMPI DUP1 PUSH4 0x790CA413 EQ PUSH2 0x6F JUMPI DUP1 PUSH4 0xBEB9716D EQ PUSH2 0x8D JUMPI DUP1 PUSH4 0xEEB9635C EQ PUSH2 0xAB JUMPI JUMPDEST PUSH1 0x0 DUP1 REVERT JUMPDEST PUSH2 0x59 PUSH2 0xB5 JUMP JUMPDEST PUSH1 0x40 MLOAD PUSH2 0x66 SWAP2 SWAP1 PUSH2 0x11B JUMP JUMPDEST PUSH1 0x40 MLOAD DUP1 SWAP2 SUB SWAP1 RETURN JUMPDEST PUSH2 0x77 PUSH2 0xBD JUMP JUMPDEST PUSH1 0x40 MLOAD PUSH2 0x84 SWAP2 SWAP1 PUSH2 0x11B JUMP JUMPDEST PUSH1 0x40 MLOAD DUP1 SWAP2 SUB SWAP1 RETURN JUMPDEST PUSH2 0x95 PUSH2 0xC3 JUMP JUMPDEST PUSH1 0x40 MLOAD PUSH2 0xA2 SWAP2 SWAP1 PUSH2 0x151 JUMP JUMPDEST PUSH1 0x40 MLOAD DUP1 SWAP2 SUB SWAP1 RETURN JUMPDEST PUSH2 0xB3 PUSH2 0xD6 JUMP JUMPDEST STOP JUMPDEST PUSH1 0x0 TIMESTAMP SWAP1 POP SWAP1 JUMP JUMPDEST PUSH1 0x0 SLOAD DUP2 JUMP JUMPDEST PUSH1 0x1 PUSH1 0x0 SWAP1 SLOAD SWAP1 PUSH2 0x100 EXP SWAP1 DIV PUSH1 0xFF AND DUP2 JUMP JUMPDEST TIMESTAMP PUSH1 0x0 SLOAD LT ISZERO PUSH2 0xFF JUMPI PUSH1 0x1 DUP1 PUSH1 0x0 PUSH2 0x100 EXP DUP2 SLOAD DUP2 PUSH1 0xFF MUL NOT AND SWAP1 DUP4 ISZERO ISZERO MUL OR SWAP1 SSTORE POP PUSH2 0x100 JUMP JUMPDEST JUMPDEST JUMP JUMPDEST PUSH1 0x0 DUP2 SWAP1 POP SWAP2 SWAP1 POP JUMP JUMPDEST PUSH2 0x115 DUP2 PUSH2 0x102 JUMP JUMPDEST DUP3 MSTORE POP POP JUMP JUMPDEST PUSH1 0x0 PUSH1 0x20 DUP3 ADD SWAP1 POP PUSH2 0x130 PUSH1 0x0 DUP4 ADD DUP5 PUSH2 0x10C JUMP JUMPDEST SWAP3 SWAP2 POP POP JUMP JUMPDEST PUSH1 0x0 DUP2 ISZERO ISZERO SWAP1 POP SWAP2 SWAP1 POP JUMP JUMPDEST PUSH2 0x14B DUP2 PUSH2 0x136 JUMP JUMPDEST DUP3 MSTORE POP POP JUMP JUMPDEST PUSH1 0x0 PUSH1 0x20 DUP3 ADD SWAP1 POP PUSH2 0x166 PUSH1 0x0 DUP4 ADD DUP5 PUSH2 0x142 JUMP JUMPDEST SWAP3 SWAP2 POP POP JUMP INVALID LOG2 PUSH5 0x6970667358 0x22 SLT KECCAK256 0xC GASLIMIT SWAP16 0xE2 JUMP 0xA9 0xDB 0xE 0xB5 RETURNDATASIZE DUP2 SMOD PUSH7 0xC3CA799CB5DBA0 0xCC TIMESTAMP 0xDE 0xCE ADD 0xB3 DUP9 PUSH20 0xE57922B464736F6C634300080D00330000000000 "
				},
				"gasEstimates": {
					"creation": {
						"codeDepositCost": "83600",
						"executionCost": "infinite",
						"totalCost": "infinite"
					},
					"external": {
						"canMint()": "2493",
						"getTime()": "314",
						"launchTime()": "2429",
						"mintTokens()": "26591"
					}
				},
				"methodIdentifiers": {
					"canMint()": "beb9716d",
					"getTime()": "557ed1ba",
					"launchTime()": "790ca413",
					"mintTokens()": "eeb9635c"
				}
			},
			"storageLayout": {
				"storage": [
					{
						"astId": 10,
						"contract": "bootcamp/week3/day_2_timed_token_transfer.sol:timed",
						"label": "launchTime",
						"offset": 0,
						"slot": "0",
						"type": "t_uint256"
					},
					{
						"astId": 13,
						"contract": "bootcamp/week3/day_2_timed_token_transfer.sol:timed",
						"label": "canMint",
						"offset": 0,
						"slot": "1",
						"type": "t_bool"
					}
				],
				"types": {
					"t_bool": {
						"encoding": "inplace",
						"label": "bool",
						"numberOfBytes": "1"
					},
					"t_uint256": {
						"encoding": "inplace",
						"label": "uint256",
						"numberOfBytes": "32"
					}
				}
			},
			"userdoc": {
				"kind": "user",
				"methods": {},
				"version": 1
			}
		}
	}
}