{
	"bootcamp/week3/day_5_homework_part_2_number_array_string_output.sol": {
		"NumberToString": {
			"abi": [
				{
					"inputs": [],
					"stateMutability": "nonpayable",
					"type": "constructor"
				},
				{
					"anonymous": false,
					"inputs": [
						{
							"indexed": false,
							"internalType": "uint256",
							"name": "a",
							"type": "uint256"
						}
					],
					"name": "test1",
					"type": "event"
				},
				{
					"anonymous": false,
					"inputs": [
						{
							"indexed": false,
							"internalType": "string",
							"name": "a",
							"type": "string"
						}
					],
					"name": "test2",
					"type": "event"
				},
				{
					"inputs": [
						{
							"internalType": "uint256",
							"name": "",
							"type": "uint256"
						}
					],
					"name": "counter",
					"outputs": [
						{
							"internalType": "string",
							"name": "",
							"type": "string"
						}
					],
					"stateMutability": "view",
					"type": "function"
				},
				{
					"inputs": [],
					"name": "getWord",
					"outputs": [
						{
							"internalType": "string",
							"name": "",
							"type": "string"
						}
					],
					"stateMutability": "view",
					"type": "function"
				},
				{
					"inputs": [
						{
							"internalType": "uint256[]",
							"name": "number",
							"type": "uint256[]"
						}
					],
					"name": "numberToString",
					"outputs": [
						{
							"internalType": "string",
							"name": "",
							"type": "string"
						}
					],
					"stateMutability": "nonpayable",
					"type": "function"
				}
			],
			"devdoc": {
				"kind": "dev",
				"methods": {},
				"version": 1
			},
			"evm": {
				"assembly": "    /* \"bootcamp/week3/day_5_homework_part_2_number_array_string_output.sol\":58:1502  contract NumberToString {... */\n  mstore(0x40, 0x80)\n    /* \"bootcamp/week3/day_5_homework_part_2_number_array_string_output.sol\":237:253  string word = \"\" */\n  mload(0x40)\n  dup1\n  0x20\n  add\n  0x40\n  mstore\n  dup1\n  0x00\n  dup2\n  mstore\n  pop\n  0x00\n  swap1\n  dup1\n  mload\n  swap1\n  0x20\n  add\n  swap1\n  tag_1\n  swap3\n  swap2\n  swap1\n  tag_2\n  jump\t// in\ntag_1:\n  pop\n    /* \"bootcamp/week3/day_5_homework_part_2_number_array_string_output.sol\":260:974  constructor() {... */\n  callvalue\n  dup1\n  iszero\n  tag_3\n  jumpi\n  0x00\n  dup1\n  revert\ntag_3:\n  pop\n    /* \"bootcamp/week3/day_5_homework_part_2_number_array_string_output.sol\":284:300  counter[1] = \"A\" */\n  mload(0x40)\n  dup1\n  0x40\n  add\n  0x40\n  mstore\n  dup1\n  0x01\n  dup2\n  mstore\n  0x20\n  add\n  0x4100000000000000000000000000000000000000000000000000000000000000\n  dup2\n  mstore\n  pop\n    /* \"bootcamp/week3/day_5_homework_part_2_number_array_string_output.sol\":284:291  counter */\n  0x01\n    /* \"bootcamp/week3/day_5_homework_part_2_number_array_string_output.sol\":284:294  counter[1] */\n  0x00\n    /* \"bootcamp/week3/day_5_homework_part_2_number_array_string_output.sol\":292:293  1 */\n  0x01\n    /* \"bootcamp/week3/day_5_homework_part_2_number_array_string_output.sol\":284:294  counter[1] */\n  dup2\n  mstore\n  0x20\n  add\n  swap1\n  dup2\n  mstore\n  0x20\n  add\n  0x00\n  keccak256\n    /* \"bootcamp/week3/day_5_homework_part_2_number_array_string_output.sol\":284:300  counter[1] = \"A\" */\n  swap1\n  dup1\n  mload\n  swap1\n  0x20\n  add\n  swap1\n  tag_6\n  swap3\n  swap2\n  swap1\n  tag_2\n  jump\t// in\ntag_6:\n  pop\n    /* \"bootcamp/week3/day_5_homework_part_2_number_array_string_output.sol\":310:326  counter[2] = \"B\" */\n  mload(0x40)\n  dup1\n  0x40\n  add\n  0x40\n  mstore\n  dup1\n  0x01\n  dup2\n  mstore\n  0x20\n  add\n  0x4200000000000000000000000000000000000000000000000000000000000000\n  dup2\n  mstore\n  pop\n    /* \"bootcamp/week3/day_5_homework_part_2_number_array_string_output.sol\":310:317  counter */\n  0x01\n    /* \"bootcamp/week3/day_5_homework_part_2_number_array_string_output.sol\":310:320  counter[2] */\n  0x00\n    /* \"bootcamp/week3/day_5_homework_part_2_number_array_string_output.sol\":318:319  2 */\n  0x02\n    /* \"bootcamp/week3/day_5_homework_part_2_number_array_string_output.sol\":310:320  counter[2] */\n  dup2\n  mstore\n  0x20\n  add\n  swap1\n  dup2\n  mstore\n  0x20\n  add\n  0x00\n  keccak256\n    /* \"bootcamp/week3/day_5_homework_part_2_number_array_string_output.sol\":310:326  counter[2] = \"B\" */\n  swap1\n  dup1\n  mload\n  swap1\n  0x20\n  add\n  swap1\n  tag_7\n  swap3\n  swap2\n  swap1\n  tag_2\n  jump\t// in\ntag_7:\n  pop\n    /* \"bootcamp/week3/day_5_homework_part_2_number_array_string_output.sol\":336:352  counter[3] = \"C\" */\n  mload(0x40)\n  dup1\n  0x40\n  add\n  0x40\n  mstore\n  dup1\n  0x01\n  dup2\n  mstore\n  0x20\n  add\n  0x4300000000000000000000000000000000000000000000000000000000000000\n  dup2\n  mstore\n  pop\n    /* \"bootcamp/week3/day_5_homework_part_2_number_array_string_output.sol\":336:343  counter */\n  0x01\n    /* \"bootcamp/week3/day_5_homework_part_2_number_array_string_output.sol\":336:346  counter[3] */\n  0x00\n    /* \"bootcamp/week3/day_5_homework_part_2_number_array_string_output.sol\":344:345  3 */\n  0x03\n    /* \"bootcamp/week3/day_5_homework_part_2_number_array_string_output.sol\":336:346  counter[3] */\n  dup2\n  mstore\n  0x20\n  add\n  swap1\n  dup2\n  mstore\n  0x20\n  add\n  0x00\n  keccak256\n    /* \"bootcamp/week3/day_5_homework_part_2_number_array_string_output.sol\":336:352  counter[3] = \"C\" */\n  swap1\n  dup1\n  mload\n  swap1\n  0x20\n  add\n  swap1\n  tag_8\n  swap3\n  swap2\n  swap1\n  tag_2\n  jump\t// in\ntag_8:\n  pop\n    /* \"bootcamp/week3/day_5_homework_part_2_number_array_string_output.sol\":362:378  counter[4] = \"D\" */\n  mload(0x40)\n  dup1\n  0x40\n  add\n  0x40\n  mstore\n  dup1\n  0x01\n  dup2\n  mstore\n  0x20\n  add\n  0x4400000000000000000000000000000000000000000000000000000000000000\n  dup2\n  mstore\n  pop\n    /* \"bootcamp/week3/day_5_homework_part_2_number_array_string_output.sol\":362:369  counter */\n  0x01\n    /* \"bootcamp/week3/day_5_homework_part_2_number_array_string_output.sol\":362:372  counter[4] */\n  0x00\n    /* \"bootcamp/week3/day_5_homework_part_2_number_array_string_output.sol\":370:371  4 */\n  0x04\n    /* \"bootcamp/week3/day_5_homework_part_2_number_array_string_output.sol\":362:372  counter[4] */\n  dup2\n  mstore\n  0x20\n  add\n  swap1\n  dup2\n  mstore\n  0x20\n  add\n  0x00\n  keccak256\n    /* \"bootcamp/week3/day_5_homework_part_2_number_array_string_output.sol\":362:378  counter[4] = \"D\" */\n  swap1\n  dup1\n  mload\n  swap1\n  0x20\n  add\n  swap1\n  tag_9\n  swap3\n  swap2\n  swap1\n  tag_2\n  jump\t// in\ntag_9:\n  pop\n    /* \"bootcamp/week3/day_5_homework_part_2_number_array_string_output.sol\":388:404  counter[5] = \"E\" */\n  mload(0x40)\n  dup1\n  0x40\n  add\n  0x40\n  mstore\n  dup1\n  0x01\n  dup2\n  mstore\n  0x20\n  add\n  0x4500000000000000000000000000000000000000000000000000000000000000\n  dup2\n  mstore\n  pop\n    /* \"bootcamp/week3/day_5_homework_part_2_number_array_string_output.sol\":388:395  counter */\n  0x01\n    /* \"bootcamp/week3/day_5_homework_part_2_number_array_string_output.sol\":388:398  counter[5] */\n  0x00\n    /* \"bootcamp/week3/day_5_homework_part_2_number_array_string_output.sol\":396:397  5 */\n  0x05\n    /* \"bootcamp/week3/day_5_homework_part_2_number_array_string_output.sol\":388:398  counter[5] */\n  dup2\n  mstore\n  0x20\n  add\n  swap1\n  dup2\n  mstore\n  0x20\n  add\n  0x00\n  keccak256\n    /* \"bootcamp/week3/day_5_homework_part_2_number_array_string_output.sol\":388:404  counter[5] = \"E\" */\n  swap1\n  dup1\n  mload\n  swap1\n  0x20\n  add\n  swap1\n  tag_10\n  swap3\n  swap2\n  swap1\n  tag_2\n  jump\t// in\ntag_10:\n  pop\n    /* \"bootcamp/week3/day_5_homework_part_2_number_array_string_output.sol\":414:430  counter[6] = \"F\" */\n  mload(0x40)\n  dup1\n  0x40\n  add\n  0x40\n  mstore\n  dup1\n  0x01\n  dup2\n  mstore\n  0x20\n  add\n  0x4600000000000000000000000000000000000000000000000000000000000000\n  dup2\n  mstore\n  pop\n    /* \"bootcamp/week3/day_5_homework_part_2_number_array_string_output.sol\":414:421  counter */\n  0x01\n    /* \"bootcamp/week3/day_5_homework_part_2_number_array_string_output.sol\":414:424  counter[6] */\n  0x00\n    /* \"bootcamp/week3/day_5_homework_part_2_number_array_string_output.sol\":422:423  6 */\n  0x06\n    /* \"bootcamp/week3/day_5_homework_part_2_number_array_string_output.sol\":414:424  counter[6] */\n  dup2\n  mstore\n  0x20\n  add\n  swap1\n  dup2\n  mstore\n  0x20\n  add\n  0x00\n  keccak256\n    /* \"bootcamp/week3/day_5_homework_part_2_number_array_string_output.sol\":414:430  counter[6] = \"F\" */\n  swap1\n  dup1\n  mload\n  swap1\n  0x20\n  add\n  swap1\n  tag_11\n  swap3\n  swap2\n  swap1\n  tag_2\n  jump\t// in\ntag_11:\n  pop\n    /* \"bootcamp/week3/day_5_homework_part_2_number_array_string_output.sol\":440:456  counter[7] = \"G\" */\n  mload(0x40)\n  dup1\n  0x40\n  add\n  0x40\n  mstore\n  dup1\n  0x01\n  dup2\n  mstore\n  0x20\n  add\n  0x4700000000000000000000000000000000000000000000000000000000000000\n  dup2\n  mstore\n  pop\n    /* \"bootcamp/week3/day_5_homework_part_2_number_array_string_output.sol\":440:447  counter */\n  0x01\n    /* \"bootcamp/week3/day_5_homework_part_2_number_array_string_output.sol\":440:450  counter[7] */\n  0x00\n    /* \"bootcamp/week3/day_5_homework_part_2_number_array_string_output.sol\":448:449  7 */\n  0x07\n    /* \"bootcamp/week3/day_5_homework_part_2_number_array_string_output.sol\":440:450  counter[7] */\n  dup2\n  mstore\n  0x20\n  add\n  swap1\n  dup2\n  mstore\n  0x20\n  add\n  0x00\n  keccak256\n    /* \"bootcamp/week3/day_5_homework_part_2_number_array_string_output.sol\":440:456  counter[7] = \"G\" */\n  swap1\n  dup1\n  mload\n  swap1\n  0x20\n  add\n  swap1\n  tag_12\n  swap3\n  swap2\n  swap1\n  tag_2\n  jump\t// in\ntag_12:\n  pop\n    /* \"bootcamp/week3/day_5_homework_part_2_number_array_string_output.sol\":466:482  counter[8] = \"H\" */\n  mload(0x40)\n  dup1\n  0x40\n  add\n  0x40\n  mstore\n  dup1\n  0x01\n  dup2\n  mstore\n  0x20\n  add\n  0x4800000000000000000000000000000000000000000000000000000000000000\n  dup2\n  mstore\n  pop\n    /* \"bootcamp/week3/day_5_homework_part_2_number_array_string_output.sol\":466:473  counter */\n  0x01\n    /* \"bootcamp/week3/day_5_homework_part_2_number_array_string_output.sol\":466:476  counter[8] */\n  0x00\n    /* \"bootcamp/week3/day_5_homework_part_2_number_array_string_output.sol\":474:475  8 */\n  0x08\n    /* \"bootcamp/week3/day_5_homework_part_2_number_array_string_output.sol\":466:476  counter[8] */\n  dup2\n  mstore\n  0x20\n  add\n  swap1\n  dup2\n  mstore\n  0x20\n  add\n  0x00\n  keccak256\n    /* \"bootcamp/week3/day_5_homework_part_2_number_array_string_output.sol\":466:482  counter[8] = \"H\" */\n  swap1\n  dup1\n  mload\n  swap1\n  0x20\n  add\n  swap1\n  tag_13\n  swap3\n  swap2\n  swap1\n  tag_2\n  jump\t// in\ntag_13:\n  pop\n    /* \"bootcamp/week3/day_5_homework_part_2_number_array_string_output.sol\":492:508  counter[9] = \"I\" */\n  mload(0x40)\n  dup1\n  0x40\n  add\n  0x40\n  mstore\n  dup1\n  0x01\n  dup2\n  mstore\n  0x20\n  add\n  0x4900000000000000000000000000000000000000000000000000000000000000\n  dup2\n  mstore\n  pop\n    /* \"bootcamp/week3/day_5_homework_part_2_number_array_string_output.sol\":492:499  counter */\n  0x01\n    /* \"bootcamp/week3/day_5_homework_part_2_number_array_string_output.sol\":492:502  counter[9] */\n  0x00\n    /* \"bootcamp/week3/day_5_homework_part_2_number_array_string_output.sol\":500:501  9 */\n  0x09\n    /* \"bootcamp/week3/day_5_homework_part_2_number_array_string_output.sol\":492:502  counter[9] */\n  dup2\n  mstore\n  0x20\n  add\n  swap1\n  dup2\n  mstore\n  0x20\n  add\n  0x00\n  keccak256\n    /* \"bootcamp/week3/day_5_homework_part_2_number_array_string_output.sol\":492:508  counter[9] = \"I\" */\n  swap1\n  dup1\n  mload\n  swap1\n  0x20\n  add\n  swap1\n  tag_14\n  swap3\n  swap2\n  swap1\n  tag_2\n  jump\t// in\ntag_14:\n  pop\n    /* \"bootcamp/week3/day_5_homework_part_2_number_array_string_output.sol\":518:535  counter[10] = \"J\" */\n  mload(0x40)\n  dup1\n  0x40\n  add\n  0x40\n  mstore\n  dup1\n  0x01\n  dup2\n  mstore\n  0x20\n  add\n  0x4a00000000000000000000000000000000000000000000000000000000000000\n  dup2\n  mstore\n  pop\n    /* \"bootcamp/week3/day_5_homework_part_2_number_array_string_output.sol\":518:525  counter */\n  0x01\n    /* \"bootcamp/week3/day_5_homework_part_2_number_array_string_output.sol\":518:529  counter[10] */\n  0x00\n    /* \"bootcamp/week3/day_5_homework_part_2_number_array_string_output.sol\":526:528  10 */\n  0x0a\n    /* \"bootcamp/week3/day_5_homework_part_2_number_array_string_output.sol\":518:529  counter[10] */\n  dup2\n  mstore\n  0x20\n  add\n  swap1\n  dup2\n  mstore\n  0x20\n  add\n  0x00\n  keccak256\n    /* \"bootcamp/week3/day_5_homework_part_2_number_array_string_output.sol\":518:535  counter[10] = \"J\" */\n  swap1\n  dup1\n  mload\n  swap1\n  0x20\n  add\n  swap1\n  tag_15\n  swap3\n  swap2\n  swap1\n  tag_2\n  jump\t// in\ntag_15:\n  pop\n    /* \"bootcamp/week3/day_5_homework_part_2_number_array_string_output.sol\":545:562  counter[11] = \"K\" */\n  mload(0x40)\n  dup1\n  0x40\n  add\n  0x40\n  mstore\n  dup1\n  0x01\n  dup2\n  mstore\n  0x20\n  add\n  0x4b00000000000000000000000000000000000000000000000000000000000000\n  dup2\n  mstore\n  pop\n    /* \"bootcamp/week3/day_5_homework_part_2_number_array_string_output.sol\":545:552  counter */\n  0x01\n    /* \"bootcamp/week3/day_5_homework_part_2_number_array_string_output.sol\":545:556  counter[11] */\n  0x00\n    /* \"bootcamp/week3/day_5_homework_part_2_number_array_string_output.sol\":553:555  11 */\n  0x0b\n    /* \"bootcamp/week3/day_5_homework_part_2_number_array_string_output.sol\":545:556  counter[11] */\n  dup2\n  mstore\n  0x20\n  add\n  swap1\n  dup2\n  mstore\n  0x20\n  add\n  0x00\n  keccak256\n    /* \"bootcamp/week3/day_5_homework_part_2_number_array_string_output.sol\":545:562  counter[11] = \"K\" */\n  swap1\n  dup1\n  mload\n  swap1\n  0x20\n  add\n  swap1\n  tag_16\n  swap3\n  swap2\n  swap1\n  tag_2\n  jump\t// in\ntag_16:\n  pop\n    /* \"bootcamp/week3/day_5_homework_part_2_number_array_string_output.sol\":572:589  counter[12] = \"L\" */\n  mload(0x40)\n  dup1\n  0x40\n  add\n  0x40\n  mstore\n  dup1\n  0x01\n  dup2\n  mstore\n  0x20\n  add\n  0x4c00000000000000000000000000000000000000000000000000000000000000\n  dup2\n  mstore\n  pop\n    /* \"bootcamp/week3/day_5_homework_part_2_number_array_string_output.sol\":572:579  counter */\n  0x01\n    /* \"bootcamp/week3/day_5_homework_part_2_number_array_string_output.sol\":572:583  counter[12] */\n  0x00\n    /* \"bootcamp/week3/day_5_homework_part_2_number_array_string_output.sol\":580:582  12 */\n  0x0c\n    /* \"bootcamp/week3/day_5_homework_part_2_number_array_string_output.sol\":572:583  counter[12] */\n  dup2\n  mstore\n  0x20\n  add\n  swap1\n  dup2\n  mstore\n  0x20\n  add\n  0x00\n  keccak256\n    /* \"bootcamp/week3/day_5_homework_part_2_number_array_string_output.sol\":572:589  counter[12] = \"L\" */\n  swap1\n  dup1\n  mload\n  swap1\n  0x20\n  add\n  swap1\n  tag_17\n  swap3\n  swap2\n  swap1\n  tag_2\n  jump\t// in\ntag_17:\n  pop\n    /* \"bootcamp/week3/day_5_homework_part_2_number_array_string_output.sol\":599:616  counter[13] = \"M\" */\n  mload(0x40)\n  dup1\n  0x40\n  add\n  0x40\n  mstore\n  dup1\n  0x01\n  dup2\n  mstore\n  0x20\n  add\n  0x4d00000000000000000000000000000000000000000000000000000000000000\n  dup2\n  mstore\n  pop\n    /* \"bootcamp/week3/day_5_homework_part_2_number_array_string_output.sol\":599:606  counter */\n  0x01\n    /* \"bootcamp/week3/day_5_homework_part_2_number_array_string_output.sol\":599:610  counter[13] */\n  0x00\n    /* \"bootcamp/week3/day_5_homework_part_2_number_array_string_output.sol\":607:609  13 */\n  0x0d\n    /* \"bootcamp/week3/day_5_homework_part_2_number_array_string_output.sol\":599:610  counter[13] */\n  dup2\n  mstore\n  0x20\n  add\n  swap1\n  dup2\n  mstore\n  0x20\n  add\n  0x00\n  keccak256\n    /* \"bootcamp/week3/day_5_homework_part_2_number_array_string_output.sol\":599:616  counter[13] = \"M\" */\n  swap1\n  dup1\n  mload\n  swap1\n  0x20\n  add\n  swap1\n  tag_18\n  swap3\n  swap2\n  swap1\n  tag_2\n  jump\t// in\ntag_18:\n  pop\n    /* \"bootcamp/week3/day_5_homework_part_2_number_array_string_output.sol\":626:643  counter[14] = \"N\" */\n  mload(0x40)\n  dup1\n  0x40\n  add\n  0x40\n  mstore\n  dup1\n  0x01\n  dup2\n  mstore\n  0x20\n  add\n  0x4e00000000000000000000000000000000000000000000000000000000000000\n  dup2\n  mstore\n  pop\n    /* \"bootcamp/week3/day_5_homework_part_2_number_array_string_output.sol\":626:633  counter */\n  0x01\n    /* \"bootcamp/week3/day_5_homework_part_2_number_array_string_output.sol\":626:637  counter[14] */\n  0x00\n    /* \"bootcamp/week3/day_5_homework_part_2_number_array_string_output.sol\":634:636  14 */\n  0x0e\n    /* \"bootcamp/week3/day_5_homework_part_2_number_array_string_output.sol\":626:637  counter[14] */\n  dup2\n  mstore\n  0x20\n  add\n  swap1\n  dup2\n  mstore\n  0x20\n  add\n  0x00\n  keccak256\n    /* \"bootcamp/week3/day_5_homework_part_2_number_array_string_output.sol\":626:643  counter[14] = \"N\" */\n  swap1\n  dup1\n  mload\n  swap1\n  0x20\n  add\n  swap1\n  tag_19\n  swap3\n  swap2\n  swap1\n  tag_2\n  jump\t// in\ntag_19:\n  pop\n    /* \"bootcamp/week3/day_5_homework_part_2_number_array_string_output.sol\":653:670  counter[15] = \"O\" */\n  mload(0x40)\n  dup1\n  0x40\n  add\n  0x40\n  mstore\n  dup1\n  0x01\n  dup2\n  mstore\n  0x20\n  add\n  0x4f00000000000000000000000000000000000000000000000000000000000000\n  dup2\n  mstore\n  pop\n    /* \"bootcamp/week3/day_5_homework_part_2_number_array_string_output.sol\":653:660  counter */\n  0x01\n    /* \"bootcamp/week3/day_5_homework_part_2_number_array_string_output.sol\":653:664  counter[15] */\n  0x00\n    /* \"bootcamp/week3/day_5_homework_part_2_number_array_string_output.sol\":661:663  15 */\n  0x0f\n    /* \"bootcamp/week3/day_5_homework_part_2_number_array_string_output.sol\":653:664  counter[15] */\n  dup2\n  mstore\n  0x20\n  add\n  swap1\n  dup2\n  mstore\n  0x20\n  add\n  0x00\n  keccak256\n    /* \"bootcamp/week3/day_5_homework_part_2_number_array_string_output.sol\":653:670  counter[15] = \"O\" */\n  swap1\n  dup1\n  mload\n  swap1\n  0x20\n  add\n  swap1\n  tag_20\n  swap3\n  swap2\n  swap1\n  tag_2\n  jump\t// in\ntag_20:\n  pop\n    /* \"bootcamp/week3/day_5_homework_part_2_number_array_string_output.sol\":680:697  counter[16] = \"P\" */\n  mload(0x40)\n  dup1\n  0x40\n  add\n  0x40\n  mstore\n  dup1\n  0x01\n  dup2\n  mstore\n  0x20\n  add\n  0x5000000000000000000000000000000000000000000000000000000000000000\n  dup2\n  mstore\n  pop\n    /* \"bootcamp/week3/day_5_homework_part_2_number_array_string_output.sol\":680:687  counter */\n  0x01\n    /* \"bootcamp/week3/day_5_homework_part_2_number_array_string_output.sol\":680:691  counter[16] */\n  0x00\n    /* \"bootcamp/week3/day_5_homework_part_2_number_array_string_output.sol\":688:690  16 */\n  0x10\n    /* \"bootcamp/week3/day_5_homework_part_2_number_array_string_output.sol\":680:691  counter[16] */\n  dup2\n  mstore\n  0x20\n  add\n  swap1\n  dup2\n  mstore\n  0x20\n  add\n  0x00\n  keccak256\n    /* \"bootcamp/week3/day_5_homework_part_2_number_array_string_output.sol\":680:697  counter[16] = \"P\" */\n  swap1\n  dup1\n  mload\n  swap1\n  0x20\n  add\n  swap1\n  tag_21\n  swap3\n  swap2\n  swap1\n  tag_2\n  jump\t// in\ntag_21:\n  pop\n    /* \"bootcamp/week3/day_5_homework_part_2_number_array_string_output.sol\":707:724  counter[17] = \"Q\" */\n  mload(0x40)\n  dup1\n  0x40\n  add\n  0x40\n  mstore\n  dup1\n  0x01\n  dup2\n  mstore\n  0x20\n  add\n  0x5100000000000000000000000000000000000000000000000000000000000000\n  dup2\n  mstore\n  pop\n    /* \"bootcamp/week3/day_5_homework_part_2_number_array_string_output.sol\":707:714  counter */\n  0x01\n    /* \"bootcamp/week3/day_5_homework_part_2_number_array_string_output.sol\":707:718  counter[17] */\n  0x00\n    /* \"bootcamp/week3/day_5_homework_part_2_number_array_string_output.sol\":715:717  17 */\n  0x11\n    /* \"bootcamp/week3/day_5_homework_part_2_number_array_string_output.sol\":707:718  counter[17] */\n  dup2\n  mstore\n  0x20\n  add\n  swap1\n  dup2\n  mstore\n  0x20\n  add\n  0x00\n  keccak256\n    /* \"bootcamp/week3/day_5_homework_part_2_number_array_string_output.sol\":707:724  counter[17] = \"Q\" */\n  swap1\n  dup1\n  mload\n  swap1\n  0x20\n  add\n  swap1\n  tag_22\n  swap3\n  swap2\n  swap1\n  tag_2\n  jump\t// in\ntag_22:\n  pop\n    /* \"bootcamp/week3/day_5_homework_part_2_number_array_string_output.sol\":734:751  counter[18] = \"R\" */\n  mload(0x40)\n  dup1\n  0x40\n  add\n  0x40\n  mstore\n  dup1\n  0x01\n  dup2\n  mstore\n  0x20\n  add\n  0x5200000000000000000000000000000000000000000000000000000000000000\n  dup2\n  mstore\n  pop\n    /* \"bootcamp/week3/day_5_homework_part_2_number_array_string_output.sol\":734:741  counter */\n  0x01\n    /* \"bootcamp/week3/day_5_homework_part_2_number_array_string_output.sol\":734:745  counter[18] */\n  0x00\n    /* \"bootcamp/week3/day_5_homework_part_2_number_array_string_output.sol\":742:744  18 */\n  0x12\n    /* \"bootcamp/week3/day_5_homework_part_2_number_array_string_output.sol\":734:745  counter[18] */\n  dup2\n  mstore\n  0x20\n  add\n  swap1\n  dup2\n  mstore\n  0x20\n  add\n  0x00\n  keccak256\n    /* \"bootcamp/week3/day_5_homework_part_2_number_array_string_output.sol\":734:751  counter[18] = \"R\" */\n  swap1\n  dup1\n  mload\n  swap1\n  0x20\n  add\n  swap1\n  tag_23\n  swap3\n  swap2\n  swap1\n  tag_2\n  jump\t// in\ntag_23:\n  pop\n    /* \"bootcamp/week3/day_5_homework_part_2_number_array_string_output.sol\":761:778  counter[19] = \"S\" */\n  mload(0x40)\n  dup1\n  0x40\n  add\n  0x40\n  mstore\n  dup1\n  0x01\n  dup2\n  mstore\n  0x20\n  add\n  0x5300000000000000000000000000000000000000000000000000000000000000\n  dup2\n  mstore\n  pop\n    /* \"bootcamp/week3/day_5_homework_part_2_number_array_string_output.sol\":761:768  counter */\n  0x01\n    /* \"bootcamp/week3/day_5_homework_part_2_number_array_string_output.sol\":761:772  counter[19] */\n  0x00\n    /* \"bootcamp/week3/day_5_homework_part_2_number_array_string_output.sol\":769:771  19 */\n  0x13\n    /* \"bootcamp/week3/day_5_homework_part_2_number_array_string_output.sol\":761:772  counter[19] */\n  dup2\n  mstore\n  0x20\n  add\n  swap1\n  dup2\n  mstore\n  0x20\n  add\n  0x00\n  keccak256\n    /* \"bootcamp/week3/day_5_homework_part_2_number_array_string_output.sol\":761:778  counter[19] = \"S\" */\n  swap1\n  dup1\n  mload\n  swap1\n  0x20\n  add\n  swap1\n  tag_24\n  swap3\n  swap2\n  swap1\n  tag_2\n  jump\t// in\ntag_24:\n  pop\n    /* \"bootcamp/week3/day_5_homework_part_2_number_array_string_output.sol\":788:805  counter[20] = \"T\" */\n  mload(0x40)\n  dup1\n  0x40\n  add\n  0x40\n  mstore\n  dup1\n  0x01\n  dup2\n  mstore\n  0x20\n  add\n  0x5400000000000000000000000000000000000000000000000000000000000000\n  dup2\n  mstore\n  pop\n    /* \"bootcamp/week3/day_5_homework_part_2_number_array_string_output.sol\":788:795  counter */\n  0x01\n    /* \"bootcamp/week3/day_5_homework_part_2_number_array_string_output.sol\":788:799  counter[20] */\n  0x00\n    /* \"bootcamp/week3/day_5_homework_part_2_number_array_string_output.sol\":796:798  20 */\n  0x14\n    /* \"bootcamp/week3/day_5_homework_part_2_number_array_string_output.sol\":788:799  counter[20] */\n  dup2\n  mstore\n  0x20\n  add\n  swap1\n  dup2\n  mstore\n  0x20\n  add\n  0x00\n  keccak256\n    /* \"bootcamp/week3/day_5_homework_part_2_number_array_string_output.sol\":788:805  counter[20] = \"T\" */\n  swap1\n  dup1\n  mload\n  swap1\n  0x20\n  add\n  swap1\n  tag_25\n  swap3\n  swap2\n  swap1\n  tag_2\n  jump\t// in\ntag_25:\n  pop\n    /* \"bootcamp/week3/day_5_homework_part_2_number_array_string_output.sol\":815:832  counter[21] = \"U\" */\n  mload(0x40)\n  dup1\n  0x40\n  add\n  0x40\n  mstore\n  dup1\n  0x01\n  dup2\n  mstore\n  0x20\n  add\n  0x5500000000000000000000000000000000000000000000000000000000000000\n  dup2\n  mstore\n  pop\n    /* \"bootcamp/week3/day_5_homework_part_2_number_array_string_output.sol\":815:822  counter */\n  0x01\n    /* \"bootcamp/week3/day_5_homework_part_2_number_array_string_output.sol\":815:826  counter[21] */\n  0x00\n    /* \"bootcamp/week3/day_5_homework_part_2_number_array_string_output.sol\":823:825  21 */\n  0x15\n    /* \"bootcamp/week3/day_5_homework_part_2_number_array_string_output.sol\":815:826  counter[21] */\n  dup2\n  mstore\n  0x20\n  add\n  swap1\n  dup2\n  mstore\n  0x20\n  add\n  0x00\n  keccak256\n    /* \"bootcamp/week3/day_5_homework_part_2_number_array_string_output.sol\":815:832  counter[21] = \"U\" */\n  swap1\n  dup1\n  mload\n  swap1\n  0x20\n  add\n  swap1\n  tag_26\n  swap3\n  swap2\n  swap1\n  tag_2\n  jump\t// in\ntag_26:\n  pop\n    /* \"bootcamp/week3/day_5_homework_part_2_number_array_string_output.sol\":842:859  counter[22] = \"V\" */\n  mload(0x40)\n  dup1\n  0x40\n  add\n  0x40\n  mstore\n  dup1\n  0x01\n  dup2\n  mstore\n  0x20\n  add\n  0x5600000000000000000000000000000000000000000000000000000000000000\n  dup2\n  mstore\n  pop\n    /* \"bootcamp/week3/day_5_homework_part_2_number_array_string_output.sol\":842:849  counter */\n  0x01\n    /* \"bootcamp/week3/day_5_homework_part_2_number_array_string_output.sol\":842:853  counter[22] */\n  0x00\n    /* \"bootcamp/week3/day_5_homework_part_2_number_array_string_output.sol\":850:852  22 */\n  0x16\n    /* \"bootcamp/week3/day_5_homework_part_2_number_array_string_output.sol\":842:853  counter[22] */\n  dup2\n  mstore\n  0x20\n  add\n  swap1\n  dup2\n  mstore\n  0x20\n  add\n  0x00\n  keccak256\n    /* \"bootcamp/week3/day_5_homework_part_2_number_array_string_output.sol\":842:859  counter[22] = \"V\" */\n  swap1\n  dup1\n  mload\n  swap1\n  0x20\n  add\n  swap1\n  tag_27\n  swap3\n  swap2\n  swap1\n  tag_2\n  jump\t// in\ntag_27:\n  pop\n    /* \"bootcamp/week3/day_5_homework_part_2_number_array_string_output.sol\":869:886  counter[23] = \"W\" */\n  mload(0x40)\n  dup1\n  0x40\n  add\n  0x40\n  mstore\n  dup1\n  0x01\n  dup2\n  mstore\n  0x20\n  add\n  0x5700000000000000000000000000000000000000000000000000000000000000\n  dup2\n  mstore\n  pop\n    /* \"bootcamp/week3/day_5_homework_part_2_number_array_string_output.sol\":869:876  counter */\n  0x01\n    /* \"bootcamp/week3/day_5_homework_part_2_number_array_string_output.sol\":869:880  counter[23] */\n  0x00\n    /* \"bootcamp/week3/day_5_homework_part_2_number_array_string_output.sol\":877:879  23 */\n  0x17\n    /* \"bootcamp/week3/day_5_homework_part_2_number_array_string_output.sol\":869:880  counter[23] */\n  dup2\n  mstore\n  0x20\n  add\n  swap1\n  dup2\n  mstore\n  0x20\n  add\n  0x00\n  keccak256\n    /* \"bootcamp/week3/day_5_homework_part_2_number_array_string_output.sol\":869:886  counter[23] = \"W\" */\n  swap1\n  dup1\n  mload\n  swap1\n  0x20\n  add\n  swap1\n  tag_28\n  swap3\n  swap2\n  swap1\n  tag_2\n  jump\t// in\ntag_28:\n  pop\n    /* \"bootcamp/week3/day_5_homework_part_2_number_array_string_output.sol\":896:913  counter[24] = \"X\" */\n  mload(0x40)\n  dup1\n  0x40\n  add\n  0x40\n  mstore\n  dup1\n  0x01\n  dup2\n  mstore\n  0x20\n  add\n  0x5800000000000000000000000000000000000000000000000000000000000000\n  dup2\n  mstore\n  pop\n    /* \"bootcamp/week3/day_5_homework_part_2_number_array_string_output.sol\":896:903  counter */\n  0x01\n    /* \"bootcamp/week3/day_5_homework_part_2_number_array_string_output.sol\":896:907  counter[24] */\n  0x00\n    /* \"bootcamp/week3/day_5_homework_part_2_number_array_string_output.sol\":904:906  24 */\n  0x18\n    /* \"bootcamp/week3/day_5_homework_part_2_number_array_string_output.sol\":896:907  counter[24] */\n  dup2\n  mstore\n  0x20\n  add\n  swap1\n  dup2\n  mstore\n  0x20\n  add\n  0x00\n  keccak256\n    /* \"bootcamp/week3/day_5_homework_part_2_number_array_string_output.sol\":896:913  counter[24] = \"X\" */\n  swap1\n  dup1\n  mload\n  swap1\n  0x20\n  add\n  swap1\n  tag_29\n  swap3\n  swap2\n  swap1\n  tag_2\n  jump\t// in\ntag_29:\n  pop\n    /* \"bootcamp/week3/day_5_homework_part_2_number_array_string_output.sol\":923:940  counter[25] = \"Y\" */\n  mload(0x40)\n  dup1\n  0x40\n  add\n  0x40\n  mstore\n  dup1\n  0x01\n  dup2\n  mstore\n  0x20\n  add\n  0x5900000000000000000000000000000000000000000000000000000000000000\n  dup2\n  mstore\n  pop\n    /* \"bootcamp/week3/day_5_homework_part_2_number_array_string_output.sol\":923:930  counter */\n  0x01\n    /* \"bootcamp/week3/day_5_homework_part_2_number_array_string_output.sol\":923:934  counter[25] */\n  0x00\n    /* \"bootcamp/week3/day_5_homework_part_2_number_array_string_output.sol\":931:933  25 */\n  0x19\n    /* \"bootcamp/week3/day_5_homework_part_2_number_array_string_output.sol\":923:934  counter[25] */\n  dup2\n  mstore\n  0x20\n  add\n  swap1\n  dup2\n  mstore\n  0x20\n  add\n  0x00\n  keccak256\n    /* \"bootcamp/week3/day_5_homework_part_2_number_array_string_output.sol\":923:940  counter[25] = \"Y\" */\n  swap1\n  dup1\n  mload\n  swap1\n  0x20\n  add\n  swap1\n  tag_30\n  swap3\n  swap2\n  swap1\n  tag_2\n  jump\t// in\ntag_30:\n  pop\n    /* \"bootcamp/week3/day_5_homework_part_2_number_array_string_output.sol\":950:967  counter[26] = \"Z\" */\n  mload(0x40)\n  dup1\n  0x40\n  add\n  0x40\n  mstore\n  dup1\n  0x01\n  dup2\n  mstore\n  0x20\n  add\n  0x5a00000000000000000000000000000000000000000000000000000000000000\n  dup2\n  mstore\n  pop\n    /* \"bootcamp/week3/day_5_homework_part_2_number_array_string_output.sol\":950:957  counter */\n  0x01\n    /* \"bootcamp/week3/day_5_homework_part_2_number_array_string_output.sol\":950:961  counter[26] */\n  0x00\n    /* \"bootcamp/week3/day_5_homework_part_2_number_array_string_output.sol\":958:960  26 */\n  0x1a\n    /* \"bootcamp/week3/day_5_homework_part_2_number_array_string_output.sol\":950:961  counter[26] */\n  dup2\n  mstore\n  0x20\n  add\n  swap1\n  dup2\n  mstore\n  0x20\n  add\n  0x00\n  keccak256\n    /* \"bootcamp/week3/day_5_homework_part_2_number_array_string_output.sol\":950:967  counter[26] = \"Z\" */\n  swap1\n  dup1\n  mload\n  swap1\n  0x20\n  add\n  swap1\n  tag_31\n  swap3\n  swap2\n  swap1\n  tag_2\n  jump\t// in\ntag_31:\n  pop\n    /* \"bootcamp/week3/day_5_homework_part_2_number_array_string_output.sol\":58:1502  contract NumberToString {... */\n  jump(tag_32)\ntag_2:\n  dup3\n  dup1\n  sload\n  tag_33\n  swap1\n  tag_34\n  jump\t// in\ntag_33:\n  swap1\n  0x00\n  mstore\n  keccak256(0x00, 0x20)\n  swap1\n  0x1f\n  add\n  0x20\n  swap1\n  div\n  dup2\n  add\n  swap3\n  dup3\n  tag_36\n  jumpi\n  0x00\n  dup6\n  sstore\n  jump(tag_35)\ntag_36:\n  dup3\n  0x1f\n  lt\n  tag_37\n  jumpi\n  dup1\n  mload\n  not(0xff)\n  and\n  dup4\n  dup1\n  add\n  or\n  dup6\n  sstore\n  jump(tag_35)\ntag_37:\n  dup3\n  dup1\n  add\n  0x01\n  add\n  dup6\n  sstore\n  dup3\n  iszero\n  tag_35\n  jumpi\n  swap2\n  dup3\n  add\ntag_38:\n  dup3\n  dup2\n  gt\n  iszero\n  tag_39\n  jumpi\n  dup3\n  mload\n  dup3\n  sstore\n  swap2\n  0x20\n  add\n  swap2\n  swap1\n  0x01\n  add\n  swap1\n  jump(tag_38)\ntag_39:\ntag_35:\n  pop\n  swap1\n  pop\n  tag_40\n  swap2\n  swap1\n  tag_41\n  jump\t// in\ntag_40:\n  pop\n  swap1\n  jump\t// out\ntag_41:\ntag_42:\n  dup1\n  dup3\n  gt\n  iszero\n  tag_43\n  jumpi\n  0x00\n  dup2\n  0x00\n  swap1\n  sstore\n  pop\n  0x01\n  add\n  jump(tag_42)\ntag_43:\n  pop\n  swap1\n  jump\t// out\n    /* \"#utility.yul\":7:187   */\ntag_44:\n    /* \"#utility.yul\":55:132   */\n  0x4e487b7100000000000000000000000000000000000000000000000000000000\n    /* \"#utility.yul\":52:53   */\n  0x00\n    /* \"#utility.yul\":45:133   */\n  mstore\n    /* \"#utility.yul\":152:156   */\n  0x22\n    /* \"#utility.yul\":149:150   */\n  0x04\n    /* \"#utility.yul\":142:157   */\n  mstore\n    /* \"#utility.yul\":176:180   */\n  0x24\n    /* \"#utility.yul\":173:174   */\n  0x00\n    /* \"#utility.yul\":166:181   */\n  revert\n    /* \"#utility.yul\":193:513   */\ntag_34:\n    /* \"#utility.yul\":237:243   */\n  0x00\n    /* \"#utility.yul\":274:275   */\n  0x02\n    /* \"#utility.yul\":268:272   */\n  dup3\n    /* \"#utility.yul\":264:276   */\n  div\n    /* \"#utility.yul\":254:276   */\n  swap1\n  pop\n    /* \"#utility.yul\":321:322   */\n  0x01\n    /* \"#utility.yul\":315:319   */\n  dup3\n    /* \"#utility.yul\":311:323   */\n  and\n    /* \"#utility.yul\":342:360   */\n  dup1\n    /* \"#utility.yul\":332:413   */\n  tag_48\n  jumpi\n    /* \"#utility.yul\":398:402   */\n  0x7f\n    /* \"#utility.yul\":390:396   */\n  dup3\n    /* \"#utility.yul\":386:403   */\n  and\n    /* \"#utility.yul\":376:403   */\n  swap2\n  pop\n    /* \"#utility.yul\":332:413   */\ntag_48:\n    /* \"#utility.yul\":460:462   */\n  0x20\n    /* \"#utility.yul\":452:458   */\n  dup3\n    /* \"#utility.yul\":449:463   */\n  lt\n    /* \"#utility.yul\":429:447   */\n  dup2\n    /* \"#utility.yul\":426:464   */\n  sub\n    /* \"#utility.yul\":423:507   */\n  tag_49\n  jumpi\n    /* \"#utility.yul\":479:497   */\n  tag_50\n  tag_44\n  jump\t// in\ntag_50:\n    /* \"#utility.yul\":423:507   */\ntag_49:\n    /* \"#utility.yul\":244:513   */\n  pop\n    /* \"#utility.yul\":193:513   */\n  swap2\n  swap1\n  pop\n  jump\t// out\n    /* \"bootcamp/week3/day_5_homework_part_2_number_array_string_output.sol\":58:1502  contract NumberToString {... */\ntag_32:\n  dataSize(sub_0)\n  dup1\n  dataOffset(sub_0)\n  0x00\n  codecopy\n  0x00\n  return\nstop\n\nsub_0: assembly {\n        /* \"bootcamp/week3/day_5_homework_part_2_number_array_string_output.sol\":58:1502  contract NumberToString {... */\n      mstore(0x40, 0x80)\n      callvalue\n      dup1\n      iszero\n      tag_1\n      jumpi\n      0x00\n      dup1\n      revert\n    tag_1:\n      pop\n      jumpi(tag_2, lt(calldatasize, 0x04))\n      shr(0xe0, calldataload(0x00))\n      dup1\n      0x2b9170a4\n      eq\n      tag_3\n      jumpi\n      dup1\n      0xb1f525c6\n      eq\n      tag_4\n      jumpi\n      dup1\n      0xed40a8c8\n      eq\n      tag_5\n      jumpi\n    tag_2:\n      0x00\n      dup1\n      revert\n        /* \"bootcamp/week3/day_5_homework_part_2_number_array_string_output.sol\":1082:1411  function numberToString(uint[] memory number) public returns(string memory) {... */\n    tag_3:\n      tag_6\n      0x04\n      dup1\n      calldatasize\n      sub\n      dup2\n      add\n      swap1\n      tag_7\n      swap2\n      swap1\n      tag_8\n      jump\t// in\n    tag_7:\n      tag_9\n      jump\t// in\n    tag_6:\n      mload(0x40)\n      tag_10\n      swap2\n      swap1\n      tag_11\n      jump\t// in\n    tag_10:\n      mload(0x40)\n      dup1\n      swap2\n      sub\n      swap1\n      return\n        /* \"bootcamp/week3/day_5_homework_part_2_number_array_string_output.sol\":980:1018  mapping(uint => string) public counter */\n    tag_4:\n      tag_12\n      0x04\n      dup1\n      calldatasize\n      sub\n      dup2\n      add\n      swap1\n      tag_13\n      swap2\n      swap1\n      tag_14\n      jump\t// in\n    tag_13:\n      tag_15\n      jump\t// in\n    tag_12:\n      mload(0x40)\n      tag_16\n      swap2\n      swap1\n      tag_11\n      jump\t// in\n    tag_16:\n      mload(0x40)\n      dup1\n      swap2\n      sub\n      swap1\n      return\n        /* \"bootcamp/week3/day_5_homework_part_2_number_array_string_output.sol\":1417:1499  function getWord() public view returns(string memory) {... */\n    tag_5:\n      tag_17\n      tag_18\n      jump\t// in\n    tag_17:\n      mload(0x40)\n      tag_19\n      swap2\n      swap1\n      tag_11\n      jump\t// in\n    tag_19:\n      mload(0x40)\n      dup1\n      swap2\n      sub\n      swap1\n      return\n        /* \"bootcamp/week3/day_5_homework_part_2_number_array_string_output.sol\":1082:1411  function numberToString(uint[] memory number) public returns(string memory) {... */\n    tag_9:\n        /* \"bootcamp/week3/day_5_homework_part_2_number_array_string_output.sol\":1143:1156  string memory */\n      0x60\n        /* \"bootcamp/week3/day_5_homework_part_2_number_array_string_output.sol\":1173:1179  uint i */\n      0x00\n        /* \"bootcamp/week3/day_5_homework_part_2_number_array_string_output.sol\":1169:1383  for(uint i = 0; i < number.length; i++) {... */\n    tag_21:\n        /* \"bootcamp/week3/day_5_homework_part_2_number_array_string_output.sol\":1189:1195  number */\n      dup3\n        /* \"bootcamp/week3/day_5_homework_part_2_number_array_string_output.sol\":1189:1202  number.length */\n      mload\n        /* \"bootcamp/week3/day_5_homework_part_2_number_array_string_output.sol\":1185:1186  i */\n      dup2\n        /* \"bootcamp/week3/day_5_homework_part_2_number_array_string_output.sol\":1185:1202  i < number.length */\n      lt\n        /* \"bootcamp/week3/day_5_homework_part_2_number_array_string_output.sol\":1169:1383  for(uint i = 0; i < number.length; i++) {... */\n      iszero\n      tag_22\n      jumpi\n        /* \"bootcamp/week3/day_5_homework_part_2_number_array_string_output.sol\":1253:1273  string memory letter */\n      0x00\n        /* \"bootcamp/week3/day_5_homework_part_2_number_array_string_output.sol\":1276:1283  counter */\n      0x01\n        /* \"bootcamp/week3/day_5_homework_part_2_number_array_string_output.sol\":1276:1294  counter[number[i]] */\n      0x00\n        /* \"bootcamp/week3/day_5_homework_part_2_number_array_string_output.sol\":1284:1290  number */\n      dup6\n        /* \"bootcamp/week3/day_5_homework_part_2_number_array_string_output.sol\":1291:1292  i */\n      dup5\n        /* \"bootcamp/week3/day_5_homework_part_2_number_array_string_output.sol\":1284:1293  number[i] */\n      dup2\n      mload\n      dup2\n      lt\n      tag_24\n      jumpi\n      tag_25\n      tag_26\n      jump\t// in\n    tag_25:\n    tag_24:\n      0x20\n      mul\n      0x20\n      add\n      add\n      mload\n        /* \"bootcamp/week3/day_5_homework_part_2_number_array_string_output.sol\":1276:1294  counter[number[i]] */\n      dup2\n      mstore\n      0x20\n      add\n      swap1\n      dup2\n      mstore\n      0x20\n      add\n      0x00\n      keccak256\n        /* \"bootcamp/week3/day_5_homework_part_2_number_array_string_output.sol\":1253:1294  string memory letter = counter[number[i]] */\n      dup1\n      sload\n      tag_27\n      swap1\n      tag_28\n      jump\t// in\n    tag_27:\n      dup1\n      0x1f\n      add\n      0x20\n      dup1\n      swap2\n      div\n      mul\n      0x20\n      add\n      mload(0x40)\n      swap1\n      dup2\n      add\n      0x40\n      mstore\n      dup1\n      swap3\n      swap2\n      swap1\n      dup2\n      dup2\n      mstore\n      0x20\n      add\n      dup3\n      dup1\n      sload\n      tag_29\n      swap1\n      tag_28\n      jump\t// in\n    tag_29:\n      dup1\n      iszero\n      tag_30\n      jumpi\n      dup1\n      0x1f\n      lt\n      tag_31\n      jumpi\n      0x0100\n      dup1\n      dup4\n      sload\n      div\n      mul\n      dup4\n      mstore\n      swap2\n      0x20\n      add\n      swap2\n      jump(tag_30)\n    tag_31:\n      dup3\n      add\n      swap2\n      swap1\n      0x00\n      mstore\n      keccak256(0x00, 0x20)\n      swap1\n    tag_32:\n      dup2\n      sload\n      dup2\n      mstore\n      swap1\n      0x01\n      add\n      swap1\n      0x20\n      add\n      dup1\n      dup4\n      gt\n      tag_32\n      jumpi\n      dup3\n      swap1\n      sub\n      0x1f\n      and\n      dup3\n      add\n      swap2\n    tag_30:\n      pop\n      pop\n      pop\n      pop\n      pop\n      swap1\n      pop\n        /* \"bootcamp/week3/day_5_homework_part_2_number_array_string_output.sol\":1329:1333  word */\n      0x00\n        /* \"bootcamp/week3/day_5_homework_part_2_number_array_string_output.sol\":1335:1341  letter */\n      dup2\n        /* \"bootcamp/week3/day_5_homework_part_2_number_array_string_output.sol\":1315:1342  string.concat(word, letter) */\n      add(0x20, mload(0x40))\n      tag_33\n      swap3\n      swap2\n      swap1\n      tag_34\n      jump\t// in\n    tag_33:\n      mload(0x40)\n      0x20\n      dup2\n      dup4\n      sub\n      sub\n      dup2\n      mstore\n      swap1\n      0x40\n      mstore\n        /* \"bootcamp/week3/day_5_homework_part_2_number_array_string_output.sol\":1308:1312  word */\n      0x00\n        /* \"bootcamp/week3/day_5_homework_part_2_number_array_string_output.sol\":1308:1342  word = string.concat(word, letter) */\n      swap1\n      dup1\n      mload\n      swap1\n      0x20\n      add\n      swap1\n      tag_35\n      swap3\n      swap2\n      swap1\n      tag_36\n      jump\t// in\n    tag_35:\n      pop\n        /* \"bootcamp/week3/day_5_homework_part_2_number_array_string_output.sol\":1361:1372  test2(word) */\n      0x30e738a7f2cacd30ea7d0cfb014d15ebdd5f14c8ec463cead0dda007c2e76f8c\n        /* \"bootcamp/week3/day_5_homework_part_2_number_array_string_output.sol\":1367:1371  word */\n      0x00\n        /* \"bootcamp/week3/day_5_homework_part_2_number_array_string_output.sol\":1361:1372  test2(word) */\n      mload(0x40)\n      tag_37\n      swap2\n      swap1\n      tag_38\n      jump\t// in\n    tag_37:\n      mload(0x40)\n      dup1\n      swap2\n      sub\n      swap1\n      log1\n        /* \"bootcamp/week3/day_5_homework_part_2_number_array_string_output.sol\":1209:1383  {... */\n      pop\n        /* \"bootcamp/week3/day_5_homework_part_2_number_array_string_output.sol\":1204:1207  i++ */\n      dup1\n      dup1\n      tag_39\n      swap1\n      tag_40\n      jump\t// in\n    tag_39:\n      swap2\n      pop\n      pop\n        /* \"bootcamp/week3/day_5_homework_part_2_number_array_string_output.sol\":1169:1383  for(uint i = 0; i < number.length; i++) {... */\n      jump(tag_21)\n    tag_22:\n      pop\n        /* \"bootcamp/week3/day_5_homework_part_2_number_array_string_output.sol\":1400:1404  word */\n      0x00\n        /* \"bootcamp/week3/day_5_homework_part_2_number_array_string_output.sol\":1393:1404  return word */\n      dup1\n      sload\n      tag_41\n      swap1\n      tag_28\n      jump\t// in\n    tag_41:\n      dup1\n      0x1f\n      add\n      0x20\n      dup1\n      swap2\n      div\n      mul\n      0x20\n      add\n      mload(0x40)\n      swap1\n      dup2\n      add\n      0x40\n      mstore\n      dup1\n      swap3\n      swap2\n      swap1\n      dup2\n      dup2\n      mstore\n      0x20\n      add\n      dup3\n      dup1\n      sload\n      tag_42\n      swap1\n      tag_28\n      jump\t// in\n    tag_42:\n      dup1\n      iszero\n      tag_43\n      jumpi\n      dup1\n      0x1f\n      lt\n      tag_44\n      jumpi\n      0x0100\n      dup1\n      dup4\n      sload\n      div\n      mul\n      dup4\n      mstore\n      swap2\n      0x20\n      add\n      swap2\n      jump(tag_43)\n    tag_44:\n      dup3\n      add\n      swap2\n      swap1\n      0x00\n      mstore\n      keccak256(0x00, 0x20)\n      swap1\n    tag_45:\n      dup2\n      sload\n      dup2\n      mstore\n      swap1\n      0x01\n      add\n      swap1\n      0x20\n      add\n      dup1\n      dup4\n      gt\n      tag_45\n      jumpi\n      dup3\n      swap1\n      sub\n      0x1f\n      and\n      dup3\n      add\n      swap2\n    tag_43:\n      pop\n      pop\n      pop\n      pop\n      pop\n      swap1\n      pop\n        /* \"bootcamp/week3/day_5_homework_part_2_number_array_string_output.sol\":1082:1411  function numberToString(uint[] memory number) public returns(string memory) {... */\n      swap2\n      swap1\n      pop\n      jump\t// out\n        /* \"bootcamp/week3/day_5_homework_part_2_number_array_string_output.sol\":980:1018  mapping(uint => string) public counter */\n    tag_15:\n      mstore(0x20, 0x01)\n      dup1\n      0x00\n      mstore\n      keccak256(0x00, 0x40)\n      0x00\n      swap2\n      pop\n      swap1\n      pop\n      dup1\n      sload\n      tag_46\n      swap1\n      tag_28\n      jump\t// in\n    tag_46:\n      dup1\n      0x1f\n      add\n      0x20\n      dup1\n      swap2\n      div\n      mul\n      0x20\n      add\n      mload(0x40)\n      swap1\n      dup2\n      add\n      0x40\n      mstore\n      dup1\n      swap3\n      swap2\n      swap1\n      dup2\n      dup2\n      mstore\n      0x20\n      add\n      dup3\n      dup1\n      sload\n      tag_47\n      swap1\n      tag_28\n      jump\t// in\n    tag_47:\n      dup1\n      iszero\n      tag_48\n      jumpi\n      dup1\n      0x1f\n      lt\n      tag_49\n      jumpi\n      0x0100\n      dup1\n      dup4\n      sload\n      div\n      mul\n      dup4\n      mstore\n      swap2\n      0x20\n      add\n      swap2\n      jump(tag_48)\n    tag_49:\n      dup3\n      add\n      swap2\n      swap1\n      0x00\n      mstore\n      keccak256(0x00, 0x20)\n      swap1\n    tag_50:\n      dup2\n      sload\n      dup2\n      mstore\n      swap1\n      0x01\n      add\n      swap1\n      0x20\n      add\n      dup1\n      dup4\n      gt\n      tag_50\n      jumpi\n      dup3\n      swap1\n      sub\n      0x1f\n      and\n      dup3\n      add\n      swap2\n    tag_48:\n      pop\n      pop\n      pop\n      pop\n      pop\n      dup2\n      jump\t// out\n        /* \"bootcamp/week3/day_5_homework_part_2_number_array_string_output.sol\":1417:1499  function getWord() public view returns(string memory) {... */\n    tag_18:\n        /* \"bootcamp/week3/day_5_homework_part_2_number_array_string_output.sol\":1456:1469  string memory */\n      0x60\n        /* \"bootcamp/week3/day_5_homework_part_2_number_array_string_output.sol\":1488:1492  word */\n      0x00\n        /* \"bootcamp/week3/day_5_homework_part_2_number_array_string_output.sol\":1481:1492  return word */\n      dup1\n      sload\n      tag_52\n      swap1\n      tag_28\n      jump\t// in\n    tag_52:\n      dup1\n      0x1f\n      add\n      0x20\n      dup1\n      swap2\n      div\n      mul\n      0x20\n      add\n      mload(0x40)\n      swap1\n      dup2\n      add\n      0x40\n      mstore\n      dup1\n      swap3\n      swap2\n      swap1\n      dup2\n      dup2\n      mstore\n      0x20\n      add\n      dup3\n      dup1\n      sload\n      tag_53\n      swap1\n      tag_28\n      jump\t// in\n    tag_53:\n      dup1\n      iszero\n      tag_54\n      jumpi\n      dup1\n      0x1f\n      lt\n      tag_55\n      jumpi\n      0x0100\n      dup1\n      dup4\n      sload\n      div\n      mul\n      dup4\n      mstore\n      swap2\n      0x20\n      add\n      swap2\n      jump(tag_54)\n    tag_55:\n      dup3\n      add\n      swap2\n      swap1\n      0x00\n      mstore\n      keccak256(0x00, 0x20)\n      swap1\n    tag_56:\n      dup2\n      sload\n      dup2\n      mstore\n      swap1\n      0x01\n      add\n      swap1\n      0x20\n      add\n      dup1\n      dup4\n      gt\n      tag_56\n      jumpi\n      dup3\n      swap1\n      sub\n      0x1f\n      and\n      dup3\n      add\n      swap2\n    tag_54:\n      pop\n      pop\n      pop\n      pop\n      pop\n      swap1\n      pop\n        /* \"bootcamp/week3/day_5_homework_part_2_number_array_string_output.sol\":1417:1499  function getWord() public view returns(string memory) {... */\n      swap1\n      jump\t// out\n    tag_36:\n      dup3\n      dup1\n      sload\n      tag_57\n      swap1\n      tag_28\n      jump\t// in\n    tag_57:\n      swap1\n      0x00\n      mstore\n      keccak256(0x00, 0x20)\n      swap1\n      0x1f\n      add\n      0x20\n      swap1\n      div\n      dup2\n      add\n      swap3\n      dup3\n      tag_59\n      jumpi\n      0x00\n      dup6\n      sstore\n      jump(tag_58)\n    tag_59:\n      dup3\n      0x1f\n      lt\n      tag_60\n      jumpi\n      dup1\n      mload\n      not(0xff)\n      and\n      dup4\n      dup1\n      add\n      or\n      dup6\n      sstore\n      jump(tag_58)\n    tag_60:\n      dup3\n      dup1\n      add\n      0x01\n      add\n      dup6\n      sstore\n      dup3\n      iszero\n      tag_58\n      jumpi\n      swap2\n      dup3\n      add\n    tag_61:\n      dup3\n      dup2\n      gt\n      iszero\n      tag_62\n      jumpi\n      dup3\n      mload\n      dup3\n      sstore\n      swap2\n      0x20\n      add\n      swap2\n      swap1\n      0x01\n      add\n      swap1\n      jump(tag_61)\n    tag_62:\n    tag_58:\n      pop\n      swap1\n      pop\n      tag_63\n      swap2\n      swap1\n      tag_64\n      jump\t// in\n    tag_63:\n      pop\n      swap1\n      jump\t// out\n    tag_64:\n    tag_65:\n      dup1\n      dup3\n      gt\n      iszero\n      tag_66\n      jumpi\n      0x00\n      dup2\n      0x00\n      swap1\n      sstore\n      pop\n      0x01\n      add\n      jump(tag_65)\n    tag_66:\n      pop\n      swap1\n      jump\t// out\n        /* \"#utility.yul\":7:82   */\n    tag_67:\n        /* \"#utility.yul\":40:46   */\n      0x00\n        /* \"#utility.yul\":73:75   */\n      0x40\n        /* \"#utility.yul\":67:76   */\n      mload\n        /* \"#utility.yul\":57:76   */\n      swap1\n      pop\n        /* \"#utility.yul\":7:82   */\n      swap1\n      jump\t// out\n        /* \"#utility.yul\":88:205   */\n    tag_68:\n        /* \"#utility.yul\":197:198   */\n      0x00\n        /* \"#utility.yul\":194:195   */\n      dup1\n        /* \"#utility.yul\":187:199   */\n      revert\n        /* \"#utility.yul\":211:328   */\n    tag_69:\n        /* \"#utility.yul\":320:321   */\n      0x00\n        /* \"#utility.yul\":317:318   */\n      dup1\n        /* \"#utility.yul\":310:322   */\n      revert\n        /* \"#utility.yul\":334:451   */\n    tag_70:\n        /* \"#utility.yul\":443:444   */\n      0x00\n        /* \"#utility.yul\":440:441   */\n      dup1\n        /* \"#utility.yul\":433:445   */\n      revert\n        /* \"#utility.yul\":457:559   */\n    tag_71:\n        /* \"#utility.yul\":498:504   */\n      0x00\n        /* \"#utility.yul\":549:551   */\n      0x1f\n        /* \"#utility.yul\":545:552   */\n      not\n        /* \"#utility.yul\":540:542   */\n      0x1f\n        /* \"#utility.yul\":533:538   */\n      dup4\n        /* \"#utility.yul\":529:543   */\n      add\n        /* \"#utility.yul\":525:553   */\n      and\n        /* \"#utility.yul\":515:553   */\n      swap1\n      pop\n        /* \"#utility.yul\":457:559   */\n      swap2\n      swap1\n      pop\n      jump\t// out\n        /* \"#utility.yul\":565:745   */\n    tag_72:\n        /* \"#utility.yul\":613:690   */\n      0x4e487b7100000000000000000000000000000000000000000000000000000000\n        /* \"#utility.yul\":610:611   */\n      0x00\n        /* \"#utility.yul\":603:691   */\n      mstore\n        /* \"#utility.yul\":710:714   */\n      0x41\n        /* \"#utility.yul\":707:708   */\n      0x04\n        /* \"#utility.yul\":700:715   */\n      mstore\n        /* \"#utility.yul\":734:738   */\n      0x24\n        /* \"#utility.yul\":731:732   */\n      0x00\n        /* \"#utility.yul\":724:739   */\n      revert\n        /* \"#utility.yul\":751:1032   */\n    tag_73:\n        /* \"#utility.yul\":834:861   */\n      tag_101\n        /* \"#utility.yul\":856:860   */\n      dup3\n        /* \"#utility.yul\":834:861   */\n      tag_71\n      jump\t// in\n    tag_101:\n        /* \"#utility.yul\":826:832   */\n      dup2\n        /* \"#utility.yul\":822:862   */\n      add\n        /* \"#utility.yul\":964:970   */\n      dup2\n        /* \"#utility.yul\":952:962   */\n      dup2\n        /* \"#utility.yul\":949:971   */\n      lt\n        /* \"#utility.yul\":928:946   */\n      0xffffffffffffffff\n        /* \"#utility.yul\":916:926   */\n      dup3\n        /* \"#utility.yul\":913:947   */\n      gt\n        /* \"#utility.yul\":910:972   */\n      or\n        /* \"#utility.yul\":907:995   */\n      iszero\n      tag_102\n      jumpi\n        /* \"#utility.yul\":975:993   */\n      tag_103\n      tag_72\n      jump\t// in\n    tag_103:\n        /* \"#utility.yul\":907:995   */\n    tag_102:\n        /* \"#utility.yul\":1015:1025   */\n      dup1\n        /* \"#utility.yul\":1011:1013   */\n      0x40\n        /* \"#utility.yul\":1004:1026   */\n      mstore\n        /* \"#utility.yul\":794:1032   */\n      pop\n        /* \"#utility.yul\":751:1032   */\n      pop\n      pop\n      jump\t// out\n        /* \"#utility.yul\":1038:1167   */\n    tag_74:\n        /* \"#utility.yul\":1072:1078   */\n      0x00\n        /* \"#utility.yul\":1099:1119   */\n      tag_105\n      tag_67\n      jump\t// in\n    tag_105:\n        /* \"#utility.yul\":1089:1119   */\n      swap1\n      pop\n        /* \"#utility.yul\":1128:1161   */\n      tag_106\n        /* \"#utility.yul\":1156:1160   */\n      dup3\n        /* \"#utility.yul\":1148:1154   */\n      dup3\n        /* \"#utility.yul\":1128:1161   */\n      tag_73\n      jump\t// in\n    tag_106:\n        /* \"#utility.yul\":1038:1167   */\n      swap2\n      swap1\n      pop\n      jump\t// out\n        /* \"#utility.yul\":1173:1484   */\n    tag_75:\n        /* \"#utility.yul\":1250:1254   */\n      0x00\n        /* \"#utility.yul\":1340:1358   */\n      0xffffffffffffffff\n        /* \"#utility.yul\":1332:1338   */\n      dup3\n        /* \"#utility.yul\":1329:1359   */\n      gt\n        /* \"#utility.yul\":1326:1382   */\n      iszero\n      tag_108\n      jumpi\n        /* \"#utility.yul\":1362:1380   */\n      tag_109\n      tag_72\n      jump\t// in\n    tag_109:\n        /* \"#utility.yul\":1326:1382   */\n    tag_108:\n        /* \"#utility.yul\":1412:1416   */\n      0x20\n        /* \"#utility.yul\":1404:1410   */\n      dup3\n        /* \"#utility.yul\":1400:1417   */\n      mul\n        /* \"#utility.yul\":1392:1417   */\n      swap1\n      pop\n        /* \"#utility.yul\":1472:1476   */\n      0x20\n        /* \"#utility.yul\":1466:1470   */\n      dup2\n        /* \"#utility.yul\":1462:1477   */\n      add\n        /* \"#utility.yul\":1454:1477   */\n      swap1\n      pop\n        /* \"#utility.yul\":1173:1484   */\n      swap2\n      swap1\n      pop\n      jump\t// out\n        /* \"#utility.yul\":1490:1607   */\n    tag_76:\n        /* \"#utility.yul\":1599:1600   */\n      0x00\n        /* \"#utility.yul\":1596:1597   */\n      dup1\n        /* \"#utility.yul\":1589:1601   */\n      revert\n        /* \"#utility.yul\":1613:1690   */\n    tag_77:\n        /* \"#utility.yul\":1650:1657   */\n      0x00\n        /* \"#utility.yul\":1679:1684   */\n      dup2\n        /* \"#utility.yul\":1668:1684   */\n      swap1\n      pop\n        /* \"#utility.yul\":1613:1690   */\n      swap2\n      swap1\n      pop\n      jump\t// out\n        /* \"#utility.yul\":1696:1818   */\n    tag_78:\n        /* \"#utility.yul\":1769:1793   */\n      tag_113\n        /* \"#utility.yul\":1787:1792   */\n      dup2\n        /* \"#utility.yul\":1769:1793   */\n      tag_77\n      jump\t// in\n    tag_113:\n        /* \"#utility.yul\":1762:1767   */\n      dup2\n        /* \"#utility.yul\":1759:1794   */\n      eq\n        /* \"#utility.yul\":1749:1812   */\n      tag_114\n      jumpi\n        /* \"#utility.yul\":1808:1809   */\n      0x00\n        /* \"#utility.yul\":1805:1806   */\n      dup1\n        /* \"#utility.yul\":1798:1810   */\n      revert\n        /* \"#utility.yul\":1749:1812   */\n    tag_114:\n        /* \"#utility.yul\":1696:1818   */\n      pop\n      jump\t// out\n        /* \"#utility.yul\":1824:1963   */\n    tag_79:\n        /* \"#utility.yul\":1870:1875   */\n      0x00\n        /* \"#utility.yul\":1908:1914   */\n      dup2\n        /* \"#utility.yul\":1895:1915   */\n      calldataload\n        /* \"#utility.yul\":1886:1915   */\n      swap1\n      pop\n        /* \"#utility.yul\":1924:1957   */\n      tag_116\n        /* \"#utility.yul\":1951:1956   */\n      dup2\n        /* \"#utility.yul\":1924:1957   */\n      tag_78\n      jump\t// in\n    tag_116:\n        /* \"#utility.yul\":1824:1963   */\n      swap3\n      swap2\n      pop\n      pop\n      jump\t// out\n        /* \"#utility.yul\":1986:2696   */\n    tag_80:\n        /* \"#utility.yul\":2082:2087   */\n      0x00\n        /* \"#utility.yul\":2107:2188   */\n      tag_118\n        /* \"#utility.yul\":2123:2187   */\n      tag_119\n        /* \"#utility.yul\":2180:2186   */\n      dup5\n        /* \"#utility.yul\":2123:2187   */\n      tag_75\n      jump\t// in\n    tag_119:\n        /* \"#utility.yul\":2107:2188   */\n      tag_74\n      jump\t// in\n    tag_118:\n        /* \"#utility.yul\":2098:2188   */\n      swap1\n      pop\n        /* \"#utility.yul\":2208:2213   */\n      dup1\n        /* \"#utility.yul\":2237:2243   */\n      dup4\n        /* \"#utility.yul\":2230:2235   */\n      dup3\n        /* \"#utility.yul\":2223:2244   */\n      mstore\n        /* \"#utility.yul\":2271:2275   */\n      0x20\n        /* \"#utility.yul\":2264:2269   */\n      dup3\n        /* \"#utility.yul\":2260:2276   */\n      add\n        /* \"#utility.yul\":2253:2276   */\n      swap1\n      pop\n        /* \"#utility.yul\":2324:2328   */\n      0x20\n        /* \"#utility.yul\":2316:2322   */\n      dup5\n        /* \"#utility.yul\":2312:2329   */\n      mul\n        /* \"#utility.yul\":2304:2310   */\n      dup4\n        /* \"#utility.yul\":2300:2330   */\n      add\n        /* \"#utility.yul\":2353:2356   */\n      dup6\n        /* \"#utility.yul\":2345:2351   */\n      dup2\n        /* \"#utility.yul\":2342:2357   */\n      gt\n        /* \"#utility.yul\":2339:2461   */\n      iszero\n      tag_120\n      jumpi\n        /* \"#utility.yul\":2372:2451   */\n      tag_121\n      tag_76\n      jump\t// in\n    tag_121:\n        /* \"#utility.yul\":2339:2461   */\n    tag_120:\n        /* \"#utility.yul\":2487:2493   */\n      dup4\n        /* \"#utility.yul\":2470:2690   */\n    tag_122:\n        /* \"#utility.yul\":2504:2510   */\n      dup2\n        /* \"#utility.yul\":2499:2502   */\n      dup2\n        /* \"#utility.yul\":2496:2511   */\n      lt\n        /* \"#utility.yul\":2470:2690   */\n      iszero\n      tag_124\n      jumpi\n        /* \"#utility.yul\":2579:2582   */\n      dup1\n        /* \"#utility.yul\":2608:2645   */\n      tag_125\n        /* \"#utility.yul\":2641:2644   */\n      dup9\n        /* \"#utility.yul\":2629:2639   */\n      dup3\n        /* \"#utility.yul\":2608:2645   */\n      tag_79\n      jump\t// in\n    tag_125:\n        /* \"#utility.yul\":2603:2606   */\n      dup5\n        /* \"#utility.yul\":2596:2646   */\n      mstore\n        /* \"#utility.yul\":2675:2679   */\n      0x20\n        /* \"#utility.yul\":2670:2673   */\n      dup5\n        /* \"#utility.yul\":2666:2680   */\n      add\n        /* \"#utility.yul\":2659:2680   */\n      swap4\n      pop\n        /* \"#utility.yul\":2546:2690   */\n      pop\n        /* \"#utility.yul\":2530:2534   */\n      0x20\n        /* \"#utility.yul\":2525:2528   */\n      dup2\n        /* \"#utility.yul\":2521:2535   */\n      add\n        /* \"#utility.yul\":2514:2535   */\n      swap1\n      pop\n        /* \"#utility.yul\":2470:2690   */\n      jump(tag_122)\n    tag_124:\n        /* \"#utility.yul\":2474:2495   */\n      pop\n        /* \"#utility.yul\":2088:2696   */\n      pop\n      pop\n        /* \"#utility.yul\":1986:2696   */\n      swap4\n      swap3\n      pop\n      pop\n      pop\n      jump\t// out\n        /* \"#utility.yul\":2719:3089   */\n    tag_81:\n        /* \"#utility.yul\":2790:2795   */\n      0x00\n        /* \"#utility.yul\":2839:2842   */\n      dup3\n        /* \"#utility.yul\":2832:2836   */\n      0x1f\n        /* \"#utility.yul\":2824:2830   */\n      dup4\n        /* \"#utility.yul\":2820:2837   */\n      add\n        /* \"#utility.yul\":2816:2843   */\n      slt\n        /* \"#utility.yul\":2806:2928   */\n      tag_127\n      jumpi\n        /* \"#utility.yul\":2847:2926   */\n      tag_128\n      tag_70\n      jump\t// in\n    tag_128:\n        /* \"#utility.yul\":2806:2928   */\n    tag_127:\n        /* \"#utility.yul\":2964:2970   */\n      dup2\n        /* \"#utility.yul\":2951:2971   */\n      calldataload\n        /* \"#utility.yul\":2989:3083   */\n      tag_129\n        /* \"#utility.yul\":3079:3082   */\n      dup5\n        /* \"#utility.yul\":3071:3077   */\n      dup3\n        /* \"#utility.yul\":3064:3068   */\n      0x20\n        /* \"#utility.yul\":3056:3062   */\n      dup7\n        /* \"#utility.yul\":3052:3069   */\n      add\n        /* \"#utility.yul\":2989:3083   */\n      tag_80\n      jump\t// in\n    tag_129:\n        /* \"#utility.yul\":2980:3083   */\n      swap2\n      pop\n        /* \"#utility.yul\":2796:3089   */\n      pop\n        /* \"#utility.yul\":2719:3089   */\n      swap3\n      swap2\n      pop\n      pop\n      jump\t// out\n        /* \"#utility.yul\":3095:3634   */\n    tag_8:\n        /* \"#utility.yul\":3179:3185   */\n      0x00\n        /* \"#utility.yul\":3228:3230   */\n      0x20\n        /* \"#utility.yul\":3216:3225   */\n      dup3\n        /* \"#utility.yul\":3207:3214   */\n      dup5\n        /* \"#utility.yul\":3203:3226   */\n      sub\n        /* \"#utility.yul\":3199:3231   */\n      slt\n        /* \"#utility.yul\":3196:3315   */\n      iszero\n      tag_131\n      jumpi\n        /* \"#utility.yul\":3234:3313   */\n      tag_132\n      tag_68\n      jump\t// in\n    tag_132:\n        /* \"#utility.yul\":3196:3315   */\n    tag_131:\n        /* \"#utility.yul\":3382:3383   */\n      0x00\n        /* \"#utility.yul\":3371:3380   */\n      dup3\n        /* \"#utility.yul\":3367:3384   */\n      add\n        /* \"#utility.yul\":3354:3385   */\n      calldataload\n        /* \"#utility.yul\":3412:3430   */\n      0xffffffffffffffff\n        /* \"#utility.yul\":3404:3410   */\n      dup2\n        /* \"#utility.yul\":3401:3431   */\n      gt\n        /* \"#utility.yul\":3398:3515   */\n      iszero\n      tag_133\n      jumpi\n        /* \"#utility.yul\":3434:3513   */\n      tag_134\n      tag_69\n      jump\t// in\n    tag_134:\n        /* \"#utility.yul\":3398:3515   */\n    tag_133:\n        /* \"#utility.yul\":3539:3617   */\n      tag_135\n        /* \"#utility.yul\":3609:3616   */\n      dup5\n        /* \"#utility.yul\":3600:3606   */\n      dup3\n        /* \"#utility.yul\":3589:3598   */\n      dup6\n        /* \"#utility.yul\":3585:3607   */\n      add\n        /* \"#utility.yul\":3539:3617   */\n      tag_81\n      jump\t// in\n    tag_135:\n        /* \"#utility.yul\":3529:3617   */\n      swap2\n      pop\n        /* \"#utility.yul\":3325:3627   */\n      pop\n        /* \"#utility.yul\":3095:3634   */\n      swap3\n      swap2\n      pop\n      pop\n      jump\t// out\n        /* \"#utility.yul\":3640:3739   */\n    tag_82:\n        /* \"#utility.yul\":3692:3698   */\n      0x00\n        /* \"#utility.yul\":3726:3731   */\n      dup2\n        /* \"#utility.yul\":3720:3732   */\n      mload\n        /* \"#utility.yul\":3710:3732   */\n      swap1\n      pop\n        /* \"#utility.yul\":3640:3739   */\n      swap2\n      swap1\n      pop\n      jump\t// out\n        /* \"#utility.yul\":3745:3914   */\n    tag_83:\n        /* \"#utility.yul\":3829:3840   */\n      0x00\n        /* \"#utility.yul\":3863:3869   */\n      dup3\n        /* \"#utility.yul\":3858:3861   */\n      dup3\n        /* \"#utility.yul\":3851:3870   */\n      mstore\n        /* \"#utility.yul\":3903:3907   */\n      0x20\n        /* \"#utility.yul\":3898:3901   */\n      dup3\n        /* \"#utility.yul\":3894:3908   */\n      add\n        /* \"#utility.yul\":3879:3908   */\n      swap1\n      pop\n        /* \"#utility.yul\":3745:3914   */\n      swap3\n      swap2\n      pop\n      pop\n      jump\t// out\n        /* \"#utility.yul\":3920:4227   */\n    tag_84:\n        /* \"#utility.yul\":3988:3989   */\n      0x00\n        /* \"#utility.yul\":3998:4111   */\n    tag_139:\n        /* \"#utility.yul\":4012:4018   */\n      dup4\n        /* \"#utility.yul\":4009:4010   */\n      dup2\n        /* \"#utility.yul\":4006:4019   */\n      lt\n        /* \"#utility.yul\":3998:4111   */\n      iszero\n      tag_141\n      jumpi\n        /* \"#utility.yul\":4097:4098   */\n      dup1\n        /* \"#utility.yul\":4092:4095   */\n      dup3\n        /* \"#utility.yul\":4088:4099   */\n      add\n        /* \"#utility.yul\":4082:4100   */\n      mload\n        /* \"#utility.yul\":4078:4079   */\n      dup2\n        /* \"#utility.yul\":4073:4076   */\n      dup5\n        /* \"#utility.yul\":4069:4080   */\n      add\n        /* \"#utility.yul\":4062:4101   */\n      mstore\n        /* \"#utility.yul\":4034:4036   */\n      0x20\n        /* \"#utility.yul\":4031:4032   */\n      dup2\n        /* \"#utility.yul\":4027:4037   */\n      add\n        /* \"#utility.yul\":4022:4037   */\n      swap1\n      pop\n        /* \"#utility.yul\":3998:4111   */\n      jump(tag_139)\n    tag_141:\n        /* \"#utility.yul\":4129:4135   */\n      dup4\n        /* \"#utility.yul\":4126:4127   */\n      dup2\n        /* \"#utility.yul\":4123:4136   */\n      gt\n        /* \"#utility.yul\":4120:4221   */\n      iszero\n      tag_142\n      jumpi\n        /* \"#utility.yul\":4209:4210   */\n      0x00\n        /* \"#utility.yul\":4200:4206   */\n      dup5\n        /* \"#utility.yul\":4195:4198   */\n      dup5\n        /* \"#utility.yul\":4191:4207   */\n      add\n        /* \"#utility.yul\":4184:4211   */\n      mstore\n        /* \"#utility.yul\":4120:4221   */\n    tag_142:\n        /* \"#utility.yul\":3969:4227   */\n      pop\n        /* \"#utility.yul\":3920:4227   */\n      pop\n      pop\n      pop\n      jump\t// out\n        /* \"#utility.yul\":4233:4597   */\n    tag_85:\n        /* \"#utility.yul\":4321:4324   */\n      0x00\n        /* \"#utility.yul\":4349:4388   */\n      tag_144\n        /* \"#utility.yul\":4382:4387   */\n      dup3\n        /* \"#utility.yul\":4349:4388   */\n      tag_82\n      jump\t// in\n    tag_144:\n        /* \"#utility.yul\":4404:4475   */\n      tag_145\n        /* \"#utility.yul\":4468:4474   */\n      dup2\n        /* \"#utility.yul\":4463:4466   */\n      dup6\n        /* \"#utility.yul\":4404:4475   */\n      tag_83\n      jump\t// in\n    tag_145:\n        /* \"#utility.yul\":4397:4475   */\n      swap4\n      pop\n        /* \"#utility.yul\":4484:4536   */\n      tag_146\n        /* \"#utility.yul\":4529:4535   */\n      dup2\n        /* \"#utility.yul\":4524:4527   */\n      dup6\n        /* \"#utility.yul\":4517:4521   */\n      0x20\n        /* \"#utility.yul\":4510:4515   */\n      dup7\n        /* \"#utility.yul\":4506:4522   */\n      add\n        /* \"#utility.yul\":4484:4536   */\n      tag_84\n      jump\t// in\n    tag_146:\n        /* \"#utility.yul\":4561:4590   */\n      tag_147\n        /* \"#utility.yul\":4583:4589   */\n      dup2\n        /* \"#utility.yul\":4561:4590   */\n      tag_71\n      jump\t// in\n    tag_147:\n        /* \"#utility.yul\":4556:4559   */\n      dup5\n        /* \"#utility.yul\":4552:4591   */\n      add\n        /* \"#utility.yul\":4545:4591   */\n      swap2\n      pop\n        /* \"#utility.yul\":4325:4597   */\n      pop\n        /* \"#utility.yul\":4233:4597   */\n      swap3\n      swap2\n      pop\n      pop\n      jump\t// out\n        /* \"#utility.yul\":4603:4916   */\n    tag_11:\n        /* \"#utility.yul\":4716:4720   */\n      0x00\n        /* \"#utility.yul\":4754:4756   */\n      0x20\n        /* \"#utility.yul\":4743:4752   */\n      dup3\n        /* \"#utility.yul\":4739:4757   */\n      add\n        /* \"#utility.yul\":4731:4757   */\n      swap1\n      pop\n        /* \"#utility.yul\":4803:4812   */\n      dup2\n        /* \"#utility.yul\":4797:4801   */\n      dup2\n        /* \"#utility.yul\":4793:4813   */\n      sub\n        /* \"#utility.yul\":4789:4790   */\n      0x00\n        /* \"#utility.yul\":4778:4787   */\n      dup4\n        /* \"#utility.yul\":4774:4791   */\n      add\n        /* \"#utility.yul\":4767:4814   */\n      mstore\n        /* \"#utility.yul\":4831:4909   */\n      tag_149\n        /* \"#utility.yul\":4904:4908   */\n      dup2\n        /* \"#utility.yul\":4895:4901   */\n      dup5\n        /* \"#utility.yul\":4831:4909   */\n      tag_85\n      jump\t// in\n    tag_149:\n        /* \"#utility.yul\":4823:4909   */\n      swap1\n      pop\n        /* \"#utility.yul\":4603:4916   */\n      swap3\n      swap2\n      pop\n      pop\n      jump\t// out\n        /* \"#utility.yul\":4922:5251   */\n    tag_14:\n        /* \"#utility.yul\":4981:4987   */\n      0x00\n        /* \"#utility.yul\":5030:5032   */\n      0x20\n        /* \"#utility.yul\":5018:5027   */\n      dup3\n        /* \"#utility.yul\":5009:5016   */\n      dup5\n        /* \"#utility.yul\":5005:5028   */\n      sub\n        /* \"#utility.yul\":5001:5033   */\n      slt\n        /* \"#utility.yul\":4998:5117   */\n      iszero\n      tag_151\n      jumpi\n        /* \"#utility.yul\":5036:5115   */\n      tag_152\n      tag_68\n      jump\t// in\n    tag_152:\n        /* \"#utility.yul\":4998:5117   */\n    tag_151:\n        /* \"#utility.yul\":5156:5157   */\n      0x00\n        /* \"#utility.yul\":5181:5234   */\n      tag_153\n        /* \"#utility.yul\":5226:5233   */\n      dup5\n        /* \"#utility.yul\":5217:5223   */\n      dup3\n        /* \"#utility.yul\":5206:5215   */\n      dup6\n        /* \"#utility.yul\":5202:5224   */\n      add\n        /* \"#utility.yul\":5181:5234   */\n      tag_79\n      jump\t// in\n    tag_153:\n        /* \"#utility.yul\":5171:5234   */\n      swap2\n      pop\n        /* \"#utility.yul\":5127:5244   */\n      pop\n        /* \"#utility.yul\":4922:5251   */\n      swap3\n      swap2\n      pop\n      pop\n      jump\t// out\n        /* \"#utility.yul\":5257:5437   */\n    tag_26:\n        /* \"#utility.yul\":5305:5382   */\n      0x4e487b7100000000000000000000000000000000000000000000000000000000\n        /* \"#utility.yul\":5302:5303   */\n      0x00\n        /* \"#utility.yul\":5295:5383   */\n      mstore\n        /* \"#utility.yul\":5402:5406   */\n      0x32\n        /* \"#utility.yul\":5399:5400   */\n      0x04\n        /* \"#utility.yul\":5392:5407   */\n      mstore\n        /* \"#utility.yul\":5426:5430   */\n      0x24\n        /* \"#utility.yul\":5423:5424   */\n      0x00\n        /* \"#utility.yul\":5416:5431   */\n      revert\n        /* \"#utility.yul\":5443:5623   */\n    tag_86:\n        /* \"#utility.yul\":5491:5568   */\n      0x4e487b7100000000000000000000000000000000000000000000000000000000\n        /* \"#utility.yul\":5488:5489   */\n      0x00\n        /* \"#utility.yul\":5481:5569   */\n      mstore\n        /* \"#utility.yul\":5588:5592   */\n      0x22\n        /* \"#utility.yul\":5585:5586   */\n      0x04\n        /* \"#utility.yul\":5578:5593   */\n      mstore\n        /* \"#utility.yul\":5612:5616   */\n      0x24\n        /* \"#utility.yul\":5609:5610   */\n      0x00\n        /* \"#utility.yul\":5602:5617   */\n      revert\n        /* \"#utility.yul\":5629:5949   */\n    tag_28:\n        /* \"#utility.yul\":5673:5679   */\n      0x00\n        /* \"#utility.yul\":5710:5711   */\n      0x02\n        /* \"#utility.yul\":5704:5708   */\n      dup3\n        /* \"#utility.yul\":5700:5712   */\n      div\n        /* \"#utility.yul\":5690:5712   */\n      swap1\n      pop\n        /* \"#utility.yul\":5757:5758   */\n      0x01\n        /* \"#utility.yul\":5751:5755   */\n      dup3\n        /* \"#utility.yul\":5747:5759   */\n      and\n        /* \"#utility.yul\":5778:5796   */\n      dup1\n        /* \"#utility.yul\":5768:5849   */\n      tag_157\n      jumpi\n        /* \"#utility.yul\":5834:5838   */\n      0x7f\n        /* \"#utility.yul\":5826:5832   */\n      dup3\n        /* \"#utility.yul\":5822:5839   */\n      and\n        /* \"#utility.yul\":5812:5839   */\n      swap2\n      pop\n        /* \"#utility.yul\":5768:5849   */\n    tag_157:\n        /* \"#utility.yul\":5896:5898   */\n      0x20\n        /* \"#utility.yul\":5888:5894   */\n      dup3\n        /* \"#utility.yul\":5885:5899   */\n      lt\n        /* \"#utility.yul\":5865:5883   */\n      dup2\n        /* \"#utility.yul\":5862:5900   */\n      sub\n        /* \"#utility.yul\":5859:5943   */\n      tag_158\n      jumpi\n        /* \"#utility.yul\":5915:5933   */\n      tag_159\n      tag_86\n      jump\t// in\n    tag_159:\n        /* \"#utility.yul\":5859:5943   */\n    tag_158:\n        /* \"#utility.yul\":5680:5949   */\n      pop\n        /* \"#utility.yul\":5629:5949   */\n      swap2\n      swap1\n      pop\n      jump\t// out\n        /* \"#utility.yul\":5955:6103   */\n    tag_87:\n        /* \"#utility.yul\":6057:6068   */\n      0x00\n        /* \"#utility.yul\":6094:6097   */\n      dup2\n        /* \"#utility.yul\":6079:6097   */\n      swap1\n      pop\n        /* \"#utility.yul\":5955:6103   */\n      swap3\n      swap2\n      pop\n      pop\n      jump\t// out\n        /* \"#utility.yul\":6109:6250   */\n    tag_88:\n        /* \"#utility.yul\":6158:6162   */\n      0x00\n        /* \"#utility.yul\":6181:6184   */\n      dup2\n        /* \"#utility.yul\":6173:6184   */\n      swap1\n      pop\n        /* \"#utility.yul\":6204:6207   */\n      dup2\n        /* \"#utility.yul\":6201:6202   */\n      0x00\n        /* \"#utility.yul\":6194:6208   */\n      mstore\n        /* \"#utility.yul\":6238:6242   */\n      0x20\n        /* \"#utility.yul\":6235:6236   */\n      0x00\n        /* \"#utility.yul\":6225:6243   */\n      keccak256\n        /* \"#utility.yul\":6217:6243   */\n      swap1\n      pop\n        /* \"#utility.yul\":6109:6250   */\n      swap2\n      swap1\n      pop\n      jump\t// out\n        /* \"#utility.yul\":6280:7125   */\n    tag_89:\n        /* \"#utility.yul\":6383:6386   */\n      0x00\n        /* \"#utility.yul\":6420:6425   */\n      dup2\n        /* \"#utility.yul\":6414:6426   */\n      sload\n        /* \"#utility.yul\":6449:6485   */\n      tag_163\n        /* \"#utility.yul\":6475:6484   */\n      dup2\n        /* \"#utility.yul\":6449:6485   */\n      tag_28\n      jump\t// in\n    tag_163:\n        /* \"#utility.yul\":6501:6590   */\n      tag_164\n        /* \"#utility.yul\":6583:6589   */\n      dup2\n        /* \"#utility.yul\":6578:6581   */\n      dup7\n        /* \"#utility.yul\":6501:6590   */\n      tag_87\n      jump\t// in\n    tag_164:\n        /* \"#utility.yul\":6494:6590   */\n      swap5\n      pop\n        /* \"#utility.yul\":6621:6622   */\n      0x01\n        /* \"#utility.yul\":6610:6619   */\n      dup3\n        /* \"#utility.yul\":6606:6623   */\n      and\n        /* \"#utility.yul\":6637:6638   */\n      0x00\n        /* \"#utility.yul\":6632:6769   */\n      dup2\n      eq\n      tag_166\n      jumpi\n        /* \"#utility.yul\":6783:6784   */\n      0x01\n        /* \"#utility.yul\":6778:7119   */\n      dup2\n      eq\n      tag_167\n      jumpi\n        /* \"#utility.yul\":6599:7119   */\n      jump(tag_165)\n        /* \"#utility.yul\":6632:6769   */\n    tag_166:\n        /* \"#utility.yul\":6716:6720   */\n      0xff\n        /* \"#utility.yul\":6712:6721   */\n      not\n        /* \"#utility.yul\":6701:6710   */\n      dup4\n        /* \"#utility.yul\":6697:6722   */\n      and\n        /* \"#utility.yul\":6692:6695   */\n      dup7\n        /* \"#utility.yul\":6685:6723   */\n      mstore\n        /* \"#utility.yul\":6752:6758   */\n      dup2\n        /* \"#utility.yul\":6747:6750   */\n      dup7\n        /* \"#utility.yul\":6743:6759   */\n      add\n        /* \"#utility.yul\":6736:6759   */\n      swap4\n      pop\n        /* \"#utility.yul\":6632:6769   */\n      jump(tag_165)\n        /* \"#utility.yul\":6778:7119   */\n    tag_167:\n        /* \"#utility.yul\":6845:6883   */\n      tag_168\n        /* \"#utility.yul\":6877:6882   */\n      dup6\n        /* \"#utility.yul\":6845:6883   */\n      tag_88\n      jump\t// in\n    tag_168:\n        /* \"#utility.yul\":6905:6906   */\n      0x00\n        /* \"#utility.yul\":6919:7073   */\n    tag_169:\n        /* \"#utility.yul\":6933:6939   */\n      dup4\n        /* \"#utility.yul\":6930:6931   */\n      dup2\n        /* \"#utility.yul\":6927:6940   */\n      lt\n        /* \"#utility.yul\":6919:7073   */\n      iszero\n      tag_171\n      jumpi\n        /* \"#utility.yul\":7007:7014   */\n      dup2\n        /* \"#utility.yul\":7001:7015   */\n      sload\n        /* \"#utility.yul\":6997:6998   */\n      dup2\n        /* \"#utility.yul\":6992:6995   */\n      dup10\n        /* \"#utility.yul\":6988:6999   */\n      add\n        /* \"#utility.yul\":6981:7016   */\n      mstore\n        /* \"#utility.yul\":7057:7058   */\n      0x01\n        /* \"#utility.yul\":7048:7055   */\n      dup3\n        /* \"#utility.yul\":7044:7059   */\n      add\n        /* \"#utility.yul\":7033:7059   */\n      swap2\n      pop\n        /* \"#utility.yul\":6955:6959   */\n      0x20\n        /* \"#utility.yul\":6952:6953   */\n      dup2\n        /* \"#utility.yul\":6948:6960   */\n      add\n        /* \"#utility.yul\":6943:6960   */\n      swap1\n      pop\n        /* \"#utility.yul\":6919:7073   */\n      jump(tag_169)\n    tag_171:\n        /* \"#utility.yul\":7102:7108   */\n      dup4\n        /* \"#utility.yul\":7097:7100   */\n      dup9\n        /* \"#utility.yul\":7093:7109   */\n      add\n        /* \"#utility.yul\":7086:7109   */\n      swap6\n      pop\n        /* \"#utility.yul\":6785:7119   */\n      pop\n      pop\n        /* \"#utility.yul\":6599:7119   */\n    tag_165:\n      pop\n        /* \"#utility.yul\":6387:7125   */\n      pop\n      pop\n        /* \"#utility.yul\":6280:7125   */\n      swap3\n      swap2\n      pop\n      pop\n      jump\t// out\n        /* \"#utility.yul\":7131:7508   */\n    tag_90:\n        /* \"#utility.yul\":7237:7240   */\n      0x00\n        /* \"#utility.yul\":7265:7304   */\n      tag_173\n        /* \"#utility.yul\":7298:7303   */\n      dup3\n        /* \"#utility.yul\":7265:7304   */\n      tag_82\n      jump\t// in\n    tag_173:\n        /* \"#utility.yul\":7320:7409   */\n      tag_174\n        /* \"#utility.yul\":7402:7408   */\n      dup2\n        /* \"#utility.yul\":7397:7400   */\n      dup6\n        /* \"#utility.yul\":7320:7409   */\n      tag_87\n      jump\t// in\n    tag_174:\n        /* \"#utility.yul\":7313:7409   */\n      swap4\n      pop\n        /* \"#utility.yul\":7418:7470   */\n      tag_175\n        /* \"#utility.yul\":7463:7469   */\n      dup2\n        /* \"#utility.yul\":7458:7461   */\n      dup6\n        /* \"#utility.yul\":7451:7455   */\n      0x20\n        /* \"#utility.yul\":7444:7449   */\n      dup7\n        /* \"#utility.yul\":7440:7456   */\n      add\n        /* \"#utility.yul\":7418:7470   */\n      tag_84\n      jump\t// in\n    tag_175:\n        /* \"#utility.yul\":7495:7501   */\n      dup1\n        /* \"#utility.yul\":7490:7493   */\n      dup5\n        /* \"#utility.yul\":7486:7502   */\n      add\n        /* \"#utility.yul\":7479:7502   */\n      swap2\n      pop\n        /* \"#utility.yul\":7241:7508   */\n      pop\n        /* \"#utility.yul\":7131:7508   */\n      swap3\n      swap2\n      pop\n      pop\n      jump\t// out\n        /* \"#utility.yul\":7514:7943   */\n    tag_34:\n        /* \"#utility.yul\":7691:7694   */\n      0x00\n        /* \"#utility.yul\":7713:7805   */\n      tag_177\n        /* \"#utility.yul\":7801:7804   */\n      dup3\n        /* \"#utility.yul\":7792:7798   */\n      dup6\n        /* \"#utility.yul\":7713:7805   */\n      tag_89\n      jump\t// in\n    tag_177:\n        /* \"#utility.yul\":7706:7805   */\n      swap2\n      pop\n        /* \"#utility.yul\":7822:7917   */\n      tag_178\n        /* \"#utility.yul\":7913:7916   */\n      dup3\n        /* \"#utility.yul\":7904:7910   */\n      dup5\n        /* \"#utility.yul\":7822:7917   */\n      tag_90\n      jump\t// in\n    tag_178:\n        /* \"#utility.yul\":7815:7917   */\n      swap2\n      pop\n        /* \"#utility.yul\":7934:7937   */\n      dup2\n        /* \"#utility.yul\":7927:7937   */\n      swap1\n      pop\n        /* \"#utility.yul\":7514:7943   */\n      swap4\n      swap3\n      pop\n      pop\n      pop\n      jump\t// out\n        /* \"#utility.yul\":7973:8775   */\n    tag_91:\n        /* \"#utility.yul\":8058:8061   */\n      0x00\n        /* \"#utility.yul\":8095:8100   */\n      dup2\n        /* \"#utility.yul\":8089:8101   */\n      sload\n        /* \"#utility.yul\":8124:8160   */\n      tag_180\n        /* \"#utility.yul\":8150:8159   */\n      dup2\n        /* \"#utility.yul\":8124:8160   */\n      tag_28\n      jump\t// in\n    tag_180:\n        /* \"#utility.yul\":8176:8247   */\n      tag_181\n        /* \"#utility.yul\":8240:8246   */\n      dup2\n        /* \"#utility.yul\":8235:8238   */\n      dup7\n        /* \"#utility.yul\":8176:8247   */\n      tag_83\n      jump\t// in\n    tag_181:\n        /* \"#utility.yul\":8169:8247   */\n      swap5\n      pop\n        /* \"#utility.yul\":8278:8279   */\n      0x01\n        /* \"#utility.yul\":8267:8276   */\n      dup3\n        /* \"#utility.yul\":8263:8280   */\n      and\n        /* \"#utility.yul\":8294:8295   */\n      0x00\n        /* \"#utility.yul\":8289:8424   */\n      dup2\n      eq\n      tag_183\n      jumpi\n        /* \"#utility.yul\":8438:8439   */\n      0x01\n        /* \"#utility.yul\":8433:8769   */\n      dup2\n      eq\n      tag_184\n      jumpi\n        /* \"#utility.yul\":8256:8769   */\n      jump(tag_182)\n        /* \"#utility.yul\":8289:8424   */\n    tag_183:\n        /* \"#utility.yul\":8373:8377   */\n      0xff\n        /* \"#utility.yul\":8369:8378   */\n      not\n        /* \"#utility.yul\":8358:8367   */\n      dup4\n        /* \"#utility.yul\":8354:8379   */\n      and\n        /* \"#utility.yul\":8349:8352   */\n      dup7\n        /* \"#utility.yul\":8342:8380   */\n      mstore\n        /* \"#utility.yul\":8409:8413   */\n      0x20\n        /* \"#utility.yul\":8404:8407   */\n      dup7\n        /* \"#utility.yul\":8400:8414   */\n      add\n        /* \"#utility.yul\":8393:8414   */\n      swap4\n      pop\n        /* \"#utility.yul\":8289:8424   */\n      jump(tag_182)\n        /* \"#utility.yul\":8433:8769   */\n    tag_184:\n        /* \"#utility.yul\":8500:8538   */\n      tag_185\n        /* \"#utility.yul\":8532:8537   */\n      dup6\n        /* \"#utility.yul\":8500:8538   */\n      tag_88\n      jump\t// in\n    tag_185:\n        /* \"#utility.yul\":8560:8561   */\n      0x00\n        /* \"#utility.yul\":8574:8728   */\n    tag_186:\n        /* \"#utility.yul\":8588:8594   */\n      dup4\n        /* \"#utility.yul\":8585:8586   */\n      dup2\n        /* \"#utility.yul\":8582:8595   */\n      lt\n        /* \"#utility.yul\":8574:8728   */\n      iszero\n      tag_188\n      jumpi\n        /* \"#utility.yul\":8662:8669   */\n      dup2\n        /* \"#utility.yul\":8656:8670   */\n      sload\n        /* \"#utility.yul\":8652:8653   */\n      dup2\n        /* \"#utility.yul\":8647:8650   */\n      dup10\n        /* \"#utility.yul\":8643:8654   */\n      add\n        /* \"#utility.yul\":8636:8671   */\n      mstore\n        /* \"#utility.yul\":8712:8713   */\n      0x01\n        /* \"#utility.yul\":8703:8710   */\n      dup3\n        /* \"#utility.yul\":8699:8714   */\n      add\n        /* \"#utility.yul\":8688:8714   */\n      swap2\n      pop\n        /* \"#utility.yul\":8610:8614   */\n      0x20\n        /* \"#utility.yul\":8607:8608   */\n      dup2\n        /* \"#utility.yul\":8603:8615   */\n      add\n        /* \"#utility.yul\":8598:8615   */\n      swap1\n      pop\n        /* \"#utility.yul\":8574:8728   */\n      jump(tag_186)\n    tag_188:\n        /* \"#utility.yul\":8757:8758   */\n      dup1\n        /* \"#utility.yul\":8752:8755   */\n      dup9\n        /* \"#utility.yul\":8748:8759   */\n      add\n        /* \"#utility.yul\":8741:8759   */\n      swap6\n      pop\n        /* \"#utility.yul\":8440:8769   */\n      pop\n      pop\n        /* \"#utility.yul\":8256:8769   */\n    tag_182:\n      pop\n        /* \"#utility.yul\":8062:8775   */\n      pop\n      pop\n        /* \"#utility.yul\":7973:8775   */\n      swap3\n      swap2\n      pop\n      pop\n      jump\t// out\n        /* \"#utility.yul\":8781:9088   */\n    tag_38:\n        /* \"#utility.yul\":8891:8895   */\n      0x00\n        /* \"#utility.yul\":8929:8931   */\n      0x20\n        /* \"#utility.yul\":8918:8927   */\n      dup3\n        /* \"#utility.yul\":8914:8932   */\n      add\n        /* \"#utility.yul\":8906:8932   */\n      swap1\n      pop\n        /* \"#utility.yul\":8978:8987   */\n      dup2\n        /* \"#utility.yul\":8972:8976   */\n      dup2\n        /* \"#utility.yul\":8968:8988   */\n      sub\n        /* \"#utility.yul\":8964:8965   */\n      0x00\n        /* \"#utility.yul\":8953:8962   */\n      dup4\n        /* \"#utility.yul\":8949:8966   */\n      add\n        /* \"#utility.yul\":8942:8989   */\n      mstore\n        /* \"#utility.yul\":9006:9081   */\n      tag_190\n        /* \"#utility.yul\":9076:9080   */\n      dup2\n        /* \"#utility.yul\":9067:9073   */\n      dup5\n        /* \"#utility.yul\":9006:9081   */\n      tag_91\n      jump\t// in\n    tag_190:\n        /* \"#utility.yul\":8998:9081   */\n      swap1\n      pop\n        /* \"#utility.yul\":8781:9088   */\n      swap3\n      swap2\n      pop\n      pop\n      jump\t// out\n        /* \"#utility.yul\":9094:9274   */\n    tag_92:\n        /* \"#utility.yul\":9142:9219   */\n      0x4e487b7100000000000000000000000000000000000000000000000000000000\n        /* \"#utility.yul\":9139:9140   */\n      0x00\n        /* \"#utility.yul\":9132:9220   */\n      mstore\n        /* \"#utility.yul\":9239:9243   */\n      0x11\n        /* \"#utility.yul\":9236:9237   */\n      0x04\n        /* \"#utility.yul\":9229:9244   */\n      mstore\n        /* \"#utility.yul\":9263:9267   */\n      0x24\n        /* \"#utility.yul\":9260:9261   */\n      0x00\n        /* \"#utility.yul\":9253:9268   */\n      revert\n        /* \"#utility.yul\":9280:9513   */\n    tag_40:\n        /* \"#utility.yul\":9319:9322   */\n      0x00\n        /* \"#utility.yul\":9342:9366   */\n      tag_193\n        /* \"#utility.yul\":9360:9365   */\n      dup3\n        /* \"#utility.yul\":9342:9366   */\n      tag_77\n      jump\t// in\n    tag_193:\n        /* \"#utility.yul\":9333:9366   */\n      swap2\n      pop\n        /* \"#utility.yul\":9388:9454   */\n      0xffffffffffffffffffffffffffffffffffffffffffffffffffffffffffffffff\n        /* \"#utility.yul\":9381:9386   */\n      dup3\n        /* \"#utility.yul\":9378:9455   */\n      sub\n        /* \"#utility.yul\":9375:9478   */\n      tag_194\n      jumpi\n        /* \"#utility.yul\":9458:9476   */\n      tag_195\n      tag_92\n      jump\t// in\n    tag_195:\n        /* \"#utility.yul\":9375:9478   */\n    tag_194:\n        /* \"#utility.yul\":9505:9506   */\n      0x01\n        /* \"#utility.yul\":9498:9503   */\n      dup3\n        /* \"#utility.yul\":9494:9507   */\n      add\n        /* \"#utility.yul\":9487:9507   */\n      swap1\n      pop\n        /* \"#utility.yul\":9280:9513   */\n      swap2\n      swap1\n      pop\n      jump\t// out\n\n    auxdata: 0xa26469706673582212202afc357f8cc31c70adf2a9fe9750c8553b49af426d54cb6f6c504083bb4b83d164736f6c634300080d0033\n}\n",
				"bytecode": {
					"linkReferences": {},
					"object": "608060405260405180602001604052806000815250600090805190602001906200002b92919062000a00565b503480156200003957600080fd5b506040518060400160405280600181526020017f4100000000000000000000000000000000000000000000000000000000000000815250600160006001815260200190815260200160002090805190602001906200009992919062000a00565b506040518060400160405280600181526020017f420000000000000000000000000000000000000000000000000000000000000081525060016000600281526020019081526020016000209080519060200190620000f992919062000a00565b506040518060400160405280600181526020017f4300000000000000000000000000000000000000000000000000000000000000815250600160006003815260200190815260200160002090805190602001906200015992919062000a00565b506040518060400160405280600181526020017f440000000000000000000000000000000000000000000000000000000000000081525060016000600481526020019081526020016000209080519060200190620001b992919062000a00565b506040518060400160405280600181526020017f4500000000000000000000000000000000000000000000000000000000000000815250600160006005815260200190815260200160002090805190602001906200021992919062000a00565b506040518060400160405280600181526020017f4600000000000000000000000000000000000000000000000000000000000000815250600160006006815260200190815260200160002090805190602001906200027992919062000a00565b506040518060400160405280600181526020017f470000000000000000000000000000000000000000000000000000000000000081525060016000600781526020019081526020016000209080519060200190620002d992919062000a00565b506040518060400160405280600181526020017f4800000000000000000000000000000000000000000000000000000000000000815250600160006008815260200190815260200160002090805190602001906200033992919062000a00565b506040518060400160405280600181526020017f4900000000000000000000000000000000000000000000000000000000000000815250600160006009815260200190815260200160002090805190602001906200039992919062000a00565b506040518060400160405280600181526020017f4a0000000000000000000000000000000000000000000000000000000000000081525060016000600a81526020019081526020016000209080519060200190620003f992919062000a00565b506040518060400160405280600181526020017f4b0000000000000000000000000000000000000000000000000000000000000081525060016000600b815260200190815260200160002090805190602001906200045992919062000a00565b506040518060400160405280600181526020017f4c0000000000000000000000000000000000000000000000000000000000000081525060016000600c81526020019081526020016000209080519060200190620004b992919062000a00565b506040518060400160405280600181526020017f4d0000000000000000000000000000000000000000000000000000000000000081525060016000600d815260200190815260200160002090805190602001906200051992919062000a00565b506040518060400160405280600181526020017f4e0000000000000000000000000000000000000000000000000000000000000081525060016000600e815260200190815260200160002090805190602001906200057992919062000a00565b506040518060400160405280600181526020017f4f0000000000000000000000000000000000000000000000000000000000000081525060016000600f81526020019081526020016000209080519060200190620005d992919062000a00565b506040518060400160405280600181526020017f5000000000000000000000000000000000000000000000000000000000000000815250600160006010815260200190815260200160002090805190602001906200063992919062000a00565b506040518060400160405280600181526020017f5100000000000000000000000000000000000000000000000000000000000000815250600160006011815260200190815260200160002090805190602001906200069992919062000a00565b506040518060400160405280600181526020017f520000000000000000000000000000000000000000000000000000000000000081525060016000601281526020019081526020016000209080519060200190620006f992919062000a00565b506040518060400160405280600181526020017f5300000000000000000000000000000000000000000000000000000000000000815250600160006013815260200190815260200160002090805190602001906200075992919062000a00565b506040518060400160405280600181526020017f540000000000000000000000000000000000000000000000000000000000000081525060016000601481526020019081526020016000209080519060200190620007b992919062000a00565b506040518060400160405280600181526020017f5500000000000000000000000000000000000000000000000000000000000000815250600160006015815260200190815260200160002090805190602001906200081992919062000a00565b506040518060400160405280600181526020017f5600000000000000000000000000000000000000000000000000000000000000815250600160006016815260200190815260200160002090805190602001906200087992919062000a00565b506040518060400160405280600181526020017f570000000000000000000000000000000000000000000000000000000000000081525060016000601781526020019081526020016000209080519060200190620008d992919062000a00565b506040518060400160405280600181526020017f5800000000000000000000000000000000000000000000000000000000000000815250600160006018815260200190815260200160002090805190602001906200093992919062000a00565b506040518060400160405280600181526020017f5900000000000000000000000000000000000000000000000000000000000000815250600160006019815260200190815260200160002090805190602001906200099992919062000a00565b506040518060400160405280600181526020017f5a0000000000000000000000000000000000000000000000000000000000000081525060016000601a81526020019081526020016000209080519060200190620009f992919062000a00565b5062000b14565b82805462000a0e9062000adf565b90600052602060002090601f01602090048101928262000a32576000855562000a7e565b82601f1062000a4d57805160ff191683800117855562000a7e565b8280016001018555821562000a7e579182015b8281111562000a7d57825182559160200191906001019062000a60565b5b50905062000a8d919062000a91565b5090565b5b8082111562000aac57600081600090555060010162000a92565b5090565b7f4e487b7100000000000000000000000000000000000000000000000000000000600052602260045260246000fd5b6000600282049050600182168062000af857607f821691505b60208210810362000b0e5762000b0d62000ab0565b5b50919050565b610a0e8062000b246000396000f3fe608060405234801561001057600080fd5b50600436106100415760003560e01c80632b9170a414610046578063b1f525c614610076578063ed40a8c8146100a6575b600080fd5b610060600480360381019061005b919061061c565b6100c4565b60405161006d91906106ed565b60405180910390f35b610090600480360381019061008b919061070f565b6102a4565b60405161009d91906106ed565b60405180910390f35b6100ae610344565b6040516100bb91906106ed565b60405180910390f35b606060005b8251811015610211576000600160008584815181106100eb576100ea61073c565b5b60200260200101518152602001908152602001600020805461010c9061079a565b80601f01602080910402602001604051908101604052809291908181526020018280546101389061079a565b80156101855780601f1061015a57610100808354040283529160200191610185565b820191906000526020600020905b81548152906001019060200180831161016857829003601f168201915b505050505090506000816040516020016101a092919061089b565b604051602081830303815290604052600090805190602001906101c49291906103d6565b507f30e738a7f2cacd30ea7d0cfb014d15ebdd5f14c8ec463cead0dda007c2e76f8c60006040516101f5919061093f565b60405180910390a150808061020990610990565b9150506100c9565b506000805461021f9061079a565b80601f016020809104026020016040519081016040528092919081815260200182805461024b9061079a565b80156102985780601f1061026d57610100808354040283529160200191610298565b820191906000526020600020905b81548152906001019060200180831161027b57829003601f168201915b50505050509050919050565b600160205280600052604060002060009150905080546102c39061079a565b80601f01602080910402602001604051908101604052809291908181526020018280546102ef9061079a565b801561033c5780601f106103115761010080835404028352916020019161033c565b820191906000526020600020905b81548152906001019060200180831161031f57829003601f168201915b505050505081565b6060600080546103539061079a565b80601f016020809104026020016040519081016040528092919081815260200182805461037f9061079a565b80156103cc5780601f106103a1576101008083540402835291602001916103cc565b820191906000526020600020905b8154815290600101906020018083116103af57829003601f168201915b5050505050905090565b8280546103e29061079a565b90600052602060002090601f016020900481019282610404576000855561044b565b82601f1061041d57805160ff191683800117855561044b565b8280016001018555821561044b579182015b8281111561044a57825182559160200191906001019061042f565b5b509050610458919061045c565b5090565b5b8082111561047557600081600090555060010161045d565b5090565b6000604051905090565b600080fd5b600080fd5b600080fd5b6000601f19601f8301169050919050565b7f4e487b7100000000000000000000000000000000000000000000000000000000600052604160045260246000fd5b6104db82610492565b810181811067ffffffffffffffff821117156104fa576104f96104a3565b5b80604052505050565b600061050d610479565b905061051982826104d2565b919050565b600067ffffffffffffffff821115610539576105386104a3565b5b602082029050602081019050919050565b600080fd5b6000819050919050565b6105628161054f565b811461056d57600080fd5b50565b60008135905061057f81610559565b92915050565b60006105986105938461051e565b610503565b905080838252602082019050602084028301858111156105bb576105ba61054a565b5b835b818110156105e457806105d08882610570565b8452602084019350506020810190506105bd565b5050509392505050565b600082601f8301126106035761060261048d565b5b8135610613848260208601610585565b91505092915050565b60006020828403121561063257610631610483565b5b600082013567ffffffffffffffff8111156106505761064f610488565b5b61065c848285016105ee565b91505092915050565b600081519050919050565b600082825260208201905092915050565b60005b8381101561069f578082015181840152602081019050610684565b838111156106ae576000848401525b50505050565b60006106bf82610665565b6106c98185610670565b93506106d9818560208601610681565b6106e281610492565b840191505092915050565b6000602082019050818103600083015261070781846106b4565b905092915050565b60006020828403121561072557610724610483565b5b600061073384828501610570565b91505092915050565b7f4e487b7100000000000000000000000000000000000000000000000000000000600052603260045260246000fd5b7f4e487b7100000000000000000000000000000000000000000000000000000000600052602260045260246000fd5b600060028204905060018216806107b257607f821691505b6020821081036107c5576107c461076b565b5b50919050565b600081905092915050565b60008190508160005260206000209050919050565b600081546107f88161079a565b61080281866107cb565b9450600182166000811461081d576001811461082e57610861565b60ff19831686528186019350610861565b610837856107d6565b60005b838110156108595781548189015260018201915060208101905061083a565b838801955050505b50505092915050565b600061087582610665565b61087f81856107cb565b935061088f818560208601610681565b80840191505092915050565b60006108a782856107eb565b91506108b3828461086a565b91508190509392505050565b600081546108cc8161079a565b6108d68186610670565b945060018216600081146108f1576001811461090357610936565b60ff1983168652602086019350610936565b61090c856107d6565b60005b8381101561092e5781548189015260018201915060208101905061090f565b808801955050505b50505092915050565b6000602082019050818103600083015261095981846108bf565b905092915050565b7f4e487b7100000000000000000000000000000000000000000000000000000000600052601160045260246000fd5b600061099b8261054f565b91507fffffffffffffffffffffffffffffffffffffffffffffffffffffffffffffffff82036109cd576109cc610961565b5b60018201905091905056fea26469706673582212202afc357f8cc31c70adf2a9fe9750c8553b49af426d54cb6f6c504083bb4b83d164736f6c634300080d0033",
					"opcodes": "PUSH1 0x80 PUSH1 0x40 MSTORE PUSH1 0x40 MLOAD DUP1 PUSH1 0x20 ADD PUSH1 0x40 MSTORE DUP1 PUSH1 0x0 DUP2 MSTORE POP PUSH1 0x0 SWAP1 DUP1 MLOAD SWAP1 PUSH1 0x20 ADD SWAP1 PUSH3 0x2B SWAP3 SWAP2 SWAP1 PUSH3 0xA00 JUMP JUMPDEST POP CALLVALUE DUP1 ISZERO PUSH3 0x39 JUMPI PUSH1 0x0 DUP1 REVERT JUMPDEST POP PUSH1 0x40 MLOAD DUP1 PUSH1 0x40 ADD PUSH1 0x40 MSTORE DUP1 PUSH1 0x1 DUP2 MSTORE PUSH1 0x20 ADD PUSH32 0x4100000000000000000000000000000000000000000000000000000000000000 DUP2 MSTORE POP PUSH1 0x1 PUSH1 0x0 PUSH1 0x1 DUP2 MSTORE PUSH1 0x20 ADD SWAP1 DUP2 MSTORE PUSH1 0x20 ADD PUSH1 0x0 KECCAK256 SWAP1 DUP1 MLOAD SWAP1 PUSH1 0x20 ADD SWAP1 PUSH3 0x99 SWAP3 SWAP2 SWAP1 PUSH3 0xA00 JUMP JUMPDEST POP PUSH1 0x40 MLOAD DUP1 PUSH1 0x40 ADD PUSH1 0x40 MSTORE DUP1 PUSH1 0x1 DUP2 MSTORE PUSH1 0x20 ADD PUSH32 0x4200000000000000000000000000000000000000000000000000000000000000 DUP2 MSTORE POP PUSH1 0x1 PUSH1 0x0 PUSH1 0x2 DUP2 MSTORE PUSH1 0x20 ADD SWAP1 DUP2 MSTORE PUSH1 0x20 ADD PUSH1 0x0 KECCAK256 SWAP1 DUP1 MLOAD SWAP1 PUSH1 0x20 ADD SWAP1 PUSH3 0xF9 SWAP3 SWAP2 SWAP1 PUSH3 0xA00 JUMP JUMPDEST POP PUSH1 0x40 MLOAD DUP1 PUSH1 0x40 ADD PUSH1 0x40 MSTORE DUP1 PUSH1 0x1 DUP2 MSTORE PUSH1 0x20 ADD PUSH32 0x4300000000000000000000000000000000000000000000000000000000000000 DUP2 MSTORE POP PUSH1 0x1 PUSH1 0x0 PUSH1 0x3 DUP2 MSTORE PUSH1 0x20 ADD SWAP1 DUP2 MSTORE PUSH1 0x20 ADD PUSH1 0x0 KECCAK256 SWAP1 DUP1 MLOAD SWAP1 PUSH1 0x20 ADD SWAP1 PUSH3 0x159 SWAP3 SWAP2 SWAP1 PUSH3 0xA00 JUMP JUMPDEST POP PUSH1 0x40 MLOAD DUP1 PUSH1 0x40 ADD PUSH1 0x40 MSTORE DUP1 PUSH1 0x1 DUP2 MSTORE PUSH1 0x20 ADD PUSH32 0x4400000000000000000000000000000000000000000000000000000000000000 DUP2 MSTORE POP PUSH1 0x1 PUSH1 0x0 PUSH1 0x4 DUP2 MSTORE PUSH1 0x20 ADD SWAP1 DUP2 MSTORE PUSH1 0x20 ADD PUSH1 0x0 KECCAK256 SWAP1 DUP1 MLOAD SWAP1 PUSH1 0x20 ADD SWAP1 PUSH3 0x1B9 SWAP3 SWAP2 SWAP1 PUSH3 0xA00 JUMP JUMPDEST POP PUSH1 0x40 MLOAD DUP1 PUSH1 0x40 ADD PUSH1 0x40 MSTORE DUP1 PUSH1 0x1 DUP2 MSTORE PUSH1 0x20 ADD PUSH32 0x4500000000000000000000000000000000000000000000000000000000000000 DUP2 MSTORE POP PUSH1 0x1 PUSH1 0x0 PUSH1 0x5 DUP2 MSTORE PUSH1 0x20 ADD SWAP1 DUP2 MSTORE PUSH1 0x20 ADD PUSH1 0x0 KECCAK256 SWAP1 DUP1 MLOAD SWAP1 PUSH1 0x20 ADD SWAP1 PUSH3 0x219 SWAP3 SWAP2 SWAP1 PUSH3 0xA00 JUMP JUMPDEST POP PUSH1 0x40 MLOAD DUP1 PUSH1 0x40 ADD PUSH1 0x40 MSTORE DUP1 PUSH1 0x1 DUP2 MSTORE PUSH1 0x20 ADD PUSH32 0x4600000000000000000000000000000000000000000000000000000000000000 DUP2 MSTORE POP PUSH1 0x1 PUSH1 0x0 PUSH1 0x6 DUP2 MSTORE PUSH1 0x20 ADD SWAP1 DUP2 MSTORE PUSH1 0x20 ADD PUSH1 0x0 KECCAK256 SWAP1 DUP1 MLOAD SWAP1 PUSH1 0x20 ADD SWAP1 PUSH3 0x279 SWAP3 SWAP2 SWAP1 PUSH3 0xA00 JUMP JUMPDEST POP PUSH1 0x40 MLOAD DUP1 PUSH1 0x40 ADD PUSH1 0x40 MSTORE DUP1 PUSH1 0x1 DUP2 MSTORE PUSH1 0x20 ADD PUSH32 0x4700000000000000000000000000000000000000000000000000000000000000 DUP2 MSTORE POP PUSH1 0x1 PUSH1 0x0 PUSH1 0x7 DUP2 MSTORE PUSH1 0x20 ADD SWAP1 DUP2 MSTORE PUSH1 0x20 ADD PUSH1 0x0 KECCAK256 SWAP1 DUP1 MLOAD SWAP1 PUSH1 0x20 ADD SWAP1 PUSH3 0x2D9 SWAP3 SWAP2 SWAP1 PUSH3 0xA00 JUMP JUMPDEST POP PUSH1 0x40 MLOAD DUP1 PUSH1 0x40 ADD PUSH1 0x40 MSTORE DUP1 PUSH1 0x1 DUP2 MSTORE PUSH1 0x20 ADD PUSH32 0x4800000000000000000000000000000000000000000000000000000000000000 DUP2 MSTORE POP PUSH1 0x1 PUSH1 0x0 PUSH1 0x8 DUP2 MSTORE PUSH1 0x20 ADD SWAP1 DUP2 MSTORE PUSH1 0x20 ADD PUSH1 0x0 KECCAK256 SWAP1 DUP1 MLOAD SWAP1 PUSH1 0x20 ADD SWAP1 PUSH3 0x339 SWAP3 SWAP2 SWAP1 PUSH3 0xA00 JUMP JUMPDEST POP PUSH1 0x40 MLOAD DUP1 PUSH1 0x40 ADD PUSH1 0x40 MSTORE DUP1 PUSH1 0x1 DUP2 MSTORE PUSH1 0x20 ADD PUSH32 0x4900000000000000000000000000000000000000000000000000000000000000 DUP2 MSTORE POP PUSH1 0x1 PUSH1 0x0 PUSH1 0x9 DUP2 MSTORE PUSH1 0x20 ADD SWAP1 DUP2 MSTORE PUSH1 0x20 ADD PUSH1 0x0 KECCAK256 SWAP1 DUP1 MLOAD SWAP1 PUSH1 0x20 ADD SWAP1 PUSH3 0x399 SWAP3 SWAP2 SWAP1 PUSH3 0xA00 JUMP JUMPDEST POP PUSH1 0x40 MLOAD DUP1 PUSH1 0x40 ADD PUSH1 0x40 MSTORE DUP1 PUSH1 0x1 DUP2 MSTORE PUSH1 0x20 ADD PUSH32 0x4A00000000000000000000000000000000000000000000000000000000000000 DUP2 MSTORE POP PUSH1 0x1 PUSH1 0x0 PUSH1 0xA DUP2 MSTORE PUSH1 0x20 ADD SWAP1 DUP2 MSTORE PUSH1 0x20 ADD PUSH1 0x0 KECCAK256 SWAP1 DUP1 MLOAD SWAP1 PUSH1 0x20 ADD SWAP1 PUSH3 0x3F9 SWAP3 SWAP2 SWAP1 PUSH3 0xA00 JUMP JUMPDEST POP PUSH1 0x40 MLOAD DUP1 PUSH1 0x40 ADD PUSH1 0x40 MSTORE DUP1 PUSH1 0x1 DUP2 MSTORE PUSH1 0x20 ADD PUSH32 0x4B00000000000000000000000000000000000000000000000000000000000000 DUP2 MSTORE POP PUSH1 0x1 PUSH1 0x0 PUSH1 0xB DUP2 MSTORE PUSH1 0x20 ADD SWAP1 DUP2 MSTORE PUSH1 0x20 ADD PUSH1 0x0 KECCAK256 SWAP1 DUP1 MLOAD SWAP1 PUSH1 0x20 ADD SWAP1 PUSH3 0x459 SWAP3 SWAP2 SWAP1 PUSH3 0xA00 JUMP JUMPDEST POP PUSH1 0x40 MLOAD DUP1 PUSH1 0x40 ADD PUSH1 0x40 MSTORE DUP1 PUSH1 0x1 DUP2 MSTORE PUSH1 0x20 ADD PUSH32 0x4C00000000000000000000000000000000000000000000000000000000000000 DUP2 MSTORE POP PUSH1 0x1 PUSH1 0x0 PUSH1 0xC DUP2 MSTORE PUSH1 0x20 ADD SWAP1 DUP2 MSTORE PUSH1 0x20 ADD PUSH1 0x0 KECCAK256 SWAP1 DUP1 MLOAD SWAP1 PUSH1 0x20 ADD SWAP1 PUSH3 0x4B9 SWAP3 SWAP2 SWAP1 PUSH3 0xA00 JUMP JUMPDEST POP PUSH1 0x40 MLOAD DUP1 PUSH1 0x40 ADD PUSH1 0x40 MSTORE DUP1 PUSH1 0x1 DUP2 MSTORE PUSH1 0x20 ADD PUSH32 0x4D00000000000000000000000000000000000000000000000000000000000000 DUP2 MSTORE POP PUSH1 0x1 PUSH1 0x0 PUSH1 0xD DUP2 MSTORE PUSH1 0x20 ADD SWAP1 DUP2 MSTORE PUSH1 0x20 ADD PUSH1 0x0 KECCAK256 SWAP1 DUP1 MLOAD SWAP1 PUSH1 0x20 ADD SWAP1 PUSH3 0x519 SWAP3 SWAP2 SWAP1 PUSH3 0xA00 JUMP JUMPDEST POP PUSH1 0x40 MLOAD DUP1 PUSH1 0x40 ADD PUSH1 0x40 MSTORE DUP1 PUSH1 0x1 DUP2 MSTORE PUSH1 0x20 ADD PUSH32 0x4E00000000000000000000000000000000000000000000000000000000000000 DUP2 MSTORE POP PUSH1 0x1 PUSH1 0x0 PUSH1 0xE DUP2 MSTORE PUSH1 0x20 ADD SWAP1 DUP2 MSTORE PUSH1 0x20 ADD PUSH1 0x0 KECCAK256 SWAP1 DUP1 MLOAD SWAP1 PUSH1 0x20 ADD SWAP1 PUSH3 0x579 SWAP3 SWAP2 SWAP1 PUSH3 0xA00 JUMP JUMPDEST POP PUSH1 0x40 MLOAD DUP1 PUSH1 0x40 ADD PUSH1 0x40 MSTORE DUP1 PUSH1 0x1 DUP2 MSTORE PUSH1 0x20 ADD PUSH32 0x4F00000000000000000000000000000000000000000000000000000000000000 DUP2 MSTORE POP PUSH1 0x1 PUSH1 0x0 PUSH1 0xF DUP2 MSTORE PUSH1 0x20 ADD SWAP1 DUP2 MSTORE PUSH1 0x20 ADD PUSH1 0x0 KECCAK256 SWAP1 DUP1 MLOAD SWAP1 PUSH1 0x20 ADD SWAP1 PUSH3 0x5D9 SWAP3 SWAP2 SWAP1 PUSH3 0xA00 JUMP JUMPDEST POP PUSH1 0x40 MLOAD DUP1 PUSH1 0x40 ADD PUSH1 0x40 MSTORE DUP1 PUSH1 0x1 DUP2 MSTORE PUSH1 0x20 ADD PUSH32 0x5000000000000000000000000000000000000000000000000000000000000000 DUP2 MSTORE POP PUSH1 0x1 PUSH1 0x0 PUSH1 0x10 DUP2 MSTORE PUSH1 0x20 ADD SWAP1 DUP2 MSTORE PUSH1 0x20 ADD PUSH1 0x0 KECCAK256 SWAP1 DUP1 MLOAD SWAP1 PUSH1 0x20 ADD SWAP1 PUSH3 0x639 SWAP3 SWAP2 SWAP1 PUSH3 0xA00 JUMP JUMPDEST POP PUSH1 0x40 MLOAD DUP1 PUSH1 0x40 ADD PUSH1 0x40 MSTORE DUP1 PUSH1 0x1 DUP2 MSTORE PUSH1 0x20 ADD PUSH32 0x5100000000000000000000000000000000000000000000000000000000000000 DUP2 MSTORE POP PUSH1 0x1 PUSH1 0x0 PUSH1 0x11 DUP2 MSTORE PUSH1 0x20 ADD SWAP1 DUP2 MSTORE PUSH1 0x20 ADD PUSH1 0x0 KECCAK256 SWAP1 DUP1 MLOAD SWAP1 PUSH1 0x20 ADD SWAP1 PUSH3 0x699 SWAP3 SWAP2 SWAP1 PUSH3 0xA00 JUMP JUMPDEST POP PUSH1 0x40 MLOAD DUP1 PUSH1 0x40 ADD PUSH1 0x40 MSTORE DUP1 PUSH1 0x1 DUP2 MSTORE PUSH1 0x20 ADD PUSH32 0x5200000000000000000000000000000000000000000000000000000000000000 DUP2 MSTORE POP PUSH1 0x1 PUSH1 0x0 PUSH1 0x12 DUP2 MSTORE PUSH1 0x20 ADD SWAP1 DUP2 MSTORE PUSH1 0x20 ADD PUSH1 0x0 KECCAK256 SWAP1 DUP1 MLOAD SWAP1 PUSH1 0x20 ADD SWAP1 PUSH3 0x6F9 SWAP3 SWAP2 SWAP1 PUSH3 0xA00 JUMP JUMPDEST POP PUSH1 0x40 MLOAD DUP1 PUSH1 0x40 ADD PUSH1 0x40 MSTORE DUP1 PUSH1 0x1 DUP2 MSTORE PUSH1 0x20 ADD PUSH32 0x5300000000000000000000000000000000000000000000000000000000000000 DUP2 MSTORE POP PUSH1 0x1 PUSH1 0x0 PUSH1 0x13 DUP2 MSTORE PUSH1 0x20 ADD SWAP1 DUP2 MSTORE PUSH1 0x20 ADD PUSH1 0x0 KECCAK256 SWAP1 DUP1 MLOAD SWAP1 PUSH1 0x20 ADD SWAP1 PUSH3 0x759 SWAP3 SWAP2 SWAP1 PUSH3 0xA00 JUMP JUMPDEST POP PUSH1 0x40 MLOAD DUP1 PUSH1 0x40 ADD PUSH1 0x40 MSTORE DUP1 PUSH1 0x1 DUP2 MSTORE PUSH1 0x20 ADD PUSH32 0x5400000000000000000000000000000000000000000000000000000000000000 DUP2 MSTORE POP PUSH1 0x1 PUSH1 0x0 PUSH1 0x14 DUP2 MSTORE PUSH1 0x20 ADD SWAP1 DUP2 MSTORE PUSH1 0x20 ADD PUSH1 0x0 KECCAK256 SWAP1 DUP1 MLOAD SWAP1 PUSH1 0x20 ADD SWAP1 PUSH3 0x7B9 SWAP3 SWAP2 SWAP1 PUSH3 0xA00 JUMP JUMPDEST POP PUSH1 0x40 MLOAD DUP1 PUSH1 0x40 ADD PUSH1 0x40 MSTORE DUP1 PUSH1 0x1 DUP2 MSTORE PUSH1 0x20 ADD PUSH32 0x5500000000000000000000000000000000000000000000000000000000000000 DUP2 MSTORE POP PUSH1 0x1 PUSH1 0x0 PUSH1 0x15 DUP2 MSTORE PUSH1 0x20 ADD SWAP1 DUP2 MSTORE PUSH1 0x20 ADD PUSH1 0x0 KECCAK256 SWAP1 DUP1 MLOAD SWAP1 PUSH1 0x20 ADD SWAP1 PUSH3 0x819 SWAP3 SWAP2 SWAP1 PUSH3 0xA00 JUMP JUMPDEST POP PUSH1 0x40 MLOAD DUP1 PUSH1 0x40 ADD PUSH1 0x40 MSTORE DUP1 PUSH1 0x1 DUP2 MSTORE PUSH1 0x20 ADD PUSH32 0x5600000000000000000000000000000000000000000000000000000000000000 DUP2 MSTORE POP PUSH1 0x1 PUSH1 0x0 PUSH1 0x16 DUP2 MSTORE PUSH1 0x20 ADD SWAP1 DUP2 MSTORE PUSH1 0x20 ADD PUSH1 0x0 KECCAK256 SWAP1 DUP1 MLOAD SWAP1 PUSH1 0x20 ADD SWAP1 PUSH3 0x879 SWAP3 SWAP2 SWAP1 PUSH3 0xA00 JUMP JUMPDEST POP PUSH1 0x40 MLOAD DUP1 PUSH1 0x40 ADD PUSH1 0x40 MSTORE DUP1 PUSH1 0x1 DUP2 MSTORE PUSH1 0x20 ADD PUSH32 0x5700000000000000000000000000000000000000000000000000000000000000 DUP2 MSTORE POP PUSH1 0x1 PUSH1 0x0 PUSH1 0x17 DUP2 MSTORE PUSH1 0x20 ADD SWAP1 DUP2 MSTORE PUSH1 0x20 ADD PUSH1 0x0 KECCAK256 SWAP1 DUP1 MLOAD SWAP1 PUSH1 0x20 ADD SWAP1 PUSH3 0x8D9 SWAP3 SWAP2 SWAP1 PUSH3 0xA00 JUMP JUMPDEST POP PUSH1 0x40 MLOAD DUP1 PUSH1 0x40 ADD PUSH1 0x40 MSTORE DUP1 PUSH1 0x1 DUP2 MSTORE PUSH1 0x20 ADD PUSH32 0x5800000000000000000000000000000000000000000000000000000000000000 DUP2 MSTORE POP PUSH1 0x1 PUSH1 0x0 PUSH1 0x18 DUP2 MSTORE PUSH1 0x20 ADD SWAP1 DUP2 MSTORE PUSH1 0x20 ADD PUSH1 0x0 KECCAK256 SWAP1 DUP1 MLOAD SWAP1 PUSH1 0x20 ADD SWAP1 PUSH3 0x939 SWAP3 SWAP2 SWAP1 PUSH3 0xA00 JUMP JUMPDEST POP PUSH1 0x40 MLOAD DUP1 PUSH1 0x40 ADD PUSH1 0x40 MSTORE DUP1 PUSH1 0x1 DUP2 MSTORE PUSH1 0x20 ADD PUSH32 0x5900000000000000000000000000000000000000000000000000000000000000 DUP2 MSTORE POP PUSH1 0x1 PUSH1 0x0 PUSH1 0x19 DUP2 MSTORE PUSH1 0x20 ADD SWAP1 DUP2 MSTORE PUSH1 0x20 ADD PUSH1 0x0 KECCAK256 SWAP1 DUP1 MLOAD SWAP1 PUSH1 0x20 ADD SWAP1 PUSH3 0x999 SWAP3 SWAP2 SWAP1 PUSH3 0xA00 JUMP JUMPDEST POP PUSH1 0x40 MLOAD DUP1 PUSH1 0x40 ADD PUSH1 0x40 MSTORE DUP1 PUSH1 0x1 DUP2 MSTORE PUSH1 0x20 ADD PUSH32 0x5A00000000000000000000000000000000000000000000000000000000000000 DUP2 MSTORE POP PUSH1 0x1 PUSH1 0x0 PUSH1 0x1A DUP2 MSTORE PUSH1 0x20 ADD SWAP1 DUP2 MSTORE PUSH1 0x20 ADD PUSH1 0x0 KECCAK256 SWAP1 DUP1 MLOAD SWAP1 PUSH1 0x20 ADD SWAP1 PUSH3 0x9F9 SWAP3 SWAP2 SWAP1 PUSH3 0xA00 JUMP JUMPDEST POP PUSH3 0xB14 JUMP JUMPDEST DUP3 DUP1 SLOAD PUSH3 0xA0E SWAP1 PUSH3 0xADF JUMP JUMPDEST SWAP1 PUSH1 0x0 MSTORE PUSH1 0x20 PUSH1 0x0 KECCAK256 SWAP1 PUSH1 0x1F ADD PUSH1 0x20 SWAP1 DIV DUP2 ADD SWAP3 DUP3 PUSH3 0xA32 JUMPI PUSH1 0x0 DUP6 SSTORE PUSH3 0xA7E JUMP JUMPDEST DUP3 PUSH1 0x1F LT PUSH3 0xA4D JUMPI DUP1 MLOAD PUSH1 0xFF NOT AND DUP4 DUP1 ADD OR DUP6 SSTORE PUSH3 0xA7E JUMP JUMPDEST DUP3 DUP1 ADD PUSH1 0x1 ADD DUP6 SSTORE DUP3 ISZERO PUSH3 0xA7E JUMPI SWAP2 DUP3 ADD JUMPDEST DUP3 DUP2 GT ISZERO PUSH3 0xA7D JUMPI DUP3 MLOAD DUP3 SSTORE SWAP2 PUSH1 0x20 ADD SWAP2 SWAP1 PUSH1 0x1 ADD SWAP1 PUSH3 0xA60 JUMP JUMPDEST JUMPDEST POP SWAP1 POP PUSH3 0xA8D SWAP2 SWAP1 PUSH3 0xA91 JUMP JUMPDEST POP SWAP1 JUMP JUMPDEST JUMPDEST DUP1 DUP3 GT ISZERO PUSH3 0xAAC JUMPI PUSH1 0x0 DUP2 PUSH1 0x0 SWAP1 SSTORE POP PUSH1 0x1 ADD PUSH3 0xA92 JUMP JUMPDEST POP SWAP1 JUMP JUMPDEST PUSH32 0x4E487B7100000000000000000000000000000000000000000000000000000000 PUSH1 0x0 MSTORE PUSH1 0x22 PUSH1 0x4 MSTORE PUSH1 0x24 PUSH1 0x0 REVERT JUMPDEST PUSH1 0x0 PUSH1 0x2 DUP3 DIV SWAP1 POP PUSH1 0x1 DUP3 AND DUP1 PUSH3 0xAF8 JUMPI PUSH1 0x7F DUP3 AND SWAP2 POP JUMPDEST PUSH1 0x20 DUP3 LT DUP2 SUB PUSH3 0xB0E JUMPI PUSH3 0xB0D PUSH3 0xAB0 JUMP JUMPDEST JUMPDEST POP SWAP2 SWAP1 POP JUMP JUMPDEST PUSH2 0xA0E DUP1 PUSH3 0xB24 PUSH1 0x0 CODECOPY PUSH1 0x0 RETURN INVALID PUSH1 0x80 PUSH1 0x40 MSTORE CALLVALUE DUP1 ISZERO PUSH2 0x10 JUMPI PUSH1 0x0 DUP1 REVERT JUMPDEST POP PUSH1 0x4 CALLDATASIZE LT PUSH2 0x41 JUMPI PUSH1 0x0 CALLDATALOAD PUSH1 0xE0 SHR DUP1 PUSH4 0x2B9170A4 EQ PUSH2 0x46 JUMPI DUP1 PUSH4 0xB1F525C6 EQ PUSH2 0x76 JUMPI DUP1 PUSH4 0xED40A8C8 EQ PUSH2 0xA6 JUMPI JUMPDEST PUSH1 0x0 DUP1 REVERT JUMPDEST PUSH2 0x60 PUSH1 0x4 DUP1 CALLDATASIZE SUB DUP2 ADD SWAP1 PUSH2 0x5B SWAP2 SWAP1 PUSH2 0x61C JUMP JUMPDEST PUSH2 0xC4 JUMP JUMPDEST PUSH1 0x40 MLOAD PUSH2 0x6D SWAP2 SWAP1 PUSH2 0x6ED JUMP JUMPDEST PUSH1 0x40 MLOAD DUP1 SWAP2 SUB SWAP1 RETURN JUMPDEST PUSH2 0x90 PUSH1 0x4 DUP1 CALLDATASIZE SUB DUP2 ADD SWAP1 PUSH2 0x8B SWAP2 SWAP1 PUSH2 0x70F JUMP JUMPDEST PUSH2 0x2A4 JUMP JUMPDEST PUSH1 0x40 MLOAD PUSH2 0x9D SWAP2 SWAP1 PUSH2 0x6ED JUMP JUMPDEST PUSH1 0x40 MLOAD DUP1 SWAP2 SUB SWAP1 RETURN JUMPDEST PUSH2 0xAE PUSH2 0x344 JUMP JUMPDEST PUSH1 0x40 MLOAD PUSH2 0xBB SWAP2 SWAP1 PUSH2 0x6ED JUMP JUMPDEST PUSH1 0x40 MLOAD DUP1 SWAP2 SUB SWAP1 RETURN JUMPDEST PUSH1 0x60 PUSH1 0x0 JUMPDEST DUP3 MLOAD DUP2 LT ISZERO PUSH2 0x211 JUMPI PUSH1 0x0 PUSH1 0x1 PUSH1 0x0 DUP6 DUP5 DUP2 MLOAD DUP2 LT PUSH2 0xEB JUMPI PUSH2 0xEA PUSH2 0x73C JUMP JUMPDEST JUMPDEST PUSH1 0x20 MUL PUSH1 0x20 ADD ADD MLOAD DUP2 MSTORE PUSH1 0x20 ADD SWAP1 DUP2 MSTORE PUSH1 0x20 ADD PUSH1 0x0 KECCAK256 DUP1 SLOAD PUSH2 0x10C SWAP1 PUSH2 0x79A JUMP JUMPDEST DUP1 PUSH1 0x1F ADD PUSH1 0x20 DUP1 SWAP2 DIV MUL PUSH1 0x20 ADD PUSH1 0x40 MLOAD SWAP1 DUP2 ADD PUSH1 0x40 MSTORE DUP1 SWAP3 SWAP2 SWAP1 DUP2 DUP2 MSTORE PUSH1 0x20 ADD DUP3 DUP1 SLOAD PUSH2 0x138 SWAP1 PUSH2 0x79A JUMP JUMPDEST DUP1 ISZERO PUSH2 0x185 JUMPI DUP1 PUSH1 0x1F LT PUSH2 0x15A JUMPI PUSH2 0x100 DUP1 DUP4 SLOAD DIV MUL DUP4 MSTORE SWAP2 PUSH1 0x20 ADD SWAP2 PUSH2 0x185 JUMP JUMPDEST DUP3 ADD SWAP2 SWAP1 PUSH1 0x0 MSTORE PUSH1 0x20 PUSH1 0x0 KECCAK256 SWAP1 JUMPDEST DUP2 SLOAD DUP2 MSTORE SWAP1 PUSH1 0x1 ADD SWAP1 PUSH1 0x20 ADD DUP1 DUP4 GT PUSH2 0x168 JUMPI DUP3 SWAP1 SUB PUSH1 0x1F AND DUP3 ADD SWAP2 JUMPDEST POP POP POP POP POP SWAP1 POP PUSH1 0x0 DUP2 PUSH1 0x40 MLOAD PUSH1 0x20 ADD PUSH2 0x1A0 SWAP3 SWAP2 SWAP1 PUSH2 0x89B JUMP JUMPDEST PUSH1 0x40 MLOAD PUSH1 0x20 DUP2 DUP4 SUB SUB DUP2 MSTORE SWAP1 PUSH1 0x40 MSTORE PUSH1 0x0 SWAP1 DUP1 MLOAD SWAP1 PUSH1 0x20 ADD SWAP1 PUSH2 0x1C4 SWAP3 SWAP2 SWAP1 PUSH2 0x3D6 JUMP JUMPDEST POP PUSH32 0x30E738A7F2CACD30EA7D0CFB014D15EBDD5F14C8EC463CEAD0DDA007C2E76F8C PUSH1 0x0 PUSH1 0x40 MLOAD PUSH2 0x1F5 SWAP2 SWAP1 PUSH2 0x93F JUMP JUMPDEST PUSH1 0x40 MLOAD DUP1 SWAP2 SUB SWAP1 LOG1 POP DUP1 DUP1 PUSH2 0x209 SWAP1 PUSH2 0x990 JUMP JUMPDEST SWAP2 POP POP PUSH2 0xC9 JUMP JUMPDEST POP PUSH1 0x0 DUP1 SLOAD PUSH2 0x21F SWAP1 PUSH2 0x79A JUMP JUMPDEST DUP1 PUSH1 0x1F ADD PUSH1 0x20 DUP1 SWAP2 DIV MUL PUSH1 0x20 ADD PUSH1 0x40 MLOAD SWAP1 DUP2 ADD PUSH1 0x40 MSTORE DUP1 SWAP3 SWAP2 SWAP1 DUP2 DUP2 MSTORE PUSH1 0x20 ADD DUP3 DUP1 SLOAD PUSH2 0x24B SWAP1 PUSH2 0x79A JUMP JUMPDEST DUP1 ISZERO PUSH2 0x298 JUMPI DUP1 PUSH1 0x1F LT PUSH2 0x26D JUMPI PUSH2 0x100 DUP1 DUP4 SLOAD DIV MUL DUP4 MSTORE SWAP2 PUSH1 0x20 ADD SWAP2 PUSH2 0x298 JUMP JUMPDEST DUP3 ADD SWAP2 SWAP1 PUSH1 0x0 MSTORE PUSH1 0x20 PUSH1 0x0 KECCAK256 SWAP1 JUMPDEST DUP2 SLOAD DUP2 MSTORE SWAP1 PUSH1 0x1 ADD SWAP1 PUSH1 0x20 ADD DUP1 DUP4 GT PUSH2 0x27B JUMPI DUP3 SWAP1 SUB PUSH1 0x1F AND DUP3 ADD SWAP2 JUMPDEST POP POP POP POP POP SWAP1 POP SWAP2 SWAP1 POP JUMP JUMPDEST PUSH1 0x1 PUSH1 0x20 MSTORE DUP1 PUSH1 0x0 MSTORE PUSH1 0x40 PUSH1 0x0 KECCAK256 PUSH1 0x0 SWAP2 POP SWAP1 POP DUP1 SLOAD PUSH2 0x2C3 SWAP1 PUSH2 0x79A JUMP JUMPDEST DUP1 PUSH1 0x1F ADD PUSH1 0x20 DUP1 SWAP2 DIV MUL PUSH1 0x20 ADD PUSH1 0x40 MLOAD SWAP1 DUP2 ADD PUSH1 0x40 MSTORE DUP1 SWAP3 SWAP2 SWAP1 DUP2 DUP2 MSTORE PUSH1 0x20 ADD DUP3 DUP1 SLOAD PUSH2 0x2EF SWAP1 PUSH2 0x79A JUMP JUMPDEST DUP1 ISZERO PUSH2 0x33C JUMPI DUP1 PUSH1 0x1F LT PUSH2 0x311 JUMPI PUSH2 0x100 DUP1 DUP4 SLOAD DIV MUL DUP4 MSTORE SWAP2 PUSH1 0x20 ADD SWAP2 PUSH2 0x33C JUMP JUMPDEST DUP3 ADD SWAP2 SWAP1 PUSH1 0x0 MSTORE PUSH1 0x20 PUSH1 0x0 KECCAK256 SWAP1 JUMPDEST DUP2 SLOAD DUP2 MSTORE SWAP1 PUSH1 0x1 ADD SWAP1 PUSH1 0x20 ADD DUP1 DUP4 GT PUSH2 0x31F JUMPI DUP3 SWAP1 SUB PUSH1 0x1F AND DUP3 ADD SWAP2 JUMPDEST POP POP POP POP POP DUP2 JUMP JUMPDEST PUSH1 0x60 PUSH1 0x0 DUP1 SLOAD PUSH2 0x353 SWAP1 PUSH2 0x79A JUMP JUMPDEST DUP1 PUSH1 0x1F ADD PUSH1 0x20 DUP1 SWAP2 DIV MUL PUSH1 0x20 ADD PUSH1 0x40 MLOAD SWAP1 DUP2 ADD PUSH1 0x40 MSTORE DUP1 SWAP3 SWAP2 SWAP1 DUP2 DUP2 MSTORE PUSH1 0x20 ADD DUP3 DUP1 SLOAD PUSH2 0x37F SWAP1 PUSH2 0x79A JUMP JUMPDEST DUP1 ISZERO PUSH2 0x3CC JUMPI DUP1 PUSH1 0x1F LT PUSH2 0x3A1 JUMPI PUSH2 0x100 DUP1 DUP4 SLOAD DIV MUL DUP4 MSTORE SWAP2 PUSH1 0x20 ADD SWAP2 PUSH2 0x3CC JUMP JUMPDEST DUP3 ADD SWAP2 SWAP1 PUSH1 0x0 MSTORE PUSH1 0x20 PUSH1 0x0 KECCAK256 SWAP1 JUMPDEST DUP2 SLOAD DUP2 MSTORE SWAP1 PUSH1 0x1 ADD SWAP1 PUSH1 0x20 ADD DUP1 DUP4 GT PUSH2 0x3AF JUMPI DUP3 SWAP1 SUB PUSH1 0x1F AND DUP3 ADD SWAP2 JUMPDEST POP POP POP POP POP SWAP1 POP SWAP1 JUMP JUMPDEST DUP3 DUP1 SLOAD PUSH2 0x3E2 SWAP1 PUSH2 0x79A JUMP JUMPDEST SWAP1 PUSH1 0x0 MSTORE PUSH1 0x20 PUSH1 0x0 KECCAK256 SWAP1 PUSH1 0x1F ADD PUSH1 0x20 SWAP1 DIV DUP2 ADD SWAP3 DUP3 PUSH2 0x404 JUMPI PUSH1 0x0 DUP6 SSTORE PUSH2 0x44B JUMP JUMPDEST DUP3 PUSH1 0x1F LT PUSH2 0x41D JUMPI DUP1 MLOAD PUSH1 0xFF NOT AND DUP4 DUP1 ADD OR DUP6 SSTORE PUSH2 0x44B JUMP JUMPDEST DUP3 DUP1 ADD PUSH1 0x1 ADD DUP6 SSTORE DUP3 ISZERO PUSH2 0x44B JUMPI SWAP2 DUP3 ADD JUMPDEST DUP3 DUP2 GT ISZERO PUSH2 0x44A JUMPI DUP3 MLOAD DUP3 SSTORE SWAP2 PUSH1 0x20 ADD SWAP2 SWAP1 PUSH1 0x1 ADD SWAP1 PUSH2 0x42F JUMP JUMPDEST JUMPDEST POP SWAP1 POP PUSH2 0x458 SWAP2 SWAP1 PUSH2 0x45C JUMP JUMPDEST POP SWAP1 JUMP JUMPDEST JUMPDEST DUP1 DUP3 GT ISZERO PUSH2 0x475 JUMPI PUSH1 0x0 DUP2 PUSH1 0x0 SWAP1 SSTORE POP PUSH1 0x1 ADD PUSH2 0x45D JUMP JUMPDEST POP SWAP1 JUMP JUMPDEST PUSH1 0x0 PUSH1 0x40 MLOAD SWAP1 POP SWAP1 JUMP JUMPDEST PUSH1 0x0 DUP1 REVERT JUMPDEST PUSH1 0x0 DUP1 REVERT JUMPDEST PUSH1 0x0 DUP1 REVERT JUMPDEST PUSH1 0x0 PUSH1 0x1F NOT PUSH1 0x1F DUP4 ADD AND SWAP1 POP SWAP2 SWAP1 POP JUMP JUMPDEST PUSH32 0x4E487B7100000000000000000000000000000000000000000000000000000000 PUSH1 0x0 MSTORE PUSH1 0x41 PUSH1 0x4 MSTORE PUSH1 0x24 PUSH1 0x0 REVERT JUMPDEST PUSH2 0x4DB DUP3 PUSH2 0x492 JUMP JUMPDEST DUP2 ADD DUP2 DUP2 LT PUSH8 0xFFFFFFFFFFFFFFFF DUP3 GT OR ISZERO PUSH2 0x4FA JUMPI PUSH2 0x4F9 PUSH2 0x4A3 JUMP JUMPDEST JUMPDEST DUP1 PUSH1 0x40 MSTORE POP POP POP JUMP JUMPDEST PUSH1 0x0 PUSH2 0x50D PUSH2 0x479 JUMP JUMPDEST SWAP1 POP PUSH2 0x519 DUP3 DUP3 PUSH2 0x4D2 JUMP JUMPDEST SWAP2 SWAP1 POP JUMP JUMPDEST PUSH1 0x0 PUSH8 0xFFFFFFFFFFFFFFFF DUP3 GT ISZERO PUSH2 0x539 JUMPI PUSH2 0x538 PUSH2 0x4A3 JUMP JUMPDEST JUMPDEST PUSH1 0x20 DUP3 MUL SWAP1 POP PUSH1 0x20 DUP2 ADD SWAP1 POP SWAP2 SWAP1 POP JUMP JUMPDEST PUSH1 0x0 DUP1 REVERT JUMPDEST PUSH1 0x0 DUP2 SWAP1 POP SWAP2 SWAP1 POP JUMP JUMPDEST PUSH2 0x562 DUP2 PUSH2 0x54F JUMP JUMPDEST DUP2 EQ PUSH2 0x56D JUMPI PUSH1 0x0 DUP1 REVERT JUMPDEST POP JUMP JUMPDEST PUSH1 0x0 DUP2 CALLDATALOAD SWAP1 POP PUSH2 0x57F DUP2 PUSH2 0x559 JUMP JUMPDEST SWAP3 SWAP2 POP POP JUMP JUMPDEST PUSH1 0x0 PUSH2 0x598 PUSH2 0x593 DUP5 PUSH2 0x51E JUMP JUMPDEST PUSH2 0x503 JUMP JUMPDEST SWAP1 POP DUP1 DUP4 DUP3 MSTORE PUSH1 0x20 DUP3 ADD SWAP1 POP PUSH1 0x20 DUP5 MUL DUP4 ADD DUP6 DUP2 GT ISZERO PUSH2 0x5BB JUMPI PUSH2 0x5BA PUSH2 0x54A JUMP JUMPDEST JUMPDEST DUP4 JUMPDEST DUP2 DUP2 LT ISZERO PUSH2 0x5E4 JUMPI DUP1 PUSH2 0x5D0 DUP9 DUP3 PUSH2 0x570 JUMP JUMPDEST DUP5 MSTORE PUSH1 0x20 DUP5 ADD SWAP4 POP POP PUSH1 0x20 DUP2 ADD SWAP1 POP PUSH2 0x5BD JUMP JUMPDEST POP POP POP SWAP4 SWAP3 POP POP POP JUMP JUMPDEST PUSH1 0x0 DUP3 PUSH1 0x1F DUP4 ADD SLT PUSH2 0x603 JUMPI PUSH2 0x602 PUSH2 0x48D JUMP JUMPDEST JUMPDEST DUP2 CALLDATALOAD PUSH2 0x613 DUP5 DUP3 PUSH1 0x20 DUP7 ADD PUSH2 0x585 JUMP JUMPDEST SWAP2 POP POP SWAP3 SWAP2 POP POP JUMP JUMPDEST PUSH1 0x0 PUSH1 0x20 DUP3 DUP5 SUB SLT ISZERO PUSH2 0x632 JUMPI PUSH2 0x631 PUSH2 0x483 JUMP JUMPDEST JUMPDEST PUSH1 0x0 DUP3 ADD CALLDATALOAD PUSH8 0xFFFFFFFFFFFFFFFF DUP2 GT ISZERO PUSH2 0x650 JUMPI PUSH2 0x64F PUSH2 0x488 JUMP JUMPDEST JUMPDEST PUSH2 0x65C DUP5 DUP3 DUP6 ADD PUSH2 0x5EE JUMP JUMPDEST SWAP2 POP POP SWAP3 SWAP2 POP POP JUMP JUMPDEST PUSH1 0x0 DUP2 MLOAD SWAP1 POP SWAP2 SWAP1 POP JUMP JUMPDEST PUSH1 0x0 DUP3 DUP3 MSTORE PUSH1 0x20 DUP3 ADD SWAP1 POP SWAP3 SWAP2 POP POP JUMP JUMPDEST PUSH1 0x0 JUMPDEST DUP4 DUP2 LT ISZERO PUSH2 0x69F JUMPI DUP1 DUP3 ADD MLOAD DUP2 DUP5 ADD MSTORE PUSH1 0x20 DUP2 ADD SWAP1 POP PUSH2 0x684 JUMP JUMPDEST DUP4 DUP2 GT ISZERO PUSH2 0x6AE JUMPI PUSH1 0x0 DUP5 DUP5 ADD MSTORE JUMPDEST POP POP POP POP JUMP JUMPDEST PUSH1 0x0 PUSH2 0x6BF DUP3 PUSH2 0x665 JUMP JUMPDEST PUSH2 0x6C9 DUP2 DUP6 PUSH2 0x670 JUMP JUMPDEST SWAP4 POP PUSH2 0x6D9 DUP2 DUP6 PUSH1 0x20 DUP7 ADD PUSH2 0x681 JUMP JUMPDEST PUSH2 0x6E2 DUP2 PUSH2 0x492 JUMP JUMPDEST DUP5 ADD SWAP2 POP POP SWAP3 SWAP2 POP POP JUMP JUMPDEST PUSH1 0x0 PUSH1 0x20 DUP3 ADD SWAP1 POP DUP2 DUP2 SUB PUSH1 0x0 DUP4 ADD MSTORE PUSH2 0x707 DUP2 DUP5 PUSH2 0x6B4 JUMP JUMPDEST SWAP1 POP SWAP3 SWAP2 POP POP JUMP JUMPDEST PUSH1 0x0 PUSH1 0x20 DUP3 DUP5 SUB SLT ISZERO PUSH2 0x725 JUMPI PUSH2 0x724 PUSH2 0x483 JUMP JUMPDEST JUMPDEST PUSH1 0x0 PUSH2 0x733 DUP5 DUP3 DUP6 ADD PUSH2 0x570 JUMP JUMPDEST SWAP2 POP POP SWAP3 SWAP2 POP POP JUMP JUMPDEST PUSH32 0x4E487B7100000000000000000000000000000000000000000000000000000000 PUSH1 0x0 MSTORE PUSH1 0x32 PUSH1 0x4 MSTORE PUSH1 0x24 PUSH1 0x0 REVERT JUMPDEST PUSH32 0x4E487B7100000000000000000000000000000000000000000000000000000000 PUSH1 0x0 MSTORE PUSH1 0x22 PUSH1 0x4 MSTORE PUSH1 0x24 PUSH1 0x0 REVERT JUMPDEST PUSH1 0x0 PUSH1 0x2 DUP3 DIV SWAP1 POP PUSH1 0x1 DUP3 AND DUP1 PUSH2 0x7B2 JUMPI PUSH1 0x7F DUP3 AND SWAP2 POP JUMPDEST PUSH1 0x20 DUP3 LT DUP2 SUB PUSH2 0x7C5 JUMPI PUSH2 0x7C4 PUSH2 0x76B JUMP JUMPDEST JUMPDEST POP SWAP2 SWAP1 POP JUMP JUMPDEST PUSH1 0x0 DUP2 SWAP1 POP SWAP3 SWAP2 POP POP JUMP JUMPDEST PUSH1 0x0 DUP2 SWAP1 POP DUP2 PUSH1 0x0 MSTORE PUSH1 0x20 PUSH1 0x0 KECCAK256 SWAP1 POP SWAP2 SWAP1 POP JUMP JUMPDEST PUSH1 0x0 DUP2 SLOAD PUSH2 0x7F8 DUP2 PUSH2 0x79A JUMP JUMPDEST PUSH2 0x802 DUP2 DUP7 PUSH2 0x7CB JUMP JUMPDEST SWAP5 POP PUSH1 0x1 DUP3 AND PUSH1 0x0 DUP2 EQ PUSH2 0x81D JUMPI PUSH1 0x1 DUP2 EQ PUSH2 0x82E JUMPI PUSH2 0x861 JUMP JUMPDEST PUSH1 0xFF NOT DUP4 AND DUP7 MSTORE DUP2 DUP7 ADD SWAP4 POP PUSH2 0x861 JUMP JUMPDEST PUSH2 0x837 DUP6 PUSH2 0x7D6 JUMP JUMPDEST PUSH1 0x0 JUMPDEST DUP4 DUP2 LT ISZERO PUSH2 0x859 JUMPI DUP2 SLOAD DUP2 DUP10 ADD MSTORE PUSH1 0x1 DUP3 ADD SWAP2 POP PUSH1 0x20 DUP2 ADD SWAP1 POP PUSH2 0x83A JUMP JUMPDEST DUP4 DUP9 ADD SWAP6 POP POP POP JUMPDEST POP POP POP SWAP3 SWAP2 POP POP JUMP JUMPDEST PUSH1 0x0 PUSH2 0x875 DUP3 PUSH2 0x665 JUMP JUMPDEST PUSH2 0x87F DUP2 DUP6 PUSH2 0x7CB JUMP JUMPDEST SWAP4 POP PUSH2 0x88F DUP2 DUP6 PUSH1 0x20 DUP7 ADD PUSH2 0x681 JUMP JUMPDEST DUP1 DUP5 ADD SWAP2 POP POP SWAP3 SWAP2 POP POP JUMP JUMPDEST PUSH1 0x0 PUSH2 0x8A7 DUP3 DUP6 PUSH2 0x7EB JUMP JUMPDEST SWAP2 POP PUSH2 0x8B3 DUP3 DUP5 PUSH2 0x86A JUMP JUMPDEST SWAP2 POP DUP2 SWAP1 POP SWAP4 SWAP3 POP POP POP JUMP JUMPDEST PUSH1 0x0 DUP2 SLOAD PUSH2 0x8CC DUP2 PUSH2 0x79A JUMP JUMPDEST PUSH2 0x8D6 DUP2 DUP7 PUSH2 0x670 JUMP JUMPDEST SWAP5 POP PUSH1 0x1 DUP3 AND PUSH1 0x0 DUP2 EQ PUSH2 0x8F1 JUMPI PUSH1 0x1 DUP2 EQ PUSH2 0x903 JUMPI PUSH2 0x936 JUMP JUMPDEST PUSH1 0xFF NOT DUP4 AND DUP7 MSTORE PUSH1 0x20 DUP7 ADD SWAP4 POP PUSH2 0x936 JUMP JUMPDEST PUSH2 0x90C DUP6 PUSH2 0x7D6 JUMP JUMPDEST PUSH1 0x0 JUMPDEST DUP4 DUP2 LT ISZERO PUSH2 0x92E JUMPI DUP2 SLOAD DUP2 DUP10 ADD MSTORE PUSH1 0x1 DUP3 ADD SWAP2 POP PUSH1 0x20 DUP2 ADD SWAP1 POP PUSH2 0x90F JUMP JUMPDEST DUP1 DUP9 ADD SWAP6 POP POP POP JUMPDEST POP POP POP SWAP3 SWAP2 POP POP JUMP JUMPDEST PUSH1 0x0 PUSH1 0x20 DUP3 ADD SWAP1 POP DUP2 DUP2 SUB PUSH1 0x0 DUP4 ADD MSTORE PUSH2 0x959 DUP2 DUP5 PUSH2 0x8BF JUMP JUMPDEST SWAP1 POP SWAP3 SWAP2 POP POP JUMP JUMPDEST PUSH32 0x4E487B7100000000000000000000000000000000000000000000000000000000 PUSH1 0x0 MSTORE PUSH1 0x11 PUSH1 0x4 MSTORE PUSH1 0x24 PUSH1 0x0 REVERT JUMPDEST PUSH1 0x0 PUSH2 0x99B DUP3 PUSH2 0x54F JUMP JUMPDEST SWAP2 POP PUSH32 0xFFFFFFFFFFFFFFFFFFFFFFFFFFFFFFFFFFFFFFFFFFFFFFFFFFFFFFFFFFFFFFFF DUP3 SUB PUSH2 0x9CD JUMPI PUSH2 0x9CC PUSH2 0x961 JUMP JUMPDEST JUMPDEST PUSH1 0x1 DUP3 ADD SWAP1 POP SWAP2 SWAP1 POP JUMP INVALID LOG2 PUSH5 0x6970667358 0x22 SLT KECCAK256 0x2A 0xFC CALLDATALOAD PUSH32 0x8CC31C70ADF2A9FE9750C8553B49AF426D54CB6F6C504083BB4B83D164736F6C PUSH4 0x4300080D STOP CALLER "
				},
				"gasEstimates": {
					"creation": {
						"codeDepositCost": "514800",
						"executionCost": "infinite",
						"totalCost": "infinite"
					},
					"external": {
						"counter(uint256)": "infinite",
						"getWord()": "infinite",
						"numberToString(uint256[])": "infinite"
					}
				},
				"methodIdentifiers": {
					"counter(uint256)": "b1f525c6",
					"getWord()": "ed40a8c8",
					"numberToString(uint256[])": "2b9170a4"
				}
			},
			"storageLayout": {
				"storage": [
					{
						"astId": 4,
						"contract": "bootcamp/week3/day_5_homework_part_2_number_array_string_output.sol:NumberToString",
						"label": "word",
						"offset": 0,
						"slot": "0",
						"type": "t_string_storage"
					},
					{
						"astId": 168,
						"contract": "bootcamp/week3/day_5_homework_part_2_number_array_string_output.sol:NumberToString",
						"label": "counter",
						"offset": 0,
						"slot": "1",
						"type": "t_mapping(t_uint256,t_string_storage)"
					}
				],
				"types": {
					"t_mapping(t_uint256,t_string_storage)": {
						"encoding": "mapping",
						"key": "t_uint256",
						"label": "mapping(uint256 => string)",
						"numberOfBytes": "32",
						"value": "t_string_storage"
					},
					"t_string_storage": {
						"encoding": "bytes",
						"label": "string",
						"numberOfBytes": "32"
					},
					"t_uint256": {
						"encoding": "inplace",
						"label": "uint256",
						"numberOfBytes": "32"
					}
				}
			},
			"userdoc": {
				"kind": "user",
				"methods": {},
				"version": 1
			}
		}
	}
}