{
	"bootcamp/week3/day_4_multiSigWallet.sol": {
		"multiSigLesson": {
			"abi": [
				{
					"inputs": [],
					"stateMutability": "nonpayable",
					"type": "constructor"
				},
				{
					"inputs": [
						{
							"internalType": "uint256",
							"name": "",
							"type": "uint256"
						},
						{
							"internalType": "address",
							"name": "",
							"type": "address"
						}
					],
					"name": "alreadyVoted",
					"outputs": [
						{
							"internalType": "bool",
							"name": "",
							"type": "bool"
						}
					],
					"stateMutability": "view",
					"type": "function"
				},
				{
					"inputs": [
						{
							"internalType": "address",
							"name": "",
							"type": "address"
						},
						{
							"internalType": "address",
							"name": "",
							"type": "address"
						}
					],
					"name": "alreadyVotedNewAddress",
					"outputs": [
						{
							"internalType": "bool",
							"name": "",
							"type": "bool"
						}
					],
					"stateMutability": "view",
					"type": "function"
				},
				{
					"inputs": [],
					"name": "approvalsNeeded",
					"outputs": [
						{
							"internalType": "uint256",
							"name": "",
							"type": "uint256"
						}
					],
					"stateMutability": "view",
					"type": "function"
				},
				{
					"inputs": [
						{
							"internalType": "uint256",
							"name": "index",
							"type": "uint256"
						}
					],
					"name": "executeTransaction",
					"outputs": [],
					"stateMutability": "nonpayable",
					"type": "function"
				},
				{
					"inputs": [
						{
							"internalType": "uint256",
							"name": "numberOfVotes",
							"type": "uint256"
						}
					],
					"name": "numberOfVotesRequire",
					"outputs": [],
					"stateMutability": "nonpayable",
					"type": "function"
				},
				{
					"inputs": [
						{
							"internalType": "address",
							"name": "",
							"type": "address"
						}
					],
					"name": "ownerList",
					"outputs": [
						{
							"internalType": "bool",
							"name": "",
							"type": "bool"
						}
					],
					"stateMutability": "view",
					"type": "function"
				},
				{
					"inputs": [],
					"name": "ownerListLength",
					"outputs": [
						{
							"internalType": "uint256",
							"name": "",
							"type": "uint256"
						}
					],
					"stateMutability": "view",
					"type": "function"
				},
				{
					"inputs": [
						{
							"internalType": "uint256",
							"name": "",
							"type": "uint256"
						}
					],
					"name": "owners",
					"outputs": [
						{
							"internalType": "address",
							"name": "",
							"type": "address"
						}
					],
					"stateMutability": "view",
					"type": "function"
				},
				{
					"inputs": [
						{
							"internalType": "address",
							"name": "to",
							"type": "address"
						},
						{
							"internalType": "uint256",
							"name": "amount",
							"type": "uint256"
						}
					],
					"name": "proposeTransaction",
					"outputs": [],
					"stateMutability": "nonpayable",
					"type": "function"
				},
				{
					"inputs": [
						{
							"internalType": "uint256",
							"name": "index",
							"type": "uint256"
						}
					],
					"name": "revokeOnTransaction",
					"outputs": [],
					"stateMutability": "nonpayable",
					"type": "function"
				},
				{
					"inputs": [
						{
							"internalType": "uint256",
							"name": "",
							"type": "uint256"
						}
					],
					"name": "transactions",
					"outputs": [
						{
							"internalType": "address",
							"name": "sendingTo",
							"type": "address"
						},
						{
							"internalType": "uint256",
							"name": "value",
							"type": "uint256"
						},
						{
							"internalType": "bool",
							"name": "alreadyExecuted",
							"type": "bool"
						},
						{
							"internalType": "uint256",
							"name": "approvals",
							"type": "uint256"
						}
					],
					"stateMutability": "view",
					"type": "function"
				},
				{
					"inputs": [
						{
							"internalType": "uint256",
							"name": "index",
							"type": "uint256"
						}
					],
					"name": "voteOnTransaction",
					"outputs": [],
					"stateMutability": "nonpayable",
					"type": "function"
				},
				{
					"inputs": [
						{
							"internalType": "address",
							"name": "",
							"type": "address"
						}
					],
					"name": "votesToNewAddress",
					"outputs": [
						{
							"internalType": "uint256",
							"name": "",
							"type": "uint256"
						}
					],
					"stateMutability": "view",
					"type": "function"
				},
				{
					"inputs": [
						{
							"internalType": "address",
							"name": "_address",
							"type": "address"
						}
					],
					"name": "votingOnNewAddress",
					"outputs": [],
					"stateMutability": "nonpayable",
					"type": "function"
				},
				{
					"stateMutability": "payable",
					"type": "receive"
				}
			],
			"devdoc": {
				"kind": "dev",
				"methods": {},
				"version": 1
			},
			"evm": {
				"assembly": "    /* \"bootcamp/week3/day_4_multiSigWallet.sol\":57:4706  contract multiSigLesson {... */\n  mstore(0x40, 0x80)\n    /* \"bootcamp/week3/day_4_multiSigWallet.sol\":219:220  2 */\n  0x02\n    /* \"bootcamp/week3/day_4_multiSigWallet.sol\":189:220  uint public approvalsNeeded = 2 */\n  0x01\n  sstore\n    /* \"bootcamp/week3/day_4_multiSigWallet.sol\":763:991  constructor() {... */\n  callvalue\n  dup1\n  iszero\n  tag_1\n  jumpi\n  0x00\n  dup1\n  revert\ntag_1:\n  pop\n    /* \"bootcamp/week3/day_4_multiSigWallet.sol\":787:793  owners */\n  0x00\n    /* \"bootcamp/week3/day_4_multiSigWallet.sol\":799:809  msg.sender */\n  caller\n    /* \"bootcamp/week3/day_4_multiSigWallet.sol\":787:810  owners.push(msg.sender) */\n  swap1\n  dup1\n  0x01\n  dup2\n  sload\n  add\n  dup1\n  dup3\n  sstore\n  dup1\n  swap2\n  pop\n  pop\n  0x01\n  swap1\n  sub\n  swap1\n  0x00\n  mstore\n  keccak256(0x00, 0x20)\n  add\n  0x00\n  swap1\n  swap2\n  swap1\n  swap2\n  swap1\n  swap2\n  0x0100\n  exp\n  dup2\n  sload\n  dup2\n  0xffffffffffffffffffffffffffffffffffffffff\n  mul\n  not\n  and\n  swap1\n  dup4\n  0xffffffffffffffffffffffffffffffffffffffff\n  and\n  mul\n  or\n  swap1\n  sstore\n  pop\n    /* \"bootcamp/week3/day_4_multiSigWallet.sol\":844:848  true */\n  0x01\n    /* \"bootcamp/week3/day_4_multiSigWallet.sol\":820:829  ownerList */\n  0x02\n    /* \"bootcamp/week3/day_4_multiSigWallet.sol\":820:841  ownerList[msg.sender] */\n  0x00\n    /* \"bootcamp/week3/day_4_multiSigWallet.sol\":830:840  msg.sender */\n  caller\n    /* \"bootcamp/week3/day_4_multiSigWallet.sol\":820:841  ownerList[msg.sender] */\n  0xffffffffffffffffffffffffffffffffffffffff\n  and\n  0xffffffffffffffffffffffffffffffffffffffff\n  and\n  dup2\n  mstore\n  0x20\n  add\n  swap1\n  dup2\n  mstore\n  0x20\n  add\n  0x00\n  keccak256\n  0x00\n    /* \"bootcamp/week3/day_4_multiSigWallet.sol\":820:848  ownerList[msg.sender] = true */\n  0x0100\n  exp\n  dup2\n  sload\n  dup2\n  0xff\n  mul\n  not\n  and\n  swap1\n  dup4\n  iszero\n  iszero\n  mul\n  or\n  swap1\n  sstore\n  pop\n    /* \"bootcamp/week3/day_4_multiSigWallet.sol\":859:865  owners */\n  0x00\n    /* \"bootcamp/week3/day_4_multiSigWallet.sol\":871:913  0xAb8483F64d9C6d1EcF9b849Ae677dD3315835cb2 */\n  0xab8483f64d9c6d1ecf9b849ae677dd3315835cb2\n    /* \"bootcamp/week3/day_4_multiSigWallet.sol\":859:914  owners.push(0xAb8483F64d9C6d1EcF9b849Ae677dD3315835cb2) */\n  swap1\n  dup1\n  0x01\n  dup2\n  sload\n  add\n  dup1\n  dup3\n  sstore\n  dup1\n  swap2\n  pop\n  pop\n  0x01\n  swap1\n  sub\n  swap1\n  0x00\n  mstore\n  keccak256(0x00, 0x20)\n  add\n  0x00\n  swap1\n  swap2\n  swap1\n  swap2\n  swap1\n  swap2\n  0x0100\n  exp\n  dup2\n  sload\n  dup2\n  0xffffffffffffffffffffffffffffffffffffffff\n  mul\n  not\n  and\n  swap1\n  dup4\n  0xffffffffffffffffffffffffffffffffffffffff\n  and\n  mul\n  or\n  swap1\n  sstore\n  pop\n    /* \"bootcamp/week3/day_4_multiSigWallet.sol\":980:984  true */\n  0x01\n    /* \"bootcamp/week3/day_4_multiSigWallet.sol\":924:933  ownerList */\n  0x02\n    /* \"bootcamp/week3/day_4_multiSigWallet.sol\":924:977  ownerList[0xAb8483F64d9C6d1EcF9b849Ae677dD3315835cb2] */\n  0x00\n    /* \"bootcamp/week3/day_4_multiSigWallet.sol\":934:976  0xAb8483F64d9C6d1EcF9b849Ae677dD3315835cb2 */\n  0xab8483f64d9c6d1ecf9b849ae677dd3315835cb2\n    /* \"bootcamp/week3/day_4_multiSigWallet.sol\":924:977  ownerList[0xAb8483F64d9C6d1EcF9b849Ae677dD3315835cb2] */\n  0xffffffffffffffffffffffffffffffffffffffff\n  and\n  0xffffffffffffffffffffffffffffffffffffffff\n  and\n  dup2\n  mstore\n  0x20\n  add\n  swap1\n  dup2\n  mstore\n  0x20\n  add\n  0x00\n  keccak256\n  0x00\n    /* \"bootcamp/week3/day_4_multiSigWallet.sol\":924:984  ownerList[0xAb8483F64d9C6d1EcF9b849Ae677dD3315835cb2] = true */\n  0x0100\n  exp\n  dup2\n  sload\n  dup2\n  0xff\n  mul\n  not\n  and\n  swap1\n  dup4\n  iszero\n  iszero\n  mul\n  or\n  swap1\n  sstore\n  pop\n    /* \"bootcamp/week3/day_4_multiSigWallet.sol\":57:4706  contract multiSigLesson {... */\n  dataSize(sub_0)\n  dup1\n  dataOffset(sub_0)\n  0x00\n  codecopy\n  0x00\n  return\nstop\n\nsub_0: assembly {\n        /* \"bootcamp/week3/day_4_multiSigWallet.sol\":57:4706  contract multiSigLesson {... */\n      mstore(0x40, 0x80)\n      jumpi(tag_1, lt(calldatasize, 0x04))\n      shr(0xe0, calldataload(0x00))\n      dup1\n      0xd579b696\n      gt\n      tag_17\n      jumpi\n      dup1\n      0xf19a6682\n      gt\n      tag_18\n      jumpi\n      dup1\n      0xf19a6682\n      eq\n      tag_13\n      jumpi\n      dup1\n      0xf5358aa8\n      eq\n      tag_14\n      jumpi\n      dup1\n      0xf9a7c0b1\n      eq\n      tag_15\n      jumpi\n      dup1\n      0xfc1983ab\n      eq\n      tag_16\n      jumpi\n      jump(tag_2)\n    tag_18:\n      dup1\n      0xd579b696\n      eq\n      tag_10\n      jumpi\n      dup1\n      0xe88aca40\n      eq\n      tag_11\n      jumpi\n      dup1\n      0xee22610b\n      eq\n      tag_12\n      jumpi\n      jump(tag_2)\n    tag_17:\n      dup1\n      0x60c8b28d\n      gt\n      tag_19\n      jumpi\n      dup1\n      0x60c8b28d\n      eq\n      tag_6\n      jumpi\n      dup1\n      0x9ace38c2\n      eq\n      tag_7\n      jumpi\n      dup1\n      0xb10f8b69\n      eq\n      tag_8\n      jumpi\n      dup1\n      0xb5e8d4b1\n      eq\n      tag_9\n      jumpi\n      jump(tag_2)\n    tag_19:\n      dup1\n      0x025e7c27\n      eq\n      tag_3\n      jumpi\n      dup1\n      0x3349a734\n      eq\n      tag_4\n      jumpi\n      dup1\n      0x51f22a72\n      eq\n      tag_5\n      jumpi\n      jump(tag_2)\n    tag_1:\n      jumpi(tag_2, calldatasize)\n      stop\n    tag_2:\n      0x00\n      dup1\n      revert\n        /* \"bootcamp/week3/day_4_multiSigWallet.sol\":110:133  address[] public owners */\n    tag_3:\n      callvalue\n      dup1\n      iszero\n      tag_22\n      jumpi\n      0x00\n      dup1\n      revert\n    tag_22:\n      pop\n      tag_23\n      0x04\n      dup1\n      calldatasize\n      sub\n      dup2\n      add\n      swap1\n      tag_24\n      swap2\n      swap1\n      tag_25\n      jump\t// in\n    tag_24:\n      tag_26\n      jump\t// in\n    tag_23:\n      mload(0x40)\n      tag_27\n      swap2\n      swap1\n      tag_28\n      jump\t// in\n    tag_27:\n      mload(0x40)\n      dup1\n      swap2\n      sub\n      swap1\n      return\n        /* \"bootcamp/week3/day_4_multiSigWallet.sol\":189:220  uint public approvalsNeeded = 2 */\n    tag_4:\n      callvalue\n      dup1\n      iszero\n      tag_29\n      jumpi\n      0x00\n      dup1\n      revert\n    tag_29:\n      pop\n      tag_30\n      tag_31\n      jump\t// in\n    tag_30:\n      mload(0x40)\n      tag_32\n      swap2\n      swap1\n      tag_33\n      jump\t// in\n    tag_32:\n      mload(0x40)\n      dup1\n      swap2\n      sub\n      swap1\n      return\n        /* \"bootcamp/week3/day_4_multiSigWallet.sol\":342:383  mapping(address => bool) public ownerList */\n    tag_5:\n      callvalue\n      dup1\n      iszero\n      tag_34\n      jumpi\n      0x00\n      dup1\n      revert\n    tag_34:\n      pop\n      tag_35\n      0x04\n      dup1\n      calldatasize\n      sub\n      dup2\n      add\n      swap1\n      tag_36\n      swap2\n      swap1\n      tag_37\n      jump\t// in\n    tag_36:\n      tag_38\n      jump\t// in\n    tag_35:\n      mload(0x40)\n      tag_39\n      swap2\n      swap1\n      tag_40\n      jump\t// in\n    tag_39:\n      mload(0x40)\n      dup1\n      swap2\n      sub\n      swap1\n      return\n        /* \"bootcamp/week3/day_4_multiSigWallet.sol\":531:592  mapping(uint => mapping(address => bool)) public alreadyVoted */\n    tag_6:\n      callvalue\n      dup1\n      iszero\n      tag_41\n      jumpi\n      0x00\n      dup1\n      revert\n    tag_41:\n      pop\n      tag_42\n      0x04\n      dup1\n      calldatasize\n      sub\n      dup2\n      add\n      swap1\n      tag_43\n      swap2\n      swap1\n      tag_44\n      jump\t// in\n    tag_43:\n      tag_45\n      jump\t// in\n    tag_42:\n      mload(0x40)\n      tag_46\n      swap2\n      swap1\n      tag_40\n      jump\t// in\n    tag_46:\n      mload(0x40)\n      dup1\n      swap2\n      sub\n      swap1\n      return\n        /* \"bootcamp/week3/day_4_multiSigWallet.sol\":1217:1250  Transaction[] public transactions */\n    tag_7:\n      callvalue\n      dup1\n      iszero\n      tag_47\n      jumpi\n      0x00\n      dup1\n      revert\n    tag_47:\n      pop\n      tag_48\n      0x04\n      dup1\n      calldatasize\n      sub\n      dup2\n      add\n      swap1\n      tag_49\n      swap2\n      swap1\n      tag_25\n      jump\t// in\n    tag_49:\n      tag_50\n      jump\t// in\n    tag_48:\n      mload(0x40)\n      tag_51\n      swap5\n      swap4\n      swap3\n      swap2\n      swap1\n      tag_52\n      jump\t// in\n    tag_51:\n      mload(0x40)\n      dup1\n      swap2\n      sub\n      swap1\n      return\n        /* \"bootcamp/week3/day_4_multiSigWallet.sol\":1630:1679  mapping(address => uint) public votesToNewAddress */\n    tag_8:\n      callvalue\n      dup1\n      iszero\n      tag_53\n      jumpi\n      0x00\n      dup1\n      revert\n    tag_53:\n      pop\n      tag_54\n      0x04\n      dup1\n      calldatasize\n      sub\n      dup2\n      add\n      swap1\n      tag_55\n      swap2\n      swap1\n      tag_37\n      jump\t// in\n    tag_55:\n      tag_56\n      jump\t// in\n    tag_54:\n      mload(0x40)\n      tag_57\n      swap2\n      swap1\n      tag_33\n      jump\t// in\n    tag_57:\n      mload(0x40)\n      dup1\n      swap2\n      sub\n      swap1\n      return\n        /* \"bootcamp/week3/day_4_multiSigWallet.sol\":1840:2281  function votingOnNewAddress(address _address) public OnlyOwner {... */\n    tag_9:\n      callvalue\n      dup1\n      iszero\n      tag_58\n      jumpi\n      0x00\n      dup1\n      revert\n    tag_58:\n      pop\n      tag_59\n      0x04\n      dup1\n      calldatasize\n      sub\n      dup2\n      add\n      swap1\n      tag_60\n      swap2\n      swap1\n      tag_37\n      jump\t// in\n    tag_60:\n      tag_61\n      jump\t// in\n    tag_59:\n      stop\n        /* \"bootcamp/week3/day_4_multiSigWallet.sol\":2851:3211  function voteOnTransaction(uint index) public OnlyOwner {... */\n    tag_10:\n      callvalue\n      dup1\n      iszero\n      tag_62\n      jumpi\n      0x00\n      dup1\n      revert\n    tag_62:\n      pop\n      tag_63\n      0x04\n      dup1\n      calldatasize\n      sub\n      dup2\n      add\n      swap1\n      tag_64\n      swap2\n      swap1\n      tag_25\n      jump\t// in\n    tag_64:\n      tag_65\n      jump\t// in\n    tag_63:\n      stop\n        /* \"bootcamp/week3/day_4_multiSigWallet.sol\":1759:1833  mapping(address => mapping(address => bool)) public alreadyVotedNewAddress */\n    tag_11:\n      callvalue\n      dup1\n      iszero\n      tag_66\n      jumpi\n      0x00\n      dup1\n      revert\n    tag_66:\n      pop\n      tag_67\n      0x04\n      dup1\n      calldatasize\n      sub\n      dup2\n      add\n      swap1\n      tag_68\n      swap2\n      swap1\n      tag_69\n      jump\t// in\n    tag_68:\n      tag_70\n      jump\t// in\n    tag_67:\n      mload(0x40)\n      tag_71\n      swap2\n      swap1\n      tag_40\n      jump\t// in\n    tag_71:\n      mload(0x40)\n      dup1\n      swap2\n      sub\n      swap1\n      return\n        /* \"bootcamp/week3/day_4_multiSigWallet.sol\":3744:4608  function executeTransaction(uint index) public OnlyOwner {... */\n    tag_12:\n      callvalue\n      dup1\n      iszero\n      tag_72\n      jumpi\n      0x00\n      dup1\n      revert\n    tag_72:\n      pop\n      tag_73\n      0x04\n      dup1\n      calldatasize\n      sub\n      dup2\n      add\n      swap1\n      tag_74\n      swap2\n      swap1\n      tag_25\n      jump\t// in\n    tag_74:\n      tag_75\n      jump\t// in\n    tag_73:\n      stop\n        /* \"bootcamp/week3/day_4_multiSigWallet.sol\":2572:2817  function proposeTransaction(address to, uint amount) public OnlyOwner {... */\n    tag_13:\n      callvalue\n      dup1\n      iszero\n      tag_76\n      jumpi\n      0x00\n      dup1\n      revert\n    tag_76:\n      pop\n      tag_77\n      0x04\n      dup1\n      calldatasize\n      sub\n      dup2\n      add\n      swap1\n      tag_78\n      swap2\n      swap1\n      tag_79\n      jump\t// in\n    tag_78:\n      tag_80\n      jump\t// in\n    tag_77:\n      stop\n        /* \"bootcamp/week3/day_4_multiSigWallet.sol\":4614:4704  function ownerListLength() public view returns(uint) {... */\n    tag_14:\n      callvalue\n      dup1\n      iszero\n      tag_81\n      jumpi\n      0x00\n      dup1\n      revert\n    tag_81:\n      pop\n      tag_82\n      tag_83\n      jump\t// in\n    tag_82:\n      mload(0x40)\n      tag_84\n      swap2\n      swap1\n      tag_33\n      jump\t// in\n    tag_84:\n      mload(0x40)\n      dup1\n      swap2\n      sub\n      swap1\n      return\n        /* \"bootcamp/week3/day_4_multiSigWallet.sol\":3287:3650  function revokeOnTransaction(uint index) public OnlyOwner {... */\n    tag_15:\n      callvalue\n      dup1\n      iszero\n      tag_85\n      jumpi\n      0x00\n      dup1\n      revert\n    tag_85:\n      pop\n      tag_86\n      0x04\n      dup1\n      calldatasize\n      sub\n      dup2\n      add\n      swap1\n      tag_87\n      swap2\n      swap1\n      tag_25\n      jump\t// in\n    tag_87:\n      tag_88\n      jump\t// in\n    tag_86:\n      stop\n        /* \"bootcamp/week3/day_4_multiSigWallet.sol\":2345:2460  function numberOfVotesRequire(uint numberOfVotes) public OnlyOwner {... */\n    tag_16:\n      callvalue\n      dup1\n      iszero\n      tag_89\n      jumpi\n      0x00\n      dup1\n      revert\n    tag_89:\n      pop\n      tag_90\n      0x04\n      dup1\n      calldatasize\n      sub\n      dup2\n      add\n      swap1\n      tag_91\n      swap2\n      swap1\n      tag_25\n      jump\t// in\n    tag_91:\n      tag_92\n      jump\t// in\n    tag_90:\n      stop\n        /* \"bootcamp/week3/day_4_multiSigWallet.sol\":110:133  address[] public owners */\n    tag_26:\n      0x00\n      dup2\n      dup2\n      sload\n      dup2\n      lt\n      tag_93\n      jumpi\n      0x00\n      dup1\n      revert\n    tag_93:\n      swap1\n      0x00\n      mstore\n      keccak256(0x00, 0x20)\n      add\n      0x00\n      swap2\n      pop\n      sload\n      swap1\n      0x0100\n      exp\n      swap1\n      div\n      0xffffffffffffffffffffffffffffffffffffffff\n      and\n      dup2\n      jump\t// out\n        /* \"bootcamp/week3/day_4_multiSigWallet.sol\":189:220  uint public approvalsNeeded = 2 */\n    tag_31:\n      sload(0x01)\n      dup2\n      jump\t// out\n        /* \"bootcamp/week3/day_4_multiSigWallet.sol\":342:383  mapping(address => bool) public ownerList */\n    tag_38:\n      mstore(0x20, 0x02)\n      dup1\n      0x00\n      mstore\n      keccak256(0x00, 0x40)\n      0x00\n      swap2\n      pop\n      sload\n      swap1\n      0x0100\n      exp\n      swap1\n      div\n      0xff\n      and\n      dup2\n      jump\t// out\n        /* \"bootcamp/week3/day_4_multiSigWallet.sol\":531:592  mapping(uint => mapping(address => bool)) public alreadyVoted */\n    tag_45:\n      mstore(0x20, 0x03)\n      dup2\n      0x00\n      mstore\n      mstore(0x20, keccak256(0x00, 0x40))\n      dup1\n      0x00\n      mstore\n      keccak256(0x00, 0x40)\n      0x00\n      swap2\n      pop\n      swap2\n      pop\n      swap1\n      sload\n      swap1\n      0x0100\n      exp\n      swap1\n      div\n      0xff\n      and\n      dup2\n      jump\t// out\n        /* \"bootcamp/week3/day_4_multiSigWallet.sol\":1217:1250  Transaction[] public transactions */\n    tag_50:\n      0x04\n      dup2\n      dup2\n      sload\n      dup2\n      lt\n      tag_95\n      jumpi\n      0x00\n      dup1\n      revert\n    tag_95:\n      swap1\n      0x00\n      mstore\n      keccak256(0x00, 0x20)\n      swap1\n      0x04\n      mul\n      add\n      0x00\n      swap2\n      pop\n      swap1\n      pop\n      dup1\n      0x00\n      add\n      0x00\n      swap1\n      sload\n      swap1\n      0x0100\n      exp\n      swap1\n      div\n      0xffffffffffffffffffffffffffffffffffffffff\n      and\n      swap1\n      dup1\n      0x01\n      add\n      sload\n      swap1\n      dup1\n      0x02\n      add\n      0x00\n      swap1\n      sload\n      swap1\n      0x0100\n      exp\n      swap1\n      div\n      0xff\n      and\n      swap1\n      dup1\n      0x03\n      add\n      sload\n      swap1\n      pop\n      dup5\n      jump\t// out\n        /* \"bootcamp/week3/day_4_multiSigWallet.sol\":1630:1679  mapping(address => uint) public votesToNewAddress */\n    tag_56:\n      mstore(0x20, 0x05)\n      dup1\n      0x00\n      mstore\n      keccak256(0x00, 0x40)\n      0x00\n      swap2\n      pop\n      swap1\n      pop\n      sload\n      dup2\n      jump\t// out\n        /* \"bootcamp/week3/day_4_multiSigWallet.sol\":1840:2281  function votingOnNewAddress(address _address) public OnlyOwner {... */\n    tag_61:\n        /* \"bootcamp/week3/day_4_multiSigWallet.sol\":695:699  true */\n      0x01\n        /* \"bootcamp/week3/day_4_multiSigWallet.sol\":670:699  ownerList[msg.sender] == true */\n      iszero\n      iszero\n        /* \"bootcamp/week3/day_4_multiSigWallet.sol\":670:679  ownerList */\n      0x02\n        /* \"bootcamp/week3/day_4_multiSigWallet.sol\":670:691  ownerList[msg.sender] */\n      0x00\n        /* \"bootcamp/week3/day_4_multiSigWallet.sol\":680:690  msg.sender */\n      caller\n        /* \"bootcamp/week3/day_4_multiSigWallet.sol\":670:691  ownerList[msg.sender] */\n      0xffffffffffffffffffffffffffffffffffffffff\n      and\n      0xffffffffffffffffffffffffffffffffffffffff\n      and\n      dup2\n      mstore\n      0x20\n      add\n      swap1\n      dup2\n      mstore\n      0x20\n      add\n      0x00\n      keccak256\n      0x00\n      swap1\n      sload\n      swap1\n      0x0100\n      exp\n      swap1\n      div\n      0xff\n      and\n        /* \"bootcamp/week3/day_4_multiSigWallet.sol\":670:699  ownerList[msg.sender] == true */\n      iszero\n      iszero\n      eq\n        /* \"bootcamp/week3/day_4_multiSigWallet.sol\":662:739  require(ownerList[msg.sender] == true, \"Your're not an owner of this wallet\") */\n      tag_98\n      jumpi\n      mload(0x40)\n      0x08c379a000000000000000000000000000000000000000000000000000000000\n      dup2\n      mstore\n      0x04\n      add\n      tag_99\n      swap1\n      tag_100\n      jump\t// in\n    tag_99:\n      mload(0x40)\n      dup1\n      swap2\n      sub\n      swap1\n      revert\n    tag_98:\n        /* \"bootcamp/week3/day_4_multiSigWallet.sol\":1969:1974  false */\n      0x00\n        /* \"bootcamp/week3/day_4_multiSigWallet.sol\":1921:1974  alreadyVotedNewAddress[_address][msg.sender] == false */\n      iszero\n      iszero\n        /* \"bootcamp/week3/day_4_multiSigWallet.sol\":1921:1943  alreadyVotedNewAddress */\n      0x06\n        /* \"bootcamp/week3/day_4_multiSigWallet.sol\":1921:1953  alreadyVotedNewAddress[_address] */\n      0x00\n        /* \"bootcamp/week3/day_4_multiSigWallet.sol\":1944:1952  _address */\n      dup4\n        /* \"bootcamp/week3/day_4_multiSigWallet.sol\":1921:1953  alreadyVotedNewAddress[_address] */\n      0xffffffffffffffffffffffffffffffffffffffff\n      and\n      0xffffffffffffffffffffffffffffffffffffffff\n      and\n      dup2\n      mstore\n      0x20\n      add\n      swap1\n      dup2\n      mstore\n      0x20\n      add\n      0x00\n      keccak256\n        /* \"bootcamp/week3/day_4_multiSigWallet.sol\":1921:1965  alreadyVotedNewAddress[_address][msg.sender] */\n      0x00\n        /* \"bootcamp/week3/day_4_multiSigWallet.sol\":1954:1964  msg.sender */\n      caller\n        /* \"bootcamp/week3/day_4_multiSigWallet.sol\":1921:1965  alreadyVotedNewAddress[_address][msg.sender] */\n      0xffffffffffffffffffffffffffffffffffffffff\n      and\n      0xffffffffffffffffffffffffffffffffffffffff\n      and\n      dup2\n      mstore\n      0x20\n      add\n      swap1\n      dup2\n      mstore\n      0x20\n      add\n      0x00\n      keccak256\n      0x00\n      swap1\n      sload\n      swap1\n      0x0100\n      exp\n      swap1\n      div\n      0xff\n      and\n        /* \"bootcamp/week3/day_4_multiSigWallet.sol\":1921:1974  alreadyVotedNewAddress[_address][msg.sender] == false */\n      iszero\n      iszero\n      eq\n        /* \"bootcamp/week3/day_4_multiSigWallet.sol\":1913:2015  require(alreadyVotedNewAddress[_address][msg.sender] == false, \"You've already voted on this address\") */\n      tag_102\n      jumpi\n      mload(0x40)\n      0x08c379a000000000000000000000000000000000000000000000000000000000\n      dup2\n      mstore\n      0x04\n      add\n      tag_103\n      swap1\n      tag_104\n      jump\t// in\n    tag_103:\n      mload(0x40)\n      dup1\n      swap2\n      sub\n      swap1\n      revert\n    tag_102:\n        /* \"bootcamp/week3/day_4_multiSigWallet.sol\":2065:2066  1 */\n      0x01\n        /* \"bootcamp/week3/day_4_multiSigWallet.sol\":2034:2051  votesToNewAddress */\n      0x05\n        /* \"bootcamp/week3/day_4_multiSigWallet.sol\":2034:2061  votesToNewAddress[_address] */\n      0x00\n        /* \"bootcamp/week3/day_4_multiSigWallet.sol\":2052:2060  _address */\n      dup4\n        /* \"bootcamp/week3/day_4_multiSigWallet.sol\":2034:2061  votesToNewAddress[_address] */\n      0xffffffffffffffffffffffffffffffffffffffff\n      and\n      0xffffffffffffffffffffffffffffffffffffffff\n      and\n      dup2\n      mstore\n      0x20\n      add\n      swap1\n      dup2\n      mstore\n      0x20\n      add\n      0x00\n      keccak256\n      0x00\n        /* \"bootcamp/week3/day_4_multiSigWallet.sol\":2034:2066  votesToNewAddress[_address] += 1 */\n      dup3\n      dup3\n      sload\n      tag_105\n      swap2\n      swap1\n      tag_106\n      jump\t// in\n    tag_105:\n      swap3\n      pop\n      pop\n      dup2\n      swap1\n      sstore\n      pop\n        /* \"bootcamp/week3/day_4_multiSigWallet.sol\":2123:2127  true */\n      0x01\n        /* \"bootcamp/week3/day_4_multiSigWallet.sol\":2076:2098  alreadyVotedNewAddress */\n      0x06\n        /* \"bootcamp/week3/day_4_multiSigWallet.sol\":2076:2108  alreadyVotedNewAddress[_address] */\n      0x00\n        /* \"bootcamp/week3/day_4_multiSigWallet.sol\":2099:2107  _address */\n      dup4\n        /* \"bootcamp/week3/day_4_multiSigWallet.sol\":2076:2108  alreadyVotedNewAddress[_address] */\n      0xffffffffffffffffffffffffffffffffffffffff\n      and\n      0xffffffffffffffffffffffffffffffffffffffff\n      and\n      dup2\n      mstore\n      0x20\n      add\n      swap1\n      dup2\n      mstore\n      0x20\n      add\n      0x00\n      keccak256\n        /* \"bootcamp/week3/day_4_multiSigWallet.sol\":2076:2120  alreadyVotedNewAddress[_address][msg.sender] */\n      0x00\n        /* \"bootcamp/week3/day_4_multiSigWallet.sol\":2109:2119  msg.sender */\n      caller\n        /* \"bootcamp/week3/day_4_multiSigWallet.sol\":2076:2120  alreadyVotedNewAddress[_address][msg.sender] */\n      0xffffffffffffffffffffffffffffffffffffffff\n      and\n      0xffffffffffffffffffffffffffffffffffffffff\n      and\n      dup2\n      mstore\n      0x20\n      add\n      swap1\n      dup2\n      mstore\n      0x20\n      add\n      0x00\n      keccak256\n      0x00\n        /* \"bootcamp/week3/day_4_multiSigWallet.sol\":2076:2127  alreadyVotedNewAddress[_address][msg.sender] = true */\n      0x0100\n      exp\n      dup2\n      sload\n      dup2\n      0xff\n      mul\n      not\n      and\n      swap1\n      dup4\n      iszero\n      iszero\n      mul\n      or\n      swap1\n      sstore\n      pop\n        /* \"bootcamp/week3/day_4_multiSigWallet.sol\":2172:2187  approvalsNeeded */\n      sload(0x01)\n        /* \"bootcamp/week3/day_4_multiSigWallet.sol\":2141:2158  votesToNewAddress */\n      0x05\n        /* \"bootcamp/week3/day_4_multiSigWallet.sol\":2141:2168  votesToNewAddress[_address] */\n      0x00\n        /* \"bootcamp/week3/day_4_multiSigWallet.sol\":2159:2167  _address */\n      dup4\n        /* \"bootcamp/week3/day_4_multiSigWallet.sol\":2141:2168  votesToNewAddress[_address] */\n      0xffffffffffffffffffffffffffffffffffffffff\n      and\n      0xffffffffffffffffffffffffffffffffffffffff\n      and\n      dup2\n      mstore\n      0x20\n      add\n      swap1\n      dup2\n      mstore\n      0x20\n      add\n      0x00\n      keccak256\n      sload\n        /* \"bootcamp/week3/day_4_multiSigWallet.sol\":2141:2187  votesToNewAddress[_address] >= approvalsNeeded */\n      lt\n        /* \"bootcamp/week3/day_4_multiSigWallet.sol\":2138:2275  if(votesToNewAddress[_address] >= approvalsNeeded) {... */\n      tag_107\n      jumpi\n        /* \"bootcamp/week3/day_4_multiSigWallet.sol\":2203:2209  owners */\n      0x00\n        /* \"bootcamp/week3/day_4_multiSigWallet.sol\":2215:2223  _address */\n      dup2\n        /* \"bootcamp/week3/day_4_multiSigWallet.sol\":2203:2224  owners.push(_address) */\n      swap1\n      dup1\n      0x01\n      dup2\n      sload\n      add\n      dup1\n      dup3\n      sstore\n      dup1\n      swap2\n      pop\n      pop\n      0x01\n      swap1\n      sub\n      swap1\n      0x00\n      mstore\n      keccak256(0x00, 0x20)\n      add\n      0x00\n      swap1\n      swap2\n      swap1\n      swap2\n      swap1\n      swap2\n      0x0100\n      exp\n      dup2\n      sload\n      dup2\n      0xffffffffffffffffffffffffffffffffffffffff\n      mul\n      not\n      and\n      swap1\n      dup4\n      0xffffffffffffffffffffffffffffffffffffffff\n      and\n      mul\n      or\n      swap1\n      sstore\n      pop\n        /* \"bootcamp/week3/day_4_multiSigWallet.sol\":2260:2264  true */\n      0x01\n        /* \"bootcamp/week3/day_4_multiSigWallet.sol\":2238:2247  ownerList */\n      0x02\n        /* \"bootcamp/week3/day_4_multiSigWallet.sol\":2238:2257  ownerList[_address] */\n      0x00\n        /* \"bootcamp/week3/day_4_multiSigWallet.sol\":2248:2256  _address */\n      dup4\n        /* \"bootcamp/week3/day_4_multiSigWallet.sol\":2238:2257  ownerList[_address] */\n      0xffffffffffffffffffffffffffffffffffffffff\n      and\n      0xffffffffffffffffffffffffffffffffffffffff\n      and\n      dup2\n      mstore\n      0x20\n      add\n      swap1\n      dup2\n      mstore\n      0x20\n      add\n      0x00\n      keccak256\n      0x00\n        /* \"bootcamp/week3/day_4_multiSigWallet.sol\":2238:2264  ownerList[_address] = true */\n      0x0100\n      exp\n      dup2\n      sload\n      dup2\n      0xff\n      mul\n      not\n      and\n      swap1\n      dup4\n      iszero\n      iszero\n      mul\n      or\n      swap1\n      sstore\n      pop\n        /* \"bootcamp/week3/day_4_multiSigWallet.sol\":2138:2275  if(votesToNewAddress[_address] >= approvalsNeeded) {... */\n    tag_107:\n        /* \"bootcamp/week3/day_4_multiSigWallet.sol\":1840:2281  function votingOnNewAddress(address _address) public OnlyOwner {... */\n      pop\n      jump\t// out\n        /* \"bootcamp/week3/day_4_multiSigWallet.sol\":2851:3211  function voteOnTransaction(uint index) public OnlyOwner {... */\n    tag_65:\n        /* \"bootcamp/week3/day_4_multiSigWallet.sol\":695:699  true */\n      0x01\n        /* \"bootcamp/week3/day_4_multiSigWallet.sol\":670:699  ownerList[msg.sender] == true */\n      iszero\n      iszero\n        /* \"bootcamp/week3/day_4_multiSigWallet.sol\":670:679  ownerList */\n      0x02\n        /* \"bootcamp/week3/day_4_multiSigWallet.sol\":670:691  ownerList[msg.sender] */\n      0x00\n        /* \"bootcamp/week3/day_4_multiSigWallet.sol\":680:690  msg.sender */\n      caller\n        /* \"bootcamp/week3/day_4_multiSigWallet.sol\":670:691  ownerList[msg.sender] */\n      0xffffffffffffffffffffffffffffffffffffffff\n      and\n      0xffffffffffffffffffffffffffffffffffffffff\n      and\n      dup2\n      mstore\n      0x20\n      add\n      swap1\n      dup2\n      mstore\n      0x20\n      add\n      0x00\n      keccak256\n      0x00\n      swap1\n      sload\n      swap1\n      0x0100\n      exp\n      swap1\n      div\n      0xff\n      and\n        /* \"bootcamp/week3/day_4_multiSigWallet.sol\":670:699  ownerList[msg.sender] == true */\n      iszero\n      iszero\n      eq\n        /* \"bootcamp/week3/day_4_multiSigWallet.sol\":662:739  require(ownerList[msg.sender] == true, \"Your're not an owner of this wallet\") */\n      tag_110\n      jumpi\n      mload(0x40)\n      0x08c379a000000000000000000000000000000000000000000000000000000000\n      dup2\n      mstore\n      0x04\n      add\n      tag_111\n      swap1\n      tag_100\n      jump\t// in\n    tag_111:\n      mload(0x40)\n      dup1\n      swap2\n      sub\n      swap1\n      revert\n    tag_110:\n        /* \"bootcamp/week3/day_4_multiSigWallet.sol\":3082:3087  false */\n      0x00\n        /* \"bootcamp/week3/day_4_multiSigWallet.sol\":3047:3087  alreadyVoted[index][msg.sender] == false */\n      iszero\n      iszero\n        /* \"bootcamp/week3/day_4_multiSigWallet.sol\":3047:3059  alreadyVoted */\n      0x03\n        /* \"bootcamp/week3/day_4_multiSigWallet.sol\":3047:3066  alreadyVoted[index] */\n      0x00\n        /* \"bootcamp/week3/day_4_multiSigWallet.sol\":3060:3065  index */\n      dup4\n        /* \"bootcamp/week3/day_4_multiSigWallet.sol\":3047:3066  alreadyVoted[index] */\n      dup2\n      mstore\n      0x20\n      add\n      swap1\n      dup2\n      mstore\n      0x20\n      add\n      0x00\n      keccak256\n        /* \"bootcamp/week3/day_4_multiSigWallet.sol\":3047:3078  alreadyVoted[index][msg.sender] */\n      0x00\n        /* \"bootcamp/week3/day_4_multiSigWallet.sol\":3067:3077  msg.sender */\n      caller\n        /* \"bootcamp/week3/day_4_multiSigWallet.sol\":3047:3078  alreadyVoted[index][msg.sender] */\n      0xffffffffffffffffffffffffffffffffffffffff\n      and\n      0xffffffffffffffffffffffffffffffffffffffff\n      and\n      dup2\n      mstore\n      0x20\n      add\n      swap1\n      dup2\n      mstore\n      0x20\n      add\n      0x00\n      keccak256\n      0x00\n      swap1\n      sload\n      swap1\n      0x0100\n      exp\n      swap1\n      div\n      0xff\n      and\n        /* \"bootcamp/week3/day_4_multiSigWallet.sol\":3047:3087  alreadyVoted[index][msg.sender] == false */\n      iszero\n      iszero\n      eq\n        /* \"bootcamp/week3/day_4_multiSigWallet.sol\":3039:3112  require(alreadyVoted[index][msg.sender] == false, \"You've already voted\") */\n      tag_113\n      jumpi\n      mload(0x40)\n      0x08c379a000000000000000000000000000000000000000000000000000000000\n      dup2\n      mstore\n      0x04\n      add\n      tag_114\n      swap1\n      tag_115\n      jump\t// in\n    tag_114:\n      mload(0x40)\n      dup1\n      swap2\n      sub\n      swap1\n      revert\n    tag_113:\n        /* \"bootcamp/week3/day_4_multiSigWallet.sol\":3155:3156  1 */\n      0x01\n        /* \"bootcamp/week3/day_4_multiSigWallet.sol\":3122:3134  transactions */\n      0x04\n        /* \"bootcamp/week3/day_4_multiSigWallet.sol\":3135:3140  index */\n      dup3\n        /* \"bootcamp/week3/day_4_multiSigWallet.sol\":3122:3141  transactions[index] */\n      dup2\n      sload\n      dup2\n      lt\n      tag_116\n      jumpi\n      tag_117\n      tag_118\n      jump\t// in\n    tag_117:\n    tag_116:\n      swap1\n      0x00\n      mstore\n      keccak256(0x00, 0x20)\n      swap1\n      0x04\n      mul\n      add\n        /* \"bootcamp/week3/day_4_multiSigWallet.sol\":3122:3151  transactions[index].approvals */\n      0x03\n      add\n      0x00\n        /* \"bootcamp/week3/day_4_multiSigWallet.sol\":3122:3156  transactions[index].approvals += 1 */\n      dup3\n      dup3\n      sload\n      tag_120\n      swap2\n      swap1\n      tag_106\n      jump\t// in\n    tag_120:\n      swap3\n      pop\n      pop\n      dup2\n      swap1\n      sstore\n      pop\n        /* \"bootcamp/week3/day_4_multiSigWallet.sol\":3200:3204  true */\n      0x01\n        /* \"bootcamp/week3/day_4_multiSigWallet.sol\":3166:3178  alreadyVoted */\n      0x03\n        /* \"bootcamp/week3/day_4_multiSigWallet.sol\":3166:3185  alreadyVoted[index] */\n      0x00\n        /* \"bootcamp/week3/day_4_multiSigWallet.sol\":3179:3184  index */\n      dup4\n        /* \"bootcamp/week3/day_4_multiSigWallet.sol\":3166:3185  alreadyVoted[index] */\n      dup2\n      mstore\n      0x20\n      add\n      swap1\n      dup2\n      mstore\n      0x20\n      add\n      0x00\n      keccak256\n        /* \"bootcamp/week3/day_4_multiSigWallet.sol\":3166:3197  alreadyVoted[index][msg.sender] */\n      0x00\n        /* \"bootcamp/week3/day_4_multiSigWallet.sol\":3186:3196  msg.sender */\n      caller\n        /* \"bootcamp/week3/day_4_multiSigWallet.sol\":3166:3197  alreadyVoted[index][msg.sender] */\n      0xffffffffffffffffffffffffffffffffffffffff\n      and\n      0xffffffffffffffffffffffffffffffffffffffff\n      and\n      dup2\n      mstore\n      0x20\n      add\n      swap1\n      dup2\n      mstore\n      0x20\n      add\n      0x00\n      keccak256\n      0x00\n        /* \"bootcamp/week3/day_4_multiSigWallet.sol\":3166:3204  alreadyVoted[index][msg.sender] = true */\n      0x0100\n      exp\n      dup2\n      sload\n      dup2\n      0xff\n      mul\n      not\n      and\n      swap1\n      dup4\n      iszero\n      iszero\n      mul\n      or\n      swap1\n      sstore\n      pop\n        /* \"bootcamp/week3/day_4_multiSigWallet.sol\":2851:3211  function voteOnTransaction(uint index) public OnlyOwner {... */\n      pop\n      jump\t// out\n        /* \"bootcamp/week3/day_4_multiSigWallet.sol\":1759:1833  mapping(address => mapping(address => bool)) public alreadyVotedNewAddress */\n    tag_70:\n      mstore(0x20, 0x06)\n      dup2\n      0x00\n      mstore\n      mstore(0x20, keccak256(0x00, 0x40))\n      dup1\n      0x00\n      mstore\n      keccak256(0x00, 0x40)\n      0x00\n      swap2\n      pop\n      swap2\n      pop\n      swap1\n      sload\n      swap1\n      0x0100\n      exp\n      swap1\n      div\n      0xff\n      and\n      dup2\n      jump\t// out\n        /* \"bootcamp/week3/day_4_multiSigWallet.sol\":3744:4608  function executeTransaction(uint index) public OnlyOwner {... */\n    tag_75:\n        /* \"bootcamp/week3/day_4_multiSigWallet.sol\":695:699  true */\n      0x01\n        /* \"bootcamp/week3/day_4_multiSigWallet.sol\":670:699  ownerList[msg.sender] == true */\n      iszero\n      iszero\n        /* \"bootcamp/week3/day_4_multiSigWallet.sol\":670:679  ownerList */\n      0x02\n        /* \"bootcamp/week3/day_4_multiSigWallet.sol\":670:691  ownerList[msg.sender] */\n      0x00\n        /* \"bootcamp/week3/day_4_multiSigWallet.sol\":680:690  msg.sender */\n      caller\n        /* \"bootcamp/week3/day_4_multiSigWallet.sol\":670:691  ownerList[msg.sender] */\n      0xffffffffffffffffffffffffffffffffffffffff\n      and\n      0xffffffffffffffffffffffffffffffffffffffff\n      and\n      dup2\n      mstore\n      0x20\n      add\n      swap1\n      dup2\n      mstore\n      0x20\n      add\n      0x00\n      keccak256\n      0x00\n      swap1\n      sload\n      swap1\n      0x0100\n      exp\n      swap1\n      div\n      0xff\n      and\n        /* \"bootcamp/week3/day_4_multiSigWallet.sol\":670:699  ownerList[msg.sender] == true */\n      iszero\n      iszero\n      eq\n        /* \"bootcamp/week3/day_4_multiSigWallet.sol\":662:739  require(ownerList[msg.sender] == true, \"Your're not an owner of this wallet\") */\n      tag_122\n      jumpi\n      mload(0x40)\n      0x08c379a000000000000000000000000000000000000000000000000000000000\n      dup2\n      mstore\n      0x04\n      add\n      tag_123\n      swap1\n      tag_100\n      jump\t// in\n    tag_123:\n      mload(0x40)\n      dup1\n      swap2\n      sub\n      swap1\n      revert\n    tag_122:\n        /* \"bootcamp/week3/day_4_multiSigWallet.sol\":3889:3904  approvalsNeeded */\n      sload(0x01)\n        /* \"bootcamp/week3/day_4_multiSigWallet.sol\":3856:3868  transactions */\n      0x04\n        /* \"bootcamp/week3/day_4_multiSigWallet.sol\":3869:3874  index */\n      dup3\n        /* \"bootcamp/week3/day_4_multiSigWallet.sol\":3856:3875  transactions[index] */\n      dup2\n      sload\n      dup2\n      lt\n      tag_125\n      jumpi\n      tag_126\n      tag_118\n      jump\t// in\n    tag_126:\n    tag_125:\n      swap1\n      0x00\n      mstore\n      keccak256(0x00, 0x20)\n      swap1\n      0x04\n      mul\n      add\n        /* \"bootcamp/week3/day_4_multiSigWallet.sol\":3856:3885  transactions[index].approvals */\n      0x03\n      add\n      sload\n        /* \"bootcamp/week3/day_4_multiSigWallet.sol\":3856:3904  transactions[index].approvals >= approvalsNeeded */\n      lt\n      iszero\n        /* \"bootcamp/week3/day_4_multiSigWallet.sol\":3848:3929  require(transactions[index].approvals >= approvalsNeeded, \"Not enough approvals\") */\n      tag_128\n      jumpi\n      mload(0x40)\n      0x08c379a000000000000000000000000000000000000000000000000000000000\n      dup2\n      mstore\n      0x04\n      add\n      tag_129\n      swap1\n      tag_130\n      jump\t// in\n    tag_129:\n      mload(0x40)\n      dup1\n      swap2\n      sub\n      swap1\n      revert\n    tag_128:\n        /* \"bootcamp/week3/day_4_multiSigWallet.sol\":4029:4034  false */\n      0x00\n        /* \"bootcamp/week3/day_4_multiSigWallet.sol\":3990:4034  transactions[index].alreadyExecuted == false */\n      iszero\n      iszero\n        /* \"bootcamp/week3/day_4_multiSigWallet.sol\":3990:4002  transactions */\n      0x04\n        /* \"bootcamp/week3/day_4_multiSigWallet.sol\":4003:4008  index */\n      dup3\n        /* \"bootcamp/week3/day_4_multiSigWallet.sol\":3990:4009  transactions[index] */\n      dup2\n      sload\n      dup2\n      lt\n      tag_131\n      jumpi\n      tag_132\n      tag_118\n      jump\t// in\n    tag_132:\n    tag_131:\n      swap1\n      0x00\n      mstore\n      keccak256(0x00, 0x20)\n      swap1\n      0x04\n      mul\n      add\n        /* \"bootcamp/week3/day_4_multiSigWallet.sol\":3990:4025  transactions[index].alreadyExecuted */\n      0x02\n      add\n      0x00\n      swap1\n      sload\n      swap1\n      0x0100\n      exp\n      swap1\n      div\n      0xff\n      and\n        /* \"bootcamp/week3/day_4_multiSigWallet.sol\":3990:4034  transactions[index].alreadyExecuted == false */\n      iszero\n      iszero\n      eq\n        /* \"bootcamp/week3/day_4_multiSigWallet.sol\":3982:4052  require(transactions[index].alreadyExecuted == false, \"Already voted\") */\n      tag_134\n      jumpi\n      mload(0x40)\n      0x08c379a000000000000000000000000000000000000000000000000000000000\n      dup2\n      mstore\n      0x04\n      add\n      tag_135\n      swap1\n      tag_136\n      jump\t// in\n    tag_135:\n      mload(0x40)\n      dup1\n      swap2\n      sub\n      swap1\n      revert\n    tag_134:\n        /* \"bootcamp/week3/day_4_multiSigWallet.sol\":4062:4084  address payable toSend */\n      0x00\n        /* \"bootcamp/week3/day_4_multiSigWallet.sol\":4096:4108  transactions */\n      0x04\n        /* \"bootcamp/week3/day_4_multiSigWallet.sol\":4109:4114  index */\n      dup3\n        /* \"bootcamp/week3/day_4_multiSigWallet.sol\":4096:4115  transactions[index] */\n      dup2\n      sload\n      dup2\n      lt\n      tag_137\n      jumpi\n      tag_138\n      tag_118\n      jump\t// in\n    tag_138:\n    tag_137:\n      swap1\n      0x00\n      mstore\n      keccak256(0x00, 0x20)\n      swap1\n      0x04\n      mul\n      add\n        /* \"bootcamp/week3/day_4_multiSigWallet.sol\":4096:4125  transactions[index].sendingTo */\n      0x00\n      add\n      0x00\n      swap1\n      sload\n      swap1\n      0x0100\n      exp\n      swap1\n      div\n      0xffffffffffffffffffffffffffffffffffffffff\n      and\n        /* \"bootcamp/week3/day_4_multiSigWallet.sol\":4062:4126  address payable toSend = payable (transactions[index].sendingTo) */\n      swap1\n      pop\n        /* \"bootcamp/week3/day_4_multiSigWallet.sol\":4219:4233  bool tryToSend */\n      0x00\n        /* \"bootcamp/week3/day_4_multiSigWallet.sol\":4239:4245  toSend */\n      dup2\n        /* \"bootcamp/week3/day_4_multiSigWallet.sol\":4239:4250  toSend.call */\n      0xffffffffffffffffffffffffffffffffffffffff\n      and\n        /* \"bootcamp/week3/day_4_multiSigWallet.sol\":4258:4270  transactions */\n      0x04\n        /* \"bootcamp/week3/day_4_multiSigWallet.sol\":4271:4276  index */\n      dup5\n        /* \"bootcamp/week3/day_4_multiSigWallet.sol\":4258:4277  transactions[index] */\n      dup2\n      sload\n      dup2\n      lt\n      tag_140\n      jumpi\n      tag_141\n      tag_118\n      jump\t// in\n    tag_141:\n    tag_140:\n      swap1\n      0x00\n      mstore\n      keccak256(0x00, 0x20)\n      swap1\n      0x04\n      mul\n      add\n        /* \"bootcamp/week3/day_4_multiSigWallet.sol\":4258:4283  transactions[index].value */\n      0x01\n      add\n      sload\n        /* \"bootcamp/week3/day_4_multiSigWallet.sol\":4290:4294  5000 */\n      0x1388\n        /* \"bootcamp/week3/day_4_multiSigWallet.sol\":4239:4299  toSend.call{value: transactions[index].value, gas: 5000}(\"\") */\n      swap1\n      mload(0x40)\n      tag_143\n      swap1\n      tag_144\n      jump\t// in\n    tag_143:\n      0x00\n      mload(0x40)\n      dup1\n      dup4\n      sub\n      dup2\n      dup6\n      dup9\n      dup9\n      call\n      swap4\n      pop\n      pop\n      pop\n      pop\n      returndatasize\n      dup1\n      0x00\n      dup2\n      eq\n      tag_147\n      jumpi\n      mload(0x40)\n      swap2\n      pop\n      and(add(returndatasize, 0x3f), not(0x1f))\n      dup3\n      add\n      0x40\n      mstore\n      returndatasize\n      dup3\n      mstore\n      returndatasize\n      0x00\n      0x20\n      dup5\n      add\n      returndatacopy\n      jump(tag_146)\n    tag_147:\n      0x60\n      swap2\n      pop\n    tag_146:\n      pop\n        /* \"bootcamp/week3/day_4_multiSigWallet.sol\":4218:4299  (bool tryToSend, ) = toSend.call{value: transactions[index].value, gas: 5000}(\"\") */\n      pop\n      swap1\n      pop\n        /* \"bootcamp/week3/day_4_multiSigWallet.sol\":4416:4425  tryToSend */\n      dup1\n        /* \"bootcamp/week3/day_4_multiSigWallet.sol\":4408:4458  require(tryToSend, \"You don't have enough tokens\") */\n      tag_148\n      jumpi\n      mload(0x40)\n      0x08c379a000000000000000000000000000000000000000000000000000000000\n      dup2\n      mstore\n      0x04\n      add\n      tag_149\n      swap1\n      tag_150\n      jump\t// in\n    tag_149:\n      mload(0x40)\n      dup1\n      swap2\n      sub\n      swap1\n      revert\n    tag_148:\n        /* \"bootcamp/week3/day_4_multiSigWallet.sol\":4597:4601  true */\n      0x01\n        /* \"bootcamp/week3/day_4_multiSigWallet.sol\":4559:4571  transactions */\n      0x04\n        /* \"bootcamp/week3/day_4_multiSigWallet.sol\":4572:4577  index */\n      dup5\n        /* \"bootcamp/week3/day_4_multiSigWallet.sol\":4559:4578  transactions[index] */\n      dup2\n      sload\n      dup2\n      lt\n      tag_151\n      jumpi\n      tag_152\n      tag_118\n      jump\t// in\n    tag_152:\n    tag_151:\n      swap1\n      0x00\n      mstore\n      keccak256(0x00, 0x20)\n      swap1\n      0x04\n      mul\n      add\n        /* \"bootcamp/week3/day_4_multiSigWallet.sol\":4559:4594  transactions[index].alreadyExecuted */\n      0x02\n      add\n      0x00\n        /* \"bootcamp/week3/day_4_multiSigWallet.sol\":4559:4601  transactions[index].alreadyExecuted = true */\n      0x0100\n      exp\n      dup2\n      sload\n      dup2\n      0xff\n      mul\n      not\n      and\n      swap1\n      dup4\n      iszero\n      iszero\n      mul\n      or\n      swap1\n      sstore\n      pop\n        /* \"bootcamp/week3/day_4_multiSigWallet.sol\":3801:4608  {... */\n      pop\n      pop\n        /* \"bootcamp/week3/day_4_multiSigWallet.sol\":3744:4608  function executeTransaction(uint index) public OnlyOwner {... */\n      pop\n      jump\t// out\n        /* \"bootcamp/week3/day_4_multiSigWallet.sol\":2572:2817  function proposeTransaction(address to, uint amount) public OnlyOwner {... */\n    tag_80:\n        /* \"bootcamp/week3/day_4_multiSigWallet.sol\":695:699  true */\n      0x01\n        /* \"bootcamp/week3/day_4_multiSigWallet.sol\":670:699  ownerList[msg.sender] == true */\n      iszero\n      iszero\n        /* \"bootcamp/week3/day_4_multiSigWallet.sol\":670:679  ownerList */\n      0x02\n        /* \"bootcamp/week3/day_4_multiSigWallet.sol\":670:691  ownerList[msg.sender] */\n      0x00\n        /* \"bootcamp/week3/day_4_multiSigWallet.sol\":680:690  msg.sender */\n      caller\n        /* \"bootcamp/week3/day_4_multiSigWallet.sol\":670:691  ownerList[msg.sender] */\n      0xffffffffffffffffffffffffffffffffffffffff\n      and\n      0xffffffffffffffffffffffffffffffffffffffff\n      and\n      dup2\n      mstore\n      0x20\n      add\n      swap1\n      dup2\n      mstore\n      0x20\n      add\n      0x00\n      keccak256\n      0x00\n      swap1\n      sload\n      swap1\n      0x0100\n      exp\n      swap1\n      div\n      0xff\n      and\n        /* \"bootcamp/week3/day_4_multiSigWallet.sol\":670:699  ownerList[msg.sender] == true */\n      iszero\n      iszero\n      eq\n        /* \"bootcamp/week3/day_4_multiSigWallet.sol\":662:739  require(ownerList[msg.sender] == true, \"Your're not an owner of this wallet\") */\n      tag_155\n      jumpi\n      mload(0x40)\n      0x08c379a000000000000000000000000000000000000000000000000000000000\n      dup2\n      mstore\n      0x04\n      add\n      tag_156\n      swap1\n      tag_100\n      jump\t// in\n    tag_156:\n      mload(0x40)\n      dup1\n      swap2\n      sub\n      swap1\n      revert\n    tag_155:\n        /* \"bootcamp/week3/day_4_multiSigWallet.sol\":2652:2664  transactions */\n      0x04\n        /* \"bootcamp/week3/day_4_multiSigWallet.sol\":2670:2809  Transaction({... */\n      mload(0x40)\n      dup1\n      0x80\n      add\n      0x40\n      mstore\n      dup1\n        /* \"bootcamp/week3/day_4_multiSigWallet.sol\":2707:2709  to */\n      dup5\n        /* \"bootcamp/week3/day_4_multiSigWallet.sol\":2670:2809  Transaction({... */\n      0xffffffffffffffffffffffffffffffffffffffff\n      and\n      dup2\n      mstore\n      0x20\n      add\n        /* \"bootcamp/week3/day_4_multiSigWallet.sol\":2730:2736  amount */\n      dup4\n        /* \"bootcamp/week3/day_4_multiSigWallet.sol\":2670:2809  Transaction({... */\n      dup2\n      mstore\n      0x20\n      add\n        /* \"bootcamp/week3/day_4_multiSigWallet.sol\":2767:2772  false */\n      0x00\n        /* \"bootcamp/week3/day_4_multiSigWallet.sol\":2670:2809  Transaction({... */\n      iszero\n      iszero\n      dup2\n      mstore\n      0x20\n      add\n        /* \"bootcamp/week3/day_4_multiSigWallet.sol\":2797:2798  0 */\n      0x00\n        /* \"bootcamp/week3/day_4_multiSigWallet.sol\":2670:2809  Transaction({... */\n      dup2\n      mstore\n      pop\n        /* \"bootcamp/week3/day_4_multiSigWallet.sol\":2652:2810  transactions.push(Transaction({... */\n      swap1\n      dup1\n      0x01\n      dup2\n      sload\n      add\n      dup1\n      dup3\n      sstore\n      dup1\n      swap2\n      pop\n      pop\n      0x01\n      swap1\n      sub\n      swap1\n      0x00\n      mstore\n      keccak256(0x00, 0x20)\n      swap1\n      0x04\n      mul\n      add\n      0x00\n      swap1\n      swap2\n      swap1\n      swap2\n      swap1\n      swap2\n      pop\n      0x00\n      dup3\n      add\n      mload\n      dup2\n      0x00\n      add\n      exp(0x0100, 0x00)\n      dup2\n      sload\n      dup2\n      0xffffffffffffffffffffffffffffffffffffffff\n      mul\n      not\n      and\n      swap1\n      dup4\n      0xffffffffffffffffffffffffffffffffffffffff\n      and\n      mul\n      or\n      swap1\n      sstore\n      pop\n      0x20\n      dup3\n      add\n      mload\n      dup2\n      0x01\n      add\n      sstore\n      0x40\n      dup3\n      add\n      mload\n      dup2\n      0x02\n      add\n      exp(0x0100, 0x00)\n      dup2\n      sload\n      dup2\n      0xff\n      mul\n      not\n      and\n      swap1\n      dup4\n      iszero\n      iszero\n      mul\n      or\n      swap1\n      sstore\n      pop\n      0x60\n      dup3\n      add\n      mload\n      dup2\n      0x03\n      add\n      sstore\n      pop\n      pop\n        /* \"bootcamp/week3/day_4_multiSigWallet.sol\":2572:2817  function proposeTransaction(address to, uint amount) public OnlyOwner {... */\n      pop\n      pop\n      jump\t// out\n        /* \"bootcamp/week3/day_4_multiSigWallet.sol\":4614:4704  function ownerListLength() public view returns(uint) {... */\n    tag_83:\n        /* \"bootcamp/week3/day_4_multiSigWallet.sol\":4661:4665  uint */\n      0x00\n        /* \"bootcamp/week3/day_4_multiSigWallet.sol\":4684:4690  owners */\n      dup1\n        /* \"bootcamp/week3/day_4_multiSigWallet.sol\":4684:4697  owners.length */\n      dup1\n      sload\n      swap1\n      pop\n        /* \"bootcamp/week3/day_4_multiSigWallet.sol\":4677:4697  return owners.length */\n      swap1\n      pop\n        /* \"bootcamp/week3/day_4_multiSigWallet.sol\":4614:4704  function ownerListLength() public view returns(uint) {... */\n      swap1\n      jump\t// out\n        /* \"bootcamp/week3/day_4_multiSigWallet.sol\":3287:3650  function revokeOnTransaction(uint index) public OnlyOwner {... */\n    tag_88:\n        /* \"bootcamp/week3/day_4_multiSigWallet.sol\":695:699  true */\n      0x01\n        /* \"bootcamp/week3/day_4_multiSigWallet.sol\":670:699  ownerList[msg.sender] == true */\n      iszero\n      iszero\n        /* \"bootcamp/week3/day_4_multiSigWallet.sol\":670:679  ownerList */\n      0x02\n        /* \"bootcamp/week3/day_4_multiSigWallet.sol\":670:691  ownerList[msg.sender] */\n      0x00\n        /* \"bootcamp/week3/day_4_multiSigWallet.sol\":680:690  msg.sender */\n      caller\n        /* \"bootcamp/week3/day_4_multiSigWallet.sol\":670:691  ownerList[msg.sender] */\n      0xffffffffffffffffffffffffffffffffffffffff\n      and\n      0xffffffffffffffffffffffffffffffffffffffff\n      and\n      dup2\n      mstore\n      0x20\n      add\n      swap1\n      dup2\n      mstore\n      0x20\n      add\n      0x00\n      keccak256\n      0x00\n      swap1\n      sload\n      swap1\n      0x0100\n      exp\n      swap1\n      div\n      0xff\n      and\n        /* \"bootcamp/week3/day_4_multiSigWallet.sol\":670:699  ownerList[msg.sender] == true */\n      iszero\n      iszero\n      eq\n        /* \"bootcamp/week3/day_4_multiSigWallet.sol\":662:739  require(ownerList[msg.sender] == true, \"Your're not an owner of this wallet\") */\n      tag_161\n      jumpi\n      mload(0x40)\n      0x08c379a000000000000000000000000000000000000000000000000000000000\n      dup2\n      mstore\n      0x04\n      add\n      tag_162\n      swap1\n      tag_100\n      jump\t// in\n    tag_162:\n      mload(0x40)\n      dup1\n      swap2\n      sub\n      swap1\n      revert\n    tag_161:\n        /* \"bootcamp/week3/day_4_multiSigWallet.sol\":3520:3524  true */\n      0x01\n        /* \"bootcamp/week3/day_4_multiSigWallet.sol\":3485:3524  alreadyVoted[index][msg.sender] == true */\n      iszero\n      iszero\n        /* \"bootcamp/week3/day_4_multiSigWallet.sol\":3485:3497  alreadyVoted */\n      0x03\n        /* \"bootcamp/week3/day_4_multiSigWallet.sol\":3485:3504  alreadyVoted[index] */\n      0x00\n        /* \"bootcamp/week3/day_4_multiSigWallet.sol\":3498:3503  index */\n      dup4\n        /* \"bootcamp/week3/day_4_multiSigWallet.sol\":3485:3504  alreadyVoted[index] */\n      dup2\n      mstore\n      0x20\n      add\n      swap1\n      dup2\n      mstore\n      0x20\n      add\n      0x00\n      keccak256\n        /* \"bootcamp/week3/day_4_multiSigWallet.sol\":3485:3516  alreadyVoted[index][msg.sender] */\n      0x00\n        /* \"bootcamp/week3/day_4_multiSigWallet.sol\":3505:3515  msg.sender */\n      caller\n        /* \"bootcamp/week3/day_4_multiSigWallet.sol\":3485:3516  alreadyVoted[index][msg.sender] */\n      0xffffffffffffffffffffffffffffffffffffffff\n      and\n      0xffffffffffffffffffffffffffffffffffffffff\n      and\n      dup2\n      mstore\n      0x20\n      add\n      swap1\n      dup2\n      mstore\n      0x20\n      add\n      0x00\n      keccak256\n      0x00\n      swap1\n      sload\n      swap1\n      0x0100\n      exp\n      swap1\n      div\n      0xff\n      and\n        /* \"bootcamp/week3/day_4_multiSigWallet.sol\":3485:3524  alreadyVoted[index][msg.sender] == true */\n      iszero\n      iszero\n      eq\n        /* \"bootcamp/week3/day_4_multiSigWallet.sol\":3477:3550  require(alreadyVoted[index][msg.sender] == true, \"You haven't voted yet\") */\n      tag_164\n      jumpi\n      mload(0x40)\n      0x08c379a000000000000000000000000000000000000000000000000000000000\n      dup2\n      mstore\n      0x04\n      add\n      tag_165\n      swap1\n      tag_166\n      jump\t// in\n    tag_165:\n      mload(0x40)\n      dup1\n      swap2\n      sub\n      swap1\n      revert\n    tag_164:\n        /* \"bootcamp/week3/day_4_multiSigWallet.sol\":3593:3594  1 */\n      0x01\n        /* \"bootcamp/week3/day_4_multiSigWallet.sol\":3560:3572  transactions */\n      0x04\n        /* \"bootcamp/week3/day_4_multiSigWallet.sol\":3573:3578  index */\n      dup3\n        /* \"bootcamp/week3/day_4_multiSigWallet.sol\":3560:3579  transactions[index] */\n      dup2\n      sload\n      dup2\n      lt\n      tag_167\n      jumpi\n      tag_168\n      tag_118\n      jump\t// in\n    tag_168:\n    tag_167:\n      swap1\n      0x00\n      mstore\n      keccak256(0x00, 0x20)\n      swap1\n      0x04\n      mul\n      add\n        /* \"bootcamp/week3/day_4_multiSigWallet.sol\":3560:3589  transactions[index].approvals */\n      0x03\n      add\n      0x00\n        /* \"bootcamp/week3/day_4_multiSigWallet.sol\":3560:3594  transactions[index].approvals -= 1 */\n      dup3\n      dup3\n      sload\n      tag_170\n      swap2\n      swap1\n      tag_171\n      jump\t// in\n    tag_170:\n      swap3\n      pop\n      pop\n      dup2\n      swap1\n      sstore\n      pop\n        /* \"bootcamp/week3/day_4_multiSigWallet.sol\":3638:3643  false */\n      0x00\n        /* \"bootcamp/week3/day_4_multiSigWallet.sol\":3604:3616  alreadyVoted */\n      0x03\n        /* \"bootcamp/week3/day_4_multiSigWallet.sol\":3604:3623  alreadyVoted[index] */\n      0x00\n        /* \"bootcamp/week3/day_4_multiSigWallet.sol\":3617:3622  index */\n      dup4\n        /* \"bootcamp/week3/day_4_multiSigWallet.sol\":3604:3623  alreadyVoted[index] */\n      dup2\n      mstore\n      0x20\n      add\n      swap1\n      dup2\n      mstore\n      0x20\n      add\n      0x00\n      keccak256\n        /* \"bootcamp/week3/day_4_multiSigWallet.sol\":3604:3635  alreadyVoted[index][msg.sender] */\n      0x00\n        /* \"bootcamp/week3/day_4_multiSigWallet.sol\":3624:3634  msg.sender */\n      caller\n        /* \"bootcamp/week3/day_4_multiSigWallet.sol\":3604:3635  alreadyVoted[index][msg.sender] */\n      0xffffffffffffffffffffffffffffffffffffffff\n      and\n      0xffffffffffffffffffffffffffffffffffffffff\n      and\n      dup2\n      mstore\n      0x20\n      add\n      swap1\n      dup2\n      mstore\n      0x20\n      add\n      0x00\n      keccak256\n      0x00\n        /* \"bootcamp/week3/day_4_multiSigWallet.sol\":3604:3643  alreadyVoted[index][msg.sender] = false */\n      0x0100\n      exp\n      dup2\n      sload\n      dup2\n      0xff\n      mul\n      not\n      and\n      swap1\n      dup4\n      iszero\n      iszero\n      mul\n      or\n      swap1\n      sstore\n      pop\n        /* \"bootcamp/week3/day_4_multiSigWallet.sol\":3287:3650  function revokeOnTransaction(uint index) public OnlyOwner {... */\n      pop\n      jump\t// out\n        /* \"bootcamp/week3/day_4_multiSigWallet.sol\":2345:2460  function numberOfVotesRequire(uint numberOfVotes) public OnlyOwner {... */\n    tag_92:\n        /* \"bootcamp/week3/day_4_multiSigWallet.sol\":695:699  true */\n      0x01\n        /* \"bootcamp/week3/day_4_multiSigWallet.sol\":670:699  ownerList[msg.sender] == true */\n      iszero\n      iszero\n        /* \"bootcamp/week3/day_4_multiSigWallet.sol\":670:679  ownerList */\n      0x02\n        /* \"bootcamp/week3/day_4_multiSigWallet.sol\":670:691  ownerList[msg.sender] */\n      0x00\n        /* \"bootcamp/week3/day_4_multiSigWallet.sol\":680:690  msg.sender */\n      caller\n        /* \"bootcamp/week3/day_4_multiSigWallet.sol\":670:691  ownerList[msg.sender] */\n      0xffffffffffffffffffffffffffffffffffffffff\n      and\n      0xffffffffffffffffffffffffffffffffffffffff\n      and\n      dup2\n      mstore\n      0x20\n      add\n      swap1\n      dup2\n      mstore\n      0x20\n      add\n      0x00\n      keccak256\n      0x00\n      swap1\n      sload\n      swap1\n      0x0100\n      exp\n      swap1\n      div\n      0xff\n      and\n        /* \"bootcamp/week3/day_4_multiSigWallet.sol\":670:699  ownerList[msg.sender] == true */\n      iszero\n      iszero\n      eq\n        /* \"bootcamp/week3/day_4_multiSigWallet.sol\":662:739  require(ownerList[msg.sender] == true, \"Your're not an owner of this wallet\") */\n      tag_173\n      jumpi\n      mload(0x40)\n      0x08c379a000000000000000000000000000000000000000000000000000000000\n      dup2\n      mstore\n      0x04\n      add\n      tag_174\n      swap1\n      tag_100\n      jump\t// in\n    tag_174:\n      mload(0x40)\n      dup1\n      swap2\n      sub\n      swap1\n      revert\n    tag_173:\n        /* \"bootcamp/week3/day_4_multiSigWallet.sol\":2440:2453  numberOfVotes */\n      dup1\n        /* \"bootcamp/week3/day_4_multiSigWallet.sol\":2422:2437  approvalsNeeded */\n      0x01\n        /* \"bootcamp/week3/day_4_multiSigWallet.sol\":2422:2453  approvalsNeeded = numberOfVotes */\n      dup2\n      swap1\n      sstore\n      pop\n        /* \"bootcamp/week3/day_4_multiSigWallet.sol\":2345:2460  function numberOfVotesRequire(uint numberOfVotes) public OnlyOwner {... */\n      pop\n      jump\t// out\n        /* \"#utility.yul\":88:205   */\n    tag_177:\n        /* \"#utility.yul\":197:198   */\n      0x00\n        /* \"#utility.yul\":194:195   */\n      dup1\n        /* \"#utility.yul\":187:199   */\n      revert\n        /* \"#utility.yul\":334:411   */\n    tag_179:\n        /* \"#utility.yul\":371:378   */\n      0x00\n        /* \"#utility.yul\":400:405   */\n      dup2\n        /* \"#utility.yul\":389:405   */\n      swap1\n      pop\n        /* \"#utility.yul\":334:411   */\n      swap2\n      swap1\n      pop\n      jump\t// out\n        /* \"#utility.yul\":417:539   */\n    tag_180:\n        /* \"#utility.yul\":490:514   */\n      tag_215\n        /* \"#utility.yul\":508:513   */\n      dup2\n        /* \"#utility.yul\":490:514   */\n      tag_179\n      jump\t// in\n    tag_215:\n        /* \"#utility.yul\":483:488   */\n      dup2\n        /* \"#utility.yul\":480:515   */\n      eq\n        /* \"#utility.yul\":470:533   */\n      tag_216\n      jumpi\n        /* \"#utility.yul\":529:530   */\n      0x00\n        /* \"#utility.yul\":526:527   */\n      dup1\n        /* \"#utility.yul\":519:531   */\n      revert\n        /* \"#utility.yul\":470:533   */\n    tag_216:\n        /* \"#utility.yul\":417:539   */\n      pop\n      jump\t// out\n        /* \"#utility.yul\":545:684   */\n    tag_181:\n        /* \"#utility.yul\":591:596   */\n      0x00\n        /* \"#utility.yul\":629:635   */\n      dup2\n        /* \"#utility.yul\":616:636   */\n      calldataload\n        /* \"#utility.yul\":607:636   */\n      swap1\n      pop\n        /* \"#utility.yul\":645:678   */\n      tag_218\n        /* \"#utility.yul\":672:677   */\n      dup2\n        /* \"#utility.yul\":645:678   */\n      tag_180\n      jump\t// in\n    tag_218:\n        /* \"#utility.yul\":545:684   */\n      swap3\n      swap2\n      pop\n      pop\n      jump\t// out\n        /* \"#utility.yul\":690:1019   */\n    tag_25:\n        /* \"#utility.yul\":749:755   */\n      0x00\n        /* \"#utility.yul\":798:800   */\n      0x20\n        /* \"#utility.yul\":786:795   */\n      dup3\n        /* \"#utility.yul\":777:784   */\n      dup5\n        /* \"#utility.yul\":773:796   */\n      sub\n        /* \"#utility.yul\":769:801   */\n      slt\n        /* \"#utility.yul\":766:885   */\n      iszero\n      tag_220\n      jumpi\n        /* \"#utility.yul\":804:883   */\n      tag_221\n      tag_177\n      jump\t// in\n    tag_221:\n        /* \"#utility.yul\":766:885   */\n    tag_220:\n        /* \"#utility.yul\":924:925   */\n      0x00\n        /* \"#utility.yul\":949:1002   */\n      tag_222\n        /* \"#utility.yul\":994:1001   */\n      dup5\n        /* \"#utility.yul\":985:991   */\n      dup3\n        /* \"#utility.yul\":974:983   */\n      dup6\n        /* \"#utility.yul\":970:992   */\n      add\n        /* \"#utility.yul\":949:1002   */\n      tag_181\n      jump\t// in\n    tag_222:\n        /* \"#utility.yul\":939:1002   */\n      swap2\n      pop\n        /* \"#utility.yul\":895:1012   */\n      pop\n        /* \"#utility.yul\":690:1019   */\n      swap3\n      swap2\n      pop\n      pop\n      jump\t// out\n        /* \"#utility.yul\":1025:1151   */\n    tag_182:\n        /* \"#utility.yul\":1062:1069   */\n      0x00\n        /* \"#utility.yul\":1102:1144   */\n      0xffffffffffffffffffffffffffffffffffffffff\n        /* \"#utility.yul\":1095:1100   */\n      dup3\n        /* \"#utility.yul\":1091:1145   */\n      and\n        /* \"#utility.yul\":1080:1145   */\n      swap1\n      pop\n        /* \"#utility.yul\":1025:1151   */\n      swap2\n      swap1\n      pop\n      jump\t// out\n        /* \"#utility.yul\":1157:1253   */\n    tag_183:\n        /* \"#utility.yul\":1194:1201   */\n      0x00\n        /* \"#utility.yul\":1223:1247   */\n      tag_225\n        /* \"#utility.yul\":1241:1246   */\n      dup3\n        /* \"#utility.yul\":1223:1247   */\n      tag_182\n      jump\t// in\n    tag_225:\n        /* \"#utility.yul\":1212:1247   */\n      swap1\n      pop\n        /* \"#utility.yul\":1157:1253   */\n      swap2\n      swap1\n      pop\n      jump\t// out\n        /* \"#utility.yul\":1259:1377   */\n    tag_184:\n        /* \"#utility.yul\":1346:1370   */\n      tag_227\n        /* \"#utility.yul\":1364:1369   */\n      dup2\n        /* \"#utility.yul\":1346:1370   */\n      tag_183\n      jump\t// in\n    tag_227:\n        /* \"#utility.yul\":1341:1344   */\n      dup3\n        /* \"#utility.yul\":1334:1371   */\n      mstore\n        /* \"#utility.yul\":1259:1377   */\n      pop\n      pop\n      jump\t// out\n        /* \"#utility.yul\":1383:1605   */\n    tag_28:\n        /* \"#utility.yul\":1476:1480   */\n      0x00\n        /* \"#utility.yul\":1514:1516   */\n      0x20\n        /* \"#utility.yul\":1503:1512   */\n      dup3\n        /* \"#utility.yul\":1499:1517   */\n      add\n        /* \"#utility.yul\":1491:1517   */\n      swap1\n      pop\n        /* \"#utility.yul\":1527:1598   */\n      tag_229\n        /* \"#utility.yul\":1595:1596   */\n      0x00\n        /* \"#utility.yul\":1584:1593   */\n      dup4\n        /* \"#utility.yul\":1580:1597   */\n      add\n        /* \"#utility.yul\":1571:1577   */\n      dup5\n        /* \"#utility.yul\":1527:1598   */\n      tag_184\n      jump\t// in\n    tag_229:\n        /* \"#utility.yul\":1383:1605   */\n      swap3\n      swap2\n      pop\n      pop\n      jump\t// out\n        /* \"#utility.yul\":1611:1729   */\n    tag_185:\n        /* \"#utility.yul\":1698:1722   */\n      tag_231\n        /* \"#utility.yul\":1716:1721   */\n      dup2\n        /* \"#utility.yul\":1698:1722   */\n      tag_179\n      jump\t// in\n    tag_231:\n        /* \"#utility.yul\":1693:1696   */\n      dup3\n        /* \"#utility.yul\":1686:1723   */\n      mstore\n        /* \"#utility.yul\":1611:1729   */\n      pop\n      pop\n      jump\t// out\n        /* \"#utility.yul\":1735:1957   */\n    tag_33:\n        /* \"#utility.yul\":1828:1832   */\n      0x00\n        /* \"#utility.yul\":1866:1868   */\n      0x20\n        /* \"#utility.yul\":1855:1864   */\n      dup3\n        /* \"#utility.yul\":1851:1869   */\n      add\n        /* \"#utility.yul\":1843:1869   */\n      swap1\n      pop\n        /* \"#utility.yul\":1879:1950   */\n      tag_233\n        /* \"#utility.yul\":1947:1948   */\n      0x00\n        /* \"#utility.yul\":1936:1945   */\n      dup4\n        /* \"#utility.yul\":1932:1949   */\n      add\n        /* \"#utility.yul\":1923:1929   */\n      dup5\n        /* \"#utility.yul\":1879:1950   */\n      tag_185\n      jump\t// in\n    tag_233:\n        /* \"#utility.yul\":1735:1957   */\n      swap3\n      swap2\n      pop\n      pop\n      jump\t// out\n        /* \"#utility.yul\":1963:2085   */\n    tag_186:\n        /* \"#utility.yul\":2036:2060   */\n      tag_235\n        /* \"#utility.yul\":2054:2059   */\n      dup2\n        /* \"#utility.yul\":2036:2060   */\n      tag_183\n      jump\t// in\n    tag_235:\n        /* \"#utility.yul\":2029:2034   */\n      dup2\n        /* \"#utility.yul\":2026:2061   */\n      eq\n        /* \"#utility.yul\":2016:2079   */\n      tag_236\n      jumpi\n        /* \"#utility.yul\":2075:2076   */\n      0x00\n        /* \"#utility.yul\":2072:2073   */\n      dup1\n        /* \"#utility.yul\":2065:2077   */\n      revert\n        /* \"#utility.yul\":2016:2079   */\n    tag_236:\n        /* \"#utility.yul\":1963:2085   */\n      pop\n      jump\t// out\n        /* \"#utility.yul\":2091:2230   */\n    tag_187:\n        /* \"#utility.yul\":2137:2142   */\n      0x00\n        /* \"#utility.yul\":2175:2181   */\n      dup2\n        /* \"#utility.yul\":2162:2182   */\n      calldataload\n        /* \"#utility.yul\":2153:2182   */\n      swap1\n      pop\n        /* \"#utility.yul\":2191:2224   */\n      tag_238\n        /* \"#utility.yul\":2218:2223   */\n      dup2\n        /* \"#utility.yul\":2191:2224   */\n      tag_186\n      jump\t// in\n    tag_238:\n        /* \"#utility.yul\":2091:2230   */\n      swap3\n      swap2\n      pop\n      pop\n      jump\t// out\n        /* \"#utility.yul\":2236:2565   */\n    tag_37:\n        /* \"#utility.yul\":2295:2301   */\n      0x00\n        /* \"#utility.yul\":2344:2346   */\n      0x20\n        /* \"#utility.yul\":2332:2341   */\n      dup3\n        /* \"#utility.yul\":2323:2330   */\n      dup5\n        /* \"#utility.yul\":2319:2342   */\n      sub\n        /* \"#utility.yul\":2315:2347   */\n      slt\n        /* \"#utility.yul\":2312:2431   */\n      iszero\n      tag_240\n      jumpi\n        /* \"#utility.yul\":2350:2429   */\n      tag_241\n      tag_177\n      jump\t// in\n    tag_241:\n        /* \"#utility.yul\":2312:2431   */\n    tag_240:\n        /* \"#utility.yul\":2470:2471   */\n      0x00\n        /* \"#utility.yul\":2495:2548   */\n      tag_242\n        /* \"#utility.yul\":2540:2547   */\n      dup5\n        /* \"#utility.yul\":2531:2537   */\n      dup3\n        /* \"#utility.yul\":2520:2529   */\n      dup6\n        /* \"#utility.yul\":2516:2538   */\n      add\n        /* \"#utility.yul\":2495:2548   */\n      tag_187\n      jump\t// in\n    tag_242:\n        /* \"#utility.yul\":2485:2548   */\n      swap2\n      pop\n        /* \"#utility.yul\":2441:2558   */\n      pop\n        /* \"#utility.yul\":2236:2565   */\n      swap3\n      swap2\n      pop\n      pop\n      jump\t// out\n        /* \"#utility.yul\":2571:2661   */\n    tag_188:\n        /* \"#utility.yul\":2605:2612   */\n      0x00\n        /* \"#utility.yul\":2648:2653   */\n      dup2\n        /* \"#utility.yul\":2641:2654   */\n      iszero\n        /* \"#utility.yul\":2634:2655   */\n      iszero\n        /* \"#utility.yul\":2623:2655   */\n      swap1\n      pop\n        /* \"#utility.yul\":2571:2661   */\n      swap2\n      swap1\n      pop\n      jump\t// out\n        /* \"#utility.yul\":2667:2776   */\n    tag_189:\n        /* \"#utility.yul\":2748:2769   */\n      tag_245\n        /* \"#utility.yul\":2763:2768   */\n      dup2\n        /* \"#utility.yul\":2748:2769   */\n      tag_188\n      jump\t// in\n    tag_245:\n        /* \"#utility.yul\":2743:2746   */\n      dup3\n        /* \"#utility.yul\":2736:2770   */\n      mstore\n        /* \"#utility.yul\":2667:2776   */\n      pop\n      pop\n      jump\t// out\n        /* \"#utility.yul\":2782:2992   */\n    tag_40:\n        /* \"#utility.yul\":2869:2873   */\n      0x00\n        /* \"#utility.yul\":2907:2909   */\n      0x20\n        /* \"#utility.yul\":2896:2905   */\n      dup3\n        /* \"#utility.yul\":2892:2910   */\n      add\n        /* \"#utility.yul\":2884:2910   */\n      swap1\n      pop\n        /* \"#utility.yul\":2920:2985   */\n      tag_247\n        /* \"#utility.yul\":2982:2983   */\n      0x00\n        /* \"#utility.yul\":2971:2980   */\n      dup4\n        /* \"#utility.yul\":2967:2984   */\n      add\n        /* \"#utility.yul\":2958:2964   */\n      dup5\n        /* \"#utility.yul\":2920:2985   */\n      tag_189\n      jump\t// in\n    tag_247:\n        /* \"#utility.yul\":2782:2992   */\n      swap3\n      swap2\n      pop\n      pop\n      jump\t// out\n        /* \"#utility.yul\":2998:3472   */\n    tag_44:\n        /* \"#utility.yul\":3066:3072   */\n      0x00\n        /* \"#utility.yul\":3074:3080   */\n      dup1\n        /* \"#utility.yul\":3123:3125   */\n      0x40\n        /* \"#utility.yul\":3111:3120   */\n      dup4\n        /* \"#utility.yul\":3102:3109   */\n      dup6\n        /* \"#utility.yul\":3098:3121   */\n      sub\n        /* \"#utility.yul\":3094:3126   */\n      slt\n        /* \"#utility.yul\":3091:3210   */\n      iszero\n      tag_249\n      jumpi\n        /* \"#utility.yul\":3129:3208   */\n      tag_250\n      tag_177\n      jump\t// in\n    tag_250:\n        /* \"#utility.yul\":3091:3210   */\n    tag_249:\n        /* \"#utility.yul\":3249:3250   */\n      0x00\n        /* \"#utility.yul\":3274:3327   */\n      tag_251\n        /* \"#utility.yul\":3319:3326   */\n      dup6\n        /* \"#utility.yul\":3310:3316   */\n      dup3\n        /* \"#utility.yul\":3299:3308   */\n      dup7\n        /* \"#utility.yul\":3295:3317   */\n      add\n        /* \"#utility.yul\":3274:3327   */\n      tag_181\n      jump\t// in\n    tag_251:\n        /* \"#utility.yul\":3264:3327   */\n      swap3\n      pop\n        /* \"#utility.yul\":3220:3337   */\n      pop\n        /* \"#utility.yul\":3376:3378   */\n      0x20\n        /* \"#utility.yul\":3402:3455   */\n      tag_252\n        /* \"#utility.yul\":3447:3454   */\n      dup6\n        /* \"#utility.yul\":3438:3444   */\n      dup3\n        /* \"#utility.yul\":3427:3436   */\n      dup7\n        /* \"#utility.yul\":3423:3445   */\n      add\n        /* \"#utility.yul\":3402:3455   */\n      tag_187\n      jump\t// in\n    tag_252:\n        /* \"#utility.yul\":3392:3455   */\n      swap2\n      pop\n        /* \"#utility.yul\":3347:3465   */\n      pop\n        /* \"#utility.yul\":2998:3472   */\n      swap3\n      pop\n      swap3\n      swap1\n      pop\n      jump\t// out\n        /* \"#utility.yul\":3478:4019   */\n    tag_52:\n        /* \"#utility.yul\":3649:3653   */\n      0x00\n        /* \"#utility.yul\":3687:3690   */\n      0x80\n        /* \"#utility.yul\":3676:3685   */\n      dup3\n        /* \"#utility.yul\":3672:3691   */\n      add\n        /* \"#utility.yul\":3664:3691   */\n      swap1\n      pop\n        /* \"#utility.yul\":3701:3772   */\n      tag_254\n        /* \"#utility.yul\":3769:3770   */\n      0x00\n        /* \"#utility.yul\":3758:3767   */\n      dup4\n        /* \"#utility.yul\":3754:3771   */\n      add\n        /* \"#utility.yul\":3745:3751   */\n      dup8\n        /* \"#utility.yul\":3701:3772   */\n      tag_184\n      jump\t// in\n    tag_254:\n        /* \"#utility.yul\":3782:3854   */\n      tag_255\n        /* \"#utility.yul\":3850:3852   */\n      0x20\n        /* \"#utility.yul\":3839:3848   */\n      dup4\n        /* \"#utility.yul\":3835:3853   */\n      add\n        /* \"#utility.yul\":3826:3832   */\n      dup7\n        /* \"#utility.yul\":3782:3854   */\n      tag_185\n      jump\t// in\n    tag_255:\n        /* \"#utility.yul\":3864:3930   */\n      tag_256\n        /* \"#utility.yul\":3926:3928   */\n      0x40\n        /* \"#utility.yul\":3915:3924   */\n      dup4\n        /* \"#utility.yul\":3911:3929   */\n      add\n        /* \"#utility.yul\":3902:3908   */\n      dup6\n        /* \"#utility.yul\":3864:3930   */\n      tag_189\n      jump\t// in\n    tag_256:\n        /* \"#utility.yul\":3940:4012   */\n      tag_257\n        /* \"#utility.yul\":4008:4010   */\n      0x60\n        /* \"#utility.yul\":3997:4006   */\n      dup4\n        /* \"#utility.yul\":3993:4011   */\n      add\n        /* \"#utility.yul\":3984:3990   */\n      dup5\n        /* \"#utility.yul\":3940:4012   */\n      tag_185\n      jump\t// in\n    tag_257:\n        /* \"#utility.yul\":3478:4019   */\n      swap6\n      swap5\n      pop\n      pop\n      pop\n      pop\n      pop\n      jump\t// out\n        /* \"#utility.yul\":4025:4499   */\n    tag_69:\n        /* \"#utility.yul\":4093:4099   */\n      0x00\n        /* \"#utility.yul\":4101:4107   */\n      dup1\n        /* \"#utility.yul\":4150:4152   */\n      0x40\n        /* \"#utility.yul\":4138:4147   */\n      dup4\n        /* \"#utility.yul\":4129:4136   */\n      dup6\n        /* \"#utility.yul\":4125:4148   */\n      sub\n        /* \"#utility.yul\":4121:4153   */\n      slt\n        /* \"#utility.yul\":4118:4237   */\n      iszero\n      tag_259\n      jumpi\n        /* \"#utility.yul\":4156:4235   */\n      tag_260\n      tag_177\n      jump\t// in\n    tag_260:\n        /* \"#utility.yul\":4118:4237   */\n    tag_259:\n        /* \"#utility.yul\":4276:4277   */\n      0x00\n        /* \"#utility.yul\":4301:4354   */\n      tag_261\n        /* \"#utility.yul\":4346:4353   */\n      dup6\n        /* \"#utility.yul\":4337:4343   */\n      dup3\n        /* \"#utility.yul\":4326:4335   */\n      dup7\n        /* \"#utility.yul\":4322:4344   */\n      add\n        /* \"#utility.yul\":4301:4354   */\n      tag_187\n      jump\t// in\n    tag_261:\n        /* \"#utility.yul\":4291:4354   */\n      swap3\n      pop\n        /* \"#utility.yul\":4247:4364   */\n      pop\n        /* \"#utility.yul\":4403:4405   */\n      0x20\n        /* \"#utility.yul\":4429:4482   */\n      tag_262\n        /* \"#utility.yul\":4474:4481   */\n      dup6\n        /* \"#utility.yul\":4465:4471   */\n      dup3\n        /* \"#utility.yul\":4454:4463   */\n      dup7\n        /* \"#utility.yul\":4450:4472   */\n      add\n        /* \"#utility.yul\":4429:4482   */\n      tag_187\n      jump\t// in\n    tag_262:\n        /* \"#utility.yul\":4419:4482   */\n      swap2\n      pop\n        /* \"#utility.yul\":4374:4492   */\n      pop\n        /* \"#utility.yul\":4025:4499   */\n      swap3\n      pop\n      swap3\n      swap1\n      pop\n      jump\t// out\n        /* \"#utility.yul\":4505:4979   */\n    tag_79:\n        /* \"#utility.yul\":4573:4579   */\n      0x00\n        /* \"#utility.yul\":4581:4587   */\n      dup1\n        /* \"#utility.yul\":4630:4632   */\n      0x40\n        /* \"#utility.yul\":4618:4627   */\n      dup4\n        /* \"#utility.yul\":4609:4616   */\n      dup6\n        /* \"#utility.yul\":4605:4628   */\n      sub\n        /* \"#utility.yul\":4601:4633   */\n      slt\n        /* \"#utility.yul\":4598:4717   */\n      iszero\n      tag_264\n      jumpi\n        /* \"#utility.yul\":4636:4715   */\n      tag_265\n      tag_177\n      jump\t// in\n    tag_265:\n        /* \"#utility.yul\":4598:4717   */\n    tag_264:\n        /* \"#utility.yul\":4756:4757   */\n      0x00\n        /* \"#utility.yul\":4781:4834   */\n      tag_266\n        /* \"#utility.yul\":4826:4833   */\n      dup6\n        /* \"#utility.yul\":4817:4823   */\n      dup3\n        /* \"#utility.yul\":4806:4815   */\n      dup7\n        /* \"#utility.yul\":4802:4824   */\n      add\n        /* \"#utility.yul\":4781:4834   */\n      tag_187\n      jump\t// in\n    tag_266:\n        /* \"#utility.yul\":4771:4834   */\n      swap3\n      pop\n        /* \"#utility.yul\":4727:4844   */\n      pop\n        /* \"#utility.yul\":4883:4885   */\n      0x20\n        /* \"#utility.yul\":4909:4962   */\n      tag_267\n        /* \"#utility.yul\":4954:4961   */\n      dup6\n        /* \"#utility.yul\":4945:4951   */\n      dup3\n        /* \"#utility.yul\":4934:4943   */\n      dup7\n        /* \"#utility.yul\":4930:4952   */\n      add\n        /* \"#utility.yul\":4909:4962   */\n      tag_181\n      jump\t// in\n    tag_267:\n        /* \"#utility.yul\":4899:4962   */\n      swap2\n      pop\n        /* \"#utility.yul\":4854:4972   */\n      pop\n        /* \"#utility.yul\":4505:4979   */\n      swap3\n      pop\n      swap3\n      swap1\n      pop\n      jump\t// out\n        /* \"#utility.yul\":4985:5154   */\n    tag_190:\n        /* \"#utility.yul\":5069:5080   */\n      0x00\n        /* \"#utility.yul\":5103:5109   */\n      dup3\n        /* \"#utility.yul\":5098:5101   */\n      dup3\n        /* \"#utility.yul\":5091:5110   */\n      mstore\n        /* \"#utility.yul\":5143:5147   */\n      0x20\n        /* \"#utility.yul\":5138:5141   */\n      dup3\n        /* \"#utility.yul\":5134:5148   */\n      add\n        /* \"#utility.yul\":5119:5148   */\n      swap1\n      pop\n        /* \"#utility.yul\":4985:5154   */\n      swap3\n      swap2\n      pop\n      pop\n      jump\t// out\n        /* \"#utility.yul\":5160:5382   */\n    tag_191:\n        /* \"#utility.yul\":5300:5334   */\n      0x596f7572277265206e6f7420616e206f776e6572206f6620746869732077616c\n        /* \"#utility.yul\":5296:5297   */\n      0x00\n        /* \"#utility.yul\":5288:5294   */\n      dup3\n        /* \"#utility.yul\":5284:5298   */\n      add\n        /* \"#utility.yul\":5277:5335   */\n      mstore\n        /* \"#utility.yul\":5369:5374   */\n      0x6c65740000000000000000000000000000000000000000000000000000000000\n        /* \"#utility.yul\":5364:5366   */\n      0x20\n        /* \"#utility.yul\":5356:5362   */\n      dup3\n        /* \"#utility.yul\":5352:5367   */\n      add\n        /* \"#utility.yul\":5345:5375   */\n      mstore\n        /* \"#utility.yul\":5160:5382   */\n      pop\n      jump\t// out\n        /* \"#utility.yul\":5388:5754   */\n    tag_192:\n        /* \"#utility.yul\":5530:5533   */\n      0x00\n        /* \"#utility.yul\":5551:5618   */\n      tag_271\n        /* \"#utility.yul\":5615:5617   */\n      0x23\n        /* \"#utility.yul\":5610:5613   */\n      dup4\n        /* \"#utility.yul\":5551:5618   */\n      tag_190\n      jump\t// in\n    tag_271:\n        /* \"#utility.yul\":5544:5618   */\n      swap2\n      pop\n        /* \"#utility.yul\":5627:5720   */\n      tag_272\n        /* \"#utility.yul\":5716:5719   */\n      dup3\n        /* \"#utility.yul\":5627:5720   */\n      tag_191\n      jump\t// in\n    tag_272:\n        /* \"#utility.yul\":5745:5747   */\n      0x40\n        /* \"#utility.yul\":5740:5743   */\n      dup3\n        /* \"#utility.yul\":5736:5748   */\n      add\n        /* \"#utility.yul\":5729:5748   */\n      swap1\n      pop\n        /* \"#utility.yul\":5388:5754   */\n      swap2\n      swap1\n      pop\n      jump\t// out\n        /* \"#utility.yul\":5760:6179   */\n    tag_100:\n        /* \"#utility.yul\":5926:5930   */\n      0x00\n        /* \"#utility.yul\":5964:5966   */\n      0x20\n        /* \"#utility.yul\":5953:5962   */\n      dup3\n        /* \"#utility.yul\":5949:5967   */\n      add\n        /* \"#utility.yul\":5941:5967   */\n      swap1\n      pop\n        /* \"#utility.yul\":6013:6022   */\n      dup2\n        /* \"#utility.yul\":6007:6011   */\n      dup2\n        /* \"#utility.yul\":6003:6023   */\n      sub\n        /* \"#utility.yul\":5999:6000   */\n      0x00\n        /* \"#utility.yul\":5988:5997   */\n      dup4\n        /* \"#utility.yul\":5984:6001   */\n      add\n        /* \"#utility.yul\":5977:6024   */\n      mstore\n        /* \"#utility.yul\":6041:6172   */\n      tag_274\n        /* \"#utility.yul\":6167:6171   */\n      dup2\n        /* \"#utility.yul\":6041:6172   */\n      tag_192\n      jump\t// in\n    tag_274:\n        /* \"#utility.yul\":6033:6172   */\n      swap1\n      pop\n        /* \"#utility.yul\":5760:6179   */\n      swap2\n      swap1\n      pop\n      jump\t// out\n        /* \"#utility.yul\":6185:6408   */\n    tag_193:\n        /* \"#utility.yul\":6325:6359   */\n      0x596f7527766520616c726561647920766f746564206f6e207468697320616464\n        /* \"#utility.yul\":6321:6322   */\n      0x00\n        /* \"#utility.yul\":6313:6319   */\n      dup3\n        /* \"#utility.yul\":6309:6323   */\n      add\n        /* \"#utility.yul\":6302:6360   */\n      mstore\n        /* \"#utility.yul\":6394:6400   */\n      0x7265737300000000000000000000000000000000000000000000000000000000\n        /* \"#utility.yul\":6389:6391   */\n      0x20\n        /* \"#utility.yul\":6381:6387   */\n      dup3\n        /* \"#utility.yul\":6377:6392   */\n      add\n        /* \"#utility.yul\":6370:6401   */\n      mstore\n        /* \"#utility.yul\":6185:6408   */\n      pop\n      jump\t// out\n        /* \"#utility.yul\":6414:6780   */\n    tag_194:\n        /* \"#utility.yul\":6556:6559   */\n      0x00\n        /* \"#utility.yul\":6577:6644   */\n      tag_277\n        /* \"#utility.yul\":6641:6643   */\n      0x24\n        /* \"#utility.yul\":6636:6639   */\n      dup4\n        /* \"#utility.yul\":6577:6644   */\n      tag_190\n      jump\t// in\n    tag_277:\n        /* \"#utility.yul\":6570:6644   */\n      swap2\n      pop\n        /* \"#utility.yul\":6653:6746   */\n      tag_278\n        /* \"#utility.yul\":6742:6745   */\n      dup3\n        /* \"#utility.yul\":6653:6746   */\n      tag_193\n      jump\t// in\n    tag_278:\n        /* \"#utility.yul\":6771:6773   */\n      0x40\n        /* \"#utility.yul\":6766:6769   */\n      dup3\n        /* \"#utility.yul\":6762:6774   */\n      add\n        /* \"#utility.yul\":6755:6774   */\n      swap1\n      pop\n        /* \"#utility.yul\":6414:6780   */\n      swap2\n      swap1\n      pop\n      jump\t// out\n        /* \"#utility.yul\":6786:7205   */\n    tag_104:\n        /* \"#utility.yul\":6952:6956   */\n      0x00\n        /* \"#utility.yul\":6990:6992   */\n      0x20\n        /* \"#utility.yul\":6979:6988   */\n      dup3\n        /* \"#utility.yul\":6975:6993   */\n      add\n        /* \"#utility.yul\":6967:6993   */\n      swap1\n      pop\n        /* \"#utility.yul\":7039:7048   */\n      dup2\n        /* \"#utility.yul\":7033:7037   */\n      dup2\n        /* \"#utility.yul\":7029:7049   */\n      sub\n        /* \"#utility.yul\":7025:7026   */\n      0x00\n        /* \"#utility.yul\":7014:7023   */\n      dup4\n        /* \"#utility.yul\":7010:7027   */\n      add\n        /* \"#utility.yul\":7003:7050   */\n      mstore\n        /* \"#utility.yul\":7067:7198   */\n      tag_280\n        /* \"#utility.yul\":7193:7197   */\n      dup2\n        /* \"#utility.yul\":7067:7198   */\n      tag_194\n      jump\t// in\n    tag_280:\n        /* \"#utility.yul\":7059:7198   */\n      swap1\n      pop\n        /* \"#utility.yul\":6786:7205   */\n      swap2\n      swap1\n      pop\n      jump\t// out\n        /* \"#utility.yul\":7211:7391   */\n    tag_195:\n        /* \"#utility.yul\":7259:7336   */\n      0x4e487b7100000000000000000000000000000000000000000000000000000000\n        /* \"#utility.yul\":7256:7257   */\n      0x00\n        /* \"#utility.yul\":7249:7337   */\n      mstore\n        /* \"#utility.yul\":7356:7360   */\n      0x11\n        /* \"#utility.yul\":7353:7354   */\n      0x04\n        /* \"#utility.yul\":7346:7361   */\n      mstore\n        /* \"#utility.yul\":7380:7384   */\n      0x24\n        /* \"#utility.yul\":7377:7378   */\n      0x00\n        /* \"#utility.yul\":7370:7385   */\n      revert\n        /* \"#utility.yul\":7397:7702   */\n    tag_106:\n        /* \"#utility.yul\":7437:7440   */\n      0x00\n        /* \"#utility.yul\":7456:7476   */\n      tag_283\n        /* \"#utility.yul\":7474:7475   */\n      dup3\n        /* \"#utility.yul\":7456:7476   */\n      tag_179\n      jump\t// in\n    tag_283:\n        /* \"#utility.yul\":7451:7476   */\n      swap2\n      pop\n        /* \"#utility.yul\":7490:7510   */\n      tag_284\n        /* \"#utility.yul\":7508:7509   */\n      dup4\n        /* \"#utility.yul\":7490:7510   */\n      tag_179\n      jump\t// in\n    tag_284:\n        /* \"#utility.yul\":7485:7510   */\n      swap3\n      pop\n        /* \"#utility.yul\":7644:7645   */\n      dup3\n        /* \"#utility.yul\":7576:7642   */\n      0xffffffffffffffffffffffffffffffffffffffffffffffffffffffffffffffff\n        /* \"#utility.yul\":7572:7646   */\n      sub\n        /* \"#utility.yul\":7569:7570   */\n      dup3\n        /* \"#utility.yul\":7566:7647   */\n      gt\n        /* \"#utility.yul\":7563:7670   */\n      iszero\n      tag_285\n      jumpi\n        /* \"#utility.yul\":7650:7668   */\n      tag_286\n      tag_195\n      jump\t// in\n    tag_286:\n        /* \"#utility.yul\":7563:7670   */\n    tag_285:\n        /* \"#utility.yul\":7694:7695   */\n      dup3\n        /* \"#utility.yul\":7691:7692   */\n      dup3\n        /* \"#utility.yul\":7687:7696   */\n      add\n        /* \"#utility.yul\":7680:7696   */\n      swap1\n      pop\n        /* \"#utility.yul\":7397:7702   */\n      swap3\n      swap2\n      pop\n      pop\n      jump\t// out\n        /* \"#utility.yul\":7708:7878   */\n    tag_196:\n        /* \"#utility.yul\":7848:7870   */\n      0x596f7527766520616c726561647920766f746564000000000000000000000000\n        /* \"#utility.yul\":7844:7845   */\n      0x00\n        /* \"#utility.yul\":7836:7842   */\n      dup3\n        /* \"#utility.yul\":7832:7846   */\n      add\n        /* \"#utility.yul\":7825:7871   */\n      mstore\n        /* \"#utility.yul\":7708:7878   */\n      pop\n      jump\t// out\n        /* \"#utility.yul\":7884:8250   */\n    tag_197:\n        /* \"#utility.yul\":8026:8029   */\n      0x00\n        /* \"#utility.yul\":8047:8114   */\n      tag_289\n        /* \"#utility.yul\":8111:8113   */\n      0x14\n        /* \"#utility.yul\":8106:8109   */\n      dup4\n        /* \"#utility.yul\":8047:8114   */\n      tag_190\n      jump\t// in\n    tag_289:\n        /* \"#utility.yul\":8040:8114   */\n      swap2\n      pop\n        /* \"#utility.yul\":8123:8216   */\n      tag_290\n        /* \"#utility.yul\":8212:8215   */\n      dup3\n        /* \"#utility.yul\":8123:8216   */\n      tag_196\n      jump\t// in\n    tag_290:\n        /* \"#utility.yul\":8241:8243   */\n      0x20\n        /* \"#utility.yul\":8236:8239   */\n      dup3\n        /* \"#utility.yul\":8232:8244   */\n      add\n        /* \"#utility.yul\":8225:8244   */\n      swap1\n      pop\n        /* \"#utility.yul\":7884:8250   */\n      swap2\n      swap1\n      pop\n      jump\t// out\n        /* \"#utility.yul\":8256:8675   */\n    tag_115:\n        /* \"#utility.yul\":8422:8426   */\n      0x00\n        /* \"#utility.yul\":8460:8462   */\n      0x20\n        /* \"#utility.yul\":8449:8458   */\n      dup3\n        /* \"#utility.yul\":8445:8463   */\n      add\n        /* \"#utility.yul\":8437:8463   */\n      swap1\n      pop\n        /* \"#utility.yul\":8509:8518   */\n      dup2\n        /* \"#utility.yul\":8503:8507   */\n      dup2\n        /* \"#utility.yul\":8499:8519   */\n      sub\n        /* \"#utility.yul\":8495:8496   */\n      0x00\n        /* \"#utility.yul\":8484:8493   */\n      dup4\n        /* \"#utility.yul\":8480:8497   */\n      add\n        /* \"#utility.yul\":8473:8520   */\n      mstore\n        /* \"#utility.yul\":8537:8668   */\n      tag_292\n        /* \"#utility.yul\":8663:8667   */\n      dup2\n        /* \"#utility.yul\":8537:8668   */\n      tag_197\n      jump\t// in\n    tag_292:\n        /* \"#utility.yul\":8529:8668   */\n      swap1\n      pop\n        /* \"#utility.yul\":8256:8675   */\n      swap2\n      swap1\n      pop\n      jump\t// out\n        /* \"#utility.yul\":8681:8861   */\n    tag_118:\n        /* \"#utility.yul\":8729:8806   */\n      0x4e487b7100000000000000000000000000000000000000000000000000000000\n        /* \"#utility.yul\":8726:8727   */\n      0x00\n        /* \"#utility.yul\":8719:8807   */\n      mstore\n        /* \"#utility.yul\":8826:8830   */\n      0x32\n        /* \"#utility.yul\":8823:8824   */\n      0x04\n        /* \"#utility.yul\":8816:8831   */\n      mstore\n        /* \"#utility.yul\":8850:8854   */\n      0x24\n        /* \"#utility.yul\":8847:8848   */\n      0x00\n        /* \"#utility.yul\":8840:8855   */\n      revert\n        /* \"#utility.yul\":8867:9037   */\n    tag_198:\n        /* \"#utility.yul\":9007:9029   */\n      0x4e6f7420656e6f75676820617070726f76616c73000000000000000000000000\n        /* \"#utility.yul\":9003:9004   */\n      0x00\n        /* \"#utility.yul\":8995:9001   */\n      dup3\n        /* \"#utility.yul\":8991:9005   */\n      add\n        /* \"#utility.yul\":8984:9030   */\n      mstore\n        /* \"#utility.yul\":8867:9037   */\n      pop\n      jump\t// out\n        /* \"#utility.yul\":9043:9409   */\n    tag_199:\n        /* \"#utility.yul\":9185:9188   */\n      0x00\n        /* \"#utility.yul\":9206:9273   */\n      tag_296\n        /* \"#utility.yul\":9270:9272   */\n      0x14\n        /* \"#utility.yul\":9265:9268   */\n      dup4\n        /* \"#utility.yul\":9206:9273   */\n      tag_190\n      jump\t// in\n    tag_296:\n        /* \"#utility.yul\":9199:9273   */\n      swap2\n      pop\n        /* \"#utility.yul\":9282:9375   */\n      tag_297\n        /* \"#utility.yul\":9371:9374   */\n      dup3\n        /* \"#utility.yul\":9282:9375   */\n      tag_198\n      jump\t// in\n    tag_297:\n        /* \"#utility.yul\":9400:9402   */\n      0x20\n        /* \"#utility.yul\":9395:9398   */\n      dup3\n        /* \"#utility.yul\":9391:9403   */\n      add\n        /* \"#utility.yul\":9384:9403   */\n      swap1\n      pop\n        /* \"#utility.yul\":9043:9409   */\n      swap2\n      swap1\n      pop\n      jump\t// out\n        /* \"#utility.yul\":9415:9834   */\n    tag_130:\n        /* \"#utility.yul\":9581:9585   */\n      0x00\n        /* \"#utility.yul\":9619:9621   */\n      0x20\n        /* \"#utility.yul\":9608:9617   */\n      dup3\n        /* \"#utility.yul\":9604:9622   */\n      add\n        /* \"#utility.yul\":9596:9622   */\n      swap1\n      pop\n        /* \"#utility.yul\":9668:9677   */\n      dup2\n        /* \"#utility.yul\":9662:9666   */\n      dup2\n        /* \"#utility.yul\":9658:9678   */\n      sub\n        /* \"#utility.yul\":9654:9655   */\n      0x00\n        /* \"#utility.yul\":9643:9652   */\n      dup4\n        /* \"#utility.yul\":9639:9656   */\n      add\n        /* \"#utility.yul\":9632:9679   */\n      mstore\n        /* \"#utility.yul\":9696:9827   */\n      tag_299\n        /* \"#utility.yul\":9822:9826   */\n      dup2\n        /* \"#utility.yul\":9696:9827   */\n      tag_199\n      jump\t// in\n    tag_299:\n        /* \"#utility.yul\":9688:9827   */\n      swap1\n      pop\n        /* \"#utility.yul\":9415:9834   */\n      swap2\n      swap1\n      pop\n      jump\t// out\n        /* \"#utility.yul\":9840:10003   */\n    tag_200:\n        /* \"#utility.yul\":9980:9995   */\n      0x416c726561647920766f74656400000000000000000000000000000000000000\n        /* \"#utility.yul\":9976:9977   */\n      0x00\n        /* \"#utility.yul\":9968:9974   */\n      dup3\n        /* \"#utility.yul\":9964:9978   */\n      add\n        /* \"#utility.yul\":9957:9996   */\n      mstore\n        /* \"#utility.yul\":9840:10003   */\n      pop\n      jump\t// out\n        /* \"#utility.yul\":10009:10375   */\n    tag_201:\n        /* \"#utility.yul\":10151:10154   */\n      0x00\n        /* \"#utility.yul\":10172:10239   */\n      tag_302\n        /* \"#utility.yul\":10236:10238   */\n      0x0d\n        /* \"#utility.yul\":10231:10234   */\n      dup4\n        /* \"#utility.yul\":10172:10239   */\n      tag_190\n      jump\t// in\n    tag_302:\n        /* \"#utility.yul\":10165:10239   */\n      swap2\n      pop\n        /* \"#utility.yul\":10248:10341   */\n      tag_303\n        /* \"#utility.yul\":10337:10340   */\n      dup3\n        /* \"#utility.yul\":10248:10341   */\n      tag_200\n      jump\t// in\n    tag_303:\n        /* \"#utility.yul\":10366:10368   */\n      0x20\n        /* \"#utility.yul\":10361:10364   */\n      dup3\n        /* \"#utility.yul\":10357:10369   */\n      add\n        /* \"#utility.yul\":10350:10369   */\n      swap1\n      pop\n        /* \"#utility.yul\":10009:10375   */\n      swap2\n      swap1\n      pop\n      jump\t// out\n        /* \"#utility.yul\":10381:10800   */\n    tag_136:\n        /* \"#utility.yul\":10547:10551   */\n      0x00\n        /* \"#utility.yul\":10585:10587   */\n      0x20\n        /* \"#utility.yul\":10574:10583   */\n      dup3\n        /* \"#utility.yul\":10570:10588   */\n      add\n        /* \"#utility.yul\":10562:10588   */\n      swap1\n      pop\n        /* \"#utility.yul\":10634:10643   */\n      dup2\n        /* \"#utility.yul\":10628:10632   */\n      dup2\n        /* \"#utility.yul\":10624:10644   */\n      sub\n        /* \"#utility.yul\":10620:10621   */\n      0x00\n        /* \"#utility.yul\":10609:10618   */\n      dup4\n        /* \"#utility.yul\":10605:10622   */\n      add\n        /* \"#utility.yul\":10598:10645   */\n      mstore\n        /* \"#utility.yul\":10662:10793   */\n      tag_305\n        /* \"#utility.yul\":10788:10792   */\n      dup2\n        /* \"#utility.yul\":10662:10793   */\n      tag_201\n      jump\t// in\n    tag_305:\n        /* \"#utility.yul\":10654:10793   */\n      swap1\n      pop\n        /* \"#utility.yul\":10381:10800   */\n      swap2\n      swap1\n      pop\n      jump\t// out\n        /* \"#utility.yul\":10806:10953   */\n    tag_202:\n        /* \"#utility.yul\":10907:10918   */\n      0x00\n        /* \"#utility.yul\":10944:10947   */\n      dup2\n        /* \"#utility.yul\":10929:10947   */\n      swap1\n      pop\n        /* \"#utility.yul\":10806:10953   */\n      swap3\n      swap2\n      pop\n      pop\n      jump\t// out\n        /* \"#utility.yul\":10959:11073   */\n    tag_203:\n      pop\n      jump\t// out\n        /* \"#utility.yul\":11079:11477   */\n    tag_204:\n        /* \"#utility.yul\":11238:11241   */\n      0x00\n        /* \"#utility.yul\":11259:11342   */\n      tag_309\n        /* \"#utility.yul\":11340:11341   */\n      0x00\n        /* \"#utility.yul\":11335:11338   */\n      dup4\n        /* \"#utility.yul\":11259:11342   */\n      tag_202\n      jump\t// in\n    tag_309:\n        /* \"#utility.yul\":11252:11342   */\n      swap2\n      pop\n        /* \"#utility.yul\":11351:11444   */\n      tag_310\n        /* \"#utility.yul\":11440:11443   */\n      dup3\n        /* \"#utility.yul\":11351:11444   */\n      tag_203\n      jump\t// in\n    tag_310:\n        /* \"#utility.yul\":11469:11470   */\n      0x00\n        /* \"#utility.yul\":11464:11467   */\n      dup3\n        /* \"#utility.yul\":11460:11471   */\n      add\n        /* \"#utility.yul\":11453:11471   */\n      swap1\n      pop\n        /* \"#utility.yul\":11079:11477   */\n      swap2\n      swap1\n      pop\n      jump\t// out\n        /* \"#utility.yul\":11483:11862   */\n    tag_144:\n        /* \"#utility.yul\":11667:11670   */\n      0x00\n        /* \"#utility.yul\":11689:11836   */\n      tag_312\n        /* \"#utility.yul\":11832:11835   */\n      dup3\n        /* \"#utility.yul\":11689:11836   */\n      tag_204\n      jump\t// in\n    tag_312:\n        /* \"#utility.yul\":11682:11836   */\n      swap2\n      pop\n        /* \"#utility.yul\":11853:11856   */\n      dup2\n        /* \"#utility.yul\":11846:11856   */\n      swap1\n      pop\n        /* \"#utility.yul\":11483:11862   */\n      swap2\n      swap1\n      pop\n      jump\t// out\n        /* \"#utility.yul\":11868:12046   */\n    tag_205:\n        /* \"#utility.yul\":12008:12038   */\n      0x596f7520646f6e2774206861766520656e6f75676820746f6b656e7300000000\n        /* \"#utility.yul\":12004:12005   */\n      0x00\n        /* \"#utility.yul\":11996:12002   */\n      dup3\n        /* \"#utility.yul\":11992:12006   */\n      add\n        /* \"#utility.yul\":11985:12039   */\n      mstore\n        /* \"#utility.yul\":11868:12046   */\n      pop\n      jump\t// out\n        /* \"#utility.yul\":12052:12418   */\n    tag_206:\n        /* \"#utility.yul\":12194:12197   */\n      0x00\n        /* \"#utility.yul\":12215:12282   */\n      tag_315\n        /* \"#utility.yul\":12279:12281   */\n      0x1c\n        /* \"#utility.yul\":12274:12277   */\n      dup4\n        /* \"#utility.yul\":12215:12282   */\n      tag_190\n      jump\t// in\n    tag_315:\n        /* \"#utility.yul\":12208:12282   */\n      swap2\n      pop\n        /* \"#utility.yul\":12291:12384   */\n      tag_316\n        /* \"#utility.yul\":12380:12383   */\n      dup3\n        /* \"#utility.yul\":12291:12384   */\n      tag_205\n      jump\t// in\n    tag_316:\n        /* \"#utility.yul\":12409:12411   */\n      0x20\n        /* \"#utility.yul\":12404:12407   */\n      dup3\n        /* \"#utility.yul\":12400:12412   */\n      add\n        /* \"#utility.yul\":12393:12412   */\n      swap1\n      pop\n        /* \"#utility.yul\":12052:12418   */\n      swap2\n      swap1\n      pop\n      jump\t// out\n        /* \"#utility.yul\":12424:12843   */\n    tag_150:\n        /* \"#utility.yul\":12590:12594   */\n      0x00\n        /* \"#utility.yul\":12628:12630   */\n      0x20\n        /* \"#utility.yul\":12617:12626   */\n      dup3\n        /* \"#utility.yul\":12613:12631   */\n      add\n        /* \"#utility.yul\":12605:12631   */\n      swap1\n      pop\n        /* \"#utility.yul\":12677:12686   */\n      dup2\n        /* \"#utility.yul\":12671:12675   */\n      dup2\n        /* \"#utility.yul\":12667:12687   */\n      sub\n        /* \"#utility.yul\":12663:12664   */\n      0x00\n        /* \"#utility.yul\":12652:12661   */\n      dup4\n        /* \"#utility.yul\":12648:12665   */\n      add\n        /* \"#utility.yul\":12641:12688   */\n      mstore\n        /* \"#utility.yul\":12705:12836   */\n      tag_318\n        /* \"#utility.yul\":12831:12835   */\n      dup2\n        /* \"#utility.yul\":12705:12836   */\n      tag_206\n      jump\t// in\n    tag_318:\n        /* \"#utility.yul\":12697:12836   */\n      swap1\n      pop\n        /* \"#utility.yul\":12424:12843   */\n      swap2\n      swap1\n      pop\n      jump\t// out\n        /* \"#utility.yul\":12849:13020   */\n    tag_207:\n        /* \"#utility.yul\":12989:13012   */\n      0x596f7520686176656e277420766f746564207965740000000000000000000000\n        /* \"#utility.yul\":12985:12986   */\n      0x00\n        /* \"#utility.yul\":12977:12983   */\n      dup3\n        /* \"#utility.yul\":12973:12987   */\n      add\n        /* \"#utility.yul\":12966:13013   */\n      mstore\n        /* \"#utility.yul\":12849:13020   */\n      pop\n      jump\t// out\n        /* \"#utility.yul\":13026:13392   */\n    tag_208:\n        /* \"#utility.yul\":13168:13171   */\n      0x00\n        /* \"#utility.yul\":13189:13256   */\n      tag_321\n        /* \"#utility.yul\":13253:13255   */\n      0x15\n        /* \"#utility.yul\":13248:13251   */\n      dup4\n        /* \"#utility.yul\":13189:13256   */\n      tag_190\n      jump\t// in\n    tag_321:\n        /* \"#utility.yul\":13182:13256   */\n      swap2\n      pop\n        /* \"#utility.yul\":13265:13358   */\n      tag_322\n        /* \"#utility.yul\":13354:13357   */\n      dup3\n        /* \"#utility.yul\":13265:13358   */\n      tag_207\n      jump\t// in\n    tag_322:\n        /* \"#utility.yul\":13383:13385   */\n      0x20\n        /* \"#utility.yul\":13378:13381   */\n      dup3\n        /* \"#utility.yul\":13374:13386   */\n      add\n        /* \"#utility.yul\":13367:13386   */\n      swap1\n      pop\n        /* \"#utility.yul\":13026:13392   */\n      swap2\n      swap1\n      pop\n      jump\t// out\n        /* \"#utility.yul\":13398:13817   */\n    tag_166:\n        /* \"#utility.yul\":13564:13568   */\n      0x00\n        /* \"#utility.yul\":13602:13604   */\n      0x20\n        /* \"#utility.yul\":13591:13600   */\n      dup3\n        /* \"#utility.yul\":13587:13605   */\n      add\n        /* \"#utility.yul\":13579:13605   */\n      swap1\n      pop\n        /* \"#utility.yul\":13651:13660   */\n      dup2\n        /* \"#utility.yul\":13645:13649   */\n      dup2\n        /* \"#utility.yul\":13641:13661   */\n      sub\n        /* \"#utility.yul\":13637:13638   */\n      0x00\n        /* \"#utility.yul\":13626:13635   */\n      dup4\n        /* \"#utility.yul\":13622:13639   */\n      add\n        /* \"#utility.yul\":13615:13662   */\n      mstore\n        /* \"#utility.yul\":13679:13810   */\n      tag_324\n        /* \"#utility.yul\":13805:13809   */\n      dup2\n        /* \"#utility.yul\":13679:13810   */\n      tag_208\n      jump\t// in\n    tag_324:\n        /* \"#utility.yul\":13671:13810   */\n      swap1\n      pop\n        /* \"#utility.yul\":13398:13817   */\n      swap2\n      swap1\n      pop\n      jump\t// out\n        /* \"#utility.yul\":13823:14014   */\n    tag_171:\n        /* \"#utility.yul\":13863:13867   */\n      0x00\n        /* \"#utility.yul\":13883:13903   */\n      tag_326\n        /* \"#utility.yul\":13901:13902   */\n      dup3\n        /* \"#utility.yul\":13883:13903   */\n      tag_179\n      jump\t// in\n    tag_326:\n        /* \"#utility.yul\":13878:13903   */\n      swap2\n      pop\n        /* \"#utility.yul\":13917:13937   */\n      tag_327\n        /* \"#utility.yul\":13935:13936   */\n      dup4\n        /* \"#utility.yul\":13917:13937   */\n      tag_179\n      jump\t// in\n    tag_327:\n        /* \"#utility.yul\":13912:13937   */\n      swap3\n      pop\n        /* \"#utility.yul\":13956:13957   */\n      dup3\n        /* \"#utility.yul\":13953:13954   */\n      dup3\n        /* \"#utility.yul\":13950:13958   */\n      lt\n        /* \"#utility.yul\":13947:13981   */\n      iszero\n      tag_328\n      jumpi\n        /* \"#utility.yul\":13961:13979   */\n      tag_329\n      tag_195\n      jump\t// in\n    tag_329:\n        /* \"#utility.yul\":13947:13981   */\n    tag_328:\n        /* \"#utility.yul\":14006:14007   */\n      dup3\n        /* \"#utility.yul\":14003:14004   */\n      dup3\n        /* \"#utility.yul\":13999:14008   */\n      sub\n        /* \"#utility.yul\":13991:14008   */\n      swap1\n      pop\n        /* \"#utility.yul\":13823:14014   */\n      swap3\n      swap2\n      pop\n      pop\n      jump\t// out\n\n    auxdata: 0xa2646970667358221220228650f0e645148804f439b916fe2e336f7c49b56db10cb36ad7921b66657aa364736f6c634300080d0033\n}\n",
				"bytecode": {
					"linkReferences": {},
					"object": "6080604052600260015534801561001557600080fd5b506000339080600181540180825580915050600190039060005260206000200160009091909190916101000a81548173ffffffffffffffffffffffffffffffffffffffff021916908373ffffffffffffffffffffffffffffffffffffffff1602179055506001600260003373ffffffffffffffffffffffffffffffffffffffff1673ffffffffffffffffffffffffffffffffffffffff16815260200190815260200160002060006101000a81548160ff021916908315150217905550600073ab8483f64d9c6d1ecf9b849ae677dd3315835cb29080600181540180825580915050600190039060005260206000200160009091909190916101000a81548173ffffffffffffffffffffffffffffffffffffffff021916908373ffffffffffffffffffffffffffffffffffffffff16021790555060016002600073ab8483f64d9c6d1ecf9b849ae677dd3315835cb273ffffffffffffffffffffffffffffffffffffffff1673ffffffffffffffffffffffffffffffffffffffff16815260200190815260200160002060006101000a81548160ff02191690831515021790555061183b806101c36000396000f3fe6080604052600436106100e15760003560e01c8063d579b6961161007f578063f19a668211610059578063f19a668214610304578063f5358aa81461032d578063f9a7c0b114610358578063fc1983ab14610381576100e8565b8063d579b69614610275578063e88aca401461029e578063ee22610b146102db576100e8565b806360c8b28d116100bb57806360c8b28d146101925780639ace38c2146101cf578063b10f8b691461020f578063b5e8d4b11461024c576100e8565b8063025e7c27146100ed5780633349a7341461012a57806351f22a7214610155576100e8565b366100e857005b600080fd5b3480156100f957600080fd5b50610114600480360381019061010f919061113f565b6103aa565b60405161012191906111ad565b60405180910390f35b34801561013657600080fd5b5061013f6103e9565b60405161014c91906111d7565b60405180910390f35b34801561016157600080fd5b5061017c6004803603810190610177919061121e565b6103ef565b6040516101899190611266565b60405180910390f35b34801561019e57600080fd5b506101b960048036038101906101b49190611281565b61040f565b6040516101c69190611266565b60405180910390f35b3480156101db57600080fd5b506101f660048036038101906101f1919061113f565b61043e565b60405161020694939291906112c1565b60405180910390f35b34801561021b57600080fd5b506102366004803603810190610231919061121e565b6104ab565b60405161024391906111d7565b60405180910390f35b34801561025857600080fd5b50610273600480360381019061026e919061121e565b6104c3565b005b34801561028157600080fd5b5061029c6004803603810190610297919061113f565b610819565b005b3480156102aa57600080fd5b506102c560048036038101906102c09190611306565b6109f9565b6040516102d29190611266565b60405180910390f35b3480156102e757600080fd5b5061030260048036038101906102fd919061113f565b610a28565b005b34801561031057600080fd5b5061032b60048036038101906103269190611346565b610d01565b005b34801561033957600080fd5b50610342610e7b565b60405161034f91906111d7565b60405180910390f35b34801561036457600080fd5b5061037f600480360381019061037a919061113f565b610e87565b005b34801561038d57600080fd5b506103a860048036038101906103a3919061113f565b611067565b005b600081815481106103ba57600080fd5b906000526020600020016000915054906101000a900473ffffffffffffffffffffffffffffffffffffffff1681565b60015481565b60026020528060005260406000206000915054906101000a900460ff1681565b60036020528160005260406000206020528060005260406000206000915091509054906101000a900460ff1681565b6004818154811061044e57600080fd5b90600052602060002090600402016000915090508060000160009054906101000a900473ffffffffffffffffffffffffffffffffffffffff16908060010154908060020160009054906101000a900460ff16908060030154905084565b60056020528060005260406000206000915090505481565b60011515600260003373ffffffffffffffffffffffffffffffffffffffff1673ffffffffffffffffffffffffffffffffffffffff16815260200190815260200160002060009054906101000a900460ff16151514610556576040517f08c379a000000000000000000000000000000000000000000000000000000000815260040161054d90611409565b60405180910390fd5b60001515600660008373ffffffffffffffffffffffffffffffffffffffff1673ffffffffffffffffffffffffffffffffffffffff16815260200190815260200160002060003373ffffffffffffffffffffffffffffffffffffffff1673ffffffffffffffffffffffffffffffffffffffff16815260200190815260200160002060009054906101000a900460ff16151514610626576040517f08c379a000000000000000000000000000000000000000000000000000000000815260040161061d9061149b565b60405180910390fd5b6001600560008373ffffffffffffffffffffffffffffffffffffffff1673ffffffffffffffffffffffffffffffffffffffff168152602001908152602001600020600082825461067691906114ea565b925050819055506001600660008373ffffffffffffffffffffffffffffffffffffffff1673ffffffffffffffffffffffffffffffffffffffff16815260200190815260200160002060003373ffffffffffffffffffffffffffffffffffffffff1673ffffffffffffffffffffffffffffffffffffffff16815260200190815260200160002060006101000a81548160ff021916908315150217905550600154600560008373ffffffffffffffffffffffffffffffffffffffff1673ffffffffffffffffffffffffffffffffffffffff1681526020019081526020016000205410610816576000819080600181540180825580915050600190039060005260206000200160009091909190916101000a81548173ffffffffffffffffffffffffffffffffffffffff021916908373ffffffffffffffffffffffffffffffffffffffff1602179055506001600260008373ffffffffffffffffffffffffffffffffffffffff1673ffffffffffffffffffffffffffffffffffffffff16815260200190815260200160002060006101000a81548160ff0219169083151502179055505b50565b60011515600260003373ffffffffffffffffffffffffffffffffffffffff1673ffffffffffffffffffffffffffffffffffffffff16815260200190815260200160002060009054906101000a900460ff161515146108ac576040517f08c379a00000000000000000000000000000000000000000000000000000000081526004016108a390611409565b60405180910390fd5b600015156003600083815260200190815260200160002060003373ffffffffffffffffffffffffffffffffffffffff1673ffffffffffffffffffffffffffffffffffffffff16815260200190815260200160002060009054906101000a900460ff16151514610950576040517f08c379a00000000000000000000000000000000000000000000000000000000081526004016109479061158c565b60405180910390fd5b600160048281548110610966576109656115ac565b5b9060005260206000209060040201600301600082825461098691906114ea565b9250508190555060016003600083815260200190815260200160002060003373ffffffffffffffffffffffffffffffffffffffff1673ffffffffffffffffffffffffffffffffffffffff16815260200190815260200160002060006101000a81548160ff02191690831515021790555050565b60066020528160005260406000206020528060005260406000206000915091509054906101000a900460ff1681565b60011515600260003373ffffffffffffffffffffffffffffffffffffffff1673ffffffffffffffffffffffffffffffffffffffff16815260200190815260200160002060009054906101000a900460ff16151514610abb576040517f08c379a0000000000000000000000000000000000000000000000000000000008152600401610ab290611409565b60405180910390fd5b60015460048281548110610ad257610ad16115ac565b5b9060005260206000209060040201600301541015610b25576040517f08c379a0000000000000000000000000000000000000000000000000000000008152600401610b1c90611627565b60405180910390fd5b6000151560048281548110610b3d57610b3c6115ac565b5b906000526020600020906004020160020160009054906101000a900460ff16151514610b9e576040517f08c379a0000000000000000000000000000000000000000000000000000000008152600401610b9590611693565b60405180910390fd5b600060048281548110610bb457610bb36115ac565b5b906000526020600020906004020160000160009054906101000a900473ffffffffffffffffffffffffffffffffffffffff16905060008173ffffffffffffffffffffffffffffffffffffffff1660048481548110610c1557610c146115ac565b5b90600052602060002090600402016001015461138890604051610c37906116e4565b600060405180830381858888f193505050503d8060008114610c75576040519150601f19603f3d011682016040523d82523d6000602084013e610c7a565b606091505b5050905080610cbe576040517f08c379a0000000000000000000000000000000000000000000000000000000008152600401610cb590611745565b60405180910390fd5b600160048481548110610cd457610cd36115ac565b5b906000526020600020906004020160020160006101000a81548160ff021916908315150217905550505050565b60011515600260003373ffffffffffffffffffffffffffffffffffffffff1673ffffffffffffffffffffffffffffffffffffffff16815260200190815260200160002060009054906101000a900460ff16151514610d94576040517f08c379a0000000000000000000000000000000000000000000000000000000008152600401610d8b90611409565b60405180910390fd5b600460405180608001604052808473ffffffffffffffffffffffffffffffffffffffff1681526020018381526020016000151581526020016000815250908060018154018082558091505060019003906000526020600020906004020160009091909190915060008201518160000160006101000a81548173ffffffffffffffffffffffffffffffffffffffff021916908373ffffffffffffffffffffffffffffffffffffffff1602179055506020820151816001015560408201518160020160006101000a81548160ff0219169083151502179055506060820151816003015550505050565b60008080549050905090565b60011515600260003373ffffffffffffffffffffffffffffffffffffffff1673ffffffffffffffffffffffffffffffffffffffff16815260200190815260200160002060009054906101000a900460ff16151514610f1a576040517f08c379a0000000000000000000000000000000000000000000000000000000008152600401610f1190611409565b60405180910390fd5b600115156003600083815260200190815260200160002060003373ffffffffffffffffffffffffffffffffffffffff1673ffffffffffffffffffffffffffffffffffffffff16815260200190815260200160002060009054906101000a900460ff16151514610fbe576040517f08c379a0000000000000000000000000000000000000000000000000000000008152600401610fb5906117b1565b60405180910390fd5b600160048281548110610fd457610fd36115ac565b5b90600052602060002090600402016003016000828254610ff491906117d1565b9250508190555060006003600083815260200190815260200160002060003373ffffffffffffffffffffffffffffffffffffffff1673ffffffffffffffffffffffffffffffffffffffff16815260200190815260200160002060006101000a81548160ff02191690831515021790555050565b60011515600260003373ffffffffffffffffffffffffffffffffffffffff1673ffffffffffffffffffffffffffffffffffffffff16815260200190815260200160002060009054906101000a900460ff161515146110fa576040517f08c379a00000000000000000000000000000000000000000000000000000000081526004016110f190611409565b60405180910390fd5b8060018190555050565b600080fd5b6000819050919050565b61111c81611109565b811461112757600080fd5b50565b60008135905061113981611113565b92915050565b60006020828403121561115557611154611104565b5b60006111638482850161112a565b91505092915050565b600073ffffffffffffffffffffffffffffffffffffffff82169050919050565b60006111978261116c565b9050919050565b6111a78161118c565b82525050565b60006020820190506111c2600083018461119e565b92915050565b6111d181611109565b82525050565b60006020820190506111ec60008301846111c8565b92915050565b6111fb8161118c565b811461120657600080fd5b50565b600081359050611218816111f2565b92915050565b60006020828403121561123457611233611104565b5b600061124284828501611209565b91505092915050565b60008115159050919050565b6112608161124b565b82525050565b600060208201905061127b6000830184611257565b92915050565b6000806040838503121561129857611297611104565b5b60006112a68582860161112a565b92505060206112b785828601611209565b9150509250929050565b60006080820190506112d6600083018761119e565b6112e360208301866111c8565b6112f06040830185611257565b6112fd60608301846111c8565b95945050505050565b6000806040838503121561131d5761131c611104565b5b600061132b85828601611209565b925050602061133c85828601611209565b9150509250929050565b6000806040838503121561135d5761135c611104565b5b600061136b85828601611209565b925050602061137c8582860161112a565b9150509250929050565b600082825260208201905092915050565b7f596f7572277265206e6f7420616e206f776e6572206f6620746869732077616c60008201527f6c65740000000000000000000000000000000000000000000000000000000000602082015250565b60006113f3602383611386565b91506113fe82611397565b604082019050919050565b60006020820190508181036000830152611422816113e6565b9050919050565b7f596f7527766520616c726561647920766f746564206f6e20746869732061646460008201527f7265737300000000000000000000000000000000000000000000000000000000602082015250565b6000611485602483611386565b915061149082611429565b604082019050919050565b600060208201905081810360008301526114b481611478565b9050919050565b7f4e487b7100000000000000000000000000000000000000000000000000000000600052601160045260246000fd5b60006114f582611109565b915061150083611109565b9250827fffffffffffffffffffffffffffffffffffffffffffffffffffffffffffffffff03821115611535576115346114bb565b5b828201905092915050565b7f596f7527766520616c726561647920766f746564000000000000000000000000600082015250565b6000611576601483611386565b915061158182611540565b602082019050919050565b600060208201905081810360008301526115a581611569565b9050919050565b7f4e487b7100000000000000000000000000000000000000000000000000000000600052603260045260246000fd5b7f4e6f7420656e6f75676820617070726f76616c73000000000000000000000000600082015250565b6000611611601483611386565b915061161c826115db565b602082019050919050565b6000602082019050818103600083015261164081611604565b9050919050565b7f416c726561647920766f74656400000000000000000000000000000000000000600082015250565b600061167d600d83611386565b915061168882611647565b602082019050919050565b600060208201905081810360008301526116ac81611670565b9050919050565b600081905092915050565b50565b60006116ce6000836116b3565b91506116d9826116be565b600082019050919050565b60006116ef826116c1565b9150819050919050565b7f596f7520646f6e2774206861766520656e6f75676820746f6b656e7300000000600082015250565b600061172f601c83611386565b915061173a826116f9565b602082019050919050565b6000602082019050818103600083015261175e81611722565b9050919050565b7f596f7520686176656e277420766f746564207965740000000000000000000000600082015250565b600061179b601583611386565b91506117a682611765565b602082019050919050565b600060208201905081810360008301526117ca8161178e565b9050919050565b60006117dc82611109565b91506117e783611109565b9250828210156117fa576117f96114bb565b5b82820390509291505056fea2646970667358221220228650f0e645148804f439b916fe2e336f7c49b56db10cb36ad7921b66657aa364736f6c634300080d0033",
					"opcodes": "PUSH1 0x80 PUSH1 0x40 MSTORE PUSH1 0x2 PUSH1 0x1 SSTORE CALLVALUE DUP1 ISZERO PUSH2 0x15 JUMPI PUSH1 0x0 DUP1 REVERT JUMPDEST POP PUSH1 0x0 CALLER SWAP1 DUP1 PUSH1 0x1 DUP2 SLOAD ADD DUP1 DUP3 SSTORE DUP1 SWAP2 POP POP PUSH1 0x1 SWAP1 SUB SWAP1 PUSH1 0x0 MSTORE PUSH1 0x20 PUSH1 0x0 KECCAK256 ADD PUSH1 0x0 SWAP1 SWAP2 SWAP1 SWAP2 SWAP1 SWAP2 PUSH2 0x100 EXP DUP2 SLOAD DUP2 PUSH20 0xFFFFFFFFFFFFFFFFFFFFFFFFFFFFFFFFFFFFFFFF MUL NOT AND SWAP1 DUP4 PUSH20 0xFFFFFFFFFFFFFFFFFFFFFFFFFFFFFFFFFFFFFFFF AND MUL OR SWAP1 SSTORE POP PUSH1 0x1 PUSH1 0x2 PUSH1 0x0 CALLER PUSH20 0xFFFFFFFFFFFFFFFFFFFFFFFFFFFFFFFFFFFFFFFF AND PUSH20 0xFFFFFFFFFFFFFFFFFFFFFFFFFFFFFFFFFFFFFFFF AND DUP2 MSTORE PUSH1 0x20 ADD SWAP1 DUP2 MSTORE PUSH1 0x20 ADD PUSH1 0x0 KECCAK256 PUSH1 0x0 PUSH2 0x100 EXP DUP2 SLOAD DUP2 PUSH1 0xFF MUL NOT AND SWAP1 DUP4 ISZERO ISZERO MUL OR SWAP1 SSTORE POP PUSH1 0x0 PUSH20 0xAB8483F64D9C6D1ECF9B849AE677DD3315835CB2 SWAP1 DUP1 PUSH1 0x1 DUP2 SLOAD ADD DUP1 DUP3 SSTORE DUP1 SWAP2 POP POP PUSH1 0x1 SWAP1 SUB SWAP1 PUSH1 0x0 MSTORE PUSH1 0x20 PUSH1 0x0 KECCAK256 ADD PUSH1 0x0 SWAP1 SWAP2 SWAP1 SWAP2 SWAP1 SWAP2 PUSH2 0x100 EXP DUP2 SLOAD DUP2 PUSH20 0xFFFFFFFFFFFFFFFFFFFFFFFFFFFFFFFFFFFFFFFF MUL NOT AND SWAP1 DUP4 PUSH20 0xFFFFFFFFFFFFFFFFFFFFFFFFFFFFFFFFFFFFFFFF AND MUL OR SWAP1 SSTORE POP PUSH1 0x1 PUSH1 0x2 PUSH1 0x0 PUSH20 0xAB8483F64D9C6D1ECF9B849AE677DD3315835CB2 PUSH20 0xFFFFFFFFFFFFFFFFFFFFFFFFFFFFFFFFFFFFFFFF AND PUSH20 0xFFFFFFFFFFFFFFFFFFFFFFFFFFFFFFFFFFFFFFFF AND DUP2 MSTORE PUSH1 0x20 ADD SWAP1 DUP2 MSTORE PUSH1 0x20 ADD PUSH1 0x0 KECCAK256 PUSH1 0x0 PUSH2 0x100 EXP DUP2 SLOAD DUP2 PUSH1 0xFF MUL NOT AND SWAP1 DUP4 ISZERO ISZERO MUL OR SWAP1 SSTORE POP PUSH2 0x183B DUP1 PUSH2 0x1C3 PUSH1 0x0 CODECOPY PUSH1 0x0 RETURN INVALID PUSH1 0x80 PUSH1 0x40 MSTORE PUSH1 0x4 CALLDATASIZE LT PUSH2 0xE1 JUMPI PUSH1 0x0 CALLDATALOAD PUSH1 0xE0 SHR DUP1 PUSH4 0xD579B696 GT PUSH2 0x7F JUMPI DUP1 PUSH4 0xF19A6682 GT PUSH2 0x59 JUMPI DUP1 PUSH4 0xF19A6682 EQ PUSH2 0x304 JUMPI DUP1 PUSH4 0xF5358AA8 EQ PUSH2 0x32D JUMPI DUP1 PUSH4 0xF9A7C0B1 EQ PUSH2 0x358 JUMPI DUP1 PUSH4 0xFC1983AB EQ PUSH2 0x381 JUMPI PUSH2 0xE8 JUMP JUMPDEST DUP1 PUSH4 0xD579B696 EQ PUSH2 0x275 JUMPI DUP1 PUSH4 0xE88ACA40 EQ PUSH2 0x29E JUMPI DUP1 PUSH4 0xEE22610B EQ PUSH2 0x2DB JUMPI PUSH2 0xE8 JUMP JUMPDEST DUP1 PUSH4 0x60C8B28D GT PUSH2 0xBB JUMPI DUP1 PUSH4 0x60C8B28D EQ PUSH2 0x192 JUMPI DUP1 PUSH4 0x9ACE38C2 EQ PUSH2 0x1CF JUMPI DUP1 PUSH4 0xB10F8B69 EQ PUSH2 0x20F JUMPI DUP1 PUSH4 0xB5E8D4B1 EQ PUSH2 0x24C JUMPI PUSH2 0xE8 JUMP JUMPDEST DUP1 PUSH4 0x25E7C27 EQ PUSH2 0xED JUMPI DUP1 PUSH4 0x3349A734 EQ PUSH2 0x12A JUMPI DUP1 PUSH4 0x51F22A72 EQ PUSH2 0x155 JUMPI PUSH2 0xE8 JUMP JUMPDEST CALLDATASIZE PUSH2 0xE8 JUMPI STOP JUMPDEST PUSH1 0x0 DUP1 REVERT JUMPDEST CALLVALUE DUP1 ISZERO PUSH2 0xF9 JUMPI PUSH1 0x0 DUP1 REVERT JUMPDEST POP PUSH2 0x114 PUSH1 0x4 DUP1 CALLDATASIZE SUB DUP2 ADD SWAP1 PUSH2 0x10F SWAP2 SWAP1 PUSH2 0x113F JUMP JUMPDEST PUSH2 0x3AA JUMP JUMPDEST PUSH1 0x40 MLOAD PUSH2 0x121 SWAP2 SWAP1 PUSH2 0x11AD JUMP JUMPDEST PUSH1 0x40 MLOAD DUP1 SWAP2 SUB SWAP1 RETURN JUMPDEST CALLVALUE DUP1 ISZERO PUSH2 0x136 JUMPI PUSH1 0x0 DUP1 REVERT JUMPDEST POP PUSH2 0x13F PUSH2 0x3E9 JUMP JUMPDEST PUSH1 0x40 MLOAD PUSH2 0x14C SWAP2 SWAP1 PUSH2 0x11D7 JUMP JUMPDEST PUSH1 0x40 MLOAD DUP1 SWAP2 SUB SWAP1 RETURN JUMPDEST CALLVALUE DUP1 ISZERO PUSH2 0x161 JUMPI PUSH1 0x0 DUP1 REVERT JUMPDEST POP PUSH2 0x17C PUSH1 0x4 DUP1 CALLDATASIZE SUB DUP2 ADD SWAP1 PUSH2 0x177 SWAP2 SWAP1 PUSH2 0x121E JUMP JUMPDEST PUSH2 0x3EF JUMP JUMPDEST PUSH1 0x40 MLOAD PUSH2 0x189 SWAP2 SWAP1 PUSH2 0x1266 JUMP JUMPDEST PUSH1 0x40 MLOAD DUP1 SWAP2 SUB SWAP1 RETURN JUMPDEST CALLVALUE DUP1 ISZERO PUSH2 0x19E JUMPI PUSH1 0x0 DUP1 REVERT JUMPDEST POP PUSH2 0x1B9 PUSH1 0x4 DUP1 CALLDATASIZE SUB DUP2 ADD SWAP1 PUSH2 0x1B4 SWAP2 SWAP1 PUSH2 0x1281 JUMP JUMPDEST PUSH2 0x40F JUMP JUMPDEST PUSH1 0x40 MLOAD PUSH2 0x1C6 SWAP2 SWAP1 PUSH2 0x1266 JUMP JUMPDEST PUSH1 0x40 MLOAD DUP1 SWAP2 SUB SWAP1 RETURN JUMPDEST CALLVALUE DUP1 ISZERO PUSH2 0x1DB JUMPI PUSH1 0x0 DUP1 REVERT JUMPDEST POP PUSH2 0x1F6 PUSH1 0x4 DUP1 CALLDATASIZE SUB DUP2 ADD SWAP1 PUSH2 0x1F1 SWAP2 SWAP1 PUSH2 0x113F JUMP JUMPDEST PUSH2 0x43E JUMP JUMPDEST PUSH1 0x40 MLOAD PUSH2 0x206 SWAP5 SWAP4 SWAP3 SWAP2 SWAP1 PUSH2 0x12C1 JUMP JUMPDEST PUSH1 0x40 MLOAD DUP1 SWAP2 SUB SWAP1 RETURN JUMPDEST CALLVALUE DUP1 ISZERO PUSH2 0x21B JUMPI PUSH1 0x0 DUP1 REVERT JUMPDEST POP PUSH2 0x236 PUSH1 0x4 DUP1 CALLDATASIZE SUB DUP2 ADD SWAP1 PUSH2 0x231 SWAP2 SWAP1 PUSH2 0x121E JUMP JUMPDEST PUSH2 0x4AB JUMP JUMPDEST PUSH1 0x40 MLOAD PUSH2 0x243 SWAP2 SWAP1 PUSH2 0x11D7 JUMP JUMPDEST PUSH1 0x40 MLOAD DUP1 SWAP2 SUB SWAP1 RETURN JUMPDEST CALLVALUE DUP1 ISZERO PUSH2 0x258 JUMPI PUSH1 0x0 DUP1 REVERT JUMPDEST POP PUSH2 0x273 PUSH1 0x4 DUP1 CALLDATASIZE SUB DUP2 ADD SWAP1 PUSH2 0x26E SWAP2 SWAP1 PUSH2 0x121E JUMP JUMPDEST PUSH2 0x4C3 JUMP JUMPDEST STOP JUMPDEST CALLVALUE DUP1 ISZERO PUSH2 0x281 JUMPI PUSH1 0x0 DUP1 REVERT JUMPDEST POP PUSH2 0x29C PUSH1 0x4 DUP1 CALLDATASIZE SUB DUP2 ADD SWAP1 PUSH2 0x297 SWAP2 SWAP1 PUSH2 0x113F JUMP JUMPDEST PUSH2 0x819 JUMP JUMPDEST STOP JUMPDEST CALLVALUE DUP1 ISZERO PUSH2 0x2AA JUMPI PUSH1 0x0 DUP1 REVERT JUMPDEST POP PUSH2 0x2C5 PUSH1 0x4 DUP1 CALLDATASIZE SUB DUP2 ADD SWAP1 PUSH2 0x2C0 SWAP2 SWAP1 PUSH2 0x1306 JUMP JUMPDEST PUSH2 0x9F9 JUMP JUMPDEST PUSH1 0x40 MLOAD PUSH2 0x2D2 SWAP2 SWAP1 PUSH2 0x1266 JUMP JUMPDEST PUSH1 0x40 MLOAD DUP1 SWAP2 SUB SWAP1 RETURN JUMPDEST CALLVALUE DUP1 ISZERO PUSH2 0x2E7 JUMPI PUSH1 0x0 DUP1 REVERT JUMPDEST POP PUSH2 0x302 PUSH1 0x4 DUP1 CALLDATASIZE SUB DUP2 ADD SWAP1 PUSH2 0x2FD SWAP2 SWAP1 PUSH2 0x113F JUMP JUMPDEST PUSH2 0xA28 JUMP JUMPDEST STOP JUMPDEST CALLVALUE DUP1 ISZERO PUSH2 0x310 JUMPI PUSH1 0x0 DUP1 REVERT JUMPDEST POP PUSH2 0x32B PUSH1 0x4 DUP1 CALLDATASIZE SUB DUP2 ADD SWAP1 PUSH2 0x326 SWAP2 SWAP1 PUSH2 0x1346 JUMP JUMPDEST PUSH2 0xD01 JUMP JUMPDEST STOP JUMPDEST CALLVALUE DUP1 ISZERO PUSH2 0x339 JUMPI PUSH1 0x0 DUP1 REVERT JUMPDEST POP PUSH2 0x342 PUSH2 0xE7B JUMP JUMPDEST PUSH1 0x40 MLOAD PUSH2 0x34F SWAP2 SWAP1 PUSH2 0x11D7 JUMP JUMPDEST PUSH1 0x40 MLOAD DUP1 SWAP2 SUB SWAP1 RETURN JUMPDEST CALLVALUE DUP1 ISZERO PUSH2 0x364 JUMPI PUSH1 0x0 DUP1 REVERT JUMPDEST POP PUSH2 0x37F PUSH1 0x4 DUP1 CALLDATASIZE SUB DUP2 ADD SWAP1 PUSH2 0x37A SWAP2 SWAP1 PUSH2 0x113F JUMP JUMPDEST PUSH2 0xE87 JUMP JUMPDEST STOP JUMPDEST CALLVALUE DUP1 ISZERO PUSH2 0x38D JUMPI PUSH1 0x0 DUP1 REVERT JUMPDEST POP PUSH2 0x3A8 PUSH1 0x4 DUP1 CALLDATASIZE SUB DUP2 ADD SWAP1 PUSH2 0x3A3 SWAP2 SWAP1 PUSH2 0x113F JUMP JUMPDEST PUSH2 0x1067 JUMP JUMPDEST STOP JUMPDEST PUSH1 0x0 DUP2 DUP2 SLOAD DUP2 LT PUSH2 0x3BA JUMPI PUSH1 0x0 DUP1 REVERT JUMPDEST SWAP1 PUSH1 0x0 MSTORE PUSH1 0x20 PUSH1 0x0 KECCAK256 ADD PUSH1 0x0 SWAP2 POP SLOAD SWAP1 PUSH2 0x100 EXP SWAP1 DIV PUSH20 0xFFFFFFFFFFFFFFFFFFFFFFFFFFFFFFFFFFFFFFFF AND DUP2 JUMP JUMPDEST PUSH1 0x1 SLOAD DUP2 JUMP JUMPDEST PUSH1 0x2 PUSH1 0x20 MSTORE DUP1 PUSH1 0x0 MSTORE PUSH1 0x40 PUSH1 0x0 KECCAK256 PUSH1 0x0 SWAP2 POP SLOAD SWAP1 PUSH2 0x100 EXP SWAP1 DIV PUSH1 0xFF AND DUP2 JUMP JUMPDEST PUSH1 0x3 PUSH1 0x20 MSTORE DUP2 PUSH1 0x0 MSTORE PUSH1 0x40 PUSH1 0x0 KECCAK256 PUSH1 0x20 MSTORE DUP1 PUSH1 0x0 MSTORE PUSH1 0x40 PUSH1 0x0 KECCAK256 PUSH1 0x0 SWAP2 POP SWAP2 POP SWAP1 SLOAD SWAP1 PUSH2 0x100 EXP SWAP1 DIV PUSH1 0xFF AND DUP2 JUMP JUMPDEST PUSH1 0x4 DUP2 DUP2 SLOAD DUP2 LT PUSH2 0x44E JUMPI PUSH1 0x0 DUP1 REVERT JUMPDEST SWAP1 PUSH1 0x0 MSTORE PUSH1 0x20 PUSH1 0x0 KECCAK256 SWAP1 PUSH1 0x4 MUL ADD PUSH1 0x0 SWAP2 POP SWAP1 POP DUP1 PUSH1 0x0 ADD PUSH1 0x0 SWAP1 SLOAD SWAP1 PUSH2 0x100 EXP SWAP1 DIV PUSH20 0xFFFFFFFFFFFFFFFFFFFFFFFFFFFFFFFFFFFFFFFF AND SWAP1 DUP1 PUSH1 0x1 ADD SLOAD SWAP1 DUP1 PUSH1 0x2 ADD PUSH1 0x0 SWAP1 SLOAD SWAP1 PUSH2 0x100 EXP SWAP1 DIV PUSH1 0xFF AND SWAP1 DUP1 PUSH1 0x3 ADD SLOAD SWAP1 POP DUP5 JUMP JUMPDEST PUSH1 0x5 PUSH1 0x20 MSTORE DUP1 PUSH1 0x0 MSTORE PUSH1 0x40 PUSH1 0x0 KECCAK256 PUSH1 0x0 SWAP2 POP SWAP1 POP SLOAD DUP2 JUMP JUMPDEST PUSH1 0x1 ISZERO ISZERO PUSH1 0x2 PUSH1 0x0 CALLER PUSH20 0xFFFFFFFFFFFFFFFFFFFFFFFFFFFFFFFFFFFFFFFF AND PUSH20 0xFFFFFFFFFFFFFFFFFFFFFFFFFFFFFFFFFFFFFFFF AND DUP2 MSTORE PUSH1 0x20 ADD SWAP1 DUP2 MSTORE PUSH1 0x20 ADD PUSH1 0x0 KECCAK256 PUSH1 0x0 SWAP1 SLOAD SWAP1 PUSH2 0x100 EXP SWAP1 DIV PUSH1 0xFF AND ISZERO ISZERO EQ PUSH2 0x556 JUMPI PUSH1 0x40 MLOAD PUSH32 0x8C379A000000000000000000000000000000000000000000000000000000000 DUP2 MSTORE PUSH1 0x4 ADD PUSH2 0x54D SWAP1 PUSH2 0x1409 JUMP JUMPDEST PUSH1 0x40 MLOAD DUP1 SWAP2 SUB SWAP1 REVERT JUMPDEST PUSH1 0x0 ISZERO ISZERO PUSH1 0x6 PUSH1 0x0 DUP4 PUSH20 0xFFFFFFFFFFFFFFFFFFFFFFFFFFFFFFFFFFFFFFFF AND PUSH20 0xFFFFFFFFFFFFFFFFFFFFFFFFFFFFFFFFFFFFFFFF AND DUP2 MSTORE PUSH1 0x20 ADD SWAP1 DUP2 MSTORE PUSH1 0x20 ADD PUSH1 0x0 KECCAK256 PUSH1 0x0 CALLER PUSH20 0xFFFFFFFFFFFFFFFFFFFFFFFFFFFFFFFFFFFFFFFF AND PUSH20 0xFFFFFFFFFFFFFFFFFFFFFFFFFFFFFFFFFFFFFFFF AND DUP2 MSTORE PUSH1 0x20 ADD SWAP1 DUP2 MSTORE PUSH1 0x20 ADD PUSH1 0x0 KECCAK256 PUSH1 0x0 SWAP1 SLOAD SWAP1 PUSH2 0x100 EXP SWAP1 DIV PUSH1 0xFF AND ISZERO ISZERO EQ PUSH2 0x626 JUMPI PUSH1 0x40 MLOAD PUSH32 0x8C379A000000000000000000000000000000000000000000000000000000000 DUP2 MSTORE PUSH1 0x4 ADD PUSH2 0x61D SWAP1 PUSH2 0x149B JUMP JUMPDEST PUSH1 0x40 MLOAD DUP1 SWAP2 SUB SWAP1 REVERT JUMPDEST PUSH1 0x1 PUSH1 0x5 PUSH1 0x0 DUP4 PUSH20 0xFFFFFFFFFFFFFFFFFFFFFFFFFFFFFFFFFFFFFFFF AND PUSH20 0xFFFFFFFFFFFFFFFFFFFFFFFFFFFFFFFFFFFFFFFF AND DUP2 MSTORE PUSH1 0x20 ADD SWAP1 DUP2 MSTORE PUSH1 0x20 ADD PUSH1 0x0 KECCAK256 PUSH1 0x0 DUP3 DUP3 SLOAD PUSH2 0x676 SWAP2 SWAP1 PUSH2 0x14EA JUMP JUMPDEST SWAP3 POP POP DUP2 SWAP1 SSTORE POP PUSH1 0x1 PUSH1 0x6 PUSH1 0x0 DUP4 PUSH20 0xFFFFFFFFFFFFFFFFFFFFFFFFFFFFFFFFFFFFFFFF AND PUSH20 0xFFFFFFFFFFFFFFFFFFFFFFFFFFFFFFFFFFFFFFFF AND DUP2 MSTORE PUSH1 0x20 ADD SWAP1 DUP2 MSTORE PUSH1 0x20 ADD PUSH1 0x0 KECCAK256 PUSH1 0x0 CALLER PUSH20 0xFFFFFFFFFFFFFFFFFFFFFFFFFFFFFFFFFFFFFFFF AND PUSH20 0xFFFFFFFFFFFFFFFFFFFFFFFFFFFFFFFFFFFFFFFF AND DUP2 MSTORE PUSH1 0x20 ADD SWAP1 DUP2 MSTORE PUSH1 0x20 ADD PUSH1 0x0 KECCAK256 PUSH1 0x0 PUSH2 0x100 EXP DUP2 SLOAD DUP2 PUSH1 0xFF MUL NOT AND SWAP1 DUP4 ISZERO ISZERO MUL OR SWAP1 SSTORE POP PUSH1 0x1 SLOAD PUSH1 0x5 PUSH1 0x0 DUP4 PUSH20 0xFFFFFFFFFFFFFFFFFFFFFFFFFFFFFFFFFFFFFFFF AND PUSH20 0xFFFFFFFFFFFFFFFFFFFFFFFFFFFFFFFFFFFFFFFF AND DUP2 MSTORE PUSH1 0x20 ADD SWAP1 DUP2 MSTORE PUSH1 0x20 ADD PUSH1 0x0 KECCAK256 SLOAD LT PUSH2 0x816 JUMPI PUSH1 0x0 DUP2 SWAP1 DUP1 PUSH1 0x1 DUP2 SLOAD ADD DUP1 DUP3 SSTORE DUP1 SWAP2 POP POP PUSH1 0x1 SWAP1 SUB SWAP1 PUSH1 0x0 MSTORE PUSH1 0x20 PUSH1 0x0 KECCAK256 ADD PUSH1 0x0 SWAP1 SWAP2 SWAP1 SWAP2 SWAP1 SWAP2 PUSH2 0x100 EXP DUP2 SLOAD DUP2 PUSH20 0xFFFFFFFFFFFFFFFFFFFFFFFFFFFFFFFFFFFFFFFF MUL NOT AND SWAP1 DUP4 PUSH20 0xFFFFFFFFFFFFFFFFFFFFFFFFFFFFFFFFFFFFFFFF AND MUL OR SWAP1 SSTORE POP PUSH1 0x1 PUSH1 0x2 PUSH1 0x0 DUP4 PUSH20 0xFFFFFFFFFFFFFFFFFFFFFFFFFFFFFFFFFFFFFFFF AND PUSH20 0xFFFFFFFFFFFFFFFFFFFFFFFFFFFFFFFFFFFFFFFF AND DUP2 MSTORE PUSH1 0x20 ADD SWAP1 DUP2 MSTORE PUSH1 0x20 ADD PUSH1 0x0 KECCAK256 PUSH1 0x0 PUSH2 0x100 EXP DUP2 SLOAD DUP2 PUSH1 0xFF MUL NOT AND SWAP1 DUP4 ISZERO ISZERO MUL OR SWAP1 SSTORE POP JUMPDEST POP JUMP JUMPDEST PUSH1 0x1 ISZERO ISZERO PUSH1 0x2 PUSH1 0x0 CALLER PUSH20 0xFFFFFFFFFFFFFFFFFFFFFFFFFFFFFFFFFFFFFFFF AND PUSH20 0xFFFFFFFFFFFFFFFFFFFFFFFFFFFFFFFFFFFFFFFF AND DUP2 MSTORE PUSH1 0x20 ADD SWAP1 DUP2 MSTORE PUSH1 0x20 ADD PUSH1 0x0 KECCAK256 PUSH1 0x0 SWAP1 SLOAD SWAP1 PUSH2 0x100 EXP SWAP1 DIV PUSH1 0xFF AND ISZERO ISZERO EQ PUSH2 0x8AC JUMPI PUSH1 0x40 MLOAD PUSH32 0x8C379A000000000000000000000000000000000000000000000000000000000 DUP2 MSTORE PUSH1 0x4 ADD PUSH2 0x8A3 SWAP1 PUSH2 0x1409 JUMP JUMPDEST PUSH1 0x40 MLOAD DUP1 SWAP2 SUB SWAP1 REVERT JUMPDEST PUSH1 0x0 ISZERO ISZERO PUSH1 0x3 PUSH1 0x0 DUP4 DUP2 MSTORE PUSH1 0x20 ADD SWAP1 DUP2 MSTORE PUSH1 0x20 ADD PUSH1 0x0 KECCAK256 PUSH1 0x0 CALLER PUSH20 0xFFFFFFFFFFFFFFFFFFFFFFFFFFFFFFFFFFFFFFFF AND PUSH20 0xFFFFFFFFFFFFFFFFFFFFFFFFFFFFFFFFFFFFFFFF AND DUP2 MSTORE PUSH1 0x20 ADD SWAP1 DUP2 MSTORE PUSH1 0x20 ADD PUSH1 0x0 KECCAK256 PUSH1 0x0 SWAP1 SLOAD SWAP1 PUSH2 0x100 EXP SWAP1 DIV PUSH1 0xFF AND ISZERO ISZERO EQ PUSH2 0x950 JUMPI PUSH1 0x40 MLOAD PUSH32 0x8C379A000000000000000000000000000000000000000000000000000000000 DUP2 MSTORE PUSH1 0x4 ADD PUSH2 0x947 SWAP1 PUSH2 0x158C JUMP JUMPDEST PUSH1 0x40 MLOAD DUP1 SWAP2 SUB SWAP1 REVERT JUMPDEST PUSH1 0x1 PUSH1 0x4 DUP3 DUP2 SLOAD DUP2 LT PUSH2 0x966 JUMPI PUSH2 0x965 PUSH2 0x15AC JUMP JUMPDEST JUMPDEST SWAP1 PUSH1 0x0 MSTORE PUSH1 0x20 PUSH1 0x0 KECCAK256 SWAP1 PUSH1 0x4 MUL ADD PUSH1 0x3 ADD PUSH1 0x0 DUP3 DUP3 SLOAD PUSH2 0x986 SWAP2 SWAP1 PUSH2 0x14EA JUMP JUMPDEST SWAP3 POP POP DUP2 SWAP1 SSTORE POP PUSH1 0x1 PUSH1 0x3 PUSH1 0x0 DUP4 DUP2 MSTORE PUSH1 0x20 ADD SWAP1 DUP2 MSTORE PUSH1 0x20 ADD PUSH1 0x0 KECCAK256 PUSH1 0x0 CALLER PUSH20 0xFFFFFFFFFFFFFFFFFFFFFFFFFFFFFFFFFFFFFFFF AND PUSH20 0xFFFFFFFFFFFFFFFFFFFFFFFFFFFFFFFFFFFFFFFF AND DUP2 MSTORE PUSH1 0x20 ADD SWAP1 DUP2 MSTORE PUSH1 0x20 ADD PUSH1 0x0 KECCAK256 PUSH1 0x0 PUSH2 0x100 EXP DUP2 SLOAD DUP2 PUSH1 0xFF MUL NOT AND SWAP1 DUP4 ISZERO ISZERO MUL OR SWAP1 SSTORE POP POP JUMP JUMPDEST PUSH1 0x6 PUSH1 0x20 MSTORE DUP2 PUSH1 0x0 MSTORE PUSH1 0x40 PUSH1 0x0 KECCAK256 PUSH1 0x20 MSTORE DUP1 PUSH1 0x0 MSTORE PUSH1 0x40 PUSH1 0x0 KECCAK256 PUSH1 0x0 SWAP2 POP SWAP2 POP SWAP1 SLOAD SWAP1 PUSH2 0x100 EXP SWAP1 DIV PUSH1 0xFF AND DUP2 JUMP JUMPDEST PUSH1 0x1 ISZERO ISZERO PUSH1 0x2 PUSH1 0x0 CALLER PUSH20 0xFFFFFFFFFFFFFFFFFFFFFFFFFFFFFFFFFFFFFFFF AND PUSH20 0xFFFFFFFFFFFFFFFFFFFFFFFFFFFFFFFFFFFFFFFF AND DUP2 MSTORE PUSH1 0x20 ADD SWAP1 DUP2 MSTORE PUSH1 0x20 ADD PUSH1 0x0 KECCAK256 PUSH1 0x0 SWAP1 SLOAD SWAP1 PUSH2 0x100 EXP SWAP1 DIV PUSH1 0xFF AND ISZERO ISZERO EQ PUSH2 0xABB JUMPI PUSH1 0x40 MLOAD PUSH32 0x8C379A000000000000000000000000000000000000000000000000000000000 DUP2 MSTORE PUSH1 0x4 ADD PUSH2 0xAB2 SWAP1 PUSH2 0x1409 JUMP JUMPDEST PUSH1 0x40 MLOAD DUP1 SWAP2 SUB SWAP1 REVERT JUMPDEST PUSH1 0x1 SLOAD PUSH1 0x4 DUP3 DUP2 SLOAD DUP2 LT PUSH2 0xAD2 JUMPI PUSH2 0xAD1 PUSH2 0x15AC JUMP JUMPDEST JUMPDEST SWAP1 PUSH1 0x0 MSTORE PUSH1 0x20 PUSH1 0x0 KECCAK256 SWAP1 PUSH1 0x4 MUL ADD PUSH1 0x3 ADD SLOAD LT ISZERO PUSH2 0xB25 JUMPI PUSH1 0x40 MLOAD PUSH32 0x8C379A000000000000000000000000000000000000000000000000000000000 DUP2 MSTORE PUSH1 0x4 ADD PUSH2 0xB1C SWAP1 PUSH2 0x1627 JUMP JUMPDEST PUSH1 0x40 MLOAD DUP1 SWAP2 SUB SWAP1 REVERT JUMPDEST PUSH1 0x0 ISZERO ISZERO PUSH1 0x4 DUP3 DUP2 SLOAD DUP2 LT PUSH2 0xB3D JUMPI PUSH2 0xB3C PUSH2 0x15AC JUMP JUMPDEST JUMPDEST SWAP1 PUSH1 0x0 MSTORE PUSH1 0x20 PUSH1 0x0 KECCAK256 SWAP1 PUSH1 0x4 MUL ADD PUSH1 0x2 ADD PUSH1 0x0 SWAP1 SLOAD SWAP1 PUSH2 0x100 EXP SWAP1 DIV PUSH1 0xFF AND ISZERO ISZERO EQ PUSH2 0xB9E JUMPI PUSH1 0x40 MLOAD PUSH32 0x8C379A000000000000000000000000000000000000000000000000000000000 DUP2 MSTORE PUSH1 0x4 ADD PUSH2 0xB95 SWAP1 PUSH2 0x1693 JUMP JUMPDEST PUSH1 0x40 MLOAD DUP1 SWAP2 SUB SWAP1 REVERT JUMPDEST PUSH1 0x0 PUSH1 0x4 DUP3 DUP2 SLOAD DUP2 LT PUSH2 0xBB4 JUMPI PUSH2 0xBB3 PUSH2 0x15AC JUMP JUMPDEST JUMPDEST SWAP1 PUSH1 0x0 MSTORE PUSH1 0x20 PUSH1 0x0 KECCAK256 SWAP1 PUSH1 0x4 MUL ADD PUSH1 0x0 ADD PUSH1 0x0 SWAP1 SLOAD SWAP1 PUSH2 0x100 EXP SWAP1 DIV PUSH20 0xFFFFFFFFFFFFFFFFFFFFFFFFFFFFFFFFFFFFFFFF AND SWAP1 POP PUSH1 0x0 DUP2 PUSH20 0xFFFFFFFFFFFFFFFFFFFFFFFFFFFFFFFFFFFFFFFF AND PUSH1 0x4 DUP5 DUP2 SLOAD DUP2 LT PUSH2 0xC15 JUMPI PUSH2 0xC14 PUSH2 0x15AC JUMP JUMPDEST JUMPDEST SWAP1 PUSH1 0x0 MSTORE PUSH1 0x20 PUSH1 0x0 KECCAK256 SWAP1 PUSH1 0x4 MUL ADD PUSH1 0x1 ADD SLOAD PUSH2 0x1388 SWAP1 PUSH1 0x40 MLOAD PUSH2 0xC37 SWAP1 PUSH2 0x16E4 JUMP JUMPDEST PUSH1 0x0 PUSH1 0x40 MLOAD DUP1 DUP4 SUB DUP2 DUP6 DUP9 DUP9 CALL SWAP4 POP POP POP POP RETURNDATASIZE DUP1 PUSH1 0x0 DUP2 EQ PUSH2 0xC75 JUMPI PUSH1 0x40 MLOAD SWAP2 POP PUSH1 0x1F NOT PUSH1 0x3F RETURNDATASIZE ADD AND DUP3 ADD PUSH1 0x40 MSTORE RETURNDATASIZE DUP3 MSTORE RETURNDATASIZE PUSH1 0x0 PUSH1 0x20 DUP5 ADD RETURNDATACOPY PUSH2 0xC7A JUMP JUMPDEST PUSH1 0x60 SWAP2 POP JUMPDEST POP POP SWAP1 POP DUP1 PUSH2 0xCBE JUMPI PUSH1 0x40 MLOAD PUSH32 0x8C379A000000000000000000000000000000000000000000000000000000000 DUP2 MSTORE PUSH1 0x4 ADD PUSH2 0xCB5 SWAP1 PUSH2 0x1745 JUMP JUMPDEST PUSH1 0x40 MLOAD DUP1 SWAP2 SUB SWAP1 REVERT JUMPDEST PUSH1 0x1 PUSH1 0x4 DUP5 DUP2 SLOAD DUP2 LT PUSH2 0xCD4 JUMPI PUSH2 0xCD3 PUSH2 0x15AC JUMP JUMPDEST JUMPDEST SWAP1 PUSH1 0x0 MSTORE PUSH1 0x20 PUSH1 0x0 KECCAK256 SWAP1 PUSH1 0x4 MUL ADD PUSH1 0x2 ADD PUSH1 0x0 PUSH2 0x100 EXP DUP2 SLOAD DUP2 PUSH1 0xFF MUL NOT AND SWAP1 DUP4 ISZERO ISZERO MUL OR SWAP1 SSTORE POP POP POP POP JUMP JUMPDEST PUSH1 0x1 ISZERO ISZERO PUSH1 0x2 PUSH1 0x0 CALLER PUSH20 0xFFFFFFFFFFFFFFFFFFFFFFFFFFFFFFFFFFFFFFFF AND PUSH20 0xFFFFFFFFFFFFFFFFFFFFFFFFFFFFFFFFFFFFFFFF AND DUP2 MSTORE PUSH1 0x20 ADD SWAP1 DUP2 MSTORE PUSH1 0x20 ADD PUSH1 0x0 KECCAK256 PUSH1 0x0 SWAP1 SLOAD SWAP1 PUSH2 0x100 EXP SWAP1 DIV PUSH1 0xFF AND ISZERO ISZERO EQ PUSH2 0xD94 JUMPI PUSH1 0x40 MLOAD PUSH32 0x8C379A000000000000000000000000000000000000000000000000000000000 DUP2 MSTORE PUSH1 0x4 ADD PUSH2 0xD8B SWAP1 PUSH2 0x1409 JUMP JUMPDEST PUSH1 0x40 MLOAD DUP1 SWAP2 SUB SWAP1 REVERT JUMPDEST PUSH1 0x4 PUSH1 0x40 MLOAD DUP1 PUSH1 0x80 ADD PUSH1 0x40 MSTORE DUP1 DUP5 PUSH20 0xFFFFFFFFFFFFFFFFFFFFFFFFFFFFFFFFFFFFFFFF AND DUP2 MSTORE PUSH1 0x20 ADD DUP4 DUP2 MSTORE PUSH1 0x20 ADD PUSH1 0x0 ISZERO ISZERO DUP2 MSTORE PUSH1 0x20 ADD PUSH1 0x0 DUP2 MSTORE POP SWAP1 DUP1 PUSH1 0x1 DUP2 SLOAD ADD DUP1 DUP3 SSTORE DUP1 SWAP2 POP POP PUSH1 0x1 SWAP1 SUB SWAP1 PUSH1 0x0 MSTORE PUSH1 0x20 PUSH1 0x0 KECCAK256 SWAP1 PUSH1 0x4 MUL ADD PUSH1 0x0 SWAP1 SWAP2 SWAP1 SWAP2 SWAP1 SWAP2 POP PUSH1 0x0 DUP3 ADD MLOAD DUP2 PUSH1 0x0 ADD PUSH1 0x0 PUSH2 0x100 EXP DUP2 SLOAD DUP2 PUSH20 0xFFFFFFFFFFFFFFFFFFFFFFFFFFFFFFFFFFFFFFFF MUL NOT AND SWAP1 DUP4 PUSH20 0xFFFFFFFFFFFFFFFFFFFFFFFFFFFFFFFFFFFFFFFF AND MUL OR SWAP1 SSTORE POP PUSH1 0x20 DUP3 ADD MLOAD DUP2 PUSH1 0x1 ADD SSTORE PUSH1 0x40 DUP3 ADD MLOAD DUP2 PUSH1 0x2 ADD PUSH1 0x0 PUSH2 0x100 EXP DUP2 SLOAD DUP2 PUSH1 0xFF MUL NOT AND SWAP1 DUP4 ISZERO ISZERO MUL OR SWAP1 SSTORE POP PUSH1 0x60 DUP3 ADD MLOAD DUP2 PUSH1 0x3 ADD SSTORE POP POP POP POP JUMP JUMPDEST PUSH1 0x0 DUP1 DUP1 SLOAD SWAP1 POP SWAP1 POP SWAP1 JUMP JUMPDEST PUSH1 0x1 ISZERO ISZERO PUSH1 0x2 PUSH1 0x0 CALLER PUSH20 0xFFFFFFFFFFFFFFFFFFFFFFFFFFFFFFFFFFFFFFFF AND PUSH20 0xFFFFFFFFFFFFFFFFFFFFFFFFFFFFFFFFFFFFFFFF AND DUP2 MSTORE PUSH1 0x20 ADD SWAP1 DUP2 MSTORE PUSH1 0x20 ADD PUSH1 0x0 KECCAK256 PUSH1 0x0 SWAP1 SLOAD SWAP1 PUSH2 0x100 EXP SWAP1 DIV PUSH1 0xFF AND ISZERO ISZERO EQ PUSH2 0xF1A JUMPI PUSH1 0x40 MLOAD PUSH32 0x8C379A000000000000000000000000000000000000000000000000000000000 DUP2 MSTORE PUSH1 0x4 ADD PUSH2 0xF11 SWAP1 PUSH2 0x1409 JUMP JUMPDEST PUSH1 0x40 MLOAD DUP1 SWAP2 SUB SWAP1 REVERT JUMPDEST PUSH1 0x1 ISZERO ISZERO PUSH1 0x3 PUSH1 0x0 DUP4 DUP2 MSTORE PUSH1 0x20 ADD SWAP1 DUP2 MSTORE PUSH1 0x20 ADD PUSH1 0x0 KECCAK256 PUSH1 0x0 CALLER PUSH20 0xFFFFFFFFFFFFFFFFFFFFFFFFFFFFFFFFFFFFFFFF AND PUSH20 0xFFFFFFFFFFFFFFFFFFFFFFFFFFFFFFFFFFFFFFFF AND DUP2 MSTORE PUSH1 0x20 ADD SWAP1 DUP2 MSTORE PUSH1 0x20 ADD PUSH1 0x0 KECCAK256 PUSH1 0x0 SWAP1 SLOAD SWAP1 PUSH2 0x100 EXP SWAP1 DIV PUSH1 0xFF AND ISZERO ISZERO EQ PUSH2 0xFBE JUMPI PUSH1 0x40 MLOAD PUSH32 0x8C379A000000000000000000000000000000000000000000000000000000000 DUP2 MSTORE PUSH1 0x4 ADD PUSH2 0xFB5 SWAP1 PUSH2 0x17B1 JUMP JUMPDEST PUSH1 0x40 MLOAD DUP1 SWAP2 SUB SWAP1 REVERT JUMPDEST PUSH1 0x1 PUSH1 0x4 DUP3 DUP2 SLOAD DUP2 LT PUSH2 0xFD4 JUMPI PUSH2 0xFD3 PUSH2 0x15AC JUMP JUMPDEST JUMPDEST SWAP1 PUSH1 0x0 MSTORE PUSH1 0x20 PUSH1 0x0 KECCAK256 SWAP1 PUSH1 0x4 MUL ADD PUSH1 0x3 ADD PUSH1 0x0 DUP3 DUP3 SLOAD PUSH2 0xFF4 SWAP2 SWAP1 PUSH2 0x17D1 JUMP JUMPDEST SWAP3 POP POP DUP2 SWAP1 SSTORE POP PUSH1 0x0 PUSH1 0x3 PUSH1 0x0 DUP4 DUP2 MSTORE PUSH1 0x20 ADD SWAP1 DUP2 MSTORE PUSH1 0x20 ADD PUSH1 0x0 KECCAK256 PUSH1 0x0 CALLER PUSH20 0xFFFFFFFFFFFFFFFFFFFFFFFFFFFFFFFFFFFFFFFF AND PUSH20 0xFFFFFFFFFFFFFFFFFFFFFFFFFFFFFFFFFFFFFFFF AND DUP2 MSTORE PUSH1 0x20 ADD SWAP1 DUP2 MSTORE PUSH1 0x20 ADD PUSH1 0x0 KECCAK256 PUSH1 0x0 PUSH2 0x100 EXP DUP2 SLOAD DUP2 PUSH1 0xFF MUL NOT AND SWAP1 DUP4 ISZERO ISZERO MUL OR SWAP1 SSTORE POP POP JUMP JUMPDEST PUSH1 0x1 ISZERO ISZERO PUSH1 0x2 PUSH1 0x0 CALLER PUSH20 0xFFFFFFFFFFFFFFFFFFFFFFFFFFFFFFFFFFFFFFFF AND PUSH20 0xFFFFFFFFFFFFFFFFFFFFFFFFFFFFFFFFFFFFFFFF AND DUP2 MSTORE PUSH1 0x20 ADD SWAP1 DUP2 MSTORE PUSH1 0x20 ADD PUSH1 0x0 KECCAK256 PUSH1 0x0 SWAP1 SLOAD SWAP1 PUSH2 0x100 EXP SWAP1 DIV PUSH1 0xFF AND ISZERO ISZERO EQ PUSH2 0x10FA JUMPI PUSH1 0x40 MLOAD PUSH32 0x8C379A000000000000000000000000000000000000000000000000000000000 DUP2 MSTORE PUSH1 0x4 ADD PUSH2 0x10F1 SWAP1 PUSH2 0x1409 JUMP JUMPDEST PUSH1 0x40 MLOAD DUP1 SWAP2 SUB SWAP1 REVERT JUMPDEST DUP1 PUSH1 0x1 DUP2 SWAP1 SSTORE POP POP JUMP JUMPDEST PUSH1 0x0 DUP1 REVERT JUMPDEST PUSH1 0x0 DUP2 SWAP1 POP SWAP2 SWAP1 POP JUMP JUMPDEST PUSH2 0x111C DUP2 PUSH2 0x1109 JUMP JUMPDEST DUP2 EQ PUSH2 0x1127 JUMPI PUSH1 0x0 DUP1 REVERT JUMPDEST POP JUMP JUMPDEST PUSH1 0x0 DUP2 CALLDATALOAD SWAP1 POP PUSH2 0x1139 DUP2 PUSH2 0x1113 JUMP JUMPDEST SWAP3 SWAP2 POP POP JUMP JUMPDEST PUSH1 0x0 PUSH1 0x20 DUP3 DUP5 SUB SLT ISZERO PUSH2 0x1155 JUMPI PUSH2 0x1154 PUSH2 0x1104 JUMP JUMPDEST JUMPDEST PUSH1 0x0 PUSH2 0x1163 DUP5 DUP3 DUP6 ADD PUSH2 0x112A JUMP JUMPDEST SWAP2 POP POP SWAP3 SWAP2 POP POP JUMP JUMPDEST PUSH1 0x0 PUSH20 0xFFFFFFFFFFFFFFFFFFFFFFFFFFFFFFFFFFFFFFFF DUP3 AND SWAP1 POP SWAP2 SWAP1 POP JUMP JUMPDEST PUSH1 0x0 PUSH2 0x1197 DUP3 PUSH2 0x116C JUMP JUMPDEST SWAP1 POP SWAP2 SWAP1 POP JUMP JUMPDEST PUSH2 0x11A7 DUP2 PUSH2 0x118C JUMP JUMPDEST DUP3 MSTORE POP POP JUMP JUMPDEST PUSH1 0x0 PUSH1 0x20 DUP3 ADD SWAP1 POP PUSH2 0x11C2 PUSH1 0x0 DUP4 ADD DUP5 PUSH2 0x119E JUMP JUMPDEST SWAP3 SWAP2 POP POP JUMP JUMPDEST PUSH2 0x11D1 DUP2 PUSH2 0x1109 JUMP JUMPDEST DUP3 MSTORE POP POP JUMP JUMPDEST PUSH1 0x0 PUSH1 0x20 DUP3 ADD SWAP1 POP PUSH2 0x11EC PUSH1 0x0 DUP4 ADD DUP5 PUSH2 0x11C8 JUMP JUMPDEST SWAP3 SWAP2 POP POP JUMP JUMPDEST PUSH2 0x11FB DUP2 PUSH2 0x118C JUMP JUMPDEST DUP2 EQ PUSH2 0x1206 JUMPI PUSH1 0x0 DUP1 REVERT JUMPDEST POP JUMP JUMPDEST PUSH1 0x0 DUP2 CALLDATALOAD SWAP1 POP PUSH2 0x1218 DUP2 PUSH2 0x11F2 JUMP JUMPDEST SWAP3 SWAP2 POP POP JUMP JUMPDEST PUSH1 0x0 PUSH1 0x20 DUP3 DUP5 SUB SLT ISZERO PUSH2 0x1234 JUMPI PUSH2 0x1233 PUSH2 0x1104 JUMP JUMPDEST JUMPDEST PUSH1 0x0 PUSH2 0x1242 DUP5 DUP3 DUP6 ADD PUSH2 0x1209 JUMP JUMPDEST SWAP2 POP POP SWAP3 SWAP2 POP POP JUMP JUMPDEST PUSH1 0x0 DUP2 ISZERO ISZERO SWAP1 POP SWAP2 SWAP1 POP JUMP JUMPDEST PUSH2 0x1260 DUP2 PUSH2 0x124B JUMP JUMPDEST DUP3 MSTORE POP POP JUMP JUMPDEST PUSH1 0x0 PUSH1 0x20 DUP3 ADD SWAP1 POP PUSH2 0x127B PUSH1 0x0 DUP4 ADD DUP5 PUSH2 0x1257 JUMP JUMPDEST SWAP3 SWAP2 POP POP JUMP JUMPDEST PUSH1 0x0 DUP1 PUSH1 0x40 DUP4 DUP6 SUB SLT ISZERO PUSH2 0x1298 JUMPI PUSH2 0x1297 PUSH2 0x1104 JUMP JUMPDEST JUMPDEST PUSH1 0x0 PUSH2 0x12A6 DUP6 DUP3 DUP7 ADD PUSH2 0x112A JUMP JUMPDEST SWAP3 POP POP PUSH1 0x20 PUSH2 0x12B7 DUP6 DUP3 DUP7 ADD PUSH2 0x1209 JUMP JUMPDEST SWAP2 POP POP SWAP3 POP SWAP3 SWAP1 POP JUMP JUMPDEST PUSH1 0x0 PUSH1 0x80 DUP3 ADD SWAP1 POP PUSH2 0x12D6 PUSH1 0x0 DUP4 ADD DUP8 PUSH2 0x119E JUMP JUMPDEST PUSH2 0x12E3 PUSH1 0x20 DUP4 ADD DUP7 PUSH2 0x11C8 JUMP JUMPDEST PUSH2 0x12F0 PUSH1 0x40 DUP4 ADD DUP6 PUSH2 0x1257 JUMP JUMPDEST PUSH2 0x12FD PUSH1 0x60 DUP4 ADD DUP5 PUSH2 0x11C8 JUMP JUMPDEST SWAP6 SWAP5 POP POP POP POP POP JUMP JUMPDEST PUSH1 0x0 DUP1 PUSH1 0x40 DUP4 DUP6 SUB SLT ISZERO PUSH2 0x131D JUMPI PUSH2 0x131C PUSH2 0x1104 JUMP JUMPDEST JUMPDEST PUSH1 0x0 PUSH2 0x132B DUP6 DUP3 DUP7 ADD PUSH2 0x1209 JUMP JUMPDEST SWAP3 POP POP PUSH1 0x20 PUSH2 0x133C DUP6 DUP3 DUP7 ADD PUSH2 0x1209 JUMP JUMPDEST SWAP2 POP POP SWAP3 POP SWAP3 SWAP1 POP JUMP JUMPDEST PUSH1 0x0 DUP1 PUSH1 0x40 DUP4 DUP6 SUB SLT ISZERO PUSH2 0x135D JUMPI PUSH2 0x135C PUSH2 0x1104 JUMP JUMPDEST JUMPDEST PUSH1 0x0 PUSH2 0x136B DUP6 DUP3 DUP7 ADD PUSH2 0x1209 JUMP JUMPDEST SWAP3 POP POP PUSH1 0x20 PUSH2 0x137C DUP6 DUP3 DUP7 ADD PUSH2 0x112A JUMP JUMPDEST SWAP2 POP POP SWAP3 POP SWAP3 SWAP1 POP JUMP JUMPDEST PUSH1 0x0 DUP3 DUP3 MSTORE PUSH1 0x20 DUP3 ADD SWAP1 POP SWAP3 SWAP2 POP POP JUMP JUMPDEST PUSH32 0x596F7572277265206E6F7420616E206F776E6572206F6620746869732077616C PUSH1 0x0 DUP3 ADD MSTORE PUSH32 0x6C65740000000000000000000000000000000000000000000000000000000000 PUSH1 0x20 DUP3 ADD MSTORE POP JUMP JUMPDEST PUSH1 0x0 PUSH2 0x13F3 PUSH1 0x23 DUP4 PUSH2 0x1386 JUMP JUMPDEST SWAP2 POP PUSH2 0x13FE DUP3 PUSH2 0x1397 JUMP JUMPDEST PUSH1 0x40 DUP3 ADD SWAP1 POP SWAP2 SWAP1 POP JUMP JUMPDEST PUSH1 0x0 PUSH1 0x20 DUP3 ADD SWAP1 POP DUP2 DUP2 SUB PUSH1 0x0 DUP4 ADD MSTORE PUSH2 0x1422 DUP2 PUSH2 0x13E6 JUMP JUMPDEST SWAP1 POP SWAP2 SWAP1 POP JUMP JUMPDEST PUSH32 0x596F7527766520616C726561647920766F746564206F6E207468697320616464 PUSH1 0x0 DUP3 ADD MSTORE PUSH32 0x7265737300000000000000000000000000000000000000000000000000000000 PUSH1 0x20 DUP3 ADD MSTORE POP JUMP JUMPDEST PUSH1 0x0 PUSH2 0x1485 PUSH1 0x24 DUP4 PUSH2 0x1386 JUMP JUMPDEST SWAP2 POP PUSH2 0x1490 DUP3 PUSH2 0x1429 JUMP JUMPDEST PUSH1 0x40 DUP3 ADD SWAP1 POP SWAP2 SWAP1 POP JUMP JUMPDEST PUSH1 0x0 PUSH1 0x20 DUP3 ADD SWAP1 POP DUP2 DUP2 SUB PUSH1 0x0 DUP4 ADD MSTORE PUSH2 0x14B4 DUP2 PUSH2 0x1478 JUMP JUMPDEST SWAP1 POP SWAP2 SWAP1 POP JUMP JUMPDEST PUSH32 0x4E487B7100000000000000000000000000000000000000000000000000000000 PUSH1 0x0 MSTORE PUSH1 0x11 PUSH1 0x4 MSTORE PUSH1 0x24 PUSH1 0x0 REVERT JUMPDEST PUSH1 0x0 PUSH2 0x14F5 DUP3 PUSH2 0x1109 JUMP JUMPDEST SWAP2 POP PUSH2 0x1500 DUP4 PUSH2 0x1109 JUMP JUMPDEST SWAP3 POP DUP3 PUSH32 0xFFFFFFFFFFFFFFFFFFFFFFFFFFFFFFFFFFFFFFFFFFFFFFFFFFFFFFFFFFFFFFFF SUB DUP3 GT ISZERO PUSH2 0x1535 JUMPI PUSH2 0x1534 PUSH2 0x14BB JUMP JUMPDEST JUMPDEST DUP3 DUP3 ADD SWAP1 POP SWAP3 SWAP2 POP POP JUMP JUMPDEST PUSH32 0x596F7527766520616C726561647920766F746564000000000000000000000000 PUSH1 0x0 DUP3 ADD MSTORE POP JUMP JUMPDEST PUSH1 0x0 PUSH2 0x1576 PUSH1 0x14 DUP4 PUSH2 0x1386 JUMP JUMPDEST SWAP2 POP PUSH2 0x1581 DUP3 PUSH2 0x1540 JUMP JUMPDEST PUSH1 0x20 DUP3 ADD SWAP1 POP SWAP2 SWAP1 POP JUMP JUMPDEST PUSH1 0x0 PUSH1 0x20 DUP3 ADD SWAP1 POP DUP2 DUP2 SUB PUSH1 0x0 DUP4 ADD MSTORE PUSH2 0x15A5 DUP2 PUSH2 0x1569 JUMP JUMPDEST SWAP1 POP SWAP2 SWAP1 POP JUMP JUMPDEST PUSH32 0x4E487B7100000000000000000000000000000000000000000000000000000000 PUSH1 0x0 MSTORE PUSH1 0x32 PUSH1 0x4 MSTORE PUSH1 0x24 PUSH1 0x0 REVERT JUMPDEST PUSH32 0x4E6F7420656E6F75676820617070726F76616C73000000000000000000000000 PUSH1 0x0 DUP3 ADD MSTORE POP JUMP JUMPDEST PUSH1 0x0 PUSH2 0x1611 PUSH1 0x14 DUP4 PUSH2 0x1386 JUMP JUMPDEST SWAP2 POP PUSH2 0x161C DUP3 PUSH2 0x15DB JUMP JUMPDEST PUSH1 0x20 DUP3 ADD SWAP1 POP SWAP2 SWAP1 POP JUMP JUMPDEST PUSH1 0x0 PUSH1 0x20 DUP3 ADD SWAP1 POP DUP2 DUP2 SUB PUSH1 0x0 DUP4 ADD MSTORE PUSH2 0x1640 DUP2 PUSH2 0x1604 JUMP JUMPDEST SWAP1 POP SWAP2 SWAP1 POP JUMP JUMPDEST PUSH32 0x416C726561647920766F74656400000000000000000000000000000000000000 PUSH1 0x0 DUP3 ADD MSTORE POP JUMP JUMPDEST PUSH1 0x0 PUSH2 0x167D PUSH1 0xD DUP4 PUSH2 0x1386 JUMP JUMPDEST SWAP2 POP PUSH2 0x1688 DUP3 PUSH2 0x1647 JUMP JUMPDEST PUSH1 0x20 DUP3 ADD SWAP1 POP SWAP2 SWAP1 POP JUMP JUMPDEST PUSH1 0x0 PUSH1 0x20 DUP3 ADD SWAP1 POP DUP2 DUP2 SUB PUSH1 0x0 DUP4 ADD MSTORE PUSH2 0x16AC DUP2 PUSH2 0x1670 JUMP JUMPDEST SWAP1 POP SWAP2 SWAP1 POP JUMP JUMPDEST PUSH1 0x0 DUP2 SWAP1 POP SWAP3 SWAP2 POP POP JUMP JUMPDEST POP JUMP JUMPDEST PUSH1 0x0 PUSH2 0x16CE PUSH1 0x0 DUP4 PUSH2 0x16B3 JUMP JUMPDEST SWAP2 POP PUSH2 0x16D9 DUP3 PUSH2 0x16BE JUMP JUMPDEST PUSH1 0x0 DUP3 ADD SWAP1 POP SWAP2 SWAP1 POP JUMP JUMPDEST PUSH1 0x0 PUSH2 0x16EF DUP3 PUSH2 0x16C1 JUMP JUMPDEST SWAP2 POP DUP2 SWAP1 POP SWAP2 SWAP1 POP JUMP JUMPDEST PUSH32 0x596F7520646F6E2774206861766520656E6F75676820746F6B656E7300000000 PUSH1 0x0 DUP3 ADD MSTORE POP JUMP JUMPDEST PUSH1 0x0 PUSH2 0x172F PUSH1 0x1C DUP4 PUSH2 0x1386 JUMP JUMPDEST SWAP2 POP PUSH2 0x173A DUP3 PUSH2 0x16F9 JUMP JUMPDEST PUSH1 0x20 DUP3 ADD SWAP1 POP SWAP2 SWAP1 POP JUMP JUMPDEST PUSH1 0x0 PUSH1 0x20 DUP3 ADD SWAP1 POP DUP2 DUP2 SUB PUSH1 0x0 DUP4 ADD MSTORE PUSH2 0x175E DUP2 PUSH2 0x1722 JUMP JUMPDEST SWAP1 POP SWAP2 SWAP1 POP JUMP JUMPDEST PUSH32 0x596F7520686176656E277420766F746564207965740000000000000000000000 PUSH1 0x0 DUP3 ADD MSTORE POP JUMP JUMPDEST PUSH1 0x0 PUSH2 0x179B PUSH1 0x15 DUP4 PUSH2 0x1386 JUMP JUMPDEST SWAP2 POP PUSH2 0x17A6 DUP3 PUSH2 0x1765 JUMP JUMPDEST PUSH1 0x20 DUP3 ADD SWAP1 POP SWAP2 SWAP1 POP JUMP JUMPDEST PUSH1 0x0 PUSH1 0x20 DUP3 ADD SWAP1 POP DUP2 DUP2 SUB PUSH1 0x0 DUP4 ADD MSTORE PUSH2 0x17CA DUP2 PUSH2 0x178E JUMP JUMPDEST SWAP1 POP SWAP2 SWAP1 POP JUMP JUMPDEST PUSH1 0x0 PUSH2 0x17DC DUP3 PUSH2 0x1109 JUMP JUMPDEST SWAP2 POP PUSH2 0x17E7 DUP4 PUSH2 0x1109 JUMP JUMPDEST SWAP3 POP DUP3 DUP3 LT ISZERO PUSH2 0x17FA JUMPI PUSH2 0x17F9 PUSH2 0x14BB JUMP JUMPDEST JUMPDEST DUP3 DUP3 SUB SWAP1 POP SWAP3 SWAP2 POP POP JUMP INVALID LOG2 PUSH5 0x6970667358 0x22 SLT KECCAK256 0x22 DUP7 POP CREATE 0xE6 GASLIMIT EQ DUP9 DIV DELEGATECALL CODECOPY 0xB9 AND INVALID 0x2E CALLER PUSH16 0x7C49B56DB10CB36AD7921B66657AA364 PUSH20 0x6F6C634300080D00330000000000000000000000 "
				},
				"gasEstimates": {
					"creation": {
						"codeDepositCost": "1240600",
						"executionCost": "169264",
						"totalCost": "1409864"
					},
					"external": {
						"alreadyVoted(uint256,address)": "3110",
						"alreadyVotedNewAddress(address,address)": "infinite",
						"approvalsNeeded()": "2475",
						"executeTransaction(uint256)": "infinite",
						"numberOfVotesRequire(uint256)": "24868",
						"ownerList(address)": "2913",
						"ownerListLength()": "2489",
						"owners(uint256)": "4980",
						"proposeTransaction(address,uint256)": "103058",
						"revokeOnTransaction(uint256)": "infinite",
						"transactions(uint256)": "infinite",
						"voteOnTransaction(uint256)": "infinite",
						"votesToNewAddress(address)": "2881",
						"votingOnNewAddress(address)": "infinite"
					}
				},
				"methodIdentifiers": {
					"alreadyVoted(uint256,address)": "60c8b28d",
					"alreadyVotedNewAddress(address,address)": "e88aca40",
					"approvalsNeeded()": "3349a734",
					"executeTransaction(uint256)": "ee22610b",
					"numberOfVotesRequire(uint256)": "fc1983ab",
					"ownerList(address)": "51f22a72",
					"ownerListLength()": "f5358aa8",
					"owners(uint256)": "025e7c27",
					"proposeTransaction(address,uint256)": "f19a6682",
					"revokeOnTransaction(uint256)": "f9a7c0b1",
					"transactions(uint256)": "9ace38c2",
					"voteOnTransaction(uint256)": "d579b696",
					"votesToNewAddress(address)": "b10f8b69",
					"votingOnNewAddress(address)": "b5e8d4b1"
				}
			},
			"storageLayout": {
				"storage": [
					{
						"astId": 4,
						"contract": "bootcamp/week3/day_4_multiSigWallet.sol:multiSigLesson",
						"label": "owners",
						"offset": 0,
						"slot": "0",
						"type": "t_array(t_address)dyn_storage"
					},
					{
						"astId": 7,
						"contract": "bootcamp/week3/day_4_multiSigWallet.sol:multiSigLesson",
						"label": "approvalsNeeded",
						"offset": 0,
						"slot": "1",
						"type": "t_uint256"
					},
					{
						"astId": 11,
						"contract": "bootcamp/week3/day_4_multiSigWallet.sol:multiSigLesson",
						"label": "ownerList",
						"offset": 0,
						"slot": "2",
						"type": "t_mapping(t_address,t_bool)"
					},
					{
						"astId": 17,
						"contract": "bootcamp/week3/day_4_multiSigWallet.sol:multiSigLesson",
						"label": "alreadyVoted",
						"offset": 0,
						"slot": "3",
						"type": "t_mapping(t_uint256,t_mapping(t_address,t_bool))"
					},
					{
						"astId": 78,
						"contract": "bootcamp/week3/day_4_multiSigWallet.sol:multiSigLesson",
						"label": "transactions",
						"offset": 0,
						"slot": "4",
						"type": "t_array(t_struct(Transaction)74_storage)dyn_storage"
					},
					{
						"astId": 82,
						"contract": "bootcamp/week3/day_4_multiSigWallet.sol:multiSigLesson",
						"label": "votesToNewAddress",
						"offset": 0,
						"slot": "5",
						"type": "t_mapping(t_address,t_uint256)"
					},
					{
						"astId": 88,
						"contract": "bootcamp/week3/day_4_multiSigWallet.sol:multiSigLesson",
						"label": "alreadyVotedNewAddress",
						"offset": 0,
						"slot": "6",
						"type": "t_mapping(t_address,t_mapping(t_address,t_bool))"
					}
				],
				"types": {
					"t_address": {
						"encoding": "inplace",
						"label": "address",
						"numberOfBytes": "20"
					},
					"t_array(t_address)dyn_storage": {
						"base": "t_address",
						"encoding": "dynamic_array",
						"label": "address[]",
						"numberOfBytes": "32"
					},
					"t_array(t_struct(Transaction)74_storage)dyn_storage": {
						"base": "t_struct(Transaction)74_storage",
						"encoding": "dynamic_array",
						"label": "struct multiSigLesson.Transaction[]",
						"numberOfBytes": "32"
					},
					"t_bool": {
						"encoding": "inplace",
						"label": "bool",
						"numberOfBytes": "1"
					},
					"t_mapping(t_address,t_bool)": {
						"encoding": "mapping",
						"key": "t_address",
						"label": "mapping(address => bool)",
						"numberOfBytes": "32",
						"value": "t_bool"
					},
					"t_mapping(t_address,t_mapping(t_address,t_bool))": {
						"encoding": "mapping",
						"key": "t_address",
						"label": "mapping(address => mapping(address => bool))",
						"numberOfBytes": "32",
						"value": "t_mapping(t_address,t_bool)"
					},
					"t_mapping(t_address,t_uint256)": {
						"encoding": "mapping",
						"key": "t_address",
						"label": "mapping(address => uint256)",
						"numberOfBytes": "32",
						"value": "t_uint256"
					},
					"t_mapping(t_uint256,t_mapping(t_address,t_bool))": {
						"encoding": "mapping",
						"key": "t_uint256",
						"label": "mapping(uint256 => mapping(address => bool))",
						"numberOfBytes": "32",
						"value": "t_mapping(t_address,t_bool)"
					},
					"t_struct(Transaction)74_storage": {
						"encoding": "inplace",
						"label": "struct multiSigLesson.Transaction",
						"members": [
							{
								"astId": 67,
								"contract": "bootcamp/week3/day_4_multiSigWallet.sol:multiSigLesson",
								"label": "sendingTo",
								"offset": 0,
								"slot": "0",
								"type": "t_address"
							},
							{
								"astId": 69,
								"contract": "bootcamp/week3/day_4_multiSigWallet.sol:multiSigLesson",
								"label": "value",
								"offset": 0,
								"slot": "1",
								"type": "t_uint256"
							},
							{
								"astId": 71,
								"contract": "bootcamp/week3/day_4_multiSigWallet.sol:multiSigLesson",
								"label": "alreadyExecuted",
								"offset": 0,
								"slot": "2",
								"type": "t_bool"
							},
							{
								"astId": 73,
								"contract": "bootcamp/week3/day_4_multiSigWallet.sol:multiSigLesson",
								"label": "approvals",
								"offset": 0,
								"slot": "3",
								"type": "t_uint256"
							}
						],
						"numberOfBytes": "128"
					},
					"t_uint256": {
						"encoding": "inplace",
						"label": "uint256",
						"numberOfBytes": "32"
					}
				}
			},
			"userdoc": {
				"kind": "user",
				"methods": {},
				"version": 1
			}
		}
	}
}