{
	"bootcamp/week3/day_5_homework_part_2_number_array_string_output.sol": {
		"NumberToString": {
			"abi": [
				{
					"inputs": [],
					"stateMutability": "nonpayable",
					"type": "constructor"
				},
				{
					"anonymous": false,
					"inputs": [
						{
							"indexed": false,
							"internalType": "uint256",
							"name": "a",
							"type": "uint256"
						}
					],
					"name": "test1",
					"type": "event"
				},
				{
					"anonymous": false,
					"inputs": [
						{
							"indexed": false,
							"internalType": "string",
							"name": "a",
							"type": "string"
						}
					],
					"name": "test2",
					"type": "event"
				},
				{
					"inputs": [
						{
							"internalType": "uint256",
							"name": "",
							"type": "uint256"
						}
					],
					"name": "counter",
					"outputs": [
						{
							"internalType": "string",
							"name": "",
							"type": "string"
						}
					],
					"stateMutability": "view",
					"type": "function"
				},
				{
					"inputs": [
						{
							"internalType": "uint256[]",
							"name": "number",
							"type": "uint256[]"
						}
					],
					"name": "numberToString",
					"outputs": [
						{
							"internalType": "string",
							"name": "",
							"type": "string"
						}
					],
					"stateMutability": "nonpayable",
					"type": "function"
				}
			],
			"devdoc": {
				"kind": "dev",
				"methods": {},
				"version": 1
			},
			"evm": {
				"assembly": "    /* \"bootcamp/week3/day_5_homework_part_2_number_array_string_output.sol\":58:1382  contract NumberToString {... */\n  mstore(0x40, 0x80)\n    /* \"bootcamp/week3/day_5_homework_part_2_number_array_string_output.sol\":89:803  constructor() {... */\n  callvalue\n  dup1\n  iszero\n  tag_1\n  jumpi\n  0x00\n  dup1\n  revert\ntag_1:\n  pop\n    /* \"bootcamp/week3/day_5_homework_part_2_number_array_string_output.sol\":113:129  counter[1] = \"A\" */\n  mload(0x40)\n  dup1\n  0x40\n  add\n  0x40\n  mstore\n  dup1\n  0x01\n  dup2\n  mstore\n  0x20\n  add\n  0x4100000000000000000000000000000000000000000000000000000000000000\n  dup2\n  mstore\n  pop\n    /* \"bootcamp/week3/day_5_homework_part_2_number_array_string_output.sol\":113:120  counter */\n  0x00\n    /* \"bootcamp/week3/day_5_homework_part_2_number_array_string_output.sol\":113:123  counter[1] */\n  dup1\n    /* \"bootcamp/week3/day_5_homework_part_2_number_array_string_output.sol\":121:122  1 */\n  0x01\n    /* \"bootcamp/week3/day_5_homework_part_2_number_array_string_output.sol\":113:123  counter[1] */\n  dup2\n  mstore\n  0x20\n  add\n  swap1\n  dup2\n  mstore\n  0x20\n  add\n  0x00\n  keccak256\n    /* \"bootcamp/week3/day_5_homework_part_2_number_array_string_output.sol\":113:129  counter[1] = \"A\" */\n  swap1\n  dup2\n  tag_4\n  swap2\n  swap1\n  tag_5\n  jump\t// in\ntag_4:\n  pop\n    /* \"bootcamp/week3/day_5_homework_part_2_number_array_string_output.sol\":139:155  counter[2] = \"B\" */\n  mload(0x40)\n  dup1\n  0x40\n  add\n  0x40\n  mstore\n  dup1\n  0x01\n  dup2\n  mstore\n  0x20\n  add\n  0x4200000000000000000000000000000000000000000000000000000000000000\n  dup2\n  mstore\n  pop\n    /* \"bootcamp/week3/day_5_homework_part_2_number_array_string_output.sol\":139:146  counter */\n  0x00\n    /* \"bootcamp/week3/day_5_homework_part_2_number_array_string_output.sol\":139:149  counter[2] */\n  dup1\n    /* \"bootcamp/week3/day_5_homework_part_2_number_array_string_output.sol\":147:148  2 */\n  0x02\n    /* \"bootcamp/week3/day_5_homework_part_2_number_array_string_output.sol\":139:149  counter[2] */\n  dup2\n  mstore\n  0x20\n  add\n  swap1\n  dup2\n  mstore\n  0x20\n  add\n  0x00\n  keccak256\n    /* \"bootcamp/week3/day_5_homework_part_2_number_array_string_output.sol\":139:155  counter[2] = \"B\" */\n  swap1\n  dup2\n  tag_6\n  swap2\n  swap1\n  tag_5\n  jump\t// in\ntag_6:\n  pop\n    /* \"bootcamp/week3/day_5_homework_part_2_number_array_string_output.sol\":165:181  counter[3] = \"C\" */\n  mload(0x40)\n  dup1\n  0x40\n  add\n  0x40\n  mstore\n  dup1\n  0x01\n  dup2\n  mstore\n  0x20\n  add\n  0x4300000000000000000000000000000000000000000000000000000000000000\n  dup2\n  mstore\n  pop\n    /* \"bootcamp/week3/day_5_homework_part_2_number_array_string_output.sol\":165:172  counter */\n  0x00\n    /* \"bootcamp/week3/day_5_homework_part_2_number_array_string_output.sol\":165:175  counter[3] */\n  dup1\n    /* \"bootcamp/week3/day_5_homework_part_2_number_array_string_output.sol\":173:174  3 */\n  0x03\n    /* \"bootcamp/week3/day_5_homework_part_2_number_array_string_output.sol\":165:175  counter[3] */\n  dup2\n  mstore\n  0x20\n  add\n  swap1\n  dup2\n  mstore\n  0x20\n  add\n  0x00\n  keccak256\n    /* \"bootcamp/week3/day_5_homework_part_2_number_array_string_output.sol\":165:181  counter[3] = \"C\" */\n  swap1\n  dup2\n  tag_7\n  swap2\n  swap1\n  tag_5\n  jump\t// in\ntag_7:\n  pop\n    /* \"bootcamp/week3/day_5_homework_part_2_number_array_string_output.sol\":191:207  counter[4] = \"D\" */\n  mload(0x40)\n  dup1\n  0x40\n  add\n  0x40\n  mstore\n  dup1\n  0x01\n  dup2\n  mstore\n  0x20\n  add\n  0x4400000000000000000000000000000000000000000000000000000000000000\n  dup2\n  mstore\n  pop\n    /* \"bootcamp/week3/day_5_homework_part_2_number_array_string_output.sol\":191:198  counter */\n  0x00\n    /* \"bootcamp/week3/day_5_homework_part_2_number_array_string_output.sol\":191:201  counter[4] */\n  dup1\n    /* \"bootcamp/week3/day_5_homework_part_2_number_array_string_output.sol\":199:200  4 */\n  0x04\n    /* \"bootcamp/week3/day_5_homework_part_2_number_array_string_output.sol\":191:201  counter[4] */\n  dup2\n  mstore\n  0x20\n  add\n  swap1\n  dup2\n  mstore\n  0x20\n  add\n  0x00\n  keccak256\n    /* \"bootcamp/week3/day_5_homework_part_2_number_array_string_output.sol\":191:207  counter[4] = \"D\" */\n  swap1\n  dup2\n  tag_8\n  swap2\n  swap1\n  tag_5\n  jump\t// in\ntag_8:\n  pop\n    /* \"bootcamp/week3/day_5_homework_part_2_number_array_string_output.sol\":217:233  counter[5] = \"E\" */\n  mload(0x40)\n  dup1\n  0x40\n  add\n  0x40\n  mstore\n  dup1\n  0x01\n  dup2\n  mstore\n  0x20\n  add\n  0x4500000000000000000000000000000000000000000000000000000000000000\n  dup2\n  mstore\n  pop\n    /* \"bootcamp/week3/day_5_homework_part_2_number_array_string_output.sol\":217:224  counter */\n  0x00\n    /* \"bootcamp/week3/day_5_homework_part_2_number_array_string_output.sol\":217:227  counter[5] */\n  dup1\n    /* \"bootcamp/week3/day_5_homework_part_2_number_array_string_output.sol\":225:226  5 */\n  0x05\n    /* \"bootcamp/week3/day_5_homework_part_2_number_array_string_output.sol\":217:227  counter[5] */\n  dup2\n  mstore\n  0x20\n  add\n  swap1\n  dup2\n  mstore\n  0x20\n  add\n  0x00\n  keccak256\n    /* \"bootcamp/week3/day_5_homework_part_2_number_array_string_output.sol\":217:233  counter[5] = \"E\" */\n  swap1\n  dup2\n  tag_9\n  swap2\n  swap1\n  tag_5\n  jump\t// in\ntag_9:\n  pop\n    /* \"bootcamp/week3/day_5_homework_part_2_number_array_string_output.sol\":243:259  counter[6] = \"F\" */\n  mload(0x40)\n  dup1\n  0x40\n  add\n  0x40\n  mstore\n  dup1\n  0x01\n  dup2\n  mstore\n  0x20\n  add\n  0x4600000000000000000000000000000000000000000000000000000000000000\n  dup2\n  mstore\n  pop\n    /* \"bootcamp/week3/day_5_homework_part_2_number_array_string_output.sol\":243:250  counter */\n  0x00\n    /* \"bootcamp/week3/day_5_homework_part_2_number_array_string_output.sol\":243:253  counter[6] */\n  dup1\n    /* \"bootcamp/week3/day_5_homework_part_2_number_array_string_output.sol\":251:252  6 */\n  0x06\n    /* \"bootcamp/week3/day_5_homework_part_2_number_array_string_output.sol\":243:253  counter[6] */\n  dup2\n  mstore\n  0x20\n  add\n  swap1\n  dup2\n  mstore\n  0x20\n  add\n  0x00\n  keccak256\n    /* \"bootcamp/week3/day_5_homework_part_2_number_array_string_output.sol\":243:259  counter[6] = \"F\" */\n  swap1\n  dup2\n  tag_10\n  swap2\n  swap1\n  tag_5\n  jump\t// in\ntag_10:\n  pop\n    /* \"bootcamp/week3/day_5_homework_part_2_number_array_string_output.sol\":269:285  counter[7] = \"G\" */\n  mload(0x40)\n  dup1\n  0x40\n  add\n  0x40\n  mstore\n  dup1\n  0x01\n  dup2\n  mstore\n  0x20\n  add\n  0x4700000000000000000000000000000000000000000000000000000000000000\n  dup2\n  mstore\n  pop\n    /* \"bootcamp/week3/day_5_homework_part_2_number_array_string_output.sol\":269:276  counter */\n  0x00\n    /* \"bootcamp/week3/day_5_homework_part_2_number_array_string_output.sol\":269:279  counter[7] */\n  dup1\n    /* \"bootcamp/week3/day_5_homework_part_2_number_array_string_output.sol\":277:278  7 */\n  0x07\n    /* \"bootcamp/week3/day_5_homework_part_2_number_array_string_output.sol\":269:279  counter[7] */\n  dup2\n  mstore\n  0x20\n  add\n  swap1\n  dup2\n  mstore\n  0x20\n  add\n  0x00\n  keccak256\n    /* \"bootcamp/week3/day_5_homework_part_2_number_array_string_output.sol\":269:285  counter[7] = \"G\" */\n  swap1\n  dup2\n  tag_11\n  swap2\n  swap1\n  tag_5\n  jump\t// in\ntag_11:\n  pop\n    /* \"bootcamp/week3/day_5_homework_part_2_number_array_string_output.sol\":295:311  counter[8] = \"H\" */\n  mload(0x40)\n  dup1\n  0x40\n  add\n  0x40\n  mstore\n  dup1\n  0x01\n  dup2\n  mstore\n  0x20\n  add\n  0x4800000000000000000000000000000000000000000000000000000000000000\n  dup2\n  mstore\n  pop\n    /* \"bootcamp/week3/day_5_homework_part_2_number_array_string_output.sol\":295:302  counter */\n  0x00\n    /* \"bootcamp/week3/day_5_homework_part_2_number_array_string_output.sol\":295:305  counter[8] */\n  dup1\n    /* \"bootcamp/week3/day_5_homework_part_2_number_array_string_output.sol\":303:304  8 */\n  0x08\n    /* \"bootcamp/week3/day_5_homework_part_2_number_array_string_output.sol\":295:305  counter[8] */\n  dup2\n  mstore\n  0x20\n  add\n  swap1\n  dup2\n  mstore\n  0x20\n  add\n  0x00\n  keccak256\n    /* \"bootcamp/week3/day_5_homework_part_2_number_array_string_output.sol\":295:311  counter[8] = \"H\" */\n  swap1\n  dup2\n  tag_12\n  swap2\n  swap1\n  tag_5\n  jump\t// in\ntag_12:\n  pop\n    /* \"bootcamp/week3/day_5_homework_part_2_number_array_string_output.sol\":321:337  counter[9] = \"I\" */\n  mload(0x40)\n  dup1\n  0x40\n  add\n  0x40\n  mstore\n  dup1\n  0x01\n  dup2\n  mstore\n  0x20\n  add\n  0x4900000000000000000000000000000000000000000000000000000000000000\n  dup2\n  mstore\n  pop\n    /* \"bootcamp/week3/day_5_homework_part_2_number_array_string_output.sol\":321:328  counter */\n  0x00\n    /* \"bootcamp/week3/day_5_homework_part_2_number_array_string_output.sol\":321:331  counter[9] */\n  dup1\n    /* \"bootcamp/week3/day_5_homework_part_2_number_array_string_output.sol\":329:330  9 */\n  0x09\n    /* \"bootcamp/week3/day_5_homework_part_2_number_array_string_output.sol\":321:331  counter[9] */\n  dup2\n  mstore\n  0x20\n  add\n  swap1\n  dup2\n  mstore\n  0x20\n  add\n  0x00\n  keccak256\n    /* \"bootcamp/week3/day_5_homework_part_2_number_array_string_output.sol\":321:337  counter[9] = \"I\" */\n  swap1\n  dup2\n  tag_13\n  swap2\n  swap1\n  tag_5\n  jump\t// in\ntag_13:\n  pop\n    /* \"bootcamp/week3/day_5_homework_part_2_number_array_string_output.sol\":347:364  counter[10] = \"J\" */\n  mload(0x40)\n  dup1\n  0x40\n  add\n  0x40\n  mstore\n  dup1\n  0x01\n  dup2\n  mstore\n  0x20\n  add\n  0x4a00000000000000000000000000000000000000000000000000000000000000\n  dup2\n  mstore\n  pop\n    /* \"bootcamp/week3/day_5_homework_part_2_number_array_string_output.sol\":347:354  counter */\n  0x00\n    /* \"bootcamp/week3/day_5_homework_part_2_number_array_string_output.sol\":347:358  counter[10] */\n  dup1\n    /* \"bootcamp/week3/day_5_homework_part_2_number_array_string_output.sol\":355:357  10 */\n  0x0a\n    /* \"bootcamp/week3/day_5_homework_part_2_number_array_string_output.sol\":347:358  counter[10] */\n  dup2\n  mstore\n  0x20\n  add\n  swap1\n  dup2\n  mstore\n  0x20\n  add\n  0x00\n  keccak256\n    /* \"bootcamp/week3/day_5_homework_part_2_number_array_string_output.sol\":347:364  counter[10] = \"J\" */\n  swap1\n  dup2\n  tag_14\n  swap2\n  swap1\n  tag_5\n  jump\t// in\ntag_14:\n  pop\n    /* \"bootcamp/week3/day_5_homework_part_2_number_array_string_output.sol\":374:391  counter[11] = \"K\" */\n  mload(0x40)\n  dup1\n  0x40\n  add\n  0x40\n  mstore\n  dup1\n  0x01\n  dup2\n  mstore\n  0x20\n  add\n  0x4b00000000000000000000000000000000000000000000000000000000000000\n  dup2\n  mstore\n  pop\n    /* \"bootcamp/week3/day_5_homework_part_2_number_array_string_output.sol\":374:381  counter */\n  0x00\n    /* \"bootcamp/week3/day_5_homework_part_2_number_array_string_output.sol\":374:385  counter[11] */\n  dup1\n    /* \"bootcamp/week3/day_5_homework_part_2_number_array_string_output.sol\":382:384  11 */\n  0x0b\n    /* \"bootcamp/week3/day_5_homework_part_2_number_array_string_output.sol\":374:385  counter[11] */\n  dup2\n  mstore\n  0x20\n  add\n  swap1\n  dup2\n  mstore\n  0x20\n  add\n  0x00\n  keccak256\n    /* \"bootcamp/week3/day_5_homework_part_2_number_array_string_output.sol\":374:391  counter[11] = \"K\" */\n  swap1\n  dup2\n  tag_15\n  swap2\n  swap1\n  tag_5\n  jump\t// in\ntag_15:\n  pop\n    /* \"bootcamp/week3/day_5_homework_part_2_number_array_string_output.sol\":401:418  counter[12] = \"L\" */\n  mload(0x40)\n  dup1\n  0x40\n  add\n  0x40\n  mstore\n  dup1\n  0x01\n  dup2\n  mstore\n  0x20\n  add\n  0x4c00000000000000000000000000000000000000000000000000000000000000\n  dup2\n  mstore\n  pop\n    /* \"bootcamp/week3/day_5_homework_part_2_number_array_string_output.sol\":401:408  counter */\n  0x00\n    /* \"bootcamp/week3/day_5_homework_part_2_number_array_string_output.sol\":401:412  counter[12] */\n  dup1\n    /* \"bootcamp/week3/day_5_homework_part_2_number_array_string_output.sol\":409:411  12 */\n  0x0c\n    /* \"bootcamp/week3/day_5_homework_part_2_number_array_string_output.sol\":401:412  counter[12] */\n  dup2\n  mstore\n  0x20\n  add\n  swap1\n  dup2\n  mstore\n  0x20\n  add\n  0x00\n  keccak256\n    /* \"bootcamp/week3/day_5_homework_part_2_number_array_string_output.sol\":401:418  counter[12] = \"L\" */\n  swap1\n  dup2\n  tag_16\n  swap2\n  swap1\n  tag_5\n  jump\t// in\ntag_16:\n  pop\n    /* \"bootcamp/week3/day_5_homework_part_2_number_array_string_output.sol\":428:445  counter[13] = \"M\" */\n  mload(0x40)\n  dup1\n  0x40\n  add\n  0x40\n  mstore\n  dup1\n  0x01\n  dup2\n  mstore\n  0x20\n  add\n  0x4d00000000000000000000000000000000000000000000000000000000000000\n  dup2\n  mstore\n  pop\n    /* \"bootcamp/week3/day_5_homework_part_2_number_array_string_output.sol\":428:435  counter */\n  0x00\n    /* \"bootcamp/week3/day_5_homework_part_2_number_array_string_output.sol\":428:439  counter[13] */\n  dup1\n    /* \"bootcamp/week3/day_5_homework_part_2_number_array_string_output.sol\":436:438  13 */\n  0x0d\n    /* \"bootcamp/week3/day_5_homework_part_2_number_array_string_output.sol\":428:439  counter[13] */\n  dup2\n  mstore\n  0x20\n  add\n  swap1\n  dup2\n  mstore\n  0x20\n  add\n  0x00\n  keccak256\n    /* \"bootcamp/week3/day_5_homework_part_2_number_array_string_output.sol\":428:445  counter[13] = \"M\" */\n  swap1\n  dup2\n  tag_17\n  swap2\n  swap1\n  tag_5\n  jump\t// in\ntag_17:\n  pop\n    /* \"bootcamp/week3/day_5_homework_part_2_number_array_string_output.sol\":455:472  counter[14] = \"N\" */\n  mload(0x40)\n  dup1\n  0x40\n  add\n  0x40\n  mstore\n  dup1\n  0x01\n  dup2\n  mstore\n  0x20\n  add\n  0x4e00000000000000000000000000000000000000000000000000000000000000\n  dup2\n  mstore\n  pop\n    /* \"bootcamp/week3/day_5_homework_part_2_number_array_string_output.sol\":455:462  counter */\n  0x00\n    /* \"bootcamp/week3/day_5_homework_part_2_number_array_string_output.sol\":455:466  counter[14] */\n  dup1\n    /* \"bootcamp/week3/day_5_homework_part_2_number_array_string_output.sol\":463:465  14 */\n  0x0e\n    /* \"bootcamp/week3/day_5_homework_part_2_number_array_string_output.sol\":455:466  counter[14] */\n  dup2\n  mstore\n  0x20\n  add\n  swap1\n  dup2\n  mstore\n  0x20\n  add\n  0x00\n  keccak256\n    /* \"bootcamp/week3/day_5_homework_part_2_number_array_string_output.sol\":455:472  counter[14] = \"N\" */\n  swap1\n  dup2\n  tag_18\n  swap2\n  swap1\n  tag_5\n  jump\t// in\ntag_18:\n  pop\n    /* \"bootcamp/week3/day_5_homework_part_2_number_array_string_output.sol\":482:499  counter[15] = \"O\" */\n  mload(0x40)\n  dup1\n  0x40\n  add\n  0x40\n  mstore\n  dup1\n  0x01\n  dup2\n  mstore\n  0x20\n  add\n  0x4f00000000000000000000000000000000000000000000000000000000000000\n  dup2\n  mstore\n  pop\n    /* \"bootcamp/week3/day_5_homework_part_2_number_array_string_output.sol\":482:489  counter */\n  0x00\n    /* \"bootcamp/week3/day_5_homework_part_2_number_array_string_output.sol\":482:493  counter[15] */\n  dup1\n    /* \"bootcamp/week3/day_5_homework_part_2_number_array_string_output.sol\":490:492  15 */\n  0x0f\n    /* \"bootcamp/week3/day_5_homework_part_2_number_array_string_output.sol\":482:493  counter[15] */\n  dup2\n  mstore\n  0x20\n  add\n  swap1\n  dup2\n  mstore\n  0x20\n  add\n  0x00\n  keccak256\n    /* \"bootcamp/week3/day_5_homework_part_2_number_array_string_output.sol\":482:499  counter[15] = \"O\" */\n  swap1\n  dup2\n  tag_19\n  swap2\n  swap1\n  tag_5\n  jump\t// in\ntag_19:\n  pop\n    /* \"bootcamp/week3/day_5_homework_part_2_number_array_string_output.sol\":509:526  counter[16] = \"P\" */\n  mload(0x40)\n  dup1\n  0x40\n  add\n  0x40\n  mstore\n  dup1\n  0x01\n  dup2\n  mstore\n  0x20\n  add\n  0x5000000000000000000000000000000000000000000000000000000000000000\n  dup2\n  mstore\n  pop\n    /* \"bootcamp/week3/day_5_homework_part_2_number_array_string_output.sol\":509:516  counter */\n  0x00\n    /* \"bootcamp/week3/day_5_homework_part_2_number_array_string_output.sol\":509:520  counter[16] */\n  dup1\n    /* \"bootcamp/week3/day_5_homework_part_2_number_array_string_output.sol\":517:519  16 */\n  0x10\n    /* \"bootcamp/week3/day_5_homework_part_2_number_array_string_output.sol\":509:520  counter[16] */\n  dup2\n  mstore\n  0x20\n  add\n  swap1\n  dup2\n  mstore\n  0x20\n  add\n  0x00\n  keccak256\n    /* \"bootcamp/week3/day_5_homework_part_2_number_array_string_output.sol\":509:526  counter[16] = \"P\" */\n  swap1\n  dup2\n  tag_20\n  swap2\n  swap1\n  tag_5\n  jump\t// in\ntag_20:\n  pop\n    /* \"bootcamp/week3/day_5_homework_part_2_number_array_string_output.sol\":536:553  counter[17] = \"Q\" */\n  mload(0x40)\n  dup1\n  0x40\n  add\n  0x40\n  mstore\n  dup1\n  0x01\n  dup2\n  mstore\n  0x20\n  add\n  0x5100000000000000000000000000000000000000000000000000000000000000\n  dup2\n  mstore\n  pop\n    /* \"bootcamp/week3/day_5_homework_part_2_number_array_string_output.sol\":536:543  counter */\n  0x00\n    /* \"bootcamp/week3/day_5_homework_part_2_number_array_string_output.sol\":536:547  counter[17] */\n  dup1\n    /* \"bootcamp/week3/day_5_homework_part_2_number_array_string_output.sol\":544:546  17 */\n  0x11\n    /* \"bootcamp/week3/day_5_homework_part_2_number_array_string_output.sol\":536:547  counter[17] */\n  dup2\n  mstore\n  0x20\n  add\n  swap1\n  dup2\n  mstore\n  0x20\n  add\n  0x00\n  keccak256\n    /* \"bootcamp/week3/day_5_homework_part_2_number_array_string_output.sol\":536:553  counter[17] = \"Q\" */\n  swap1\n  dup2\n  tag_21\n  swap2\n  swap1\n  tag_5\n  jump\t// in\ntag_21:\n  pop\n    /* \"bootcamp/week3/day_5_homework_part_2_number_array_string_output.sol\":563:580  counter[18] = \"R\" */\n  mload(0x40)\n  dup1\n  0x40\n  add\n  0x40\n  mstore\n  dup1\n  0x01\n  dup2\n  mstore\n  0x20\n  add\n  0x5200000000000000000000000000000000000000000000000000000000000000\n  dup2\n  mstore\n  pop\n    /* \"bootcamp/week3/day_5_homework_part_2_number_array_string_output.sol\":563:570  counter */\n  0x00\n    /* \"bootcamp/week3/day_5_homework_part_2_number_array_string_output.sol\":563:574  counter[18] */\n  dup1\n    /* \"bootcamp/week3/day_5_homework_part_2_number_array_string_output.sol\":571:573  18 */\n  0x12\n    /* \"bootcamp/week3/day_5_homework_part_2_number_array_string_output.sol\":563:574  counter[18] */\n  dup2\n  mstore\n  0x20\n  add\n  swap1\n  dup2\n  mstore\n  0x20\n  add\n  0x00\n  keccak256\n    /* \"bootcamp/week3/day_5_homework_part_2_number_array_string_output.sol\":563:580  counter[18] = \"R\" */\n  swap1\n  dup2\n  tag_22\n  swap2\n  swap1\n  tag_5\n  jump\t// in\ntag_22:\n  pop\n    /* \"bootcamp/week3/day_5_homework_part_2_number_array_string_output.sol\":590:607  counter[19] = \"S\" */\n  mload(0x40)\n  dup1\n  0x40\n  add\n  0x40\n  mstore\n  dup1\n  0x01\n  dup2\n  mstore\n  0x20\n  add\n  0x5300000000000000000000000000000000000000000000000000000000000000\n  dup2\n  mstore\n  pop\n    /* \"bootcamp/week3/day_5_homework_part_2_number_array_string_output.sol\":590:597  counter */\n  0x00\n    /* \"bootcamp/week3/day_5_homework_part_2_number_array_string_output.sol\":590:601  counter[19] */\n  dup1\n    /* \"bootcamp/week3/day_5_homework_part_2_number_array_string_output.sol\":598:600  19 */\n  0x13\n    /* \"bootcamp/week3/day_5_homework_part_2_number_array_string_output.sol\":590:601  counter[19] */\n  dup2\n  mstore\n  0x20\n  add\n  swap1\n  dup2\n  mstore\n  0x20\n  add\n  0x00\n  keccak256\n    /* \"bootcamp/week3/day_5_homework_part_2_number_array_string_output.sol\":590:607  counter[19] = \"S\" */\n  swap1\n  dup2\n  tag_23\n  swap2\n  swap1\n  tag_5\n  jump\t// in\ntag_23:\n  pop\n    /* \"bootcamp/week3/day_5_homework_part_2_number_array_string_output.sol\":617:634  counter[20] = \"T\" */\n  mload(0x40)\n  dup1\n  0x40\n  add\n  0x40\n  mstore\n  dup1\n  0x01\n  dup2\n  mstore\n  0x20\n  add\n  0x5400000000000000000000000000000000000000000000000000000000000000\n  dup2\n  mstore\n  pop\n    /* \"bootcamp/week3/day_5_homework_part_2_number_array_string_output.sol\":617:624  counter */\n  0x00\n    /* \"bootcamp/week3/day_5_homework_part_2_number_array_string_output.sol\":617:628  counter[20] */\n  dup1\n    /* \"bootcamp/week3/day_5_homework_part_2_number_array_string_output.sol\":625:627  20 */\n  0x14\n    /* \"bootcamp/week3/day_5_homework_part_2_number_array_string_output.sol\":617:628  counter[20] */\n  dup2\n  mstore\n  0x20\n  add\n  swap1\n  dup2\n  mstore\n  0x20\n  add\n  0x00\n  keccak256\n    /* \"bootcamp/week3/day_5_homework_part_2_number_array_string_output.sol\":617:634  counter[20] = \"T\" */\n  swap1\n  dup2\n  tag_24\n  swap2\n  swap1\n  tag_5\n  jump\t// in\ntag_24:\n  pop\n    /* \"bootcamp/week3/day_5_homework_part_2_number_array_string_output.sol\":644:661  counter[21] = \"U\" */\n  mload(0x40)\n  dup1\n  0x40\n  add\n  0x40\n  mstore\n  dup1\n  0x01\n  dup2\n  mstore\n  0x20\n  add\n  0x5500000000000000000000000000000000000000000000000000000000000000\n  dup2\n  mstore\n  pop\n    /* \"bootcamp/week3/day_5_homework_part_2_number_array_string_output.sol\":644:651  counter */\n  0x00\n    /* \"bootcamp/week3/day_5_homework_part_2_number_array_string_output.sol\":644:655  counter[21] */\n  dup1\n    /* \"bootcamp/week3/day_5_homework_part_2_number_array_string_output.sol\":652:654  21 */\n  0x15\n    /* \"bootcamp/week3/day_5_homework_part_2_number_array_string_output.sol\":644:655  counter[21] */\n  dup2\n  mstore\n  0x20\n  add\n  swap1\n  dup2\n  mstore\n  0x20\n  add\n  0x00\n  keccak256\n    /* \"bootcamp/week3/day_5_homework_part_2_number_array_string_output.sol\":644:661  counter[21] = \"U\" */\n  swap1\n  dup2\n  tag_25\n  swap2\n  swap1\n  tag_5\n  jump\t// in\ntag_25:\n  pop\n    /* \"bootcamp/week3/day_5_homework_part_2_number_array_string_output.sol\":671:688  counter[22] = \"V\" */\n  mload(0x40)\n  dup1\n  0x40\n  add\n  0x40\n  mstore\n  dup1\n  0x01\n  dup2\n  mstore\n  0x20\n  add\n  0x5600000000000000000000000000000000000000000000000000000000000000\n  dup2\n  mstore\n  pop\n    /* \"bootcamp/week3/day_5_homework_part_2_number_array_string_output.sol\":671:678  counter */\n  0x00\n    /* \"bootcamp/week3/day_5_homework_part_2_number_array_string_output.sol\":671:682  counter[22] */\n  dup1\n    /* \"bootcamp/week3/day_5_homework_part_2_number_array_string_output.sol\":679:681  22 */\n  0x16\n    /* \"bootcamp/week3/day_5_homework_part_2_number_array_string_output.sol\":671:682  counter[22] */\n  dup2\n  mstore\n  0x20\n  add\n  swap1\n  dup2\n  mstore\n  0x20\n  add\n  0x00\n  keccak256\n    /* \"bootcamp/week3/day_5_homework_part_2_number_array_string_output.sol\":671:688  counter[22] = \"V\" */\n  swap1\n  dup2\n  tag_26\n  swap2\n  swap1\n  tag_5\n  jump\t// in\ntag_26:\n  pop\n    /* \"bootcamp/week3/day_5_homework_part_2_number_array_string_output.sol\":698:715  counter[23] = \"W\" */\n  mload(0x40)\n  dup1\n  0x40\n  add\n  0x40\n  mstore\n  dup1\n  0x01\n  dup2\n  mstore\n  0x20\n  add\n  0x5700000000000000000000000000000000000000000000000000000000000000\n  dup2\n  mstore\n  pop\n    /* \"bootcamp/week3/day_5_homework_part_2_number_array_string_output.sol\":698:705  counter */\n  0x00\n    /* \"bootcamp/week3/day_5_homework_part_2_number_array_string_output.sol\":698:709  counter[23] */\n  dup1\n    /* \"bootcamp/week3/day_5_homework_part_2_number_array_string_output.sol\":706:708  23 */\n  0x17\n    /* \"bootcamp/week3/day_5_homework_part_2_number_array_string_output.sol\":698:709  counter[23] */\n  dup2\n  mstore\n  0x20\n  add\n  swap1\n  dup2\n  mstore\n  0x20\n  add\n  0x00\n  keccak256\n    /* \"bootcamp/week3/day_5_homework_part_2_number_array_string_output.sol\":698:715  counter[23] = \"W\" */\n  swap1\n  dup2\n  tag_27\n  swap2\n  swap1\n  tag_5\n  jump\t// in\ntag_27:\n  pop\n    /* \"bootcamp/week3/day_5_homework_part_2_number_array_string_output.sol\":725:742  counter[24] = \"X\" */\n  mload(0x40)\n  dup1\n  0x40\n  add\n  0x40\n  mstore\n  dup1\n  0x01\n  dup2\n  mstore\n  0x20\n  add\n  0x5800000000000000000000000000000000000000000000000000000000000000\n  dup2\n  mstore\n  pop\n    /* \"bootcamp/week3/day_5_homework_part_2_number_array_string_output.sol\":725:732  counter */\n  0x00\n    /* \"bootcamp/week3/day_5_homework_part_2_number_array_string_output.sol\":725:736  counter[24] */\n  dup1\n    /* \"bootcamp/week3/day_5_homework_part_2_number_array_string_output.sol\":733:735  24 */\n  0x18\n    /* \"bootcamp/week3/day_5_homework_part_2_number_array_string_output.sol\":725:736  counter[24] */\n  dup2\n  mstore\n  0x20\n  add\n  swap1\n  dup2\n  mstore\n  0x20\n  add\n  0x00\n  keccak256\n    /* \"bootcamp/week3/day_5_homework_part_2_number_array_string_output.sol\":725:742  counter[24] = \"X\" */\n  swap1\n  dup2\n  tag_28\n  swap2\n  swap1\n  tag_5\n  jump\t// in\ntag_28:\n  pop\n    /* \"bootcamp/week3/day_5_homework_part_2_number_array_string_output.sol\":752:769  counter[25] = \"Y\" */\n  mload(0x40)\n  dup1\n  0x40\n  add\n  0x40\n  mstore\n  dup1\n  0x01\n  dup2\n  mstore\n  0x20\n  add\n  0x5900000000000000000000000000000000000000000000000000000000000000\n  dup2\n  mstore\n  pop\n    /* \"bootcamp/week3/day_5_homework_part_2_number_array_string_output.sol\":752:759  counter */\n  0x00\n    /* \"bootcamp/week3/day_5_homework_part_2_number_array_string_output.sol\":752:763  counter[25] */\n  dup1\n    /* \"bootcamp/week3/day_5_homework_part_2_number_array_string_output.sol\":760:762  25 */\n  0x19\n    /* \"bootcamp/week3/day_5_homework_part_2_number_array_string_output.sol\":752:763  counter[25] */\n  dup2\n  mstore\n  0x20\n  add\n  swap1\n  dup2\n  mstore\n  0x20\n  add\n  0x00\n  keccak256\n    /* \"bootcamp/week3/day_5_homework_part_2_number_array_string_output.sol\":752:769  counter[25] = \"Y\" */\n  swap1\n  dup2\n  tag_29\n  swap2\n  swap1\n  tag_5\n  jump\t// in\ntag_29:\n  pop\n    /* \"bootcamp/week3/day_5_homework_part_2_number_array_string_output.sol\":779:796  counter[26] = \"Z\" */\n  mload(0x40)\n  dup1\n  0x40\n  add\n  0x40\n  mstore\n  dup1\n  0x01\n  dup2\n  mstore\n  0x20\n  add\n  0x5a00000000000000000000000000000000000000000000000000000000000000\n  dup2\n  mstore\n  pop\n    /* \"bootcamp/week3/day_5_homework_part_2_number_array_string_output.sol\":779:786  counter */\n  0x00\n    /* \"bootcamp/week3/day_5_homework_part_2_number_array_string_output.sol\":779:790  counter[26] */\n  dup1\n    /* \"bootcamp/week3/day_5_homework_part_2_number_array_string_output.sol\":787:789  26 */\n  0x1a\n    /* \"bootcamp/week3/day_5_homework_part_2_number_array_string_output.sol\":779:790  counter[26] */\n  dup2\n  mstore\n  0x20\n  add\n  swap1\n  dup2\n  mstore\n  0x20\n  add\n  0x00\n  keccak256\n    /* \"bootcamp/week3/day_5_homework_part_2_number_array_string_output.sol\":779:796  counter[26] = \"Z\" */\n  swap1\n  dup2\n  tag_30\n  swap2\n  swap1\n  tag_5\n  jump\t// in\ntag_30:\n  pop\n    /* \"bootcamp/week3/day_5_homework_part_2_number_array_string_output.sol\":58:1382  contract NumberToString {... */\n  jump(tag_31)\n    /* \"#utility.yul\":7:106   */\ntag_32:\n    /* \"#utility.yul\":59:65   */\n  0x00\n    /* \"#utility.yul\":93:98   */\n  dup2\n    /* \"#utility.yul\":87:99   */\n  mload\n    /* \"#utility.yul\":77:99   */\n  swap1\n  pop\n    /* \"#utility.yul\":7:106   */\n  swap2\n  swap1\n  pop\n  jump\t// out\n    /* \"#utility.yul\":112:292   */\ntag_33:\n    /* \"#utility.yul\":160:237   */\n  0x4e487b7100000000000000000000000000000000000000000000000000000000\n    /* \"#utility.yul\":157:158   */\n  0x00\n    /* \"#utility.yul\":150:238   */\n  mstore\n    /* \"#utility.yul\":257:261   */\n  0x41\n    /* \"#utility.yul\":254:255   */\n  0x04\n    /* \"#utility.yul\":247:262   */\n  mstore\n    /* \"#utility.yul\":281:285   */\n  0x24\n    /* \"#utility.yul\":278:279   */\n  0x00\n    /* \"#utility.yul\":271:286   */\n  revert\n    /* \"#utility.yul\":298:478   */\ntag_34:\n    /* \"#utility.yul\":346:423   */\n  0x4e487b7100000000000000000000000000000000000000000000000000000000\n    /* \"#utility.yul\":343:344   */\n  0x00\n    /* \"#utility.yul\":336:424   */\n  mstore\n    /* \"#utility.yul\":443:447   */\n  0x22\n    /* \"#utility.yul\":440:441   */\n  0x04\n    /* \"#utility.yul\":433:448   */\n  mstore\n    /* \"#utility.yul\":467:471   */\n  0x24\n    /* \"#utility.yul\":464:465   */\n  0x00\n    /* \"#utility.yul\":457:472   */\n  revert\n    /* \"#utility.yul\":484:804   */\ntag_35:\n    /* \"#utility.yul\":528:534   */\n  0x00\n    /* \"#utility.yul\":565:566   */\n  0x02\n    /* \"#utility.yul\":559:563   */\n  dup3\n    /* \"#utility.yul\":555:567   */\n  div\n    /* \"#utility.yul\":545:567   */\n  swap1\n  pop\n    /* \"#utility.yul\":612:613   */\n  0x01\n    /* \"#utility.yul\":606:610   */\n  dup3\n    /* \"#utility.yul\":602:614   */\n  and\n    /* \"#utility.yul\":633:651   */\n  dup1\n    /* \"#utility.yul\":623:704   */\n  tag_57\n  jumpi\n    /* \"#utility.yul\":689:693   */\n  0x7f\n    /* \"#utility.yul\":681:687   */\n  dup3\n    /* \"#utility.yul\":677:694   */\n  and\n    /* \"#utility.yul\":667:694   */\n  swap2\n  pop\n    /* \"#utility.yul\":623:704   */\ntag_57:\n    /* \"#utility.yul\":751:753   */\n  0x20\n    /* \"#utility.yul\":743:749   */\n  dup3\n    /* \"#utility.yul\":740:754   */\n  lt\n    /* \"#utility.yul\":720:738   */\n  dup2\n    /* \"#utility.yul\":717:755   */\n  sub\n    /* \"#utility.yul\":714:798   */\n  tag_58\n  jumpi\n    /* \"#utility.yul\":770:788   */\n  tag_59\n  tag_34\n  jump\t// in\ntag_59:\n    /* \"#utility.yul\":714:798   */\ntag_58:\n    /* \"#utility.yul\":535:804   */\n  pop\n    /* \"#utility.yul\":484:804   */\n  swap2\n  swap1\n  pop\n  jump\t// out\n    /* \"#utility.yul\":810:951   */\ntag_36:\n    /* \"#utility.yul\":859:863   */\n  0x00\n    /* \"#utility.yul\":882:885   */\n  dup2\n    /* \"#utility.yul\":874:885   */\n  swap1\n  pop\n    /* \"#utility.yul\":905:908   */\n  dup2\n    /* \"#utility.yul\":902:903   */\n  0x00\n    /* \"#utility.yul\":895:909   */\n  mstore\n    /* \"#utility.yul\":939:943   */\n  0x20\n    /* \"#utility.yul\":936:937   */\n  0x00\n    /* \"#utility.yul\":926:944   */\n  keccak256\n    /* \"#utility.yul\":918:944   */\n  swap1\n  pop\n    /* \"#utility.yul\":810:951   */\n  swap2\n  swap1\n  pop\n  jump\t// out\n    /* \"#utility.yul\":957:1050   */\ntag_37:\n    /* \"#utility.yul\":994:1000   */\n  0x00\n    /* \"#utility.yul\":1041:1043   */\n  0x20\n    /* \"#utility.yul\":1036:1038   */\n  0x1f\n    /* \"#utility.yul\":1029:1034   */\n  dup4\n    /* \"#utility.yul\":1025:1039   */\n  add\n    /* \"#utility.yul\":1021:1044   */\n  div\n    /* \"#utility.yul\":1011:1044   */\n  swap1\n  pop\n    /* \"#utility.yul\":957:1050   */\n  swap2\n  swap1\n  pop\n  jump\t// out\n    /* \"#utility.yul\":1056:1163   */\ntag_38:\n    /* \"#utility.yul\":1100:1108   */\n  0x00\n    /* \"#utility.yul\":1150:1155   */\n  dup3\n    /* \"#utility.yul\":1144:1148   */\n  dup3\n    /* \"#utility.yul\":1140:1156   */\n  shl\n    /* \"#utility.yul\":1119:1156   */\n  swap1\n  pop\n    /* \"#utility.yul\":1056:1163   */\n  swap3\n  swap2\n  pop\n  pop\n  jump\t// out\n    /* \"#utility.yul\":1169:1562   */\ntag_39:\n    /* \"#utility.yul\":1238:1244   */\n  0x00\n    /* \"#utility.yul\":1288:1289   */\n  0x08\n    /* \"#utility.yul\":1276:1286   */\n  dup4\n    /* \"#utility.yul\":1272:1290   */\n  mul\n    /* \"#utility.yul\":1311:1408   */\n  tag_64\n    /* \"#utility.yul\":1341:1407   */\n  0xffffffffffffffffffffffffffffffffffffffffffffffffffffffffffffffff\n    /* \"#utility.yul\":1330:1339   */\n  dup3\n    /* \"#utility.yul\":1311:1408   */\n  tag_38\n  jump\t// in\ntag_64:\n    /* \"#utility.yul\":1429:1468   */\n  tag_65\n    /* \"#utility.yul\":1459:1467   */\n  dup7\n    /* \"#utility.yul\":1448:1457   */\n  dup4\n    /* \"#utility.yul\":1429:1468   */\n  tag_38\n  jump\t// in\ntag_65:\n    /* \"#utility.yul\":1417:1468   */\n  swap6\n  pop\n    /* \"#utility.yul\":1501:1505   */\n  dup1\n    /* \"#utility.yul\":1497:1506   */\n  not\n    /* \"#utility.yul\":1490:1495   */\n  dup5\n    /* \"#utility.yul\":1486:1507   */\n  and\n    /* \"#utility.yul\":1477:1507   */\n  swap4\n  pop\n    /* \"#utility.yul\":1550:1554   */\n  dup1\n    /* \"#utility.yul\":1540:1548   */\n  dup7\n    /* \"#utility.yul\":1536:1555   */\n  and\n    /* \"#utility.yul\":1529:1534   */\n  dup5\n    /* \"#utility.yul\":1526:1556   */\n  or\n    /* \"#utility.yul\":1516:1556   */\n  swap3\n  pop\n    /* \"#utility.yul\":1245:1562   */\n  pop\n  pop\n    /* \"#utility.yul\":1169:1562   */\n  swap4\n  swap3\n  pop\n  pop\n  pop\n  jump\t// out\n    /* \"#utility.yul\":1568:1645   */\ntag_40:\n    /* \"#utility.yul\":1605:1612   */\n  0x00\n    /* \"#utility.yul\":1634:1639   */\n  dup2\n    /* \"#utility.yul\":1623:1639   */\n  swap1\n  pop\n    /* \"#utility.yul\":1568:1645   */\n  swap2\n  swap1\n  pop\n  jump\t// out\n    /* \"#utility.yul\":1651:1711   */\ntag_41:\n    /* \"#utility.yul\":1679:1682   */\n  0x00\n    /* \"#utility.yul\":1700:1705   */\n  dup2\n    /* \"#utility.yul\":1693:1705   */\n  swap1\n  pop\n    /* \"#utility.yul\":1651:1711   */\n  swap2\n  swap1\n  pop\n  jump\t// out\n    /* \"#utility.yul\":1717:1859   */\ntag_42:\n    /* \"#utility.yul\":1767:1776   */\n  0x00\n    /* \"#utility.yul\":1800:1853   */\n  tag_69\n    /* \"#utility.yul\":1818:1852   */\n  tag_70\n    /* \"#utility.yul\":1827:1851   */\n  tag_71\n    /* \"#utility.yul\":1845:1850   */\n  dup5\n    /* \"#utility.yul\":1827:1851   */\n  tag_40\n  jump\t// in\ntag_71:\n    /* \"#utility.yul\":1818:1852   */\n  tag_41\n  jump\t// in\ntag_70:\n    /* \"#utility.yul\":1800:1853   */\n  tag_40\n  jump\t// in\ntag_69:\n    /* \"#utility.yul\":1787:1853   */\n  swap1\n  pop\n    /* \"#utility.yul\":1717:1859   */\n  swap2\n  swap1\n  pop\n  jump\t// out\n    /* \"#utility.yul\":1865:1940   */\ntag_43:\n    /* \"#utility.yul\":1908:1911   */\n  0x00\n    /* \"#utility.yul\":1929:1934   */\n  dup2\n    /* \"#utility.yul\":1922:1934   */\n  swap1\n  pop\n    /* \"#utility.yul\":1865:1940   */\n  swap2\n  swap1\n  pop\n  jump\t// out\n    /* \"#utility.yul\":1946:2215   */\ntag_44:\n    /* \"#utility.yul\":2056:2095   */\n  tag_74\n    /* \"#utility.yul\":2087:2094   */\n  dup4\n    /* \"#utility.yul\":2056:2095   */\n  tag_42\n  jump\t// in\ntag_74:\n    /* \"#utility.yul\":2117:2208   */\n  tag_75\n    /* \"#utility.yul\":2166:2207   */\n  tag_76\n    /* \"#utility.yul\":2190:2206   */\n  dup3\n    /* \"#utility.yul\":2166:2207   */\n  tag_43\n  jump\t// in\ntag_76:\n    /* \"#utility.yul\":2158:2164   */\n  dup5\n    /* \"#utility.yul\":2151:2155   */\n  dup5\n    /* \"#utility.yul\":2145:2156   */\n  sload\n    /* \"#utility.yul\":2117:2208   */\n  tag_39\n  jump\t// in\ntag_75:\n    /* \"#utility.yul\":2111:2115   */\n  dup3\n    /* \"#utility.yul\":2104:2209   */\n  sstore\n    /* \"#utility.yul\":2022:2215   */\n  pop\n    /* \"#utility.yul\":1946:2215   */\n  pop\n  pop\n  pop\n  jump\t// out\n    /* \"#utility.yul\":2221:2294   */\ntag_45:\n    /* \"#utility.yul\":2266:2269   */\n  0x00\n    /* \"#utility.yul\":2221:2294   */\n  swap1\n  jump\t// out\n    /* \"#utility.yul\":2300:2489   */\ntag_46:\n    /* \"#utility.yul\":2377:2409   */\n  tag_79\n  tag_45\n  jump\t// in\ntag_79:\n    /* \"#utility.yul\":2418:2483   */\n  tag_80\n    /* \"#utility.yul\":2476:2482   */\n  dup2\n    /* \"#utility.yul\":2468:2474   */\n  dup5\n    /* \"#utility.yul\":2462:2466   */\n  dup5\n    /* \"#utility.yul\":2418:2483   */\n  tag_44\n  jump\t// in\ntag_80:\n    /* \"#utility.yul\":2353:2489   */\n  pop\n    /* \"#utility.yul\":2300:2489   */\n  pop\n  pop\n  jump\t// out\n    /* \"#utility.yul\":2495:2681   */\ntag_47:\n    /* \"#utility.yul\":2555:2675   */\ntag_82:\n    /* \"#utility.yul\":2572:2575   */\n  dup2\n    /* \"#utility.yul\":2565:2570   */\n  dup2\n    /* \"#utility.yul\":2562:2576   */\n  lt\n    /* \"#utility.yul\":2555:2675   */\n  iszero\n  tag_84\n  jumpi\n    /* \"#utility.yul\":2626:2665   */\n  tag_85\n    /* \"#utility.yul\":2663:2664   */\n  0x00\n    /* \"#utility.yul\":2656:2661   */\n  dup3\n    /* \"#utility.yul\":2626:2665   */\n  tag_46\n  jump\t// in\ntag_85:\n    /* \"#utility.yul\":2599:2600   */\n  0x01\n    /* \"#utility.yul\":2592:2597   */\n  dup2\n    /* \"#utility.yul\":2588:2601   */\n  add\n    /* \"#utility.yul\":2579:2601   */\n  swap1\n  pop\n    /* \"#utility.yul\":2555:2675   */\n  jump(tag_82)\ntag_84:\n    /* \"#utility.yul\":2495:2681   */\n  pop\n  pop\n  jump\t// out\n    /* \"#utility.yul\":2687:3230   */\ntag_48:\n    /* \"#utility.yul\":2788:2790   */\n  0x1f\n    /* \"#utility.yul\":2783:2786   */\n  dup3\n    /* \"#utility.yul\":2780:2791   */\n  gt\n    /* \"#utility.yul\":2777:3223   */\n  iszero\n  tag_87\n  jumpi\n    /* \"#utility.yul\":2822:2860   */\n  tag_88\n    /* \"#utility.yul\":2854:2859   */\n  dup2\n    /* \"#utility.yul\":2822:2860   */\n  tag_36\n  jump\t// in\ntag_88:\n    /* \"#utility.yul\":2906:2935   */\n  tag_89\n    /* \"#utility.yul\":2924:2934   */\n  dup5\n    /* \"#utility.yul\":2906:2935   */\n  tag_37\n  jump\t// in\ntag_89:\n    /* \"#utility.yul\":2896:2904   */\n  dup2\n    /* \"#utility.yul\":2892:2936   */\n  add\n    /* \"#utility.yul\":3089:3091   */\n  0x20\n    /* \"#utility.yul\":3077:3087   */\n  dup6\n    /* \"#utility.yul\":3074:3092   */\n  lt\n    /* \"#utility.yul\":3071:3120   */\n  iszero\n  tag_90\n  jumpi\n    /* \"#utility.yul\":3110:3118   */\n  dup2\n    /* \"#utility.yul\":3095:3118   */\n  swap1\n  pop\n    /* \"#utility.yul\":3071:3120   */\ntag_90:\n    /* \"#utility.yul\":3133:3213   */\n  tag_91\n    /* \"#utility.yul\":3189:3211   */\n  tag_92\n    /* \"#utility.yul\":3207:3210   */\n  dup6\n    /* \"#utility.yul\":3189:3211   */\n  tag_37\n  jump\t// in\ntag_92:\n    /* \"#utility.yul\":3179:3187   */\n  dup4\n    /* \"#utility.yul\":3175:3212   */\n  add\n    /* \"#utility.yul\":3162:3173   */\n  dup3\n    /* \"#utility.yul\":3133:3213   */\n  tag_47\n  jump\t// in\ntag_91:\n    /* \"#utility.yul\":2792:3223   */\n  pop\n  pop\n    /* \"#utility.yul\":2777:3223   */\ntag_87:\n    /* \"#utility.yul\":2687:3230   */\n  pop\n  pop\n  pop\n  jump\t// out\n    /* \"#utility.yul\":3236:3353   */\ntag_49:\n    /* \"#utility.yul\":3290:3298   */\n  0x00\n    /* \"#utility.yul\":3340:3345   */\n  dup3\n    /* \"#utility.yul\":3334:3338   */\n  dup3\n    /* \"#utility.yul\":3330:3346   */\n  shr\n    /* \"#utility.yul\":3309:3346   */\n  swap1\n  pop\n    /* \"#utility.yul\":3236:3353   */\n  swap3\n  swap2\n  pop\n  pop\n  jump\t// out\n    /* \"#utility.yul\":3359:3528   */\ntag_50:\n    /* \"#utility.yul\":3403:3409   */\n  0x00\n    /* \"#utility.yul\":3436:3487   */\n  tag_95\n    /* \"#utility.yul\":3484:3485   */\n  0x00\n    /* \"#utility.yul\":3480:3486   */\n  not\n    /* \"#utility.yul\":3472:3477   */\n  dup5\n    /* \"#utility.yul\":3469:3470   */\n  0x08\n    /* \"#utility.yul\":3465:3478   */\n  mul\n    /* \"#utility.yul\":3436:3487   */\n  tag_49\n  jump\t// in\ntag_95:\n    /* \"#utility.yul\":3432:3488   */\n  not\n    /* \"#utility.yul\":3517:3521   */\n  dup1\n    /* \"#utility.yul\":3511:3515   */\n  dup4\n    /* \"#utility.yul\":3507:3522   */\n  and\n    /* \"#utility.yul\":3497:3522   */\n  swap2\n  pop\n    /* \"#utility.yul\":3410:3528   */\n  pop\n    /* \"#utility.yul\":3359:3528   */\n  swap3\n  swap2\n  pop\n  pop\n  jump\t// out\n    /* \"#utility.yul\":3533:3828   */\ntag_51:\n    /* \"#utility.yul\":3609:3613   */\n  0x00\n    /* \"#utility.yul\":3755:3784   */\n  tag_97\n    /* \"#utility.yul\":3780:3783   */\n  dup4\n    /* \"#utility.yul\":3774:3778   */\n  dup4\n    /* \"#utility.yul\":3755:3784   */\n  tag_50\n  jump\t// in\ntag_97:\n    /* \"#utility.yul\":3747:3784   */\n  swap2\n  pop\n    /* \"#utility.yul\":3817:3820   */\n  dup3\n    /* \"#utility.yul\":3814:3815   */\n  0x02\n    /* \"#utility.yul\":3810:3821   */\n  mul\n    /* \"#utility.yul\":3804:3808   */\n  dup3\n    /* \"#utility.yul\":3801:3822   */\n  or\n    /* \"#utility.yul\":3793:3822   */\n  swap1\n  pop\n    /* \"#utility.yul\":3533:3828   */\n  swap3\n  swap2\n  pop\n  pop\n  jump\t// out\n    /* \"#utility.yul\":3833:5228   */\ntag_5:\n    /* \"#utility.yul\":3950:3987   */\n  tag_99\n    /* \"#utility.yul\":3983:3986   */\n  dup3\n    /* \"#utility.yul\":3950:3987   */\n  tag_32\n  jump\t// in\ntag_99:\n    /* \"#utility.yul\":4052:4070   */\n  0xffffffffffffffff\n    /* \"#utility.yul\":4044:4050   */\n  dup2\n    /* \"#utility.yul\":4041:4071   */\n  gt\n    /* \"#utility.yul\":4038:4094   */\n  iszero\n  tag_100\n  jumpi\n    /* \"#utility.yul\":4074:4092   */\n  tag_101\n  tag_33\n  jump\t// in\ntag_101:\n    /* \"#utility.yul\":4038:4094   */\ntag_100:\n    /* \"#utility.yul\":4118:4156   */\n  tag_102\n    /* \"#utility.yul\":4150:4154   */\n  dup3\n    /* \"#utility.yul\":4144:4155   */\n  sload\n    /* \"#utility.yul\":4118:4156   */\n  tag_35\n  jump\t// in\ntag_102:\n    /* \"#utility.yul\":4203:4270   */\n  tag_103\n    /* \"#utility.yul\":4263:4269   */\n  dup3\n    /* \"#utility.yul\":4255:4261   */\n  dup3\n    /* \"#utility.yul\":4249:4253   */\n  dup6\n    /* \"#utility.yul\":4203:4270   */\n  tag_48\n  jump\t// in\ntag_103:\n    /* \"#utility.yul\":4297:4298   */\n  0x00\n    /* \"#utility.yul\":4321:4325   */\n  0x20\n    /* \"#utility.yul\":4308:4325   */\n  swap1\n  pop\n    /* \"#utility.yul\":4353:4355   */\n  0x1f\n    /* \"#utility.yul\":4345:4351   */\n  dup4\n    /* \"#utility.yul\":4342:4356   */\n  gt\n    /* \"#utility.yul\":4370:4371   */\n  0x01\n    /* \"#utility.yul\":4365:4983   */\n  dup2\n  eq\n  tag_105\n  jumpi\n    /* \"#utility.yul\":5027:5028   */\n  0x00\n    /* \"#utility.yul\":5044:5050   */\n  dup5\n    /* \"#utility.yul\":5041:5118   */\n  iszero\n  tag_106\n  jumpi\n    /* \"#utility.yul\":5093:5102   */\n  dup3\n    /* \"#utility.yul\":5088:5091   */\n  dup8\n    /* \"#utility.yul\":5084:5103   */\n  add\n    /* \"#utility.yul\":5078:5104   */\n  mload\n    /* \"#utility.yul\":5069:5104   */\n  swap1\n  pop\n    /* \"#utility.yul\":5041:5118   */\ntag_106:\n    /* \"#utility.yul\":5144:5211   */\n  tag_107\n    /* \"#utility.yul\":5204:5210   */\n  dup6\n    /* \"#utility.yul\":5197:5202   */\n  dup3\n    /* \"#utility.yul\":5144:5211   */\n  tag_51\n  jump\t// in\ntag_107:\n    /* \"#utility.yul\":5138:5142   */\n  dup7\n    /* \"#utility.yul\":5131:5212   */\n  sstore\n    /* \"#utility.yul\":5000:5222   */\n  pop\n    /* \"#utility.yul\":4335:5222   */\n  jump(tag_104)\n    /* \"#utility.yul\":4365:4983   */\ntag_105:\n    /* \"#utility.yul\":4417:4421   */\n  0x1f\n    /* \"#utility.yul\":4413:4422   */\n  not\n    /* \"#utility.yul\":4405:4411   */\n  dup5\n    /* \"#utility.yul\":4401:4423   */\n  and\n    /* \"#utility.yul\":4451:4488   */\n  tag_108\n    /* \"#utility.yul\":4483:4487   */\n  dup7\n    /* \"#utility.yul\":4451:4488   */\n  tag_36\n  jump\t// in\ntag_108:\n    /* \"#utility.yul\":4510:4511   */\n  0x00\n    /* \"#utility.yul\":4524:4732   */\ntag_109:\n    /* \"#utility.yul\":4538:4545   */\n  dup3\n    /* \"#utility.yul\":4535:4536   */\n  dup2\n    /* \"#utility.yul\":4532:4546   */\n  lt\n    /* \"#utility.yul\":4524:4732   */\n  iszero\n  tag_111\n  jumpi\n    /* \"#utility.yul\":4617:4626   */\n  dup5\n    /* \"#utility.yul\":4612:4615   */\n  dup10\n    /* \"#utility.yul\":4608:4627   */\n  add\n    /* \"#utility.yul\":4602:4628   */\n  mload\n    /* \"#utility.yul\":4594:4600   */\n  dup3\n    /* \"#utility.yul\":4587:4629   */\n  sstore\n    /* \"#utility.yul\":4668:4669   */\n  0x01\n    /* \"#utility.yul\":4660:4666   */\n  dup3\n    /* \"#utility.yul\":4656:4670   */\n  add\n    /* \"#utility.yul\":4646:4670   */\n  swap2\n  pop\n    /* \"#utility.yul\":4715:4717   */\n  0x20\n    /* \"#utility.yul\":4704:4713   */\n  dup6\n    /* \"#utility.yul\":4700:4718   */\n  add\n    /* \"#utility.yul\":4687:4718   */\n  swap5\n  pop\n    /* \"#utility.yul\":4561:4565   */\n  0x20\n    /* \"#utility.yul\":4558:4559   */\n  dup2\n    /* \"#utility.yul\":4554:4566   */\n  add\n    /* \"#utility.yul\":4549:4566   */\n  swap1\n  pop\n    /* \"#utility.yul\":4524:4732   */\n  jump(tag_109)\ntag_111:\n    /* \"#utility.yul\":4760:4766   */\n  dup7\n    /* \"#utility.yul\":4751:4758   */\n  dup4\n    /* \"#utility.yul\":4748:4767   */\n  lt\n    /* \"#utility.yul\":4745:4924   */\n  iszero\n  tag_112\n  jumpi\n    /* \"#utility.yul\":4818:4827   */\n  dup5\n    /* \"#utility.yul\":4813:4816   */\n  dup10\n    /* \"#utility.yul\":4809:4828   */\n  add\n    /* \"#utility.yul\":4803:4829   */\n  mload\n    /* \"#utility.yul\":4861:4909   */\n  tag_113\n    /* \"#utility.yul\":4903:4907   */\n  0x1f\n    /* \"#utility.yul\":4895:4901   */\n  dup10\n    /* \"#utility.yul\":4891:4908   */\n  and\n    /* \"#utility.yul\":4880:4889   */\n  dup3\n    /* \"#utility.yul\":4861:4909   */\n  tag_50\n  jump\t// in\ntag_113:\n    /* \"#utility.yul\":4853:4859   */\n  dup4\n    /* \"#utility.yul\":4846:4910   */\n  sstore\n    /* \"#utility.yul\":4768:4924   */\n  pop\n    /* \"#utility.yul\":4745:4924   */\ntag_112:\n    /* \"#utility.yul\":4970:4971   */\n  0x01\n    /* \"#utility.yul\":4966:4967   */\n  0x02\n    /* \"#utility.yul\":4958:4964   */\n  dup9\n    /* \"#utility.yul\":4954:4968   */\n  mul\n    /* \"#utility.yul\":4950:4972   */\n  add\n    /* \"#utility.yul\":4944:4948   */\n  dup9\n    /* \"#utility.yul\":4937:4973   */\n  sstore\n    /* \"#utility.yul\":4372:4983   */\n  pop\n  pop\n  pop\n    /* \"#utility.yul\":4335:5222   */\ntag_104:\n  pop\n    /* \"#utility.yul\":3925:5228   */\n  pop\n  pop\n  pop\n    /* \"#utility.yul\":3833:5228   */\n  pop\n  pop\n  jump\t// out\n    /* \"bootcamp/week3/day_5_homework_part_2_number_array_string_output.sol\":58:1382  contract NumberToString {... */\ntag_31:\n  dataSize(sub_0)\n  dup1\n  dataOffset(sub_0)\n  0x00\n  codecopy\n  0x00\n  return\nstop\n\nsub_0: assembly {\n        /* \"bootcamp/week3/day_5_homework_part_2_number_array_string_output.sol\":58:1382  contract NumberToString {... */\n      mstore(0x40, 0x80)\n      callvalue\n      dup1\n      iszero\n      tag_1\n      jumpi\n      0x00\n      dup1\n      revert\n    tag_1:\n      pop\n      jumpi(tag_2, lt(calldatasize, 0x04))\n      shr(0xe0, calldataload(0x00))\n      dup1\n      0x2b9170a4\n      eq\n      tag_3\n      jumpi\n      dup1\n      0xb1f525c6\n      eq\n      tag_4\n      jumpi\n    tag_2:\n      0x00\n      dup1\n      revert\n        /* \"bootcamp/week3/day_5_homework_part_2_number_array_string_output.sol\":911:1379  function numberToString(uint[] memory number) public returns(string memory) {... */\n    tag_3:\n      tag_5\n      0x04\n      dup1\n      calldatasize\n      sub\n      dup2\n      add\n      swap1\n      tag_6\n      swap2\n      swap1\n      tag_7\n      jump\t// in\n    tag_6:\n      tag_8\n      jump\t// in\n    tag_5:\n      mload(0x40)\n      tag_9\n      swap2\n      swap1\n      tag_10\n      jump\t// in\n    tag_9:\n      mload(0x40)\n      dup1\n      swap2\n      sub\n      swap1\n      return\n        /* \"bootcamp/week3/day_5_homework_part_2_number_array_string_output.sol\":809:847  mapping(uint => string) public counter */\n    tag_4:\n      tag_11\n      0x04\n      dup1\n      calldatasize\n      sub\n      dup2\n      add\n      swap1\n      tag_12\n      swap2\n      swap1\n      tag_13\n      jump\t// in\n    tag_12:\n      tag_14\n      jump\t// in\n    tag_11:\n      mload(0x40)\n      tag_15\n      swap2\n      swap1\n      tag_10\n      jump\t// in\n    tag_15:\n      mload(0x40)\n      dup1\n      swap2\n      sub\n      swap1\n      return\n        /* \"bootcamp/week3/day_5_homework_part_2_number_array_string_output.sol\":911:1379  function numberToString(uint[] memory number) public returns(string memory) {... */\n    tag_8:\n        /* \"bootcamp/week3/day_5_homework_part_2_number_array_string_output.sol\":972:985  string memory */\n      0x60\n        /* \"bootcamp/week3/day_5_homework_part_2_number_array_string_output.sol\":1103:1121  string memory word */\n      0x00\n        /* \"bootcamp/week3/day_5_homework_part_2_number_array_string_output.sol\":1103:1126  string memory word = \"\" */\n      mload(0x40)\n      dup1\n      0x20\n      add\n      0x40\n      mstore\n      dup1\n      0x00\n      dup2\n      mstore\n      pop\n      swap1\n      pop\n        /* \"bootcamp/week3/day_5_homework_part_2_number_array_string_output.sol\":1141:1147  uint i */\n      0x00\n        /* \"bootcamp/week3/day_5_homework_part_2_number_array_string_output.sol\":1137:1351  for(uint i = 0; i < number.length; i++) {... */\n    tag_17:\n        /* \"bootcamp/week3/day_5_homework_part_2_number_array_string_output.sol\":1157:1163  number */\n      dup4\n        /* \"bootcamp/week3/day_5_homework_part_2_number_array_string_output.sol\":1157:1170  number.length */\n      mload\n        /* \"bootcamp/week3/day_5_homework_part_2_number_array_string_output.sol\":1153:1154  i */\n      dup2\n        /* \"bootcamp/week3/day_5_homework_part_2_number_array_string_output.sol\":1153:1170  i < number.length */\n      lt\n        /* \"bootcamp/week3/day_5_homework_part_2_number_array_string_output.sol\":1137:1351  for(uint i = 0; i < number.length; i++) {... */\n      iszero\n      tag_18\n      jumpi\n        /* \"bootcamp/week3/day_5_homework_part_2_number_array_string_output.sol\":1221:1241  string memory letter */\n      0x00\n        /* \"bootcamp/week3/day_5_homework_part_2_number_array_string_output.sol\":1244:1251  counter */\n      dup1\n        /* \"bootcamp/week3/day_5_homework_part_2_number_array_string_output.sol\":1244:1262  counter[number[i]] */\n      0x00\n        /* \"bootcamp/week3/day_5_homework_part_2_number_array_string_output.sol\":1252:1258  number */\n      dup7\n        /* \"bootcamp/week3/day_5_homework_part_2_number_array_string_output.sol\":1259:1260  i */\n      dup5\n        /* \"bootcamp/week3/day_5_homework_part_2_number_array_string_output.sol\":1252:1261  number[i] */\n      dup2\n      mload\n      dup2\n      lt\n      tag_20\n      jumpi\n      tag_21\n      tag_22\n      jump\t// in\n    tag_21:\n    tag_20:\n      0x20\n      mul\n      0x20\n      add\n      add\n      mload\n        /* \"bootcamp/week3/day_5_homework_part_2_number_array_string_output.sol\":1244:1262  counter[number[i]] */\n      dup2\n      mstore\n      0x20\n      add\n      swap1\n      dup2\n      mstore\n      0x20\n      add\n      0x00\n      keccak256\n        /* \"bootcamp/week3/day_5_homework_part_2_number_array_string_output.sol\":1221:1262  string memory letter = counter[number[i]] */\n      dup1\n      sload\n      tag_23\n      swap1\n      tag_24\n      jump\t// in\n    tag_23:\n      dup1\n      0x1f\n      add\n      0x20\n      dup1\n      swap2\n      div\n      mul\n      0x20\n      add\n      mload(0x40)\n      swap1\n      dup2\n      add\n      0x40\n      mstore\n      dup1\n      swap3\n      swap2\n      swap1\n      dup2\n      dup2\n      mstore\n      0x20\n      add\n      dup3\n      dup1\n      sload\n      tag_25\n      swap1\n      tag_24\n      jump\t// in\n    tag_25:\n      dup1\n      iszero\n      tag_26\n      jumpi\n      dup1\n      0x1f\n      lt\n      tag_27\n      jumpi\n      0x0100\n      dup1\n      dup4\n      sload\n      div\n      mul\n      dup4\n      mstore\n      swap2\n      0x20\n      add\n      swap2\n      jump(tag_26)\n    tag_27:\n      dup3\n      add\n      swap2\n      swap1\n      0x00\n      mstore\n      keccak256(0x00, 0x20)\n      swap1\n    tag_28:\n      dup2\n      sload\n      dup2\n      mstore\n      swap1\n      0x01\n      add\n      swap1\n      0x20\n      add\n      dup1\n      dup4\n      gt\n      tag_28\n      jumpi\n      dup3\n      swap1\n      sub\n      0x1f\n      and\n      dup3\n      add\n      swap2\n    tag_26:\n      pop\n      pop\n      pop\n      pop\n      pop\n      swap1\n      pop\n        /* \"bootcamp/week3/day_5_homework_part_2_number_array_string_output.sol\":1297:1301  word */\n      dup3\n        /* \"bootcamp/week3/day_5_homework_part_2_number_array_string_output.sol\":1303:1309  letter */\n      dup2\n        /* \"bootcamp/week3/day_5_homework_part_2_number_array_string_output.sol\":1283:1310  string.concat(word, letter) */\n      add(0x20, mload(0x40))\n      tag_29\n      swap3\n      swap2\n      swap1\n      tag_30\n      jump\t// in\n    tag_29:\n      mload(0x40)\n      0x20\n      dup2\n      dup4\n      sub\n      sub\n      dup2\n      mstore\n      swap1\n      0x40\n      mstore\n        /* \"bootcamp/week3/day_5_homework_part_2_number_array_string_output.sol\":1276:1310  word = string.concat(word, letter) */\n      swap3\n      pop\n        /* \"bootcamp/week3/day_5_homework_part_2_number_array_string_output.sol\":1329:1340  test2(word) */\n      0x30e738a7f2cacd30ea7d0cfb014d15ebdd5f14c8ec463cead0dda007c2e76f8c\n        /* \"bootcamp/week3/day_5_homework_part_2_number_array_string_output.sol\":1335:1339  word */\n      dup4\n        /* \"bootcamp/week3/day_5_homework_part_2_number_array_string_output.sol\":1329:1340  test2(word) */\n      mload(0x40)\n      tag_31\n      swap2\n      swap1\n      tag_10\n      jump\t// in\n    tag_31:\n      mload(0x40)\n      dup1\n      swap2\n      sub\n      swap1\n      log1\n        /* \"bootcamp/week3/day_5_homework_part_2_number_array_string_output.sol\":1177:1351  {... */\n      pop\n        /* \"bootcamp/week3/day_5_homework_part_2_number_array_string_output.sol\":1172:1175  i++ */\n      dup1\n      dup1\n      tag_32\n      swap1\n      tag_33\n      jump\t// in\n    tag_32:\n      swap2\n      pop\n      pop\n        /* \"bootcamp/week3/day_5_homework_part_2_number_array_string_output.sol\":1137:1351  for(uint i = 0; i < number.length; i++) {... */\n      jump(tag_17)\n    tag_18:\n      pop\n        /* \"bootcamp/week3/day_5_homework_part_2_number_array_string_output.sol\":1368:1372  word */\n      dup1\n        /* \"bootcamp/week3/day_5_homework_part_2_number_array_string_output.sol\":1361:1372  return word */\n      swap2\n      pop\n      pop\n        /* \"bootcamp/week3/day_5_homework_part_2_number_array_string_output.sol\":911:1379  function numberToString(uint[] memory number) public returns(string memory) {... */\n      swap2\n      swap1\n      pop\n      jump\t// out\n        /* \"bootcamp/week3/day_5_homework_part_2_number_array_string_output.sol\":809:847  mapping(uint => string) public counter */\n    tag_14:\n      mstore(0x20, 0x00)\n      dup1\n      0x00\n      mstore\n      keccak256(0x00, 0x40)\n      0x00\n      swap2\n      pop\n      swap1\n      pop\n      dup1\n      sload\n      tag_34\n      swap1\n      tag_24\n      jump\t// in\n    tag_34:\n      dup1\n      0x1f\n      add\n      0x20\n      dup1\n      swap2\n      div\n      mul\n      0x20\n      add\n      mload(0x40)\n      swap1\n      dup2\n      add\n      0x40\n      mstore\n      dup1\n      swap3\n      swap2\n      swap1\n      dup2\n      dup2\n      mstore\n      0x20\n      add\n      dup3\n      dup1\n      sload\n      tag_35\n      swap1\n      tag_24\n      jump\t// in\n    tag_35:\n      dup1\n      iszero\n      tag_36\n      jumpi\n      dup1\n      0x1f\n      lt\n      tag_37\n      jumpi\n      0x0100\n      dup1\n      dup4\n      sload\n      div\n      mul\n      dup4\n      mstore\n      swap2\n      0x20\n      add\n      swap2\n      jump(tag_36)\n    tag_37:\n      dup3\n      add\n      swap2\n      swap1\n      0x00\n      mstore\n      keccak256(0x00, 0x20)\n      swap1\n    tag_38:\n      dup2\n      sload\n      dup2\n      mstore\n      swap1\n      0x01\n      add\n      swap1\n      0x20\n      add\n      dup1\n      dup4\n      gt\n      tag_38\n      jumpi\n      dup3\n      swap1\n      sub\n      0x1f\n      and\n      dup3\n      add\n      swap2\n    tag_36:\n      pop\n      pop\n      pop\n      pop\n      pop\n      dup2\n      jump\t// out\n        /* \"#utility.yul\":7:82   */\n    tag_39:\n        /* \"#utility.yul\":40:46   */\n      0x00\n        /* \"#utility.yul\":73:75   */\n      0x40\n        /* \"#utility.yul\":67:76   */\n      mload\n        /* \"#utility.yul\":57:76   */\n      swap1\n      pop\n        /* \"#utility.yul\":7:82   */\n      swap1\n      jump\t// out\n        /* \"#utility.yul\":88:205   */\n    tag_40:\n        /* \"#utility.yul\":197:198   */\n      0x00\n        /* \"#utility.yul\":194:195   */\n      dup1\n        /* \"#utility.yul\":187:199   */\n      revert\n        /* \"#utility.yul\":211:328   */\n    tag_41:\n        /* \"#utility.yul\":320:321   */\n      0x00\n        /* \"#utility.yul\":317:318   */\n      dup1\n        /* \"#utility.yul\":310:322   */\n      revert\n        /* \"#utility.yul\":334:451   */\n    tag_42:\n        /* \"#utility.yul\":443:444   */\n      0x00\n        /* \"#utility.yul\":440:441   */\n      dup1\n        /* \"#utility.yul\":433:445   */\n      revert\n        /* \"#utility.yul\":457:559   */\n    tag_43:\n        /* \"#utility.yul\":498:504   */\n      0x00\n        /* \"#utility.yul\":549:551   */\n      0x1f\n        /* \"#utility.yul\":545:552   */\n      not\n        /* \"#utility.yul\":540:542   */\n      0x1f\n        /* \"#utility.yul\":533:538   */\n      dup4\n        /* \"#utility.yul\":529:543   */\n      add\n        /* \"#utility.yul\":525:553   */\n      and\n        /* \"#utility.yul\":515:553   */\n      swap1\n      pop\n        /* \"#utility.yul\":457:559   */\n      swap2\n      swap1\n      pop\n      jump\t// out\n        /* \"#utility.yul\":565:745   */\n    tag_44:\n        /* \"#utility.yul\":613:690   */\n      0x4e487b7100000000000000000000000000000000000000000000000000000000\n        /* \"#utility.yul\":610:611   */\n      0x00\n        /* \"#utility.yul\":603:691   */\n      mstore\n        /* \"#utility.yul\":710:714   */\n      0x41\n        /* \"#utility.yul\":707:708   */\n      0x04\n        /* \"#utility.yul\":700:715   */\n      mstore\n        /* \"#utility.yul\":734:738   */\n      0x24\n        /* \"#utility.yul\":731:732   */\n      0x00\n        /* \"#utility.yul\":724:739   */\n      revert\n        /* \"#utility.yul\":751:1032   */\n    tag_45:\n        /* \"#utility.yul\":834:861   */\n      tag_70\n        /* \"#utility.yul\":856:860   */\n      dup3\n        /* \"#utility.yul\":834:861   */\n      tag_43\n      jump\t// in\n    tag_70:\n        /* \"#utility.yul\":826:832   */\n      dup2\n        /* \"#utility.yul\":822:862   */\n      add\n        /* \"#utility.yul\":964:970   */\n      dup2\n        /* \"#utility.yul\":952:962   */\n      dup2\n        /* \"#utility.yul\":949:971   */\n      lt\n        /* \"#utility.yul\":928:946   */\n      0xffffffffffffffff\n        /* \"#utility.yul\":916:926   */\n      dup3\n        /* \"#utility.yul\":913:947   */\n      gt\n        /* \"#utility.yul\":910:972   */\n      or\n        /* \"#utility.yul\":907:995   */\n      iszero\n      tag_71\n      jumpi\n        /* \"#utility.yul\":975:993   */\n      tag_72\n      tag_44\n      jump\t// in\n    tag_72:\n        /* \"#utility.yul\":907:995   */\n    tag_71:\n        /* \"#utility.yul\":1015:1025   */\n      dup1\n        /* \"#utility.yul\":1011:1013   */\n      0x40\n        /* \"#utility.yul\":1004:1026   */\n      mstore\n        /* \"#utility.yul\":794:1032   */\n      pop\n        /* \"#utility.yul\":751:1032   */\n      pop\n      pop\n      jump\t// out\n        /* \"#utility.yul\":1038:1167   */\n    tag_46:\n        /* \"#utility.yul\":1072:1078   */\n      0x00\n        /* \"#utility.yul\":1099:1119   */\n      tag_74\n      tag_39\n      jump\t// in\n    tag_74:\n        /* \"#utility.yul\":1089:1119   */\n      swap1\n      pop\n        /* \"#utility.yul\":1128:1161   */\n      tag_75\n        /* \"#utility.yul\":1156:1160   */\n      dup3\n        /* \"#utility.yul\":1148:1154   */\n      dup3\n        /* \"#utility.yul\":1128:1161   */\n      tag_45\n      jump\t// in\n    tag_75:\n        /* \"#utility.yul\":1038:1167   */\n      swap2\n      swap1\n      pop\n      jump\t// out\n        /* \"#utility.yul\":1173:1484   */\n    tag_47:\n        /* \"#utility.yul\":1250:1254   */\n      0x00\n        /* \"#utility.yul\":1340:1358   */\n      0xffffffffffffffff\n        /* \"#utility.yul\":1332:1338   */\n      dup3\n        /* \"#utility.yul\":1329:1359   */\n      gt\n        /* \"#utility.yul\":1326:1382   */\n      iszero\n      tag_77\n      jumpi\n        /* \"#utility.yul\":1362:1380   */\n      tag_78\n      tag_44\n      jump\t// in\n    tag_78:\n        /* \"#utility.yul\":1326:1382   */\n    tag_77:\n        /* \"#utility.yul\":1412:1416   */\n      0x20\n        /* \"#utility.yul\":1404:1410   */\n      dup3\n        /* \"#utility.yul\":1400:1417   */\n      mul\n        /* \"#utility.yul\":1392:1417   */\n      swap1\n      pop\n        /* \"#utility.yul\":1472:1476   */\n      0x20\n        /* \"#utility.yul\":1466:1470   */\n      dup2\n        /* \"#utility.yul\":1462:1477   */\n      add\n        /* \"#utility.yul\":1454:1477   */\n      swap1\n      pop\n        /* \"#utility.yul\":1173:1484   */\n      swap2\n      swap1\n      pop\n      jump\t// out\n        /* \"#utility.yul\":1490:1607   */\n    tag_48:\n        /* \"#utility.yul\":1599:1600   */\n      0x00\n        /* \"#utility.yul\":1596:1597   */\n      dup1\n        /* \"#utility.yul\":1589:1601   */\n      revert\n        /* \"#utility.yul\":1613:1690   */\n    tag_49:\n        /* \"#utility.yul\":1650:1657   */\n      0x00\n        /* \"#utility.yul\":1679:1684   */\n      dup2\n        /* \"#utility.yul\":1668:1684   */\n      swap1\n      pop\n        /* \"#utility.yul\":1613:1690   */\n      swap2\n      swap1\n      pop\n      jump\t// out\n        /* \"#utility.yul\":1696:1818   */\n    tag_50:\n        /* \"#utility.yul\":1769:1793   */\n      tag_82\n        /* \"#utility.yul\":1787:1792   */\n      dup2\n        /* \"#utility.yul\":1769:1793   */\n      tag_49\n      jump\t// in\n    tag_82:\n        /* \"#utility.yul\":1762:1767   */\n      dup2\n        /* \"#utility.yul\":1759:1794   */\n      eq\n        /* \"#utility.yul\":1749:1812   */\n      tag_83\n      jumpi\n        /* \"#utility.yul\":1808:1809   */\n      0x00\n        /* \"#utility.yul\":1805:1806   */\n      dup1\n        /* \"#utility.yul\":1798:1810   */\n      revert\n        /* \"#utility.yul\":1749:1812   */\n    tag_83:\n        /* \"#utility.yul\":1696:1818   */\n      pop\n      jump\t// out\n        /* \"#utility.yul\":1824:1963   */\n    tag_51:\n        /* \"#utility.yul\":1870:1875   */\n      0x00\n        /* \"#utility.yul\":1908:1914   */\n      dup2\n        /* \"#utility.yul\":1895:1915   */\n      calldataload\n        /* \"#utility.yul\":1886:1915   */\n      swap1\n      pop\n        /* \"#utility.yul\":1924:1957   */\n      tag_85\n        /* \"#utility.yul\":1951:1956   */\n      dup2\n        /* \"#utility.yul\":1924:1957   */\n      tag_50\n      jump\t// in\n    tag_85:\n        /* \"#utility.yul\":1824:1963   */\n      swap3\n      swap2\n      pop\n      pop\n      jump\t// out\n        /* \"#utility.yul\":1986:2696   */\n    tag_52:\n        /* \"#utility.yul\":2082:2087   */\n      0x00\n        /* \"#utility.yul\":2107:2188   */\n      tag_87\n        /* \"#utility.yul\":2123:2187   */\n      tag_88\n        /* \"#utility.yul\":2180:2186   */\n      dup5\n        /* \"#utility.yul\":2123:2187   */\n      tag_47\n      jump\t// in\n    tag_88:\n        /* \"#utility.yul\":2107:2188   */\n      tag_46\n      jump\t// in\n    tag_87:\n        /* \"#utility.yul\":2098:2188   */\n      swap1\n      pop\n        /* \"#utility.yul\":2208:2213   */\n      dup1\n        /* \"#utility.yul\":2237:2243   */\n      dup4\n        /* \"#utility.yul\":2230:2235   */\n      dup3\n        /* \"#utility.yul\":2223:2244   */\n      mstore\n        /* \"#utility.yul\":2271:2275   */\n      0x20\n        /* \"#utility.yul\":2264:2269   */\n      dup3\n        /* \"#utility.yul\":2260:2276   */\n      add\n        /* \"#utility.yul\":2253:2276   */\n      swap1\n      pop\n        /* \"#utility.yul\":2324:2328   */\n      0x20\n        /* \"#utility.yul\":2316:2322   */\n      dup5\n        /* \"#utility.yul\":2312:2329   */\n      mul\n        /* \"#utility.yul\":2304:2310   */\n      dup4\n        /* \"#utility.yul\":2300:2330   */\n      add\n        /* \"#utility.yul\":2353:2356   */\n      dup6\n        /* \"#utility.yul\":2345:2351   */\n      dup2\n        /* \"#utility.yul\":2342:2357   */\n      gt\n        /* \"#utility.yul\":2339:2461   */\n      iszero\n      tag_89\n      jumpi\n        /* \"#utility.yul\":2372:2451   */\n      tag_90\n      tag_48\n      jump\t// in\n    tag_90:\n        /* \"#utility.yul\":2339:2461   */\n    tag_89:\n        /* \"#utility.yul\":2487:2493   */\n      dup4\n        /* \"#utility.yul\":2470:2690   */\n    tag_91:\n        /* \"#utility.yul\":2504:2510   */\n      dup2\n        /* \"#utility.yul\":2499:2502   */\n      dup2\n        /* \"#utility.yul\":2496:2511   */\n      lt\n        /* \"#utility.yul\":2470:2690   */\n      iszero\n      tag_93\n      jumpi\n        /* \"#utility.yul\":2579:2582   */\n      dup1\n        /* \"#utility.yul\":2608:2645   */\n      tag_94\n        /* \"#utility.yul\":2641:2644   */\n      dup9\n        /* \"#utility.yul\":2629:2639   */\n      dup3\n        /* \"#utility.yul\":2608:2645   */\n      tag_51\n      jump\t// in\n    tag_94:\n        /* \"#utility.yul\":2603:2606   */\n      dup5\n        /* \"#utility.yul\":2596:2646   */\n      mstore\n        /* \"#utility.yul\":2675:2679   */\n      0x20\n        /* \"#utility.yul\":2670:2673   */\n      dup5\n        /* \"#utility.yul\":2666:2680   */\n      add\n        /* \"#utility.yul\":2659:2680   */\n      swap4\n      pop\n        /* \"#utility.yul\":2546:2690   */\n      pop\n        /* \"#utility.yul\":2530:2534   */\n      0x20\n        /* \"#utility.yul\":2525:2528   */\n      dup2\n        /* \"#utility.yul\":2521:2535   */\n      add\n        /* \"#utility.yul\":2514:2535   */\n      swap1\n      pop\n        /* \"#utility.yul\":2470:2690   */\n      jump(tag_91)\n    tag_93:\n        /* \"#utility.yul\":2474:2495   */\n      pop\n        /* \"#utility.yul\":2088:2696   */\n      pop\n      pop\n        /* \"#utility.yul\":1986:2696   */\n      swap4\n      swap3\n      pop\n      pop\n      pop\n      jump\t// out\n        /* \"#utility.yul\":2719:3089   */\n    tag_53:\n        /* \"#utility.yul\":2790:2795   */\n      0x00\n        /* \"#utility.yul\":2839:2842   */\n      dup3\n        /* \"#utility.yul\":2832:2836   */\n      0x1f\n        /* \"#utility.yul\":2824:2830   */\n      dup4\n        /* \"#utility.yul\":2820:2837   */\n      add\n        /* \"#utility.yul\":2816:2843   */\n      slt\n        /* \"#utility.yul\":2806:2928   */\n      tag_96\n      jumpi\n        /* \"#utility.yul\":2847:2926   */\n      tag_97\n      tag_42\n      jump\t// in\n    tag_97:\n        /* \"#utility.yul\":2806:2928   */\n    tag_96:\n        /* \"#utility.yul\":2964:2970   */\n      dup2\n        /* \"#utility.yul\":2951:2971   */\n      calldataload\n        /* \"#utility.yul\":2989:3083   */\n      tag_98\n        /* \"#utility.yul\":3079:3082   */\n      dup5\n        /* \"#utility.yul\":3071:3077   */\n      dup3\n        /* \"#utility.yul\":3064:3068   */\n      0x20\n        /* \"#utility.yul\":3056:3062   */\n      dup7\n        /* \"#utility.yul\":3052:3069   */\n      add\n        /* \"#utility.yul\":2989:3083   */\n      tag_52\n      jump\t// in\n    tag_98:\n        /* \"#utility.yul\":2980:3083   */\n      swap2\n      pop\n        /* \"#utility.yul\":2796:3089   */\n      pop\n        /* \"#utility.yul\":2719:3089   */\n      swap3\n      swap2\n      pop\n      pop\n      jump\t// out\n        /* \"#utility.yul\":3095:3634   */\n    tag_7:\n        /* \"#utility.yul\":3179:3185   */\n      0x00\n        /* \"#utility.yul\":3228:3230   */\n      0x20\n        /* \"#utility.yul\":3216:3225   */\n      dup3\n        /* \"#utility.yul\":3207:3214   */\n      dup5\n        /* \"#utility.yul\":3203:3226   */\n      sub\n        /* \"#utility.yul\":3199:3231   */\n      slt\n        /* \"#utility.yul\":3196:3315   */\n      iszero\n      tag_100\n      jumpi\n        /* \"#utility.yul\":3234:3313   */\n      tag_101\n      tag_40\n      jump\t// in\n    tag_101:\n        /* \"#utility.yul\":3196:3315   */\n    tag_100:\n        /* \"#utility.yul\":3382:3383   */\n      0x00\n        /* \"#utility.yul\":3371:3380   */\n      dup3\n        /* \"#utility.yul\":3367:3384   */\n      add\n        /* \"#utility.yul\":3354:3385   */\n      calldataload\n        /* \"#utility.yul\":3412:3430   */\n      0xffffffffffffffff\n        /* \"#utility.yul\":3404:3410   */\n      dup2\n        /* \"#utility.yul\":3401:3431   */\n      gt\n        /* \"#utility.yul\":3398:3515   */\n      iszero\n      tag_102\n      jumpi\n        /* \"#utility.yul\":3434:3513   */\n      tag_103\n      tag_41\n      jump\t// in\n    tag_103:\n        /* \"#utility.yul\":3398:3515   */\n    tag_102:\n        /* \"#utility.yul\":3539:3617   */\n      tag_104\n        /* \"#utility.yul\":3609:3616   */\n      dup5\n        /* \"#utility.yul\":3600:3606   */\n      dup3\n        /* \"#utility.yul\":3589:3598   */\n      dup6\n        /* \"#utility.yul\":3585:3607   */\n      add\n        /* \"#utility.yul\":3539:3617   */\n      tag_53\n      jump\t// in\n    tag_104:\n        /* \"#utility.yul\":3529:3617   */\n      swap2\n      pop\n        /* \"#utility.yul\":3325:3627   */\n      pop\n        /* \"#utility.yul\":3095:3634   */\n      swap3\n      swap2\n      pop\n      pop\n      jump\t// out\n        /* \"#utility.yul\":3640:3739   */\n    tag_54:\n        /* \"#utility.yul\":3692:3698   */\n      0x00\n        /* \"#utility.yul\":3726:3731   */\n      dup2\n        /* \"#utility.yul\":3720:3732   */\n      mload\n        /* \"#utility.yul\":3710:3732   */\n      swap1\n      pop\n        /* \"#utility.yul\":3640:3739   */\n      swap2\n      swap1\n      pop\n      jump\t// out\n        /* \"#utility.yul\":3745:3914   */\n    tag_55:\n        /* \"#utility.yul\":3829:3840   */\n      0x00\n        /* \"#utility.yul\":3863:3869   */\n      dup3\n        /* \"#utility.yul\":3858:3861   */\n      dup3\n        /* \"#utility.yul\":3851:3870   */\n      mstore\n        /* \"#utility.yul\":3903:3907   */\n      0x20\n        /* \"#utility.yul\":3898:3901   */\n      dup3\n        /* \"#utility.yul\":3894:3908   */\n      add\n        /* \"#utility.yul\":3879:3908   */\n      swap1\n      pop\n        /* \"#utility.yul\":3745:3914   */\n      swap3\n      swap2\n      pop\n      pop\n      jump\t// out\n        /* \"#utility.yul\":3920:4166   */\n    tag_56:\n        /* \"#utility.yul\":4001:4002   */\n      0x00\n        /* \"#utility.yul\":4011:4124   */\n    tag_108:\n        /* \"#utility.yul\":4025:4031   */\n      dup4\n        /* \"#utility.yul\":4022:4023   */\n      dup2\n        /* \"#utility.yul\":4019:4032   */\n      lt\n        /* \"#utility.yul\":4011:4124   */\n      iszero\n      tag_110\n      jumpi\n        /* \"#utility.yul\":4110:4111   */\n      dup1\n        /* \"#utility.yul\":4105:4108   */\n      dup3\n        /* \"#utility.yul\":4101:4112   */\n      add\n        /* \"#utility.yul\":4095:4113   */\n      mload\n        /* \"#utility.yul\":4091:4092   */\n      dup2\n        /* \"#utility.yul\":4086:4089   */\n      dup5\n        /* \"#utility.yul\":4082:4093   */\n      add\n        /* \"#utility.yul\":4075:4114   */\n      mstore\n        /* \"#utility.yul\":4047:4049   */\n      0x20\n        /* \"#utility.yul\":4044:4045   */\n      dup2\n        /* \"#utility.yul\":4040:4050   */\n      add\n        /* \"#utility.yul\":4035:4050   */\n      swap1\n      pop\n        /* \"#utility.yul\":4011:4124   */\n      jump(tag_108)\n    tag_110:\n        /* \"#utility.yul\":4158:4159   */\n      0x00\n        /* \"#utility.yul\":4149:4155   */\n      dup5\n        /* \"#utility.yul\":4144:4147   */\n      dup5\n        /* \"#utility.yul\":4140:4156   */\n      add\n        /* \"#utility.yul\":4133:4160   */\n      mstore\n        /* \"#utility.yul\":3982:4166   */\n      pop\n        /* \"#utility.yul\":3920:4166   */\n      pop\n      pop\n      pop\n      jump\t// out\n        /* \"#utility.yul\":4172:4549   */\n    tag_57:\n        /* \"#utility.yul\":4260:4263   */\n      0x00\n        /* \"#utility.yul\":4288:4327   */\n      tag_112\n        /* \"#utility.yul\":4321:4326   */\n      dup3\n        /* \"#utility.yul\":4288:4327   */\n      tag_54\n      jump\t// in\n    tag_112:\n        /* \"#utility.yul\":4343:4414   */\n      tag_113\n        /* \"#utility.yul\":4407:4413   */\n      dup2\n        /* \"#utility.yul\":4402:4405   */\n      dup6\n        /* \"#utility.yul\":4343:4414   */\n      tag_55\n      jump\t// in\n    tag_113:\n        /* \"#utility.yul\":4336:4414   */\n      swap4\n      pop\n        /* \"#utility.yul\":4423:4488   */\n      tag_114\n        /* \"#utility.yul\":4481:4487   */\n      dup2\n        /* \"#utility.yul\":4476:4479   */\n      dup6\n        /* \"#utility.yul\":4469:4473   */\n      0x20\n        /* \"#utility.yul\":4462:4467   */\n      dup7\n        /* \"#utility.yul\":4458:4474   */\n      add\n        /* \"#utility.yul\":4423:4488   */\n      tag_56\n      jump\t// in\n    tag_114:\n        /* \"#utility.yul\":4513:4542   */\n      tag_115\n        /* \"#utility.yul\":4535:4541   */\n      dup2\n        /* \"#utility.yul\":4513:4542   */\n      tag_43\n      jump\t// in\n    tag_115:\n        /* \"#utility.yul\":4508:4511   */\n      dup5\n        /* \"#utility.yul\":4504:4543   */\n      add\n        /* \"#utility.yul\":4497:4543   */\n      swap2\n      pop\n        /* \"#utility.yul\":4264:4549   */\n      pop\n        /* \"#utility.yul\":4172:4549   */\n      swap3\n      swap2\n      pop\n      pop\n      jump\t// out\n        /* \"#utility.yul\":4555:4868   */\n    tag_10:\n        /* \"#utility.yul\":4668:4672   */\n      0x00\n        /* \"#utility.yul\":4706:4708   */\n      0x20\n        /* \"#utility.yul\":4695:4704   */\n      dup3\n        /* \"#utility.yul\":4691:4709   */\n      add\n        /* \"#utility.yul\":4683:4709   */\n      swap1\n      pop\n        /* \"#utility.yul\":4755:4764   */\n      dup2\n        /* \"#utility.yul\":4749:4753   */\n      dup2\n        /* \"#utility.yul\":4745:4765   */\n      sub\n        /* \"#utility.yul\":4741:4742   */\n      0x00\n        /* \"#utility.yul\":4730:4739   */\n      dup4\n        /* \"#utility.yul\":4726:4743   */\n      add\n        /* \"#utility.yul\":4719:4766   */\n      mstore\n        /* \"#utility.yul\":4783:4861   */\n      tag_117\n        /* \"#utility.yul\":4856:4860   */\n      dup2\n        /* \"#utility.yul\":4847:4853   */\n      dup5\n        /* \"#utility.yul\":4783:4861   */\n      tag_57\n      jump\t// in\n    tag_117:\n        /* \"#utility.yul\":4775:4861   */\n      swap1\n      pop\n        /* \"#utility.yul\":4555:4868   */\n      swap3\n      swap2\n      pop\n      pop\n      jump\t// out\n        /* \"#utility.yul\":4874:5203   */\n    tag_13:\n        /* \"#utility.yul\":4933:4939   */\n      0x00\n        /* \"#utility.yul\":4982:4984   */\n      0x20\n        /* \"#utility.yul\":4970:4979   */\n      dup3\n        /* \"#utility.yul\":4961:4968   */\n      dup5\n        /* \"#utility.yul\":4957:4980   */\n      sub\n        /* \"#utility.yul\":4953:4985   */\n      slt\n        /* \"#utility.yul\":4950:5069   */\n      iszero\n      tag_119\n      jumpi\n        /* \"#utility.yul\":4988:5067   */\n      tag_120\n      tag_40\n      jump\t// in\n    tag_120:\n        /* \"#utility.yul\":4950:5069   */\n    tag_119:\n        /* \"#utility.yul\":5108:5109   */\n      0x00\n        /* \"#utility.yul\":5133:5186   */\n      tag_121\n        /* \"#utility.yul\":5178:5185   */\n      dup5\n        /* \"#utility.yul\":5169:5175   */\n      dup3\n        /* \"#utility.yul\":5158:5167   */\n      dup6\n        /* \"#utility.yul\":5154:5176   */\n      add\n        /* \"#utility.yul\":5133:5186   */\n      tag_51\n      jump\t// in\n    tag_121:\n        /* \"#utility.yul\":5123:5186   */\n      swap2\n      pop\n        /* \"#utility.yul\":5079:5196   */\n      pop\n        /* \"#utility.yul\":4874:5203   */\n      swap3\n      swap2\n      pop\n      pop\n      jump\t// out\n        /* \"#utility.yul\":5209:5389   */\n    tag_22:\n        /* \"#utility.yul\":5257:5334   */\n      0x4e487b7100000000000000000000000000000000000000000000000000000000\n        /* \"#utility.yul\":5254:5255   */\n      0x00\n        /* \"#utility.yul\":5247:5335   */\n      mstore\n        /* \"#utility.yul\":5354:5358   */\n      0x32\n        /* \"#utility.yul\":5351:5352   */\n      0x04\n        /* \"#utility.yul\":5344:5359   */\n      mstore\n        /* \"#utility.yul\":5378:5382   */\n      0x24\n        /* \"#utility.yul\":5375:5376   */\n      0x00\n        /* \"#utility.yul\":5368:5383   */\n      revert\n        /* \"#utility.yul\":5395:5575   */\n    tag_58:\n        /* \"#utility.yul\":5443:5520   */\n      0x4e487b7100000000000000000000000000000000000000000000000000000000\n        /* \"#utility.yul\":5440:5441   */\n      0x00\n        /* \"#utility.yul\":5433:5521   */\n      mstore\n        /* \"#utility.yul\":5540:5544   */\n      0x22\n        /* \"#utility.yul\":5537:5538   */\n      0x04\n        /* \"#utility.yul\":5530:5545   */\n      mstore\n        /* \"#utility.yul\":5564:5568   */\n      0x24\n        /* \"#utility.yul\":5561:5562   */\n      0x00\n        /* \"#utility.yul\":5554:5569   */\n      revert\n        /* \"#utility.yul\":5581:5901   */\n    tag_24:\n        /* \"#utility.yul\":5625:5631   */\n      0x00\n        /* \"#utility.yul\":5662:5663   */\n      0x02\n        /* \"#utility.yul\":5656:5660   */\n      dup3\n        /* \"#utility.yul\":5652:5664   */\n      div\n        /* \"#utility.yul\":5642:5664   */\n      swap1\n      pop\n        /* \"#utility.yul\":5709:5710   */\n      0x01\n        /* \"#utility.yul\":5703:5707   */\n      dup3\n        /* \"#utility.yul\":5699:5711   */\n      and\n        /* \"#utility.yul\":5730:5748   */\n      dup1\n        /* \"#utility.yul\":5720:5801   */\n      tag_125\n      jumpi\n        /* \"#utility.yul\":5786:5790   */\n      0x7f\n        /* \"#utility.yul\":5778:5784   */\n      dup3\n        /* \"#utility.yul\":5774:5791   */\n      and\n        /* \"#utility.yul\":5764:5791   */\n      swap2\n      pop\n        /* \"#utility.yul\":5720:5801   */\n    tag_125:\n        /* \"#utility.yul\":5848:5850   */\n      0x20\n        /* \"#utility.yul\":5840:5846   */\n      dup3\n        /* \"#utility.yul\":5837:5851   */\n      lt\n        /* \"#utility.yul\":5817:5835   */\n      dup2\n        /* \"#utility.yul\":5814:5852   */\n      sub\n        /* \"#utility.yul\":5811:5895   */\n      tag_126\n      jumpi\n        /* \"#utility.yul\":5867:5885   */\n      tag_127\n      tag_58\n      jump\t// in\n    tag_127:\n        /* \"#utility.yul\":5811:5895   */\n    tag_126:\n        /* \"#utility.yul\":5632:5901   */\n      pop\n        /* \"#utility.yul\":5581:5901   */\n      swap2\n      swap1\n      pop\n      jump\t// out\n        /* \"#utility.yul\":5907:6055   */\n    tag_59:\n        /* \"#utility.yul\":6009:6020   */\n      0x00\n        /* \"#utility.yul\":6046:6049   */\n      dup2\n        /* \"#utility.yul\":6031:6049   */\n      swap1\n      pop\n        /* \"#utility.yul\":5907:6055   */\n      swap3\n      swap2\n      pop\n      pop\n      jump\t// out\n        /* \"#utility.yul\":6061:6451   */\n    tag_60:\n        /* \"#utility.yul\":6167:6170   */\n      0x00\n        /* \"#utility.yul\":6195:6234   */\n      tag_130\n        /* \"#utility.yul\":6228:6233   */\n      dup3\n        /* \"#utility.yul\":6195:6234   */\n      tag_54\n      jump\t// in\n    tag_130:\n        /* \"#utility.yul\":6250:6339   */\n      tag_131\n        /* \"#utility.yul\":6332:6338   */\n      dup2\n        /* \"#utility.yul\":6327:6330   */\n      dup6\n        /* \"#utility.yul\":6250:6339   */\n      tag_59\n      jump\t// in\n    tag_131:\n        /* \"#utility.yul\":6243:6339   */\n      swap4\n      pop\n        /* \"#utility.yul\":6348:6413   */\n      tag_132\n        /* \"#utility.yul\":6406:6412   */\n      dup2\n        /* \"#utility.yul\":6401:6404   */\n      dup6\n        /* \"#utility.yul\":6394:6398   */\n      0x20\n        /* \"#utility.yul\":6387:6392   */\n      dup7\n        /* \"#utility.yul\":6383:6399   */\n      add\n        /* \"#utility.yul\":6348:6413   */\n      tag_56\n      jump\t// in\n    tag_132:\n        /* \"#utility.yul\":6438:6444   */\n      dup1\n        /* \"#utility.yul\":6433:6436   */\n      dup5\n        /* \"#utility.yul\":6429:6445   */\n      add\n        /* \"#utility.yul\":6422:6445   */\n      swap2\n      pop\n        /* \"#utility.yul\":6171:6451   */\n      pop\n        /* \"#utility.yul\":6061:6451   */\n      swap3\n      swap2\n      pop\n      pop\n      jump\t// out\n        /* \"#utility.yul\":6457:6892   */\n    tag_30:\n        /* \"#utility.yul\":6637:6640   */\n      0x00\n        /* \"#utility.yul\":6659:6754   */\n      tag_134\n        /* \"#utility.yul\":6750:6753   */\n      dup3\n        /* \"#utility.yul\":6741:6747   */\n      dup6\n        /* \"#utility.yul\":6659:6754   */\n      tag_60\n      jump\t// in\n    tag_134:\n        /* \"#utility.yul\":6652:6754   */\n      swap2\n      pop\n        /* \"#utility.yul\":6771:6866   */\n      tag_135\n        /* \"#utility.yul\":6862:6865   */\n      dup3\n        /* \"#utility.yul\":6853:6859   */\n      dup5\n        /* \"#utility.yul\":6771:6866   */\n      tag_60\n      jump\t// in\n    tag_135:\n        /* \"#utility.yul\":6764:6866   */\n      swap2\n      pop\n        /* \"#utility.yul\":6883:6886   */\n      dup2\n        /* \"#utility.yul\":6876:6886   */\n      swap1\n      pop\n        /* \"#utility.yul\":6457:6892   */\n      swap4\n      swap3\n      pop\n      pop\n      pop\n      jump\t// out\n        /* \"#utility.yul\":6898:7078   */\n    tag_61:\n        /* \"#utility.yul\":6946:7023   */\n      0x4e487b7100000000000000000000000000000000000000000000000000000000\n        /* \"#utility.yul\":6943:6944   */\n      0x00\n        /* \"#utility.yul\":6936:7024   */\n      mstore\n        /* \"#utility.yul\":7043:7047   */\n      0x11\n        /* \"#utility.yul\":7040:7041   */\n      0x04\n        /* \"#utility.yul\":7033:7048   */\n      mstore\n        /* \"#utility.yul\":7067:7071   */\n      0x24\n        /* \"#utility.yul\":7064:7065   */\n      0x00\n        /* \"#utility.yul\":7057:7072   */\n      revert\n        /* \"#utility.yul\":7084:7317   */\n    tag_33:\n        /* \"#utility.yul\":7123:7126   */\n      0x00\n        /* \"#utility.yul\":7146:7170   */\n      tag_138\n        /* \"#utility.yul\":7164:7169   */\n      dup3\n        /* \"#utility.yul\":7146:7170   */\n      tag_49\n      jump\t// in\n    tag_138:\n        /* \"#utility.yul\":7137:7170   */\n      swap2\n      pop\n        /* \"#utility.yul\":7192:7258   */\n      0xffffffffffffffffffffffffffffffffffffffffffffffffffffffffffffffff\n        /* \"#utility.yul\":7185:7190   */\n      dup3\n        /* \"#utility.yul\":7182:7259   */\n      sub\n        /* \"#utility.yul\":7179:7282   */\n      tag_139\n      jumpi\n        /* \"#utility.yul\":7262:7280   */\n      tag_140\n      tag_61\n      jump\t// in\n    tag_140:\n        /* \"#utility.yul\":7179:7282   */\n    tag_139:\n        /* \"#utility.yul\":7309:7310   */\n      0x01\n        /* \"#utility.yul\":7302:7307   */\n      dup3\n        /* \"#utility.yul\":7298:7311   */\n      add\n        /* \"#utility.yul\":7291:7311   */\n      swap1\n      pop\n        /* \"#utility.yul\":7084:7317   */\n      swap2\n      swap1\n      pop\n      jump\t// out\n\n    auxdata: 0xa2646970667358221220d838ed6857563895a2fee9a883c514c516ccfd113d739448ceeb9378372b825664736f6c63430008110033\n}\n",
				"bytecode": {
					"linkReferences": {},
					"object": "60806040523480156200001157600080fd5b506040518060400160405280600181526020017f410000000000000000000000000000000000000000000000000000000000000081525060008060018152602001908152602001600020908162000069919062000b82565b506040518060400160405280600181526020017f4200000000000000000000000000000000000000000000000000000000000000815250600080600281526020019081526020016000209081620000c1919062000b82565b506040518060400160405280600181526020017f430000000000000000000000000000000000000000000000000000000000000081525060008060038152602001908152602001600020908162000119919062000b82565b506040518060400160405280600181526020017f440000000000000000000000000000000000000000000000000000000000000081525060008060048152602001908152602001600020908162000171919062000b82565b506040518060400160405280600181526020017f4500000000000000000000000000000000000000000000000000000000000000815250600080600581526020019081526020016000209081620001c9919062000b82565b506040518060400160405280600181526020017f460000000000000000000000000000000000000000000000000000000000000081525060008060068152602001908152602001600020908162000221919062000b82565b506040518060400160405280600181526020017f470000000000000000000000000000000000000000000000000000000000000081525060008060078152602001908152602001600020908162000279919062000b82565b506040518060400160405280600181526020017f4800000000000000000000000000000000000000000000000000000000000000815250600080600881526020019081526020016000209081620002d1919062000b82565b506040518060400160405280600181526020017f490000000000000000000000000000000000000000000000000000000000000081525060008060098152602001908152602001600020908162000329919062000b82565b506040518060400160405280600181526020017f4a00000000000000000000000000000000000000000000000000000000000000815250600080600a8152602001908152602001600020908162000381919062000b82565b506040518060400160405280600181526020017f4b00000000000000000000000000000000000000000000000000000000000000815250600080600b81526020019081526020016000209081620003d9919062000b82565b506040518060400160405280600181526020017f4c00000000000000000000000000000000000000000000000000000000000000815250600080600c8152602001908152602001600020908162000431919062000b82565b506040518060400160405280600181526020017f4d00000000000000000000000000000000000000000000000000000000000000815250600080600d8152602001908152602001600020908162000489919062000b82565b506040518060400160405280600181526020017f4e00000000000000000000000000000000000000000000000000000000000000815250600080600e81526020019081526020016000209081620004e1919062000b82565b506040518060400160405280600181526020017f4f00000000000000000000000000000000000000000000000000000000000000815250600080600f8152602001908152602001600020908162000539919062000b82565b506040518060400160405280600181526020017f500000000000000000000000000000000000000000000000000000000000000081525060008060108152602001908152602001600020908162000591919062000b82565b506040518060400160405280600181526020017f5100000000000000000000000000000000000000000000000000000000000000815250600080601181526020019081526020016000209081620005e9919062000b82565b506040518060400160405280600181526020017f520000000000000000000000000000000000000000000000000000000000000081525060008060128152602001908152602001600020908162000641919062000b82565b506040518060400160405280600181526020017f530000000000000000000000000000000000000000000000000000000000000081525060008060138152602001908152602001600020908162000699919062000b82565b506040518060400160405280600181526020017f5400000000000000000000000000000000000000000000000000000000000000815250600080601481526020019081526020016000209081620006f1919062000b82565b506040518060400160405280600181526020017f550000000000000000000000000000000000000000000000000000000000000081525060008060158152602001908152602001600020908162000749919062000b82565b506040518060400160405280600181526020017f5600000000000000000000000000000000000000000000000000000000000000815250600080601681526020019081526020016000209081620007a1919062000b82565b506040518060400160405280600181526020017f5700000000000000000000000000000000000000000000000000000000000000815250600080601781526020019081526020016000209081620007f9919062000b82565b506040518060400160405280600181526020017f580000000000000000000000000000000000000000000000000000000000000081525060008060188152602001908152602001600020908162000851919062000b82565b506040518060400160405280600181526020017f5900000000000000000000000000000000000000000000000000000000000000815250600080601981526020019081526020016000209081620008a9919062000b82565b506040518060400160405280600181526020017f5a00000000000000000000000000000000000000000000000000000000000000815250600080601a8152602001908152602001600020908162000901919062000b82565b5062000c69565b600081519050919050565b7f4e487b7100000000000000000000000000000000000000000000000000000000600052604160045260246000fd5b7f4e487b7100000000000000000000000000000000000000000000000000000000600052602260045260246000fd5b600060028204905060018216806200098a57607f821691505b602082108103620009a0576200099f62000942565b5b50919050565b60008190508160005260206000209050919050565b60006020601f8301049050919050565b600082821b905092915050565b60006008830262000a0a7fffffffffffffffffffffffffffffffffffffffffffffffffffffffffffffffff82620009cb565b62000a168683620009cb565b95508019841693508086168417925050509392505050565b6000819050919050565b6000819050919050565b600062000a6362000a5d62000a578462000a2e565b62000a38565b62000a2e565b9050919050565b6000819050919050565b62000a7f8362000a42565b62000a9762000a8e8262000a6a565b848454620009d8565b825550505050565b600090565b62000aae62000a9f565b62000abb81848462000a74565b505050565b5b8181101562000ae35762000ad760008262000aa4565b60018101905062000ac1565b5050565b601f82111562000b325762000afc81620009a6565b62000b0784620009bb565b8101602085101562000b17578190505b62000b2f62000b2685620009bb565b83018262000ac0565b50505b505050565b600082821c905092915050565b600062000b576000198460080262000b37565b1980831691505092915050565b600062000b72838362000b44565b9150826002028217905092915050565b62000b8d8262000908565b67ffffffffffffffff81111562000ba95762000ba862000913565b5b62000bb5825462000971565b62000bc282828562000ae7565b600060209050601f83116001811462000bfa576000841562000be5578287015190505b62000bf1858262000b64565b86555062000c61565b601f19841662000c0a86620009a6565b60005b8281101562000c345784890151825560018201915060208501945060208101905062000c0d565b8683101562000c54578489015162000c50601f89168262000b44565b8355505b6001600288020188555050505b505050505050565b6106e58062000c796000396000f3fe608060405234801561001057600080fd5b50600436106100365760003560e01c80632b9170a41461003b578063b1f525c61461006b575b600080fd5b61005560048036038101906100509190610432565b61009b565b60405161006291906104fa565b60405180910390f35b6100856004803603810190610080919061051c565b6101ef565b60405161009291906104fa565b60405180910390f35b6060600060405180602001604052806000815250905060005b83518110156101e55760008060008684815181106100d5576100d4610549565b5b6020026020010151815260200190815260200160002080546100f6906105a7565b80601f0160208091040260200160405190810160405280929190818152602001828054610122906105a7565b801561016f5780601f106101445761010080835404028352916020019161016f565b820191906000526020600020905b81548152906001019060200180831161015257829003601f168201915b505050505090508281604051602001610189929190610614565b60405160208183030381529060405292507f30e738a7f2cacd30ea7d0cfb014d15ebdd5f14c8ec463cead0dda007c2e76f8c836040516101c991906104fa565b60405180910390a15080806101dd90610667565b9150506100b4565b5080915050919050565b6000602052806000526040600020600091509050805461020e906105a7565b80601f016020809104026020016040519081016040528092919081815260200182805461023a906105a7565b80156102875780601f1061025c57610100808354040283529160200191610287565b820191906000526020600020905b81548152906001019060200180831161026a57829003601f168201915b505050505081565b6000604051905090565b600080fd5b600080fd5b600080fd5b6000601f19601f8301169050919050565b7f4e487b7100000000000000000000000000000000000000000000000000000000600052604160045260246000fd5b6102f1826102a8565b810181811067ffffffffffffffff821117156103105761030f6102b9565b5b80604052505050565b600061032361028f565b905061032f82826102e8565b919050565b600067ffffffffffffffff82111561034f5761034e6102b9565b5b602082029050602081019050919050565b600080fd5b6000819050919050565b61037881610365565b811461038357600080fd5b50565b6000813590506103958161036f565b92915050565b60006103ae6103a984610334565b610319565b905080838252602082019050602084028301858111156103d1576103d0610360565b5b835b818110156103fa57806103e68882610386565b8452602084019350506020810190506103d3565b5050509392505050565b600082601f830112610419576104186102a3565b5b813561042984826020860161039b565b91505092915050565b60006020828403121561044857610447610299565b5b600082013567ffffffffffffffff8111156104665761046561029e565b5b61047284828501610404565b91505092915050565b600081519050919050565b600082825260208201905092915050565b60005b838110156104b557808201518184015260208101905061049a565b60008484015250505050565b60006104cc8261047b565b6104d68185610486565b93506104e6818560208601610497565b6104ef816102a8565b840191505092915050565b6000602082019050818103600083015261051481846104c1565b905092915050565b60006020828403121561053257610531610299565b5b600061054084828501610386565b91505092915050565b7f4e487b7100000000000000000000000000000000000000000000000000000000600052603260045260246000fd5b7f4e487b7100000000000000000000000000000000000000000000000000000000600052602260045260246000fd5b600060028204905060018216806105bf57607f821691505b6020821081036105d2576105d1610578565b5b50919050565b600081905092915050565b60006105ee8261047b565b6105f881856105d8565b9350610608818560208601610497565b80840191505092915050565b600061062082856105e3565b915061062c82846105e3565b91508190509392505050565b7f4e487b7100000000000000000000000000000000000000000000000000000000600052601160045260246000fd5b600061067282610365565b91507fffffffffffffffffffffffffffffffffffffffffffffffffffffffffffffffff82036106a4576106a3610638565b5b60018201905091905056fea2646970667358221220d838ed6857563895a2fee9a883c514c516ccfd113d739448ceeb9378372b825664736f6c63430008110033",
					"opcodes": "PUSH1 0x80 PUSH1 0x40 MSTORE CALLVALUE DUP1 ISZERO PUSH3 0x11 JUMPI PUSH1 0x0 DUP1 REVERT JUMPDEST POP PUSH1 0x40 MLOAD DUP1 PUSH1 0x40 ADD PUSH1 0x40 MSTORE DUP1 PUSH1 0x1 DUP2 MSTORE PUSH1 0x20 ADD PUSH32 0x4100000000000000000000000000000000000000000000000000000000000000 DUP2 MSTORE POP PUSH1 0x0 DUP1 PUSH1 0x1 DUP2 MSTORE PUSH1 0x20 ADD SWAP1 DUP2 MSTORE PUSH1 0x20 ADD PUSH1 0x0 KECCAK256 SWAP1 DUP2 PUSH3 0x69 SWAP2 SWAP1 PUSH3 0xB82 JUMP JUMPDEST POP PUSH1 0x40 MLOAD DUP1 PUSH1 0x40 ADD PUSH1 0x40 MSTORE DUP1 PUSH1 0x1 DUP2 MSTORE PUSH1 0x20 ADD PUSH32 0x4200000000000000000000000000000000000000000000000000000000000000 DUP2 MSTORE POP PUSH1 0x0 DUP1 PUSH1 0x2 DUP2 MSTORE PUSH1 0x20 ADD SWAP1 DUP2 MSTORE PUSH1 0x20 ADD PUSH1 0x0 KECCAK256 SWAP1 DUP2 PUSH3 0xC1 SWAP2 SWAP1 PUSH3 0xB82 JUMP JUMPDEST POP PUSH1 0x40 MLOAD DUP1 PUSH1 0x40 ADD PUSH1 0x40 MSTORE DUP1 PUSH1 0x1 DUP2 MSTORE PUSH1 0x20 ADD PUSH32 0x4300000000000000000000000000000000000000000000000000000000000000 DUP2 MSTORE POP PUSH1 0x0 DUP1 PUSH1 0x3 DUP2 MSTORE PUSH1 0x20 ADD SWAP1 DUP2 MSTORE PUSH1 0x20 ADD PUSH1 0x0 KECCAK256 SWAP1 DUP2 PUSH3 0x119 SWAP2 SWAP1 PUSH3 0xB82 JUMP JUMPDEST POP PUSH1 0x40 MLOAD DUP1 PUSH1 0x40 ADD PUSH1 0x40 MSTORE DUP1 PUSH1 0x1 DUP2 MSTORE PUSH1 0x20 ADD PUSH32 0x4400000000000000000000000000000000000000000000000000000000000000 DUP2 MSTORE POP PUSH1 0x0 DUP1 PUSH1 0x4 DUP2 MSTORE PUSH1 0x20 ADD SWAP1 DUP2 MSTORE PUSH1 0x20 ADD PUSH1 0x0 KECCAK256 SWAP1 DUP2 PUSH3 0x171 SWAP2 SWAP1 PUSH3 0xB82 JUMP JUMPDEST POP PUSH1 0x40 MLOAD DUP1 PUSH1 0x40 ADD PUSH1 0x40 MSTORE DUP1 PUSH1 0x1 DUP2 MSTORE PUSH1 0x20 ADD PUSH32 0x4500000000000000000000000000000000000000000000000000000000000000 DUP2 MSTORE POP PUSH1 0x0 DUP1 PUSH1 0x5 DUP2 MSTORE PUSH1 0x20 ADD SWAP1 DUP2 MSTORE PUSH1 0x20 ADD PUSH1 0x0 KECCAK256 SWAP1 DUP2 PUSH3 0x1C9 SWAP2 SWAP1 PUSH3 0xB82 JUMP JUMPDEST POP PUSH1 0x40 MLOAD DUP1 PUSH1 0x40 ADD PUSH1 0x40 MSTORE DUP1 PUSH1 0x1 DUP2 MSTORE PUSH1 0x20 ADD PUSH32 0x4600000000000000000000000000000000000000000000000000000000000000 DUP2 MSTORE POP PUSH1 0x0 DUP1 PUSH1 0x6 DUP2 MSTORE PUSH1 0x20 ADD SWAP1 DUP2 MSTORE PUSH1 0x20 ADD PUSH1 0x0 KECCAK256 SWAP1 DUP2 PUSH3 0x221 SWAP2 SWAP1 PUSH3 0xB82 JUMP JUMPDEST POP PUSH1 0x40 MLOAD DUP1 PUSH1 0x40 ADD PUSH1 0x40 MSTORE DUP1 PUSH1 0x1 DUP2 MSTORE PUSH1 0x20 ADD PUSH32 0x4700000000000000000000000000000000000000000000000000000000000000 DUP2 MSTORE POP PUSH1 0x0 DUP1 PUSH1 0x7 DUP2 MSTORE PUSH1 0x20 ADD SWAP1 DUP2 MSTORE PUSH1 0x20 ADD PUSH1 0x0 KECCAK256 SWAP1 DUP2 PUSH3 0x279 SWAP2 SWAP1 PUSH3 0xB82 JUMP JUMPDEST POP PUSH1 0x40 MLOAD DUP1 PUSH1 0x40 ADD PUSH1 0x40 MSTORE DUP1 PUSH1 0x1 DUP2 MSTORE PUSH1 0x20 ADD PUSH32 0x4800000000000000000000000000000000000000000000000000000000000000 DUP2 MSTORE POP PUSH1 0x0 DUP1 PUSH1 0x8 DUP2 MSTORE PUSH1 0x20 ADD SWAP1 DUP2 MSTORE PUSH1 0x20 ADD PUSH1 0x0 KECCAK256 SWAP1 DUP2 PUSH3 0x2D1 SWAP2 SWAP1 PUSH3 0xB82 JUMP JUMPDEST POP PUSH1 0x40 MLOAD DUP1 PUSH1 0x40 ADD PUSH1 0x40 MSTORE DUP1 PUSH1 0x1 DUP2 MSTORE PUSH1 0x20 ADD PUSH32 0x4900000000000000000000000000000000000000000000000000000000000000 DUP2 MSTORE POP PUSH1 0x0 DUP1 PUSH1 0x9 DUP2 MSTORE PUSH1 0x20 ADD SWAP1 DUP2 MSTORE PUSH1 0x20 ADD PUSH1 0x0 KECCAK256 SWAP1 DUP2 PUSH3 0x329 SWAP2 SWAP1 PUSH3 0xB82 JUMP JUMPDEST POP PUSH1 0x40 MLOAD DUP1 PUSH1 0x40 ADD PUSH1 0x40 MSTORE DUP1 PUSH1 0x1 DUP2 MSTORE PUSH1 0x20 ADD PUSH32 0x4A00000000000000000000000000000000000000000000000000000000000000 DUP2 MSTORE POP PUSH1 0x0 DUP1 PUSH1 0xA DUP2 MSTORE PUSH1 0x20 ADD SWAP1 DUP2 MSTORE PUSH1 0x20 ADD PUSH1 0x0 KECCAK256 SWAP1 DUP2 PUSH3 0x381 SWAP2 SWAP1 PUSH3 0xB82 JUMP JUMPDEST POP PUSH1 0x40 MLOAD DUP1 PUSH1 0x40 ADD PUSH1 0x40 MSTORE DUP1 PUSH1 0x1 DUP2 MSTORE PUSH1 0x20 ADD PUSH32 0x4B00000000000000000000000000000000000000000000000000000000000000 DUP2 MSTORE POP PUSH1 0x0 DUP1 PUSH1 0xB DUP2 MSTORE PUSH1 0x20 ADD SWAP1 DUP2 MSTORE PUSH1 0x20 ADD PUSH1 0x0 KECCAK256 SWAP1 DUP2 PUSH3 0x3D9 SWAP2 SWAP1 PUSH3 0xB82 JUMP JUMPDEST POP PUSH1 0x40 MLOAD DUP1 PUSH1 0x40 ADD PUSH1 0x40 MSTORE DUP1 PUSH1 0x1 DUP2 MSTORE PUSH1 0x20 ADD PUSH32 0x4C00000000000000000000000000000000000000000000000000000000000000 DUP2 MSTORE POP PUSH1 0x0 DUP1 PUSH1 0xC DUP2 MSTORE PUSH1 0x20 ADD SWAP1 DUP2 MSTORE PUSH1 0x20 ADD PUSH1 0x0 KECCAK256 SWAP1 DUP2 PUSH3 0x431 SWAP2 SWAP1 PUSH3 0xB82 JUMP JUMPDEST POP PUSH1 0x40 MLOAD DUP1 PUSH1 0x40 ADD PUSH1 0x40 MSTORE DUP1 PUSH1 0x1 DUP2 MSTORE PUSH1 0x20 ADD PUSH32 0x4D00000000000000000000000000000000000000000000000000000000000000 DUP2 MSTORE POP PUSH1 0x0 DUP1 PUSH1 0xD DUP2 MSTORE PUSH1 0x20 ADD SWAP1 DUP2 MSTORE PUSH1 0x20 ADD PUSH1 0x0 KECCAK256 SWAP1 DUP2 PUSH3 0x489 SWAP2 SWAP1 PUSH3 0xB82 JUMP JUMPDEST POP PUSH1 0x40 MLOAD DUP1 PUSH1 0x40 ADD PUSH1 0x40 MSTORE DUP1 PUSH1 0x1 DUP2 MSTORE PUSH1 0x20 ADD PUSH32 0x4E00000000000000000000000000000000000000000000000000000000000000 DUP2 MSTORE POP PUSH1 0x0 DUP1 PUSH1 0xE DUP2 MSTORE PUSH1 0x20 ADD SWAP1 DUP2 MSTORE PUSH1 0x20 ADD PUSH1 0x0 KECCAK256 SWAP1 DUP2 PUSH3 0x4E1 SWAP2 SWAP1 PUSH3 0xB82 JUMP JUMPDEST POP PUSH1 0x40 MLOAD DUP1 PUSH1 0x40 ADD PUSH1 0x40 MSTORE DUP1 PUSH1 0x1 DUP2 MSTORE PUSH1 0x20 ADD PUSH32 0x4F00000000000000000000000000000000000000000000000000000000000000 DUP2 MSTORE POP PUSH1 0x0 DUP1 PUSH1 0xF DUP2 MSTORE PUSH1 0x20 ADD SWAP1 DUP2 MSTORE PUSH1 0x20 ADD PUSH1 0x0 KECCAK256 SWAP1 DUP2 PUSH3 0x539 SWAP2 SWAP1 PUSH3 0xB82 JUMP JUMPDEST POP PUSH1 0x40 MLOAD DUP1 PUSH1 0x40 ADD PUSH1 0x40 MSTORE DUP1 PUSH1 0x1 DUP2 MSTORE PUSH1 0x20 ADD PUSH32 0x5000000000000000000000000000000000000000000000000000000000000000 DUP2 MSTORE POP PUSH1 0x0 DUP1 PUSH1 0x10 DUP2 MSTORE PUSH1 0x20 ADD SWAP1 DUP2 MSTORE PUSH1 0x20 ADD PUSH1 0x0 KECCAK256 SWAP1 DUP2 PUSH3 0x591 SWAP2 SWAP1 PUSH3 0xB82 JUMP JUMPDEST POP PUSH1 0x40 MLOAD DUP1 PUSH1 0x40 ADD PUSH1 0x40 MSTORE DUP1 PUSH1 0x1 DUP2 MSTORE PUSH1 0x20 ADD PUSH32 0x5100000000000000000000000000000000000000000000000000000000000000 DUP2 MSTORE POP PUSH1 0x0 DUP1 PUSH1 0x11 DUP2 MSTORE PUSH1 0x20 ADD SWAP1 DUP2 MSTORE PUSH1 0x20 ADD PUSH1 0x0 KECCAK256 SWAP1 DUP2 PUSH3 0x5E9 SWAP2 SWAP1 PUSH3 0xB82 JUMP JUMPDEST POP PUSH1 0x40 MLOAD DUP1 PUSH1 0x40 ADD PUSH1 0x40 MSTORE DUP1 PUSH1 0x1 DUP2 MSTORE PUSH1 0x20 ADD PUSH32 0x5200000000000000000000000000000000000000000000000000000000000000 DUP2 MSTORE POP PUSH1 0x0 DUP1 PUSH1 0x12 DUP2 MSTORE PUSH1 0x20 ADD SWAP1 DUP2 MSTORE PUSH1 0x20 ADD PUSH1 0x0 KECCAK256 SWAP1 DUP2 PUSH3 0x641 SWAP2 SWAP1 PUSH3 0xB82 JUMP JUMPDEST POP PUSH1 0x40 MLOAD DUP1 PUSH1 0x40 ADD PUSH1 0x40 MSTORE DUP1 PUSH1 0x1 DUP2 MSTORE PUSH1 0x20 ADD PUSH32 0x5300000000000000000000000000000000000000000000000000000000000000 DUP2 MSTORE POP PUSH1 0x0 DUP1 PUSH1 0x13 DUP2 MSTORE PUSH1 0x20 ADD SWAP1 DUP2 MSTORE PUSH1 0x20 ADD PUSH1 0x0 KECCAK256 SWAP1 DUP2 PUSH3 0x699 SWAP2 SWAP1 PUSH3 0xB82 JUMP JUMPDEST POP PUSH1 0x40 MLOAD DUP1 PUSH1 0x40 ADD PUSH1 0x40 MSTORE DUP1 PUSH1 0x1 DUP2 MSTORE PUSH1 0x20 ADD PUSH32 0x5400000000000000000000000000000000000000000000000000000000000000 DUP2 MSTORE POP PUSH1 0x0 DUP1 PUSH1 0x14 DUP2 MSTORE PUSH1 0x20 ADD SWAP1 DUP2 MSTORE PUSH1 0x20 ADD PUSH1 0x0 KECCAK256 SWAP1 DUP2 PUSH3 0x6F1 SWAP2 SWAP1 PUSH3 0xB82 JUMP JUMPDEST POP PUSH1 0x40 MLOAD DUP1 PUSH1 0x40 ADD PUSH1 0x40 MSTORE DUP1 PUSH1 0x1 DUP2 MSTORE PUSH1 0x20 ADD PUSH32 0x5500000000000000000000000000000000000000000000000000000000000000 DUP2 MSTORE POP PUSH1 0x0 DUP1 PUSH1 0x15 DUP2 MSTORE PUSH1 0x20 ADD SWAP1 DUP2 MSTORE PUSH1 0x20 ADD PUSH1 0x0 KECCAK256 SWAP1 DUP2 PUSH3 0x749 SWAP2 SWAP1 PUSH3 0xB82 JUMP JUMPDEST POP PUSH1 0x40 MLOAD DUP1 PUSH1 0x40 ADD PUSH1 0x40 MSTORE DUP1 PUSH1 0x1 DUP2 MSTORE PUSH1 0x20 ADD PUSH32 0x5600000000000000000000000000000000000000000000000000000000000000 DUP2 MSTORE POP PUSH1 0x0 DUP1 PUSH1 0x16 DUP2 MSTORE PUSH1 0x20 ADD SWAP1 DUP2 MSTORE PUSH1 0x20 ADD PUSH1 0x0 KECCAK256 SWAP1 DUP2 PUSH3 0x7A1 SWAP2 SWAP1 PUSH3 0xB82 JUMP JUMPDEST POP PUSH1 0x40 MLOAD DUP1 PUSH1 0x40 ADD PUSH1 0x40 MSTORE DUP1 PUSH1 0x1 DUP2 MSTORE PUSH1 0x20 ADD PUSH32 0x5700000000000000000000000000000000000000000000000000000000000000 DUP2 MSTORE POP PUSH1 0x0 DUP1 PUSH1 0x17 DUP2 MSTORE PUSH1 0x20 ADD SWAP1 DUP2 MSTORE PUSH1 0x20 ADD PUSH1 0x0 KECCAK256 SWAP1 DUP2 PUSH3 0x7F9 SWAP2 SWAP1 PUSH3 0xB82 JUMP JUMPDEST POP PUSH1 0x40 MLOAD DUP1 PUSH1 0x40 ADD PUSH1 0x40 MSTORE DUP1 PUSH1 0x1 DUP2 MSTORE PUSH1 0x20 ADD PUSH32 0x5800000000000000000000000000000000000000000000000000000000000000 DUP2 MSTORE POP PUSH1 0x0 DUP1 PUSH1 0x18 DUP2 MSTORE PUSH1 0x20 ADD SWAP1 DUP2 MSTORE PUSH1 0x20 ADD PUSH1 0x0 KECCAK256 SWAP1 DUP2 PUSH3 0x851 SWAP2 SWAP1 PUSH3 0xB82 JUMP JUMPDEST POP PUSH1 0x40 MLOAD DUP1 PUSH1 0x40 ADD PUSH1 0x40 MSTORE DUP1 PUSH1 0x1 DUP2 MSTORE PUSH1 0x20 ADD PUSH32 0x5900000000000000000000000000000000000000000000000000000000000000 DUP2 MSTORE POP PUSH1 0x0 DUP1 PUSH1 0x19 DUP2 MSTORE PUSH1 0x20 ADD SWAP1 DUP2 MSTORE PUSH1 0x20 ADD PUSH1 0x0 KECCAK256 SWAP1 DUP2 PUSH3 0x8A9 SWAP2 SWAP1 PUSH3 0xB82 JUMP JUMPDEST POP PUSH1 0x40 MLOAD DUP1 PUSH1 0x40 ADD PUSH1 0x40 MSTORE DUP1 PUSH1 0x1 DUP2 MSTORE PUSH1 0x20 ADD PUSH32 0x5A00000000000000000000000000000000000000000000000000000000000000 DUP2 MSTORE POP PUSH1 0x0 DUP1 PUSH1 0x1A DUP2 MSTORE PUSH1 0x20 ADD SWAP1 DUP2 MSTORE PUSH1 0x20 ADD PUSH1 0x0 KECCAK256 SWAP1 DUP2 PUSH3 0x901 SWAP2 SWAP1 PUSH3 0xB82 JUMP JUMPDEST POP PUSH3 0xC69 JUMP JUMPDEST PUSH1 0x0 DUP2 MLOAD SWAP1 POP SWAP2 SWAP1 POP JUMP JUMPDEST PUSH32 0x4E487B7100000000000000000000000000000000000000000000000000000000 PUSH1 0x0 MSTORE PUSH1 0x41 PUSH1 0x4 MSTORE PUSH1 0x24 PUSH1 0x0 REVERT JUMPDEST PUSH32 0x4E487B7100000000000000000000000000000000000000000000000000000000 PUSH1 0x0 MSTORE PUSH1 0x22 PUSH1 0x4 MSTORE PUSH1 0x24 PUSH1 0x0 REVERT JUMPDEST PUSH1 0x0 PUSH1 0x2 DUP3 DIV SWAP1 POP PUSH1 0x1 DUP3 AND DUP1 PUSH3 0x98A JUMPI PUSH1 0x7F DUP3 AND SWAP2 POP JUMPDEST PUSH1 0x20 DUP3 LT DUP2 SUB PUSH3 0x9A0 JUMPI PUSH3 0x99F PUSH3 0x942 JUMP JUMPDEST JUMPDEST POP SWAP2 SWAP1 POP JUMP JUMPDEST PUSH1 0x0 DUP2 SWAP1 POP DUP2 PUSH1 0x0 MSTORE PUSH1 0x20 PUSH1 0x0 KECCAK256 SWAP1 POP SWAP2 SWAP1 POP JUMP JUMPDEST PUSH1 0x0 PUSH1 0x20 PUSH1 0x1F DUP4 ADD DIV SWAP1 POP SWAP2 SWAP1 POP JUMP JUMPDEST PUSH1 0x0 DUP3 DUP3 SHL SWAP1 POP SWAP3 SWAP2 POP POP JUMP JUMPDEST PUSH1 0x0 PUSH1 0x8 DUP4 MUL PUSH3 0xA0A PUSH32 0xFFFFFFFFFFFFFFFFFFFFFFFFFFFFFFFFFFFFFFFFFFFFFFFFFFFFFFFFFFFFFFFF DUP3 PUSH3 0x9CB JUMP JUMPDEST PUSH3 0xA16 DUP7 DUP4 PUSH3 0x9CB JUMP JUMPDEST SWAP6 POP DUP1 NOT DUP5 AND SWAP4 POP DUP1 DUP7 AND DUP5 OR SWAP3 POP POP POP SWAP4 SWAP3 POP POP POP JUMP JUMPDEST PUSH1 0x0 DUP2 SWAP1 POP SWAP2 SWAP1 POP JUMP JUMPDEST PUSH1 0x0 DUP2 SWAP1 POP SWAP2 SWAP1 POP JUMP JUMPDEST PUSH1 0x0 PUSH3 0xA63 PUSH3 0xA5D PUSH3 0xA57 DUP5 PUSH3 0xA2E JUMP JUMPDEST PUSH3 0xA38 JUMP JUMPDEST PUSH3 0xA2E JUMP JUMPDEST SWAP1 POP SWAP2 SWAP1 POP JUMP JUMPDEST PUSH1 0x0 DUP2 SWAP1 POP SWAP2 SWAP1 POP JUMP JUMPDEST PUSH3 0xA7F DUP4 PUSH3 0xA42 JUMP JUMPDEST PUSH3 0xA97 PUSH3 0xA8E DUP3 PUSH3 0xA6A JUMP JUMPDEST DUP5 DUP5 SLOAD PUSH3 0x9D8 JUMP JUMPDEST DUP3 SSTORE POP POP POP POP JUMP JUMPDEST PUSH1 0x0 SWAP1 JUMP JUMPDEST PUSH3 0xAAE PUSH3 0xA9F JUMP JUMPDEST PUSH3 0xABB DUP2 DUP5 DUP5 PUSH3 0xA74 JUMP JUMPDEST POP POP POP JUMP JUMPDEST JUMPDEST DUP2 DUP2 LT ISZERO PUSH3 0xAE3 JUMPI PUSH3 0xAD7 PUSH1 0x0 DUP3 PUSH3 0xAA4 JUMP JUMPDEST PUSH1 0x1 DUP2 ADD SWAP1 POP PUSH3 0xAC1 JUMP JUMPDEST POP POP JUMP JUMPDEST PUSH1 0x1F DUP3 GT ISZERO PUSH3 0xB32 JUMPI PUSH3 0xAFC DUP2 PUSH3 0x9A6 JUMP JUMPDEST PUSH3 0xB07 DUP5 PUSH3 0x9BB JUMP JUMPDEST DUP2 ADD PUSH1 0x20 DUP6 LT ISZERO PUSH3 0xB17 JUMPI DUP2 SWAP1 POP JUMPDEST PUSH3 0xB2F PUSH3 0xB26 DUP6 PUSH3 0x9BB JUMP JUMPDEST DUP4 ADD DUP3 PUSH3 0xAC0 JUMP JUMPDEST POP POP JUMPDEST POP POP POP JUMP JUMPDEST PUSH1 0x0 DUP3 DUP3 SHR SWAP1 POP SWAP3 SWAP2 POP POP JUMP JUMPDEST PUSH1 0x0 PUSH3 0xB57 PUSH1 0x0 NOT DUP5 PUSH1 0x8 MUL PUSH3 0xB37 JUMP JUMPDEST NOT DUP1 DUP4 AND SWAP2 POP POP SWAP3 SWAP2 POP POP JUMP JUMPDEST PUSH1 0x0 PUSH3 0xB72 DUP4 DUP4 PUSH3 0xB44 JUMP JUMPDEST SWAP2 POP DUP3 PUSH1 0x2 MUL DUP3 OR SWAP1 POP SWAP3 SWAP2 POP POP JUMP JUMPDEST PUSH3 0xB8D DUP3 PUSH3 0x908 JUMP JUMPDEST PUSH8 0xFFFFFFFFFFFFFFFF DUP2 GT ISZERO PUSH3 0xBA9 JUMPI PUSH3 0xBA8 PUSH3 0x913 JUMP JUMPDEST JUMPDEST PUSH3 0xBB5 DUP3 SLOAD PUSH3 0x971 JUMP JUMPDEST PUSH3 0xBC2 DUP3 DUP3 DUP6 PUSH3 0xAE7 JUMP JUMPDEST PUSH1 0x0 PUSH1 0x20 SWAP1 POP PUSH1 0x1F DUP4 GT PUSH1 0x1 DUP2 EQ PUSH3 0xBFA JUMPI PUSH1 0x0 DUP5 ISZERO PUSH3 0xBE5 JUMPI DUP3 DUP8 ADD MLOAD SWAP1 POP JUMPDEST PUSH3 0xBF1 DUP6 DUP3 PUSH3 0xB64 JUMP JUMPDEST DUP7 SSTORE POP PUSH3 0xC61 JUMP JUMPDEST PUSH1 0x1F NOT DUP5 AND PUSH3 0xC0A DUP7 PUSH3 0x9A6 JUMP JUMPDEST PUSH1 0x0 JUMPDEST DUP3 DUP2 LT ISZERO PUSH3 0xC34 JUMPI DUP5 DUP10 ADD MLOAD DUP3 SSTORE PUSH1 0x1 DUP3 ADD SWAP2 POP PUSH1 0x20 DUP6 ADD SWAP5 POP PUSH1 0x20 DUP2 ADD SWAP1 POP PUSH3 0xC0D JUMP JUMPDEST DUP7 DUP4 LT ISZERO PUSH3 0xC54 JUMPI DUP5 DUP10 ADD MLOAD PUSH3 0xC50 PUSH1 0x1F DUP10 AND DUP3 PUSH3 0xB44 JUMP JUMPDEST DUP4 SSTORE POP JUMPDEST PUSH1 0x1 PUSH1 0x2 DUP9 MUL ADD DUP9 SSTORE POP POP POP JUMPDEST POP POP POP POP POP POP JUMP JUMPDEST PUSH2 0x6E5 DUP1 PUSH3 0xC79 PUSH1 0x0 CODECOPY PUSH1 0x0 RETURN INVALID PUSH1 0x80 PUSH1 0x40 MSTORE CALLVALUE DUP1 ISZERO PUSH2 0x10 JUMPI PUSH1 0x0 DUP1 REVERT JUMPDEST POP PUSH1 0x4 CALLDATASIZE LT PUSH2 0x36 JUMPI PUSH1 0x0 CALLDATALOAD PUSH1 0xE0 SHR DUP1 PUSH4 0x2B9170A4 EQ PUSH2 0x3B JUMPI DUP1 PUSH4 0xB1F525C6 EQ PUSH2 0x6B JUMPI JUMPDEST PUSH1 0x0 DUP1 REVERT JUMPDEST PUSH2 0x55 PUSH1 0x4 DUP1 CALLDATASIZE SUB DUP2 ADD SWAP1 PUSH2 0x50 SWAP2 SWAP1 PUSH2 0x432 JUMP JUMPDEST PUSH2 0x9B JUMP JUMPDEST PUSH1 0x40 MLOAD PUSH2 0x62 SWAP2 SWAP1 PUSH2 0x4FA JUMP JUMPDEST PUSH1 0x40 MLOAD DUP1 SWAP2 SUB SWAP1 RETURN JUMPDEST PUSH2 0x85 PUSH1 0x4 DUP1 CALLDATASIZE SUB DUP2 ADD SWAP1 PUSH2 0x80 SWAP2 SWAP1 PUSH2 0x51C JUMP JUMPDEST PUSH2 0x1EF JUMP JUMPDEST PUSH1 0x40 MLOAD PUSH2 0x92 SWAP2 SWAP1 PUSH2 0x4FA JUMP JUMPDEST PUSH1 0x40 MLOAD DUP1 SWAP2 SUB SWAP1 RETURN JUMPDEST PUSH1 0x60 PUSH1 0x0 PUSH1 0x40 MLOAD DUP1 PUSH1 0x20 ADD PUSH1 0x40 MSTORE DUP1 PUSH1 0x0 DUP2 MSTORE POP SWAP1 POP PUSH1 0x0 JUMPDEST DUP4 MLOAD DUP2 LT ISZERO PUSH2 0x1E5 JUMPI PUSH1 0x0 DUP1 PUSH1 0x0 DUP7 DUP5 DUP2 MLOAD DUP2 LT PUSH2 0xD5 JUMPI PUSH2 0xD4 PUSH2 0x549 JUMP JUMPDEST JUMPDEST PUSH1 0x20 MUL PUSH1 0x20 ADD ADD MLOAD DUP2 MSTORE PUSH1 0x20 ADD SWAP1 DUP2 MSTORE PUSH1 0x20 ADD PUSH1 0x0 KECCAK256 DUP1 SLOAD PUSH2 0xF6 SWAP1 PUSH2 0x5A7 JUMP JUMPDEST DUP1 PUSH1 0x1F ADD PUSH1 0x20 DUP1 SWAP2 DIV MUL PUSH1 0x20 ADD PUSH1 0x40 MLOAD SWAP1 DUP2 ADD PUSH1 0x40 MSTORE DUP1 SWAP3 SWAP2 SWAP1 DUP2 DUP2 MSTORE PUSH1 0x20 ADD DUP3 DUP1 SLOAD PUSH2 0x122 SWAP1 PUSH2 0x5A7 JUMP JUMPDEST DUP1 ISZERO PUSH2 0x16F JUMPI DUP1 PUSH1 0x1F LT PUSH2 0x144 JUMPI PUSH2 0x100 DUP1 DUP4 SLOAD DIV MUL DUP4 MSTORE SWAP2 PUSH1 0x20 ADD SWAP2 PUSH2 0x16F JUMP JUMPDEST DUP3 ADD SWAP2 SWAP1 PUSH1 0x0 MSTORE PUSH1 0x20 PUSH1 0x0 KECCAK256 SWAP1 JUMPDEST DUP2 SLOAD DUP2 MSTORE SWAP1 PUSH1 0x1 ADD SWAP1 PUSH1 0x20 ADD DUP1 DUP4 GT PUSH2 0x152 JUMPI DUP3 SWAP1 SUB PUSH1 0x1F AND DUP3 ADD SWAP2 JUMPDEST POP POP POP POP POP SWAP1 POP DUP3 DUP2 PUSH1 0x40 MLOAD PUSH1 0x20 ADD PUSH2 0x189 SWAP3 SWAP2 SWAP1 PUSH2 0x614 JUMP JUMPDEST PUSH1 0x40 MLOAD PUSH1 0x20 DUP2 DUP4 SUB SUB DUP2 MSTORE SWAP1 PUSH1 0x40 MSTORE SWAP3 POP PUSH32 0x30E738A7F2CACD30EA7D0CFB014D15EBDD5F14C8EC463CEAD0DDA007C2E76F8C DUP4 PUSH1 0x40 MLOAD PUSH2 0x1C9 SWAP2 SWAP1 PUSH2 0x4FA JUMP JUMPDEST PUSH1 0x40 MLOAD DUP1 SWAP2 SUB SWAP1 LOG1 POP DUP1 DUP1 PUSH2 0x1DD SWAP1 PUSH2 0x667 JUMP JUMPDEST SWAP2 POP POP PUSH2 0xB4 JUMP JUMPDEST POP DUP1 SWAP2 POP POP SWAP2 SWAP1 POP JUMP JUMPDEST PUSH1 0x0 PUSH1 0x20 MSTORE DUP1 PUSH1 0x0 MSTORE PUSH1 0x40 PUSH1 0x0 KECCAK256 PUSH1 0x0 SWAP2 POP SWAP1 POP DUP1 SLOAD PUSH2 0x20E SWAP1 PUSH2 0x5A7 JUMP JUMPDEST DUP1 PUSH1 0x1F ADD PUSH1 0x20 DUP1 SWAP2 DIV MUL PUSH1 0x20 ADD PUSH1 0x40 MLOAD SWAP1 DUP2 ADD PUSH1 0x40 MSTORE DUP1 SWAP3 SWAP2 SWAP1 DUP2 DUP2 MSTORE PUSH1 0x20 ADD DUP3 DUP1 SLOAD PUSH2 0x23A SWAP1 PUSH2 0x5A7 JUMP JUMPDEST DUP1 ISZERO PUSH2 0x287 JUMPI DUP1 PUSH1 0x1F LT PUSH2 0x25C JUMPI PUSH2 0x100 DUP1 DUP4 SLOAD DIV MUL DUP4 MSTORE SWAP2 PUSH1 0x20 ADD SWAP2 PUSH2 0x287 JUMP JUMPDEST DUP3 ADD SWAP2 SWAP1 PUSH1 0x0 MSTORE PUSH1 0x20 PUSH1 0x0 KECCAK256 SWAP1 JUMPDEST DUP2 SLOAD DUP2 MSTORE SWAP1 PUSH1 0x1 ADD SWAP1 PUSH1 0x20 ADD DUP1 DUP4 GT PUSH2 0x26A JUMPI DUP3 SWAP1 SUB PUSH1 0x1F AND DUP3 ADD SWAP2 JUMPDEST POP POP POP POP POP DUP2 JUMP JUMPDEST PUSH1 0x0 PUSH1 0x40 MLOAD SWAP1 POP SWAP1 JUMP JUMPDEST PUSH1 0x0 DUP1 REVERT JUMPDEST PUSH1 0x0 DUP1 REVERT JUMPDEST PUSH1 0x0 DUP1 REVERT JUMPDEST PUSH1 0x0 PUSH1 0x1F NOT PUSH1 0x1F DUP4 ADD AND SWAP1 POP SWAP2 SWAP1 POP JUMP JUMPDEST PUSH32 0x4E487B7100000000000000000000000000000000000000000000000000000000 PUSH1 0x0 MSTORE PUSH1 0x41 PUSH1 0x4 MSTORE PUSH1 0x24 PUSH1 0x0 REVERT JUMPDEST PUSH2 0x2F1 DUP3 PUSH2 0x2A8 JUMP JUMPDEST DUP2 ADD DUP2 DUP2 LT PUSH8 0xFFFFFFFFFFFFFFFF DUP3 GT OR ISZERO PUSH2 0x310 JUMPI PUSH2 0x30F PUSH2 0x2B9 JUMP JUMPDEST JUMPDEST DUP1 PUSH1 0x40 MSTORE POP POP POP JUMP JUMPDEST PUSH1 0x0 PUSH2 0x323 PUSH2 0x28F JUMP JUMPDEST SWAP1 POP PUSH2 0x32F DUP3 DUP3 PUSH2 0x2E8 JUMP JUMPDEST SWAP2 SWAP1 POP JUMP JUMPDEST PUSH1 0x0 PUSH8 0xFFFFFFFFFFFFFFFF DUP3 GT ISZERO PUSH2 0x34F JUMPI PUSH2 0x34E PUSH2 0x2B9 JUMP JUMPDEST JUMPDEST PUSH1 0x20 DUP3 MUL SWAP1 POP PUSH1 0x20 DUP2 ADD SWAP1 POP SWAP2 SWAP1 POP JUMP JUMPDEST PUSH1 0x0 DUP1 REVERT JUMPDEST PUSH1 0x0 DUP2 SWAP1 POP SWAP2 SWAP1 POP JUMP JUMPDEST PUSH2 0x378 DUP2 PUSH2 0x365 JUMP JUMPDEST DUP2 EQ PUSH2 0x383 JUMPI PUSH1 0x0 DUP1 REVERT JUMPDEST POP JUMP JUMPDEST PUSH1 0x0 DUP2 CALLDATALOAD SWAP1 POP PUSH2 0x395 DUP2 PUSH2 0x36F JUMP JUMPDEST SWAP3 SWAP2 POP POP JUMP JUMPDEST PUSH1 0x0 PUSH2 0x3AE PUSH2 0x3A9 DUP5 PUSH2 0x334 JUMP JUMPDEST PUSH2 0x319 JUMP JUMPDEST SWAP1 POP DUP1 DUP4 DUP3 MSTORE PUSH1 0x20 DUP3 ADD SWAP1 POP PUSH1 0x20 DUP5 MUL DUP4 ADD DUP6 DUP2 GT ISZERO PUSH2 0x3D1 JUMPI PUSH2 0x3D0 PUSH2 0x360 JUMP JUMPDEST JUMPDEST DUP4 JUMPDEST DUP2 DUP2 LT ISZERO PUSH2 0x3FA JUMPI DUP1 PUSH2 0x3E6 DUP9 DUP3 PUSH2 0x386 JUMP JUMPDEST DUP5 MSTORE PUSH1 0x20 DUP5 ADD SWAP4 POP POP PUSH1 0x20 DUP2 ADD SWAP1 POP PUSH2 0x3D3 JUMP JUMPDEST POP POP POP SWAP4 SWAP3 POP POP POP JUMP JUMPDEST PUSH1 0x0 DUP3 PUSH1 0x1F DUP4 ADD SLT PUSH2 0x419 JUMPI PUSH2 0x418 PUSH2 0x2A3 JUMP JUMPDEST JUMPDEST DUP2 CALLDATALOAD PUSH2 0x429 DUP5 DUP3 PUSH1 0x20 DUP7 ADD PUSH2 0x39B JUMP JUMPDEST SWAP2 POP POP SWAP3 SWAP2 POP POP JUMP JUMPDEST PUSH1 0x0 PUSH1 0x20 DUP3 DUP5 SUB SLT ISZERO PUSH2 0x448 JUMPI PUSH2 0x447 PUSH2 0x299 JUMP JUMPDEST JUMPDEST PUSH1 0x0 DUP3 ADD CALLDATALOAD PUSH8 0xFFFFFFFFFFFFFFFF DUP2 GT ISZERO PUSH2 0x466 JUMPI PUSH2 0x465 PUSH2 0x29E JUMP JUMPDEST JUMPDEST PUSH2 0x472 DUP5 DUP3 DUP6 ADD PUSH2 0x404 JUMP JUMPDEST SWAP2 POP POP SWAP3 SWAP2 POP POP JUMP JUMPDEST PUSH1 0x0 DUP2 MLOAD SWAP1 POP SWAP2 SWAP1 POP JUMP JUMPDEST PUSH1 0x0 DUP3 DUP3 MSTORE PUSH1 0x20 DUP3 ADD SWAP1 POP SWAP3 SWAP2 POP POP JUMP JUMPDEST PUSH1 0x0 JUMPDEST DUP4 DUP2 LT ISZERO PUSH2 0x4B5 JUMPI DUP1 DUP3 ADD MLOAD DUP2 DUP5 ADD MSTORE PUSH1 0x20 DUP2 ADD SWAP1 POP PUSH2 0x49A JUMP JUMPDEST PUSH1 0x0 DUP5 DUP5 ADD MSTORE POP POP POP POP JUMP JUMPDEST PUSH1 0x0 PUSH2 0x4CC DUP3 PUSH2 0x47B JUMP JUMPDEST PUSH2 0x4D6 DUP2 DUP6 PUSH2 0x486 JUMP JUMPDEST SWAP4 POP PUSH2 0x4E6 DUP2 DUP6 PUSH1 0x20 DUP7 ADD PUSH2 0x497 JUMP JUMPDEST PUSH2 0x4EF DUP2 PUSH2 0x2A8 JUMP JUMPDEST DUP5 ADD SWAP2 POP POP SWAP3 SWAP2 POP POP JUMP JUMPDEST PUSH1 0x0 PUSH1 0x20 DUP3 ADD SWAP1 POP DUP2 DUP2 SUB PUSH1 0x0 DUP4 ADD MSTORE PUSH2 0x514 DUP2 DUP5 PUSH2 0x4C1 JUMP JUMPDEST SWAP1 POP SWAP3 SWAP2 POP POP JUMP JUMPDEST PUSH1 0x0 PUSH1 0x20 DUP3 DUP5 SUB SLT ISZERO PUSH2 0x532 JUMPI PUSH2 0x531 PUSH2 0x299 JUMP JUMPDEST JUMPDEST PUSH1 0x0 PUSH2 0x540 DUP5 DUP3 DUP6 ADD PUSH2 0x386 JUMP JUMPDEST SWAP2 POP POP SWAP3 SWAP2 POP POP JUMP JUMPDEST PUSH32 0x4E487B7100000000000000000000000000000000000000000000000000000000 PUSH1 0x0 MSTORE PUSH1 0x32 PUSH1 0x4 MSTORE PUSH1 0x24 PUSH1 0x0 REVERT JUMPDEST PUSH32 0x4E487B7100000000000000000000000000000000000000000000000000000000 PUSH1 0x0 MSTORE PUSH1 0x22 PUSH1 0x4 MSTORE PUSH1 0x24 PUSH1 0x0 REVERT JUMPDEST PUSH1 0x0 PUSH1 0x2 DUP3 DIV SWAP1 POP PUSH1 0x1 DUP3 AND DUP1 PUSH2 0x5BF JUMPI PUSH1 0x7F DUP3 AND SWAP2 POP JUMPDEST PUSH1 0x20 DUP3 LT DUP2 SUB PUSH2 0x5D2 JUMPI PUSH2 0x5D1 PUSH2 0x578 JUMP JUMPDEST JUMPDEST POP SWAP2 SWAP1 POP JUMP JUMPDEST PUSH1 0x0 DUP2 SWAP1 POP SWAP3 SWAP2 POP POP JUMP JUMPDEST PUSH1 0x0 PUSH2 0x5EE DUP3 PUSH2 0x47B JUMP JUMPDEST PUSH2 0x5F8 DUP2 DUP6 PUSH2 0x5D8 JUMP JUMPDEST SWAP4 POP PUSH2 0x608 DUP2 DUP6 PUSH1 0x20 DUP7 ADD PUSH2 0x497 JUMP JUMPDEST DUP1 DUP5 ADD SWAP2 POP POP SWAP3 SWAP2 POP POP JUMP JUMPDEST PUSH1 0x0 PUSH2 0x620 DUP3 DUP6 PUSH2 0x5E3 JUMP JUMPDEST SWAP2 POP PUSH2 0x62C DUP3 DUP5 PUSH2 0x5E3 JUMP JUMPDEST SWAP2 POP DUP2 SWAP1 POP SWAP4 SWAP3 POP POP POP JUMP JUMPDEST PUSH32 0x4E487B7100000000000000000000000000000000000000000000000000000000 PUSH1 0x0 MSTORE PUSH1 0x11 PUSH1 0x4 MSTORE PUSH1 0x24 PUSH1 0x0 REVERT JUMPDEST PUSH1 0x0 PUSH2 0x672 DUP3 PUSH2 0x365 JUMP JUMPDEST SWAP2 POP PUSH32 0xFFFFFFFFFFFFFFFFFFFFFFFFFFFFFFFFFFFFFFFFFFFFFFFFFFFFFFFFFFFFFFFF DUP3 SUB PUSH2 0x6A4 JUMPI PUSH2 0x6A3 PUSH2 0x638 JUMP JUMPDEST JUMPDEST PUSH1 0x1 DUP3 ADD SWAP1 POP SWAP2 SWAP1 POP JUMP INVALID LOG2 PUSH5 0x6970667358 0x22 SLT KECCAK256 0xD8 CODESIZE 0xED PUSH9 0x57563895A2FEE9A883 0xC5 EQ 0xC5 AND 0xCC REVERT GT RETURNDATASIZE PUSH20 0x9448CEEB9378372B825664736F6C634300081100 CALLER "
				},
				"gasEstimates": {
					"creation": {
						"codeDepositCost": "353000",
						"executionCost": "infinite",
						"totalCost": "infinite"
					},
					"external": {
						"counter(uint256)": "infinite",
						"numberToString(uint256[])": "infinite"
					}
				},
				"methodIdentifiers": {
					"counter(uint256)": "b1f525c6",
					"numberToString(uint256[])": "2b9170a4"
				}
			},
			"storageLayout": {
				"storage": [
					{
						"astId": 165,
						"contract": "bootcamp/week3/day_5_homework_part_2_number_array_string_output.sol:NumberToString",
						"label": "counter",
						"offset": 0,
						"slot": "0",
						"type": "t_mapping(t_uint256,t_string_storage)"
					}
				],
				"types": {
					"t_mapping(t_uint256,t_string_storage)": {
						"encoding": "mapping",
						"key": "t_uint256",
						"label": "mapping(uint256 => string)",
						"numberOfBytes": "32",
						"value": "t_string_storage"
					},
					"t_string_storage": {
						"encoding": "bytes",
						"label": "string",
						"numberOfBytes": "32"
					},
					"t_uint256": {
						"encoding": "inplace",
						"label": "uint256",
						"numberOfBytes": "32"
					}
				}
			},
			"userdoc": {
				"kind": "user",
				"methods": {},
				"version": 1
			}
		}
	}
}