{
	"bootcamp/week3/day_4_multiSigWallet.sol": {
		"multiSigLesson": {
			"abi": [
				{
					"inputs": [],
					"stateMutability": "nonpayable",
					"type": "constructor"
				},
				{
					"inputs": [
						{
							"internalType": "uint256",
							"name": "",
							"type": "uint256"
						},
						{
							"internalType": "address",
							"name": "",
							"type": "address"
						}
					],
					"name": "alreadyVoted",
					"outputs": [
						{
							"internalType": "bool",
							"name": "",
							"type": "bool"
						}
					],
					"stateMutability": "view",
					"type": "function"
				},
				{
					"inputs": [
						{
							"internalType": "address",
							"name": "",
							"type": "address"
						},
						{
							"internalType": "address",
							"name": "",
							"type": "address"
						}
					],
					"name": "alreadyVotedNewAddress",
					"outputs": [
						{
							"internalType": "bool",
							"name": "",
							"type": "bool"
						}
					],
					"stateMutability": "view",
					"type": "function"
				},
				{
					"inputs": [],
					"name": "approvalsNeeded",
					"outputs": [
						{
							"internalType": "uint256",
							"name": "",
							"type": "uint256"
						}
					],
					"stateMutability": "view",
					"type": "function"
				},
				{
					"inputs": [
						{
							"internalType": "uint256",
							"name": "index",
							"type": "uint256"
						}
					],
					"name": "executeTransaction",
					"outputs": [],
					"stateMutability": "nonpayable",
					"type": "function"
				},
				{
					"inputs": [
						{
							"internalType": "address",
							"name": "",
							"type": "address"
						}
					],
					"name": "ownerList",
					"outputs": [
						{
							"internalType": "bool",
							"name": "",
							"type": "bool"
						}
					],
					"stateMutability": "view",
					"type": "function"
				},
				{
					"inputs": [],
					"name": "ownerListLength",
					"outputs": [
						{
							"internalType": "uint256",
							"name": "",
							"type": "uint256"
						}
					],
					"stateMutability": "view",
					"type": "function"
				},
				{
					"inputs": [
						{
							"internalType": "uint256",
							"name": "",
							"type": "uint256"
						}
					],
					"name": "owners",
					"outputs": [
						{
							"internalType": "address",
							"name": "",
							"type": "address"
						}
					],
					"stateMutability": "view",
					"type": "function"
				},
				{
					"inputs": [
						{
							"internalType": "address",
							"name": "to",
							"type": "address"
						},
						{
							"internalType": "uint256",
							"name": "amount",
							"type": "uint256"
						}
					],
					"name": "proposeTransaction",
					"outputs": [],
					"stateMutability": "nonpayable",
					"type": "function"
				},
				{
					"inputs": [
						{
							"internalType": "uint256",
							"name": "index",
							"type": "uint256"
						}
					],
					"name": "revokeOnTransaction",
					"outputs": [],
					"stateMutability": "nonpayable",
					"type": "function"
				},
				{
					"inputs": [
						{
							"internalType": "uint256",
							"name": "",
							"type": "uint256"
						}
					],
					"name": "transactions",
					"outputs": [
						{
							"internalType": "address",
							"name": "sendingTo",
							"type": "address"
						},
						{
							"internalType": "uint256",
							"name": "value",
							"type": "uint256"
						},
						{
							"internalType": "bool",
							"name": "alreadyExecuted",
							"type": "bool"
						},
						{
							"internalType": "uint256",
							"name": "approvals",
							"type": "uint256"
						}
					],
					"stateMutability": "view",
					"type": "function"
				},
				{
					"inputs": [
						{
							"internalType": "uint256",
							"name": "index",
							"type": "uint256"
						}
					],
					"name": "voteOnTransaction",
					"outputs": [],
					"stateMutability": "nonpayable",
					"type": "function"
				},
				{
					"inputs": [
						{
							"internalType": "address",
							"name": "",
							"type": "address"
						}
					],
					"name": "votesToNewAddress",
					"outputs": [
						{
							"internalType": "uint256",
							"name": "",
							"type": "uint256"
						}
					],
					"stateMutability": "view",
					"type": "function"
				},
				{
					"inputs": [
						{
							"internalType": "address",
							"name": "_address",
							"type": "address"
						}
					],
					"name": "votingOnNewAddress",
					"outputs": [],
					"stateMutability": "nonpayable",
					"type": "function"
				},
				{
					"stateMutability": "payable",
					"type": "receive"
				}
			],
			"devdoc": {
				"kind": "dev",
				"methods": {},
				"version": 1
			},
			"evm": {
				"assembly": "    /* \"bootcamp/week3/day_4_multiSigWallet.sol\":57:5545  contract multiSigLesson {... */\n  mstore(0x40, 0x80)\n    /* \"bootcamp/week3/day_4_multiSigWallet.sol\":219:220  2 */\n  0x02\n    /* \"bootcamp/week3/day_4_multiSigWallet.sol\":189:220  uint public approvalsNeeded = 2 */\n  0x01\n  sstore\n    /* \"bootcamp/week3/day_4_multiSigWallet.sol\":763:991  constructor() {... */\n  callvalue\n  dup1\n  iszero\n  tag_1\n  jumpi\n  0x00\n  dup1\n  revert\ntag_1:\n  pop\n    /* \"bootcamp/week3/day_4_multiSigWallet.sol\":787:793  owners */\n  0x00\n    /* \"bootcamp/week3/day_4_multiSigWallet.sol\":799:809  msg.sender */\n  caller\n    /* \"bootcamp/week3/day_4_multiSigWallet.sol\":787:810  owners.push(msg.sender) */\n  swap1\n  dup1\n  0x01\n  dup2\n  sload\n  add\n  dup1\n  dup3\n  sstore\n  dup1\n  swap2\n  pop\n  pop\n  0x01\n  swap1\n  sub\n  swap1\n  0x00\n  mstore\n  keccak256(0x00, 0x20)\n  add\n  0x00\n  swap1\n  swap2\n  swap1\n  swap2\n  swap1\n  swap2\n  0x0100\n  exp\n  dup2\n  sload\n  dup2\n  0xffffffffffffffffffffffffffffffffffffffff\n  mul\n  not\n  and\n  swap1\n  dup4\n  0xffffffffffffffffffffffffffffffffffffffff\n  and\n  mul\n  or\n  swap1\n  sstore\n  pop\n    /* \"bootcamp/week3/day_4_multiSigWallet.sol\":844:848  true */\n  0x01\n    /* \"bootcamp/week3/day_4_multiSigWallet.sol\":820:829  ownerList */\n  0x02\n    /* \"bootcamp/week3/day_4_multiSigWallet.sol\":820:841  ownerList[msg.sender] */\n  0x00\n    /* \"bootcamp/week3/day_4_multiSigWallet.sol\":830:840  msg.sender */\n  caller\n    /* \"bootcamp/week3/day_4_multiSigWallet.sol\":820:841  ownerList[msg.sender] */\n  0xffffffffffffffffffffffffffffffffffffffff\n  and\n  0xffffffffffffffffffffffffffffffffffffffff\n  and\n  dup2\n  mstore\n  0x20\n  add\n  swap1\n  dup2\n  mstore\n  0x20\n  add\n  0x00\n  keccak256\n  0x00\n    /* \"bootcamp/week3/day_4_multiSigWallet.sol\":820:848  ownerList[msg.sender] = true */\n  0x0100\n  exp\n  dup2\n  sload\n  dup2\n  0xff\n  mul\n  not\n  and\n  swap1\n  dup4\n  iszero\n  iszero\n  mul\n  or\n  swap1\n  sstore\n  pop\n    /* \"bootcamp/week3/day_4_multiSigWallet.sol\":859:865  owners */\n  0x00\n    /* \"bootcamp/week3/day_4_multiSigWallet.sol\":871:913  0xAb8483F64d9C6d1EcF9b849Ae677dD3315835cb2 */\n  0xab8483f64d9c6d1ecf9b849ae677dd3315835cb2\n    /* \"bootcamp/week3/day_4_multiSigWallet.sol\":859:914  owners.push(0xAb8483F64d9C6d1EcF9b849Ae677dD3315835cb2) */\n  swap1\n  dup1\n  0x01\n  dup2\n  sload\n  add\n  dup1\n  dup3\n  sstore\n  dup1\n  swap2\n  pop\n  pop\n  0x01\n  swap1\n  sub\n  swap1\n  0x00\n  mstore\n  keccak256(0x00, 0x20)\n  add\n  0x00\n  swap1\n  swap2\n  swap1\n  swap2\n  swap1\n  swap2\n  0x0100\n  exp\n  dup2\n  sload\n  dup2\n  0xffffffffffffffffffffffffffffffffffffffff\n  mul\n  not\n  and\n  swap1\n  dup4\n  0xffffffffffffffffffffffffffffffffffffffff\n  and\n  mul\n  or\n  swap1\n  sstore\n  pop\n    /* \"bootcamp/week3/day_4_multiSigWallet.sol\":980:984  true */\n  0x01\n    /* \"bootcamp/week3/day_4_multiSigWallet.sol\":924:933  ownerList */\n  0x02\n    /* \"bootcamp/week3/day_4_multiSigWallet.sol\":924:977  ownerList[0xAb8483F64d9C6d1EcF9b849Ae677dD3315835cb2] */\n  0x00\n    /* \"bootcamp/week3/day_4_multiSigWallet.sol\":934:976  0xAb8483F64d9C6d1EcF9b849Ae677dD3315835cb2 */\n  0xab8483f64d9c6d1ecf9b849ae677dd3315835cb2\n    /* \"bootcamp/week3/day_4_multiSigWallet.sol\":924:977  ownerList[0xAb8483F64d9C6d1EcF9b849Ae677dD3315835cb2] */\n  0xffffffffffffffffffffffffffffffffffffffff\n  and\n  0xffffffffffffffffffffffffffffffffffffffff\n  and\n  dup2\n  mstore\n  0x20\n  add\n  swap1\n  dup2\n  mstore\n  0x20\n  add\n  0x00\n  keccak256\n  0x00\n    /* \"bootcamp/week3/day_4_multiSigWallet.sol\":924:984  ownerList[0xAb8483F64d9C6d1EcF9b849Ae677dD3315835cb2] = true */\n  0x0100\n  exp\n  dup2\n  sload\n  dup2\n  0xff\n  mul\n  not\n  and\n  swap1\n  dup4\n  iszero\n  iszero\n  mul\n  or\n  swap1\n  sstore\n  pop\n    /* \"bootcamp/week3/day_4_multiSigWallet.sol\":57:5545  contract multiSigLesson {... */\n  dataSize(sub_0)\n  dup1\n  dataOffset(sub_0)\n  0x00\n  codecopy\n  0x00\n  return\nstop\n\nsub_0: assembly {\n        /* \"bootcamp/week3/day_4_multiSigWallet.sol\":57:5545  contract multiSigLesson {... */\n      mstore(0x40, 0x80)\n      jumpi(tag_1, lt(calldatasize, 0x04))\n      shr(0xe0, calldataload(0x00))\n      dup1\n      0xb5e8d4b1\n      gt\n      tag_16\n      jumpi\n      dup1\n      0xee22610b\n      gt\n      tag_17\n      jumpi\n      dup1\n      0xee22610b\n      eq\n      tag_12\n      jumpi\n      dup1\n      0xf19a6682\n      eq\n      tag_13\n      jumpi\n      dup1\n      0xf5358aa8\n      eq\n      tag_14\n      jumpi\n      dup1\n      0xf9a7c0b1\n      eq\n      tag_15\n      jumpi\n      jump(tag_2)\n    tag_17:\n      dup1\n      0xb5e8d4b1\n      eq\n      tag_9\n      jumpi\n      dup1\n      0xd579b696\n      eq\n      tag_10\n      jumpi\n      dup1\n      0xe88aca40\n      eq\n      tag_11\n      jumpi\n      jump(tag_2)\n    tag_16:\n      dup1\n      0x025e7c27\n      eq\n      tag_3\n      jumpi\n      dup1\n      0x3349a734\n      eq\n      tag_4\n      jumpi\n      dup1\n      0x51f22a72\n      eq\n      tag_5\n      jumpi\n      dup1\n      0x60c8b28d\n      eq\n      tag_6\n      jumpi\n      dup1\n      0x9ace38c2\n      eq\n      tag_7\n      jumpi\n      dup1\n      0xb10f8b69\n      eq\n      tag_8\n      jumpi\n      jump(tag_2)\n    tag_1:\n      jumpi(tag_2, calldatasize)\n      stop\n    tag_2:\n      0x00\n      dup1\n      revert\n        /* \"bootcamp/week3/day_4_multiSigWallet.sol\":110:133  address[] public owners */\n    tag_3:\n      callvalue\n      dup1\n      iszero\n      tag_20\n      jumpi\n      0x00\n      dup1\n      revert\n    tag_20:\n      pop\n      tag_21\n      0x04\n      dup1\n      calldatasize\n      sub\n      dup2\n      add\n      swap1\n      tag_22\n      swap2\n      swap1\n      tag_23\n      jump\t// in\n    tag_22:\n      tag_24\n      jump\t// in\n    tag_21:\n      mload(0x40)\n      tag_25\n      swap2\n      swap1\n      tag_26\n      jump\t// in\n    tag_25:\n      mload(0x40)\n      dup1\n      swap2\n      sub\n      swap1\n      return\n        /* \"bootcamp/week3/day_4_multiSigWallet.sol\":189:220  uint public approvalsNeeded = 2 */\n    tag_4:\n      callvalue\n      dup1\n      iszero\n      tag_27\n      jumpi\n      0x00\n      dup1\n      revert\n    tag_27:\n      pop\n      tag_28\n      tag_29\n      jump\t// in\n    tag_28:\n      mload(0x40)\n      tag_30\n      swap2\n      swap1\n      tag_31\n      jump\t// in\n    tag_30:\n      mload(0x40)\n      dup1\n      swap2\n      sub\n      swap1\n      return\n        /* \"bootcamp/week3/day_4_multiSigWallet.sol\":342:383  mapping(address => bool) public ownerList */\n    tag_5:\n      callvalue\n      dup1\n      iszero\n      tag_32\n      jumpi\n      0x00\n      dup1\n      revert\n    tag_32:\n      pop\n      tag_33\n      0x04\n      dup1\n      calldatasize\n      sub\n      dup2\n      add\n      swap1\n      tag_34\n      swap2\n      swap1\n      tag_35\n      jump\t// in\n    tag_34:\n      tag_36\n      jump\t// in\n    tag_33:\n      mload(0x40)\n      tag_37\n      swap2\n      swap1\n      tag_38\n      jump\t// in\n    tag_37:\n      mload(0x40)\n      dup1\n      swap2\n      sub\n      swap1\n      return\n        /* \"bootcamp/week3/day_4_multiSigWallet.sol\":531:592  mapping(uint => mapping(address => bool)) public alreadyVoted */\n    tag_6:\n      callvalue\n      dup1\n      iszero\n      tag_39\n      jumpi\n      0x00\n      dup1\n      revert\n    tag_39:\n      pop\n      tag_40\n      0x04\n      dup1\n      calldatasize\n      sub\n      dup2\n      add\n      swap1\n      tag_41\n      swap2\n      swap1\n      tag_42\n      jump\t// in\n    tag_41:\n      tag_43\n      jump\t// in\n    tag_40:\n      mload(0x40)\n      tag_44\n      swap2\n      swap1\n      tag_38\n      jump\t// in\n    tag_44:\n      mload(0x40)\n      dup1\n      swap2\n      sub\n      swap1\n      return\n        /* \"bootcamp/week3/day_4_multiSigWallet.sol\":1217:1250  Transaction[] public transactions */\n    tag_7:\n      callvalue\n      dup1\n      iszero\n      tag_45\n      jumpi\n      0x00\n      dup1\n      revert\n    tag_45:\n      pop\n      tag_46\n      0x04\n      dup1\n      calldatasize\n      sub\n      dup2\n      add\n      swap1\n      tag_47\n      swap2\n      swap1\n      tag_23\n      jump\t// in\n    tag_47:\n      tag_48\n      jump\t// in\n    tag_46:\n      mload(0x40)\n      tag_49\n      swap5\n      swap4\n      swap3\n      swap2\n      swap1\n      tag_50\n      jump\t// in\n    tag_49:\n      mload(0x40)\n      dup1\n      swap2\n      sub\n      swap1\n      return\n        /* \"bootcamp/week3/day_4_multiSigWallet.sol\":1630:1679  mapping(address => uint) public votesToNewAddress */\n    tag_8:\n      callvalue\n      dup1\n      iszero\n      tag_51\n      jumpi\n      0x00\n      dup1\n      revert\n    tag_51:\n      pop\n      tag_52\n      0x04\n      dup1\n      calldatasize\n      sub\n      dup2\n      add\n      swap1\n      tag_53\n      swap2\n      swap1\n      tag_35\n      jump\t// in\n    tag_53:\n      tag_54\n      jump\t// in\n    tag_52:\n      mload(0x40)\n      tag_55\n      swap2\n      swap1\n      tag_31\n      jump\t// in\n    tag_55:\n      mload(0x40)\n      dup1\n      swap2\n      sub\n      swap1\n      return\n        /* \"bootcamp/week3/day_4_multiSigWallet.sol\":1840:3111  function votingOnNewAddress(address _address) public OnlyOwner {... */\n    tag_9:\n      callvalue\n      dup1\n      iszero\n      tag_56\n      jumpi\n      0x00\n      dup1\n      revert\n    tag_56:\n      pop\n      tag_57\n      0x04\n      dup1\n      calldatasize\n      sub\n      dup2\n      add\n      swap1\n      tag_58\n      swap2\n      swap1\n      tag_35\n      jump\t// in\n    tag_58:\n      tag_59\n      jump\t// in\n    tag_57:\n      stop\n        /* \"bootcamp/week3/day_4_multiSigWallet.sol\":3690:4050  function voteOnTransaction(uint index) public OnlyOwner {... */\n    tag_10:\n      callvalue\n      dup1\n      iszero\n      tag_60\n      jumpi\n      0x00\n      dup1\n      revert\n    tag_60:\n      pop\n      tag_61\n      0x04\n      dup1\n      calldatasize\n      sub\n      dup2\n      add\n      swap1\n      tag_62\n      swap2\n      swap1\n      tag_23\n      jump\t// in\n    tag_62:\n      tag_63\n      jump\t// in\n    tag_61:\n      stop\n        /* \"bootcamp/week3/day_4_multiSigWallet.sol\":1759:1833  mapping(address => mapping(address => bool)) public alreadyVotedNewAddress */\n    tag_11:\n      callvalue\n      dup1\n      iszero\n      tag_64\n      jumpi\n      0x00\n      dup1\n      revert\n    tag_64:\n      pop\n      tag_65\n      0x04\n      dup1\n      calldatasize\n      sub\n      dup2\n      add\n      swap1\n      tag_66\n      swap2\n      swap1\n      tag_67\n      jump\t// in\n    tag_66:\n      tag_68\n      jump\t// in\n    tag_65:\n      mload(0x40)\n      tag_69\n      swap2\n      swap1\n      tag_38\n      jump\t// in\n    tag_69:\n      mload(0x40)\n      dup1\n      swap2\n      sub\n      swap1\n      return\n        /* \"bootcamp/week3/day_4_multiSigWallet.sol\":4583:5447  function executeTransaction(uint index) public OnlyOwner {... */\n    tag_12:\n      callvalue\n      dup1\n      iszero\n      tag_70\n      jumpi\n      0x00\n      dup1\n      revert\n    tag_70:\n      pop\n      tag_71\n      0x04\n      dup1\n      calldatasize\n      sub\n      dup2\n      add\n      swap1\n      tag_72\n      swap2\n      swap1\n      tag_23\n      jump\t// in\n    tag_72:\n      tag_73\n      jump\t// in\n    tag_71:\n      stop\n        /* \"bootcamp/week3/day_4_multiSigWallet.sol\":3411:3656  function proposeTransaction(address to, uint amount) public OnlyOwner {... */\n    tag_13:\n      callvalue\n      dup1\n      iszero\n      tag_74\n      jumpi\n      0x00\n      dup1\n      revert\n    tag_74:\n      pop\n      tag_75\n      0x04\n      dup1\n      calldatasize\n      sub\n      dup2\n      add\n      swap1\n      tag_76\n      swap2\n      swap1\n      tag_77\n      jump\t// in\n    tag_76:\n      tag_78\n      jump\t// in\n    tag_75:\n      stop\n        /* \"bootcamp/week3/day_4_multiSigWallet.sol\":5453:5543  function ownerListLength() public view returns(uint) {... */\n    tag_14:\n      callvalue\n      dup1\n      iszero\n      tag_79\n      jumpi\n      0x00\n      dup1\n      revert\n    tag_79:\n      pop\n      tag_80\n      tag_81\n      jump\t// in\n    tag_80:\n      mload(0x40)\n      tag_82\n      swap2\n      swap1\n      tag_31\n      jump\t// in\n    tag_82:\n      mload(0x40)\n      dup1\n      swap2\n      sub\n      swap1\n      return\n        /* \"bootcamp/week3/day_4_multiSigWallet.sol\":4126:4489  function revokeOnTransaction(uint index) public OnlyOwner {... */\n    tag_15:\n      callvalue\n      dup1\n      iszero\n      tag_83\n      jumpi\n      0x00\n      dup1\n      revert\n    tag_83:\n      pop\n      tag_84\n      0x04\n      dup1\n      calldatasize\n      sub\n      dup2\n      add\n      swap1\n      tag_85\n      swap2\n      swap1\n      tag_23\n      jump\t// in\n    tag_85:\n      tag_86\n      jump\t// in\n    tag_84:\n      stop\n        /* \"bootcamp/week3/day_4_multiSigWallet.sol\":110:133  address[] public owners */\n    tag_24:\n      0x00\n      dup2\n      dup2\n      sload\n      dup2\n      lt\n      tag_87\n      jumpi\n      0x00\n      dup1\n      revert\n    tag_87:\n      swap1\n      0x00\n      mstore\n      keccak256(0x00, 0x20)\n      add\n      0x00\n      swap2\n      pop\n      sload\n      swap1\n      0x0100\n      exp\n      swap1\n      div\n      0xffffffffffffffffffffffffffffffffffffffff\n      and\n      dup2\n      jump\t// out\n        /* \"bootcamp/week3/day_4_multiSigWallet.sol\":189:220  uint public approvalsNeeded = 2 */\n    tag_29:\n      sload(0x01)\n      dup2\n      jump\t// out\n        /* \"bootcamp/week3/day_4_multiSigWallet.sol\":342:383  mapping(address => bool) public ownerList */\n    tag_36:\n      mstore(0x20, 0x02)\n      dup1\n      0x00\n      mstore\n      keccak256(0x00, 0x40)\n      0x00\n      swap2\n      pop\n      sload\n      swap1\n      0x0100\n      exp\n      swap1\n      div\n      0xff\n      and\n      dup2\n      jump\t// out\n        /* \"bootcamp/week3/day_4_multiSigWallet.sol\":531:592  mapping(uint => mapping(address => bool)) public alreadyVoted */\n    tag_43:\n      mstore(0x20, 0x03)\n      dup2\n      0x00\n      mstore\n      mstore(0x20, keccak256(0x00, 0x40))\n      dup1\n      0x00\n      mstore\n      keccak256(0x00, 0x40)\n      0x00\n      swap2\n      pop\n      swap2\n      pop\n      swap1\n      sload\n      swap1\n      0x0100\n      exp\n      swap1\n      div\n      0xff\n      and\n      dup2\n      jump\t// out\n        /* \"bootcamp/week3/day_4_multiSigWallet.sol\":1217:1250  Transaction[] public transactions */\n    tag_48:\n      0x04\n      dup2\n      dup2\n      sload\n      dup2\n      lt\n      tag_89\n      jumpi\n      0x00\n      dup1\n      revert\n    tag_89:\n      swap1\n      0x00\n      mstore\n      keccak256(0x00, 0x20)\n      swap1\n      0x04\n      mul\n      add\n      0x00\n      swap2\n      pop\n      swap1\n      pop\n      dup1\n      0x00\n      add\n      0x00\n      swap1\n      sload\n      swap1\n      0x0100\n      exp\n      swap1\n      div\n      0xffffffffffffffffffffffffffffffffffffffff\n      and\n      swap1\n      dup1\n      0x01\n      add\n      sload\n      swap1\n      dup1\n      0x02\n      add\n      0x00\n      swap1\n      sload\n      swap1\n      0x0100\n      exp\n      swap1\n      div\n      0xff\n      and\n      swap1\n      dup1\n      0x03\n      add\n      sload\n      swap1\n      pop\n      dup5\n      jump\t// out\n        /* \"bootcamp/week3/day_4_multiSigWallet.sol\":1630:1679  mapping(address => uint) public votesToNewAddress */\n    tag_54:\n      mstore(0x20, 0x05)\n      dup1\n      0x00\n      mstore\n      keccak256(0x00, 0x40)\n      0x00\n      swap2\n      pop\n      swap1\n      pop\n      sload\n      dup2\n      jump\t// out\n        /* \"bootcamp/week3/day_4_multiSigWallet.sol\":1840:3111  function votingOnNewAddress(address _address) public OnlyOwner {... */\n    tag_59:\n        /* \"bootcamp/week3/day_4_multiSigWallet.sol\":695:699  true */\n      0x01\n        /* \"bootcamp/week3/day_4_multiSigWallet.sol\":670:699  ownerList[msg.sender] == true */\n      iszero\n      iszero\n        /* \"bootcamp/week3/day_4_multiSigWallet.sol\":670:679  ownerList */\n      0x02\n        /* \"bootcamp/week3/day_4_multiSigWallet.sol\":670:691  ownerList[msg.sender] */\n      0x00\n        /* \"bootcamp/week3/day_4_multiSigWallet.sol\":680:690  msg.sender */\n      caller\n        /* \"bootcamp/week3/day_4_multiSigWallet.sol\":670:691  ownerList[msg.sender] */\n      0xffffffffffffffffffffffffffffffffffffffff\n      and\n      0xffffffffffffffffffffffffffffffffffffffff\n      and\n      dup2\n      mstore\n      0x20\n      add\n      swap1\n      dup2\n      mstore\n      0x20\n      add\n      0x00\n      keccak256\n      0x00\n      swap1\n      sload\n      swap1\n      0x0100\n      exp\n      swap1\n      div\n      0xff\n      and\n        /* \"bootcamp/week3/day_4_multiSigWallet.sol\":670:699  ownerList[msg.sender] == true */\n      iszero\n      iszero\n      eq\n        /* \"bootcamp/week3/day_4_multiSigWallet.sol\":662:739  require(ownerList[msg.sender] == true, \"Your're not an owner of this wallet\") */\n      tag_92\n      jumpi\n      mload(0x40)\n      0x08c379a000000000000000000000000000000000000000000000000000000000\n      dup2\n      mstore\n      0x04\n      add\n      tag_93\n      swap1\n      tag_94\n      jump\t// in\n    tag_93:\n      mload(0x40)\n      dup1\n      swap2\n      sub\n      swap1\n      revert\n    tag_92:\n        /* \"bootcamp/week3/day_4_multiSigWallet.sol\":1969:1974  false */\n      0x00\n        /* \"bootcamp/week3/day_4_multiSigWallet.sol\":1921:1974  alreadyVotedNewAddress[_address][msg.sender] == false */\n      iszero\n      iszero\n        /* \"bootcamp/week3/day_4_multiSigWallet.sol\":1921:1943  alreadyVotedNewAddress */\n      0x06\n        /* \"bootcamp/week3/day_4_multiSigWallet.sol\":1921:1953  alreadyVotedNewAddress[_address] */\n      0x00\n        /* \"bootcamp/week3/day_4_multiSigWallet.sol\":1944:1952  _address */\n      dup4\n        /* \"bootcamp/week3/day_4_multiSigWallet.sol\":1921:1953  alreadyVotedNewAddress[_address] */\n      0xffffffffffffffffffffffffffffffffffffffff\n      and\n      0xffffffffffffffffffffffffffffffffffffffff\n      and\n      dup2\n      mstore\n      0x20\n      add\n      swap1\n      dup2\n      mstore\n      0x20\n      add\n      0x00\n      keccak256\n        /* \"bootcamp/week3/day_4_multiSigWallet.sol\":1921:1965  alreadyVotedNewAddress[_address][msg.sender] */\n      0x00\n        /* \"bootcamp/week3/day_4_multiSigWallet.sol\":1954:1964  msg.sender */\n      caller\n        /* \"bootcamp/week3/day_4_multiSigWallet.sol\":1921:1965  alreadyVotedNewAddress[_address][msg.sender] */\n      0xffffffffffffffffffffffffffffffffffffffff\n      and\n      0xffffffffffffffffffffffffffffffffffffffff\n      and\n      dup2\n      mstore\n      0x20\n      add\n      swap1\n      dup2\n      mstore\n      0x20\n      add\n      0x00\n      keccak256\n      0x00\n      swap1\n      sload\n      swap1\n      0x0100\n      exp\n      swap1\n      div\n      0xff\n      and\n        /* \"bootcamp/week3/day_4_multiSigWallet.sol\":1921:1974  alreadyVotedNewAddress[_address][msg.sender] == false */\n      iszero\n      iszero\n      eq\n        /* \"bootcamp/week3/day_4_multiSigWallet.sol\":1913:2015  require(alreadyVotedNewAddress[_address][msg.sender] == false, \"You've already voted on this address\") */\n      tag_96\n      jumpi\n      mload(0x40)\n      0x08c379a000000000000000000000000000000000000000000000000000000000\n      dup2\n      mstore\n      0x04\n      add\n      tag_97\n      swap1\n      tag_98\n      jump\t// in\n    tag_97:\n      mload(0x40)\n      dup1\n      swap2\n      sub\n      swap1\n      revert\n    tag_96:\n        /* \"bootcamp/week3/day_4_multiSigWallet.sol\":2065:2066  1 */\n      0x01\n        /* \"bootcamp/week3/day_4_multiSigWallet.sol\":2034:2051  votesToNewAddress */\n      0x05\n        /* \"bootcamp/week3/day_4_multiSigWallet.sol\":2034:2061  votesToNewAddress[_address] */\n      0x00\n        /* \"bootcamp/week3/day_4_multiSigWallet.sol\":2052:2060  _address */\n      dup4\n        /* \"bootcamp/week3/day_4_multiSigWallet.sol\":2034:2061  votesToNewAddress[_address] */\n      0xffffffffffffffffffffffffffffffffffffffff\n      and\n      0xffffffffffffffffffffffffffffffffffffffff\n      and\n      dup2\n      mstore\n      0x20\n      add\n      swap1\n      dup2\n      mstore\n      0x20\n      add\n      0x00\n      keccak256\n      0x00\n        /* \"bootcamp/week3/day_4_multiSigWallet.sol\":2034:2066  votesToNewAddress[_address] += 1 */\n      dup3\n      dup3\n      sload\n      tag_99\n      swap2\n      swap1\n      tag_100\n      jump\t// in\n    tag_99:\n      swap3\n      pop\n      pop\n      dup2\n      swap1\n      sstore\n      pop\n        /* \"bootcamp/week3/day_4_multiSigWallet.sol\":2123:2127  true */\n      0x01\n        /* \"bootcamp/week3/day_4_multiSigWallet.sol\":2076:2098  alreadyVotedNewAddress */\n      0x06\n        /* \"bootcamp/week3/day_4_multiSigWallet.sol\":2076:2108  alreadyVotedNewAddress[_address] */\n      0x00\n        /* \"bootcamp/week3/day_4_multiSigWallet.sol\":2099:2107  _address */\n      dup4\n        /* \"bootcamp/week3/day_4_multiSigWallet.sol\":2076:2108  alreadyVotedNewAddress[_address] */\n      0xffffffffffffffffffffffffffffffffffffffff\n      and\n      0xffffffffffffffffffffffffffffffffffffffff\n      and\n      dup2\n      mstore\n      0x20\n      add\n      swap1\n      dup2\n      mstore\n      0x20\n      add\n      0x00\n      keccak256\n        /* \"bootcamp/week3/day_4_multiSigWallet.sol\":2076:2120  alreadyVotedNewAddress[_address][msg.sender] */\n      0x00\n        /* \"bootcamp/week3/day_4_multiSigWallet.sol\":2109:2119  msg.sender */\n      caller\n        /* \"bootcamp/week3/day_4_multiSigWallet.sol\":2076:2120  alreadyVotedNewAddress[_address][msg.sender] */\n      0xffffffffffffffffffffffffffffffffffffffff\n      and\n      0xffffffffffffffffffffffffffffffffffffffff\n      and\n      dup2\n      mstore\n      0x20\n      add\n      swap1\n      dup2\n      mstore\n      0x20\n      add\n      0x00\n      keccak256\n      0x00\n        /* \"bootcamp/week3/day_4_multiSigWallet.sol\":2076:2127  alreadyVotedNewAddress[_address][msg.sender] = true */\n      0x0100\n      exp\n      dup2\n      sload\n      dup2\n      0xff\n      mul\n      not\n      and\n      swap1\n      dup4\n      iszero\n      iszero\n      mul\n      or\n      swap1\n      sstore\n      pop\n        /* \"bootcamp/week3/day_4_multiSigWallet.sol\":2219:2234  approvalsNeeded */\n      sload(0x01)\n        /* \"bootcamp/week3/day_4_multiSigWallet.sol\":2188:2205  votesToNewAddress */\n      0x05\n        /* \"bootcamp/week3/day_4_multiSigWallet.sol\":2188:2215  votesToNewAddress[_address] */\n      0x00\n        /* \"bootcamp/week3/day_4_multiSigWallet.sol\":2206:2214  _address */\n      dup4\n        /* \"bootcamp/week3/day_4_multiSigWallet.sol\":2188:2215  votesToNewAddress[_address] */\n      0xffffffffffffffffffffffffffffffffffffffff\n      and\n      0xffffffffffffffffffffffffffffffffffffffff\n      and\n      dup2\n      mstore\n      0x20\n      add\n      swap1\n      dup2\n      mstore\n      0x20\n      add\n      0x00\n      keccak256\n      sload\n        /* \"bootcamp/week3/day_4_multiSigWallet.sol\":2188:2234  votesToNewAddress[_address] >= approvalsNeeded */\n      lt\n        /* \"bootcamp/week3/day_4_multiSigWallet.sol\":2185:3105  if(votesToNewAddress[_address] >= approvalsNeeded) {... */\n      tag_101\n      jumpi\n        /* \"bootcamp/week3/day_4_multiSigWallet.sol\":2347:2348  0 */\n      0x00\n        /* \"bootcamp/week3/day_4_multiSigWallet.sol\":2342:2343  2 */\n      0x02\n        /* \"bootcamp/week3/day_4_multiSigWallet.sol\":2326:2332  owners */\n      0x00\n        /* \"bootcamp/week3/day_4_multiSigWallet.sol\":2326:2339  owners.length */\n      dup1\n      sload\n      swap1\n      pop\n        /* \"bootcamp/week3/day_4_multiSigWallet.sol\":2326:2343  owners.length % 2 */\n      tag_102\n      swap2\n      swap1\n      tag_103\n      jump\t// in\n    tag_102:\n        /* \"bootcamp/week3/day_4_multiSigWallet.sol\":2326:2348  owners.length % 2 == 0 */\n      sub\n        /* \"bootcamp/week3/day_4_multiSigWallet.sol\":2323:3095  if(owners.length % 2 == 0){... */\n      tag_104\n      jumpi\n        /* \"bootcamp/week3/day_4_multiSigWallet.sol\":2446:2447  2 */\n      0x02\n        /* \"bootcamp/week3/day_4_multiSigWallet.sol\":2430:2436  owners */\n      0x00\n        /* \"bootcamp/week3/day_4_multiSigWallet.sol\":2430:2443  owners.length */\n      dup1\n      sload\n      swap1\n      pop\n        /* \"bootcamp/week3/day_4_multiSigWallet.sol\":2430:2447  owners.length / 2 */\n      tag_105\n      swap2\n      swap1\n      tag_106\n      jump\t// in\n    tag_105:\n        /* \"bootcamp/week3/day_4_multiSigWallet.sol\":2412:2427  approvalsNeeded */\n      0x01\n        /* \"bootcamp/week3/day_4_multiSigWallet.sol\":2412:2447  approvalsNeeded = owners.length / 2 */\n      dup2\n      swap1\n      sstore\n      pop\n        /* \"bootcamp/week3/day_4_multiSigWallet.sol\":2465:2471  owners */\n      0x00\n        /* \"bootcamp/week3/day_4_multiSigWallet.sol\":2477:2485  _address */\n      dup2\n        /* \"bootcamp/week3/day_4_multiSigWallet.sol\":2465:2486  owners.push(_address) */\n      swap1\n      dup1\n      0x01\n      dup2\n      sload\n      add\n      dup1\n      dup3\n      sstore\n      dup1\n      swap2\n      pop\n      pop\n      0x01\n      swap1\n      sub\n      swap1\n      0x00\n      mstore\n      keccak256(0x00, 0x20)\n      add\n      0x00\n      swap1\n      swap2\n      swap1\n      swap2\n      swap1\n      swap2\n      0x0100\n      exp\n      dup2\n      sload\n      dup2\n      0xffffffffffffffffffffffffffffffffffffffff\n      mul\n      not\n      and\n      swap1\n      dup4\n      0xffffffffffffffffffffffffffffffffffffffff\n      and\n      mul\n      or\n      swap1\n      sstore\n      pop\n        /* \"bootcamp/week3/day_4_multiSigWallet.sol\":2526:2530  true */\n      0x01\n        /* \"bootcamp/week3/day_4_multiSigWallet.sol\":2504:2513  ownerList */\n      0x02\n        /* \"bootcamp/week3/day_4_multiSigWallet.sol\":2504:2523  ownerList[_address] */\n      0x00\n        /* \"bootcamp/week3/day_4_multiSigWallet.sol\":2514:2522  _address */\n      dup4\n        /* \"bootcamp/week3/day_4_multiSigWallet.sol\":2504:2523  ownerList[_address] */\n      0xffffffffffffffffffffffffffffffffffffffff\n      and\n      0xffffffffffffffffffffffffffffffffffffffff\n      and\n      dup2\n      mstore\n      0x20\n      add\n      swap1\n      dup2\n      mstore\n      0x20\n      add\n      0x00\n      keccak256\n      0x00\n        /* \"bootcamp/week3/day_4_multiSigWallet.sol\":2504:2530  ownerList[_address] = true */\n      0x0100\n      exp\n      dup2\n      sload\n      dup2\n      0xff\n      mul\n      not\n      and\n      swap1\n      dup4\n      iszero\n      iszero\n      mul\n      or\n      swap1\n      sstore\n      pop\n        /* \"bootcamp/week3/day_4_multiSigWallet.sol\":2655:2656  1 */\n      0x01\n        /* \"bootcamp/week3/day_4_multiSigWallet.sol\":2636:2651  approvalsNeeded */\n      dup1\n      0x00\n        /* \"bootcamp/week3/day_4_multiSigWallet.sol\":2636:2656  approvalsNeeded += 1 */\n      dup3\n      dup3\n      sload\n      tag_108\n      swap2\n      swap1\n      tag_100\n      jump\t// in\n    tag_108:\n      swap3\n      pop\n      pop\n      dup2\n      swap1\n      sstore\n      pop\n        /* \"bootcamp/week3/day_4_multiSigWallet.sol\":2323:3095  if(owners.length % 2 == 0){... */\n      jump(tag_109)\n    tag_104:\n        /* \"bootcamp/week3/day_4_multiSigWallet.sol\":2870:2871  2 */\n      0x02\n        /* \"bootcamp/week3/day_4_multiSigWallet.sol\":2865:2866  1 */\n      0x01\n        /* \"bootcamp/week3/day_4_multiSigWallet.sol\":2849:2855  owners */\n      0x00\n        /* \"bootcamp/week3/day_4_multiSigWallet.sol\":2849:2862  owners.length */\n      dup1\n      sload\n      swap1\n      pop\n        /* \"bootcamp/week3/day_4_multiSigWallet.sol\":2849:2866  owners.length + 1 */\n      tag_110\n      swap2\n      swap1\n      tag_100\n      jump\t// in\n    tag_110:\n        /* \"bootcamp/week3/day_4_multiSigWallet.sol\":2848:2871  (owners.length + 1) / 2 */\n      tag_111\n      swap2\n      swap1\n      tag_106\n      jump\t// in\n    tag_111:\n        /* \"bootcamp/week3/day_4_multiSigWallet.sol\":2830:2845  approvalsNeeded */\n      0x01\n        /* \"bootcamp/week3/day_4_multiSigWallet.sol\":2830:2871  approvalsNeeded = (owners.length + 1) / 2 */\n      dup2\n      swap1\n      sstore\n      pop\n        /* \"bootcamp/week3/day_4_multiSigWallet.sol\":2889:2895  owners */\n      0x00\n        /* \"bootcamp/week3/day_4_multiSigWallet.sol\":2901:2909  _address */\n      dup2\n        /* \"bootcamp/week3/day_4_multiSigWallet.sol\":2889:2910  owners.push(_address) */\n      swap1\n      dup1\n      0x01\n      dup2\n      sload\n      add\n      dup1\n      dup3\n      sstore\n      dup1\n      swap2\n      pop\n      pop\n      0x01\n      swap1\n      sub\n      swap1\n      0x00\n      mstore\n      keccak256(0x00, 0x20)\n      add\n      0x00\n      swap1\n      swap2\n      swap1\n      swap2\n      swap1\n      swap2\n      0x0100\n      exp\n      dup2\n      sload\n      dup2\n      0xffffffffffffffffffffffffffffffffffffffff\n      mul\n      not\n      and\n      swap1\n      dup4\n      0xffffffffffffffffffffffffffffffffffffffff\n      and\n      mul\n      or\n      swap1\n      sstore\n      pop\n        /* \"bootcamp/week3/day_4_multiSigWallet.sol\":2950:2954  true */\n      0x01\n        /* \"bootcamp/week3/day_4_multiSigWallet.sol\":2928:2937  ownerList */\n      0x02\n        /* \"bootcamp/week3/day_4_multiSigWallet.sol\":2928:2947  ownerList[_address] */\n      0x00\n        /* \"bootcamp/week3/day_4_multiSigWallet.sol\":2938:2946  _address */\n      dup4\n        /* \"bootcamp/week3/day_4_multiSigWallet.sol\":2928:2947  ownerList[_address] */\n      0xffffffffffffffffffffffffffffffffffffffff\n      and\n      0xffffffffffffffffffffffffffffffffffffffff\n      and\n      dup2\n      mstore\n      0x20\n      add\n      swap1\n      dup2\n      mstore\n      0x20\n      add\n      0x00\n      keccak256\n      0x00\n        /* \"bootcamp/week3/day_4_multiSigWallet.sol\":2928:2954  ownerList[_address] = true */\n      0x0100\n      exp\n      dup2\n      sload\n      dup2\n      0xff\n      mul\n      not\n      and\n      swap1\n      dup4\n      iszero\n      iszero\n      mul\n      or\n      swap1\n      sstore\n      pop\n        /* \"bootcamp/week3/day_4_multiSigWallet.sol\":3079:3080  1 */\n      0x01\n        /* \"bootcamp/week3/day_4_multiSigWallet.sol\":3060:3075  approvalsNeeded */\n      dup1\n      0x00\n        /* \"bootcamp/week3/day_4_multiSigWallet.sol\":3060:3080  approvalsNeeded += 1 */\n      dup3\n      dup3\n      sload\n      tag_113\n      swap2\n      swap1\n      tag_100\n      jump\t// in\n    tag_113:\n      swap3\n      pop\n      pop\n      dup2\n      swap1\n      sstore\n      pop\n        /* \"bootcamp/week3/day_4_multiSigWallet.sol\":2323:3095  if(owners.length % 2 == 0){... */\n    tag_109:\n        /* \"bootcamp/week3/day_4_multiSigWallet.sol\":2185:3105  if(votesToNewAddress[_address] >= approvalsNeeded) {... */\n    tag_101:\n        /* \"bootcamp/week3/day_4_multiSigWallet.sol\":1840:3111  function votingOnNewAddress(address _address) public OnlyOwner {... */\n      pop\n      jump\t// out\n        /* \"bootcamp/week3/day_4_multiSigWallet.sol\":3690:4050  function voteOnTransaction(uint index) public OnlyOwner {... */\n    tag_63:\n        /* \"bootcamp/week3/day_4_multiSigWallet.sol\":695:699  true */\n      0x01\n        /* \"bootcamp/week3/day_4_multiSigWallet.sol\":670:699  ownerList[msg.sender] == true */\n      iszero\n      iszero\n        /* \"bootcamp/week3/day_4_multiSigWallet.sol\":670:679  ownerList */\n      0x02\n        /* \"bootcamp/week3/day_4_multiSigWallet.sol\":670:691  ownerList[msg.sender] */\n      0x00\n        /* \"bootcamp/week3/day_4_multiSigWallet.sol\":680:690  msg.sender */\n      caller\n        /* \"bootcamp/week3/day_4_multiSigWallet.sol\":670:691  ownerList[msg.sender] */\n      0xffffffffffffffffffffffffffffffffffffffff\n      and\n      0xffffffffffffffffffffffffffffffffffffffff\n      and\n      dup2\n      mstore\n      0x20\n      add\n      swap1\n      dup2\n      mstore\n      0x20\n      add\n      0x00\n      keccak256\n      0x00\n      swap1\n      sload\n      swap1\n      0x0100\n      exp\n      swap1\n      div\n      0xff\n      and\n        /* \"bootcamp/week3/day_4_multiSigWallet.sol\":670:699  ownerList[msg.sender] == true */\n      iszero\n      iszero\n      eq\n        /* \"bootcamp/week3/day_4_multiSigWallet.sol\":662:739  require(ownerList[msg.sender] == true, \"Your're not an owner of this wallet\") */\n      tag_115\n      jumpi\n      mload(0x40)\n      0x08c379a000000000000000000000000000000000000000000000000000000000\n      dup2\n      mstore\n      0x04\n      add\n      tag_116\n      swap1\n      tag_94\n      jump\t// in\n    tag_116:\n      mload(0x40)\n      dup1\n      swap2\n      sub\n      swap1\n      revert\n    tag_115:\n        /* \"bootcamp/week3/day_4_multiSigWallet.sol\":3921:3926  false */\n      0x00\n        /* \"bootcamp/week3/day_4_multiSigWallet.sol\":3886:3926  alreadyVoted[index][msg.sender] == false */\n      iszero\n      iszero\n        /* \"bootcamp/week3/day_4_multiSigWallet.sol\":3886:3898  alreadyVoted */\n      0x03\n        /* \"bootcamp/week3/day_4_multiSigWallet.sol\":3886:3905  alreadyVoted[index] */\n      0x00\n        /* \"bootcamp/week3/day_4_multiSigWallet.sol\":3899:3904  index */\n      dup4\n        /* \"bootcamp/week3/day_4_multiSigWallet.sol\":3886:3905  alreadyVoted[index] */\n      dup2\n      mstore\n      0x20\n      add\n      swap1\n      dup2\n      mstore\n      0x20\n      add\n      0x00\n      keccak256\n        /* \"bootcamp/week3/day_4_multiSigWallet.sol\":3886:3917  alreadyVoted[index][msg.sender] */\n      0x00\n        /* \"bootcamp/week3/day_4_multiSigWallet.sol\":3906:3916  msg.sender */\n      caller\n        /* \"bootcamp/week3/day_4_multiSigWallet.sol\":3886:3917  alreadyVoted[index][msg.sender] */\n      0xffffffffffffffffffffffffffffffffffffffff\n      and\n      0xffffffffffffffffffffffffffffffffffffffff\n      and\n      dup2\n      mstore\n      0x20\n      add\n      swap1\n      dup2\n      mstore\n      0x20\n      add\n      0x00\n      keccak256\n      0x00\n      swap1\n      sload\n      swap1\n      0x0100\n      exp\n      swap1\n      div\n      0xff\n      and\n        /* \"bootcamp/week3/day_4_multiSigWallet.sol\":3886:3926  alreadyVoted[index][msg.sender] == false */\n      iszero\n      iszero\n      eq\n        /* \"bootcamp/week3/day_4_multiSigWallet.sol\":3878:3951  require(alreadyVoted[index][msg.sender] == false, \"You've already voted\") */\n      tag_118\n      jumpi\n      mload(0x40)\n      0x08c379a000000000000000000000000000000000000000000000000000000000\n      dup2\n      mstore\n      0x04\n      add\n      tag_119\n      swap1\n      tag_120\n      jump\t// in\n    tag_119:\n      mload(0x40)\n      dup1\n      swap2\n      sub\n      swap1\n      revert\n    tag_118:\n        /* \"bootcamp/week3/day_4_multiSigWallet.sol\":3994:3995  1 */\n      0x01\n        /* \"bootcamp/week3/day_4_multiSigWallet.sol\":3961:3973  transactions */\n      0x04\n        /* \"bootcamp/week3/day_4_multiSigWallet.sol\":3974:3979  index */\n      dup3\n        /* \"bootcamp/week3/day_4_multiSigWallet.sol\":3961:3980  transactions[index] */\n      dup2\n      sload\n      dup2\n      lt\n      tag_121\n      jumpi\n      tag_122\n      tag_123\n      jump\t// in\n    tag_122:\n    tag_121:\n      swap1\n      0x00\n      mstore\n      keccak256(0x00, 0x20)\n      swap1\n      0x04\n      mul\n      add\n        /* \"bootcamp/week3/day_4_multiSigWallet.sol\":3961:3990  transactions[index].approvals */\n      0x03\n      add\n      0x00\n        /* \"bootcamp/week3/day_4_multiSigWallet.sol\":3961:3995  transactions[index].approvals += 1 */\n      dup3\n      dup3\n      sload\n      tag_125\n      swap2\n      swap1\n      tag_100\n      jump\t// in\n    tag_125:\n      swap3\n      pop\n      pop\n      dup2\n      swap1\n      sstore\n      pop\n        /* \"bootcamp/week3/day_4_multiSigWallet.sol\":4039:4043  true */\n      0x01\n        /* \"bootcamp/week3/day_4_multiSigWallet.sol\":4005:4017  alreadyVoted */\n      0x03\n        /* \"bootcamp/week3/day_4_multiSigWallet.sol\":4005:4024  alreadyVoted[index] */\n      0x00\n        /* \"bootcamp/week3/day_4_multiSigWallet.sol\":4018:4023  index */\n      dup4\n        /* \"bootcamp/week3/day_4_multiSigWallet.sol\":4005:4024  alreadyVoted[index] */\n      dup2\n      mstore\n      0x20\n      add\n      swap1\n      dup2\n      mstore\n      0x20\n      add\n      0x00\n      keccak256\n        /* \"bootcamp/week3/day_4_multiSigWallet.sol\":4005:4036  alreadyVoted[index][msg.sender] */\n      0x00\n        /* \"bootcamp/week3/day_4_multiSigWallet.sol\":4025:4035  msg.sender */\n      caller\n        /* \"bootcamp/week3/day_4_multiSigWallet.sol\":4005:4036  alreadyVoted[index][msg.sender] */\n      0xffffffffffffffffffffffffffffffffffffffff\n      and\n      0xffffffffffffffffffffffffffffffffffffffff\n      and\n      dup2\n      mstore\n      0x20\n      add\n      swap1\n      dup2\n      mstore\n      0x20\n      add\n      0x00\n      keccak256\n      0x00\n        /* \"bootcamp/week3/day_4_multiSigWallet.sol\":4005:4043  alreadyVoted[index][msg.sender] = true */\n      0x0100\n      exp\n      dup2\n      sload\n      dup2\n      0xff\n      mul\n      not\n      and\n      swap1\n      dup4\n      iszero\n      iszero\n      mul\n      or\n      swap1\n      sstore\n      pop\n        /* \"bootcamp/week3/day_4_multiSigWallet.sol\":3690:4050  function voteOnTransaction(uint index) public OnlyOwner {... */\n      pop\n      jump\t// out\n        /* \"bootcamp/week3/day_4_multiSigWallet.sol\":1759:1833  mapping(address => mapping(address => bool)) public alreadyVotedNewAddress */\n    tag_68:\n      mstore(0x20, 0x06)\n      dup2\n      0x00\n      mstore\n      mstore(0x20, keccak256(0x00, 0x40))\n      dup1\n      0x00\n      mstore\n      keccak256(0x00, 0x40)\n      0x00\n      swap2\n      pop\n      swap2\n      pop\n      swap1\n      sload\n      swap1\n      0x0100\n      exp\n      swap1\n      div\n      0xff\n      and\n      dup2\n      jump\t// out\n        /* \"bootcamp/week3/day_4_multiSigWallet.sol\":4583:5447  function executeTransaction(uint index) public OnlyOwner {... */\n    tag_73:\n        /* \"bootcamp/week3/day_4_multiSigWallet.sol\":695:699  true */\n      0x01\n        /* \"bootcamp/week3/day_4_multiSigWallet.sol\":670:699  ownerList[msg.sender] == true */\n      iszero\n      iszero\n        /* \"bootcamp/week3/day_4_multiSigWallet.sol\":670:679  ownerList */\n      0x02\n        /* \"bootcamp/week3/day_4_multiSigWallet.sol\":670:691  ownerList[msg.sender] */\n      0x00\n        /* \"bootcamp/week3/day_4_multiSigWallet.sol\":680:690  msg.sender */\n      caller\n        /* \"bootcamp/week3/day_4_multiSigWallet.sol\":670:691  ownerList[msg.sender] */\n      0xffffffffffffffffffffffffffffffffffffffff\n      and\n      0xffffffffffffffffffffffffffffffffffffffff\n      and\n      dup2\n      mstore\n      0x20\n      add\n      swap1\n      dup2\n      mstore\n      0x20\n      add\n      0x00\n      keccak256\n      0x00\n      swap1\n      sload\n      swap1\n      0x0100\n      exp\n      swap1\n      div\n      0xff\n      and\n        /* \"bootcamp/week3/day_4_multiSigWallet.sol\":670:699  ownerList[msg.sender] == true */\n      iszero\n      iszero\n      eq\n        /* \"bootcamp/week3/day_4_multiSigWallet.sol\":662:739  require(ownerList[msg.sender] == true, \"Your're not an owner of this wallet\") */\n      tag_127\n      jumpi\n      mload(0x40)\n      0x08c379a000000000000000000000000000000000000000000000000000000000\n      dup2\n      mstore\n      0x04\n      add\n      tag_128\n      swap1\n      tag_94\n      jump\t// in\n    tag_128:\n      mload(0x40)\n      dup1\n      swap2\n      sub\n      swap1\n      revert\n    tag_127:\n        /* \"bootcamp/week3/day_4_multiSigWallet.sol\":4728:4743  approvalsNeeded */\n      sload(0x01)\n        /* \"bootcamp/week3/day_4_multiSigWallet.sol\":4695:4707  transactions */\n      0x04\n        /* \"bootcamp/week3/day_4_multiSigWallet.sol\":4708:4713  index */\n      dup3\n        /* \"bootcamp/week3/day_4_multiSigWallet.sol\":4695:4714  transactions[index] */\n      dup2\n      sload\n      dup2\n      lt\n      tag_130\n      jumpi\n      tag_131\n      tag_123\n      jump\t// in\n    tag_131:\n    tag_130:\n      swap1\n      0x00\n      mstore\n      keccak256(0x00, 0x20)\n      swap1\n      0x04\n      mul\n      add\n        /* \"bootcamp/week3/day_4_multiSigWallet.sol\":4695:4724  transactions[index].approvals */\n      0x03\n      add\n      sload\n        /* \"bootcamp/week3/day_4_multiSigWallet.sol\":4695:4743  transactions[index].approvals >= approvalsNeeded */\n      lt\n      iszero\n        /* \"bootcamp/week3/day_4_multiSigWallet.sol\":4687:4768  require(transactions[index].approvals >= approvalsNeeded, \"Not enough approvals\") */\n      tag_133\n      jumpi\n      mload(0x40)\n      0x08c379a000000000000000000000000000000000000000000000000000000000\n      dup2\n      mstore\n      0x04\n      add\n      tag_134\n      swap1\n      tag_135\n      jump\t// in\n    tag_134:\n      mload(0x40)\n      dup1\n      swap2\n      sub\n      swap1\n      revert\n    tag_133:\n        /* \"bootcamp/week3/day_4_multiSigWallet.sol\":4868:4873  false */\n      0x00\n        /* \"bootcamp/week3/day_4_multiSigWallet.sol\":4829:4873  transactions[index].alreadyExecuted == false */\n      iszero\n      iszero\n        /* \"bootcamp/week3/day_4_multiSigWallet.sol\":4829:4841  transactions */\n      0x04\n        /* \"bootcamp/week3/day_4_multiSigWallet.sol\":4842:4847  index */\n      dup3\n        /* \"bootcamp/week3/day_4_multiSigWallet.sol\":4829:4848  transactions[index] */\n      dup2\n      sload\n      dup2\n      lt\n      tag_136\n      jumpi\n      tag_137\n      tag_123\n      jump\t// in\n    tag_137:\n    tag_136:\n      swap1\n      0x00\n      mstore\n      keccak256(0x00, 0x20)\n      swap1\n      0x04\n      mul\n      add\n        /* \"bootcamp/week3/day_4_multiSigWallet.sol\":4829:4864  transactions[index].alreadyExecuted */\n      0x02\n      add\n      0x00\n      swap1\n      sload\n      swap1\n      0x0100\n      exp\n      swap1\n      div\n      0xff\n      and\n        /* \"bootcamp/week3/day_4_multiSigWallet.sol\":4829:4873  transactions[index].alreadyExecuted == false */\n      iszero\n      iszero\n      eq\n        /* \"bootcamp/week3/day_4_multiSigWallet.sol\":4821:4891  require(transactions[index].alreadyExecuted == false, \"Already voted\") */\n      tag_139\n      jumpi\n      mload(0x40)\n      0x08c379a000000000000000000000000000000000000000000000000000000000\n      dup2\n      mstore\n      0x04\n      add\n      tag_140\n      swap1\n      tag_141\n      jump\t// in\n    tag_140:\n      mload(0x40)\n      dup1\n      swap2\n      sub\n      swap1\n      revert\n    tag_139:\n        /* \"bootcamp/week3/day_4_multiSigWallet.sol\":4901:4923  address payable toSend */\n      0x00\n        /* \"bootcamp/week3/day_4_multiSigWallet.sol\":4935:4947  transactions */\n      0x04\n        /* \"bootcamp/week3/day_4_multiSigWallet.sol\":4948:4953  index */\n      dup3\n        /* \"bootcamp/week3/day_4_multiSigWallet.sol\":4935:4954  transactions[index] */\n      dup2\n      sload\n      dup2\n      lt\n      tag_142\n      jumpi\n      tag_143\n      tag_123\n      jump\t// in\n    tag_143:\n    tag_142:\n      swap1\n      0x00\n      mstore\n      keccak256(0x00, 0x20)\n      swap1\n      0x04\n      mul\n      add\n        /* \"bootcamp/week3/day_4_multiSigWallet.sol\":4935:4964  transactions[index].sendingTo */\n      0x00\n      add\n      0x00\n      swap1\n      sload\n      swap1\n      0x0100\n      exp\n      swap1\n      div\n      0xffffffffffffffffffffffffffffffffffffffff\n      and\n        /* \"bootcamp/week3/day_4_multiSigWallet.sol\":4901:4965  address payable toSend = payable (transactions[index].sendingTo) */\n      swap1\n      pop\n        /* \"bootcamp/week3/day_4_multiSigWallet.sol\":5058:5072  bool tryToSend */\n      0x00\n        /* \"bootcamp/week3/day_4_multiSigWallet.sol\":5078:5084  toSend */\n      dup2\n        /* \"bootcamp/week3/day_4_multiSigWallet.sol\":5078:5089  toSend.call */\n      0xffffffffffffffffffffffffffffffffffffffff\n      and\n        /* \"bootcamp/week3/day_4_multiSigWallet.sol\":5097:5109  transactions */\n      0x04\n        /* \"bootcamp/week3/day_4_multiSigWallet.sol\":5110:5115  index */\n      dup5\n        /* \"bootcamp/week3/day_4_multiSigWallet.sol\":5097:5116  transactions[index] */\n      dup2\n      sload\n      dup2\n      lt\n      tag_145\n      jumpi\n      tag_146\n      tag_123\n      jump\t// in\n    tag_146:\n    tag_145:\n      swap1\n      0x00\n      mstore\n      keccak256(0x00, 0x20)\n      swap1\n      0x04\n      mul\n      add\n        /* \"bootcamp/week3/day_4_multiSigWallet.sol\":5097:5122  transactions[index].value */\n      0x01\n      add\n      sload\n        /* \"bootcamp/week3/day_4_multiSigWallet.sol\":5129:5133  5000 */\n      0x1388\n        /* \"bootcamp/week3/day_4_multiSigWallet.sol\":5078:5138  toSend.call{value: transactions[index].value, gas: 5000}(\"\") */\n      swap1\n      mload(0x40)\n      tag_148\n      swap1\n      tag_149\n      jump\t// in\n    tag_148:\n      0x00\n      mload(0x40)\n      dup1\n      dup4\n      sub\n      dup2\n      dup6\n      dup9\n      dup9\n      call\n      swap4\n      pop\n      pop\n      pop\n      pop\n      returndatasize\n      dup1\n      0x00\n      dup2\n      eq\n      tag_152\n      jumpi\n      mload(0x40)\n      swap2\n      pop\n      and(add(returndatasize, 0x3f), not(0x1f))\n      dup3\n      add\n      0x40\n      mstore\n      returndatasize\n      dup3\n      mstore\n      returndatasize\n      0x00\n      0x20\n      dup5\n      add\n      returndatacopy\n      jump(tag_151)\n    tag_152:\n      0x60\n      swap2\n      pop\n    tag_151:\n      pop\n        /* \"bootcamp/week3/day_4_multiSigWallet.sol\":5057:5138  (bool tryToSend, ) = toSend.call{value: transactions[index].value, gas: 5000}(\"\") */\n      pop\n      swap1\n      pop\n        /* \"bootcamp/week3/day_4_multiSigWallet.sol\":5255:5264  tryToSend */\n      dup1\n        /* \"bootcamp/week3/day_4_multiSigWallet.sol\":5247:5297  require(tryToSend, \"You don't have enough tokens\") */\n      tag_153\n      jumpi\n      mload(0x40)\n      0x08c379a000000000000000000000000000000000000000000000000000000000\n      dup2\n      mstore\n      0x04\n      add\n      tag_154\n      swap1\n      tag_155\n      jump\t// in\n    tag_154:\n      mload(0x40)\n      dup1\n      swap2\n      sub\n      swap1\n      revert\n    tag_153:\n        /* \"bootcamp/week3/day_4_multiSigWallet.sol\":5436:5440  true */\n      0x01\n        /* \"bootcamp/week3/day_4_multiSigWallet.sol\":5398:5410  transactions */\n      0x04\n        /* \"bootcamp/week3/day_4_multiSigWallet.sol\":5411:5416  index */\n      dup5\n        /* \"bootcamp/week3/day_4_multiSigWallet.sol\":5398:5417  transactions[index] */\n      dup2\n      sload\n      dup2\n      lt\n      tag_156\n      jumpi\n      tag_157\n      tag_123\n      jump\t// in\n    tag_157:\n    tag_156:\n      swap1\n      0x00\n      mstore\n      keccak256(0x00, 0x20)\n      swap1\n      0x04\n      mul\n      add\n        /* \"bootcamp/week3/day_4_multiSigWallet.sol\":5398:5433  transactions[index].alreadyExecuted */\n      0x02\n      add\n      0x00\n        /* \"bootcamp/week3/day_4_multiSigWallet.sol\":5398:5440  transactions[index].alreadyExecuted = true */\n      0x0100\n      exp\n      dup2\n      sload\n      dup2\n      0xff\n      mul\n      not\n      and\n      swap1\n      dup4\n      iszero\n      iszero\n      mul\n      or\n      swap1\n      sstore\n      pop\n        /* \"bootcamp/week3/day_4_multiSigWallet.sol\":4640:5447  {... */\n      pop\n      pop\n        /* \"bootcamp/week3/day_4_multiSigWallet.sol\":4583:5447  function executeTransaction(uint index) public OnlyOwner {... */\n      pop\n      jump\t// out\n        /* \"bootcamp/week3/day_4_multiSigWallet.sol\":3411:3656  function proposeTransaction(address to, uint amount) public OnlyOwner {... */\n    tag_78:\n        /* \"bootcamp/week3/day_4_multiSigWallet.sol\":695:699  true */\n      0x01\n        /* \"bootcamp/week3/day_4_multiSigWallet.sol\":670:699  ownerList[msg.sender] == true */\n      iszero\n      iszero\n        /* \"bootcamp/week3/day_4_multiSigWallet.sol\":670:679  ownerList */\n      0x02\n        /* \"bootcamp/week3/day_4_multiSigWallet.sol\":670:691  ownerList[msg.sender] */\n      0x00\n        /* \"bootcamp/week3/day_4_multiSigWallet.sol\":680:690  msg.sender */\n      caller\n        /* \"bootcamp/week3/day_4_multiSigWallet.sol\":670:691  ownerList[msg.sender] */\n      0xffffffffffffffffffffffffffffffffffffffff\n      and\n      0xffffffffffffffffffffffffffffffffffffffff\n      and\n      dup2\n      mstore\n      0x20\n      add\n      swap1\n      dup2\n      mstore\n      0x20\n      add\n      0x00\n      keccak256\n      0x00\n      swap1\n      sload\n      swap1\n      0x0100\n      exp\n      swap1\n      div\n      0xff\n      and\n        /* \"bootcamp/week3/day_4_multiSigWallet.sol\":670:699  ownerList[msg.sender] == true */\n      iszero\n      iszero\n      eq\n        /* \"bootcamp/week3/day_4_multiSigWallet.sol\":662:739  require(ownerList[msg.sender] == true, \"Your're not an owner of this wallet\") */\n      tag_160\n      jumpi\n      mload(0x40)\n      0x08c379a000000000000000000000000000000000000000000000000000000000\n      dup2\n      mstore\n      0x04\n      add\n      tag_161\n      swap1\n      tag_94\n      jump\t// in\n    tag_161:\n      mload(0x40)\n      dup1\n      swap2\n      sub\n      swap1\n      revert\n    tag_160:\n        /* \"bootcamp/week3/day_4_multiSigWallet.sol\":3491:3503  transactions */\n      0x04\n        /* \"bootcamp/week3/day_4_multiSigWallet.sol\":3509:3648  Transaction({... */\n      mload(0x40)\n      dup1\n      0x80\n      add\n      0x40\n      mstore\n      dup1\n        /* \"bootcamp/week3/day_4_multiSigWallet.sol\":3546:3548  to */\n      dup5\n        /* \"bootcamp/week3/day_4_multiSigWallet.sol\":3509:3648  Transaction({... */\n      0xffffffffffffffffffffffffffffffffffffffff\n      and\n      dup2\n      mstore\n      0x20\n      add\n        /* \"bootcamp/week3/day_4_multiSigWallet.sol\":3569:3575  amount */\n      dup4\n        /* \"bootcamp/week3/day_4_multiSigWallet.sol\":3509:3648  Transaction({... */\n      dup2\n      mstore\n      0x20\n      add\n        /* \"bootcamp/week3/day_4_multiSigWallet.sol\":3606:3611  false */\n      0x00\n        /* \"bootcamp/week3/day_4_multiSigWallet.sol\":3509:3648  Transaction({... */\n      iszero\n      iszero\n      dup2\n      mstore\n      0x20\n      add\n        /* \"bootcamp/week3/day_4_multiSigWallet.sol\":3636:3637  0 */\n      0x00\n        /* \"bootcamp/week3/day_4_multiSigWallet.sol\":3509:3648  Transaction({... */\n      dup2\n      mstore\n      pop\n        /* \"bootcamp/week3/day_4_multiSigWallet.sol\":3491:3649  transactions.push(Transaction({... */\n      swap1\n      dup1\n      0x01\n      dup2\n      sload\n      add\n      dup1\n      dup3\n      sstore\n      dup1\n      swap2\n      pop\n      pop\n      0x01\n      swap1\n      sub\n      swap1\n      0x00\n      mstore\n      keccak256(0x00, 0x20)\n      swap1\n      0x04\n      mul\n      add\n      0x00\n      swap1\n      swap2\n      swap1\n      swap2\n      swap1\n      swap2\n      pop\n      0x00\n      dup3\n      add\n      mload\n      dup2\n      0x00\n      add\n      exp(0x0100, 0x00)\n      dup2\n      sload\n      dup2\n      0xffffffffffffffffffffffffffffffffffffffff\n      mul\n      not\n      and\n      swap1\n      dup4\n      0xffffffffffffffffffffffffffffffffffffffff\n      and\n      mul\n      or\n      swap1\n      sstore\n      pop\n      0x20\n      dup3\n      add\n      mload\n      dup2\n      0x01\n      add\n      sstore\n      0x40\n      dup3\n      add\n      mload\n      dup2\n      0x02\n      add\n      exp(0x0100, 0x00)\n      dup2\n      sload\n      dup2\n      0xff\n      mul\n      not\n      and\n      swap1\n      dup4\n      iszero\n      iszero\n      mul\n      or\n      swap1\n      sstore\n      pop\n      0x60\n      dup3\n      add\n      mload\n      dup2\n      0x03\n      add\n      sstore\n      pop\n      pop\n        /* \"bootcamp/week3/day_4_multiSigWallet.sol\":3411:3656  function proposeTransaction(address to, uint amount) public OnlyOwner {... */\n      pop\n      pop\n      jump\t// out\n        /* \"bootcamp/week3/day_4_multiSigWallet.sol\":5453:5543  function ownerListLength() public view returns(uint) {... */\n    tag_81:\n        /* \"bootcamp/week3/day_4_multiSigWallet.sol\":5500:5504  uint */\n      0x00\n        /* \"bootcamp/week3/day_4_multiSigWallet.sol\":5523:5529  owners */\n      dup1\n        /* \"bootcamp/week3/day_4_multiSigWallet.sol\":5523:5536  owners.length */\n      dup1\n      sload\n      swap1\n      pop\n        /* \"bootcamp/week3/day_4_multiSigWallet.sol\":5516:5536  return owners.length */\n      swap1\n      pop\n        /* \"bootcamp/week3/day_4_multiSigWallet.sol\":5453:5543  function ownerListLength() public view returns(uint) {... */\n      swap1\n      jump\t// out\n        /* \"bootcamp/week3/day_4_multiSigWallet.sol\":4126:4489  function revokeOnTransaction(uint index) public OnlyOwner {... */\n    tag_86:\n        /* \"bootcamp/week3/day_4_multiSigWallet.sol\":695:699  true */\n      0x01\n        /* \"bootcamp/week3/day_4_multiSigWallet.sol\":670:699  ownerList[msg.sender] == true */\n      iszero\n      iszero\n        /* \"bootcamp/week3/day_4_multiSigWallet.sol\":670:679  ownerList */\n      0x02\n        /* \"bootcamp/week3/day_4_multiSigWallet.sol\":670:691  ownerList[msg.sender] */\n      0x00\n        /* \"bootcamp/week3/day_4_multiSigWallet.sol\":680:690  msg.sender */\n      caller\n        /* \"bootcamp/week3/day_4_multiSigWallet.sol\":670:691  ownerList[msg.sender] */\n      0xffffffffffffffffffffffffffffffffffffffff\n      and\n      0xffffffffffffffffffffffffffffffffffffffff\n      and\n      dup2\n      mstore\n      0x20\n      add\n      swap1\n      dup2\n      mstore\n      0x20\n      add\n      0x00\n      keccak256\n      0x00\n      swap1\n      sload\n      swap1\n      0x0100\n      exp\n      swap1\n      div\n      0xff\n      and\n        /* \"bootcamp/week3/day_4_multiSigWallet.sol\":670:699  ownerList[msg.sender] == true */\n      iszero\n      iszero\n      eq\n        /* \"bootcamp/week3/day_4_multiSigWallet.sol\":662:739  require(ownerList[msg.sender] == true, \"Your're not an owner of this wallet\") */\n      tag_166\n      jumpi\n      mload(0x40)\n      0x08c379a000000000000000000000000000000000000000000000000000000000\n      dup2\n      mstore\n      0x04\n      add\n      tag_167\n      swap1\n      tag_94\n      jump\t// in\n    tag_167:\n      mload(0x40)\n      dup1\n      swap2\n      sub\n      swap1\n      revert\n    tag_166:\n        /* \"bootcamp/week3/day_4_multiSigWallet.sol\":4359:4363  true */\n      0x01\n        /* \"bootcamp/week3/day_4_multiSigWallet.sol\":4324:4363  alreadyVoted[index][msg.sender] == true */\n      iszero\n      iszero\n        /* \"bootcamp/week3/day_4_multiSigWallet.sol\":4324:4336  alreadyVoted */\n      0x03\n        /* \"bootcamp/week3/day_4_multiSigWallet.sol\":4324:4343  alreadyVoted[index] */\n      0x00\n        /* \"bootcamp/week3/day_4_multiSigWallet.sol\":4337:4342  index */\n      dup4\n        /* \"bootcamp/week3/day_4_multiSigWallet.sol\":4324:4343  alreadyVoted[index] */\n      dup2\n      mstore\n      0x20\n      add\n      swap1\n      dup2\n      mstore\n      0x20\n      add\n      0x00\n      keccak256\n        /* \"bootcamp/week3/day_4_multiSigWallet.sol\":4324:4355  alreadyVoted[index][msg.sender] */\n      0x00\n        /* \"bootcamp/week3/day_4_multiSigWallet.sol\":4344:4354  msg.sender */\n      caller\n        /* \"bootcamp/week3/day_4_multiSigWallet.sol\":4324:4355  alreadyVoted[index][msg.sender] */\n      0xffffffffffffffffffffffffffffffffffffffff\n      and\n      0xffffffffffffffffffffffffffffffffffffffff\n      and\n      dup2\n      mstore\n      0x20\n      add\n      swap1\n      dup2\n      mstore\n      0x20\n      add\n      0x00\n      keccak256\n      0x00\n      swap1\n      sload\n      swap1\n      0x0100\n      exp\n      swap1\n      div\n      0xff\n      and\n        /* \"bootcamp/week3/day_4_multiSigWallet.sol\":4324:4363  alreadyVoted[index][msg.sender] == true */\n      iszero\n      iszero\n      eq\n        /* \"bootcamp/week3/day_4_multiSigWallet.sol\":4316:4389  require(alreadyVoted[index][msg.sender] == true, \"You haven't voted yet\") */\n      tag_169\n      jumpi\n      mload(0x40)\n      0x08c379a000000000000000000000000000000000000000000000000000000000\n      dup2\n      mstore\n      0x04\n      add\n      tag_170\n      swap1\n      tag_171\n      jump\t// in\n    tag_170:\n      mload(0x40)\n      dup1\n      swap2\n      sub\n      swap1\n      revert\n    tag_169:\n        /* \"bootcamp/week3/day_4_multiSigWallet.sol\":4432:4433  1 */\n      0x01\n        /* \"bootcamp/week3/day_4_multiSigWallet.sol\":4399:4411  transactions */\n      0x04\n        /* \"bootcamp/week3/day_4_multiSigWallet.sol\":4412:4417  index */\n      dup3\n        /* \"bootcamp/week3/day_4_multiSigWallet.sol\":4399:4418  transactions[index] */\n      dup2\n      sload\n      dup2\n      lt\n      tag_172\n      jumpi\n      tag_173\n      tag_123\n      jump\t// in\n    tag_173:\n    tag_172:\n      swap1\n      0x00\n      mstore\n      keccak256(0x00, 0x20)\n      swap1\n      0x04\n      mul\n      add\n        /* \"bootcamp/week3/day_4_multiSigWallet.sol\":4399:4428  transactions[index].approvals */\n      0x03\n      add\n      0x00\n        /* \"bootcamp/week3/day_4_multiSigWallet.sol\":4399:4433  transactions[index].approvals -= 1 */\n      dup3\n      dup3\n      sload\n      tag_175\n      swap2\n      swap1\n      tag_176\n      jump\t// in\n    tag_175:\n      swap3\n      pop\n      pop\n      dup2\n      swap1\n      sstore\n      pop\n        /* \"bootcamp/week3/day_4_multiSigWallet.sol\":4477:4482  false */\n      0x00\n        /* \"bootcamp/week3/day_4_multiSigWallet.sol\":4443:4455  alreadyVoted */\n      0x03\n        /* \"bootcamp/week3/day_4_multiSigWallet.sol\":4443:4462  alreadyVoted[index] */\n      0x00\n        /* \"bootcamp/week3/day_4_multiSigWallet.sol\":4456:4461  index */\n      dup4\n        /* \"bootcamp/week3/day_4_multiSigWallet.sol\":4443:4462  alreadyVoted[index] */\n      dup2\n      mstore\n      0x20\n      add\n      swap1\n      dup2\n      mstore\n      0x20\n      add\n      0x00\n      keccak256\n        /* \"bootcamp/week3/day_4_multiSigWallet.sol\":4443:4474  alreadyVoted[index][msg.sender] */\n      0x00\n        /* \"bootcamp/week3/day_4_multiSigWallet.sol\":4463:4473  msg.sender */\n      caller\n        /* \"bootcamp/week3/day_4_multiSigWallet.sol\":4443:4474  alreadyVoted[index][msg.sender] */\n      0xffffffffffffffffffffffffffffffffffffffff\n      and\n      0xffffffffffffffffffffffffffffffffffffffff\n      and\n      dup2\n      mstore\n      0x20\n      add\n      swap1\n      dup2\n      mstore\n      0x20\n      add\n      0x00\n      keccak256\n      0x00\n        /* \"bootcamp/week3/day_4_multiSigWallet.sol\":4443:4482  alreadyVoted[index][msg.sender] = false */\n      0x0100\n      exp\n      dup2\n      sload\n      dup2\n      0xff\n      mul\n      not\n      and\n      swap1\n      dup4\n      iszero\n      iszero\n      mul\n      or\n      swap1\n      sstore\n      pop\n        /* \"bootcamp/week3/day_4_multiSigWallet.sol\":4126:4489  function revokeOnTransaction(uint index) public OnlyOwner {... */\n      pop\n      jump\t// out\n        /* \"#utility.yul\":88:205   */\n    tag_178:\n        /* \"#utility.yul\":197:198   */\n      0x00\n        /* \"#utility.yul\":194:195   */\n      dup1\n        /* \"#utility.yul\":187:199   */\n      revert\n        /* \"#utility.yul\":334:411   */\n    tag_180:\n        /* \"#utility.yul\":371:378   */\n      0x00\n        /* \"#utility.yul\":400:405   */\n      dup2\n        /* \"#utility.yul\":389:405   */\n      swap1\n      pop\n        /* \"#utility.yul\":334:411   */\n      swap2\n      swap1\n      pop\n      jump\t// out\n        /* \"#utility.yul\":417:539   */\n    tag_181:\n        /* \"#utility.yul\":490:514   */\n      tag_217\n        /* \"#utility.yul\":508:513   */\n      dup2\n        /* \"#utility.yul\":490:514   */\n      tag_180\n      jump\t// in\n    tag_217:\n        /* \"#utility.yul\":483:488   */\n      dup2\n        /* \"#utility.yul\":480:515   */\n      eq\n        /* \"#utility.yul\":470:533   */\n      tag_218\n      jumpi\n        /* \"#utility.yul\":529:530   */\n      0x00\n        /* \"#utility.yul\":526:527   */\n      dup1\n        /* \"#utility.yul\":519:531   */\n      revert\n        /* \"#utility.yul\":470:533   */\n    tag_218:\n        /* \"#utility.yul\":417:539   */\n      pop\n      jump\t// out\n        /* \"#utility.yul\":545:684   */\n    tag_182:\n        /* \"#utility.yul\":591:596   */\n      0x00\n        /* \"#utility.yul\":629:635   */\n      dup2\n        /* \"#utility.yul\":616:636   */\n      calldataload\n        /* \"#utility.yul\":607:636   */\n      swap1\n      pop\n        /* \"#utility.yul\":645:678   */\n      tag_220\n        /* \"#utility.yul\":672:677   */\n      dup2\n        /* \"#utility.yul\":645:678   */\n      tag_181\n      jump\t// in\n    tag_220:\n        /* \"#utility.yul\":545:684   */\n      swap3\n      swap2\n      pop\n      pop\n      jump\t// out\n        /* \"#utility.yul\":690:1019   */\n    tag_23:\n        /* \"#utility.yul\":749:755   */\n      0x00\n        /* \"#utility.yul\":798:800   */\n      0x20\n        /* \"#utility.yul\":786:795   */\n      dup3\n        /* \"#utility.yul\":777:784   */\n      dup5\n        /* \"#utility.yul\":773:796   */\n      sub\n        /* \"#utility.yul\":769:801   */\n      slt\n        /* \"#utility.yul\":766:885   */\n      iszero\n      tag_222\n      jumpi\n        /* \"#utility.yul\":804:883   */\n      tag_223\n      tag_178\n      jump\t// in\n    tag_223:\n        /* \"#utility.yul\":766:885   */\n    tag_222:\n        /* \"#utility.yul\":924:925   */\n      0x00\n        /* \"#utility.yul\":949:1002   */\n      tag_224\n        /* \"#utility.yul\":994:1001   */\n      dup5\n        /* \"#utility.yul\":985:991   */\n      dup3\n        /* \"#utility.yul\":974:983   */\n      dup6\n        /* \"#utility.yul\":970:992   */\n      add\n        /* \"#utility.yul\":949:1002   */\n      tag_182\n      jump\t// in\n    tag_224:\n        /* \"#utility.yul\":939:1002   */\n      swap2\n      pop\n        /* \"#utility.yul\":895:1012   */\n      pop\n        /* \"#utility.yul\":690:1019   */\n      swap3\n      swap2\n      pop\n      pop\n      jump\t// out\n        /* \"#utility.yul\":1025:1151   */\n    tag_183:\n        /* \"#utility.yul\":1062:1069   */\n      0x00\n        /* \"#utility.yul\":1102:1144   */\n      0xffffffffffffffffffffffffffffffffffffffff\n        /* \"#utility.yul\":1095:1100   */\n      dup3\n        /* \"#utility.yul\":1091:1145   */\n      and\n        /* \"#utility.yul\":1080:1145   */\n      swap1\n      pop\n        /* \"#utility.yul\":1025:1151   */\n      swap2\n      swap1\n      pop\n      jump\t// out\n        /* \"#utility.yul\":1157:1253   */\n    tag_184:\n        /* \"#utility.yul\":1194:1201   */\n      0x00\n        /* \"#utility.yul\":1223:1247   */\n      tag_227\n        /* \"#utility.yul\":1241:1246   */\n      dup3\n        /* \"#utility.yul\":1223:1247   */\n      tag_183\n      jump\t// in\n    tag_227:\n        /* \"#utility.yul\":1212:1247   */\n      swap1\n      pop\n        /* \"#utility.yul\":1157:1253   */\n      swap2\n      swap1\n      pop\n      jump\t// out\n        /* \"#utility.yul\":1259:1377   */\n    tag_185:\n        /* \"#utility.yul\":1346:1370   */\n      tag_229\n        /* \"#utility.yul\":1364:1369   */\n      dup2\n        /* \"#utility.yul\":1346:1370   */\n      tag_184\n      jump\t// in\n    tag_229:\n        /* \"#utility.yul\":1341:1344   */\n      dup3\n        /* \"#utility.yul\":1334:1371   */\n      mstore\n        /* \"#utility.yul\":1259:1377   */\n      pop\n      pop\n      jump\t// out\n        /* \"#utility.yul\":1383:1605   */\n    tag_26:\n        /* \"#utility.yul\":1476:1480   */\n      0x00\n        /* \"#utility.yul\":1514:1516   */\n      0x20\n        /* \"#utility.yul\":1503:1512   */\n      dup3\n        /* \"#utility.yul\":1499:1517   */\n      add\n        /* \"#utility.yul\":1491:1517   */\n      swap1\n      pop\n        /* \"#utility.yul\":1527:1598   */\n      tag_231\n        /* \"#utility.yul\":1595:1596   */\n      0x00\n        /* \"#utility.yul\":1584:1593   */\n      dup4\n        /* \"#utility.yul\":1580:1597   */\n      add\n        /* \"#utility.yul\":1571:1577   */\n      dup5\n        /* \"#utility.yul\":1527:1598   */\n      tag_185\n      jump\t// in\n    tag_231:\n        /* \"#utility.yul\":1383:1605   */\n      swap3\n      swap2\n      pop\n      pop\n      jump\t// out\n        /* \"#utility.yul\":1611:1729   */\n    tag_186:\n        /* \"#utility.yul\":1698:1722   */\n      tag_233\n        /* \"#utility.yul\":1716:1721   */\n      dup2\n        /* \"#utility.yul\":1698:1722   */\n      tag_180\n      jump\t// in\n    tag_233:\n        /* \"#utility.yul\":1693:1696   */\n      dup3\n        /* \"#utility.yul\":1686:1723   */\n      mstore\n        /* \"#utility.yul\":1611:1729   */\n      pop\n      pop\n      jump\t// out\n        /* \"#utility.yul\":1735:1957   */\n    tag_31:\n        /* \"#utility.yul\":1828:1832   */\n      0x00\n        /* \"#utility.yul\":1866:1868   */\n      0x20\n        /* \"#utility.yul\":1855:1864   */\n      dup3\n        /* \"#utility.yul\":1851:1869   */\n      add\n        /* \"#utility.yul\":1843:1869   */\n      swap1\n      pop\n        /* \"#utility.yul\":1879:1950   */\n      tag_235\n        /* \"#utility.yul\":1947:1948   */\n      0x00\n        /* \"#utility.yul\":1936:1945   */\n      dup4\n        /* \"#utility.yul\":1932:1949   */\n      add\n        /* \"#utility.yul\":1923:1929   */\n      dup5\n        /* \"#utility.yul\":1879:1950   */\n      tag_186\n      jump\t// in\n    tag_235:\n        /* \"#utility.yul\":1735:1957   */\n      swap3\n      swap2\n      pop\n      pop\n      jump\t// out\n        /* \"#utility.yul\":1963:2085   */\n    tag_187:\n        /* \"#utility.yul\":2036:2060   */\n      tag_237\n        /* \"#utility.yul\":2054:2059   */\n      dup2\n        /* \"#utility.yul\":2036:2060   */\n      tag_184\n      jump\t// in\n    tag_237:\n        /* \"#utility.yul\":2029:2034   */\n      dup2\n        /* \"#utility.yul\":2026:2061   */\n      eq\n        /* \"#utility.yul\":2016:2079   */\n      tag_238\n      jumpi\n        /* \"#utility.yul\":2075:2076   */\n      0x00\n        /* \"#utility.yul\":2072:2073   */\n      dup1\n        /* \"#utility.yul\":2065:2077   */\n      revert\n        /* \"#utility.yul\":2016:2079   */\n    tag_238:\n        /* \"#utility.yul\":1963:2085   */\n      pop\n      jump\t// out\n        /* \"#utility.yul\":2091:2230   */\n    tag_188:\n        /* \"#utility.yul\":2137:2142   */\n      0x00\n        /* \"#utility.yul\":2175:2181   */\n      dup2\n        /* \"#utility.yul\":2162:2182   */\n      calldataload\n        /* \"#utility.yul\":2153:2182   */\n      swap1\n      pop\n        /* \"#utility.yul\":2191:2224   */\n      tag_240\n        /* \"#utility.yul\":2218:2223   */\n      dup2\n        /* \"#utility.yul\":2191:2224   */\n      tag_187\n      jump\t// in\n    tag_240:\n        /* \"#utility.yul\":2091:2230   */\n      swap3\n      swap2\n      pop\n      pop\n      jump\t// out\n        /* \"#utility.yul\":2236:2565   */\n    tag_35:\n        /* \"#utility.yul\":2295:2301   */\n      0x00\n        /* \"#utility.yul\":2344:2346   */\n      0x20\n        /* \"#utility.yul\":2332:2341   */\n      dup3\n        /* \"#utility.yul\":2323:2330   */\n      dup5\n        /* \"#utility.yul\":2319:2342   */\n      sub\n        /* \"#utility.yul\":2315:2347   */\n      slt\n        /* \"#utility.yul\":2312:2431   */\n      iszero\n      tag_242\n      jumpi\n        /* \"#utility.yul\":2350:2429   */\n      tag_243\n      tag_178\n      jump\t// in\n    tag_243:\n        /* \"#utility.yul\":2312:2431   */\n    tag_242:\n        /* \"#utility.yul\":2470:2471   */\n      0x00\n        /* \"#utility.yul\":2495:2548   */\n      tag_244\n        /* \"#utility.yul\":2540:2547   */\n      dup5\n        /* \"#utility.yul\":2531:2537   */\n      dup3\n        /* \"#utility.yul\":2520:2529   */\n      dup6\n        /* \"#utility.yul\":2516:2538   */\n      add\n        /* \"#utility.yul\":2495:2548   */\n      tag_188\n      jump\t// in\n    tag_244:\n        /* \"#utility.yul\":2485:2548   */\n      swap2\n      pop\n        /* \"#utility.yul\":2441:2558   */\n      pop\n        /* \"#utility.yul\":2236:2565   */\n      swap3\n      swap2\n      pop\n      pop\n      jump\t// out\n        /* \"#utility.yul\":2571:2661   */\n    tag_189:\n        /* \"#utility.yul\":2605:2612   */\n      0x00\n        /* \"#utility.yul\":2648:2653   */\n      dup2\n        /* \"#utility.yul\":2641:2654   */\n      iszero\n        /* \"#utility.yul\":2634:2655   */\n      iszero\n        /* \"#utility.yul\":2623:2655   */\n      swap1\n      pop\n        /* \"#utility.yul\":2571:2661   */\n      swap2\n      swap1\n      pop\n      jump\t// out\n        /* \"#utility.yul\":2667:2776   */\n    tag_190:\n        /* \"#utility.yul\":2748:2769   */\n      tag_247\n        /* \"#utility.yul\":2763:2768   */\n      dup2\n        /* \"#utility.yul\":2748:2769   */\n      tag_189\n      jump\t// in\n    tag_247:\n        /* \"#utility.yul\":2743:2746   */\n      dup3\n        /* \"#utility.yul\":2736:2770   */\n      mstore\n        /* \"#utility.yul\":2667:2776   */\n      pop\n      pop\n      jump\t// out\n        /* \"#utility.yul\":2782:2992   */\n    tag_38:\n        /* \"#utility.yul\":2869:2873   */\n      0x00\n        /* \"#utility.yul\":2907:2909   */\n      0x20\n        /* \"#utility.yul\":2896:2905   */\n      dup3\n        /* \"#utility.yul\":2892:2910   */\n      add\n        /* \"#utility.yul\":2884:2910   */\n      swap1\n      pop\n        /* \"#utility.yul\":2920:2985   */\n      tag_249\n        /* \"#utility.yul\":2982:2983   */\n      0x00\n        /* \"#utility.yul\":2971:2980   */\n      dup4\n        /* \"#utility.yul\":2967:2984   */\n      add\n        /* \"#utility.yul\":2958:2964   */\n      dup5\n        /* \"#utility.yul\":2920:2985   */\n      tag_190\n      jump\t// in\n    tag_249:\n        /* \"#utility.yul\":2782:2992   */\n      swap3\n      swap2\n      pop\n      pop\n      jump\t// out\n        /* \"#utility.yul\":2998:3472   */\n    tag_42:\n        /* \"#utility.yul\":3066:3072   */\n      0x00\n        /* \"#utility.yul\":3074:3080   */\n      dup1\n        /* \"#utility.yul\":3123:3125   */\n      0x40\n        /* \"#utility.yul\":3111:3120   */\n      dup4\n        /* \"#utility.yul\":3102:3109   */\n      dup6\n        /* \"#utility.yul\":3098:3121   */\n      sub\n        /* \"#utility.yul\":3094:3126   */\n      slt\n        /* \"#utility.yul\":3091:3210   */\n      iszero\n      tag_251\n      jumpi\n        /* \"#utility.yul\":3129:3208   */\n      tag_252\n      tag_178\n      jump\t// in\n    tag_252:\n        /* \"#utility.yul\":3091:3210   */\n    tag_251:\n        /* \"#utility.yul\":3249:3250   */\n      0x00\n        /* \"#utility.yul\":3274:3327   */\n      tag_253\n        /* \"#utility.yul\":3319:3326   */\n      dup6\n        /* \"#utility.yul\":3310:3316   */\n      dup3\n        /* \"#utility.yul\":3299:3308   */\n      dup7\n        /* \"#utility.yul\":3295:3317   */\n      add\n        /* \"#utility.yul\":3274:3327   */\n      tag_182\n      jump\t// in\n    tag_253:\n        /* \"#utility.yul\":3264:3327   */\n      swap3\n      pop\n        /* \"#utility.yul\":3220:3337   */\n      pop\n        /* \"#utility.yul\":3376:3378   */\n      0x20\n        /* \"#utility.yul\":3402:3455   */\n      tag_254\n        /* \"#utility.yul\":3447:3454   */\n      dup6\n        /* \"#utility.yul\":3438:3444   */\n      dup3\n        /* \"#utility.yul\":3427:3436   */\n      dup7\n        /* \"#utility.yul\":3423:3445   */\n      add\n        /* \"#utility.yul\":3402:3455   */\n      tag_188\n      jump\t// in\n    tag_254:\n        /* \"#utility.yul\":3392:3455   */\n      swap2\n      pop\n        /* \"#utility.yul\":3347:3465   */\n      pop\n        /* \"#utility.yul\":2998:3472   */\n      swap3\n      pop\n      swap3\n      swap1\n      pop\n      jump\t// out\n        /* \"#utility.yul\":3478:4019   */\n    tag_50:\n        /* \"#utility.yul\":3649:3653   */\n      0x00\n        /* \"#utility.yul\":3687:3690   */\n      0x80\n        /* \"#utility.yul\":3676:3685   */\n      dup3\n        /* \"#utility.yul\":3672:3691   */\n      add\n        /* \"#utility.yul\":3664:3691   */\n      swap1\n      pop\n        /* \"#utility.yul\":3701:3772   */\n      tag_256\n        /* \"#utility.yul\":3769:3770   */\n      0x00\n        /* \"#utility.yul\":3758:3767   */\n      dup4\n        /* \"#utility.yul\":3754:3771   */\n      add\n        /* \"#utility.yul\":3745:3751   */\n      dup8\n        /* \"#utility.yul\":3701:3772   */\n      tag_185\n      jump\t// in\n    tag_256:\n        /* \"#utility.yul\":3782:3854   */\n      tag_257\n        /* \"#utility.yul\":3850:3852   */\n      0x20\n        /* \"#utility.yul\":3839:3848   */\n      dup4\n        /* \"#utility.yul\":3835:3853   */\n      add\n        /* \"#utility.yul\":3826:3832   */\n      dup7\n        /* \"#utility.yul\":3782:3854   */\n      tag_186\n      jump\t// in\n    tag_257:\n        /* \"#utility.yul\":3864:3930   */\n      tag_258\n        /* \"#utility.yul\":3926:3928   */\n      0x40\n        /* \"#utility.yul\":3915:3924   */\n      dup4\n        /* \"#utility.yul\":3911:3929   */\n      add\n        /* \"#utility.yul\":3902:3908   */\n      dup6\n        /* \"#utility.yul\":3864:3930   */\n      tag_190\n      jump\t// in\n    tag_258:\n        /* \"#utility.yul\":3940:4012   */\n      tag_259\n        /* \"#utility.yul\":4008:4010   */\n      0x60\n        /* \"#utility.yul\":3997:4006   */\n      dup4\n        /* \"#utility.yul\":3993:4011   */\n      add\n        /* \"#utility.yul\":3984:3990   */\n      dup5\n        /* \"#utility.yul\":3940:4012   */\n      tag_186\n      jump\t// in\n    tag_259:\n        /* \"#utility.yul\":3478:4019   */\n      swap6\n      swap5\n      pop\n      pop\n      pop\n      pop\n      pop\n      jump\t// out\n        /* \"#utility.yul\":4025:4499   */\n    tag_67:\n        /* \"#utility.yul\":4093:4099   */\n      0x00\n        /* \"#utility.yul\":4101:4107   */\n      dup1\n        /* \"#utility.yul\":4150:4152   */\n      0x40\n        /* \"#utility.yul\":4138:4147   */\n      dup4\n        /* \"#utility.yul\":4129:4136   */\n      dup6\n        /* \"#utility.yul\":4125:4148   */\n      sub\n        /* \"#utility.yul\":4121:4153   */\n      slt\n        /* \"#utility.yul\":4118:4237   */\n      iszero\n      tag_261\n      jumpi\n        /* \"#utility.yul\":4156:4235   */\n      tag_262\n      tag_178\n      jump\t// in\n    tag_262:\n        /* \"#utility.yul\":4118:4237   */\n    tag_261:\n        /* \"#utility.yul\":4276:4277   */\n      0x00\n        /* \"#utility.yul\":4301:4354   */\n      tag_263\n        /* \"#utility.yul\":4346:4353   */\n      dup6\n        /* \"#utility.yul\":4337:4343   */\n      dup3\n        /* \"#utility.yul\":4326:4335   */\n      dup7\n        /* \"#utility.yul\":4322:4344   */\n      add\n        /* \"#utility.yul\":4301:4354   */\n      tag_188\n      jump\t// in\n    tag_263:\n        /* \"#utility.yul\":4291:4354   */\n      swap3\n      pop\n        /* \"#utility.yul\":4247:4364   */\n      pop\n        /* \"#utility.yul\":4403:4405   */\n      0x20\n        /* \"#utility.yul\":4429:4482   */\n      tag_264\n        /* \"#utility.yul\":4474:4481   */\n      dup6\n        /* \"#utility.yul\":4465:4471   */\n      dup3\n        /* \"#utility.yul\":4454:4463   */\n      dup7\n        /* \"#utility.yul\":4450:4472   */\n      add\n        /* \"#utility.yul\":4429:4482   */\n      tag_188\n      jump\t// in\n    tag_264:\n        /* \"#utility.yul\":4419:4482   */\n      swap2\n      pop\n        /* \"#utility.yul\":4374:4492   */\n      pop\n        /* \"#utility.yul\":4025:4499   */\n      swap3\n      pop\n      swap3\n      swap1\n      pop\n      jump\t// out\n        /* \"#utility.yul\":4505:4979   */\n    tag_77:\n        /* \"#utility.yul\":4573:4579   */\n      0x00\n        /* \"#utility.yul\":4581:4587   */\n      dup1\n        /* \"#utility.yul\":4630:4632   */\n      0x40\n        /* \"#utility.yul\":4618:4627   */\n      dup4\n        /* \"#utility.yul\":4609:4616   */\n      dup6\n        /* \"#utility.yul\":4605:4628   */\n      sub\n        /* \"#utility.yul\":4601:4633   */\n      slt\n        /* \"#utility.yul\":4598:4717   */\n      iszero\n      tag_266\n      jumpi\n        /* \"#utility.yul\":4636:4715   */\n      tag_267\n      tag_178\n      jump\t// in\n    tag_267:\n        /* \"#utility.yul\":4598:4717   */\n    tag_266:\n        /* \"#utility.yul\":4756:4757   */\n      0x00\n        /* \"#utility.yul\":4781:4834   */\n      tag_268\n        /* \"#utility.yul\":4826:4833   */\n      dup6\n        /* \"#utility.yul\":4817:4823   */\n      dup3\n        /* \"#utility.yul\":4806:4815   */\n      dup7\n        /* \"#utility.yul\":4802:4824   */\n      add\n        /* \"#utility.yul\":4781:4834   */\n      tag_188\n      jump\t// in\n    tag_268:\n        /* \"#utility.yul\":4771:4834   */\n      swap3\n      pop\n        /* \"#utility.yul\":4727:4844   */\n      pop\n        /* \"#utility.yul\":4883:4885   */\n      0x20\n        /* \"#utility.yul\":4909:4962   */\n      tag_269\n        /* \"#utility.yul\":4954:4961   */\n      dup6\n        /* \"#utility.yul\":4945:4951   */\n      dup3\n        /* \"#utility.yul\":4934:4943   */\n      dup7\n        /* \"#utility.yul\":4930:4952   */\n      add\n        /* \"#utility.yul\":4909:4962   */\n      tag_182\n      jump\t// in\n    tag_269:\n        /* \"#utility.yul\":4899:4962   */\n      swap2\n      pop\n        /* \"#utility.yul\":4854:4972   */\n      pop\n        /* \"#utility.yul\":4505:4979   */\n      swap3\n      pop\n      swap3\n      swap1\n      pop\n      jump\t// out\n        /* \"#utility.yul\":4985:5154   */\n    tag_191:\n        /* \"#utility.yul\":5069:5080   */\n      0x00\n        /* \"#utility.yul\":5103:5109   */\n      dup3\n        /* \"#utility.yul\":5098:5101   */\n      dup3\n        /* \"#utility.yul\":5091:5110   */\n      mstore\n        /* \"#utility.yul\":5143:5147   */\n      0x20\n        /* \"#utility.yul\":5138:5141   */\n      dup3\n        /* \"#utility.yul\":5134:5148   */\n      add\n        /* \"#utility.yul\":5119:5148   */\n      swap1\n      pop\n        /* \"#utility.yul\":4985:5154   */\n      swap3\n      swap2\n      pop\n      pop\n      jump\t// out\n        /* \"#utility.yul\":5160:5382   */\n    tag_192:\n        /* \"#utility.yul\":5300:5334   */\n      0x596f7572277265206e6f7420616e206f776e6572206f6620746869732077616c\n        /* \"#utility.yul\":5296:5297   */\n      0x00\n        /* \"#utility.yul\":5288:5294   */\n      dup3\n        /* \"#utility.yul\":5284:5298   */\n      add\n        /* \"#utility.yul\":5277:5335   */\n      mstore\n        /* \"#utility.yul\":5369:5374   */\n      0x6c65740000000000000000000000000000000000000000000000000000000000\n        /* \"#utility.yul\":5364:5366   */\n      0x20\n        /* \"#utility.yul\":5356:5362   */\n      dup3\n        /* \"#utility.yul\":5352:5367   */\n      add\n        /* \"#utility.yul\":5345:5375   */\n      mstore\n        /* \"#utility.yul\":5160:5382   */\n      pop\n      jump\t// out\n        /* \"#utility.yul\":5388:5754   */\n    tag_193:\n        /* \"#utility.yul\":5530:5533   */\n      0x00\n        /* \"#utility.yul\":5551:5618   */\n      tag_273\n        /* \"#utility.yul\":5615:5617   */\n      0x23\n        /* \"#utility.yul\":5610:5613   */\n      dup4\n        /* \"#utility.yul\":5551:5618   */\n      tag_191\n      jump\t// in\n    tag_273:\n        /* \"#utility.yul\":5544:5618   */\n      swap2\n      pop\n        /* \"#utility.yul\":5627:5720   */\n      tag_274\n        /* \"#utility.yul\":5716:5719   */\n      dup3\n        /* \"#utility.yul\":5627:5720   */\n      tag_192\n      jump\t// in\n    tag_274:\n        /* \"#utility.yul\":5745:5747   */\n      0x40\n        /* \"#utility.yul\":5740:5743   */\n      dup3\n        /* \"#utility.yul\":5736:5748   */\n      add\n        /* \"#utility.yul\":5729:5748   */\n      swap1\n      pop\n        /* \"#utility.yul\":5388:5754   */\n      swap2\n      swap1\n      pop\n      jump\t// out\n        /* \"#utility.yul\":5760:6179   */\n    tag_94:\n        /* \"#utility.yul\":5926:5930   */\n      0x00\n        /* \"#utility.yul\":5964:5966   */\n      0x20\n        /* \"#utility.yul\":5953:5962   */\n      dup3\n        /* \"#utility.yul\":5949:5967   */\n      add\n        /* \"#utility.yul\":5941:5967   */\n      swap1\n      pop\n        /* \"#utility.yul\":6013:6022   */\n      dup2\n        /* \"#utility.yul\":6007:6011   */\n      dup2\n        /* \"#utility.yul\":6003:6023   */\n      sub\n        /* \"#utility.yul\":5999:6000   */\n      0x00\n        /* \"#utility.yul\":5988:5997   */\n      dup4\n        /* \"#utility.yul\":5984:6001   */\n      add\n        /* \"#utility.yul\":5977:6024   */\n      mstore\n        /* \"#utility.yul\":6041:6172   */\n      tag_276\n        /* \"#utility.yul\":6167:6171   */\n      dup2\n        /* \"#utility.yul\":6041:6172   */\n      tag_193\n      jump\t// in\n    tag_276:\n        /* \"#utility.yul\":6033:6172   */\n      swap1\n      pop\n        /* \"#utility.yul\":5760:6179   */\n      swap2\n      swap1\n      pop\n      jump\t// out\n        /* \"#utility.yul\":6185:6408   */\n    tag_194:\n        /* \"#utility.yul\":6325:6359   */\n      0x596f7527766520616c726561647920766f746564206f6e207468697320616464\n        /* \"#utility.yul\":6321:6322   */\n      0x00\n        /* \"#utility.yul\":6313:6319   */\n      dup3\n        /* \"#utility.yul\":6309:6323   */\n      add\n        /* \"#utility.yul\":6302:6360   */\n      mstore\n        /* \"#utility.yul\":6394:6400   */\n      0x7265737300000000000000000000000000000000000000000000000000000000\n        /* \"#utility.yul\":6389:6391   */\n      0x20\n        /* \"#utility.yul\":6381:6387   */\n      dup3\n        /* \"#utility.yul\":6377:6392   */\n      add\n        /* \"#utility.yul\":6370:6401   */\n      mstore\n        /* \"#utility.yul\":6185:6408   */\n      pop\n      jump\t// out\n        /* \"#utility.yul\":6414:6780   */\n    tag_195:\n        /* \"#utility.yul\":6556:6559   */\n      0x00\n        /* \"#utility.yul\":6577:6644   */\n      tag_279\n        /* \"#utility.yul\":6641:6643   */\n      0x24\n        /* \"#utility.yul\":6636:6639   */\n      dup4\n        /* \"#utility.yul\":6577:6644   */\n      tag_191\n      jump\t// in\n    tag_279:\n        /* \"#utility.yul\":6570:6644   */\n      swap2\n      pop\n        /* \"#utility.yul\":6653:6746   */\n      tag_280\n        /* \"#utility.yul\":6742:6745   */\n      dup3\n        /* \"#utility.yul\":6653:6746   */\n      tag_194\n      jump\t// in\n    tag_280:\n        /* \"#utility.yul\":6771:6773   */\n      0x40\n        /* \"#utility.yul\":6766:6769   */\n      dup3\n        /* \"#utility.yul\":6762:6774   */\n      add\n        /* \"#utility.yul\":6755:6774   */\n      swap1\n      pop\n        /* \"#utility.yul\":6414:6780   */\n      swap2\n      swap1\n      pop\n      jump\t// out\n        /* \"#utility.yul\":6786:7205   */\n    tag_98:\n        /* \"#utility.yul\":6952:6956   */\n      0x00\n        /* \"#utility.yul\":6990:6992   */\n      0x20\n        /* \"#utility.yul\":6979:6988   */\n      dup3\n        /* \"#utility.yul\":6975:6993   */\n      add\n        /* \"#utility.yul\":6967:6993   */\n      swap1\n      pop\n        /* \"#utility.yul\":7039:7048   */\n      dup2\n        /* \"#utility.yul\":7033:7037   */\n      dup2\n        /* \"#utility.yul\":7029:7049   */\n      sub\n        /* \"#utility.yul\":7025:7026   */\n      0x00\n        /* \"#utility.yul\":7014:7023   */\n      dup4\n        /* \"#utility.yul\":7010:7027   */\n      add\n        /* \"#utility.yul\":7003:7050   */\n      mstore\n        /* \"#utility.yul\":7067:7198   */\n      tag_282\n        /* \"#utility.yul\":7193:7197   */\n      dup2\n        /* \"#utility.yul\":7067:7198   */\n      tag_195\n      jump\t// in\n    tag_282:\n        /* \"#utility.yul\":7059:7198   */\n      swap1\n      pop\n        /* \"#utility.yul\":6786:7205   */\n      swap2\n      swap1\n      pop\n      jump\t// out\n        /* \"#utility.yul\":7211:7391   */\n    tag_196:\n        /* \"#utility.yul\":7259:7336   */\n      0x4e487b7100000000000000000000000000000000000000000000000000000000\n        /* \"#utility.yul\":7256:7257   */\n      0x00\n        /* \"#utility.yul\":7249:7337   */\n      mstore\n        /* \"#utility.yul\":7356:7360   */\n      0x11\n        /* \"#utility.yul\":7353:7354   */\n      0x04\n        /* \"#utility.yul\":7346:7361   */\n      mstore\n        /* \"#utility.yul\":7380:7384   */\n      0x24\n        /* \"#utility.yul\":7377:7378   */\n      0x00\n        /* \"#utility.yul\":7370:7385   */\n      revert\n        /* \"#utility.yul\":7397:7702   */\n    tag_100:\n        /* \"#utility.yul\":7437:7440   */\n      0x00\n        /* \"#utility.yul\":7456:7476   */\n      tag_285\n        /* \"#utility.yul\":7474:7475   */\n      dup3\n        /* \"#utility.yul\":7456:7476   */\n      tag_180\n      jump\t// in\n    tag_285:\n        /* \"#utility.yul\":7451:7476   */\n      swap2\n      pop\n        /* \"#utility.yul\":7490:7510   */\n      tag_286\n        /* \"#utility.yul\":7508:7509   */\n      dup4\n        /* \"#utility.yul\":7490:7510   */\n      tag_180\n      jump\t// in\n    tag_286:\n        /* \"#utility.yul\":7485:7510   */\n      swap3\n      pop\n        /* \"#utility.yul\":7644:7645   */\n      dup3\n        /* \"#utility.yul\":7576:7642   */\n      0xffffffffffffffffffffffffffffffffffffffffffffffffffffffffffffffff\n        /* \"#utility.yul\":7572:7646   */\n      sub\n        /* \"#utility.yul\":7569:7570   */\n      dup3\n        /* \"#utility.yul\":7566:7647   */\n      gt\n        /* \"#utility.yul\":7563:7670   */\n      iszero\n      tag_287\n      jumpi\n        /* \"#utility.yul\":7650:7668   */\n      tag_288\n      tag_196\n      jump\t// in\n    tag_288:\n        /* \"#utility.yul\":7563:7670   */\n    tag_287:\n        /* \"#utility.yul\":7694:7695   */\n      dup3\n        /* \"#utility.yul\":7691:7692   */\n      dup3\n        /* \"#utility.yul\":7687:7696   */\n      add\n        /* \"#utility.yul\":7680:7696   */\n      swap1\n      pop\n        /* \"#utility.yul\":7397:7702   */\n      swap3\n      swap2\n      pop\n      pop\n      jump\t// out\n        /* \"#utility.yul\":7708:7888   */\n    tag_197:\n        /* \"#utility.yul\":7756:7833   */\n      0x4e487b7100000000000000000000000000000000000000000000000000000000\n        /* \"#utility.yul\":7753:7754   */\n      0x00\n        /* \"#utility.yul\":7746:7834   */\n      mstore\n        /* \"#utility.yul\":7853:7857   */\n      0x12\n        /* \"#utility.yul\":7850:7851   */\n      0x04\n        /* \"#utility.yul\":7843:7858   */\n      mstore\n        /* \"#utility.yul\":7877:7881   */\n      0x24\n        /* \"#utility.yul\":7874:7875   */\n      0x00\n        /* \"#utility.yul\":7867:7882   */\n      revert\n        /* \"#utility.yul\":7894:8070   */\n    tag_103:\n        /* \"#utility.yul\":7926:7927   */\n      0x00\n        /* \"#utility.yul\":7943:7963   */\n      tag_291\n        /* \"#utility.yul\":7961:7962   */\n      dup3\n        /* \"#utility.yul\":7943:7963   */\n      tag_180\n      jump\t// in\n    tag_291:\n        /* \"#utility.yul\":7938:7963   */\n      swap2\n      pop\n        /* \"#utility.yul\":7977:7997   */\n      tag_292\n        /* \"#utility.yul\":7995:7996   */\n      dup4\n        /* \"#utility.yul\":7977:7997   */\n      tag_180\n      jump\t// in\n    tag_292:\n        /* \"#utility.yul\":7972:7997   */\n      swap3\n      pop\n        /* \"#utility.yul\":8016:8017   */\n      dup3\n        /* \"#utility.yul\":8006:8041   */\n      tag_293\n      jumpi\n        /* \"#utility.yul\":8021:8039   */\n      tag_294\n      tag_197\n      jump\t// in\n    tag_294:\n        /* \"#utility.yul\":8006:8041   */\n    tag_293:\n        /* \"#utility.yul\":8062:8063   */\n      dup3\n        /* \"#utility.yul\":8059:8060   */\n      dup3\n        /* \"#utility.yul\":8055:8064   */\n      mod\n        /* \"#utility.yul\":8050:8064   */\n      swap1\n      pop\n        /* \"#utility.yul\":7894:8070   */\n      swap3\n      swap2\n      pop\n      pop\n      jump\t// out\n        /* \"#utility.yul\":8076:8261   */\n    tag_106:\n        /* \"#utility.yul\":8116:8117   */\n      0x00\n        /* \"#utility.yul\":8133:8153   */\n      tag_296\n        /* \"#utility.yul\":8151:8152   */\n      dup3\n        /* \"#utility.yul\":8133:8153   */\n      tag_180\n      jump\t// in\n    tag_296:\n        /* \"#utility.yul\":8128:8153   */\n      swap2\n      pop\n        /* \"#utility.yul\":8167:8187   */\n      tag_297\n        /* \"#utility.yul\":8185:8186   */\n      dup4\n        /* \"#utility.yul\":8167:8187   */\n      tag_180\n      jump\t// in\n    tag_297:\n        /* \"#utility.yul\":8162:8187   */\n      swap3\n      pop\n        /* \"#utility.yul\":8206:8207   */\n      dup3\n        /* \"#utility.yul\":8196:8231   */\n      tag_298\n      jumpi\n        /* \"#utility.yul\":8211:8229   */\n      tag_299\n      tag_197\n      jump\t// in\n    tag_299:\n        /* \"#utility.yul\":8196:8231   */\n    tag_298:\n        /* \"#utility.yul\":8253:8254   */\n      dup3\n        /* \"#utility.yul\":8250:8251   */\n      dup3\n        /* \"#utility.yul\":8246:8255   */\n      div\n        /* \"#utility.yul\":8241:8255   */\n      swap1\n      pop\n        /* \"#utility.yul\":8076:8261   */\n      swap3\n      swap2\n      pop\n      pop\n      jump\t// out\n        /* \"#utility.yul\":8267:8437   */\n    tag_198:\n        /* \"#utility.yul\":8407:8429   */\n      0x596f7527766520616c726561647920766f746564000000000000000000000000\n        /* \"#utility.yul\":8403:8404   */\n      0x00\n        /* \"#utility.yul\":8395:8401   */\n      dup3\n        /* \"#utility.yul\":8391:8405   */\n      add\n        /* \"#utility.yul\":8384:8430   */\n      mstore\n        /* \"#utility.yul\":8267:8437   */\n      pop\n      jump\t// out\n        /* \"#utility.yul\":8443:8809   */\n    tag_199:\n        /* \"#utility.yul\":8585:8588   */\n      0x00\n        /* \"#utility.yul\":8606:8673   */\n      tag_302\n        /* \"#utility.yul\":8670:8672   */\n      0x14\n        /* \"#utility.yul\":8665:8668   */\n      dup4\n        /* \"#utility.yul\":8606:8673   */\n      tag_191\n      jump\t// in\n    tag_302:\n        /* \"#utility.yul\":8599:8673   */\n      swap2\n      pop\n        /* \"#utility.yul\":8682:8775   */\n      tag_303\n        /* \"#utility.yul\":8771:8774   */\n      dup3\n        /* \"#utility.yul\":8682:8775   */\n      tag_198\n      jump\t// in\n    tag_303:\n        /* \"#utility.yul\":8800:8802   */\n      0x20\n        /* \"#utility.yul\":8795:8798   */\n      dup3\n        /* \"#utility.yul\":8791:8803   */\n      add\n        /* \"#utility.yul\":8784:8803   */\n      swap1\n      pop\n        /* \"#utility.yul\":8443:8809   */\n      swap2\n      swap1\n      pop\n      jump\t// out\n        /* \"#utility.yul\":8815:9234   */\n    tag_120:\n        /* \"#utility.yul\":8981:8985   */\n      0x00\n        /* \"#utility.yul\":9019:9021   */\n      0x20\n        /* \"#utility.yul\":9008:9017   */\n      dup3\n        /* \"#utility.yul\":9004:9022   */\n      add\n        /* \"#utility.yul\":8996:9022   */\n      swap1\n      pop\n        /* \"#utility.yul\":9068:9077   */\n      dup2\n        /* \"#utility.yul\":9062:9066   */\n      dup2\n        /* \"#utility.yul\":9058:9078   */\n      sub\n        /* \"#utility.yul\":9054:9055   */\n      0x00\n        /* \"#utility.yul\":9043:9052   */\n      dup4\n        /* \"#utility.yul\":9039:9056   */\n      add\n        /* \"#utility.yul\":9032:9079   */\n      mstore\n        /* \"#utility.yul\":9096:9227   */\n      tag_305\n        /* \"#utility.yul\":9222:9226   */\n      dup2\n        /* \"#utility.yul\":9096:9227   */\n      tag_199\n      jump\t// in\n    tag_305:\n        /* \"#utility.yul\":9088:9227   */\n      swap1\n      pop\n        /* \"#utility.yul\":8815:9234   */\n      swap2\n      swap1\n      pop\n      jump\t// out\n        /* \"#utility.yul\":9240:9420   */\n    tag_123:\n        /* \"#utility.yul\":9288:9365   */\n      0x4e487b7100000000000000000000000000000000000000000000000000000000\n        /* \"#utility.yul\":9285:9286   */\n      0x00\n        /* \"#utility.yul\":9278:9366   */\n      mstore\n        /* \"#utility.yul\":9385:9389   */\n      0x32\n        /* \"#utility.yul\":9382:9383   */\n      0x04\n        /* \"#utility.yul\":9375:9390   */\n      mstore\n        /* \"#utility.yul\":9409:9413   */\n      0x24\n        /* \"#utility.yul\":9406:9407   */\n      0x00\n        /* \"#utility.yul\":9399:9414   */\n      revert\n        /* \"#utility.yul\":9426:9596   */\n    tag_200:\n        /* \"#utility.yul\":9566:9588   */\n      0x4e6f7420656e6f75676820617070726f76616c73000000000000000000000000\n        /* \"#utility.yul\":9562:9563   */\n      0x00\n        /* \"#utility.yul\":9554:9560   */\n      dup3\n        /* \"#utility.yul\":9550:9564   */\n      add\n        /* \"#utility.yul\":9543:9589   */\n      mstore\n        /* \"#utility.yul\":9426:9596   */\n      pop\n      jump\t// out\n        /* \"#utility.yul\":9602:9968   */\n    tag_201:\n        /* \"#utility.yul\":9744:9747   */\n      0x00\n        /* \"#utility.yul\":9765:9832   */\n      tag_309\n        /* \"#utility.yul\":9829:9831   */\n      0x14\n        /* \"#utility.yul\":9824:9827   */\n      dup4\n        /* \"#utility.yul\":9765:9832   */\n      tag_191\n      jump\t// in\n    tag_309:\n        /* \"#utility.yul\":9758:9832   */\n      swap2\n      pop\n        /* \"#utility.yul\":9841:9934   */\n      tag_310\n        /* \"#utility.yul\":9930:9933   */\n      dup3\n        /* \"#utility.yul\":9841:9934   */\n      tag_200\n      jump\t// in\n    tag_310:\n        /* \"#utility.yul\":9959:9961   */\n      0x20\n        /* \"#utility.yul\":9954:9957   */\n      dup3\n        /* \"#utility.yul\":9950:9962   */\n      add\n        /* \"#utility.yul\":9943:9962   */\n      swap1\n      pop\n        /* \"#utility.yul\":9602:9968   */\n      swap2\n      swap1\n      pop\n      jump\t// out\n        /* \"#utility.yul\":9974:10393   */\n    tag_135:\n        /* \"#utility.yul\":10140:10144   */\n      0x00\n        /* \"#utility.yul\":10178:10180   */\n      0x20\n        /* \"#utility.yul\":10167:10176   */\n      dup3\n        /* \"#utility.yul\":10163:10181   */\n      add\n        /* \"#utility.yul\":10155:10181   */\n      swap1\n      pop\n        /* \"#utility.yul\":10227:10236   */\n      dup2\n        /* \"#utility.yul\":10221:10225   */\n      dup2\n        /* \"#utility.yul\":10217:10237   */\n      sub\n        /* \"#utility.yul\":10213:10214   */\n      0x00\n        /* \"#utility.yul\":10202:10211   */\n      dup4\n        /* \"#utility.yul\":10198:10215   */\n      add\n        /* \"#utility.yul\":10191:10238   */\n      mstore\n        /* \"#utility.yul\":10255:10386   */\n      tag_312\n        /* \"#utility.yul\":10381:10385   */\n      dup2\n        /* \"#utility.yul\":10255:10386   */\n      tag_201\n      jump\t// in\n    tag_312:\n        /* \"#utility.yul\":10247:10386   */\n      swap1\n      pop\n        /* \"#utility.yul\":9974:10393   */\n      swap2\n      swap1\n      pop\n      jump\t// out\n        /* \"#utility.yul\":10399:10562   */\n    tag_202:\n        /* \"#utility.yul\":10539:10554   */\n      0x416c726561647920766f74656400000000000000000000000000000000000000\n        /* \"#utility.yul\":10535:10536   */\n      0x00\n        /* \"#utility.yul\":10527:10533   */\n      dup3\n        /* \"#utility.yul\":10523:10537   */\n      add\n        /* \"#utility.yul\":10516:10555   */\n      mstore\n        /* \"#utility.yul\":10399:10562   */\n      pop\n      jump\t// out\n        /* \"#utility.yul\":10568:10934   */\n    tag_203:\n        /* \"#utility.yul\":10710:10713   */\n      0x00\n        /* \"#utility.yul\":10731:10798   */\n      tag_315\n        /* \"#utility.yul\":10795:10797   */\n      0x0d\n        /* \"#utility.yul\":10790:10793   */\n      dup4\n        /* \"#utility.yul\":10731:10798   */\n      tag_191\n      jump\t// in\n    tag_315:\n        /* \"#utility.yul\":10724:10798   */\n      swap2\n      pop\n        /* \"#utility.yul\":10807:10900   */\n      tag_316\n        /* \"#utility.yul\":10896:10899   */\n      dup3\n        /* \"#utility.yul\":10807:10900   */\n      tag_202\n      jump\t// in\n    tag_316:\n        /* \"#utility.yul\":10925:10927   */\n      0x20\n        /* \"#utility.yul\":10920:10923   */\n      dup3\n        /* \"#utility.yul\":10916:10928   */\n      add\n        /* \"#utility.yul\":10909:10928   */\n      swap1\n      pop\n        /* \"#utility.yul\":10568:10934   */\n      swap2\n      swap1\n      pop\n      jump\t// out\n        /* \"#utility.yul\":10940:11359   */\n    tag_141:\n        /* \"#utility.yul\":11106:11110   */\n      0x00\n        /* \"#utility.yul\":11144:11146   */\n      0x20\n        /* \"#utility.yul\":11133:11142   */\n      dup3\n        /* \"#utility.yul\":11129:11147   */\n      add\n        /* \"#utility.yul\":11121:11147   */\n      swap1\n      pop\n        /* \"#utility.yul\":11193:11202   */\n      dup2\n        /* \"#utility.yul\":11187:11191   */\n      dup2\n        /* \"#utility.yul\":11183:11203   */\n      sub\n        /* \"#utility.yul\":11179:11180   */\n      0x00\n        /* \"#utility.yul\":11168:11177   */\n      dup4\n        /* \"#utility.yul\":11164:11181   */\n      add\n        /* \"#utility.yul\":11157:11204   */\n      mstore\n        /* \"#utility.yul\":11221:11352   */\n      tag_318\n        /* \"#utility.yul\":11347:11351   */\n      dup2\n        /* \"#utility.yul\":11221:11352   */\n      tag_203\n      jump\t// in\n    tag_318:\n        /* \"#utility.yul\":11213:11352   */\n      swap1\n      pop\n        /* \"#utility.yul\":10940:11359   */\n      swap2\n      swap1\n      pop\n      jump\t// out\n        /* \"#utility.yul\":11365:11512   */\n    tag_204:\n        /* \"#utility.yul\":11466:11477   */\n      0x00\n        /* \"#utility.yul\":11503:11506   */\n      dup2\n        /* \"#utility.yul\":11488:11506   */\n      swap1\n      pop\n        /* \"#utility.yul\":11365:11512   */\n      swap3\n      swap2\n      pop\n      pop\n      jump\t// out\n        /* \"#utility.yul\":11518:11632   */\n    tag_205:\n      pop\n      jump\t// out\n        /* \"#utility.yul\":11638:12036   */\n    tag_206:\n        /* \"#utility.yul\":11797:11800   */\n      0x00\n        /* \"#utility.yul\":11818:11901   */\n      tag_322\n        /* \"#utility.yul\":11899:11900   */\n      0x00\n        /* \"#utility.yul\":11894:11897   */\n      dup4\n        /* \"#utility.yul\":11818:11901   */\n      tag_204\n      jump\t// in\n    tag_322:\n        /* \"#utility.yul\":11811:11901   */\n      swap2\n      pop\n        /* \"#utility.yul\":11910:12003   */\n      tag_323\n        /* \"#utility.yul\":11999:12002   */\n      dup3\n        /* \"#utility.yul\":11910:12003   */\n      tag_205\n      jump\t// in\n    tag_323:\n        /* \"#utility.yul\":12028:12029   */\n      0x00\n        /* \"#utility.yul\":12023:12026   */\n      dup3\n        /* \"#utility.yul\":12019:12030   */\n      add\n        /* \"#utility.yul\":12012:12030   */\n      swap1\n      pop\n        /* \"#utility.yul\":11638:12036   */\n      swap2\n      swap1\n      pop\n      jump\t// out\n        /* \"#utility.yul\":12042:12421   */\n    tag_149:\n        /* \"#utility.yul\":12226:12229   */\n      0x00\n        /* \"#utility.yul\":12248:12395   */\n      tag_325\n        /* \"#utility.yul\":12391:12394   */\n      dup3\n        /* \"#utility.yul\":12248:12395   */\n      tag_206\n      jump\t// in\n    tag_325:\n        /* \"#utility.yul\":12241:12395   */\n      swap2\n      pop\n        /* \"#utility.yul\":12412:12415   */\n      dup2\n        /* \"#utility.yul\":12405:12415   */\n      swap1\n      pop\n        /* \"#utility.yul\":12042:12421   */\n      swap2\n      swap1\n      pop\n      jump\t// out\n        /* \"#utility.yul\":12427:12605   */\n    tag_207:\n        /* \"#utility.yul\":12567:12597   */\n      0x596f7520646f6e2774206861766520656e6f75676820746f6b656e7300000000\n        /* \"#utility.yul\":12563:12564   */\n      0x00\n        /* \"#utility.yul\":12555:12561   */\n      dup3\n        /* \"#utility.yul\":12551:12565   */\n      add\n        /* \"#utility.yul\":12544:12598   */\n      mstore\n        /* \"#utility.yul\":12427:12605   */\n      pop\n      jump\t// out\n        /* \"#utility.yul\":12611:12977   */\n    tag_208:\n        /* \"#utility.yul\":12753:12756   */\n      0x00\n        /* \"#utility.yul\":12774:12841   */\n      tag_328\n        /* \"#utility.yul\":12838:12840   */\n      0x1c\n        /* \"#utility.yul\":12833:12836   */\n      dup4\n        /* \"#utility.yul\":12774:12841   */\n      tag_191\n      jump\t// in\n    tag_328:\n        /* \"#utility.yul\":12767:12841   */\n      swap2\n      pop\n        /* \"#utility.yul\":12850:12943   */\n      tag_329\n        /* \"#utility.yul\":12939:12942   */\n      dup3\n        /* \"#utility.yul\":12850:12943   */\n      tag_207\n      jump\t// in\n    tag_329:\n        /* \"#utility.yul\":12968:12970   */\n      0x20\n        /* \"#utility.yul\":12963:12966   */\n      dup3\n        /* \"#utility.yul\":12959:12971   */\n      add\n        /* \"#utility.yul\":12952:12971   */\n      swap1\n      pop\n        /* \"#utility.yul\":12611:12977   */\n      swap2\n      swap1\n      pop\n      jump\t// out\n        /* \"#utility.yul\":12983:13402   */\n    tag_155:\n        /* \"#utility.yul\":13149:13153   */\n      0x00\n        /* \"#utility.yul\":13187:13189   */\n      0x20\n        /* \"#utility.yul\":13176:13185   */\n      dup3\n        /* \"#utility.yul\":13172:13190   */\n      add\n        /* \"#utility.yul\":13164:13190   */\n      swap1\n      pop\n        /* \"#utility.yul\":13236:13245   */\n      dup2\n        /* \"#utility.yul\":13230:13234   */\n      dup2\n        /* \"#utility.yul\":13226:13246   */\n      sub\n        /* \"#utility.yul\":13222:13223   */\n      0x00\n        /* \"#utility.yul\":13211:13220   */\n      dup4\n        /* \"#utility.yul\":13207:13224   */\n      add\n        /* \"#utility.yul\":13200:13247   */\n      mstore\n        /* \"#utility.yul\":13264:13395   */\n      tag_331\n        /* \"#utility.yul\":13390:13394   */\n      dup2\n        /* \"#utility.yul\":13264:13395   */\n      tag_208\n      jump\t// in\n    tag_331:\n        /* \"#utility.yul\":13256:13395   */\n      swap1\n      pop\n        /* \"#utility.yul\":12983:13402   */\n      swap2\n      swap1\n      pop\n      jump\t// out\n        /* \"#utility.yul\":13408:13579   */\n    tag_209:\n        /* \"#utility.yul\":13548:13571   */\n      0x596f7520686176656e277420766f746564207965740000000000000000000000\n        /* \"#utility.yul\":13544:13545   */\n      0x00\n        /* \"#utility.yul\":13536:13542   */\n      dup3\n        /* \"#utility.yul\":13532:13546   */\n      add\n        /* \"#utility.yul\":13525:13572   */\n      mstore\n        /* \"#utility.yul\":13408:13579   */\n      pop\n      jump\t// out\n        /* \"#utility.yul\":13585:13951   */\n    tag_210:\n        /* \"#utility.yul\":13727:13730   */\n      0x00\n        /* \"#utility.yul\":13748:13815   */\n      tag_334\n        /* \"#utility.yul\":13812:13814   */\n      0x15\n        /* \"#utility.yul\":13807:13810   */\n      dup4\n        /* \"#utility.yul\":13748:13815   */\n      tag_191\n      jump\t// in\n    tag_334:\n        /* \"#utility.yul\":13741:13815   */\n      swap2\n      pop\n        /* \"#utility.yul\":13824:13917   */\n      tag_335\n        /* \"#utility.yul\":13913:13916   */\n      dup3\n        /* \"#utility.yul\":13824:13917   */\n      tag_209\n      jump\t// in\n    tag_335:\n        /* \"#utility.yul\":13942:13944   */\n      0x20\n        /* \"#utility.yul\":13937:13940   */\n      dup3\n        /* \"#utility.yul\":13933:13945   */\n      add\n        /* \"#utility.yul\":13926:13945   */\n      swap1\n      pop\n        /* \"#utility.yul\":13585:13951   */\n      swap2\n      swap1\n      pop\n      jump\t// out\n        /* \"#utility.yul\":13957:14376   */\n    tag_171:\n        /* \"#utility.yul\":14123:14127   */\n      0x00\n        /* \"#utility.yul\":14161:14163   */\n      0x20\n        /* \"#utility.yul\":14150:14159   */\n      dup3\n        /* \"#utility.yul\":14146:14164   */\n      add\n        /* \"#utility.yul\":14138:14164   */\n      swap1\n      pop\n        /* \"#utility.yul\":14210:14219   */\n      dup2\n        /* \"#utility.yul\":14204:14208   */\n      dup2\n        /* \"#utility.yul\":14200:14220   */\n      sub\n        /* \"#utility.yul\":14196:14197   */\n      0x00\n        /* \"#utility.yul\":14185:14194   */\n      dup4\n        /* \"#utility.yul\":14181:14198   */\n      add\n        /* \"#utility.yul\":14174:14221   */\n      mstore\n        /* \"#utility.yul\":14238:14369   */\n      tag_337\n        /* \"#utility.yul\":14364:14368   */\n      dup2\n        /* \"#utility.yul\":14238:14369   */\n      tag_210\n      jump\t// in\n    tag_337:\n        /* \"#utility.yul\":14230:14369   */\n      swap1\n      pop\n        /* \"#utility.yul\":13957:14376   */\n      swap2\n      swap1\n      pop\n      jump\t// out\n        /* \"#utility.yul\":14382:14573   */\n    tag_176:\n        /* \"#utility.yul\":14422:14426   */\n      0x00\n        /* \"#utility.yul\":14442:14462   */\n      tag_339\n        /* \"#utility.yul\":14460:14461   */\n      dup3\n        /* \"#utility.yul\":14442:14462   */\n      tag_180\n      jump\t// in\n    tag_339:\n        /* \"#utility.yul\":14437:14462   */\n      swap2\n      pop\n        /* \"#utility.yul\":14476:14496   */\n      tag_340\n        /* \"#utility.yul\":14494:14495   */\n      dup4\n        /* \"#utility.yul\":14476:14496   */\n      tag_180\n      jump\t// in\n    tag_340:\n        /* \"#utility.yul\":14471:14496   */\n      swap3\n      pop\n        /* \"#utility.yul\":14515:14516   */\n      dup3\n        /* \"#utility.yul\":14512:14513   */\n      dup3\n        /* \"#utility.yul\":14509:14517   */\n      lt\n        /* \"#utility.yul\":14506:14540   */\n      iszero\n      tag_341\n      jumpi\n        /* \"#utility.yul\":14520:14538   */\n      tag_342\n      tag_196\n      jump\t// in\n    tag_342:\n        /* \"#utility.yul\":14506:14540   */\n    tag_341:\n        /* \"#utility.yul\":14565:14566   */\n      dup3\n        /* \"#utility.yul\":14562:14563   */\n      dup3\n        /* \"#utility.yul\":14558:14567   */\n      sub\n        /* \"#utility.yul\":14550:14567   */\n      swap1\n      pop\n        /* \"#utility.yul\":14382:14573   */\n      swap3\n      swap2\n      pop\n      pop\n      jump\t// out\n\n    auxdata: 0xa2646970667358221220a994776626b9ce3e6f5183c5378bd7ccac52a1b07e90d91629e0a2b4af0a581b64736f6c634300080d0033\n}\n",
				"bytecode": {
					"linkReferences": {},
					"object": "6080604052600260015534801561001557600080fd5b506000339080600181540180825580915050600190039060005260206000200160009091909190916101000a81548173ffffffffffffffffffffffffffffffffffffffff021916908373ffffffffffffffffffffffffffffffffffffffff1602179055506001600260003373ffffffffffffffffffffffffffffffffffffffff1673ffffffffffffffffffffffffffffffffffffffff16815260200190815260200160002060006101000a81548160ff021916908315150217905550600073ab8483f64d9c6d1ecf9b849ae677dd3315835cb29080600181540180825580915050600190039060005260206000200160009091909190916101000a81548173ffffffffffffffffffffffffffffffffffffffff021916908373ffffffffffffffffffffffffffffffffffffffff16021790555060016002600073ab8483f64d9c6d1ecf9b849ae677dd3315835cb273ffffffffffffffffffffffffffffffffffffffff1673ffffffffffffffffffffffffffffffffffffffff16815260200190815260200160002060006101000a81548160ff021916908315150217905550611933806101c36000396000f3fe6080604052600436106100c65760003560e01c8063b5e8d4b11161007f578063ee22610b11610059578063ee22610b146102c0578063f19a6682146102e9578063f5358aa814610312578063f9a7c0b11461033d576100cd565b8063b5e8d4b114610231578063d579b6961461025a578063e88aca4014610283576100cd565b8063025e7c27146100d25780633349a7341461010f57806351f22a721461013a57806360c8b28d146101775780639ace38c2146101b4578063b10f8b69146101f4576100cd565b366100cd57005b600080fd5b3480156100de57600080fd5b506100f960048036038101906100f491906111a6565b610366565b6040516101069190611214565b60405180910390f35b34801561011b57600080fd5b506101246103a5565b604051610131919061123e565b60405180910390f35b34801561014657600080fd5b50610161600480360381019061015c9190611285565b6103ab565b60405161016e91906112cd565b60405180910390f35b34801561018357600080fd5b5061019e600480360381019061019991906112e8565b6103cb565b6040516101ab91906112cd565b60405180910390f35b3480156101c057600080fd5b506101db60048036038101906101d691906111a6565b6103fa565b6040516101eb9493929190611328565b60405180910390f35b34801561020057600080fd5b5061021b60048036038101906102169190611285565b610467565b604051610228919061123e565b60405180910390f35b34801561023d57600080fd5b5061025860048036038101906102539190611285565b61047f565b005b34801561026657600080fd5b50610281600480360381019061027c91906111a6565b61091d565b005b34801561028f57600080fd5b506102aa60048036038101906102a5919061136d565b610afd565b6040516102b791906112cd565b60405180910390f35b3480156102cc57600080fd5b506102e760048036038101906102e291906111a6565b610b2c565b005b3480156102f557600080fd5b50610310600480360381019061030b91906113ad565b610e05565b005b34801561031e57600080fd5b50610327610f7f565b604051610334919061123e565b60405180910390f35b34801561034957600080fd5b50610364600480360381019061035f91906111a6565b610f8b565b005b6000818154811061037657600080fd5b906000526020600020016000915054906101000a900473ffffffffffffffffffffffffffffffffffffffff1681565b60015481565b60026020528060005260406000206000915054906101000a900460ff1681565b60036020528160005260406000206020528060005260406000206000915091509054906101000a900460ff1681565b6004818154811061040a57600080fd5b90600052602060002090600402016000915090508060000160009054906101000a900473ffffffffffffffffffffffffffffffffffffffff16908060010154908060020160009054906101000a900460ff16908060030154905084565b60056020528060005260406000206000915090505481565b60011515600260003373ffffffffffffffffffffffffffffffffffffffff1673ffffffffffffffffffffffffffffffffffffffff16815260200190815260200160002060009054906101000a900460ff16151514610512576040517f08c379a000000000000000000000000000000000000000000000000000000000815260040161050990611470565b60405180910390fd5b60001515600660008373ffffffffffffffffffffffffffffffffffffffff1673ffffffffffffffffffffffffffffffffffffffff16815260200190815260200160002060003373ffffffffffffffffffffffffffffffffffffffff1673ffffffffffffffffffffffffffffffffffffffff16815260200190815260200160002060009054906101000a900460ff161515146105e2576040517f08c379a00000000000000000000000000000000000000000000000000000000081526004016105d990611502565b60405180910390fd5b6001600560008373ffffffffffffffffffffffffffffffffffffffff1673ffffffffffffffffffffffffffffffffffffffff16815260200190815260200160002060008282546106329190611551565b925050819055506001600660008373ffffffffffffffffffffffffffffffffffffffff1673ffffffffffffffffffffffffffffffffffffffff16815260200190815260200160002060003373ffffffffffffffffffffffffffffffffffffffff1673ffffffffffffffffffffffffffffffffffffffff16815260200190815260200160002060006101000a81548160ff021916908315150217905550600154600560008373ffffffffffffffffffffffffffffffffffffffff1673ffffffffffffffffffffffffffffffffffffffff168152602001908152602001600020541061091a576000600260008054905061072a91906115d6565b036108205760026000805490506107419190611607565b6001819055506000819080600181540180825580915050600190039060005260206000200160009091909190916101000a81548173ffffffffffffffffffffffffffffffffffffffff021916908373ffffffffffffffffffffffffffffffffffffffff1602179055506001600260008373ffffffffffffffffffffffffffffffffffffffff1673ffffffffffffffffffffffffffffffffffffffff16815260200190815260200160002060006101000a81548160ff02191690831515021790555060018060008282546108149190611551565b92505081905550610919565b600260016000805490506108349190611551565b61083e9190611607565b6001819055506000819080600181540180825580915050600190039060005260206000200160009091909190916101000a81548173ffffffffffffffffffffffffffffffffffffffff021916908373ffffffffffffffffffffffffffffffffffffffff1602179055506001600260008373ffffffffffffffffffffffffffffffffffffffff1673ffffffffffffffffffffffffffffffffffffffff16815260200190815260200160002060006101000a81548160ff02191690831515021790555060018060008282546109119190611551565b925050819055505b5b50565b60011515600260003373ffffffffffffffffffffffffffffffffffffffff1673ffffffffffffffffffffffffffffffffffffffff16815260200190815260200160002060009054906101000a900460ff161515146109b0576040517f08c379a00000000000000000000000000000000000000000000000000000000081526004016109a790611470565b60405180910390fd5b600015156003600083815260200190815260200160002060003373ffffffffffffffffffffffffffffffffffffffff1673ffffffffffffffffffffffffffffffffffffffff16815260200190815260200160002060009054906101000a900460ff16151514610a54576040517f08c379a0000000000000000000000000000000000000000000000000000000008152600401610a4b90611684565b60405180910390fd5b600160048281548110610a6a57610a696116a4565b5b90600052602060002090600402016003016000828254610a8a9190611551565b9250508190555060016003600083815260200190815260200160002060003373ffffffffffffffffffffffffffffffffffffffff1673ffffffffffffffffffffffffffffffffffffffff16815260200190815260200160002060006101000a81548160ff02191690831515021790555050565b60066020528160005260406000206020528060005260406000206000915091509054906101000a900460ff1681565b60011515600260003373ffffffffffffffffffffffffffffffffffffffff1673ffffffffffffffffffffffffffffffffffffffff16815260200190815260200160002060009054906101000a900460ff16151514610bbf576040517f08c379a0000000000000000000000000000000000000000000000000000000008152600401610bb690611470565b60405180910390fd5b60015460048281548110610bd657610bd56116a4565b5b9060005260206000209060040201600301541015610c29576040517f08c379a0000000000000000000000000000000000000000000000000000000008152600401610c209061171f565b60405180910390fd5b6000151560048281548110610c4157610c406116a4565b5b906000526020600020906004020160020160009054906101000a900460ff16151514610ca2576040517f08c379a0000000000000000000000000000000000000000000000000000000008152600401610c999061178b565b60405180910390fd5b600060048281548110610cb857610cb76116a4565b5b906000526020600020906004020160000160009054906101000a900473ffffffffffffffffffffffffffffffffffffffff16905060008173ffffffffffffffffffffffffffffffffffffffff1660048481548110610d1957610d186116a4565b5b90600052602060002090600402016001015461138890604051610d3b906117dc565b600060405180830381858888f193505050503d8060008114610d79576040519150601f19603f3d011682016040523d82523d6000602084013e610d7e565b606091505b5050905080610dc2576040517f08c379a0000000000000000000000000000000000000000000000000000000008152600401610db99061183d565b60405180910390fd5b600160048481548110610dd857610dd76116a4565b5b906000526020600020906004020160020160006101000a81548160ff021916908315150217905550505050565b60011515600260003373ffffffffffffffffffffffffffffffffffffffff1673ffffffffffffffffffffffffffffffffffffffff16815260200190815260200160002060009054906101000a900460ff16151514610e98576040517f08c379a0000000000000000000000000000000000000000000000000000000008152600401610e8f90611470565b60405180910390fd5b600460405180608001604052808473ffffffffffffffffffffffffffffffffffffffff1681526020018381526020016000151581526020016000815250908060018154018082558091505060019003906000526020600020906004020160009091909190915060008201518160000160006101000a81548173ffffffffffffffffffffffffffffffffffffffff021916908373ffffffffffffffffffffffffffffffffffffffff1602179055506020820151816001015560408201518160020160006101000a81548160ff0219169083151502179055506060820151816003015550505050565b60008080549050905090565b60011515600260003373ffffffffffffffffffffffffffffffffffffffff1673ffffffffffffffffffffffffffffffffffffffff16815260200190815260200160002060009054906101000a900460ff1615151461101e576040517f08c379a000000000000000000000000000000000000000000000000000000000815260040161101590611470565b60405180910390fd5b600115156003600083815260200190815260200160002060003373ffffffffffffffffffffffffffffffffffffffff1673ffffffffffffffffffffffffffffffffffffffff16815260200190815260200160002060009054906101000a900460ff161515146110c2576040517f08c379a00000000000000000000000000000000000000000000000000000000081526004016110b9906118a9565b60405180910390fd5b6001600482815481106110d8576110d76116a4565b5b906000526020600020906004020160030160008282546110f891906118c9565b9250508190555060006003600083815260200190815260200160002060003373ffffffffffffffffffffffffffffffffffffffff1673ffffffffffffffffffffffffffffffffffffffff16815260200190815260200160002060006101000a81548160ff02191690831515021790555050565b600080fd5b6000819050919050565b61118381611170565b811461118e57600080fd5b50565b6000813590506111a08161117a565b92915050565b6000602082840312156111bc576111bb61116b565b5b60006111ca84828501611191565b91505092915050565b600073ffffffffffffffffffffffffffffffffffffffff82169050919050565b60006111fe826111d3565b9050919050565b61120e816111f3565b82525050565b60006020820190506112296000830184611205565b92915050565b61123881611170565b82525050565b6000602082019050611253600083018461122f565b92915050565b611262816111f3565b811461126d57600080fd5b50565b60008135905061127f81611259565b92915050565b60006020828403121561129b5761129a61116b565b5b60006112a984828501611270565b91505092915050565b60008115159050919050565b6112c7816112b2565b82525050565b60006020820190506112e260008301846112be565b92915050565b600080604083850312156112ff576112fe61116b565b5b600061130d85828601611191565b925050602061131e85828601611270565b9150509250929050565b600060808201905061133d6000830187611205565b61134a602083018661122f565b61135760408301856112be565b611364606083018461122f565b95945050505050565b600080604083850312156113845761138361116b565b5b600061139285828601611270565b92505060206113a385828601611270565b9150509250929050565b600080604083850312156113c4576113c361116b565b5b60006113d285828601611270565b92505060206113e385828601611191565b9150509250929050565b600082825260208201905092915050565b7f596f7572277265206e6f7420616e206f776e6572206f6620746869732077616c60008201527f6c65740000000000000000000000000000000000000000000000000000000000602082015250565b600061145a6023836113ed565b9150611465826113fe565b604082019050919050565b600060208201905081810360008301526114898161144d565b9050919050565b7f596f7527766520616c726561647920766f746564206f6e20746869732061646460008201527f7265737300000000000000000000000000000000000000000000000000000000602082015250565b60006114ec6024836113ed565b91506114f782611490565b604082019050919050565b6000602082019050818103600083015261151b816114df565b9050919050565b7f4e487b7100000000000000000000000000000000000000000000000000000000600052601160045260246000fd5b600061155c82611170565b915061156783611170565b9250827fffffffffffffffffffffffffffffffffffffffffffffffffffffffffffffffff0382111561159c5761159b611522565b5b828201905092915050565b7f4e487b7100000000000000000000000000000000000000000000000000000000600052601260045260246000fd5b60006115e182611170565b91506115ec83611170565b9250826115fc576115fb6115a7565b5b828206905092915050565b600061161282611170565b915061161d83611170565b92508261162d5761162c6115a7565b5b828204905092915050565b7f596f7527766520616c726561647920766f746564000000000000000000000000600082015250565b600061166e6014836113ed565b915061167982611638565b602082019050919050565b6000602082019050818103600083015261169d81611661565b9050919050565b7f4e487b7100000000000000000000000000000000000000000000000000000000600052603260045260246000fd5b7f4e6f7420656e6f75676820617070726f76616c73000000000000000000000000600082015250565b60006117096014836113ed565b9150611714826116d3565b602082019050919050565b60006020820190508181036000830152611738816116fc565b9050919050565b7f416c726561647920766f74656400000000000000000000000000000000000000600082015250565b6000611775600d836113ed565b91506117808261173f565b602082019050919050565b600060208201905081810360008301526117a481611768565b9050919050565b600081905092915050565b50565b60006117c66000836117ab565b91506117d1826117b6565b600082019050919050565b60006117e7826117b9565b9150819050919050565b7f596f7520646f6e2774206861766520656e6f75676820746f6b656e7300000000600082015250565b6000611827601c836113ed565b9150611832826117f1565b602082019050919050565b600060208201905081810360008301526118568161181a565b9050919050565b7f596f7520686176656e277420766f746564207965740000000000000000000000600082015250565b60006118936015836113ed565b915061189e8261185d565b602082019050919050565b600060208201905081810360008301526118c281611886565b9050919050565b60006118d482611170565b91506118df83611170565b9250828210156118f2576118f1611522565b5b82820390509291505056fea2646970667358221220a994776626b9ce3e6f5183c5378bd7ccac52a1b07e90d91629e0a2b4af0a581b64736f6c634300080d0033",
					"opcodes": "PUSH1 0x80 PUSH1 0x40 MSTORE PUSH1 0x2 PUSH1 0x1 SSTORE CALLVALUE DUP1 ISZERO PUSH2 0x15 JUMPI PUSH1 0x0 DUP1 REVERT JUMPDEST POP PUSH1 0x0 CALLER SWAP1 DUP1 PUSH1 0x1 DUP2 SLOAD ADD DUP1 DUP3 SSTORE DUP1 SWAP2 POP POP PUSH1 0x1 SWAP1 SUB SWAP1 PUSH1 0x0 MSTORE PUSH1 0x20 PUSH1 0x0 KECCAK256 ADD PUSH1 0x0 SWAP1 SWAP2 SWAP1 SWAP2 SWAP1 SWAP2 PUSH2 0x100 EXP DUP2 SLOAD DUP2 PUSH20 0xFFFFFFFFFFFFFFFFFFFFFFFFFFFFFFFFFFFFFFFF MUL NOT AND SWAP1 DUP4 PUSH20 0xFFFFFFFFFFFFFFFFFFFFFFFFFFFFFFFFFFFFFFFF AND MUL OR SWAP1 SSTORE POP PUSH1 0x1 PUSH1 0x2 PUSH1 0x0 CALLER PUSH20 0xFFFFFFFFFFFFFFFFFFFFFFFFFFFFFFFFFFFFFFFF AND PUSH20 0xFFFFFFFFFFFFFFFFFFFFFFFFFFFFFFFFFFFFFFFF AND DUP2 MSTORE PUSH1 0x20 ADD SWAP1 DUP2 MSTORE PUSH1 0x20 ADD PUSH1 0x0 KECCAK256 PUSH1 0x0 PUSH2 0x100 EXP DUP2 SLOAD DUP2 PUSH1 0xFF MUL NOT AND SWAP1 DUP4 ISZERO ISZERO MUL OR SWAP1 SSTORE POP PUSH1 0x0 PUSH20 0xAB8483F64D9C6D1ECF9B849AE677DD3315835CB2 SWAP1 DUP1 PUSH1 0x1 DUP2 SLOAD ADD DUP1 DUP3 SSTORE DUP1 SWAP2 POP POP PUSH1 0x1 SWAP1 SUB SWAP1 PUSH1 0x0 MSTORE PUSH1 0x20 PUSH1 0x0 KECCAK256 ADD PUSH1 0x0 SWAP1 SWAP2 SWAP1 SWAP2 SWAP1 SWAP2 PUSH2 0x100 EXP DUP2 SLOAD DUP2 PUSH20 0xFFFFFFFFFFFFFFFFFFFFFFFFFFFFFFFFFFFFFFFF MUL NOT AND SWAP1 DUP4 PUSH20 0xFFFFFFFFFFFFFFFFFFFFFFFFFFFFFFFFFFFFFFFF AND MUL OR SWAP1 SSTORE POP PUSH1 0x1 PUSH1 0x2 PUSH1 0x0 PUSH20 0xAB8483F64D9C6D1ECF9B849AE677DD3315835CB2 PUSH20 0xFFFFFFFFFFFFFFFFFFFFFFFFFFFFFFFFFFFFFFFF AND PUSH20 0xFFFFFFFFFFFFFFFFFFFFFFFFFFFFFFFFFFFFFFFF AND DUP2 MSTORE PUSH1 0x20 ADD SWAP1 DUP2 MSTORE PUSH1 0x20 ADD PUSH1 0x0 KECCAK256 PUSH1 0x0 PUSH2 0x100 EXP DUP2 SLOAD DUP2 PUSH1 0xFF MUL NOT AND SWAP1 DUP4 ISZERO ISZERO MUL OR SWAP1 SSTORE POP PUSH2 0x1933 DUP1 PUSH2 0x1C3 PUSH1 0x0 CODECOPY PUSH1 0x0 RETURN INVALID PUSH1 0x80 PUSH1 0x40 MSTORE PUSH1 0x4 CALLDATASIZE LT PUSH2 0xC6 JUMPI PUSH1 0x0 CALLDATALOAD PUSH1 0xE0 SHR DUP1 PUSH4 0xB5E8D4B1 GT PUSH2 0x7F JUMPI DUP1 PUSH4 0xEE22610B GT PUSH2 0x59 JUMPI DUP1 PUSH4 0xEE22610B EQ PUSH2 0x2C0 JUMPI DUP1 PUSH4 0xF19A6682 EQ PUSH2 0x2E9 JUMPI DUP1 PUSH4 0xF5358AA8 EQ PUSH2 0x312 JUMPI DUP1 PUSH4 0xF9A7C0B1 EQ PUSH2 0x33D JUMPI PUSH2 0xCD JUMP JUMPDEST DUP1 PUSH4 0xB5E8D4B1 EQ PUSH2 0x231 JUMPI DUP1 PUSH4 0xD579B696 EQ PUSH2 0x25A JUMPI DUP1 PUSH4 0xE88ACA40 EQ PUSH2 0x283 JUMPI PUSH2 0xCD JUMP JUMPDEST DUP1 PUSH4 0x25E7C27 EQ PUSH2 0xD2 JUMPI DUP1 PUSH4 0x3349A734 EQ PUSH2 0x10F JUMPI DUP1 PUSH4 0x51F22A72 EQ PUSH2 0x13A JUMPI DUP1 PUSH4 0x60C8B28D EQ PUSH2 0x177 JUMPI DUP1 PUSH4 0x9ACE38C2 EQ PUSH2 0x1B4 JUMPI DUP1 PUSH4 0xB10F8B69 EQ PUSH2 0x1F4 JUMPI PUSH2 0xCD JUMP JUMPDEST CALLDATASIZE PUSH2 0xCD JUMPI STOP JUMPDEST PUSH1 0x0 DUP1 REVERT JUMPDEST CALLVALUE DUP1 ISZERO PUSH2 0xDE JUMPI PUSH1 0x0 DUP1 REVERT JUMPDEST POP PUSH2 0xF9 PUSH1 0x4 DUP1 CALLDATASIZE SUB DUP2 ADD SWAP1 PUSH2 0xF4 SWAP2 SWAP1 PUSH2 0x11A6 JUMP JUMPDEST PUSH2 0x366 JUMP JUMPDEST PUSH1 0x40 MLOAD PUSH2 0x106 SWAP2 SWAP1 PUSH2 0x1214 JUMP JUMPDEST PUSH1 0x40 MLOAD DUP1 SWAP2 SUB SWAP1 RETURN JUMPDEST CALLVALUE DUP1 ISZERO PUSH2 0x11B JUMPI PUSH1 0x0 DUP1 REVERT JUMPDEST POP PUSH2 0x124 PUSH2 0x3A5 JUMP JUMPDEST PUSH1 0x40 MLOAD PUSH2 0x131 SWAP2 SWAP1 PUSH2 0x123E JUMP JUMPDEST PUSH1 0x40 MLOAD DUP1 SWAP2 SUB SWAP1 RETURN JUMPDEST CALLVALUE DUP1 ISZERO PUSH2 0x146 JUMPI PUSH1 0x0 DUP1 REVERT JUMPDEST POP PUSH2 0x161 PUSH1 0x4 DUP1 CALLDATASIZE SUB DUP2 ADD SWAP1 PUSH2 0x15C SWAP2 SWAP1 PUSH2 0x1285 JUMP JUMPDEST PUSH2 0x3AB JUMP JUMPDEST PUSH1 0x40 MLOAD PUSH2 0x16E SWAP2 SWAP1 PUSH2 0x12CD JUMP JUMPDEST PUSH1 0x40 MLOAD DUP1 SWAP2 SUB SWAP1 RETURN JUMPDEST CALLVALUE DUP1 ISZERO PUSH2 0x183 JUMPI PUSH1 0x0 DUP1 REVERT JUMPDEST POP PUSH2 0x19E PUSH1 0x4 DUP1 CALLDATASIZE SUB DUP2 ADD SWAP1 PUSH2 0x199 SWAP2 SWAP1 PUSH2 0x12E8 JUMP JUMPDEST PUSH2 0x3CB JUMP JUMPDEST PUSH1 0x40 MLOAD PUSH2 0x1AB SWAP2 SWAP1 PUSH2 0x12CD JUMP JUMPDEST PUSH1 0x40 MLOAD DUP1 SWAP2 SUB SWAP1 RETURN JUMPDEST CALLVALUE DUP1 ISZERO PUSH2 0x1C0 JUMPI PUSH1 0x0 DUP1 REVERT JUMPDEST POP PUSH2 0x1DB PUSH1 0x4 DUP1 CALLDATASIZE SUB DUP2 ADD SWAP1 PUSH2 0x1D6 SWAP2 SWAP1 PUSH2 0x11A6 JUMP JUMPDEST PUSH2 0x3FA JUMP JUMPDEST PUSH1 0x40 MLOAD PUSH2 0x1EB SWAP5 SWAP4 SWAP3 SWAP2 SWAP1 PUSH2 0x1328 JUMP JUMPDEST PUSH1 0x40 MLOAD DUP1 SWAP2 SUB SWAP1 RETURN JUMPDEST CALLVALUE DUP1 ISZERO PUSH2 0x200 JUMPI PUSH1 0x0 DUP1 REVERT JUMPDEST POP PUSH2 0x21B PUSH1 0x4 DUP1 CALLDATASIZE SUB DUP2 ADD SWAP1 PUSH2 0x216 SWAP2 SWAP1 PUSH2 0x1285 JUMP JUMPDEST PUSH2 0x467 JUMP JUMPDEST PUSH1 0x40 MLOAD PUSH2 0x228 SWAP2 SWAP1 PUSH2 0x123E JUMP JUMPDEST PUSH1 0x40 MLOAD DUP1 SWAP2 SUB SWAP1 RETURN JUMPDEST CALLVALUE DUP1 ISZERO PUSH2 0x23D JUMPI PUSH1 0x0 DUP1 REVERT JUMPDEST POP PUSH2 0x258 PUSH1 0x4 DUP1 CALLDATASIZE SUB DUP2 ADD SWAP1 PUSH2 0x253 SWAP2 SWAP1 PUSH2 0x1285 JUMP JUMPDEST PUSH2 0x47F JUMP JUMPDEST STOP JUMPDEST CALLVALUE DUP1 ISZERO PUSH2 0x266 JUMPI PUSH1 0x0 DUP1 REVERT JUMPDEST POP PUSH2 0x281 PUSH1 0x4 DUP1 CALLDATASIZE SUB DUP2 ADD SWAP1 PUSH2 0x27C SWAP2 SWAP1 PUSH2 0x11A6 JUMP JUMPDEST PUSH2 0x91D JUMP JUMPDEST STOP JUMPDEST CALLVALUE DUP1 ISZERO PUSH2 0x28F JUMPI PUSH1 0x0 DUP1 REVERT JUMPDEST POP PUSH2 0x2AA PUSH1 0x4 DUP1 CALLDATASIZE SUB DUP2 ADD SWAP1 PUSH2 0x2A5 SWAP2 SWAP1 PUSH2 0x136D JUMP JUMPDEST PUSH2 0xAFD JUMP JUMPDEST PUSH1 0x40 MLOAD PUSH2 0x2B7 SWAP2 SWAP1 PUSH2 0x12CD JUMP JUMPDEST PUSH1 0x40 MLOAD DUP1 SWAP2 SUB SWAP1 RETURN JUMPDEST CALLVALUE DUP1 ISZERO PUSH2 0x2CC JUMPI PUSH1 0x0 DUP1 REVERT JUMPDEST POP PUSH2 0x2E7 PUSH1 0x4 DUP1 CALLDATASIZE SUB DUP2 ADD SWAP1 PUSH2 0x2E2 SWAP2 SWAP1 PUSH2 0x11A6 JUMP JUMPDEST PUSH2 0xB2C JUMP JUMPDEST STOP JUMPDEST CALLVALUE DUP1 ISZERO PUSH2 0x2F5 JUMPI PUSH1 0x0 DUP1 REVERT JUMPDEST POP PUSH2 0x310 PUSH1 0x4 DUP1 CALLDATASIZE SUB DUP2 ADD SWAP1 PUSH2 0x30B SWAP2 SWAP1 PUSH2 0x13AD JUMP JUMPDEST PUSH2 0xE05 JUMP JUMPDEST STOP JUMPDEST CALLVALUE DUP1 ISZERO PUSH2 0x31E JUMPI PUSH1 0x0 DUP1 REVERT JUMPDEST POP PUSH2 0x327 PUSH2 0xF7F JUMP JUMPDEST PUSH1 0x40 MLOAD PUSH2 0x334 SWAP2 SWAP1 PUSH2 0x123E JUMP JUMPDEST PUSH1 0x40 MLOAD DUP1 SWAP2 SUB SWAP1 RETURN JUMPDEST CALLVALUE DUP1 ISZERO PUSH2 0x349 JUMPI PUSH1 0x0 DUP1 REVERT JUMPDEST POP PUSH2 0x364 PUSH1 0x4 DUP1 CALLDATASIZE SUB DUP2 ADD SWAP1 PUSH2 0x35F SWAP2 SWAP1 PUSH2 0x11A6 JUMP JUMPDEST PUSH2 0xF8B JUMP JUMPDEST STOP JUMPDEST PUSH1 0x0 DUP2 DUP2 SLOAD DUP2 LT PUSH2 0x376 JUMPI PUSH1 0x0 DUP1 REVERT JUMPDEST SWAP1 PUSH1 0x0 MSTORE PUSH1 0x20 PUSH1 0x0 KECCAK256 ADD PUSH1 0x0 SWAP2 POP SLOAD SWAP1 PUSH2 0x100 EXP SWAP1 DIV PUSH20 0xFFFFFFFFFFFFFFFFFFFFFFFFFFFFFFFFFFFFFFFF AND DUP2 JUMP JUMPDEST PUSH1 0x1 SLOAD DUP2 JUMP JUMPDEST PUSH1 0x2 PUSH1 0x20 MSTORE DUP1 PUSH1 0x0 MSTORE PUSH1 0x40 PUSH1 0x0 KECCAK256 PUSH1 0x0 SWAP2 POP SLOAD SWAP1 PUSH2 0x100 EXP SWAP1 DIV PUSH1 0xFF AND DUP2 JUMP JUMPDEST PUSH1 0x3 PUSH1 0x20 MSTORE DUP2 PUSH1 0x0 MSTORE PUSH1 0x40 PUSH1 0x0 KECCAK256 PUSH1 0x20 MSTORE DUP1 PUSH1 0x0 MSTORE PUSH1 0x40 PUSH1 0x0 KECCAK256 PUSH1 0x0 SWAP2 POP SWAP2 POP SWAP1 SLOAD SWAP1 PUSH2 0x100 EXP SWAP1 DIV PUSH1 0xFF AND DUP2 JUMP JUMPDEST PUSH1 0x4 DUP2 DUP2 SLOAD DUP2 LT PUSH2 0x40A JUMPI PUSH1 0x0 DUP1 REVERT JUMPDEST SWAP1 PUSH1 0x0 MSTORE PUSH1 0x20 PUSH1 0x0 KECCAK256 SWAP1 PUSH1 0x4 MUL ADD PUSH1 0x0 SWAP2 POP SWAP1 POP DUP1 PUSH1 0x0 ADD PUSH1 0x0 SWAP1 SLOAD SWAP1 PUSH2 0x100 EXP SWAP1 DIV PUSH20 0xFFFFFFFFFFFFFFFFFFFFFFFFFFFFFFFFFFFFFFFF AND SWAP1 DUP1 PUSH1 0x1 ADD SLOAD SWAP1 DUP1 PUSH1 0x2 ADD PUSH1 0x0 SWAP1 SLOAD SWAP1 PUSH2 0x100 EXP SWAP1 DIV PUSH1 0xFF AND SWAP1 DUP1 PUSH1 0x3 ADD SLOAD SWAP1 POP DUP5 JUMP JUMPDEST PUSH1 0x5 PUSH1 0x20 MSTORE DUP1 PUSH1 0x0 MSTORE PUSH1 0x40 PUSH1 0x0 KECCAK256 PUSH1 0x0 SWAP2 POP SWAP1 POP SLOAD DUP2 JUMP JUMPDEST PUSH1 0x1 ISZERO ISZERO PUSH1 0x2 PUSH1 0x0 CALLER PUSH20 0xFFFFFFFFFFFFFFFFFFFFFFFFFFFFFFFFFFFFFFFF AND PUSH20 0xFFFFFFFFFFFFFFFFFFFFFFFFFFFFFFFFFFFFFFFF AND DUP2 MSTORE PUSH1 0x20 ADD SWAP1 DUP2 MSTORE PUSH1 0x20 ADD PUSH1 0x0 KECCAK256 PUSH1 0x0 SWAP1 SLOAD SWAP1 PUSH2 0x100 EXP SWAP1 DIV PUSH1 0xFF AND ISZERO ISZERO EQ PUSH2 0x512 JUMPI PUSH1 0x40 MLOAD PUSH32 0x8C379A000000000000000000000000000000000000000000000000000000000 DUP2 MSTORE PUSH1 0x4 ADD PUSH2 0x509 SWAP1 PUSH2 0x1470 JUMP JUMPDEST PUSH1 0x40 MLOAD DUP1 SWAP2 SUB SWAP1 REVERT JUMPDEST PUSH1 0x0 ISZERO ISZERO PUSH1 0x6 PUSH1 0x0 DUP4 PUSH20 0xFFFFFFFFFFFFFFFFFFFFFFFFFFFFFFFFFFFFFFFF AND PUSH20 0xFFFFFFFFFFFFFFFFFFFFFFFFFFFFFFFFFFFFFFFF AND DUP2 MSTORE PUSH1 0x20 ADD SWAP1 DUP2 MSTORE PUSH1 0x20 ADD PUSH1 0x0 KECCAK256 PUSH1 0x0 CALLER PUSH20 0xFFFFFFFFFFFFFFFFFFFFFFFFFFFFFFFFFFFFFFFF AND PUSH20 0xFFFFFFFFFFFFFFFFFFFFFFFFFFFFFFFFFFFFFFFF AND DUP2 MSTORE PUSH1 0x20 ADD SWAP1 DUP2 MSTORE PUSH1 0x20 ADD PUSH1 0x0 KECCAK256 PUSH1 0x0 SWAP1 SLOAD SWAP1 PUSH2 0x100 EXP SWAP1 DIV PUSH1 0xFF AND ISZERO ISZERO EQ PUSH2 0x5E2 JUMPI PUSH1 0x40 MLOAD PUSH32 0x8C379A000000000000000000000000000000000000000000000000000000000 DUP2 MSTORE PUSH1 0x4 ADD PUSH2 0x5D9 SWAP1 PUSH2 0x1502 JUMP JUMPDEST PUSH1 0x40 MLOAD DUP1 SWAP2 SUB SWAP1 REVERT JUMPDEST PUSH1 0x1 PUSH1 0x5 PUSH1 0x0 DUP4 PUSH20 0xFFFFFFFFFFFFFFFFFFFFFFFFFFFFFFFFFFFFFFFF AND PUSH20 0xFFFFFFFFFFFFFFFFFFFFFFFFFFFFFFFFFFFFFFFF AND DUP2 MSTORE PUSH1 0x20 ADD SWAP1 DUP2 MSTORE PUSH1 0x20 ADD PUSH1 0x0 KECCAK256 PUSH1 0x0 DUP3 DUP3 SLOAD PUSH2 0x632 SWAP2 SWAP1 PUSH2 0x1551 JUMP JUMPDEST SWAP3 POP POP DUP2 SWAP1 SSTORE POP PUSH1 0x1 PUSH1 0x6 PUSH1 0x0 DUP4 PUSH20 0xFFFFFFFFFFFFFFFFFFFFFFFFFFFFFFFFFFFFFFFF AND PUSH20 0xFFFFFFFFFFFFFFFFFFFFFFFFFFFFFFFFFFFFFFFF AND DUP2 MSTORE PUSH1 0x20 ADD SWAP1 DUP2 MSTORE PUSH1 0x20 ADD PUSH1 0x0 KECCAK256 PUSH1 0x0 CALLER PUSH20 0xFFFFFFFFFFFFFFFFFFFFFFFFFFFFFFFFFFFFFFFF AND PUSH20 0xFFFFFFFFFFFFFFFFFFFFFFFFFFFFFFFFFFFFFFFF AND DUP2 MSTORE PUSH1 0x20 ADD SWAP1 DUP2 MSTORE PUSH1 0x20 ADD PUSH1 0x0 KECCAK256 PUSH1 0x0 PUSH2 0x100 EXP DUP2 SLOAD DUP2 PUSH1 0xFF MUL NOT AND SWAP1 DUP4 ISZERO ISZERO MUL OR SWAP1 SSTORE POP PUSH1 0x1 SLOAD PUSH1 0x5 PUSH1 0x0 DUP4 PUSH20 0xFFFFFFFFFFFFFFFFFFFFFFFFFFFFFFFFFFFFFFFF AND PUSH20 0xFFFFFFFFFFFFFFFFFFFFFFFFFFFFFFFFFFFFFFFF AND DUP2 MSTORE PUSH1 0x20 ADD SWAP1 DUP2 MSTORE PUSH1 0x20 ADD PUSH1 0x0 KECCAK256 SLOAD LT PUSH2 0x91A JUMPI PUSH1 0x0 PUSH1 0x2 PUSH1 0x0 DUP1 SLOAD SWAP1 POP PUSH2 0x72A SWAP2 SWAP1 PUSH2 0x15D6 JUMP JUMPDEST SUB PUSH2 0x820 JUMPI PUSH1 0x2 PUSH1 0x0 DUP1 SLOAD SWAP1 POP PUSH2 0x741 SWAP2 SWAP1 PUSH2 0x1607 JUMP JUMPDEST PUSH1 0x1 DUP2 SWAP1 SSTORE POP PUSH1 0x0 DUP2 SWAP1 DUP1 PUSH1 0x1 DUP2 SLOAD ADD DUP1 DUP3 SSTORE DUP1 SWAP2 POP POP PUSH1 0x1 SWAP1 SUB SWAP1 PUSH1 0x0 MSTORE PUSH1 0x20 PUSH1 0x0 KECCAK256 ADD PUSH1 0x0 SWAP1 SWAP2 SWAP1 SWAP2 SWAP1 SWAP2 PUSH2 0x100 EXP DUP2 SLOAD DUP2 PUSH20 0xFFFFFFFFFFFFFFFFFFFFFFFFFFFFFFFFFFFFFFFF MUL NOT AND SWAP1 DUP4 PUSH20 0xFFFFFFFFFFFFFFFFFFFFFFFFFFFFFFFFFFFFFFFF AND MUL OR SWAP1 SSTORE POP PUSH1 0x1 PUSH1 0x2 PUSH1 0x0 DUP4 PUSH20 0xFFFFFFFFFFFFFFFFFFFFFFFFFFFFFFFFFFFFFFFF AND PUSH20 0xFFFFFFFFFFFFFFFFFFFFFFFFFFFFFFFFFFFFFFFF AND DUP2 MSTORE PUSH1 0x20 ADD SWAP1 DUP2 MSTORE PUSH1 0x20 ADD PUSH1 0x0 KECCAK256 PUSH1 0x0 PUSH2 0x100 EXP DUP2 SLOAD DUP2 PUSH1 0xFF MUL NOT AND SWAP1 DUP4 ISZERO ISZERO MUL OR SWAP1 SSTORE POP PUSH1 0x1 DUP1 PUSH1 0x0 DUP3 DUP3 SLOAD PUSH2 0x814 SWAP2 SWAP1 PUSH2 0x1551 JUMP JUMPDEST SWAP3 POP POP DUP2 SWAP1 SSTORE POP PUSH2 0x919 JUMP JUMPDEST PUSH1 0x2 PUSH1 0x1 PUSH1 0x0 DUP1 SLOAD SWAP1 POP PUSH2 0x834 SWAP2 SWAP1 PUSH2 0x1551 JUMP JUMPDEST PUSH2 0x83E SWAP2 SWAP1 PUSH2 0x1607 JUMP JUMPDEST PUSH1 0x1 DUP2 SWAP1 SSTORE POP PUSH1 0x0 DUP2 SWAP1 DUP1 PUSH1 0x1 DUP2 SLOAD ADD DUP1 DUP3 SSTORE DUP1 SWAP2 POP POP PUSH1 0x1 SWAP1 SUB SWAP1 PUSH1 0x0 MSTORE PUSH1 0x20 PUSH1 0x0 KECCAK256 ADD PUSH1 0x0 SWAP1 SWAP2 SWAP1 SWAP2 SWAP1 SWAP2 PUSH2 0x100 EXP DUP2 SLOAD DUP2 PUSH20 0xFFFFFFFFFFFFFFFFFFFFFFFFFFFFFFFFFFFFFFFF MUL NOT AND SWAP1 DUP4 PUSH20 0xFFFFFFFFFFFFFFFFFFFFFFFFFFFFFFFFFFFFFFFF AND MUL OR SWAP1 SSTORE POP PUSH1 0x1 PUSH1 0x2 PUSH1 0x0 DUP4 PUSH20 0xFFFFFFFFFFFFFFFFFFFFFFFFFFFFFFFFFFFFFFFF AND PUSH20 0xFFFFFFFFFFFFFFFFFFFFFFFFFFFFFFFFFFFFFFFF AND DUP2 MSTORE PUSH1 0x20 ADD SWAP1 DUP2 MSTORE PUSH1 0x20 ADD PUSH1 0x0 KECCAK256 PUSH1 0x0 PUSH2 0x100 EXP DUP2 SLOAD DUP2 PUSH1 0xFF MUL NOT AND SWAP1 DUP4 ISZERO ISZERO MUL OR SWAP1 SSTORE POP PUSH1 0x1 DUP1 PUSH1 0x0 DUP3 DUP3 SLOAD PUSH2 0x911 SWAP2 SWAP1 PUSH2 0x1551 JUMP JUMPDEST SWAP3 POP POP DUP2 SWAP1 SSTORE POP JUMPDEST JUMPDEST POP JUMP JUMPDEST PUSH1 0x1 ISZERO ISZERO PUSH1 0x2 PUSH1 0x0 CALLER PUSH20 0xFFFFFFFFFFFFFFFFFFFFFFFFFFFFFFFFFFFFFFFF AND PUSH20 0xFFFFFFFFFFFFFFFFFFFFFFFFFFFFFFFFFFFFFFFF AND DUP2 MSTORE PUSH1 0x20 ADD SWAP1 DUP2 MSTORE PUSH1 0x20 ADD PUSH1 0x0 KECCAK256 PUSH1 0x0 SWAP1 SLOAD SWAP1 PUSH2 0x100 EXP SWAP1 DIV PUSH1 0xFF AND ISZERO ISZERO EQ PUSH2 0x9B0 JUMPI PUSH1 0x40 MLOAD PUSH32 0x8C379A000000000000000000000000000000000000000000000000000000000 DUP2 MSTORE PUSH1 0x4 ADD PUSH2 0x9A7 SWAP1 PUSH2 0x1470 JUMP JUMPDEST PUSH1 0x40 MLOAD DUP1 SWAP2 SUB SWAP1 REVERT JUMPDEST PUSH1 0x0 ISZERO ISZERO PUSH1 0x3 PUSH1 0x0 DUP4 DUP2 MSTORE PUSH1 0x20 ADD SWAP1 DUP2 MSTORE PUSH1 0x20 ADD PUSH1 0x0 KECCAK256 PUSH1 0x0 CALLER PUSH20 0xFFFFFFFFFFFFFFFFFFFFFFFFFFFFFFFFFFFFFFFF AND PUSH20 0xFFFFFFFFFFFFFFFFFFFFFFFFFFFFFFFFFFFFFFFF AND DUP2 MSTORE PUSH1 0x20 ADD SWAP1 DUP2 MSTORE PUSH1 0x20 ADD PUSH1 0x0 KECCAK256 PUSH1 0x0 SWAP1 SLOAD SWAP1 PUSH2 0x100 EXP SWAP1 DIV PUSH1 0xFF AND ISZERO ISZERO EQ PUSH2 0xA54 JUMPI PUSH1 0x40 MLOAD PUSH32 0x8C379A000000000000000000000000000000000000000000000000000000000 DUP2 MSTORE PUSH1 0x4 ADD PUSH2 0xA4B SWAP1 PUSH2 0x1684 JUMP JUMPDEST PUSH1 0x40 MLOAD DUP1 SWAP2 SUB SWAP1 REVERT JUMPDEST PUSH1 0x1 PUSH1 0x4 DUP3 DUP2 SLOAD DUP2 LT PUSH2 0xA6A JUMPI PUSH2 0xA69 PUSH2 0x16A4 JUMP JUMPDEST JUMPDEST SWAP1 PUSH1 0x0 MSTORE PUSH1 0x20 PUSH1 0x0 KECCAK256 SWAP1 PUSH1 0x4 MUL ADD PUSH1 0x3 ADD PUSH1 0x0 DUP3 DUP3 SLOAD PUSH2 0xA8A SWAP2 SWAP1 PUSH2 0x1551 JUMP JUMPDEST SWAP3 POP POP DUP2 SWAP1 SSTORE POP PUSH1 0x1 PUSH1 0x3 PUSH1 0x0 DUP4 DUP2 MSTORE PUSH1 0x20 ADD SWAP1 DUP2 MSTORE PUSH1 0x20 ADD PUSH1 0x0 KECCAK256 PUSH1 0x0 CALLER PUSH20 0xFFFFFFFFFFFFFFFFFFFFFFFFFFFFFFFFFFFFFFFF AND PUSH20 0xFFFFFFFFFFFFFFFFFFFFFFFFFFFFFFFFFFFFFFFF AND DUP2 MSTORE PUSH1 0x20 ADD SWAP1 DUP2 MSTORE PUSH1 0x20 ADD PUSH1 0x0 KECCAK256 PUSH1 0x0 PUSH2 0x100 EXP DUP2 SLOAD DUP2 PUSH1 0xFF MUL NOT AND SWAP1 DUP4 ISZERO ISZERO MUL OR SWAP1 SSTORE POP POP JUMP JUMPDEST PUSH1 0x6 PUSH1 0x20 MSTORE DUP2 PUSH1 0x0 MSTORE PUSH1 0x40 PUSH1 0x0 KECCAK256 PUSH1 0x20 MSTORE DUP1 PUSH1 0x0 MSTORE PUSH1 0x40 PUSH1 0x0 KECCAK256 PUSH1 0x0 SWAP2 POP SWAP2 POP SWAP1 SLOAD SWAP1 PUSH2 0x100 EXP SWAP1 DIV PUSH1 0xFF AND DUP2 JUMP JUMPDEST PUSH1 0x1 ISZERO ISZERO PUSH1 0x2 PUSH1 0x0 CALLER PUSH20 0xFFFFFFFFFFFFFFFFFFFFFFFFFFFFFFFFFFFFFFFF AND PUSH20 0xFFFFFFFFFFFFFFFFFFFFFFFFFFFFFFFFFFFFFFFF AND DUP2 MSTORE PUSH1 0x20 ADD SWAP1 DUP2 MSTORE PUSH1 0x20 ADD PUSH1 0x0 KECCAK256 PUSH1 0x0 SWAP1 SLOAD SWAP1 PUSH2 0x100 EXP SWAP1 DIV PUSH1 0xFF AND ISZERO ISZERO EQ PUSH2 0xBBF JUMPI PUSH1 0x40 MLOAD PUSH32 0x8C379A000000000000000000000000000000000000000000000000000000000 DUP2 MSTORE PUSH1 0x4 ADD PUSH2 0xBB6 SWAP1 PUSH2 0x1470 JUMP JUMPDEST PUSH1 0x40 MLOAD DUP1 SWAP2 SUB SWAP1 REVERT JUMPDEST PUSH1 0x1 SLOAD PUSH1 0x4 DUP3 DUP2 SLOAD DUP2 LT PUSH2 0xBD6 JUMPI PUSH2 0xBD5 PUSH2 0x16A4 JUMP JUMPDEST JUMPDEST SWAP1 PUSH1 0x0 MSTORE PUSH1 0x20 PUSH1 0x0 KECCAK256 SWAP1 PUSH1 0x4 MUL ADD PUSH1 0x3 ADD SLOAD LT ISZERO PUSH2 0xC29 JUMPI PUSH1 0x40 MLOAD PUSH32 0x8C379A000000000000000000000000000000000000000000000000000000000 DUP2 MSTORE PUSH1 0x4 ADD PUSH2 0xC20 SWAP1 PUSH2 0x171F JUMP JUMPDEST PUSH1 0x40 MLOAD DUP1 SWAP2 SUB SWAP1 REVERT JUMPDEST PUSH1 0x0 ISZERO ISZERO PUSH1 0x4 DUP3 DUP2 SLOAD DUP2 LT PUSH2 0xC41 JUMPI PUSH2 0xC40 PUSH2 0x16A4 JUMP JUMPDEST JUMPDEST SWAP1 PUSH1 0x0 MSTORE PUSH1 0x20 PUSH1 0x0 KECCAK256 SWAP1 PUSH1 0x4 MUL ADD PUSH1 0x2 ADD PUSH1 0x0 SWAP1 SLOAD SWAP1 PUSH2 0x100 EXP SWAP1 DIV PUSH1 0xFF AND ISZERO ISZERO EQ PUSH2 0xCA2 JUMPI PUSH1 0x40 MLOAD PUSH32 0x8C379A000000000000000000000000000000000000000000000000000000000 DUP2 MSTORE PUSH1 0x4 ADD PUSH2 0xC99 SWAP1 PUSH2 0x178B JUMP JUMPDEST PUSH1 0x40 MLOAD DUP1 SWAP2 SUB SWAP1 REVERT JUMPDEST PUSH1 0x0 PUSH1 0x4 DUP3 DUP2 SLOAD DUP2 LT PUSH2 0xCB8 JUMPI PUSH2 0xCB7 PUSH2 0x16A4 JUMP JUMPDEST JUMPDEST SWAP1 PUSH1 0x0 MSTORE PUSH1 0x20 PUSH1 0x0 KECCAK256 SWAP1 PUSH1 0x4 MUL ADD PUSH1 0x0 ADD PUSH1 0x0 SWAP1 SLOAD SWAP1 PUSH2 0x100 EXP SWAP1 DIV PUSH20 0xFFFFFFFFFFFFFFFFFFFFFFFFFFFFFFFFFFFFFFFF AND SWAP1 POP PUSH1 0x0 DUP2 PUSH20 0xFFFFFFFFFFFFFFFFFFFFFFFFFFFFFFFFFFFFFFFF AND PUSH1 0x4 DUP5 DUP2 SLOAD DUP2 LT PUSH2 0xD19 JUMPI PUSH2 0xD18 PUSH2 0x16A4 JUMP JUMPDEST JUMPDEST SWAP1 PUSH1 0x0 MSTORE PUSH1 0x20 PUSH1 0x0 KECCAK256 SWAP1 PUSH1 0x4 MUL ADD PUSH1 0x1 ADD SLOAD PUSH2 0x1388 SWAP1 PUSH1 0x40 MLOAD PUSH2 0xD3B SWAP1 PUSH2 0x17DC JUMP JUMPDEST PUSH1 0x0 PUSH1 0x40 MLOAD DUP1 DUP4 SUB DUP2 DUP6 DUP9 DUP9 CALL SWAP4 POP POP POP POP RETURNDATASIZE DUP1 PUSH1 0x0 DUP2 EQ PUSH2 0xD79 JUMPI PUSH1 0x40 MLOAD SWAP2 POP PUSH1 0x1F NOT PUSH1 0x3F RETURNDATASIZE ADD AND DUP3 ADD PUSH1 0x40 MSTORE RETURNDATASIZE DUP3 MSTORE RETURNDATASIZE PUSH1 0x0 PUSH1 0x20 DUP5 ADD RETURNDATACOPY PUSH2 0xD7E JUMP JUMPDEST PUSH1 0x60 SWAP2 POP JUMPDEST POP POP SWAP1 POP DUP1 PUSH2 0xDC2 JUMPI PUSH1 0x40 MLOAD PUSH32 0x8C379A000000000000000000000000000000000000000000000000000000000 DUP2 MSTORE PUSH1 0x4 ADD PUSH2 0xDB9 SWAP1 PUSH2 0x183D JUMP JUMPDEST PUSH1 0x40 MLOAD DUP1 SWAP2 SUB SWAP1 REVERT JUMPDEST PUSH1 0x1 PUSH1 0x4 DUP5 DUP2 SLOAD DUP2 LT PUSH2 0xDD8 JUMPI PUSH2 0xDD7 PUSH2 0x16A4 JUMP JUMPDEST JUMPDEST SWAP1 PUSH1 0x0 MSTORE PUSH1 0x20 PUSH1 0x0 KECCAK256 SWAP1 PUSH1 0x4 MUL ADD PUSH1 0x2 ADD PUSH1 0x0 PUSH2 0x100 EXP DUP2 SLOAD DUP2 PUSH1 0xFF MUL NOT AND SWAP1 DUP4 ISZERO ISZERO MUL OR SWAP1 SSTORE POP POP POP POP JUMP JUMPDEST PUSH1 0x1 ISZERO ISZERO PUSH1 0x2 PUSH1 0x0 CALLER PUSH20 0xFFFFFFFFFFFFFFFFFFFFFFFFFFFFFFFFFFFFFFFF AND PUSH20 0xFFFFFFFFFFFFFFFFFFFFFFFFFFFFFFFFFFFFFFFF AND DUP2 MSTORE PUSH1 0x20 ADD SWAP1 DUP2 MSTORE PUSH1 0x20 ADD PUSH1 0x0 KECCAK256 PUSH1 0x0 SWAP1 SLOAD SWAP1 PUSH2 0x100 EXP SWAP1 DIV PUSH1 0xFF AND ISZERO ISZERO EQ PUSH2 0xE98 JUMPI PUSH1 0x40 MLOAD PUSH32 0x8C379A000000000000000000000000000000000000000000000000000000000 DUP2 MSTORE PUSH1 0x4 ADD PUSH2 0xE8F SWAP1 PUSH2 0x1470 JUMP JUMPDEST PUSH1 0x40 MLOAD DUP1 SWAP2 SUB SWAP1 REVERT JUMPDEST PUSH1 0x4 PUSH1 0x40 MLOAD DUP1 PUSH1 0x80 ADD PUSH1 0x40 MSTORE DUP1 DUP5 PUSH20 0xFFFFFFFFFFFFFFFFFFFFFFFFFFFFFFFFFFFFFFFF AND DUP2 MSTORE PUSH1 0x20 ADD DUP4 DUP2 MSTORE PUSH1 0x20 ADD PUSH1 0x0 ISZERO ISZERO DUP2 MSTORE PUSH1 0x20 ADD PUSH1 0x0 DUP2 MSTORE POP SWAP1 DUP1 PUSH1 0x1 DUP2 SLOAD ADD DUP1 DUP3 SSTORE DUP1 SWAP2 POP POP PUSH1 0x1 SWAP1 SUB SWAP1 PUSH1 0x0 MSTORE PUSH1 0x20 PUSH1 0x0 KECCAK256 SWAP1 PUSH1 0x4 MUL ADD PUSH1 0x0 SWAP1 SWAP2 SWAP1 SWAP2 SWAP1 SWAP2 POP PUSH1 0x0 DUP3 ADD MLOAD DUP2 PUSH1 0x0 ADD PUSH1 0x0 PUSH2 0x100 EXP DUP2 SLOAD DUP2 PUSH20 0xFFFFFFFFFFFFFFFFFFFFFFFFFFFFFFFFFFFFFFFF MUL NOT AND SWAP1 DUP4 PUSH20 0xFFFFFFFFFFFFFFFFFFFFFFFFFFFFFFFFFFFFFFFF AND MUL OR SWAP1 SSTORE POP PUSH1 0x20 DUP3 ADD MLOAD DUP2 PUSH1 0x1 ADD SSTORE PUSH1 0x40 DUP3 ADD MLOAD DUP2 PUSH1 0x2 ADD PUSH1 0x0 PUSH2 0x100 EXP DUP2 SLOAD DUP2 PUSH1 0xFF MUL NOT AND SWAP1 DUP4 ISZERO ISZERO MUL OR SWAP1 SSTORE POP PUSH1 0x60 DUP3 ADD MLOAD DUP2 PUSH1 0x3 ADD SSTORE POP POP POP POP JUMP JUMPDEST PUSH1 0x0 DUP1 DUP1 SLOAD SWAP1 POP SWAP1 POP SWAP1 JUMP JUMPDEST PUSH1 0x1 ISZERO ISZERO PUSH1 0x2 PUSH1 0x0 CALLER PUSH20 0xFFFFFFFFFFFFFFFFFFFFFFFFFFFFFFFFFFFFFFFF AND PUSH20 0xFFFFFFFFFFFFFFFFFFFFFFFFFFFFFFFFFFFFFFFF AND DUP2 MSTORE PUSH1 0x20 ADD SWAP1 DUP2 MSTORE PUSH1 0x20 ADD PUSH1 0x0 KECCAK256 PUSH1 0x0 SWAP1 SLOAD SWAP1 PUSH2 0x100 EXP SWAP1 DIV PUSH1 0xFF AND ISZERO ISZERO EQ PUSH2 0x101E JUMPI PUSH1 0x40 MLOAD PUSH32 0x8C379A000000000000000000000000000000000000000000000000000000000 DUP2 MSTORE PUSH1 0x4 ADD PUSH2 0x1015 SWAP1 PUSH2 0x1470 JUMP JUMPDEST PUSH1 0x40 MLOAD DUP1 SWAP2 SUB SWAP1 REVERT JUMPDEST PUSH1 0x1 ISZERO ISZERO PUSH1 0x3 PUSH1 0x0 DUP4 DUP2 MSTORE PUSH1 0x20 ADD SWAP1 DUP2 MSTORE PUSH1 0x20 ADD PUSH1 0x0 KECCAK256 PUSH1 0x0 CALLER PUSH20 0xFFFFFFFFFFFFFFFFFFFFFFFFFFFFFFFFFFFFFFFF AND PUSH20 0xFFFFFFFFFFFFFFFFFFFFFFFFFFFFFFFFFFFFFFFF AND DUP2 MSTORE PUSH1 0x20 ADD SWAP1 DUP2 MSTORE PUSH1 0x20 ADD PUSH1 0x0 KECCAK256 PUSH1 0x0 SWAP1 SLOAD SWAP1 PUSH2 0x100 EXP SWAP1 DIV PUSH1 0xFF AND ISZERO ISZERO EQ PUSH2 0x10C2 JUMPI PUSH1 0x40 MLOAD PUSH32 0x8C379A000000000000000000000000000000000000000000000000000000000 DUP2 MSTORE PUSH1 0x4 ADD PUSH2 0x10B9 SWAP1 PUSH2 0x18A9 JUMP JUMPDEST PUSH1 0x40 MLOAD DUP1 SWAP2 SUB SWAP1 REVERT JUMPDEST PUSH1 0x1 PUSH1 0x4 DUP3 DUP2 SLOAD DUP2 LT PUSH2 0x10D8 JUMPI PUSH2 0x10D7 PUSH2 0x16A4 JUMP JUMPDEST JUMPDEST SWAP1 PUSH1 0x0 MSTORE PUSH1 0x20 PUSH1 0x0 KECCAK256 SWAP1 PUSH1 0x4 MUL ADD PUSH1 0x3 ADD PUSH1 0x0 DUP3 DUP3 SLOAD PUSH2 0x10F8 SWAP2 SWAP1 PUSH2 0x18C9 JUMP JUMPDEST SWAP3 POP POP DUP2 SWAP1 SSTORE POP PUSH1 0x0 PUSH1 0x3 PUSH1 0x0 DUP4 DUP2 MSTORE PUSH1 0x20 ADD SWAP1 DUP2 MSTORE PUSH1 0x20 ADD PUSH1 0x0 KECCAK256 PUSH1 0x0 CALLER PUSH20 0xFFFFFFFFFFFFFFFFFFFFFFFFFFFFFFFFFFFFFFFF AND PUSH20 0xFFFFFFFFFFFFFFFFFFFFFFFFFFFFFFFFFFFFFFFF AND DUP2 MSTORE PUSH1 0x20 ADD SWAP1 DUP2 MSTORE PUSH1 0x20 ADD PUSH1 0x0 KECCAK256 PUSH1 0x0 PUSH2 0x100 EXP DUP2 SLOAD DUP2 PUSH1 0xFF MUL NOT AND SWAP1 DUP4 ISZERO ISZERO MUL OR SWAP1 SSTORE POP POP JUMP JUMPDEST PUSH1 0x0 DUP1 REVERT JUMPDEST PUSH1 0x0 DUP2 SWAP1 POP SWAP2 SWAP1 POP JUMP JUMPDEST PUSH2 0x1183 DUP2 PUSH2 0x1170 JUMP JUMPDEST DUP2 EQ PUSH2 0x118E JUMPI PUSH1 0x0 DUP1 REVERT JUMPDEST POP JUMP JUMPDEST PUSH1 0x0 DUP2 CALLDATALOAD SWAP1 POP PUSH2 0x11A0 DUP2 PUSH2 0x117A JUMP JUMPDEST SWAP3 SWAP2 POP POP JUMP JUMPDEST PUSH1 0x0 PUSH1 0x20 DUP3 DUP5 SUB SLT ISZERO PUSH2 0x11BC JUMPI PUSH2 0x11BB PUSH2 0x116B JUMP JUMPDEST JUMPDEST PUSH1 0x0 PUSH2 0x11CA DUP5 DUP3 DUP6 ADD PUSH2 0x1191 JUMP JUMPDEST SWAP2 POP POP SWAP3 SWAP2 POP POP JUMP JUMPDEST PUSH1 0x0 PUSH20 0xFFFFFFFFFFFFFFFFFFFFFFFFFFFFFFFFFFFFFFFF DUP3 AND SWAP1 POP SWAP2 SWAP1 POP JUMP JUMPDEST PUSH1 0x0 PUSH2 0x11FE DUP3 PUSH2 0x11D3 JUMP JUMPDEST SWAP1 POP SWAP2 SWAP1 POP JUMP JUMPDEST PUSH2 0x120E DUP2 PUSH2 0x11F3 JUMP JUMPDEST DUP3 MSTORE POP POP JUMP JUMPDEST PUSH1 0x0 PUSH1 0x20 DUP3 ADD SWAP1 POP PUSH2 0x1229 PUSH1 0x0 DUP4 ADD DUP5 PUSH2 0x1205 JUMP JUMPDEST SWAP3 SWAP2 POP POP JUMP JUMPDEST PUSH2 0x1238 DUP2 PUSH2 0x1170 JUMP JUMPDEST DUP3 MSTORE POP POP JUMP JUMPDEST PUSH1 0x0 PUSH1 0x20 DUP3 ADD SWAP1 POP PUSH2 0x1253 PUSH1 0x0 DUP4 ADD DUP5 PUSH2 0x122F JUMP JUMPDEST SWAP3 SWAP2 POP POP JUMP JUMPDEST PUSH2 0x1262 DUP2 PUSH2 0x11F3 JUMP JUMPDEST DUP2 EQ PUSH2 0x126D JUMPI PUSH1 0x0 DUP1 REVERT JUMPDEST POP JUMP JUMPDEST PUSH1 0x0 DUP2 CALLDATALOAD SWAP1 POP PUSH2 0x127F DUP2 PUSH2 0x1259 JUMP JUMPDEST SWAP3 SWAP2 POP POP JUMP JUMPDEST PUSH1 0x0 PUSH1 0x20 DUP3 DUP5 SUB SLT ISZERO PUSH2 0x129B JUMPI PUSH2 0x129A PUSH2 0x116B JUMP JUMPDEST JUMPDEST PUSH1 0x0 PUSH2 0x12A9 DUP5 DUP3 DUP6 ADD PUSH2 0x1270 JUMP JUMPDEST SWAP2 POP POP SWAP3 SWAP2 POP POP JUMP JUMPDEST PUSH1 0x0 DUP2 ISZERO ISZERO SWAP1 POP SWAP2 SWAP1 POP JUMP JUMPDEST PUSH2 0x12C7 DUP2 PUSH2 0x12B2 JUMP JUMPDEST DUP3 MSTORE POP POP JUMP JUMPDEST PUSH1 0x0 PUSH1 0x20 DUP3 ADD SWAP1 POP PUSH2 0x12E2 PUSH1 0x0 DUP4 ADD DUP5 PUSH2 0x12BE JUMP JUMPDEST SWAP3 SWAP2 POP POP JUMP JUMPDEST PUSH1 0x0 DUP1 PUSH1 0x40 DUP4 DUP6 SUB SLT ISZERO PUSH2 0x12FF JUMPI PUSH2 0x12FE PUSH2 0x116B JUMP JUMPDEST JUMPDEST PUSH1 0x0 PUSH2 0x130D DUP6 DUP3 DUP7 ADD PUSH2 0x1191 JUMP JUMPDEST SWAP3 POP POP PUSH1 0x20 PUSH2 0x131E DUP6 DUP3 DUP7 ADD PUSH2 0x1270 JUMP JUMPDEST SWAP2 POP POP SWAP3 POP SWAP3 SWAP1 POP JUMP JUMPDEST PUSH1 0x0 PUSH1 0x80 DUP3 ADD SWAP1 POP PUSH2 0x133D PUSH1 0x0 DUP4 ADD DUP8 PUSH2 0x1205 JUMP JUMPDEST PUSH2 0x134A PUSH1 0x20 DUP4 ADD DUP7 PUSH2 0x122F JUMP JUMPDEST PUSH2 0x1357 PUSH1 0x40 DUP4 ADD DUP6 PUSH2 0x12BE JUMP JUMPDEST PUSH2 0x1364 PUSH1 0x60 DUP4 ADD DUP5 PUSH2 0x122F JUMP JUMPDEST SWAP6 SWAP5 POP POP POP POP POP JUMP JUMPDEST PUSH1 0x0 DUP1 PUSH1 0x40 DUP4 DUP6 SUB SLT ISZERO PUSH2 0x1384 JUMPI PUSH2 0x1383 PUSH2 0x116B JUMP JUMPDEST JUMPDEST PUSH1 0x0 PUSH2 0x1392 DUP6 DUP3 DUP7 ADD PUSH2 0x1270 JUMP JUMPDEST SWAP3 POP POP PUSH1 0x20 PUSH2 0x13A3 DUP6 DUP3 DUP7 ADD PUSH2 0x1270 JUMP JUMPDEST SWAP2 POP POP SWAP3 POP SWAP3 SWAP1 POP JUMP JUMPDEST PUSH1 0x0 DUP1 PUSH1 0x40 DUP4 DUP6 SUB SLT ISZERO PUSH2 0x13C4 JUMPI PUSH2 0x13C3 PUSH2 0x116B JUMP JUMPDEST JUMPDEST PUSH1 0x0 PUSH2 0x13D2 DUP6 DUP3 DUP7 ADD PUSH2 0x1270 JUMP JUMPDEST SWAP3 POP POP PUSH1 0x20 PUSH2 0x13E3 DUP6 DUP3 DUP7 ADD PUSH2 0x1191 JUMP JUMPDEST SWAP2 POP POP SWAP3 POP SWAP3 SWAP1 POP JUMP JUMPDEST PUSH1 0x0 DUP3 DUP3 MSTORE PUSH1 0x20 DUP3 ADD SWAP1 POP SWAP3 SWAP2 POP POP JUMP JUMPDEST PUSH32 0x596F7572277265206E6F7420616E206F776E6572206F6620746869732077616C PUSH1 0x0 DUP3 ADD MSTORE PUSH32 0x6C65740000000000000000000000000000000000000000000000000000000000 PUSH1 0x20 DUP3 ADD MSTORE POP JUMP JUMPDEST PUSH1 0x0 PUSH2 0x145A PUSH1 0x23 DUP4 PUSH2 0x13ED JUMP JUMPDEST SWAP2 POP PUSH2 0x1465 DUP3 PUSH2 0x13FE JUMP JUMPDEST PUSH1 0x40 DUP3 ADD SWAP1 POP SWAP2 SWAP1 POP JUMP JUMPDEST PUSH1 0x0 PUSH1 0x20 DUP3 ADD SWAP1 POP DUP2 DUP2 SUB PUSH1 0x0 DUP4 ADD MSTORE PUSH2 0x1489 DUP2 PUSH2 0x144D JUMP JUMPDEST SWAP1 POP SWAP2 SWAP1 POP JUMP JUMPDEST PUSH32 0x596F7527766520616C726561647920766F746564206F6E207468697320616464 PUSH1 0x0 DUP3 ADD MSTORE PUSH32 0x7265737300000000000000000000000000000000000000000000000000000000 PUSH1 0x20 DUP3 ADD MSTORE POP JUMP JUMPDEST PUSH1 0x0 PUSH2 0x14EC PUSH1 0x24 DUP4 PUSH2 0x13ED JUMP JUMPDEST SWAP2 POP PUSH2 0x14F7 DUP3 PUSH2 0x1490 JUMP JUMPDEST PUSH1 0x40 DUP3 ADD SWAP1 POP SWAP2 SWAP1 POP JUMP JUMPDEST PUSH1 0x0 PUSH1 0x20 DUP3 ADD SWAP1 POP DUP2 DUP2 SUB PUSH1 0x0 DUP4 ADD MSTORE PUSH2 0x151B DUP2 PUSH2 0x14DF JUMP JUMPDEST SWAP1 POP SWAP2 SWAP1 POP JUMP JUMPDEST PUSH32 0x4E487B7100000000000000000000000000000000000000000000000000000000 PUSH1 0x0 MSTORE PUSH1 0x11 PUSH1 0x4 MSTORE PUSH1 0x24 PUSH1 0x0 REVERT JUMPDEST PUSH1 0x0 PUSH2 0x155C DUP3 PUSH2 0x1170 JUMP JUMPDEST SWAP2 POP PUSH2 0x1567 DUP4 PUSH2 0x1170 JUMP JUMPDEST SWAP3 POP DUP3 PUSH32 0xFFFFFFFFFFFFFFFFFFFFFFFFFFFFFFFFFFFFFFFFFFFFFFFFFFFFFFFFFFFFFFFF SUB DUP3 GT ISZERO PUSH2 0x159C JUMPI PUSH2 0x159B PUSH2 0x1522 JUMP JUMPDEST JUMPDEST DUP3 DUP3 ADD SWAP1 POP SWAP3 SWAP2 POP POP JUMP JUMPDEST PUSH32 0x4E487B7100000000000000000000000000000000000000000000000000000000 PUSH1 0x0 MSTORE PUSH1 0x12 PUSH1 0x4 MSTORE PUSH1 0x24 PUSH1 0x0 REVERT JUMPDEST PUSH1 0x0 PUSH2 0x15E1 DUP3 PUSH2 0x1170 JUMP JUMPDEST SWAP2 POP PUSH2 0x15EC DUP4 PUSH2 0x1170 JUMP JUMPDEST SWAP3 POP DUP3 PUSH2 0x15FC JUMPI PUSH2 0x15FB PUSH2 0x15A7 JUMP JUMPDEST JUMPDEST DUP3 DUP3 MOD SWAP1 POP SWAP3 SWAP2 POP POP JUMP JUMPDEST PUSH1 0x0 PUSH2 0x1612 DUP3 PUSH2 0x1170 JUMP JUMPDEST SWAP2 POP PUSH2 0x161D DUP4 PUSH2 0x1170 JUMP JUMPDEST SWAP3 POP DUP3 PUSH2 0x162D JUMPI PUSH2 0x162C PUSH2 0x15A7 JUMP JUMPDEST JUMPDEST DUP3 DUP3 DIV SWAP1 POP SWAP3 SWAP2 POP POP JUMP JUMPDEST PUSH32 0x596F7527766520616C726561647920766F746564000000000000000000000000 PUSH1 0x0 DUP3 ADD MSTORE POP JUMP JUMPDEST PUSH1 0x0 PUSH2 0x166E PUSH1 0x14 DUP4 PUSH2 0x13ED JUMP JUMPDEST SWAP2 POP PUSH2 0x1679 DUP3 PUSH2 0x1638 JUMP JUMPDEST PUSH1 0x20 DUP3 ADD SWAP1 POP SWAP2 SWAP1 POP JUMP JUMPDEST PUSH1 0x0 PUSH1 0x20 DUP3 ADD SWAP1 POP DUP2 DUP2 SUB PUSH1 0x0 DUP4 ADD MSTORE PUSH2 0x169D DUP2 PUSH2 0x1661 JUMP JUMPDEST SWAP1 POP SWAP2 SWAP1 POP JUMP JUMPDEST PUSH32 0x4E487B7100000000000000000000000000000000000000000000000000000000 PUSH1 0x0 MSTORE PUSH1 0x32 PUSH1 0x4 MSTORE PUSH1 0x24 PUSH1 0x0 REVERT JUMPDEST PUSH32 0x4E6F7420656E6F75676820617070726F76616C73000000000000000000000000 PUSH1 0x0 DUP3 ADD MSTORE POP JUMP JUMPDEST PUSH1 0x0 PUSH2 0x1709 PUSH1 0x14 DUP4 PUSH2 0x13ED JUMP JUMPDEST SWAP2 POP PUSH2 0x1714 DUP3 PUSH2 0x16D3 JUMP JUMPDEST PUSH1 0x20 DUP3 ADD SWAP1 POP SWAP2 SWAP1 POP JUMP JUMPDEST PUSH1 0x0 PUSH1 0x20 DUP3 ADD SWAP1 POP DUP2 DUP2 SUB PUSH1 0x0 DUP4 ADD MSTORE PUSH2 0x1738 DUP2 PUSH2 0x16FC JUMP JUMPDEST SWAP1 POP SWAP2 SWAP1 POP JUMP JUMPDEST PUSH32 0x416C726561647920766F74656400000000000000000000000000000000000000 PUSH1 0x0 DUP3 ADD MSTORE POP JUMP JUMPDEST PUSH1 0x0 PUSH2 0x1775 PUSH1 0xD DUP4 PUSH2 0x13ED JUMP JUMPDEST SWAP2 POP PUSH2 0x1780 DUP3 PUSH2 0x173F JUMP JUMPDEST PUSH1 0x20 DUP3 ADD SWAP1 POP SWAP2 SWAP1 POP JUMP JUMPDEST PUSH1 0x0 PUSH1 0x20 DUP3 ADD SWAP1 POP DUP2 DUP2 SUB PUSH1 0x0 DUP4 ADD MSTORE PUSH2 0x17A4 DUP2 PUSH2 0x1768 JUMP JUMPDEST SWAP1 POP SWAP2 SWAP1 POP JUMP JUMPDEST PUSH1 0x0 DUP2 SWAP1 POP SWAP3 SWAP2 POP POP JUMP JUMPDEST POP JUMP JUMPDEST PUSH1 0x0 PUSH2 0x17C6 PUSH1 0x0 DUP4 PUSH2 0x17AB JUMP JUMPDEST SWAP2 POP PUSH2 0x17D1 DUP3 PUSH2 0x17B6 JUMP JUMPDEST PUSH1 0x0 DUP3 ADD SWAP1 POP SWAP2 SWAP1 POP JUMP JUMPDEST PUSH1 0x0 PUSH2 0x17E7 DUP3 PUSH2 0x17B9 JUMP JUMPDEST SWAP2 POP DUP2 SWAP1 POP SWAP2 SWAP1 POP JUMP JUMPDEST PUSH32 0x596F7520646F6E2774206861766520656E6F75676820746F6B656E7300000000 PUSH1 0x0 DUP3 ADD MSTORE POP JUMP JUMPDEST PUSH1 0x0 PUSH2 0x1827 PUSH1 0x1C DUP4 PUSH2 0x13ED JUMP JUMPDEST SWAP2 POP PUSH2 0x1832 DUP3 PUSH2 0x17F1 JUMP JUMPDEST PUSH1 0x20 DUP3 ADD SWAP1 POP SWAP2 SWAP1 POP JUMP JUMPDEST PUSH1 0x0 PUSH1 0x20 DUP3 ADD SWAP1 POP DUP2 DUP2 SUB PUSH1 0x0 DUP4 ADD MSTORE PUSH2 0x1856 DUP2 PUSH2 0x181A JUMP JUMPDEST SWAP1 POP SWAP2 SWAP1 POP JUMP JUMPDEST PUSH32 0x596F7520686176656E277420766F746564207965740000000000000000000000 PUSH1 0x0 DUP3 ADD MSTORE POP JUMP JUMPDEST PUSH1 0x0 PUSH2 0x1893 PUSH1 0x15 DUP4 PUSH2 0x13ED JUMP JUMPDEST SWAP2 POP PUSH2 0x189E DUP3 PUSH2 0x185D JUMP JUMPDEST PUSH1 0x20 DUP3 ADD SWAP1 POP SWAP2 SWAP1 POP JUMP JUMPDEST PUSH1 0x0 PUSH1 0x20 DUP3 ADD SWAP1 POP DUP2 DUP2 SUB PUSH1 0x0 DUP4 ADD MSTORE PUSH2 0x18C2 DUP2 PUSH2 0x1886 JUMP JUMPDEST SWAP1 POP SWAP2 SWAP1 POP JUMP JUMPDEST PUSH1 0x0 PUSH2 0x18D4 DUP3 PUSH2 0x1170 JUMP JUMPDEST SWAP2 POP PUSH2 0x18DF DUP4 PUSH2 0x1170 JUMP JUMPDEST SWAP3 POP DUP3 DUP3 LT ISZERO PUSH2 0x18F2 JUMPI PUSH2 0x18F1 PUSH2 0x1522 JUMP JUMPDEST JUMPDEST DUP3 DUP3 SUB SWAP1 POP SWAP3 SWAP2 POP POP JUMP INVALID LOG2 PUSH5 0x6970667358 0x22 SLT KECCAK256 0xA9 SWAP5 PUSH24 0x6626B9CE3E6F5183C5378BD7CCAC52A1B07E90D91629E0A2 0xB4 0xAF EXP PC SHL PUSH5 0x736F6C6343 STOP ADDMOD 0xD STOP CALLER "
				},
				"gasEstimates": {
					"creation": {
						"codeDepositCost": "1290200",
						"executionCost": "169318",
						"totalCost": "1459518"
					},
					"external": {
						"alreadyVoted(uint256,address)": "3154",
						"alreadyVotedNewAddress(address,address)": "infinite",
						"approvalsNeeded()": "2452",
						"executeTransaction(uint256)": "infinite",
						"ownerList(address)": "2890",
						"ownerListLength()": "2511",
						"owners(uint256)": "4957",
						"proposeTransaction(address,uint256)": "103080",
						"revokeOnTransaction(uint256)": "infinite",
						"transactions(uint256)": "infinite",
						"voteOnTransaction(uint256)": "infinite",
						"votesToNewAddress(address)": "2925",
						"votingOnNewAddress(address)": "infinite"
					}
				},
				"methodIdentifiers": {
					"alreadyVoted(uint256,address)": "60c8b28d",
					"alreadyVotedNewAddress(address,address)": "e88aca40",
					"approvalsNeeded()": "3349a734",
					"executeTransaction(uint256)": "ee22610b",
					"ownerList(address)": "51f22a72",
					"ownerListLength()": "f5358aa8",
					"owners(uint256)": "025e7c27",
					"proposeTransaction(address,uint256)": "f19a6682",
					"revokeOnTransaction(uint256)": "f9a7c0b1",
					"transactions(uint256)": "9ace38c2",
					"voteOnTransaction(uint256)": "d579b696",
					"votesToNewAddress(address)": "b10f8b69",
					"votingOnNewAddress(address)": "b5e8d4b1"
				}
			},
			"storageLayout": {
				"storage": [
					{
						"astId": 4,
						"contract": "bootcamp/week3/day_4_multiSigWallet.sol:multiSigLesson",
						"label": "owners",
						"offset": 0,
						"slot": "0",
						"type": "t_array(t_address)dyn_storage"
					},
					{
						"astId": 7,
						"contract": "bootcamp/week3/day_4_multiSigWallet.sol:multiSigLesson",
						"label": "approvalsNeeded",
						"offset": 0,
						"slot": "1",
						"type": "t_uint256"
					},
					{
						"astId": 11,
						"contract": "bootcamp/week3/day_4_multiSigWallet.sol:multiSigLesson",
						"label": "ownerList",
						"offset": 0,
						"slot": "2",
						"type": "t_mapping(t_address,t_bool)"
					},
					{
						"astId": 17,
						"contract": "bootcamp/week3/day_4_multiSigWallet.sol:multiSigLesson",
						"label": "alreadyVoted",
						"offset": 0,
						"slot": "3",
						"type": "t_mapping(t_uint256,t_mapping(t_address,t_bool))"
					},
					{
						"astId": 78,
						"contract": "bootcamp/week3/day_4_multiSigWallet.sol:multiSigLesson",
						"label": "transactions",
						"offset": 0,
						"slot": "4",
						"type": "t_array(t_struct(Transaction)74_storage)dyn_storage"
					},
					{
						"astId": 82,
						"contract": "bootcamp/week3/day_4_multiSigWallet.sol:multiSigLesson",
						"label": "votesToNewAddress",
						"offset": 0,
						"slot": "5",
						"type": "t_mapping(t_address,t_uint256)"
					},
					{
						"astId": 88,
						"contract": "bootcamp/week3/day_4_multiSigWallet.sol:multiSigLesson",
						"label": "alreadyVotedNewAddress",
						"offset": 0,
						"slot": "6",
						"type": "t_mapping(t_address,t_mapping(t_address,t_bool))"
					}
				],
				"types": {
					"t_address": {
						"encoding": "inplace",
						"label": "address",
						"numberOfBytes": "20"
					},
					"t_array(t_address)dyn_storage": {
						"base": "t_address",
						"encoding": "dynamic_array",
						"label": "address[]",
						"numberOfBytes": "32"
					},
					"t_array(t_struct(Transaction)74_storage)dyn_storage": {
						"base": "t_struct(Transaction)74_storage",
						"encoding": "dynamic_array",
						"label": "struct multiSigLesson.Transaction[]",
						"numberOfBytes": "32"
					},
					"t_bool": {
						"encoding": "inplace",
						"label": "bool",
						"numberOfBytes": "1"
					},
					"t_mapping(t_address,t_bool)": {
						"encoding": "mapping",
						"key": "t_address",
						"label": "mapping(address => bool)",
						"numberOfBytes": "32",
						"value": "t_bool"
					},
					"t_mapping(t_address,t_mapping(t_address,t_bool))": {
						"encoding": "mapping",
						"key": "t_address",
						"label": "mapping(address => mapping(address => bool))",
						"numberOfBytes": "32",
						"value": "t_mapping(t_address,t_bool)"
					},
					"t_mapping(t_address,t_uint256)": {
						"encoding": "mapping",
						"key": "t_address",
						"label": "mapping(address => uint256)",
						"numberOfBytes": "32",
						"value": "t_uint256"
					},
					"t_mapping(t_uint256,t_mapping(t_address,t_bool))": {
						"encoding": "mapping",
						"key": "t_uint256",
						"label": "mapping(uint256 => mapping(address => bool))",
						"numberOfBytes": "32",
						"value": "t_mapping(t_address,t_bool)"
					},
					"t_struct(Transaction)74_storage": {
						"encoding": "inplace",
						"label": "struct multiSigLesson.Transaction",
						"members": [
							{
								"astId": 67,
								"contract": "bootcamp/week3/day_4_multiSigWallet.sol:multiSigLesson",
								"label": "sendingTo",
								"offset": 0,
								"slot": "0",
								"type": "t_address"
							},
							{
								"astId": 69,
								"contract": "bootcamp/week3/day_4_multiSigWallet.sol:multiSigLesson",
								"label": "value",
								"offset": 0,
								"slot": "1",
								"type": "t_uint256"
							},
							{
								"astId": 71,
								"contract": "bootcamp/week3/day_4_multiSigWallet.sol:multiSigLesson",
								"label": "alreadyExecuted",
								"offset": 0,
								"slot": "2",
								"type": "t_bool"
							},
							{
								"astId": 73,
								"contract": "bootcamp/week3/day_4_multiSigWallet.sol:multiSigLesson",
								"label": "approvals",
								"offset": 0,
								"slot": "3",
								"type": "t_uint256"
							}
						],
						"numberOfBytes": "128"
					},
					"t_uint256": {
						"encoding": "inplace",
						"label": "uint256",
						"numberOfBytes": "32"
					}
				}
			},
			"userdoc": {
				"kind": "user",
				"methods": {},
				"version": 1
			}
		}
	}
}