{
	"data": {
		"bytecode": {
			"linkReferences": {},
			"object": "608060405234801561001057600080fd5b50336000806101000a81548173ffffffffffffffffffffffffffffffffffffffff021916908373ffffffffffffffffffffffffffffffffffffffff160217905550610485806100606000396000f3fe608060405234801561001057600080fd5b506004361061004c5760003560e01c80630900f0101461005157806329dcf0681461006d5780638da5cb5b1461008b578063e787ee1b146100a9575b600080fd5b61006b600480360381019061006691906102ee565b6100c5565b005b6100756101c9565b6040516100829190610334565b60405180910390f35b6100936101cf565b6040516100a0919061035e565b60405180910390f35b6100c360048036038101906100be91906103a5565b6101f3565b005b3373ffffffffffffffffffffffffffffffffffffffff1660008054906101000a900473ffffffffffffffffffffffffffffffffffffffff1673ffffffffffffffffffffffffffffffffffffffff1614610153576040517f08c379a000000000000000000000000000000000000000000000000000000000815260040161014a9061042f565b60405180910390fd5b60008190508073ffffffffffffffffffffffffffffffffffffffff1663e787ee1b6001546040518263ffffffff1660e01b81526004016101939190610334565b600060405180830381600087803b1580156101ad57600080fd5b505af11580156101c1573d6000803e3d6000fd5b505050505050565b60015481565b60008054906101000a900473ffffffffffffffffffffffffffffffffffffffff1681565b3373ffffffffffffffffffffffffffffffffffffffff1660008054906101000a900473ffffffffffffffffffffffffffffffffffffffff1673ffffffffffffffffffffffffffffffffffffffff1614610281576040517f08c379a00000000000000000000000000000000000000000000000000000000081526004016102789061042f565b60405180910390fd5b8060018190555050565b600080fd5b600073ffffffffffffffffffffffffffffffffffffffff82169050919050565b60006102bb82610290565b9050919050565b6102cb816102b0565b81146102d657600080fd5b50565b6000813590506102e8816102c2565b92915050565b6000602082840312156103045761030361028b565b5b6000610312848285016102d9565b91505092915050565b6000819050919050565b61032e8161031b565b82525050565b60006020820190506103496000830184610325565b92915050565b610358816102b0565b82525050565b6000602082019050610373600083018461034f565b92915050565b6103828161031b565b811461038d57600080fd5b50565b60008135905061039f81610379565b92915050565b6000602082840312156103bb576103ba61028b565b5b60006103c984828501610390565b91505092915050565b600082825260208201905092915050565b7f596f75277265206e6f7420746865206f776e6572000000000000000000000000600082015250565b60006104196014836103d2565b9150610424826103e3565b602082019050919050565b600060208201905081810360008301526104488161040c565b905091905056fea2646970667358221220f177628da305bece98970aa01e09c646197b646cf53a6303bd78064b4101e93d64736f6c634300080d0033",
			"opcodes": "PUSH1 0x80 PUSH1 0x40 MSTORE CALLVALUE DUP1 ISZERO PUSH2 0x10 JUMPI PUSH1 0x0 DUP1 REVERT JUMPDEST POP CALLER PUSH1 0x0 DUP1 PUSH2 0x100 EXP DUP2 SLOAD DUP2 PUSH20 0xFFFFFFFFFFFFFFFFFFFFFFFFFFFFFFFFFFFFFFFF MUL NOT AND SWAP1 DUP4 PUSH20 0xFFFFFFFFFFFFFFFFFFFFFFFFFFFFFFFFFFFFFFFF AND MUL OR SWAP1 SSTORE POP PUSH2 0x485 DUP1 PUSH2 0x60 PUSH1 0x0 CODECOPY PUSH1 0x0 RETURN INVALID PUSH1 0x80 PUSH1 0x40 MSTORE CALLVALUE DUP1 ISZERO PUSH2 0x10 JUMPI PUSH1 0x0 DUP1 REVERT JUMPDEST POP PUSH1 0x4 CALLDATASIZE LT PUSH2 0x4C JUMPI PUSH1 0x0 CALLDATALOAD PUSH1 0xE0 SHR DUP1 PUSH4 0x900F010 EQ PUSH2 0x51 JUMPI DUP1 PUSH4 0x29DCF068 EQ PUSH2 0x6D JUMPI DUP1 PUSH4 0x8DA5CB5B EQ PUSH2 0x8B JUMPI DUP1 PUSH4 0xE787EE1B EQ PUSH2 0xA9 JUMPI JUMPDEST PUSH1 0x0 DUP1 REVERT JUMPDEST PUSH2 0x6B PUSH1 0x4 DUP1 CALLDATASIZE SUB DUP2 ADD SWAP1 PUSH2 0x66 SWAP2 SWAP1 PUSH2 0x2EE JUMP JUMPDEST PUSH2 0xC5 JUMP JUMPDEST STOP JUMPDEST PUSH2 0x75 PUSH2 0x1C9 JUMP JUMPDEST PUSH1 0x40 MLOAD PUSH2 0x82 SWAP2 SWAP1 PUSH2 0x334 JUMP JUMPDEST PUSH1 0x40 MLOAD DUP1 SWAP2 SUB SWAP1 RETURN JUMPDEST PUSH2 0x93 PUSH2 0x1CF JUMP JUMPDEST PUSH1 0x40 MLOAD PUSH2 0xA0 SWAP2 SWAP1 PUSH2 0x35E JUMP JUMPDEST PUSH1 0x40 MLOAD DUP1 SWAP2 SUB SWAP1 RETURN JUMPDEST PUSH2 0xC3 PUSH1 0x4 DUP1 CALLDATASIZE SUB DUP2 ADD SWAP1 PUSH2 0xBE SWAP2 SWAP1 PUSH2 0x3A5 JUMP JUMPDEST PUSH2 0x1F3 JUMP JUMPDEST STOP JUMPDEST CALLER PUSH20 0xFFFFFFFFFFFFFFFFFFFFFFFFFFFFFFFFFFFFFFFF AND PUSH1 0x0 DUP1 SLOAD SWAP1 PUSH2 0x100 EXP SWAP1 DIV PUSH20 0xFFFFFFFFFFFFFFFFFFFFFFFFFFFFFFFFFFFFFFFF AND PUSH20 0xFFFFFFFFFFFFFFFFFFFFFFFFFFFFFFFFFFFFFFFF AND EQ PUSH2 0x153 JUMPI PUSH1 0x40 MLOAD PUSH32 0x8C379A000000000000000000000000000000000000000000000000000000000 DUP2 MSTORE PUSH1 0x4 ADD PUSH2 0x14A SWAP1 PUSH2 0x42F JUMP JUMPDEST PUSH1 0x40 MLOAD DUP1 SWAP2 SUB SWAP1 REVERT JUMPDEST PUSH1 0x0 DUP2 SWAP1 POP DUP1 PUSH20 0xFFFFFFFFFFFFFFFFFFFFFFFFFFFFFFFFFFFFFFFF AND PUSH4 0xE787EE1B PUSH1 0x1 SLOAD PUSH1 0x40 MLOAD DUP3 PUSH4 0xFFFFFFFF AND PUSH1 0xE0 SHL DUP2 MSTORE PUSH1 0x4 ADD PUSH2 0x193 SWAP2 SWAP1 PUSH2 0x334 JUMP JUMPDEST PUSH1 0x0 PUSH1 0x40 MLOAD DUP1 DUP4 SUB DUP2 PUSH1 0x0 DUP8 DUP1 EXTCODESIZE ISZERO DUP1 ISZERO PUSH2 0x1AD JUMPI PUSH1 0x0 DUP1 REVERT JUMPDEST POP GAS CALL ISZERO DUP1 ISZERO PUSH2 0x1C1 JUMPI RETURNDATASIZE PUSH1 0x0 DUP1 RETURNDATACOPY RETURNDATASIZE PUSH1 0x0 REVERT JUMPDEST POP POP POP POP POP POP JUMP JUMPDEST PUSH1 0x1 SLOAD DUP2 JUMP JUMPDEST PUSH1 0x0 DUP1 SLOAD SWAP1 PUSH2 0x100 EXP SWAP1 DIV PUSH20 0xFFFFFFFFFFFFFFFFFFFFFFFFFFFFFFFFFFFFFFFF AND DUP2 JUMP JUMPDEST CALLER PUSH20 0xFFFFFFFFFFFFFFFFFFFFFFFFFFFFFFFFFFFFFFFF AND PUSH1 0x0 DUP1 SLOAD SWAP1 PUSH2 0x100 EXP SWAP1 DIV PUSH20 0xFFFFFFFFFFFFFFFFFFFFFFFFFFFFFFFFFFFFFFFF AND PUSH20 0xFFFFFFFFFFFFFFFFFFFFFFFFFFFFFFFFFFFFFFFF AND EQ PUSH2 0x281 JUMPI PUSH1 0x40 MLOAD PUSH32 0x8C379A000000000000000000000000000000000000000000000000000000000 DUP2 MSTORE PUSH1 0x4 ADD PUSH2 0x278 SWAP1 PUSH2 0x42F JUMP JUMPDEST PUSH1 0x40 MLOAD DUP1 SWAP2 SUB SWAP1 REVERT JUMPDEST DUP1 PUSH1 0x1 DUP2 SWAP1 SSTORE POP POP JUMP JUMPDEST PUSH1 0x0 DUP1 REVERT JUMPDEST PUSH1 0x0 PUSH20 0xFFFFFFFFFFFFFFFFFFFFFFFFFFFFFFFFFFFFFFFF DUP3 AND SWAP1 POP SWAP2 SWAP1 POP JUMP JUMPDEST PUSH1 0x0 PUSH2 0x2BB DUP3 PUSH2 0x290 JUMP JUMPDEST SWAP1 POP SWAP2 SWAP1 POP JUMP JUMPDEST PUSH2 0x2CB DUP2 PUSH2 0x2B0 JUMP JUMPDEST DUP2 EQ PUSH2 0x2D6 JUMPI PUSH1 0x0 DUP1 REVERT JUMPDEST POP JUMP JUMPDEST PUSH1 0x0 DUP2 CALLDATALOAD SWAP1 POP PUSH2 0x2E8 DUP2 PUSH2 0x2C2 JUMP JUMPDEST SWAP3 SWAP2 POP POP JUMP JUMPDEST PUSH1 0x0 PUSH1 0x20 DUP3 DUP5 SUB SLT ISZERO PUSH2 0x304 JUMPI PUSH2 0x303 PUSH2 0x28B JUMP JUMPDEST JUMPDEST PUSH1 0x0 PUSH2 0x312 DUP5 DUP3 DUP6 ADD PUSH2 0x2D9 JUMP JUMPDEST SWAP2 POP POP SWAP3 SWAP2 POP POP JUMP JUMPDEST PUSH1 0x0 DUP2 SWAP1 POP SWAP2 SWAP1 POP JUMP JUMPDEST PUSH2 0x32E DUP2 PUSH2 0x31B JUMP JUMPDEST DUP3 MSTORE POP POP JUMP JUMPDEST PUSH1 0x0 PUSH1 0x20 DUP3 ADD SWAP1 POP PUSH2 0x349 PUSH1 0x0 DUP4 ADD DUP5 PUSH2 0x325 JUMP JUMPDEST SWAP3 SWAP2 POP POP JUMP JUMPDEST PUSH2 0x358 DUP2 PUSH2 0x2B0 JUMP JUMPDEST DUP3 MSTORE POP POP JUMP JUMPDEST PUSH1 0x0 PUSH1 0x20 DUP3 ADD SWAP1 POP PUSH2 0x373 PUSH1 0x0 DUP4 ADD DUP5 PUSH2 0x34F JUMP JUMPDEST SWAP3 SWAP2 POP POP JUMP JUMPDEST PUSH2 0x382 DUP2 PUSH2 0x31B JUMP JUMPDEST DUP2 EQ PUSH2 0x38D JUMPI PUSH1 0x0 DUP1 REVERT JUMPDEST POP JUMP JUMPDEST PUSH1 0x0 DUP2 CALLDATALOAD SWAP1 POP PUSH2 0x39F DUP2 PUSH2 0x379 JUMP JUMPDEST SWAP3 SWAP2 POP POP JUMP JUMPDEST PUSH1 0x0 PUSH1 0x20 DUP3 DUP5 SUB SLT ISZERO PUSH2 0x3BB JUMPI PUSH2 0x3BA PUSH2 0x28B JUMP JUMPDEST JUMPDEST PUSH1 0x0 PUSH2 0x3C9 DUP5 DUP3 DUP6 ADD PUSH2 0x390 JUMP JUMPDEST SWAP2 POP POP SWAP3 SWAP2 POP POP JUMP JUMPDEST PUSH1 0x0 DUP3 DUP3 MSTORE PUSH1 0x20 DUP3 ADD SWAP1 POP SWAP3 SWAP2 POP POP JUMP JUMPDEST PUSH32 0x596F75277265206E6F7420746865206F776E6572000000000000000000000000 PUSH1 0x0 DUP3 ADD MSTORE POP JUMP JUMPDEST PUSH1 0x0 PUSH2 0x419 PUSH1 0x14 DUP4 PUSH2 0x3D2 JUMP JUMPDEST SWAP2 POP PUSH2 0x424 DUP3 PUSH2 0x3E3 JUMP JUMPDEST PUSH1 0x20 DUP3 ADD SWAP1 POP SWAP2 SWAP1 POP JUMP JUMPDEST PUSH1 0x0 PUSH1 0x20 DUP3 ADD SWAP1 POP DUP2 DUP2 SUB PUSH1 0x0 DUP4 ADD MSTORE PUSH2 0x448 DUP2 PUSH2 0x40C JUMP JUMPDEST SWAP1 POP SWAP2 SWAP1 POP JUMP INVALID LOG2 PUSH5 0x6970667358 0x22 SLT KECCAK256 CALL PUSH24 0x628DA305BECE98970AA01E09C646197B646CF53A6303BD78 MOD 0x4B COINBASE ADD 0xE9 RETURNDATASIZE PUSH5 0x736F6C6343 STOP ADDMOD 0xD STOP CALLER "
		},
		"gasEstimates": {
			"creation": {
				"codeDepositCost": "231400",
				"executionCost": "24541",
				"totalCost": "255941"
			},
			"external": {
				"last_completed_migrations()": "2429",
				"owner()": "2533",
				"set_completed(uint256)": "24731",
				"upgrade(address)": "infinite"
			}
		},
		"methodIdentifiers": {
			"last_completed_migrations()": "29dcf068",
			"owner()": "8da5cb5b",
			"set_completed(uint256)": "e787ee1b",
			"upgrade(address)": "0900f010"
		}
	},
	"abi": [
		{
			"inputs": [],
			"stateMutability": "nonpayable",
			"type": "constructor"
		},
		{
			"inputs": [],
			"name": "last_completed_migrations",
			"outputs": [
				{
					"internalType": "uint256",
					"name": "",
					"type": "uint256"
				}
			],
			"stateMutability": "view",
			"type": "function"
		},
		{
			"inputs": [],
			"name": "owner",
			"outputs": [
				{
					"internalType": "address",
					"name": "",
					"type": "address"
				}
			],
			"stateMutability": "view",
			"type": "function"
		},
		{
			"inputs": [
				{
					"internalType": "uint256",
					"name": "completed",
					"type": "uint256"
				}
			],
			"name": "set_completed",
			"outputs": [],
			"stateMutability": "nonpayable",
			"type": "function"
		},
		{
			"inputs": [
				{
					"internalType": "address",
					"name": "new_address",
					"type": "address"
				}
			],
			"name": "upgrade",
			"outputs": [],
			"stateMutability": "nonpayable",
			"type": "function"
		}
	]
}