{
	"data": {
		"bytecode": {
			"linkReferences": {},
			"object": "6080604052336000806101000a81548173ffffffffffffffffffffffffffffffffffffffff021916908373ffffffffffffffffffffffffffffffffffffffff160217905550346001819055506000600260006101000a81548160ff021916908315150217905550610206806100756000396000f3fe608060405234801561001057600080fd5b506004361061002b5760003560e01c8063a9464d8d14610030575b600080fd5b61004a60048036038101906100459190610190565b61004c565b005b6003829080600181540180825580915050600190039060005260206000200160009091909190916101000a81548173ffffffffffffffffffffffffffffffffffffffff021916908373ffffffffffffffffffffffffffffffffffffffff16021790555080600460008473ffffffffffffffffffffffffffffffffffffffff1673ffffffffffffffffffffffffffffffffffffffff168152602001908152602001600020819055505050565b600080fd5b600073ffffffffffffffffffffffffffffffffffffffff82169050919050565b6000610127826100fc565b9050919050565b6101378161011c565b811461014257600080fd5b50565b6000813590506101548161012e565b92915050565b6000819050919050565b61016d8161015a565b811461017857600080fd5b50565b60008135905061018a81610164565b92915050565b600080604083850312156101a7576101a66100f7565b5b60006101b585828601610145565b92505060206101c68582860161017b565b915050925092905056fea26469706673582212205f641f31152dd68c1939fda0ab074977c3c570c03adf73fcd706b1b14551836e64736f6c634300080d0033",
			"opcodes": "PUSH1 0x80 PUSH1 0x40 MSTORE CALLER PUSH1 0x0 DUP1 PUSH2 0x100 EXP DUP2 SLOAD DUP2 PUSH20 0xFFFFFFFFFFFFFFFFFFFFFFFFFFFFFFFFFFFFFFFF MUL NOT AND SWAP1 DUP4 PUSH20 0xFFFFFFFFFFFFFFFFFFFFFFFFFFFFFFFFFFFFFFFF AND MUL OR SWAP1 SSTORE POP CALLVALUE PUSH1 0x1 DUP2 SWAP1 SSTORE POP PUSH1 0x0 PUSH1 0x2 PUSH1 0x0 PUSH2 0x100 EXP DUP2 SLOAD DUP2 PUSH1 0xFF MUL NOT AND SWAP1 DUP4 ISZERO ISZERO MUL OR SWAP1 SSTORE POP PUSH2 0x206 DUP1 PUSH2 0x75 PUSH1 0x0 CODECOPY PUSH1 0x0 RETURN INVALID PUSH1 0x80 PUSH1 0x40 MSTORE CALLVALUE DUP1 ISZERO PUSH2 0x10 JUMPI PUSH1 0x0 DUP1 REVERT JUMPDEST POP PUSH1 0x4 CALLDATASIZE LT PUSH2 0x2B JUMPI PUSH1 0x0 CALLDATALOAD PUSH1 0xE0 SHR DUP1 PUSH4 0xA9464D8D EQ PUSH2 0x30 JUMPI JUMPDEST PUSH1 0x0 DUP1 REVERT JUMPDEST PUSH2 0x4A PUSH1 0x4 DUP1 CALLDATASIZE SUB DUP2 ADD SWAP1 PUSH2 0x45 SWAP2 SWAP1 PUSH2 0x190 JUMP JUMPDEST PUSH2 0x4C JUMP JUMPDEST STOP JUMPDEST PUSH1 0x3 DUP3 SWAP1 DUP1 PUSH1 0x1 DUP2 SLOAD ADD DUP1 DUP3 SSTORE DUP1 SWAP2 POP POP PUSH1 0x1 SWAP1 SUB SWAP1 PUSH1 0x0 MSTORE PUSH1 0x20 PUSH1 0x0 KECCAK256 ADD PUSH1 0x0 SWAP1 SWAP2 SWAP1 SWAP2 SWAP1 SWAP2 PUSH2 0x100 EXP DUP2 SLOAD DUP2 PUSH20 0xFFFFFFFFFFFFFFFFFFFFFFFFFFFFFFFFFFFFFFFF MUL NOT AND SWAP1 DUP4 PUSH20 0xFFFFFFFFFFFFFFFFFFFFFFFFFFFFFFFFFFFFFFFF AND MUL OR SWAP1 SSTORE POP DUP1 PUSH1 0x4 PUSH1 0x0 DUP5 PUSH20 0xFFFFFFFFFFFFFFFFFFFFFFFFFFFFFFFFFFFFFFFF AND PUSH20 0xFFFFFFFFFFFFFFFFFFFFFFFFFFFFFFFFFFFFFFFF AND DUP2 MSTORE PUSH1 0x20 ADD SWAP1 DUP2 MSTORE PUSH1 0x20 ADD PUSH1 0x0 KECCAK256 DUP2 SWAP1 SSTORE POP POP POP JUMP JUMPDEST PUSH1 0x0 DUP1 REVERT JUMPDEST PUSH1 0x0 PUSH20 0xFFFFFFFFFFFFFFFFFFFFFFFFFFFFFFFFFFFFFFFF DUP3 AND SWAP1 POP SWAP2 SWAP1 POP JUMP JUMPDEST PUSH1 0x0 PUSH2 0x127 DUP3 PUSH2 0xFC JUMP JUMPDEST SWAP1 POP SWAP2 SWAP1 POP JUMP JUMPDEST PUSH2 0x137 DUP2 PUSH2 0x11C JUMP JUMPDEST DUP2 EQ PUSH2 0x142 JUMPI PUSH1 0x0 DUP1 REVERT JUMPDEST POP JUMP JUMPDEST PUSH1 0x0 DUP2 CALLDATALOAD SWAP1 POP PUSH2 0x154 DUP2 PUSH2 0x12E JUMP JUMPDEST SWAP3 SWAP2 POP POP JUMP JUMPDEST PUSH1 0x0 DUP2 SWAP1 POP SWAP2 SWAP1 POP JUMP JUMPDEST PUSH2 0x16D DUP2 PUSH2 0x15A JUMP JUMPDEST DUP2 EQ PUSH2 0x178 JUMPI PUSH1 0x0 DUP1 REVERT JUMPDEST POP JUMP JUMPDEST PUSH1 0x0 DUP2 CALLDATALOAD SWAP1 POP PUSH2 0x18A DUP2 PUSH2 0x164 JUMP JUMPDEST SWAP3 SWAP2 POP POP JUMP JUMPDEST PUSH1 0x0 DUP1 PUSH1 0x40 DUP4 DUP6 SUB SLT ISZERO PUSH2 0x1A7 JUMPI PUSH2 0x1A6 PUSH2 0xF7 JUMP JUMPDEST JUMPDEST PUSH1 0x0 PUSH2 0x1B5 DUP6 DUP3 DUP7 ADD PUSH2 0x145 JUMP JUMPDEST SWAP3 POP POP PUSH1 0x20 PUSH2 0x1C6 DUP6 DUP3 DUP7 ADD PUSH2 0x17B JUMP JUMPDEST SWAP2 POP POP SWAP3 POP SWAP3 SWAP1 POP JUMP INVALID LOG2 PUSH5 0x6970667358 0x22 SLT KECCAK256 0x5F PUSH5 0x1F31152DD6 DUP13 NOT CODECOPY REVERT LOG0 0xAB SMOD 0x49 PUSH24 0xC3C570C03ADF73FCD706B1B14551836E64736F6C63430008 0xD STOP CALLER "
		},
		"gasEstimates": {
			"creation": {
				"codeDepositCost": "103600",
				"executionCost": "70775",
				"totalCost": "174375"
			},
			"external": {
				"setFamilyWallets(address,uint256)": "71389"
			}
		},
		"methodIdentifiers": {
			"setFamilyWallets(address,uint256)": "a9464d8d"
		}
	},
	"abi": [
		{
			"inputs": [],
			"stateMutability": "payable",
			"type": "constructor"
		},
		{
			"inputs": [
				{
					"internalType": "address payable",
					"name": "wallet",
					"type": "address"
				},
				{
					"internalType": "uint256",
					"name": "amount",
					"type": "uint256"
				}
			],
			"name": "setFamilyWallets",
			"outputs": [],
			"stateMutability": "nonpayable",
			"type": "function"
		}
	]
}