{
	"bootcamp/week2/day_2.sol": {
		"contractC": {
			"abi": [
				{
					"inputs": [],
					"name": "getOwnerName",
					"outputs": [
						{
							"internalType": "string",
							"name": "",
							"type": "string"
						}
					],
					"stateMutability": "pure",
					"type": "function"
				}
			],
			"devdoc": {
				"kind": "dev",
				"methods": {},
				"version": 1
			},
			"evm": {
				"assembly": "    /* \"bootcamp/week2/day_2.sol\":840:962  contract contractC {... */\n  mstore(0x40, 0x80)\n  callvalue\n  dup1\n  iszero\n  tag_1\n  jumpi\n  0x00\n  dup1\n  revert\ntag_1:\n  pop\n  dataSize(sub_0)\n  dup1\n  dataOffset(sub_0)\n  0x00\n  codecopy\n  0x00\n  return\nstop\n\nsub_0: assembly {\n        /* \"bootcamp/week2/day_2.sol\":840:962  contract contractC {... */\n      mstore(0x40, 0x80)\n      callvalue\n      dup1\n      iszero\n      tag_1\n      jumpi\n      0x00\n      dup1\n      revert\n    tag_1:\n      pop\n      jumpi(tag_2, lt(calldatasize, 0x04))\n      shr(0xe0, calldataload(0x00))\n      dup1\n      0x145ef6e9\n      eq\n      tag_3\n      jumpi\n    tag_2:\n      0x00\n      dup1\n      revert\n        /* \"bootcamp/week2/day_2.sol\":866:959  function getOwnerName() public pure returns (string memory) {... */\n    tag_3:\n      tag_4\n      tag_5\n      jump\t// in\n    tag_4:\n      mload(0x40)\n      tag_6\n      swap2\n      swap1\n      tag_7\n      jump\t// in\n    tag_6:\n      mload(0x40)\n      dup1\n      swap2\n      sub\n      swap1\n      return\n    tag_5:\n        /* \"bootcamp/week2/day_2.sol\":911:924  string memory */\n      0x60\n        /* \"bootcamp/week2/day_2.sol\":936:952  return \"Patrick\" */\n      mload(0x40)\n      dup1\n      0x40\n      add\n      0x40\n      mstore\n      dup1\n      0x07\n      dup2\n      mstore\n      0x20\n      add\n      0x5061747269636b00000000000000000000000000000000000000000000000000\n      dup2\n      mstore\n      pop\n      swap1\n      pop\n        /* \"bootcamp/week2/day_2.sol\":866:959  function getOwnerName() public pure returns (string memory) {... */\n      swap1\n      jump\t// out\n        /* \"#utility.yul\":7:106   */\n    tag_9:\n        /* \"#utility.yul\":59:65   */\n      0x00\n        /* \"#utility.yul\":93:98   */\n      dup2\n        /* \"#utility.yul\":87:99   */\n      mload\n        /* \"#utility.yul\":77:99   */\n      swap1\n      pop\n        /* \"#utility.yul\":7:106   */\n      swap2\n      swap1\n      pop\n      jump\t// out\n        /* \"#utility.yul\":112:281   */\n    tag_10:\n        /* \"#utility.yul\":196:207   */\n      0x00\n        /* \"#utility.yul\":230:236   */\n      dup3\n        /* \"#utility.yul\":225:228   */\n      dup3\n        /* \"#utility.yul\":218:237   */\n      mstore\n        /* \"#utility.yul\":270:274   */\n      0x20\n        /* \"#utility.yul\":265:268   */\n      dup3\n        /* \"#utility.yul\":261:275   */\n      add\n        /* \"#utility.yul\":246:275   */\n      swap1\n      pop\n        /* \"#utility.yul\":112:281   */\n      swap3\n      swap2\n      pop\n      pop\n      jump\t// out\n        /* \"#utility.yul\":287:594   */\n    tag_11:\n        /* \"#utility.yul\":355:356   */\n      0x00\n        /* \"#utility.yul\":365:478   */\n    tag_18:\n        /* \"#utility.yul\":379:385   */\n      dup4\n        /* \"#utility.yul\":376:377   */\n      dup2\n        /* \"#utility.yul\":373:386   */\n      lt\n        /* \"#utility.yul\":365:478   */\n      iszero\n      tag_20\n      jumpi\n        /* \"#utility.yul\":464:465   */\n      dup1\n        /* \"#utility.yul\":459:462   */\n      dup3\n        /* \"#utility.yul\":455:466   */\n      add\n        /* \"#utility.yul\":449:467   */\n      mload\n        /* \"#utility.yul\":445:446   */\n      dup2\n        /* \"#utility.yul\":440:443   */\n      dup5\n        /* \"#utility.yul\":436:447   */\n      add\n        /* \"#utility.yul\":429:468   */\n      mstore\n        /* \"#utility.yul\":401:403   */\n      0x20\n        /* \"#utility.yul\":398:399   */\n      dup2\n        /* \"#utility.yul\":394:404   */\n      add\n        /* \"#utility.yul\":389:404   */\n      swap1\n      pop\n        /* \"#utility.yul\":365:478   */\n      jump(tag_18)\n    tag_20:\n        /* \"#utility.yul\":496:502   */\n      dup4\n        /* \"#utility.yul\":493:494   */\n      dup2\n        /* \"#utility.yul\":490:503   */\n      gt\n        /* \"#utility.yul\":487:588   */\n      iszero\n      tag_21\n      jumpi\n        /* \"#utility.yul\":576:577   */\n      0x00\n        /* \"#utility.yul\":567:573   */\n      dup5\n        /* \"#utility.yul\":562:565   */\n      dup5\n        /* \"#utility.yul\":558:574   */\n      add\n        /* \"#utility.yul\":551:578   */\n      mstore\n        /* \"#utility.yul\":487:588   */\n    tag_21:\n        /* \"#utility.yul\":336:594   */\n      pop\n        /* \"#utility.yul\":287:594   */\n      pop\n      pop\n      pop\n      jump\t// out\n        /* \"#utility.yul\":600:702   */\n    tag_12:\n        /* \"#utility.yul\":641:647   */\n      0x00\n        /* \"#utility.yul\":692:694   */\n      0x1f\n        /* \"#utility.yul\":688:695   */\n      not\n        /* \"#utility.yul\":683:685   */\n      0x1f\n        /* \"#utility.yul\":676:681   */\n      dup4\n        /* \"#utility.yul\":672:686   */\n      add\n        /* \"#utility.yul\":668:696   */\n      and\n        /* \"#utility.yul\":658:696   */\n      swap1\n      pop\n        /* \"#utility.yul\":600:702   */\n      swap2\n      swap1\n      pop\n      jump\t// out\n        /* \"#utility.yul\":708:1072   */\n    tag_13:\n        /* \"#utility.yul\":796:799   */\n      0x00\n        /* \"#utility.yul\":824:863   */\n      tag_24\n        /* \"#utility.yul\":857:862   */\n      dup3\n        /* \"#utility.yul\":824:863   */\n      tag_9\n      jump\t// in\n    tag_24:\n        /* \"#utility.yul\":879:950   */\n      tag_25\n        /* \"#utility.yul\":943:949   */\n      dup2\n        /* \"#utility.yul\":938:941   */\n      dup6\n        /* \"#utility.yul\":879:950   */\n      tag_10\n      jump\t// in\n    tag_25:\n        /* \"#utility.yul\":872:950   */\n      swap4\n      pop\n        /* \"#utility.yul\":959:1011   */\n      tag_26\n        /* \"#utility.yul\":1004:1010   */\n      dup2\n        /* \"#utility.yul\":999:1002   */\n      dup6\n        /* \"#utility.yul\":992:996   */\n      0x20\n        /* \"#utility.yul\":985:990   */\n      dup7\n        /* \"#utility.yul\":981:997   */\n      add\n        /* \"#utility.yul\":959:1011   */\n      tag_11\n      jump\t// in\n    tag_26:\n        /* \"#utility.yul\":1036:1065   */\n      tag_27\n        /* \"#utility.yul\":1058:1064   */\n      dup2\n        /* \"#utility.yul\":1036:1065   */\n      tag_12\n      jump\t// in\n    tag_27:\n        /* \"#utility.yul\":1031:1034   */\n      dup5\n        /* \"#utility.yul\":1027:1066   */\n      add\n        /* \"#utility.yul\":1020:1066   */\n      swap2\n      pop\n        /* \"#utility.yul\":800:1072   */\n      pop\n        /* \"#utility.yul\":708:1072   */\n      swap3\n      swap2\n      pop\n      pop\n      jump\t// out\n        /* \"#utility.yul\":1078:1391   */\n    tag_7:\n        /* \"#utility.yul\":1191:1195   */\n      0x00\n        /* \"#utility.yul\":1229:1231   */\n      0x20\n        /* \"#utility.yul\":1218:1227   */\n      dup3\n        /* \"#utility.yul\":1214:1232   */\n      add\n        /* \"#utility.yul\":1206:1232   */\n      swap1\n      pop\n        /* \"#utility.yul\":1278:1287   */\n      dup2\n        /* \"#utility.yul\":1272:1276   */\n      dup2\n        /* \"#utility.yul\":1268:1288   */\n      sub\n        /* \"#utility.yul\":1264:1265   */\n      0x00\n        /* \"#utility.yul\":1253:1262   */\n      dup4\n        /* \"#utility.yul\":1249:1266   */\n      add\n        /* \"#utility.yul\":1242:1289   */\n      mstore\n        /* \"#utility.yul\":1306:1384   */\n      tag_29\n        /* \"#utility.yul\":1379:1383   */\n      dup2\n        /* \"#utility.yul\":1370:1376   */\n      dup5\n        /* \"#utility.yul\":1306:1384   */\n      tag_13\n      jump\t// in\n    tag_29:\n        /* \"#utility.yul\":1298:1384   */\n      swap1\n      pop\n        /* \"#utility.yul\":1078:1391   */\n      swap3\n      swap2\n      pop\n      pop\n      jump\t// out\n\n    auxdata: 0xa2646970667358221220564f5ac3d75e83d2388428ad61a5785c5559b1811c8db53e2853d7469b0723fd64736f6c634300080d0033\n}\n",
				"bytecode": {
					"linkReferences": {},
					"object": "608060405234801561001057600080fd5b5061017c806100206000396000f3fe608060405234801561001057600080fd5b506004361061002b5760003560e01c8063145ef6e914610030575b600080fd5b61003861004e565b6040516100459190610124565b60405180910390f35b60606040518060400160405280600781526020017f5061747269636b00000000000000000000000000000000000000000000000000815250905090565b600081519050919050565b600082825260208201905092915050565b60005b838110156100c55780820151818401526020810190506100aa565b838111156100d4576000848401525b50505050565b6000601f19601f8301169050919050565b60006100f68261008b565b6101008185610096565b93506101108185602086016100a7565b610119816100da565b840191505092915050565b6000602082019050818103600083015261013e81846100eb565b90509291505056fea2646970667358221220564f5ac3d75e83d2388428ad61a5785c5559b1811c8db53e2853d7469b0723fd64736f6c634300080d0033",
					"opcodes": "PUSH1 0x80 PUSH1 0x40 MSTORE CALLVALUE DUP1 ISZERO PUSH2 0x10 JUMPI PUSH1 0x0 DUP1 REVERT JUMPDEST POP PUSH2 0x17C DUP1 PUSH2 0x20 PUSH1 0x0 CODECOPY PUSH1 0x0 RETURN INVALID PUSH1 0x80 PUSH1 0x40 MSTORE CALLVALUE DUP1 ISZERO PUSH2 0x10 JUMPI PUSH1 0x0 DUP1 REVERT JUMPDEST POP PUSH1 0x4 CALLDATASIZE LT PUSH2 0x2B JUMPI PUSH1 0x0 CALLDATALOAD PUSH1 0xE0 SHR DUP1 PUSH4 0x145EF6E9 EQ PUSH2 0x30 JUMPI JUMPDEST PUSH1 0x0 DUP1 REVERT JUMPDEST PUSH2 0x38 PUSH2 0x4E JUMP JUMPDEST PUSH1 0x40 MLOAD PUSH2 0x45 SWAP2 SWAP1 PUSH2 0x124 JUMP JUMPDEST PUSH1 0x40 MLOAD DUP1 SWAP2 SUB SWAP1 RETURN JUMPDEST PUSH1 0x60 PUSH1 0x40 MLOAD DUP1 PUSH1 0x40 ADD PUSH1 0x40 MSTORE DUP1 PUSH1 0x7 DUP2 MSTORE PUSH1 0x20 ADD PUSH32 0x5061747269636B00000000000000000000000000000000000000000000000000 DUP2 MSTORE POP SWAP1 POP SWAP1 JUMP JUMPDEST PUSH1 0x0 DUP2 MLOAD SWAP1 POP SWAP2 SWAP1 POP JUMP JUMPDEST PUSH1 0x0 DUP3 DUP3 MSTORE PUSH1 0x20 DUP3 ADD SWAP1 POP SWAP3 SWAP2 POP POP JUMP JUMPDEST PUSH1 0x0 JUMPDEST DUP4 DUP2 LT ISZERO PUSH2 0xC5 JUMPI DUP1 DUP3 ADD MLOAD DUP2 DUP5 ADD MSTORE PUSH1 0x20 DUP2 ADD SWAP1 POP PUSH2 0xAA JUMP JUMPDEST DUP4 DUP2 GT ISZERO PUSH2 0xD4 JUMPI PUSH1 0x0 DUP5 DUP5 ADD MSTORE JUMPDEST POP POP POP POP JUMP JUMPDEST PUSH1 0x0 PUSH1 0x1F NOT PUSH1 0x1F DUP4 ADD AND SWAP1 POP SWAP2 SWAP1 POP JUMP JUMPDEST PUSH1 0x0 PUSH2 0xF6 DUP3 PUSH2 0x8B JUMP JUMPDEST PUSH2 0x100 DUP2 DUP6 PUSH2 0x96 JUMP JUMPDEST SWAP4 POP PUSH2 0x110 DUP2 DUP6 PUSH1 0x20 DUP7 ADD PUSH2 0xA7 JUMP JUMPDEST PUSH2 0x119 DUP2 PUSH2 0xDA JUMP JUMPDEST DUP5 ADD SWAP2 POP POP SWAP3 SWAP2 POP POP JUMP JUMPDEST PUSH1 0x0 PUSH1 0x20 DUP3 ADD SWAP1 POP DUP2 DUP2 SUB PUSH1 0x0 DUP4 ADD MSTORE PUSH2 0x13E DUP2 DUP5 PUSH2 0xEB JUMP JUMPDEST SWAP1 POP SWAP3 SWAP2 POP POP JUMP INVALID LOG2 PUSH5 0x6970667358 0x22 SLT KECCAK256 JUMP 0x4F GAS 0xC3 0xD7 0x5E DUP4 0xD2 CODESIZE DUP5 0x28 0xAD PUSH2 0xA578 0x5C SSTORE MSIZE 0xB1 DUP2 SHR DUP14 0xB5 RETURNDATACOPY 0x28 MSTORE8 0xD7 CHAINID SWAP12 SMOD 0x23 REVERT PUSH5 0x736F6C6343 STOP ADDMOD 0xD STOP CALLER "
				},
				"gasEstimates": {
					"creation": {
						"codeDepositCost": "76000",
						"executionCost": "123",
						"totalCost": "76123"
					},
					"external": {
						"getOwnerName()": "infinite"
					}
				},
				"methodIdentifiers": {
					"getOwnerName()": "145ef6e9"
				}
			},
			"storageLayout": {
				"storage": [],
				"types": null
			},
			"userdoc": {
				"kind": "user",
				"methods": {},
				"version": 1
			}
		}
	}
}