{
	"bootcamp/week2/day_1_homework.sol": {
		"dayOne": {
			"abi": [
				{
					"inputs": [],
					"name": "getInfo",
					"outputs": [
						{
							"internalType": "address",
							"name": "",
							"type": "address"
						},
						{
							"internalType": "uint256",
							"name": "",
							"type": "uint256"
						}
					],
					"stateMutability": "view",
					"type": "function"
				},
				{
					"inputs": [],
					"name": "getValue",
					"outputs": [
						{
							"internalType": "uint256",
							"name": "",
							"type": "uint256"
						}
					],
					"stateMutability": "view",
					"type": "function"
				},
				{
					"inputs": [],
					"name": "isOwner",
					"outputs": [
						{
							"internalType": "bool",
							"name": "",
							"type": "bool"
						}
					],
					"stateMutability": "nonpayable",
					"type": "function"
				},
				{
					"inputs": [],
					"name": "test",
					"outputs": [
						{
							"internalType": "bool",
							"name": "",
							"type": "bool"
						}
					],
					"stateMutability": "view",
					"type": "function"
				}
			],
			"devdoc": {
				"kind": "dev",
				"methods": {},
				"version": 1
			},
			"evm": {
				"assembly": "    /* \"bootcamp/week2/day_1_homework.sol\":59:569  contract dayOne {... */\n  mstore(0x40, 0x80)\n    /* \"bootcamp/week2/day_1_homework.sol\":252:257  false */\n  0x00\n    /* \"bootcamp/week2/day_1_homework.sol\":233:257  bool public test = false */\n  dup1\n  exp(0x0100, 0x00)\n  dup2\n  sload\n  dup2\n  0xff\n  mul\n  not\n  and\n  swap1\n  dup4\n  iszero\n  iszero\n  mul\n  or\n  swap1\n  sstore\n  pop\n    /* \"bootcamp/week2/day_1_homework.sol\":284:287  100 */\n  0x64\n    /* \"bootcamp/week2/day_1_homework.sol\":263:287  uint private value = 100 */\n  0x01\n  sstore\n    /* \"bootcamp/week2/day_1_homework.sol\":59:569  contract dayOne {... */\n  callvalue\n  dup1\n  iszero\n  tag_1\n  jumpi\n  0x00\n  dup1\n  revert\ntag_1:\n  pop\n  dataSize(sub_0)\n  dup1\n  dataOffset(sub_0)\n  0x00\n  codecopy\n  0x00\n  return\nstop\n\nsub_0: assembly {\n        /* \"bootcamp/week2/day_1_homework.sol\":59:569  contract dayOne {... */\n      mstore(0x40, 0x80)\n      callvalue\n      dup1\n      iszero\n      tag_1\n      jumpi\n      0x00\n      dup1\n      revert\n    tag_1:\n      pop\n      jumpi(tag_2, lt(calldatasize, 0x04))\n      shr(0xe0, calldataload(0x00))\n      dup1\n      0x20965255\n      eq\n      tag_3\n      jumpi\n      dup1\n      0x5a9b0b89\n      eq\n      tag_4\n      jumpi\n      dup1\n      0x8f32d59b\n      eq\n      tag_5\n      jumpi\n      dup1\n      0xf8a8fd6d\n      eq\n      tag_6\n      jumpi\n    tag_2:\n      0x00\n      dup1\n      revert\n        /* \"bootcamp/week2/day_1_homework.sol\":480:567  function getValue () public view onlyOwner returns (uint) {... */\n    tag_3:\n      tag_7\n      tag_8\n      jump\t// in\n    tag_7:\n      mload(0x40)\n      tag_9\n      swap2\n      swap1\n      tag_10\n      jump\t// in\n    tag_9:\n      mload(0x40)\n      dup1\n      swap2\n      sub\n      swap1\n      return\n        /* \"bootcamp/week2/day_1_homework.sol\":104:209  function getInfo() public view returns (address, uint) {... */\n    tag_4:\n      tag_11\n      tag_12\n      jump\t// in\n    tag_11:\n      mload(0x40)\n      tag_13\n      swap3\n      swap2\n      swap1\n      tag_14\n      jump\t// in\n    tag_13:\n      mload(0x40)\n      dup1\n      swap2\n      sub\n      swap1\n      return\n        /* \"bootcamp/week2/day_1_homework.sol\":397:474  function isOwner () public returns (bool) {... */\n    tag_5:\n      tag_15\n      tag_16\n      jump\t// in\n    tag_15:\n      mload(0x40)\n      tag_17\n      swap2\n      swap1\n      tag_18\n      jump\t// in\n    tag_17:\n      mload(0x40)\n      dup1\n      swap2\n      sub\n      swap1\n      return\n        /* \"bootcamp/week2/day_1_homework.sol\":233:257  bool public test = false */\n    tag_6:\n      tag_19\n      tag_20\n      jump\t// in\n    tag_19:\n      mload(0x40)\n      tag_21\n      swap2\n      swap1\n      tag_18\n      jump\t// in\n    tag_21:\n      mload(0x40)\n      dup1\n      swap2\n      sub\n      swap1\n      return\n        /* \"bootcamp/week2/day_1_homework.sol\":480:567  function getValue () public view onlyOwner returns (uint) {... */\n    tag_8:\n        /* \"bootcamp/week2/day_1_homework.sol\":532:536  uint */\n      0x00\n        /* \"bootcamp/week2/day_1_homework.sol\":343:347  true */\n      0x01\n        /* \"bootcamp/week2/day_1_homework.sol\":335:347  test == true */\n      iszero\n      iszero\n        /* \"bootcamp/week2/day_1_homework.sol\":335:339  test */\n      0x00\n      dup1\n      sload\n      swap1\n      0x0100\n      exp\n      swap1\n      div\n      0xff\n      and\n        /* \"bootcamp/week2/day_1_homework.sol\":335:347  test == true */\n      iszero\n      iszero\n      eq\n        /* \"bootcamp/week2/day_1_homework.sol\":326:373  require (test == true, \"You're not the owner!\") */\n      tag_23\n      jumpi\n      mload(0x40)\n      0x08c379a000000000000000000000000000000000000000000000000000000000\n      dup2\n      mstore\n      0x04\n      add\n      tag_24\n      swap1\n      tag_25\n      jump\t// in\n    tag_24:\n      mload(0x40)\n      dup1\n      swap2\n      sub\n      swap1\n      revert\n    tag_23:\n        /* \"bootcamp/week2/day_1_homework.sol\":555:560  value */\n      sload(0x01)\n        /* \"bootcamp/week2/day_1_homework.sol\":548:560  return value */\n      swap1\n      pop\n        /* \"bootcamp/week2/day_1_homework.sol\":480:567  function getValue () public view onlyOwner returns (uint) {... */\n      swap1\n      jump\t// out\n        /* \"bootcamp/week2/day_1_homework.sol\":104:209  function getInfo() public view returns (address, uint) {... */\n    tag_12:\n        /* \"bootcamp/week2/day_1_homework.sol\":144:151  address */\n      0x00\n        /* \"bootcamp/week2/day_1_homework.sol\":153:157  uint */\n      dup1\n        /* \"bootcamp/week2/day_1_homework.sol\":177:187  msg.sender */\n      caller\n        /* \"bootcamp/week2/day_1_homework.sol\":189:201  block.number */\n      number\n        /* \"bootcamp/week2/day_1_homework.sol\":169:202  return (msg.sender, block.number) */\n      swap2\n      pop\n      swap2\n      pop\n        /* \"bootcamp/week2/day_1_homework.sol\":104:209  function getInfo() public view returns (address, uint) {... */\n      swap1\n      swap2\n      jump\t// out\n        /* \"bootcamp/week2/day_1_homework.sol\":397:474  function isOwner () public returns (bool) {... */\n    tag_16:\n        /* \"bootcamp/week2/day_1_homework.sol\":433:437  bool */\n      0x00\n        /* \"bootcamp/week2/day_1_homework.sol\":463:467  true */\n      0x01\n        /* \"bootcamp/week2/day_1_homework.sol\":456:460  test */\n      0x00\n      dup1\n        /* \"bootcamp/week2/day_1_homework.sol\":456:467  test = true */\n      0x0100\n      exp\n      dup2\n      sload\n      dup2\n      0xff\n      mul\n      not\n      and\n      swap1\n      dup4\n      iszero\n      iszero\n      mul\n      or\n      swap1\n      sstore\n        /* \"bootcamp/week2/day_1_homework.sol\":449:467  return test = true */\n      swap1\n      pop\n        /* \"bootcamp/week2/day_1_homework.sol\":397:474  function isOwner () public returns (bool) {... */\n      swap1\n      jump\t// out\n        /* \"bootcamp/week2/day_1_homework.sol\":233:257  bool public test = false */\n    tag_20:\n      0x00\n      dup1\n      sload\n      swap1\n      0x0100\n      exp\n      swap1\n      div\n      0xff\n      and\n      dup2\n      jump\t// out\n        /* \"#utility.yul\":7:84   */\n    tag_29:\n        /* \"#utility.yul\":44:51   */\n      0x00\n        /* \"#utility.yul\":73:78   */\n      dup2\n        /* \"#utility.yul\":62:78   */\n      swap1\n      pop\n        /* \"#utility.yul\":7:84   */\n      swap2\n      swap1\n      pop\n      jump\t// out\n        /* \"#utility.yul\":90:208   */\n    tag_30:\n        /* \"#utility.yul\":177:201   */\n      tag_42\n        /* \"#utility.yul\":195:200   */\n      dup2\n        /* \"#utility.yul\":177:201   */\n      tag_29\n      jump\t// in\n    tag_42:\n        /* \"#utility.yul\":172:175   */\n      dup3\n        /* \"#utility.yul\":165:202   */\n      mstore\n        /* \"#utility.yul\":90:208   */\n      pop\n      pop\n      jump\t// out\n        /* \"#utility.yul\":214:436   */\n    tag_10:\n        /* \"#utility.yul\":307:311   */\n      0x00\n        /* \"#utility.yul\":345:347   */\n      0x20\n        /* \"#utility.yul\":334:343   */\n      dup3\n        /* \"#utility.yul\":330:348   */\n      add\n        /* \"#utility.yul\":322:348   */\n      swap1\n      pop\n        /* \"#utility.yul\":358:429   */\n      tag_44\n        /* \"#utility.yul\":426:427   */\n      0x00\n        /* \"#utility.yul\":415:424   */\n      dup4\n        /* \"#utility.yul\":411:428   */\n      add\n        /* \"#utility.yul\":402:408   */\n      dup5\n        /* \"#utility.yul\":358:429   */\n      tag_30\n      jump\t// in\n    tag_44:\n        /* \"#utility.yul\":214:436   */\n      swap3\n      swap2\n      pop\n      pop\n      jump\t// out\n        /* \"#utility.yul\":442:568   */\n    tag_31:\n        /* \"#utility.yul\":479:486   */\n      0x00\n        /* \"#utility.yul\":519:561   */\n      0xffffffffffffffffffffffffffffffffffffffff\n        /* \"#utility.yul\":512:517   */\n      dup3\n        /* \"#utility.yul\":508:562   */\n      and\n        /* \"#utility.yul\":497:562   */\n      swap1\n      pop\n        /* \"#utility.yul\":442:568   */\n      swap2\n      swap1\n      pop\n      jump\t// out\n        /* \"#utility.yul\":574:670   */\n    tag_32:\n        /* \"#utility.yul\":611:618   */\n      0x00\n        /* \"#utility.yul\":640:664   */\n      tag_47\n        /* \"#utility.yul\":658:663   */\n      dup3\n        /* \"#utility.yul\":640:664   */\n      tag_31\n      jump\t// in\n    tag_47:\n        /* \"#utility.yul\":629:664   */\n      swap1\n      pop\n        /* \"#utility.yul\":574:670   */\n      swap2\n      swap1\n      pop\n      jump\t// out\n        /* \"#utility.yul\":676:794   */\n    tag_33:\n        /* \"#utility.yul\":763:787   */\n      tag_49\n        /* \"#utility.yul\":781:786   */\n      dup2\n        /* \"#utility.yul\":763:787   */\n      tag_32\n      jump\t// in\n    tag_49:\n        /* \"#utility.yul\":758:761   */\n      dup3\n        /* \"#utility.yul\":751:788   */\n      mstore\n        /* \"#utility.yul\":676:794   */\n      pop\n      pop\n      jump\t// out\n        /* \"#utility.yul\":800:1132   */\n    tag_14:\n        /* \"#utility.yul\":921:925   */\n      0x00\n        /* \"#utility.yul\":959:961   */\n      0x40\n        /* \"#utility.yul\":948:957   */\n      dup3\n        /* \"#utility.yul\":944:962   */\n      add\n        /* \"#utility.yul\":936:962   */\n      swap1\n      pop\n        /* \"#utility.yul\":972:1043   */\n      tag_51\n        /* \"#utility.yul\":1040:1041   */\n      0x00\n        /* \"#utility.yul\":1029:1038   */\n      dup4\n        /* \"#utility.yul\":1025:1042   */\n      add\n        /* \"#utility.yul\":1016:1022   */\n      dup6\n        /* \"#utility.yul\":972:1043   */\n      tag_33\n      jump\t// in\n    tag_51:\n        /* \"#utility.yul\":1053:1125   */\n      tag_52\n        /* \"#utility.yul\":1121:1123   */\n      0x20\n        /* \"#utility.yul\":1110:1119   */\n      dup4\n        /* \"#utility.yul\":1106:1124   */\n      add\n        /* \"#utility.yul\":1097:1103   */\n      dup5\n        /* \"#utility.yul\":1053:1125   */\n      tag_30\n      jump\t// in\n    tag_52:\n        /* \"#utility.yul\":800:1132   */\n      swap4\n      swap3\n      pop\n      pop\n      pop\n      jump\t// out\n        /* \"#utility.yul\":1138:1228   */\n    tag_34:\n        /* \"#utility.yul\":1172:1179   */\n      0x00\n        /* \"#utility.yul\":1215:1220   */\n      dup2\n        /* \"#utility.yul\":1208:1221   */\n      iszero\n        /* \"#utility.yul\":1201:1222   */\n      iszero\n        /* \"#utility.yul\":1190:1222   */\n      swap1\n      pop\n        /* \"#utility.yul\":1138:1228   */\n      swap2\n      swap1\n      pop\n      jump\t// out\n        /* \"#utility.yul\":1234:1343   */\n    tag_35:\n        /* \"#utility.yul\":1315:1336   */\n      tag_55\n        /* \"#utility.yul\":1330:1335   */\n      dup2\n        /* \"#utility.yul\":1315:1336   */\n      tag_34\n      jump\t// in\n    tag_55:\n        /* \"#utility.yul\":1310:1313   */\n      dup3\n        /* \"#utility.yul\":1303:1337   */\n      mstore\n        /* \"#utility.yul\":1234:1343   */\n      pop\n      pop\n      jump\t// out\n        /* \"#utility.yul\":1349:1559   */\n    tag_18:\n        /* \"#utility.yul\":1436:1440   */\n      0x00\n        /* \"#utility.yul\":1474:1476   */\n      0x20\n        /* \"#utility.yul\":1463:1472   */\n      dup3\n        /* \"#utility.yul\":1459:1477   */\n      add\n        /* \"#utility.yul\":1451:1477   */\n      swap1\n      pop\n        /* \"#utility.yul\":1487:1552   */\n      tag_57\n        /* \"#utility.yul\":1549:1550   */\n      0x00\n        /* \"#utility.yul\":1538:1547   */\n      dup4\n        /* \"#utility.yul\":1534:1551   */\n      add\n        /* \"#utility.yul\":1525:1531   */\n      dup5\n        /* \"#utility.yul\":1487:1552   */\n      tag_35\n      jump\t// in\n    tag_57:\n        /* \"#utility.yul\":1349:1559   */\n      swap3\n      swap2\n      pop\n      pop\n      jump\t// out\n        /* \"#utility.yul\":1565:1734   */\n    tag_36:\n        /* \"#utility.yul\":1649:1660   */\n      0x00\n        /* \"#utility.yul\":1683:1689   */\n      dup3\n        /* \"#utility.yul\":1678:1681   */\n      dup3\n        /* \"#utility.yul\":1671:1690   */\n      mstore\n        /* \"#utility.yul\":1723:1727   */\n      0x20\n        /* \"#utility.yul\":1718:1721   */\n      dup3\n        /* \"#utility.yul\":1714:1728   */\n      add\n        /* \"#utility.yul\":1699:1728   */\n      swap1\n      pop\n        /* \"#utility.yul\":1565:1734   */\n      swap3\n      swap2\n      pop\n      pop\n      jump\t// out\n        /* \"#utility.yul\":1740:1911   */\n    tag_37:\n        /* \"#utility.yul\":1880:1903   */\n      0x596f75277265206e6f7420746865206f776e6572210000000000000000000000\n        /* \"#utility.yul\":1876:1877   */\n      0x00\n        /* \"#utility.yul\":1868:1874   */\n      dup3\n        /* \"#utility.yul\":1864:1878   */\n      add\n        /* \"#utility.yul\":1857:1904   */\n      mstore\n        /* \"#utility.yul\":1740:1911   */\n      pop\n      jump\t// out\n        /* \"#utility.yul\":1917:2283   */\n    tag_38:\n        /* \"#utility.yul\":2059:2062   */\n      0x00\n        /* \"#utility.yul\":2080:2147   */\n      tag_61\n        /* \"#utility.yul\":2144:2146   */\n      0x15\n        /* \"#utility.yul\":2139:2142   */\n      dup4\n        /* \"#utility.yul\":2080:2147   */\n      tag_36\n      jump\t// in\n    tag_61:\n        /* \"#utility.yul\":2073:2147   */\n      swap2\n      pop\n        /* \"#utility.yul\":2156:2249   */\n      tag_62\n        /* \"#utility.yul\":2245:2248   */\n      dup3\n        /* \"#utility.yul\":2156:2249   */\n      tag_37\n      jump\t// in\n    tag_62:\n        /* \"#utility.yul\":2274:2276   */\n      0x20\n        /* \"#utility.yul\":2269:2272   */\n      dup3\n        /* \"#utility.yul\":2265:2277   */\n      add\n        /* \"#utility.yul\":2258:2277   */\n      swap1\n      pop\n        /* \"#utility.yul\":1917:2283   */\n      swap2\n      swap1\n      pop\n      jump\t// out\n        /* \"#utility.yul\":2289:2708   */\n    tag_25:\n        /* \"#utility.yul\":2455:2459   */\n      0x00\n        /* \"#utility.yul\":2493:2495   */\n      0x20\n        /* \"#utility.yul\":2482:2491   */\n      dup3\n        /* \"#utility.yul\":2478:2496   */\n      add\n        /* \"#utility.yul\":2470:2496   */\n      swap1\n      pop\n        /* \"#utility.yul\":2542:2551   */\n      dup2\n        /* \"#utility.yul\":2536:2540   */\n      dup2\n        /* \"#utility.yul\":2532:2552   */\n      sub\n        /* \"#utility.yul\":2528:2529   */\n      0x00\n        /* \"#utility.yul\":2517:2526   */\n      dup4\n        /* \"#utility.yul\":2513:2530   */\n      add\n        /* \"#utility.yul\":2506:2553   */\n      mstore\n        /* \"#utility.yul\":2570:2701   */\n      tag_64\n        /* \"#utility.yul\":2696:2700   */\n      dup2\n        /* \"#utility.yul\":2570:2701   */\n      tag_38\n      jump\t// in\n    tag_64:\n        /* \"#utility.yul\":2562:2701   */\n      swap1\n      pop\n        /* \"#utility.yul\":2289:2708   */\n      swap2\n      swap1\n      pop\n      jump\t// out\n\n    auxdata: 0xa2646970667358221220e5e1cb697762acd6ade0be977bf68e3915e36f977521441895d46f14338adaf764736f6c634300080d0033\n}\n",
				"bytecode": {
					"linkReferences": {},
					"object": "608060405260008060006101000a81548160ff021916908315150217905550606460015534801561002f57600080fd5b506102ed8061003f6000396000f3fe608060405234801561001057600080fd5b506004361061004c5760003560e01c806320965255146100515780635a9b0b891461006f5780638f32d59b1461008e578063f8a8fd6d146100ac575b600080fd5b6100596100ca565b604051610066919061017f565b60405180910390f35b610077610128565b6040516100859291906101db565b60405180910390f35b610096610135565b6040516100a3919061021f565b60405180910390f35b6100b4610155565b6040516100c1919061021f565b60405180910390f35b60006001151560008054906101000a900460ff16151514610120576040517f08c379a000000000000000000000000000000000000000000000000000000000815260040161011790610297565b60405180910390fd5b600154905090565b6000803343915091509091565b600060016000806101000a81548160ff0219169083151502179055905090565b60008054906101000a900460ff1681565b6000819050919050565b61017981610166565b82525050565b60006020820190506101946000830184610170565b92915050565b600073ffffffffffffffffffffffffffffffffffffffff82169050919050565b60006101c58261019a565b9050919050565b6101d5816101ba565b82525050565b60006040820190506101f060008301856101cc565b6101fd6020830184610170565b9392505050565b60008115159050919050565b61021981610204565b82525050565b60006020820190506102346000830184610210565b92915050565b600082825260208201905092915050565b7f596f75277265206e6f7420746865206f776e6572210000000000000000000000600082015250565b600061028160158361023a565b915061028c8261024b565b602082019050919050565b600060208201905081810360008301526102b081610274565b905091905056fea2646970667358221220e5e1cb697762acd6ade0be977bf68e3915e36f977521441895d46f14338adaf764736f6c634300080d0033",
					"opcodes": "PUSH1 0x80 PUSH1 0x40 MSTORE PUSH1 0x0 DUP1 PUSH1 0x0 PUSH2 0x100 EXP DUP2 SLOAD DUP2 PUSH1 0xFF MUL NOT AND SWAP1 DUP4 ISZERO ISZERO MUL OR SWAP1 SSTORE POP PUSH1 0x64 PUSH1 0x1 SSTORE CALLVALUE DUP1 ISZERO PUSH2 0x2F JUMPI PUSH1 0x0 DUP1 REVERT JUMPDEST POP PUSH2 0x2ED DUP1 PUSH2 0x3F PUSH1 0x0 CODECOPY PUSH1 0x0 RETURN INVALID PUSH1 0x80 PUSH1 0x40 MSTORE CALLVALUE DUP1 ISZERO PUSH2 0x10 JUMPI PUSH1 0x0 DUP1 REVERT JUMPDEST POP PUSH1 0x4 CALLDATASIZE LT PUSH2 0x4C JUMPI PUSH1 0x0 CALLDATALOAD PUSH1 0xE0 SHR DUP1 PUSH4 0x20965255 EQ PUSH2 0x51 JUMPI DUP1 PUSH4 0x5A9B0B89 EQ PUSH2 0x6F JUMPI DUP1 PUSH4 0x8F32D59B EQ PUSH2 0x8E JUMPI DUP1 PUSH4 0xF8A8FD6D EQ PUSH2 0xAC JUMPI JUMPDEST PUSH1 0x0 DUP1 REVERT JUMPDEST PUSH2 0x59 PUSH2 0xCA JUMP JUMPDEST PUSH1 0x40 MLOAD PUSH2 0x66 SWAP2 SWAP1 PUSH2 0x17F JUMP JUMPDEST PUSH1 0x40 MLOAD DUP1 SWAP2 SUB SWAP1 RETURN JUMPDEST PUSH2 0x77 PUSH2 0x128 JUMP JUMPDEST PUSH1 0x40 MLOAD PUSH2 0x85 SWAP3 SWAP2 SWAP1 PUSH2 0x1DB JUMP JUMPDEST PUSH1 0x40 MLOAD DUP1 SWAP2 SUB SWAP1 RETURN JUMPDEST PUSH2 0x96 PUSH2 0x135 JUMP JUMPDEST PUSH1 0x40 MLOAD PUSH2 0xA3 SWAP2 SWAP1 PUSH2 0x21F JUMP JUMPDEST PUSH1 0x40 MLOAD DUP1 SWAP2 SUB SWAP1 RETURN JUMPDEST PUSH2 0xB4 PUSH2 0x155 JUMP JUMPDEST PUSH1 0x40 MLOAD PUSH2 0xC1 SWAP2 SWAP1 PUSH2 0x21F JUMP JUMPDEST PUSH1 0x40 MLOAD DUP1 SWAP2 SUB SWAP1 RETURN JUMPDEST PUSH1 0x0 PUSH1 0x1 ISZERO ISZERO PUSH1 0x0 DUP1 SLOAD SWAP1 PUSH2 0x100 EXP SWAP1 DIV PUSH1 0xFF AND ISZERO ISZERO EQ PUSH2 0x120 JUMPI PUSH1 0x40 MLOAD PUSH32 0x8C379A000000000000000000000000000000000000000000000000000000000 DUP2 MSTORE PUSH1 0x4 ADD PUSH2 0x117 SWAP1 PUSH2 0x297 JUMP JUMPDEST PUSH1 0x40 MLOAD DUP1 SWAP2 SUB SWAP1 REVERT JUMPDEST PUSH1 0x1 SLOAD SWAP1 POP SWAP1 JUMP JUMPDEST PUSH1 0x0 DUP1 CALLER NUMBER SWAP2 POP SWAP2 POP SWAP1 SWAP2 JUMP JUMPDEST PUSH1 0x0 PUSH1 0x1 PUSH1 0x0 DUP1 PUSH2 0x100 EXP DUP2 SLOAD DUP2 PUSH1 0xFF MUL NOT AND SWAP1 DUP4 ISZERO ISZERO MUL OR SWAP1 SSTORE SWAP1 POP SWAP1 JUMP JUMPDEST PUSH1 0x0 DUP1 SLOAD SWAP1 PUSH2 0x100 EXP SWAP1 DIV PUSH1 0xFF AND DUP2 JUMP JUMPDEST PUSH1 0x0 DUP2 SWAP1 POP SWAP2 SWAP1 POP JUMP JUMPDEST PUSH2 0x179 DUP2 PUSH2 0x166 JUMP JUMPDEST DUP3 MSTORE POP POP JUMP JUMPDEST PUSH1 0x0 PUSH1 0x20 DUP3 ADD SWAP1 POP PUSH2 0x194 PUSH1 0x0 DUP4 ADD DUP5 PUSH2 0x170 JUMP JUMPDEST SWAP3 SWAP2 POP POP JUMP JUMPDEST PUSH1 0x0 PUSH20 0xFFFFFFFFFFFFFFFFFFFFFFFFFFFFFFFFFFFFFFFF DUP3 AND SWAP1 POP SWAP2 SWAP1 POP JUMP JUMPDEST PUSH1 0x0 PUSH2 0x1C5 DUP3 PUSH2 0x19A JUMP JUMPDEST SWAP1 POP SWAP2 SWAP1 POP JUMP JUMPDEST PUSH2 0x1D5 DUP2 PUSH2 0x1BA JUMP JUMPDEST DUP3 MSTORE POP POP JUMP JUMPDEST PUSH1 0x0 PUSH1 0x40 DUP3 ADD SWAP1 POP PUSH2 0x1F0 PUSH1 0x0 DUP4 ADD DUP6 PUSH2 0x1CC JUMP JUMPDEST PUSH2 0x1FD PUSH1 0x20 DUP4 ADD DUP5 PUSH2 0x170 JUMP JUMPDEST SWAP4 SWAP3 POP POP POP JUMP JUMPDEST PUSH1 0x0 DUP2 ISZERO ISZERO SWAP1 POP SWAP2 SWAP1 POP JUMP JUMPDEST PUSH2 0x219 DUP2 PUSH2 0x204 JUMP JUMPDEST DUP3 MSTORE POP POP JUMP JUMPDEST PUSH1 0x0 PUSH1 0x20 DUP3 ADD SWAP1 POP PUSH2 0x234 PUSH1 0x0 DUP4 ADD DUP5 PUSH2 0x210 JUMP JUMPDEST SWAP3 SWAP2 POP POP JUMP JUMPDEST PUSH1 0x0 DUP3 DUP3 MSTORE PUSH1 0x20 DUP3 ADD SWAP1 POP SWAP3 SWAP2 POP POP JUMP JUMPDEST PUSH32 0x596F75277265206E6F7420746865206F776E6572210000000000000000000000 PUSH1 0x0 DUP3 ADD MSTORE POP JUMP JUMPDEST PUSH1 0x0 PUSH2 0x281 PUSH1 0x15 DUP4 PUSH2 0x23A JUMP JUMPDEST SWAP2 POP PUSH2 0x28C DUP3 PUSH2 0x24B JUMP JUMPDEST PUSH1 0x20 DUP3 ADD SWAP1 POP SWAP2 SWAP1 POP JUMP JUMPDEST PUSH1 0x0 PUSH1 0x20 DUP3 ADD SWAP1 POP DUP2 DUP2 SUB PUSH1 0x0 DUP4 ADD MSTORE PUSH2 0x2B0 DUP2 PUSH2 0x274 JUMP JUMPDEST SWAP1 POP SWAP2 SWAP1 POP JUMP INVALID LOG2 PUSH5 0x6970667358 0x22 SLT KECCAK256 0xE5 0xE1 0xCB PUSH10 0x7762ACD6ADE0BE977BF6 DUP15 CODECOPY ISZERO 0xE3 PUSH16 0x977521441895D46F14338ADAF764736F PUSH13 0x634300080D0033000000000000 "
				},
				"gasEstimates": {
					"creation": {
						"codeDepositCost": "149800",
						"executionCost": "46569",
						"totalCost": "196369"
					},
					"external": {
						"getInfo()": "498",
						"getValue()": "4583",
						"isOwner()": "24627",
						"test()": "2512"
					}
				},
				"methodIdentifiers": {
					"getInfo()": "5a9b0b89",
					"getValue()": "20965255",
					"isOwner()": "8f32d59b",
					"test()": "f8a8fd6d"
				}
			},
			"storageLayout": {
				"storage": [
					{
						"astId": 18,
						"contract": "bootcamp/week2/day_1_homework.sol:dayOne",
						"label": "test",
						"offset": 0,
						"slot": "0",
						"type": "t_bool"
					},
					{
						"astId": 21,
						"contract": "bootcamp/week2/day_1_homework.sol:dayOne",
						"label": "value",
						"offset": 0,
						"slot": "1",
						"type": "t_uint256"
					}
				],
				"types": {
					"t_bool": {
						"encoding": "inplace",
						"label": "bool",
						"numberOfBytes": "1"
					},
					"t_uint256": {
						"encoding": "inplace",
						"label": "uint256",
						"numberOfBytes": "32"
					}
				}
			},
			"userdoc": {
				"kind": "user",
				"methods": {},
				"version": 1
			}
		}
	}
}