{
	"bootcamp/week2/day_3_inheritence.sol": {
		"elbow": {
			"abi": [
				{
					"inputs": [],
					"name": "age",
					"outputs": [
						{
							"internalType": "uint256",
							"name": "",
							"type": "uint256"
						}
					],
					"stateMutability": "view",
					"type": "function"
				},
				{
					"inputs": [],
					"name": "bend",
					"outputs": [
						{
							"internalType": "string",
							"name": "",
							"type": "string"
						}
					],
					"stateMutability": "pure",
					"type": "function"
				}
			],
			"devdoc": {
				"kind": "dev",
				"methods": {},
				"version": 1
			},
			"evm": {
				"assembly": "    /* \"bootcamp/week2/day_3_inheritence.sol\":59:199  contract elbow {... */\n  mstore(0x40, 0x80)\n    /* \"bootcamp/week2/day_3_inheritence.sol\":99:101  23 */\n  0x17\n    /* \"bootcamp/week2/day_3_inheritence.sol\":81:101  uint public age = 23 */\n  0x00\n  sstore\n    /* \"bootcamp/week2/day_3_inheritence.sol\":59:199  contract elbow {... */\n  callvalue\n  dup1\n  iszero\n  tag_1\n  jumpi\n  0x00\n  dup1\n  revert\ntag_1:\n  pop\n  dataSize(sub_0)\n  dup1\n  dataOffset(sub_0)\n  0x00\n  codecopy\n  0x00\n  return\nstop\n\nsub_0: assembly {\n        /* \"bootcamp/week2/day_3_inheritence.sol\":59:199  contract elbow {... */\n      mstore(0x40, 0x80)\n      callvalue\n      dup1\n      iszero\n      tag_1\n      jumpi\n      0x00\n      dup1\n      revert\n    tag_1:\n      pop\n      jumpi(tag_2, lt(calldatasize, 0x04))\n      shr(0xe0, calldataload(0x00))\n      dup1\n      0x262a9dff\n      eq\n      tag_3\n      jumpi\n      dup1\n      0x5c8629cd\n      eq\n      tag_4\n      jumpi\n    tag_2:\n      0x00\n      dup1\n      revert\n        /* \"bootcamp/week2/day_3_inheritence.sol\":81:101  uint public age = 23 */\n    tag_3:\n      tag_5\n      tag_6\n      jump\t// in\n    tag_5:\n      mload(0x40)\n      tag_7\n      swap2\n      swap1\n      tag_8\n      jump\t// in\n    tag_7:\n      mload(0x40)\n      dup1\n      swap2\n      sub\n      swap1\n      return\n        /* \"bootcamp/week2/day_3_inheritence.sol\":108:197  function bend() public pure virtual returns(string memory) {... */\n    tag_4:\n      tag_9\n      tag_10\n      jump\t// in\n    tag_9:\n      mload(0x40)\n      tag_11\n      swap2\n      swap1\n      tag_12\n      jump\t// in\n    tag_11:\n      mload(0x40)\n      dup1\n      swap2\n      sub\n      swap1\n      return\n        /* \"bootcamp/week2/day_3_inheritence.sol\":81:101  uint public age = 23 */\n    tag_6:\n      sload(0x00)\n      dup2\n      jump\t// out\n        /* \"bootcamp/week2/day_3_inheritence.sol\":108:197  function bend() public pure virtual returns(string memory) {... */\n    tag_10:\n        /* \"bootcamp/week2/day_3_inheritence.sol\":152:165  string memory */\n      0x60\n        /* \"bootcamp/week2/day_3_inheritence.sol\":177:190  return \"bend\" */\n      mload(0x40)\n      dup1\n      0x40\n      add\n      0x40\n      mstore\n      dup1\n      0x04\n      dup2\n      mstore\n      0x20\n      add\n      0x62656e6400000000000000000000000000000000000000000000000000000000\n      dup2\n      mstore\n      pop\n      swap1\n      pop\n        /* \"bootcamp/week2/day_3_inheritence.sol\":108:197  function bend() public pure virtual returns(string memory) {... */\n      swap1\n      jump\t// out\n        /* \"#utility.yul\":7:84   */\n    tag_14:\n        /* \"#utility.yul\":44:51   */\n      0x00\n        /* \"#utility.yul\":73:78   */\n      dup2\n        /* \"#utility.yul\":62:78   */\n      swap1\n      pop\n        /* \"#utility.yul\":7:84   */\n      swap2\n      swap1\n      pop\n      jump\t// out\n        /* \"#utility.yul\":90:208   */\n    tag_15:\n        /* \"#utility.yul\":177:201   */\n      tag_24\n        /* \"#utility.yul\":195:200   */\n      dup2\n        /* \"#utility.yul\":177:201   */\n      tag_14\n      jump\t// in\n    tag_24:\n        /* \"#utility.yul\":172:175   */\n      dup3\n        /* \"#utility.yul\":165:202   */\n      mstore\n        /* \"#utility.yul\":90:208   */\n      pop\n      pop\n      jump\t// out\n        /* \"#utility.yul\":214:436   */\n    tag_8:\n        /* \"#utility.yul\":307:311   */\n      0x00\n        /* \"#utility.yul\":345:347   */\n      0x20\n        /* \"#utility.yul\":334:343   */\n      dup3\n        /* \"#utility.yul\":330:348   */\n      add\n        /* \"#utility.yul\":322:348   */\n      swap1\n      pop\n        /* \"#utility.yul\":358:429   */\n      tag_26\n        /* \"#utility.yul\":426:427   */\n      0x00\n        /* \"#utility.yul\":415:424   */\n      dup4\n        /* \"#utility.yul\":411:428   */\n      add\n        /* \"#utility.yul\":402:408   */\n      dup5\n        /* \"#utility.yul\":358:429   */\n      tag_15\n      jump\t// in\n    tag_26:\n        /* \"#utility.yul\":214:436   */\n      swap3\n      swap2\n      pop\n      pop\n      jump\t// out\n        /* \"#utility.yul\":442:541   */\n    tag_16:\n        /* \"#utility.yul\":494:500   */\n      0x00\n        /* \"#utility.yul\":528:533   */\n      dup2\n        /* \"#utility.yul\":522:534   */\n      mload\n        /* \"#utility.yul\":512:534   */\n      swap1\n      pop\n        /* \"#utility.yul\":442:541   */\n      swap2\n      swap1\n      pop\n      jump\t// out\n        /* \"#utility.yul\":547:716   */\n    tag_17:\n        /* \"#utility.yul\":631:642   */\n      0x00\n        /* \"#utility.yul\":665:671   */\n      dup3\n        /* \"#utility.yul\":660:663   */\n      dup3\n        /* \"#utility.yul\":653:672   */\n      mstore\n        /* \"#utility.yul\":705:709   */\n      0x20\n        /* \"#utility.yul\":700:703   */\n      dup3\n        /* \"#utility.yul\":696:710   */\n      add\n        /* \"#utility.yul\":681:710   */\n      swap1\n      pop\n        /* \"#utility.yul\":547:716   */\n      swap3\n      swap2\n      pop\n      pop\n      jump\t// out\n        /* \"#utility.yul\":722:968   */\n    tag_18:\n        /* \"#utility.yul\":803:804   */\n      0x00\n        /* \"#utility.yul\":813:926   */\n    tag_30:\n        /* \"#utility.yul\":827:833   */\n      dup4\n        /* \"#utility.yul\":824:825   */\n      dup2\n        /* \"#utility.yul\":821:834   */\n      lt\n        /* \"#utility.yul\":813:926   */\n      iszero\n      tag_32\n      jumpi\n        /* \"#utility.yul\":912:913   */\n      dup1\n        /* \"#utility.yul\":907:910   */\n      dup3\n        /* \"#utility.yul\":903:914   */\n      add\n        /* \"#utility.yul\":897:915   */\n      mload\n        /* \"#utility.yul\":893:894   */\n      dup2\n        /* \"#utility.yul\":888:891   */\n      dup5\n        /* \"#utility.yul\":884:895   */\n      add\n        /* \"#utility.yul\":877:916   */\n      mstore\n        /* \"#utility.yul\":849:851   */\n      0x20\n        /* \"#utility.yul\":846:847   */\n      dup2\n        /* \"#utility.yul\":842:852   */\n      add\n        /* \"#utility.yul\":837:852   */\n      swap1\n      pop\n        /* \"#utility.yul\":813:926   */\n      jump(tag_30)\n    tag_32:\n        /* \"#utility.yul\":960:961   */\n      0x00\n        /* \"#utility.yul\":951:957   */\n      dup5\n        /* \"#utility.yul\":946:949   */\n      dup5\n        /* \"#utility.yul\":942:958   */\n      add\n        /* \"#utility.yul\":935:962   */\n      mstore\n        /* \"#utility.yul\":784:968   */\n      pop\n        /* \"#utility.yul\":722:968   */\n      pop\n      pop\n      pop\n      jump\t// out\n        /* \"#utility.yul\":974:1076   */\n    tag_19:\n        /* \"#utility.yul\":1015:1021   */\n      0x00\n        /* \"#utility.yul\":1066:1068   */\n      0x1f\n        /* \"#utility.yul\":1062:1069   */\n      not\n        /* \"#utility.yul\":1057:1059   */\n      0x1f\n        /* \"#utility.yul\":1050:1055   */\n      dup4\n        /* \"#utility.yul\":1046:1060   */\n      add\n        /* \"#utility.yul\":1042:1070   */\n      and\n        /* \"#utility.yul\":1032:1070   */\n      swap1\n      pop\n        /* \"#utility.yul\":974:1076   */\n      swap2\n      swap1\n      pop\n      jump\t// out\n        /* \"#utility.yul\":1082:1459   */\n    tag_20:\n        /* \"#utility.yul\":1170:1173   */\n      0x00\n        /* \"#utility.yul\":1198:1237   */\n      tag_35\n        /* \"#utility.yul\":1231:1236   */\n      dup3\n        /* \"#utility.yul\":1198:1237   */\n      tag_16\n      jump\t// in\n    tag_35:\n        /* \"#utility.yul\":1253:1324   */\n      tag_36\n        /* \"#utility.yul\":1317:1323   */\n      dup2\n        /* \"#utility.yul\":1312:1315   */\n      dup6\n        /* \"#utility.yul\":1253:1324   */\n      tag_17\n      jump\t// in\n    tag_36:\n        /* \"#utility.yul\":1246:1324   */\n      swap4\n      pop\n        /* \"#utility.yul\":1333:1398   */\n      tag_37\n        /* \"#utility.yul\":1391:1397   */\n      dup2\n        /* \"#utility.yul\":1386:1389   */\n      dup6\n        /* \"#utility.yul\":1379:1383   */\n      0x20\n        /* \"#utility.yul\":1372:1377   */\n      dup7\n        /* \"#utility.yul\":1368:1384   */\n      add\n        /* \"#utility.yul\":1333:1398   */\n      tag_18\n      jump\t// in\n    tag_37:\n        /* \"#utility.yul\":1423:1452   */\n      tag_38\n        /* \"#utility.yul\":1445:1451   */\n      dup2\n        /* \"#utility.yul\":1423:1452   */\n      tag_19\n      jump\t// in\n    tag_38:\n        /* \"#utility.yul\":1418:1421   */\n      dup5\n        /* \"#utility.yul\":1414:1453   */\n      add\n        /* \"#utility.yul\":1407:1453   */\n      swap2\n      pop\n        /* \"#utility.yul\":1174:1459   */\n      pop\n        /* \"#utility.yul\":1082:1459   */\n      swap3\n      swap2\n      pop\n      pop\n      jump\t// out\n        /* \"#utility.yul\":1465:1778   */\n    tag_12:\n        /* \"#utility.yul\":1578:1582   */\n      0x00\n        /* \"#utility.yul\":1616:1618   */\n      0x20\n        /* \"#utility.yul\":1605:1614   */\n      dup3\n        /* \"#utility.yul\":1601:1619   */\n      add\n        /* \"#utility.yul\":1593:1619   */\n      swap1\n      pop\n        /* \"#utility.yul\":1665:1674   */\n      dup2\n        /* \"#utility.yul\":1659:1663   */\n      dup2\n        /* \"#utility.yul\":1655:1675   */\n      sub\n        /* \"#utility.yul\":1651:1652   */\n      0x00\n        /* \"#utility.yul\":1640:1649   */\n      dup4\n        /* \"#utility.yul\":1636:1653   */\n      add\n        /* \"#utility.yul\":1629:1676   */\n      mstore\n        /* \"#utility.yul\":1693:1771   */\n      tag_40\n        /* \"#utility.yul\":1766:1770   */\n      dup2\n        /* \"#utility.yul\":1757:1763   */\n      dup5\n        /* \"#utility.yul\":1693:1771   */\n      tag_20\n      jump\t// in\n    tag_40:\n        /* \"#utility.yul\":1685:1771   */\n      swap1\n      pop\n        /* \"#utility.yul\":1465:1778   */\n      swap3\n      swap2\n      pop\n      pop\n      jump\t// out\n\n    auxdata: 0xa264697066735822122028e1d77b876effa718a6b0b46a08059a1f425e597072e3004cc99f9a59af691564736f6c63430008110033\n}\n",
				"bytecode": {
					"linkReferences": {},
					"object": "6080604052601760005534801561001557600080fd5b506101d6806100256000396000f3fe608060405234801561001057600080fd5b50600436106100365760003560e01c8063262a9dff1461003b5780635c8629cd14610059575b600080fd5b610043610077565b60405161005091906100d3565b60405180910390f35b61006161007d565b60405161006e919061017e565b60405180910390f35b60005481565b60606040518060400160405280600481526020017f62656e6400000000000000000000000000000000000000000000000000000000815250905090565b6000819050919050565b6100cd816100ba565b82525050565b60006020820190506100e860008301846100c4565b92915050565b600081519050919050565b600082825260208201905092915050565b60005b8381101561012857808201518184015260208101905061010d565b60008484015250505050565b6000601f19601f8301169050919050565b6000610150826100ee565b61015a81856100f9565b935061016a81856020860161010a565b61017381610134565b840191505092915050565b600060208201905081810360008301526101988184610145565b90509291505056fea264697066735822122028e1d77b876effa718a6b0b46a08059a1f425e597072e3004cc99f9a59af691564736f6c63430008110033",
					"opcodes": "PUSH1 0x80 PUSH1 0x40 MSTORE PUSH1 0x17 PUSH1 0x0 SSTORE CALLVALUE DUP1 ISZERO PUSH2 0x15 JUMPI PUSH1 0x0 DUP1 REVERT JUMPDEST POP PUSH2 0x1D6 DUP1 PUSH2 0x25 PUSH1 0x0 CODECOPY PUSH1 0x0 RETURN INVALID PUSH1 0x80 PUSH1 0x40 MSTORE CALLVALUE DUP1 ISZERO PUSH2 0x10 JUMPI PUSH1 0x0 DUP1 REVERT JUMPDEST POP PUSH1 0x4 CALLDATASIZE LT PUSH2 0x36 JUMPI PUSH1 0x0 CALLDATALOAD PUSH1 0xE0 SHR DUP1 PUSH4 0x262A9DFF EQ PUSH2 0x3B JUMPI DUP1 PUSH4 0x5C8629CD EQ PUSH2 0x59 JUMPI JUMPDEST PUSH1 0x0 DUP1 REVERT JUMPDEST PUSH2 0x43 PUSH2 0x77 JUMP JUMPDEST PUSH1 0x40 MLOAD PUSH2 0x50 SWAP2 SWAP1 PUSH2 0xD3 JUMP JUMPDEST PUSH1 0x40 MLOAD DUP1 SWAP2 SUB SWAP1 RETURN JUMPDEST PUSH2 0x61 PUSH2 0x7D JUMP JUMPDEST PUSH1 0x40 MLOAD PUSH2 0x6E SWAP2 SWAP1 PUSH2 0x17E JUMP JUMPDEST PUSH1 0x40 MLOAD DUP1 SWAP2 SUB SWAP1 RETURN JUMPDEST PUSH1 0x0 SLOAD DUP2 JUMP JUMPDEST PUSH1 0x60 PUSH1 0x40 MLOAD DUP1 PUSH1 0x40 ADD PUSH1 0x40 MSTORE DUP1 PUSH1 0x4 DUP2 MSTORE PUSH1 0x20 ADD PUSH32 0x62656E6400000000000000000000000000000000000000000000000000000000 DUP2 MSTORE POP SWAP1 POP SWAP1 JUMP JUMPDEST PUSH1 0x0 DUP2 SWAP1 POP SWAP2 SWAP1 POP JUMP JUMPDEST PUSH2 0xCD DUP2 PUSH2 0xBA JUMP JUMPDEST DUP3 MSTORE POP POP JUMP JUMPDEST PUSH1 0x0 PUSH1 0x20 DUP3 ADD SWAP1 POP PUSH2 0xE8 PUSH1 0x0 DUP4 ADD DUP5 PUSH2 0xC4 JUMP JUMPDEST SWAP3 SWAP2 POP POP JUMP JUMPDEST PUSH1 0x0 DUP2 MLOAD SWAP1 POP SWAP2 SWAP1 POP JUMP JUMPDEST PUSH1 0x0 DUP3 DUP3 MSTORE PUSH1 0x20 DUP3 ADD SWAP1 POP SWAP3 SWAP2 POP POP JUMP JUMPDEST PUSH1 0x0 JUMPDEST DUP4 DUP2 LT ISZERO PUSH2 0x128 JUMPI DUP1 DUP3 ADD MLOAD DUP2 DUP5 ADD MSTORE PUSH1 0x20 DUP2 ADD SWAP1 POP PUSH2 0x10D JUMP JUMPDEST PUSH1 0x0 DUP5 DUP5 ADD MSTORE POP POP POP POP JUMP JUMPDEST PUSH1 0x0 PUSH1 0x1F NOT PUSH1 0x1F DUP4 ADD AND SWAP1 POP SWAP2 SWAP1 POP JUMP JUMPDEST PUSH1 0x0 PUSH2 0x150 DUP3 PUSH2 0xEE JUMP JUMPDEST PUSH2 0x15A DUP2 DUP6 PUSH2 0xF9 JUMP JUMPDEST SWAP4 POP PUSH2 0x16A DUP2 DUP6 PUSH1 0x20 DUP7 ADD PUSH2 0x10A JUMP JUMPDEST PUSH2 0x173 DUP2 PUSH2 0x134 JUMP JUMPDEST DUP5 ADD SWAP2 POP POP SWAP3 SWAP2 POP POP JUMP JUMPDEST PUSH1 0x0 PUSH1 0x20 DUP3 ADD SWAP1 POP DUP2 DUP2 SUB PUSH1 0x0 DUP4 ADD MSTORE PUSH2 0x198 DUP2 DUP5 PUSH2 0x145 JUMP JUMPDEST SWAP1 POP SWAP3 SWAP2 POP POP JUMP INVALID LOG2 PUSH5 0x6970667358 0x22 SLT KECCAK256 0x28 0xE1 0xD7 PUSH28 0x876EFFA718A6B0B46A08059A1F425E597072E3004CC99F9A59AF6915 PUSH5 0x736F6C6343 STOP ADDMOD GT STOP CALLER "
				},
				"gasEstimates": {
					"creation": {
						"codeDepositCost": "94000",
						"executionCost": "22247",
						"totalCost": "116247"
					},
					"external": {
						"age()": "2407",
						"bend()": "infinite"
					}
				},
				"methodIdentifiers": {
					"age()": "262a9dff",
					"bend()": "5c8629cd"
				}
			},
			"storageLayout": {
				"storage": [
					{
						"astId": 4,
						"contract": "bootcamp/week2/day_3_inheritence.sol:elbow",
						"label": "age",
						"offset": 0,
						"slot": "0",
						"type": "t_uint256"
					}
				],
				"types": {
					"t_uint256": {
						"encoding": "inplace",
						"label": "uint256",
						"numberOfBytes": "32"
					}
				}
			},
			"userdoc": {
				"kind": "user",
				"methods": {},
				"version": 1
			}
		}
	}
}