{
	"bootcamp/week2/day_3_inheritence.sol": {
		"alian": {
			"abi": [
				{
					"inputs": [],
					"name": "age",
					"outputs": [
						{
							"internalType": "uint256",
							"name": "",
							"type": "uint256"
						}
					],
					"stateMutability": "view",
					"type": "function"
				},
				{
					"inputs": [],
					"name": "bend",
					"outputs": [
						{
							"internalType": "string",
							"name": "",
							"type": "string"
						}
					],
					"stateMutability": "pure",
					"type": "function"
				},
				{
					"inputs": [],
					"name": "fly",
					"outputs": [
						{
							"internalType": "string",
							"name": "",
							"type": "string"
						}
					],
					"stateMutability": "pure",
					"type": "function"
				},
				{
					"inputs": [],
					"name": "kick",
					"outputs": [
						{
							"internalType": "string",
							"name": "",
							"type": "string"
						}
					],
					"stateMutability": "pure",
					"type": "function"
				},
				{
					"inputs": [],
					"name": "raise",
					"outputs": [
						{
							"internalType": "string",
							"name": "",
							"type": "string"
						}
					],
					"stateMutability": "pure",
					"type": "function"
				}
			],
			"devdoc": {
				"kind": "dev",
				"methods": {},
				"version": 1
			},
			"evm": {
				"assembly": "    /* \"bootcamp/week2/day_3_inheritence.sol\":1008:1257  contract alian is rightArm, knee {... */\n  mstore(0x40, 0x80)\n    /* \"bootcamp/week2/day_3_inheritence.sol\":99:101  23 */\n  0x17\n    /* \"bootcamp/week2/day_3_inheritence.sol\":81:101  uint public age = 23 */\n  0x00\n  sstore\n    /* \"bootcamp/week2/day_3_inheritence.sol\":1008:1257  contract alian is rightArm, knee {... */\n  callvalue\n  dup1\n  iszero\n  tag_1\n  jumpi\n  0x00\n  dup1\n  revert\ntag_1:\n  pop\n  dataSize(sub_0)\n  dup1\n  dataOffset(sub_0)\n  0x00\n  codecopy\n  0x00\n  return\nstop\n\nsub_0: assembly {\n        /* \"bootcamp/week2/day_3_inheritence.sol\":1008:1257  contract alian is rightArm, knee {... */\n      mstore(0x40, 0x80)\n      callvalue\n      dup1\n      iszero\n      tag_1\n      jumpi\n      0x00\n      dup1\n      revert\n    tag_1:\n      pop\n      jumpi(tag_2, lt(calldatasize, 0x04))\n      shr(0xe0, calldataload(0x00))\n      dup1\n      0x262a9dff\n      eq\n      tag_3\n      jumpi\n      dup1\n      0x2c2e3abf\n      eq\n      tag_4\n      jumpi\n      dup1\n      0x5c8629cd\n      eq\n      tag_5\n      jumpi\n      dup1\n      0x7a67b479\n      eq\n      tag_6\n      jumpi\n      dup1\n      0xb361e198\n      eq\n      tag_7\n      jumpi\n    tag_2:\n      0x00\n      dup1\n      revert\n        /* \"bootcamp/week2/day_3_inheritence.sol\":81:101  uint public age = 23 */\n    tag_3:\n      tag_8\n      tag_9\n      jump\t// in\n    tag_8:\n      mload(0x40)\n      tag_10\n      swap2\n      swap1\n      tag_11\n      jump\t// in\n    tag_10:\n      mload(0x40)\n      dup1\n      swap2\n      sub\n      swap1\n      return\n        /* \"bootcamp/week2/day_3_inheritence.sol\":1048:1153  function fly() public pure returns (string memory) {... */\n    tag_4:\n      tag_12\n      tag_13\n      jump\t// in\n    tag_12:\n      mload(0x40)\n      tag_14\n      swap2\n      swap1\n      tag_15\n      jump\t// in\n    tag_14:\n      mload(0x40)\n      dup1\n      swap2\n      sub\n      swap1\n      return\n        /* \"bootcamp/week2/day_3_inheritence.sol\":1159:1255  function bend() public pure override returns(string memory) {... */\n    tag_5:\n      tag_16\n      tag_17\n      jump\t// in\n    tag_16:\n      mload(0x40)\n      tag_18\n      swap2\n      swap1\n      tag_15\n      jump\t// in\n    tag_18:\n      mload(0x40)\n      dup1\n      swap2\n      sub\n      swap1\n      return\n        /* \"bootcamp/week2/day_3_inheritence.sol\":919:1004  function kick() public pure returns(string memory) {... */\n    tag_6:\n      tag_19\n      tag_20\n      jump\t// in\n    tag_19:\n      mload(0x40)\n      tag_21\n      swap2\n      swap1\n      tag_15\n      jump\t// in\n    tag_21:\n      mload(0x40)\n      dup1\n      swap2\n      sub\n      swap1\n      return\n        /* \"bootcamp/week2/day_3_inheritence.sol\":470:592  function raise() public pure virtual returns(string memory) {... */\n    tag_7:\n      tag_22\n      tag_23\n      jump\t// in\n    tag_22:\n      mload(0x40)\n      tag_24\n      swap2\n      swap1\n      tag_15\n      jump\t// in\n    tag_24:\n      mload(0x40)\n      dup1\n      swap2\n      sub\n      swap1\n      return\n        /* \"bootcamp/week2/day_3_inheritence.sol\":81:101  uint public age = 23 */\n    tag_9:\n      sload(0x00)\n      dup2\n      jump\t// out\n        /* \"bootcamp/week2/day_3_inheritence.sol\":1048:1153  function fly() public pure returns (string memory) {... */\n    tag_13:\n        /* \"bootcamp/week2/day_3_inheritence.sol\":1084:1097  string memory */\n      0x60\n        /* \"bootcamp/week2/day_3_inheritence.sol\":1130:1136  kick() */\n      tag_26\n        /* \"bootcamp/week2/day_3_inheritence.sol\":1130:1134  kick */\n      tag_20\n        /* \"bootcamp/week2/day_3_inheritence.sol\":1130:1136  kick() */\n      jump\t// in\n    tag_26:\n        /* \"bootcamp/week2/day_3_inheritence.sol\":1138:1145  raise() */\n      tag_27\n        /* \"bootcamp/week2/day_3_inheritence.sol\":1138:1143  raise */\n      tag_23\n        /* \"bootcamp/week2/day_3_inheritence.sol\":1138:1145  raise() */\n      jump\t// in\n    tag_27:\n        /* \"bootcamp/week2/day_3_inheritence.sol\":1116:1146  string.concat(kick(), raise()) */\n      add(0x20, mload(0x40))\n      tag_28\n      swap3\n      swap2\n      swap1\n      tag_29\n      jump\t// in\n    tag_28:\n      mload(0x40)\n      0x20\n      dup2\n      dup4\n      sub\n      sub\n      dup2\n      mstore\n      swap1\n      0x40\n      mstore\n        /* \"bootcamp/week2/day_3_inheritence.sol\":1109:1146  return string.concat(kick(), raise()) */\n      swap1\n      pop\n        /* \"bootcamp/week2/day_3_inheritence.sol\":1048:1153  function fly() public pure returns (string memory) {... */\n      swap1\n      jump\t// out\n        /* \"bootcamp/week2/day_3_inheritence.sol\":1159:1255  function bend() public pure override returns(string memory) {... */\n    tag_17:\n        /* \"bootcamp/week2/day_3_inheritence.sol\":1204:1217  string memory */\n      0x60\n        /* \"bootcamp/week2/day_3_inheritence.sol\":1229:1248  return \"exfloating\" */\n      mload(0x40)\n      dup1\n      0x40\n      add\n      0x40\n      mstore\n      dup1\n      0x0a\n      dup2\n      mstore\n      0x20\n      add\n      0x6578666c6f6174696e6700000000000000000000000000000000000000000000\n      dup2\n      mstore\n      pop\n      swap1\n      pop\n        /* \"bootcamp/week2/day_3_inheritence.sol\":1159:1255  function bend() public pure override returns(string memory) {... */\n      swap1\n      jump\t// out\n        /* \"bootcamp/week2/day_3_inheritence.sol\":919:1004  function kick() public pure returns(string memory) {... */\n    tag_20:\n        /* \"bootcamp/week2/day_3_inheritence.sol\":955:968  string memory */\n      0x60\n        /* \"bootcamp/week2/day_3_inheritence.sol\":980:997  return \"kicking \" */\n      mload(0x40)\n      dup1\n      0x40\n      add\n      0x40\n      mstore\n      dup1\n      0x08\n      dup2\n      mstore\n      0x20\n      add\n      0x6b69636b696e6720000000000000000000000000000000000000000000000000\n      dup2\n      mstore\n      pop\n      swap1\n      pop\n        /* \"bootcamp/week2/day_3_inheritence.sol\":919:1004  function kick() public pure returns(string memory) {... */\n      swap1\n      jump\t// out\n        /* \"bootcamp/week2/day_3_inheritence.sol\":470:592  function raise() public pure virtual returns(string memory) {... */\n    tag_23:\n        /* \"bootcamp/week2/day_3_inheritence.sol\":515:528  string memory */\n      0x60\n        /* \"bootcamp/week2/day_3_inheritence.sol\":578:584  bend() */\n      tag_33\n        /* \"bootcamp/week2/day_3_inheritence.sol\":578:582  bend */\n      tag_17\n        /* \"bootcamp/week2/day_3_inheritence.sol\":578:584  bend() */\n      jump\t// in\n    tag_33:\n        /* \"bootcamp/week2/day_3_inheritence.sol\":547:585  string.concat(\"right arm is \", bend()) */\n      add(0x20, mload(0x40))\n      tag_34\n      swap2\n      swap1\n      tag_35\n      jump\t// in\n    tag_34:\n      mload(0x40)\n      0x20\n      dup2\n      dup4\n      sub\n      sub\n      dup2\n      mstore\n      swap1\n      0x40\n      mstore\n        /* \"bootcamp/week2/day_3_inheritence.sol\":540:585  return string.concat(\"right arm is \", bend()) */\n      swap1\n      pop\n        /* \"bootcamp/week2/day_3_inheritence.sol\":470:592  function raise() public pure virtual returns(string memory) {... */\n      swap1\n      jump\t// out\n        /* \"#utility.yul\":7:84   */\n    tag_36:\n        /* \"#utility.yul\":44:51   */\n      0x00\n        /* \"#utility.yul\":73:78   */\n      dup2\n        /* \"#utility.yul\":62:78   */\n      swap1\n      pop\n        /* \"#utility.yul\":7:84   */\n      swap2\n      swap1\n      pop\n      jump\t// out\n        /* \"#utility.yul\":90:208   */\n    tag_37:\n        /* \"#utility.yul\":177:201   */\n      tag_49\n        /* \"#utility.yul\":195:200   */\n      dup2\n        /* \"#utility.yul\":177:201   */\n      tag_36\n      jump\t// in\n    tag_49:\n        /* \"#utility.yul\":172:175   */\n      dup3\n        /* \"#utility.yul\":165:202   */\n      mstore\n        /* \"#utility.yul\":90:208   */\n      pop\n      pop\n      jump\t// out\n        /* \"#utility.yul\":214:436   */\n    tag_11:\n        /* \"#utility.yul\":307:311   */\n      0x00\n        /* \"#utility.yul\":345:347   */\n      0x20\n        /* \"#utility.yul\":334:343   */\n      dup3\n        /* \"#utility.yul\":330:348   */\n      add\n        /* \"#utility.yul\":322:348   */\n      swap1\n      pop\n        /* \"#utility.yul\":358:429   */\n      tag_51\n        /* \"#utility.yul\":426:427   */\n      0x00\n        /* \"#utility.yul\":415:424   */\n      dup4\n        /* \"#utility.yul\":411:428   */\n      add\n        /* \"#utility.yul\":402:408   */\n      dup5\n        /* \"#utility.yul\":358:429   */\n      tag_37\n      jump\t// in\n    tag_51:\n        /* \"#utility.yul\":214:436   */\n      swap3\n      swap2\n      pop\n      pop\n      jump\t// out\n        /* \"#utility.yul\":442:541   */\n    tag_38:\n        /* \"#utility.yul\":494:500   */\n      0x00\n        /* \"#utility.yul\":528:533   */\n      dup2\n        /* \"#utility.yul\":522:534   */\n      mload\n        /* \"#utility.yul\":512:534   */\n      swap1\n      pop\n        /* \"#utility.yul\":442:541   */\n      swap2\n      swap1\n      pop\n      jump\t// out\n        /* \"#utility.yul\":547:716   */\n    tag_39:\n        /* \"#utility.yul\":631:642   */\n      0x00\n        /* \"#utility.yul\":665:671   */\n      dup3\n        /* \"#utility.yul\":660:663   */\n      dup3\n        /* \"#utility.yul\":653:672   */\n      mstore\n        /* \"#utility.yul\":705:709   */\n      0x20\n        /* \"#utility.yul\":700:703   */\n      dup3\n        /* \"#utility.yul\":696:710   */\n      add\n        /* \"#utility.yul\":681:710   */\n      swap1\n      pop\n        /* \"#utility.yul\":547:716   */\n      swap3\n      swap2\n      pop\n      pop\n      jump\t// out\n        /* \"#utility.yul\":722:968   */\n    tag_40:\n        /* \"#utility.yul\":803:804   */\n      0x00\n        /* \"#utility.yul\":813:926   */\n    tag_55:\n        /* \"#utility.yul\":827:833   */\n      dup4\n        /* \"#utility.yul\":824:825   */\n      dup2\n        /* \"#utility.yul\":821:834   */\n      lt\n        /* \"#utility.yul\":813:926   */\n      iszero\n      tag_57\n      jumpi\n        /* \"#utility.yul\":912:913   */\n      dup1\n        /* \"#utility.yul\":907:910   */\n      dup3\n        /* \"#utility.yul\":903:914   */\n      add\n        /* \"#utility.yul\":897:915   */\n      mload\n        /* \"#utility.yul\":893:894   */\n      dup2\n        /* \"#utility.yul\":888:891   */\n      dup5\n        /* \"#utility.yul\":884:895   */\n      add\n        /* \"#utility.yul\":877:916   */\n      mstore\n        /* \"#utility.yul\":849:851   */\n      0x20\n        /* \"#utility.yul\":846:847   */\n      dup2\n        /* \"#utility.yul\":842:852   */\n      add\n        /* \"#utility.yul\":837:852   */\n      swap1\n      pop\n        /* \"#utility.yul\":813:926   */\n      jump(tag_55)\n    tag_57:\n        /* \"#utility.yul\":960:961   */\n      0x00\n        /* \"#utility.yul\":951:957   */\n      dup5\n        /* \"#utility.yul\":946:949   */\n      dup5\n        /* \"#utility.yul\":942:958   */\n      add\n        /* \"#utility.yul\":935:962   */\n      mstore\n        /* \"#utility.yul\":784:968   */\n      pop\n        /* \"#utility.yul\":722:968   */\n      pop\n      pop\n      pop\n      jump\t// out\n        /* \"#utility.yul\":974:1076   */\n    tag_41:\n        /* \"#utility.yul\":1015:1021   */\n      0x00\n        /* \"#utility.yul\":1066:1068   */\n      0x1f\n        /* \"#utility.yul\":1062:1069   */\n      not\n        /* \"#utility.yul\":1057:1059   */\n      0x1f\n        /* \"#utility.yul\":1050:1055   */\n      dup4\n        /* \"#utility.yul\":1046:1060   */\n      add\n        /* \"#utility.yul\":1042:1070   */\n      and\n        /* \"#utility.yul\":1032:1070   */\n      swap1\n      pop\n        /* \"#utility.yul\":974:1076   */\n      swap2\n      swap1\n      pop\n      jump\t// out\n        /* \"#utility.yul\":1082:1459   */\n    tag_42:\n        /* \"#utility.yul\":1170:1173   */\n      0x00\n        /* \"#utility.yul\":1198:1237   */\n      tag_60\n        /* \"#utility.yul\":1231:1236   */\n      dup3\n        /* \"#utility.yul\":1198:1237   */\n      tag_38\n      jump\t// in\n    tag_60:\n        /* \"#utility.yul\":1253:1324   */\n      tag_61\n        /* \"#utility.yul\":1317:1323   */\n      dup2\n        /* \"#utility.yul\":1312:1315   */\n      dup6\n        /* \"#utility.yul\":1253:1324   */\n      tag_39\n      jump\t// in\n    tag_61:\n        /* \"#utility.yul\":1246:1324   */\n      swap4\n      pop\n        /* \"#utility.yul\":1333:1398   */\n      tag_62\n        /* \"#utility.yul\":1391:1397   */\n      dup2\n        /* \"#utility.yul\":1386:1389   */\n      dup6\n        /* \"#utility.yul\":1379:1383   */\n      0x20\n        /* \"#utility.yul\":1372:1377   */\n      dup7\n        /* \"#utility.yul\":1368:1384   */\n      add\n        /* \"#utility.yul\":1333:1398   */\n      tag_40\n      jump\t// in\n    tag_62:\n        /* \"#utility.yul\":1423:1452   */\n      tag_63\n        /* \"#utility.yul\":1445:1451   */\n      dup2\n        /* \"#utility.yul\":1423:1452   */\n      tag_41\n      jump\t// in\n    tag_63:\n        /* \"#utility.yul\":1418:1421   */\n      dup5\n        /* \"#utility.yul\":1414:1453   */\n      add\n        /* \"#utility.yul\":1407:1453   */\n      swap2\n      pop\n        /* \"#utility.yul\":1174:1459   */\n      pop\n        /* \"#utility.yul\":1082:1459   */\n      swap3\n      swap2\n      pop\n      pop\n      jump\t// out\n        /* \"#utility.yul\":1465:1778   */\n    tag_15:\n        /* \"#utility.yul\":1578:1582   */\n      0x00\n        /* \"#utility.yul\":1616:1618   */\n      0x20\n        /* \"#utility.yul\":1605:1614   */\n      dup3\n        /* \"#utility.yul\":1601:1619   */\n      add\n        /* \"#utility.yul\":1593:1619   */\n      swap1\n      pop\n        /* \"#utility.yul\":1665:1674   */\n      dup2\n        /* \"#utility.yul\":1659:1663   */\n      dup2\n        /* \"#utility.yul\":1655:1675   */\n      sub\n        /* \"#utility.yul\":1651:1652   */\n      0x00\n        /* \"#utility.yul\":1640:1649   */\n      dup4\n        /* \"#utility.yul\":1636:1653   */\n      add\n        /* \"#utility.yul\":1629:1676   */\n      mstore\n        /* \"#utility.yul\":1693:1771   */\n      tag_65\n        /* \"#utility.yul\":1766:1770   */\n      dup2\n        /* \"#utility.yul\":1757:1763   */\n      dup5\n        /* \"#utility.yul\":1693:1771   */\n      tag_42\n      jump\t// in\n    tag_65:\n        /* \"#utility.yul\":1685:1771   */\n      swap1\n      pop\n        /* \"#utility.yul\":1465:1778   */\n      swap3\n      swap2\n      pop\n      pop\n      jump\t// out\n        /* \"#utility.yul\":1784:1932   */\n    tag_43:\n        /* \"#utility.yul\":1886:1897   */\n      0x00\n        /* \"#utility.yul\":1923:1926   */\n      dup2\n        /* \"#utility.yul\":1908:1926   */\n      swap1\n      pop\n        /* \"#utility.yul\":1784:1932   */\n      swap3\n      swap2\n      pop\n      pop\n      jump\t// out\n        /* \"#utility.yul\":1938:2328   */\n    tag_44:\n        /* \"#utility.yul\":2044:2047   */\n      0x00\n        /* \"#utility.yul\":2072:2111   */\n      tag_68\n        /* \"#utility.yul\":2105:2110   */\n      dup3\n        /* \"#utility.yul\":2072:2111   */\n      tag_38\n      jump\t// in\n    tag_68:\n        /* \"#utility.yul\":2127:2216   */\n      tag_69\n        /* \"#utility.yul\":2209:2215   */\n      dup2\n        /* \"#utility.yul\":2204:2207   */\n      dup6\n        /* \"#utility.yul\":2127:2216   */\n      tag_43\n      jump\t// in\n    tag_69:\n        /* \"#utility.yul\":2120:2216   */\n      swap4\n      pop\n        /* \"#utility.yul\":2225:2290   */\n      tag_70\n        /* \"#utility.yul\":2283:2289   */\n      dup2\n        /* \"#utility.yul\":2278:2281   */\n      dup6\n        /* \"#utility.yul\":2271:2275   */\n      0x20\n        /* \"#utility.yul\":2264:2269   */\n      dup7\n        /* \"#utility.yul\":2260:2276   */\n      add\n        /* \"#utility.yul\":2225:2290   */\n      tag_40\n      jump\t// in\n    tag_70:\n        /* \"#utility.yul\":2315:2321   */\n      dup1\n        /* \"#utility.yul\":2310:2313   */\n      dup5\n        /* \"#utility.yul\":2306:2322   */\n      add\n        /* \"#utility.yul\":2299:2322   */\n      swap2\n      pop\n        /* \"#utility.yul\":2048:2328   */\n      pop\n        /* \"#utility.yul\":1938:2328   */\n      swap3\n      swap2\n      pop\n      pop\n      jump\t// out\n        /* \"#utility.yul\":2334:2769   */\n    tag_29:\n        /* \"#utility.yul\":2514:2517   */\n      0x00\n        /* \"#utility.yul\":2536:2631   */\n      tag_72\n        /* \"#utility.yul\":2627:2630   */\n      dup3\n        /* \"#utility.yul\":2618:2624   */\n      dup6\n        /* \"#utility.yul\":2536:2631   */\n      tag_44\n      jump\t// in\n    tag_72:\n        /* \"#utility.yul\":2529:2631   */\n      swap2\n      pop\n        /* \"#utility.yul\":2648:2743   */\n      tag_73\n        /* \"#utility.yul\":2739:2742   */\n      dup3\n        /* \"#utility.yul\":2730:2736   */\n      dup5\n        /* \"#utility.yul\":2648:2743   */\n      tag_44\n      jump\t// in\n    tag_73:\n        /* \"#utility.yul\":2641:2743   */\n      swap2\n      pop\n        /* \"#utility.yul\":2760:2763   */\n      dup2\n        /* \"#utility.yul\":2753:2763   */\n      swap1\n      pop\n        /* \"#utility.yul\":2334:2769   */\n      swap4\n      swap3\n      pop\n      pop\n      pop\n      jump\t// out\n        /* \"#utility.yul\":2775:2966   */\n    tag_45:\n        /* \"#utility.yul\":2944:2959   */\n      0x72696768742061726d2069732000000000000000000000000000000000000000\n        /* \"#utility.yul\":2939:2942   */\n      dup2\n        /* \"#utility.yul\":2932:2960   */\n      mstore\n        /* \"#utility.yul\":2775:2966   */\n      pop\n      jump\t// out\n        /* \"#utility.yul\":2972:3514   */\n    tag_35:\n        /* \"#utility.yul\":3195:3198   */\n      0x00\n        /* \"#utility.yul\":3210:3348   */\n      tag_76\n        /* \"#utility.yul\":3344:3347   */\n      dup3\n        /* \"#utility.yul\":3210:3348   */\n      tag_45\n      jump\t// in\n    tag_76:\n        /* \"#utility.yul\":3373:3375   */\n      0x0d\n        /* \"#utility.yul\":3368:3371   */\n      dup3\n        /* \"#utility.yul\":3364:3376   */\n      add\n        /* \"#utility.yul\":3357:3376   */\n      swap2\n      pop\n        /* \"#utility.yul\":3393:3488   */\n      tag_77\n        /* \"#utility.yul\":3484:3487   */\n      dup3\n        /* \"#utility.yul\":3475:3481   */\n      dup5\n        /* \"#utility.yul\":3393:3488   */\n      tag_44\n      jump\t// in\n    tag_77:\n        /* \"#utility.yul\":3386:3488   */\n      swap2\n      pop\n        /* \"#utility.yul\":3505:3508   */\n      dup2\n        /* \"#utility.yul\":3498:3508   */\n      swap1\n      pop\n        /* \"#utility.yul\":2972:3514   */\n      swap3\n      swap2\n      pop\n      pop\n      jump\t// out\n\n    auxdata: 0xa2646970667358221220a012eef38089c59cb8c9d28c6ef946ee8e79e1d1493c011a5f83fe2f1ea585ec64736f6c63430008110033\n}\n",
				"bytecode": {
					"linkReferences": {},
					"object": "6080604052601760005534801561001557600080fd5b5061039f806100256000396000f3fe608060405234801561001057600080fd5b50600436106100575760003560e01c8063262a9dff1461005c5780632c2e3abf1461007a5780635c8629cd146100985780637a67b479146100b6578063b361e198146100d4575b600080fd5b6100646100f2565b60405161007191906101f0565b60405180910390f35b6100826100f8565b60405161008f919061029b565b60405180910390f35b6100a061012f565b6040516100ad919061029b565b60405180910390f35b6100be61016c565b6040516100cb919061029b565b60405180910390f35b6100dc6101a9565b6040516100e9919061029b565b60405180910390f35b60005481565b606061010261016c565b61010a6101a9565b60405160200161011b9291906102f9565b604051602081830303815290604052905090565b60606040518060400160405280600a81526020017f6578666c6f6174696e6700000000000000000000000000000000000000000000815250905090565b60606040518060400160405280600881526020017f6b69636b696e6720000000000000000000000000000000000000000000000000815250905090565b60606101b361012f565b6040516020016101c39190610343565b604051602081830303815290604052905090565b6000819050919050565b6101ea816101d7565b82525050565b600060208201905061020560008301846101e1565b92915050565b600081519050919050565b600082825260208201905092915050565b60005b8381101561024557808201518184015260208101905061022a565b60008484015250505050565b6000601f19601f8301169050919050565b600061026d8261020b565b6102778185610216565b9350610287818560208601610227565b61029081610251565b840191505092915050565b600060208201905081810360008301526102b58184610262565b905092915050565b600081905092915050565b60006102d38261020b565b6102dd81856102bd565b93506102ed818560208601610227565b80840191505092915050565b600061030582856102c8565b915061031182846102c8565b91508190509392505050565b7f72696768742061726d2069732000000000000000000000000000000000000000815250565b600061034e8261031d565b600d8201915061035e82846102c8565b91508190509291505056fea2646970667358221220a012eef38089c59cb8c9d28c6ef946ee8e79e1d1493c011a5f83fe2f1ea585ec64736f6c63430008110033",
					"opcodes": "PUSH1 0x80 PUSH1 0x40 MSTORE PUSH1 0x17 PUSH1 0x0 SSTORE CALLVALUE DUP1 ISZERO PUSH2 0x15 JUMPI PUSH1 0x0 DUP1 REVERT JUMPDEST POP PUSH2 0x39F DUP1 PUSH2 0x25 PUSH1 0x0 CODECOPY PUSH1 0x0 RETURN INVALID PUSH1 0x80 PUSH1 0x40 MSTORE CALLVALUE DUP1 ISZERO PUSH2 0x10 JUMPI PUSH1 0x0 DUP1 REVERT JUMPDEST POP PUSH1 0x4 CALLDATASIZE LT PUSH2 0x57 JUMPI PUSH1 0x0 CALLDATALOAD PUSH1 0xE0 SHR DUP1 PUSH4 0x262A9DFF EQ PUSH2 0x5C JUMPI DUP1 PUSH4 0x2C2E3ABF EQ PUSH2 0x7A JUMPI DUP1 PUSH4 0x5C8629CD EQ PUSH2 0x98 JUMPI DUP1 PUSH4 0x7A67B479 EQ PUSH2 0xB6 JUMPI DUP1 PUSH4 0xB361E198 EQ PUSH2 0xD4 JUMPI JUMPDEST PUSH1 0x0 DUP1 REVERT JUMPDEST PUSH2 0x64 PUSH2 0xF2 JUMP JUMPDEST PUSH1 0x40 MLOAD PUSH2 0x71 SWAP2 SWAP1 PUSH2 0x1F0 JUMP JUMPDEST PUSH1 0x40 MLOAD DUP1 SWAP2 SUB SWAP1 RETURN JUMPDEST PUSH2 0x82 PUSH2 0xF8 JUMP JUMPDEST PUSH1 0x40 MLOAD PUSH2 0x8F SWAP2 SWAP1 PUSH2 0x29B JUMP JUMPDEST PUSH1 0x40 MLOAD DUP1 SWAP2 SUB SWAP1 RETURN JUMPDEST PUSH2 0xA0 PUSH2 0x12F JUMP JUMPDEST PUSH1 0x40 MLOAD PUSH2 0xAD SWAP2 SWAP1 PUSH2 0x29B JUMP JUMPDEST PUSH1 0x40 MLOAD DUP1 SWAP2 SUB SWAP1 RETURN JUMPDEST PUSH2 0xBE PUSH2 0x16C JUMP JUMPDEST PUSH1 0x40 MLOAD PUSH2 0xCB SWAP2 SWAP1 PUSH2 0x29B JUMP JUMPDEST PUSH1 0x40 MLOAD DUP1 SWAP2 SUB SWAP1 RETURN JUMPDEST PUSH2 0xDC PUSH2 0x1A9 JUMP JUMPDEST PUSH1 0x40 MLOAD PUSH2 0xE9 SWAP2 SWAP1 PUSH2 0x29B JUMP JUMPDEST PUSH1 0x40 MLOAD DUP1 SWAP2 SUB SWAP1 RETURN JUMPDEST PUSH1 0x0 SLOAD DUP2 JUMP JUMPDEST PUSH1 0x60 PUSH2 0x102 PUSH2 0x16C JUMP JUMPDEST PUSH2 0x10A PUSH2 0x1A9 JUMP JUMPDEST PUSH1 0x40 MLOAD PUSH1 0x20 ADD PUSH2 0x11B SWAP3 SWAP2 SWAP1 PUSH2 0x2F9 JUMP JUMPDEST PUSH1 0x40 MLOAD PUSH1 0x20 DUP2 DUP4 SUB SUB DUP2 MSTORE SWAP1 PUSH1 0x40 MSTORE SWAP1 POP SWAP1 JUMP JUMPDEST PUSH1 0x60 PUSH1 0x40 MLOAD DUP1 PUSH1 0x40 ADD PUSH1 0x40 MSTORE DUP1 PUSH1 0xA DUP2 MSTORE PUSH1 0x20 ADD PUSH32 0x6578666C6F6174696E6700000000000000000000000000000000000000000000 DUP2 MSTORE POP SWAP1 POP SWAP1 JUMP JUMPDEST PUSH1 0x60 PUSH1 0x40 MLOAD DUP1 PUSH1 0x40 ADD PUSH1 0x40 MSTORE DUP1 PUSH1 0x8 DUP2 MSTORE PUSH1 0x20 ADD PUSH32 0x6B69636B696E6720000000000000000000000000000000000000000000000000 DUP2 MSTORE POP SWAP1 POP SWAP1 JUMP JUMPDEST PUSH1 0x60 PUSH2 0x1B3 PUSH2 0x12F JUMP JUMPDEST PUSH1 0x40 MLOAD PUSH1 0x20 ADD PUSH2 0x1C3 SWAP2 SWAP1 PUSH2 0x343 JUMP JUMPDEST PUSH1 0x40 MLOAD PUSH1 0x20 DUP2 DUP4 SUB SUB DUP2 MSTORE SWAP1 PUSH1 0x40 MSTORE SWAP1 POP SWAP1 JUMP JUMPDEST PUSH1 0x0 DUP2 SWAP1 POP SWAP2 SWAP1 POP JUMP JUMPDEST PUSH2 0x1EA DUP2 PUSH2 0x1D7 JUMP JUMPDEST DUP3 MSTORE POP POP JUMP JUMPDEST PUSH1 0x0 PUSH1 0x20 DUP3 ADD SWAP1 POP PUSH2 0x205 PUSH1 0x0 DUP4 ADD DUP5 PUSH2 0x1E1 JUMP JUMPDEST SWAP3 SWAP2 POP POP JUMP JUMPDEST PUSH1 0x0 DUP2 MLOAD SWAP1 POP SWAP2 SWAP1 POP JUMP JUMPDEST PUSH1 0x0 DUP3 DUP3 MSTORE PUSH1 0x20 DUP3 ADD SWAP1 POP SWAP3 SWAP2 POP POP JUMP JUMPDEST PUSH1 0x0 JUMPDEST DUP4 DUP2 LT ISZERO PUSH2 0x245 JUMPI DUP1 DUP3 ADD MLOAD DUP2 DUP5 ADD MSTORE PUSH1 0x20 DUP2 ADD SWAP1 POP PUSH2 0x22A JUMP JUMPDEST PUSH1 0x0 DUP5 DUP5 ADD MSTORE POP POP POP POP JUMP JUMPDEST PUSH1 0x0 PUSH1 0x1F NOT PUSH1 0x1F DUP4 ADD AND SWAP1 POP SWAP2 SWAP1 POP JUMP JUMPDEST PUSH1 0x0 PUSH2 0x26D DUP3 PUSH2 0x20B JUMP JUMPDEST PUSH2 0x277 DUP2 DUP6 PUSH2 0x216 JUMP JUMPDEST SWAP4 POP PUSH2 0x287 DUP2 DUP6 PUSH1 0x20 DUP7 ADD PUSH2 0x227 JUMP JUMPDEST PUSH2 0x290 DUP2 PUSH2 0x251 JUMP JUMPDEST DUP5 ADD SWAP2 POP POP SWAP3 SWAP2 POP POP JUMP JUMPDEST PUSH1 0x0 PUSH1 0x20 DUP3 ADD SWAP1 POP DUP2 DUP2 SUB PUSH1 0x0 DUP4 ADD MSTORE PUSH2 0x2B5 DUP2 DUP5 PUSH2 0x262 JUMP JUMPDEST SWAP1 POP SWAP3 SWAP2 POP POP JUMP JUMPDEST PUSH1 0x0 DUP2 SWAP1 POP SWAP3 SWAP2 POP POP JUMP JUMPDEST PUSH1 0x0 PUSH2 0x2D3 DUP3 PUSH2 0x20B JUMP JUMPDEST PUSH2 0x2DD DUP2 DUP6 PUSH2 0x2BD JUMP JUMPDEST SWAP4 POP PUSH2 0x2ED DUP2 DUP6 PUSH1 0x20 DUP7 ADD PUSH2 0x227 JUMP JUMPDEST DUP1 DUP5 ADD SWAP2 POP POP SWAP3 SWAP2 POP POP JUMP JUMPDEST PUSH1 0x0 PUSH2 0x305 DUP3 DUP6 PUSH2 0x2C8 JUMP JUMPDEST SWAP2 POP PUSH2 0x311 DUP3 DUP5 PUSH2 0x2C8 JUMP JUMPDEST SWAP2 POP DUP2 SWAP1 POP SWAP4 SWAP3 POP POP POP JUMP JUMPDEST PUSH32 0x72696768742061726D2069732000000000000000000000000000000000000000 DUP2 MSTORE POP JUMP JUMPDEST PUSH1 0x0 PUSH2 0x34E DUP3 PUSH2 0x31D JUMP JUMPDEST PUSH1 0xD DUP3 ADD SWAP2 POP PUSH2 0x35E DUP3 DUP5 PUSH2 0x2C8 JUMP JUMPDEST SWAP2 POP DUP2 SWAP1 POP SWAP3 SWAP2 POP POP JUMP INVALID LOG2 PUSH5 0x6970667358 0x22 SLT KECCAK256 LOG0 SLT 0xEE RETURN DUP1 DUP10 0xC5 SWAP13 0xB8 0xC9 0xD2 DUP13 PUSH15 0xF946EE8E79E1D1493C011A5F83FE2F 0x1E 0xA5 DUP6 0xEC PUSH5 0x736F6C6343 STOP ADDMOD GT STOP CALLER "
				},
				"gasEstimates": {
					"creation": {
						"codeDepositCost": "185400",
						"executionCost": "22332",
						"totalCost": "207732"
					},
					"external": {
						"age()": "2407",
						"bend()": "infinite",
						"fly()": "infinite",
						"kick()": "infinite",
						"raise()": "infinite"
					}
				},
				"methodIdentifiers": {
					"age()": "262a9dff",
					"bend()": "5c8629cd",
					"fly()": "2c2e3abf",
					"kick()": "7a67b479",
					"raise()": "b361e198"
				}
			},
			"storageLayout": {
				"storage": [
					{
						"astId": 4,
						"contract": "bootcamp/week2/day_3_inheritence.sol:alian",
						"label": "age",
						"offset": 0,
						"slot": "0",
						"type": "t_uint256"
					}
				],
				"types": {
					"t_uint256": {
						"encoding": "inplace",
						"label": "uint256",
						"numberOfBytes": "32"
					}
				}
			},
			"userdoc": {
				"kind": "user",
				"methods": {},
				"version": 1
			}
		}
	}
}