{
	"bootcamp/week2/day_3_inheritence.sol": {
		"rightArm": {
			"abi": [
				{
					"inputs": [],
					"name": "age",
					"outputs": [
						{
							"internalType": "uint256",
							"name": "",
							"type": "uint256"
						}
					],
					"stateMutability": "view",
					"type": "function"
				},
				{
					"inputs": [],
					"name": "bend",
					"outputs": [
						{
							"internalType": "string",
							"name": "",
							"type": "string"
						}
					],
					"stateMutability": "pure",
					"type": "function"
				},
				{
					"inputs": [],
					"name": "raise",
					"outputs": [
						{
							"internalType": "string",
							"name": "",
							"type": "string"
						}
					],
					"stateMutability": "pure",
					"type": "function"
				}
			],
			"devdoc": {
				"kind": "dev",
				"methods": {},
				"version": 1
			},
			"evm": {
				"assembly": "    /* \"bootcamp/week2/day_3_inheritence.sol\":436:594  contract rightArm is elbow {... */\n  mstore(0x40, 0x80)\n    /* \"bootcamp/week2/day_3_inheritence.sol\":99:101  23 */\n  0x17\n    /* \"bootcamp/week2/day_3_inheritence.sol\":81:101  uint public age = 23 */\n  0x00\n  sstore\n    /* \"bootcamp/week2/day_3_inheritence.sol\":436:594  contract rightArm is elbow {... */\n  callvalue\n  dup1\n  iszero\n  tag_1\n  jumpi\n  0x00\n  dup1\n  revert\ntag_1:\n  pop\n  dataSize(sub_0)\n  dup1\n  dataOffset(sub_0)\n  0x00\n  codecopy\n  0x00\n  return\nstop\n\nsub_0: assembly {\n        /* \"bootcamp/week2/day_3_inheritence.sol\":436:594  contract rightArm is elbow {... */\n      mstore(0x40, 0x80)\n      callvalue\n      dup1\n      iszero\n      tag_1\n      jumpi\n      0x00\n      dup1\n      revert\n    tag_1:\n      pop\n      jumpi(tag_2, lt(calldatasize, 0x04))\n      shr(0xe0, calldataload(0x00))\n      dup1\n      0x262a9dff\n      eq\n      tag_3\n      jumpi\n      dup1\n      0x5c8629cd\n      eq\n      tag_4\n      jumpi\n      dup1\n      0xb361e198\n      eq\n      tag_5\n      jumpi\n    tag_2:\n      0x00\n      dup1\n      revert\n        /* \"bootcamp/week2/day_3_inheritence.sol\":81:101  uint public age = 23 */\n    tag_3:\n      tag_6\n      tag_7\n      jump\t// in\n    tag_6:\n      mload(0x40)\n      tag_8\n      swap2\n      swap1\n      tag_9\n      jump\t// in\n    tag_8:\n      mload(0x40)\n      dup1\n      swap2\n      sub\n      swap1\n      return\n        /* \"bootcamp/week2/day_3_inheritence.sol\":108:197  function bend() public pure virtual returns(string memory) {... */\n    tag_4:\n      tag_10\n      tag_11\n      jump\t// in\n    tag_10:\n      mload(0x40)\n      tag_12\n      swap2\n      swap1\n      tag_13\n      jump\t// in\n    tag_12:\n      mload(0x40)\n      dup1\n      swap2\n      sub\n      swap1\n      return\n        /* \"bootcamp/week2/day_3_inheritence.sol\":470:592  function raise() public pure virtual returns(string memory) {... */\n    tag_5:\n      tag_14\n      tag_15\n      jump\t// in\n    tag_14:\n      mload(0x40)\n      tag_16\n      swap2\n      swap1\n      tag_13\n      jump\t// in\n    tag_16:\n      mload(0x40)\n      dup1\n      swap2\n      sub\n      swap1\n      return\n        /* \"bootcamp/week2/day_3_inheritence.sol\":81:101  uint public age = 23 */\n    tag_7:\n      sload(0x00)\n      dup2\n      jump\t// out\n        /* \"bootcamp/week2/day_3_inheritence.sol\":108:197  function bend() public pure virtual returns(string memory) {... */\n    tag_11:\n        /* \"bootcamp/week2/day_3_inheritence.sol\":152:165  string memory */\n      0x60\n        /* \"bootcamp/week2/day_3_inheritence.sol\":177:190  return \"bend\" */\n      mload(0x40)\n      dup1\n      0x40\n      add\n      0x40\n      mstore\n      dup1\n      0x04\n      dup2\n      mstore\n      0x20\n      add\n      0x62656e6400000000000000000000000000000000000000000000000000000000\n      dup2\n      mstore\n      pop\n      swap1\n      pop\n        /* \"bootcamp/week2/day_3_inheritence.sol\":108:197  function bend() public pure virtual returns(string memory) {... */\n      swap1\n      jump\t// out\n        /* \"bootcamp/week2/day_3_inheritence.sol\":470:592  function raise() public pure virtual returns(string memory) {... */\n    tag_15:\n        /* \"bootcamp/week2/day_3_inheritence.sol\":515:528  string memory */\n      0x60\n        /* \"bootcamp/week2/day_3_inheritence.sol\":578:584  bend() */\n      tag_19\n        /* \"bootcamp/week2/day_3_inheritence.sol\":578:582  bend */\n      tag_11\n        /* \"bootcamp/week2/day_3_inheritence.sol\":578:584  bend() */\n      jump\t// in\n    tag_19:\n        /* \"bootcamp/week2/day_3_inheritence.sol\":547:585  string.concat(\"right arm is \", bend()) */\n      add(0x20, mload(0x40))\n      tag_20\n      swap2\n      swap1\n      tag_21\n      jump\t// in\n    tag_20:\n      mload(0x40)\n      0x20\n      dup2\n      dup4\n      sub\n      sub\n      dup2\n      mstore\n      swap1\n      0x40\n      mstore\n        /* \"bootcamp/week2/day_3_inheritence.sol\":540:585  return string.concat(\"right arm is \", bend()) */\n      swap1\n      pop\n        /* \"bootcamp/week2/day_3_inheritence.sol\":470:592  function raise() public pure virtual returns(string memory) {... */\n      swap1\n      jump\t// out\n        /* \"#utility.yul\":7:84   */\n    tag_22:\n        /* \"#utility.yul\":44:51   */\n      0x00\n        /* \"#utility.yul\":73:78   */\n      dup2\n        /* \"#utility.yul\":62:78   */\n      swap1\n      pop\n        /* \"#utility.yul\":7:84   */\n      swap2\n      swap1\n      pop\n      jump\t// out\n        /* \"#utility.yul\":90:208   */\n    tag_23:\n        /* \"#utility.yul\":177:201   */\n      tag_35\n        /* \"#utility.yul\":195:200   */\n      dup2\n        /* \"#utility.yul\":177:201   */\n      tag_22\n      jump\t// in\n    tag_35:\n        /* \"#utility.yul\":172:175   */\n      dup3\n        /* \"#utility.yul\":165:202   */\n      mstore\n        /* \"#utility.yul\":90:208   */\n      pop\n      pop\n      jump\t// out\n        /* \"#utility.yul\":214:436   */\n    tag_9:\n        /* \"#utility.yul\":307:311   */\n      0x00\n        /* \"#utility.yul\":345:347   */\n      0x20\n        /* \"#utility.yul\":334:343   */\n      dup3\n        /* \"#utility.yul\":330:348   */\n      add\n        /* \"#utility.yul\":322:348   */\n      swap1\n      pop\n        /* \"#utility.yul\":358:429   */\n      tag_37\n        /* \"#utility.yul\":426:427   */\n      0x00\n        /* \"#utility.yul\":415:424   */\n      dup4\n        /* \"#utility.yul\":411:428   */\n      add\n        /* \"#utility.yul\":402:408   */\n      dup5\n        /* \"#utility.yul\":358:429   */\n      tag_23\n      jump\t// in\n    tag_37:\n        /* \"#utility.yul\":214:436   */\n      swap3\n      swap2\n      pop\n      pop\n      jump\t// out\n        /* \"#utility.yul\":442:541   */\n    tag_24:\n        /* \"#utility.yul\":494:500   */\n      0x00\n        /* \"#utility.yul\":528:533   */\n      dup2\n        /* \"#utility.yul\":522:534   */\n      mload\n        /* \"#utility.yul\":512:534   */\n      swap1\n      pop\n        /* \"#utility.yul\":442:541   */\n      swap2\n      swap1\n      pop\n      jump\t// out\n        /* \"#utility.yul\":547:716   */\n    tag_25:\n        /* \"#utility.yul\":631:642   */\n      0x00\n        /* \"#utility.yul\":665:671   */\n      dup3\n        /* \"#utility.yul\":660:663   */\n      dup3\n        /* \"#utility.yul\":653:672   */\n      mstore\n        /* \"#utility.yul\":705:709   */\n      0x20\n        /* \"#utility.yul\":700:703   */\n      dup3\n        /* \"#utility.yul\":696:710   */\n      add\n        /* \"#utility.yul\":681:710   */\n      swap1\n      pop\n        /* \"#utility.yul\":547:716   */\n      swap3\n      swap2\n      pop\n      pop\n      jump\t// out\n        /* \"#utility.yul\":722:968   */\n    tag_26:\n        /* \"#utility.yul\":803:804   */\n      0x00\n        /* \"#utility.yul\":813:926   */\n    tag_41:\n        /* \"#utility.yul\":827:833   */\n      dup4\n        /* \"#utility.yul\":824:825   */\n      dup2\n        /* \"#utility.yul\":821:834   */\n      lt\n        /* \"#utility.yul\":813:926   */\n      iszero\n      tag_43\n      jumpi\n        /* \"#utility.yul\":912:913   */\n      dup1\n        /* \"#utility.yul\":907:910   */\n      dup3\n        /* \"#utility.yul\":903:914   */\n      add\n        /* \"#utility.yul\":897:915   */\n      mload\n        /* \"#utility.yul\":893:894   */\n      dup2\n        /* \"#utility.yul\":888:891   */\n      dup5\n        /* \"#utility.yul\":884:895   */\n      add\n        /* \"#utility.yul\":877:916   */\n      mstore\n        /* \"#utility.yul\":849:851   */\n      0x20\n        /* \"#utility.yul\":846:847   */\n      dup2\n        /* \"#utility.yul\":842:852   */\n      add\n        /* \"#utility.yul\":837:852   */\n      swap1\n      pop\n        /* \"#utility.yul\":813:926   */\n      jump(tag_41)\n    tag_43:\n        /* \"#utility.yul\":960:961   */\n      0x00\n        /* \"#utility.yul\":951:957   */\n      dup5\n        /* \"#utility.yul\":946:949   */\n      dup5\n        /* \"#utility.yul\":942:958   */\n      add\n        /* \"#utility.yul\":935:962   */\n      mstore\n        /* \"#utility.yul\":784:968   */\n      pop\n        /* \"#utility.yul\":722:968   */\n      pop\n      pop\n      pop\n      jump\t// out\n        /* \"#utility.yul\":974:1076   */\n    tag_27:\n        /* \"#utility.yul\":1015:1021   */\n      0x00\n        /* \"#utility.yul\":1066:1068   */\n      0x1f\n        /* \"#utility.yul\":1062:1069   */\n      not\n        /* \"#utility.yul\":1057:1059   */\n      0x1f\n        /* \"#utility.yul\":1050:1055   */\n      dup4\n        /* \"#utility.yul\":1046:1060   */\n      add\n        /* \"#utility.yul\":1042:1070   */\n      and\n        /* \"#utility.yul\":1032:1070   */\n      swap1\n      pop\n        /* \"#utility.yul\":974:1076   */\n      swap2\n      swap1\n      pop\n      jump\t// out\n        /* \"#utility.yul\":1082:1459   */\n    tag_28:\n        /* \"#utility.yul\":1170:1173   */\n      0x00\n        /* \"#utility.yul\":1198:1237   */\n      tag_46\n        /* \"#utility.yul\":1231:1236   */\n      dup3\n        /* \"#utility.yul\":1198:1237   */\n      tag_24\n      jump\t// in\n    tag_46:\n        /* \"#utility.yul\":1253:1324   */\n      tag_47\n        /* \"#utility.yul\":1317:1323   */\n      dup2\n        /* \"#utility.yul\":1312:1315   */\n      dup6\n        /* \"#utility.yul\":1253:1324   */\n      tag_25\n      jump\t// in\n    tag_47:\n        /* \"#utility.yul\":1246:1324   */\n      swap4\n      pop\n        /* \"#utility.yul\":1333:1398   */\n      tag_48\n        /* \"#utility.yul\":1391:1397   */\n      dup2\n        /* \"#utility.yul\":1386:1389   */\n      dup6\n        /* \"#utility.yul\":1379:1383   */\n      0x20\n        /* \"#utility.yul\":1372:1377   */\n      dup7\n        /* \"#utility.yul\":1368:1384   */\n      add\n        /* \"#utility.yul\":1333:1398   */\n      tag_26\n      jump\t// in\n    tag_48:\n        /* \"#utility.yul\":1423:1452   */\n      tag_49\n        /* \"#utility.yul\":1445:1451   */\n      dup2\n        /* \"#utility.yul\":1423:1452   */\n      tag_27\n      jump\t// in\n    tag_49:\n        /* \"#utility.yul\":1418:1421   */\n      dup5\n        /* \"#utility.yul\":1414:1453   */\n      add\n        /* \"#utility.yul\":1407:1453   */\n      swap2\n      pop\n        /* \"#utility.yul\":1174:1459   */\n      pop\n        /* \"#utility.yul\":1082:1459   */\n      swap3\n      swap2\n      pop\n      pop\n      jump\t// out\n        /* \"#utility.yul\":1465:1778   */\n    tag_13:\n        /* \"#utility.yul\":1578:1582   */\n      0x00\n        /* \"#utility.yul\":1616:1618   */\n      0x20\n        /* \"#utility.yul\":1605:1614   */\n      dup3\n        /* \"#utility.yul\":1601:1619   */\n      add\n        /* \"#utility.yul\":1593:1619   */\n      swap1\n      pop\n        /* \"#utility.yul\":1665:1674   */\n      dup2\n        /* \"#utility.yul\":1659:1663   */\n      dup2\n        /* \"#utility.yul\":1655:1675   */\n      sub\n        /* \"#utility.yul\":1651:1652   */\n      0x00\n        /* \"#utility.yul\":1640:1649   */\n      dup4\n        /* \"#utility.yul\":1636:1653   */\n      add\n        /* \"#utility.yul\":1629:1676   */\n      mstore\n        /* \"#utility.yul\":1693:1771   */\n      tag_51\n        /* \"#utility.yul\":1766:1770   */\n      dup2\n        /* \"#utility.yul\":1757:1763   */\n      dup5\n        /* \"#utility.yul\":1693:1771   */\n      tag_28\n      jump\t// in\n    tag_51:\n        /* \"#utility.yul\":1685:1771   */\n      swap1\n      pop\n        /* \"#utility.yul\":1465:1778   */\n      swap3\n      swap2\n      pop\n      pop\n      jump\t// out\n        /* \"#utility.yul\":1784:1975   */\n    tag_29:\n        /* \"#utility.yul\":1953:1968   */\n      0x72696768742061726d2069732000000000000000000000000000000000000000\n        /* \"#utility.yul\":1948:1951   */\n      dup2\n        /* \"#utility.yul\":1941:1969   */\n      mstore\n        /* \"#utility.yul\":1784:1975   */\n      pop\n      jump\t// out\n        /* \"#utility.yul\":1981:2129   */\n    tag_30:\n        /* \"#utility.yul\":2083:2094   */\n      0x00\n        /* \"#utility.yul\":2120:2123   */\n      dup2\n        /* \"#utility.yul\":2105:2123   */\n      swap1\n      pop\n        /* \"#utility.yul\":1981:2129   */\n      swap3\n      swap2\n      pop\n      pop\n      jump\t// out\n        /* \"#utility.yul\":2135:2525   */\n    tag_31:\n        /* \"#utility.yul\":2241:2244   */\n      0x00\n        /* \"#utility.yul\":2269:2308   */\n      tag_55\n        /* \"#utility.yul\":2302:2307   */\n      dup3\n        /* \"#utility.yul\":2269:2308   */\n      tag_24\n      jump\t// in\n    tag_55:\n        /* \"#utility.yul\":2324:2413   */\n      tag_56\n        /* \"#utility.yul\":2406:2412   */\n      dup2\n        /* \"#utility.yul\":2401:2404   */\n      dup6\n        /* \"#utility.yul\":2324:2413   */\n      tag_30\n      jump\t// in\n    tag_56:\n        /* \"#utility.yul\":2317:2413   */\n      swap4\n      pop\n        /* \"#utility.yul\":2422:2487   */\n      tag_57\n        /* \"#utility.yul\":2480:2486   */\n      dup2\n        /* \"#utility.yul\":2475:2478   */\n      dup6\n        /* \"#utility.yul\":2468:2472   */\n      0x20\n        /* \"#utility.yul\":2461:2466   */\n      dup7\n        /* \"#utility.yul\":2457:2473   */\n      add\n        /* \"#utility.yul\":2422:2487   */\n      tag_26\n      jump\t// in\n    tag_57:\n        /* \"#utility.yul\":2512:2518   */\n      dup1\n        /* \"#utility.yul\":2507:2510   */\n      dup5\n        /* \"#utility.yul\":2503:2519   */\n      add\n        /* \"#utility.yul\":2496:2519   */\n      swap2\n      pop\n        /* \"#utility.yul\":2245:2525   */\n      pop\n        /* \"#utility.yul\":2135:2525   */\n      swap3\n      swap2\n      pop\n      pop\n      jump\t// out\n        /* \"#utility.yul\":2531:3073   */\n    tag_21:\n        /* \"#utility.yul\":2754:2757   */\n      0x00\n        /* \"#utility.yul\":2769:2907   */\n      tag_59\n        /* \"#utility.yul\":2903:2906   */\n      dup3\n        /* \"#utility.yul\":2769:2907   */\n      tag_29\n      jump\t// in\n    tag_59:\n        /* \"#utility.yul\":2932:2934   */\n      0x0d\n        /* \"#utility.yul\":2927:2930   */\n      dup3\n        /* \"#utility.yul\":2923:2935   */\n      add\n        /* \"#utility.yul\":2916:2935   */\n      swap2\n      pop\n        /* \"#utility.yul\":2952:3047   */\n      tag_60\n        /* \"#utility.yul\":3043:3046   */\n      dup3\n        /* \"#utility.yul\":3034:3040   */\n      dup5\n        /* \"#utility.yul\":2952:3047   */\n      tag_31\n      jump\t// in\n    tag_60:\n        /* \"#utility.yul\":2945:3047   */\n      swap2\n      pop\n        /* \"#utility.yul\":3064:3067   */\n      dup2\n        /* \"#utility.yul\":3057:3067   */\n      swap1\n      pop\n        /* \"#utility.yul\":2531:3073   */\n      swap3\n      swap2\n      pop\n      pop\n      jump\t// out\n\n    auxdata: 0xa2646970667358221220b1a976995af53ac31aab089a230c6ae7a40de9f1e6883d254d8499a3ee76e2ee64736f6c63430008110033\n}\n",
				"bytecode": {
					"linkReferences": {},
					"object": "6080604052601760005534801561001557600080fd5b506102b5806100256000396000f3fe608060405234801561001057600080fd5b50600436106100415760003560e01c8063262a9dff146100465780635c8629cd14610064578063b361e19814610082575b600080fd5b61004e6100a0565b60405161005b919061012a565b60405180910390f35b61006c6100a6565b60405161007991906101d5565b60405180910390f35b61008a6100e3565b60405161009791906101d5565b60405180910390f35b60005481565b60606040518060400160405280600481526020017f62656e6400000000000000000000000000000000000000000000000000000000815250905090565b60606100ed6100a6565b6040516020016100fd9190610259565b604051602081830303815290604052905090565b6000819050919050565b61012481610111565b82525050565b600060208201905061013f600083018461011b565b92915050565b600081519050919050565b600082825260208201905092915050565b60005b8381101561017f578082015181840152602081019050610164565b60008484015250505050565b6000601f19601f8301169050919050565b60006101a782610145565b6101b18185610150565b93506101c1818560208601610161565b6101ca8161018b565b840191505092915050565b600060208201905081810360008301526101ef818461019c565b905092915050565b7f72696768742061726d2069732000000000000000000000000000000000000000815250565b600081905092915050565b600061023382610145565b61023d818561021d565b935061024d818560208601610161565b80840191505092915050565b6000610264826101f7565b600d820191506102748284610228565b91508190509291505056fea2646970667358221220b1a976995af53ac31aab089a230c6ae7a40de9f1e6883d254d8499a3ee76e2ee64736f6c63430008110033",
					"opcodes": "PUSH1 0x80 PUSH1 0x40 MSTORE PUSH1 0x17 PUSH1 0x0 SSTORE CALLVALUE DUP1 ISZERO PUSH2 0x15 JUMPI PUSH1 0x0 DUP1 REVERT JUMPDEST POP PUSH2 0x2B5 DUP1 PUSH2 0x25 PUSH1 0x0 CODECOPY PUSH1 0x0 RETURN INVALID PUSH1 0x80 PUSH1 0x40 MSTORE CALLVALUE DUP1 ISZERO PUSH2 0x10 JUMPI PUSH1 0x0 DUP1 REVERT JUMPDEST POP PUSH1 0x4 CALLDATASIZE LT PUSH2 0x41 JUMPI PUSH1 0x0 CALLDATALOAD PUSH1 0xE0 SHR DUP1 PUSH4 0x262A9DFF EQ PUSH2 0x46 JUMPI DUP1 PUSH4 0x5C8629CD EQ PUSH2 0x64 JUMPI DUP1 PUSH4 0xB361E198 EQ PUSH2 0x82 JUMPI JUMPDEST PUSH1 0x0 DUP1 REVERT JUMPDEST PUSH2 0x4E PUSH2 0xA0 JUMP JUMPDEST PUSH1 0x40 MLOAD PUSH2 0x5B SWAP2 SWAP1 PUSH2 0x12A JUMP JUMPDEST PUSH1 0x40 MLOAD DUP1 SWAP2 SUB SWAP1 RETURN JUMPDEST PUSH2 0x6C PUSH2 0xA6 JUMP JUMPDEST PUSH1 0x40 MLOAD PUSH2 0x79 SWAP2 SWAP1 PUSH2 0x1D5 JUMP JUMPDEST PUSH1 0x40 MLOAD DUP1 SWAP2 SUB SWAP1 RETURN JUMPDEST PUSH2 0x8A PUSH2 0xE3 JUMP JUMPDEST PUSH1 0x40 MLOAD PUSH2 0x97 SWAP2 SWAP1 PUSH2 0x1D5 JUMP JUMPDEST PUSH1 0x40 MLOAD DUP1 SWAP2 SUB SWAP1 RETURN JUMPDEST PUSH1 0x0 SLOAD DUP2 JUMP JUMPDEST PUSH1 0x60 PUSH1 0x40 MLOAD DUP1 PUSH1 0x40 ADD PUSH1 0x40 MSTORE DUP1 PUSH1 0x4 DUP2 MSTORE PUSH1 0x20 ADD PUSH32 0x62656E6400000000000000000000000000000000000000000000000000000000 DUP2 MSTORE POP SWAP1 POP SWAP1 JUMP JUMPDEST PUSH1 0x60 PUSH2 0xED PUSH2 0xA6 JUMP JUMPDEST PUSH1 0x40 MLOAD PUSH1 0x20 ADD PUSH2 0xFD SWAP2 SWAP1 PUSH2 0x259 JUMP JUMPDEST PUSH1 0x40 MLOAD PUSH1 0x20 DUP2 DUP4 SUB SUB DUP2 MSTORE SWAP1 PUSH1 0x40 MSTORE SWAP1 POP SWAP1 JUMP JUMPDEST PUSH1 0x0 DUP2 SWAP1 POP SWAP2 SWAP1 POP JUMP JUMPDEST PUSH2 0x124 DUP2 PUSH2 0x111 JUMP JUMPDEST DUP3 MSTORE POP POP JUMP JUMPDEST PUSH1 0x0 PUSH1 0x20 DUP3 ADD SWAP1 POP PUSH2 0x13F PUSH1 0x0 DUP4 ADD DUP5 PUSH2 0x11B JUMP JUMPDEST SWAP3 SWAP2 POP POP JUMP JUMPDEST PUSH1 0x0 DUP2 MLOAD SWAP1 POP SWAP2 SWAP1 POP JUMP JUMPDEST PUSH1 0x0 DUP3 DUP3 MSTORE PUSH1 0x20 DUP3 ADD SWAP1 POP SWAP3 SWAP2 POP POP JUMP JUMPDEST PUSH1 0x0 JUMPDEST DUP4 DUP2 LT ISZERO PUSH2 0x17F JUMPI DUP1 DUP3 ADD MLOAD DUP2 DUP5 ADD MSTORE PUSH1 0x20 DUP2 ADD SWAP1 POP PUSH2 0x164 JUMP JUMPDEST PUSH1 0x0 DUP5 DUP5 ADD MSTORE POP POP POP POP JUMP JUMPDEST PUSH1 0x0 PUSH1 0x1F NOT PUSH1 0x1F DUP4 ADD AND SWAP1 POP SWAP2 SWAP1 POP JUMP JUMPDEST PUSH1 0x0 PUSH2 0x1A7 DUP3 PUSH2 0x145 JUMP JUMPDEST PUSH2 0x1B1 DUP2 DUP6 PUSH2 0x150 JUMP JUMPDEST SWAP4 POP PUSH2 0x1C1 DUP2 DUP6 PUSH1 0x20 DUP7 ADD PUSH2 0x161 JUMP JUMPDEST PUSH2 0x1CA DUP2 PUSH2 0x18B JUMP JUMPDEST DUP5 ADD SWAP2 POP POP SWAP3 SWAP2 POP POP JUMP JUMPDEST PUSH1 0x0 PUSH1 0x20 DUP3 ADD SWAP1 POP DUP2 DUP2 SUB PUSH1 0x0 DUP4 ADD MSTORE PUSH2 0x1EF DUP2 DUP5 PUSH2 0x19C JUMP JUMPDEST SWAP1 POP SWAP3 SWAP2 POP POP JUMP JUMPDEST PUSH32 0x72696768742061726D2069732000000000000000000000000000000000000000 DUP2 MSTORE POP JUMP JUMPDEST PUSH1 0x0 DUP2 SWAP1 POP SWAP3 SWAP2 POP POP JUMP JUMPDEST PUSH1 0x0 PUSH2 0x233 DUP3 PUSH2 0x145 JUMP JUMPDEST PUSH2 0x23D DUP2 DUP6 PUSH2 0x21D JUMP JUMPDEST SWAP4 POP PUSH2 0x24D DUP2 DUP6 PUSH1 0x20 DUP7 ADD PUSH2 0x161 JUMP JUMPDEST DUP1 DUP5 ADD SWAP2 POP POP SWAP3 SWAP2 POP POP JUMP JUMPDEST PUSH1 0x0 PUSH2 0x264 DUP3 PUSH2 0x1F7 JUMP JUMPDEST PUSH1 0xD DUP3 ADD SWAP2 POP PUSH2 0x274 DUP3 DUP5 PUSH2 0x228 JUMP JUMPDEST SWAP2 POP DUP2 SWAP1 POP SWAP3 SWAP2 POP POP JUMP INVALID LOG2 PUSH5 0x6970667358 0x22 SLT KECCAK256 0xB1 0xA9 PUSH23 0x995AF53AC31AAB089A230C6AE7A40DE9F1E6883D254D84 SWAP10 LOG3 0xEE PUSH23 0xE2EE64736F6C6343000811003300000000000000000000 "
				},
				"gasEstimates": {
					"creation": {
						"codeDepositCost": "138600",
						"executionCost": "22289",
						"totalCost": "160889"
					},
					"external": {
						"age()": "2407",
						"bend()": "infinite",
						"raise()": "infinite"
					}
				},
				"methodIdentifiers": {
					"age()": "262a9dff",
					"bend()": "5c8629cd",
					"raise()": "b361e198"
				}
			},
			"storageLayout": {
				"storage": [
					{
						"astId": 4,
						"contract": "bootcamp/week2/day_3_inheritence.sol:rightArm",
						"label": "age",
						"offset": 0,
						"slot": "0",
						"type": "t_uint256"
					}
				],
				"types": {
					"t_uint256": {
						"encoding": "inplace",
						"label": "uint256",
						"numberOfBytes": "32"
					}
				}
			},
			"userdoc": {
				"kind": "user",
				"methods": {},
				"version": 1
			}
		}
	}
}