{
	"bootcamp/week9/day_4_coinflip.sol": {
		"attackCoinFlip": {
			"abi": [
				{
					"inputs": [
						{
							"internalType": "address",
							"name": "_address",
							"type": "address"
						}
					],
					"stateMutability": "nonpayable",
					"type": "constructor"
				},
				{
					"inputs": [],
					"name": "coinflipConotract",
					"outputs": [
						{
							"internalType": "contract headsOrTails",
							"name": "",
							"type": "address"
						}
					],
					"stateMutability": "view",
					"type": "function"
				},
				{
					"inputs": [],
					"name": "tryToWin",
					"outputs": [],
					"stateMutability": "nonpayable",
					"type": "function"
				}
			],
			"devdoc": {
				"kind": "dev",
				"methods": {},
				"version": 1
			},
			"evm": {
				"assembly": "    /* \"bootcamp/week9/day_4_coinflip.sol\":2256:3626  contract attackCoinFlip {... */\n  mstore(0x40, 0x80)\n    /* \"bootcamp/week9/day_4_coinflip.sol\":2540:2585  290837429384723984798723498723245234234234234 */\n  0x0d0aa6635c109760f7192500f883bf246e957a\n    /* \"bootcamp/week9/day_4_coinflip.sol\":2520:2585  uint private seed = 290837429384723984798723498723245234234234234 */\n  0x01\n  sstore\n    /* \"bootcamp/week9/day_4_coinflip.sol\":2641:2730  constructor(address _address) {... */\n  callvalue\n  dup1\n  iszero\n  tag_1\n  jumpi\n  0x00\n  dup1\n  revert\ntag_1:\n  pop\n  mload(0x40)\n  sub(codesize, bytecodeSize)\n  dup1\n  bytecodeSize\n  dup4\n  codecopy\n  dup2\n  dup2\n  add\n  0x40\n  mstore\n  dup2\n  add\n  swap1\n  tag_2\n  swap2\n  swap1\n  tag_3\n  jump\t// in\ntag_2:\n    /* \"bootcamp/week9/day_4_coinflip.sol\":2714:2722  _address */\n  dup1\n    /* \"bootcamp/week9/day_4_coinflip.sol\":2681:2698  coinflipConotract */\n  0x00\n  dup1\n    /* \"bootcamp/week9/day_4_coinflip.sol\":2681:2723  coinflipConotract = headsOrTails(_address) */\n  0x0100\n  exp\n  dup2\n  sload\n  dup2\n  0xffffffffffffffffffffffffffffffffffffffff\n  mul\n  not\n  and\n  swap1\n  dup4\n  0xffffffffffffffffffffffffffffffffffffffff\n  and\n  mul\n  or\n  swap1\n  sstore\n  pop\n    /* \"bootcamp/week9/day_4_coinflip.sol\":2641:2730  constructor(address _address) {... */\n  pop\n    /* \"bootcamp/week9/day_4_coinflip.sol\":2256:3626  contract attackCoinFlip {... */\n  jump(tag_6)\n    /* \"#utility.yul\":88:205   */\ntag_8:\n    /* \"#utility.yul\":197:198   */\n  0x00\n    /* \"#utility.yul\":194:195   */\n  dup1\n    /* \"#utility.yul\":187:199   */\n  revert\n    /* \"#utility.yul\":334:460   */\ntag_10:\n    /* \"#utility.yul\":371:378   */\n  0x00\n    /* \"#utility.yul\":411:453   */\n  0xffffffffffffffffffffffffffffffffffffffff\n    /* \"#utility.yul\":404:409   */\n  dup3\n    /* \"#utility.yul\":400:454   */\n  and\n    /* \"#utility.yul\":389:454   */\n  swap1\n  pop\n    /* \"#utility.yul\":334:460   */\n  swap2\n  swap1\n  pop\n  jump\t// out\n    /* \"#utility.yul\":466:562   */\ntag_11:\n    /* \"#utility.yul\":503:510   */\n  0x00\n    /* \"#utility.yul\":532:556   */\n  tag_20\n    /* \"#utility.yul\":550:555   */\n  dup3\n    /* \"#utility.yul\":532:556   */\n  tag_10\n  jump\t// in\ntag_20:\n    /* \"#utility.yul\":521:556   */\n  swap1\n  pop\n    /* \"#utility.yul\":466:562   */\n  swap2\n  swap1\n  pop\n  jump\t// out\n    /* \"#utility.yul\":568:690   */\ntag_12:\n    /* \"#utility.yul\":641:665   */\n  tag_22\n    /* \"#utility.yul\":659:664   */\n  dup2\n    /* \"#utility.yul\":641:665   */\n  tag_11\n  jump\t// in\ntag_22:\n    /* \"#utility.yul\":634:639   */\n  dup2\n    /* \"#utility.yul\":631:666   */\n  eq\n    /* \"#utility.yul\":621:684   */\n  tag_23\n  jumpi\n    /* \"#utility.yul\":680:681   */\n  0x00\n    /* \"#utility.yul\":677:678   */\n  dup1\n    /* \"#utility.yul\":670:682   */\n  revert\n    /* \"#utility.yul\":621:684   */\ntag_23:\n    /* \"#utility.yul\":568:690   */\n  pop\n  jump\t// out\n    /* \"#utility.yul\":696:839   */\ntag_13:\n    /* \"#utility.yul\":753:758   */\n  0x00\n    /* \"#utility.yul\":784:790   */\n  dup2\n    /* \"#utility.yul\":778:791   */\n  mload\n    /* \"#utility.yul\":769:791   */\n  swap1\n  pop\n    /* \"#utility.yul\":800:833   */\n  tag_25\n    /* \"#utility.yul\":827:832   */\n  dup2\n    /* \"#utility.yul\":800:833   */\n  tag_12\n  jump\t// in\ntag_25:\n    /* \"#utility.yul\":696:839   */\n  swap3\n  swap2\n  pop\n  pop\n  jump\t// out\n    /* \"#utility.yul\":845:1196   */\ntag_3:\n    /* \"#utility.yul\":915:921   */\n  0x00\n    /* \"#utility.yul\":964:966   */\n  0x20\n    /* \"#utility.yul\":952:961   */\n  dup3\n    /* \"#utility.yul\":943:950   */\n  dup5\n    /* \"#utility.yul\":939:962   */\n  sub\n    /* \"#utility.yul\":935:967   */\n  slt\n    /* \"#utility.yul\":932:1051   */\n  iszero\n  tag_27\n  jumpi\n    /* \"#utility.yul\":970:1049   */\n  tag_28\n  tag_8\n  jump\t// in\ntag_28:\n    /* \"#utility.yul\":932:1051   */\ntag_27:\n    /* \"#utility.yul\":1090:1091   */\n  0x00\n    /* \"#utility.yul\":1115:1179   */\n  tag_29\n    /* \"#utility.yul\":1171:1178   */\n  dup5\n    /* \"#utility.yul\":1162:1168   */\n  dup3\n    /* \"#utility.yul\":1151:1160   */\n  dup6\n    /* \"#utility.yul\":1147:1169   */\n  add\n    /* \"#utility.yul\":1115:1179   */\n  tag_13\n  jump\t// in\ntag_29:\n    /* \"#utility.yul\":1105:1179   */\n  swap2\n  pop\n    /* \"#utility.yul\":1061:1189   */\n  pop\n    /* \"#utility.yul\":845:1196   */\n  swap3\n  swap2\n  pop\n  pop\n  jump\t// out\n    /* \"bootcamp/week9/day_4_coinflip.sol\":2256:3626  contract attackCoinFlip {... */\ntag_6:\n  dataSize(sub_0)\n  dup1\n  dataOffset(sub_0)\n  0x00\n  codecopy\n  0x00\n  return\nstop\n\nsub_0: assembly {\n        /* \"bootcamp/week9/day_4_coinflip.sol\":2256:3626  contract attackCoinFlip {... */\n      mstore(0x40, 0x80)\n      callvalue\n      dup1\n      iszero\n      tag_1\n      jumpi\n      0x00\n      dup1\n      revert\n    tag_1:\n      pop\n      jumpi(tag_2, lt(calldatasize, 0x04))\n      shr(0xe0, calldataload(0x00))\n      dup1\n      0x66f2b39c\n      eq\n      tag_3\n      jumpi\n      dup1\n      0x80c4237f\n      eq\n      tag_4\n      jumpi\n    tag_2:\n      0x00\n      dup1\n      revert\n        /* \"bootcamp/week9/day_4_coinflip.sol\":2371:2408  headsOrTails public coinflipConotract */\n    tag_3:\n      tag_5\n      tag_6\n      jump\t// in\n    tag_5:\n      mload(0x40)\n      tag_7\n      swap2\n      swap1\n      tag_8\n      jump\t// in\n    tag_7:\n      mload(0x40)\n      dup1\n      swap2\n      sub\n      swap1\n      return\n        /* \"bootcamp/week9/day_4_coinflip.sol\":2736:3623  function tryToWin() public {... */\n    tag_4:\n      tag_9\n      tag_10\n      jump\t// in\n    tag_9:\n      stop\n        /* \"bootcamp/week9/day_4_coinflip.sol\":2371:2408  headsOrTails public coinflipConotract */\n    tag_6:\n      0x00\n      dup1\n      sload\n      swap1\n      0x0100\n      exp\n      swap1\n      div\n      0xffffffffffffffffffffffffffffffffffffffff\n      and\n      dup2\n      jump\t// out\n        /* \"bootcamp/week9/day_4_coinflip.sol\":2736:3623  function tryToWin() public {... */\n    tag_10:\n        /* \"bootcamp/week9/day_4_coinflip.sol\":2815:2831  uint blockNumber */\n      0x00\n        /* \"bootcamp/week9/day_4_coinflip.sol\":2849:2850  1 */\n      0x01\n        /* \"bootcamp/week9/day_4_coinflip.sol\":2834:2846  block.number */\n      number\n        /* \"bootcamp/week9/day_4_coinflip.sol\":2834:2850  block.number - 1 */\n      tag_12\n      swap2\n      swap1\n      tag_13\n      jump\t// in\n    tag_12:\n        /* \"bootcamp/week9/day_4_coinflip.sol\":2815:2850  uint blockNumber = block.number - 1 */\n      swap1\n      pop\n        /* \"bootcamp/week9/day_4_coinflip.sol\":2900:2912  bytes32 hash */\n      0x00\n        /* \"bootcamp/week9/day_4_coinflip.sol\":2925:2936  blockNumber */\n      dup2\n        /* \"bootcamp/week9/day_4_coinflip.sol\":2915:2937  blockhash(blockNumber) */\n      blockhash\n        /* \"bootcamp/week9/day_4_coinflip.sol\":2900:2937  bytes32 hash = blockhash(blockNumber) */\n      swap1\n      pop\n        /* \"bootcamp/week9/day_4_coinflip.sol\":2993:3014  uint semiRandomNumber */\n      0x00\n        /* \"bootcamp/week9/day_4_coinflip.sol\":3022:3026  hash */\n      dup2\n        /* \"bootcamp/week9/day_4_coinflip.sol\":3017:3027  uint(hash) */\n      0x00\n      shr\n        /* \"bootcamp/week9/day_4_coinflip.sol\":2993:3027  uint semiRandomNumber = uint(hash) */\n      swap1\n      pop\n        /* \"bootcamp/week9/day_4_coinflip.sol\":3259:3260  0 */\n      0x00\n        /* \"bootcamp/week9/day_4_coinflip.sol\":3254:3255  2 */\n      0x02\n        /* \"bootcamp/week9/day_4_coinflip.sol\":3247:3251  seed */\n      sload(0x01)\n        /* \"bootcamp/week9/day_4_coinflip.sol\":3228:3244  semiRandomNumber */\n      dup4\n        /* \"bootcamp/week9/day_4_coinflip.sol\":3228:3251  semiRandomNumber / seed */\n      tag_14\n      swap2\n      swap1\n      tag_15\n      jump\t// in\n    tag_14:\n        /* \"bootcamp/week9/day_4_coinflip.sol\":3228:3255  semiRandomNumber / seed % 2 */\n      tag_16\n      swap2\n      swap1\n      tag_17\n      jump\t// in\n    tag_16:\n        /* \"bootcamp/week9/day_4_coinflip.sol\":3228:3260  semiRandomNumber / seed % 2 != 0 */\n      eq\n        /* \"bootcamp/week9/day_4_coinflip.sol\":3225:3617  if(semiRandomNumber / seed % 2 != 0) {... */\n      tag_18\n      jumpi\n        /* \"bootcamp/week9/day_4_coinflip.sol\":3397:3414  coinflipConotract */\n      0x00\n      dup1\n      sload\n      swap1\n      0x0100\n      exp\n      swap1\n      div\n      0xffffffffffffffffffffffffffffffffffffffff\n      and\n        /* \"bootcamp/week9/day_4_coinflip.sol\":3397:3419  coinflipConotract.flip */\n      0xffffffffffffffffffffffffffffffffffffffff\n      and\n      0x1d263f67\n        /* \"bootcamp/week9/day_4_coinflip.sol\":3420:3424  true */\n      0x01\n        /* \"bootcamp/week9/day_4_coinflip.sol\":3397:3425  coinflipConotract.flip(true) */\n      mload(0x40)\n      dup3\n      0xffffffff\n      and\n      0xe0\n      shl\n      dup2\n      mstore\n      0x04\n      add\n      tag_19\n      swap2\n      swap1\n      tag_20\n      jump\t// in\n    tag_19:\n      0x20\n      mload(0x40)\n      dup1\n      dup4\n      sub\n      dup2\n      0x00\n      dup8\n      gas\n      call\n      iszero\n      dup1\n      iszero\n      tag_22\n      jumpi\n      returndatasize\n      0x00\n      dup1\n      returndatacopy\n      revert(0x00, returndatasize)\n    tag_22:\n      pop\n      pop\n      pop\n      pop\n      mload(0x40)\n      returndatasize\n      not(0x1f)\n      0x1f\n      dup3\n      add\n      and\n      dup3\n      add\n      dup1\n      0x40\n      mstore\n      pop\n      dup2\n      add\n      swap1\n      tag_23\n      swap2\n      swap1\n      tag_24\n      jump\t// in\n    tag_23:\n      pop\n        /* \"bootcamp/week9/day_4_coinflip.sol\":3225:3617  if(semiRandomNumber / seed % 2 != 0) {... */\n      jump(tag_25)\n    tag_18:\n        /* \"bootcamp/week9/day_4_coinflip.sol\":3577:3594  coinflipConotract */\n      0x00\n      dup1\n      sload\n      swap1\n      0x0100\n      exp\n      swap1\n      div\n      0xffffffffffffffffffffffffffffffffffffffff\n      and\n        /* \"bootcamp/week9/day_4_coinflip.sol\":3577:3599  coinflipConotract.flip */\n      0xffffffffffffffffffffffffffffffffffffffff\n      and\n      0x1d263f67\n        /* \"bootcamp/week9/day_4_coinflip.sol\":3600:3605  false */\n      0x00\n        /* \"bootcamp/week9/day_4_coinflip.sol\":3577:3606  coinflipConotract.flip(false) */\n      mload(0x40)\n      dup3\n      0xffffffff\n      and\n      0xe0\n      shl\n      dup2\n      mstore\n      0x04\n      add\n      tag_26\n      swap2\n      swap1\n      tag_20\n      jump\t// in\n    tag_26:\n      0x20\n      mload(0x40)\n      dup1\n      dup4\n      sub\n      dup2\n      0x00\n      dup8\n      gas\n      call\n      iszero\n      dup1\n      iszero\n      tag_28\n      jumpi\n      returndatasize\n      0x00\n      dup1\n      returndatacopy\n      revert(0x00, returndatasize)\n    tag_28:\n      pop\n      pop\n      pop\n      pop\n      mload(0x40)\n      returndatasize\n      not(0x1f)\n      0x1f\n      dup3\n      add\n      and\n      dup3\n      add\n      dup1\n      0x40\n      mstore\n      pop\n      dup2\n      add\n      swap1\n      tag_29\n      swap2\n      swap1\n      tag_24\n      jump\t// in\n    tag_29:\n      pop\n        /* \"bootcamp/week9/day_4_coinflip.sol\":3225:3617  if(semiRandomNumber / seed % 2 != 0) {... */\n    tag_25:\n        /* \"bootcamp/week9/day_4_coinflip.sol\":2763:3623  {... */\n      pop\n      pop\n      pop\n        /* \"bootcamp/week9/day_4_coinflip.sol\":2736:3623  function tryToWin() public {... */\n      jump\t// out\n        /* \"#utility.yul\":7:133   */\n    tag_30:\n        /* \"#utility.yul\":44:51   */\n      0x00\n        /* \"#utility.yul\":84:126   */\n      0xffffffffffffffffffffffffffffffffffffffff\n        /* \"#utility.yul\":77:82   */\n      dup3\n        /* \"#utility.yul\":73:127   */\n      and\n        /* \"#utility.yul\":62:127   */\n      swap1\n      pop\n        /* \"#utility.yul\":7:133   */\n      swap2\n      swap1\n      pop\n      jump\t// out\n        /* \"#utility.yul\":139:199   */\n    tag_31:\n        /* \"#utility.yul\":167:170   */\n      0x00\n        /* \"#utility.yul\":188:193   */\n      dup2\n        /* \"#utility.yul\":181:193   */\n      swap1\n      pop\n        /* \"#utility.yul\":139:199   */\n      swap2\n      swap1\n      pop\n      jump\t// out\n        /* \"#utility.yul\":205:347   */\n    tag_32:\n        /* \"#utility.yul\":255:264   */\n      0x00\n        /* \"#utility.yul\":288:341   */\n      tag_50\n        /* \"#utility.yul\":306:340   */\n      tag_51\n        /* \"#utility.yul\":315:339   */\n      tag_52\n        /* \"#utility.yul\":333:338   */\n      dup5\n        /* \"#utility.yul\":315:339   */\n      tag_30\n      jump\t// in\n    tag_52:\n        /* \"#utility.yul\":306:340   */\n      tag_31\n      jump\t// in\n    tag_51:\n        /* \"#utility.yul\":288:341   */\n      tag_30\n      jump\t// in\n    tag_50:\n        /* \"#utility.yul\":275:341   */\n      swap1\n      pop\n        /* \"#utility.yul\":205:347   */\n      swap2\n      swap1\n      pop\n      jump\t// out\n        /* \"#utility.yul\":353:479   */\n    tag_33:\n        /* \"#utility.yul\":403:412   */\n      0x00\n        /* \"#utility.yul\":436:473   */\n      tag_54\n        /* \"#utility.yul\":467:472   */\n      dup3\n        /* \"#utility.yul\":436:473   */\n      tag_32\n      jump\t// in\n    tag_54:\n        /* \"#utility.yul\":423:473   */\n      swap1\n      pop\n        /* \"#utility.yul\":353:479   */\n      swap2\n      swap1\n      pop\n      jump\t// out\n        /* \"#utility.yul\":485:631   */\n    tag_34:\n        /* \"#utility.yul\":555:564   */\n      0x00\n        /* \"#utility.yul\":588:625   */\n      tag_56\n        /* \"#utility.yul\":619:624   */\n      dup3\n        /* \"#utility.yul\":588:625   */\n      tag_33\n      jump\t// in\n    tag_56:\n        /* \"#utility.yul\":575:625   */\n      swap1\n      pop\n        /* \"#utility.yul\":485:631   */\n      swap2\n      swap1\n      pop\n      jump\t// out\n        /* \"#utility.yul\":637:808   */\n    tag_35:\n        /* \"#utility.yul\":744:801   */\n      tag_58\n        /* \"#utility.yul\":795:800   */\n      dup2\n        /* \"#utility.yul\":744:801   */\n      tag_34\n      jump\t// in\n    tag_58:\n        /* \"#utility.yul\":739:742   */\n      dup3\n        /* \"#utility.yul\":732:802   */\n      mstore\n        /* \"#utility.yul\":637:808   */\n      pop\n      pop\n      jump\t// out\n        /* \"#utility.yul\":814:1076   */\n    tag_8:\n        /* \"#utility.yul\":927:931   */\n      0x00\n        /* \"#utility.yul\":965:967   */\n      0x20\n        /* \"#utility.yul\":954:963   */\n      dup3\n        /* \"#utility.yul\":950:968   */\n      add\n        /* \"#utility.yul\":942:968   */\n      swap1\n      pop\n        /* \"#utility.yul\":978:1069   */\n      tag_60\n        /* \"#utility.yul\":1066:1067   */\n      0x00\n        /* \"#utility.yul\":1055:1064   */\n      dup4\n        /* \"#utility.yul\":1051:1068   */\n      add\n        /* \"#utility.yul\":1042:1048   */\n      dup5\n        /* \"#utility.yul\":978:1069   */\n      tag_35\n      jump\t// in\n    tag_60:\n        /* \"#utility.yul\":814:1076   */\n      swap3\n      swap2\n      pop\n      pop\n      jump\t// out\n        /* \"#utility.yul\":1082:1159   */\n    tag_36:\n        /* \"#utility.yul\":1119:1126   */\n      0x00\n        /* \"#utility.yul\":1148:1153   */\n      dup2\n        /* \"#utility.yul\":1137:1153   */\n      swap1\n      pop\n        /* \"#utility.yul\":1082:1159   */\n      swap2\n      swap1\n      pop\n      jump\t// out\n        /* \"#utility.yul\":1165:1345   */\n    tag_37:\n        /* \"#utility.yul\":1213:1290   */\n      0x4e487b7100000000000000000000000000000000000000000000000000000000\n        /* \"#utility.yul\":1210:1211   */\n      0x00\n        /* \"#utility.yul\":1203:1291   */\n      mstore\n        /* \"#utility.yul\":1310:1314   */\n      0x11\n        /* \"#utility.yul\":1307:1308   */\n      0x04\n        /* \"#utility.yul\":1300:1315   */\n      mstore\n        /* \"#utility.yul\":1334:1338   */\n      0x24\n        /* \"#utility.yul\":1331:1332   */\n      0x00\n        /* \"#utility.yul\":1324:1339   */\n      revert\n        /* \"#utility.yul\":1351:1545   */\n    tag_13:\n        /* \"#utility.yul\":1391:1395   */\n      0x00\n        /* \"#utility.yul\":1411:1431   */\n      tag_64\n        /* \"#utility.yul\":1429:1430   */\n      dup3\n        /* \"#utility.yul\":1411:1431   */\n      tag_36\n      jump\t// in\n    tag_64:\n        /* \"#utility.yul\":1406:1431   */\n      swap2\n      pop\n        /* \"#utility.yul\":1445:1465   */\n      tag_65\n        /* \"#utility.yul\":1463:1464   */\n      dup4\n        /* \"#utility.yul\":1445:1465   */\n      tag_36\n      jump\t// in\n    tag_65:\n        /* \"#utility.yul\":1440:1465   */\n      swap3\n      pop\n        /* \"#utility.yul\":1489:1490   */\n      dup3\n        /* \"#utility.yul\":1486:1487   */\n      dup3\n        /* \"#utility.yul\":1482:1491   */\n      sub\n        /* \"#utility.yul\":1474:1491   */\n      swap1\n      pop\n        /* \"#utility.yul\":1513:1514   */\n      dup2\n        /* \"#utility.yul\":1507:1511   */\n      dup2\n        /* \"#utility.yul\":1504:1515   */\n      gt\n        /* \"#utility.yul\":1501:1538   */\n      iszero\n      tag_66\n      jumpi\n        /* \"#utility.yul\":1518:1536   */\n      tag_67\n      tag_37\n      jump\t// in\n    tag_67:\n        /* \"#utility.yul\":1501:1538   */\n    tag_66:\n        /* \"#utility.yul\":1351:1545   */\n      swap3\n      swap2\n      pop\n      pop\n      jump\t// out\n        /* \"#utility.yul\":1551:1731   */\n    tag_38:\n        /* \"#utility.yul\":1599:1676   */\n      0x4e487b7100000000000000000000000000000000000000000000000000000000\n        /* \"#utility.yul\":1596:1597   */\n      0x00\n        /* \"#utility.yul\":1589:1677   */\n      mstore\n        /* \"#utility.yul\":1696:1700   */\n      0x12\n        /* \"#utility.yul\":1693:1694   */\n      0x04\n        /* \"#utility.yul\":1686:1701   */\n      mstore\n        /* \"#utility.yul\":1720:1724   */\n      0x24\n        /* \"#utility.yul\":1717:1718   */\n      0x00\n        /* \"#utility.yul\":1710:1725   */\n      revert\n        /* \"#utility.yul\":1737:1922   */\n    tag_15:\n        /* \"#utility.yul\":1777:1778   */\n      0x00\n        /* \"#utility.yul\":1794:1814   */\n      tag_70\n        /* \"#utility.yul\":1812:1813   */\n      dup3\n        /* \"#utility.yul\":1794:1814   */\n      tag_36\n      jump\t// in\n    tag_70:\n        /* \"#utility.yul\":1789:1814   */\n      swap2\n      pop\n        /* \"#utility.yul\":1828:1848   */\n      tag_71\n        /* \"#utility.yul\":1846:1847   */\n      dup4\n        /* \"#utility.yul\":1828:1848   */\n      tag_36\n      jump\t// in\n    tag_71:\n        /* \"#utility.yul\":1823:1848   */\n      swap3\n      pop\n        /* \"#utility.yul\":1867:1868   */\n      dup3\n        /* \"#utility.yul\":1857:1892   */\n      tag_72\n      jumpi\n        /* \"#utility.yul\":1872:1890   */\n      tag_73\n      tag_38\n      jump\t// in\n    tag_73:\n        /* \"#utility.yul\":1857:1892   */\n    tag_72:\n        /* \"#utility.yul\":1914:1915   */\n      dup3\n        /* \"#utility.yul\":1911:1912   */\n      dup3\n        /* \"#utility.yul\":1907:1916   */\n      div\n        /* \"#utility.yul\":1902:1916   */\n      swap1\n      pop\n        /* \"#utility.yul\":1737:1922   */\n      swap3\n      swap2\n      pop\n      pop\n      jump\t// out\n        /* \"#utility.yul\":1928:2104   */\n    tag_17:\n        /* \"#utility.yul\":1960:1961   */\n      0x00\n        /* \"#utility.yul\":1977:1997   */\n      tag_75\n        /* \"#utility.yul\":1995:1996   */\n      dup3\n        /* \"#utility.yul\":1977:1997   */\n      tag_36\n      jump\t// in\n    tag_75:\n        /* \"#utility.yul\":1972:1997   */\n      swap2\n      pop\n        /* \"#utility.yul\":2011:2031   */\n      tag_76\n        /* \"#utility.yul\":2029:2030   */\n      dup4\n        /* \"#utility.yul\":2011:2031   */\n      tag_36\n      jump\t// in\n    tag_76:\n        /* \"#utility.yul\":2006:2031   */\n      swap3\n      pop\n        /* \"#utility.yul\":2050:2051   */\n      dup3\n        /* \"#utility.yul\":2040:2075   */\n      tag_77\n      jumpi\n        /* \"#utility.yul\":2055:2073   */\n      tag_78\n      tag_38\n      jump\t// in\n    tag_78:\n        /* \"#utility.yul\":2040:2075   */\n    tag_77:\n        /* \"#utility.yul\":2096:2097   */\n      dup3\n        /* \"#utility.yul\":2093:2094   */\n      dup3\n        /* \"#utility.yul\":2089:2098   */\n      mod\n        /* \"#utility.yul\":2084:2098   */\n      swap1\n      pop\n        /* \"#utility.yul\":1928:2104   */\n      swap3\n      swap2\n      pop\n      pop\n      jump\t// out\n        /* \"#utility.yul\":2110:2200   */\n    tag_39:\n        /* \"#utility.yul\":2144:2151   */\n      0x00\n        /* \"#utility.yul\":2187:2192   */\n      dup2\n        /* \"#utility.yul\":2180:2193   */\n      iszero\n        /* \"#utility.yul\":2173:2194   */\n      iszero\n        /* \"#utility.yul\":2162:2194   */\n      swap1\n      pop\n        /* \"#utility.yul\":2110:2200   */\n      swap2\n      swap1\n      pop\n      jump\t// out\n        /* \"#utility.yul\":2206:2315   */\n    tag_40:\n        /* \"#utility.yul\":2287:2308   */\n      tag_81\n        /* \"#utility.yul\":2302:2307   */\n      dup2\n        /* \"#utility.yul\":2287:2308   */\n      tag_39\n      jump\t// in\n    tag_81:\n        /* \"#utility.yul\":2282:2285   */\n      dup3\n        /* \"#utility.yul\":2275:2309   */\n      mstore\n        /* \"#utility.yul\":2206:2315   */\n      pop\n      pop\n      jump\t// out\n        /* \"#utility.yul\":2321:2531   */\n    tag_20:\n        /* \"#utility.yul\":2408:2412   */\n      0x00\n        /* \"#utility.yul\":2446:2448   */\n      0x20\n        /* \"#utility.yul\":2435:2444   */\n      dup3\n        /* \"#utility.yul\":2431:2449   */\n      add\n        /* \"#utility.yul\":2423:2449   */\n      swap1\n      pop\n        /* \"#utility.yul\":2459:2524   */\n      tag_83\n        /* \"#utility.yul\":2521:2522   */\n      0x00\n        /* \"#utility.yul\":2510:2519   */\n      dup4\n        /* \"#utility.yul\":2506:2523   */\n      add\n        /* \"#utility.yul\":2497:2503   */\n      dup5\n        /* \"#utility.yul\":2459:2524   */\n      tag_40\n      jump\t// in\n    tag_83:\n        /* \"#utility.yul\":2321:2531   */\n      swap3\n      swap2\n      pop\n      pop\n      jump\t// out\n        /* \"#utility.yul\":2618:2735   */\n    tag_42:\n        /* \"#utility.yul\":2727:2728   */\n      0x00\n        /* \"#utility.yul\":2724:2725   */\n      dup1\n        /* \"#utility.yul\":2717:2729   */\n      revert\n        /* \"#utility.yul\":2864:2980   */\n    tag_44:\n        /* \"#utility.yul\":2934:2955   */\n      tag_88\n        /* \"#utility.yul\":2949:2954   */\n      dup2\n        /* \"#utility.yul\":2934:2955   */\n      tag_39\n      jump\t// in\n    tag_88:\n        /* \"#utility.yul\":2927:2932   */\n      dup2\n        /* \"#utility.yul\":2924:2956   */\n      eq\n        /* \"#utility.yul\":2914:2974   */\n      tag_89\n      jumpi\n        /* \"#utility.yul\":2970:2971   */\n      0x00\n        /* \"#utility.yul\":2967:2968   */\n      dup1\n        /* \"#utility.yul\":2960:2972   */\n      revert\n        /* \"#utility.yul\":2914:2974   */\n    tag_89:\n        /* \"#utility.yul\":2864:2980   */\n      pop\n      jump\t// out\n        /* \"#utility.yul\":2986:3123   */\n    tag_45:\n        /* \"#utility.yul\":3040:3045   */\n      0x00\n        /* \"#utility.yul\":3071:3077   */\n      dup2\n        /* \"#utility.yul\":3065:3078   */\n      mload\n        /* \"#utility.yul\":3056:3078   */\n      swap1\n      pop\n        /* \"#utility.yul\":3087:3117   */\n      tag_91\n        /* \"#utility.yul\":3111:3116   */\n      dup2\n        /* \"#utility.yul\":3087:3117   */\n      tag_44\n      jump\t// in\n    tag_91:\n        /* \"#utility.yul\":2986:3123   */\n      swap3\n      swap2\n      pop\n      pop\n      jump\t// out\n        /* \"#utility.yul\":3129:3474   */\n    tag_24:\n        /* \"#utility.yul\":3196:3202   */\n      0x00\n        /* \"#utility.yul\":3245:3247   */\n      0x20\n        /* \"#utility.yul\":3233:3242   */\n      dup3\n        /* \"#utility.yul\":3224:3231   */\n      dup5\n        /* \"#utility.yul\":3220:3243   */\n      sub\n        /* \"#utility.yul\":3216:3248   */\n      slt\n        /* \"#utility.yul\":3213:3332   */\n      iszero\n      tag_93\n      jumpi\n        /* \"#utility.yul\":3251:3330   */\n      tag_94\n      tag_42\n      jump\t// in\n    tag_94:\n        /* \"#utility.yul\":3213:3332   */\n    tag_93:\n        /* \"#utility.yul\":3371:3372   */\n      0x00\n        /* \"#utility.yul\":3396:3457   */\n      tag_95\n        /* \"#utility.yul\":3449:3456   */\n      dup5\n        /* \"#utility.yul\":3440:3446   */\n      dup3\n        /* \"#utility.yul\":3429:3438   */\n      dup6\n        /* \"#utility.yul\":3425:3447   */\n      add\n        /* \"#utility.yul\":3396:3457   */\n      tag_45\n      jump\t// in\n    tag_95:\n        /* \"#utility.yul\":3386:3457   */\n      swap2\n      pop\n        /* \"#utility.yul\":3342:3467   */\n      pop\n        /* \"#utility.yul\":3129:3474   */\n      swap3\n      swap2\n      pop\n      pop\n      jump\t// out\n\n    auxdata: 0xa264697066735822122037cf44038a3903448e644a247515a8a2c125d3e1da8db2fa06ed6c593b121fbc64736f6c63430008110033\n}\n",
				"bytecode": {
					"linkReferences": {},
					"object": "6080604052720d0aa6635c109760f7192500f883bf246e957a60015534801561002757600080fd5b5060405161059e38038061059e833981810160405281019061004991906100f2565b806000806101000a81548173ffffffffffffffffffffffffffffffffffffffff021916908373ffffffffffffffffffffffffffffffffffffffff1602179055505061011f565b600080fd5b600073ffffffffffffffffffffffffffffffffffffffff82169050919050565b60006100bf82610094565b9050919050565b6100cf816100b4565b81146100da57600080fd5b50565b6000815190506100ec816100c6565b92915050565b6000602082840312156101085761010761008f565b5b6000610116848285016100dd565b91505092915050565b6104708061012e6000396000f3fe608060405234801561001057600080fd5b50600436106100365760003560e01c806366f2b39c1461003b57806380c4237f14610059575b600080fd5b610043610063565b604051610050919061028d565b60405180910390f35b610061610087565b005b60008054906101000a900473ffffffffffffffffffffffffffffffffffffffff1681565b600060014361009691906102e1565b905060008140905060008160001c905060006002600154836100b89190610344565b6100c29190610375565b1461016a5760008054906101000a900473ffffffffffffffffffffffffffffffffffffffff1673ffffffffffffffffffffffffffffffffffffffff16631d263f6760016040518263ffffffff1660e01b815260040161012191906103c1565b6020604051808303816000875af1158015610140573d6000803e3d6000fd5b505050506040513d601f19601f82011682018060405250810190610164919061040d565b50610209565b60008054906101000a900473ffffffffffffffffffffffffffffffffffffffff1673ffffffffffffffffffffffffffffffffffffffff16631d263f6760006040518263ffffffff1660e01b81526004016101c491906103c1565b6020604051808303816000875af11580156101e3573d6000803e3d6000fd5b505050506040513d601f19601f82011682018060405250810190610207919061040d565b505b505050565b600073ffffffffffffffffffffffffffffffffffffffff82169050919050565b6000819050919050565b600061025361024e6102498461020e565b61022e565b61020e565b9050919050565b600061026582610238565b9050919050565b60006102778261025a565b9050919050565b6102878161026c565b82525050565b60006020820190506102a2600083018461027e565b92915050565b6000819050919050565b7f4e487b7100000000000000000000000000000000000000000000000000000000600052601160045260246000fd5b60006102ec826102a8565b91506102f7836102a8565b925082820390508181111561030f5761030e6102b2565b5b92915050565b7f4e487b7100000000000000000000000000000000000000000000000000000000600052601260045260246000fd5b600061034f826102a8565b915061035a836102a8565b92508261036a57610369610315565b5b828204905092915050565b6000610380826102a8565b915061038b836102a8565b92508261039b5761039a610315565b5b828206905092915050565b60008115159050919050565b6103bb816103a6565b82525050565b60006020820190506103d660008301846103b2565b92915050565b600080fd5b6103ea816103a6565b81146103f557600080fd5b50565b600081519050610407816103e1565b92915050565b600060208284031215610423576104226103dc565b5b6000610431848285016103f8565b9150509291505056fea264697066735822122037cf44038a3903448e644a247515a8a2c125d3e1da8db2fa06ed6c593b121fbc64736f6c63430008110033",
					"opcodes": "PUSH1 0x80 PUSH1 0x40 MSTORE PUSH19 0xD0AA6635C109760F7192500F883BF246E957A PUSH1 0x1 SSTORE CALLVALUE DUP1 ISZERO PUSH2 0x27 JUMPI PUSH1 0x0 DUP1 REVERT JUMPDEST POP PUSH1 0x40 MLOAD PUSH2 0x59E CODESIZE SUB DUP1 PUSH2 0x59E DUP4 CODECOPY DUP2 DUP2 ADD PUSH1 0x40 MSTORE DUP2 ADD SWAP1 PUSH2 0x49 SWAP2 SWAP1 PUSH2 0xF2 JUMP JUMPDEST DUP1 PUSH1 0x0 DUP1 PUSH2 0x100 EXP DUP2 SLOAD DUP2 PUSH20 0xFFFFFFFFFFFFFFFFFFFFFFFFFFFFFFFFFFFFFFFF MUL NOT AND SWAP1 DUP4 PUSH20 0xFFFFFFFFFFFFFFFFFFFFFFFFFFFFFFFFFFFFFFFF AND MUL OR SWAP1 SSTORE POP POP PUSH2 0x11F JUMP JUMPDEST PUSH1 0x0 DUP1 REVERT JUMPDEST PUSH1 0x0 PUSH20 0xFFFFFFFFFFFFFFFFFFFFFFFFFFFFFFFFFFFFFFFF DUP3 AND SWAP1 POP SWAP2 SWAP1 POP JUMP JUMPDEST PUSH1 0x0 PUSH2 0xBF DUP3 PUSH2 0x94 JUMP JUMPDEST SWAP1 POP SWAP2 SWAP1 POP JUMP JUMPDEST PUSH2 0xCF DUP2 PUSH2 0xB4 JUMP JUMPDEST DUP2 EQ PUSH2 0xDA JUMPI PUSH1 0x0 DUP1 REVERT JUMPDEST POP JUMP JUMPDEST PUSH1 0x0 DUP2 MLOAD SWAP1 POP PUSH2 0xEC DUP2 PUSH2 0xC6 JUMP JUMPDEST SWAP3 SWAP2 POP POP JUMP JUMPDEST PUSH1 0x0 PUSH1 0x20 DUP3 DUP5 SUB SLT ISZERO PUSH2 0x108 JUMPI PUSH2 0x107 PUSH2 0x8F JUMP JUMPDEST JUMPDEST PUSH1 0x0 PUSH2 0x116 DUP5 DUP3 DUP6 ADD PUSH2 0xDD JUMP JUMPDEST SWAP2 POP POP SWAP3 SWAP2 POP POP JUMP JUMPDEST PUSH2 0x470 DUP1 PUSH2 0x12E PUSH1 0x0 CODECOPY PUSH1 0x0 RETURN INVALID PUSH1 0x80 PUSH1 0x40 MSTORE CALLVALUE DUP1 ISZERO PUSH2 0x10 JUMPI PUSH1 0x0 DUP1 REVERT JUMPDEST POP PUSH1 0x4 CALLDATASIZE LT PUSH2 0x36 JUMPI PUSH1 0x0 CALLDATALOAD PUSH1 0xE0 SHR DUP1 PUSH4 0x66F2B39C EQ PUSH2 0x3B JUMPI DUP1 PUSH4 0x80C4237F EQ PUSH2 0x59 JUMPI JUMPDEST PUSH1 0x0 DUP1 REVERT JUMPDEST PUSH2 0x43 PUSH2 0x63 JUMP JUMPDEST PUSH1 0x40 MLOAD PUSH2 0x50 SWAP2 SWAP1 PUSH2 0x28D JUMP JUMPDEST PUSH1 0x40 MLOAD DUP1 SWAP2 SUB SWAP1 RETURN JUMPDEST PUSH2 0x61 PUSH2 0x87 JUMP JUMPDEST STOP JUMPDEST PUSH1 0x0 DUP1 SLOAD SWAP1 PUSH2 0x100 EXP SWAP1 DIV PUSH20 0xFFFFFFFFFFFFFFFFFFFFFFFFFFFFFFFFFFFFFFFF AND DUP2 JUMP JUMPDEST PUSH1 0x0 PUSH1 0x1 NUMBER PUSH2 0x96 SWAP2 SWAP1 PUSH2 0x2E1 JUMP JUMPDEST SWAP1 POP PUSH1 0x0 DUP2 BLOCKHASH SWAP1 POP PUSH1 0x0 DUP2 PUSH1 0x0 SHR SWAP1 POP PUSH1 0x0 PUSH1 0x2 PUSH1 0x1 SLOAD DUP4 PUSH2 0xB8 SWAP2 SWAP1 PUSH2 0x344 JUMP JUMPDEST PUSH2 0xC2 SWAP2 SWAP1 PUSH2 0x375 JUMP JUMPDEST EQ PUSH2 0x16A JUMPI PUSH1 0x0 DUP1 SLOAD SWAP1 PUSH2 0x100 EXP SWAP1 DIV PUSH20 0xFFFFFFFFFFFFFFFFFFFFFFFFFFFFFFFFFFFFFFFF AND PUSH20 0xFFFFFFFFFFFFFFFFFFFFFFFFFFFFFFFFFFFFFFFF AND PUSH4 0x1D263F67 PUSH1 0x1 PUSH1 0x40 MLOAD DUP3 PUSH4 0xFFFFFFFF AND PUSH1 0xE0 SHL DUP2 MSTORE PUSH1 0x4 ADD PUSH2 0x121 SWAP2 SWAP1 PUSH2 0x3C1 JUMP JUMPDEST PUSH1 0x20 PUSH1 0x40 MLOAD DUP1 DUP4 SUB DUP2 PUSH1 0x0 DUP8 GAS CALL ISZERO DUP1 ISZERO PUSH2 0x140 JUMPI RETURNDATASIZE PUSH1 0x0 DUP1 RETURNDATACOPY RETURNDATASIZE PUSH1 0x0 REVERT JUMPDEST POP POP POP POP PUSH1 0x40 MLOAD RETURNDATASIZE PUSH1 0x1F NOT PUSH1 0x1F DUP3 ADD AND DUP3 ADD DUP1 PUSH1 0x40 MSTORE POP DUP2 ADD SWAP1 PUSH2 0x164 SWAP2 SWAP1 PUSH2 0x40D JUMP JUMPDEST POP PUSH2 0x209 JUMP JUMPDEST PUSH1 0x0 DUP1 SLOAD SWAP1 PUSH2 0x100 EXP SWAP1 DIV PUSH20 0xFFFFFFFFFFFFFFFFFFFFFFFFFFFFFFFFFFFFFFFF AND PUSH20 0xFFFFFFFFFFFFFFFFFFFFFFFFFFFFFFFFFFFFFFFF AND PUSH4 0x1D263F67 PUSH1 0x0 PUSH1 0x40 MLOAD DUP3 PUSH4 0xFFFFFFFF AND PUSH1 0xE0 SHL DUP2 MSTORE PUSH1 0x4 ADD PUSH2 0x1C4 SWAP2 SWAP1 PUSH2 0x3C1 JUMP JUMPDEST PUSH1 0x20 PUSH1 0x40 MLOAD DUP1 DUP4 SUB DUP2 PUSH1 0x0 DUP8 GAS CALL ISZERO DUP1 ISZERO PUSH2 0x1E3 JUMPI RETURNDATASIZE PUSH1 0x0 DUP1 RETURNDATACOPY RETURNDATASIZE PUSH1 0x0 REVERT JUMPDEST POP POP POP POP PUSH1 0x40 MLOAD RETURNDATASIZE PUSH1 0x1F NOT PUSH1 0x1F DUP3 ADD AND DUP3 ADD DUP1 PUSH1 0x40 MSTORE POP DUP2 ADD SWAP1 PUSH2 0x207 SWAP2 SWAP1 PUSH2 0x40D JUMP JUMPDEST POP JUMPDEST POP POP POP JUMP JUMPDEST PUSH1 0x0 PUSH20 0xFFFFFFFFFFFFFFFFFFFFFFFFFFFFFFFFFFFFFFFF DUP3 AND SWAP1 POP SWAP2 SWAP1 POP JUMP JUMPDEST PUSH1 0x0 DUP2 SWAP1 POP SWAP2 SWAP1 POP JUMP JUMPDEST PUSH1 0x0 PUSH2 0x253 PUSH2 0x24E PUSH2 0x249 DUP5 PUSH2 0x20E JUMP JUMPDEST PUSH2 0x22E JUMP JUMPDEST PUSH2 0x20E JUMP JUMPDEST SWAP1 POP SWAP2 SWAP1 POP JUMP JUMPDEST PUSH1 0x0 PUSH2 0x265 DUP3 PUSH2 0x238 JUMP JUMPDEST SWAP1 POP SWAP2 SWAP1 POP JUMP JUMPDEST PUSH1 0x0 PUSH2 0x277 DUP3 PUSH2 0x25A JUMP JUMPDEST SWAP1 POP SWAP2 SWAP1 POP JUMP JUMPDEST PUSH2 0x287 DUP2 PUSH2 0x26C JUMP JUMPDEST DUP3 MSTORE POP POP JUMP JUMPDEST PUSH1 0x0 PUSH1 0x20 DUP3 ADD SWAP1 POP PUSH2 0x2A2 PUSH1 0x0 DUP4 ADD DUP5 PUSH2 0x27E JUMP JUMPDEST SWAP3 SWAP2 POP POP JUMP JUMPDEST PUSH1 0x0 DUP2 SWAP1 POP SWAP2 SWAP1 POP JUMP JUMPDEST PUSH32 0x4E487B7100000000000000000000000000000000000000000000000000000000 PUSH1 0x0 MSTORE PUSH1 0x11 PUSH1 0x4 MSTORE PUSH1 0x24 PUSH1 0x0 REVERT JUMPDEST PUSH1 0x0 PUSH2 0x2EC DUP3 PUSH2 0x2A8 JUMP JUMPDEST SWAP2 POP PUSH2 0x2F7 DUP4 PUSH2 0x2A8 JUMP JUMPDEST SWAP3 POP DUP3 DUP3 SUB SWAP1 POP DUP2 DUP2 GT ISZERO PUSH2 0x30F JUMPI PUSH2 0x30E PUSH2 0x2B2 JUMP JUMPDEST JUMPDEST SWAP3 SWAP2 POP POP JUMP JUMPDEST PUSH32 0x4E487B7100000000000000000000000000000000000000000000000000000000 PUSH1 0x0 MSTORE PUSH1 0x12 PUSH1 0x4 MSTORE PUSH1 0x24 PUSH1 0x0 REVERT JUMPDEST PUSH1 0x0 PUSH2 0x34F DUP3 PUSH2 0x2A8 JUMP JUMPDEST SWAP2 POP PUSH2 0x35A DUP4 PUSH2 0x2A8 JUMP JUMPDEST SWAP3 POP DUP3 PUSH2 0x36A JUMPI PUSH2 0x369 PUSH2 0x315 JUMP JUMPDEST JUMPDEST DUP3 DUP3 DIV SWAP1 POP SWAP3 SWAP2 POP POP JUMP JUMPDEST PUSH1 0x0 PUSH2 0x380 DUP3 PUSH2 0x2A8 JUMP JUMPDEST SWAP2 POP PUSH2 0x38B DUP4 PUSH2 0x2A8 JUMP JUMPDEST SWAP3 POP DUP3 PUSH2 0x39B JUMPI PUSH2 0x39A PUSH2 0x315 JUMP JUMPDEST JUMPDEST DUP3 DUP3 MOD SWAP1 POP SWAP3 SWAP2 POP POP JUMP JUMPDEST PUSH1 0x0 DUP2 ISZERO ISZERO SWAP1 POP SWAP2 SWAP1 POP JUMP JUMPDEST PUSH2 0x3BB DUP2 PUSH2 0x3A6 JUMP JUMPDEST DUP3 MSTORE POP POP JUMP JUMPDEST PUSH1 0x0 PUSH1 0x20 DUP3 ADD SWAP1 POP PUSH2 0x3D6 PUSH1 0x0 DUP4 ADD DUP5 PUSH2 0x3B2 JUMP JUMPDEST SWAP3 SWAP2 POP POP JUMP JUMPDEST PUSH1 0x0 DUP1 REVERT JUMPDEST PUSH2 0x3EA DUP2 PUSH2 0x3A6 JUMP JUMPDEST DUP2 EQ PUSH2 0x3F5 JUMPI PUSH1 0x0 DUP1 REVERT JUMPDEST POP JUMP JUMPDEST PUSH1 0x0 DUP2 MLOAD SWAP1 POP PUSH2 0x407 DUP2 PUSH2 0x3E1 JUMP JUMPDEST SWAP3 SWAP2 POP POP JUMP JUMPDEST PUSH1 0x0 PUSH1 0x20 DUP3 DUP5 SUB SLT ISZERO PUSH2 0x423 JUMPI PUSH2 0x422 PUSH2 0x3DC JUMP JUMPDEST JUMPDEST PUSH1 0x0 PUSH2 0x431 DUP5 DUP3 DUP6 ADD PUSH2 0x3F8 JUMP JUMPDEST SWAP2 POP POP SWAP3 SWAP2 POP POP JUMP INVALID LOG2 PUSH5 0x6970667358 0x22 SLT KECCAK256 CALLDATACOPY 0xCF DIFFICULTY SUB DUP11 CODECOPY SUB DIFFICULTY DUP15 PUSH5 0x4A247515A8 LOG2 0xC1 0x25 0xD3 0xE1 0xDA DUP14 0xB2 STATICCALL MOD 0xED PUSH13 0x593B121FBC64736F6C63430008 GT STOP CALLER "
				},
				"gasEstimates": {
					"creation": {
						"codeDepositCost": "227200",
						"executionCost": "infinite",
						"totalCost": "infinite"
					},
					"external": {
						"coinflipConotract()": "infinite",
						"tryToWin()": "infinite"
					}
				},
				"methodIdentifiers": {
					"coinflipConotract()": "66f2b39c",
					"tryToWin()": "80c4237f"
				}
			},
			"storageLayout": {
				"storage": [
					{
						"astId": 135,
						"contract": "bootcamp/week9/day_4_coinflip.sol:attackCoinFlip",
						"label": "coinflipConotract",
						"offset": 0,
						"slot": "0",
						"type": "t_contract(headsOrTails)132"
					},
					{
						"astId": 138,
						"contract": "bootcamp/week9/day_4_coinflip.sol:attackCoinFlip",
						"label": "seed",
						"offset": 0,
						"slot": "1",
						"type": "t_uint256"
					}
				],
				"types": {
					"t_contract(headsOrTails)132": {
						"encoding": "inplace",
						"label": "contract headsOrTails",
						"numberOfBytes": "20"
					},
					"t_uint256": {
						"encoding": "inplace",
						"label": "uint256",
						"numberOfBytes": "32"
					}
				}
			},
			"userdoc": {
				"kind": "user",
				"methods": {},
				"version": 1
			}
		}
	}
}