{
	"bootcamp/week9/day_3_block_Reentrancy_Attack.sol": {
		"debug": {
			"abi": [
				{
					"inputs": [
						{
							"internalType": "address",
							"name": "",
							"type": "address"
						}
					],
					"name": "balances",
					"outputs": [
						{
							"internalType": "uint256",
							"name": "",
							"type": "uint256"
						}
					],
					"stateMutability": "view",
					"type": "function"
				},
				{
					"inputs": [],
					"name": "deposit",
					"outputs": [],
					"stateMutability": "payable",
					"type": "function"
				},
				{
					"inputs": [],
					"name": "takeOut",
					"outputs": [],
					"stateMutability": "nonpayable",
					"type": "function"
				}
			],
			"devdoc": {
				"kind": "dev",
				"methods": {},
				"version": 1
			},
			"evm": {
				"assembly": "    /* \"bootcamp/week9/day_3_block_Reentrancy_Attack.sol\":58:1583  contract debug {... */\n  mstore(0x40, 0x80)\n    /* \"bootcamp/week9/day_3_block_Reentrancy_Attack.sol\":254:259  false */\n  0x00\n    /* \"bootcamp/week9/day_3_block_Reentrancy_Attack.sol\":239:259  bool started = false */\n  0x01\n  exp(0x0100, 0x00)\n  dup2\n  sload\n  dup2\n  0xff\n  mul\n  not\n  and\n  swap1\n  dup4\n  iszero\n  iszero\n  mul\n  or\n  swap1\n  sstore\n  pop\n    /* \"bootcamp/week9/day_3_block_Reentrancy_Attack.sol\":58:1583  contract debug {... */\n  callvalue\n  dup1\n  iszero\n  tag_1\n  jumpi\n  0x00\n  dup1\n  revert\ntag_1:\n  pop\n  dataSize(sub_0)\n  dup1\n  dataOffset(sub_0)\n  0x00\n  codecopy\n  0x00\n  return\nstop\n\nsub_0: assembly {\n        /* \"bootcamp/week9/day_3_block_Reentrancy_Attack.sol\":58:1583  contract debug {... */\n      mstore(0x40, 0x80)\n      jumpi(tag_1, lt(calldatasize, 0x04))\n      shr(0xe0, calldataload(0x00))\n      dup1\n      0x27e235e3\n      eq\n      tag_2\n      jumpi\n      dup1\n      0x6faf0397\n      eq\n      tag_3\n      jumpi\n      dup1\n      0xd0e30db0\n      eq\n      tag_4\n      jumpi\n    tag_1:\n      0x00\n      dup1\n      revert\n        /* \"bootcamp/week9/day_3_block_Reentrancy_Attack.sol\":128:168  mapping(address => uint) public balances */\n    tag_2:\n      callvalue\n      dup1\n      iszero\n      tag_5\n      jumpi\n      0x00\n      dup1\n      revert\n    tag_5:\n      pop\n      tag_6\n      0x04\n      dup1\n      calldatasize\n      sub\n      dup2\n      add\n      swap1\n      tag_7\n      swap2\n      swap1\n      tag_8\n      jump\t// in\n    tag_7:\n      tag_9\n      jump\t// in\n    tag_6:\n      mload(0x40)\n      tag_10\n      swap2\n      swap1\n      tag_11\n      jump\t// in\n    tag_10:\n      mload(0x40)\n      dup1\n      swap2\n      sub\n      swap1\n      return\n        /* \"bootcamp/week9/day_3_block_Reentrancy_Attack.sol\":632:1581  function takeOut() public {... */\n    tag_3:\n      callvalue\n      dup1\n      iszero\n      tag_12\n      jumpi\n      0x00\n      dup1\n      revert\n    tag_12:\n      pop\n      tag_13\n      tag_14\n      jump\t// in\n    tag_13:\n      stop\n        /* \"bootcamp/week9/day_3_block_Reentrancy_Attack.sol\":501:585  function deposit() public payable {... */\n    tag_4:\n      tag_15\n      tag_16\n      jump\t// in\n    tag_15:\n      stop\n        /* \"bootcamp/week9/day_3_block_Reentrancy_Attack.sol\":128:168  mapping(address => uint) public balances */\n    tag_9:\n      mstore(0x20, 0x00)\n      dup1\n      0x00\n      mstore\n      keccak256(0x00, 0x40)\n      0x00\n      swap2\n      pop\n      swap1\n      pop\n      sload\n      dup2\n      jump\t// out\n        /* \"bootcamp/week9/day_3_block_Reentrancy_Attack.sol\":632:1581  function takeOut() public {... */\n    tag_14:\n        /* \"bootcamp/week9/day_3_block_Reentrancy_Attack.sol\":800:801  0 */\n      0x00\n        /* \"bootcamp/week9/day_3_block_Reentrancy_Attack.sol\":776:784  balances */\n      dup1\n        /* \"bootcamp/week9/day_3_block_Reentrancy_Attack.sol\":776:796  balances[msg.sender] */\n      0x00\n        /* \"bootcamp/week9/day_3_block_Reentrancy_Attack.sol\":785:795  msg.sender */\n      caller\n        /* \"bootcamp/week9/day_3_block_Reentrancy_Attack.sol\":776:796  balances[msg.sender] */\n      0xffffffffffffffffffffffffffffffffffffffff\n      and\n      0xffffffffffffffffffffffffffffffffffffffff\n      and\n      dup2\n      mstore\n      0x20\n      add\n      swap1\n      dup2\n      mstore\n      0x20\n      add\n      0x00\n      keccak256\n      sload\n        /* \"bootcamp/week9/day_3_block_Reentrancy_Attack.sol\":776:801  balances[msg.sender] != 0 */\n      sub\n        /* \"bootcamp/week9/day_3_block_Reentrancy_Attack.sol\":768:802  require(balances[msg.sender] != 0) */\n      tag_18\n      jumpi\n      0x00\n      dup1\n      revert\n    tag_18:\n        /* \"bootcamp/week9/day_3_block_Reentrancy_Attack.sol\":953:967  bool tryToSend */\n      0x00\n        /* \"bootcamp/week9/day_3_block_Reentrancy_Attack.sol\":973:983  msg.sender */\n      caller\n        /* \"bootcamp/week9/day_3_block_Reentrancy_Attack.sol\":973:988  msg.sender.call */\n      0xffffffffffffffffffffffffffffffffffffffff\n      and\n        /* \"bootcamp/week9/day_3_block_Reentrancy_Attack.sol\":996:1004  balances */\n      0x00\n        /* \"bootcamp/week9/day_3_block_Reentrancy_Attack.sol\":996:1016  balances[msg.sender] */\n      dup1\n        /* \"bootcamp/week9/day_3_block_Reentrancy_Attack.sol\":1005:1015  msg.sender */\n      caller\n        /* \"bootcamp/week9/day_3_block_Reentrancy_Attack.sol\":996:1016  balances[msg.sender] */\n      0xffffffffffffffffffffffffffffffffffffffff\n      and\n      0xffffffffffffffffffffffffffffffffffffffff\n      and\n      dup2\n      mstore\n      0x20\n      add\n      swap1\n      dup2\n      mstore\n      0x20\n      add\n      0x00\n      keccak256\n      sload\n        /* \"bootcamp/week9/day_3_block_Reentrancy_Attack.sol\":973:1021  msg.sender.call{value: balances[msg.sender]}(\"\") */\n      mload(0x40)\n      tag_19\n      swap1\n      tag_20\n      jump\t// in\n    tag_19:\n      0x00\n      mload(0x40)\n      dup1\n      dup4\n      sub\n      dup2\n      dup6\n      dup8\n      gas\n      call\n      swap3\n      pop\n      pop\n      pop\n      returndatasize\n      dup1\n      0x00\n      dup2\n      eq\n      tag_23\n      jumpi\n      mload(0x40)\n      swap2\n      pop\n      and(add(returndatasize, 0x3f), not(0x1f))\n      dup3\n      add\n      0x40\n      mstore\n      returndatasize\n      dup3\n      mstore\n      returndatasize\n      0x00\n      0x20\n      dup5\n      add\n      returndatacopy\n      jump(tag_22)\n    tag_23:\n      0x60\n      swap2\n      pop\n    tag_22:\n      pop\n        /* \"bootcamp/week9/day_3_block_Reentrancy_Attack.sol\":952:1021  (bool tryToSend, ) = msg.sender.call{value: balances[msg.sender]}(\"\") */\n      pop\n      swap1\n      pop\n        /* \"bootcamp/week9/day_3_block_Reentrancy_Attack.sol\":1303:1312  tryToSend */\n      dup1\n        /* \"bootcamp/week9/day_3_block_Reentrancy_Attack.sol\":1295:1313  require(tryToSend) */\n      tag_24\n      jumpi\n      0x00\n      dup1\n      revert\n    tag_24:\n        /* \"bootcamp/week9/day_3_block_Reentrancy_Attack.sol\":1573:1574  0 */\n      0x00\n        /* \"bootcamp/week9/day_3_block_Reentrancy_Attack.sol\":1550:1558  balances */\n      dup1\n        /* \"bootcamp/week9/day_3_block_Reentrancy_Attack.sol\":1550:1570  balances[msg.sender] */\n      0x00\n        /* \"bootcamp/week9/day_3_block_Reentrancy_Attack.sol\":1559:1569  msg.sender */\n      caller\n        /* \"bootcamp/week9/day_3_block_Reentrancy_Attack.sol\":1550:1570  balances[msg.sender] */\n      0xffffffffffffffffffffffffffffffffffffffff\n      and\n      0xffffffffffffffffffffffffffffffffffffffff\n      and\n      dup2\n      mstore\n      0x20\n      add\n      swap1\n      dup2\n      mstore\n      0x20\n      add\n      0x00\n      keccak256\n        /* \"bootcamp/week9/day_3_block_Reentrancy_Attack.sol\":1550:1574  balances[msg.sender] = 0 */\n      dup2\n      swap1\n      sstore\n      pop\n        /* \"bootcamp/week9/day_3_block_Reentrancy_Attack.sol\":658:1581  {... */\n      pop\n        /* \"bootcamp/week9/day_3_block_Reentrancy_Attack.sol\":632:1581  function takeOut() public {... */\n      jump\t// out\n        /* \"bootcamp/week9/day_3_block_Reentrancy_Attack.sol\":501:585  function deposit() public payable {... */\n    tag_16:\n        /* \"bootcamp/week9/day_3_block_Reentrancy_Attack.sol\":569:578  msg.value */\n      callvalue\n        /* \"bootcamp/week9/day_3_block_Reentrancy_Attack.sol\":545:553  balances */\n      0x00\n        /* \"bootcamp/week9/day_3_block_Reentrancy_Attack.sol\":545:565  balances[msg.sender] */\n      dup1\n        /* \"bootcamp/week9/day_3_block_Reentrancy_Attack.sol\":554:564  msg.sender */\n      caller\n        /* \"bootcamp/week9/day_3_block_Reentrancy_Attack.sol\":545:565  balances[msg.sender] */\n      0xffffffffffffffffffffffffffffffffffffffff\n      and\n      0xffffffffffffffffffffffffffffffffffffffff\n      and\n      dup2\n      mstore\n      0x20\n      add\n      swap1\n      dup2\n      mstore\n      0x20\n      add\n      0x00\n      keccak256\n      0x00\n        /* \"bootcamp/week9/day_3_block_Reentrancy_Attack.sol\":545:578  balances[msg.sender] += msg.value */\n      dup3\n      dup3\n      sload\n      tag_26\n      swap2\n      swap1\n      tag_27\n      jump\t// in\n    tag_26:\n      swap3\n      pop\n      pop\n      dup2\n      swap1\n      sstore\n      pop\n        /* \"bootcamp/week9/day_3_block_Reentrancy_Attack.sol\":501:585  function deposit() public payable {... */\n      jump\t// out\n        /* \"#utility.yul\":88:205   */\n    tag_29:\n        /* \"#utility.yul\":197:198   */\n      0x00\n        /* \"#utility.yul\":194:195   */\n      dup1\n        /* \"#utility.yul\":187:199   */\n      revert\n        /* \"#utility.yul\":334:460   */\n    tag_31:\n        /* \"#utility.yul\":371:378   */\n      0x00\n        /* \"#utility.yul\":411:453   */\n      0xffffffffffffffffffffffffffffffffffffffff\n        /* \"#utility.yul\":404:409   */\n      dup3\n        /* \"#utility.yul\":400:454   */\n      and\n        /* \"#utility.yul\":389:454   */\n      swap1\n      pop\n        /* \"#utility.yul\":334:460   */\n      swap2\n      swap1\n      pop\n      jump\t// out\n        /* \"#utility.yul\":466:562   */\n    tag_32:\n        /* \"#utility.yul\":503:510   */\n      0x00\n        /* \"#utility.yul\":532:556   */\n      tag_47\n        /* \"#utility.yul\":550:555   */\n      dup3\n        /* \"#utility.yul\":532:556   */\n      tag_31\n      jump\t// in\n    tag_47:\n        /* \"#utility.yul\":521:556   */\n      swap1\n      pop\n        /* \"#utility.yul\":466:562   */\n      swap2\n      swap1\n      pop\n      jump\t// out\n        /* \"#utility.yul\":568:690   */\n    tag_33:\n        /* \"#utility.yul\":641:665   */\n      tag_49\n        /* \"#utility.yul\":659:664   */\n      dup2\n        /* \"#utility.yul\":641:665   */\n      tag_32\n      jump\t// in\n    tag_49:\n        /* \"#utility.yul\":634:639   */\n      dup2\n        /* \"#utility.yul\":631:666   */\n      eq\n        /* \"#utility.yul\":621:684   */\n      tag_50\n      jumpi\n        /* \"#utility.yul\":680:681   */\n      0x00\n        /* \"#utility.yul\":677:678   */\n      dup1\n        /* \"#utility.yul\":670:682   */\n      revert\n        /* \"#utility.yul\":621:684   */\n    tag_50:\n        /* \"#utility.yul\":568:690   */\n      pop\n      jump\t// out\n        /* \"#utility.yul\":696:835   */\n    tag_34:\n        /* \"#utility.yul\":742:747   */\n      0x00\n        /* \"#utility.yul\":780:786   */\n      dup2\n        /* \"#utility.yul\":767:787   */\n      calldataload\n        /* \"#utility.yul\":758:787   */\n      swap1\n      pop\n        /* \"#utility.yul\":796:829   */\n      tag_52\n        /* \"#utility.yul\":823:828   */\n      dup2\n        /* \"#utility.yul\":796:829   */\n      tag_33\n      jump\t// in\n    tag_52:\n        /* \"#utility.yul\":696:835   */\n      swap3\n      swap2\n      pop\n      pop\n      jump\t// out\n        /* \"#utility.yul\":841:1170   */\n    tag_8:\n        /* \"#utility.yul\":900:906   */\n      0x00\n        /* \"#utility.yul\":949:951   */\n      0x20\n        /* \"#utility.yul\":937:946   */\n      dup3\n        /* \"#utility.yul\":928:935   */\n      dup5\n        /* \"#utility.yul\":924:947   */\n      sub\n        /* \"#utility.yul\":920:952   */\n      slt\n        /* \"#utility.yul\":917:1036   */\n      iszero\n      tag_54\n      jumpi\n        /* \"#utility.yul\":955:1034   */\n      tag_55\n      tag_29\n      jump\t// in\n    tag_55:\n        /* \"#utility.yul\":917:1036   */\n    tag_54:\n        /* \"#utility.yul\":1075:1076   */\n      0x00\n        /* \"#utility.yul\":1100:1153   */\n      tag_56\n        /* \"#utility.yul\":1145:1152   */\n      dup5\n        /* \"#utility.yul\":1136:1142   */\n      dup3\n        /* \"#utility.yul\":1125:1134   */\n      dup6\n        /* \"#utility.yul\":1121:1143   */\n      add\n        /* \"#utility.yul\":1100:1153   */\n      tag_34\n      jump\t// in\n    tag_56:\n        /* \"#utility.yul\":1090:1153   */\n      swap2\n      pop\n        /* \"#utility.yul\":1046:1163   */\n      pop\n        /* \"#utility.yul\":841:1170   */\n      swap3\n      swap2\n      pop\n      pop\n      jump\t// out\n        /* \"#utility.yul\":1176:1253   */\n    tag_35:\n        /* \"#utility.yul\":1213:1220   */\n      0x00\n        /* \"#utility.yul\":1242:1247   */\n      dup2\n        /* \"#utility.yul\":1231:1247   */\n      swap1\n      pop\n        /* \"#utility.yul\":1176:1253   */\n      swap2\n      swap1\n      pop\n      jump\t// out\n        /* \"#utility.yul\":1259:1377   */\n    tag_36:\n        /* \"#utility.yul\":1346:1370   */\n      tag_59\n        /* \"#utility.yul\":1364:1369   */\n      dup2\n        /* \"#utility.yul\":1346:1370   */\n      tag_35\n      jump\t// in\n    tag_59:\n        /* \"#utility.yul\":1341:1344   */\n      dup3\n        /* \"#utility.yul\":1334:1371   */\n      mstore\n        /* \"#utility.yul\":1259:1377   */\n      pop\n      pop\n      jump\t// out\n        /* \"#utility.yul\":1383:1605   */\n    tag_11:\n        /* \"#utility.yul\":1476:1480   */\n      0x00\n        /* \"#utility.yul\":1514:1516   */\n      0x20\n        /* \"#utility.yul\":1503:1512   */\n      dup3\n        /* \"#utility.yul\":1499:1517   */\n      add\n        /* \"#utility.yul\":1491:1517   */\n      swap1\n      pop\n        /* \"#utility.yul\":1527:1598   */\n      tag_61\n        /* \"#utility.yul\":1595:1596   */\n      0x00\n        /* \"#utility.yul\":1584:1593   */\n      dup4\n        /* \"#utility.yul\":1580:1597   */\n      add\n        /* \"#utility.yul\":1571:1577   */\n      dup5\n        /* \"#utility.yul\":1527:1598   */\n      tag_36\n      jump\t// in\n    tag_61:\n        /* \"#utility.yul\":1383:1605   */\n      swap3\n      swap2\n      pop\n      pop\n      jump\t// out\n        /* \"#utility.yul\":1611:1758   */\n    tag_37:\n        /* \"#utility.yul\":1712:1723   */\n      0x00\n        /* \"#utility.yul\":1749:1752   */\n      dup2\n        /* \"#utility.yul\":1734:1752   */\n      swap1\n      pop\n        /* \"#utility.yul\":1611:1758   */\n      swap3\n      swap2\n      pop\n      pop\n      jump\t// out\n        /* \"#utility.yul\":1764:1878   */\n    tag_38:\n      pop\n      jump\t// out\n        /* \"#utility.yul\":1884:2282   */\n    tag_39:\n        /* \"#utility.yul\":2043:2046   */\n      0x00\n        /* \"#utility.yul\":2064:2147   */\n      tag_65\n        /* \"#utility.yul\":2145:2146   */\n      0x00\n        /* \"#utility.yul\":2140:2143   */\n      dup4\n        /* \"#utility.yul\":2064:2147   */\n      tag_37\n      jump\t// in\n    tag_65:\n        /* \"#utility.yul\":2057:2147   */\n      swap2\n      pop\n        /* \"#utility.yul\":2156:2249   */\n      tag_66\n        /* \"#utility.yul\":2245:2248   */\n      dup3\n        /* \"#utility.yul\":2156:2249   */\n      tag_38\n      jump\t// in\n    tag_66:\n        /* \"#utility.yul\":2274:2275   */\n      0x00\n        /* \"#utility.yul\":2269:2272   */\n      dup3\n        /* \"#utility.yul\":2265:2276   */\n      add\n        /* \"#utility.yul\":2258:2276   */\n      swap1\n      pop\n        /* \"#utility.yul\":1884:2282   */\n      swap2\n      swap1\n      pop\n      jump\t// out\n        /* \"#utility.yul\":2288:2667   */\n    tag_20:\n        /* \"#utility.yul\":2472:2475   */\n      0x00\n        /* \"#utility.yul\":2494:2641   */\n      tag_68\n        /* \"#utility.yul\":2637:2640   */\n      dup3\n        /* \"#utility.yul\":2494:2641   */\n      tag_39\n      jump\t// in\n    tag_68:\n        /* \"#utility.yul\":2487:2641   */\n      swap2\n      pop\n        /* \"#utility.yul\":2658:2661   */\n      dup2\n        /* \"#utility.yul\":2651:2661   */\n      swap1\n      pop\n        /* \"#utility.yul\":2288:2667   */\n      swap2\n      swap1\n      pop\n      jump\t// out\n        /* \"#utility.yul\":2673:2853   */\n    tag_40:\n        /* \"#utility.yul\":2721:2798   */\n      0x4e487b7100000000000000000000000000000000000000000000000000000000\n        /* \"#utility.yul\":2718:2719   */\n      0x00\n        /* \"#utility.yul\":2711:2799   */\n      mstore\n        /* \"#utility.yul\":2818:2822   */\n      0x11\n        /* \"#utility.yul\":2815:2816   */\n      0x04\n        /* \"#utility.yul\":2808:2823   */\n      mstore\n        /* \"#utility.yul\":2842:2846   */\n      0x24\n        /* \"#utility.yul\":2839:2840   */\n      0x00\n        /* \"#utility.yul\":2832:2847   */\n      revert\n        /* \"#utility.yul\":2859:3050   */\n    tag_27:\n        /* \"#utility.yul\":2899:2902   */\n      0x00\n        /* \"#utility.yul\":2918:2938   */\n      tag_71\n        /* \"#utility.yul\":2936:2937   */\n      dup3\n        /* \"#utility.yul\":2918:2938   */\n      tag_35\n      jump\t// in\n    tag_71:\n        /* \"#utility.yul\":2913:2938   */\n      swap2\n      pop\n        /* \"#utility.yul\":2952:2972   */\n      tag_72\n        /* \"#utility.yul\":2970:2971   */\n      dup4\n        /* \"#utility.yul\":2952:2972   */\n      tag_35\n      jump\t// in\n    tag_72:\n        /* \"#utility.yul\":2947:2972   */\n      swap3\n      pop\n        /* \"#utility.yul\":2995:2996   */\n      dup3\n        /* \"#utility.yul\":2992:2993   */\n      dup3\n        /* \"#utility.yul\":2988:2997   */\n      add\n        /* \"#utility.yul\":2981:2997   */\n      swap1\n      pop\n        /* \"#utility.yul\":3016:3019   */\n      dup1\n        /* \"#utility.yul\":3013:3014   */\n      dup3\n        /* \"#utility.yul\":3010:3020   */\n      gt\n        /* \"#utility.yul\":3007:3043   */\n      iszero\n      tag_73\n      jumpi\n        /* \"#utility.yul\":3023:3041   */\n      tag_74\n      tag_40\n      jump\t// in\n    tag_74:\n        /* \"#utility.yul\":3007:3043   */\n    tag_73:\n        /* \"#utility.yul\":2859:3050   */\n      swap3\n      swap2\n      pop\n      pop\n      jump\t// out\n\n    auxdata: 0xa264697066735822122010b6e401da4ab3ebcabb1e99979b28d69a28997b2c80267f3d27f769851bf19964736f6c63430008110033\n}\n",
				"bytecode": {
					"linkReferences": {},
					"object": "60806040526000600160006101000a81548160ff02191690831515021790555034801561002b57600080fd5b506103ef8061003b6000396000f3fe6080604052600436106100345760003560e01c806327e235e3146100395780636faf039714610076578063d0e30db01461008d575b600080fd5b34801561004557600080fd5b50610060600480360381019061005b91906102af565b610097565b60405161006d91906102f5565b60405180910390f35b34801561008257600080fd5b5061008b6100af565b005b6100956101f5565b005b60006020528060005260406000206000915090505481565b60008060003373ffffffffffffffffffffffffffffffffffffffff1673ffffffffffffffffffffffffffffffffffffffff16815260200190815260200160002054036100fa57600080fd5b60003373ffffffffffffffffffffffffffffffffffffffff166000803373ffffffffffffffffffffffffffffffffffffffff1673ffffffffffffffffffffffffffffffffffffffff1681526020019081526020016000205460405161015e90610341565b60006040518083038185875af1925050503d806000811461019b576040519150601f19603f3d011682016040523d82523d6000602084013e6101a0565b606091505b50509050806101ae57600080fd5b60008060003373ffffffffffffffffffffffffffffffffffffffff1673ffffffffffffffffffffffffffffffffffffffff1681526020019081526020016000208190555050565b346000803373ffffffffffffffffffffffffffffffffffffffff1673ffffffffffffffffffffffffffffffffffffffff16815260200190815260200160002060008282546102439190610385565b92505081905550565b600080fd5b600073ffffffffffffffffffffffffffffffffffffffff82169050919050565b600061027c82610251565b9050919050565b61028c81610271565b811461029757600080fd5b50565b6000813590506102a981610283565b92915050565b6000602082840312156102c5576102c461024c565b5b60006102d38482850161029a565b91505092915050565b6000819050919050565b6102ef816102dc565b82525050565b600060208201905061030a60008301846102e6565b92915050565b600081905092915050565b50565b600061032b600083610310565b91506103368261031b565b600082019050919050565b600061034c8261031e565b9150819050919050565b7f4e487b7100000000000000000000000000000000000000000000000000000000600052601160045260246000fd5b6000610390826102dc565b915061039b836102dc565b92508282019050808211156103b3576103b2610356565b5b9291505056fea264697066735822122010b6e401da4ab3ebcabb1e99979b28d69a28997b2c80267f3d27f769851bf19964736f6c63430008110033",
					"opcodes": "PUSH1 0x80 PUSH1 0x40 MSTORE PUSH1 0x0 PUSH1 0x1 PUSH1 0x0 PUSH2 0x100 EXP DUP2 SLOAD DUP2 PUSH1 0xFF MUL NOT AND SWAP1 DUP4 ISZERO ISZERO MUL OR SWAP1 SSTORE POP CALLVALUE DUP1 ISZERO PUSH2 0x2B JUMPI PUSH1 0x0 DUP1 REVERT JUMPDEST POP PUSH2 0x3EF DUP1 PUSH2 0x3B PUSH1 0x0 CODECOPY PUSH1 0x0 RETURN INVALID PUSH1 0x80 PUSH1 0x40 MSTORE PUSH1 0x4 CALLDATASIZE LT PUSH2 0x34 JUMPI PUSH1 0x0 CALLDATALOAD PUSH1 0xE0 SHR DUP1 PUSH4 0x27E235E3 EQ PUSH2 0x39 JUMPI DUP1 PUSH4 0x6FAF0397 EQ PUSH2 0x76 JUMPI DUP1 PUSH4 0xD0E30DB0 EQ PUSH2 0x8D JUMPI JUMPDEST PUSH1 0x0 DUP1 REVERT JUMPDEST CALLVALUE DUP1 ISZERO PUSH2 0x45 JUMPI PUSH1 0x0 DUP1 REVERT JUMPDEST POP PUSH2 0x60 PUSH1 0x4 DUP1 CALLDATASIZE SUB DUP2 ADD SWAP1 PUSH2 0x5B SWAP2 SWAP1 PUSH2 0x2AF JUMP JUMPDEST PUSH2 0x97 JUMP JUMPDEST PUSH1 0x40 MLOAD PUSH2 0x6D SWAP2 SWAP1 PUSH2 0x2F5 JUMP JUMPDEST PUSH1 0x40 MLOAD DUP1 SWAP2 SUB SWAP1 RETURN JUMPDEST CALLVALUE DUP1 ISZERO PUSH2 0x82 JUMPI PUSH1 0x0 DUP1 REVERT JUMPDEST POP PUSH2 0x8B PUSH2 0xAF JUMP JUMPDEST STOP JUMPDEST PUSH2 0x95 PUSH2 0x1F5 JUMP JUMPDEST STOP JUMPDEST PUSH1 0x0 PUSH1 0x20 MSTORE DUP1 PUSH1 0x0 MSTORE PUSH1 0x40 PUSH1 0x0 KECCAK256 PUSH1 0x0 SWAP2 POP SWAP1 POP SLOAD DUP2 JUMP JUMPDEST PUSH1 0x0 DUP1 PUSH1 0x0 CALLER PUSH20 0xFFFFFFFFFFFFFFFFFFFFFFFFFFFFFFFFFFFFFFFF AND PUSH20 0xFFFFFFFFFFFFFFFFFFFFFFFFFFFFFFFFFFFFFFFF AND DUP2 MSTORE PUSH1 0x20 ADD SWAP1 DUP2 MSTORE PUSH1 0x20 ADD PUSH1 0x0 KECCAK256 SLOAD SUB PUSH2 0xFA JUMPI PUSH1 0x0 DUP1 REVERT JUMPDEST PUSH1 0x0 CALLER PUSH20 0xFFFFFFFFFFFFFFFFFFFFFFFFFFFFFFFFFFFFFFFF AND PUSH1 0x0 DUP1 CALLER PUSH20 0xFFFFFFFFFFFFFFFFFFFFFFFFFFFFFFFFFFFFFFFF AND PUSH20 0xFFFFFFFFFFFFFFFFFFFFFFFFFFFFFFFFFFFFFFFF AND DUP2 MSTORE PUSH1 0x20 ADD SWAP1 DUP2 MSTORE PUSH1 0x20 ADD PUSH1 0x0 KECCAK256 SLOAD PUSH1 0x40 MLOAD PUSH2 0x15E SWAP1 PUSH2 0x341 JUMP JUMPDEST PUSH1 0x0 PUSH1 0x40 MLOAD DUP1 DUP4 SUB DUP2 DUP6 DUP8 GAS CALL SWAP3 POP POP POP RETURNDATASIZE DUP1 PUSH1 0x0 DUP2 EQ PUSH2 0x19B JUMPI PUSH1 0x40 MLOAD SWAP2 POP PUSH1 0x1F NOT PUSH1 0x3F RETURNDATASIZE ADD AND DUP3 ADD PUSH1 0x40 MSTORE RETURNDATASIZE DUP3 MSTORE RETURNDATASIZE PUSH1 0x0 PUSH1 0x20 DUP5 ADD RETURNDATACOPY PUSH2 0x1A0 JUMP JUMPDEST PUSH1 0x60 SWAP2 POP JUMPDEST POP POP SWAP1 POP DUP1 PUSH2 0x1AE JUMPI PUSH1 0x0 DUP1 REVERT JUMPDEST PUSH1 0x0 DUP1 PUSH1 0x0 CALLER PUSH20 0xFFFFFFFFFFFFFFFFFFFFFFFFFFFFFFFFFFFFFFFF AND PUSH20 0xFFFFFFFFFFFFFFFFFFFFFFFFFFFFFFFFFFFFFFFF AND DUP2 MSTORE PUSH1 0x20 ADD SWAP1 DUP2 MSTORE PUSH1 0x20 ADD PUSH1 0x0 KECCAK256 DUP2 SWAP1 SSTORE POP POP JUMP JUMPDEST CALLVALUE PUSH1 0x0 DUP1 CALLER PUSH20 0xFFFFFFFFFFFFFFFFFFFFFFFFFFFFFFFFFFFFFFFF AND PUSH20 0xFFFFFFFFFFFFFFFFFFFFFFFFFFFFFFFFFFFFFFFF AND DUP2 MSTORE PUSH1 0x20 ADD SWAP1 DUP2 MSTORE PUSH1 0x20 ADD PUSH1 0x0 KECCAK256 PUSH1 0x0 DUP3 DUP3 SLOAD PUSH2 0x243 SWAP2 SWAP1 PUSH2 0x385 JUMP JUMPDEST SWAP3 POP POP DUP2 SWAP1 SSTORE POP JUMP JUMPDEST PUSH1 0x0 DUP1 REVERT JUMPDEST PUSH1 0x0 PUSH20 0xFFFFFFFFFFFFFFFFFFFFFFFFFFFFFFFFFFFFFFFF DUP3 AND SWAP1 POP SWAP2 SWAP1 POP JUMP JUMPDEST PUSH1 0x0 PUSH2 0x27C DUP3 PUSH2 0x251 JUMP JUMPDEST SWAP1 POP SWAP2 SWAP1 POP JUMP JUMPDEST PUSH2 0x28C DUP2 PUSH2 0x271 JUMP JUMPDEST DUP2 EQ PUSH2 0x297 JUMPI PUSH1 0x0 DUP1 REVERT JUMPDEST POP JUMP JUMPDEST PUSH1 0x0 DUP2 CALLDATALOAD SWAP1 POP PUSH2 0x2A9 DUP2 PUSH2 0x283 JUMP JUMPDEST SWAP3 SWAP2 POP POP JUMP JUMPDEST PUSH1 0x0 PUSH1 0x20 DUP3 DUP5 SUB SLT ISZERO PUSH2 0x2C5 JUMPI PUSH2 0x2C4 PUSH2 0x24C JUMP JUMPDEST JUMPDEST PUSH1 0x0 PUSH2 0x2D3 DUP5 DUP3 DUP6 ADD PUSH2 0x29A JUMP JUMPDEST SWAP2 POP POP SWAP3 SWAP2 POP POP JUMP JUMPDEST PUSH1 0x0 DUP2 SWAP1 POP SWAP2 SWAP1 POP JUMP JUMPDEST PUSH2 0x2EF DUP2 PUSH2 0x2DC JUMP JUMPDEST DUP3 MSTORE POP POP JUMP JUMPDEST PUSH1 0x0 PUSH1 0x20 DUP3 ADD SWAP1 POP PUSH2 0x30A PUSH1 0x0 DUP4 ADD DUP5 PUSH2 0x2E6 JUMP JUMPDEST SWAP3 SWAP2 POP POP JUMP JUMPDEST PUSH1 0x0 DUP2 SWAP1 POP SWAP3 SWAP2 POP POP JUMP JUMPDEST POP JUMP JUMPDEST PUSH1 0x0 PUSH2 0x32B PUSH1 0x0 DUP4 PUSH2 0x310 JUMP JUMPDEST SWAP2 POP PUSH2 0x336 DUP3 PUSH2 0x31B JUMP JUMPDEST PUSH1 0x0 DUP3 ADD SWAP1 POP SWAP2 SWAP1 POP JUMP JUMPDEST PUSH1 0x0 PUSH2 0x34C DUP3 PUSH2 0x31E JUMP JUMPDEST SWAP2 POP DUP2 SWAP1 POP SWAP2 SWAP1 POP JUMP JUMPDEST PUSH32 0x4E487B7100000000000000000000000000000000000000000000000000000000 PUSH1 0x0 MSTORE PUSH1 0x11 PUSH1 0x4 MSTORE PUSH1 0x24 PUSH1 0x0 REVERT JUMPDEST PUSH1 0x0 PUSH2 0x390 DUP3 PUSH2 0x2DC JUMP JUMPDEST SWAP2 POP PUSH2 0x39B DUP4 PUSH2 0x2DC JUMP JUMPDEST SWAP3 POP DUP3 DUP3 ADD SWAP1 POP DUP1 DUP3 GT ISZERO PUSH2 0x3B3 JUMPI PUSH2 0x3B2 PUSH2 0x356 JUMP JUMPDEST JUMPDEST SWAP3 SWAP2 POP POP JUMP INVALID LOG2 PUSH5 0x6970667358 0x22 SLT KECCAK256 LT 0xB6 0xE4 ADD 0xDA 0x4A 0xB3 0xEB 0xCA 0xBB 0x1E SWAP10 SWAP8 SWAP12 0x28 0xD6 SWAP11 0x28 SWAP10 PUSH28 0x2C80267F3D27F769851BF19964736F6C634300081100330000000000 "
				},
				"gasEstimates": {
					"creation": {
						"codeDepositCost": "201400",
						"executionCost": "24512",
						"totalCost": "225912"
					},
					"external": {
						"balances(address)": "2792",
						"deposit()": "infinite",
						"takeOut()": "infinite"
					}
				},
				"methodIdentifiers": {
					"balances(address)": "27e235e3",
					"deposit()": "d0e30db0",
					"takeOut()": "6faf0397"
				}
			},
			"storageLayout": {
				"storage": [
					{
						"astId": 5,
						"contract": "bootcamp/week9/day_3_block_Reentrancy_Attack.sol:debug",
						"label": "balances",
						"offset": 0,
						"slot": "0",
						"type": "t_mapping(t_address,t_uint256)"
					},
					{
						"astId": 8,
						"contract": "bootcamp/week9/day_3_block_Reentrancy_Attack.sol:debug",
						"label": "started",
						"offset": 0,
						"slot": "1",
						"type": "t_bool"
					}
				],
				"types": {
					"t_address": {
						"encoding": "inplace",
						"label": "address",
						"numberOfBytes": "20"
					},
					"t_bool": {
						"encoding": "inplace",
						"label": "bool",
						"numberOfBytes": "1"
					},
					"t_mapping(t_address,t_uint256)": {
						"encoding": "mapping",
						"key": "t_address",
						"label": "mapping(address => uint256)",
						"numberOfBytes": "32",
						"value": "t_uint256"
					},
					"t_uint256": {
						"encoding": "inplace",
						"label": "uint256",
						"numberOfBytes": "32"
					}
				}
			},
			"userdoc": {
				"kind": "user",
				"methods": {},
				"version": 1
			}
		}
	}
}