{
	"timer/timer.sol": {
		"timer": {
			"abi": [
				{
					"inputs": [
						{
							"internalType": "uint256",
							"name": "timeLeft",
							"type": "uint256"
						}
					],
					"name": "end",
					"outputs": [
						{
							"internalType": "uint256",
							"name": "",
							"type": "uint256"
						}
					],
					"stateMutability": "nonpayable",
					"type": "function"
				},
				{
					"inputs": [],
					"name": "remainingTime",
					"outputs": [
						{
							"internalType": "uint256",
							"name": "",
							"type": "uint256"
						}
					],
					"stateMutability": "view",
					"type": "function"
				},
				{
					"inputs": [],
					"name": "start",
					"outputs": [
						{
							"internalType": "uint256",
							"name": "",
							"type": "uint256"
						}
					],
					"stateMutability": "nonpayable",
					"type": "function"
				}
			],
			"devdoc": {
				"kind": "dev",
				"methods": {},
				"version": 1
			},
			"evm": {
				"assembly": "    /* \"timer/timer.sol\":59:431  contract timer {... */\n  mstore(0x40, 0x80)\n  callvalue\n  dup1\n  iszero\n  tag_1\n  jumpi\n  0x00\n  dup1\n  revert\ntag_1:\n  pop\n  dataSize(sub_0)\n  dup1\n  dataOffset(sub_0)\n  0x00\n  codecopy\n  0x00\n  return\nstop\n\nsub_0: assembly {\n        /* \"timer/timer.sol\":59:431  contract timer {... */\n      mstore(0x40, 0x80)\n      callvalue\n      dup1\n      iszero\n      tag_1\n      jumpi\n      0x00\n      dup1\n      revert\n    tag_1:\n      pop\n      jumpi(tag_2, lt(calldatasize, 0x04))\n      shr(0xe0, calldataload(0x00))\n      dup1\n      0x0ad24528\n      eq\n      tag_3\n      jumpi\n      dup1\n      0xacc4bd08\n      eq\n      tag_4\n      jumpi\n      dup1\n      0xbe9a6555\n      eq\n      tag_5\n      jumpi\n    tag_2:\n      0x00\n      dup1\n      revert\n        /* \"timer/timer.sol\":223:321  function end(uint timeLeft) public returns (uint) {... */\n    tag_3:\n      tag_6\n      0x04\n      dup1\n      calldatasize\n      sub\n      dup2\n      add\n      swap1\n      tag_7\n      swap2\n      swap1\n      tag_8\n      jump\t// in\n    tag_7:\n      tag_9\n      jump\t// in\n    tag_6:\n      mload(0x40)\n      tag_10\n      swap2\n      swap1\n      tag_11\n      jump\t// in\n    tag_10:\n      mload(0x40)\n      dup1\n      swap2\n      sub\n      swap1\n      return\n        /* \"timer/timer.sol\":330:429  function remainingTime() public  view returns (uint) {... */\n    tag_4:\n      tag_12\n      tag_13\n      jump\t// in\n    tag_12:\n      mload(0x40)\n      tag_14\n      swap2\n      swap1\n      tag_11\n      jump\t// in\n    tag_14:\n      mload(0x40)\n      dup1\n      swap2\n      sub\n      swap1\n      return\n        /* \"timer/timer.sol\":130:217  function start() public returns (uint) {... */\n    tag_5:\n      tag_15\n      tag_16\n      jump\t// in\n    tag_15:\n      mload(0x40)\n      tag_17\n      swap2\n      swap1\n      tag_11\n      jump\t// in\n    tag_17:\n      mload(0x40)\n      dup1\n      swap2\n      sub\n      swap1\n      return\n        /* \"timer/timer.sol\":223:321  function end(uint timeLeft) public returns (uint) {... */\n    tag_9:\n        /* \"timer/timer.sol\":267:271  uint */\n      0x00\n        /* \"timer/timer.sol\":308:314  _start */\n      dup1\n      sload\n        /* \"timer/timer.sol\":297:305  timeLeft */\n      dup3\n        /* \"timer/timer.sol\":297:314  timeLeft + _start */\n      tag_19\n      swap2\n      swap1\n      tag_20\n      jump\t// in\n    tag_19:\n        /* \"timer/timer.sol\":290:294  _end */\n      0x01\n        /* \"timer/timer.sol\":290:314  _end = timeLeft + _start */\n      dup2\n      swap1\n      sstore\n        /* \"timer/timer.sol\":283:314  return _end = timeLeft + _start */\n      swap1\n      pop\n        /* \"timer/timer.sol\":223:321  function end(uint timeLeft) public returns (uint) {... */\n      swap2\n      swap1\n      pop\n      jump\t// out\n        /* \"timer/timer.sol\":330:429  function remainingTime() public  view returns (uint) {... */\n    tag_13:\n        /* \"timer/timer.sol\":377:381  uint */\n      0x00\n        /* \"timer/timer.sol\":407:422  block.timestamp */\n      timestamp\n        /* \"timer/timer.sol\":400:404  _end */\n      sload(0x01)\n        /* \"timer/timer.sol\":400:422  _end - block.timestamp */\n      tag_22\n      swap2\n      swap1\n      tag_23\n      jump\t// in\n    tag_22:\n        /* \"timer/timer.sol\":393:422  return _end - block.timestamp */\n      swap1\n      pop\n        /* \"timer/timer.sol\":330:429  function remainingTime() public  view returns (uint) {... */\n      swap1\n      jump\t// out\n        /* \"timer/timer.sol\":130:217  function start() public returns (uint) {... */\n    tag_16:\n        /* \"timer/timer.sol\":163:167  uint */\n      0x00\n        /* \"timer/timer.sol\":195:210  block.timestamp */\n      timestamp\n        /* \"timer/timer.sol\":186:192  _start */\n      0x00\n        /* \"timer/timer.sol\":186:210  _start = block.timestamp */\n      dup2\n      swap1\n      sstore\n        /* \"timer/timer.sol\":179:210  return _start = block.timestamp */\n      swap1\n      pop\n        /* \"timer/timer.sol\":130:217  function start() public returns (uint) {... */\n      swap1\n      jump\t// out\n        /* \"#utility.yul\":88:205   */\n    tag_26:\n        /* \"#utility.yul\":197:198   */\n      0x00\n        /* \"#utility.yul\":194:195   */\n      dup1\n        /* \"#utility.yul\":187:199   */\n      revert\n        /* \"#utility.yul\":334:411   */\n    tag_28:\n        /* \"#utility.yul\":371:378   */\n      0x00\n        /* \"#utility.yul\":400:405   */\n      dup2\n        /* \"#utility.yul\":389:405   */\n      swap1\n      pop\n        /* \"#utility.yul\":334:411   */\n      swap2\n      swap1\n      pop\n      jump\t// out\n        /* \"#utility.yul\":417:539   */\n    tag_29:\n        /* \"#utility.yul\":490:514   */\n      tag_39\n        /* \"#utility.yul\":508:513   */\n      dup2\n        /* \"#utility.yul\":490:514   */\n      tag_28\n      jump\t// in\n    tag_39:\n        /* \"#utility.yul\":483:488   */\n      dup2\n        /* \"#utility.yul\":480:515   */\n      eq\n        /* \"#utility.yul\":470:533   */\n      tag_40\n      jumpi\n        /* \"#utility.yul\":529:530   */\n      0x00\n        /* \"#utility.yul\":526:527   */\n      dup1\n        /* \"#utility.yul\":519:531   */\n      revert\n        /* \"#utility.yul\":470:533   */\n    tag_40:\n        /* \"#utility.yul\":417:539   */\n      pop\n      jump\t// out\n        /* \"#utility.yul\":545:684   */\n    tag_30:\n        /* \"#utility.yul\":591:596   */\n      0x00\n        /* \"#utility.yul\":629:635   */\n      dup2\n        /* \"#utility.yul\":616:636   */\n      calldataload\n        /* \"#utility.yul\":607:636   */\n      swap1\n      pop\n        /* \"#utility.yul\":645:678   */\n      tag_42\n        /* \"#utility.yul\":672:677   */\n      dup2\n        /* \"#utility.yul\":645:678   */\n      tag_29\n      jump\t// in\n    tag_42:\n        /* \"#utility.yul\":545:684   */\n      swap3\n      swap2\n      pop\n      pop\n      jump\t// out\n        /* \"#utility.yul\":690:1019   */\n    tag_8:\n        /* \"#utility.yul\":749:755   */\n      0x00\n        /* \"#utility.yul\":798:800   */\n      0x20\n        /* \"#utility.yul\":786:795   */\n      dup3\n        /* \"#utility.yul\":777:784   */\n      dup5\n        /* \"#utility.yul\":773:796   */\n      sub\n        /* \"#utility.yul\":769:801   */\n      slt\n        /* \"#utility.yul\":766:885   */\n      iszero\n      tag_44\n      jumpi\n        /* \"#utility.yul\":804:883   */\n      tag_45\n      tag_26\n      jump\t// in\n    tag_45:\n        /* \"#utility.yul\":766:885   */\n    tag_44:\n        /* \"#utility.yul\":924:925   */\n      0x00\n        /* \"#utility.yul\":949:1002   */\n      tag_46\n        /* \"#utility.yul\":994:1001   */\n      dup5\n        /* \"#utility.yul\":985:991   */\n      dup3\n        /* \"#utility.yul\":974:983   */\n      dup6\n        /* \"#utility.yul\":970:992   */\n      add\n        /* \"#utility.yul\":949:1002   */\n      tag_30\n      jump\t// in\n    tag_46:\n        /* \"#utility.yul\":939:1002   */\n      swap2\n      pop\n        /* \"#utility.yul\":895:1012   */\n      pop\n        /* \"#utility.yul\":690:1019   */\n      swap3\n      swap2\n      pop\n      pop\n      jump\t// out\n        /* \"#utility.yul\":1025:1143   */\n    tag_31:\n        /* \"#utility.yul\":1112:1136   */\n      tag_48\n        /* \"#utility.yul\":1130:1135   */\n      dup2\n        /* \"#utility.yul\":1112:1136   */\n      tag_28\n      jump\t// in\n    tag_48:\n        /* \"#utility.yul\":1107:1110   */\n      dup3\n        /* \"#utility.yul\":1100:1137   */\n      mstore\n        /* \"#utility.yul\":1025:1143   */\n      pop\n      pop\n      jump\t// out\n        /* \"#utility.yul\":1149:1371   */\n    tag_11:\n        /* \"#utility.yul\":1242:1246   */\n      0x00\n        /* \"#utility.yul\":1280:1282   */\n      0x20\n        /* \"#utility.yul\":1269:1278   */\n      dup3\n        /* \"#utility.yul\":1265:1283   */\n      add\n        /* \"#utility.yul\":1257:1283   */\n      swap1\n      pop\n        /* \"#utility.yul\":1293:1364   */\n      tag_50\n        /* \"#utility.yul\":1361:1362   */\n      0x00\n        /* \"#utility.yul\":1350:1359   */\n      dup4\n        /* \"#utility.yul\":1346:1363   */\n      add\n        /* \"#utility.yul\":1337:1343   */\n      dup5\n        /* \"#utility.yul\":1293:1364   */\n      tag_31\n      jump\t// in\n    tag_50:\n        /* \"#utility.yul\":1149:1371   */\n      swap3\n      swap2\n      pop\n      pop\n      jump\t// out\n        /* \"#utility.yul\":1377:1557   */\n    tag_32:\n        /* \"#utility.yul\":1425:1502   */\n      0x4e487b7100000000000000000000000000000000000000000000000000000000\n        /* \"#utility.yul\":1422:1423   */\n      0x00\n        /* \"#utility.yul\":1415:1503   */\n      mstore\n        /* \"#utility.yul\":1522:1526   */\n      0x11\n        /* \"#utility.yul\":1519:1520   */\n      0x04\n        /* \"#utility.yul\":1512:1527   */\n      mstore\n        /* \"#utility.yul\":1546:1550   */\n      0x24\n        /* \"#utility.yul\":1543:1544   */\n      0x00\n        /* \"#utility.yul\":1536:1551   */\n      revert\n        /* \"#utility.yul\":1563:1754   */\n    tag_20:\n        /* \"#utility.yul\":1603:1606   */\n      0x00\n        /* \"#utility.yul\":1622:1642   */\n      tag_53\n        /* \"#utility.yul\":1640:1641   */\n      dup3\n        /* \"#utility.yul\":1622:1642   */\n      tag_28\n      jump\t// in\n    tag_53:\n        /* \"#utility.yul\":1617:1642   */\n      swap2\n      pop\n        /* \"#utility.yul\":1656:1676   */\n      tag_54\n        /* \"#utility.yul\":1674:1675   */\n      dup4\n        /* \"#utility.yul\":1656:1676   */\n      tag_28\n      jump\t// in\n    tag_54:\n        /* \"#utility.yul\":1651:1676   */\n      swap3\n      pop\n        /* \"#utility.yul\":1699:1700   */\n      dup3\n        /* \"#utility.yul\":1696:1697   */\n      dup3\n        /* \"#utility.yul\":1692:1701   */\n      add\n        /* \"#utility.yul\":1685:1701   */\n      swap1\n      pop\n        /* \"#utility.yul\":1720:1723   */\n      dup1\n        /* \"#utility.yul\":1717:1718   */\n      dup3\n        /* \"#utility.yul\":1714:1724   */\n      gt\n        /* \"#utility.yul\":1711:1747   */\n      iszero\n      tag_55\n      jumpi\n        /* \"#utility.yul\":1727:1745   */\n      tag_56\n      tag_32\n      jump\t// in\n    tag_56:\n        /* \"#utility.yul\":1711:1747   */\n    tag_55:\n        /* \"#utility.yul\":1563:1754   */\n      swap3\n      swap2\n      pop\n      pop\n      jump\t// out\n        /* \"#utility.yul\":1760:1954   */\n    tag_23:\n        /* \"#utility.yul\":1800:1804   */\n      0x00\n        /* \"#utility.yul\":1820:1840   */\n      tag_58\n        /* \"#utility.yul\":1838:1839   */\n      dup3\n        /* \"#utility.yul\":1820:1840   */\n      tag_28\n      jump\t// in\n    tag_58:\n        /* \"#utility.yul\":1815:1840   */\n      swap2\n      pop\n        /* \"#utility.yul\":1854:1874   */\n      tag_59\n        /* \"#utility.yul\":1872:1873   */\n      dup4\n        /* \"#utility.yul\":1854:1874   */\n      tag_28\n      jump\t// in\n    tag_59:\n        /* \"#utility.yul\":1849:1874   */\n      swap3\n      pop\n        /* \"#utility.yul\":1898:1899   */\n      dup3\n        /* \"#utility.yul\":1895:1896   */\n      dup3\n        /* \"#utility.yul\":1891:1900   */\n      sub\n        /* \"#utility.yul\":1883:1900   */\n      swap1\n      pop\n        /* \"#utility.yul\":1922:1923   */\n      dup2\n        /* \"#utility.yul\":1916:1920   */\n      dup2\n        /* \"#utility.yul\":1913:1924   */\n      gt\n        /* \"#utility.yul\":1910:1947   */\n      iszero\n      tag_60\n      jumpi\n        /* \"#utility.yul\":1927:1945   */\n      tag_61\n      tag_32\n      jump\t// in\n    tag_61:\n        /* \"#utility.yul\":1910:1947   */\n    tag_60:\n        /* \"#utility.yul\":1760:1954   */\n      swap3\n      swap2\n      pop\n      pop\n      jump\t// out\n\n    auxdata: 0xa26469706673582212207b0545a2821148937f5cfffdd7c1650fce966d6ab2d08b62c206e4791f94e09564736f6c63430008110033\n}\n",
				"bytecode": {
					"linkReferences": {},
					"object": "608060405234801561001057600080fd5b5061024e806100206000396000f3fe608060405234801561001057600080fd5b50600436106100415760003560e01c80630ad2452814610046578063acc4bd0814610076578063be9a655514610094575b600080fd5b610060600480360381019061005b919061012a565b6100b2565b60405161006d9190610166565b60405180910390f35b61007e6100cd565b60405161008b9190610166565b60405180910390f35b61009c6100e2565b6040516100a99190610166565b60405180910390f35b60008054826100c191906101b0565b60018190559050919050565b6000426001546100dd91906101e4565b905090565b6000426000819055905090565b600080fd5b6000819050919050565b610107816100f4565b811461011257600080fd5b50565b600081359050610124816100fe565b92915050565b6000602082840312156101405761013f6100ef565b5b600061014e84828501610115565b91505092915050565b610160816100f4565b82525050565b600060208201905061017b6000830184610157565b92915050565b7f4e487b7100000000000000000000000000000000000000000000000000000000600052601160045260246000fd5b60006101bb826100f4565b91506101c6836100f4565b92508282019050808211156101de576101dd610181565b5b92915050565b60006101ef826100f4565b91506101fa836100f4565b925082820390508181111561021257610211610181565b5b9291505056fea26469706673582212207b0545a2821148937f5cfffdd7c1650fce966d6ab2d08b62c206e4791f94e09564736f6c63430008110033",
					"opcodes": "PUSH1 0x80 PUSH1 0x40 MSTORE CALLVALUE DUP1 ISZERO PUSH2 0x10 JUMPI PUSH1 0x0 DUP1 REVERT JUMPDEST POP PUSH2 0x24E DUP1 PUSH2 0x20 PUSH1 0x0 CODECOPY PUSH1 0x0 RETURN INVALID PUSH1 0x80 PUSH1 0x40 MSTORE CALLVALUE DUP1 ISZERO PUSH2 0x10 JUMPI PUSH1 0x0 DUP1 REVERT JUMPDEST POP PUSH1 0x4 CALLDATASIZE LT PUSH2 0x41 JUMPI PUSH1 0x0 CALLDATALOAD PUSH1 0xE0 SHR DUP1 PUSH4 0xAD24528 EQ PUSH2 0x46 JUMPI DUP1 PUSH4 0xACC4BD08 EQ PUSH2 0x76 JUMPI DUP1 PUSH4 0xBE9A6555 EQ PUSH2 0x94 JUMPI JUMPDEST PUSH1 0x0 DUP1 REVERT JUMPDEST PUSH2 0x60 PUSH1 0x4 DUP1 CALLDATASIZE SUB DUP2 ADD SWAP1 PUSH2 0x5B SWAP2 SWAP1 PUSH2 0x12A JUMP JUMPDEST PUSH2 0xB2 JUMP JUMPDEST PUSH1 0x40 MLOAD PUSH2 0x6D SWAP2 SWAP1 PUSH2 0x166 JUMP JUMPDEST PUSH1 0x40 MLOAD DUP1 SWAP2 SUB SWAP1 RETURN JUMPDEST PUSH2 0x7E PUSH2 0xCD JUMP JUMPDEST PUSH1 0x40 MLOAD PUSH2 0x8B SWAP2 SWAP1 PUSH2 0x166 JUMP JUMPDEST PUSH1 0x40 MLOAD DUP1 SWAP2 SUB SWAP1 RETURN JUMPDEST PUSH2 0x9C PUSH2 0xE2 JUMP JUMPDEST PUSH1 0x40 MLOAD PUSH2 0xA9 SWAP2 SWAP1 PUSH2 0x166 JUMP JUMPDEST PUSH1 0x40 MLOAD DUP1 SWAP2 SUB SWAP1 RETURN JUMPDEST PUSH1 0x0 DUP1 SLOAD DUP3 PUSH2 0xC1 SWAP2 SWAP1 PUSH2 0x1B0 JUMP JUMPDEST PUSH1 0x1 DUP2 SWAP1 SSTORE SWAP1 POP SWAP2 SWAP1 POP JUMP JUMPDEST PUSH1 0x0 TIMESTAMP PUSH1 0x1 SLOAD PUSH2 0xDD SWAP2 SWAP1 PUSH2 0x1E4 JUMP JUMPDEST SWAP1 POP SWAP1 JUMP JUMPDEST PUSH1 0x0 TIMESTAMP PUSH1 0x0 DUP2 SWAP1 SSTORE SWAP1 POP SWAP1 JUMP JUMPDEST PUSH1 0x0 DUP1 REVERT JUMPDEST PUSH1 0x0 DUP2 SWAP1 POP SWAP2 SWAP1 POP JUMP JUMPDEST PUSH2 0x107 DUP2 PUSH2 0xF4 JUMP JUMPDEST DUP2 EQ PUSH2 0x112 JUMPI PUSH1 0x0 DUP1 REVERT JUMPDEST POP JUMP JUMPDEST PUSH1 0x0 DUP2 CALLDATALOAD SWAP1 POP PUSH2 0x124 DUP2 PUSH2 0xFE JUMP JUMPDEST SWAP3 SWAP2 POP POP JUMP JUMPDEST PUSH1 0x0 PUSH1 0x20 DUP3 DUP5 SUB SLT ISZERO PUSH2 0x140 JUMPI PUSH2 0x13F PUSH2 0xEF JUMP JUMPDEST JUMPDEST PUSH1 0x0 PUSH2 0x14E DUP5 DUP3 DUP6 ADD PUSH2 0x115 JUMP JUMPDEST SWAP2 POP POP SWAP3 SWAP2 POP POP JUMP JUMPDEST PUSH2 0x160 DUP2 PUSH2 0xF4 JUMP JUMPDEST DUP3 MSTORE POP POP JUMP JUMPDEST PUSH1 0x0 PUSH1 0x20 DUP3 ADD SWAP1 POP PUSH2 0x17B PUSH1 0x0 DUP4 ADD DUP5 PUSH2 0x157 JUMP JUMPDEST SWAP3 SWAP2 POP POP JUMP JUMPDEST PUSH32 0x4E487B7100000000000000000000000000000000000000000000000000000000 PUSH1 0x0 MSTORE PUSH1 0x11 PUSH1 0x4 MSTORE PUSH1 0x24 PUSH1 0x0 REVERT JUMPDEST PUSH1 0x0 PUSH2 0x1BB DUP3 PUSH2 0xF4 JUMP JUMPDEST SWAP2 POP PUSH2 0x1C6 DUP4 PUSH2 0xF4 JUMP JUMPDEST SWAP3 POP DUP3 DUP3 ADD SWAP1 POP DUP1 DUP3 GT ISZERO PUSH2 0x1DE JUMPI PUSH2 0x1DD PUSH2 0x181 JUMP JUMPDEST JUMPDEST SWAP3 SWAP2 POP POP JUMP JUMPDEST PUSH1 0x0 PUSH2 0x1EF DUP3 PUSH2 0xF4 JUMP JUMPDEST SWAP2 POP PUSH2 0x1FA DUP4 PUSH2 0xF4 JUMP JUMPDEST SWAP3 POP DUP3 DUP3 SUB SWAP1 POP DUP2 DUP2 GT ISZERO PUSH2 0x212 JUMPI PUSH2 0x211 PUSH2 0x181 JUMP JUMPDEST JUMPDEST SWAP3 SWAP2 POP POP JUMP INVALID LOG2 PUSH5 0x6970667358 0x22 SLT KECCAK256 PUSH28 0x545A2821148937F5CFFFDD7C1650FCE966D6AB2D08B62C206E4791F SWAP5 0xE0 SWAP6 PUSH5 0x736F6C6343 STOP ADDMOD GT STOP CALLER "
				},
				"gasEstimates": {
					"creation": {
						"codeDepositCost": "118000",
						"executionCost": "165",
						"totalCost": "118165"
					},
					"external": {
						"end(uint256)": "infinite",
						"remainingTime()": "infinite",
						"start()": "22467"
					}
				},
				"methodIdentifiers": {
					"end(uint256)": "0ad24528",
					"remainingTime()": "acc4bd08",
					"start()": "be9a6555"
				}
			},
			"storageLayout": {
				"storage": [
					{
						"astId": 3,
						"contract": "timer/timer.sol:timer",
						"label": "_start",
						"offset": 0,
						"slot": "0",
						"type": "t_uint256"
					},
					{
						"astId": 5,
						"contract": "timer/timer.sol:timer",
						"label": "_end",
						"offset": 0,
						"slot": "1",
						"type": "t_uint256"
					}
				],
				"types": {
					"t_uint256": {
						"encoding": "inplace",
						"label": "uint256",
						"numberOfBytes": "32"
					}
				}
			},
			"userdoc": {
				"kind": "user",
				"methods": {},
				"version": 1
			}
		}
	}
}