{
	"bootcamp/week7/day_1_marketplaceItem1.sol": {
		"marketplaceItem1": {
			"abi": [
				{
					"inputs": [
						{
							"internalType": "address",
							"name": "",
							"type": "address"
						}
					],
					"name": "alreadyBought",
					"outputs": [
						{
							"internalType": "bool",
							"name": "",
							"type": "bool"
						}
					],
					"stateMutability": "view",
					"type": "function"
				},
				{
					"inputs": [],
					"name": "getCurrentPriceOfETH",
					"outputs": [
						{
							"internalType": "int256",
							"name": "",
							"type": "int256"
						}
					],
					"stateMutability": "view",
					"type": "function"
				},
				{
					"inputs": [],
					"name": "getPriceOfETH",
					"outputs": [
						{
							"internalType": "int256",
							"name": "",
							"type": "int256"
						}
					],
					"stateMutability": "view",
					"type": "function"
				},
				{
					"inputs": [],
					"name": "owner",
					"outputs": [
						{
							"internalType": "address",
							"name": "",
							"type": "address"
						}
					],
					"stateMutability": "view",
					"type": "function"
				},
				{
					"inputs": [],
					"name": "payInEth",
					"outputs": [
						{
							"internalType": "bool",
							"name": "",
							"type": "bool"
						}
					],
					"stateMutability": "payable",
					"type": "function"
				},
				{
					"inputs": [],
					"name": "payInUSDC",
					"outputs": [
						{
							"internalType": "bool",
							"name": "",
							"type": "bool"
						}
					],
					"stateMutability": "nonpayable",
					"type": "function"
				},
				{
					"inputs": [],
					"name": "payInUSDT",
					"outputs": [
						{
							"internalType": "bool",
							"name": "",
							"type": "bool"
						}
					],
					"stateMutability": "nonpayable",
					"type": "function"
				},
				{
					"inputs": [],
					"name": "price",
					"outputs": [
						{
							"internalType": "uint256",
							"name": "",
							"type": "uint256"
						}
					],
					"stateMutability": "view",
					"type": "function"
				},
				{
					"inputs": [],
					"name": "usdcTestToken",
					"outputs": [
						{
							"internalType": "contract IERC20",
							"name": "",
							"type": "address"
						}
					],
					"stateMutability": "view",
					"type": "function"
				},
				{
					"inputs": [],
					"name": "usdtTestToken",
					"outputs": [
						{
							"internalType": "contract IERC20",
							"name": "",
							"type": "address"
						}
					],
					"stateMutability": "view",
					"type": "function"
				}
			],
			"devdoc": {
				"kind": "dev",
				"methods": {},
				"version": 1
			},
			"evm": {
				"assembly": "    /* \"bootcamp/week7/day_1_marketplaceItem1.sol\":245:2008  contract marketplaceItem1 {... */\n  mstore(0x40, 0x80)\n    /* \"bootcamp/week7/day_1_marketplaceItem1.sol\":343:385  0xD4a33860578De61DBAbDc8BFdb98FD742fA7028e */\n  0xd4a33860578de61dbabdc8bfdb98fd742fa7028e\n    /* \"bootcamp/week7/day_1_marketplaceItem1.sol\":278:386  AggregatorV3Interface internal priceFeed = AggregatorV3Interface(0xD4a33860578De61DBAbDc8BFdb98FD742fA7028e) */\n  0x00\n  dup1\n  0x0100\n  exp\n  dup2\n  sload\n  dup2\n  0xffffffffffffffffffffffffffffffffffffffff\n  mul\n  not\n  and\n  swap1\n  dup4\n  0xffffffffffffffffffffffffffffffffffffffff\n  and\n  mul\n  or\n  swap1\n  sstore\n  pop\n    /* \"bootcamp/week7/day_1_marketplaceItem1.sol\":465:476  10 * 10**18 */\n  0x8ac7230489e80000\n    /* \"bootcamp/week7/day_1_marketplaceItem1.sol\":445:476  uint public price = 10 * 10**18 */\n  0x02\n  sstore\n    /* \"bootcamp/week7/day_1_marketplaceItem1.sol\":513:523  msg.sender */\n  caller\n    /* \"bootcamp/week7/day_1_marketplaceItem1.sol\":482:524  address public owner = payable(msg.sender) */\n  0x03\n  exp(0x0100, 0x00)\n  dup2\n  sload\n  dup2\n  0xffffffffffffffffffffffffffffffffffffffff\n  mul\n  not\n  and\n  swap1\n  dup4\n  0xffffffffffffffffffffffffffffffffffffffff\n  and\n  mul\n  or\n  swap1\n  sstore\n  pop\n    /* \"bootcamp/week7/day_1_marketplaceItem1.sol\":568:610  0xd9145CCE52D386f254917e481eB44e9943F39138 */\n  0xd9145cce52d386f254917e481eb44e9943f39138\n    /* \"bootcamp/week7/day_1_marketplaceItem1.sol\":531:611  IERC20 public usdcTestToken = IERC20(0xd9145CCE52D386f254917e481eB44e9943F39138) */\n  0x04\n  exp(0x0100, 0x00)\n  dup2\n  sload\n  dup2\n  0xffffffffffffffffffffffffffffffffffffffff\n  mul\n  not\n  and\n  swap1\n  dup4\n  0xffffffffffffffffffffffffffffffffffffffff\n  and\n  mul\n  or\n  swap1\n  sstore\n  pop\n    /* \"bootcamp/week7/day_1_marketplaceItem1.sol\":654:696  0xd8b934580fcE35a11B58C6D73aDeE468a2833fa8 */\n  0xd8b934580fce35a11b58c6d73adee468a2833fa8\n    /* \"bootcamp/week7/day_1_marketplaceItem1.sol\":617:697  IERC20 public usdtTestToken = IERC20(0xd8b934580fcE35a11B58C6D73aDeE468a2833fa8) */\n  0x05\n  exp(0x0100, 0x00)\n  dup2\n  sload\n  dup2\n  0xffffffffffffffffffffffffffffffffffffffff\n  mul\n  not\n  and\n  swap1\n  dup4\n  0xffffffffffffffffffffffffffffffffffffffff\n  and\n  mul\n  or\n  swap1\n  sstore\n  pop\n    /* \"bootcamp/week7/day_1_marketplaceItem1.sol\":245:2008  contract marketplaceItem1 {... */\n  callvalue\n  dup1\n  iszero\n  tag_1\n  jumpi\n  0x00\n  dup1\n  revert\ntag_1:\n  pop\n  dataSize(sub_0)\n  dup1\n  dataOffset(sub_0)\n  0x00\n  codecopy\n  0x00\n  return\nstop\n\nsub_0: assembly {\n        /* \"bootcamp/week7/day_1_marketplaceItem1.sol\":245:2008  contract marketplaceItem1 {... */\n      mstore(0x40, 0x80)\n      jumpi(tag_1, lt(calldatasize, 0x04))\n      shr(0xe0, calldataload(0x00))\n      dup1\n      0x906798f8\n      gt\n      tag_12\n      jumpi\n      dup1\n      0x906798f8\n      eq\n      tag_7\n      jumpi\n      dup1\n      0xa035b1fe\n      eq\n      tag_8\n      jumpi\n      dup1\n      0xaef691e9\n      eq\n      tag_9\n      jumpi\n      dup1\n      0xcb44bd05\n      eq\n      tag_10\n      jumpi\n      dup1\n      0xfba931b4\n      eq\n      tag_11\n      jumpi\n      jump(tag_1)\n    tag_12:\n      dup1\n      0x11023c79\n      eq\n      tag_2\n      jumpi\n      dup1\n      0x5b27f2a7\n      eq\n      tag_3\n      jumpi\n      dup1\n      0x82d3eef6\n      eq\n      tag_4\n      jumpi\n      dup1\n      0x8da5cb5b\n      eq\n      tag_5\n      jumpi\n      dup1\n      0x8e07c22a\n      eq\n      tag_6\n      jumpi\n    tag_1:\n      0x00\n      dup1\n      revert\n        /* \"bootcamp/week7/day_1_marketplaceItem1.sol\":704:983  function payInUSDC() public returns(bool){... */\n    tag_2:\n      callvalue\n      dup1\n      iszero\n      tag_13\n      jumpi\n      0x00\n      dup1\n      revert\n    tag_13:\n      pop\n      tag_14\n      tag_15\n      jump\t// in\n    tag_14:\n      mload(0x40)\n      tag_16\n      swap2\n      swap1\n      tag_17\n      jump\t// in\n    tag_16:\n      mload(0x40)\n      dup1\n      swap2\n      sub\n      swap1\n      return\n        /* \"bootcamp/week7/day_1_marketplaceItem1.sol\":393:439  mapping (address => bool) public alreadyBought */\n    tag_3:\n      callvalue\n      dup1\n      iszero\n      tag_18\n      jumpi\n      0x00\n      dup1\n      revert\n    tag_18:\n      pop\n      tag_19\n      0x04\n      dup1\n      calldatasize\n      sub\n      dup2\n      add\n      swap1\n      tag_20\n      swap2\n      swap1\n      tag_21\n      jump\t// in\n    tag_20:\n      tag_22\n      jump\t// in\n    tag_19:\n      mload(0x40)\n      tag_23\n      swap2\n      swap1\n      tag_17\n      jump\t// in\n    tag_23:\n      mload(0x40)\n      dup1\n      swap2\n      sub\n      swap1\n      return\n        /* \"bootcamp/week7/day_1_marketplaceItem1.sol\":989:1268  function payInUSDT() public returns(bool){... */\n    tag_4:\n      callvalue\n      dup1\n      iszero\n      tag_24\n      jumpi\n      0x00\n      dup1\n      revert\n    tag_24:\n      pop\n      tag_25\n      tag_26\n      jump\t// in\n    tag_25:\n      mload(0x40)\n      tag_27\n      swap2\n      swap1\n      tag_17\n      jump\t// in\n    tag_27:\n      mload(0x40)\n      dup1\n      swap2\n      sub\n      swap1\n      return\n        /* \"bootcamp/week7/day_1_marketplaceItem1.sol\":482:524  address public owner = payable(msg.sender) */\n    tag_5:\n      callvalue\n      dup1\n      iszero\n      tag_28\n      jumpi\n      0x00\n      dup1\n      revert\n    tag_28:\n      pop\n      tag_29\n      tag_30\n      jump\t// in\n    tag_29:\n      mload(0x40)\n      tag_31\n      swap2\n      swap1\n      tag_32\n      jump\t// in\n    tag_31:\n      mload(0x40)\n      dup1\n      swap2\n      sub\n      swap1\n      return\n        /* \"bootcamp/week7/day_1_marketplaceItem1.sol\":1274:1473  function getCurrentPriceOfETH() public view returns(int) {... */\n    tag_6:\n      callvalue\n      dup1\n      iszero\n      tag_33\n      jumpi\n      0x00\n      dup1\n      revert\n    tag_33:\n      pop\n      tag_34\n      tag_35\n      jump\t// in\n    tag_34:\n      mload(0x40)\n      tag_36\n      swap2\n      swap1\n      tag_37\n      jump\t// in\n    tag_36:\n      mload(0x40)\n      dup1\n      swap2\n      sub\n      swap1\n      return\n        /* \"bootcamp/week7/day_1_marketplaceItem1.sol\":617:697  IERC20 public usdtTestToken = IERC20(0xd8b934580fcE35a11B58C6D73aDeE468a2833fa8) */\n    tag_7:\n      callvalue\n      dup1\n      iszero\n      tag_38\n      jumpi\n      0x00\n      dup1\n      revert\n    tag_38:\n      pop\n      tag_39\n      tag_40\n      jump\t// in\n    tag_39:\n      mload(0x40)\n      tag_41\n      swap2\n      swap1\n      tag_42\n      jump\t// in\n    tag_41:\n      mload(0x40)\n      dup1\n      swap2\n      sub\n      swap1\n      return\n        /* \"bootcamp/week7/day_1_marketplaceItem1.sol\":445:476  uint public price = 10 * 10**18 */\n    tag_8:\n      callvalue\n      dup1\n      iszero\n      tag_43\n      jumpi\n      0x00\n      dup1\n      revert\n    tag_43:\n      pop\n      tag_44\n      tag_45\n      jump\t// in\n    tag_44:\n      mload(0x40)\n      tag_46\n      swap2\n      swap1\n      tag_47\n      jump\t// in\n    tag_46:\n      mload(0x40)\n      dup1\n      swap2\n      sub\n      swap1\n      return\n        /* \"bootcamp/week7/day_1_marketplaceItem1.sol\":1479:1588  function getPriceOfETH() public view returns(int) {... */\n    tag_9:\n      callvalue\n      dup1\n      iszero\n      tag_48\n      jumpi\n      0x00\n      dup1\n      revert\n    tag_48:\n      pop\n      tag_49\n      tag_50\n      jump\t// in\n    tag_49:\n      mload(0x40)\n      tag_51\n      swap2\n      swap1\n      tag_37\n      jump\t// in\n    tag_51:\n      mload(0x40)\n      dup1\n      swap2\n      sub\n      swap1\n      return\n        /* \"bootcamp/week7/day_1_marketplaceItem1.sol\":1622:2006  function payInEth() public payable returns(bool) {... */\n    tag_10:\n      tag_52\n      tag_53\n      jump\t// in\n    tag_52:\n      mload(0x40)\n      tag_54\n      swap2\n      swap1\n      tag_17\n      jump\t// in\n    tag_54:\n      mload(0x40)\n      dup1\n      swap2\n      sub\n      swap1\n      return\n        /* \"bootcamp/week7/day_1_marketplaceItem1.sol\":531:611  IERC20 public usdcTestToken = IERC20(0xd9145CCE52D386f254917e481eB44e9943F39138) */\n    tag_11:\n      callvalue\n      dup1\n      iszero\n      tag_55\n      jumpi\n      0x00\n      dup1\n      revert\n    tag_55:\n      pop\n      tag_56\n      tag_57\n      jump\t// in\n    tag_56:\n      mload(0x40)\n      tag_58\n      swap2\n      swap1\n      tag_42\n      jump\t// in\n    tag_58:\n      mload(0x40)\n      dup1\n      swap2\n      sub\n      swap1\n      return\n        /* \"bootcamp/week7/day_1_marketplaceItem1.sol\":704:983  function payInUSDC() public returns(bool){... */\n    tag_15:\n        /* \"bootcamp/week7/day_1_marketplaceItem1.sol\":740:744  bool */\n      0x00\n        /* \"bootcamp/week7/day_1_marketplaceItem1.sol\":792:797  false */\n      dup1\n        /* \"bootcamp/week7/day_1_marketplaceItem1.sol\":763:797  alreadyBought[msg.sender] == false */\n      iszero\n      iszero\n        /* \"bootcamp/week7/day_1_marketplaceItem1.sol\":763:776  alreadyBought */\n      0x01\n        /* \"bootcamp/week7/day_1_marketplaceItem1.sol\":763:788  alreadyBought[msg.sender] */\n      0x00\n        /* \"bootcamp/week7/day_1_marketplaceItem1.sol\":777:787  msg.sender */\n      caller\n        /* \"bootcamp/week7/day_1_marketplaceItem1.sol\":763:788  alreadyBought[msg.sender] */\n      0xffffffffffffffffffffffffffffffffffffffff\n      and\n      0xffffffffffffffffffffffffffffffffffffffff\n      and\n      dup2\n      mstore\n      0x20\n      add\n      swap1\n      dup2\n      mstore\n      0x20\n      add\n      0x00\n      keccak256\n      0x00\n      swap1\n      sload\n      swap1\n      0x0100\n      exp\n      swap1\n      div\n      0xff\n      and\n        /* \"bootcamp/week7/day_1_marketplaceItem1.sol\":763:797  alreadyBought[msg.sender] == false */\n      iszero\n      iszero\n      eq\n        /* \"bootcamp/week7/day_1_marketplaceItem1.sol\":755:830  require(alreadyBought[msg.sender] == false, \"You already bought this item\") */\n      tag_60\n      jumpi\n      mload(0x40)\n      0x08c379a000000000000000000000000000000000000000000000000000000000\n      dup2\n      mstore\n      0x04\n      add\n      tag_61\n      swap1\n      tag_62\n      jump\t// in\n    tag_61:\n      mload(0x40)\n      dup1\n      swap2\n      sub\n      swap1\n      revert\n    tag_60:\n        /* \"bootcamp/week7/day_1_marketplaceItem1.sol\":840:853  usdcTestToken */\n      0x04\n      0x00\n      swap1\n      sload\n      swap1\n      0x0100\n      exp\n      swap1\n      div\n      0xffffffffffffffffffffffffffffffffffffffff\n      and\n        /* \"bootcamp/week7/day_1_marketplaceItem1.sol\":840:866  usdcTestToken.transferFrom */\n      0xffffffffffffffffffffffffffffffffffffffff\n      and\n      0x23b872dd\n        /* \"bootcamp/week7/day_1_marketplaceItem1.sol\":867:877  msg.sender */\n      caller\n        /* \"bootcamp/week7/day_1_marketplaceItem1.sol\":879:884  owner */\n      0x03\n      0x00\n      swap1\n      sload\n      swap1\n      0x0100\n      exp\n      swap1\n      div\n      0xffffffffffffffffffffffffffffffffffffffff\n      and\n        /* \"bootcamp/week7/day_1_marketplaceItem1.sol\":886:891  price */\n      sload(0x02)\n        /* \"bootcamp/week7/day_1_marketplaceItem1.sol\":840:892  usdcTestToken.transferFrom(msg.sender, owner, price) */\n      mload(0x40)\n      dup5\n      0xffffffff\n      and\n      0xe0\n      shl\n      dup2\n      mstore\n      0x04\n      add\n      tag_63\n      swap4\n      swap3\n      swap2\n      swap1\n      tag_64\n      jump\t// in\n    tag_63:\n      0x20\n      mload(0x40)\n      dup1\n      dup4\n      sub\n      dup2\n      0x00\n      dup8\n      gas\n      call\n      iszero\n      dup1\n      iszero\n      tag_66\n      jumpi\n      returndatasize\n      0x00\n      dup1\n      returndatacopy\n      revert(0x00, returndatasize)\n    tag_66:\n      pop\n      pop\n      pop\n      pop\n      mload(0x40)\n      returndatasize\n      not(0x1f)\n      0x1f\n      dup3\n      add\n      and\n      dup3\n      add\n      dup1\n      0x40\n      mstore\n      pop\n      dup2\n      add\n      swap1\n      tag_67\n      swap2\n      swap1\n      tag_68\n      jump\t// in\n    tag_67:\n      pop\n        /* \"bootcamp/week7/day_1_marketplaceItem1.sol\":930:934  true */\n      0x01\n        /* \"bootcamp/week7/day_1_marketplaceItem1.sol\":902:915  alreadyBought */\n      dup1\n        /* \"bootcamp/week7/day_1_marketplaceItem1.sol\":902:927  alreadyBought[msg.sender] */\n      0x00\n        /* \"bootcamp/week7/day_1_marketplaceItem1.sol\":916:926  msg.sender */\n      caller\n        /* \"bootcamp/week7/day_1_marketplaceItem1.sol\":902:927  alreadyBought[msg.sender] */\n      0xffffffffffffffffffffffffffffffffffffffff\n      and\n      0xffffffffffffffffffffffffffffffffffffffff\n      and\n      dup2\n      mstore\n      0x20\n      add\n      swap1\n      dup2\n      mstore\n      0x20\n      add\n      0x00\n      keccak256\n      0x00\n        /* \"bootcamp/week7/day_1_marketplaceItem1.sol\":902:934  alreadyBought[msg.sender] = true */\n      0x0100\n      exp\n      dup2\n      sload\n      dup2\n      0xff\n      mul\n      not\n      and\n      swap1\n      dup4\n      iszero\n      iszero\n      mul\n      or\n      swap1\n      sstore\n      pop\n        /* \"bootcamp/week7/day_1_marketplaceItem1.sol\":951:964  alreadyBought */\n      0x01\n        /* \"bootcamp/week7/day_1_marketplaceItem1.sol\":951:976  alreadyBought[msg.sender] */\n      0x00\n        /* \"bootcamp/week7/day_1_marketplaceItem1.sol\":965:975  msg.sender */\n      caller\n        /* \"bootcamp/week7/day_1_marketplaceItem1.sol\":951:976  alreadyBought[msg.sender] */\n      0xffffffffffffffffffffffffffffffffffffffff\n      and\n      0xffffffffffffffffffffffffffffffffffffffff\n      and\n      dup2\n      mstore\n      0x20\n      add\n      swap1\n      dup2\n      mstore\n      0x20\n      add\n      0x00\n      keccak256\n      0x00\n      swap1\n      sload\n      swap1\n      0x0100\n      exp\n      swap1\n      div\n      0xff\n      and\n        /* \"bootcamp/week7/day_1_marketplaceItem1.sol\":944:976  return alreadyBought[msg.sender] */\n      swap1\n      pop\n        /* \"bootcamp/week7/day_1_marketplaceItem1.sol\":704:983  function payInUSDC() public returns(bool){... */\n      swap1\n      jump\t// out\n        /* \"bootcamp/week7/day_1_marketplaceItem1.sol\":393:439  mapping (address => bool) public alreadyBought */\n    tag_22:\n      mstore(0x20, 0x01)\n      dup1\n      0x00\n      mstore\n      keccak256(0x00, 0x40)\n      0x00\n      swap2\n      pop\n      sload\n      swap1\n      0x0100\n      exp\n      swap1\n      div\n      0xff\n      and\n      dup2\n      jump\t// out\n        /* \"bootcamp/week7/day_1_marketplaceItem1.sol\":989:1268  function payInUSDT() public returns(bool){... */\n    tag_26:\n        /* \"bootcamp/week7/day_1_marketplaceItem1.sol\":1025:1029  bool */\n      0x00\n        /* \"bootcamp/week7/day_1_marketplaceItem1.sol\":1077:1082  false */\n      dup1\n        /* \"bootcamp/week7/day_1_marketplaceItem1.sol\":1048:1082  alreadyBought[msg.sender] == false */\n      iszero\n      iszero\n        /* \"bootcamp/week7/day_1_marketplaceItem1.sol\":1048:1061  alreadyBought */\n      0x01\n        /* \"bootcamp/week7/day_1_marketplaceItem1.sol\":1048:1073  alreadyBought[msg.sender] */\n      0x00\n        /* \"bootcamp/week7/day_1_marketplaceItem1.sol\":1062:1072  msg.sender */\n      caller\n        /* \"bootcamp/week7/day_1_marketplaceItem1.sol\":1048:1073  alreadyBought[msg.sender] */\n      0xffffffffffffffffffffffffffffffffffffffff\n      and\n      0xffffffffffffffffffffffffffffffffffffffff\n      and\n      dup2\n      mstore\n      0x20\n      add\n      swap1\n      dup2\n      mstore\n      0x20\n      add\n      0x00\n      keccak256\n      0x00\n      swap1\n      sload\n      swap1\n      0x0100\n      exp\n      swap1\n      div\n      0xff\n      and\n        /* \"bootcamp/week7/day_1_marketplaceItem1.sol\":1048:1082  alreadyBought[msg.sender] == false */\n      iszero\n      iszero\n      eq\n        /* \"bootcamp/week7/day_1_marketplaceItem1.sol\":1040:1115  require(alreadyBought[msg.sender] == false, \"You already bought this item\") */\n      tag_70\n      jumpi\n      mload(0x40)\n      0x08c379a000000000000000000000000000000000000000000000000000000000\n      dup2\n      mstore\n      0x04\n      add\n      tag_71\n      swap1\n      tag_62\n      jump\t// in\n    tag_71:\n      mload(0x40)\n      dup1\n      swap2\n      sub\n      swap1\n      revert\n    tag_70:\n        /* \"bootcamp/week7/day_1_marketplaceItem1.sol\":1125:1138  usdtTestToken */\n      0x05\n      0x00\n      swap1\n      sload\n      swap1\n      0x0100\n      exp\n      swap1\n      div\n      0xffffffffffffffffffffffffffffffffffffffff\n      and\n        /* \"bootcamp/week7/day_1_marketplaceItem1.sol\":1125:1151  usdtTestToken.transferFrom */\n      0xffffffffffffffffffffffffffffffffffffffff\n      and\n      0x23b872dd\n        /* \"bootcamp/week7/day_1_marketplaceItem1.sol\":1152:1162  msg.sender */\n      caller\n        /* \"bootcamp/week7/day_1_marketplaceItem1.sol\":1164:1169  owner */\n      0x03\n      0x00\n      swap1\n      sload\n      swap1\n      0x0100\n      exp\n      swap1\n      div\n      0xffffffffffffffffffffffffffffffffffffffff\n      and\n        /* \"bootcamp/week7/day_1_marketplaceItem1.sol\":1171:1176  price */\n      sload(0x02)\n        /* \"bootcamp/week7/day_1_marketplaceItem1.sol\":1125:1177  usdtTestToken.transferFrom(msg.sender, owner, price) */\n      mload(0x40)\n      dup5\n      0xffffffff\n      and\n      0xe0\n      shl\n      dup2\n      mstore\n      0x04\n      add\n      tag_72\n      swap4\n      swap3\n      swap2\n      swap1\n      tag_64\n      jump\t// in\n    tag_72:\n      0x20\n      mload(0x40)\n      dup1\n      dup4\n      sub\n      dup2\n      0x00\n      dup8\n      gas\n      call\n      iszero\n      dup1\n      iszero\n      tag_74\n      jumpi\n      returndatasize\n      0x00\n      dup1\n      returndatacopy\n      revert(0x00, returndatasize)\n    tag_74:\n      pop\n      pop\n      pop\n      pop\n      mload(0x40)\n      returndatasize\n      not(0x1f)\n      0x1f\n      dup3\n      add\n      and\n      dup3\n      add\n      dup1\n      0x40\n      mstore\n      pop\n      dup2\n      add\n      swap1\n      tag_75\n      swap2\n      swap1\n      tag_68\n      jump\t// in\n    tag_75:\n      pop\n        /* \"bootcamp/week7/day_1_marketplaceItem1.sol\":1215:1219  true */\n      0x01\n        /* \"bootcamp/week7/day_1_marketplaceItem1.sol\":1187:1200  alreadyBought */\n      dup1\n        /* \"bootcamp/week7/day_1_marketplaceItem1.sol\":1187:1212  alreadyBought[msg.sender] */\n      0x00\n        /* \"bootcamp/week7/day_1_marketplaceItem1.sol\":1201:1211  msg.sender */\n      caller\n        /* \"bootcamp/week7/day_1_marketplaceItem1.sol\":1187:1212  alreadyBought[msg.sender] */\n      0xffffffffffffffffffffffffffffffffffffffff\n      and\n      0xffffffffffffffffffffffffffffffffffffffff\n      and\n      dup2\n      mstore\n      0x20\n      add\n      swap1\n      dup2\n      mstore\n      0x20\n      add\n      0x00\n      keccak256\n      0x00\n        /* \"bootcamp/week7/day_1_marketplaceItem1.sol\":1187:1219  alreadyBought[msg.sender] = true */\n      0x0100\n      exp\n      dup2\n      sload\n      dup2\n      0xff\n      mul\n      not\n      and\n      swap1\n      dup4\n      iszero\n      iszero\n      mul\n      or\n      swap1\n      sstore\n      pop\n        /* \"bootcamp/week7/day_1_marketplaceItem1.sol\":1236:1249  alreadyBought */\n      0x01\n        /* \"bootcamp/week7/day_1_marketplaceItem1.sol\":1236:1261  alreadyBought[msg.sender] */\n      0x00\n        /* \"bootcamp/week7/day_1_marketplaceItem1.sol\":1250:1260  msg.sender */\n      caller\n        /* \"bootcamp/week7/day_1_marketplaceItem1.sol\":1236:1261  alreadyBought[msg.sender] */\n      0xffffffffffffffffffffffffffffffffffffffff\n      and\n      0xffffffffffffffffffffffffffffffffffffffff\n      and\n      dup2\n      mstore\n      0x20\n      add\n      swap1\n      dup2\n      mstore\n      0x20\n      add\n      0x00\n      keccak256\n      0x00\n      swap1\n      sload\n      swap1\n      0x0100\n      exp\n      swap1\n      div\n      0xff\n      and\n        /* \"bootcamp/week7/day_1_marketplaceItem1.sol\":1229:1261  return alreadyBought[msg.sender] */\n      swap1\n      pop\n        /* \"bootcamp/week7/day_1_marketplaceItem1.sol\":989:1268  function payInUSDT() public returns(bool){... */\n      swap1\n      jump\t// out\n        /* \"bootcamp/week7/day_1_marketplaceItem1.sol\":482:524  address public owner = payable(msg.sender) */\n    tag_30:\n      0x03\n      0x00\n      swap1\n      sload\n      swap1\n      0x0100\n      exp\n      swap1\n      div\n      0xffffffffffffffffffffffffffffffffffffffff\n      and\n      dup2\n      jump\t// out\n        /* \"bootcamp/week7/day_1_marketplaceItem1.sol\":1274:1473  function getCurrentPriceOfETH() public view returns(int) {... */\n    tag_35:\n        /* \"bootcamp/week7/day_1_marketplaceItem1.sol\":1326:1329  int */\n      0x00\n        /* \"bootcamp/week7/day_1_marketplaceItem1.sol\":1353:1367  int priceOfUSD */\n      dup1\n        /* \"bootcamp/week7/day_1_marketplaceItem1.sol\":1404:1413  priceFeed */\n      0x00\n      dup1\n      sload\n      swap1\n      0x0100\n      exp\n      swap1\n      div\n      0xffffffffffffffffffffffffffffffffffffffff\n      and\n        /* \"bootcamp/week7/day_1_marketplaceItem1.sol\":1404:1429  priceFeed.latestRoundData */\n      0xffffffffffffffffffffffffffffffffffffffff\n      and\n      0xfeaf968c\n        /* \"bootcamp/week7/day_1_marketplaceItem1.sol\":1404:1431  priceFeed.latestRoundData() */\n      mload(0x40)\n      dup2\n      0xffffffff\n      and\n      0xe0\n      shl\n      dup2\n      mstore\n      0x04\n      add\n      0xa0\n      mload(0x40)\n      dup1\n      dup4\n      sub\n      dup2\n      dup7\n      gas\n      staticcall\n      iszero\n      dup1\n      iszero\n      tag_78\n      jumpi\n      returndatasize\n      0x00\n      dup1\n      returndatacopy\n      revert(0x00, returndatasize)\n    tag_78:\n      pop\n      pop\n      pop\n      pop\n      mload(0x40)\n      returndatasize\n      not(0x1f)\n      0x1f\n      dup3\n      add\n      and\n      dup3\n      add\n      dup1\n      0x40\n      mstore\n      pop\n      dup2\n      add\n      swap1\n      tag_79\n      swap2\n      swap1\n      tag_80\n      jump\t// in\n    tag_79:\n        /* \"bootcamp/week7/day_1_marketplaceItem1.sol\":1341:1431  (/*data1*/, int priceOfUSD, /*data2*/, /*data3*/, /*data4*/) = priceFeed.latestRoundData() */\n      pop\n      pop\n      pop\n      swap2\n      pop\n      pop\n        /* \"bootcamp/week7/day_1_marketplaceItem1.sol\":1461:1466  10**8 */\n      0x05f5e100\n        /* \"bootcamp/week7/day_1_marketplaceItem1.sol\":1448:1458  priceOfUSD */\n      dup2\n        /* \"bootcamp/week7/day_1_marketplaceItem1.sol\":1448:1466  priceOfUSD / 10**8 */\n      tag_81\n      swap2\n      swap1\n      tag_82\n      jump\t// in\n    tag_81:\n        /* \"bootcamp/week7/day_1_marketplaceItem1.sol\":1441:1466  return priceOfUSD / 10**8 */\n      swap2\n      pop\n      pop\n        /* \"bootcamp/week7/day_1_marketplaceItem1.sol\":1274:1473  function getCurrentPriceOfETH() public view returns(int) {... */\n      swap1\n      jump\t// out\n        /* \"bootcamp/week7/day_1_marketplaceItem1.sol\":617:697  IERC20 public usdtTestToken = IERC20(0xd8b934580fcE35a11B58C6D73aDeE468a2833fa8) */\n    tag_40:\n      0x05\n      0x00\n      swap1\n      sload\n      swap1\n      0x0100\n      exp\n      swap1\n      div\n      0xffffffffffffffffffffffffffffffffffffffff\n      and\n      dup2\n      jump\t// out\n        /* \"bootcamp/week7/day_1_marketplaceItem1.sol\":445:476  uint public price = 10 * 10**18 */\n    tag_45:\n      sload(0x02)\n      dup2\n      jump\t// out\n        /* \"bootcamp/week7/day_1_marketplaceItem1.sol\":1479:1588  function getPriceOfETH() public view returns(int) {... */\n    tag_50:\n        /* \"bootcamp/week7/day_1_marketplaceItem1.sol\":1524:1527  int */\n      0x00\n        /* \"bootcamp/week7/day_1_marketplaceItem1.sol\":1559:1581  getCurrentPriceOfETH() */\n      tag_84\n        /* \"bootcamp/week7/day_1_marketplaceItem1.sol\":1559:1579  getCurrentPriceOfETH */\n      tag_35\n        /* \"bootcamp/week7/day_1_marketplaceItem1.sol\":1559:1581  getCurrentPriceOfETH() */\n      jump\t// in\n    tag_84:\n        /* \"bootcamp/week7/day_1_marketplaceItem1.sol\":1550:1555  price */\n      sload(0x02)\n        /* \"bootcamp/week7/day_1_marketplaceItem1.sol\":1546:1581  int(price) / getCurrentPriceOfETH() */\n      tag_85\n      swap2\n      swap1\n      tag_82\n      jump\t// in\n    tag_85:\n        /* \"bootcamp/week7/day_1_marketplaceItem1.sol\":1539:1581  return int(price) / getCurrentPriceOfETH() */\n      swap1\n      pop\n        /* \"bootcamp/week7/day_1_marketplaceItem1.sol\":1479:1588  function getPriceOfETH() public view returns(int) {... */\n      swap1\n      jump\t// out\n        /* \"bootcamp/week7/day_1_marketplaceItem1.sol\":1622:2006  function payInEth() public payable returns(bool) {... */\n    tag_53:\n        /* \"bootcamp/week7/day_1_marketplaceItem1.sol\":1665:1669  bool */\n      0x00\n        /* \"bootcamp/week7/day_1_marketplaceItem1.sol\":1707:1722  getPriceOfETH() */\n      tag_87\n        /* \"bootcamp/week7/day_1_marketplaceItem1.sol\":1707:1720  getPriceOfETH */\n      tag_50\n        /* \"bootcamp/week7/day_1_marketplaceItem1.sol\":1707:1722  getPriceOfETH() */\n      jump\t// in\n    tag_87:\n        /* \"bootcamp/week7/day_1_marketplaceItem1.sol\":1689:1698  msg.value */\n      callvalue\n        /* \"bootcamp/week7/day_1_marketplaceItem1.sol\":1689:1723  msg.value == uint(getPriceOfETH()) */\n      eq\n        /* \"bootcamp/week7/day_1_marketplaceItem1.sol\":1681:1748  require(msg.value == uint(getPriceOfETH()), \"Wrong amount of ETH!\") */\n      tag_88\n      jumpi\n      mload(0x40)\n      0x08c379a000000000000000000000000000000000000000000000000000000000\n      dup2\n      mstore\n      0x04\n      add\n      tag_89\n      swap1\n      tag_90\n      jump\t// in\n    tag_89:\n      mload(0x40)\n      dup1\n      swap2\n      sub\n      swap1\n      revert\n    tag_88:\n        /* \"bootcamp/week7/day_1_marketplaceItem1.sol\":1807:1816  bool sent */\n      0x00\n        /* \"bootcamp/week7/day_1_marketplaceItem1.sol\":1830:1835  owner */\n      0x03\n      0x00\n      swap1\n      sload\n      swap1\n      0x0100\n      exp\n      swap1\n      div\n      0xffffffffffffffffffffffffffffffffffffffff\n      and\n        /* \"bootcamp/week7/day_1_marketplaceItem1.sol\":1830:1840  owner.call */\n      0xffffffffffffffffffffffffffffffffffffffff\n      and\n        /* \"bootcamp/week7/day_1_marketplaceItem1.sol\":1848:1857  msg.value */\n      callvalue\n        /* \"bootcamp/week7/day_1_marketplaceItem1.sol\":1830:1862  owner.call{value: msg.value}(\"\") */\n      mload(0x40)\n      tag_91\n      swap1\n      tag_92\n      jump\t// in\n    tag_91:\n      0x00\n      mload(0x40)\n      dup1\n      dup4\n      sub\n      dup2\n      dup6\n      dup8\n      gas\n      call\n      swap3\n      pop\n      pop\n      pop\n      returndatasize\n      dup1\n      0x00\n      dup2\n      eq\n      tag_95\n      jumpi\n      mload(0x40)\n      swap2\n      pop\n      and(add(returndatasize, 0x3f), not(0x1f))\n      dup3\n      add\n      0x40\n      mstore\n      returndatasize\n      dup3\n      mstore\n      returndatasize\n      0x00\n      0x20\n      dup5\n      add\n      returndatacopy\n      jump(tag_94)\n    tag_95:\n      0x60\n      swap2\n      pop\n    tag_94:\n      pop\n        /* \"bootcamp/week7/day_1_marketplaceItem1.sol\":1806:1862  (bool sent, /*data*/) = owner.call{value: msg.value}(\"\") */\n      pop\n      swap1\n      pop\n        /* \"bootcamp/week7/day_1_marketplaceItem1.sol\":1888:1892  true */\n      0x01\n        /* \"bootcamp/week7/day_1_marketplaceItem1.sol\":1880:1892  sent == true */\n      iszero\n      iszero\n        /* \"bootcamp/week7/day_1_marketplaceItem1.sol\":1880:1884  sent */\n      dup2\n        /* \"bootcamp/week7/day_1_marketplaceItem1.sol\":1880:1892  sent == true */\n      iszero\n      iszero\n      eq\n        /* \"bootcamp/week7/day_1_marketplaceItem1.sol\":1872:1915  require(sent == true, \"Failed to send ETH\") */\n      tag_96\n      jumpi\n      mload(0x40)\n      0x08c379a000000000000000000000000000000000000000000000000000000000\n      dup2\n      mstore\n      0x04\n      add\n      tag_97\n      swap1\n      tag_98\n      jump\t// in\n    tag_97:\n      mload(0x40)\n      dup1\n      swap2\n      sub\n      swap1\n      revert\n    tag_96:\n        /* \"bootcamp/week7/day_1_marketplaceItem1.sol\":1953:1957  true */\n      0x01\n        /* \"bootcamp/week7/day_1_marketplaceItem1.sol\":1925:1938  alreadyBought */\n      dup1\n        /* \"bootcamp/week7/day_1_marketplaceItem1.sol\":1925:1950  alreadyBought[msg.sender] */\n      0x00\n        /* \"bootcamp/week7/day_1_marketplaceItem1.sol\":1939:1949  msg.sender */\n      caller\n        /* \"bootcamp/week7/day_1_marketplaceItem1.sol\":1925:1950  alreadyBought[msg.sender] */\n      0xffffffffffffffffffffffffffffffffffffffff\n      and\n      0xffffffffffffffffffffffffffffffffffffffff\n      and\n      dup2\n      mstore\n      0x20\n      add\n      swap1\n      dup2\n      mstore\n      0x20\n      add\n      0x00\n      keccak256\n      0x00\n        /* \"bootcamp/week7/day_1_marketplaceItem1.sol\":1925:1957  alreadyBought[msg.sender] = true */\n      0x0100\n      exp\n      dup2\n      sload\n      dup2\n      0xff\n      mul\n      not\n      and\n      swap1\n      dup4\n      iszero\n      iszero\n      mul\n      or\n      swap1\n      sstore\n      pop\n        /* \"bootcamp/week7/day_1_marketplaceItem1.sol\":1974:1987  alreadyBought */\n      0x01\n        /* \"bootcamp/week7/day_1_marketplaceItem1.sol\":1974:1999  alreadyBought[msg.sender] */\n      0x00\n        /* \"bootcamp/week7/day_1_marketplaceItem1.sol\":1988:1998  msg.sender */\n      caller\n        /* \"bootcamp/week7/day_1_marketplaceItem1.sol\":1974:1999  alreadyBought[msg.sender] */\n      0xffffffffffffffffffffffffffffffffffffffff\n      and\n      0xffffffffffffffffffffffffffffffffffffffff\n      and\n      dup2\n      mstore\n      0x20\n      add\n      swap1\n      dup2\n      mstore\n      0x20\n      add\n      0x00\n      keccak256\n      0x00\n      swap1\n      sload\n      swap1\n      0x0100\n      exp\n      swap1\n      div\n      0xff\n      and\n        /* \"bootcamp/week7/day_1_marketplaceItem1.sol\":1967:1999  return alreadyBought[msg.sender] */\n      swap2\n      pop\n      pop\n        /* \"bootcamp/week7/day_1_marketplaceItem1.sol\":1622:2006  function payInEth() public payable returns(bool) {... */\n      swap1\n      jump\t// out\n        /* \"bootcamp/week7/day_1_marketplaceItem1.sol\":531:611  IERC20 public usdcTestToken = IERC20(0xd9145CCE52D386f254917e481eB44e9943F39138) */\n    tag_57:\n      0x04\n      0x00\n      swap1\n      sload\n      swap1\n      0x0100\n      exp\n      swap1\n      div\n      0xffffffffffffffffffffffffffffffffffffffff\n      and\n      dup2\n      jump\t// out\n        /* \"#utility.yul\":7:97   */\n    tag_99:\n        /* \"#utility.yul\":41:48   */\n      0x00\n        /* \"#utility.yul\":84:89   */\n      dup2\n        /* \"#utility.yul\":77:90   */\n      iszero\n        /* \"#utility.yul\":70:91   */\n      iszero\n        /* \"#utility.yul\":59:91   */\n      swap1\n      pop\n        /* \"#utility.yul\":7:97   */\n      swap2\n      swap1\n      pop\n      jump\t// out\n        /* \"#utility.yul\":103:212   */\n    tag_100:\n        /* \"#utility.yul\":184:205   */\n      tag_142\n        /* \"#utility.yul\":199:204   */\n      dup2\n        /* \"#utility.yul\":184:205   */\n      tag_99\n      jump\t// in\n    tag_142:\n        /* \"#utility.yul\":179:182   */\n      dup3\n        /* \"#utility.yul\":172:206   */\n      mstore\n        /* \"#utility.yul\":103:212   */\n      pop\n      pop\n      jump\t// out\n        /* \"#utility.yul\":218:428   */\n    tag_17:\n        /* \"#utility.yul\":305:309   */\n      0x00\n        /* \"#utility.yul\":343:345   */\n      0x20\n        /* \"#utility.yul\":332:341   */\n      dup3\n        /* \"#utility.yul\":328:346   */\n      add\n        /* \"#utility.yul\":320:346   */\n      swap1\n      pop\n        /* \"#utility.yul\":356:421   */\n      tag_144\n        /* \"#utility.yul\":418:419   */\n      0x00\n        /* \"#utility.yul\":407:416   */\n      dup4\n        /* \"#utility.yul\":403:420   */\n      add\n        /* \"#utility.yul\":394:400   */\n      dup5\n        /* \"#utility.yul\":356:421   */\n      tag_100\n      jump\t// in\n    tag_144:\n        /* \"#utility.yul\":218:428   */\n      swap3\n      swap2\n      pop\n      pop\n      jump\t// out\n        /* \"#utility.yul\":515:632   */\n    tag_102:\n        /* \"#utility.yul\":624:625   */\n      0x00\n        /* \"#utility.yul\":621:622   */\n      dup1\n        /* \"#utility.yul\":614:626   */\n      revert\n        /* \"#utility.yul\":761:887   */\n    tag_104:\n        /* \"#utility.yul\":798:805   */\n      0x00\n        /* \"#utility.yul\":838:880   */\n      0xffffffffffffffffffffffffffffffffffffffff\n        /* \"#utility.yul\":831:836   */\n      dup3\n        /* \"#utility.yul\":827:881   */\n      and\n        /* \"#utility.yul\":816:881   */\n      swap1\n      pop\n        /* \"#utility.yul\":761:887   */\n      swap2\n      swap1\n      pop\n      jump\t// out\n        /* \"#utility.yul\":893:989   */\n    tag_105:\n        /* \"#utility.yul\":930:937   */\n      0x00\n        /* \"#utility.yul\":959:983   */\n      tag_150\n        /* \"#utility.yul\":977:982   */\n      dup3\n        /* \"#utility.yul\":959:983   */\n      tag_104\n      jump\t// in\n    tag_150:\n        /* \"#utility.yul\":948:983   */\n      swap1\n      pop\n        /* \"#utility.yul\":893:989   */\n      swap2\n      swap1\n      pop\n      jump\t// out\n        /* \"#utility.yul\":995:1117   */\n    tag_106:\n        /* \"#utility.yul\":1068:1092   */\n      tag_152\n        /* \"#utility.yul\":1086:1091   */\n      dup2\n        /* \"#utility.yul\":1068:1092   */\n      tag_105\n      jump\t// in\n    tag_152:\n        /* \"#utility.yul\":1061:1066   */\n      dup2\n        /* \"#utility.yul\":1058:1093   */\n      eq\n        /* \"#utility.yul\":1048:1111   */\n      tag_153\n      jumpi\n        /* \"#utility.yul\":1107:1108   */\n      0x00\n        /* \"#utility.yul\":1104:1105   */\n      dup1\n        /* \"#utility.yul\":1097:1109   */\n      revert\n        /* \"#utility.yul\":1048:1111   */\n    tag_153:\n        /* \"#utility.yul\":995:1117   */\n      pop\n      jump\t// out\n        /* \"#utility.yul\":1123:1262   */\n    tag_107:\n        /* \"#utility.yul\":1169:1174   */\n      0x00\n        /* \"#utility.yul\":1207:1213   */\n      dup2\n        /* \"#utility.yul\":1194:1214   */\n      calldataload\n        /* \"#utility.yul\":1185:1214   */\n      swap1\n      pop\n        /* \"#utility.yul\":1223:1256   */\n      tag_155\n        /* \"#utility.yul\":1250:1255   */\n      dup2\n        /* \"#utility.yul\":1223:1256   */\n      tag_106\n      jump\t// in\n    tag_155:\n        /* \"#utility.yul\":1123:1262   */\n      swap3\n      swap2\n      pop\n      pop\n      jump\t// out\n        /* \"#utility.yul\":1268:1597   */\n    tag_21:\n        /* \"#utility.yul\":1327:1333   */\n      0x00\n        /* \"#utility.yul\":1376:1378   */\n      0x20\n        /* \"#utility.yul\":1364:1373   */\n      dup3\n        /* \"#utility.yul\":1355:1362   */\n      dup5\n        /* \"#utility.yul\":1351:1374   */\n      sub\n        /* \"#utility.yul\":1347:1379   */\n      slt\n        /* \"#utility.yul\":1344:1463   */\n      iszero\n      tag_157\n      jumpi\n        /* \"#utility.yul\":1382:1461   */\n      tag_158\n      tag_102\n      jump\t// in\n    tag_158:\n        /* \"#utility.yul\":1344:1463   */\n    tag_157:\n        /* \"#utility.yul\":1502:1503   */\n      0x00\n        /* \"#utility.yul\":1527:1580   */\n      tag_159\n        /* \"#utility.yul\":1572:1579   */\n      dup5\n        /* \"#utility.yul\":1563:1569   */\n      dup3\n        /* \"#utility.yul\":1552:1561   */\n      dup6\n        /* \"#utility.yul\":1548:1570   */\n      add\n        /* \"#utility.yul\":1527:1580   */\n      tag_107\n      jump\t// in\n    tag_159:\n        /* \"#utility.yul\":1517:1580   */\n      swap2\n      pop\n        /* \"#utility.yul\":1473:1590   */\n      pop\n        /* \"#utility.yul\":1268:1597   */\n      swap3\n      swap2\n      pop\n      pop\n      jump\t// out\n        /* \"#utility.yul\":1603:1721   */\n    tag_108:\n        /* \"#utility.yul\":1690:1714   */\n      tag_161\n        /* \"#utility.yul\":1708:1713   */\n      dup2\n        /* \"#utility.yul\":1690:1714   */\n      tag_105\n      jump\t// in\n    tag_161:\n        /* \"#utility.yul\":1685:1688   */\n      dup3\n        /* \"#utility.yul\":1678:1715   */\n      mstore\n        /* \"#utility.yul\":1603:1721   */\n      pop\n      pop\n      jump\t// out\n        /* \"#utility.yul\":1727:1949   */\n    tag_32:\n        /* \"#utility.yul\":1820:1824   */\n      0x00\n        /* \"#utility.yul\":1858:1860   */\n      0x20\n        /* \"#utility.yul\":1847:1856   */\n      dup3\n        /* \"#utility.yul\":1843:1861   */\n      add\n        /* \"#utility.yul\":1835:1861   */\n      swap1\n      pop\n        /* \"#utility.yul\":1871:1942   */\n      tag_163\n        /* \"#utility.yul\":1939:1940   */\n      0x00\n        /* \"#utility.yul\":1928:1937   */\n      dup4\n        /* \"#utility.yul\":1924:1941   */\n      add\n        /* \"#utility.yul\":1915:1921   */\n      dup5\n        /* \"#utility.yul\":1871:1942   */\n      tag_108\n      jump\t// in\n    tag_163:\n        /* \"#utility.yul\":1727:1949   */\n      swap3\n      swap2\n      pop\n      pop\n      jump\t// out\n        /* \"#utility.yul\":1955:2031   */\n    tag_109:\n        /* \"#utility.yul\":1991:1998   */\n      0x00\n        /* \"#utility.yul\":2020:2025   */\n      dup2\n        /* \"#utility.yul\":2009:2025   */\n      swap1\n      pop\n        /* \"#utility.yul\":1955:2031   */\n      swap2\n      swap1\n      pop\n      jump\t// out\n        /* \"#utility.yul\":2037:2152   */\n    tag_110:\n        /* \"#utility.yul\":2122:2145   */\n      tag_166\n        /* \"#utility.yul\":2139:2144   */\n      dup2\n        /* \"#utility.yul\":2122:2145   */\n      tag_109\n      jump\t// in\n    tag_166:\n        /* \"#utility.yul\":2117:2120   */\n      dup3\n        /* \"#utility.yul\":2110:2146   */\n      mstore\n        /* \"#utility.yul\":2037:2152   */\n      pop\n      pop\n      jump\t// out\n        /* \"#utility.yul\":2158:2376   */\n    tag_37:\n        /* \"#utility.yul\":2249:2253   */\n      0x00\n        /* \"#utility.yul\":2287:2289   */\n      0x20\n        /* \"#utility.yul\":2276:2285   */\n      dup3\n        /* \"#utility.yul\":2272:2290   */\n      add\n        /* \"#utility.yul\":2264:2290   */\n      swap1\n      pop\n        /* \"#utility.yul\":2300:2369   */\n      tag_168\n        /* \"#utility.yul\":2366:2367   */\n      0x00\n        /* \"#utility.yul\":2355:2364   */\n      dup4\n        /* \"#utility.yul\":2351:2368   */\n      add\n        /* \"#utility.yul\":2342:2348   */\n      dup5\n        /* \"#utility.yul\":2300:2369   */\n      tag_110\n      jump\t// in\n    tag_168:\n        /* \"#utility.yul\":2158:2376   */\n      swap3\n      swap2\n      pop\n      pop\n      jump\t// out\n        /* \"#utility.yul\":2382:2442   */\n    tag_111:\n        /* \"#utility.yul\":2410:2413   */\n      0x00\n        /* \"#utility.yul\":2431:2436   */\n      dup2\n        /* \"#utility.yul\":2424:2436   */\n      swap1\n      pop\n        /* \"#utility.yul\":2382:2442   */\n      swap2\n      swap1\n      pop\n      jump\t// out\n        /* \"#utility.yul\":2448:2590   */\n    tag_112:\n        /* \"#utility.yul\":2498:2507   */\n      0x00\n        /* \"#utility.yul\":2531:2584   */\n      tag_171\n        /* \"#utility.yul\":2549:2583   */\n      tag_172\n        /* \"#utility.yul\":2558:2582   */\n      tag_173\n        /* \"#utility.yul\":2576:2581   */\n      dup5\n        /* \"#utility.yul\":2558:2582   */\n      tag_104\n      jump\t// in\n    tag_173:\n        /* \"#utility.yul\":2549:2583   */\n      tag_111\n      jump\t// in\n    tag_172:\n        /* \"#utility.yul\":2531:2584   */\n      tag_104\n      jump\t// in\n    tag_171:\n        /* \"#utility.yul\":2518:2584   */\n      swap1\n      pop\n        /* \"#utility.yul\":2448:2590   */\n      swap2\n      swap1\n      pop\n      jump\t// out\n        /* \"#utility.yul\":2596:2722   */\n    tag_113:\n        /* \"#utility.yul\":2646:2655   */\n      0x00\n        /* \"#utility.yul\":2679:2716   */\n      tag_175\n        /* \"#utility.yul\":2710:2715   */\n      dup3\n        /* \"#utility.yul\":2679:2716   */\n      tag_112\n      jump\t// in\n    tag_175:\n        /* \"#utility.yul\":2666:2716   */\n      swap1\n      pop\n        /* \"#utility.yul\":2596:2722   */\n      swap2\n      swap1\n      pop\n      jump\t// out\n        /* \"#utility.yul\":2728:2868   */\n    tag_114:\n        /* \"#utility.yul\":2792:2801   */\n      0x00\n        /* \"#utility.yul\":2825:2862   */\n      tag_177\n        /* \"#utility.yul\":2856:2861   */\n      dup3\n        /* \"#utility.yul\":2825:2862   */\n      tag_113\n      jump\t// in\n    tag_177:\n        /* \"#utility.yul\":2812:2862   */\n      swap1\n      pop\n        /* \"#utility.yul\":2728:2868   */\n      swap2\n      swap1\n      pop\n      jump\t// out\n        /* \"#utility.yul\":2874:3033   */\n    tag_115:\n        /* \"#utility.yul\":2975:3026   */\n      tag_179\n        /* \"#utility.yul\":3020:3025   */\n      dup2\n        /* \"#utility.yul\":2975:3026   */\n      tag_114\n      jump\t// in\n    tag_179:\n        /* \"#utility.yul\":2970:2973   */\n      dup3\n        /* \"#utility.yul\":2963:3027   */\n      mstore\n        /* \"#utility.yul\":2874:3033   */\n      pop\n      pop\n      jump\t// out\n        /* \"#utility.yul\":3039:3289   */\n    tag_42:\n        /* \"#utility.yul\":3146:3150   */\n      0x00\n        /* \"#utility.yul\":3184:3186   */\n      0x20\n        /* \"#utility.yul\":3173:3182   */\n      dup3\n        /* \"#utility.yul\":3169:3187   */\n      add\n        /* \"#utility.yul\":3161:3187   */\n      swap1\n      pop\n        /* \"#utility.yul\":3197:3282   */\n      tag_181\n        /* \"#utility.yul\":3279:3280   */\n      0x00\n        /* \"#utility.yul\":3268:3277   */\n      dup4\n        /* \"#utility.yul\":3264:3281   */\n      add\n        /* \"#utility.yul\":3255:3261   */\n      dup5\n        /* \"#utility.yul\":3197:3282   */\n      tag_115\n      jump\t// in\n    tag_181:\n        /* \"#utility.yul\":3039:3289   */\n      swap3\n      swap2\n      pop\n      pop\n      jump\t// out\n        /* \"#utility.yul\":3295:3372   */\n    tag_116:\n        /* \"#utility.yul\":3332:3339   */\n      0x00\n        /* \"#utility.yul\":3361:3366   */\n      dup2\n        /* \"#utility.yul\":3350:3366   */\n      swap1\n      pop\n        /* \"#utility.yul\":3295:3372   */\n      swap2\n      swap1\n      pop\n      jump\t// out\n        /* \"#utility.yul\":3378:3496   */\n    tag_117:\n        /* \"#utility.yul\":3465:3489   */\n      tag_184\n        /* \"#utility.yul\":3483:3488   */\n      dup2\n        /* \"#utility.yul\":3465:3489   */\n      tag_116\n      jump\t// in\n    tag_184:\n        /* \"#utility.yul\":3460:3463   */\n      dup3\n        /* \"#utility.yul\":3453:3490   */\n      mstore\n        /* \"#utility.yul\":3378:3496   */\n      pop\n      pop\n      jump\t// out\n        /* \"#utility.yul\":3502:3724   */\n    tag_47:\n        /* \"#utility.yul\":3595:3599   */\n      0x00\n        /* \"#utility.yul\":3633:3635   */\n      0x20\n        /* \"#utility.yul\":3622:3631   */\n      dup3\n        /* \"#utility.yul\":3618:3636   */\n      add\n        /* \"#utility.yul\":3610:3636   */\n      swap1\n      pop\n        /* \"#utility.yul\":3646:3717   */\n      tag_186\n        /* \"#utility.yul\":3714:3715   */\n      0x00\n        /* \"#utility.yul\":3703:3712   */\n      dup4\n        /* \"#utility.yul\":3699:3716   */\n      add\n        /* \"#utility.yul\":3690:3696   */\n      dup5\n        /* \"#utility.yul\":3646:3717   */\n      tag_117\n      jump\t// in\n    tag_186:\n        /* \"#utility.yul\":3502:3724   */\n      swap3\n      swap2\n      pop\n      pop\n      jump\t// out\n        /* \"#utility.yul\":3730:3899   */\n    tag_118:\n        /* \"#utility.yul\":3814:3825   */\n      0x00\n        /* \"#utility.yul\":3848:3854   */\n      dup3\n        /* \"#utility.yul\":3843:3846   */\n      dup3\n        /* \"#utility.yul\":3836:3855   */\n      mstore\n        /* \"#utility.yul\":3888:3892   */\n      0x20\n        /* \"#utility.yul\":3883:3886   */\n      dup3\n        /* \"#utility.yul\":3879:3893   */\n      add\n        /* \"#utility.yul\":3864:3893   */\n      swap1\n      pop\n        /* \"#utility.yul\":3730:3899   */\n      swap3\n      swap2\n      pop\n      pop\n      jump\t// out\n        /* \"#utility.yul\":3905:4083   */\n    tag_119:\n        /* \"#utility.yul\":4045:4075   */\n      0x596f7520616c726561647920626f756768742074686973206974656d00000000\n        /* \"#utility.yul\":4041:4042   */\n      0x00\n        /* \"#utility.yul\":4033:4039   */\n      dup3\n        /* \"#utility.yul\":4029:4043   */\n      add\n        /* \"#utility.yul\":4022:4076   */\n      mstore\n        /* \"#utility.yul\":3905:4083   */\n      pop\n      jump\t// out\n        /* \"#utility.yul\":4089:4455   */\n    tag_120:\n        /* \"#utility.yul\":4231:4234   */\n      0x00\n        /* \"#utility.yul\":4252:4319   */\n      tag_190\n        /* \"#utility.yul\":4316:4318   */\n      0x1c\n        /* \"#utility.yul\":4311:4314   */\n      dup4\n        /* \"#utility.yul\":4252:4319   */\n      tag_118\n      jump\t// in\n    tag_190:\n        /* \"#utility.yul\":4245:4319   */\n      swap2\n      pop\n        /* \"#utility.yul\":4328:4421   */\n      tag_191\n        /* \"#utility.yul\":4417:4420   */\n      dup3\n        /* \"#utility.yul\":4328:4421   */\n      tag_119\n      jump\t// in\n    tag_191:\n        /* \"#utility.yul\":4446:4448   */\n      0x20\n        /* \"#utility.yul\":4441:4444   */\n      dup3\n        /* \"#utility.yul\":4437:4449   */\n      add\n        /* \"#utility.yul\":4430:4449   */\n      swap1\n      pop\n        /* \"#utility.yul\":4089:4455   */\n      swap2\n      swap1\n      pop\n      jump\t// out\n        /* \"#utility.yul\":4461:4880   */\n    tag_62:\n        /* \"#utility.yul\":4627:4631   */\n      0x00\n        /* \"#utility.yul\":4665:4667   */\n      0x20\n        /* \"#utility.yul\":4654:4663   */\n      dup3\n        /* \"#utility.yul\":4650:4668   */\n      add\n        /* \"#utility.yul\":4642:4668   */\n      swap1\n      pop\n        /* \"#utility.yul\":4714:4723   */\n      dup2\n        /* \"#utility.yul\":4708:4712   */\n      dup2\n        /* \"#utility.yul\":4704:4724   */\n      sub\n        /* \"#utility.yul\":4700:4701   */\n      0x00\n        /* \"#utility.yul\":4689:4698   */\n      dup4\n        /* \"#utility.yul\":4685:4702   */\n      add\n        /* \"#utility.yul\":4678:4725   */\n      mstore\n        /* \"#utility.yul\":4742:4873   */\n      tag_193\n        /* \"#utility.yul\":4868:4872   */\n      dup2\n        /* \"#utility.yul\":4742:4873   */\n      tag_120\n      jump\t// in\n    tag_193:\n        /* \"#utility.yul\":4734:4873   */\n      swap1\n      pop\n        /* \"#utility.yul\":4461:4880   */\n      swap2\n      swap1\n      pop\n      jump\t// out\n        /* \"#utility.yul\":4886:5328   */\n    tag_64:\n        /* \"#utility.yul\":5035:5039   */\n      0x00\n        /* \"#utility.yul\":5073:5075   */\n      0x60\n        /* \"#utility.yul\":5062:5071   */\n      dup3\n        /* \"#utility.yul\":5058:5076   */\n      add\n        /* \"#utility.yul\":5050:5076   */\n      swap1\n      pop\n        /* \"#utility.yul\":5086:5157   */\n      tag_195\n        /* \"#utility.yul\":5154:5155   */\n      0x00\n        /* \"#utility.yul\":5143:5152   */\n      dup4\n        /* \"#utility.yul\":5139:5156   */\n      add\n        /* \"#utility.yul\":5130:5136   */\n      dup7\n        /* \"#utility.yul\":5086:5157   */\n      tag_108\n      jump\t// in\n    tag_195:\n        /* \"#utility.yul\":5167:5239   */\n      tag_196\n        /* \"#utility.yul\":5235:5237   */\n      0x20\n        /* \"#utility.yul\":5224:5233   */\n      dup4\n        /* \"#utility.yul\":5220:5238   */\n      add\n        /* \"#utility.yul\":5211:5217   */\n      dup6\n        /* \"#utility.yul\":5167:5239   */\n      tag_108\n      jump\t// in\n    tag_196:\n        /* \"#utility.yul\":5249:5321   */\n      tag_197\n        /* \"#utility.yul\":5317:5319   */\n      0x40\n        /* \"#utility.yul\":5306:5315   */\n      dup4\n        /* \"#utility.yul\":5302:5320   */\n      add\n        /* \"#utility.yul\":5293:5299   */\n      dup5\n        /* \"#utility.yul\":5249:5321   */\n      tag_117\n      jump\t// in\n    tag_197:\n        /* \"#utility.yul\":4886:5328   */\n      swap5\n      swap4\n      pop\n      pop\n      pop\n      pop\n      jump\t// out\n        /* \"#utility.yul\":5334:5450   */\n    tag_121:\n        /* \"#utility.yul\":5404:5425   */\n      tag_199\n        /* \"#utility.yul\":5419:5424   */\n      dup2\n        /* \"#utility.yul\":5404:5425   */\n      tag_99\n      jump\t// in\n    tag_199:\n        /* \"#utility.yul\":5397:5402   */\n      dup2\n        /* \"#utility.yul\":5394:5426   */\n      eq\n        /* \"#utility.yul\":5384:5444   */\n      tag_200\n      jumpi\n        /* \"#utility.yul\":5440:5441   */\n      0x00\n        /* \"#utility.yul\":5437:5438   */\n      dup1\n        /* \"#utility.yul\":5430:5442   */\n      revert\n        /* \"#utility.yul\":5384:5444   */\n    tag_200:\n        /* \"#utility.yul\":5334:5450   */\n      pop\n      jump\t// out\n        /* \"#utility.yul\":5456:5593   */\n    tag_122:\n        /* \"#utility.yul\":5510:5515   */\n      0x00\n        /* \"#utility.yul\":5541:5547   */\n      dup2\n        /* \"#utility.yul\":5535:5548   */\n      mload\n        /* \"#utility.yul\":5526:5548   */\n      swap1\n      pop\n        /* \"#utility.yul\":5557:5587   */\n      tag_202\n        /* \"#utility.yul\":5581:5586   */\n      dup2\n        /* \"#utility.yul\":5557:5587   */\n      tag_121\n      jump\t// in\n    tag_202:\n        /* \"#utility.yul\":5456:5593   */\n      swap3\n      swap2\n      pop\n      pop\n      jump\t// out\n        /* \"#utility.yul\":5599:5944   */\n    tag_68:\n        /* \"#utility.yul\":5666:5672   */\n      0x00\n        /* \"#utility.yul\":5715:5717   */\n      0x20\n        /* \"#utility.yul\":5703:5712   */\n      dup3\n        /* \"#utility.yul\":5694:5701   */\n      dup5\n        /* \"#utility.yul\":5690:5713   */\n      sub\n        /* \"#utility.yul\":5686:5718   */\n      slt\n        /* \"#utility.yul\":5683:5802   */\n      iszero\n      tag_204\n      jumpi\n        /* \"#utility.yul\":5721:5800   */\n      tag_205\n      tag_102\n      jump\t// in\n    tag_205:\n        /* \"#utility.yul\":5683:5802   */\n    tag_204:\n        /* \"#utility.yul\":5841:5842   */\n      0x00\n        /* \"#utility.yul\":5866:5927   */\n      tag_206\n        /* \"#utility.yul\":5919:5926   */\n      dup5\n        /* \"#utility.yul\":5910:5916   */\n      dup3\n        /* \"#utility.yul\":5899:5908   */\n      dup6\n        /* \"#utility.yul\":5895:5917   */\n      add\n        /* \"#utility.yul\":5866:5927   */\n      tag_122\n      jump\t// in\n    tag_206:\n        /* \"#utility.yul\":5856:5927   */\n      swap2\n      pop\n        /* \"#utility.yul\":5812:5937   */\n      pop\n        /* \"#utility.yul\":5599:5944   */\n      swap3\n      swap2\n      pop\n      pop\n      jump\t// out\n        /* \"#utility.yul\":5950:6055   */\n    tag_123:\n        /* \"#utility.yul\":5986:5993   */\n      0x00\n        /* \"#utility.yul\":6026:6048   */\n      0xffffffffffffffffffff\n        /* \"#utility.yul\":6019:6024   */\n      dup3\n        /* \"#utility.yul\":6015:6049   */\n      and\n        /* \"#utility.yul\":6004:6049   */\n      swap1\n      pop\n        /* \"#utility.yul\":5950:6055   */\n      swap2\n      swap1\n      pop\n      jump\t// out\n        /* \"#utility.yul\":6061:6181   */\n    tag_124:\n        /* \"#utility.yul\":6133:6156   */\n      tag_209\n        /* \"#utility.yul\":6150:6155   */\n      dup2\n        /* \"#utility.yul\":6133:6156   */\n      tag_123\n      jump\t// in\n    tag_209:\n        /* \"#utility.yul\":6126:6131   */\n      dup2\n        /* \"#utility.yul\":6123:6157   */\n      eq\n        /* \"#utility.yul\":6113:6175   */\n      tag_210\n      jumpi\n        /* \"#utility.yul\":6171:6172   */\n      0x00\n        /* \"#utility.yul\":6168:6169   */\n      dup1\n        /* \"#utility.yul\":6161:6173   */\n      revert\n        /* \"#utility.yul\":6113:6175   */\n    tag_210:\n        /* \"#utility.yul\":6061:6181   */\n      pop\n      jump\t// out\n        /* \"#utility.yul\":6187:6328   */\n    tag_125:\n        /* \"#utility.yul\":6243:6248   */\n      0x00\n        /* \"#utility.yul\":6274:6280   */\n      dup2\n        /* \"#utility.yul\":6268:6281   */\n      mload\n        /* \"#utility.yul\":6259:6281   */\n      swap1\n      pop\n        /* \"#utility.yul\":6290:6322   */\n      tag_212\n        /* \"#utility.yul\":6316:6321   */\n      dup2\n        /* \"#utility.yul\":6290:6322   */\n      tag_124\n      jump\t// in\n    tag_212:\n        /* \"#utility.yul\":6187:6328   */\n      swap3\n      swap2\n      pop\n      pop\n      jump\t// out\n        /* \"#utility.yul\":6334:6454   */\n    tag_126:\n        /* \"#utility.yul\":6406:6429   */\n      tag_214\n        /* \"#utility.yul\":6423:6428   */\n      dup2\n        /* \"#utility.yul\":6406:6429   */\n      tag_109\n      jump\t// in\n    tag_214:\n        /* \"#utility.yul\":6399:6404   */\n      dup2\n        /* \"#utility.yul\":6396:6430   */\n      eq\n        /* \"#utility.yul\":6386:6448   */\n      tag_215\n      jumpi\n        /* \"#utility.yul\":6444:6445   */\n      0x00\n        /* \"#utility.yul\":6441:6442   */\n      dup1\n        /* \"#utility.yul\":6434:6446   */\n      revert\n        /* \"#utility.yul\":6386:6448   */\n    tag_215:\n        /* \"#utility.yul\":6334:6454   */\n      pop\n      jump\t// out\n        /* \"#utility.yul\":6460:6601   */\n    tag_127:\n        /* \"#utility.yul\":6516:6521   */\n      0x00\n        /* \"#utility.yul\":6547:6553   */\n      dup2\n        /* \"#utility.yul\":6541:6554   */\n      mload\n        /* \"#utility.yul\":6532:6554   */\n      swap1\n      pop\n        /* \"#utility.yul\":6563:6595   */\n      tag_217\n        /* \"#utility.yul\":6589:6594   */\n      dup2\n        /* \"#utility.yul\":6563:6595   */\n      tag_126\n      jump\t// in\n    tag_217:\n        /* \"#utility.yul\":6460:6601   */\n      swap3\n      swap2\n      pop\n      pop\n      jump\t// out\n        /* \"#utility.yul\":6607:6729   */\n    tag_128:\n        /* \"#utility.yul\":6680:6704   */\n      tag_219\n        /* \"#utility.yul\":6698:6703   */\n      dup2\n        /* \"#utility.yul\":6680:6704   */\n      tag_116\n      jump\t// in\n    tag_219:\n        /* \"#utility.yul\":6673:6678   */\n      dup2\n        /* \"#utility.yul\":6670:6705   */\n      eq\n        /* \"#utility.yul\":6660:6723   */\n      tag_220\n      jumpi\n        /* \"#utility.yul\":6719:6720   */\n      0x00\n        /* \"#utility.yul\":6716:6717   */\n      dup1\n        /* \"#utility.yul\":6709:6721   */\n      revert\n        /* \"#utility.yul\":6660:6723   */\n    tag_220:\n        /* \"#utility.yul\":6607:6729   */\n      pop\n      jump\t// out\n        /* \"#utility.yul\":6735:6878   */\n    tag_129:\n        /* \"#utility.yul\":6792:6797   */\n      0x00\n        /* \"#utility.yul\":6823:6829   */\n      dup2\n        /* \"#utility.yul\":6817:6830   */\n      mload\n        /* \"#utility.yul\":6808:6830   */\n      swap1\n      pop\n        /* \"#utility.yul\":6839:6872   */\n      tag_222\n        /* \"#utility.yul\":6866:6871   */\n      dup2\n        /* \"#utility.yul\":6839:6872   */\n      tag_128\n      jump\t// in\n    tag_222:\n        /* \"#utility.yul\":6735:6878   */\n      swap3\n      swap2\n      pop\n      pop\n      jump\t// out\n        /* \"#utility.yul\":6884:7855   */\n    tag_80:\n        /* \"#utility.yul\":6987:6993   */\n      0x00\n        /* \"#utility.yul\":6995:7001   */\n      dup1\n        /* \"#utility.yul\":7003:7009   */\n      0x00\n        /* \"#utility.yul\":7011:7017   */\n      dup1\n        /* \"#utility.yul\":7019:7025   */\n      0x00\n        /* \"#utility.yul\":7068:7071   */\n      0xa0\n        /* \"#utility.yul\":7056:7065   */\n      dup7\n        /* \"#utility.yul\":7047:7054   */\n      dup9\n        /* \"#utility.yul\":7043:7066   */\n      sub\n        /* \"#utility.yul\":7039:7072   */\n      slt\n        /* \"#utility.yul\":7036:7156   */\n      iszero\n      tag_224\n      jumpi\n        /* \"#utility.yul\":7075:7154   */\n      tag_225\n      tag_102\n      jump\t// in\n    tag_225:\n        /* \"#utility.yul\":7036:7156   */\n    tag_224:\n        /* \"#utility.yul\":7195:7196   */\n      0x00\n        /* \"#utility.yul\":7220:7283   */\n      tag_226\n        /* \"#utility.yul\":7275:7282   */\n      dup9\n        /* \"#utility.yul\":7266:7272   */\n      dup3\n        /* \"#utility.yul\":7255:7264   */\n      dup10\n        /* \"#utility.yul\":7251:7273   */\n      add\n        /* \"#utility.yul\":7220:7283   */\n      tag_125\n      jump\t// in\n    tag_226:\n        /* \"#utility.yul\":7210:7283   */\n      swap6\n      pop\n        /* \"#utility.yul\":7166:7293   */\n      pop\n        /* \"#utility.yul\":7332:7334   */\n      0x20\n        /* \"#utility.yul\":7358:7421   */\n      tag_227\n        /* \"#utility.yul\":7413:7420   */\n      dup9\n        /* \"#utility.yul\":7404:7410   */\n      dup3\n        /* \"#utility.yul\":7393:7402   */\n      dup10\n        /* \"#utility.yul\":7389:7411   */\n      add\n        /* \"#utility.yul\":7358:7421   */\n      tag_127\n      jump\t// in\n    tag_227:\n        /* \"#utility.yul\":7348:7421   */\n      swap5\n      pop\n        /* \"#utility.yul\":7303:7431   */\n      pop\n        /* \"#utility.yul\":7470:7472   */\n      0x40\n        /* \"#utility.yul\":7496:7560   */\n      tag_228\n        /* \"#utility.yul\":7552:7559   */\n      dup9\n        /* \"#utility.yul\":7543:7549   */\n      dup3\n        /* \"#utility.yul\":7532:7541   */\n      dup10\n        /* \"#utility.yul\":7528:7550   */\n      add\n        /* \"#utility.yul\":7496:7560   */\n      tag_129\n      jump\t// in\n    tag_228:\n        /* \"#utility.yul\":7486:7560   */\n      swap4\n      pop\n        /* \"#utility.yul\":7441:7570   */\n      pop\n        /* \"#utility.yul\":7609:7611   */\n      0x60\n        /* \"#utility.yul\":7635:7699   */\n      tag_229\n        /* \"#utility.yul\":7691:7698   */\n      dup9\n        /* \"#utility.yul\":7682:7688   */\n      dup3\n        /* \"#utility.yul\":7671:7680   */\n      dup10\n        /* \"#utility.yul\":7667:7689   */\n      add\n        /* \"#utility.yul\":7635:7699   */\n      tag_129\n      jump\t// in\n    tag_229:\n        /* \"#utility.yul\":7625:7699   */\n      swap3\n      pop\n        /* \"#utility.yul\":7580:7709   */\n      pop\n        /* \"#utility.yul\":7748:7751   */\n      0x80\n        /* \"#utility.yul\":7775:7838   */\n      tag_230\n        /* \"#utility.yul\":7830:7837   */\n      dup9\n        /* \"#utility.yul\":7821:7827   */\n      dup3\n        /* \"#utility.yul\":7810:7819   */\n      dup10\n        /* \"#utility.yul\":7806:7828   */\n      add\n        /* \"#utility.yul\":7775:7838   */\n      tag_125\n      jump\t// in\n    tag_230:\n        /* \"#utility.yul\":7765:7838   */\n      swap2\n      pop\n        /* \"#utility.yul\":7719:7848   */\n      pop\n        /* \"#utility.yul\":6884:7855   */\n      swap3\n      swap6\n      pop\n      swap3\n      swap6\n      swap1\n      swap4\n      pop\n      jump\t// out\n        /* \"#utility.yul\":7861:8041   */\n    tag_130:\n        /* \"#utility.yul\":7909:7986   */\n      0x4e487b7100000000000000000000000000000000000000000000000000000000\n        /* \"#utility.yul\":7906:7907   */\n      0x00\n        /* \"#utility.yul\":7899:7987   */\n      mstore\n        /* \"#utility.yul\":8006:8010   */\n      0x12\n        /* \"#utility.yul\":8003:8004   */\n      0x04\n        /* \"#utility.yul\":7996:8011   */\n      mstore\n        /* \"#utility.yul\":8030:8034   */\n      0x24\n        /* \"#utility.yul\":8027:8028   */\n      0x00\n        /* \"#utility.yul\":8020:8035   */\n      revert\n        /* \"#utility.yul\":8047:8227   */\n    tag_131:\n        /* \"#utility.yul\":8095:8172   */\n      0x4e487b7100000000000000000000000000000000000000000000000000000000\n        /* \"#utility.yul\":8092:8093   */\n      0x00\n        /* \"#utility.yul\":8085:8173   */\n      mstore\n        /* \"#utility.yul\":8192:8196   */\n      0x11\n        /* \"#utility.yul\":8189:8190   */\n      0x04\n        /* \"#utility.yul\":8182:8197   */\n      mstore\n        /* \"#utility.yul\":8216:8220   */\n      0x24\n        /* \"#utility.yul\":8213:8214   */\n      0x00\n        /* \"#utility.yul\":8206:8221   */\n      revert\n        /* \"#utility.yul\":8233:8618   */\n    tag_82:\n        /* \"#utility.yul\":8272:8273   */\n      0x00\n        /* \"#utility.yul\":8289:8308   */\n      tag_234\n        /* \"#utility.yul\":8306:8307   */\n      dup3\n        /* \"#utility.yul\":8289:8308   */\n      tag_109\n      jump\t// in\n    tag_234:\n        /* \"#utility.yul\":8284:8308   */\n      swap2\n      pop\n        /* \"#utility.yul\":8322:8341   */\n      tag_235\n        /* \"#utility.yul\":8339:8340   */\n      dup4\n        /* \"#utility.yul\":8322:8341   */\n      tag_109\n      jump\t// in\n    tag_235:\n        /* \"#utility.yul\":8317:8341   */\n      swap3\n      pop\n        /* \"#utility.yul\":8360:8361   */\n      dup3\n        /* \"#utility.yul\":8350:8385   */\n      tag_236\n      jumpi\n        /* \"#utility.yul\":8365:8383   */\n      tag_237\n      tag_130\n      jump\t// in\n    tag_237:\n        /* \"#utility.yul\":8350:8385   */\n    tag_236:\n        /* \"#utility.yul\":8551:8552   */\n      0x01\n        /* \"#utility.yul\":8548:8549   */\n      0x00\n        /* \"#utility.yul\":8544:8553   */\n      sub\n        /* \"#utility.yul\":8541:8542   */\n      dup4\n        /* \"#utility.yul\":8538:8554   */\n      eq\n        /* \"#utility.yul\":8457:8523   */\n      0x8000000000000000000000000000000000000000000000000000000000000000\n        /* \"#utility.yul\":8454:8455   */\n      dup4\n        /* \"#utility.yul\":8451:8524   */\n      eq\n        /* \"#utility.yul\":8434:8564   */\n      and\n        /* \"#utility.yul\":8431:8587   */\n      iszero\n      tag_238\n      jumpi\n        /* \"#utility.yul\":8567:8585   */\n      tag_239\n      tag_131\n      jump\t// in\n    tag_239:\n        /* \"#utility.yul\":8431:8587   */\n    tag_238:\n        /* \"#utility.yul\":8610:8611   */\n      dup3\n        /* \"#utility.yul\":8607:8608   */\n      dup3\n        /* \"#utility.yul\":8602:8612   */\n      sdiv\n        /* \"#utility.yul\":8597:8612   */\n      swap1\n      pop\n        /* \"#utility.yul\":8233:8618   */\n      swap3\n      swap2\n      pop\n      pop\n      jump\t// out\n        /* \"#utility.yul\":8624:8794   */\n    tag_132:\n        /* \"#utility.yul\":8764:8786   */\n      0x57726f6e6720616d6f756e74206f662045544821000000000000000000000000\n        /* \"#utility.yul\":8760:8761   */\n      0x00\n        /* \"#utility.yul\":8752:8758   */\n      dup3\n        /* \"#utility.yul\":8748:8762   */\n      add\n        /* \"#utility.yul\":8741:8787   */\n      mstore\n        /* \"#utility.yul\":8624:8794   */\n      pop\n      jump\t// out\n        /* \"#utility.yul\":8800:9166   */\n    tag_133:\n        /* \"#utility.yul\":8942:8945   */\n      0x00\n        /* \"#utility.yul\":8963:9030   */\n      tag_242\n        /* \"#utility.yul\":9027:9029   */\n      0x14\n        /* \"#utility.yul\":9022:9025   */\n      dup4\n        /* \"#utility.yul\":8963:9030   */\n      tag_118\n      jump\t// in\n    tag_242:\n        /* \"#utility.yul\":8956:9030   */\n      swap2\n      pop\n        /* \"#utility.yul\":9039:9132   */\n      tag_243\n        /* \"#utility.yul\":9128:9131   */\n      dup3\n        /* \"#utility.yul\":9039:9132   */\n      tag_132\n      jump\t// in\n    tag_243:\n        /* \"#utility.yul\":9157:9159   */\n      0x20\n        /* \"#utility.yul\":9152:9155   */\n      dup3\n        /* \"#utility.yul\":9148:9160   */\n      add\n        /* \"#utility.yul\":9141:9160   */\n      swap1\n      pop\n        /* \"#utility.yul\":8800:9166   */\n      swap2\n      swap1\n      pop\n      jump\t// out\n        /* \"#utility.yul\":9172:9591   */\n    tag_90:\n        /* \"#utility.yul\":9338:9342   */\n      0x00\n        /* \"#utility.yul\":9376:9378   */\n      0x20\n        /* \"#utility.yul\":9365:9374   */\n      dup3\n        /* \"#utility.yul\":9361:9379   */\n      add\n        /* \"#utility.yul\":9353:9379   */\n      swap1\n      pop\n        /* \"#utility.yul\":9425:9434   */\n      dup2\n        /* \"#utility.yul\":9419:9423   */\n      dup2\n        /* \"#utility.yul\":9415:9435   */\n      sub\n        /* \"#utility.yul\":9411:9412   */\n      0x00\n        /* \"#utility.yul\":9400:9409   */\n      dup4\n        /* \"#utility.yul\":9396:9413   */\n      add\n        /* \"#utility.yul\":9389:9436   */\n      mstore\n        /* \"#utility.yul\":9453:9584   */\n      tag_245\n        /* \"#utility.yul\":9579:9583   */\n      dup2\n        /* \"#utility.yul\":9453:9584   */\n      tag_133\n      jump\t// in\n    tag_245:\n        /* \"#utility.yul\":9445:9584   */\n      swap1\n      pop\n        /* \"#utility.yul\":9172:9591   */\n      swap2\n      swap1\n      pop\n      jump\t// out\n        /* \"#utility.yul\":9597:9744   */\n    tag_134:\n        /* \"#utility.yul\":9698:9709   */\n      0x00\n        /* \"#utility.yul\":9735:9738   */\n      dup2\n        /* \"#utility.yul\":9720:9738   */\n      swap1\n      pop\n        /* \"#utility.yul\":9597:9744   */\n      swap3\n      swap2\n      pop\n      pop\n      jump\t// out\n        /* \"#utility.yul\":9750:9864   */\n    tag_135:\n      pop\n      jump\t// out\n        /* \"#utility.yul\":9870:10268   */\n    tag_136:\n        /* \"#utility.yul\":10029:10032   */\n      0x00\n        /* \"#utility.yul\":10050:10133   */\n      tag_249\n        /* \"#utility.yul\":10131:10132   */\n      0x00\n        /* \"#utility.yul\":10126:10129   */\n      dup4\n        /* \"#utility.yul\":10050:10133   */\n      tag_134\n      jump\t// in\n    tag_249:\n        /* \"#utility.yul\":10043:10133   */\n      swap2\n      pop\n        /* \"#utility.yul\":10142:10235   */\n      tag_250\n        /* \"#utility.yul\":10231:10234   */\n      dup3\n        /* \"#utility.yul\":10142:10235   */\n      tag_135\n      jump\t// in\n    tag_250:\n        /* \"#utility.yul\":10260:10261   */\n      0x00\n        /* \"#utility.yul\":10255:10258   */\n      dup3\n        /* \"#utility.yul\":10251:10262   */\n      add\n        /* \"#utility.yul\":10244:10262   */\n      swap1\n      pop\n        /* \"#utility.yul\":9870:10268   */\n      swap2\n      swap1\n      pop\n      jump\t// out\n        /* \"#utility.yul\":10274:10653   */\n    tag_92:\n        /* \"#utility.yul\":10458:10461   */\n      0x00\n        /* \"#utility.yul\":10480:10627   */\n      tag_252\n        /* \"#utility.yul\":10623:10626   */\n      dup3\n        /* \"#utility.yul\":10480:10627   */\n      tag_136\n      jump\t// in\n    tag_252:\n        /* \"#utility.yul\":10473:10627   */\n      swap2\n      pop\n        /* \"#utility.yul\":10644:10647   */\n      dup2\n        /* \"#utility.yul\":10637:10647   */\n      swap1\n      pop\n        /* \"#utility.yul\":10274:10653   */\n      swap2\n      swap1\n      pop\n      jump\t// out\n        /* \"#utility.yul\":10659:10827   */\n    tag_137:\n        /* \"#utility.yul\":10799:10819   */\n      0x4661696c656420746f2073656e64204554480000000000000000000000000000\n        /* \"#utility.yul\":10795:10796   */\n      0x00\n        /* \"#utility.yul\":10787:10793   */\n      dup3\n        /* \"#utility.yul\":10783:10797   */\n      add\n        /* \"#utility.yul\":10776:10820   */\n      mstore\n        /* \"#utility.yul\":10659:10827   */\n      pop\n      jump\t// out\n        /* \"#utility.yul\":10833:11199   */\n    tag_138:\n        /* \"#utility.yul\":10975:10978   */\n      0x00\n        /* \"#utility.yul\":10996:11063   */\n      tag_255\n        /* \"#utility.yul\":11060:11062   */\n      0x12\n        /* \"#utility.yul\":11055:11058   */\n      dup4\n        /* \"#utility.yul\":10996:11063   */\n      tag_118\n      jump\t// in\n    tag_255:\n        /* \"#utility.yul\":10989:11063   */\n      swap2\n      pop\n        /* \"#utility.yul\":11072:11165   */\n      tag_256\n        /* \"#utility.yul\":11161:11164   */\n      dup3\n        /* \"#utility.yul\":11072:11165   */\n      tag_137\n      jump\t// in\n    tag_256:\n        /* \"#utility.yul\":11190:11192   */\n      0x20\n        /* \"#utility.yul\":11185:11188   */\n      dup3\n        /* \"#utility.yul\":11181:11193   */\n      add\n        /* \"#utility.yul\":11174:11193   */\n      swap1\n      pop\n        /* \"#utility.yul\":10833:11199   */\n      swap2\n      swap1\n      pop\n      jump\t// out\n        /* \"#utility.yul\":11205:11624   */\n    tag_98:\n        /* \"#utility.yul\":11371:11375   */\n      0x00\n        /* \"#utility.yul\":11409:11411   */\n      0x20\n        /* \"#utility.yul\":11398:11407   */\n      dup3\n        /* \"#utility.yul\":11394:11412   */\n      add\n        /* \"#utility.yul\":11386:11412   */\n      swap1\n      pop\n        /* \"#utility.yul\":11458:11467   */\n      dup2\n        /* \"#utility.yul\":11452:11456   */\n      dup2\n        /* \"#utility.yul\":11448:11468   */\n      sub\n        /* \"#utility.yul\":11444:11445   */\n      0x00\n        /* \"#utility.yul\":11433:11442   */\n      dup4\n        /* \"#utility.yul\":11429:11446   */\n      add\n        /* \"#utility.yul\":11422:11469   */\n      mstore\n        /* \"#utility.yul\":11486:11617   */\n      tag_258\n        /* \"#utility.yul\":11612:11616   */\n      dup2\n        /* \"#utility.yul\":11486:11617   */\n      tag_138\n      jump\t// in\n    tag_258:\n        /* \"#utility.yul\":11478:11617   */\n      swap1\n      pop\n        /* \"#utility.yul\":11205:11624   */\n      swap2\n      swap1\n      pop\n      jump\t// out\n\n    auxdata: 0xa2646970667358221220a3b60c89d00bfdf886537b2065e200b290816324eb172f0931d6aa663203370d64736f6c634300080d0033\n}\n",
				"bytecode": {
					"linkReferences": {},
					"object": "608060405273d4a33860578de61dbabdc8bfdb98fd742fa7028e6000806101000a81548173ffffffffffffffffffffffffffffffffffffffff021916908373ffffffffffffffffffffffffffffffffffffffff160217905550678ac7230489e8000060025533600360006101000a81548173ffffffffffffffffffffffffffffffffffffffff021916908373ffffffffffffffffffffffffffffffffffffffff16021790555073d9145cce52d386f254917e481eb44e9943f39138600460006101000a81548173ffffffffffffffffffffffffffffffffffffffff021916908373ffffffffffffffffffffffffffffffffffffffff16021790555073d8b934580fce35a11b58c6d73adee468a2833fa8600560006101000a81548173ffffffffffffffffffffffffffffffffffffffff021916908373ffffffffffffffffffffffffffffffffffffffff16021790555034801561015b57600080fd5b50610f8d8061016b6000396000f3fe6080604052600436106100915760003560e01c8063906798f811610059578063906798f81461017f578063a035b1fe146101aa578063aef691e9146101d5578063cb44bd0514610200578063fba931b41461021e57610091565b806311023c79146100965780635b27f2a7146100c157806382d3eef6146100fe5780638da5cb5b146101295780638e07c22a14610154575b600080fd5b3480156100a257600080fd5b506100ab610249565b6040516100b89190610998565b60405180910390f35b3480156100cd57600080fd5b506100e860048036038101906100e39190610a16565b61044d565b6040516100f59190610998565b60405180910390f35b34801561010a57600080fd5b5061011361046d565b6040516101209190610998565b60405180910390f35b34801561013557600080fd5b5061013e610671565b60405161014b9190610a52565b60405180910390f35b34801561016057600080fd5b50610169610697565b6040516101769190610a86565b60405180910390f35b34801561018b57600080fd5b50610194610745565b6040516101a19190610b00565b60405180910390f35b3480156101b657600080fd5b506101bf61076b565b6040516101cc9190610b34565b60405180910390f35b3480156101e157600080fd5b506101ea610771565b6040516101f79190610a86565b60405180910390f35b61020861078d565b6040516102159190610998565b60405180910390f35b34801561022a57600080fd5b50610233610957565b6040516102409190610b00565b60405180910390f35b6000801515600160003373ffffffffffffffffffffffffffffffffffffffff1673ffffffffffffffffffffffffffffffffffffffff16815260200190815260200160002060009054906101000a900460ff161515146102dd576040517f08c379a00000000000000000000000000000000000000000000000000000000081526004016102d490610bac565b60405180910390fd5b600460009054906101000a900473ffffffffffffffffffffffffffffffffffffffff1673ffffffffffffffffffffffffffffffffffffffff166323b872dd33600360009054906101000a900473ffffffffffffffffffffffffffffffffffffffff166002546040518463ffffffff1660e01b815260040161036093929190610bcc565b6020604051808303816000875af115801561037f573d6000803e3d6000fd5b505050506040513d601f19601f820116820180604052508101906103a39190610c2f565b5060018060003373ffffffffffffffffffffffffffffffffffffffff1673ffffffffffffffffffffffffffffffffffffffff16815260200190815260200160002060006101000a81548160ff021916908315150217905550600160003373ffffffffffffffffffffffffffffffffffffffff1673ffffffffffffffffffffffffffffffffffffffff16815260200190815260200160002060009054906101000a900460ff16905090565b60016020528060005260406000206000915054906101000a900460ff1681565b6000801515600160003373ffffffffffffffffffffffffffffffffffffffff1673ffffffffffffffffffffffffffffffffffffffff16815260200190815260200160002060009054906101000a900460ff16151514610501576040517f08c379a00000000000000000000000000000000000000000000000000000000081526004016104f890610bac565b60405180910390fd5b600560009054906101000a900473ffffffffffffffffffffffffffffffffffffffff1673ffffffffffffffffffffffffffffffffffffffff166323b872dd33600360009054906101000a900473ffffffffffffffffffffffffffffffffffffffff166002546040518463ffffffff1660e01b815260040161058493929190610bcc565b6020604051808303816000875af11580156105a3573d6000803e3d6000fd5b505050506040513d601f19601f820116820180604052508101906105c79190610c2f565b5060018060003373ffffffffffffffffffffffffffffffffffffffff1673ffffffffffffffffffffffffffffffffffffffff16815260200190815260200160002060006101000a81548160ff021916908315150217905550600160003373ffffffffffffffffffffffffffffffffffffffff1673ffffffffffffffffffffffffffffffffffffffff16815260200190815260200160002060009054906101000a900460ff16905090565b600360009054906101000a900473ffffffffffffffffffffffffffffffffffffffff1681565b60008060008054906101000a900473ffffffffffffffffffffffffffffffffffffffff1673ffffffffffffffffffffffffffffffffffffffff1663feaf968c6040518163ffffffff1660e01b815260040160a060405180830381865afa158015610705573d6000803e3d6000fd5b505050506040513d601f19601f820116820180604052508101906107299190610cf6565b5050509150506305f5e1008161073f9190610dcf565b91505090565b600560009054906101000a900473ffffffffffffffffffffffffffffffffffffffff1681565b60025481565b600061077b610697565b6002546107889190610dcf565b905090565b6000610797610771565b34146107d8576040517f08c379a00000000000000000000000000000000000000000000000000000000081526004016107cf90610e85565b60405180910390fd5b6000600360009054906101000a900473ffffffffffffffffffffffffffffffffffffffff1673ffffffffffffffffffffffffffffffffffffffff163460405161082090610ed6565b60006040518083038185875af1925050503d806000811461085d576040519150601f19603f3d011682016040523d82523d6000602084013e610862565b606091505b5050905060011515811515146108ad576040517f08c379a00000000000000000000000000000000000000000000000000000000081526004016108a490610f37565b60405180910390fd5b60018060003373ffffffffffffffffffffffffffffffffffffffff1673ffffffffffffffffffffffffffffffffffffffff16815260200190815260200160002060006101000a81548160ff021916908315150217905550600160003373ffffffffffffffffffffffffffffffffffffffff1673ffffffffffffffffffffffffffffffffffffffff16815260200190815260200160002060009054906101000a900460ff1691505090565b600460009054906101000a900473ffffffffffffffffffffffffffffffffffffffff1681565b60008115159050919050565b6109928161097d565b82525050565b60006020820190506109ad6000830184610989565b92915050565b600080fd5b600073ffffffffffffffffffffffffffffffffffffffff82169050919050565b60006109e3826109b8565b9050919050565b6109f3816109d8565b81146109fe57600080fd5b50565b600081359050610a10816109ea565b92915050565b600060208284031215610a2c57610a2b6109b3565b5b6000610a3a84828501610a01565b91505092915050565b610a4c816109d8565b82525050565b6000602082019050610a676000830184610a43565b92915050565b6000819050919050565b610a8081610a6d565b82525050565b6000602082019050610a9b6000830184610a77565b92915050565b6000819050919050565b6000610ac6610ac1610abc846109b8565b610aa1565b6109b8565b9050919050565b6000610ad882610aab565b9050919050565b6000610aea82610acd565b9050919050565b610afa81610adf565b82525050565b6000602082019050610b156000830184610af1565b92915050565b6000819050919050565b610b2e81610b1b565b82525050565b6000602082019050610b496000830184610b25565b92915050565b600082825260208201905092915050565b7f596f7520616c726561647920626f756768742074686973206974656d00000000600082015250565b6000610b96601c83610b4f565b9150610ba182610b60565b602082019050919050565b60006020820190508181036000830152610bc581610b89565b9050919050565b6000606082019050610be16000830186610a43565b610bee6020830185610a43565b610bfb6040830184610b25565b949350505050565b610c0c8161097d565b8114610c1757600080fd5b50565b600081519050610c2981610c03565b92915050565b600060208284031215610c4557610c446109b3565b5b6000610c5384828501610c1a565b91505092915050565b600069ffffffffffffffffffff82169050919050565b610c7b81610c5c565b8114610c8657600080fd5b50565b600081519050610c9881610c72565b92915050565b610ca781610a6d565b8114610cb257600080fd5b50565b600081519050610cc481610c9e565b92915050565b610cd381610b1b565b8114610cde57600080fd5b50565b600081519050610cf081610cca565b92915050565b600080600080600060a08688031215610d1257610d116109b3565b5b6000610d2088828901610c89565b9550506020610d3188828901610cb5565b9450506040610d4288828901610ce1565b9350506060610d5388828901610ce1565b9250506080610d6488828901610c89565b9150509295509295909350565b7f4e487b7100000000000000000000000000000000000000000000000000000000600052601260045260246000fd5b7f4e487b7100000000000000000000000000000000000000000000000000000000600052601160045260246000fd5b6000610dda82610a6d565b9150610de583610a6d565b925082610df557610df4610d71565b5b600160000383147f800000000000000000000000000000000000000000000000000000000000000083141615610e2e57610e2d610da0565b5b828205905092915050565b7f57726f6e6720616d6f756e74206f662045544821000000000000000000000000600082015250565b6000610e6f601483610b4f565b9150610e7a82610e39565b602082019050919050565b60006020820190508181036000830152610e9e81610e62565b9050919050565b600081905092915050565b50565b6000610ec0600083610ea5565b9150610ecb82610eb0565b600082019050919050565b6000610ee182610eb3565b9150819050919050565b7f4661696c656420746f2073656e64204554480000000000000000000000000000600082015250565b6000610f21601283610b4f565b9150610f2c82610eeb565b602082019050919050565b60006020820190508181036000830152610f5081610f14565b905091905056fea2646970667358221220a3b60c89d00bfdf886537b2065e200b290816324eb172f0931d6aa663203370d64736f6c634300080d0033",
					"opcodes": "PUSH1 0x80 PUSH1 0x40 MSTORE PUSH20 0xD4A33860578DE61DBABDC8BFDB98FD742FA7028E PUSH1 0x0 DUP1 PUSH2 0x100 EXP DUP2 SLOAD DUP2 PUSH20 0xFFFFFFFFFFFFFFFFFFFFFFFFFFFFFFFFFFFFFFFF MUL NOT AND SWAP1 DUP4 PUSH20 0xFFFFFFFFFFFFFFFFFFFFFFFFFFFFFFFFFFFFFFFF AND MUL OR SWAP1 SSTORE POP PUSH8 0x8AC7230489E80000 PUSH1 0x2 SSTORE CALLER PUSH1 0x3 PUSH1 0x0 PUSH2 0x100 EXP DUP2 SLOAD DUP2 PUSH20 0xFFFFFFFFFFFFFFFFFFFFFFFFFFFFFFFFFFFFFFFF MUL NOT AND SWAP1 DUP4 PUSH20 0xFFFFFFFFFFFFFFFFFFFFFFFFFFFFFFFFFFFFFFFF AND MUL OR SWAP1 SSTORE POP PUSH20 0xD9145CCE52D386F254917E481EB44E9943F39138 PUSH1 0x4 PUSH1 0x0 PUSH2 0x100 EXP DUP2 SLOAD DUP2 PUSH20 0xFFFFFFFFFFFFFFFFFFFFFFFFFFFFFFFFFFFFFFFF MUL NOT AND SWAP1 DUP4 PUSH20 0xFFFFFFFFFFFFFFFFFFFFFFFFFFFFFFFFFFFFFFFF AND MUL OR SWAP1 SSTORE POP PUSH20 0xD8B934580FCE35A11B58C6D73ADEE468A2833FA8 PUSH1 0x5 PUSH1 0x0 PUSH2 0x100 EXP DUP2 SLOAD DUP2 PUSH20 0xFFFFFFFFFFFFFFFFFFFFFFFFFFFFFFFFFFFFFFFF MUL NOT AND SWAP1 DUP4 PUSH20 0xFFFFFFFFFFFFFFFFFFFFFFFFFFFFFFFFFFFFFFFF AND MUL OR SWAP1 SSTORE POP CALLVALUE DUP1 ISZERO PUSH2 0x15B JUMPI PUSH1 0x0 DUP1 REVERT JUMPDEST POP PUSH2 0xF8D DUP1 PUSH2 0x16B PUSH1 0x0 CODECOPY PUSH1 0x0 RETURN INVALID PUSH1 0x80 PUSH1 0x40 MSTORE PUSH1 0x4 CALLDATASIZE LT PUSH2 0x91 JUMPI PUSH1 0x0 CALLDATALOAD PUSH1 0xE0 SHR DUP1 PUSH4 0x906798F8 GT PUSH2 0x59 JUMPI DUP1 PUSH4 0x906798F8 EQ PUSH2 0x17F JUMPI DUP1 PUSH4 0xA035B1FE EQ PUSH2 0x1AA JUMPI DUP1 PUSH4 0xAEF691E9 EQ PUSH2 0x1D5 JUMPI DUP1 PUSH4 0xCB44BD05 EQ PUSH2 0x200 JUMPI DUP1 PUSH4 0xFBA931B4 EQ PUSH2 0x21E JUMPI PUSH2 0x91 JUMP JUMPDEST DUP1 PUSH4 0x11023C79 EQ PUSH2 0x96 JUMPI DUP1 PUSH4 0x5B27F2A7 EQ PUSH2 0xC1 JUMPI DUP1 PUSH4 0x82D3EEF6 EQ PUSH2 0xFE JUMPI DUP1 PUSH4 0x8DA5CB5B EQ PUSH2 0x129 JUMPI DUP1 PUSH4 0x8E07C22A EQ PUSH2 0x154 JUMPI JUMPDEST PUSH1 0x0 DUP1 REVERT JUMPDEST CALLVALUE DUP1 ISZERO PUSH2 0xA2 JUMPI PUSH1 0x0 DUP1 REVERT JUMPDEST POP PUSH2 0xAB PUSH2 0x249 JUMP JUMPDEST PUSH1 0x40 MLOAD PUSH2 0xB8 SWAP2 SWAP1 PUSH2 0x998 JUMP JUMPDEST PUSH1 0x40 MLOAD DUP1 SWAP2 SUB SWAP1 RETURN JUMPDEST CALLVALUE DUP1 ISZERO PUSH2 0xCD JUMPI PUSH1 0x0 DUP1 REVERT JUMPDEST POP PUSH2 0xE8 PUSH1 0x4 DUP1 CALLDATASIZE SUB DUP2 ADD SWAP1 PUSH2 0xE3 SWAP2 SWAP1 PUSH2 0xA16 JUMP JUMPDEST PUSH2 0x44D JUMP JUMPDEST PUSH1 0x40 MLOAD PUSH2 0xF5 SWAP2 SWAP1 PUSH2 0x998 JUMP JUMPDEST PUSH1 0x40 MLOAD DUP1 SWAP2 SUB SWAP1 RETURN JUMPDEST CALLVALUE DUP1 ISZERO PUSH2 0x10A JUMPI PUSH1 0x0 DUP1 REVERT JUMPDEST POP PUSH2 0x113 PUSH2 0x46D JUMP JUMPDEST PUSH1 0x40 MLOAD PUSH2 0x120 SWAP2 SWAP1 PUSH2 0x998 JUMP JUMPDEST PUSH1 0x40 MLOAD DUP1 SWAP2 SUB SWAP1 RETURN JUMPDEST CALLVALUE DUP1 ISZERO PUSH2 0x135 JUMPI PUSH1 0x0 DUP1 REVERT JUMPDEST POP PUSH2 0x13E PUSH2 0x671 JUMP JUMPDEST PUSH1 0x40 MLOAD PUSH2 0x14B SWAP2 SWAP1 PUSH2 0xA52 JUMP JUMPDEST PUSH1 0x40 MLOAD DUP1 SWAP2 SUB SWAP1 RETURN JUMPDEST CALLVALUE DUP1 ISZERO PUSH2 0x160 JUMPI PUSH1 0x0 DUP1 REVERT JUMPDEST POP PUSH2 0x169 PUSH2 0x697 JUMP JUMPDEST PUSH1 0x40 MLOAD PUSH2 0x176 SWAP2 SWAP1 PUSH2 0xA86 JUMP JUMPDEST PUSH1 0x40 MLOAD DUP1 SWAP2 SUB SWAP1 RETURN JUMPDEST CALLVALUE DUP1 ISZERO PUSH2 0x18B JUMPI PUSH1 0x0 DUP1 REVERT JUMPDEST POP PUSH2 0x194 PUSH2 0x745 JUMP JUMPDEST PUSH1 0x40 MLOAD PUSH2 0x1A1 SWAP2 SWAP1 PUSH2 0xB00 JUMP JUMPDEST PUSH1 0x40 MLOAD DUP1 SWAP2 SUB SWAP1 RETURN JUMPDEST CALLVALUE DUP1 ISZERO PUSH2 0x1B6 JUMPI PUSH1 0x0 DUP1 REVERT JUMPDEST POP PUSH2 0x1BF PUSH2 0x76B JUMP JUMPDEST PUSH1 0x40 MLOAD PUSH2 0x1CC SWAP2 SWAP1 PUSH2 0xB34 JUMP JUMPDEST PUSH1 0x40 MLOAD DUP1 SWAP2 SUB SWAP1 RETURN JUMPDEST CALLVALUE DUP1 ISZERO PUSH2 0x1E1 JUMPI PUSH1 0x0 DUP1 REVERT JUMPDEST POP PUSH2 0x1EA PUSH2 0x771 JUMP JUMPDEST PUSH1 0x40 MLOAD PUSH2 0x1F7 SWAP2 SWAP1 PUSH2 0xA86 JUMP JUMPDEST PUSH1 0x40 MLOAD DUP1 SWAP2 SUB SWAP1 RETURN JUMPDEST PUSH2 0x208 PUSH2 0x78D JUMP JUMPDEST PUSH1 0x40 MLOAD PUSH2 0x215 SWAP2 SWAP1 PUSH2 0x998 JUMP JUMPDEST PUSH1 0x40 MLOAD DUP1 SWAP2 SUB SWAP1 RETURN JUMPDEST CALLVALUE DUP1 ISZERO PUSH2 0x22A JUMPI PUSH1 0x0 DUP1 REVERT JUMPDEST POP PUSH2 0x233 PUSH2 0x957 JUMP JUMPDEST PUSH1 0x40 MLOAD PUSH2 0x240 SWAP2 SWAP1 PUSH2 0xB00 JUMP JUMPDEST PUSH1 0x40 MLOAD DUP1 SWAP2 SUB SWAP1 RETURN JUMPDEST PUSH1 0x0 DUP1 ISZERO ISZERO PUSH1 0x1 PUSH1 0x0 CALLER PUSH20 0xFFFFFFFFFFFFFFFFFFFFFFFFFFFFFFFFFFFFFFFF AND PUSH20 0xFFFFFFFFFFFFFFFFFFFFFFFFFFFFFFFFFFFFFFFF AND DUP2 MSTORE PUSH1 0x20 ADD SWAP1 DUP2 MSTORE PUSH1 0x20 ADD PUSH1 0x0 KECCAK256 PUSH1 0x0 SWAP1 SLOAD SWAP1 PUSH2 0x100 EXP SWAP1 DIV PUSH1 0xFF AND ISZERO ISZERO EQ PUSH2 0x2DD JUMPI PUSH1 0x40 MLOAD PUSH32 0x8C379A000000000000000000000000000000000000000000000000000000000 DUP2 MSTORE PUSH1 0x4 ADD PUSH2 0x2D4 SWAP1 PUSH2 0xBAC JUMP JUMPDEST PUSH1 0x40 MLOAD DUP1 SWAP2 SUB SWAP1 REVERT JUMPDEST PUSH1 0x4 PUSH1 0x0 SWAP1 SLOAD SWAP1 PUSH2 0x100 EXP SWAP1 DIV PUSH20 0xFFFFFFFFFFFFFFFFFFFFFFFFFFFFFFFFFFFFFFFF AND PUSH20 0xFFFFFFFFFFFFFFFFFFFFFFFFFFFFFFFFFFFFFFFF AND PUSH4 0x23B872DD CALLER PUSH1 0x3 PUSH1 0x0 SWAP1 SLOAD SWAP1 PUSH2 0x100 EXP SWAP1 DIV PUSH20 0xFFFFFFFFFFFFFFFFFFFFFFFFFFFFFFFFFFFFFFFF AND PUSH1 0x2 SLOAD PUSH1 0x40 MLOAD DUP5 PUSH4 0xFFFFFFFF AND PUSH1 0xE0 SHL DUP2 MSTORE PUSH1 0x4 ADD PUSH2 0x360 SWAP4 SWAP3 SWAP2 SWAP1 PUSH2 0xBCC JUMP JUMPDEST PUSH1 0x20 PUSH1 0x40 MLOAD DUP1 DUP4 SUB DUP2 PUSH1 0x0 DUP8 GAS CALL ISZERO DUP1 ISZERO PUSH2 0x37F JUMPI RETURNDATASIZE PUSH1 0x0 DUP1 RETURNDATACOPY RETURNDATASIZE PUSH1 0x0 REVERT JUMPDEST POP POP POP POP PUSH1 0x40 MLOAD RETURNDATASIZE PUSH1 0x1F NOT PUSH1 0x1F DUP3 ADD AND DUP3 ADD DUP1 PUSH1 0x40 MSTORE POP DUP2 ADD SWAP1 PUSH2 0x3A3 SWAP2 SWAP1 PUSH2 0xC2F JUMP JUMPDEST POP PUSH1 0x1 DUP1 PUSH1 0x0 CALLER PUSH20 0xFFFFFFFFFFFFFFFFFFFFFFFFFFFFFFFFFFFFFFFF AND PUSH20 0xFFFFFFFFFFFFFFFFFFFFFFFFFFFFFFFFFFFFFFFF AND DUP2 MSTORE PUSH1 0x20 ADD SWAP1 DUP2 MSTORE PUSH1 0x20 ADD PUSH1 0x0 KECCAK256 PUSH1 0x0 PUSH2 0x100 EXP DUP2 SLOAD DUP2 PUSH1 0xFF MUL NOT AND SWAP1 DUP4 ISZERO ISZERO MUL OR SWAP1 SSTORE POP PUSH1 0x1 PUSH1 0x0 CALLER PUSH20 0xFFFFFFFFFFFFFFFFFFFFFFFFFFFFFFFFFFFFFFFF AND PUSH20 0xFFFFFFFFFFFFFFFFFFFFFFFFFFFFFFFFFFFFFFFF AND DUP2 MSTORE PUSH1 0x20 ADD SWAP1 DUP2 MSTORE PUSH1 0x20 ADD PUSH1 0x0 KECCAK256 PUSH1 0x0 SWAP1 SLOAD SWAP1 PUSH2 0x100 EXP SWAP1 DIV PUSH1 0xFF AND SWAP1 POP SWAP1 JUMP JUMPDEST PUSH1 0x1 PUSH1 0x20 MSTORE DUP1 PUSH1 0x0 MSTORE PUSH1 0x40 PUSH1 0x0 KECCAK256 PUSH1 0x0 SWAP2 POP SLOAD SWAP1 PUSH2 0x100 EXP SWAP1 DIV PUSH1 0xFF AND DUP2 JUMP JUMPDEST PUSH1 0x0 DUP1 ISZERO ISZERO PUSH1 0x1 PUSH1 0x0 CALLER PUSH20 0xFFFFFFFFFFFFFFFFFFFFFFFFFFFFFFFFFFFFFFFF AND PUSH20 0xFFFFFFFFFFFFFFFFFFFFFFFFFFFFFFFFFFFFFFFF AND DUP2 MSTORE PUSH1 0x20 ADD SWAP1 DUP2 MSTORE PUSH1 0x20 ADD PUSH1 0x0 KECCAK256 PUSH1 0x0 SWAP1 SLOAD SWAP1 PUSH2 0x100 EXP SWAP1 DIV PUSH1 0xFF AND ISZERO ISZERO EQ PUSH2 0x501 JUMPI PUSH1 0x40 MLOAD PUSH32 0x8C379A000000000000000000000000000000000000000000000000000000000 DUP2 MSTORE PUSH1 0x4 ADD PUSH2 0x4F8 SWAP1 PUSH2 0xBAC JUMP JUMPDEST PUSH1 0x40 MLOAD DUP1 SWAP2 SUB SWAP1 REVERT JUMPDEST PUSH1 0x5 PUSH1 0x0 SWAP1 SLOAD SWAP1 PUSH2 0x100 EXP SWAP1 DIV PUSH20 0xFFFFFFFFFFFFFFFFFFFFFFFFFFFFFFFFFFFFFFFF AND PUSH20 0xFFFFFFFFFFFFFFFFFFFFFFFFFFFFFFFFFFFFFFFF AND PUSH4 0x23B872DD CALLER PUSH1 0x3 PUSH1 0x0 SWAP1 SLOAD SWAP1 PUSH2 0x100 EXP SWAP1 DIV PUSH20 0xFFFFFFFFFFFFFFFFFFFFFFFFFFFFFFFFFFFFFFFF AND PUSH1 0x2 SLOAD PUSH1 0x40 MLOAD DUP5 PUSH4 0xFFFFFFFF AND PUSH1 0xE0 SHL DUP2 MSTORE PUSH1 0x4 ADD PUSH2 0x584 SWAP4 SWAP3 SWAP2 SWAP1 PUSH2 0xBCC JUMP JUMPDEST PUSH1 0x20 PUSH1 0x40 MLOAD DUP1 DUP4 SUB DUP2 PUSH1 0x0 DUP8 GAS CALL ISZERO DUP1 ISZERO PUSH2 0x5A3 JUMPI RETURNDATASIZE PUSH1 0x0 DUP1 RETURNDATACOPY RETURNDATASIZE PUSH1 0x0 REVERT JUMPDEST POP POP POP POP PUSH1 0x40 MLOAD RETURNDATASIZE PUSH1 0x1F NOT PUSH1 0x1F DUP3 ADD AND DUP3 ADD DUP1 PUSH1 0x40 MSTORE POP DUP2 ADD SWAP1 PUSH2 0x5C7 SWAP2 SWAP1 PUSH2 0xC2F JUMP JUMPDEST POP PUSH1 0x1 DUP1 PUSH1 0x0 CALLER PUSH20 0xFFFFFFFFFFFFFFFFFFFFFFFFFFFFFFFFFFFFFFFF AND PUSH20 0xFFFFFFFFFFFFFFFFFFFFFFFFFFFFFFFFFFFFFFFF AND DUP2 MSTORE PUSH1 0x20 ADD SWAP1 DUP2 MSTORE PUSH1 0x20 ADD PUSH1 0x0 KECCAK256 PUSH1 0x0 PUSH2 0x100 EXP DUP2 SLOAD DUP2 PUSH1 0xFF MUL NOT AND SWAP1 DUP4 ISZERO ISZERO MUL OR SWAP1 SSTORE POP PUSH1 0x1 PUSH1 0x0 CALLER PUSH20 0xFFFFFFFFFFFFFFFFFFFFFFFFFFFFFFFFFFFFFFFF AND PUSH20 0xFFFFFFFFFFFFFFFFFFFFFFFFFFFFFFFFFFFFFFFF AND DUP2 MSTORE PUSH1 0x20 ADD SWAP1 DUP2 MSTORE PUSH1 0x20 ADD PUSH1 0x0 KECCAK256 PUSH1 0x0 SWAP1 SLOAD SWAP1 PUSH2 0x100 EXP SWAP1 DIV PUSH1 0xFF AND SWAP1 POP SWAP1 JUMP JUMPDEST PUSH1 0x3 PUSH1 0x0 SWAP1 SLOAD SWAP1 PUSH2 0x100 EXP SWAP1 DIV PUSH20 0xFFFFFFFFFFFFFFFFFFFFFFFFFFFFFFFFFFFFFFFF AND DUP2 JUMP JUMPDEST PUSH1 0x0 DUP1 PUSH1 0x0 DUP1 SLOAD SWAP1 PUSH2 0x100 EXP SWAP1 DIV PUSH20 0xFFFFFFFFFFFFFFFFFFFFFFFFFFFFFFFFFFFFFFFF AND PUSH20 0xFFFFFFFFFFFFFFFFFFFFFFFFFFFFFFFFFFFFFFFF AND PUSH4 0xFEAF968C PUSH1 0x40 MLOAD DUP2 PUSH4 0xFFFFFFFF AND PUSH1 0xE0 SHL DUP2 MSTORE PUSH1 0x4 ADD PUSH1 0xA0 PUSH1 0x40 MLOAD DUP1 DUP4 SUB DUP2 DUP7 GAS STATICCALL ISZERO DUP1 ISZERO PUSH2 0x705 JUMPI RETURNDATASIZE PUSH1 0x0 DUP1 RETURNDATACOPY RETURNDATASIZE PUSH1 0x0 REVERT JUMPDEST POP POP POP POP PUSH1 0x40 MLOAD RETURNDATASIZE PUSH1 0x1F NOT PUSH1 0x1F DUP3 ADD AND DUP3 ADD DUP1 PUSH1 0x40 MSTORE POP DUP2 ADD SWAP1 PUSH2 0x729 SWAP2 SWAP1 PUSH2 0xCF6 JUMP JUMPDEST POP POP POP SWAP2 POP POP PUSH4 0x5F5E100 DUP2 PUSH2 0x73F SWAP2 SWAP1 PUSH2 0xDCF JUMP JUMPDEST SWAP2 POP POP SWAP1 JUMP JUMPDEST PUSH1 0x5 PUSH1 0x0 SWAP1 SLOAD SWAP1 PUSH2 0x100 EXP SWAP1 DIV PUSH20 0xFFFFFFFFFFFFFFFFFFFFFFFFFFFFFFFFFFFFFFFF AND DUP2 JUMP JUMPDEST PUSH1 0x2 SLOAD DUP2 JUMP JUMPDEST PUSH1 0x0 PUSH2 0x77B PUSH2 0x697 JUMP JUMPDEST PUSH1 0x2 SLOAD PUSH2 0x788 SWAP2 SWAP1 PUSH2 0xDCF JUMP JUMPDEST SWAP1 POP SWAP1 JUMP JUMPDEST PUSH1 0x0 PUSH2 0x797 PUSH2 0x771 JUMP JUMPDEST CALLVALUE EQ PUSH2 0x7D8 JUMPI PUSH1 0x40 MLOAD PUSH32 0x8C379A000000000000000000000000000000000000000000000000000000000 DUP2 MSTORE PUSH1 0x4 ADD PUSH2 0x7CF SWAP1 PUSH2 0xE85 JUMP JUMPDEST PUSH1 0x40 MLOAD DUP1 SWAP2 SUB SWAP1 REVERT JUMPDEST PUSH1 0x0 PUSH1 0x3 PUSH1 0x0 SWAP1 SLOAD SWAP1 PUSH2 0x100 EXP SWAP1 DIV PUSH20 0xFFFFFFFFFFFFFFFFFFFFFFFFFFFFFFFFFFFFFFFF AND PUSH20 0xFFFFFFFFFFFFFFFFFFFFFFFFFFFFFFFFFFFFFFFF AND CALLVALUE PUSH1 0x40 MLOAD PUSH2 0x820 SWAP1 PUSH2 0xED6 JUMP JUMPDEST PUSH1 0x0 PUSH1 0x40 MLOAD DUP1 DUP4 SUB DUP2 DUP6 DUP8 GAS CALL SWAP3 POP POP POP RETURNDATASIZE DUP1 PUSH1 0x0 DUP2 EQ PUSH2 0x85D JUMPI PUSH1 0x40 MLOAD SWAP2 POP PUSH1 0x1F NOT PUSH1 0x3F RETURNDATASIZE ADD AND DUP3 ADD PUSH1 0x40 MSTORE RETURNDATASIZE DUP3 MSTORE RETURNDATASIZE PUSH1 0x0 PUSH1 0x20 DUP5 ADD RETURNDATACOPY PUSH2 0x862 JUMP JUMPDEST PUSH1 0x60 SWAP2 POP JUMPDEST POP POP SWAP1 POP PUSH1 0x1 ISZERO ISZERO DUP2 ISZERO ISZERO EQ PUSH2 0x8AD JUMPI PUSH1 0x40 MLOAD PUSH32 0x8C379A000000000000000000000000000000000000000000000000000000000 DUP2 MSTORE PUSH1 0x4 ADD PUSH2 0x8A4 SWAP1 PUSH2 0xF37 JUMP JUMPDEST PUSH1 0x40 MLOAD DUP1 SWAP2 SUB SWAP1 REVERT JUMPDEST PUSH1 0x1 DUP1 PUSH1 0x0 CALLER PUSH20 0xFFFFFFFFFFFFFFFFFFFFFFFFFFFFFFFFFFFFFFFF AND PUSH20 0xFFFFFFFFFFFFFFFFFFFFFFFFFFFFFFFFFFFFFFFF AND DUP2 MSTORE PUSH1 0x20 ADD SWAP1 DUP2 MSTORE PUSH1 0x20 ADD PUSH1 0x0 KECCAK256 PUSH1 0x0 PUSH2 0x100 EXP DUP2 SLOAD DUP2 PUSH1 0xFF MUL NOT AND SWAP1 DUP4 ISZERO ISZERO MUL OR SWAP1 SSTORE POP PUSH1 0x1 PUSH1 0x0 CALLER PUSH20 0xFFFFFFFFFFFFFFFFFFFFFFFFFFFFFFFFFFFFFFFF AND PUSH20 0xFFFFFFFFFFFFFFFFFFFFFFFFFFFFFFFFFFFFFFFF AND DUP2 MSTORE PUSH1 0x20 ADD SWAP1 DUP2 MSTORE PUSH1 0x20 ADD PUSH1 0x0 KECCAK256 PUSH1 0x0 SWAP1 SLOAD SWAP1 PUSH2 0x100 EXP SWAP1 DIV PUSH1 0xFF AND SWAP2 POP POP SWAP1 JUMP JUMPDEST PUSH1 0x4 PUSH1 0x0 SWAP1 SLOAD SWAP1 PUSH2 0x100 EXP SWAP1 DIV PUSH20 0xFFFFFFFFFFFFFFFFFFFFFFFFFFFFFFFFFFFFFFFF AND DUP2 JUMP JUMPDEST PUSH1 0x0 DUP2 ISZERO ISZERO SWAP1 POP SWAP2 SWAP1 POP JUMP JUMPDEST PUSH2 0x992 DUP2 PUSH2 0x97D JUMP JUMPDEST DUP3 MSTORE POP POP JUMP JUMPDEST PUSH1 0x0 PUSH1 0x20 DUP3 ADD SWAP1 POP PUSH2 0x9AD PUSH1 0x0 DUP4 ADD DUP5 PUSH2 0x989 JUMP JUMPDEST SWAP3 SWAP2 POP POP JUMP JUMPDEST PUSH1 0x0 DUP1 REVERT JUMPDEST PUSH1 0x0 PUSH20 0xFFFFFFFFFFFFFFFFFFFFFFFFFFFFFFFFFFFFFFFF DUP3 AND SWAP1 POP SWAP2 SWAP1 POP JUMP JUMPDEST PUSH1 0x0 PUSH2 0x9E3 DUP3 PUSH2 0x9B8 JUMP JUMPDEST SWAP1 POP SWAP2 SWAP1 POP JUMP JUMPDEST PUSH2 0x9F3 DUP2 PUSH2 0x9D8 JUMP JUMPDEST DUP2 EQ PUSH2 0x9FE JUMPI PUSH1 0x0 DUP1 REVERT JUMPDEST POP JUMP JUMPDEST PUSH1 0x0 DUP2 CALLDATALOAD SWAP1 POP PUSH2 0xA10 DUP2 PUSH2 0x9EA JUMP JUMPDEST SWAP3 SWAP2 POP POP JUMP JUMPDEST PUSH1 0x0 PUSH1 0x20 DUP3 DUP5 SUB SLT ISZERO PUSH2 0xA2C JUMPI PUSH2 0xA2B PUSH2 0x9B3 JUMP JUMPDEST JUMPDEST PUSH1 0x0 PUSH2 0xA3A DUP5 DUP3 DUP6 ADD PUSH2 0xA01 JUMP JUMPDEST SWAP2 POP POP SWAP3 SWAP2 POP POP JUMP JUMPDEST PUSH2 0xA4C DUP2 PUSH2 0x9D8 JUMP JUMPDEST DUP3 MSTORE POP POP JUMP JUMPDEST PUSH1 0x0 PUSH1 0x20 DUP3 ADD SWAP1 POP PUSH2 0xA67 PUSH1 0x0 DUP4 ADD DUP5 PUSH2 0xA43 JUMP JUMPDEST SWAP3 SWAP2 POP POP JUMP JUMPDEST PUSH1 0x0 DUP2 SWAP1 POP SWAP2 SWAP1 POP JUMP JUMPDEST PUSH2 0xA80 DUP2 PUSH2 0xA6D JUMP JUMPDEST DUP3 MSTORE POP POP JUMP JUMPDEST PUSH1 0x0 PUSH1 0x20 DUP3 ADD SWAP1 POP PUSH2 0xA9B PUSH1 0x0 DUP4 ADD DUP5 PUSH2 0xA77 JUMP JUMPDEST SWAP3 SWAP2 POP POP JUMP JUMPDEST PUSH1 0x0 DUP2 SWAP1 POP SWAP2 SWAP1 POP JUMP JUMPDEST PUSH1 0x0 PUSH2 0xAC6 PUSH2 0xAC1 PUSH2 0xABC DUP5 PUSH2 0x9B8 JUMP JUMPDEST PUSH2 0xAA1 JUMP JUMPDEST PUSH2 0x9B8 JUMP JUMPDEST SWAP1 POP SWAP2 SWAP1 POP JUMP JUMPDEST PUSH1 0x0 PUSH2 0xAD8 DUP3 PUSH2 0xAAB JUMP JUMPDEST SWAP1 POP SWAP2 SWAP1 POP JUMP JUMPDEST PUSH1 0x0 PUSH2 0xAEA DUP3 PUSH2 0xACD JUMP JUMPDEST SWAP1 POP SWAP2 SWAP1 POP JUMP JUMPDEST PUSH2 0xAFA DUP2 PUSH2 0xADF JUMP JUMPDEST DUP3 MSTORE POP POP JUMP JUMPDEST PUSH1 0x0 PUSH1 0x20 DUP3 ADD SWAP1 POP PUSH2 0xB15 PUSH1 0x0 DUP4 ADD DUP5 PUSH2 0xAF1 JUMP JUMPDEST SWAP3 SWAP2 POP POP JUMP JUMPDEST PUSH1 0x0 DUP2 SWAP1 POP SWAP2 SWAP1 POP JUMP JUMPDEST PUSH2 0xB2E DUP2 PUSH2 0xB1B JUMP JUMPDEST DUP3 MSTORE POP POP JUMP JUMPDEST PUSH1 0x0 PUSH1 0x20 DUP3 ADD SWAP1 POP PUSH2 0xB49 PUSH1 0x0 DUP4 ADD DUP5 PUSH2 0xB25 JUMP JUMPDEST SWAP3 SWAP2 POP POP JUMP JUMPDEST PUSH1 0x0 DUP3 DUP3 MSTORE PUSH1 0x20 DUP3 ADD SWAP1 POP SWAP3 SWAP2 POP POP JUMP JUMPDEST PUSH32 0x596F7520616C726561647920626F756768742074686973206974656D00000000 PUSH1 0x0 DUP3 ADD MSTORE POP JUMP JUMPDEST PUSH1 0x0 PUSH2 0xB96 PUSH1 0x1C DUP4 PUSH2 0xB4F JUMP JUMPDEST SWAP2 POP PUSH2 0xBA1 DUP3 PUSH2 0xB60 JUMP JUMPDEST PUSH1 0x20 DUP3 ADD SWAP1 POP SWAP2 SWAP1 POP JUMP JUMPDEST PUSH1 0x0 PUSH1 0x20 DUP3 ADD SWAP1 POP DUP2 DUP2 SUB PUSH1 0x0 DUP4 ADD MSTORE PUSH2 0xBC5 DUP2 PUSH2 0xB89 JUMP JUMPDEST SWAP1 POP SWAP2 SWAP1 POP JUMP JUMPDEST PUSH1 0x0 PUSH1 0x60 DUP3 ADD SWAP1 POP PUSH2 0xBE1 PUSH1 0x0 DUP4 ADD DUP7 PUSH2 0xA43 JUMP JUMPDEST PUSH2 0xBEE PUSH1 0x20 DUP4 ADD DUP6 PUSH2 0xA43 JUMP JUMPDEST PUSH2 0xBFB PUSH1 0x40 DUP4 ADD DUP5 PUSH2 0xB25 JUMP JUMPDEST SWAP5 SWAP4 POP POP POP POP JUMP JUMPDEST PUSH2 0xC0C DUP2 PUSH2 0x97D JUMP JUMPDEST DUP2 EQ PUSH2 0xC17 JUMPI PUSH1 0x0 DUP1 REVERT JUMPDEST POP JUMP JUMPDEST PUSH1 0x0 DUP2 MLOAD SWAP1 POP PUSH2 0xC29 DUP2 PUSH2 0xC03 JUMP JUMPDEST SWAP3 SWAP2 POP POP JUMP JUMPDEST PUSH1 0x0 PUSH1 0x20 DUP3 DUP5 SUB SLT ISZERO PUSH2 0xC45 JUMPI PUSH2 0xC44 PUSH2 0x9B3 JUMP JUMPDEST JUMPDEST PUSH1 0x0 PUSH2 0xC53 DUP5 DUP3 DUP6 ADD PUSH2 0xC1A JUMP JUMPDEST SWAP2 POP POP SWAP3 SWAP2 POP POP JUMP JUMPDEST PUSH1 0x0 PUSH10 0xFFFFFFFFFFFFFFFFFFFF DUP3 AND SWAP1 POP SWAP2 SWAP1 POP JUMP JUMPDEST PUSH2 0xC7B DUP2 PUSH2 0xC5C JUMP JUMPDEST DUP2 EQ PUSH2 0xC86 JUMPI PUSH1 0x0 DUP1 REVERT JUMPDEST POP JUMP JUMPDEST PUSH1 0x0 DUP2 MLOAD SWAP1 POP PUSH2 0xC98 DUP2 PUSH2 0xC72 JUMP JUMPDEST SWAP3 SWAP2 POP POP JUMP JUMPDEST PUSH2 0xCA7 DUP2 PUSH2 0xA6D JUMP JUMPDEST DUP2 EQ PUSH2 0xCB2 JUMPI PUSH1 0x0 DUP1 REVERT JUMPDEST POP JUMP JUMPDEST PUSH1 0x0 DUP2 MLOAD SWAP1 POP PUSH2 0xCC4 DUP2 PUSH2 0xC9E JUMP JUMPDEST SWAP3 SWAP2 POP POP JUMP JUMPDEST PUSH2 0xCD3 DUP2 PUSH2 0xB1B JUMP JUMPDEST DUP2 EQ PUSH2 0xCDE JUMPI PUSH1 0x0 DUP1 REVERT JUMPDEST POP JUMP JUMPDEST PUSH1 0x0 DUP2 MLOAD SWAP1 POP PUSH2 0xCF0 DUP2 PUSH2 0xCCA JUMP JUMPDEST SWAP3 SWAP2 POP POP JUMP JUMPDEST PUSH1 0x0 DUP1 PUSH1 0x0 DUP1 PUSH1 0x0 PUSH1 0xA0 DUP7 DUP9 SUB SLT ISZERO PUSH2 0xD12 JUMPI PUSH2 0xD11 PUSH2 0x9B3 JUMP JUMPDEST JUMPDEST PUSH1 0x0 PUSH2 0xD20 DUP9 DUP3 DUP10 ADD PUSH2 0xC89 JUMP JUMPDEST SWAP6 POP POP PUSH1 0x20 PUSH2 0xD31 DUP9 DUP3 DUP10 ADD PUSH2 0xCB5 JUMP JUMPDEST SWAP5 POP POP PUSH1 0x40 PUSH2 0xD42 DUP9 DUP3 DUP10 ADD PUSH2 0xCE1 JUMP JUMPDEST SWAP4 POP POP PUSH1 0x60 PUSH2 0xD53 DUP9 DUP3 DUP10 ADD PUSH2 0xCE1 JUMP JUMPDEST SWAP3 POP POP PUSH1 0x80 PUSH2 0xD64 DUP9 DUP3 DUP10 ADD PUSH2 0xC89 JUMP JUMPDEST SWAP2 POP POP SWAP3 SWAP6 POP SWAP3 SWAP6 SWAP1 SWAP4 POP JUMP JUMPDEST PUSH32 0x4E487B7100000000000000000000000000000000000000000000000000000000 PUSH1 0x0 MSTORE PUSH1 0x12 PUSH1 0x4 MSTORE PUSH1 0x24 PUSH1 0x0 REVERT JUMPDEST PUSH32 0x4E487B7100000000000000000000000000000000000000000000000000000000 PUSH1 0x0 MSTORE PUSH1 0x11 PUSH1 0x4 MSTORE PUSH1 0x24 PUSH1 0x0 REVERT JUMPDEST PUSH1 0x0 PUSH2 0xDDA DUP3 PUSH2 0xA6D JUMP JUMPDEST SWAP2 POP PUSH2 0xDE5 DUP4 PUSH2 0xA6D JUMP JUMPDEST SWAP3 POP DUP3 PUSH2 0xDF5 JUMPI PUSH2 0xDF4 PUSH2 0xD71 JUMP JUMPDEST JUMPDEST PUSH1 0x1 PUSH1 0x0 SUB DUP4 EQ PUSH32 0x8000000000000000000000000000000000000000000000000000000000000000 DUP4 EQ AND ISZERO PUSH2 0xE2E JUMPI PUSH2 0xE2D PUSH2 0xDA0 JUMP JUMPDEST JUMPDEST DUP3 DUP3 SDIV SWAP1 POP SWAP3 SWAP2 POP POP JUMP JUMPDEST PUSH32 0x57726F6E6720616D6F756E74206F662045544821000000000000000000000000 PUSH1 0x0 DUP3 ADD MSTORE POP JUMP JUMPDEST PUSH1 0x0 PUSH2 0xE6F PUSH1 0x14 DUP4 PUSH2 0xB4F JUMP JUMPDEST SWAP2 POP PUSH2 0xE7A DUP3 PUSH2 0xE39 JUMP JUMPDEST PUSH1 0x20 DUP3 ADD SWAP1 POP SWAP2 SWAP1 POP JUMP JUMPDEST PUSH1 0x0 PUSH1 0x20 DUP3 ADD SWAP1 POP DUP2 DUP2 SUB PUSH1 0x0 DUP4 ADD MSTORE PUSH2 0xE9E DUP2 PUSH2 0xE62 JUMP JUMPDEST SWAP1 POP SWAP2 SWAP1 POP JUMP JUMPDEST PUSH1 0x0 DUP2 SWAP1 POP SWAP3 SWAP2 POP POP JUMP JUMPDEST POP JUMP JUMPDEST PUSH1 0x0 PUSH2 0xEC0 PUSH1 0x0 DUP4 PUSH2 0xEA5 JUMP JUMPDEST SWAP2 POP PUSH2 0xECB DUP3 PUSH2 0xEB0 JUMP JUMPDEST PUSH1 0x0 DUP3 ADD SWAP1 POP SWAP2 SWAP1 POP JUMP JUMPDEST PUSH1 0x0 PUSH2 0xEE1 DUP3 PUSH2 0xEB3 JUMP JUMPDEST SWAP2 POP DUP2 SWAP1 POP SWAP2 SWAP1 POP JUMP JUMPDEST PUSH32 0x4661696C656420746F2073656E64204554480000000000000000000000000000 PUSH1 0x0 DUP3 ADD MSTORE POP JUMP JUMPDEST PUSH1 0x0 PUSH2 0xF21 PUSH1 0x12 DUP4 PUSH2 0xB4F JUMP JUMPDEST SWAP2 POP PUSH2 0xF2C DUP3 PUSH2 0xEEB JUMP JUMPDEST PUSH1 0x20 DUP3 ADD SWAP1 POP SWAP2 SWAP1 POP JUMP JUMPDEST PUSH1 0x0 PUSH1 0x20 DUP3 ADD SWAP1 POP DUP2 DUP2 SUB PUSH1 0x0 DUP4 ADD MSTORE PUSH2 0xF50 DUP2 PUSH2 0xF14 JUMP JUMPDEST SWAP1 POP SWAP2 SWAP1 POP JUMP INVALID LOG2 PUSH5 0x6970667358 0x22 SLT KECCAK256 LOG3 0xB6 0xC DUP10 0xD0 SIGNEXTEND REVERT 0xF8 DUP7 MSTORE8 PUSH28 0x2065E200B290816324EB172F0931D6AA663203370D64736F6C634300 ADDMOD 0xD STOP CALLER "
				},
				"gasEstimates": {
					"creation": {
						"codeDepositCost": "796200",
						"executionCost": "120004",
						"totalCost": "916204"
					},
					"external": {
						"alreadyBought(address)": "2868",
						"getCurrentPriceOfETH()": "infinite",
						"getPriceOfETH()": "infinite",
						"owner()": "2581",
						"payInEth()": "infinite",
						"payInUSDC()": "infinite",
						"payInUSDT()": "infinite",
						"price()": "2451",
						"usdcTestToken()": "infinite",
						"usdtTestToken()": "infinite"
					}
				},
				"methodIdentifiers": {
					"alreadyBought(address)": "5b27f2a7",
					"getCurrentPriceOfETH()": "8e07c22a",
					"getPriceOfETH()": "aef691e9",
					"owner()": "8da5cb5b",
					"payInEth()": "cb44bd05",
					"payInUSDC()": "11023c79",
					"payInUSDT()": "82d3eef6",
					"price()": "a035b1fe",
					"usdcTestToken()": "fba931b4",
					"usdtTestToken()": "906798f8"
				}
			},
			"storageLayout": {
				"storage": [
					{
						"astId": 55,
						"contract": "bootcamp/week7/day_1_marketplaceItem1.sol:marketplaceItem1",
						"label": "priceFeed",
						"offset": 0,
						"slot": "0",
						"type": "t_contract(AggregatorV3Interface)45"
					},
					{
						"astId": 59,
						"contract": "bootcamp/week7/day_1_marketplaceItem1.sol:marketplaceItem1",
						"label": "alreadyBought",
						"offset": 0,
						"slot": "1",
						"type": "t_mapping(t_address,t_bool)"
					},
					{
						"astId": 66,
						"contract": "bootcamp/week7/day_1_marketplaceItem1.sol:marketplaceItem1",
						"label": "price",
						"offset": 0,
						"slot": "2",
						"type": "t_uint256"
					},
					{
						"astId": 73,
						"contract": "bootcamp/week7/day_1_marketplaceItem1.sol:marketplaceItem1",
						"label": "owner",
						"offset": 0,
						"slot": "3",
						"type": "t_address"
					},
					{
						"astId": 79,
						"contract": "bootcamp/week7/day_1_marketplaceItem1.sol:marketplaceItem1",
						"label": "usdcTestToken",
						"offset": 0,
						"slot": "4",
						"type": "t_contract(IERC20)317"
					},
					{
						"astId": 85,
						"contract": "bootcamp/week7/day_1_marketplaceItem1.sol:marketplaceItem1",
						"label": "usdtTestToken",
						"offset": 0,
						"slot": "5",
						"type": "t_contract(IERC20)317"
					}
				],
				"types": {
					"t_address": {
						"encoding": "inplace",
						"label": "address",
						"numberOfBytes": "20"
					},
					"t_bool": {
						"encoding": "inplace",
						"label": "bool",
						"numberOfBytes": "1"
					},
					"t_contract(AggregatorV3Interface)45": {
						"encoding": "inplace",
						"label": "contract AggregatorV3Interface",
						"numberOfBytes": "20"
					},
					"t_contract(IERC20)317": {
						"encoding": "inplace",
						"label": "contract IERC20",
						"numberOfBytes": "20"
					},
					"t_mapping(t_address,t_bool)": {
						"encoding": "mapping",
						"key": "t_address",
						"label": "mapping(address => bool)",
						"numberOfBytes": "32",
						"value": "t_bool"
					},
					"t_uint256": {
						"encoding": "inplace",
						"label": "uint256",
						"numberOfBytes": "32"
					}
				}
			},
			"userdoc": {
				"kind": "user",
				"methods": {},
				"version": 1
			}
		}
	}
}