{
	"bootcamp/week7/day_1_marketplaceItem1.sol": {
		"marketplaceItem1": {
			"abi": [
				{
					"inputs": [
						{
							"internalType": "address",
							"name": "",
							"type": "address"
						}
					],
					"name": "alreadyBought",
					"outputs": [
						{
							"internalType": "bool",
							"name": "",
							"type": "bool"
						}
					],
					"stateMutability": "view",
					"type": "function"
				},
				{
					"inputs": [
						{
							"internalType": "address",
							"name": "newOwner",
							"type": "address"
						}
					],
					"name": "changeOwner",
					"outputs": [],
					"stateMutability": "nonpayable",
					"type": "function"
				},
				{
					"inputs": [
						{
							"internalType": "uint256",
							"name": "newPrice",
							"type": "uint256"
						}
					],
					"name": "changePrice",
					"outputs": [],
					"stateMutability": "nonpayable",
					"type": "function"
				},
				{
					"inputs": [],
					"name": "getCurrentPriceOfETH",
					"outputs": [
						{
							"internalType": "int256",
							"name": "",
							"type": "int256"
						}
					],
					"stateMutability": "view",
					"type": "function"
				},
				{
					"inputs": [],
					"name": "getPriceOfETH",
					"outputs": [
						{
							"internalType": "int256",
							"name": "",
							"type": "int256"
						}
					],
					"stateMutability": "view",
					"type": "function"
				},
				{
					"inputs": [],
					"name": "owner",
					"outputs": [
						{
							"internalType": "address",
							"name": "",
							"type": "address"
						}
					],
					"stateMutability": "view",
					"type": "function"
				},
				{
					"inputs": [],
					"name": "payInEth",
					"outputs": [
						{
							"internalType": "bool",
							"name": "",
							"type": "bool"
						}
					],
					"stateMutability": "payable",
					"type": "function"
				},
				{
					"inputs": [],
					"name": "payInUSDC",
					"outputs": [
						{
							"internalType": "bool",
							"name": "",
							"type": "bool"
						}
					],
					"stateMutability": "nonpayable",
					"type": "function"
				},
				{
					"inputs": [],
					"name": "payInUSDT",
					"outputs": [
						{
							"internalType": "bool",
							"name": "",
							"type": "bool"
						}
					],
					"stateMutability": "nonpayable",
					"type": "function"
				},
				{
					"inputs": [],
					"name": "price",
					"outputs": [
						{
							"internalType": "uint256",
							"name": "",
							"type": "uint256"
						}
					],
					"stateMutability": "view",
					"type": "function"
				},
				{
					"inputs": [],
					"name": "usdcTestToken",
					"outputs": [
						{
							"internalType": "contract IERC20",
							"name": "",
							"type": "address"
						}
					],
					"stateMutability": "view",
					"type": "function"
				},
				{
					"inputs": [],
					"name": "usdtTestToken",
					"outputs": [
						{
							"internalType": "contract IERC20",
							"name": "",
							"type": "address"
						}
					],
					"stateMutability": "view",
					"type": "function"
				}
			],
			"devdoc": {
				"kind": "dev",
				"methods": {},
				"version": 1
			},
			"evm": {
				"assembly": "    /* \"bootcamp/week7/day_1_marketplaceItem1.sol\":245:2338  contract marketplaceItem1 {... */\n  mstore(0x40, 0x80)\n    /* \"bootcamp/week7/day_1_marketplaceItem1.sol\":343:385  0xD4a33860578De61DBAbDc8BFdb98FD742fA7028e */\n  0xd4a33860578de61dbabdc8bfdb98fd742fa7028e\n    /* \"bootcamp/week7/day_1_marketplaceItem1.sol\":278:386  AggregatorV3Interface internal priceFeed = AggregatorV3Interface(0xD4a33860578De61DBAbDc8BFdb98FD742fA7028e) */\n  0x00\n  dup1\n  0x0100\n  exp\n  dup2\n  sload\n  dup2\n  0xffffffffffffffffffffffffffffffffffffffff\n  mul\n  not\n  and\n  swap1\n  dup4\n  0xffffffffffffffffffffffffffffffffffffffff\n  and\n  mul\n  or\n  swap1\n  sstore\n  pop\n    /* \"bootcamp/week7/day_1_marketplaceItem1.sol\":465:470  10e18 */\n  0x8ac7230489e80000\n    /* \"bootcamp/week7/day_1_marketplaceItem1.sol\":445:470  uint public price = 10e18 */\n  0x02\n  sstore\n    /* \"bootcamp/week7/day_1_marketplaceItem1.sol\":552:562  msg.sender */\n  caller\n    /* \"bootcamp/week7/day_1_marketplaceItem1.sol\":521:563  address public owner = payable(msg.sender) */\n  0x03\n  exp(0x0100, 0x00)\n  dup2\n  sload\n  dup2\n  0xffffffffffffffffffffffffffffffffffffffff\n  mul\n  not\n  and\n  swap1\n  dup4\n  0xffffffffffffffffffffffffffffffffffffffff\n  and\n  mul\n  or\n  swap1\n  sstore\n  pop\n    /* \"bootcamp/week7/day_1_marketplaceItem1.sol\":607:649  0xce4BBa458ED6D2efef2bc8bfEb5ec5fb035dd822 */\n  0xce4bba458ed6d2efef2bc8bfeb5ec5fb035dd822\n    /* \"bootcamp/week7/day_1_marketplaceItem1.sol\":570:650  IERC20 public usdcTestToken = IERC20(0xce4BBa458ED6D2efef2bc8bfEb5ec5fb035dd822) */\n  0x04\n  exp(0x0100, 0x00)\n  dup2\n  sload\n  dup2\n  0xffffffffffffffffffffffffffffffffffffffff\n  mul\n  not\n  and\n  swap1\n  dup4\n  0xffffffffffffffffffffffffffffffffffffffff\n  and\n  mul\n  or\n  swap1\n  sstore\n  pop\n    /* \"bootcamp/week7/day_1_marketplaceItem1.sol\":693:735  0xb6651cc8429624b22E5e8E224767A8B26809EA6c */\n  0xb6651cc8429624b22e5e8e224767a8b26809ea6c\n    /* \"bootcamp/week7/day_1_marketplaceItem1.sol\":656:736  IERC20 public usdtTestToken = IERC20(0xb6651cc8429624b22E5e8E224767A8B26809EA6c) */\n  0x05\n  exp(0x0100, 0x00)\n  dup2\n  sload\n  dup2\n  0xffffffffffffffffffffffffffffffffffffffff\n  mul\n  not\n  and\n  swap1\n  dup4\n  0xffffffffffffffffffffffffffffffffffffffff\n  and\n  mul\n  or\n  swap1\n  sstore\n  pop\n    /* \"bootcamp/week7/day_1_marketplaceItem1.sol\":245:2338  contract marketplaceItem1 {... */\n  callvalue\n  dup1\n  iszero\n  tag_1\n  jumpi\n  0x00\n  dup1\n  revert\ntag_1:\n  pop\n  dataSize(sub_0)\n  dup1\n  dataOffset(sub_0)\n  0x00\n  codecopy\n  0x00\n  return\nstop\n\nsub_0: assembly {\n        /* \"bootcamp/week7/day_1_marketplaceItem1.sol\":245:2338  contract marketplaceItem1 {... */\n      mstore(0x40, 0x80)\n      jumpi(tag_1, lt(calldatasize, 0x04))\n      shr(0xe0, calldataload(0x00))\n      dup1\n      0xa035b1fe\n      gt\n      tag_14\n      jumpi\n      dup1\n      0xa035b1fe\n      eq\n      tag_8\n      jumpi\n      dup1\n      0xa2b40d19\n      eq\n      tag_9\n      jumpi\n      dup1\n      0xa6f9dae1\n      eq\n      tag_10\n      jumpi\n      dup1\n      0xaef691e9\n      eq\n      tag_11\n      jumpi\n      dup1\n      0xcb44bd05\n      eq\n      tag_12\n      jumpi\n      dup1\n      0xfba931b4\n      eq\n      tag_13\n      jumpi\n      jump(tag_1)\n    tag_14:\n      dup1\n      0x11023c79\n      eq\n      tag_2\n      jumpi\n      dup1\n      0x5b27f2a7\n      eq\n      tag_3\n      jumpi\n      dup1\n      0x82d3eef6\n      eq\n      tag_4\n      jumpi\n      dup1\n      0x8da5cb5b\n      eq\n      tag_5\n      jumpi\n      dup1\n      0x8e07c22a\n      eq\n      tag_6\n      jumpi\n      dup1\n      0x906798f8\n      eq\n      tag_7\n      jumpi\n    tag_1:\n      0x00\n      dup1\n      revert\n        /* \"bootcamp/week7/day_1_marketplaceItem1.sol\":743:1022  function payInUSDC() public returns(bool){... */\n    tag_2:\n      callvalue\n      dup1\n      iszero\n      tag_15\n      jumpi\n      0x00\n      dup1\n      revert\n    tag_15:\n      pop\n      tag_16\n      tag_17\n      jump\t// in\n    tag_16:\n      mload(0x40)\n      tag_18\n      swap2\n      swap1\n      tag_19\n      jump\t// in\n    tag_18:\n      mload(0x40)\n      dup1\n      swap2\n      sub\n      swap1\n      return\n        /* \"bootcamp/week7/day_1_marketplaceItem1.sol\":393:439  mapping (address => bool) public alreadyBought */\n    tag_3:\n      callvalue\n      dup1\n      iszero\n      tag_20\n      jumpi\n      0x00\n      dup1\n      revert\n    tag_20:\n      pop\n      tag_21\n      0x04\n      dup1\n      calldatasize\n      sub\n      dup2\n      add\n      swap1\n      tag_22\n      swap2\n      swap1\n      tag_23\n      jump\t// in\n    tag_22:\n      tag_24\n      jump\t// in\n    tag_21:\n      mload(0x40)\n      tag_25\n      swap2\n      swap1\n      tag_19\n      jump\t// in\n    tag_25:\n      mload(0x40)\n      dup1\n      swap2\n      sub\n      swap1\n      return\n        /* \"bootcamp/week7/day_1_marketplaceItem1.sol\":1028:1307  function payInUSDT() public returns(bool){... */\n    tag_4:\n      callvalue\n      dup1\n      iszero\n      tag_26\n      jumpi\n      0x00\n      dup1\n      revert\n    tag_26:\n      pop\n      tag_27\n      tag_28\n      jump\t// in\n    tag_27:\n      mload(0x40)\n      tag_29\n      swap2\n      swap1\n      tag_19\n      jump\t// in\n    tag_29:\n      mload(0x40)\n      dup1\n      swap2\n      sub\n      swap1\n      return\n        /* \"bootcamp/week7/day_1_marketplaceItem1.sol\":521:563  address public owner = payable(msg.sender) */\n    tag_5:\n      callvalue\n      dup1\n      iszero\n      tag_30\n      jumpi\n      0x00\n      dup1\n      revert\n    tag_30:\n      pop\n      tag_31\n      tag_32\n      jump\t// in\n    tag_31:\n      mload(0x40)\n      tag_33\n      swap2\n      swap1\n      tag_34\n      jump\t// in\n    tag_33:\n      mload(0x40)\n      dup1\n      swap2\n      sub\n      swap1\n      return\n        /* \"bootcamp/week7/day_1_marketplaceItem1.sol\":1313:1512  function getCurrentPriceOfETH() public view returns(int) {... */\n    tag_6:\n      callvalue\n      dup1\n      iszero\n      tag_35\n      jumpi\n      0x00\n      dup1\n      revert\n    tag_35:\n      pop\n      tag_36\n      tag_37\n      jump\t// in\n    tag_36:\n      mload(0x40)\n      tag_38\n      swap2\n      swap1\n      tag_39\n      jump\t// in\n    tag_38:\n      mload(0x40)\n      dup1\n      swap2\n      sub\n      swap1\n      return\n        /* \"bootcamp/week7/day_1_marketplaceItem1.sol\":656:736  IERC20 public usdtTestToken = IERC20(0xb6651cc8429624b22E5e8E224767A8B26809EA6c) */\n    tag_7:\n      callvalue\n      dup1\n      iszero\n      tag_40\n      jumpi\n      0x00\n      dup1\n      revert\n    tag_40:\n      pop\n      tag_41\n      tag_42\n      jump\t// in\n    tag_41:\n      mload(0x40)\n      tag_43\n      swap2\n      swap1\n      tag_44\n      jump\t// in\n    tag_43:\n      mload(0x40)\n      dup1\n      swap2\n      sub\n      swap1\n      return\n        /* \"bootcamp/week7/day_1_marketplaceItem1.sol\":445:470  uint public price = 10e18 */\n    tag_8:\n      callvalue\n      dup1\n      iszero\n      tag_45\n      jumpi\n      0x00\n      dup1\n      revert\n    tag_45:\n      pop\n      tag_46\n      tag_47\n      jump\t// in\n    tag_46:\n      mload(0x40)\n      tag_48\n      swap2\n      swap1\n      tag_49\n      jump\t// in\n    tag_48:\n      mload(0x40)\n      dup1\n      swap2\n      sub\n      swap1\n      return\n        /* \"bootcamp/week7/day_1_marketplaceItem1.sol\":2198:2336  function changePrice(uint newPrice) public {... */\n    tag_9:\n      callvalue\n      dup1\n      iszero\n      tag_50\n      jumpi\n      0x00\n      dup1\n      revert\n    tag_50:\n      pop\n      tag_51\n      0x04\n      dup1\n      calldatasize\n      sub\n      dup2\n      add\n      swap1\n      tag_52\n      swap2\n      swap1\n      tag_53\n      jump\t// in\n    tag_52:\n      tag_54\n      jump\t// in\n    tag_51:\n      stop\n        /* \"bootcamp/week7/day_1_marketplaceItem1.sol\":2051:2192  function changeOwner(address newOwner) public {... */\n    tag_10:\n      callvalue\n      dup1\n      iszero\n      tag_55\n      jumpi\n      0x00\n      dup1\n      revert\n    tag_55:\n      pop\n      tag_56\n      0x04\n      dup1\n      calldatasize\n      sub\n      dup2\n      add\n      swap1\n      tag_57\n      swap2\n      swap1\n      tag_23\n      jump\t// in\n    tag_57:\n      tag_58\n      jump\t// in\n    tag_56:\n      stop\n        /* \"bootcamp/week7/day_1_marketplaceItem1.sol\":1518:1627  function getPriceOfETH() public view returns(int) {... */\n    tag_11:\n      callvalue\n      dup1\n      iszero\n      tag_59\n      jumpi\n      0x00\n      dup1\n      revert\n    tag_59:\n      pop\n      tag_60\n      tag_61\n      jump\t// in\n    tag_60:\n      mload(0x40)\n      tag_62\n      swap2\n      swap1\n      tag_39\n      jump\t// in\n    tag_62:\n      mload(0x40)\n      dup1\n      swap2\n      sub\n      swap1\n      return\n        /* \"bootcamp/week7/day_1_marketplaceItem1.sol\":1661:2045  function payInEth() public payable returns(bool) {... */\n    tag_12:\n      tag_63\n      tag_64\n      jump\t// in\n    tag_63:\n      mload(0x40)\n      tag_65\n      swap2\n      swap1\n      tag_19\n      jump\t// in\n    tag_65:\n      mload(0x40)\n      dup1\n      swap2\n      sub\n      swap1\n      return\n        /* \"bootcamp/week7/day_1_marketplaceItem1.sol\":570:650  IERC20 public usdcTestToken = IERC20(0xce4BBa458ED6D2efef2bc8bfEb5ec5fb035dd822) */\n    tag_13:\n      callvalue\n      dup1\n      iszero\n      tag_66\n      jumpi\n      0x00\n      dup1\n      revert\n    tag_66:\n      pop\n      tag_67\n      tag_68\n      jump\t// in\n    tag_67:\n      mload(0x40)\n      tag_69\n      swap2\n      swap1\n      tag_44\n      jump\t// in\n    tag_69:\n      mload(0x40)\n      dup1\n      swap2\n      sub\n      swap1\n      return\n        /* \"bootcamp/week7/day_1_marketplaceItem1.sol\":743:1022  function payInUSDC() public returns(bool){... */\n    tag_17:\n        /* \"bootcamp/week7/day_1_marketplaceItem1.sol\":779:783  bool */\n      0x00\n        /* \"bootcamp/week7/day_1_marketplaceItem1.sol\":831:836  false */\n      dup1\n        /* \"bootcamp/week7/day_1_marketplaceItem1.sol\":802:836  alreadyBought[msg.sender] == false */\n      iszero\n      iszero\n        /* \"bootcamp/week7/day_1_marketplaceItem1.sol\":802:815  alreadyBought */\n      0x01\n        /* \"bootcamp/week7/day_1_marketplaceItem1.sol\":802:827  alreadyBought[msg.sender] */\n      0x00\n        /* \"bootcamp/week7/day_1_marketplaceItem1.sol\":816:826  msg.sender */\n      caller\n        /* \"bootcamp/week7/day_1_marketplaceItem1.sol\":802:827  alreadyBought[msg.sender] */\n      0xffffffffffffffffffffffffffffffffffffffff\n      and\n      0xffffffffffffffffffffffffffffffffffffffff\n      and\n      dup2\n      mstore\n      0x20\n      add\n      swap1\n      dup2\n      mstore\n      0x20\n      add\n      0x00\n      keccak256\n      0x00\n      swap1\n      sload\n      swap1\n      0x0100\n      exp\n      swap1\n      div\n      0xff\n      and\n        /* \"bootcamp/week7/day_1_marketplaceItem1.sol\":802:836  alreadyBought[msg.sender] == false */\n      iszero\n      iszero\n      eq\n        /* \"bootcamp/week7/day_1_marketplaceItem1.sol\":794:869  require(alreadyBought[msg.sender] == false, \"You already bought this item\") */\n      tag_71\n      jumpi\n      mload(0x40)\n      0x08c379a000000000000000000000000000000000000000000000000000000000\n      dup2\n      mstore\n      0x04\n      add\n      tag_72\n      swap1\n      tag_73\n      jump\t// in\n    tag_72:\n      mload(0x40)\n      dup1\n      swap2\n      sub\n      swap1\n      revert\n    tag_71:\n        /* \"bootcamp/week7/day_1_marketplaceItem1.sol\":879:892  usdcTestToken */\n      0x04\n      0x00\n      swap1\n      sload\n      swap1\n      0x0100\n      exp\n      swap1\n      div\n      0xffffffffffffffffffffffffffffffffffffffff\n      and\n        /* \"bootcamp/week7/day_1_marketplaceItem1.sol\":879:905  usdcTestToken.transferFrom */\n      0xffffffffffffffffffffffffffffffffffffffff\n      and\n      0x23b872dd\n        /* \"bootcamp/week7/day_1_marketplaceItem1.sol\":906:916  msg.sender */\n      caller\n        /* \"bootcamp/week7/day_1_marketplaceItem1.sol\":918:923  owner */\n      0x03\n      0x00\n      swap1\n      sload\n      swap1\n      0x0100\n      exp\n      swap1\n      div\n      0xffffffffffffffffffffffffffffffffffffffff\n      and\n        /* \"bootcamp/week7/day_1_marketplaceItem1.sol\":925:930  price */\n      sload(0x02)\n        /* \"bootcamp/week7/day_1_marketplaceItem1.sol\":879:931  usdcTestToken.transferFrom(msg.sender, owner, price) */\n      mload(0x40)\n      dup5\n      0xffffffff\n      and\n      0xe0\n      shl\n      dup2\n      mstore\n      0x04\n      add\n      tag_74\n      swap4\n      swap3\n      swap2\n      swap1\n      tag_75\n      jump\t// in\n    tag_74:\n      0x20\n      mload(0x40)\n      dup1\n      dup4\n      sub\n      dup2\n      0x00\n      dup8\n      gas\n      call\n      iszero\n      dup1\n      iszero\n      tag_77\n      jumpi\n      returndatasize\n      0x00\n      dup1\n      returndatacopy\n      revert(0x00, returndatasize)\n    tag_77:\n      pop\n      pop\n      pop\n      pop\n      mload(0x40)\n      returndatasize\n      not(0x1f)\n      0x1f\n      dup3\n      add\n      and\n      dup3\n      add\n      dup1\n      0x40\n      mstore\n      pop\n      dup2\n      add\n      swap1\n      tag_78\n      swap2\n      swap1\n      tag_79\n      jump\t// in\n    tag_78:\n      pop\n        /* \"bootcamp/week7/day_1_marketplaceItem1.sol\":969:973  true */\n      0x01\n        /* \"bootcamp/week7/day_1_marketplaceItem1.sol\":941:954  alreadyBought */\n      dup1\n        /* \"bootcamp/week7/day_1_marketplaceItem1.sol\":941:966  alreadyBought[msg.sender] */\n      0x00\n        /* \"bootcamp/week7/day_1_marketplaceItem1.sol\":955:965  msg.sender */\n      caller\n        /* \"bootcamp/week7/day_1_marketplaceItem1.sol\":941:966  alreadyBought[msg.sender] */\n      0xffffffffffffffffffffffffffffffffffffffff\n      and\n      0xffffffffffffffffffffffffffffffffffffffff\n      and\n      dup2\n      mstore\n      0x20\n      add\n      swap1\n      dup2\n      mstore\n      0x20\n      add\n      0x00\n      keccak256\n      0x00\n        /* \"bootcamp/week7/day_1_marketplaceItem1.sol\":941:973  alreadyBought[msg.sender] = true */\n      0x0100\n      exp\n      dup2\n      sload\n      dup2\n      0xff\n      mul\n      not\n      and\n      swap1\n      dup4\n      iszero\n      iszero\n      mul\n      or\n      swap1\n      sstore\n      pop\n        /* \"bootcamp/week7/day_1_marketplaceItem1.sol\":990:1003  alreadyBought */\n      0x01\n        /* \"bootcamp/week7/day_1_marketplaceItem1.sol\":990:1015  alreadyBought[msg.sender] */\n      0x00\n        /* \"bootcamp/week7/day_1_marketplaceItem1.sol\":1004:1014  msg.sender */\n      caller\n        /* \"bootcamp/week7/day_1_marketplaceItem1.sol\":990:1015  alreadyBought[msg.sender] */\n      0xffffffffffffffffffffffffffffffffffffffff\n      and\n      0xffffffffffffffffffffffffffffffffffffffff\n      and\n      dup2\n      mstore\n      0x20\n      add\n      swap1\n      dup2\n      mstore\n      0x20\n      add\n      0x00\n      keccak256\n      0x00\n      swap1\n      sload\n      swap1\n      0x0100\n      exp\n      swap1\n      div\n      0xff\n      and\n        /* \"bootcamp/week7/day_1_marketplaceItem1.sol\":983:1015  return alreadyBought[msg.sender] */\n      swap1\n      pop\n        /* \"bootcamp/week7/day_1_marketplaceItem1.sol\":743:1022  function payInUSDC() public returns(bool){... */\n      swap1\n      jump\t// out\n        /* \"bootcamp/week7/day_1_marketplaceItem1.sol\":393:439  mapping (address => bool) public alreadyBought */\n    tag_24:\n      mstore(0x20, 0x01)\n      dup1\n      0x00\n      mstore\n      keccak256(0x00, 0x40)\n      0x00\n      swap2\n      pop\n      sload\n      swap1\n      0x0100\n      exp\n      swap1\n      div\n      0xff\n      and\n      dup2\n      jump\t// out\n        /* \"bootcamp/week7/day_1_marketplaceItem1.sol\":1028:1307  function payInUSDT() public returns(bool){... */\n    tag_28:\n        /* \"bootcamp/week7/day_1_marketplaceItem1.sol\":1064:1068  bool */\n      0x00\n        /* \"bootcamp/week7/day_1_marketplaceItem1.sol\":1116:1121  false */\n      dup1\n        /* \"bootcamp/week7/day_1_marketplaceItem1.sol\":1087:1121  alreadyBought[msg.sender] == false */\n      iszero\n      iszero\n        /* \"bootcamp/week7/day_1_marketplaceItem1.sol\":1087:1100  alreadyBought */\n      0x01\n        /* \"bootcamp/week7/day_1_marketplaceItem1.sol\":1087:1112  alreadyBought[msg.sender] */\n      0x00\n        /* \"bootcamp/week7/day_1_marketplaceItem1.sol\":1101:1111  msg.sender */\n      caller\n        /* \"bootcamp/week7/day_1_marketplaceItem1.sol\":1087:1112  alreadyBought[msg.sender] */\n      0xffffffffffffffffffffffffffffffffffffffff\n      and\n      0xffffffffffffffffffffffffffffffffffffffff\n      and\n      dup2\n      mstore\n      0x20\n      add\n      swap1\n      dup2\n      mstore\n      0x20\n      add\n      0x00\n      keccak256\n      0x00\n      swap1\n      sload\n      swap1\n      0x0100\n      exp\n      swap1\n      div\n      0xff\n      and\n        /* \"bootcamp/week7/day_1_marketplaceItem1.sol\":1087:1121  alreadyBought[msg.sender] == false */\n      iszero\n      iszero\n      eq\n        /* \"bootcamp/week7/day_1_marketplaceItem1.sol\":1079:1154  require(alreadyBought[msg.sender] == false, \"You already bought this item\") */\n      tag_81\n      jumpi\n      mload(0x40)\n      0x08c379a000000000000000000000000000000000000000000000000000000000\n      dup2\n      mstore\n      0x04\n      add\n      tag_82\n      swap1\n      tag_73\n      jump\t// in\n    tag_82:\n      mload(0x40)\n      dup1\n      swap2\n      sub\n      swap1\n      revert\n    tag_81:\n        /* \"bootcamp/week7/day_1_marketplaceItem1.sol\":1164:1177  usdtTestToken */\n      0x05\n      0x00\n      swap1\n      sload\n      swap1\n      0x0100\n      exp\n      swap1\n      div\n      0xffffffffffffffffffffffffffffffffffffffff\n      and\n        /* \"bootcamp/week7/day_1_marketplaceItem1.sol\":1164:1190  usdtTestToken.transferFrom */\n      0xffffffffffffffffffffffffffffffffffffffff\n      and\n      0x23b872dd\n        /* \"bootcamp/week7/day_1_marketplaceItem1.sol\":1191:1201  msg.sender */\n      caller\n        /* \"bootcamp/week7/day_1_marketplaceItem1.sol\":1203:1208  owner */\n      0x03\n      0x00\n      swap1\n      sload\n      swap1\n      0x0100\n      exp\n      swap1\n      div\n      0xffffffffffffffffffffffffffffffffffffffff\n      and\n        /* \"bootcamp/week7/day_1_marketplaceItem1.sol\":1210:1215  price */\n      sload(0x02)\n        /* \"bootcamp/week7/day_1_marketplaceItem1.sol\":1164:1216  usdtTestToken.transferFrom(msg.sender, owner, price) */\n      mload(0x40)\n      dup5\n      0xffffffff\n      and\n      0xe0\n      shl\n      dup2\n      mstore\n      0x04\n      add\n      tag_83\n      swap4\n      swap3\n      swap2\n      swap1\n      tag_75\n      jump\t// in\n    tag_83:\n      0x20\n      mload(0x40)\n      dup1\n      dup4\n      sub\n      dup2\n      0x00\n      dup8\n      gas\n      call\n      iszero\n      dup1\n      iszero\n      tag_85\n      jumpi\n      returndatasize\n      0x00\n      dup1\n      returndatacopy\n      revert(0x00, returndatasize)\n    tag_85:\n      pop\n      pop\n      pop\n      pop\n      mload(0x40)\n      returndatasize\n      not(0x1f)\n      0x1f\n      dup3\n      add\n      and\n      dup3\n      add\n      dup1\n      0x40\n      mstore\n      pop\n      dup2\n      add\n      swap1\n      tag_86\n      swap2\n      swap1\n      tag_79\n      jump\t// in\n    tag_86:\n      pop\n        /* \"bootcamp/week7/day_1_marketplaceItem1.sol\":1254:1258  true */\n      0x01\n        /* \"bootcamp/week7/day_1_marketplaceItem1.sol\":1226:1239  alreadyBought */\n      dup1\n        /* \"bootcamp/week7/day_1_marketplaceItem1.sol\":1226:1251  alreadyBought[msg.sender] */\n      0x00\n        /* \"bootcamp/week7/day_1_marketplaceItem1.sol\":1240:1250  msg.sender */\n      caller\n        /* \"bootcamp/week7/day_1_marketplaceItem1.sol\":1226:1251  alreadyBought[msg.sender] */\n      0xffffffffffffffffffffffffffffffffffffffff\n      and\n      0xffffffffffffffffffffffffffffffffffffffff\n      and\n      dup2\n      mstore\n      0x20\n      add\n      swap1\n      dup2\n      mstore\n      0x20\n      add\n      0x00\n      keccak256\n      0x00\n        /* \"bootcamp/week7/day_1_marketplaceItem1.sol\":1226:1258  alreadyBought[msg.sender] = true */\n      0x0100\n      exp\n      dup2\n      sload\n      dup2\n      0xff\n      mul\n      not\n      and\n      swap1\n      dup4\n      iszero\n      iszero\n      mul\n      or\n      swap1\n      sstore\n      pop\n        /* \"bootcamp/week7/day_1_marketplaceItem1.sol\":1275:1288  alreadyBought */\n      0x01\n        /* \"bootcamp/week7/day_1_marketplaceItem1.sol\":1275:1300  alreadyBought[msg.sender] */\n      0x00\n        /* \"bootcamp/week7/day_1_marketplaceItem1.sol\":1289:1299  msg.sender */\n      caller\n        /* \"bootcamp/week7/day_1_marketplaceItem1.sol\":1275:1300  alreadyBought[msg.sender] */\n      0xffffffffffffffffffffffffffffffffffffffff\n      and\n      0xffffffffffffffffffffffffffffffffffffffff\n      and\n      dup2\n      mstore\n      0x20\n      add\n      swap1\n      dup2\n      mstore\n      0x20\n      add\n      0x00\n      keccak256\n      0x00\n      swap1\n      sload\n      swap1\n      0x0100\n      exp\n      swap1\n      div\n      0xff\n      and\n        /* \"bootcamp/week7/day_1_marketplaceItem1.sol\":1268:1300  return alreadyBought[msg.sender] */\n      swap1\n      pop\n        /* \"bootcamp/week7/day_1_marketplaceItem1.sol\":1028:1307  function payInUSDT() public returns(bool){... */\n      swap1\n      jump\t// out\n        /* \"bootcamp/week7/day_1_marketplaceItem1.sol\":521:563  address public owner = payable(msg.sender) */\n    tag_32:\n      0x03\n      0x00\n      swap1\n      sload\n      swap1\n      0x0100\n      exp\n      swap1\n      div\n      0xffffffffffffffffffffffffffffffffffffffff\n      and\n      dup2\n      jump\t// out\n        /* \"bootcamp/week7/day_1_marketplaceItem1.sol\":1313:1512  function getCurrentPriceOfETH() public view returns(int) {... */\n    tag_37:\n        /* \"bootcamp/week7/day_1_marketplaceItem1.sol\":1365:1368  int */\n      0x00\n        /* \"bootcamp/week7/day_1_marketplaceItem1.sol\":1392:1406  int priceOfUSD */\n      dup1\n        /* \"bootcamp/week7/day_1_marketplaceItem1.sol\":1443:1452  priceFeed */\n      0x00\n      dup1\n      sload\n      swap1\n      0x0100\n      exp\n      swap1\n      div\n      0xffffffffffffffffffffffffffffffffffffffff\n      and\n        /* \"bootcamp/week7/day_1_marketplaceItem1.sol\":1443:1468  priceFeed.latestRoundData */\n      0xffffffffffffffffffffffffffffffffffffffff\n      and\n      0xfeaf968c\n        /* \"bootcamp/week7/day_1_marketplaceItem1.sol\":1443:1470  priceFeed.latestRoundData() */\n      mload(0x40)\n      dup2\n      0xffffffff\n      and\n      0xe0\n      shl\n      dup2\n      mstore\n      0x04\n      add\n      0xa0\n      mload(0x40)\n      dup1\n      dup4\n      sub\n      dup2\n      dup7\n      gas\n      staticcall\n      iszero\n      dup1\n      iszero\n      tag_89\n      jumpi\n      returndatasize\n      0x00\n      dup1\n      returndatacopy\n      revert(0x00, returndatasize)\n    tag_89:\n      pop\n      pop\n      pop\n      pop\n      mload(0x40)\n      returndatasize\n      not(0x1f)\n      0x1f\n      dup3\n      add\n      and\n      dup3\n      add\n      dup1\n      0x40\n      mstore\n      pop\n      dup2\n      add\n      swap1\n      tag_90\n      swap2\n      swap1\n      tag_91\n      jump\t// in\n    tag_90:\n        /* \"bootcamp/week7/day_1_marketplaceItem1.sol\":1380:1470  (/*data1*/, int priceOfUSD, /*data2*/, /*data3*/, /*data4*/) = priceFeed.latestRoundData() */\n      pop\n      pop\n      pop\n      swap2\n      pop\n      pop\n        /* \"bootcamp/week7/day_1_marketplaceItem1.sol\":1500:1505  10**8 */\n      0x05f5e100\n        /* \"bootcamp/week7/day_1_marketplaceItem1.sol\":1487:1497  priceOfUSD */\n      dup2\n        /* \"bootcamp/week7/day_1_marketplaceItem1.sol\":1487:1505  priceOfUSD / 10**8 */\n      tag_92\n      swap2\n      swap1\n      tag_93\n      jump\t// in\n    tag_92:\n        /* \"bootcamp/week7/day_1_marketplaceItem1.sol\":1480:1505  return priceOfUSD / 10**8 */\n      swap2\n      pop\n      pop\n        /* \"bootcamp/week7/day_1_marketplaceItem1.sol\":1313:1512  function getCurrentPriceOfETH() public view returns(int) {... */\n      swap1\n      jump\t// out\n        /* \"bootcamp/week7/day_1_marketplaceItem1.sol\":656:736  IERC20 public usdtTestToken = IERC20(0xb6651cc8429624b22E5e8E224767A8B26809EA6c) */\n    tag_42:\n      0x05\n      0x00\n      swap1\n      sload\n      swap1\n      0x0100\n      exp\n      swap1\n      div\n      0xffffffffffffffffffffffffffffffffffffffff\n      and\n      dup2\n      jump\t// out\n        /* \"bootcamp/week7/day_1_marketplaceItem1.sol\":445:470  uint public price = 10e18 */\n    tag_47:\n      sload(0x02)\n      dup2\n      jump\t// out\n        /* \"bootcamp/week7/day_1_marketplaceItem1.sol\":2198:2336  function changePrice(uint newPrice) public {... */\n    tag_54:\n        /* \"bootcamp/week7/day_1_marketplaceItem1.sol\":2273:2278  owner */\n      0x03\n      0x00\n      swap1\n      sload\n      swap1\n      0x0100\n      exp\n      swap1\n      div\n      0xffffffffffffffffffffffffffffffffffffffff\n      and\n        /* \"bootcamp/week7/day_1_marketplaceItem1.sol\":2259:2278  msg.sender == owner */\n      0xffffffffffffffffffffffffffffffffffffffff\n      and\n        /* \"bootcamp/week7/day_1_marketplaceItem1.sol\":2259:2269  msg.sender */\n      caller\n        /* \"bootcamp/week7/day_1_marketplaceItem1.sol\":2259:2278  msg.sender == owner */\n      0xffffffffffffffffffffffffffffffffffffffff\n      and\n      eq\n        /* \"bootcamp/week7/day_1_marketplaceItem1.sol\":2251:2303  require(msg.sender == owner, \"You're not the owner\") */\n      tag_95\n      jumpi\n      mload(0x40)\n      0x08c379a000000000000000000000000000000000000000000000000000000000\n      dup2\n      mstore\n      0x04\n      add\n      tag_96\n      swap1\n      tag_97\n      jump\t// in\n    tag_96:\n      mload(0x40)\n      dup1\n      swap2\n      sub\n      swap1\n      revert\n    tag_95:\n        /* \"bootcamp/week7/day_1_marketplaceItem1.sol\":2321:2329  newPrice */\n      dup1\n        /* \"bootcamp/week7/day_1_marketplaceItem1.sol\":2313:2318  price */\n      0x02\n        /* \"bootcamp/week7/day_1_marketplaceItem1.sol\":2313:2329  price = newPrice */\n      dup2\n      swap1\n      sstore\n      pop\n        /* \"bootcamp/week7/day_1_marketplaceItem1.sol\":2198:2336  function changePrice(uint newPrice) public {... */\n      pop\n      jump\t// out\n        /* \"bootcamp/week7/day_1_marketplaceItem1.sol\":2051:2192  function changeOwner(address newOwner) public {... */\n    tag_58:\n        /* \"bootcamp/week7/day_1_marketplaceItem1.sol\":2129:2134  owner */\n      0x03\n      0x00\n      swap1\n      sload\n      swap1\n      0x0100\n      exp\n      swap1\n      div\n      0xffffffffffffffffffffffffffffffffffffffff\n      and\n        /* \"bootcamp/week7/day_1_marketplaceItem1.sol\":2115:2134  msg.sender == owner */\n      0xffffffffffffffffffffffffffffffffffffffff\n      and\n        /* \"bootcamp/week7/day_1_marketplaceItem1.sol\":2115:2125  msg.sender */\n      caller\n        /* \"bootcamp/week7/day_1_marketplaceItem1.sol\":2115:2134  msg.sender == owner */\n      0xffffffffffffffffffffffffffffffffffffffff\n      and\n      eq\n        /* \"bootcamp/week7/day_1_marketplaceItem1.sol\":2107:2159  require(msg.sender == owner, \"You're not the owner\") */\n      tag_99\n      jumpi\n      mload(0x40)\n      0x08c379a000000000000000000000000000000000000000000000000000000000\n      dup2\n      mstore\n      0x04\n      add\n      tag_100\n      swap1\n      tag_97\n      jump\t// in\n    tag_100:\n      mload(0x40)\n      dup1\n      swap2\n      sub\n      swap1\n      revert\n    tag_99:\n        /* \"bootcamp/week7/day_1_marketplaceItem1.sol\":2177:2185  newOwner */\n      dup1\n        /* \"bootcamp/week7/day_1_marketplaceItem1.sol\":2169:2174  owner */\n      0x03\n      0x00\n        /* \"bootcamp/week7/day_1_marketplaceItem1.sol\":2169:2185  owner = newOwner */\n      0x0100\n      exp\n      dup2\n      sload\n      dup2\n      0xffffffffffffffffffffffffffffffffffffffff\n      mul\n      not\n      and\n      swap1\n      dup4\n      0xffffffffffffffffffffffffffffffffffffffff\n      and\n      mul\n      or\n      swap1\n      sstore\n      pop\n        /* \"bootcamp/week7/day_1_marketplaceItem1.sol\":2051:2192  function changeOwner(address newOwner) public {... */\n      pop\n      jump\t// out\n        /* \"bootcamp/week7/day_1_marketplaceItem1.sol\":1518:1627  function getPriceOfETH() public view returns(int) {... */\n    tag_61:\n        /* \"bootcamp/week7/day_1_marketplaceItem1.sol\":1563:1566  int */\n      0x00\n        /* \"bootcamp/week7/day_1_marketplaceItem1.sol\":1598:1620  getCurrentPriceOfETH() */\n      tag_102\n        /* \"bootcamp/week7/day_1_marketplaceItem1.sol\":1598:1618  getCurrentPriceOfETH */\n      tag_37\n        /* \"bootcamp/week7/day_1_marketplaceItem1.sol\":1598:1620  getCurrentPriceOfETH() */\n      jump\t// in\n    tag_102:\n        /* \"bootcamp/week7/day_1_marketplaceItem1.sol\":1589:1594  price */\n      sload(0x02)\n        /* \"bootcamp/week7/day_1_marketplaceItem1.sol\":1585:1620  int(price) / getCurrentPriceOfETH() */\n      tag_103\n      swap2\n      swap1\n      tag_93\n      jump\t// in\n    tag_103:\n        /* \"bootcamp/week7/day_1_marketplaceItem1.sol\":1578:1620  return int(price) / getCurrentPriceOfETH() */\n      swap1\n      pop\n        /* \"bootcamp/week7/day_1_marketplaceItem1.sol\":1518:1627  function getPriceOfETH() public view returns(int) {... */\n      swap1\n      jump\t// out\n        /* \"bootcamp/week7/day_1_marketplaceItem1.sol\":1661:2045  function payInEth() public payable returns(bool) {... */\n    tag_64:\n        /* \"bootcamp/week7/day_1_marketplaceItem1.sol\":1704:1708  bool */\n      0x00\n        /* \"bootcamp/week7/day_1_marketplaceItem1.sol\":1746:1761  getPriceOfETH() */\n      tag_105\n        /* \"bootcamp/week7/day_1_marketplaceItem1.sol\":1746:1759  getPriceOfETH */\n      tag_61\n        /* \"bootcamp/week7/day_1_marketplaceItem1.sol\":1746:1761  getPriceOfETH() */\n      jump\t// in\n    tag_105:\n        /* \"bootcamp/week7/day_1_marketplaceItem1.sol\":1728:1737  msg.value */\n      callvalue\n        /* \"bootcamp/week7/day_1_marketplaceItem1.sol\":1728:1762  msg.value == uint(getPriceOfETH()) */\n      eq\n        /* \"bootcamp/week7/day_1_marketplaceItem1.sol\":1720:1787  require(msg.value == uint(getPriceOfETH()), \"Wrong amount of ETH!\") */\n      tag_106\n      jumpi\n      mload(0x40)\n      0x08c379a000000000000000000000000000000000000000000000000000000000\n      dup2\n      mstore\n      0x04\n      add\n      tag_107\n      swap1\n      tag_108\n      jump\t// in\n    tag_107:\n      mload(0x40)\n      dup1\n      swap2\n      sub\n      swap1\n      revert\n    tag_106:\n        /* \"bootcamp/week7/day_1_marketplaceItem1.sol\":1846:1855  bool sent */\n      0x00\n        /* \"bootcamp/week7/day_1_marketplaceItem1.sol\":1869:1874  owner */\n      0x03\n      0x00\n      swap1\n      sload\n      swap1\n      0x0100\n      exp\n      swap1\n      div\n      0xffffffffffffffffffffffffffffffffffffffff\n      and\n        /* \"bootcamp/week7/day_1_marketplaceItem1.sol\":1869:1879  owner.call */\n      0xffffffffffffffffffffffffffffffffffffffff\n      and\n        /* \"bootcamp/week7/day_1_marketplaceItem1.sol\":1887:1896  msg.value */\n      callvalue\n        /* \"bootcamp/week7/day_1_marketplaceItem1.sol\":1869:1901  owner.call{value: msg.value}(\"\") */\n      mload(0x40)\n      tag_109\n      swap1\n      tag_110\n      jump\t// in\n    tag_109:\n      0x00\n      mload(0x40)\n      dup1\n      dup4\n      sub\n      dup2\n      dup6\n      dup8\n      gas\n      call\n      swap3\n      pop\n      pop\n      pop\n      returndatasize\n      dup1\n      0x00\n      dup2\n      eq\n      tag_113\n      jumpi\n      mload(0x40)\n      swap2\n      pop\n      and(add(returndatasize, 0x3f), not(0x1f))\n      dup3\n      add\n      0x40\n      mstore\n      returndatasize\n      dup3\n      mstore\n      returndatasize\n      0x00\n      0x20\n      dup5\n      add\n      returndatacopy\n      jump(tag_112)\n    tag_113:\n      0x60\n      swap2\n      pop\n    tag_112:\n      pop\n        /* \"bootcamp/week7/day_1_marketplaceItem1.sol\":1845:1901  (bool sent, /*data*/) = owner.call{value: msg.value}(\"\") */\n      pop\n      swap1\n      pop\n        /* \"bootcamp/week7/day_1_marketplaceItem1.sol\":1927:1931  true */\n      0x01\n        /* \"bootcamp/week7/day_1_marketplaceItem1.sol\":1919:1931  sent == true */\n      iszero\n      iszero\n        /* \"bootcamp/week7/day_1_marketplaceItem1.sol\":1919:1923  sent */\n      dup2\n        /* \"bootcamp/week7/day_1_marketplaceItem1.sol\":1919:1931  sent == true */\n      iszero\n      iszero\n      eq\n        /* \"bootcamp/week7/day_1_marketplaceItem1.sol\":1911:1954  require(sent == true, \"Failed to send ETH\") */\n      tag_114\n      jumpi\n      mload(0x40)\n      0x08c379a000000000000000000000000000000000000000000000000000000000\n      dup2\n      mstore\n      0x04\n      add\n      tag_115\n      swap1\n      tag_116\n      jump\t// in\n    tag_115:\n      mload(0x40)\n      dup1\n      swap2\n      sub\n      swap1\n      revert\n    tag_114:\n        /* \"bootcamp/week7/day_1_marketplaceItem1.sol\":1992:1996  true */\n      0x01\n        /* \"bootcamp/week7/day_1_marketplaceItem1.sol\":1964:1977  alreadyBought */\n      dup1\n        /* \"bootcamp/week7/day_1_marketplaceItem1.sol\":1964:1989  alreadyBought[msg.sender] */\n      0x00\n        /* \"bootcamp/week7/day_1_marketplaceItem1.sol\":1978:1988  msg.sender */\n      caller\n        /* \"bootcamp/week7/day_1_marketplaceItem1.sol\":1964:1989  alreadyBought[msg.sender] */\n      0xffffffffffffffffffffffffffffffffffffffff\n      and\n      0xffffffffffffffffffffffffffffffffffffffff\n      and\n      dup2\n      mstore\n      0x20\n      add\n      swap1\n      dup2\n      mstore\n      0x20\n      add\n      0x00\n      keccak256\n      0x00\n        /* \"bootcamp/week7/day_1_marketplaceItem1.sol\":1964:1996  alreadyBought[msg.sender] = true */\n      0x0100\n      exp\n      dup2\n      sload\n      dup2\n      0xff\n      mul\n      not\n      and\n      swap1\n      dup4\n      iszero\n      iszero\n      mul\n      or\n      swap1\n      sstore\n      pop\n        /* \"bootcamp/week7/day_1_marketplaceItem1.sol\":2013:2026  alreadyBought */\n      0x01\n        /* \"bootcamp/week7/day_1_marketplaceItem1.sol\":2013:2038  alreadyBought[msg.sender] */\n      0x00\n        /* \"bootcamp/week7/day_1_marketplaceItem1.sol\":2027:2037  msg.sender */\n      caller\n        /* \"bootcamp/week7/day_1_marketplaceItem1.sol\":2013:2038  alreadyBought[msg.sender] */\n      0xffffffffffffffffffffffffffffffffffffffff\n      and\n      0xffffffffffffffffffffffffffffffffffffffff\n      and\n      dup2\n      mstore\n      0x20\n      add\n      swap1\n      dup2\n      mstore\n      0x20\n      add\n      0x00\n      keccak256\n      0x00\n      swap1\n      sload\n      swap1\n      0x0100\n      exp\n      swap1\n      div\n      0xff\n      and\n        /* \"bootcamp/week7/day_1_marketplaceItem1.sol\":2006:2038  return alreadyBought[msg.sender] */\n      swap2\n      pop\n      pop\n        /* \"bootcamp/week7/day_1_marketplaceItem1.sol\":1661:2045  function payInEth() public payable returns(bool) {... */\n      swap1\n      jump\t// out\n        /* \"bootcamp/week7/day_1_marketplaceItem1.sol\":570:650  IERC20 public usdcTestToken = IERC20(0xce4BBa458ED6D2efef2bc8bfEb5ec5fb035dd822) */\n    tag_68:\n      0x04\n      0x00\n      swap1\n      sload\n      swap1\n      0x0100\n      exp\n      swap1\n      div\n      0xffffffffffffffffffffffffffffffffffffffff\n      and\n      dup2\n      jump\t// out\n        /* \"#utility.yul\":7:97   */\n    tag_117:\n        /* \"#utility.yul\":41:48   */\n      0x00\n        /* \"#utility.yul\":84:89   */\n      dup2\n        /* \"#utility.yul\":77:90   */\n      iszero\n        /* \"#utility.yul\":70:91   */\n      iszero\n        /* \"#utility.yul\":59:91   */\n      swap1\n      pop\n        /* \"#utility.yul\":7:97   */\n      swap2\n      swap1\n      pop\n      jump\t// out\n        /* \"#utility.yul\":103:212   */\n    tag_118:\n        /* \"#utility.yul\":184:205   */\n      tag_163\n        /* \"#utility.yul\":199:204   */\n      dup2\n        /* \"#utility.yul\":184:205   */\n      tag_117\n      jump\t// in\n    tag_163:\n        /* \"#utility.yul\":179:182   */\n      dup3\n        /* \"#utility.yul\":172:206   */\n      mstore\n        /* \"#utility.yul\":103:212   */\n      pop\n      pop\n      jump\t// out\n        /* \"#utility.yul\":218:428   */\n    tag_19:\n        /* \"#utility.yul\":305:309   */\n      0x00\n        /* \"#utility.yul\":343:345   */\n      0x20\n        /* \"#utility.yul\":332:341   */\n      dup3\n        /* \"#utility.yul\":328:346   */\n      add\n        /* \"#utility.yul\":320:346   */\n      swap1\n      pop\n        /* \"#utility.yul\":356:421   */\n      tag_165\n        /* \"#utility.yul\":418:419   */\n      0x00\n        /* \"#utility.yul\":407:416   */\n      dup4\n        /* \"#utility.yul\":403:420   */\n      add\n        /* \"#utility.yul\":394:400   */\n      dup5\n        /* \"#utility.yul\":356:421   */\n      tag_118\n      jump\t// in\n    tag_165:\n        /* \"#utility.yul\":218:428   */\n      swap3\n      swap2\n      pop\n      pop\n      jump\t// out\n        /* \"#utility.yul\":515:632   */\n    tag_120:\n        /* \"#utility.yul\":624:625   */\n      0x00\n        /* \"#utility.yul\":621:622   */\n      dup1\n        /* \"#utility.yul\":614:626   */\n      revert\n        /* \"#utility.yul\":761:887   */\n    tag_122:\n        /* \"#utility.yul\":798:805   */\n      0x00\n        /* \"#utility.yul\":838:880   */\n      0xffffffffffffffffffffffffffffffffffffffff\n        /* \"#utility.yul\":831:836   */\n      dup3\n        /* \"#utility.yul\":827:881   */\n      and\n        /* \"#utility.yul\":816:881   */\n      swap1\n      pop\n        /* \"#utility.yul\":761:887   */\n      swap2\n      swap1\n      pop\n      jump\t// out\n        /* \"#utility.yul\":893:989   */\n    tag_123:\n        /* \"#utility.yul\":930:937   */\n      0x00\n        /* \"#utility.yul\":959:983   */\n      tag_171\n        /* \"#utility.yul\":977:982   */\n      dup3\n        /* \"#utility.yul\":959:983   */\n      tag_122\n      jump\t// in\n    tag_171:\n        /* \"#utility.yul\":948:983   */\n      swap1\n      pop\n        /* \"#utility.yul\":893:989   */\n      swap2\n      swap1\n      pop\n      jump\t// out\n        /* \"#utility.yul\":995:1117   */\n    tag_124:\n        /* \"#utility.yul\":1068:1092   */\n      tag_173\n        /* \"#utility.yul\":1086:1091   */\n      dup2\n        /* \"#utility.yul\":1068:1092   */\n      tag_123\n      jump\t// in\n    tag_173:\n        /* \"#utility.yul\":1061:1066   */\n      dup2\n        /* \"#utility.yul\":1058:1093   */\n      eq\n        /* \"#utility.yul\":1048:1111   */\n      tag_174\n      jumpi\n        /* \"#utility.yul\":1107:1108   */\n      0x00\n        /* \"#utility.yul\":1104:1105   */\n      dup1\n        /* \"#utility.yul\":1097:1109   */\n      revert\n        /* \"#utility.yul\":1048:1111   */\n    tag_174:\n        /* \"#utility.yul\":995:1117   */\n      pop\n      jump\t// out\n        /* \"#utility.yul\":1123:1262   */\n    tag_125:\n        /* \"#utility.yul\":1169:1174   */\n      0x00\n        /* \"#utility.yul\":1207:1213   */\n      dup2\n        /* \"#utility.yul\":1194:1214   */\n      calldataload\n        /* \"#utility.yul\":1185:1214   */\n      swap1\n      pop\n        /* \"#utility.yul\":1223:1256   */\n      tag_176\n        /* \"#utility.yul\":1250:1255   */\n      dup2\n        /* \"#utility.yul\":1223:1256   */\n      tag_124\n      jump\t// in\n    tag_176:\n        /* \"#utility.yul\":1123:1262   */\n      swap3\n      swap2\n      pop\n      pop\n      jump\t// out\n        /* \"#utility.yul\":1268:1597   */\n    tag_23:\n        /* \"#utility.yul\":1327:1333   */\n      0x00\n        /* \"#utility.yul\":1376:1378   */\n      0x20\n        /* \"#utility.yul\":1364:1373   */\n      dup3\n        /* \"#utility.yul\":1355:1362   */\n      dup5\n        /* \"#utility.yul\":1351:1374   */\n      sub\n        /* \"#utility.yul\":1347:1379   */\n      slt\n        /* \"#utility.yul\":1344:1463   */\n      iszero\n      tag_178\n      jumpi\n        /* \"#utility.yul\":1382:1461   */\n      tag_179\n      tag_120\n      jump\t// in\n    tag_179:\n        /* \"#utility.yul\":1344:1463   */\n    tag_178:\n        /* \"#utility.yul\":1502:1503   */\n      0x00\n        /* \"#utility.yul\":1527:1580   */\n      tag_180\n        /* \"#utility.yul\":1572:1579   */\n      dup5\n        /* \"#utility.yul\":1563:1569   */\n      dup3\n        /* \"#utility.yul\":1552:1561   */\n      dup6\n        /* \"#utility.yul\":1548:1570   */\n      add\n        /* \"#utility.yul\":1527:1580   */\n      tag_125\n      jump\t// in\n    tag_180:\n        /* \"#utility.yul\":1517:1580   */\n      swap2\n      pop\n        /* \"#utility.yul\":1473:1590   */\n      pop\n        /* \"#utility.yul\":1268:1597   */\n      swap3\n      swap2\n      pop\n      pop\n      jump\t// out\n        /* \"#utility.yul\":1603:1721   */\n    tag_126:\n        /* \"#utility.yul\":1690:1714   */\n      tag_182\n        /* \"#utility.yul\":1708:1713   */\n      dup2\n        /* \"#utility.yul\":1690:1714   */\n      tag_123\n      jump\t// in\n    tag_182:\n        /* \"#utility.yul\":1685:1688   */\n      dup3\n        /* \"#utility.yul\":1678:1715   */\n      mstore\n        /* \"#utility.yul\":1603:1721   */\n      pop\n      pop\n      jump\t// out\n        /* \"#utility.yul\":1727:1949   */\n    tag_34:\n        /* \"#utility.yul\":1820:1824   */\n      0x00\n        /* \"#utility.yul\":1858:1860   */\n      0x20\n        /* \"#utility.yul\":1847:1856   */\n      dup3\n        /* \"#utility.yul\":1843:1861   */\n      add\n        /* \"#utility.yul\":1835:1861   */\n      swap1\n      pop\n        /* \"#utility.yul\":1871:1942   */\n      tag_184\n        /* \"#utility.yul\":1939:1940   */\n      0x00\n        /* \"#utility.yul\":1928:1937   */\n      dup4\n        /* \"#utility.yul\":1924:1941   */\n      add\n        /* \"#utility.yul\":1915:1921   */\n      dup5\n        /* \"#utility.yul\":1871:1942   */\n      tag_126\n      jump\t// in\n    tag_184:\n        /* \"#utility.yul\":1727:1949   */\n      swap3\n      swap2\n      pop\n      pop\n      jump\t// out\n        /* \"#utility.yul\":1955:2031   */\n    tag_127:\n        /* \"#utility.yul\":1991:1998   */\n      0x00\n        /* \"#utility.yul\":2020:2025   */\n      dup2\n        /* \"#utility.yul\":2009:2025   */\n      swap1\n      pop\n        /* \"#utility.yul\":1955:2031   */\n      swap2\n      swap1\n      pop\n      jump\t// out\n        /* \"#utility.yul\":2037:2152   */\n    tag_128:\n        /* \"#utility.yul\":2122:2145   */\n      tag_187\n        /* \"#utility.yul\":2139:2144   */\n      dup2\n        /* \"#utility.yul\":2122:2145   */\n      tag_127\n      jump\t// in\n    tag_187:\n        /* \"#utility.yul\":2117:2120   */\n      dup3\n        /* \"#utility.yul\":2110:2146   */\n      mstore\n        /* \"#utility.yul\":2037:2152   */\n      pop\n      pop\n      jump\t// out\n        /* \"#utility.yul\":2158:2376   */\n    tag_39:\n        /* \"#utility.yul\":2249:2253   */\n      0x00\n        /* \"#utility.yul\":2287:2289   */\n      0x20\n        /* \"#utility.yul\":2276:2285   */\n      dup3\n        /* \"#utility.yul\":2272:2290   */\n      add\n        /* \"#utility.yul\":2264:2290   */\n      swap1\n      pop\n        /* \"#utility.yul\":2300:2369   */\n      tag_189\n        /* \"#utility.yul\":2366:2367   */\n      0x00\n        /* \"#utility.yul\":2355:2364   */\n      dup4\n        /* \"#utility.yul\":2351:2368   */\n      add\n        /* \"#utility.yul\":2342:2348   */\n      dup5\n        /* \"#utility.yul\":2300:2369   */\n      tag_128\n      jump\t// in\n    tag_189:\n        /* \"#utility.yul\":2158:2376   */\n      swap3\n      swap2\n      pop\n      pop\n      jump\t// out\n        /* \"#utility.yul\":2382:2442   */\n    tag_129:\n        /* \"#utility.yul\":2410:2413   */\n      0x00\n        /* \"#utility.yul\":2431:2436   */\n      dup2\n        /* \"#utility.yul\":2424:2436   */\n      swap1\n      pop\n        /* \"#utility.yul\":2382:2442   */\n      swap2\n      swap1\n      pop\n      jump\t// out\n        /* \"#utility.yul\":2448:2590   */\n    tag_130:\n        /* \"#utility.yul\":2498:2507   */\n      0x00\n        /* \"#utility.yul\":2531:2584   */\n      tag_192\n        /* \"#utility.yul\":2549:2583   */\n      tag_193\n        /* \"#utility.yul\":2558:2582   */\n      tag_194\n        /* \"#utility.yul\":2576:2581   */\n      dup5\n        /* \"#utility.yul\":2558:2582   */\n      tag_122\n      jump\t// in\n    tag_194:\n        /* \"#utility.yul\":2549:2583   */\n      tag_129\n      jump\t// in\n    tag_193:\n        /* \"#utility.yul\":2531:2584   */\n      tag_122\n      jump\t// in\n    tag_192:\n        /* \"#utility.yul\":2518:2584   */\n      swap1\n      pop\n        /* \"#utility.yul\":2448:2590   */\n      swap2\n      swap1\n      pop\n      jump\t// out\n        /* \"#utility.yul\":2596:2722   */\n    tag_131:\n        /* \"#utility.yul\":2646:2655   */\n      0x00\n        /* \"#utility.yul\":2679:2716   */\n      tag_196\n        /* \"#utility.yul\":2710:2715   */\n      dup3\n        /* \"#utility.yul\":2679:2716   */\n      tag_130\n      jump\t// in\n    tag_196:\n        /* \"#utility.yul\":2666:2716   */\n      swap1\n      pop\n        /* \"#utility.yul\":2596:2722   */\n      swap2\n      swap1\n      pop\n      jump\t// out\n        /* \"#utility.yul\":2728:2868   */\n    tag_132:\n        /* \"#utility.yul\":2792:2801   */\n      0x00\n        /* \"#utility.yul\":2825:2862   */\n      tag_198\n        /* \"#utility.yul\":2856:2861   */\n      dup3\n        /* \"#utility.yul\":2825:2862   */\n      tag_131\n      jump\t// in\n    tag_198:\n        /* \"#utility.yul\":2812:2862   */\n      swap1\n      pop\n        /* \"#utility.yul\":2728:2868   */\n      swap2\n      swap1\n      pop\n      jump\t// out\n        /* \"#utility.yul\":2874:3033   */\n    tag_133:\n        /* \"#utility.yul\":2975:3026   */\n      tag_200\n        /* \"#utility.yul\":3020:3025   */\n      dup2\n        /* \"#utility.yul\":2975:3026   */\n      tag_132\n      jump\t// in\n    tag_200:\n        /* \"#utility.yul\":2970:2973   */\n      dup3\n        /* \"#utility.yul\":2963:3027   */\n      mstore\n        /* \"#utility.yul\":2874:3033   */\n      pop\n      pop\n      jump\t// out\n        /* \"#utility.yul\":3039:3289   */\n    tag_44:\n        /* \"#utility.yul\":3146:3150   */\n      0x00\n        /* \"#utility.yul\":3184:3186   */\n      0x20\n        /* \"#utility.yul\":3173:3182   */\n      dup3\n        /* \"#utility.yul\":3169:3187   */\n      add\n        /* \"#utility.yul\":3161:3187   */\n      swap1\n      pop\n        /* \"#utility.yul\":3197:3282   */\n      tag_202\n        /* \"#utility.yul\":3279:3280   */\n      0x00\n        /* \"#utility.yul\":3268:3277   */\n      dup4\n        /* \"#utility.yul\":3264:3281   */\n      add\n        /* \"#utility.yul\":3255:3261   */\n      dup5\n        /* \"#utility.yul\":3197:3282   */\n      tag_133\n      jump\t// in\n    tag_202:\n        /* \"#utility.yul\":3039:3289   */\n      swap3\n      swap2\n      pop\n      pop\n      jump\t// out\n        /* \"#utility.yul\":3295:3372   */\n    tag_134:\n        /* \"#utility.yul\":3332:3339   */\n      0x00\n        /* \"#utility.yul\":3361:3366   */\n      dup2\n        /* \"#utility.yul\":3350:3366   */\n      swap1\n      pop\n        /* \"#utility.yul\":3295:3372   */\n      swap2\n      swap1\n      pop\n      jump\t// out\n        /* \"#utility.yul\":3378:3496   */\n    tag_135:\n        /* \"#utility.yul\":3465:3489   */\n      tag_205\n        /* \"#utility.yul\":3483:3488   */\n      dup2\n        /* \"#utility.yul\":3465:3489   */\n      tag_134\n      jump\t// in\n    tag_205:\n        /* \"#utility.yul\":3460:3463   */\n      dup3\n        /* \"#utility.yul\":3453:3490   */\n      mstore\n        /* \"#utility.yul\":3378:3496   */\n      pop\n      pop\n      jump\t// out\n        /* \"#utility.yul\":3502:3724   */\n    tag_49:\n        /* \"#utility.yul\":3595:3599   */\n      0x00\n        /* \"#utility.yul\":3633:3635   */\n      0x20\n        /* \"#utility.yul\":3622:3631   */\n      dup3\n        /* \"#utility.yul\":3618:3636   */\n      add\n        /* \"#utility.yul\":3610:3636   */\n      swap1\n      pop\n        /* \"#utility.yul\":3646:3717   */\n      tag_207\n        /* \"#utility.yul\":3714:3715   */\n      0x00\n        /* \"#utility.yul\":3703:3712   */\n      dup4\n        /* \"#utility.yul\":3699:3716   */\n      add\n        /* \"#utility.yul\":3690:3696   */\n      dup5\n        /* \"#utility.yul\":3646:3717   */\n      tag_135\n      jump\t// in\n    tag_207:\n        /* \"#utility.yul\":3502:3724   */\n      swap3\n      swap2\n      pop\n      pop\n      jump\t// out\n        /* \"#utility.yul\":3730:3852   */\n    tag_136:\n        /* \"#utility.yul\":3803:3827   */\n      tag_209\n        /* \"#utility.yul\":3821:3826   */\n      dup2\n        /* \"#utility.yul\":3803:3827   */\n      tag_134\n      jump\t// in\n    tag_209:\n        /* \"#utility.yul\":3796:3801   */\n      dup2\n        /* \"#utility.yul\":3793:3828   */\n      eq\n        /* \"#utility.yul\":3783:3846   */\n      tag_210\n      jumpi\n        /* \"#utility.yul\":3842:3843   */\n      0x00\n        /* \"#utility.yul\":3839:3840   */\n      dup1\n        /* \"#utility.yul\":3832:3844   */\n      revert\n        /* \"#utility.yul\":3783:3846   */\n    tag_210:\n        /* \"#utility.yul\":3730:3852   */\n      pop\n      jump\t// out\n        /* \"#utility.yul\":3858:3997   */\n    tag_137:\n        /* \"#utility.yul\":3904:3909   */\n      0x00\n        /* \"#utility.yul\":3942:3948   */\n      dup2\n        /* \"#utility.yul\":3929:3949   */\n      calldataload\n        /* \"#utility.yul\":3920:3949   */\n      swap1\n      pop\n        /* \"#utility.yul\":3958:3991   */\n      tag_212\n        /* \"#utility.yul\":3985:3990   */\n      dup2\n        /* \"#utility.yul\":3958:3991   */\n      tag_136\n      jump\t// in\n    tag_212:\n        /* \"#utility.yul\":3858:3997   */\n      swap3\n      swap2\n      pop\n      pop\n      jump\t// out\n        /* \"#utility.yul\":4003:4332   */\n    tag_53:\n        /* \"#utility.yul\":4062:4068   */\n      0x00\n        /* \"#utility.yul\":4111:4113   */\n      0x20\n        /* \"#utility.yul\":4099:4108   */\n      dup3\n        /* \"#utility.yul\":4090:4097   */\n      dup5\n        /* \"#utility.yul\":4086:4109   */\n      sub\n        /* \"#utility.yul\":4082:4114   */\n      slt\n        /* \"#utility.yul\":4079:4198   */\n      iszero\n      tag_214\n      jumpi\n        /* \"#utility.yul\":4117:4196   */\n      tag_215\n      tag_120\n      jump\t// in\n    tag_215:\n        /* \"#utility.yul\":4079:4198   */\n    tag_214:\n        /* \"#utility.yul\":4237:4238   */\n      0x00\n        /* \"#utility.yul\":4262:4315   */\n      tag_216\n        /* \"#utility.yul\":4307:4314   */\n      dup5\n        /* \"#utility.yul\":4298:4304   */\n      dup3\n        /* \"#utility.yul\":4287:4296   */\n      dup6\n        /* \"#utility.yul\":4283:4305   */\n      add\n        /* \"#utility.yul\":4262:4315   */\n      tag_137\n      jump\t// in\n    tag_216:\n        /* \"#utility.yul\":4252:4315   */\n      swap2\n      pop\n        /* \"#utility.yul\":4208:4325   */\n      pop\n        /* \"#utility.yul\":4003:4332   */\n      swap3\n      swap2\n      pop\n      pop\n      jump\t// out\n        /* \"#utility.yul\":4338:4507   */\n    tag_138:\n        /* \"#utility.yul\":4422:4433   */\n      0x00\n        /* \"#utility.yul\":4456:4462   */\n      dup3\n        /* \"#utility.yul\":4451:4454   */\n      dup3\n        /* \"#utility.yul\":4444:4463   */\n      mstore\n        /* \"#utility.yul\":4496:4500   */\n      0x20\n        /* \"#utility.yul\":4491:4494   */\n      dup3\n        /* \"#utility.yul\":4487:4501   */\n      add\n        /* \"#utility.yul\":4472:4501   */\n      swap1\n      pop\n        /* \"#utility.yul\":4338:4507   */\n      swap3\n      swap2\n      pop\n      pop\n      jump\t// out\n        /* \"#utility.yul\":4513:4691   */\n    tag_139:\n        /* \"#utility.yul\":4653:4683   */\n      0x596f7520616c726561647920626f756768742074686973206974656d00000000\n        /* \"#utility.yul\":4649:4650   */\n      0x00\n        /* \"#utility.yul\":4641:4647   */\n      dup3\n        /* \"#utility.yul\":4637:4651   */\n      add\n        /* \"#utility.yul\":4630:4684   */\n      mstore\n        /* \"#utility.yul\":4513:4691   */\n      pop\n      jump\t// out\n        /* \"#utility.yul\":4697:5063   */\n    tag_140:\n        /* \"#utility.yul\":4839:4842   */\n      0x00\n        /* \"#utility.yul\":4860:4927   */\n      tag_220\n        /* \"#utility.yul\":4924:4926   */\n      0x1c\n        /* \"#utility.yul\":4919:4922   */\n      dup4\n        /* \"#utility.yul\":4860:4927   */\n      tag_138\n      jump\t// in\n    tag_220:\n        /* \"#utility.yul\":4853:4927   */\n      swap2\n      pop\n        /* \"#utility.yul\":4936:5029   */\n      tag_221\n        /* \"#utility.yul\":5025:5028   */\n      dup3\n        /* \"#utility.yul\":4936:5029   */\n      tag_139\n      jump\t// in\n    tag_221:\n        /* \"#utility.yul\":5054:5056   */\n      0x20\n        /* \"#utility.yul\":5049:5052   */\n      dup3\n        /* \"#utility.yul\":5045:5057   */\n      add\n        /* \"#utility.yul\":5038:5057   */\n      swap1\n      pop\n        /* \"#utility.yul\":4697:5063   */\n      swap2\n      swap1\n      pop\n      jump\t// out\n        /* \"#utility.yul\":5069:5488   */\n    tag_73:\n        /* \"#utility.yul\":5235:5239   */\n      0x00\n        /* \"#utility.yul\":5273:5275   */\n      0x20\n        /* \"#utility.yul\":5262:5271   */\n      dup3\n        /* \"#utility.yul\":5258:5276   */\n      add\n        /* \"#utility.yul\":5250:5276   */\n      swap1\n      pop\n        /* \"#utility.yul\":5322:5331   */\n      dup2\n        /* \"#utility.yul\":5316:5320   */\n      dup2\n        /* \"#utility.yul\":5312:5332   */\n      sub\n        /* \"#utility.yul\":5308:5309   */\n      0x00\n        /* \"#utility.yul\":5297:5306   */\n      dup4\n        /* \"#utility.yul\":5293:5310   */\n      add\n        /* \"#utility.yul\":5286:5333   */\n      mstore\n        /* \"#utility.yul\":5350:5481   */\n      tag_223\n        /* \"#utility.yul\":5476:5480   */\n      dup2\n        /* \"#utility.yul\":5350:5481   */\n      tag_140\n      jump\t// in\n    tag_223:\n        /* \"#utility.yul\":5342:5481   */\n      swap1\n      pop\n        /* \"#utility.yul\":5069:5488   */\n      swap2\n      swap1\n      pop\n      jump\t// out\n        /* \"#utility.yul\":5494:5936   */\n    tag_75:\n        /* \"#utility.yul\":5643:5647   */\n      0x00\n        /* \"#utility.yul\":5681:5683   */\n      0x60\n        /* \"#utility.yul\":5670:5679   */\n      dup3\n        /* \"#utility.yul\":5666:5684   */\n      add\n        /* \"#utility.yul\":5658:5684   */\n      swap1\n      pop\n        /* \"#utility.yul\":5694:5765   */\n      tag_225\n        /* \"#utility.yul\":5762:5763   */\n      0x00\n        /* \"#utility.yul\":5751:5760   */\n      dup4\n        /* \"#utility.yul\":5747:5764   */\n      add\n        /* \"#utility.yul\":5738:5744   */\n      dup7\n        /* \"#utility.yul\":5694:5765   */\n      tag_126\n      jump\t// in\n    tag_225:\n        /* \"#utility.yul\":5775:5847   */\n      tag_226\n        /* \"#utility.yul\":5843:5845   */\n      0x20\n        /* \"#utility.yul\":5832:5841   */\n      dup4\n        /* \"#utility.yul\":5828:5846   */\n      add\n        /* \"#utility.yul\":5819:5825   */\n      dup6\n        /* \"#utility.yul\":5775:5847   */\n      tag_126\n      jump\t// in\n    tag_226:\n        /* \"#utility.yul\":5857:5929   */\n      tag_227\n        /* \"#utility.yul\":5925:5927   */\n      0x40\n        /* \"#utility.yul\":5914:5923   */\n      dup4\n        /* \"#utility.yul\":5910:5928   */\n      add\n        /* \"#utility.yul\":5901:5907   */\n      dup5\n        /* \"#utility.yul\":5857:5929   */\n      tag_135\n      jump\t// in\n    tag_227:\n        /* \"#utility.yul\":5494:5936   */\n      swap5\n      swap4\n      pop\n      pop\n      pop\n      pop\n      jump\t// out\n        /* \"#utility.yul\":5942:6058   */\n    tag_141:\n        /* \"#utility.yul\":6012:6033   */\n      tag_229\n        /* \"#utility.yul\":6027:6032   */\n      dup2\n        /* \"#utility.yul\":6012:6033   */\n      tag_117\n      jump\t// in\n    tag_229:\n        /* \"#utility.yul\":6005:6010   */\n      dup2\n        /* \"#utility.yul\":6002:6034   */\n      eq\n        /* \"#utility.yul\":5992:6052   */\n      tag_230\n      jumpi\n        /* \"#utility.yul\":6048:6049   */\n      0x00\n        /* \"#utility.yul\":6045:6046   */\n      dup1\n        /* \"#utility.yul\":6038:6050   */\n      revert\n        /* \"#utility.yul\":5992:6052   */\n    tag_230:\n        /* \"#utility.yul\":5942:6058   */\n      pop\n      jump\t// out\n        /* \"#utility.yul\":6064:6201   */\n    tag_142:\n        /* \"#utility.yul\":6118:6123   */\n      0x00\n        /* \"#utility.yul\":6149:6155   */\n      dup2\n        /* \"#utility.yul\":6143:6156   */\n      mload\n        /* \"#utility.yul\":6134:6156   */\n      swap1\n      pop\n        /* \"#utility.yul\":6165:6195   */\n      tag_232\n        /* \"#utility.yul\":6189:6194   */\n      dup2\n        /* \"#utility.yul\":6165:6195   */\n      tag_141\n      jump\t// in\n    tag_232:\n        /* \"#utility.yul\":6064:6201   */\n      swap3\n      swap2\n      pop\n      pop\n      jump\t// out\n        /* \"#utility.yul\":6207:6552   */\n    tag_79:\n        /* \"#utility.yul\":6274:6280   */\n      0x00\n        /* \"#utility.yul\":6323:6325   */\n      0x20\n        /* \"#utility.yul\":6311:6320   */\n      dup3\n        /* \"#utility.yul\":6302:6309   */\n      dup5\n        /* \"#utility.yul\":6298:6321   */\n      sub\n        /* \"#utility.yul\":6294:6326   */\n      slt\n        /* \"#utility.yul\":6291:6410   */\n      iszero\n      tag_234\n      jumpi\n        /* \"#utility.yul\":6329:6408   */\n      tag_235\n      tag_120\n      jump\t// in\n    tag_235:\n        /* \"#utility.yul\":6291:6410   */\n    tag_234:\n        /* \"#utility.yul\":6449:6450   */\n      0x00\n        /* \"#utility.yul\":6474:6535   */\n      tag_236\n        /* \"#utility.yul\":6527:6534   */\n      dup5\n        /* \"#utility.yul\":6518:6524   */\n      dup3\n        /* \"#utility.yul\":6507:6516   */\n      dup6\n        /* \"#utility.yul\":6503:6525   */\n      add\n        /* \"#utility.yul\":6474:6535   */\n      tag_142\n      jump\t// in\n    tag_236:\n        /* \"#utility.yul\":6464:6535   */\n      swap2\n      pop\n        /* \"#utility.yul\":6420:6545   */\n      pop\n        /* \"#utility.yul\":6207:6552   */\n      swap3\n      swap2\n      pop\n      pop\n      jump\t// out\n        /* \"#utility.yul\":6558:6663   */\n    tag_143:\n        /* \"#utility.yul\":6594:6601   */\n      0x00\n        /* \"#utility.yul\":6634:6656   */\n      0xffffffffffffffffffff\n        /* \"#utility.yul\":6627:6632   */\n      dup3\n        /* \"#utility.yul\":6623:6657   */\n      and\n        /* \"#utility.yul\":6612:6657   */\n      swap1\n      pop\n        /* \"#utility.yul\":6558:6663   */\n      swap2\n      swap1\n      pop\n      jump\t// out\n        /* \"#utility.yul\":6669:6789   */\n    tag_144:\n        /* \"#utility.yul\":6741:6764   */\n      tag_239\n        /* \"#utility.yul\":6758:6763   */\n      dup2\n        /* \"#utility.yul\":6741:6764   */\n      tag_143\n      jump\t// in\n    tag_239:\n        /* \"#utility.yul\":6734:6739   */\n      dup2\n        /* \"#utility.yul\":6731:6765   */\n      eq\n        /* \"#utility.yul\":6721:6783   */\n      tag_240\n      jumpi\n        /* \"#utility.yul\":6779:6780   */\n      0x00\n        /* \"#utility.yul\":6776:6777   */\n      dup1\n        /* \"#utility.yul\":6769:6781   */\n      revert\n        /* \"#utility.yul\":6721:6783   */\n    tag_240:\n        /* \"#utility.yul\":6669:6789   */\n      pop\n      jump\t// out\n        /* \"#utility.yul\":6795:6936   */\n    tag_145:\n        /* \"#utility.yul\":6851:6856   */\n      0x00\n        /* \"#utility.yul\":6882:6888   */\n      dup2\n        /* \"#utility.yul\":6876:6889   */\n      mload\n        /* \"#utility.yul\":6867:6889   */\n      swap1\n      pop\n        /* \"#utility.yul\":6898:6930   */\n      tag_242\n        /* \"#utility.yul\":6924:6929   */\n      dup2\n        /* \"#utility.yul\":6898:6930   */\n      tag_144\n      jump\t// in\n    tag_242:\n        /* \"#utility.yul\":6795:6936   */\n      swap3\n      swap2\n      pop\n      pop\n      jump\t// out\n        /* \"#utility.yul\":6942:7062   */\n    tag_146:\n        /* \"#utility.yul\":7014:7037   */\n      tag_244\n        /* \"#utility.yul\":7031:7036   */\n      dup2\n        /* \"#utility.yul\":7014:7037   */\n      tag_127\n      jump\t// in\n    tag_244:\n        /* \"#utility.yul\":7007:7012   */\n      dup2\n        /* \"#utility.yul\":7004:7038   */\n      eq\n        /* \"#utility.yul\":6994:7056   */\n      tag_245\n      jumpi\n        /* \"#utility.yul\":7052:7053   */\n      0x00\n        /* \"#utility.yul\":7049:7050   */\n      dup1\n        /* \"#utility.yul\":7042:7054   */\n      revert\n        /* \"#utility.yul\":6994:7056   */\n    tag_245:\n        /* \"#utility.yul\":6942:7062   */\n      pop\n      jump\t// out\n        /* \"#utility.yul\":7068:7209   */\n    tag_147:\n        /* \"#utility.yul\":7124:7129   */\n      0x00\n        /* \"#utility.yul\":7155:7161   */\n      dup2\n        /* \"#utility.yul\":7149:7162   */\n      mload\n        /* \"#utility.yul\":7140:7162   */\n      swap1\n      pop\n        /* \"#utility.yul\":7171:7203   */\n      tag_247\n        /* \"#utility.yul\":7197:7202   */\n      dup2\n        /* \"#utility.yul\":7171:7203   */\n      tag_146\n      jump\t// in\n    tag_247:\n        /* \"#utility.yul\":7068:7209   */\n      swap3\n      swap2\n      pop\n      pop\n      jump\t// out\n        /* \"#utility.yul\":7215:7358   */\n    tag_148:\n        /* \"#utility.yul\":7272:7277   */\n      0x00\n        /* \"#utility.yul\":7303:7309   */\n      dup2\n        /* \"#utility.yul\":7297:7310   */\n      mload\n        /* \"#utility.yul\":7288:7310   */\n      swap1\n      pop\n        /* \"#utility.yul\":7319:7352   */\n      tag_249\n        /* \"#utility.yul\":7346:7351   */\n      dup2\n        /* \"#utility.yul\":7319:7352   */\n      tag_136\n      jump\t// in\n    tag_249:\n        /* \"#utility.yul\":7215:7358   */\n      swap3\n      swap2\n      pop\n      pop\n      jump\t// out\n        /* \"#utility.yul\":7364:8335   */\n    tag_91:\n        /* \"#utility.yul\":7467:7473   */\n      0x00\n        /* \"#utility.yul\":7475:7481   */\n      dup1\n        /* \"#utility.yul\":7483:7489   */\n      0x00\n        /* \"#utility.yul\":7491:7497   */\n      dup1\n        /* \"#utility.yul\":7499:7505   */\n      0x00\n        /* \"#utility.yul\":7548:7551   */\n      0xa0\n        /* \"#utility.yul\":7536:7545   */\n      dup7\n        /* \"#utility.yul\":7527:7534   */\n      dup9\n        /* \"#utility.yul\":7523:7546   */\n      sub\n        /* \"#utility.yul\":7519:7552   */\n      slt\n        /* \"#utility.yul\":7516:7636   */\n      iszero\n      tag_251\n      jumpi\n        /* \"#utility.yul\":7555:7634   */\n      tag_252\n      tag_120\n      jump\t// in\n    tag_252:\n        /* \"#utility.yul\":7516:7636   */\n    tag_251:\n        /* \"#utility.yul\":7675:7676   */\n      0x00\n        /* \"#utility.yul\":7700:7763   */\n      tag_253\n        /* \"#utility.yul\":7755:7762   */\n      dup9\n        /* \"#utility.yul\":7746:7752   */\n      dup3\n        /* \"#utility.yul\":7735:7744   */\n      dup10\n        /* \"#utility.yul\":7731:7753   */\n      add\n        /* \"#utility.yul\":7700:7763   */\n      tag_145\n      jump\t// in\n    tag_253:\n        /* \"#utility.yul\":7690:7763   */\n      swap6\n      pop\n        /* \"#utility.yul\":7646:7773   */\n      pop\n        /* \"#utility.yul\":7812:7814   */\n      0x20\n        /* \"#utility.yul\":7838:7901   */\n      tag_254\n        /* \"#utility.yul\":7893:7900   */\n      dup9\n        /* \"#utility.yul\":7884:7890   */\n      dup3\n        /* \"#utility.yul\":7873:7882   */\n      dup10\n        /* \"#utility.yul\":7869:7891   */\n      add\n        /* \"#utility.yul\":7838:7901   */\n      tag_147\n      jump\t// in\n    tag_254:\n        /* \"#utility.yul\":7828:7901   */\n      swap5\n      pop\n        /* \"#utility.yul\":7783:7911   */\n      pop\n        /* \"#utility.yul\":7950:7952   */\n      0x40\n        /* \"#utility.yul\":7976:8040   */\n      tag_255\n        /* \"#utility.yul\":8032:8039   */\n      dup9\n        /* \"#utility.yul\":8023:8029   */\n      dup3\n        /* \"#utility.yul\":8012:8021   */\n      dup10\n        /* \"#utility.yul\":8008:8030   */\n      add\n        /* \"#utility.yul\":7976:8040   */\n      tag_148\n      jump\t// in\n    tag_255:\n        /* \"#utility.yul\":7966:8040   */\n      swap4\n      pop\n        /* \"#utility.yul\":7921:8050   */\n      pop\n        /* \"#utility.yul\":8089:8091   */\n      0x60\n        /* \"#utility.yul\":8115:8179   */\n      tag_256\n        /* \"#utility.yul\":8171:8178   */\n      dup9\n        /* \"#utility.yul\":8162:8168   */\n      dup3\n        /* \"#utility.yul\":8151:8160   */\n      dup10\n        /* \"#utility.yul\":8147:8169   */\n      add\n        /* \"#utility.yul\":8115:8179   */\n      tag_148\n      jump\t// in\n    tag_256:\n        /* \"#utility.yul\":8105:8179   */\n      swap3\n      pop\n        /* \"#utility.yul\":8060:8189   */\n      pop\n        /* \"#utility.yul\":8228:8231   */\n      0x80\n        /* \"#utility.yul\":8255:8318   */\n      tag_257\n        /* \"#utility.yul\":8310:8317   */\n      dup9\n        /* \"#utility.yul\":8301:8307   */\n      dup3\n        /* \"#utility.yul\":8290:8299   */\n      dup10\n        /* \"#utility.yul\":8286:8308   */\n      add\n        /* \"#utility.yul\":8255:8318   */\n      tag_145\n      jump\t// in\n    tag_257:\n        /* \"#utility.yul\":8245:8318   */\n      swap2\n      pop\n        /* \"#utility.yul\":8199:8328   */\n      pop\n        /* \"#utility.yul\":7364:8335   */\n      swap3\n      swap6\n      pop\n      swap3\n      swap6\n      swap1\n      swap4\n      pop\n      jump\t// out\n        /* \"#utility.yul\":8341:8521   */\n    tag_149:\n        /* \"#utility.yul\":8389:8466   */\n      0x4e487b7100000000000000000000000000000000000000000000000000000000\n        /* \"#utility.yul\":8386:8387   */\n      0x00\n        /* \"#utility.yul\":8379:8467   */\n      mstore\n        /* \"#utility.yul\":8486:8490   */\n      0x12\n        /* \"#utility.yul\":8483:8484   */\n      0x04\n        /* \"#utility.yul\":8476:8491   */\n      mstore\n        /* \"#utility.yul\":8510:8514   */\n      0x24\n        /* \"#utility.yul\":8507:8508   */\n      0x00\n        /* \"#utility.yul\":8500:8515   */\n      revert\n        /* \"#utility.yul\":8527:8707   */\n    tag_150:\n        /* \"#utility.yul\":8575:8652   */\n      0x4e487b7100000000000000000000000000000000000000000000000000000000\n        /* \"#utility.yul\":8572:8573   */\n      0x00\n        /* \"#utility.yul\":8565:8653   */\n      mstore\n        /* \"#utility.yul\":8672:8676   */\n      0x11\n        /* \"#utility.yul\":8669:8670   */\n      0x04\n        /* \"#utility.yul\":8662:8677   */\n      mstore\n        /* \"#utility.yul\":8696:8700   */\n      0x24\n        /* \"#utility.yul\":8693:8694   */\n      0x00\n        /* \"#utility.yul\":8686:8701   */\n      revert\n        /* \"#utility.yul\":8713:9098   */\n    tag_93:\n        /* \"#utility.yul\":8752:8753   */\n      0x00\n        /* \"#utility.yul\":8769:8788   */\n      tag_261\n        /* \"#utility.yul\":8786:8787   */\n      dup3\n        /* \"#utility.yul\":8769:8788   */\n      tag_127\n      jump\t// in\n    tag_261:\n        /* \"#utility.yul\":8764:8788   */\n      swap2\n      pop\n        /* \"#utility.yul\":8802:8821   */\n      tag_262\n        /* \"#utility.yul\":8819:8820   */\n      dup4\n        /* \"#utility.yul\":8802:8821   */\n      tag_127\n      jump\t// in\n    tag_262:\n        /* \"#utility.yul\":8797:8821   */\n      swap3\n      pop\n        /* \"#utility.yul\":8840:8841   */\n      dup3\n        /* \"#utility.yul\":8830:8865   */\n      tag_263\n      jumpi\n        /* \"#utility.yul\":8845:8863   */\n      tag_264\n      tag_149\n      jump\t// in\n    tag_264:\n        /* \"#utility.yul\":8830:8865   */\n    tag_263:\n        /* \"#utility.yul\":9031:9032   */\n      0x01\n        /* \"#utility.yul\":9028:9029   */\n      0x00\n        /* \"#utility.yul\":9024:9033   */\n      sub\n        /* \"#utility.yul\":9021:9022   */\n      dup4\n        /* \"#utility.yul\":9018:9034   */\n      eq\n        /* \"#utility.yul\":8937:9003   */\n      0x8000000000000000000000000000000000000000000000000000000000000000\n        /* \"#utility.yul\":8934:8935   */\n      dup4\n        /* \"#utility.yul\":8931:9004   */\n      eq\n        /* \"#utility.yul\":8914:9044   */\n      and\n        /* \"#utility.yul\":8911:9067   */\n      iszero\n      tag_265\n      jumpi\n        /* \"#utility.yul\":9047:9065   */\n      tag_266\n      tag_150\n      jump\t// in\n    tag_266:\n        /* \"#utility.yul\":8911:9067   */\n    tag_265:\n        /* \"#utility.yul\":9090:9091   */\n      dup3\n        /* \"#utility.yul\":9087:9088   */\n      dup3\n        /* \"#utility.yul\":9082:9092   */\n      sdiv\n        /* \"#utility.yul\":9077:9092   */\n      swap1\n      pop\n        /* \"#utility.yul\":8713:9098   */\n      swap3\n      swap2\n      pop\n      pop\n      jump\t// out\n        /* \"#utility.yul\":9104:9274   */\n    tag_151:\n        /* \"#utility.yul\":9244:9266   */\n      0x596f75277265206e6f7420746865206f776e6572000000000000000000000000\n        /* \"#utility.yul\":9240:9241   */\n      0x00\n        /* \"#utility.yul\":9232:9238   */\n      dup3\n        /* \"#utility.yul\":9228:9242   */\n      add\n        /* \"#utility.yul\":9221:9267   */\n      mstore\n        /* \"#utility.yul\":9104:9274   */\n      pop\n      jump\t// out\n        /* \"#utility.yul\":9280:9646   */\n    tag_152:\n        /* \"#utility.yul\":9422:9425   */\n      0x00\n        /* \"#utility.yul\":9443:9510   */\n      tag_269\n        /* \"#utility.yul\":9507:9509   */\n      0x14\n        /* \"#utility.yul\":9502:9505   */\n      dup4\n        /* \"#utility.yul\":9443:9510   */\n      tag_138\n      jump\t// in\n    tag_269:\n        /* \"#utility.yul\":9436:9510   */\n      swap2\n      pop\n        /* \"#utility.yul\":9519:9612   */\n      tag_270\n        /* \"#utility.yul\":9608:9611   */\n      dup3\n        /* \"#utility.yul\":9519:9612   */\n      tag_151\n      jump\t// in\n    tag_270:\n        /* \"#utility.yul\":9637:9639   */\n      0x20\n        /* \"#utility.yul\":9632:9635   */\n      dup3\n        /* \"#utility.yul\":9628:9640   */\n      add\n        /* \"#utility.yul\":9621:9640   */\n      swap1\n      pop\n        /* \"#utility.yul\":9280:9646   */\n      swap2\n      swap1\n      pop\n      jump\t// out\n        /* \"#utility.yul\":9652:10071   */\n    tag_97:\n        /* \"#utility.yul\":9818:9822   */\n      0x00\n        /* \"#utility.yul\":9856:9858   */\n      0x20\n        /* \"#utility.yul\":9845:9854   */\n      dup3\n        /* \"#utility.yul\":9841:9859   */\n      add\n        /* \"#utility.yul\":9833:9859   */\n      swap1\n      pop\n        /* \"#utility.yul\":9905:9914   */\n      dup2\n        /* \"#utility.yul\":9899:9903   */\n      dup2\n        /* \"#utility.yul\":9895:9915   */\n      sub\n        /* \"#utility.yul\":9891:9892   */\n      0x00\n        /* \"#utility.yul\":9880:9889   */\n      dup4\n        /* \"#utility.yul\":9876:9893   */\n      add\n        /* \"#utility.yul\":9869:9916   */\n      mstore\n        /* \"#utility.yul\":9933:10064   */\n      tag_272\n        /* \"#utility.yul\":10059:10063   */\n      dup2\n        /* \"#utility.yul\":9933:10064   */\n      tag_152\n      jump\t// in\n    tag_272:\n        /* \"#utility.yul\":9925:10064   */\n      swap1\n      pop\n        /* \"#utility.yul\":9652:10071   */\n      swap2\n      swap1\n      pop\n      jump\t// out\n        /* \"#utility.yul\":10077:10247   */\n    tag_153:\n        /* \"#utility.yul\":10217:10239   */\n      0x57726f6e6720616d6f756e74206f662045544821000000000000000000000000\n        /* \"#utility.yul\":10213:10214   */\n      0x00\n        /* \"#utility.yul\":10205:10211   */\n      dup3\n        /* \"#utility.yul\":10201:10215   */\n      add\n        /* \"#utility.yul\":10194:10240   */\n      mstore\n        /* \"#utility.yul\":10077:10247   */\n      pop\n      jump\t// out\n        /* \"#utility.yul\":10253:10619   */\n    tag_154:\n        /* \"#utility.yul\":10395:10398   */\n      0x00\n        /* \"#utility.yul\":10416:10483   */\n      tag_275\n        /* \"#utility.yul\":10480:10482   */\n      0x14\n        /* \"#utility.yul\":10475:10478   */\n      dup4\n        /* \"#utility.yul\":10416:10483   */\n      tag_138\n      jump\t// in\n    tag_275:\n        /* \"#utility.yul\":10409:10483   */\n      swap2\n      pop\n        /* \"#utility.yul\":10492:10585   */\n      tag_276\n        /* \"#utility.yul\":10581:10584   */\n      dup3\n        /* \"#utility.yul\":10492:10585   */\n      tag_153\n      jump\t// in\n    tag_276:\n        /* \"#utility.yul\":10610:10612   */\n      0x20\n        /* \"#utility.yul\":10605:10608   */\n      dup3\n        /* \"#utility.yul\":10601:10613   */\n      add\n        /* \"#utility.yul\":10594:10613   */\n      swap1\n      pop\n        /* \"#utility.yul\":10253:10619   */\n      swap2\n      swap1\n      pop\n      jump\t// out\n        /* \"#utility.yul\":10625:11044   */\n    tag_108:\n        /* \"#utility.yul\":10791:10795   */\n      0x00\n        /* \"#utility.yul\":10829:10831   */\n      0x20\n        /* \"#utility.yul\":10818:10827   */\n      dup3\n        /* \"#utility.yul\":10814:10832   */\n      add\n        /* \"#utility.yul\":10806:10832   */\n      swap1\n      pop\n        /* \"#utility.yul\":10878:10887   */\n      dup2\n        /* \"#utility.yul\":10872:10876   */\n      dup2\n        /* \"#utility.yul\":10868:10888   */\n      sub\n        /* \"#utility.yul\":10864:10865   */\n      0x00\n        /* \"#utility.yul\":10853:10862   */\n      dup4\n        /* \"#utility.yul\":10849:10866   */\n      add\n        /* \"#utility.yul\":10842:10889   */\n      mstore\n        /* \"#utility.yul\":10906:11037   */\n      tag_278\n        /* \"#utility.yul\":11032:11036   */\n      dup2\n        /* \"#utility.yul\":10906:11037   */\n      tag_154\n      jump\t// in\n    tag_278:\n        /* \"#utility.yul\":10898:11037   */\n      swap1\n      pop\n        /* \"#utility.yul\":10625:11044   */\n      swap2\n      swap1\n      pop\n      jump\t// out\n        /* \"#utility.yul\":11050:11197   */\n    tag_155:\n        /* \"#utility.yul\":11151:11162   */\n      0x00\n        /* \"#utility.yul\":11188:11191   */\n      dup2\n        /* \"#utility.yul\":11173:11191   */\n      swap1\n      pop\n        /* \"#utility.yul\":11050:11197   */\n      swap3\n      swap2\n      pop\n      pop\n      jump\t// out\n        /* \"#utility.yul\":11203:11317   */\n    tag_156:\n      pop\n      jump\t// out\n        /* \"#utility.yul\":11323:11721   */\n    tag_157:\n        /* \"#utility.yul\":11482:11485   */\n      0x00\n        /* \"#utility.yul\":11503:11586   */\n      tag_282\n        /* \"#utility.yul\":11584:11585   */\n      0x00\n        /* \"#utility.yul\":11579:11582   */\n      dup4\n        /* \"#utility.yul\":11503:11586   */\n      tag_155\n      jump\t// in\n    tag_282:\n        /* \"#utility.yul\":11496:11586   */\n      swap2\n      pop\n        /* \"#utility.yul\":11595:11688   */\n      tag_283\n        /* \"#utility.yul\":11684:11687   */\n      dup3\n        /* \"#utility.yul\":11595:11688   */\n      tag_156\n      jump\t// in\n    tag_283:\n        /* \"#utility.yul\":11713:11714   */\n      0x00\n        /* \"#utility.yul\":11708:11711   */\n      dup3\n        /* \"#utility.yul\":11704:11715   */\n      add\n        /* \"#utility.yul\":11697:11715   */\n      swap1\n      pop\n        /* \"#utility.yul\":11323:11721   */\n      swap2\n      swap1\n      pop\n      jump\t// out\n        /* \"#utility.yul\":11727:12106   */\n    tag_110:\n        /* \"#utility.yul\":11911:11914   */\n      0x00\n        /* \"#utility.yul\":11933:12080   */\n      tag_285\n        /* \"#utility.yul\":12076:12079   */\n      dup3\n        /* \"#utility.yul\":11933:12080   */\n      tag_157\n      jump\t// in\n    tag_285:\n        /* \"#utility.yul\":11926:12080   */\n      swap2\n      pop\n        /* \"#utility.yul\":12097:12100   */\n      dup2\n        /* \"#utility.yul\":12090:12100   */\n      swap1\n      pop\n        /* \"#utility.yul\":11727:12106   */\n      swap2\n      swap1\n      pop\n      jump\t// out\n        /* \"#utility.yul\":12112:12280   */\n    tag_158:\n        /* \"#utility.yul\":12252:12272   */\n      0x4661696c656420746f2073656e64204554480000000000000000000000000000\n        /* \"#utility.yul\":12248:12249   */\n      0x00\n        /* \"#utility.yul\":12240:12246   */\n      dup3\n        /* \"#utility.yul\":12236:12250   */\n      add\n        /* \"#utility.yul\":12229:12273   */\n      mstore\n        /* \"#utility.yul\":12112:12280   */\n      pop\n      jump\t// out\n        /* \"#utility.yul\":12286:12652   */\n    tag_159:\n        /* \"#utility.yul\":12428:12431   */\n      0x00\n        /* \"#utility.yul\":12449:12516   */\n      tag_288\n        /* \"#utility.yul\":12513:12515   */\n      0x12\n        /* \"#utility.yul\":12508:12511   */\n      dup4\n        /* \"#utility.yul\":12449:12516   */\n      tag_138\n      jump\t// in\n    tag_288:\n        /* \"#utility.yul\":12442:12516   */\n      swap2\n      pop\n        /* \"#utility.yul\":12525:12618   */\n      tag_289\n        /* \"#utility.yul\":12614:12617   */\n      dup3\n        /* \"#utility.yul\":12525:12618   */\n      tag_158\n      jump\t// in\n    tag_289:\n        /* \"#utility.yul\":12643:12645   */\n      0x20\n        /* \"#utility.yul\":12638:12641   */\n      dup3\n        /* \"#utility.yul\":12634:12646   */\n      add\n        /* \"#utility.yul\":12627:12646   */\n      swap1\n      pop\n        /* \"#utility.yul\":12286:12652   */\n      swap2\n      swap1\n      pop\n      jump\t// out\n        /* \"#utility.yul\":12658:13077   */\n    tag_116:\n        /* \"#utility.yul\":12824:12828   */\n      0x00\n        /* \"#utility.yul\":12862:12864   */\n      0x20\n        /* \"#utility.yul\":12851:12860   */\n      dup3\n        /* \"#utility.yul\":12847:12865   */\n      add\n        /* \"#utility.yul\":12839:12865   */\n      swap1\n      pop\n        /* \"#utility.yul\":12911:12920   */\n      dup2\n        /* \"#utility.yul\":12905:12909   */\n      dup2\n        /* \"#utility.yul\":12901:12921   */\n      sub\n        /* \"#utility.yul\":12897:12898   */\n      0x00\n        /* \"#utility.yul\":12886:12895   */\n      dup4\n        /* \"#utility.yul\":12882:12899   */\n      add\n        /* \"#utility.yul\":12875:12922   */\n      mstore\n        /* \"#utility.yul\":12939:13070   */\n      tag_291\n        /* \"#utility.yul\":13065:13069   */\n      dup2\n        /* \"#utility.yul\":12939:13070   */\n      tag_159\n      jump\t// in\n    tag_291:\n        /* \"#utility.yul\":12931:13070   */\n      swap1\n      pop\n        /* \"#utility.yul\":12658:13077   */\n      swap2\n      swap1\n      pop\n      jump\t// out\n\n    auxdata: 0xa264697066735822122057020166a644f4b82392a056b3863405ac82e4ec97af7a44916fe213897ed46c64736f6c634300080d0033\n}\n",
				"bytecode": {
					"linkReferences": {},
					"object": "608060405273d4a33860578de61dbabdc8bfdb98fd742fa7028e6000806101000a81548173ffffffffffffffffffffffffffffffffffffffff021916908373ffffffffffffffffffffffffffffffffffffffff160217905550678ac7230489e8000060025533600360006101000a81548173ffffffffffffffffffffffffffffffffffffffff021916908373ffffffffffffffffffffffffffffffffffffffff16021790555073ce4bba458ed6d2efef2bc8bfeb5ec5fb035dd822600460006101000a81548173ffffffffffffffffffffffffffffffffffffffff021916908373ffffffffffffffffffffffffffffffffffffffff16021790555073b6651cc8429624b22e5e8e224767a8b26809ea6c600560006101000a81548173ffffffffffffffffffffffffffffffffffffffff021916908373ffffffffffffffffffffffffffffffffffffffff16021790555034801561015b57600080fd5b506112118061016b6000396000f3fe6080604052600436106100a75760003560e01c8063a035b1fe11610064578063a035b1fe146101c0578063a2b40d19146101eb578063a6f9dae114610214578063aef691e91461023d578063cb44bd0514610268578063fba931b414610286576100a7565b806311023c79146100ac5780635b27f2a7146100d757806382d3eef6146101145780638da5cb5b1461013f5780638e07c22a1461016a578063906798f814610195575b600080fd5b3480156100b857600080fd5b506100c16102b1565b6040516100ce9190610b6e565b60405180910390f35b3480156100e357600080fd5b506100fe60048036038101906100f99190610bec565b6104b5565b60405161010b9190610b6e565b60405180910390f35b34801561012057600080fd5b506101296104d5565b6040516101369190610b6e565b60405180910390f35b34801561014b57600080fd5b506101546106d9565b6040516101619190610c28565b60405180910390f35b34801561017657600080fd5b5061017f6106ff565b60405161018c9190610c5c565b60405180910390f35b3480156101a157600080fd5b506101aa6107ad565b6040516101b79190610cd6565b60405180910390f35b3480156101cc57600080fd5b506101d56107d3565b6040516101e29190610d0a565b60405180910390f35b3480156101f757600080fd5b50610212600480360381019061020d9190610d51565b6107d9565b005b34801561022057600080fd5b5061023b60048036038101906102369190610bec565b610873565b005b34801561024957600080fd5b50610252610947565b60405161025f9190610c5c565b60405180910390f35b610270610963565b60405161027d9190610b6e565b60405180910390f35b34801561029257600080fd5b5061029b610b2d565b6040516102a89190610cd6565b60405180910390f35b6000801515600160003373ffffffffffffffffffffffffffffffffffffffff1673ffffffffffffffffffffffffffffffffffffffff16815260200190815260200160002060009054906101000a900460ff16151514610345576040517f08c379a000000000000000000000000000000000000000000000000000000000815260040161033c90610ddb565b60405180910390fd5b600460009054906101000a900473ffffffffffffffffffffffffffffffffffffffff1673ffffffffffffffffffffffffffffffffffffffff166323b872dd33600360009054906101000a900473ffffffffffffffffffffffffffffffffffffffff166002546040518463ffffffff1660e01b81526004016103c893929190610dfb565b6020604051808303816000875af11580156103e7573d6000803e3d6000fd5b505050506040513d601f19601f8201168201806040525081019061040b9190610e5e565b5060018060003373ffffffffffffffffffffffffffffffffffffffff1673ffffffffffffffffffffffffffffffffffffffff16815260200190815260200160002060006101000a81548160ff021916908315150217905550600160003373ffffffffffffffffffffffffffffffffffffffff1673ffffffffffffffffffffffffffffffffffffffff16815260200190815260200160002060009054906101000a900460ff16905090565b60016020528060005260406000206000915054906101000a900460ff1681565b6000801515600160003373ffffffffffffffffffffffffffffffffffffffff1673ffffffffffffffffffffffffffffffffffffffff16815260200190815260200160002060009054906101000a900460ff16151514610569576040517f08c379a000000000000000000000000000000000000000000000000000000000815260040161056090610ddb565b60405180910390fd5b600560009054906101000a900473ffffffffffffffffffffffffffffffffffffffff1673ffffffffffffffffffffffffffffffffffffffff166323b872dd33600360009054906101000a900473ffffffffffffffffffffffffffffffffffffffff166002546040518463ffffffff1660e01b81526004016105ec93929190610dfb565b6020604051808303816000875af115801561060b573d6000803e3d6000fd5b505050506040513d601f19601f8201168201806040525081019061062f9190610e5e565b5060018060003373ffffffffffffffffffffffffffffffffffffffff1673ffffffffffffffffffffffffffffffffffffffff16815260200190815260200160002060006101000a81548160ff021916908315150217905550600160003373ffffffffffffffffffffffffffffffffffffffff1673ffffffffffffffffffffffffffffffffffffffff16815260200190815260200160002060009054906101000a900460ff16905090565b600360009054906101000a900473ffffffffffffffffffffffffffffffffffffffff1681565b60008060008054906101000a900473ffffffffffffffffffffffffffffffffffffffff1673ffffffffffffffffffffffffffffffffffffffff1663feaf968c6040518163ffffffff1660e01b815260040160a060405180830381865afa15801561076d573d6000803e3d6000fd5b505050506040513d601f19601f820116820180604052508101906107919190610f0e565b5050509150506305f5e100816107a79190610fe7565b91505090565b600560009054906101000a900473ffffffffffffffffffffffffffffffffffffffff1681565b60025481565b600360009054906101000a900473ffffffffffffffffffffffffffffffffffffffff1673ffffffffffffffffffffffffffffffffffffffff163373ffffffffffffffffffffffffffffffffffffffff1614610869576040517f08c379a00000000000000000000000000000000000000000000000000000000081526004016108609061109d565b60405180910390fd5b8060028190555050565b600360009054906101000a900473ffffffffffffffffffffffffffffffffffffffff1673ffffffffffffffffffffffffffffffffffffffff163373ffffffffffffffffffffffffffffffffffffffff1614610903576040517f08c379a00000000000000000000000000000000000000000000000000000000081526004016108fa9061109d565b60405180910390fd5b80600360006101000a81548173ffffffffffffffffffffffffffffffffffffffff021916908373ffffffffffffffffffffffffffffffffffffffff16021790555050565b60006109516106ff565b60025461095e9190610fe7565b905090565b600061096d610947565b34146109ae576040517f08c379a00000000000000000000000000000000000000000000000000000000081526004016109a590611109565b60405180910390fd5b6000600360009054906101000a900473ffffffffffffffffffffffffffffffffffffffff1673ffffffffffffffffffffffffffffffffffffffff16346040516109f69061115a565b60006040518083038185875af1925050503d8060008114610a33576040519150601f19603f3d011682016040523d82523d6000602084013e610a38565b606091505b505090506001151581151514610a83576040517f08c379a0000000000000000000000000000000000000000000000000000000008152600401610a7a906111bb565b60405180910390fd5b60018060003373ffffffffffffffffffffffffffffffffffffffff1673ffffffffffffffffffffffffffffffffffffffff16815260200190815260200160002060006101000a81548160ff021916908315150217905550600160003373ffffffffffffffffffffffffffffffffffffffff1673ffffffffffffffffffffffffffffffffffffffff16815260200190815260200160002060009054906101000a900460ff1691505090565b600460009054906101000a900473ffffffffffffffffffffffffffffffffffffffff1681565b60008115159050919050565b610b6881610b53565b82525050565b6000602082019050610b836000830184610b5f565b92915050565b600080fd5b600073ffffffffffffffffffffffffffffffffffffffff82169050919050565b6000610bb982610b8e565b9050919050565b610bc981610bae565b8114610bd457600080fd5b50565b600081359050610be681610bc0565b92915050565b600060208284031215610c0257610c01610b89565b5b6000610c1084828501610bd7565b91505092915050565b610c2281610bae565b82525050565b6000602082019050610c3d6000830184610c19565b92915050565b6000819050919050565b610c5681610c43565b82525050565b6000602082019050610c716000830184610c4d565b92915050565b6000819050919050565b6000610c9c610c97610c9284610b8e565b610c77565b610b8e565b9050919050565b6000610cae82610c81565b9050919050565b6000610cc082610ca3565b9050919050565b610cd081610cb5565b82525050565b6000602082019050610ceb6000830184610cc7565b92915050565b6000819050919050565b610d0481610cf1565b82525050565b6000602082019050610d1f6000830184610cfb565b92915050565b610d2e81610cf1565b8114610d3957600080fd5b50565b600081359050610d4b81610d25565b92915050565b600060208284031215610d6757610d66610b89565b5b6000610d7584828501610d3c565b91505092915050565b600082825260208201905092915050565b7f596f7520616c726561647920626f756768742074686973206974656d00000000600082015250565b6000610dc5601c83610d7e565b9150610dd082610d8f565b602082019050919050565b60006020820190508181036000830152610df481610db8565b9050919050565b6000606082019050610e106000830186610c19565b610e1d6020830185610c19565b610e2a6040830184610cfb565b949350505050565b610e3b81610b53565b8114610e4657600080fd5b50565b600081519050610e5881610e32565b92915050565b600060208284031215610e7457610e73610b89565b5b6000610e8284828501610e49565b91505092915050565b600069ffffffffffffffffffff82169050919050565b610eaa81610e8b565b8114610eb557600080fd5b50565b600081519050610ec781610ea1565b92915050565b610ed681610c43565b8114610ee157600080fd5b50565b600081519050610ef381610ecd565b92915050565b600081519050610f0881610d25565b92915050565b600080600080600060a08688031215610f2a57610f29610b89565b5b6000610f3888828901610eb8565b9550506020610f4988828901610ee4565b9450506040610f5a88828901610ef9565b9350506060610f6b88828901610ef9565b9250506080610f7c88828901610eb8565b9150509295509295909350565b7f4e487b7100000000000000000000000000000000000000000000000000000000600052601260045260246000fd5b7f4e487b7100000000000000000000000000000000000000000000000000000000600052601160045260246000fd5b6000610ff282610c43565b9150610ffd83610c43565b92508261100d5761100c610f89565b5b600160000383147f80000000000000000000000000000000000000000000000000000000000000008314161561104657611045610fb8565b5b828205905092915050565b7f596f75277265206e6f7420746865206f776e6572000000000000000000000000600082015250565b6000611087601483610d7e565b915061109282611051565b602082019050919050565b600060208201905081810360008301526110b68161107a565b9050919050565b7f57726f6e6720616d6f756e74206f662045544821000000000000000000000000600082015250565b60006110f3601483610d7e565b91506110fe826110bd565b602082019050919050565b60006020820190508181036000830152611122816110e6565b9050919050565b600081905092915050565b50565b6000611144600083611129565b915061114f82611134565b600082019050919050565b600061116582611137565b9150819050919050565b7f4661696c656420746f2073656e64204554480000000000000000000000000000600082015250565b60006111a5601283610d7e565b91506111b08261116f565b602082019050919050565b600060208201905081810360008301526111d481611198565b905091905056fea264697066735822122057020166a644f4b82392a056b3863405ac82e4ec97af7a44916fe213897ed46c64736f6c634300080d0033",
					"opcodes": "PUSH1 0x80 PUSH1 0x40 MSTORE PUSH20 0xD4A33860578DE61DBABDC8BFDB98FD742FA7028E PUSH1 0x0 DUP1 PUSH2 0x100 EXP DUP2 SLOAD DUP2 PUSH20 0xFFFFFFFFFFFFFFFFFFFFFFFFFFFFFFFFFFFFFFFF MUL NOT AND SWAP1 DUP4 PUSH20 0xFFFFFFFFFFFFFFFFFFFFFFFFFFFFFFFFFFFFFFFF AND MUL OR SWAP1 SSTORE POP PUSH8 0x8AC7230489E80000 PUSH1 0x2 SSTORE CALLER PUSH1 0x3 PUSH1 0x0 PUSH2 0x100 EXP DUP2 SLOAD DUP2 PUSH20 0xFFFFFFFFFFFFFFFFFFFFFFFFFFFFFFFFFFFFFFFF MUL NOT AND SWAP1 DUP4 PUSH20 0xFFFFFFFFFFFFFFFFFFFFFFFFFFFFFFFFFFFFFFFF AND MUL OR SWAP1 SSTORE POP PUSH20 0xCE4BBA458ED6D2EFEF2BC8BFEB5EC5FB035DD822 PUSH1 0x4 PUSH1 0x0 PUSH2 0x100 EXP DUP2 SLOAD DUP2 PUSH20 0xFFFFFFFFFFFFFFFFFFFFFFFFFFFFFFFFFFFFFFFF MUL NOT AND SWAP1 DUP4 PUSH20 0xFFFFFFFFFFFFFFFFFFFFFFFFFFFFFFFFFFFFFFFF AND MUL OR SWAP1 SSTORE POP PUSH20 0xB6651CC8429624B22E5E8E224767A8B26809EA6C PUSH1 0x5 PUSH1 0x0 PUSH2 0x100 EXP DUP2 SLOAD DUP2 PUSH20 0xFFFFFFFFFFFFFFFFFFFFFFFFFFFFFFFFFFFFFFFF MUL NOT AND SWAP1 DUP4 PUSH20 0xFFFFFFFFFFFFFFFFFFFFFFFFFFFFFFFFFFFFFFFF AND MUL OR SWAP1 SSTORE POP CALLVALUE DUP1 ISZERO PUSH2 0x15B JUMPI PUSH1 0x0 DUP1 REVERT JUMPDEST POP PUSH2 0x1211 DUP1 PUSH2 0x16B PUSH1 0x0 CODECOPY PUSH1 0x0 RETURN INVALID PUSH1 0x80 PUSH1 0x40 MSTORE PUSH1 0x4 CALLDATASIZE LT PUSH2 0xA7 JUMPI PUSH1 0x0 CALLDATALOAD PUSH1 0xE0 SHR DUP1 PUSH4 0xA035B1FE GT PUSH2 0x64 JUMPI DUP1 PUSH4 0xA035B1FE EQ PUSH2 0x1C0 JUMPI DUP1 PUSH4 0xA2B40D19 EQ PUSH2 0x1EB JUMPI DUP1 PUSH4 0xA6F9DAE1 EQ PUSH2 0x214 JUMPI DUP1 PUSH4 0xAEF691E9 EQ PUSH2 0x23D JUMPI DUP1 PUSH4 0xCB44BD05 EQ PUSH2 0x268 JUMPI DUP1 PUSH4 0xFBA931B4 EQ PUSH2 0x286 JUMPI PUSH2 0xA7 JUMP JUMPDEST DUP1 PUSH4 0x11023C79 EQ PUSH2 0xAC JUMPI DUP1 PUSH4 0x5B27F2A7 EQ PUSH2 0xD7 JUMPI DUP1 PUSH4 0x82D3EEF6 EQ PUSH2 0x114 JUMPI DUP1 PUSH4 0x8DA5CB5B EQ PUSH2 0x13F JUMPI DUP1 PUSH4 0x8E07C22A EQ PUSH2 0x16A JUMPI DUP1 PUSH4 0x906798F8 EQ PUSH2 0x195 JUMPI JUMPDEST PUSH1 0x0 DUP1 REVERT JUMPDEST CALLVALUE DUP1 ISZERO PUSH2 0xB8 JUMPI PUSH1 0x0 DUP1 REVERT JUMPDEST POP PUSH2 0xC1 PUSH2 0x2B1 JUMP JUMPDEST PUSH1 0x40 MLOAD PUSH2 0xCE SWAP2 SWAP1 PUSH2 0xB6E JUMP JUMPDEST PUSH1 0x40 MLOAD DUP1 SWAP2 SUB SWAP1 RETURN JUMPDEST CALLVALUE DUP1 ISZERO PUSH2 0xE3 JUMPI PUSH1 0x0 DUP1 REVERT JUMPDEST POP PUSH2 0xFE PUSH1 0x4 DUP1 CALLDATASIZE SUB DUP2 ADD SWAP1 PUSH2 0xF9 SWAP2 SWAP1 PUSH2 0xBEC JUMP JUMPDEST PUSH2 0x4B5 JUMP JUMPDEST PUSH1 0x40 MLOAD PUSH2 0x10B SWAP2 SWAP1 PUSH2 0xB6E JUMP JUMPDEST PUSH1 0x40 MLOAD DUP1 SWAP2 SUB SWAP1 RETURN JUMPDEST CALLVALUE DUP1 ISZERO PUSH2 0x120 JUMPI PUSH1 0x0 DUP1 REVERT JUMPDEST POP PUSH2 0x129 PUSH2 0x4D5 JUMP JUMPDEST PUSH1 0x40 MLOAD PUSH2 0x136 SWAP2 SWAP1 PUSH2 0xB6E JUMP JUMPDEST PUSH1 0x40 MLOAD DUP1 SWAP2 SUB SWAP1 RETURN JUMPDEST CALLVALUE DUP1 ISZERO PUSH2 0x14B JUMPI PUSH1 0x0 DUP1 REVERT JUMPDEST POP PUSH2 0x154 PUSH2 0x6D9 JUMP JUMPDEST PUSH1 0x40 MLOAD PUSH2 0x161 SWAP2 SWAP1 PUSH2 0xC28 JUMP JUMPDEST PUSH1 0x40 MLOAD DUP1 SWAP2 SUB SWAP1 RETURN JUMPDEST CALLVALUE DUP1 ISZERO PUSH2 0x176 JUMPI PUSH1 0x0 DUP1 REVERT JUMPDEST POP PUSH2 0x17F PUSH2 0x6FF JUMP JUMPDEST PUSH1 0x40 MLOAD PUSH2 0x18C SWAP2 SWAP1 PUSH2 0xC5C JUMP JUMPDEST PUSH1 0x40 MLOAD DUP1 SWAP2 SUB SWAP1 RETURN JUMPDEST CALLVALUE DUP1 ISZERO PUSH2 0x1A1 JUMPI PUSH1 0x0 DUP1 REVERT JUMPDEST POP PUSH2 0x1AA PUSH2 0x7AD JUMP JUMPDEST PUSH1 0x40 MLOAD PUSH2 0x1B7 SWAP2 SWAP1 PUSH2 0xCD6 JUMP JUMPDEST PUSH1 0x40 MLOAD DUP1 SWAP2 SUB SWAP1 RETURN JUMPDEST CALLVALUE DUP1 ISZERO PUSH2 0x1CC JUMPI PUSH1 0x0 DUP1 REVERT JUMPDEST POP PUSH2 0x1D5 PUSH2 0x7D3 JUMP JUMPDEST PUSH1 0x40 MLOAD PUSH2 0x1E2 SWAP2 SWAP1 PUSH2 0xD0A JUMP JUMPDEST PUSH1 0x40 MLOAD DUP1 SWAP2 SUB SWAP1 RETURN JUMPDEST CALLVALUE DUP1 ISZERO PUSH2 0x1F7 JUMPI PUSH1 0x0 DUP1 REVERT JUMPDEST POP PUSH2 0x212 PUSH1 0x4 DUP1 CALLDATASIZE SUB DUP2 ADD SWAP1 PUSH2 0x20D SWAP2 SWAP1 PUSH2 0xD51 JUMP JUMPDEST PUSH2 0x7D9 JUMP JUMPDEST STOP JUMPDEST CALLVALUE DUP1 ISZERO PUSH2 0x220 JUMPI PUSH1 0x0 DUP1 REVERT JUMPDEST POP PUSH2 0x23B PUSH1 0x4 DUP1 CALLDATASIZE SUB DUP2 ADD SWAP1 PUSH2 0x236 SWAP2 SWAP1 PUSH2 0xBEC JUMP JUMPDEST PUSH2 0x873 JUMP JUMPDEST STOP JUMPDEST CALLVALUE DUP1 ISZERO PUSH2 0x249 JUMPI PUSH1 0x0 DUP1 REVERT JUMPDEST POP PUSH2 0x252 PUSH2 0x947 JUMP JUMPDEST PUSH1 0x40 MLOAD PUSH2 0x25F SWAP2 SWAP1 PUSH2 0xC5C JUMP JUMPDEST PUSH1 0x40 MLOAD DUP1 SWAP2 SUB SWAP1 RETURN JUMPDEST PUSH2 0x270 PUSH2 0x963 JUMP JUMPDEST PUSH1 0x40 MLOAD PUSH2 0x27D SWAP2 SWAP1 PUSH2 0xB6E JUMP JUMPDEST PUSH1 0x40 MLOAD DUP1 SWAP2 SUB SWAP1 RETURN JUMPDEST CALLVALUE DUP1 ISZERO PUSH2 0x292 JUMPI PUSH1 0x0 DUP1 REVERT JUMPDEST POP PUSH2 0x29B PUSH2 0xB2D JUMP JUMPDEST PUSH1 0x40 MLOAD PUSH2 0x2A8 SWAP2 SWAP1 PUSH2 0xCD6 JUMP JUMPDEST PUSH1 0x40 MLOAD DUP1 SWAP2 SUB SWAP1 RETURN JUMPDEST PUSH1 0x0 DUP1 ISZERO ISZERO PUSH1 0x1 PUSH1 0x0 CALLER PUSH20 0xFFFFFFFFFFFFFFFFFFFFFFFFFFFFFFFFFFFFFFFF AND PUSH20 0xFFFFFFFFFFFFFFFFFFFFFFFFFFFFFFFFFFFFFFFF AND DUP2 MSTORE PUSH1 0x20 ADD SWAP1 DUP2 MSTORE PUSH1 0x20 ADD PUSH1 0x0 KECCAK256 PUSH1 0x0 SWAP1 SLOAD SWAP1 PUSH2 0x100 EXP SWAP1 DIV PUSH1 0xFF AND ISZERO ISZERO EQ PUSH2 0x345 JUMPI PUSH1 0x40 MLOAD PUSH32 0x8C379A000000000000000000000000000000000000000000000000000000000 DUP2 MSTORE PUSH1 0x4 ADD PUSH2 0x33C SWAP1 PUSH2 0xDDB JUMP JUMPDEST PUSH1 0x40 MLOAD DUP1 SWAP2 SUB SWAP1 REVERT JUMPDEST PUSH1 0x4 PUSH1 0x0 SWAP1 SLOAD SWAP1 PUSH2 0x100 EXP SWAP1 DIV PUSH20 0xFFFFFFFFFFFFFFFFFFFFFFFFFFFFFFFFFFFFFFFF AND PUSH20 0xFFFFFFFFFFFFFFFFFFFFFFFFFFFFFFFFFFFFFFFF AND PUSH4 0x23B872DD CALLER PUSH1 0x3 PUSH1 0x0 SWAP1 SLOAD SWAP1 PUSH2 0x100 EXP SWAP1 DIV PUSH20 0xFFFFFFFFFFFFFFFFFFFFFFFFFFFFFFFFFFFFFFFF AND PUSH1 0x2 SLOAD PUSH1 0x40 MLOAD DUP5 PUSH4 0xFFFFFFFF AND PUSH1 0xE0 SHL DUP2 MSTORE PUSH1 0x4 ADD PUSH2 0x3C8 SWAP4 SWAP3 SWAP2 SWAP1 PUSH2 0xDFB JUMP JUMPDEST PUSH1 0x20 PUSH1 0x40 MLOAD DUP1 DUP4 SUB DUP2 PUSH1 0x0 DUP8 GAS CALL ISZERO DUP1 ISZERO PUSH2 0x3E7 JUMPI RETURNDATASIZE PUSH1 0x0 DUP1 RETURNDATACOPY RETURNDATASIZE PUSH1 0x0 REVERT JUMPDEST POP POP POP POP PUSH1 0x40 MLOAD RETURNDATASIZE PUSH1 0x1F NOT PUSH1 0x1F DUP3 ADD AND DUP3 ADD DUP1 PUSH1 0x40 MSTORE POP DUP2 ADD SWAP1 PUSH2 0x40B SWAP2 SWAP1 PUSH2 0xE5E JUMP JUMPDEST POP PUSH1 0x1 DUP1 PUSH1 0x0 CALLER PUSH20 0xFFFFFFFFFFFFFFFFFFFFFFFFFFFFFFFFFFFFFFFF AND PUSH20 0xFFFFFFFFFFFFFFFFFFFFFFFFFFFFFFFFFFFFFFFF AND DUP2 MSTORE PUSH1 0x20 ADD SWAP1 DUP2 MSTORE PUSH1 0x20 ADD PUSH1 0x0 KECCAK256 PUSH1 0x0 PUSH2 0x100 EXP DUP2 SLOAD DUP2 PUSH1 0xFF MUL NOT AND SWAP1 DUP4 ISZERO ISZERO MUL OR SWAP1 SSTORE POP PUSH1 0x1 PUSH1 0x0 CALLER PUSH20 0xFFFFFFFFFFFFFFFFFFFFFFFFFFFFFFFFFFFFFFFF AND PUSH20 0xFFFFFFFFFFFFFFFFFFFFFFFFFFFFFFFFFFFFFFFF AND DUP2 MSTORE PUSH1 0x20 ADD SWAP1 DUP2 MSTORE PUSH1 0x20 ADD PUSH1 0x0 KECCAK256 PUSH1 0x0 SWAP1 SLOAD SWAP1 PUSH2 0x100 EXP SWAP1 DIV PUSH1 0xFF AND SWAP1 POP SWAP1 JUMP JUMPDEST PUSH1 0x1 PUSH1 0x20 MSTORE DUP1 PUSH1 0x0 MSTORE PUSH1 0x40 PUSH1 0x0 KECCAK256 PUSH1 0x0 SWAP2 POP SLOAD SWAP1 PUSH2 0x100 EXP SWAP1 DIV PUSH1 0xFF AND DUP2 JUMP JUMPDEST PUSH1 0x0 DUP1 ISZERO ISZERO PUSH1 0x1 PUSH1 0x0 CALLER PUSH20 0xFFFFFFFFFFFFFFFFFFFFFFFFFFFFFFFFFFFFFFFF AND PUSH20 0xFFFFFFFFFFFFFFFFFFFFFFFFFFFFFFFFFFFFFFFF AND DUP2 MSTORE PUSH1 0x20 ADD SWAP1 DUP2 MSTORE PUSH1 0x20 ADD PUSH1 0x0 KECCAK256 PUSH1 0x0 SWAP1 SLOAD SWAP1 PUSH2 0x100 EXP SWAP1 DIV PUSH1 0xFF AND ISZERO ISZERO EQ PUSH2 0x569 JUMPI PUSH1 0x40 MLOAD PUSH32 0x8C379A000000000000000000000000000000000000000000000000000000000 DUP2 MSTORE PUSH1 0x4 ADD PUSH2 0x560 SWAP1 PUSH2 0xDDB JUMP JUMPDEST PUSH1 0x40 MLOAD DUP1 SWAP2 SUB SWAP1 REVERT JUMPDEST PUSH1 0x5 PUSH1 0x0 SWAP1 SLOAD SWAP1 PUSH2 0x100 EXP SWAP1 DIV PUSH20 0xFFFFFFFFFFFFFFFFFFFFFFFFFFFFFFFFFFFFFFFF AND PUSH20 0xFFFFFFFFFFFFFFFFFFFFFFFFFFFFFFFFFFFFFFFF AND PUSH4 0x23B872DD CALLER PUSH1 0x3 PUSH1 0x0 SWAP1 SLOAD SWAP1 PUSH2 0x100 EXP SWAP1 DIV PUSH20 0xFFFFFFFFFFFFFFFFFFFFFFFFFFFFFFFFFFFFFFFF AND PUSH1 0x2 SLOAD PUSH1 0x40 MLOAD DUP5 PUSH4 0xFFFFFFFF AND PUSH1 0xE0 SHL DUP2 MSTORE PUSH1 0x4 ADD PUSH2 0x5EC SWAP4 SWAP3 SWAP2 SWAP1 PUSH2 0xDFB JUMP JUMPDEST PUSH1 0x20 PUSH1 0x40 MLOAD DUP1 DUP4 SUB DUP2 PUSH1 0x0 DUP8 GAS CALL ISZERO DUP1 ISZERO PUSH2 0x60B JUMPI RETURNDATASIZE PUSH1 0x0 DUP1 RETURNDATACOPY RETURNDATASIZE PUSH1 0x0 REVERT JUMPDEST POP POP POP POP PUSH1 0x40 MLOAD RETURNDATASIZE PUSH1 0x1F NOT PUSH1 0x1F DUP3 ADD AND DUP3 ADD DUP1 PUSH1 0x40 MSTORE POP DUP2 ADD SWAP1 PUSH2 0x62F SWAP2 SWAP1 PUSH2 0xE5E JUMP JUMPDEST POP PUSH1 0x1 DUP1 PUSH1 0x0 CALLER PUSH20 0xFFFFFFFFFFFFFFFFFFFFFFFFFFFFFFFFFFFFFFFF AND PUSH20 0xFFFFFFFFFFFFFFFFFFFFFFFFFFFFFFFFFFFFFFFF AND DUP2 MSTORE PUSH1 0x20 ADD SWAP1 DUP2 MSTORE PUSH1 0x20 ADD PUSH1 0x0 KECCAK256 PUSH1 0x0 PUSH2 0x100 EXP DUP2 SLOAD DUP2 PUSH1 0xFF MUL NOT AND SWAP1 DUP4 ISZERO ISZERO MUL OR SWAP1 SSTORE POP PUSH1 0x1 PUSH1 0x0 CALLER PUSH20 0xFFFFFFFFFFFFFFFFFFFFFFFFFFFFFFFFFFFFFFFF AND PUSH20 0xFFFFFFFFFFFFFFFFFFFFFFFFFFFFFFFFFFFFFFFF AND DUP2 MSTORE PUSH1 0x20 ADD SWAP1 DUP2 MSTORE PUSH1 0x20 ADD PUSH1 0x0 KECCAK256 PUSH1 0x0 SWAP1 SLOAD SWAP1 PUSH2 0x100 EXP SWAP1 DIV PUSH1 0xFF AND SWAP1 POP SWAP1 JUMP JUMPDEST PUSH1 0x3 PUSH1 0x0 SWAP1 SLOAD SWAP1 PUSH2 0x100 EXP SWAP1 DIV PUSH20 0xFFFFFFFFFFFFFFFFFFFFFFFFFFFFFFFFFFFFFFFF AND DUP2 JUMP JUMPDEST PUSH1 0x0 DUP1 PUSH1 0x0 DUP1 SLOAD SWAP1 PUSH2 0x100 EXP SWAP1 DIV PUSH20 0xFFFFFFFFFFFFFFFFFFFFFFFFFFFFFFFFFFFFFFFF AND PUSH20 0xFFFFFFFFFFFFFFFFFFFFFFFFFFFFFFFFFFFFFFFF AND PUSH4 0xFEAF968C PUSH1 0x40 MLOAD DUP2 PUSH4 0xFFFFFFFF AND PUSH1 0xE0 SHL DUP2 MSTORE PUSH1 0x4 ADD PUSH1 0xA0 PUSH1 0x40 MLOAD DUP1 DUP4 SUB DUP2 DUP7 GAS STATICCALL ISZERO DUP1 ISZERO PUSH2 0x76D JUMPI RETURNDATASIZE PUSH1 0x0 DUP1 RETURNDATACOPY RETURNDATASIZE PUSH1 0x0 REVERT JUMPDEST POP POP POP POP PUSH1 0x40 MLOAD RETURNDATASIZE PUSH1 0x1F NOT PUSH1 0x1F DUP3 ADD AND DUP3 ADD DUP1 PUSH1 0x40 MSTORE POP DUP2 ADD SWAP1 PUSH2 0x791 SWAP2 SWAP1 PUSH2 0xF0E JUMP JUMPDEST POP POP POP SWAP2 POP POP PUSH4 0x5F5E100 DUP2 PUSH2 0x7A7 SWAP2 SWAP1 PUSH2 0xFE7 JUMP JUMPDEST SWAP2 POP POP SWAP1 JUMP JUMPDEST PUSH1 0x5 PUSH1 0x0 SWAP1 SLOAD SWAP1 PUSH2 0x100 EXP SWAP1 DIV PUSH20 0xFFFFFFFFFFFFFFFFFFFFFFFFFFFFFFFFFFFFFFFF AND DUP2 JUMP JUMPDEST PUSH1 0x2 SLOAD DUP2 JUMP JUMPDEST PUSH1 0x3 PUSH1 0x0 SWAP1 SLOAD SWAP1 PUSH2 0x100 EXP SWAP1 DIV PUSH20 0xFFFFFFFFFFFFFFFFFFFFFFFFFFFFFFFFFFFFFFFF AND PUSH20 0xFFFFFFFFFFFFFFFFFFFFFFFFFFFFFFFFFFFFFFFF AND CALLER PUSH20 0xFFFFFFFFFFFFFFFFFFFFFFFFFFFFFFFFFFFFFFFF AND EQ PUSH2 0x869 JUMPI PUSH1 0x40 MLOAD PUSH32 0x8C379A000000000000000000000000000000000000000000000000000000000 DUP2 MSTORE PUSH1 0x4 ADD PUSH2 0x860 SWAP1 PUSH2 0x109D JUMP JUMPDEST PUSH1 0x40 MLOAD DUP1 SWAP2 SUB SWAP1 REVERT JUMPDEST DUP1 PUSH1 0x2 DUP2 SWAP1 SSTORE POP POP JUMP JUMPDEST PUSH1 0x3 PUSH1 0x0 SWAP1 SLOAD SWAP1 PUSH2 0x100 EXP SWAP1 DIV PUSH20 0xFFFFFFFFFFFFFFFFFFFFFFFFFFFFFFFFFFFFFFFF AND PUSH20 0xFFFFFFFFFFFFFFFFFFFFFFFFFFFFFFFFFFFFFFFF AND CALLER PUSH20 0xFFFFFFFFFFFFFFFFFFFFFFFFFFFFFFFFFFFFFFFF AND EQ PUSH2 0x903 JUMPI PUSH1 0x40 MLOAD PUSH32 0x8C379A000000000000000000000000000000000000000000000000000000000 DUP2 MSTORE PUSH1 0x4 ADD PUSH2 0x8FA SWAP1 PUSH2 0x109D JUMP JUMPDEST PUSH1 0x40 MLOAD DUP1 SWAP2 SUB SWAP1 REVERT JUMPDEST DUP1 PUSH1 0x3 PUSH1 0x0 PUSH2 0x100 EXP DUP2 SLOAD DUP2 PUSH20 0xFFFFFFFFFFFFFFFFFFFFFFFFFFFFFFFFFFFFFFFF MUL NOT AND SWAP1 DUP4 PUSH20 0xFFFFFFFFFFFFFFFFFFFFFFFFFFFFFFFFFFFFFFFF AND MUL OR SWAP1 SSTORE POP POP JUMP JUMPDEST PUSH1 0x0 PUSH2 0x951 PUSH2 0x6FF JUMP JUMPDEST PUSH1 0x2 SLOAD PUSH2 0x95E SWAP2 SWAP1 PUSH2 0xFE7 JUMP JUMPDEST SWAP1 POP SWAP1 JUMP JUMPDEST PUSH1 0x0 PUSH2 0x96D PUSH2 0x947 JUMP JUMPDEST CALLVALUE EQ PUSH2 0x9AE JUMPI PUSH1 0x40 MLOAD PUSH32 0x8C379A000000000000000000000000000000000000000000000000000000000 DUP2 MSTORE PUSH1 0x4 ADD PUSH2 0x9A5 SWAP1 PUSH2 0x1109 JUMP JUMPDEST PUSH1 0x40 MLOAD DUP1 SWAP2 SUB SWAP1 REVERT JUMPDEST PUSH1 0x0 PUSH1 0x3 PUSH1 0x0 SWAP1 SLOAD SWAP1 PUSH2 0x100 EXP SWAP1 DIV PUSH20 0xFFFFFFFFFFFFFFFFFFFFFFFFFFFFFFFFFFFFFFFF AND PUSH20 0xFFFFFFFFFFFFFFFFFFFFFFFFFFFFFFFFFFFFFFFF AND CALLVALUE PUSH1 0x40 MLOAD PUSH2 0x9F6 SWAP1 PUSH2 0x115A JUMP JUMPDEST PUSH1 0x0 PUSH1 0x40 MLOAD DUP1 DUP4 SUB DUP2 DUP6 DUP8 GAS CALL SWAP3 POP POP POP RETURNDATASIZE DUP1 PUSH1 0x0 DUP2 EQ PUSH2 0xA33 JUMPI PUSH1 0x40 MLOAD SWAP2 POP PUSH1 0x1F NOT PUSH1 0x3F RETURNDATASIZE ADD AND DUP3 ADD PUSH1 0x40 MSTORE RETURNDATASIZE DUP3 MSTORE RETURNDATASIZE PUSH1 0x0 PUSH1 0x20 DUP5 ADD RETURNDATACOPY PUSH2 0xA38 JUMP JUMPDEST PUSH1 0x60 SWAP2 POP JUMPDEST POP POP SWAP1 POP PUSH1 0x1 ISZERO ISZERO DUP2 ISZERO ISZERO EQ PUSH2 0xA83 JUMPI PUSH1 0x40 MLOAD PUSH32 0x8C379A000000000000000000000000000000000000000000000000000000000 DUP2 MSTORE PUSH1 0x4 ADD PUSH2 0xA7A SWAP1 PUSH2 0x11BB JUMP JUMPDEST PUSH1 0x40 MLOAD DUP1 SWAP2 SUB SWAP1 REVERT JUMPDEST PUSH1 0x1 DUP1 PUSH1 0x0 CALLER PUSH20 0xFFFFFFFFFFFFFFFFFFFFFFFFFFFFFFFFFFFFFFFF AND PUSH20 0xFFFFFFFFFFFFFFFFFFFFFFFFFFFFFFFFFFFFFFFF AND DUP2 MSTORE PUSH1 0x20 ADD SWAP1 DUP2 MSTORE PUSH1 0x20 ADD PUSH1 0x0 KECCAK256 PUSH1 0x0 PUSH2 0x100 EXP DUP2 SLOAD DUP2 PUSH1 0xFF MUL NOT AND SWAP1 DUP4 ISZERO ISZERO MUL OR SWAP1 SSTORE POP PUSH1 0x1 PUSH1 0x0 CALLER PUSH20 0xFFFFFFFFFFFFFFFFFFFFFFFFFFFFFFFFFFFFFFFF AND PUSH20 0xFFFFFFFFFFFFFFFFFFFFFFFFFFFFFFFFFFFFFFFF AND DUP2 MSTORE PUSH1 0x20 ADD SWAP1 DUP2 MSTORE PUSH1 0x20 ADD PUSH1 0x0 KECCAK256 PUSH1 0x0 SWAP1 SLOAD SWAP1 PUSH2 0x100 EXP SWAP1 DIV PUSH1 0xFF AND SWAP2 POP POP SWAP1 JUMP JUMPDEST PUSH1 0x4 PUSH1 0x0 SWAP1 SLOAD SWAP1 PUSH2 0x100 EXP SWAP1 DIV PUSH20 0xFFFFFFFFFFFFFFFFFFFFFFFFFFFFFFFFFFFFFFFF AND DUP2 JUMP JUMPDEST PUSH1 0x0 DUP2 ISZERO ISZERO SWAP1 POP SWAP2 SWAP1 POP JUMP JUMPDEST PUSH2 0xB68 DUP2 PUSH2 0xB53 JUMP JUMPDEST DUP3 MSTORE POP POP JUMP JUMPDEST PUSH1 0x0 PUSH1 0x20 DUP3 ADD SWAP1 POP PUSH2 0xB83 PUSH1 0x0 DUP4 ADD DUP5 PUSH2 0xB5F JUMP JUMPDEST SWAP3 SWAP2 POP POP JUMP JUMPDEST PUSH1 0x0 DUP1 REVERT JUMPDEST PUSH1 0x0 PUSH20 0xFFFFFFFFFFFFFFFFFFFFFFFFFFFFFFFFFFFFFFFF DUP3 AND SWAP1 POP SWAP2 SWAP1 POP JUMP JUMPDEST PUSH1 0x0 PUSH2 0xBB9 DUP3 PUSH2 0xB8E JUMP JUMPDEST SWAP1 POP SWAP2 SWAP1 POP JUMP JUMPDEST PUSH2 0xBC9 DUP2 PUSH2 0xBAE JUMP JUMPDEST DUP2 EQ PUSH2 0xBD4 JUMPI PUSH1 0x0 DUP1 REVERT JUMPDEST POP JUMP JUMPDEST PUSH1 0x0 DUP2 CALLDATALOAD SWAP1 POP PUSH2 0xBE6 DUP2 PUSH2 0xBC0 JUMP JUMPDEST SWAP3 SWAP2 POP POP JUMP JUMPDEST PUSH1 0x0 PUSH1 0x20 DUP3 DUP5 SUB SLT ISZERO PUSH2 0xC02 JUMPI PUSH2 0xC01 PUSH2 0xB89 JUMP JUMPDEST JUMPDEST PUSH1 0x0 PUSH2 0xC10 DUP5 DUP3 DUP6 ADD PUSH2 0xBD7 JUMP JUMPDEST SWAP2 POP POP SWAP3 SWAP2 POP POP JUMP JUMPDEST PUSH2 0xC22 DUP2 PUSH2 0xBAE JUMP JUMPDEST DUP3 MSTORE POP POP JUMP JUMPDEST PUSH1 0x0 PUSH1 0x20 DUP3 ADD SWAP1 POP PUSH2 0xC3D PUSH1 0x0 DUP4 ADD DUP5 PUSH2 0xC19 JUMP JUMPDEST SWAP3 SWAP2 POP POP JUMP JUMPDEST PUSH1 0x0 DUP2 SWAP1 POP SWAP2 SWAP1 POP JUMP JUMPDEST PUSH2 0xC56 DUP2 PUSH2 0xC43 JUMP JUMPDEST DUP3 MSTORE POP POP JUMP JUMPDEST PUSH1 0x0 PUSH1 0x20 DUP3 ADD SWAP1 POP PUSH2 0xC71 PUSH1 0x0 DUP4 ADD DUP5 PUSH2 0xC4D JUMP JUMPDEST SWAP3 SWAP2 POP POP JUMP JUMPDEST PUSH1 0x0 DUP2 SWAP1 POP SWAP2 SWAP1 POP JUMP JUMPDEST PUSH1 0x0 PUSH2 0xC9C PUSH2 0xC97 PUSH2 0xC92 DUP5 PUSH2 0xB8E JUMP JUMPDEST PUSH2 0xC77 JUMP JUMPDEST PUSH2 0xB8E JUMP JUMPDEST SWAP1 POP SWAP2 SWAP1 POP JUMP JUMPDEST PUSH1 0x0 PUSH2 0xCAE DUP3 PUSH2 0xC81 JUMP JUMPDEST SWAP1 POP SWAP2 SWAP1 POP JUMP JUMPDEST PUSH1 0x0 PUSH2 0xCC0 DUP3 PUSH2 0xCA3 JUMP JUMPDEST SWAP1 POP SWAP2 SWAP1 POP JUMP JUMPDEST PUSH2 0xCD0 DUP2 PUSH2 0xCB5 JUMP JUMPDEST DUP3 MSTORE POP POP JUMP JUMPDEST PUSH1 0x0 PUSH1 0x20 DUP3 ADD SWAP1 POP PUSH2 0xCEB PUSH1 0x0 DUP4 ADD DUP5 PUSH2 0xCC7 JUMP JUMPDEST SWAP3 SWAP2 POP POP JUMP JUMPDEST PUSH1 0x0 DUP2 SWAP1 POP SWAP2 SWAP1 POP JUMP JUMPDEST PUSH2 0xD04 DUP2 PUSH2 0xCF1 JUMP JUMPDEST DUP3 MSTORE POP POP JUMP JUMPDEST PUSH1 0x0 PUSH1 0x20 DUP3 ADD SWAP1 POP PUSH2 0xD1F PUSH1 0x0 DUP4 ADD DUP5 PUSH2 0xCFB JUMP JUMPDEST SWAP3 SWAP2 POP POP JUMP JUMPDEST PUSH2 0xD2E DUP2 PUSH2 0xCF1 JUMP JUMPDEST DUP2 EQ PUSH2 0xD39 JUMPI PUSH1 0x0 DUP1 REVERT JUMPDEST POP JUMP JUMPDEST PUSH1 0x0 DUP2 CALLDATALOAD SWAP1 POP PUSH2 0xD4B DUP2 PUSH2 0xD25 JUMP JUMPDEST SWAP3 SWAP2 POP POP JUMP JUMPDEST PUSH1 0x0 PUSH1 0x20 DUP3 DUP5 SUB SLT ISZERO PUSH2 0xD67 JUMPI PUSH2 0xD66 PUSH2 0xB89 JUMP JUMPDEST JUMPDEST PUSH1 0x0 PUSH2 0xD75 DUP5 DUP3 DUP6 ADD PUSH2 0xD3C JUMP JUMPDEST SWAP2 POP POP SWAP3 SWAP2 POP POP JUMP JUMPDEST PUSH1 0x0 DUP3 DUP3 MSTORE PUSH1 0x20 DUP3 ADD SWAP1 POP SWAP3 SWAP2 POP POP JUMP JUMPDEST PUSH32 0x596F7520616C726561647920626F756768742074686973206974656D00000000 PUSH1 0x0 DUP3 ADD MSTORE POP JUMP JUMPDEST PUSH1 0x0 PUSH2 0xDC5 PUSH1 0x1C DUP4 PUSH2 0xD7E JUMP JUMPDEST SWAP2 POP PUSH2 0xDD0 DUP3 PUSH2 0xD8F JUMP JUMPDEST PUSH1 0x20 DUP3 ADD SWAP1 POP SWAP2 SWAP1 POP JUMP JUMPDEST PUSH1 0x0 PUSH1 0x20 DUP3 ADD SWAP1 POP DUP2 DUP2 SUB PUSH1 0x0 DUP4 ADD MSTORE PUSH2 0xDF4 DUP2 PUSH2 0xDB8 JUMP JUMPDEST SWAP1 POP SWAP2 SWAP1 POP JUMP JUMPDEST PUSH1 0x0 PUSH1 0x60 DUP3 ADD SWAP1 POP PUSH2 0xE10 PUSH1 0x0 DUP4 ADD DUP7 PUSH2 0xC19 JUMP JUMPDEST PUSH2 0xE1D PUSH1 0x20 DUP4 ADD DUP6 PUSH2 0xC19 JUMP JUMPDEST PUSH2 0xE2A PUSH1 0x40 DUP4 ADD DUP5 PUSH2 0xCFB JUMP JUMPDEST SWAP5 SWAP4 POP POP POP POP JUMP JUMPDEST PUSH2 0xE3B DUP2 PUSH2 0xB53 JUMP JUMPDEST DUP2 EQ PUSH2 0xE46 JUMPI PUSH1 0x0 DUP1 REVERT JUMPDEST POP JUMP JUMPDEST PUSH1 0x0 DUP2 MLOAD SWAP1 POP PUSH2 0xE58 DUP2 PUSH2 0xE32 JUMP JUMPDEST SWAP3 SWAP2 POP POP JUMP JUMPDEST PUSH1 0x0 PUSH1 0x20 DUP3 DUP5 SUB SLT ISZERO PUSH2 0xE74 JUMPI PUSH2 0xE73 PUSH2 0xB89 JUMP JUMPDEST JUMPDEST PUSH1 0x0 PUSH2 0xE82 DUP5 DUP3 DUP6 ADD PUSH2 0xE49 JUMP JUMPDEST SWAP2 POP POP SWAP3 SWAP2 POP POP JUMP JUMPDEST PUSH1 0x0 PUSH10 0xFFFFFFFFFFFFFFFFFFFF DUP3 AND SWAP1 POP SWAP2 SWAP1 POP JUMP JUMPDEST PUSH2 0xEAA DUP2 PUSH2 0xE8B JUMP JUMPDEST DUP2 EQ PUSH2 0xEB5 JUMPI PUSH1 0x0 DUP1 REVERT JUMPDEST POP JUMP JUMPDEST PUSH1 0x0 DUP2 MLOAD SWAP1 POP PUSH2 0xEC7 DUP2 PUSH2 0xEA1 JUMP JUMPDEST SWAP3 SWAP2 POP POP JUMP JUMPDEST PUSH2 0xED6 DUP2 PUSH2 0xC43 JUMP JUMPDEST DUP2 EQ PUSH2 0xEE1 JUMPI PUSH1 0x0 DUP1 REVERT JUMPDEST POP JUMP JUMPDEST PUSH1 0x0 DUP2 MLOAD SWAP1 POP PUSH2 0xEF3 DUP2 PUSH2 0xECD JUMP JUMPDEST SWAP3 SWAP2 POP POP JUMP JUMPDEST PUSH1 0x0 DUP2 MLOAD SWAP1 POP PUSH2 0xF08 DUP2 PUSH2 0xD25 JUMP JUMPDEST SWAP3 SWAP2 POP POP JUMP JUMPDEST PUSH1 0x0 DUP1 PUSH1 0x0 DUP1 PUSH1 0x0 PUSH1 0xA0 DUP7 DUP9 SUB SLT ISZERO PUSH2 0xF2A JUMPI PUSH2 0xF29 PUSH2 0xB89 JUMP JUMPDEST JUMPDEST PUSH1 0x0 PUSH2 0xF38 DUP9 DUP3 DUP10 ADD PUSH2 0xEB8 JUMP JUMPDEST SWAP6 POP POP PUSH1 0x20 PUSH2 0xF49 DUP9 DUP3 DUP10 ADD PUSH2 0xEE4 JUMP JUMPDEST SWAP5 POP POP PUSH1 0x40 PUSH2 0xF5A DUP9 DUP3 DUP10 ADD PUSH2 0xEF9 JUMP JUMPDEST SWAP4 POP POP PUSH1 0x60 PUSH2 0xF6B DUP9 DUP3 DUP10 ADD PUSH2 0xEF9 JUMP JUMPDEST SWAP3 POP POP PUSH1 0x80 PUSH2 0xF7C DUP9 DUP3 DUP10 ADD PUSH2 0xEB8 JUMP JUMPDEST SWAP2 POP POP SWAP3 SWAP6 POP SWAP3 SWAP6 SWAP1 SWAP4 POP JUMP JUMPDEST PUSH32 0x4E487B7100000000000000000000000000000000000000000000000000000000 PUSH1 0x0 MSTORE PUSH1 0x12 PUSH1 0x4 MSTORE PUSH1 0x24 PUSH1 0x0 REVERT JUMPDEST PUSH32 0x4E487B7100000000000000000000000000000000000000000000000000000000 PUSH1 0x0 MSTORE PUSH1 0x11 PUSH1 0x4 MSTORE PUSH1 0x24 PUSH1 0x0 REVERT JUMPDEST PUSH1 0x0 PUSH2 0xFF2 DUP3 PUSH2 0xC43 JUMP JUMPDEST SWAP2 POP PUSH2 0xFFD DUP4 PUSH2 0xC43 JUMP JUMPDEST SWAP3 POP DUP3 PUSH2 0x100D JUMPI PUSH2 0x100C PUSH2 0xF89 JUMP JUMPDEST JUMPDEST PUSH1 0x1 PUSH1 0x0 SUB DUP4 EQ PUSH32 0x8000000000000000000000000000000000000000000000000000000000000000 DUP4 EQ AND ISZERO PUSH2 0x1046 JUMPI PUSH2 0x1045 PUSH2 0xFB8 JUMP JUMPDEST JUMPDEST DUP3 DUP3 SDIV SWAP1 POP SWAP3 SWAP2 POP POP JUMP JUMPDEST PUSH32 0x596F75277265206E6F7420746865206F776E6572000000000000000000000000 PUSH1 0x0 DUP3 ADD MSTORE POP JUMP JUMPDEST PUSH1 0x0 PUSH2 0x1087 PUSH1 0x14 DUP4 PUSH2 0xD7E JUMP JUMPDEST SWAP2 POP PUSH2 0x1092 DUP3 PUSH2 0x1051 JUMP JUMPDEST PUSH1 0x20 DUP3 ADD SWAP1 POP SWAP2 SWAP1 POP JUMP JUMPDEST PUSH1 0x0 PUSH1 0x20 DUP3 ADD SWAP1 POP DUP2 DUP2 SUB PUSH1 0x0 DUP4 ADD MSTORE PUSH2 0x10B6 DUP2 PUSH2 0x107A JUMP JUMPDEST SWAP1 POP SWAP2 SWAP1 POP JUMP JUMPDEST PUSH32 0x57726F6E6720616D6F756E74206F662045544821000000000000000000000000 PUSH1 0x0 DUP3 ADD MSTORE POP JUMP JUMPDEST PUSH1 0x0 PUSH2 0x10F3 PUSH1 0x14 DUP4 PUSH2 0xD7E JUMP JUMPDEST SWAP2 POP PUSH2 0x10FE DUP3 PUSH2 0x10BD JUMP JUMPDEST PUSH1 0x20 DUP3 ADD SWAP1 POP SWAP2 SWAP1 POP JUMP JUMPDEST PUSH1 0x0 PUSH1 0x20 DUP3 ADD SWAP1 POP DUP2 DUP2 SUB PUSH1 0x0 DUP4 ADD MSTORE PUSH2 0x1122 DUP2 PUSH2 0x10E6 JUMP JUMPDEST SWAP1 POP SWAP2 SWAP1 POP JUMP JUMPDEST PUSH1 0x0 DUP2 SWAP1 POP SWAP3 SWAP2 POP POP JUMP JUMPDEST POP JUMP JUMPDEST PUSH1 0x0 PUSH2 0x1144 PUSH1 0x0 DUP4 PUSH2 0x1129 JUMP JUMPDEST SWAP2 POP PUSH2 0x114F DUP3 PUSH2 0x1134 JUMP JUMPDEST PUSH1 0x0 DUP3 ADD SWAP1 POP SWAP2 SWAP1 POP JUMP JUMPDEST PUSH1 0x0 PUSH2 0x1165 DUP3 PUSH2 0x1137 JUMP JUMPDEST SWAP2 POP DUP2 SWAP1 POP SWAP2 SWAP1 POP JUMP JUMPDEST PUSH32 0x4661696C656420746F2073656E64204554480000000000000000000000000000 PUSH1 0x0 DUP3 ADD MSTORE POP JUMP JUMPDEST PUSH1 0x0 PUSH2 0x11A5 PUSH1 0x12 DUP4 PUSH2 0xD7E JUMP JUMPDEST SWAP2 POP PUSH2 0x11B0 DUP3 PUSH2 0x116F JUMP JUMPDEST PUSH1 0x20 DUP3 ADD SWAP1 POP SWAP2 SWAP1 POP JUMP JUMPDEST PUSH1 0x0 PUSH1 0x20 DUP3 ADD SWAP1 POP DUP2 DUP2 SUB PUSH1 0x0 DUP4 ADD MSTORE PUSH2 0x11D4 DUP2 PUSH2 0x1198 JUMP JUMPDEST SWAP1 POP SWAP2 SWAP1 POP JUMP INVALID LOG2 PUSH5 0x6970667358 0x22 SLT KECCAK256 JUMPI MUL ADD PUSH7 0xA644F4B82392A0 JUMP 0xB3 DUP7 CALLVALUE SDIV 0xAC DUP3 0xE4 0xEC SWAP8 0xAF PUSH27 0x44916FE213897ED46C64736F6C634300080D003300000000000000 "
				},
				"gasEstimates": {
					"creation": {
						"codeDepositCost": "925000",
						"executionCost": "120135",
						"totalCost": "1045135"
					},
					"external": {
						"alreadyBought(address)": "2868",
						"changeOwner(address)": "26936",
						"changePrice(uint256)": "24712",
						"getCurrentPriceOfETH()": "infinite",
						"getPriceOfETH()": "infinite",
						"owner()": "2581",
						"payInEth()": "infinite",
						"payInUSDC()": "infinite",
						"payInUSDT()": "infinite",
						"price()": "2429",
						"usdcTestToken()": "infinite",
						"usdtTestToken()": "infinite"
					}
				},
				"methodIdentifiers": {
					"alreadyBought(address)": "5b27f2a7",
					"changeOwner(address)": "a6f9dae1",
					"changePrice(uint256)": "a2b40d19",
					"getCurrentPriceOfETH()": "8e07c22a",
					"getPriceOfETH()": "aef691e9",
					"owner()": "8da5cb5b",
					"payInEth()": "cb44bd05",
					"payInUSDC()": "11023c79",
					"payInUSDT()": "82d3eef6",
					"price()": "a035b1fe",
					"usdcTestToken()": "fba931b4",
					"usdtTestToken()": "906798f8"
				}
			},
			"storageLayout": {
				"storage": [
					{
						"astId": 55,
						"contract": "bootcamp/week7/day_1_marketplaceItem1.sol:marketplaceItem1",
						"label": "priceFeed",
						"offset": 0,
						"slot": "0",
						"type": "t_contract(AggregatorV3Interface)45"
					},
					{
						"astId": 59,
						"contract": "bootcamp/week7/day_1_marketplaceItem1.sol:marketplaceItem1",
						"label": "alreadyBought",
						"offset": 0,
						"slot": "1",
						"type": "t_mapping(t_address,t_bool)"
					},
					{
						"astId": 62,
						"contract": "bootcamp/week7/day_1_marketplaceItem1.sol:marketplaceItem1",
						"label": "price",
						"offset": 0,
						"slot": "2",
						"type": "t_uint256"
					},
					{
						"astId": 69,
						"contract": "bootcamp/week7/day_1_marketplaceItem1.sol:marketplaceItem1",
						"label": "owner",
						"offset": 0,
						"slot": "3",
						"type": "t_address"
					},
					{
						"astId": 75,
						"contract": "bootcamp/week7/day_1_marketplaceItem1.sol:marketplaceItem1",
						"label": "usdcTestToken",
						"offset": 0,
						"slot": "4",
						"type": "t_contract(IERC20)349"
					},
					{
						"astId": 81,
						"contract": "bootcamp/week7/day_1_marketplaceItem1.sol:marketplaceItem1",
						"label": "usdtTestToken",
						"offset": 0,
						"slot": "5",
						"type": "t_contract(IERC20)349"
					}
				],
				"types": {
					"t_address": {
						"encoding": "inplace",
						"label": "address",
						"numberOfBytes": "20"
					},
					"t_bool": {
						"encoding": "inplace",
						"label": "bool",
						"numberOfBytes": "1"
					},
					"t_contract(AggregatorV3Interface)45": {
						"encoding": "inplace",
						"label": "contract AggregatorV3Interface",
						"numberOfBytes": "20"
					},
					"t_contract(IERC20)349": {
						"encoding": "inplace",
						"label": "contract IERC20",
						"numberOfBytes": "20"
					},
					"t_mapping(t_address,t_bool)": {
						"encoding": "mapping",
						"key": "t_address",
						"label": "mapping(address => bool)",
						"numberOfBytes": "32",
						"value": "t_bool"
					},
					"t_uint256": {
						"encoding": "inplace",
						"label": "uint256",
						"numberOfBytes": "32"
					}
				}
			},
			"userdoc": {
				"kind": "user",
				"methods": {},
				"version": 1
			}
		}
	}
}