{
	"data": {
		"bytecode": {
			"linkReferences": {},
			"object": "6080604052601760005534801561001557600080fd5b50610245806100256000396000f3fe608060405234801561001057600080fd5b50600436106100415760003560e01c8063262a9dff146100465780635c8629cd146100645780637a67b47914610082575b600080fd5b61004e6100a0565b60405161005b9190610139565b60405180910390f35b61006c6100a6565b60405161007991906101ed565b60405180910390f35b61008a6100e3565b60405161009791906101ed565b60405180910390f35b60005481565b60606040518060400160405280600781526020017f62656e64696e6700000000000000000000000000000000000000000000000000815250905090565b60606040518060400160405280600881526020017f6b69636b696e6720000000000000000000000000000000000000000000000000815250905090565b6000819050919050565b61013381610120565b82525050565b600060208201905061014e600083018461012a565b92915050565b600081519050919050565b600082825260208201905092915050565b60005b8381101561018e578082015181840152602081019050610173565b8381111561019d576000848401525b50505050565b6000601f19601f8301169050919050565b60006101bf82610154565b6101c9818561015f565b93506101d9818560208601610170565b6101e2816101a3565b840191505092915050565b6000602082019050818103600083015261020781846101b4565b90509291505056fea2646970667358221220214ec09c3ef7c543d42f5ddc727cad80a3b80b819687b718804d5113e3b02a2064736f6c634300080d0033",
			"opcodes": "PUSH1 0x80 PUSH1 0x40 MSTORE PUSH1 0x17 PUSH1 0x0 SSTORE CALLVALUE DUP1 ISZERO PUSH2 0x15 JUMPI PUSH1 0x0 DUP1 REVERT JUMPDEST POP PUSH2 0x245 DUP1 PUSH2 0x25 PUSH1 0x0 CODECOPY PUSH1 0x0 RETURN INVALID PUSH1 0x80 PUSH1 0x40 MSTORE CALLVALUE DUP1 ISZERO PUSH2 0x10 JUMPI PUSH1 0x0 DUP1 REVERT JUMPDEST POP PUSH1 0x4 CALLDATASIZE LT PUSH2 0x41 JUMPI PUSH1 0x0 CALLDATALOAD PUSH1 0xE0 SHR DUP1 PUSH4 0x262A9DFF EQ PUSH2 0x46 JUMPI DUP1 PUSH4 0x5C8629CD EQ PUSH2 0x64 JUMPI DUP1 PUSH4 0x7A67B479 EQ PUSH2 0x82 JUMPI JUMPDEST PUSH1 0x0 DUP1 REVERT JUMPDEST PUSH2 0x4E PUSH2 0xA0 JUMP JUMPDEST PUSH1 0x40 MLOAD PUSH2 0x5B SWAP2 SWAP1 PUSH2 0x139 JUMP JUMPDEST PUSH1 0x40 MLOAD DUP1 SWAP2 SUB SWAP1 RETURN JUMPDEST PUSH2 0x6C PUSH2 0xA6 JUMP JUMPDEST PUSH1 0x40 MLOAD PUSH2 0x79 SWAP2 SWAP1 PUSH2 0x1ED JUMP JUMPDEST PUSH1 0x40 MLOAD DUP1 SWAP2 SUB SWAP1 RETURN JUMPDEST PUSH2 0x8A PUSH2 0xE3 JUMP JUMPDEST PUSH1 0x40 MLOAD PUSH2 0x97 SWAP2 SWAP1 PUSH2 0x1ED JUMP JUMPDEST PUSH1 0x40 MLOAD DUP1 SWAP2 SUB SWAP1 RETURN JUMPDEST PUSH1 0x0 SLOAD DUP2 JUMP JUMPDEST PUSH1 0x60 PUSH1 0x40 MLOAD DUP1 PUSH1 0x40 ADD PUSH1 0x40 MSTORE DUP1 PUSH1 0x7 DUP2 MSTORE PUSH1 0x20 ADD PUSH32 0x62656E64696E6700000000000000000000000000000000000000000000000000 DUP2 MSTORE POP SWAP1 POP SWAP1 JUMP JUMPDEST PUSH1 0x60 PUSH1 0x40 MLOAD DUP1 PUSH1 0x40 ADD PUSH1 0x40 MSTORE DUP1 PUSH1 0x8 DUP2 MSTORE PUSH1 0x20 ADD PUSH32 0x6B69636B696E6720000000000000000000000000000000000000000000000000 DUP2 MSTORE POP SWAP1 POP SWAP1 JUMP JUMPDEST PUSH1 0x0 DUP2 SWAP1 POP SWAP2 SWAP1 POP JUMP JUMPDEST PUSH2 0x133 DUP2 PUSH2 0x120 JUMP JUMPDEST DUP3 MSTORE POP POP JUMP JUMPDEST PUSH1 0x0 PUSH1 0x20 DUP3 ADD SWAP1 POP PUSH2 0x14E PUSH1 0x0 DUP4 ADD DUP5 PUSH2 0x12A JUMP JUMPDEST SWAP3 SWAP2 POP POP JUMP JUMPDEST PUSH1 0x0 DUP2 MLOAD SWAP1 POP SWAP2 SWAP1 POP JUMP JUMPDEST PUSH1 0x0 DUP3 DUP3 MSTORE PUSH1 0x20 DUP3 ADD SWAP1 POP SWAP3 SWAP2 POP POP JUMP JUMPDEST PUSH1 0x0 JUMPDEST DUP4 DUP2 LT ISZERO PUSH2 0x18E JUMPI DUP1 DUP3 ADD MLOAD DUP2 DUP5 ADD MSTORE PUSH1 0x20 DUP2 ADD SWAP1 POP PUSH2 0x173 JUMP JUMPDEST DUP4 DUP2 GT ISZERO PUSH2 0x19D JUMPI PUSH1 0x0 DUP5 DUP5 ADD MSTORE JUMPDEST POP POP POP POP JUMP JUMPDEST PUSH1 0x0 PUSH1 0x1F NOT PUSH1 0x1F DUP4 ADD AND SWAP1 POP SWAP2 SWAP1 POP JUMP JUMPDEST PUSH1 0x0 PUSH2 0x1BF DUP3 PUSH2 0x154 JUMP JUMPDEST PUSH2 0x1C9 DUP2 DUP6 PUSH2 0x15F JUMP JUMPDEST SWAP4 POP PUSH2 0x1D9 DUP2 DUP6 PUSH1 0x20 DUP7 ADD PUSH2 0x170 JUMP JUMPDEST PUSH2 0x1E2 DUP2 PUSH2 0x1A3 JUMP JUMPDEST DUP5 ADD SWAP2 POP POP SWAP3 SWAP2 POP POP JUMP JUMPDEST PUSH1 0x0 PUSH1 0x20 DUP3 ADD SWAP1 POP DUP2 DUP2 SUB PUSH1 0x0 DUP4 ADD MSTORE PUSH2 0x207 DUP2 DUP5 PUSH2 0x1B4 JUMP JUMPDEST SWAP1 POP SWAP3 SWAP2 POP POP JUMP INVALID LOG2 PUSH5 0x6970667358 0x22 SLT KECCAK256 0x21 0x4E 0xC0 SWAP13 RETURNDATACOPY 0xF7 0xC5 NUMBER 0xD4 0x2F 0x5D 0xDC PUSH19 0x7CAD80A3B80B819687B718804D5113E3B02A20 PUSH5 0x736F6C6343 STOP ADDMOD 0xD STOP CALLER "
		},
		"gasEstimates": {
			"creation": {
				"codeDepositCost": "116200",
				"executionCost": "22271",
				"totalCost": "138471"
			},
			"external": {
				"age()": "2407",
				"bend()": "infinite",
				"kick()": "infinite"
			}
		},
		"methodIdentifiers": {
			"age()": "262a9dff",
			"bend()": "5c8629cd",
			"kick()": "7a67b479"
		}
	},
	"abi": [
		{
			"inputs": [],
			"name": "age",
			"outputs": [
				{
					"internalType": "uint256",
					"name": "",
					"type": "uint256"
				}
			],
			"stateMutability": "view",
			"type": "function"
		},
		{
			"inputs": [],
			"name": "bend",
			"outputs": [
				{
					"internalType": "string",
					"name": "",
					"type": "string"
				}
			],
			"stateMutability": "pure",
			"type": "function"
		},
		{
			"inputs": [],
			"name": "kick",
			"outputs": [
				{
					"internalType": "string",
					"name": "",
					"type": "string"
				}
			],
			"stateMutability": "pure",
			"type": "function"
		}
	]
}