{
	"data": {
		"bytecode": {
			"linkReferences": {},
			"object": "6080604052601760005534801561001557600080fd5b506102e7806100256000396000f3fe608060405234801561001057600080fd5b506004361061004c5760003560e01c8063262a9dff146100515780635c8629cd1461006f578063967e6e651461008d578063b361e198146100ab575b600080fd5b6100596100c9565b604051610066919061015c565b60405180910390f35b6100776100cf565b6040516100849190610207565b60405180910390f35b61009561010c565b6040516100a2919061015c565b60405180910390f35b6100b3610115565b6040516100c09190610207565b60405180910390f35b60005481565b60606040518060400160405280600481526020017f62656e6400000000000000000000000000000000000000000000000000000000815250905090565b60008054905090565b606061011f6100cf565b60405160200161012f919061028b565b604051602081830303815290604052905090565b6000819050919050565b61015681610143565b82525050565b6000602082019050610171600083018461014d565b92915050565b600081519050919050565b600082825260208201905092915050565b60005b838110156101b1578082015181840152602081019050610196565b60008484015250505050565b6000601f19601f8301169050919050565b60006101d982610177565b6101e38185610182565b93506101f3818560208601610193565b6101fc816101bd565b840191505092915050565b6000602082019050818103600083015261022181846101ce565b905092915050565b7f626f74682061726d657320617265200000000000000000000000000000000000815250565b600081905092915050565b600061026582610177565b61026f818561024f565b935061027f818560208601610193565b80840191505092915050565b600061029682610229565b600f820191506102a6828461025a565b91508190509291505056fea26469706673582212202c9f744f1f74d5d65f07b01c52d4072eeba90cf49c3a071045fb331281a5e7b064736f6c63430008110033",
			"opcodes": "PUSH1 0x80 PUSH1 0x40 MSTORE PUSH1 0x17 PUSH1 0x0 SSTORE CALLVALUE DUP1 ISZERO PUSH2 0x15 JUMPI PUSH1 0x0 DUP1 REVERT JUMPDEST POP PUSH2 0x2E7 DUP1 PUSH2 0x25 PUSH1 0x0 CODECOPY PUSH1 0x0 RETURN INVALID PUSH1 0x80 PUSH1 0x40 MSTORE CALLVALUE DUP1 ISZERO PUSH2 0x10 JUMPI PUSH1 0x0 DUP1 REVERT JUMPDEST POP PUSH1 0x4 CALLDATASIZE LT PUSH2 0x4C JUMPI PUSH1 0x0 CALLDATALOAD PUSH1 0xE0 SHR DUP1 PUSH4 0x262A9DFF EQ PUSH2 0x51 JUMPI DUP1 PUSH4 0x5C8629CD EQ PUSH2 0x6F JUMPI DUP1 PUSH4 0x967E6E65 EQ PUSH2 0x8D JUMPI DUP1 PUSH4 0xB361E198 EQ PUSH2 0xAB JUMPI JUMPDEST PUSH1 0x0 DUP1 REVERT JUMPDEST PUSH2 0x59 PUSH2 0xC9 JUMP JUMPDEST PUSH1 0x40 MLOAD PUSH2 0x66 SWAP2 SWAP1 PUSH2 0x15C JUMP JUMPDEST PUSH1 0x40 MLOAD DUP1 SWAP2 SUB SWAP1 RETURN JUMPDEST PUSH2 0x77 PUSH2 0xCF JUMP JUMPDEST PUSH1 0x40 MLOAD PUSH2 0x84 SWAP2 SWAP1 PUSH2 0x207 JUMP JUMPDEST PUSH1 0x40 MLOAD DUP1 SWAP2 SUB SWAP1 RETURN JUMPDEST PUSH2 0x95 PUSH2 0x10C JUMP JUMPDEST PUSH1 0x40 MLOAD PUSH2 0xA2 SWAP2 SWAP1 PUSH2 0x15C JUMP JUMPDEST PUSH1 0x40 MLOAD DUP1 SWAP2 SUB SWAP1 RETURN JUMPDEST PUSH2 0xB3 PUSH2 0x115 JUMP JUMPDEST PUSH1 0x40 MLOAD PUSH2 0xC0 SWAP2 SWAP1 PUSH2 0x207 JUMP JUMPDEST PUSH1 0x40 MLOAD DUP1 SWAP2 SUB SWAP1 RETURN JUMPDEST PUSH1 0x0 SLOAD DUP2 JUMP JUMPDEST PUSH1 0x60 PUSH1 0x40 MLOAD DUP1 PUSH1 0x40 ADD PUSH1 0x40 MSTORE DUP1 PUSH1 0x4 DUP2 MSTORE PUSH1 0x20 ADD PUSH32 0x62656E6400000000000000000000000000000000000000000000000000000000 DUP2 MSTORE POP SWAP1 POP SWAP1 JUMP JUMPDEST PUSH1 0x0 DUP1 SLOAD SWAP1 POP SWAP1 JUMP JUMPDEST PUSH1 0x60 PUSH2 0x11F PUSH2 0xCF JUMP JUMPDEST PUSH1 0x40 MLOAD PUSH1 0x20 ADD PUSH2 0x12F SWAP2 SWAP1 PUSH2 0x28B JUMP JUMPDEST PUSH1 0x40 MLOAD PUSH1 0x20 DUP2 DUP4 SUB SUB DUP2 MSTORE SWAP1 PUSH1 0x40 MSTORE SWAP1 POP SWAP1 JUMP JUMPDEST PUSH1 0x0 DUP2 SWAP1 POP SWAP2 SWAP1 POP JUMP JUMPDEST PUSH2 0x156 DUP2 PUSH2 0x143 JUMP JUMPDEST DUP3 MSTORE POP POP JUMP JUMPDEST PUSH1 0x0 PUSH1 0x20 DUP3 ADD SWAP1 POP PUSH2 0x171 PUSH1 0x0 DUP4 ADD DUP5 PUSH2 0x14D JUMP JUMPDEST SWAP3 SWAP2 POP POP JUMP JUMPDEST PUSH1 0x0 DUP2 MLOAD SWAP1 POP SWAP2 SWAP1 POP JUMP JUMPDEST PUSH1 0x0 DUP3 DUP3 MSTORE PUSH1 0x20 DUP3 ADD SWAP1 POP SWAP3 SWAP2 POP POP JUMP JUMPDEST PUSH1 0x0 JUMPDEST DUP4 DUP2 LT ISZERO PUSH2 0x1B1 JUMPI DUP1 DUP3 ADD MLOAD DUP2 DUP5 ADD MSTORE PUSH1 0x20 DUP2 ADD SWAP1 POP PUSH2 0x196 JUMP JUMPDEST PUSH1 0x0 DUP5 DUP5 ADD MSTORE POP POP POP POP JUMP JUMPDEST PUSH1 0x0 PUSH1 0x1F NOT PUSH1 0x1F DUP4 ADD AND SWAP1 POP SWAP2 SWAP1 POP JUMP JUMPDEST PUSH1 0x0 PUSH2 0x1D9 DUP3 PUSH2 0x177 JUMP JUMPDEST PUSH2 0x1E3 DUP2 DUP6 PUSH2 0x182 JUMP JUMPDEST SWAP4 POP PUSH2 0x1F3 DUP2 DUP6 PUSH1 0x20 DUP7 ADD PUSH2 0x193 JUMP JUMPDEST PUSH2 0x1FC DUP2 PUSH2 0x1BD JUMP JUMPDEST DUP5 ADD SWAP2 POP POP SWAP3 SWAP2 POP POP JUMP JUMPDEST PUSH1 0x0 PUSH1 0x20 DUP3 ADD SWAP1 POP DUP2 DUP2 SUB PUSH1 0x0 DUP4 ADD MSTORE PUSH2 0x221 DUP2 DUP5 PUSH2 0x1CE JUMP JUMPDEST SWAP1 POP SWAP3 SWAP2 POP POP JUMP JUMPDEST PUSH32 0x626F74682061726D657320617265200000000000000000000000000000000000 DUP2 MSTORE POP JUMP JUMPDEST PUSH1 0x0 DUP2 SWAP1 POP SWAP3 SWAP2 POP POP JUMP JUMPDEST PUSH1 0x0 PUSH2 0x265 DUP3 PUSH2 0x177 JUMP JUMPDEST PUSH2 0x26F DUP2 DUP6 PUSH2 0x24F JUMP JUMPDEST SWAP4 POP PUSH2 0x27F DUP2 DUP6 PUSH1 0x20 DUP7 ADD PUSH2 0x193 JUMP JUMPDEST DUP1 DUP5 ADD SWAP2 POP POP SWAP3 SWAP2 POP POP JUMP JUMPDEST PUSH1 0x0 PUSH2 0x296 DUP3 PUSH2 0x229 JUMP JUMPDEST PUSH1 0xF DUP3 ADD SWAP2 POP PUSH2 0x2A6 DUP3 DUP5 PUSH2 0x25A JUMP JUMPDEST SWAP2 POP DUP2 SWAP1 POP SWAP3 SWAP2 POP POP JUMP INVALID LOG2 PUSH5 0x6970667358 0x22 SLT KECCAK256 0x2C SWAP16 PUSH21 0x4F1F74D5D65F07B01C52D4072EEBA90CF49C3A0710 GASLIMIT 0xFB CALLER SLT DUP2 0xA5 0xE7 0xB0 PUSH5 0x736F6C6343 STOP ADDMOD GT STOP CALLER "
		},
		"gasEstimates": {
			"creation": {
				"codeDepositCost": "148600",
				"executionCost": "22302",
				"totalCost": "170902"
			},
			"external": {
				"age()": "2407",
				"bend()": "infinite",
				"getAge()": "2459",
				"raise()": "infinite"
			}
		},
		"methodIdentifiers": {
			"age()": "262a9dff",
			"bend()": "5c8629cd",
			"getAge()": "967e6e65",
			"raise()": "b361e198"
		}
	},
	"abi": [
		{
			"inputs": [],
			"name": "age",
			"outputs": [
				{
					"internalType": "uint256",
					"name": "",
					"type": "uint256"
				}
			],
			"stateMutability": "view",
			"type": "function"
		},
		{
			"inputs": [],
			"name": "bend",
			"outputs": [
				{
					"internalType": "string",
					"name": "",
					"type": "string"
				}
			],
			"stateMutability": "pure",
			"type": "function"
		},
		{
			"inputs": [],
			"name": "getAge",
			"outputs": [
				{
					"internalType": "uint256",
					"name": "",
					"type": "uint256"
				}
			],
			"stateMutability": "view",
			"type": "function"
		},
		{
			"inputs": [],
			"name": "raise",
			"outputs": [
				{
					"internalType": "string",
					"name": "",
					"type": "string"
				}
			],
			"stateMutability": "pure",
			"type": "function"
		}
	]
}