{
	"data": {
		"bytecode": {
			"linkReferences": {},
			"object": "60806040526005600155601e600355603c600455670de0b6b3a7640000600555346006819055506104d0806100356000396000f3fe608060405234801561001057600080fd5b50600436106100415760003560e01c80633e4f49e614610046578063a220e64a14610076578063fb6ff161146100a6575b600080fd5b610060600480360381019061005b9190610231565b6100c4565b60405161006d91906102d5565b60405180910390f35b610090600480360381019061008b919061034e565b6101c1565b60405161009d91906103a9565b60405180910390f35b6100ae6101f0565b6040516100bb91906103d3565b60405180910390f35b600080600083815481106100db576100da6103ee565b5b9060005260206000209060070201905060008160040160009054906101000a900460ff169050600060068111156101155761011461025e565b5b8160068111156101285761012761025e565b5b146101375780925050506101bc565b60008260000154905060008103610183576040517f08c379a000000000000000000000000000000000000000000000000000000000815260040161017a9061047a565b60405180910390fd5b42811061019657600193505050506101bc565b6000836001015490504281106101b35760029450505050506101bc565b60039450505050505b919050565b60026020528160005260406000206020528060005260406000206000915091509054906101000a900460ff1681565b60065481565b600080fd5b6000819050919050565b61020e816101fb565b811461021957600080fd5b50565b60008135905061022b81610205565b92915050565b600060208284031215610247576102466101f6565b5b60006102558482850161021c565b91505092915050565b7f4e487b7100000000000000000000000000000000000000000000000000000000600052602160045260246000fd5b6007811061029e5761029d61025e565b5b50565b60008190506102af8261028d565b919050565b60006102bf826102a1565b9050919050565b6102cf816102b4565b82525050565b60006020820190506102ea60008301846102c6565b92915050565b600073ffffffffffffffffffffffffffffffffffffffff82169050919050565b600061031b826102f0565b9050919050565b61032b81610310565b811461033657600080fd5b50565b60008135905061034881610322565b92915050565b60008060408385031215610365576103646101f6565b5b600061037385828601610339565b92505060206103848582860161021c565b9150509250929050565b60008115159050919050565b6103a38161038e565b82525050565b60006020820190506103be600083018461039a565b92915050565b6103cd816101fb565b82525050565b60006020820190506103e860008301846103c4565b92915050565b7f4e487b7100000000000000000000000000000000000000000000000000000000600052603260045260246000fd5b600082825260208201905092915050565b7f496e76616c696420494400000000000000000000000000000000000000000000600082015250565b6000610464600a8361041d565b915061046f8261042e565b602082019050919050565b6000602082019050818103600083015261049381610457565b905091905056fea2646970667358221220e5c0d1a7000ee8f6877de6da9782c642dc908ae68f523149b9134e668d2ff4e364736f6c63430008110033",
			"opcodes": "PUSH1 0x80 PUSH1 0x40 MSTORE PUSH1 0x5 PUSH1 0x1 SSTORE PUSH1 0x1E PUSH1 0x3 SSTORE PUSH1 0x3C PUSH1 0x4 SSTORE PUSH8 0xDE0B6B3A7640000 PUSH1 0x5 SSTORE CALLVALUE PUSH1 0x6 DUP2 SWAP1 SSTORE POP PUSH2 0x4D0 DUP1 PUSH2 0x35 PUSH1 0x0 CODECOPY PUSH1 0x0 RETURN INVALID PUSH1 0x80 PUSH1 0x40 MSTORE CALLVALUE DUP1 ISZERO PUSH2 0x10 JUMPI PUSH1 0x0 DUP1 REVERT JUMPDEST POP PUSH1 0x4 CALLDATASIZE LT PUSH2 0x41 JUMPI PUSH1 0x0 CALLDATALOAD PUSH1 0xE0 SHR DUP1 PUSH4 0x3E4F49E6 EQ PUSH2 0x46 JUMPI DUP1 PUSH4 0xA220E64A EQ PUSH2 0x76 JUMPI DUP1 PUSH4 0xFB6FF161 EQ PUSH2 0xA6 JUMPI JUMPDEST PUSH1 0x0 DUP1 REVERT JUMPDEST PUSH2 0x60 PUSH1 0x4 DUP1 CALLDATASIZE SUB DUP2 ADD SWAP1 PUSH2 0x5B SWAP2 SWAP1 PUSH2 0x231 JUMP JUMPDEST PUSH2 0xC4 JUMP JUMPDEST PUSH1 0x40 MLOAD PUSH2 0x6D SWAP2 SWAP1 PUSH2 0x2D5 JUMP JUMPDEST PUSH1 0x40 MLOAD DUP1 SWAP2 SUB SWAP1 RETURN JUMPDEST PUSH2 0x90 PUSH1 0x4 DUP1 CALLDATASIZE SUB DUP2 ADD SWAP1 PUSH2 0x8B SWAP2 SWAP1 PUSH2 0x34E JUMP JUMPDEST PUSH2 0x1C1 JUMP JUMPDEST PUSH1 0x40 MLOAD PUSH2 0x9D SWAP2 SWAP1 PUSH2 0x3A9 JUMP JUMPDEST PUSH1 0x40 MLOAD DUP1 SWAP2 SUB SWAP1 RETURN JUMPDEST PUSH2 0xAE PUSH2 0x1F0 JUMP JUMPDEST PUSH1 0x40 MLOAD PUSH2 0xBB SWAP2 SWAP1 PUSH2 0x3D3 JUMP JUMPDEST PUSH1 0x40 MLOAD DUP1 SWAP2 SUB SWAP1 RETURN JUMPDEST PUSH1 0x0 DUP1 PUSH1 0x0 DUP4 DUP2 SLOAD DUP2 LT PUSH2 0xDB JUMPI PUSH2 0xDA PUSH2 0x3EE JUMP JUMPDEST JUMPDEST SWAP1 PUSH1 0x0 MSTORE PUSH1 0x20 PUSH1 0x0 KECCAK256 SWAP1 PUSH1 0x7 MUL ADD SWAP1 POP PUSH1 0x0 DUP2 PUSH1 0x4 ADD PUSH1 0x0 SWAP1 SLOAD SWAP1 PUSH2 0x100 EXP SWAP1 DIV PUSH1 0xFF AND SWAP1 POP PUSH1 0x0 PUSH1 0x6 DUP2 GT ISZERO PUSH2 0x115 JUMPI PUSH2 0x114 PUSH2 0x25E JUMP JUMPDEST JUMPDEST DUP2 PUSH1 0x6 DUP2 GT ISZERO PUSH2 0x128 JUMPI PUSH2 0x127 PUSH2 0x25E JUMP JUMPDEST JUMPDEST EQ PUSH2 0x137 JUMPI DUP1 SWAP3 POP POP POP PUSH2 0x1BC JUMP JUMPDEST PUSH1 0x0 DUP3 PUSH1 0x0 ADD SLOAD SWAP1 POP PUSH1 0x0 DUP2 SUB PUSH2 0x183 JUMPI PUSH1 0x40 MLOAD PUSH32 0x8C379A000000000000000000000000000000000000000000000000000000000 DUP2 MSTORE PUSH1 0x4 ADD PUSH2 0x17A SWAP1 PUSH2 0x47A JUMP JUMPDEST PUSH1 0x40 MLOAD DUP1 SWAP2 SUB SWAP1 REVERT JUMPDEST TIMESTAMP DUP2 LT PUSH2 0x196 JUMPI PUSH1 0x1 SWAP4 POP POP POP POP PUSH2 0x1BC JUMP JUMPDEST PUSH1 0x0 DUP4 PUSH1 0x1 ADD SLOAD SWAP1 POP TIMESTAMP DUP2 LT PUSH2 0x1B3 JUMPI PUSH1 0x2 SWAP5 POP POP POP POP POP PUSH2 0x1BC JUMP JUMPDEST PUSH1 0x3 SWAP5 POP POP POP POP POP JUMPDEST SWAP2 SWAP1 POP JUMP JUMPDEST PUSH1 0x2 PUSH1 0x20 MSTORE DUP2 PUSH1 0x0 MSTORE PUSH1 0x40 PUSH1 0x0 KECCAK256 PUSH1 0x20 MSTORE DUP1 PUSH1 0x0 MSTORE PUSH1 0x40 PUSH1 0x0 KECCAK256 PUSH1 0x0 SWAP2 POP SWAP2 POP SWAP1 SLOAD SWAP1 PUSH2 0x100 EXP SWAP1 DIV PUSH1 0xFF AND DUP2 JUMP JUMPDEST PUSH1 0x6 SLOAD DUP2 JUMP JUMPDEST PUSH1 0x0 DUP1 REVERT JUMPDEST PUSH1 0x0 DUP2 SWAP1 POP SWAP2 SWAP1 POP JUMP JUMPDEST PUSH2 0x20E DUP2 PUSH2 0x1FB JUMP JUMPDEST DUP2 EQ PUSH2 0x219 JUMPI PUSH1 0x0 DUP1 REVERT JUMPDEST POP JUMP JUMPDEST PUSH1 0x0 DUP2 CALLDATALOAD SWAP1 POP PUSH2 0x22B DUP2 PUSH2 0x205 JUMP JUMPDEST SWAP3 SWAP2 POP POP JUMP JUMPDEST PUSH1 0x0 PUSH1 0x20 DUP3 DUP5 SUB SLT ISZERO PUSH2 0x247 JUMPI PUSH2 0x246 PUSH2 0x1F6 JUMP JUMPDEST JUMPDEST PUSH1 0x0 PUSH2 0x255 DUP5 DUP3 DUP6 ADD PUSH2 0x21C JUMP JUMPDEST SWAP2 POP POP SWAP3 SWAP2 POP POP JUMP JUMPDEST PUSH32 0x4E487B7100000000000000000000000000000000000000000000000000000000 PUSH1 0x0 MSTORE PUSH1 0x21 PUSH1 0x4 MSTORE PUSH1 0x24 PUSH1 0x0 REVERT JUMPDEST PUSH1 0x7 DUP2 LT PUSH2 0x29E JUMPI PUSH2 0x29D PUSH2 0x25E JUMP JUMPDEST JUMPDEST POP JUMP JUMPDEST PUSH1 0x0 DUP2 SWAP1 POP PUSH2 0x2AF DUP3 PUSH2 0x28D JUMP JUMPDEST SWAP2 SWAP1 POP JUMP JUMPDEST PUSH1 0x0 PUSH2 0x2BF DUP3 PUSH2 0x2A1 JUMP JUMPDEST SWAP1 POP SWAP2 SWAP1 POP JUMP JUMPDEST PUSH2 0x2CF DUP2 PUSH2 0x2B4 JUMP JUMPDEST DUP3 MSTORE POP POP JUMP JUMPDEST PUSH1 0x0 PUSH1 0x20 DUP3 ADD SWAP1 POP PUSH2 0x2EA PUSH1 0x0 DUP4 ADD DUP5 PUSH2 0x2C6 JUMP JUMPDEST SWAP3 SWAP2 POP POP JUMP JUMPDEST PUSH1 0x0 PUSH20 0xFFFFFFFFFFFFFFFFFFFFFFFFFFFFFFFFFFFFFFFF DUP3 AND SWAP1 POP SWAP2 SWAP1 POP JUMP JUMPDEST PUSH1 0x0 PUSH2 0x31B DUP3 PUSH2 0x2F0 JUMP JUMPDEST SWAP1 POP SWAP2 SWAP1 POP JUMP JUMPDEST PUSH2 0x32B DUP2 PUSH2 0x310 JUMP JUMPDEST DUP2 EQ PUSH2 0x336 JUMPI PUSH1 0x0 DUP1 REVERT JUMPDEST POP JUMP JUMPDEST PUSH1 0x0 DUP2 CALLDATALOAD SWAP1 POP PUSH2 0x348 DUP2 PUSH2 0x322 JUMP JUMPDEST SWAP3 SWAP2 POP POP JUMP JUMPDEST PUSH1 0x0 DUP1 PUSH1 0x40 DUP4 DUP6 SUB SLT ISZERO PUSH2 0x365 JUMPI PUSH2 0x364 PUSH2 0x1F6 JUMP JUMPDEST JUMPDEST PUSH1 0x0 PUSH2 0x373 DUP6 DUP3 DUP7 ADD PUSH2 0x339 JUMP JUMPDEST SWAP3 POP POP PUSH1 0x20 PUSH2 0x384 DUP6 DUP3 DUP7 ADD PUSH2 0x21C JUMP JUMPDEST SWAP2 POP POP SWAP3 POP SWAP3 SWAP1 POP JUMP JUMPDEST PUSH1 0x0 DUP2 ISZERO ISZERO SWAP1 POP SWAP2 SWAP1 POP JUMP JUMPDEST PUSH2 0x3A3 DUP2 PUSH2 0x38E JUMP JUMPDEST DUP3 MSTORE POP POP JUMP JUMPDEST PUSH1 0x0 PUSH1 0x20 DUP3 ADD SWAP1 POP PUSH2 0x3BE PUSH1 0x0 DUP4 ADD DUP5 PUSH2 0x39A JUMP JUMPDEST SWAP3 SWAP2 POP POP JUMP JUMPDEST PUSH2 0x3CD DUP2 PUSH2 0x1FB JUMP JUMPDEST DUP3 MSTORE POP POP JUMP JUMPDEST PUSH1 0x0 PUSH1 0x20 DUP3 ADD SWAP1 POP PUSH2 0x3E8 PUSH1 0x0 DUP4 ADD DUP5 PUSH2 0x3C4 JUMP JUMPDEST SWAP3 SWAP2 POP POP JUMP JUMPDEST PUSH32 0x4E487B7100000000000000000000000000000000000000000000000000000000 PUSH1 0x0 MSTORE PUSH1 0x32 PUSH1 0x4 MSTORE PUSH1 0x24 PUSH1 0x0 REVERT JUMPDEST PUSH1 0x0 DUP3 DUP3 MSTORE PUSH1 0x20 DUP3 ADD SWAP1 POP SWAP3 SWAP2 POP POP JUMP JUMPDEST PUSH32 0x496E76616C696420494400000000000000000000000000000000000000000000 PUSH1 0x0 DUP3 ADD MSTORE POP JUMP JUMPDEST PUSH1 0x0 PUSH2 0x464 PUSH1 0xA DUP4 PUSH2 0x41D JUMP JUMPDEST SWAP2 POP PUSH2 0x46F DUP3 PUSH2 0x42E JUMP JUMPDEST PUSH1 0x20 DUP3 ADD SWAP1 POP SWAP2 SWAP1 POP JUMP JUMPDEST PUSH1 0x0 PUSH1 0x20 DUP3 ADD SWAP1 POP DUP2 DUP2 SUB PUSH1 0x0 DUP4 ADD MSTORE PUSH2 0x493 DUP2 PUSH2 0x457 JUMP JUMPDEST SWAP1 POP SWAP2 SWAP1 POP JUMP INVALID LOG2 PUSH5 0x6970667358 0x22 SLT KECCAK256 0xE5 0xC0 0xD1 0xA7 STOP 0xE 0xE8 0xF6 DUP8 PUSH30 0xE6DA9782C642DC908AE68F523149B9134E668D2FF4E364736F6C63430008 GT STOP CALLER "
		},
		"gasEstimates": {
			"creation": {
				"codeDepositCost": "246400",
				"executionCost": "110800",
				"totalCost": "357200"
			},
			"external": {
				"availableETH()": "2451",
				"memberHasVoted(address,uint256)": "3087",
				"state(uint256)": "9425"
			},
			"internal": {
				"_quorumReached(uint256,uint256)": "infinite",
				"_tallyVotes(uint256)": "infinite",
				"_votesSucceeded(uint256,uint256)": "infinite"
			}
		},
		"methodIdentifiers": {
			"availableETH()": "fb6ff161",
			"memberHasVoted(address,uint256)": "a220e64a",
			"state(uint256)": "3e4f49e6"
		}
	},
	"abi": [
		{
			"inputs": [],
			"stateMutability": "payable",
			"type": "constructor"
		},
		{
			"inputs": [],
			"name": "availableETH",
			"outputs": [
				{
					"internalType": "uint256",
					"name": "",
					"type": "uint256"
				}
			],
			"stateMutability": "view",
			"type": "function"
		},
		{
			"inputs": [
				{
					"internalType": "address",
					"name": "",
					"type": "address"
				},
				{
					"internalType": "uint256",
					"name": "",
					"type": "uint256"
				}
			],
			"name": "memberHasVoted",
			"outputs": [
				{
					"internalType": "bool",
					"name": "",
					"type": "bool"
				}
			],
			"stateMutability": "view",
			"type": "function"
		},
		{
			"inputs": [
				{
					"internalType": "uint256",
					"name": "propID",
					"type": "uint256"
				}
			],
			"name": "state",
			"outputs": [
				{
					"internalType": "enum Governance.ProposalState",
					"name": "",
					"type": "uint8"
				}
			],
			"stateMutability": "view",
			"type": "function"
		}
	]
}