{
	"data": {
		"bytecode": {
			"linkReferences": {},
			"object": "608060405260006005553480156200001657600080fd5b50604051620025bc380380620025bc83398181016040528101906200003c91906200077b565b6040518060400160405280600881526020017f44414f546f656b6e0000000000000000000000000000000000000000000000008152506040518060400160405280600381526020017f44414f00000000000000000000000000000000000000000000000000000000008152508160039081620000b9919062000a41565b508060049081620000cb919062000a41565b50505060005b8151811015620001675762000151828281518110620000f557620000f462000b28565b5b60200260200101516200010d6200017060201b60201c565b600a6200011b919062000ce7565b85848151811062000131576200013062000b28565b5b602002602001015162000145919062000d38565b6200017960201b60201c565b80806200015e9062000d83565b915050620000d1565b50505062000eea565b60006012905090565b600073ffffffffffffffffffffffffffffffffffffffff168273ffffffffffffffffffffffffffffffffffffffff1603620001eb576040517f08c379a0000000000000000000000000000000000000000000000000000000008152600401620001e29062000e31565b60405180910390fd5b620001ff60008383620002e660201b60201c565b806002600082825462000213919062000e53565b92505081905550806000808473ffffffffffffffffffffffffffffffffffffffff1673ffffffffffffffffffffffffffffffffffffffff168152602001908152602001600020600082825401925050819055508173ffffffffffffffffffffffffffffffffffffffff16600073ffffffffffffffffffffffffffffffffffffffff167fddf252ad1be2c89b69c2b068fc378daa952ba7f163c4a11628f55a4df523b3ef83604051620002c6919062000e9f565b60405180910390a3620002e2600083836200040c60201b60201c565b5050565b6000600554905060008190508262000304866200041160201b60201c565b1480156200035857506200031e856200045960201b60201c565b80620003565750600073ffffffffffffffffffffffffffffffffffffffff168573ffffffffffffffffffffffffffffffffffffffff16145b155b156200036f5781806200036b9062000ebc565b9250505b600062000382856200041160201b60201c565b148015620003d657506200039c846200045960201b60201c565b80620003d45750600073ffffffffffffffffffffffffffffffffffffffff168473ffffffffffffffffffffffffffffffffffffffff16145b155b15620003ed578180620003e99062000d83565b9250505b808203620003fd57505062000407565b8160058190555050505b505050565b505050565b60008060008373ffffffffffffffffffffffffffffffffffffffff1673ffffffffffffffffffffffffffffffffffffffff168152602001908152602001600020549050919050565b6000808273ffffffffffffffffffffffffffffffffffffffff163b119050919050565b6000604051905090565b600080fd5b600080fd5b600080fd5b6000601f19601f8301169050919050565b7f4e487b7100000000000000000000000000000000000000000000000000000000600052604160045260246000fd5b620004e08262000495565b810181811067ffffffffffffffff82111715620005025762000501620004a6565b5b80604052505050565b6000620005176200047c565b9050620005258282620004d5565b919050565b600067ffffffffffffffff821115620005485762000547620004a6565b5b602082029050602081019050919050565b600080fd5b6000819050919050565b62000573816200055e565b81146200057f57600080fd5b50565b600081519050620005938162000568565b92915050565b6000620005b0620005aa846200052a565b6200050b565b90508083825260208201905060208402830185811115620005d657620005d562000559565b5b835b81811015620006035780620005ee888262000582565b845260208401935050602081019050620005d8565b5050509392505050565b600082601f83011262000625576200062462000490565b5b81516200063784826020860162000599565b91505092915050565b600067ffffffffffffffff8211156200065e576200065d620004a6565b5b602082029050602081019050919050565b600073ffffffffffffffffffffffffffffffffffffffff82169050919050565b60006200069c826200066f565b9050919050565b620006ae816200068f565b8114620006ba57600080fd5b50565b600081519050620006ce81620006a3565b92915050565b6000620006eb620006e58462000640565b6200050b565b9050808382526020820190506020840283018581111562000711576200071062000559565b5b835b818110156200073e5780620007298882620006bd565b84526020840193505060208101905062000713565b5050509392505050565b600082601f83011262000760576200075f62000490565b5b815162000772848260208601620006d4565b91505092915050565b6000806040838503121562000795576200079462000486565b5b600083015167ffffffffffffffff811115620007b657620007b56200048b565b5b620007c4858286016200060d565b925050602083015167ffffffffffffffff811115620007e857620007e76200048b565b5b620007f68582860162000748565b9150509250929050565b600081519050919050565b7f4e487b7100000000000000000000000000000000000000000000000000000000600052602260045260246000fd5b600060028204905060018216806200085357607f821691505b6020821081036200086957620008686200080b565b5b50919050565b60008190508160005260206000209050919050565b60006020601f8301049050919050565b600082821b905092915050565b600060088302620008d37fffffffffffffffffffffffffffffffffffffffffffffffffffffffffffffffff8262000894565b620008df868362000894565b95508019841693508086168417925050509392505050565b6000819050919050565b6000620009226200091c62000916846200055e565b620008f7565b6200055e565b9050919050565b6000819050919050565b6200093e8362000901565b620009566200094d8262000929565b848454620008a1565b825550505050565b600090565b6200096d6200095e565b6200097a81848462000933565b505050565b5b81811015620009a2576200099660008262000963565b60018101905062000980565b5050565b601f821115620009f157620009bb816200086f565b620009c68462000884565b81016020851015620009d6578190505b620009ee620009e58562000884565b8301826200097f565b50505b505050565b600082821c905092915050565b600062000a1660001984600802620009f6565b1980831691505092915050565b600062000a31838362000a03565b9150826002028217905092915050565b62000a4c8262000800565b67ffffffffffffffff81111562000a685762000a67620004a6565b5b62000a7482546200083a565b62000a81828285620009a6565b600060209050601f83116001811462000ab9576000841562000aa4578287015190505b62000ab0858262000a23565b86555062000b20565b601f19841662000ac9866200086f565b60005b8281101562000af35784890151825560018201915060208501945060208101905062000acc565b8683101562000b13578489015162000b0f601f89168262000a03565b8355505b6001600288020188555050505b505050505050565b7f4e487b7100000000000000000000000000000000000000000000000000000000600052603260045260246000fd5b7f4e487b7100000000000000000000000000000000000000000000000000000000600052601160045260246000fd5b60008160011c9050919050565b6000808291508390505b600185111562000be55780860481111562000bbd5762000bbc62000b57565b5b600185161562000bcd5780820291505b808102905062000bdd8562000b86565b945062000b9d565b94509492505050565b60008262000c00576001905062000cd3565b8162000c10576000905062000cd3565b816001811462000c29576002811462000c345762000c6a565b600191505062000cd3565b60ff84111562000c495762000c4862000b57565b5b8360020a91508482111562000c635762000c6262000b57565b5b5062000cd3565b5060208310610133831016604e8410600b841016171562000ca45782820a90508381111562000c9e5762000c9d62000b57565b5b62000cd3565b62000cb3848484600162000b93565b9250905081840481111562000ccd5762000ccc62000b57565b5b81810290505b9392505050565b600060ff82169050919050565b600062000cf4826200055e565b915062000d018362000cda565b925062000d307fffffffffffffffffffffffffffffffffffffffffffffffffffffffffffffffff848462000bee565b905092915050565b600062000d45826200055e565b915062000d52836200055e565b925082820262000d62816200055e565b9150828204841483151762000d7c5762000d7b62000b57565b5b5092915050565b600062000d90826200055e565b91507fffffffffffffffffffffffffffffffffffffffffffffffffffffffffffffffff820362000dc55762000dc462000b57565b5b600182019050919050565b600082825260208201905092915050565b7f45524332303a206d696e7420746f20746865207a65726f206164647265737300600082015250565b600062000e19601f8362000dd0565b915062000e268262000de1565b602082019050919050565b6000602082019050818103600083015262000e4c8162000e0a565b9050919050565b600062000e60826200055e565b915062000e6d836200055e565b925082820190508082111562000e885762000e8762000b57565b5b92915050565b62000e99816200055e565b82525050565b600060208201905062000eb6600083018462000e8e565b92915050565b600062000ec9826200055e565b91506000820362000edf5762000ede62000b57565b5b600182039050919050565b6116c28062000efa6000396000f3fe608060405234801561001057600080fd5b50600436106100cf5760003560e01c8063395093511161008c57806395d89b411161006657806395d89b411461023c578063a457c2d71461025a578063a9059cbb1461028a578063dd62ed3e146102ba576100cf565b806339509351146101be57806370a08231146101ee57806376e925591461021e576100cf565b806306fdde03146100d4578063095ea7b3146100f257806313ea2a831461012257806318160ddd1461015257806323b872dd14610170578063313ce567146101a0575b600080fd5b6100dc6102ea565b6040516100e99190610d50565b60405180910390f35b61010c60048036038101906101079190610e0b565b61037c565b6040516101199190610e66565b60405180910390f35b61013c60048036038101906101379190610e81565b61039f565b6040516101499190610ebd565b60405180910390f35b61015a6103d7565b6040516101679190610ebd565b60405180910390f35b61018a60048036038101906101859190610ed8565b6103e1565b6040516101979190610e66565b60405180910390f35b6101a8610410565b6040516101b59190610f47565b60405180910390f35b6101d860048036038101906101d39190610e0b565b610419565b6040516101e59190610e66565b60405180910390f35b61020860048036038101906102039190610e81565b610450565b6040516102159190610ebd565b60405180910390f35b610226610498565b6040516102339190610ebd565b60405180910390f35b61024461049e565b6040516102519190610d50565b60405180910390f35b610274600480360381019061026f9190610e0b565b610530565b6040516102819190610e66565b60405180910390f35b6102a4600480360381019061029f9190610e0b565b6105a7565b6040516102b19190610e66565b60405180910390f35b6102d460048036038101906102cf9190610f62565b6105ca565b6040516102e19190610ebd565b60405180910390f35b6060600380546102f990610fd1565b80601f016020809104026020016040519081016040528092919081815260200182805461032590610fd1565b80156103725780601f1061034757610100808354040283529160200191610372565b820191906000526020600020905b81548152906001019060200180831161035557829003601f168201915b5050505050905090565b600080610387610651565b9050610394818585610659565b600191505092915050565b60006103d06103ac610410565b600a6103b89190611164565b6103c184610450565b6103cb91906111de565b610822565b9050919050565b6000600254905090565b6000806103ec610651565b90506103f985828561089c565b610404858585610928565b60019150509392505050565b60006012905090565b600080610424610651565b905061044581858561043685896105ca565b610440919061120f565b610659565b600191505092915050565b60008060008373ffffffffffffffffffffffffffffffffffffffff1673ffffffffffffffffffffffffffffffffffffffff168152602001908152602001600020549050919050565b60055481565b6060600480546104ad90610fd1565b80601f01602080910402602001604051908101604052809291908181526020018280546104d990610fd1565b80156105265780601f106104fb57610100808354040283529160200191610526565b820191906000526020600020905b81548152906001019060200180831161050957829003601f168201915b5050505050905090565b60008061053b610651565b9050600061054982866105ca565b90508381101561058e576040517f08c379a0000000000000000000000000000000000000000000000000000000008152600401610585906112b5565b60405180910390fd5b61059b8286868403610659565b60019250505092915050565b6000806105b2610651565b90506105bf818585610928565b600191505092915050565b6000600160008473ffffffffffffffffffffffffffffffffffffffff1673ffffffffffffffffffffffffffffffffffffffff16815260200190815260200160002060008373ffffffffffffffffffffffffffffffffffffffff1673ffffffffffffffffffffffffffffffffffffffff16815260200190815260200160002054905092915050565b600033905090565b600073ffffffffffffffffffffffffffffffffffffffff168373ffffffffffffffffffffffffffffffffffffffff16036106c8576040517f08c379a00000000000000000000000000000000000000000000000000000000081526004016106bf90611347565b60405180910390fd5b600073ffffffffffffffffffffffffffffffffffffffff168273ffffffffffffffffffffffffffffffffffffffff1603610737576040517f08c379a000000000000000000000000000000000000000000000000000000000815260040161072e906113d9565b60405180910390fd5b80600160008573ffffffffffffffffffffffffffffffffffffffff1673ffffffffffffffffffffffffffffffffffffffff16815260200190815260200160002060008473ffffffffffffffffffffffffffffffffffffffff1673ffffffffffffffffffffffffffffffffffffffff168152602001908152602001600020819055508173ffffffffffffffffffffffffffffffffffffffff168373ffffffffffffffffffffffffffffffffffffffff167f8c5be1e5ebec7d5bd14f71427d1e84f3dd0314c0f7b2291e5b200ac8c7c3b925836040516108159190610ebd565b60405180910390a3505050565b60006003821115610889578190506000600160028461084191906111de565b61084b919061120f565b90505b8181101561088357809150600281828561086891906111de565b610872919061120f565b61087c91906111de565b905061084e565b50610897565b6000821461089657600190505b5b919050565b60006108a884846105ca565b90507fffffffffffffffffffffffffffffffffffffffffffffffffffffffffffffffff81146109225781811015610914576040517f08c379a000000000000000000000000000000000000000000000000000000000815260040161090b90611445565b60405180910390fd5b6109218484848403610659565b5b50505050565b600073ffffffffffffffffffffffffffffffffffffffff168373ffffffffffffffffffffffffffffffffffffffff1603610997576040517f08c379a000000000000000000000000000000000000000000000000000000000815260040161098e906114d7565b60405180910390fd5b600073ffffffffffffffffffffffffffffffffffffffff168273ffffffffffffffffffffffffffffffffffffffff1603610a06576040517f08c379a00000000000000000000000000000000000000000000000000000000081526004016109fd90611569565b60405180910390fd5b610a11838383610b9e565b60008060008573ffffffffffffffffffffffffffffffffffffffff1673ffffffffffffffffffffffffffffffffffffffff16815260200190815260200160002054905081811015610a97576040517f08c379a0000000000000000000000000000000000000000000000000000000008152600401610a8e906115fb565b60405180910390fd5b8181036000808673ffffffffffffffffffffffffffffffffffffffff1673ffffffffffffffffffffffffffffffffffffffff16815260200190815260200160002081905550816000808573ffffffffffffffffffffffffffffffffffffffff1673ffffffffffffffffffffffffffffffffffffffff168152602001908152602001600020600082825401925050819055508273ffffffffffffffffffffffffffffffffffffffff168473ffffffffffffffffffffffffffffffffffffffff167fddf252ad1be2c89b69c2b068fc378daa952ba7f163c4a11628f55a4df523b3ef84604051610b859190610ebd565b60405180910390a3610b98848484610c98565b50505050565b60006005549050600081905082610bb486610450565b148015610bfe5750610bc585610c9d565b80610bfc5750600073ffffffffffffffffffffffffffffffffffffffff168573ffffffffffffffffffffffffffffffffffffffff16145b155b15610c12578180610c0e9061161b565b9250505b6000610c1d85610450565b148015610c675750610c2e84610c9d565b80610c655750600073ffffffffffffffffffffffffffffffffffffffff168473ffffffffffffffffffffffffffffffffffffffff16145b155b15610c7b578180610c7790611644565b9250505b808203610c89575050610c93565b8160058190555050505b505050565b505050565b6000808273ffffffffffffffffffffffffffffffffffffffff163b119050919050565b600081519050919050565b600082825260208201905092915050565b60005b83811015610cfa578082015181840152602081019050610cdf565b60008484015250505050565b6000601f19601f8301169050919050565b6000610d2282610cc0565b610d2c8185610ccb565b9350610d3c818560208601610cdc565b610d4581610d06565b840191505092915050565b60006020820190508181036000830152610d6a8184610d17565b905092915050565b600080fd5b600073ffffffffffffffffffffffffffffffffffffffff82169050919050565b6000610da282610d77565b9050919050565b610db281610d97565b8114610dbd57600080fd5b50565b600081359050610dcf81610da9565b92915050565b6000819050919050565b610de881610dd5565b8114610df357600080fd5b50565b600081359050610e0581610ddf565b92915050565b60008060408385031215610e2257610e21610d72565b5b6000610e3085828601610dc0565b9250506020610e4185828601610df6565b9150509250929050565b60008115159050919050565b610e6081610e4b565b82525050565b6000602082019050610e7b6000830184610e57565b92915050565b600060208284031215610e9757610e96610d72565b5b6000610ea584828501610dc0565b91505092915050565b610eb781610dd5565b82525050565b6000602082019050610ed26000830184610eae565b92915050565b600080600060608486031215610ef157610ef0610d72565b5b6000610eff86828701610dc0565b9350506020610f1086828701610dc0565b9250506040610f2186828701610df6565b9150509250925092565b600060ff82169050919050565b610f4181610f2b565b82525050565b6000602082019050610f5c6000830184610f38565b92915050565b60008060408385031215610f7957610f78610d72565b5b6000610f8785828601610dc0565b9250506020610f9885828601610dc0565b9150509250929050565b7f4e487b7100000000000000000000000000000000000000000000000000000000600052602260045260246000fd5b60006002820490506001821680610fe957607f821691505b602082108103610ffc57610ffb610fa2565b5b50919050565b7f4e487b7100000000000000000000000000000000000000000000000000000000600052601160045260246000fd5b60008160011c9050919050565b6000808291508390505b60018511156110885780860481111561106457611063611002565b5b60018516156110735780820291505b808102905061108185611031565b9450611048565b94509492505050565b6000826110a1576001905061115d565b816110af576000905061115d565b81600181146110c557600281146110cf576110fe565b600191505061115d565b60ff8411156110e1576110e0611002565b5b8360020a9150848211156110f8576110f7611002565b5b5061115d565b5060208310610133831016604e8410600b84101617156111335782820a90508381111561112e5761112d611002565b5b61115d565b611140848484600161103e565b9250905081840481111561115757611156611002565b5b81810290505b9392505050565b600061116f82610dd5565b915061117a83610f2b565b92506111a77fffffffffffffffffffffffffffffffffffffffffffffffffffffffffffffffff8484611091565b905092915050565b7f4e487b7100000000000000000000000000000000000000000000000000000000600052601260045260246000fd5b60006111e982610dd5565b91506111f483610dd5565b925082611204576112036111af565b5b828204905092915050565b600061121a82610dd5565b915061122583610dd5565b925082820190508082111561123d5761123c611002565b5b92915050565b7f45524332303a2064656372656173656420616c6c6f77616e63652062656c6f7760008201527f207a65726f000000000000000000000000000000000000000000000000000000602082015250565b600061129f602583610ccb565b91506112aa82611243565b604082019050919050565b600060208201905081810360008301526112ce81611292565b9050919050565b7f45524332303a20617070726f76652066726f6d20746865207a65726f2061646460008201527f7265737300000000000000000000000000000000000000000000000000000000602082015250565b6000611331602483610ccb565b915061133c826112d5565b604082019050919050565b6000602082019050818103600083015261136081611324565b9050919050565b7f45524332303a20617070726f766520746f20746865207a65726f20616464726560008201527f7373000000000000000000000000000000000000000000000000000000000000602082015250565b60006113c3602283610ccb565b91506113ce82611367565b604082019050919050565b600060208201905081810360008301526113f2816113b6565b9050919050565b7f45524332303a20696e73756666696369656e7420616c6c6f77616e6365000000600082015250565b600061142f601d83610ccb565b915061143a826113f9565b602082019050919050565b6000602082019050818103600083015261145e81611422565b9050919050565b7f45524332303a207472616e736665722066726f6d20746865207a65726f20616460008201527f6472657373000000000000000000000000000000000000000000000000000000602082015250565b60006114c1602583610ccb565b91506114cc82611465565b604082019050919050565b600060208201905081810360008301526114f0816114b4565b9050919050565b7f45524332303a207472616e7366657220746f20746865207a65726f206164647260008201527f6573730000000000000000000000000000000000000000000000000000000000602082015250565b6000611553602383610ccb565b915061155e826114f7565b604082019050919050565b6000602082019050818103600083015261158281611546565b9050919050565b7f45524332303a207472616e7366657220616d6f756e742065786365656473206260008201527f616c616e63650000000000000000000000000000000000000000000000000000602082015250565b60006115e5602683610ccb565b91506115f082611589565b604082019050919050565b60006020820190508181036000830152611614816115d8565b9050919050565b600061162682610dd5565b91506000820361163957611638611002565b5b600182039050919050565b600061164f82610dd5565b91507fffffffffffffffffffffffffffffffffffffffffffffffffffffffffffffffff820361168157611680611002565b5b60018201905091905056fea26469706673582212201f03fa5424aa684693baf34d4533d26f0fa70cec984bef452a70c71f1773e54d64736f6c63430008110033",
			"opcodes": "PUSH1 0x80 PUSH1 0x40 MSTORE PUSH1 0x0 PUSH1 0x5 SSTORE CALLVALUE DUP1 ISZERO PUSH3 0x16 JUMPI PUSH1 0x0 DUP1 REVERT JUMPDEST POP PUSH1 0x40 MLOAD PUSH3 0x25BC CODESIZE SUB DUP1 PUSH3 0x25BC DUP4 CODECOPY DUP2 DUP2 ADD PUSH1 0x40 MSTORE DUP2 ADD SWAP1 PUSH3 0x3C SWAP2 SWAP1 PUSH3 0x77B JUMP JUMPDEST PUSH1 0x40 MLOAD DUP1 PUSH1 0x40 ADD PUSH1 0x40 MSTORE DUP1 PUSH1 0x8 DUP2 MSTORE PUSH1 0x20 ADD PUSH32 0x44414F546F656B6E000000000000000000000000000000000000000000000000 DUP2 MSTORE POP PUSH1 0x40 MLOAD DUP1 PUSH1 0x40 ADD PUSH1 0x40 MSTORE DUP1 PUSH1 0x3 DUP2 MSTORE PUSH1 0x20 ADD PUSH32 0x44414F0000000000000000000000000000000000000000000000000000000000 DUP2 MSTORE POP DUP2 PUSH1 0x3 SWAP1 DUP2 PUSH3 0xB9 SWAP2 SWAP1 PUSH3 0xA41 JUMP JUMPDEST POP DUP1 PUSH1 0x4 SWAP1 DUP2 PUSH3 0xCB SWAP2 SWAP1 PUSH3 0xA41 JUMP JUMPDEST POP POP POP PUSH1 0x0 JUMPDEST DUP2 MLOAD DUP2 LT ISZERO PUSH3 0x167 JUMPI PUSH3 0x151 DUP3 DUP3 DUP2 MLOAD DUP2 LT PUSH3 0xF5 JUMPI PUSH3 0xF4 PUSH3 0xB28 JUMP JUMPDEST JUMPDEST PUSH1 0x20 MUL PUSH1 0x20 ADD ADD MLOAD PUSH3 0x10D PUSH3 0x170 PUSH1 0x20 SHL PUSH1 0x20 SHR JUMP JUMPDEST PUSH1 0xA PUSH3 0x11B SWAP2 SWAP1 PUSH3 0xCE7 JUMP JUMPDEST DUP6 DUP5 DUP2 MLOAD DUP2 LT PUSH3 0x131 JUMPI PUSH3 0x130 PUSH3 0xB28 JUMP JUMPDEST JUMPDEST PUSH1 0x20 MUL PUSH1 0x20 ADD ADD MLOAD PUSH3 0x145 SWAP2 SWAP1 PUSH3 0xD38 JUMP JUMPDEST PUSH3 0x179 PUSH1 0x20 SHL PUSH1 0x20 SHR JUMP JUMPDEST DUP1 DUP1 PUSH3 0x15E SWAP1 PUSH3 0xD83 JUMP JUMPDEST SWAP2 POP POP PUSH3 0xD1 JUMP JUMPDEST POP POP POP PUSH3 0xEEA JUMP JUMPDEST PUSH1 0x0 PUSH1 0x12 SWAP1 POP SWAP1 JUMP JUMPDEST PUSH1 0x0 PUSH20 0xFFFFFFFFFFFFFFFFFFFFFFFFFFFFFFFFFFFFFFFF AND DUP3 PUSH20 0xFFFFFFFFFFFFFFFFFFFFFFFFFFFFFFFFFFFFFFFF AND SUB PUSH3 0x1EB JUMPI PUSH1 0x40 MLOAD PUSH32 0x8C379A000000000000000000000000000000000000000000000000000000000 DUP2 MSTORE PUSH1 0x4 ADD PUSH3 0x1E2 SWAP1 PUSH3 0xE31 JUMP JUMPDEST PUSH1 0x40 MLOAD DUP1 SWAP2 SUB SWAP1 REVERT JUMPDEST PUSH3 0x1FF PUSH1 0x0 DUP4 DUP4 PUSH3 0x2E6 PUSH1 0x20 SHL PUSH1 0x20 SHR JUMP JUMPDEST DUP1 PUSH1 0x2 PUSH1 0x0 DUP3 DUP3 SLOAD PUSH3 0x213 SWAP2 SWAP1 PUSH3 0xE53 JUMP JUMPDEST SWAP3 POP POP DUP2 SWAP1 SSTORE POP DUP1 PUSH1 0x0 DUP1 DUP5 PUSH20 0xFFFFFFFFFFFFFFFFFFFFFFFFFFFFFFFFFFFFFFFF AND PUSH20 0xFFFFFFFFFFFFFFFFFFFFFFFFFFFFFFFFFFFFFFFF AND DUP2 MSTORE PUSH1 0x20 ADD SWAP1 DUP2 MSTORE PUSH1 0x20 ADD PUSH1 0x0 KECCAK256 PUSH1 0x0 DUP3 DUP3 SLOAD ADD SWAP3 POP POP DUP2 SWAP1 SSTORE POP DUP2 PUSH20 0xFFFFFFFFFFFFFFFFFFFFFFFFFFFFFFFFFFFFFFFF AND PUSH1 0x0 PUSH20 0xFFFFFFFFFFFFFFFFFFFFFFFFFFFFFFFFFFFFFFFF AND PUSH32 0xDDF252AD1BE2C89B69C2B068FC378DAA952BA7F163C4A11628F55A4DF523B3EF DUP4 PUSH1 0x40 MLOAD PUSH3 0x2C6 SWAP2 SWAP1 PUSH3 0xE9F JUMP JUMPDEST PUSH1 0x40 MLOAD DUP1 SWAP2 SUB SWAP1 LOG3 PUSH3 0x2E2 PUSH1 0x0 DUP4 DUP4 PUSH3 0x40C PUSH1 0x20 SHL PUSH1 0x20 SHR JUMP JUMPDEST POP POP JUMP JUMPDEST PUSH1 0x0 PUSH1 0x5 SLOAD SWAP1 POP PUSH1 0x0 DUP2 SWAP1 POP DUP3 PUSH3 0x304 DUP7 PUSH3 0x411 PUSH1 0x20 SHL PUSH1 0x20 SHR JUMP JUMPDEST EQ DUP1 ISZERO PUSH3 0x358 JUMPI POP PUSH3 0x31E DUP6 PUSH3 0x459 PUSH1 0x20 SHL PUSH1 0x20 SHR JUMP JUMPDEST DUP1 PUSH3 0x356 JUMPI POP PUSH1 0x0 PUSH20 0xFFFFFFFFFFFFFFFFFFFFFFFFFFFFFFFFFFFFFFFF AND DUP6 PUSH20 0xFFFFFFFFFFFFFFFFFFFFFFFFFFFFFFFFFFFFFFFF AND EQ JUMPDEST ISZERO JUMPDEST ISZERO PUSH3 0x36F JUMPI DUP2 DUP1 PUSH3 0x36B SWAP1 PUSH3 0xEBC JUMP JUMPDEST SWAP3 POP POP JUMPDEST PUSH1 0x0 PUSH3 0x382 DUP6 PUSH3 0x411 PUSH1 0x20 SHL PUSH1 0x20 SHR JUMP JUMPDEST EQ DUP1 ISZERO PUSH3 0x3D6 JUMPI POP PUSH3 0x39C DUP5 PUSH3 0x459 PUSH1 0x20 SHL PUSH1 0x20 SHR JUMP JUMPDEST DUP1 PUSH3 0x3D4 JUMPI POP PUSH1 0x0 PUSH20 0xFFFFFFFFFFFFFFFFFFFFFFFFFFFFFFFFFFFFFFFF AND DUP5 PUSH20 0xFFFFFFFFFFFFFFFFFFFFFFFFFFFFFFFFFFFFFFFF AND EQ JUMPDEST ISZERO JUMPDEST ISZERO PUSH3 0x3ED JUMPI DUP2 DUP1 PUSH3 0x3E9 SWAP1 PUSH3 0xD83 JUMP JUMPDEST SWAP3 POP POP JUMPDEST DUP1 DUP3 SUB PUSH3 0x3FD JUMPI POP POP PUSH3 0x407 JUMP JUMPDEST DUP2 PUSH1 0x5 DUP2 SWAP1 SSTORE POP POP POP JUMPDEST POP POP POP JUMP JUMPDEST POP POP POP JUMP JUMPDEST PUSH1 0x0 DUP1 PUSH1 0x0 DUP4 PUSH20 0xFFFFFFFFFFFFFFFFFFFFFFFFFFFFFFFFFFFFFFFF AND PUSH20 0xFFFFFFFFFFFFFFFFFFFFFFFFFFFFFFFFFFFFFFFF AND DUP2 MSTORE PUSH1 0x20 ADD SWAP1 DUP2 MSTORE PUSH1 0x20 ADD PUSH1 0x0 KECCAK256 SLOAD SWAP1 POP SWAP2 SWAP1 POP JUMP JUMPDEST PUSH1 0x0 DUP1 DUP3 PUSH20 0xFFFFFFFFFFFFFFFFFFFFFFFFFFFFFFFFFFFFFFFF AND EXTCODESIZE GT SWAP1 POP SWAP2 SWAP1 POP JUMP JUMPDEST PUSH1 0x0 PUSH1 0x40 MLOAD SWAP1 POP SWAP1 JUMP JUMPDEST PUSH1 0x0 DUP1 REVERT JUMPDEST PUSH1 0x0 DUP1 REVERT JUMPDEST PUSH1 0x0 DUP1 REVERT JUMPDEST PUSH1 0x0 PUSH1 0x1F NOT PUSH1 0x1F DUP4 ADD AND SWAP1 POP SWAP2 SWAP1 POP JUMP JUMPDEST PUSH32 0x4E487B7100000000000000000000000000000000000000000000000000000000 PUSH1 0x0 MSTORE PUSH1 0x41 PUSH1 0x4 MSTORE PUSH1 0x24 PUSH1 0x0 REVERT JUMPDEST PUSH3 0x4E0 DUP3 PUSH3 0x495 JUMP JUMPDEST DUP2 ADD DUP2 DUP2 LT PUSH8 0xFFFFFFFFFFFFFFFF DUP3 GT OR ISZERO PUSH3 0x502 JUMPI PUSH3 0x501 PUSH3 0x4A6 JUMP JUMPDEST JUMPDEST DUP1 PUSH1 0x40 MSTORE POP POP POP JUMP JUMPDEST PUSH1 0x0 PUSH3 0x517 PUSH3 0x47C JUMP JUMPDEST SWAP1 POP PUSH3 0x525 DUP3 DUP3 PUSH3 0x4D5 JUMP JUMPDEST SWAP2 SWAP1 POP JUMP JUMPDEST PUSH1 0x0 PUSH8 0xFFFFFFFFFFFFFFFF DUP3 GT ISZERO PUSH3 0x548 JUMPI PUSH3 0x547 PUSH3 0x4A6 JUMP JUMPDEST JUMPDEST PUSH1 0x20 DUP3 MUL SWAP1 POP PUSH1 0x20 DUP2 ADD SWAP1 POP SWAP2 SWAP1 POP JUMP JUMPDEST PUSH1 0x0 DUP1 REVERT JUMPDEST PUSH1 0x0 DUP2 SWAP1 POP SWAP2 SWAP1 POP JUMP JUMPDEST PUSH3 0x573 DUP2 PUSH3 0x55E JUMP JUMPDEST DUP2 EQ PUSH3 0x57F JUMPI PUSH1 0x0 DUP1 REVERT JUMPDEST POP JUMP JUMPDEST PUSH1 0x0 DUP2 MLOAD SWAP1 POP PUSH3 0x593 DUP2 PUSH3 0x568 JUMP JUMPDEST SWAP3 SWAP2 POP POP JUMP JUMPDEST PUSH1 0x0 PUSH3 0x5B0 PUSH3 0x5AA DUP5 PUSH3 0x52A JUMP JUMPDEST PUSH3 0x50B JUMP JUMPDEST SWAP1 POP DUP1 DUP4 DUP3 MSTORE PUSH1 0x20 DUP3 ADD SWAP1 POP PUSH1 0x20 DUP5 MUL DUP4 ADD DUP6 DUP2 GT ISZERO PUSH3 0x5D6 JUMPI PUSH3 0x5D5 PUSH3 0x559 JUMP JUMPDEST JUMPDEST DUP4 JUMPDEST DUP2 DUP2 LT ISZERO PUSH3 0x603 JUMPI DUP1 PUSH3 0x5EE DUP9 DUP3 PUSH3 0x582 JUMP JUMPDEST DUP5 MSTORE PUSH1 0x20 DUP5 ADD SWAP4 POP POP PUSH1 0x20 DUP2 ADD SWAP1 POP PUSH3 0x5D8 JUMP JUMPDEST POP POP POP SWAP4 SWAP3 POP POP POP JUMP JUMPDEST PUSH1 0x0 DUP3 PUSH1 0x1F DUP4 ADD SLT PUSH3 0x625 JUMPI PUSH3 0x624 PUSH3 0x490 JUMP JUMPDEST JUMPDEST DUP2 MLOAD PUSH3 0x637 DUP5 DUP3 PUSH1 0x20 DUP7 ADD PUSH3 0x599 JUMP JUMPDEST SWAP2 POP POP SWAP3 SWAP2 POP POP JUMP JUMPDEST PUSH1 0x0 PUSH8 0xFFFFFFFFFFFFFFFF DUP3 GT ISZERO PUSH3 0x65E JUMPI PUSH3 0x65D PUSH3 0x4A6 JUMP JUMPDEST JUMPDEST PUSH1 0x20 DUP3 MUL SWAP1 POP PUSH1 0x20 DUP2 ADD SWAP1 POP SWAP2 SWAP1 POP JUMP JUMPDEST PUSH1 0x0 PUSH20 0xFFFFFFFFFFFFFFFFFFFFFFFFFFFFFFFFFFFFFFFF DUP3 AND SWAP1 POP SWAP2 SWAP1 POP JUMP JUMPDEST PUSH1 0x0 PUSH3 0x69C DUP3 PUSH3 0x66F JUMP JUMPDEST SWAP1 POP SWAP2 SWAP1 POP JUMP JUMPDEST PUSH3 0x6AE DUP2 PUSH3 0x68F JUMP JUMPDEST DUP2 EQ PUSH3 0x6BA JUMPI PUSH1 0x0 DUP1 REVERT JUMPDEST POP JUMP JUMPDEST PUSH1 0x0 DUP2 MLOAD SWAP1 POP PUSH3 0x6CE DUP2 PUSH3 0x6A3 JUMP JUMPDEST SWAP3 SWAP2 POP POP JUMP JUMPDEST PUSH1 0x0 PUSH3 0x6EB PUSH3 0x6E5 DUP5 PUSH3 0x640 JUMP JUMPDEST PUSH3 0x50B JUMP JUMPDEST SWAP1 POP DUP1 DUP4 DUP3 MSTORE PUSH1 0x20 DUP3 ADD SWAP1 POP PUSH1 0x20 DUP5 MUL DUP4 ADD DUP6 DUP2 GT ISZERO PUSH3 0x711 JUMPI PUSH3 0x710 PUSH3 0x559 JUMP JUMPDEST JUMPDEST DUP4 JUMPDEST DUP2 DUP2 LT ISZERO PUSH3 0x73E JUMPI DUP1 PUSH3 0x729 DUP9 DUP3 PUSH3 0x6BD JUMP JUMPDEST DUP5 MSTORE PUSH1 0x20 DUP5 ADD SWAP4 POP POP PUSH1 0x20 DUP2 ADD SWAP1 POP PUSH3 0x713 JUMP JUMPDEST POP POP POP SWAP4 SWAP3 POP POP POP JUMP JUMPDEST PUSH1 0x0 DUP3 PUSH1 0x1F DUP4 ADD SLT PUSH3 0x760 JUMPI PUSH3 0x75F PUSH3 0x490 JUMP JUMPDEST JUMPDEST DUP2 MLOAD PUSH3 0x772 DUP5 DUP3 PUSH1 0x20 DUP7 ADD PUSH3 0x6D4 JUMP JUMPDEST SWAP2 POP POP SWAP3 SWAP2 POP POP JUMP JUMPDEST PUSH1 0x0 DUP1 PUSH1 0x40 DUP4 DUP6 SUB SLT ISZERO PUSH3 0x795 JUMPI PUSH3 0x794 PUSH3 0x486 JUMP JUMPDEST JUMPDEST PUSH1 0x0 DUP4 ADD MLOAD PUSH8 0xFFFFFFFFFFFFFFFF DUP2 GT ISZERO PUSH3 0x7B6 JUMPI PUSH3 0x7B5 PUSH3 0x48B JUMP JUMPDEST JUMPDEST PUSH3 0x7C4 DUP6 DUP3 DUP7 ADD PUSH3 0x60D JUMP JUMPDEST SWAP3 POP POP PUSH1 0x20 DUP4 ADD MLOAD PUSH8 0xFFFFFFFFFFFFFFFF DUP2 GT ISZERO PUSH3 0x7E8 JUMPI PUSH3 0x7E7 PUSH3 0x48B JUMP JUMPDEST JUMPDEST PUSH3 0x7F6 DUP6 DUP3 DUP7 ADD PUSH3 0x748 JUMP JUMPDEST SWAP2 POP POP SWAP3 POP SWAP3 SWAP1 POP JUMP JUMPDEST PUSH1 0x0 DUP2 MLOAD SWAP1 POP SWAP2 SWAP1 POP JUMP JUMPDEST PUSH32 0x4E487B7100000000000000000000000000000000000000000000000000000000 PUSH1 0x0 MSTORE PUSH1 0x22 PUSH1 0x4 MSTORE PUSH1 0x24 PUSH1 0x0 REVERT JUMPDEST PUSH1 0x0 PUSH1 0x2 DUP3 DIV SWAP1 POP PUSH1 0x1 DUP3 AND DUP1 PUSH3 0x853 JUMPI PUSH1 0x7F DUP3 AND SWAP2 POP JUMPDEST PUSH1 0x20 DUP3 LT DUP2 SUB PUSH3 0x869 JUMPI PUSH3 0x868 PUSH3 0x80B JUMP JUMPDEST JUMPDEST POP SWAP2 SWAP1 POP JUMP JUMPDEST PUSH1 0x0 DUP2 SWAP1 POP DUP2 PUSH1 0x0 MSTORE PUSH1 0x20 PUSH1 0x0 KECCAK256 SWAP1 POP SWAP2 SWAP1 POP JUMP JUMPDEST PUSH1 0x0 PUSH1 0x20 PUSH1 0x1F DUP4 ADD DIV SWAP1 POP SWAP2 SWAP1 POP JUMP JUMPDEST PUSH1 0x0 DUP3 DUP3 SHL SWAP1 POP SWAP3 SWAP2 POP POP JUMP JUMPDEST PUSH1 0x0 PUSH1 0x8 DUP4 MUL PUSH3 0x8D3 PUSH32 0xFFFFFFFFFFFFFFFFFFFFFFFFFFFFFFFFFFFFFFFFFFFFFFFFFFFFFFFFFFFFFFFF DUP3 PUSH3 0x894 JUMP JUMPDEST PUSH3 0x8DF DUP7 DUP4 PUSH3 0x894 JUMP JUMPDEST SWAP6 POP DUP1 NOT DUP5 AND SWAP4 POP DUP1 DUP7 AND DUP5 OR SWAP3 POP POP POP SWAP4 SWAP3 POP POP POP JUMP JUMPDEST PUSH1 0x0 DUP2 SWAP1 POP SWAP2 SWAP1 POP JUMP JUMPDEST PUSH1 0x0 PUSH3 0x922 PUSH3 0x91C PUSH3 0x916 DUP5 PUSH3 0x55E JUMP JUMPDEST PUSH3 0x8F7 JUMP JUMPDEST PUSH3 0x55E JUMP JUMPDEST SWAP1 POP SWAP2 SWAP1 POP JUMP JUMPDEST PUSH1 0x0 DUP2 SWAP1 POP SWAP2 SWAP1 POP JUMP JUMPDEST PUSH3 0x93E DUP4 PUSH3 0x901 JUMP JUMPDEST PUSH3 0x956 PUSH3 0x94D DUP3 PUSH3 0x929 JUMP JUMPDEST DUP5 DUP5 SLOAD PUSH3 0x8A1 JUMP JUMPDEST DUP3 SSTORE POP POP POP POP JUMP JUMPDEST PUSH1 0x0 SWAP1 JUMP JUMPDEST PUSH3 0x96D PUSH3 0x95E JUMP JUMPDEST PUSH3 0x97A DUP2 DUP5 DUP5 PUSH3 0x933 JUMP JUMPDEST POP POP POP JUMP JUMPDEST JUMPDEST DUP2 DUP2 LT ISZERO PUSH3 0x9A2 JUMPI PUSH3 0x996 PUSH1 0x0 DUP3 PUSH3 0x963 JUMP JUMPDEST PUSH1 0x1 DUP2 ADD SWAP1 POP PUSH3 0x980 JUMP JUMPDEST POP POP JUMP JUMPDEST PUSH1 0x1F DUP3 GT ISZERO PUSH3 0x9F1 JUMPI PUSH3 0x9BB DUP2 PUSH3 0x86F JUMP JUMPDEST PUSH3 0x9C6 DUP5 PUSH3 0x884 JUMP JUMPDEST DUP2 ADD PUSH1 0x20 DUP6 LT ISZERO PUSH3 0x9D6 JUMPI DUP2 SWAP1 POP JUMPDEST PUSH3 0x9EE PUSH3 0x9E5 DUP6 PUSH3 0x884 JUMP JUMPDEST DUP4 ADD DUP3 PUSH3 0x97F JUMP JUMPDEST POP POP JUMPDEST POP POP POP JUMP JUMPDEST PUSH1 0x0 DUP3 DUP3 SHR SWAP1 POP SWAP3 SWAP2 POP POP JUMP JUMPDEST PUSH1 0x0 PUSH3 0xA16 PUSH1 0x0 NOT DUP5 PUSH1 0x8 MUL PUSH3 0x9F6 JUMP JUMPDEST NOT DUP1 DUP4 AND SWAP2 POP POP SWAP3 SWAP2 POP POP JUMP JUMPDEST PUSH1 0x0 PUSH3 0xA31 DUP4 DUP4 PUSH3 0xA03 JUMP JUMPDEST SWAP2 POP DUP3 PUSH1 0x2 MUL DUP3 OR SWAP1 POP SWAP3 SWAP2 POP POP JUMP JUMPDEST PUSH3 0xA4C DUP3 PUSH3 0x800 JUMP JUMPDEST PUSH8 0xFFFFFFFFFFFFFFFF DUP2 GT ISZERO PUSH3 0xA68 JUMPI PUSH3 0xA67 PUSH3 0x4A6 JUMP JUMPDEST JUMPDEST PUSH3 0xA74 DUP3 SLOAD PUSH3 0x83A JUMP JUMPDEST PUSH3 0xA81 DUP3 DUP3 DUP6 PUSH3 0x9A6 JUMP JUMPDEST PUSH1 0x0 PUSH1 0x20 SWAP1 POP PUSH1 0x1F DUP4 GT PUSH1 0x1 DUP2 EQ PUSH3 0xAB9 JUMPI PUSH1 0x0 DUP5 ISZERO PUSH3 0xAA4 JUMPI DUP3 DUP8 ADD MLOAD SWAP1 POP JUMPDEST PUSH3 0xAB0 DUP6 DUP3 PUSH3 0xA23 JUMP JUMPDEST DUP7 SSTORE POP PUSH3 0xB20 JUMP JUMPDEST PUSH1 0x1F NOT DUP5 AND PUSH3 0xAC9 DUP7 PUSH3 0x86F JUMP JUMPDEST PUSH1 0x0 JUMPDEST DUP3 DUP2 LT ISZERO PUSH3 0xAF3 JUMPI DUP5 DUP10 ADD MLOAD DUP3 SSTORE PUSH1 0x1 DUP3 ADD SWAP2 POP PUSH1 0x20 DUP6 ADD SWAP5 POP PUSH1 0x20 DUP2 ADD SWAP1 POP PUSH3 0xACC JUMP JUMPDEST DUP7 DUP4 LT ISZERO PUSH3 0xB13 JUMPI DUP5 DUP10 ADD MLOAD PUSH3 0xB0F PUSH1 0x1F DUP10 AND DUP3 PUSH3 0xA03 JUMP JUMPDEST DUP4 SSTORE POP JUMPDEST PUSH1 0x1 PUSH1 0x2 DUP9 MUL ADD DUP9 SSTORE POP POP POP JUMPDEST POP POP POP POP POP POP JUMP JUMPDEST PUSH32 0x4E487B7100000000000000000000000000000000000000000000000000000000 PUSH1 0x0 MSTORE PUSH1 0x32 PUSH1 0x4 MSTORE PUSH1 0x24 PUSH1 0x0 REVERT JUMPDEST PUSH32 0x4E487B7100000000000000000000000000000000000000000000000000000000 PUSH1 0x0 MSTORE PUSH1 0x11 PUSH1 0x4 MSTORE PUSH1 0x24 PUSH1 0x0 REVERT JUMPDEST PUSH1 0x0 DUP2 PUSH1 0x1 SHR SWAP1 POP SWAP2 SWAP1 POP JUMP JUMPDEST PUSH1 0x0 DUP1 DUP3 SWAP2 POP DUP4 SWAP1 POP JUMPDEST PUSH1 0x1 DUP6 GT ISZERO PUSH3 0xBE5 JUMPI DUP1 DUP7 DIV DUP2 GT ISZERO PUSH3 0xBBD JUMPI PUSH3 0xBBC PUSH3 0xB57 JUMP JUMPDEST JUMPDEST PUSH1 0x1 DUP6 AND ISZERO PUSH3 0xBCD JUMPI DUP1 DUP3 MUL SWAP2 POP JUMPDEST DUP1 DUP2 MUL SWAP1 POP PUSH3 0xBDD DUP6 PUSH3 0xB86 JUMP JUMPDEST SWAP5 POP PUSH3 0xB9D JUMP JUMPDEST SWAP5 POP SWAP5 SWAP3 POP POP POP JUMP JUMPDEST PUSH1 0x0 DUP3 PUSH3 0xC00 JUMPI PUSH1 0x1 SWAP1 POP PUSH3 0xCD3 JUMP JUMPDEST DUP2 PUSH3 0xC10 JUMPI PUSH1 0x0 SWAP1 POP PUSH3 0xCD3 JUMP JUMPDEST DUP2 PUSH1 0x1 DUP2 EQ PUSH3 0xC29 JUMPI PUSH1 0x2 DUP2 EQ PUSH3 0xC34 JUMPI PUSH3 0xC6A JUMP JUMPDEST PUSH1 0x1 SWAP2 POP POP PUSH3 0xCD3 JUMP JUMPDEST PUSH1 0xFF DUP5 GT ISZERO PUSH3 0xC49 JUMPI PUSH3 0xC48 PUSH3 0xB57 JUMP JUMPDEST JUMPDEST DUP4 PUSH1 0x2 EXP SWAP2 POP DUP5 DUP3 GT ISZERO PUSH3 0xC63 JUMPI PUSH3 0xC62 PUSH3 0xB57 JUMP JUMPDEST JUMPDEST POP PUSH3 0xCD3 JUMP JUMPDEST POP PUSH1 0x20 DUP4 LT PUSH2 0x133 DUP4 LT AND PUSH1 0x4E DUP5 LT PUSH1 0xB DUP5 LT AND OR ISZERO PUSH3 0xCA4 JUMPI DUP3 DUP3 EXP SWAP1 POP DUP4 DUP2 GT ISZERO PUSH3 0xC9E JUMPI PUSH3 0xC9D PUSH3 0xB57 JUMP JUMPDEST JUMPDEST PUSH3 0xCD3 JUMP JUMPDEST PUSH3 0xCB3 DUP5 DUP5 DUP5 PUSH1 0x1 PUSH3 0xB93 JUMP JUMPDEST SWAP3 POP SWAP1 POP DUP2 DUP5 DIV DUP2 GT ISZERO PUSH3 0xCCD JUMPI PUSH3 0xCCC PUSH3 0xB57 JUMP JUMPDEST JUMPDEST DUP2 DUP2 MUL SWAP1 POP JUMPDEST SWAP4 SWAP3 POP POP POP JUMP JUMPDEST PUSH1 0x0 PUSH1 0xFF DUP3 AND SWAP1 POP SWAP2 SWAP1 POP JUMP JUMPDEST PUSH1 0x0 PUSH3 0xCF4 DUP3 PUSH3 0x55E JUMP JUMPDEST SWAP2 POP PUSH3 0xD01 DUP4 PUSH3 0xCDA JUMP JUMPDEST SWAP3 POP PUSH3 0xD30 PUSH32 0xFFFFFFFFFFFFFFFFFFFFFFFFFFFFFFFFFFFFFFFFFFFFFFFFFFFFFFFFFFFFFFFF DUP5 DUP5 PUSH3 0xBEE JUMP JUMPDEST SWAP1 POP SWAP3 SWAP2 POP POP JUMP JUMPDEST PUSH1 0x0 PUSH3 0xD45 DUP3 PUSH3 0x55E JUMP JUMPDEST SWAP2 POP PUSH3 0xD52 DUP4 PUSH3 0x55E JUMP JUMPDEST SWAP3 POP DUP3 DUP3 MUL PUSH3 0xD62 DUP2 PUSH3 0x55E JUMP JUMPDEST SWAP2 POP DUP3 DUP3 DIV DUP5 EQ DUP4 ISZERO OR PUSH3 0xD7C JUMPI PUSH3 0xD7B PUSH3 0xB57 JUMP JUMPDEST JUMPDEST POP SWAP3 SWAP2 POP POP JUMP JUMPDEST PUSH1 0x0 PUSH3 0xD90 DUP3 PUSH3 0x55E JUMP JUMPDEST SWAP2 POP PUSH32 0xFFFFFFFFFFFFFFFFFFFFFFFFFFFFFFFFFFFFFFFFFFFFFFFFFFFFFFFFFFFFFFFF DUP3 SUB PUSH3 0xDC5 JUMPI PUSH3 0xDC4 PUSH3 0xB57 JUMP JUMPDEST JUMPDEST PUSH1 0x1 DUP3 ADD SWAP1 POP SWAP2 SWAP1 POP JUMP JUMPDEST PUSH1 0x0 DUP3 DUP3 MSTORE PUSH1 0x20 DUP3 ADD SWAP1 POP SWAP3 SWAP2 POP POP JUMP JUMPDEST PUSH32 0x45524332303A206D696E7420746F20746865207A65726F206164647265737300 PUSH1 0x0 DUP3 ADD MSTORE POP JUMP JUMPDEST PUSH1 0x0 PUSH3 0xE19 PUSH1 0x1F DUP4 PUSH3 0xDD0 JUMP JUMPDEST SWAP2 POP PUSH3 0xE26 DUP3 PUSH3 0xDE1 JUMP JUMPDEST PUSH1 0x20 DUP3 ADD SWAP1 POP SWAP2 SWAP1 POP JUMP JUMPDEST PUSH1 0x0 PUSH1 0x20 DUP3 ADD SWAP1 POP DUP2 DUP2 SUB PUSH1 0x0 DUP4 ADD MSTORE PUSH3 0xE4C DUP2 PUSH3 0xE0A JUMP JUMPDEST SWAP1 POP SWAP2 SWAP1 POP JUMP JUMPDEST PUSH1 0x0 PUSH3 0xE60 DUP3 PUSH3 0x55E JUMP JUMPDEST SWAP2 POP PUSH3 0xE6D DUP4 PUSH3 0x55E JUMP JUMPDEST SWAP3 POP DUP3 DUP3 ADD SWAP1 POP DUP1 DUP3 GT ISZERO PUSH3 0xE88 JUMPI PUSH3 0xE87 PUSH3 0xB57 JUMP JUMPDEST JUMPDEST SWAP3 SWAP2 POP POP JUMP JUMPDEST PUSH3 0xE99 DUP2 PUSH3 0x55E JUMP JUMPDEST DUP3 MSTORE POP POP JUMP JUMPDEST PUSH1 0x0 PUSH1 0x20 DUP3 ADD SWAP1 POP PUSH3 0xEB6 PUSH1 0x0 DUP4 ADD DUP5 PUSH3 0xE8E JUMP JUMPDEST SWAP3 SWAP2 POP POP JUMP JUMPDEST PUSH1 0x0 PUSH3 0xEC9 DUP3 PUSH3 0x55E JUMP JUMPDEST SWAP2 POP PUSH1 0x0 DUP3 SUB PUSH3 0xEDF JUMPI PUSH3 0xEDE PUSH3 0xB57 JUMP JUMPDEST JUMPDEST PUSH1 0x1 DUP3 SUB SWAP1 POP SWAP2 SWAP1 POP JUMP JUMPDEST PUSH2 0x16C2 DUP1 PUSH3 0xEFA PUSH1 0x0 CODECOPY PUSH1 0x0 RETURN INVALID PUSH1 0x80 PUSH1 0x40 MSTORE CALLVALUE DUP1 ISZERO PUSH2 0x10 JUMPI PUSH1 0x0 DUP1 REVERT JUMPDEST POP PUSH1 0x4 CALLDATASIZE LT PUSH2 0xCF JUMPI PUSH1 0x0 CALLDATALOAD PUSH1 0xE0 SHR DUP1 PUSH4 0x39509351 GT PUSH2 0x8C JUMPI DUP1 PUSH4 0x95D89B41 GT PUSH2 0x66 JUMPI DUP1 PUSH4 0x95D89B41 EQ PUSH2 0x23C JUMPI DUP1 PUSH4 0xA457C2D7 EQ PUSH2 0x25A JUMPI DUP1 PUSH4 0xA9059CBB EQ PUSH2 0x28A JUMPI DUP1 PUSH4 0xDD62ED3E EQ PUSH2 0x2BA JUMPI PUSH2 0xCF JUMP JUMPDEST DUP1 PUSH4 0x39509351 EQ PUSH2 0x1BE JUMPI DUP1 PUSH4 0x70A08231 EQ PUSH2 0x1EE JUMPI DUP1 PUSH4 0x76E92559 EQ PUSH2 0x21E JUMPI PUSH2 0xCF JUMP JUMPDEST DUP1 PUSH4 0x6FDDE03 EQ PUSH2 0xD4 JUMPI DUP1 PUSH4 0x95EA7B3 EQ PUSH2 0xF2 JUMPI DUP1 PUSH4 0x13EA2A83 EQ PUSH2 0x122 JUMPI DUP1 PUSH4 0x18160DDD EQ PUSH2 0x152 JUMPI DUP1 PUSH4 0x23B872DD EQ PUSH2 0x170 JUMPI DUP1 PUSH4 0x313CE567 EQ PUSH2 0x1A0 JUMPI JUMPDEST PUSH1 0x0 DUP1 REVERT JUMPDEST PUSH2 0xDC PUSH2 0x2EA JUMP JUMPDEST PUSH1 0x40 MLOAD PUSH2 0xE9 SWAP2 SWAP1 PUSH2 0xD50 JUMP JUMPDEST PUSH1 0x40 MLOAD DUP1 SWAP2 SUB SWAP1 RETURN JUMPDEST PUSH2 0x10C PUSH1 0x4 DUP1 CALLDATASIZE SUB DUP2 ADD SWAP1 PUSH2 0x107 SWAP2 SWAP1 PUSH2 0xE0B JUMP JUMPDEST PUSH2 0x37C JUMP JUMPDEST PUSH1 0x40 MLOAD PUSH2 0x119 SWAP2 SWAP1 PUSH2 0xE66 JUMP JUMPDEST PUSH1 0x40 MLOAD DUP1 SWAP2 SUB SWAP1 RETURN JUMPDEST PUSH2 0x13C PUSH1 0x4 DUP1 CALLDATASIZE SUB DUP2 ADD SWAP1 PUSH2 0x137 SWAP2 SWAP1 PUSH2 0xE81 JUMP JUMPDEST PUSH2 0x39F JUMP JUMPDEST PUSH1 0x40 MLOAD PUSH2 0x149 SWAP2 SWAP1 PUSH2 0xEBD JUMP JUMPDEST PUSH1 0x40 MLOAD DUP1 SWAP2 SUB SWAP1 RETURN JUMPDEST PUSH2 0x15A PUSH2 0x3D7 JUMP JUMPDEST PUSH1 0x40 MLOAD PUSH2 0x167 SWAP2 SWAP1 PUSH2 0xEBD JUMP JUMPDEST PUSH1 0x40 MLOAD DUP1 SWAP2 SUB SWAP1 RETURN JUMPDEST PUSH2 0x18A PUSH1 0x4 DUP1 CALLDATASIZE SUB DUP2 ADD SWAP1 PUSH2 0x185 SWAP2 SWAP1 PUSH2 0xED8 JUMP JUMPDEST PUSH2 0x3E1 JUMP JUMPDEST PUSH1 0x40 MLOAD PUSH2 0x197 SWAP2 SWAP1 PUSH2 0xE66 JUMP JUMPDEST PUSH1 0x40 MLOAD DUP1 SWAP2 SUB SWAP1 RETURN JUMPDEST PUSH2 0x1A8 PUSH2 0x410 JUMP JUMPDEST PUSH1 0x40 MLOAD PUSH2 0x1B5 SWAP2 SWAP1 PUSH2 0xF47 JUMP JUMPDEST PUSH1 0x40 MLOAD DUP1 SWAP2 SUB SWAP1 RETURN JUMPDEST PUSH2 0x1D8 PUSH1 0x4 DUP1 CALLDATASIZE SUB DUP2 ADD SWAP1 PUSH2 0x1D3 SWAP2 SWAP1 PUSH2 0xE0B JUMP JUMPDEST PUSH2 0x419 JUMP JUMPDEST PUSH1 0x40 MLOAD PUSH2 0x1E5 SWAP2 SWAP1 PUSH2 0xE66 JUMP JUMPDEST PUSH1 0x40 MLOAD DUP1 SWAP2 SUB SWAP1 RETURN JUMPDEST PUSH2 0x208 PUSH1 0x4 DUP1 CALLDATASIZE SUB DUP2 ADD SWAP1 PUSH2 0x203 SWAP2 SWAP1 PUSH2 0xE81 JUMP JUMPDEST PUSH2 0x450 JUMP JUMPDEST PUSH1 0x40 MLOAD PUSH2 0x215 SWAP2 SWAP1 PUSH2 0xEBD JUMP JUMPDEST PUSH1 0x40 MLOAD DUP1 SWAP2 SUB SWAP1 RETURN JUMPDEST PUSH2 0x226 PUSH2 0x498 JUMP JUMPDEST PUSH1 0x40 MLOAD PUSH2 0x233 SWAP2 SWAP1 PUSH2 0xEBD JUMP JUMPDEST PUSH1 0x40 MLOAD DUP1 SWAP2 SUB SWAP1 RETURN JUMPDEST PUSH2 0x244 PUSH2 0x49E JUMP JUMPDEST PUSH1 0x40 MLOAD PUSH2 0x251 SWAP2 SWAP1 PUSH2 0xD50 JUMP JUMPDEST PUSH1 0x40 MLOAD DUP1 SWAP2 SUB SWAP1 RETURN JUMPDEST PUSH2 0x274 PUSH1 0x4 DUP1 CALLDATASIZE SUB DUP2 ADD SWAP1 PUSH2 0x26F SWAP2 SWAP1 PUSH2 0xE0B JUMP JUMPDEST PUSH2 0x530 JUMP JUMPDEST PUSH1 0x40 MLOAD PUSH2 0x281 SWAP2 SWAP1 PUSH2 0xE66 JUMP JUMPDEST PUSH1 0x40 MLOAD DUP1 SWAP2 SUB SWAP1 RETURN JUMPDEST PUSH2 0x2A4 PUSH1 0x4 DUP1 CALLDATASIZE SUB DUP2 ADD SWAP1 PUSH2 0x29F SWAP2 SWAP1 PUSH2 0xE0B JUMP JUMPDEST PUSH2 0x5A7 JUMP JUMPDEST PUSH1 0x40 MLOAD PUSH2 0x2B1 SWAP2 SWAP1 PUSH2 0xE66 JUMP JUMPDEST PUSH1 0x40 MLOAD DUP1 SWAP2 SUB SWAP1 RETURN JUMPDEST PUSH2 0x2D4 PUSH1 0x4 DUP1 CALLDATASIZE SUB DUP2 ADD SWAP1 PUSH2 0x2CF SWAP2 SWAP1 PUSH2 0xF62 JUMP JUMPDEST PUSH2 0x5CA JUMP JUMPDEST PUSH1 0x40 MLOAD PUSH2 0x2E1 SWAP2 SWAP1 PUSH2 0xEBD JUMP JUMPDEST PUSH1 0x40 MLOAD DUP1 SWAP2 SUB SWAP1 RETURN JUMPDEST PUSH1 0x60 PUSH1 0x3 DUP1 SLOAD PUSH2 0x2F9 SWAP1 PUSH2 0xFD1 JUMP JUMPDEST DUP1 PUSH1 0x1F ADD PUSH1 0x20 DUP1 SWAP2 DIV MUL PUSH1 0x20 ADD PUSH1 0x40 MLOAD SWAP1 DUP2 ADD PUSH1 0x40 MSTORE DUP1 SWAP3 SWAP2 SWAP1 DUP2 DUP2 MSTORE PUSH1 0x20 ADD DUP3 DUP1 SLOAD PUSH2 0x325 SWAP1 PUSH2 0xFD1 JUMP JUMPDEST DUP1 ISZERO PUSH2 0x372 JUMPI DUP1 PUSH1 0x1F LT PUSH2 0x347 JUMPI PUSH2 0x100 DUP1 DUP4 SLOAD DIV MUL DUP4 MSTORE SWAP2 PUSH1 0x20 ADD SWAP2 PUSH2 0x372 JUMP JUMPDEST DUP3 ADD SWAP2 SWAP1 PUSH1 0x0 MSTORE PUSH1 0x20 PUSH1 0x0 KECCAK256 SWAP1 JUMPDEST DUP2 SLOAD DUP2 MSTORE SWAP1 PUSH1 0x1 ADD SWAP1 PUSH1 0x20 ADD DUP1 DUP4 GT PUSH2 0x355 JUMPI DUP3 SWAP1 SUB PUSH1 0x1F AND DUP3 ADD SWAP2 JUMPDEST POP POP POP POP POP SWAP1 POP SWAP1 JUMP JUMPDEST PUSH1 0x0 DUP1 PUSH2 0x387 PUSH2 0x651 JUMP JUMPDEST SWAP1 POP PUSH2 0x394 DUP2 DUP6 DUP6 PUSH2 0x659 JUMP JUMPDEST PUSH1 0x1 SWAP2 POP POP SWAP3 SWAP2 POP POP JUMP JUMPDEST PUSH1 0x0 PUSH2 0x3D0 PUSH2 0x3AC PUSH2 0x410 JUMP JUMPDEST PUSH1 0xA PUSH2 0x3B8 SWAP2 SWAP1 PUSH2 0x1164 JUMP JUMPDEST PUSH2 0x3C1 DUP5 PUSH2 0x450 JUMP JUMPDEST PUSH2 0x3CB SWAP2 SWAP1 PUSH2 0x11DE JUMP JUMPDEST PUSH2 0x822 JUMP JUMPDEST SWAP1 POP SWAP2 SWAP1 POP JUMP JUMPDEST PUSH1 0x0 PUSH1 0x2 SLOAD SWAP1 POP SWAP1 JUMP JUMPDEST PUSH1 0x0 DUP1 PUSH2 0x3EC PUSH2 0x651 JUMP JUMPDEST SWAP1 POP PUSH2 0x3F9 DUP6 DUP3 DUP6 PUSH2 0x89C JUMP JUMPDEST PUSH2 0x404 DUP6 DUP6 DUP6 PUSH2 0x928 JUMP JUMPDEST PUSH1 0x1 SWAP2 POP POP SWAP4 SWAP3 POP POP POP JUMP JUMPDEST PUSH1 0x0 PUSH1 0x12 SWAP1 POP SWAP1 JUMP JUMPDEST PUSH1 0x0 DUP1 PUSH2 0x424 PUSH2 0x651 JUMP JUMPDEST SWAP1 POP PUSH2 0x445 DUP2 DUP6 DUP6 PUSH2 0x436 DUP6 DUP10 PUSH2 0x5CA JUMP JUMPDEST PUSH2 0x440 SWAP2 SWAP1 PUSH2 0x120F JUMP JUMPDEST PUSH2 0x659 JUMP JUMPDEST PUSH1 0x1 SWAP2 POP POP SWAP3 SWAP2 POP POP JUMP JUMPDEST PUSH1 0x0 DUP1 PUSH1 0x0 DUP4 PUSH20 0xFFFFFFFFFFFFFFFFFFFFFFFFFFFFFFFFFFFFFFFF AND PUSH20 0xFFFFFFFFFFFFFFFFFFFFFFFFFFFFFFFFFFFFFFFF AND DUP2 MSTORE PUSH1 0x20 ADD SWAP1 DUP2 MSTORE PUSH1 0x20 ADD PUSH1 0x0 KECCAK256 SLOAD SWAP1 POP SWAP2 SWAP1 POP JUMP JUMPDEST PUSH1 0x5 SLOAD DUP2 JUMP JUMPDEST PUSH1 0x60 PUSH1 0x4 DUP1 SLOAD PUSH2 0x4AD SWAP1 PUSH2 0xFD1 JUMP JUMPDEST DUP1 PUSH1 0x1F ADD PUSH1 0x20 DUP1 SWAP2 DIV MUL PUSH1 0x20 ADD PUSH1 0x40 MLOAD SWAP1 DUP2 ADD PUSH1 0x40 MSTORE DUP1 SWAP3 SWAP2 SWAP1 DUP2 DUP2 MSTORE PUSH1 0x20 ADD DUP3 DUP1 SLOAD PUSH2 0x4D9 SWAP1 PUSH2 0xFD1 JUMP JUMPDEST DUP1 ISZERO PUSH2 0x526 JUMPI DUP1 PUSH1 0x1F LT PUSH2 0x4FB JUMPI PUSH2 0x100 DUP1 DUP4 SLOAD DIV MUL DUP4 MSTORE SWAP2 PUSH1 0x20 ADD SWAP2 PUSH2 0x526 JUMP JUMPDEST DUP3 ADD SWAP2 SWAP1 PUSH1 0x0 MSTORE PUSH1 0x20 PUSH1 0x0 KECCAK256 SWAP1 JUMPDEST DUP2 SLOAD DUP2 MSTORE SWAP1 PUSH1 0x1 ADD SWAP1 PUSH1 0x20 ADD DUP1 DUP4 GT PUSH2 0x509 JUMPI DUP3 SWAP1 SUB PUSH1 0x1F AND DUP3 ADD SWAP2 JUMPDEST POP POP POP POP POP SWAP1 POP SWAP1 JUMP JUMPDEST PUSH1 0x0 DUP1 PUSH2 0x53B PUSH2 0x651 JUMP JUMPDEST SWAP1 POP PUSH1 0x0 PUSH2 0x549 DUP3 DUP7 PUSH2 0x5CA JUMP JUMPDEST SWAP1 POP DUP4 DUP2 LT ISZERO PUSH2 0x58E JUMPI PUSH1 0x40 MLOAD PUSH32 0x8C379A000000000000000000000000000000000000000000000000000000000 DUP2 MSTORE PUSH1 0x4 ADD PUSH2 0x585 SWAP1 PUSH2 0x12B5 JUMP JUMPDEST PUSH1 0x40 MLOAD DUP1 SWAP2 SUB SWAP1 REVERT JUMPDEST PUSH2 0x59B DUP3 DUP7 DUP7 DUP5 SUB PUSH2 0x659 JUMP JUMPDEST PUSH1 0x1 SWAP3 POP POP POP SWAP3 SWAP2 POP POP JUMP JUMPDEST PUSH1 0x0 DUP1 PUSH2 0x5B2 PUSH2 0x651 JUMP JUMPDEST SWAP1 POP PUSH2 0x5BF DUP2 DUP6 DUP6 PUSH2 0x928 JUMP JUMPDEST PUSH1 0x1 SWAP2 POP POP SWAP3 SWAP2 POP POP JUMP JUMPDEST PUSH1 0x0 PUSH1 0x1 PUSH1 0x0 DUP5 PUSH20 0xFFFFFFFFFFFFFFFFFFFFFFFFFFFFFFFFFFFFFFFF AND PUSH20 0xFFFFFFFFFFFFFFFFFFFFFFFFFFFFFFFFFFFFFFFF AND DUP2 MSTORE PUSH1 0x20 ADD SWAP1 DUP2 MSTORE PUSH1 0x20 ADD PUSH1 0x0 KECCAK256 PUSH1 0x0 DUP4 PUSH20 0xFFFFFFFFFFFFFFFFFFFFFFFFFFFFFFFFFFFFFFFF AND PUSH20 0xFFFFFFFFFFFFFFFFFFFFFFFFFFFFFFFFFFFFFFFF AND DUP2 MSTORE PUSH1 0x20 ADD SWAP1 DUP2 MSTORE PUSH1 0x20 ADD PUSH1 0x0 KECCAK256 SLOAD SWAP1 POP SWAP3 SWAP2 POP POP JUMP JUMPDEST PUSH1 0x0 CALLER SWAP1 POP SWAP1 JUMP JUMPDEST PUSH1 0x0 PUSH20 0xFFFFFFFFFFFFFFFFFFFFFFFFFFFFFFFFFFFFFFFF AND DUP4 PUSH20 0xFFFFFFFFFFFFFFFFFFFFFFFFFFFFFFFFFFFFFFFF AND SUB PUSH2 0x6C8 JUMPI PUSH1 0x40 MLOAD PUSH32 0x8C379A000000000000000000000000000000000000000000000000000000000 DUP2 MSTORE PUSH1 0x4 ADD PUSH2 0x6BF SWAP1 PUSH2 0x1347 JUMP JUMPDEST PUSH1 0x40 MLOAD DUP1 SWAP2 SUB SWAP1 REVERT JUMPDEST PUSH1 0x0 PUSH20 0xFFFFFFFFFFFFFFFFFFFFFFFFFFFFFFFFFFFFFFFF AND DUP3 PUSH20 0xFFFFFFFFFFFFFFFFFFFFFFFFFFFFFFFFFFFFFFFF AND SUB PUSH2 0x737 JUMPI PUSH1 0x40 MLOAD PUSH32 0x8C379A000000000000000000000000000000000000000000000000000000000 DUP2 MSTORE PUSH1 0x4 ADD PUSH2 0x72E SWAP1 PUSH2 0x13D9 JUMP JUMPDEST PUSH1 0x40 MLOAD DUP1 SWAP2 SUB SWAP1 REVERT JUMPDEST DUP1 PUSH1 0x1 PUSH1 0x0 DUP6 PUSH20 0xFFFFFFFFFFFFFFFFFFFFFFFFFFFFFFFFFFFFFFFF AND PUSH20 0xFFFFFFFFFFFFFFFFFFFFFFFFFFFFFFFFFFFFFFFF AND DUP2 MSTORE PUSH1 0x20 ADD SWAP1 DUP2 MSTORE PUSH1 0x20 ADD PUSH1 0x0 KECCAK256 PUSH1 0x0 DUP5 PUSH20 0xFFFFFFFFFFFFFFFFFFFFFFFFFFFFFFFFFFFFFFFF AND PUSH20 0xFFFFFFFFFFFFFFFFFFFFFFFFFFFFFFFFFFFFFFFF AND DUP2 MSTORE PUSH1 0x20 ADD SWAP1 DUP2 MSTORE PUSH1 0x20 ADD PUSH1 0x0 KECCAK256 DUP2 SWAP1 SSTORE POP DUP2 PUSH20 0xFFFFFFFFFFFFFFFFFFFFFFFFFFFFFFFFFFFFFFFF AND DUP4 PUSH20 0xFFFFFFFFFFFFFFFFFFFFFFFFFFFFFFFFFFFFFFFF AND PUSH32 0x8C5BE1E5EBEC7D5BD14F71427D1E84F3DD0314C0F7B2291E5B200AC8C7C3B925 DUP4 PUSH1 0x40 MLOAD PUSH2 0x815 SWAP2 SWAP1 PUSH2 0xEBD JUMP JUMPDEST PUSH1 0x40 MLOAD DUP1 SWAP2 SUB SWAP1 LOG3 POP POP POP JUMP JUMPDEST PUSH1 0x0 PUSH1 0x3 DUP3 GT ISZERO PUSH2 0x889 JUMPI DUP2 SWAP1 POP PUSH1 0x0 PUSH1 0x1 PUSH1 0x2 DUP5 PUSH2 0x841 SWAP2 SWAP1 PUSH2 0x11DE JUMP JUMPDEST PUSH2 0x84B SWAP2 SWAP1 PUSH2 0x120F JUMP JUMPDEST SWAP1 POP JUMPDEST DUP2 DUP2 LT ISZERO PUSH2 0x883 JUMPI DUP1 SWAP2 POP PUSH1 0x2 DUP2 DUP3 DUP6 PUSH2 0x868 SWAP2 SWAP1 PUSH2 0x11DE JUMP JUMPDEST PUSH2 0x872 SWAP2 SWAP1 PUSH2 0x120F JUMP JUMPDEST PUSH2 0x87C SWAP2 SWAP1 PUSH2 0x11DE JUMP JUMPDEST SWAP1 POP PUSH2 0x84E JUMP JUMPDEST POP PUSH2 0x897 JUMP JUMPDEST PUSH1 0x0 DUP3 EQ PUSH2 0x896 JUMPI PUSH1 0x1 SWAP1 POP JUMPDEST JUMPDEST SWAP2 SWAP1 POP JUMP JUMPDEST PUSH1 0x0 PUSH2 0x8A8 DUP5 DUP5 PUSH2 0x5CA JUMP JUMPDEST SWAP1 POP PUSH32 0xFFFFFFFFFFFFFFFFFFFFFFFFFFFFFFFFFFFFFFFFFFFFFFFFFFFFFFFFFFFFFFFF DUP2 EQ PUSH2 0x922 JUMPI DUP2 DUP2 LT ISZERO PUSH2 0x914 JUMPI PUSH1 0x40 MLOAD PUSH32 0x8C379A000000000000000000000000000000000000000000000000000000000 DUP2 MSTORE PUSH1 0x4 ADD PUSH2 0x90B SWAP1 PUSH2 0x1445 JUMP JUMPDEST PUSH1 0x40 MLOAD DUP1 SWAP2 SUB SWAP1 REVERT JUMPDEST PUSH2 0x921 DUP5 DUP5 DUP5 DUP5 SUB PUSH2 0x659 JUMP JUMPDEST JUMPDEST POP POP POP POP JUMP JUMPDEST PUSH1 0x0 PUSH20 0xFFFFFFFFFFFFFFFFFFFFFFFFFFFFFFFFFFFFFFFF AND DUP4 PUSH20 0xFFFFFFFFFFFFFFFFFFFFFFFFFFFFFFFFFFFFFFFF AND SUB PUSH2 0x997 JUMPI PUSH1 0x40 MLOAD PUSH32 0x8C379A000000000000000000000000000000000000000000000000000000000 DUP2 MSTORE PUSH1 0x4 ADD PUSH2 0x98E SWAP1 PUSH2 0x14D7 JUMP JUMPDEST PUSH1 0x40 MLOAD DUP1 SWAP2 SUB SWAP1 REVERT JUMPDEST PUSH1 0x0 PUSH20 0xFFFFFFFFFFFFFFFFFFFFFFFFFFFFFFFFFFFFFFFF AND DUP3 PUSH20 0xFFFFFFFFFFFFFFFFFFFFFFFFFFFFFFFFFFFFFFFF AND SUB PUSH2 0xA06 JUMPI PUSH1 0x40 MLOAD PUSH32 0x8C379A000000000000000000000000000000000000000000000000000000000 DUP2 MSTORE PUSH1 0x4 ADD PUSH2 0x9FD SWAP1 PUSH2 0x1569 JUMP JUMPDEST PUSH1 0x40 MLOAD DUP1 SWAP2 SUB SWAP1 REVERT JUMPDEST PUSH2 0xA11 DUP4 DUP4 DUP4 PUSH2 0xB9E JUMP JUMPDEST PUSH1 0x0 DUP1 PUSH1 0x0 DUP6 PUSH20 0xFFFFFFFFFFFFFFFFFFFFFFFFFFFFFFFFFFFFFFFF AND PUSH20 0xFFFFFFFFFFFFFFFFFFFFFFFFFFFFFFFFFFFFFFFF AND DUP2 MSTORE PUSH1 0x20 ADD SWAP1 DUP2 MSTORE PUSH1 0x20 ADD PUSH1 0x0 KECCAK256 SLOAD SWAP1 POP DUP2 DUP2 LT ISZERO PUSH2 0xA97 JUMPI PUSH1 0x40 MLOAD PUSH32 0x8C379A000000000000000000000000000000000000000000000000000000000 DUP2 MSTORE PUSH1 0x4 ADD PUSH2 0xA8E SWAP1 PUSH2 0x15FB JUMP JUMPDEST PUSH1 0x40 MLOAD DUP1 SWAP2 SUB SWAP1 REVERT JUMPDEST DUP2 DUP2 SUB PUSH1 0x0 DUP1 DUP7 PUSH20 0xFFFFFFFFFFFFFFFFFFFFFFFFFFFFFFFFFFFFFFFF AND PUSH20 0xFFFFFFFFFFFFFFFFFFFFFFFFFFFFFFFFFFFFFFFF AND DUP2 MSTORE PUSH1 0x20 ADD SWAP1 DUP2 MSTORE PUSH1 0x20 ADD PUSH1 0x0 KECCAK256 DUP2 SWAP1 SSTORE POP DUP2 PUSH1 0x0 DUP1 DUP6 PUSH20 0xFFFFFFFFFFFFFFFFFFFFFFFFFFFFFFFFFFFFFFFF AND PUSH20 0xFFFFFFFFFFFFFFFFFFFFFFFFFFFFFFFFFFFFFFFF AND DUP2 MSTORE PUSH1 0x20 ADD SWAP1 DUP2 MSTORE PUSH1 0x20 ADD PUSH1 0x0 KECCAK256 PUSH1 0x0 DUP3 DUP3 SLOAD ADD SWAP3 POP POP DUP2 SWAP1 SSTORE POP DUP3 PUSH20 0xFFFFFFFFFFFFFFFFFFFFFFFFFFFFFFFFFFFFFFFF AND DUP5 PUSH20 0xFFFFFFFFFFFFFFFFFFFFFFFFFFFFFFFFFFFFFFFF AND PUSH32 0xDDF252AD1BE2C89B69C2B068FC378DAA952BA7F163C4A11628F55A4DF523B3EF DUP5 PUSH1 0x40 MLOAD PUSH2 0xB85 SWAP2 SWAP1 PUSH2 0xEBD JUMP JUMPDEST PUSH1 0x40 MLOAD DUP1 SWAP2 SUB SWAP1 LOG3 PUSH2 0xB98 DUP5 DUP5 DUP5 PUSH2 0xC98 JUMP JUMPDEST POP POP POP POP JUMP JUMPDEST PUSH1 0x0 PUSH1 0x5 SLOAD SWAP1 POP PUSH1 0x0 DUP2 SWAP1 POP DUP3 PUSH2 0xBB4 DUP7 PUSH2 0x450 JUMP JUMPDEST EQ DUP1 ISZERO PUSH2 0xBFE JUMPI POP PUSH2 0xBC5 DUP6 PUSH2 0xC9D JUMP JUMPDEST DUP1 PUSH2 0xBFC JUMPI POP PUSH1 0x0 PUSH20 0xFFFFFFFFFFFFFFFFFFFFFFFFFFFFFFFFFFFFFFFF AND DUP6 PUSH20 0xFFFFFFFFFFFFFFFFFFFFFFFFFFFFFFFFFFFFFFFF AND EQ JUMPDEST ISZERO JUMPDEST ISZERO PUSH2 0xC12 JUMPI DUP2 DUP1 PUSH2 0xC0E SWAP1 PUSH2 0x161B JUMP JUMPDEST SWAP3 POP POP JUMPDEST PUSH1 0x0 PUSH2 0xC1D DUP6 PUSH2 0x450 JUMP JUMPDEST EQ DUP1 ISZERO PUSH2 0xC67 JUMPI POP PUSH2 0xC2E DUP5 PUSH2 0xC9D JUMP JUMPDEST DUP1 PUSH2 0xC65 JUMPI POP PUSH1 0x0 PUSH20 0xFFFFFFFFFFFFFFFFFFFFFFFFFFFFFFFFFFFFFFFF AND DUP5 PUSH20 0xFFFFFFFFFFFFFFFFFFFFFFFFFFFFFFFFFFFFFFFF AND EQ JUMPDEST ISZERO JUMPDEST ISZERO PUSH2 0xC7B JUMPI DUP2 DUP1 PUSH2 0xC77 SWAP1 PUSH2 0x1644 JUMP JUMPDEST SWAP3 POP POP JUMPDEST DUP1 DUP3 SUB PUSH2 0xC89 JUMPI POP POP PUSH2 0xC93 JUMP JUMPDEST DUP2 PUSH1 0x5 DUP2 SWAP1 SSTORE POP POP POP JUMPDEST POP POP POP JUMP JUMPDEST POP POP POP JUMP JUMPDEST PUSH1 0x0 DUP1 DUP3 PUSH20 0xFFFFFFFFFFFFFFFFFFFFFFFFFFFFFFFFFFFFFFFF AND EXTCODESIZE GT SWAP1 POP SWAP2 SWAP1 POP JUMP JUMPDEST PUSH1 0x0 DUP2 MLOAD SWAP1 POP SWAP2 SWAP1 POP JUMP JUMPDEST PUSH1 0x0 DUP3 DUP3 MSTORE PUSH1 0x20 DUP3 ADD SWAP1 POP SWAP3 SWAP2 POP POP JUMP JUMPDEST PUSH1 0x0 JUMPDEST DUP4 DUP2 LT ISZERO PUSH2 0xCFA JUMPI DUP1 DUP3 ADD MLOAD DUP2 DUP5 ADD MSTORE PUSH1 0x20 DUP2 ADD SWAP1 POP PUSH2 0xCDF JUMP JUMPDEST PUSH1 0x0 DUP5 DUP5 ADD MSTORE POP POP POP POP JUMP JUMPDEST PUSH1 0x0 PUSH1 0x1F NOT PUSH1 0x1F DUP4 ADD AND SWAP1 POP SWAP2 SWAP1 POP JUMP JUMPDEST PUSH1 0x0 PUSH2 0xD22 DUP3 PUSH2 0xCC0 JUMP JUMPDEST PUSH2 0xD2C DUP2 DUP6 PUSH2 0xCCB JUMP JUMPDEST SWAP4 POP PUSH2 0xD3C DUP2 DUP6 PUSH1 0x20 DUP7 ADD PUSH2 0xCDC JUMP JUMPDEST PUSH2 0xD45 DUP2 PUSH2 0xD06 JUMP JUMPDEST DUP5 ADD SWAP2 POP POP SWAP3 SWAP2 POP POP JUMP JUMPDEST PUSH1 0x0 PUSH1 0x20 DUP3 ADD SWAP1 POP DUP2 DUP2 SUB PUSH1 0x0 DUP4 ADD MSTORE PUSH2 0xD6A DUP2 DUP5 PUSH2 0xD17 JUMP JUMPDEST SWAP1 POP SWAP3 SWAP2 POP POP JUMP JUMPDEST PUSH1 0x0 DUP1 REVERT JUMPDEST PUSH1 0x0 PUSH20 0xFFFFFFFFFFFFFFFFFFFFFFFFFFFFFFFFFFFFFFFF DUP3 AND SWAP1 POP SWAP2 SWAP1 POP JUMP JUMPDEST PUSH1 0x0 PUSH2 0xDA2 DUP3 PUSH2 0xD77 JUMP JUMPDEST SWAP1 POP SWAP2 SWAP1 POP JUMP JUMPDEST PUSH2 0xDB2 DUP2 PUSH2 0xD97 JUMP JUMPDEST DUP2 EQ PUSH2 0xDBD JUMPI PUSH1 0x0 DUP1 REVERT JUMPDEST POP JUMP JUMPDEST PUSH1 0x0 DUP2 CALLDATALOAD SWAP1 POP PUSH2 0xDCF DUP2 PUSH2 0xDA9 JUMP JUMPDEST SWAP3 SWAP2 POP POP JUMP JUMPDEST PUSH1 0x0 DUP2 SWAP1 POP SWAP2 SWAP1 POP JUMP JUMPDEST PUSH2 0xDE8 DUP2 PUSH2 0xDD5 JUMP JUMPDEST DUP2 EQ PUSH2 0xDF3 JUMPI PUSH1 0x0 DUP1 REVERT JUMPDEST POP JUMP JUMPDEST PUSH1 0x0 DUP2 CALLDATALOAD SWAP1 POP PUSH2 0xE05 DUP2 PUSH2 0xDDF JUMP JUMPDEST SWAP3 SWAP2 POP POP JUMP JUMPDEST PUSH1 0x0 DUP1 PUSH1 0x40 DUP4 DUP6 SUB SLT ISZERO PUSH2 0xE22 JUMPI PUSH2 0xE21 PUSH2 0xD72 JUMP JUMPDEST JUMPDEST PUSH1 0x0 PUSH2 0xE30 DUP6 DUP3 DUP7 ADD PUSH2 0xDC0 JUMP JUMPDEST SWAP3 POP POP PUSH1 0x20 PUSH2 0xE41 DUP6 DUP3 DUP7 ADD PUSH2 0xDF6 JUMP JUMPDEST SWAP2 POP POP SWAP3 POP SWAP3 SWAP1 POP JUMP JUMPDEST PUSH1 0x0 DUP2 ISZERO ISZERO SWAP1 POP SWAP2 SWAP1 POP JUMP JUMPDEST PUSH2 0xE60 DUP2 PUSH2 0xE4B JUMP JUMPDEST DUP3 MSTORE POP POP JUMP JUMPDEST PUSH1 0x0 PUSH1 0x20 DUP3 ADD SWAP1 POP PUSH2 0xE7B PUSH1 0x0 DUP4 ADD DUP5 PUSH2 0xE57 JUMP JUMPDEST SWAP3 SWAP2 POP POP JUMP JUMPDEST PUSH1 0x0 PUSH1 0x20 DUP3 DUP5 SUB SLT ISZERO PUSH2 0xE97 JUMPI PUSH2 0xE96 PUSH2 0xD72 JUMP JUMPDEST JUMPDEST PUSH1 0x0 PUSH2 0xEA5 DUP5 DUP3 DUP6 ADD PUSH2 0xDC0 JUMP JUMPDEST SWAP2 POP POP SWAP3 SWAP2 POP POP JUMP JUMPDEST PUSH2 0xEB7 DUP2 PUSH2 0xDD5 JUMP JUMPDEST DUP3 MSTORE POP POP JUMP JUMPDEST PUSH1 0x0 PUSH1 0x20 DUP3 ADD SWAP1 POP PUSH2 0xED2 PUSH1 0x0 DUP4 ADD DUP5 PUSH2 0xEAE JUMP JUMPDEST SWAP3 SWAP2 POP POP JUMP JUMPDEST PUSH1 0x0 DUP1 PUSH1 0x0 PUSH1 0x60 DUP5 DUP7 SUB SLT ISZERO PUSH2 0xEF1 JUMPI PUSH2 0xEF0 PUSH2 0xD72 JUMP JUMPDEST JUMPDEST PUSH1 0x0 PUSH2 0xEFF DUP7 DUP3 DUP8 ADD PUSH2 0xDC0 JUMP JUMPDEST SWAP4 POP POP PUSH1 0x20 PUSH2 0xF10 DUP7 DUP3 DUP8 ADD PUSH2 0xDC0 JUMP JUMPDEST SWAP3 POP POP PUSH1 0x40 PUSH2 0xF21 DUP7 DUP3 DUP8 ADD PUSH2 0xDF6 JUMP JUMPDEST SWAP2 POP POP SWAP3 POP SWAP3 POP SWAP3 JUMP JUMPDEST PUSH1 0x0 PUSH1 0xFF DUP3 AND SWAP1 POP SWAP2 SWAP1 POP JUMP JUMPDEST PUSH2 0xF41 DUP2 PUSH2 0xF2B JUMP JUMPDEST DUP3 MSTORE POP POP JUMP JUMPDEST PUSH1 0x0 PUSH1 0x20 DUP3 ADD SWAP1 POP PUSH2 0xF5C PUSH1 0x0 DUP4 ADD DUP5 PUSH2 0xF38 JUMP JUMPDEST SWAP3 SWAP2 POP POP JUMP JUMPDEST PUSH1 0x0 DUP1 PUSH1 0x40 DUP4 DUP6 SUB SLT ISZERO PUSH2 0xF79 JUMPI PUSH2 0xF78 PUSH2 0xD72 JUMP JUMPDEST JUMPDEST PUSH1 0x0 PUSH2 0xF87 DUP6 DUP3 DUP7 ADD PUSH2 0xDC0 JUMP JUMPDEST SWAP3 POP POP PUSH1 0x20 PUSH2 0xF98 DUP6 DUP3 DUP7 ADD PUSH2 0xDC0 JUMP JUMPDEST SWAP2 POP POP SWAP3 POP SWAP3 SWAP1 POP JUMP JUMPDEST PUSH32 0x4E487B7100000000000000000000000000000000000000000000000000000000 PUSH1 0x0 MSTORE PUSH1 0x22 PUSH1 0x4 MSTORE PUSH1 0x24 PUSH1 0x0 REVERT JUMPDEST PUSH1 0x0 PUSH1 0x2 DUP3 DIV SWAP1 POP PUSH1 0x1 DUP3 AND DUP1 PUSH2 0xFE9 JUMPI PUSH1 0x7F DUP3 AND SWAP2 POP JUMPDEST PUSH1 0x20 DUP3 LT DUP2 SUB PUSH2 0xFFC JUMPI PUSH2 0xFFB PUSH2 0xFA2 JUMP JUMPDEST JUMPDEST POP SWAP2 SWAP1 POP JUMP JUMPDEST PUSH32 0x4E487B7100000000000000000000000000000000000000000000000000000000 PUSH1 0x0 MSTORE PUSH1 0x11 PUSH1 0x4 MSTORE PUSH1 0x24 PUSH1 0x0 REVERT JUMPDEST PUSH1 0x0 DUP2 PUSH1 0x1 SHR SWAP1 POP SWAP2 SWAP1 POP JUMP JUMPDEST PUSH1 0x0 DUP1 DUP3 SWAP2 POP DUP4 SWAP1 POP JUMPDEST PUSH1 0x1 DUP6 GT ISZERO PUSH2 0x1088 JUMPI DUP1 DUP7 DIV DUP2 GT ISZERO PUSH2 0x1064 JUMPI PUSH2 0x1063 PUSH2 0x1002 JUMP JUMPDEST JUMPDEST PUSH1 0x1 DUP6 AND ISZERO PUSH2 0x1073 JUMPI DUP1 DUP3 MUL SWAP2 POP JUMPDEST DUP1 DUP2 MUL SWAP1 POP PUSH2 0x1081 DUP6 PUSH2 0x1031 JUMP JUMPDEST SWAP5 POP PUSH2 0x1048 JUMP JUMPDEST SWAP5 POP SWAP5 SWAP3 POP POP POP JUMP JUMPDEST PUSH1 0x0 DUP3 PUSH2 0x10A1 JUMPI PUSH1 0x1 SWAP1 POP PUSH2 0x115D JUMP JUMPDEST DUP2 PUSH2 0x10AF JUMPI PUSH1 0x0 SWAP1 POP PUSH2 0x115D JUMP JUMPDEST DUP2 PUSH1 0x1 DUP2 EQ PUSH2 0x10C5 JUMPI PUSH1 0x2 DUP2 EQ PUSH2 0x10CF JUMPI PUSH2 0x10FE JUMP JUMPDEST PUSH1 0x1 SWAP2 POP POP PUSH2 0x115D JUMP JUMPDEST PUSH1 0xFF DUP5 GT ISZERO PUSH2 0x10E1 JUMPI PUSH2 0x10E0 PUSH2 0x1002 JUMP JUMPDEST JUMPDEST DUP4 PUSH1 0x2 EXP SWAP2 POP DUP5 DUP3 GT ISZERO PUSH2 0x10F8 JUMPI PUSH2 0x10F7 PUSH2 0x1002 JUMP JUMPDEST JUMPDEST POP PUSH2 0x115D JUMP JUMPDEST POP PUSH1 0x20 DUP4 LT PUSH2 0x133 DUP4 LT AND PUSH1 0x4E DUP5 LT PUSH1 0xB DUP5 LT AND OR ISZERO PUSH2 0x1133 JUMPI DUP3 DUP3 EXP SWAP1 POP DUP4 DUP2 GT ISZERO PUSH2 0x112E JUMPI PUSH2 0x112D PUSH2 0x1002 JUMP JUMPDEST JUMPDEST PUSH2 0x115D JUMP JUMPDEST PUSH2 0x1140 DUP5 DUP5 DUP5 PUSH1 0x1 PUSH2 0x103E JUMP JUMPDEST SWAP3 POP SWAP1 POP DUP2 DUP5 DIV DUP2 GT ISZERO PUSH2 0x1157 JUMPI PUSH2 0x1156 PUSH2 0x1002 JUMP JUMPDEST JUMPDEST DUP2 DUP2 MUL SWAP1 POP JUMPDEST SWAP4 SWAP3 POP POP POP JUMP JUMPDEST PUSH1 0x0 PUSH2 0x116F DUP3 PUSH2 0xDD5 JUMP JUMPDEST SWAP2 POP PUSH2 0x117A DUP4 PUSH2 0xF2B JUMP JUMPDEST SWAP3 POP PUSH2 0x11A7 PUSH32 0xFFFFFFFFFFFFFFFFFFFFFFFFFFFFFFFFFFFFFFFFFFFFFFFFFFFFFFFFFFFFFFFF DUP5 DUP5 PUSH2 0x1091 JUMP JUMPDEST SWAP1 POP SWAP3 SWAP2 POP POP JUMP JUMPDEST PUSH32 0x4E487B7100000000000000000000000000000000000000000000000000000000 PUSH1 0x0 MSTORE PUSH1 0x12 PUSH1 0x4 MSTORE PUSH1 0x24 PUSH1 0x0 REVERT JUMPDEST PUSH1 0x0 PUSH2 0x11E9 DUP3 PUSH2 0xDD5 JUMP JUMPDEST SWAP2 POP PUSH2 0x11F4 DUP4 PUSH2 0xDD5 JUMP JUMPDEST SWAP3 POP DUP3 PUSH2 0x1204 JUMPI PUSH2 0x1203 PUSH2 0x11AF JUMP JUMPDEST JUMPDEST DUP3 DUP3 DIV SWAP1 POP SWAP3 SWAP2 POP POP JUMP JUMPDEST PUSH1 0x0 PUSH2 0x121A DUP3 PUSH2 0xDD5 JUMP JUMPDEST SWAP2 POP PUSH2 0x1225 DUP4 PUSH2 0xDD5 JUMP JUMPDEST SWAP3 POP DUP3 DUP3 ADD SWAP1 POP DUP1 DUP3 GT ISZERO PUSH2 0x123D JUMPI PUSH2 0x123C PUSH2 0x1002 JUMP JUMPDEST JUMPDEST SWAP3 SWAP2 POP POP JUMP JUMPDEST PUSH32 0x45524332303A2064656372656173656420616C6C6F77616E63652062656C6F77 PUSH1 0x0 DUP3 ADD MSTORE PUSH32 0x207A65726F000000000000000000000000000000000000000000000000000000 PUSH1 0x20 DUP3 ADD MSTORE POP JUMP JUMPDEST PUSH1 0x0 PUSH2 0x129F PUSH1 0x25 DUP4 PUSH2 0xCCB JUMP JUMPDEST SWAP2 POP PUSH2 0x12AA DUP3 PUSH2 0x1243 JUMP JUMPDEST PUSH1 0x40 DUP3 ADD SWAP1 POP SWAP2 SWAP1 POP JUMP JUMPDEST PUSH1 0x0 PUSH1 0x20 DUP3 ADD SWAP1 POP DUP2 DUP2 SUB PUSH1 0x0 DUP4 ADD MSTORE PUSH2 0x12CE DUP2 PUSH2 0x1292 JUMP JUMPDEST SWAP1 POP SWAP2 SWAP1 POP JUMP JUMPDEST PUSH32 0x45524332303A20617070726F76652066726F6D20746865207A65726F20616464 PUSH1 0x0 DUP3 ADD MSTORE PUSH32 0x7265737300000000000000000000000000000000000000000000000000000000 PUSH1 0x20 DUP3 ADD MSTORE POP JUMP JUMPDEST PUSH1 0x0 PUSH2 0x1331 PUSH1 0x24 DUP4 PUSH2 0xCCB JUMP JUMPDEST SWAP2 POP PUSH2 0x133C DUP3 PUSH2 0x12D5 JUMP JUMPDEST PUSH1 0x40 DUP3 ADD SWAP1 POP SWAP2 SWAP1 POP JUMP JUMPDEST PUSH1 0x0 PUSH1 0x20 DUP3 ADD SWAP1 POP DUP2 DUP2 SUB PUSH1 0x0 DUP4 ADD MSTORE PUSH2 0x1360 DUP2 PUSH2 0x1324 JUMP JUMPDEST SWAP1 POP SWAP2 SWAP1 POP JUMP JUMPDEST PUSH32 0x45524332303A20617070726F766520746F20746865207A65726F206164647265 PUSH1 0x0 DUP3 ADD MSTORE PUSH32 0x7373000000000000000000000000000000000000000000000000000000000000 PUSH1 0x20 DUP3 ADD MSTORE POP JUMP JUMPDEST PUSH1 0x0 PUSH2 0x13C3 PUSH1 0x22 DUP4 PUSH2 0xCCB JUMP JUMPDEST SWAP2 POP PUSH2 0x13CE DUP3 PUSH2 0x1367 JUMP JUMPDEST PUSH1 0x40 DUP3 ADD SWAP1 POP SWAP2 SWAP1 POP JUMP JUMPDEST PUSH1 0x0 PUSH1 0x20 DUP3 ADD SWAP1 POP DUP2 DUP2 SUB PUSH1 0x0 DUP4 ADD MSTORE PUSH2 0x13F2 DUP2 PUSH2 0x13B6 JUMP JUMPDEST SWAP1 POP SWAP2 SWAP1 POP JUMP JUMPDEST PUSH32 0x45524332303A20696E73756666696369656E7420616C6C6F77616E6365000000 PUSH1 0x0 DUP3 ADD MSTORE POP JUMP JUMPDEST PUSH1 0x0 PUSH2 0x142F PUSH1 0x1D DUP4 PUSH2 0xCCB JUMP JUMPDEST SWAP2 POP PUSH2 0x143A DUP3 PUSH2 0x13F9 JUMP JUMPDEST PUSH1 0x20 DUP3 ADD SWAP1 POP SWAP2 SWAP1 POP JUMP JUMPDEST PUSH1 0x0 PUSH1 0x20 DUP3 ADD SWAP1 POP DUP2 DUP2 SUB PUSH1 0x0 DUP4 ADD MSTORE PUSH2 0x145E DUP2 PUSH2 0x1422 JUMP JUMPDEST SWAP1 POP SWAP2 SWAP1 POP JUMP JUMPDEST PUSH32 0x45524332303A207472616E736665722066726F6D20746865207A65726F206164 PUSH1 0x0 DUP3 ADD MSTORE PUSH32 0x6472657373000000000000000000000000000000000000000000000000000000 PUSH1 0x20 DUP3 ADD MSTORE POP JUMP JUMPDEST PUSH1 0x0 PUSH2 0x14C1 PUSH1 0x25 DUP4 PUSH2 0xCCB JUMP JUMPDEST SWAP2 POP PUSH2 0x14CC DUP3 PUSH2 0x1465 JUMP JUMPDEST PUSH1 0x40 DUP3 ADD SWAP1 POP SWAP2 SWAP1 POP JUMP JUMPDEST PUSH1 0x0 PUSH1 0x20 DUP3 ADD SWAP1 POP DUP2 DUP2 SUB PUSH1 0x0 DUP4 ADD MSTORE PUSH2 0x14F0 DUP2 PUSH2 0x14B4 JUMP JUMPDEST SWAP1 POP SWAP2 SWAP1 POP JUMP JUMPDEST PUSH32 0x45524332303A207472616E7366657220746F20746865207A65726F2061646472 PUSH1 0x0 DUP3 ADD MSTORE PUSH32 0x6573730000000000000000000000000000000000000000000000000000000000 PUSH1 0x20 DUP3 ADD MSTORE POP JUMP JUMPDEST PUSH1 0x0 PUSH2 0x1553 PUSH1 0x23 DUP4 PUSH2 0xCCB JUMP JUMPDEST SWAP2 POP PUSH2 0x155E DUP3 PUSH2 0x14F7 JUMP JUMPDEST PUSH1 0x40 DUP3 ADD SWAP1 POP SWAP2 SWAP1 POP JUMP JUMPDEST PUSH1 0x0 PUSH1 0x20 DUP3 ADD SWAP1 POP DUP2 DUP2 SUB PUSH1 0x0 DUP4 ADD MSTORE PUSH2 0x1582 DUP2 PUSH2 0x1546 JUMP JUMPDEST SWAP1 POP SWAP2 SWAP1 POP JUMP JUMPDEST PUSH32 0x45524332303A207472616E7366657220616D6F756E7420657863656564732062 PUSH1 0x0 DUP3 ADD MSTORE PUSH32 0x616C616E63650000000000000000000000000000000000000000000000000000 PUSH1 0x20 DUP3 ADD MSTORE POP JUMP JUMPDEST PUSH1 0x0 PUSH2 0x15E5 PUSH1 0x26 DUP4 PUSH2 0xCCB JUMP JUMPDEST SWAP2 POP PUSH2 0x15F0 DUP3 PUSH2 0x1589 JUMP JUMPDEST PUSH1 0x40 DUP3 ADD SWAP1 POP SWAP2 SWAP1 POP JUMP JUMPDEST PUSH1 0x0 PUSH1 0x20 DUP3 ADD SWAP1 POP DUP2 DUP2 SUB PUSH1 0x0 DUP4 ADD MSTORE PUSH2 0x1614 DUP2 PUSH2 0x15D8 JUMP JUMPDEST SWAP1 POP SWAP2 SWAP1 POP JUMP JUMPDEST PUSH1 0x0 PUSH2 0x1626 DUP3 PUSH2 0xDD5 JUMP JUMPDEST SWAP2 POP PUSH1 0x0 DUP3 SUB PUSH2 0x1639 JUMPI PUSH2 0x1638 PUSH2 0x1002 JUMP JUMPDEST JUMPDEST PUSH1 0x1 DUP3 SUB SWAP1 POP SWAP2 SWAP1 POP JUMP JUMPDEST PUSH1 0x0 PUSH2 0x164F DUP3 PUSH2 0xDD5 JUMP JUMPDEST SWAP2 POP PUSH32 0xFFFFFFFFFFFFFFFFFFFFFFFFFFFFFFFFFFFFFFFFFFFFFFFFFFFFFFFFFFFFFFFF DUP3 SUB PUSH2 0x1681 JUMPI PUSH2 0x1680 PUSH2 0x1002 JUMP JUMPDEST JUMPDEST PUSH1 0x1 DUP3 ADD SWAP1 POP SWAP2 SWAP1 POP JUMP INVALID LOG2 PUSH5 0x6970667358 0x22 SLT KECCAK256 0x1F SUB STATICCALL SLOAD 0x24 0xAA PUSH9 0x4693BAF34D4533D26F 0xF 0xA7 0xC 0xEC SWAP9 0x4B 0xEF GASLIMIT 0x2A PUSH17 0xC71F1773E54D64736F6C63430008110033 "
		},
		"gasEstimates": {
			"creation": {
				"codeDepositCost": "1165200",
				"executionCost": "infinite",
				"totalCost": "infinite"
			},
			"external": {
				"allowance(address,address)": "infinite",
				"approve(address,uint256)": "infinite",
				"balanceOf(address)": "2886",
				"decimals()": "454",
				"decreaseAllowance(address,uint256)": "infinite",
				"increaseAllowance(address,uint256)": "infinite",
				"memberVotingPower(address)": "infinite",
				"name()": "infinite",
				"symbol()": "infinite",
				"totalMembers()": "2496",
				"totalSupply()": "2504",
				"transfer(address,uint256)": "infinite",
				"transferFrom(address,address,uint256)": "infinite"
			},
			"internal": {
				"_beforeTokenTransfer(address,address,uint256)": "infinite",
				"isContract(address)": "2640",
				"sqrt(uint256)": "infinite"
			}
		},
		"methodIdentifiers": {
			"allowance(address,address)": "dd62ed3e",
			"approve(address,uint256)": "095ea7b3",
			"balanceOf(address)": "70a08231",
			"decimals()": "313ce567",
			"decreaseAllowance(address,uint256)": "a457c2d7",
			"increaseAllowance(address,uint256)": "39509351",
			"memberVotingPower(address)": "13ea2a83",
			"name()": "06fdde03",
			"symbol()": "95d89b41",
			"totalMembers()": "76e92559",
			"totalSupply()": "18160ddd",
			"transfer(address,uint256)": "a9059cbb",
			"transferFrom(address,address,uint256)": "23b872dd"
		}
	},
	"abi": [
		{
			"inputs": [
				{
					"internalType": "uint256[]",
					"name": "amounts",
					"type": "uint256[]"
				},
				{
					"internalType": "address[]",
					"name": "members",
					"type": "address[]"
				}
			],
			"stateMutability": "nonpayable",
			"type": "constructor"
		},
		{
			"anonymous": false,
			"inputs": [
				{
					"indexed": true,
					"internalType": "address",
					"name": "owner",
					"type": "address"
				},
				{
					"indexed": true,
					"internalType": "address",
					"name": "spender",
					"type": "address"
				},
				{
					"indexed": false,
					"internalType": "uint256",
					"name": "value",
					"type": "uint256"
				}
			],
			"name": "Approval",
			"type": "event"
		},
		{
			"anonymous": false,
			"inputs": [
				{
					"indexed": true,
					"internalType": "address",
					"name": "from",
					"type": "address"
				},
				{
					"indexed": true,
					"internalType": "address",
					"name": "to",
					"type": "address"
				},
				{
					"indexed": false,
					"internalType": "uint256",
					"name": "value",
					"type": "uint256"
				}
			],
			"name": "Transfer",
			"type": "event"
		},
		{
			"inputs": [
				{
					"internalType": "address",
					"name": "owner",
					"type": "address"
				},
				{
					"internalType": "address",
					"name": "spender",
					"type": "address"
				}
			],
			"name": "allowance",
			"outputs": [
				{
					"internalType": "uint256",
					"name": "",
					"type": "uint256"
				}
			],
			"stateMutability": "view",
			"type": "function"
		},
		{
			"inputs": [
				{
					"internalType": "address",
					"name": "spender",
					"type": "address"
				},
				{
					"internalType": "uint256",
					"name": "amount",
					"type": "uint256"
				}
			],
			"name": "approve",
			"outputs": [
				{
					"internalType": "bool",
					"name": "",
					"type": "bool"
				}
			],
			"stateMutability": "nonpayable",
			"type": "function"
		},
		{
			"inputs": [
				{
					"internalType": "address",
					"name": "account",
					"type": "address"
				}
			],
			"name": "balanceOf",
			"outputs": [
				{
					"internalType": "uint256",
					"name": "",
					"type": "uint256"
				}
			],
			"stateMutability": "view",
			"type": "function"
		},
		{
			"inputs": [],
			"name": "decimals",
			"outputs": [
				{
					"internalType": "uint8",
					"name": "",
					"type": "uint8"
				}
			],
			"stateMutability": "view",
			"type": "function"
		},
		{
			"inputs": [
				{
					"internalType": "address",
					"name": "spender",
					"type": "address"
				},
				{
					"internalType": "uint256",
					"name": "subtractedValue",
					"type": "uint256"
				}
			],
			"name": "decreaseAllowance",
			"outputs": [
				{
					"internalType": "bool",
					"name": "",
					"type": "bool"
				}
			],
			"stateMutability": "nonpayable",
			"type": "function"
		},
		{
			"inputs": [
				{
					"internalType": "address",
					"name": "spender",
					"type": "address"
				},
				{
					"internalType": "uint256",
					"name": "addedValue",
					"type": "uint256"
				}
			],
			"name": "increaseAllowance",
			"outputs": [
				{
					"internalType": "bool",
					"name": "",
					"type": "bool"
				}
			],
			"stateMutability": "nonpayable",
			"type": "function"
		},
		{
			"inputs": [
				{
					"internalType": "address",
					"name": "account",
					"type": "address"
				}
			],
			"name": "memberVotingPower",
			"outputs": [
				{
					"internalType": "uint256",
					"name": "votingPower",
					"type": "uint256"
				}
			],
			"stateMutability": "view",
			"type": "function"
		},
		{
			"inputs": [],
			"name": "name",
			"outputs": [
				{
					"internalType": "string",
					"name": "",
					"type": "string"
				}
			],
			"stateMutability": "view",
			"type": "function"
		},
		{
			"inputs": [],
			"name": "symbol",
			"outputs": [
				{
					"internalType": "string",
					"name": "",
					"type": "string"
				}
			],
			"stateMutability": "view",
			"type": "function"
		},
		{
			"inputs": [],
			"name": "totalMembers",
			"outputs": [
				{
					"internalType": "uint256",
					"name": "",
					"type": "uint256"
				}
			],
			"stateMutability": "view",
			"type": "function"
		},
		{
			"inputs": [],
			"name": "totalSupply",
			"outputs": [
				{
					"internalType": "uint256",
					"name": "",
					"type": "uint256"
				}
			],
			"stateMutability": "view",
			"type": "function"
		},
		{
			"inputs": [
				{
					"internalType": "address",
					"name": "to",
					"type": "address"
				},
				{
					"internalType": "uint256",
					"name": "amount",
					"type": "uint256"
				}
			],
			"name": "transfer",
			"outputs": [
				{
					"internalType": "bool",
					"name": "",
					"type": "bool"
				}
			],
			"stateMutability": "nonpayable",
			"type": "function"
		},
		{
			"inputs": [
				{
					"internalType": "address",
					"name": "from",
					"type": "address"
				},
				{
					"internalType": "address",
					"name": "to",
					"type": "address"
				},
				{
					"internalType": "uint256",
					"name": "amount",
					"type": "uint256"
				}
			],
			"name": "transferFrom",
			"outputs": [
				{
					"internalType": "bool",
					"name": "",
					"type": "bool"
				}
			],
			"stateMutability": "nonpayable",
			"type": "function"
		}
	]
}