{
	"data": {
		"bytecode": {
			"linkReferences": {},
			"object": "6080604052600260015534801561001557600080fd5b506000339080600181540180825580915050600190039060005260206000200160009091909190916101000a81548173ffffffffffffffffffffffffffffffffffffffff021916908373ffffffffffffffffffffffffffffffffffffffff1602179055506001600260003373ffffffffffffffffffffffffffffffffffffffff1673ffffffffffffffffffffffffffffffffffffffff16815260200190815260200160002060006101000a81548160ff021916908315150217905550600073ab8483f64d9c6d1ecf9b849ae677dd3315835cb29080600181540180825580915050600190039060005260206000200160009091909190916101000a81548173ffffffffffffffffffffffffffffffffffffffff021916908373ffffffffffffffffffffffffffffffffffffffff16021790555060016002600073ab8483f64d9c6d1ecf9b849ae677dd3315835cb273ffffffffffffffffffffffffffffffffffffffff1673ffffffffffffffffffffffffffffffffffffffff16815260200190815260200160002060006101000a81548160ff021916908315150217905550610e9f806101c36000396000f3fe6080604052600436106100745760003560e01c80639ace38c21161004e5780639ace38c214610125578063d579b69614610165578063ee22610b1461018e578063f19a6682146101b75761007b565b8063025e7c27146100805780633349a734146100bd57806360c8b28d146100e85761007b565b3661007b57005b600080fd5b34801561008c57600080fd5b506100a760048036038101906100a29190610942565b6101e0565b6040516100b491906109b0565b60405180910390f35b3480156100c957600080fd5b506100d261021f565b6040516100df91906109da565b60405180910390f35b3480156100f457600080fd5b5061010f600480360381019061010a9190610a21565b610225565b60405161011c9190610a7c565b60405180910390f35b34801561013157600080fd5b5061014c60048036038101906101479190610942565b610254565b60405161015c9493929190610a97565b60405180910390f35b34801561017157600080fd5b5061018c60048036038101906101879190610942565b6102c1565b005b34801561019a57600080fd5b506101b560048036038101906101b09190610942565b6104a1565b005b3480156101c357600080fd5b506101de60048036038101906101d99190610adc565b61077a565b005b600081815481106101f057600080fd5b906000526020600020016000915054906101000a900473ffffffffffffffffffffffffffffffffffffffff1681565b60015481565b60036020528160005260406000206020528060005260406000206000915091509054906101000a900460ff1681565b6004818154811061026457600080fd5b90600052602060002090600402016000915090508060000160009054906101000a900473ffffffffffffffffffffffffffffffffffffffff16908060010154908060020160009054906101000a900460ff16908060030154905084565b60011515600260003373ffffffffffffffffffffffffffffffffffffffff1673ffffffffffffffffffffffffffffffffffffffff16815260200190815260200160002060009054906101000a900460ff16151514610354576040517f08c379a000000000000000000000000000000000000000000000000000000000815260040161034b90610b9f565b60405180910390fd5b600015156003600083815260200190815260200160002060003373ffffffffffffffffffffffffffffffffffffffff1673ffffffffffffffffffffffffffffffffffffffff16815260200190815260200160002060009054906101000a900460ff161515146103f8576040517f08c379a00000000000000000000000000000000000000000000000000000000081526004016103ef90610c0b565b60405180910390fd5b60016004828154811061040e5761040d610c2b565b5b9060005260206000209060040201600301600082825461042e9190610c89565b9250508190555060016003600083815260200190815260200160002060003373ffffffffffffffffffffffffffffffffffffffff1673ffffffffffffffffffffffffffffffffffffffff16815260200190815260200160002060006101000a81548160ff02191690831515021790555050565b60011515600260003373ffffffffffffffffffffffffffffffffffffffff1673ffffffffffffffffffffffffffffffffffffffff16815260200190815260200160002060009054906101000a900460ff16151514610534576040517f08c379a000000000000000000000000000000000000000000000000000000000815260040161052b90610b9f565b60405180910390fd5b6001546004828154811061054b5761054a610c2b565b5b906000526020600020906004020160030154101561059e576040517f08c379a000000000000000000000000000000000000000000000000000000000815260040161059590610d2b565b60405180910390fd5b60001515600482815481106105b6576105b5610c2b565b5b906000526020600020906004020160020160009054906101000a900460ff16151514610617576040517f08c379a000000000000000000000000000000000000000000000000000000000815260040161060e90610d97565b60405180910390fd5b60006004828154811061062d5761062c610c2b565b5b906000526020600020906004020160000160009054906101000a900473ffffffffffffffffffffffffffffffffffffffff16905060008173ffffffffffffffffffffffffffffffffffffffff166004848154811061068e5761068d610c2b565b5b906000526020600020906004020160010154611388906040516106b090610de8565b600060405180830381858888f193505050503d80600081146106ee576040519150601f19603f3d011682016040523d82523d6000602084013e6106f3565b606091505b5050905080610737576040517f08c379a000000000000000000000000000000000000000000000000000000000815260040161072e90610e49565b60405180910390fd5b60016004848154811061074d5761074c610c2b565b5b906000526020600020906004020160020160006101000a81548160ff021916908315150217905550505050565b60011515600260003373ffffffffffffffffffffffffffffffffffffffff1673ffffffffffffffffffffffffffffffffffffffff16815260200190815260200160002060009054906101000a900460ff1615151461080d576040517f08c379a000000000000000000000000000000000000000000000000000000000815260040161080490610b9f565b60405180910390fd5b600460405180608001604052808473ffffffffffffffffffffffffffffffffffffffff168152602001670de0b6b3a76400008461084a9190610c89565b81526020016000151581526020016000815250908060018154018082558091505060019003906000526020600020906004020160009091909190915060008201518160000160006101000a81548173ffffffffffffffffffffffffffffffffffffffff021916908373ffffffffffffffffffffffffffffffffffffffff1602179055506020820151816001015560408201518160020160006101000a81548160ff0219169083151502179055506060820151816003015550505050565b600080fd5b6000819050919050565b61091f8161090c565b811461092a57600080fd5b50565b60008135905061093c81610916565b92915050565b60006020828403121561095857610957610907565b5b60006109668482850161092d565b91505092915050565b600073ffffffffffffffffffffffffffffffffffffffff82169050919050565b600061099a8261096f565b9050919050565b6109aa8161098f565b82525050565b60006020820190506109c560008301846109a1565b92915050565b6109d48161090c565b82525050565b60006020820190506109ef60008301846109cb565b92915050565b6109fe8161098f565b8114610a0957600080fd5b50565b600081359050610a1b816109f5565b92915050565b60008060408385031215610a3857610a37610907565b5b6000610a468582860161092d565b9250506020610a5785828601610a0c565b9150509250929050565b60008115159050919050565b610a7681610a61565b82525050565b6000602082019050610a916000830184610a6d565b92915050565b6000608082019050610aac60008301876109a1565b610ab960208301866109cb565b610ac66040830185610a6d565b610ad360608301846109cb565b95945050505050565b60008060408385031215610af357610af2610907565b5b6000610b0185828601610a0c565b9250506020610b128582860161092d565b9150509250929050565b600082825260208201905092915050565b7f596f7572277265206e6f7420616e206f776e6572206f6620746869732077616c60008201527f6c65740000000000000000000000000000000000000000000000000000000000602082015250565b6000610b89602383610b1c565b9150610b9482610b2d565b604082019050919050565b60006020820190508181036000830152610bb881610b7c565b9050919050565b7f596f7527766520616c726561647920766f746564000000000000000000000000600082015250565b6000610bf5601483610b1c565b9150610c0082610bbf565b602082019050919050565b60006020820190508181036000830152610c2481610be8565b9050919050565b7f4e487b7100000000000000000000000000000000000000000000000000000000600052603260045260246000fd5b7f4e487b7100000000000000000000000000000000000000000000000000000000600052601160045260246000fd5b6000610c948261090c565b9150610c9f8361090c565b9250827fffffffffffffffffffffffffffffffffffffffffffffffffffffffffffffffff03821115610cd457610cd3610c5a565b5b828201905092915050565b7f4e6f7420656e6f75676820617070726f76616c73000000000000000000000000600082015250565b6000610d15601483610b1c565b9150610d2082610cdf565b602082019050919050565b60006020820190508181036000830152610d4481610d08565b9050919050565b7f416c726561647920766f74656400000000000000000000000000000000000000600082015250565b6000610d81600d83610b1c565b9150610d8c82610d4b565b602082019050919050565b60006020820190508181036000830152610db081610d74565b9050919050565b600081905092915050565b50565b6000610dd2600083610db7565b9150610ddd82610dc2565b600082019050919050565b6000610df382610dc5565b9150819050919050565b7f596f7520646f6e2774206861766520656e6f75676820746f6b656e7300000000600082015250565b6000610e33601c83610b1c565b9150610e3e82610dfd565b602082019050919050565b60006020820190508181036000830152610e6281610e26565b905091905056fea26469706673582212206ed381fe431b9544d1e4f29df29efbb416e0c3f9ba115c8e09572a9dad0889ca64736f6c634300080d0033",
			"opcodes": "PUSH1 0x80 PUSH1 0x40 MSTORE PUSH1 0x2 PUSH1 0x1 SSTORE CALLVALUE DUP1 ISZERO PUSH2 0x15 JUMPI PUSH1 0x0 DUP1 REVERT JUMPDEST POP PUSH1 0x0 CALLER SWAP1 DUP1 PUSH1 0x1 DUP2 SLOAD ADD DUP1 DUP3 SSTORE DUP1 SWAP2 POP POP PUSH1 0x1 SWAP1 SUB SWAP1 PUSH1 0x0 MSTORE PUSH1 0x20 PUSH1 0x0 KECCAK256 ADD PUSH1 0x0 SWAP1 SWAP2 SWAP1 SWAP2 SWAP1 SWAP2 PUSH2 0x100 EXP DUP2 SLOAD DUP2 PUSH20 0xFFFFFFFFFFFFFFFFFFFFFFFFFFFFFFFFFFFFFFFF MUL NOT AND SWAP1 DUP4 PUSH20 0xFFFFFFFFFFFFFFFFFFFFFFFFFFFFFFFFFFFFFFFF AND MUL OR SWAP1 SSTORE POP PUSH1 0x1 PUSH1 0x2 PUSH1 0x0 CALLER PUSH20 0xFFFFFFFFFFFFFFFFFFFFFFFFFFFFFFFFFFFFFFFF AND PUSH20 0xFFFFFFFFFFFFFFFFFFFFFFFFFFFFFFFFFFFFFFFF AND DUP2 MSTORE PUSH1 0x20 ADD SWAP1 DUP2 MSTORE PUSH1 0x20 ADD PUSH1 0x0 KECCAK256 PUSH1 0x0 PUSH2 0x100 EXP DUP2 SLOAD DUP2 PUSH1 0xFF MUL NOT AND SWAP1 DUP4 ISZERO ISZERO MUL OR SWAP1 SSTORE POP PUSH1 0x0 PUSH20 0xAB8483F64D9C6D1ECF9B849AE677DD3315835CB2 SWAP1 DUP1 PUSH1 0x1 DUP2 SLOAD ADD DUP1 DUP3 SSTORE DUP1 SWAP2 POP POP PUSH1 0x1 SWAP1 SUB SWAP1 PUSH1 0x0 MSTORE PUSH1 0x20 PUSH1 0x0 KECCAK256 ADD PUSH1 0x0 SWAP1 SWAP2 SWAP1 SWAP2 SWAP1 SWAP2 PUSH2 0x100 EXP DUP2 SLOAD DUP2 PUSH20 0xFFFFFFFFFFFFFFFFFFFFFFFFFFFFFFFFFFFFFFFF MUL NOT AND SWAP1 DUP4 PUSH20 0xFFFFFFFFFFFFFFFFFFFFFFFFFFFFFFFFFFFFFFFF AND MUL OR SWAP1 SSTORE POP PUSH1 0x1 PUSH1 0x2 PUSH1 0x0 PUSH20 0xAB8483F64D9C6D1ECF9B849AE677DD3315835CB2 PUSH20 0xFFFFFFFFFFFFFFFFFFFFFFFFFFFFFFFFFFFFFFFF AND PUSH20 0xFFFFFFFFFFFFFFFFFFFFFFFFFFFFFFFFFFFFFFFF AND DUP2 MSTORE PUSH1 0x20 ADD SWAP1 DUP2 MSTORE PUSH1 0x20 ADD PUSH1 0x0 KECCAK256 PUSH1 0x0 PUSH2 0x100 EXP DUP2 SLOAD DUP2 PUSH1 0xFF MUL NOT AND SWAP1 DUP4 ISZERO ISZERO MUL OR SWAP1 SSTORE POP PUSH2 0xE9F DUP1 PUSH2 0x1C3 PUSH1 0x0 CODECOPY PUSH1 0x0 RETURN INVALID PUSH1 0x80 PUSH1 0x40 MSTORE PUSH1 0x4 CALLDATASIZE LT PUSH2 0x74 JUMPI PUSH1 0x0 CALLDATALOAD PUSH1 0xE0 SHR DUP1 PUSH4 0x9ACE38C2 GT PUSH2 0x4E JUMPI DUP1 PUSH4 0x9ACE38C2 EQ PUSH2 0x125 JUMPI DUP1 PUSH4 0xD579B696 EQ PUSH2 0x165 JUMPI DUP1 PUSH4 0xEE22610B EQ PUSH2 0x18E JUMPI DUP1 PUSH4 0xF19A6682 EQ PUSH2 0x1B7 JUMPI PUSH2 0x7B JUMP JUMPDEST DUP1 PUSH4 0x25E7C27 EQ PUSH2 0x80 JUMPI DUP1 PUSH4 0x3349A734 EQ PUSH2 0xBD JUMPI DUP1 PUSH4 0x60C8B28D EQ PUSH2 0xE8 JUMPI PUSH2 0x7B JUMP JUMPDEST CALLDATASIZE PUSH2 0x7B JUMPI STOP JUMPDEST PUSH1 0x0 DUP1 REVERT JUMPDEST CALLVALUE DUP1 ISZERO PUSH2 0x8C JUMPI PUSH1 0x0 DUP1 REVERT JUMPDEST POP PUSH2 0xA7 PUSH1 0x4 DUP1 CALLDATASIZE SUB DUP2 ADD SWAP1 PUSH2 0xA2 SWAP2 SWAP1 PUSH2 0x942 JUMP JUMPDEST PUSH2 0x1E0 JUMP JUMPDEST PUSH1 0x40 MLOAD PUSH2 0xB4 SWAP2 SWAP1 PUSH2 0x9B0 JUMP JUMPDEST PUSH1 0x40 MLOAD DUP1 SWAP2 SUB SWAP1 RETURN JUMPDEST CALLVALUE DUP1 ISZERO PUSH2 0xC9 JUMPI PUSH1 0x0 DUP1 REVERT JUMPDEST POP PUSH2 0xD2 PUSH2 0x21F JUMP JUMPDEST PUSH1 0x40 MLOAD PUSH2 0xDF SWAP2 SWAP1 PUSH2 0x9DA JUMP JUMPDEST PUSH1 0x40 MLOAD DUP1 SWAP2 SUB SWAP1 RETURN JUMPDEST CALLVALUE DUP1 ISZERO PUSH2 0xF4 JUMPI PUSH1 0x0 DUP1 REVERT JUMPDEST POP PUSH2 0x10F PUSH1 0x4 DUP1 CALLDATASIZE SUB DUP2 ADD SWAP1 PUSH2 0x10A SWAP2 SWAP1 PUSH2 0xA21 JUMP JUMPDEST PUSH2 0x225 JUMP JUMPDEST PUSH1 0x40 MLOAD PUSH2 0x11C SWAP2 SWAP1 PUSH2 0xA7C JUMP JUMPDEST PUSH1 0x40 MLOAD DUP1 SWAP2 SUB SWAP1 RETURN JUMPDEST CALLVALUE DUP1 ISZERO PUSH2 0x131 JUMPI PUSH1 0x0 DUP1 REVERT JUMPDEST POP PUSH2 0x14C PUSH1 0x4 DUP1 CALLDATASIZE SUB DUP2 ADD SWAP1 PUSH2 0x147 SWAP2 SWAP1 PUSH2 0x942 JUMP JUMPDEST PUSH2 0x254 JUMP JUMPDEST PUSH1 0x40 MLOAD PUSH2 0x15C SWAP5 SWAP4 SWAP3 SWAP2 SWAP1 PUSH2 0xA97 JUMP JUMPDEST PUSH1 0x40 MLOAD DUP1 SWAP2 SUB SWAP1 RETURN JUMPDEST CALLVALUE DUP1 ISZERO PUSH2 0x171 JUMPI PUSH1 0x0 DUP1 REVERT JUMPDEST POP PUSH2 0x18C PUSH1 0x4 DUP1 CALLDATASIZE SUB DUP2 ADD SWAP1 PUSH2 0x187 SWAP2 SWAP1 PUSH2 0x942 JUMP JUMPDEST PUSH2 0x2C1 JUMP JUMPDEST STOP JUMPDEST CALLVALUE DUP1 ISZERO PUSH2 0x19A JUMPI PUSH1 0x0 DUP1 REVERT JUMPDEST POP PUSH2 0x1B5 PUSH1 0x4 DUP1 CALLDATASIZE SUB DUP2 ADD SWAP1 PUSH2 0x1B0 SWAP2 SWAP1 PUSH2 0x942 JUMP JUMPDEST PUSH2 0x4A1 JUMP JUMPDEST STOP JUMPDEST CALLVALUE DUP1 ISZERO PUSH2 0x1C3 JUMPI PUSH1 0x0 DUP1 REVERT JUMPDEST POP PUSH2 0x1DE PUSH1 0x4 DUP1 CALLDATASIZE SUB DUP2 ADD SWAP1 PUSH2 0x1D9 SWAP2 SWAP1 PUSH2 0xADC JUMP JUMPDEST PUSH2 0x77A JUMP JUMPDEST STOP JUMPDEST PUSH1 0x0 DUP2 DUP2 SLOAD DUP2 LT PUSH2 0x1F0 JUMPI PUSH1 0x0 DUP1 REVERT JUMPDEST SWAP1 PUSH1 0x0 MSTORE PUSH1 0x20 PUSH1 0x0 KECCAK256 ADD PUSH1 0x0 SWAP2 POP SLOAD SWAP1 PUSH2 0x100 EXP SWAP1 DIV PUSH20 0xFFFFFFFFFFFFFFFFFFFFFFFFFFFFFFFFFFFFFFFF AND DUP2 JUMP JUMPDEST PUSH1 0x1 SLOAD DUP2 JUMP JUMPDEST PUSH1 0x3 PUSH1 0x20 MSTORE DUP2 PUSH1 0x0 MSTORE PUSH1 0x40 PUSH1 0x0 KECCAK256 PUSH1 0x20 MSTORE DUP1 PUSH1 0x0 MSTORE PUSH1 0x40 PUSH1 0x0 KECCAK256 PUSH1 0x0 SWAP2 POP SWAP2 POP SWAP1 SLOAD SWAP1 PUSH2 0x100 EXP SWAP1 DIV PUSH1 0xFF AND DUP2 JUMP JUMPDEST PUSH1 0x4 DUP2 DUP2 SLOAD DUP2 LT PUSH2 0x264 JUMPI PUSH1 0x0 DUP1 REVERT JUMPDEST SWAP1 PUSH1 0x0 MSTORE PUSH1 0x20 PUSH1 0x0 KECCAK256 SWAP1 PUSH1 0x4 MUL ADD PUSH1 0x0 SWAP2 POP SWAP1 POP DUP1 PUSH1 0x0 ADD PUSH1 0x0 SWAP1 SLOAD SWAP1 PUSH2 0x100 EXP SWAP1 DIV PUSH20 0xFFFFFFFFFFFFFFFFFFFFFFFFFFFFFFFFFFFFFFFF AND SWAP1 DUP1 PUSH1 0x1 ADD SLOAD SWAP1 DUP1 PUSH1 0x2 ADD PUSH1 0x0 SWAP1 SLOAD SWAP1 PUSH2 0x100 EXP SWAP1 DIV PUSH1 0xFF AND SWAP1 DUP1 PUSH1 0x3 ADD SLOAD SWAP1 POP DUP5 JUMP JUMPDEST PUSH1 0x1 ISZERO ISZERO PUSH1 0x2 PUSH1 0x0 CALLER PUSH20 0xFFFFFFFFFFFFFFFFFFFFFFFFFFFFFFFFFFFFFFFF AND PUSH20 0xFFFFFFFFFFFFFFFFFFFFFFFFFFFFFFFFFFFFFFFF AND DUP2 MSTORE PUSH1 0x20 ADD SWAP1 DUP2 MSTORE PUSH1 0x20 ADD PUSH1 0x0 KECCAK256 PUSH1 0x0 SWAP1 SLOAD SWAP1 PUSH2 0x100 EXP SWAP1 DIV PUSH1 0xFF AND ISZERO ISZERO EQ PUSH2 0x354 JUMPI PUSH1 0x40 MLOAD PUSH32 0x8C379A000000000000000000000000000000000000000000000000000000000 DUP2 MSTORE PUSH1 0x4 ADD PUSH2 0x34B SWAP1 PUSH2 0xB9F JUMP JUMPDEST PUSH1 0x40 MLOAD DUP1 SWAP2 SUB SWAP1 REVERT JUMPDEST PUSH1 0x0 ISZERO ISZERO PUSH1 0x3 PUSH1 0x0 DUP4 DUP2 MSTORE PUSH1 0x20 ADD SWAP1 DUP2 MSTORE PUSH1 0x20 ADD PUSH1 0x0 KECCAK256 PUSH1 0x0 CALLER PUSH20 0xFFFFFFFFFFFFFFFFFFFFFFFFFFFFFFFFFFFFFFFF AND PUSH20 0xFFFFFFFFFFFFFFFFFFFFFFFFFFFFFFFFFFFFFFFF AND DUP2 MSTORE PUSH1 0x20 ADD SWAP1 DUP2 MSTORE PUSH1 0x20 ADD PUSH1 0x0 KECCAK256 PUSH1 0x0 SWAP1 SLOAD SWAP1 PUSH2 0x100 EXP SWAP1 DIV PUSH1 0xFF AND ISZERO ISZERO EQ PUSH2 0x3F8 JUMPI PUSH1 0x40 MLOAD PUSH32 0x8C379A000000000000000000000000000000000000000000000000000000000 DUP2 MSTORE PUSH1 0x4 ADD PUSH2 0x3EF SWAP1 PUSH2 0xC0B JUMP JUMPDEST PUSH1 0x40 MLOAD DUP1 SWAP2 SUB SWAP1 REVERT JUMPDEST PUSH1 0x1 PUSH1 0x4 DUP3 DUP2 SLOAD DUP2 LT PUSH2 0x40E JUMPI PUSH2 0x40D PUSH2 0xC2B JUMP JUMPDEST JUMPDEST SWAP1 PUSH1 0x0 MSTORE PUSH1 0x20 PUSH1 0x0 KECCAK256 SWAP1 PUSH1 0x4 MUL ADD PUSH1 0x3 ADD PUSH1 0x0 DUP3 DUP3 SLOAD PUSH2 0x42E SWAP2 SWAP1 PUSH2 0xC89 JUMP JUMPDEST SWAP3 POP POP DUP2 SWAP1 SSTORE POP PUSH1 0x1 PUSH1 0x3 PUSH1 0x0 DUP4 DUP2 MSTORE PUSH1 0x20 ADD SWAP1 DUP2 MSTORE PUSH1 0x20 ADD PUSH1 0x0 KECCAK256 PUSH1 0x0 CALLER PUSH20 0xFFFFFFFFFFFFFFFFFFFFFFFFFFFFFFFFFFFFFFFF AND PUSH20 0xFFFFFFFFFFFFFFFFFFFFFFFFFFFFFFFFFFFFFFFF AND DUP2 MSTORE PUSH1 0x20 ADD SWAP1 DUP2 MSTORE PUSH1 0x20 ADD PUSH1 0x0 KECCAK256 PUSH1 0x0 PUSH2 0x100 EXP DUP2 SLOAD DUP2 PUSH1 0xFF MUL NOT AND SWAP1 DUP4 ISZERO ISZERO MUL OR SWAP1 SSTORE POP POP JUMP JUMPDEST PUSH1 0x1 ISZERO ISZERO PUSH1 0x2 PUSH1 0x0 CALLER PUSH20 0xFFFFFFFFFFFFFFFFFFFFFFFFFFFFFFFFFFFFFFFF AND PUSH20 0xFFFFFFFFFFFFFFFFFFFFFFFFFFFFFFFFFFFFFFFF AND DUP2 MSTORE PUSH1 0x20 ADD SWAP1 DUP2 MSTORE PUSH1 0x20 ADD PUSH1 0x0 KECCAK256 PUSH1 0x0 SWAP1 SLOAD SWAP1 PUSH2 0x100 EXP SWAP1 DIV PUSH1 0xFF AND ISZERO ISZERO EQ PUSH2 0x534 JUMPI PUSH1 0x40 MLOAD PUSH32 0x8C379A000000000000000000000000000000000000000000000000000000000 DUP2 MSTORE PUSH1 0x4 ADD PUSH2 0x52B SWAP1 PUSH2 0xB9F JUMP JUMPDEST PUSH1 0x40 MLOAD DUP1 SWAP2 SUB SWAP1 REVERT JUMPDEST PUSH1 0x1 SLOAD PUSH1 0x4 DUP3 DUP2 SLOAD DUP2 LT PUSH2 0x54B JUMPI PUSH2 0x54A PUSH2 0xC2B JUMP JUMPDEST JUMPDEST SWAP1 PUSH1 0x0 MSTORE PUSH1 0x20 PUSH1 0x0 KECCAK256 SWAP1 PUSH1 0x4 MUL ADD PUSH1 0x3 ADD SLOAD LT ISZERO PUSH2 0x59E JUMPI PUSH1 0x40 MLOAD PUSH32 0x8C379A000000000000000000000000000000000000000000000000000000000 DUP2 MSTORE PUSH1 0x4 ADD PUSH2 0x595 SWAP1 PUSH2 0xD2B JUMP JUMPDEST PUSH1 0x40 MLOAD DUP1 SWAP2 SUB SWAP1 REVERT JUMPDEST PUSH1 0x0 ISZERO ISZERO PUSH1 0x4 DUP3 DUP2 SLOAD DUP2 LT PUSH2 0x5B6 JUMPI PUSH2 0x5B5 PUSH2 0xC2B JUMP JUMPDEST JUMPDEST SWAP1 PUSH1 0x0 MSTORE PUSH1 0x20 PUSH1 0x0 KECCAK256 SWAP1 PUSH1 0x4 MUL ADD PUSH1 0x2 ADD PUSH1 0x0 SWAP1 SLOAD SWAP1 PUSH2 0x100 EXP SWAP1 DIV PUSH1 0xFF AND ISZERO ISZERO EQ PUSH2 0x617 JUMPI PUSH1 0x40 MLOAD PUSH32 0x8C379A000000000000000000000000000000000000000000000000000000000 DUP2 MSTORE PUSH1 0x4 ADD PUSH2 0x60E SWAP1 PUSH2 0xD97 JUMP JUMPDEST PUSH1 0x40 MLOAD DUP1 SWAP2 SUB SWAP1 REVERT JUMPDEST PUSH1 0x0 PUSH1 0x4 DUP3 DUP2 SLOAD DUP2 LT PUSH2 0x62D JUMPI PUSH2 0x62C PUSH2 0xC2B JUMP JUMPDEST JUMPDEST SWAP1 PUSH1 0x0 MSTORE PUSH1 0x20 PUSH1 0x0 KECCAK256 SWAP1 PUSH1 0x4 MUL ADD PUSH1 0x0 ADD PUSH1 0x0 SWAP1 SLOAD SWAP1 PUSH2 0x100 EXP SWAP1 DIV PUSH20 0xFFFFFFFFFFFFFFFFFFFFFFFFFFFFFFFFFFFFFFFF AND SWAP1 POP PUSH1 0x0 DUP2 PUSH20 0xFFFFFFFFFFFFFFFFFFFFFFFFFFFFFFFFFFFFFFFF AND PUSH1 0x4 DUP5 DUP2 SLOAD DUP2 LT PUSH2 0x68E JUMPI PUSH2 0x68D PUSH2 0xC2B JUMP JUMPDEST JUMPDEST SWAP1 PUSH1 0x0 MSTORE PUSH1 0x20 PUSH1 0x0 KECCAK256 SWAP1 PUSH1 0x4 MUL ADD PUSH1 0x1 ADD SLOAD PUSH2 0x1388 SWAP1 PUSH1 0x40 MLOAD PUSH2 0x6B0 SWAP1 PUSH2 0xDE8 JUMP JUMPDEST PUSH1 0x0 PUSH1 0x40 MLOAD DUP1 DUP4 SUB DUP2 DUP6 DUP9 DUP9 CALL SWAP4 POP POP POP POP RETURNDATASIZE DUP1 PUSH1 0x0 DUP2 EQ PUSH2 0x6EE JUMPI PUSH1 0x40 MLOAD SWAP2 POP PUSH1 0x1F NOT PUSH1 0x3F RETURNDATASIZE ADD AND DUP3 ADD PUSH1 0x40 MSTORE RETURNDATASIZE DUP3 MSTORE RETURNDATASIZE PUSH1 0x0 PUSH1 0x20 DUP5 ADD RETURNDATACOPY PUSH2 0x6F3 JUMP JUMPDEST PUSH1 0x60 SWAP2 POP JUMPDEST POP POP SWAP1 POP DUP1 PUSH2 0x737 JUMPI PUSH1 0x40 MLOAD PUSH32 0x8C379A000000000000000000000000000000000000000000000000000000000 DUP2 MSTORE PUSH1 0x4 ADD PUSH2 0x72E SWAP1 PUSH2 0xE49 JUMP JUMPDEST PUSH1 0x40 MLOAD DUP1 SWAP2 SUB SWAP1 REVERT JUMPDEST PUSH1 0x1 PUSH1 0x4 DUP5 DUP2 SLOAD DUP2 LT PUSH2 0x74D JUMPI PUSH2 0x74C PUSH2 0xC2B JUMP JUMPDEST JUMPDEST SWAP1 PUSH1 0x0 MSTORE PUSH1 0x20 PUSH1 0x0 KECCAK256 SWAP1 PUSH1 0x4 MUL ADD PUSH1 0x2 ADD PUSH1 0x0 PUSH2 0x100 EXP DUP2 SLOAD DUP2 PUSH1 0xFF MUL NOT AND SWAP1 DUP4 ISZERO ISZERO MUL OR SWAP1 SSTORE POP POP POP POP JUMP JUMPDEST PUSH1 0x1 ISZERO ISZERO PUSH1 0x2 PUSH1 0x0 CALLER PUSH20 0xFFFFFFFFFFFFFFFFFFFFFFFFFFFFFFFFFFFFFFFF AND PUSH20 0xFFFFFFFFFFFFFFFFFFFFFFFFFFFFFFFFFFFFFFFF AND DUP2 MSTORE PUSH1 0x20 ADD SWAP1 DUP2 MSTORE PUSH1 0x20 ADD PUSH1 0x0 KECCAK256 PUSH1 0x0 SWAP1 SLOAD SWAP1 PUSH2 0x100 EXP SWAP1 DIV PUSH1 0xFF AND ISZERO ISZERO EQ PUSH2 0x80D JUMPI PUSH1 0x40 MLOAD PUSH32 0x8C379A000000000000000000000000000000000000000000000000000000000 DUP2 MSTORE PUSH1 0x4 ADD PUSH2 0x804 SWAP1 PUSH2 0xB9F JUMP JUMPDEST PUSH1 0x40 MLOAD DUP1 SWAP2 SUB SWAP1 REVERT JUMPDEST PUSH1 0x4 PUSH1 0x40 MLOAD DUP1 PUSH1 0x80 ADD PUSH1 0x40 MSTORE DUP1 DUP5 PUSH20 0xFFFFFFFFFFFFFFFFFFFFFFFFFFFFFFFFFFFFFFFF AND DUP2 MSTORE PUSH1 0x20 ADD PUSH8 0xDE0B6B3A7640000 DUP5 PUSH2 0x84A SWAP2 SWAP1 PUSH2 0xC89 JUMP JUMPDEST DUP2 MSTORE PUSH1 0x20 ADD PUSH1 0x0 ISZERO ISZERO DUP2 MSTORE PUSH1 0x20 ADD PUSH1 0x0 DUP2 MSTORE POP SWAP1 DUP1 PUSH1 0x1 DUP2 SLOAD ADD DUP1 DUP3 SSTORE DUP1 SWAP2 POP POP PUSH1 0x1 SWAP1 SUB SWAP1 PUSH1 0x0 MSTORE PUSH1 0x20 PUSH1 0x0 KECCAK256 SWAP1 PUSH1 0x4 MUL ADD PUSH1 0x0 SWAP1 SWAP2 SWAP1 SWAP2 SWAP1 SWAP2 POP PUSH1 0x0 DUP3 ADD MLOAD DUP2 PUSH1 0x0 ADD PUSH1 0x0 PUSH2 0x100 EXP DUP2 SLOAD DUP2 PUSH20 0xFFFFFFFFFFFFFFFFFFFFFFFFFFFFFFFFFFFFFFFF MUL NOT AND SWAP1 DUP4 PUSH20 0xFFFFFFFFFFFFFFFFFFFFFFFFFFFFFFFFFFFFFFFF AND MUL OR SWAP1 SSTORE POP PUSH1 0x20 DUP3 ADD MLOAD DUP2 PUSH1 0x1 ADD SSTORE PUSH1 0x40 DUP3 ADD MLOAD DUP2 PUSH1 0x2 ADD PUSH1 0x0 PUSH2 0x100 EXP DUP2 SLOAD DUP2 PUSH1 0xFF MUL NOT AND SWAP1 DUP4 ISZERO ISZERO MUL OR SWAP1 SSTORE POP PUSH1 0x60 DUP3 ADD MLOAD DUP2 PUSH1 0x3 ADD SSTORE POP POP POP POP JUMP JUMPDEST PUSH1 0x0 DUP1 REVERT JUMPDEST PUSH1 0x0 DUP2 SWAP1 POP SWAP2 SWAP1 POP JUMP JUMPDEST PUSH2 0x91F DUP2 PUSH2 0x90C JUMP JUMPDEST DUP2 EQ PUSH2 0x92A JUMPI PUSH1 0x0 DUP1 REVERT JUMPDEST POP JUMP JUMPDEST PUSH1 0x0 DUP2 CALLDATALOAD SWAP1 POP PUSH2 0x93C DUP2 PUSH2 0x916 JUMP JUMPDEST SWAP3 SWAP2 POP POP JUMP JUMPDEST PUSH1 0x0 PUSH1 0x20 DUP3 DUP5 SUB SLT ISZERO PUSH2 0x958 JUMPI PUSH2 0x957 PUSH2 0x907 JUMP JUMPDEST JUMPDEST PUSH1 0x0 PUSH2 0x966 DUP5 DUP3 DUP6 ADD PUSH2 0x92D JUMP JUMPDEST SWAP2 POP POP SWAP3 SWAP2 POP POP JUMP JUMPDEST PUSH1 0x0 PUSH20 0xFFFFFFFFFFFFFFFFFFFFFFFFFFFFFFFFFFFFFFFF DUP3 AND SWAP1 POP SWAP2 SWAP1 POP JUMP JUMPDEST PUSH1 0x0 PUSH2 0x99A DUP3 PUSH2 0x96F JUMP JUMPDEST SWAP1 POP SWAP2 SWAP1 POP JUMP JUMPDEST PUSH2 0x9AA DUP2 PUSH2 0x98F JUMP JUMPDEST DUP3 MSTORE POP POP JUMP JUMPDEST PUSH1 0x0 PUSH1 0x20 DUP3 ADD SWAP1 POP PUSH2 0x9C5 PUSH1 0x0 DUP4 ADD DUP5 PUSH2 0x9A1 JUMP JUMPDEST SWAP3 SWAP2 POP POP JUMP JUMPDEST PUSH2 0x9D4 DUP2 PUSH2 0x90C JUMP JUMPDEST DUP3 MSTORE POP POP JUMP JUMPDEST PUSH1 0x0 PUSH1 0x20 DUP3 ADD SWAP1 POP PUSH2 0x9EF PUSH1 0x0 DUP4 ADD DUP5 PUSH2 0x9CB JUMP JUMPDEST SWAP3 SWAP2 POP POP JUMP JUMPDEST PUSH2 0x9FE DUP2 PUSH2 0x98F JUMP JUMPDEST DUP2 EQ PUSH2 0xA09 JUMPI PUSH1 0x0 DUP1 REVERT JUMPDEST POP JUMP JUMPDEST PUSH1 0x0 DUP2 CALLDATALOAD SWAP1 POP PUSH2 0xA1B DUP2 PUSH2 0x9F5 JUMP JUMPDEST SWAP3 SWAP2 POP POP JUMP JUMPDEST PUSH1 0x0 DUP1 PUSH1 0x40 DUP4 DUP6 SUB SLT ISZERO PUSH2 0xA38 JUMPI PUSH2 0xA37 PUSH2 0x907 JUMP JUMPDEST JUMPDEST PUSH1 0x0 PUSH2 0xA46 DUP6 DUP3 DUP7 ADD PUSH2 0x92D JUMP JUMPDEST SWAP3 POP POP PUSH1 0x20 PUSH2 0xA57 DUP6 DUP3 DUP7 ADD PUSH2 0xA0C JUMP JUMPDEST SWAP2 POP POP SWAP3 POP SWAP3 SWAP1 POP JUMP JUMPDEST PUSH1 0x0 DUP2 ISZERO ISZERO SWAP1 POP SWAP2 SWAP1 POP JUMP JUMPDEST PUSH2 0xA76 DUP2 PUSH2 0xA61 JUMP JUMPDEST DUP3 MSTORE POP POP JUMP JUMPDEST PUSH1 0x0 PUSH1 0x20 DUP3 ADD SWAP1 POP PUSH2 0xA91 PUSH1 0x0 DUP4 ADD DUP5 PUSH2 0xA6D JUMP JUMPDEST SWAP3 SWAP2 POP POP JUMP JUMPDEST PUSH1 0x0 PUSH1 0x80 DUP3 ADD SWAP1 POP PUSH2 0xAAC PUSH1 0x0 DUP4 ADD DUP8 PUSH2 0x9A1 JUMP JUMPDEST PUSH2 0xAB9 PUSH1 0x20 DUP4 ADD DUP7 PUSH2 0x9CB JUMP JUMPDEST PUSH2 0xAC6 PUSH1 0x40 DUP4 ADD DUP6 PUSH2 0xA6D JUMP JUMPDEST PUSH2 0xAD3 PUSH1 0x60 DUP4 ADD DUP5 PUSH2 0x9CB JUMP JUMPDEST SWAP6 SWAP5 POP POP POP POP POP JUMP JUMPDEST PUSH1 0x0 DUP1 PUSH1 0x40 DUP4 DUP6 SUB SLT ISZERO PUSH2 0xAF3 JUMPI PUSH2 0xAF2 PUSH2 0x907 JUMP JUMPDEST JUMPDEST PUSH1 0x0 PUSH2 0xB01 DUP6 DUP3 DUP7 ADD PUSH2 0xA0C JUMP JUMPDEST SWAP3 POP POP PUSH1 0x20 PUSH2 0xB12 DUP6 DUP3 DUP7 ADD PUSH2 0x92D JUMP JUMPDEST SWAP2 POP POP SWAP3 POP SWAP3 SWAP1 POP JUMP JUMPDEST PUSH1 0x0 DUP3 DUP3 MSTORE PUSH1 0x20 DUP3 ADD SWAP1 POP SWAP3 SWAP2 POP POP JUMP JUMPDEST PUSH32 0x596F7572277265206E6F7420616E206F776E6572206F6620746869732077616C PUSH1 0x0 DUP3 ADD MSTORE PUSH32 0x6C65740000000000000000000000000000000000000000000000000000000000 PUSH1 0x20 DUP3 ADD MSTORE POP JUMP JUMPDEST PUSH1 0x0 PUSH2 0xB89 PUSH1 0x23 DUP4 PUSH2 0xB1C JUMP JUMPDEST SWAP2 POP PUSH2 0xB94 DUP3 PUSH2 0xB2D JUMP JUMPDEST PUSH1 0x40 DUP3 ADD SWAP1 POP SWAP2 SWAP1 POP JUMP JUMPDEST PUSH1 0x0 PUSH1 0x20 DUP3 ADD SWAP1 POP DUP2 DUP2 SUB PUSH1 0x0 DUP4 ADD MSTORE PUSH2 0xBB8 DUP2 PUSH2 0xB7C JUMP JUMPDEST SWAP1 POP SWAP2 SWAP1 POP JUMP JUMPDEST PUSH32 0x596F7527766520616C726561647920766F746564000000000000000000000000 PUSH1 0x0 DUP3 ADD MSTORE POP JUMP JUMPDEST PUSH1 0x0 PUSH2 0xBF5 PUSH1 0x14 DUP4 PUSH2 0xB1C JUMP JUMPDEST SWAP2 POP PUSH2 0xC00 DUP3 PUSH2 0xBBF JUMP JUMPDEST PUSH1 0x20 DUP3 ADD SWAP1 POP SWAP2 SWAP1 POP JUMP JUMPDEST PUSH1 0x0 PUSH1 0x20 DUP3 ADD SWAP1 POP DUP2 DUP2 SUB PUSH1 0x0 DUP4 ADD MSTORE PUSH2 0xC24 DUP2 PUSH2 0xBE8 JUMP JUMPDEST SWAP1 POP SWAP2 SWAP1 POP JUMP JUMPDEST PUSH32 0x4E487B7100000000000000000000000000000000000000000000000000000000 PUSH1 0x0 MSTORE PUSH1 0x32 PUSH1 0x4 MSTORE PUSH1 0x24 PUSH1 0x0 REVERT JUMPDEST PUSH32 0x4E487B7100000000000000000000000000000000000000000000000000000000 PUSH1 0x0 MSTORE PUSH1 0x11 PUSH1 0x4 MSTORE PUSH1 0x24 PUSH1 0x0 REVERT JUMPDEST PUSH1 0x0 PUSH2 0xC94 DUP3 PUSH2 0x90C JUMP JUMPDEST SWAP2 POP PUSH2 0xC9F DUP4 PUSH2 0x90C JUMP JUMPDEST SWAP3 POP DUP3 PUSH32 0xFFFFFFFFFFFFFFFFFFFFFFFFFFFFFFFFFFFFFFFFFFFFFFFFFFFFFFFFFFFFFFFF SUB DUP3 GT ISZERO PUSH2 0xCD4 JUMPI PUSH2 0xCD3 PUSH2 0xC5A JUMP JUMPDEST JUMPDEST DUP3 DUP3 ADD SWAP1 POP SWAP3 SWAP2 POP POP JUMP JUMPDEST PUSH32 0x4E6F7420656E6F75676820617070726F76616C73000000000000000000000000 PUSH1 0x0 DUP3 ADD MSTORE POP JUMP JUMPDEST PUSH1 0x0 PUSH2 0xD15 PUSH1 0x14 DUP4 PUSH2 0xB1C JUMP JUMPDEST SWAP2 POP PUSH2 0xD20 DUP3 PUSH2 0xCDF JUMP JUMPDEST PUSH1 0x20 DUP3 ADD SWAP1 POP SWAP2 SWAP1 POP JUMP JUMPDEST PUSH1 0x0 PUSH1 0x20 DUP3 ADD SWAP1 POP DUP2 DUP2 SUB PUSH1 0x0 DUP4 ADD MSTORE PUSH2 0xD44 DUP2 PUSH2 0xD08 JUMP JUMPDEST SWAP1 POP SWAP2 SWAP1 POP JUMP JUMPDEST PUSH32 0x416C726561647920766F74656400000000000000000000000000000000000000 PUSH1 0x0 DUP3 ADD MSTORE POP JUMP JUMPDEST PUSH1 0x0 PUSH2 0xD81 PUSH1 0xD DUP4 PUSH2 0xB1C JUMP JUMPDEST SWAP2 POP PUSH2 0xD8C DUP3 PUSH2 0xD4B JUMP JUMPDEST PUSH1 0x20 DUP3 ADD SWAP1 POP SWAP2 SWAP1 POP JUMP JUMPDEST PUSH1 0x0 PUSH1 0x20 DUP3 ADD SWAP1 POP DUP2 DUP2 SUB PUSH1 0x0 DUP4 ADD MSTORE PUSH2 0xDB0 DUP2 PUSH2 0xD74 JUMP JUMPDEST SWAP1 POP SWAP2 SWAP1 POP JUMP JUMPDEST PUSH1 0x0 DUP2 SWAP1 POP SWAP3 SWAP2 POP POP JUMP JUMPDEST POP JUMP JUMPDEST PUSH1 0x0 PUSH2 0xDD2 PUSH1 0x0 DUP4 PUSH2 0xDB7 JUMP JUMPDEST SWAP2 POP PUSH2 0xDDD DUP3 PUSH2 0xDC2 JUMP JUMPDEST PUSH1 0x0 DUP3 ADD SWAP1 POP SWAP2 SWAP1 POP JUMP JUMPDEST PUSH1 0x0 PUSH2 0xDF3 DUP3 PUSH2 0xDC5 JUMP JUMPDEST SWAP2 POP DUP2 SWAP1 POP SWAP2 SWAP1 POP JUMP JUMPDEST PUSH32 0x596F7520646F6E2774206861766520656E6F75676820746F6B656E7300000000 PUSH1 0x0 DUP3 ADD MSTORE POP JUMP JUMPDEST PUSH1 0x0 PUSH2 0xE33 PUSH1 0x1C DUP4 PUSH2 0xB1C JUMP JUMPDEST SWAP2 POP PUSH2 0xE3E DUP3 PUSH2 0xDFD JUMP JUMPDEST PUSH1 0x20 DUP3 ADD SWAP1 POP SWAP2 SWAP1 POP JUMP JUMPDEST PUSH1 0x0 PUSH1 0x20 DUP3 ADD SWAP1 POP DUP2 DUP2 SUB PUSH1 0x0 DUP4 ADD MSTORE PUSH2 0xE62 DUP2 PUSH2 0xE26 JUMP JUMPDEST SWAP1 POP SWAP2 SWAP1 POP JUMP INVALID LOG2 PUSH5 0x6970667358 0x22 SLT KECCAK256 PUSH15 0xD381FE431B9544D1E4F29DF29EFBB4 AND 0xE0 0xC3 0xF9 0xBA GT 0x5C DUP15 MULMOD JUMPI 0x2A SWAP14 0xAD ADDMOD DUP10 0xCA PUSH5 0x736F6C6343 STOP ADDMOD 0xD STOP CALLER "
		},
		"gasEstimates": {
			"creation": {
				"codeDepositCost": "748600",
				"executionCost": "168755",
				"totalCost": "917355"
			},
			"external": {
				"alreadyVoted(uint256,address)": "3132",
				"approvalsNeeded()": "2452",
				"executeTransaction(uint256)": "infinite",
				"owners(uint256)": "4957",
				"proposeTransaction(address,uint256)": "infinite",
				"transactions(uint256)": "infinite",
				"voteOnTransaction(uint256)": "infinite"
			}
		},
		"methodIdentifiers": {
			"alreadyVoted(uint256,address)": "60c8b28d",
			"approvalsNeeded()": "3349a734",
			"executeTransaction(uint256)": "ee22610b",
			"owners(uint256)": "025e7c27",
			"proposeTransaction(address,uint256)": "f19a6682",
			"transactions(uint256)": "9ace38c2",
			"voteOnTransaction(uint256)": "d579b696"
		}
	},
	"abi": [
		{
			"inputs": [],
			"stateMutability": "nonpayable",
			"type": "constructor"
		},
		{
			"inputs": [
				{
					"internalType": "uint256",
					"name": "",
					"type": "uint256"
				},
				{
					"internalType": "address",
					"name": "",
					"type": "address"
				}
			],
			"name": "alreadyVoted",
			"outputs": [
				{
					"internalType": "bool",
					"name": "",
					"type": "bool"
				}
			],
			"stateMutability": "view",
			"type": "function"
		},
		{
			"inputs": [],
			"name": "approvalsNeeded",
			"outputs": [
				{
					"internalType": "uint256",
					"name": "",
					"type": "uint256"
				}
			],
			"stateMutability": "view",
			"type": "function"
		},
		{
			"inputs": [
				{
					"internalType": "uint256",
					"name": "index",
					"type": "uint256"
				}
			],
			"name": "executeTransaction",
			"outputs": [],
			"stateMutability": "nonpayable",
			"type": "function"
		},
		{
			"inputs": [
				{
					"internalType": "uint256",
					"name": "",
					"type": "uint256"
				}
			],
			"name": "owners",
			"outputs": [
				{
					"internalType": "address",
					"name": "",
					"type": "address"
				}
			],
			"stateMutability": "view",
			"type": "function"
		},
		{
			"inputs": [
				{
					"internalType": "address",
					"name": "to",
					"type": "address"
				},
				{
					"internalType": "uint256",
					"name": "amount",
					"type": "uint256"
				}
			],
			"name": "proposeTransaction",
			"outputs": [],
			"stateMutability": "nonpayable",
			"type": "function"
		},
		{
			"inputs": [
				{
					"internalType": "uint256",
					"name": "",
					"type": "uint256"
				}
			],
			"name": "transactions",
			"outputs": [
				{
					"internalType": "address",
					"name": "sendingTo",
					"type": "address"
				},
				{
					"internalType": "uint256",
					"name": "value",
					"type": "uint256"
				},
				{
					"internalType": "bool",
					"name": "alreadyExecuted",
					"type": "bool"
				},
				{
					"internalType": "uint256",
					"name": "approvals",
					"type": "uint256"
				}
			],
			"stateMutability": "view",
			"type": "function"
		},
		{
			"inputs": [
				{
					"internalType": "uint256",
					"name": "index",
					"type": "uint256"
				}
			],
			"name": "voteOnTransaction",
			"outputs": [],
			"stateMutability": "nonpayable",
			"type": "function"
		},
		{
			"stateMutability": "payable",
			"type": "receive"
		}
	]
}