{
	"data": {
		"bytecode": {
			"linkReferences": {},
			"object": "6080604052603c42610011919061007a565b6000556000600160006101000a81548160ff02191690831515021790555034801561003b57600080fd5b506100d0565b6000819050919050565b7f4e487b7100000000000000000000000000000000000000000000000000000000600052601160045260246000fd5b600061008582610041565b915061009083610041565b9250827fffffffffffffffffffffffffffffffffffffffffffffffffffffffffffffffff038211156100c5576100c461004b565b5b828201905092915050565b6101a2806100df6000396000f3fe608060405234801561001057600080fd5b506004361061004c5760003560e01c8063557ed1ba14610051578063790ca4131461006f578063beb9716d1461008d578063eeb9635c146100ab575b600080fd5b6100596100b5565b604051610066919061011b565b60405180910390f35b6100776100bd565b604051610084919061011b565b60405180910390f35b6100956100c3565b6040516100a29190610151565b60405180910390f35b6100b36100d6565b005b600042905090565b60005481565b600160009054906101000a900460ff1681565b4260005410156100ff5760018060006101000a81548160ff021916908315150217905550610100565b5b565b6000819050919050565b61011581610102565b82525050565b6000602082019050610130600083018461010c565b92915050565b60008115159050919050565b61014b81610136565b82525050565b60006020820190506101666000830184610142565b9291505056fea2646970667358221220ea501b4c591306704e37406150257ef702b1a9e9c378e46dfe6a38423efc23e764736f6c634300080d0033",
			"opcodes": "PUSH1 0x80 PUSH1 0x40 MSTORE PUSH1 0x3C TIMESTAMP PUSH2 0x11 SWAP2 SWAP1 PUSH2 0x7A JUMP JUMPDEST PUSH1 0x0 SSTORE PUSH1 0x0 PUSH1 0x1 PUSH1 0x0 PUSH2 0x100 EXP DUP2 SLOAD DUP2 PUSH1 0xFF MUL NOT AND SWAP1 DUP4 ISZERO ISZERO MUL OR SWAP1 SSTORE POP CALLVALUE DUP1 ISZERO PUSH2 0x3B JUMPI PUSH1 0x0 DUP1 REVERT JUMPDEST POP PUSH2 0xD0 JUMP JUMPDEST PUSH1 0x0 DUP2 SWAP1 POP SWAP2 SWAP1 POP JUMP JUMPDEST PUSH32 0x4E487B7100000000000000000000000000000000000000000000000000000000 PUSH1 0x0 MSTORE PUSH1 0x11 PUSH1 0x4 MSTORE PUSH1 0x24 PUSH1 0x0 REVERT JUMPDEST PUSH1 0x0 PUSH2 0x85 DUP3 PUSH2 0x41 JUMP JUMPDEST SWAP2 POP PUSH2 0x90 DUP4 PUSH2 0x41 JUMP JUMPDEST SWAP3 POP DUP3 PUSH32 0xFFFFFFFFFFFFFFFFFFFFFFFFFFFFFFFFFFFFFFFFFFFFFFFFFFFFFFFFFFFFFFFF SUB DUP3 GT ISZERO PUSH2 0xC5 JUMPI PUSH2 0xC4 PUSH2 0x4B JUMP JUMPDEST JUMPDEST DUP3 DUP3 ADD SWAP1 POP SWAP3 SWAP2 POP POP JUMP JUMPDEST PUSH2 0x1A2 DUP1 PUSH2 0xDF PUSH1 0x0 CODECOPY PUSH1 0x0 RETURN INVALID PUSH1 0x80 PUSH1 0x40 MSTORE CALLVALUE DUP1 ISZERO PUSH2 0x10 JUMPI PUSH1 0x0 DUP1 REVERT JUMPDEST POP PUSH1 0x4 CALLDATASIZE LT PUSH2 0x4C JUMPI PUSH1 0x0 CALLDATALOAD PUSH1 0xE0 SHR DUP1 PUSH4 0x557ED1BA EQ PUSH2 0x51 JUMPI DUP1 PUSH4 0x790CA413 EQ PUSH2 0x6F JUMPI DUP1 PUSH4 0xBEB9716D EQ PUSH2 0x8D JUMPI DUP1 PUSH4 0xEEB9635C EQ PUSH2 0xAB JUMPI JUMPDEST PUSH1 0x0 DUP1 REVERT JUMPDEST PUSH2 0x59 PUSH2 0xB5 JUMP JUMPDEST PUSH1 0x40 MLOAD PUSH2 0x66 SWAP2 SWAP1 PUSH2 0x11B JUMP JUMPDEST PUSH1 0x40 MLOAD DUP1 SWAP2 SUB SWAP1 RETURN JUMPDEST PUSH2 0x77 PUSH2 0xBD JUMP JUMPDEST PUSH1 0x40 MLOAD PUSH2 0x84 SWAP2 SWAP1 PUSH2 0x11B JUMP JUMPDEST PUSH1 0x40 MLOAD DUP1 SWAP2 SUB SWAP1 RETURN JUMPDEST PUSH2 0x95 PUSH2 0xC3 JUMP JUMPDEST PUSH1 0x40 MLOAD PUSH2 0xA2 SWAP2 SWAP1 PUSH2 0x151 JUMP JUMPDEST PUSH1 0x40 MLOAD DUP1 SWAP2 SUB SWAP1 RETURN JUMPDEST PUSH2 0xB3 PUSH2 0xD6 JUMP JUMPDEST STOP JUMPDEST PUSH1 0x0 TIMESTAMP SWAP1 POP SWAP1 JUMP JUMPDEST PUSH1 0x0 SLOAD DUP2 JUMP JUMPDEST PUSH1 0x1 PUSH1 0x0 SWAP1 SLOAD SWAP1 PUSH2 0x100 EXP SWAP1 DIV PUSH1 0xFF AND DUP2 JUMP JUMPDEST TIMESTAMP PUSH1 0x0 SLOAD LT ISZERO PUSH2 0xFF JUMPI PUSH1 0x1 DUP1 PUSH1 0x0 PUSH2 0x100 EXP DUP2 SLOAD DUP2 PUSH1 0xFF MUL NOT AND SWAP1 DUP4 ISZERO ISZERO MUL OR SWAP1 SSTORE POP PUSH2 0x100 JUMP JUMPDEST JUMPDEST JUMP JUMPDEST PUSH1 0x0 DUP2 SWAP1 POP SWAP2 SWAP1 POP JUMP JUMPDEST PUSH2 0x115 DUP2 PUSH2 0x102 JUMP JUMPDEST DUP3 MSTORE POP POP JUMP JUMPDEST PUSH1 0x0 PUSH1 0x20 DUP3 ADD SWAP1 POP PUSH2 0x130 PUSH1 0x0 DUP4 ADD DUP5 PUSH2 0x10C JUMP JUMPDEST SWAP3 SWAP2 POP POP JUMP JUMPDEST PUSH1 0x0 DUP2 ISZERO ISZERO SWAP1 POP SWAP2 SWAP1 POP JUMP JUMPDEST PUSH2 0x14B DUP2 PUSH2 0x136 JUMP JUMPDEST DUP3 MSTORE POP POP JUMP JUMPDEST PUSH1 0x0 PUSH1 0x20 DUP3 ADD SWAP1 POP PUSH2 0x166 PUSH1 0x0 DUP4 ADD DUP5 PUSH2 0x142 JUMP JUMPDEST SWAP3 SWAP2 POP POP JUMP INVALID LOG2 PUSH5 0x6970667358 0x22 SLT KECCAK256 0xEA POP SHL 0x4C MSIZE SGT MOD PUSH17 0x4E37406150257EF702B1A9E9C378E46DFE PUSH11 0x38423EFC23E764736F6C63 NUMBER STOP ADDMOD 0xD STOP CALLER "
		},
		"gasEstimates": {
			"creation": {
				"codeDepositCost": "83600",
				"executionCost": "infinite",
				"totalCost": "infinite"
			},
			"external": {
				"canMint()": "2493",
				"getTime()": "314",
				"launchTime()": "2429",
				"mintTokens()": "26591"
			}
		},
		"methodIdentifiers": {
			"canMint()": "beb9716d",
			"getTime()": "557ed1ba",
			"launchTime()": "790ca413",
			"mintTokens()": "eeb9635c"
		}
	},
	"abi": [
		{
			"inputs": [],
			"name": "canMint",
			"outputs": [
				{
					"internalType": "bool",
					"name": "",
					"type": "bool"
				}
			],
			"stateMutability": "view",
			"type": "function"
		},
		{
			"inputs": [],
			"name": "getTime",
			"outputs": [
				{
					"internalType": "uint256",
					"name": "",
					"type": "uint256"
				}
			],
			"stateMutability": "view",
			"type": "function"
		},
		{
			"inputs": [],
			"name": "launchTime",
			"outputs": [
				{
					"internalType": "uint256",
					"name": "",
					"type": "uint256"
				}
			],
			"stateMutability": "view",
			"type": "function"
		},
		{
			"inputs": [],
			"name": "mintTokens",
			"outputs": [],
			"stateMutability": "nonpayable",
			"type": "function"
		}
	]
}