{
	"udemy solidity course - complete DApp/Build a Basic Token/basic_token.sol": {
		"basicToken": {
			"abi": [
				{
					"inputs": [
						{
							"internalType": "uint256",
							"name": "_totalSupply",
							"type": "uint256"
						}
					],
					"stateMutability": "nonpayable",
					"type": "constructor"
				},
				{
					"anonymous": false,
					"inputs": [
						{
							"indexed": true,
							"internalType": "address",
							"name": "from",
							"type": "address"
						},
						{
							"indexed": true,
							"internalType": "address",
							"name": "to",
							"type": "address"
						},
						{
							"indexed": false,
							"internalType": "uint256",
							"name": "amount",
							"type": "uint256"
						}
					],
					"name": "Sent",
					"type": "event"
				},
				{
					"inputs": [
						{
							"internalType": "address",
							"name": "",
							"type": "address"
						}
					],
					"name": "balances",
					"outputs": [
						{
							"internalType": "uint256",
							"name": "",
							"type": "uint256"
						}
					],
					"stateMutability": "view",
					"type": "function"
				},
				{
					"inputs": [],
					"name": "burnedTokens",
					"outputs": [
						{
							"internalType": "uint256",
							"name": "",
							"type": "uint256"
						}
					],
					"stateMutability": "view",
					"type": "function"
				},
				{
					"inputs": [],
					"name": "currentSupply",
					"outputs": [
						{
							"internalType": "uint256",
							"name": "",
							"type": "uint256"
						}
					],
					"stateMutability": "view",
					"type": "function"
				},
				{
					"inputs": [],
					"name": "getBlockTime",
					"outputs": [
						{
							"internalType": "uint256",
							"name": "",
							"type": "uint256"
						}
					],
					"stateMutability": "view",
					"type": "function"
				},
				{
					"inputs": [
						{
							"internalType": "address",
							"name": "to",
							"type": "address"
						},
						{
							"internalType": "uint256",
							"name": "amount",
							"type": "uint256"
						}
					],
					"name": "mint",
					"outputs": [],
					"stateMutability": "payable",
					"type": "function"
				},
				{
					"inputs": [],
					"name": "name",
					"outputs": [
						{
							"internalType": "string",
							"name": "",
							"type": "string"
						}
					],
					"stateMutability": "view",
					"type": "function"
				},
				{
					"inputs": [],
					"name": "owner",
					"outputs": [
						{
							"internalType": "address",
							"name": "",
							"type": "address"
						}
					],
					"stateMutability": "view",
					"type": "function"
				},
				{
					"inputs": [],
					"name": "remainingSupply",
					"outputs": [
						{
							"internalType": "uint256",
							"name": "",
							"type": "uint256"
						}
					],
					"stateMutability": "view",
					"type": "function"
				},
				{
					"inputs": [],
					"name": "symbol",
					"outputs": [
						{
							"internalType": "string",
							"name": "",
							"type": "string"
						}
					],
					"stateMutability": "view",
					"type": "function"
				},
				{
					"inputs": [],
					"name": "totalSupply",
					"outputs": [
						{
							"internalType": "uint256",
							"name": "",
							"type": "uint256"
						}
					],
					"stateMutability": "view",
					"type": "function"
				},
				{
					"inputs": [
						{
							"internalType": "address",
							"name": "to",
							"type": "address"
						},
						{
							"internalType": "uint256",
							"name": "amount",
							"type": "uint256"
						}
					],
					"name": "transfer",
					"outputs": [],
					"stateMutability": "nonpayable",
					"type": "function"
				}
			],
			"devdoc": {
				"kind": "dev",
				"methods": {},
				"version": 1
			},
			"evm": {
				"assembly": "    /* \"udemy solidity course - complete DApp/Build a Basic Token/basic_token.sol\":269:2869  contract basicToken {... */\n  mstore(0x40, 0x80)\n    /* \"udemy solidity course - complete DApp/Build a Basic Token/basic_token.sol\":586:595  5 minutes */\n  0x012c\n    /* \"udemy solidity course - complete DApp/Build a Basic Token/basic_token.sol\":569:595  uint blockTime = 5 minutes */\n  0x05\n  sstore\n    /* \"udemy solidity course - complete DApp/Build a Basic Token/basic_token.sol\":743:923  constructor(uint _totalSupply) {... */\n  callvalue\n  dup1\n  iszero\n  tag_1\n  jumpi\n  0x00\n  dup1\n  revert\ntag_1:\n  pop\n  mload(0x40)\n  sub(codesize, bytecodeSize)\n  dup1\n  bytecodeSize\n  dup4\n  codecopy\n  dup2\n  dup2\n  add\n  0x40\n  mstore\n  dup2\n  add\n  swap1\n  tag_2\n  swap2\n  swap1\n  tag_3\n  jump\t// in\ntag_2:\n    /* \"udemy solidity course - complete DApp/Build a Basic Token/basic_token.sol\":831:841  msg.sender */\n  caller\n    /* \"udemy solidity course - complete DApp/Build a Basic Token/basic_token.sol\":823:828  owner */\n  0x00\n  dup1\n    /* \"udemy solidity course - complete DApp/Build a Basic Token/basic_token.sol\":823:841  owner = msg.sender */\n  0x0100\n  exp\n  dup2\n  sload\n  dup2\n  0xffffffffffffffffffffffffffffffffffffffff\n  mul\n  not\n  and\n  swap1\n  dup4\n  0xffffffffffffffffffffffffffffffffffffffff\n  and\n  mul\n  or\n  swap1\n  sstore\n  pop\n    /* \"udemy solidity course - complete DApp/Build a Basic Token/basic_token.sol\":865:880  block.timestamp */\n  timestamp\n    /* \"udemy solidity course - complete DApp/Build a Basic Token/basic_token.sol\":851:862  genesisDate */\n  0x04\n    /* \"udemy solidity course - complete DApp/Build a Basic Token/basic_token.sol\":851:880  genesisDate = block.timestamp */\n  dup2\n  swap1\n  sstore\n  pop\n    /* \"udemy solidity course - complete DApp/Build a Basic Token/basic_token.sol\":904:916  _totalSupply */\n  dup1\n    /* \"udemy solidity course - complete DApp/Build a Basic Token/basic_token.sol\":890:901  blockReward */\n  0x06\n    /* \"udemy solidity course - complete DApp/Build a Basic Token/basic_token.sol\":890:916  blockReward = _totalSupply */\n  dup2\n  swap1\n  sstore\n  pop\n    /* \"udemy solidity course - complete DApp/Build a Basic Token/basic_token.sol\":743:923  constructor(uint _totalSupply) {... */\n  pop\n    /* \"udemy solidity course - complete DApp/Build a Basic Token/basic_token.sol\":269:2869  contract basicToken {... */\n  jump(tag_6)\n    /* \"#utility.yul\":88:205   */\ntag_8:\n    /* \"#utility.yul\":197:198   */\n  0x00\n    /* \"#utility.yul\":194:195   */\n  dup1\n    /* \"#utility.yul\":187:199   */\n  revert\n    /* \"#utility.yul\":334:411   */\ntag_10:\n    /* \"#utility.yul\":371:378   */\n  0x00\n    /* \"#utility.yul\":400:405   */\n  dup2\n    /* \"#utility.yul\":389:405   */\n  swap1\n  pop\n    /* \"#utility.yul\":334:411   */\n  swap2\n  swap1\n  pop\n  jump\t// out\n    /* \"#utility.yul\":417:539   */\ntag_11:\n    /* \"#utility.yul\":490:514   */\n  tag_19\n    /* \"#utility.yul\":508:513   */\n  dup2\n    /* \"#utility.yul\":490:514   */\n  tag_10\n  jump\t// in\ntag_19:\n    /* \"#utility.yul\":483:488   */\n  dup2\n    /* \"#utility.yul\":480:515   */\n  eq\n    /* \"#utility.yul\":470:533   */\n  tag_20\n  jumpi\n    /* \"#utility.yul\":529:530   */\n  0x00\n    /* \"#utility.yul\":526:527   */\n  dup1\n    /* \"#utility.yul\":519:531   */\n  revert\n    /* \"#utility.yul\":470:533   */\ntag_20:\n    /* \"#utility.yul\":417:539   */\n  pop\n  jump\t// out\n    /* \"#utility.yul\":545:688   */\ntag_12:\n    /* \"#utility.yul\":602:607   */\n  0x00\n    /* \"#utility.yul\":633:639   */\n  dup2\n    /* \"#utility.yul\":627:640   */\n  mload\n    /* \"#utility.yul\":618:640   */\n  swap1\n  pop\n    /* \"#utility.yul\":649:682   */\n  tag_22\n    /* \"#utility.yul\":676:681   */\n  dup2\n    /* \"#utility.yul\":649:682   */\n  tag_11\n  jump\t// in\ntag_22:\n    /* \"#utility.yul\":545:688   */\n  swap3\n  swap2\n  pop\n  pop\n  jump\t// out\n    /* \"#utility.yul\":694:1045   */\ntag_3:\n    /* \"#utility.yul\":764:770   */\n  0x00\n    /* \"#utility.yul\":813:815   */\n  0x20\n    /* \"#utility.yul\":801:810   */\n  dup3\n    /* \"#utility.yul\":792:799   */\n  dup5\n    /* \"#utility.yul\":788:811   */\n  sub\n    /* \"#utility.yul\":784:816   */\n  slt\n    /* \"#utility.yul\":781:900   */\n  iszero\n  tag_24\n  jumpi\n    /* \"#utility.yul\":819:898   */\n  tag_25\n  tag_8\n  jump\t// in\ntag_25:\n    /* \"#utility.yul\":781:900   */\ntag_24:\n    /* \"#utility.yul\":939:940   */\n  0x00\n    /* \"#utility.yul\":964:1028   */\n  tag_26\n    /* \"#utility.yul\":1020:1027   */\n  dup5\n    /* \"#utility.yul\":1011:1017   */\n  dup3\n    /* \"#utility.yul\":1000:1009   */\n  dup6\n    /* \"#utility.yul\":996:1018   */\n  add\n    /* \"#utility.yul\":964:1028   */\n  tag_12\n  jump\t// in\ntag_26:\n    /* \"#utility.yul\":954:1028   */\n  swap2\n  pop\n    /* \"#utility.yul\":910:1038   */\n  pop\n    /* \"#utility.yul\":694:1045   */\n  swap3\n  swap2\n  pop\n  pop\n  jump\t// out\n    /* \"udemy solidity course - complete DApp/Build a Basic Token/basic_token.sol\":269:2869  contract basicToken {... */\ntag_6:\n  dataSize(sub_0)\n  dup1\n  dataOffset(sub_0)\n  0x00\n  codecopy\n  0x00\n  return\nstop\n\nsub_0: assembly {\n        /* \"udemy solidity course - complete DApp/Build a Basic Token/basic_token.sol\":269:2869  contract basicToken {... */\n      mstore(0x40, 0x80)\n      jumpi(tag_1, lt(calldatasize, 0x04))\n      shr(0xe0, calldataload(0x00))\n      dup1\n      0x771282f6\n      gt\n      tag_13\n      jumpi\n      dup1\n      0x771282f6\n      eq\n      tag_7\n      jumpi\n      dup1\n      0x87ceff09\n      eq\n      tag_8\n      jumpi\n      dup1\n      0x8da5cb5b\n      eq\n      tag_9\n      jumpi\n      dup1\n      0x95d89b41\n      eq\n      tag_10\n      jumpi\n      dup1\n      0xa9059cbb\n      eq\n      tag_11\n      jumpi\n      dup1\n      0xda0239a6\n      eq\n      tag_12\n      jumpi\n      jump(tag_1)\n    tag_13:\n      dup1\n      0x06fdde03\n      eq\n      tag_2\n      jumpi\n      dup1\n      0x18160ddd\n      eq\n      tag_3\n      jumpi\n      dup1\n      0x27e235e3\n      eq\n      tag_4\n      jumpi\n      dup1\n      0x40c10f19\n      eq\n      tag_5\n      jumpi\n      dup1\n      0x47b5dd54\n      eq\n      tag_6\n      jumpi\n    tag_1:\n      0x00\n      dup1\n      revert\n        /* \"udemy solidity course - complete DApp/Build a Basic Token/basic_token.sol\":412:463  string public constant name = \"Patrick Basic Token\" */\n    tag_2:\n      callvalue\n      dup1\n      iszero\n      tag_14\n      jumpi\n      0x00\n      dup1\n      revert\n    tag_14:\n      pop\n      tag_15\n      tag_16\n      jump\t// in\n    tag_15:\n      mload(0x40)\n      tag_17\n      swap2\n      swap1\n      tag_18\n      jump\t// in\n    tag_17:\n      mload(0x40)\n      dup1\n      swap2\n      sub\n      swap1\n      return\n        /* \"udemy solidity course - complete DApp/Build a Basic Token/basic_token.sol\":322:345  uint public totalSupply */\n    tag_3:\n      callvalue\n      dup1\n      iszero\n      tag_19\n      jumpi\n      0x00\n      dup1\n      revert\n    tag_19:\n      pop\n      tag_20\n      tag_21\n      jump\t// in\n    tag_20:\n      mload(0x40)\n      tag_22\n      swap2\n      swap1\n      tag_23\n      jump\t// in\n    tag_22:\n      mload(0x40)\n      dup1\n      swap2\n      sub\n      swap1\n      return\n        /* \"udemy solidity course - complete DApp/Build a Basic Token/basic_token.sol\":624:664  mapping(address => uint) public balances */\n    tag_4:\n      callvalue\n      dup1\n      iszero\n      tag_24\n      jumpi\n      0x00\n      dup1\n      revert\n    tag_24:\n      pop\n      tag_25\n      0x04\n      dup1\n      calldatasize\n      sub\n      dup2\n      add\n      swap1\n      tag_26\n      swap2\n      swap1\n      tag_27\n      jump\t// in\n    tag_26:\n      tag_28\n      jump\t// in\n    tag_25:\n      mload(0x40)\n      tag_29\n      swap2\n      swap1\n      tag_23\n      jump\t// in\n    tag_29:\n      mload(0x40)\n      dup1\n      swap2\n      sub\n      swap1\n      return\n        /* \"udemy solidity course - complete DApp/Build a Basic Token/basic_token.sol\":1034:1423  function mint(address to, uint amount) public payable onlyOwner {... */\n    tag_5:\n      tag_30\n      0x04\n      dup1\n      calldatasize\n      sub\n      dup2\n      add\n      swap1\n      tag_31\n      swap2\n      swap1\n      tag_32\n      jump\t// in\n    tag_31:\n      tag_33\n      jump\t// in\n    tag_30:\n      stop\n        /* \"udemy solidity course - complete DApp/Build a Basic Token/basic_token.sol\":382:406  uint public burnedTokens */\n    tag_6:\n      callvalue\n      dup1\n      iszero\n      tag_34\n      jumpi\n      0x00\n      dup1\n      revert\n    tag_34:\n      pop\n      tag_35\n      tag_36\n      jump\t// in\n    tag_35:\n      mload(0x40)\n      tag_37\n      swap2\n      swap1\n      tag_23\n      jump\t// in\n    tag_37:\n      mload(0x40)\n      dup1\n      swap2\n      sub\n      swap1\n      return\n        /* \"udemy solidity course - complete DApp/Build a Basic Token/basic_token.sol\":351:376  uint public currentSupply */\n    tag_7:\n      callvalue\n      dup1\n      iszero\n      tag_38\n      jumpi\n      0x00\n      dup1\n      revert\n    tag_38:\n      pop\n      tag_39\n      tag_40\n      jump\t// in\n    tag_39:\n      mload(0x40)\n      tag_41\n      swap2\n      swap1\n      tag_23\n      jump\t// in\n    tag_41:\n      mload(0x40)\n      dup1\n      swap2\n      sub\n      swap1\n      return\n        /* \"udemy solidity course - complete DApp/Build a Basic Token/basic_token.sol\":2609:2756  function getBlockTime() public view returns(uint) {... */\n    tag_8:\n      callvalue\n      dup1\n      iszero\n      tag_42\n      jumpi\n      0x00\n      dup1\n      revert\n    tag_42:\n      pop\n      tag_43\n      tag_44\n      jump\t// in\n    tag_43:\n      mload(0x40)\n      tag_45\n      swap2\n      swap1\n      tag_23\n      jump\t// in\n    tag_45:\n      mload(0x40)\n      dup1\n      swap2\n      sub\n      swap1\n      return\n        /* \"udemy solidity course - complete DApp/Build a Basic Token/basic_token.sol\":296:316  address public owner */\n    tag_9:\n      callvalue\n      dup1\n      iszero\n      tag_46\n      jumpi\n      0x00\n      dup1\n      revert\n    tag_46:\n      pop\n      tag_47\n      tag_48\n      jump\t// in\n    tag_47:\n      mload(0x40)\n      tag_49\n      swap2\n      swap1\n      tag_50\n      jump\t// in\n    tag_49:\n      mload(0x40)\n      dup1\n      swap2\n      sub\n      swap1\n      return\n        /* \"udemy solidity course - complete DApp/Build a Basic Token/basic_token.sol\":469:507  string public constant symbol = \"PBST\" */\n    tag_10:\n      callvalue\n      dup1\n      iszero\n      tag_51\n      jumpi\n      0x00\n      dup1\n      revert\n    tag_51:\n      pop\n      tag_52\n      tag_53\n      jump\t// in\n    tag_52:\n      mload(0x40)\n      tag_54\n      swap2\n      swap1\n      tag_18\n      jump\t// in\n    tag_54:\n      mload(0x40)\n      dup1\n      swap2\n      sub\n      swap1\n      return\n        /* \"udemy solidity course - complete DApp/Build a Basic Token/basic_token.sol\":1429:1828  function transfer(address to, uint amount) public {... */\n    tag_11:\n      callvalue\n      dup1\n      iszero\n      tag_55\n      jumpi\n      0x00\n      dup1\n      revert\n    tag_55:\n      pop\n      tag_56\n      0x04\n      dup1\n      calldatasize\n      sub\n      dup2\n      add\n      swap1\n      tag_57\n      swap2\n      swap1\n      tag_32\n      jump\t// in\n    tag_57:\n      tag_58\n      jump\t// in\n    tag_56:\n      stop\n        /* \"udemy solidity course - complete DApp/Build a Basic Token/basic_token.sol\":1834:1938  function remainingSupply() public view returns(uint) {... */\n    tag_12:\n      callvalue\n      dup1\n      iszero\n      tag_59\n      jumpi\n      0x00\n      dup1\n      revert\n    tag_59:\n      pop\n      tag_60\n      tag_61\n      jump\t// in\n    tag_60:\n      mload(0x40)\n      tag_62\n      swap2\n      swap1\n      tag_23\n      jump\t// in\n    tag_62:\n      mload(0x40)\n      dup1\n      swap2\n      sub\n      swap1\n      return\n        /* \"udemy solidity course - complete DApp/Build a Basic Token/basic_token.sol\":412:463  string public constant name = \"Patrick Basic Token\" */\n    tag_16:\n      mload(0x40)\n      dup1\n      0x40\n      add\n      0x40\n      mstore\n      dup1\n      0x13\n      dup2\n      mstore\n      0x20\n      add\n      0x5061747269636b20426173696320546f6b656e00000000000000000000000000\n      dup2\n      mstore\n      pop\n      dup2\n      jump\t// out\n        /* \"udemy solidity course - complete DApp/Build a Basic Token/basic_token.sol\":322:345  uint public totalSupply */\n    tag_21:\n      sload(0x01)\n      dup2\n      jump\t// out\n        /* \"udemy solidity course - complete DApp/Build a Basic Token/basic_token.sol\":624:664  mapping(address => uint) public balances */\n    tag_28:\n      mstore(0x20, 0x07)\n      dup1\n      0x00\n      mstore\n      keccak256(0x00, 0x40)\n      0x00\n      swap2\n      pop\n      swap1\n      pop\n      sload\n      dup2\n      jump\t// out\n        /* \"udemy solidity course - complete DApp/Build a Basic Token/basic_token.sol\":1034:1423  function mint(address to, uint amount) public payable onlyOwner {... */\n    tag_33:\n        /* \"udemy solidity course - complete DApp/Build a Basic Token/basic_token.sol\":980:985  owner */\n      0x00\n      dup1\n      sload\n      swap1\n      0x0100\n      exp\n      swap1\n      div\n      0xffffffffffffffffffffffffffffffffffffffff\n      and\n        /* \"udemy solidity course - complete DApp/Build a Basic Token/basic_token.sol\":966:985  msg.sender == owner */\n      0xffffffffffffffffffffffffffffffffffffffff\n      and\n        /* \"udemy solidity course - complete DApp/Build a Basic Token/basic_token.sol\":966:976  msg.sender */\n      caller\n        /* \"udemy solidity course - complete DApp/Build a Basic Token/basic_token.sol\":966:985  msg.sender == owner */\n      0xffffffffffffffffffffffffffffffffffffffff\n      and\n      eq\n        /* \"udemy solidity course - complete DApp/Build a Basic Token/basic_token.sol\":958:1010  require(msg.sender == owner, \"You're not the owner\") */\n      tag_64\n      jumpi\n      mload(0x40)\n      0x08c379a000000000000000000000000000000000000000000000000000000000\n      dup2\n      mstore\n      0x04\n      add\n      tag_65\n      swap1\n      tag_66\n      jump\t// in\n    tag_65:\n      mload(0x40)\n      dup1\n      swap2\n      sub\n      swap1\n      revert\n    tag_64:\n        /* \"udemy solidity course - complete DApp/Build a Basic Token/basic_token.sol\":1209:1210  0 */\n      0x00\n        /* \"udemy solidity course - complete DApp/Build a Basic Token/basic_token.sol\":1195:1211  to != address(0) */\n      0xffffffffffffffffffffffffffffffffffffffff\n      and\n        /* \"udemy solidity course - complete DApp/Build a Basic Token/basic_token.sol\":1195:1197  to */\n      dup3\n        /* \"udemy solidity course - complete DApp/Build a Basic Token/basic_token.sol\":1195:1211  to != address(0) */\n      0xffffffffffffffffffffffffffffffffffffffff\n      and\n      sub\n        /* \"udemy solidity course - complete DApp/Build a Basic Token/basic_token.sol\":1187:1247  require(to != address(0), \"ERC20: mint to the zero address\") */\n      tag_68\n      jumpi\n      mload(0x40)\n      0x08c379a000000000000000000000000000000000000000000000000000000000\n      dup2\n      mstore\n      0x04\n      add\n      tag_69\n      swap1\n      tag_70\n      jump\t// in\n    tag_69:\n      mload(0x40)\n      dup1\n      swap2\n      sub\n      swap1\n      revert\n    tag_68:\n        /* \"udemy solidity course - complete DApp/Build a Basic Token/basic_token.sol\":1282:1288  amount */\n      dup1\n        /* \"udemy solidity course - complete DApp/Build a Basic Token/basic_token.sol\":1266:1274  balances */\n      0x07\n        /* \"udemy solidity course - complete DApp/Build a Basic Token/basic_token.sol\":1266:1278  balances[to] */\n      0x00\n        /* \"udemy solidity course - complete DApp/Build a Basic Token/basic_token.sol\":1275:1277  to */\n      dup5\n        /* \"udemy solidity course - complete DApp/Build a Basic Token/basic_token.sol\":1266:1278  balances[to] */\n      0xffffffffffffffffffffffffffffffffffffffff\n      and\n      0xffffffffffffffffffffffffffffffffffffffff\n      and\n      dup2\n      mstore\n      0x20\n      add\n      swap1\n      dup2\n      mstore\n      0x20\n      add\n      0x00\n      keccak256\n      0x00\n        /* \"udemy solidity course - complete DApp/Build a Basic Token/basic_token.sol\":1266:1288  balances[to] += amount */\n      dup3\n      dup3\n      sload\n      tag_71\n      swap2\n      swap1\n      tag_72\n      jump\t// in\n    tag_71:\n      swap3\n      pop\n      pop\n      dup2\n      swap1\n      sstore\n      pop\n        /* \"udemy solidity course - complete DApp/Build a Basic Token/basic_token.sol\":1315:1321  amount */\n      dup1\n        /* \"udemy solidity course - complete DApp/Build a Basic Token/basic_token.sol\":1298:1311  currentSupply */\n      0x02\n      0x00\n        /* \"udemy solidity course - complete DApp/Build a Basic Token/basic_token.sol\":1298:1321  currentSupply += amount */\n      dup3\n      dup3\n      sload\n      tag_73\n      swap2\n      swap1\n      tag_72\n      jump\t// in\n    tag_73:\n      swap3\n      pop\n      pop\n      dup2\n      swap1\n      sstore\n      pop\n        /* \"udemy solidity course - complete DApp/Build a Basic Token/basic_token.sol\":1346:1352  amount */\n      dup1\n        /* \"udemy solidity course - complete DApp/Build a Basic Token/basic_token.sol\":1331:1342  totalSupply */\n      0x01\n      0x00\n        /* \"udemy solidity course - complete DApp/Build a Basic Token/basic_token.sol\":1331:1352  totalSupply += amount */\n      dup3\n      dup3\n      sload\n      tag_74\n      swap2\n      swap1\n      tag_72\n      jump\t// in\n    tag_74:\n      swap3\n      pop\n      pop\n      dup2\n      swap1\n      sstore\n      pop\n        /* \"udemy solidity course - complete DApp/Build a Basic Token/basic_token.sol\":1363:1373  halving2() */\n      tag_75\n        /* \"udemy solidity course - complete DApp/Build a Basic Token/basic_token.sol\":1363:1371  halving2 */\n      tag_76\n        /* \"udemy solidity course - complete DApp/Build a Basic Token/basic_token.sol\":1363:1373  halving2() */\n      jump\t// in\n    tag_75:\n      pop\n        /* \"udemy solidity course - complete DApp/Build a Basic Token/basic_token.sol\":1405:1407  to */\n      dup2\n        /* \"udemy solidity course - complete DApp/Build a Basic Token/basic_token.sol\":1388:1416  Sent(msg.sender, to, amount) */\n      0xffffffffffffffffffffffffffffffffffffffff\n      and\n        /* \"udemy solidity course - complete DApp/Build a Basic Token/basic_token.sol\":1393:1403  msg.sender */\n      caller\n        /* \"udemy solidity course - complete DApp/Build a Basic Token/basic_token.sol\":1388:1416  Sent(msg.sender, to, amount) */\n      0xffffffffffffffffffffffffffffffffffffffff\n      and\n      0x3990db2d31862302a685e8086b5755072a6e2b5b780af1ee81ece35ee3cd3345\n        /* \"udemy solidity course - complete DApp/Build a Basic Token/basic_token.sol\":1409:1415  amount */\n      dup4\n        /* \"udemy solidity course - complete DApp/Build a Basic Token/basic_token.sol\":1388:1416  Sent(msg.sender, to, amount) */\n      mload(0x40)\n      tag_77\n      swap2\n      swap1\n      tag_23\n      jump\t// in\n    tag_77:\n      mload(0x40)\n      dup1\n      swap2\n      sub\n      swap1\n      log3\n        /* \"udemy solidity course - complete DApp/Build a Basic Token/basic_token.sol\":1034:1423  function mint(address to, uint amount) public payable onlyOwner {... */\n      pop\n      pop\n      jump\t// out\n        /* \"udemy solidity course - complete DApp/Build a Basic Token/basic_token.sol\":382:406  uint public burnedTokens */\n    tag_36:\n      sload(0x03)\n      dup2\n      jump\t// out\n        /* \"udemy solidity course - complete DApp/Build a Basic Token/basic_token.sol\":351:376  uint public currentSupply */\n    tag_40:\n      sload(0x02)\n      dup2\n      jump\t// out\n        /* \"udemy solidity course - complete DApp/Build a Basic Token/basic_token.sol\":2609:2756  function getBlockTime() public view returns(uint) {... */\n    tag_44:\n        /* \"udemy solidity course - complete DApp/Build a Basic Token/basic_token.sol\":2653:2657  uint */\n      0x00\n        /* \"udemy solidity course - complete DApp/Build a Basic Token/basic_token.sol\":2669:2680  uint blocks */\n      dup1\n        /* \"udemy solidity course - complete DApp/Build a Basic Token/basic_token.sol\":2717:2726  blockTime */\n      sload(0x05)\n        /* \"udemy solidity course - complete DApp/Build a Basic Token/basic_token.sol\":2702:2713  genesisDate */\n      sload(0x04)\n        /* \"udemy solidity course - complete DApp/Build a Basic Token/basic_token.sol\":2684:2699  block.timestamp */\n      timestamp\n        /* \"udemy solidity course - complete DApp/Build a Basic Token/basic_token.sol\":2684:2713  block.timestamp - genesisDate */\n      tag_79\n      swap2\n      swap1\n      tag_80\n      jump\t// in\n    tag_79:\n        /* \"udemy solidity course - complete DApp/Build a Basic Token/basic_token.sol\":2683:2726  (block.timestamp - genesisDate) / blockTime */\n      tag_81\n      swap2\n      swap1\n      tag_82\n      jump\t// in\n    tag_81:\n        /* \"udemy solidity course - complete DApp/Build a Basic Token/basic_token.sol\":2669:2726  uint blocks = (block.timestamp - genesisDate) / blockTime */\n      swap1\n      pop\n        /* \"udemy solidity course - complete DApp/Build a Basic Token/basic_token.sol\":2743:2749  blocks */\n      dup1\n        /* \"udemy solidity course - complete DApp/Build a Basic Token/basic_token.sol\":2736:2749  return blocks */\n      swap2\n      pop\n      pop\n        /* \"udemy solidity course - complete DApp/Build a Basic Token/basic_token.sol\":2609:2756  function getBlockTime() public view returns(uint) {... */\n      swap1\n      jump\t// out\n        /* \"udemy solidity course - complete DApp/Build a Basic Token/basic_token.sol\":296:316  address public owner */\n    tag_48:\n      0x00\n      dup1\n      sload\n      swap1\n      0x0100\n      exp\n      swap1\n      div\n      0xffffffffffffffffffffffffffffffffffffffff\n      and\n      dup2\n      jump\t// out\n        /* \"udemy solidity course - complete DApp/Build a Basic Token/basic_token.sol\":469:507  string public constant symbol = \"PBST\" */\n    tag_53:\n      mload(0x40)\n      dup1\n      0x40\n      add\n      0x40\n      mstore\n      dup1\n      0x04\n      dup2\n      mstore\n      0x20\n      add\n      0x5042535400000000000000000000000000000000000000000000000000000000\n      dup2\n      mstore\n      pop\n      dup2\n      jump\t// out\n        /* \"udemy solidity course - complete DApp/Build a Basic Token/basic_token.sol\":1429:1828  function transfer(address to, uint amount) public {... */\n    tag_58:\n        /* \"udemy solidity course - complete DApp/Build a Basic Token/basic_token.sol\":1507:1515  balances */\n      0x07\n        /* \"udemy solidity course - complete DApp/Build a Basic Token/basic_token.sol\":1507:1527  balances[msg.sender] */\n      0x00\n        /* \"udemy solidity course - complete DApp/Build a Basic Token/basic_token.sol\":1516:1526  msg.sender */\n      caller\n        /* \"udemy solidity course - complete DApp/Build a Basic Token/basic_token.sol\":1507:1527  balances[msg.sender] */\n      0xffffffffffffffffffffffffffffffffffffffff\n      and\n      0xffffffffffffffffffffffffffffffffffffffff\n      and\n      dup2\n      mstore\n      0x20\n      add\n      swap1\n      dup2\n      mstore\n      0x20\n      add\n      0x00\n      keccak256\n      sload\n        /* \"udemy solidity course - complete DApp/Build a Basic Token/basic_token.sol\":1497:1503  amount */\n      dup2\n        /* \"udemy solidity course - complete DApp/Build a Basic Token/basic_token.sol\":1497:1527  amount <= balances[msg.sender] */\n      gt\n      iszero\n        /* \"udemy solidity course - complete DApp/Build a Basic Token/basic_token.sol\":1489:1549  require(amount <= balances[msg.sender], \"Not enough tokens\") */\n      tag_84\n      jumpi\n      mload(0x40)\n      0x08c379a000000000000000000000000000000000000000000000000000000000\n      dup2\n      mstore\n      0x04\n      add\n      tag_85\n      swap1\n      tag_86\n      jump\t// in\n    tag_85:\n      mload(0x40)\n      dup1\n      swap2\n      sub\n      swap1\n      revert\n    tag_84:\n        /* \"udemy solidity course - complete DApp/Build a Basic Token/basic_token.sol\":1581:1582  0 */\n      0x00\n        /* \"udemy solidity course - complete DApp/Build a Basic Token/basic_token.sol\":1567:1583  to != address(0) */\n      0xffffffffffffffffffffffffffffffffffffffff\n      and\n        /* \"udemy solidity course - complete DApp/Build a Basic Token/basic_token.sol\":1567:1569  to */\n      dup3\n        /* \"udemy solidity course - complete DApp/Build a Basic Token/basic_token.sol\":1567:1583  to != address(0) */\n      0xffffffffffffffffffffffffffffffffffffffff\n      and\n      sub\n        /* \"udemy solidity course - complete DApp/Build a Basic Token/basic_token.sol\":1559:1615  require(to != address(0), \"No mint to the zero address\") */\n      tag_87\n      jumpi\n      mload(0x40)\n      0x08c379a000000000000000000000000000000000000000000000000000000000\n      dup2\n      mstore\n      0x04\n      add\n      tag_88\n      swap1\n      tag_89\n      jump\t// in\n    tag_88:\n      mload(0x40)\n      dup1\n      swap2\n      sub\n      swap1\n      revert\n    tag_87:\n        /* \"udemy solidity course - complete DApp/Build a Basic Token/basic_token.sol\":1643:1656  currentSupply */\n      sload(0x02)\n        /* \"udemy solidity course - complete DApp/Build a Basic Token/basic_token.sol\":1633:1639  amount */\n      dup2\n        /* \"udemy solidity course - complete DApp/Build a Basic Token/basic_token.sol\":1633:1656  amount <= currentSupply */\n      gt\n      iszero\n        /* \"udemy solidity course - complete DApp/Build a Basic Token/basic_token.sol\":1625:1657  require(amount <= currentSupply) */\n      tag_90\n      jumpi\n      0x00\n      dup1\n      revert\n    tag_90:\n        /* \"udemy solidity course - complete DApp/Build a Basic Token/basic_token.sol\":1700:1706  amount */\n      dup1\n        /* \"udemy solidity course - complete DApp/Build a Basic Token/basic_token.sol\":1676:1684  balances */\n      0x07\n        /* \"udemy solidity course - complete DApp/Build a Basic Token/basic_token.sol\":1676:1696  balances[msg.sender] */\n      0x00\n        /* \"udemy solidity course - complete DApp/Build a Basic Token/basic_token.sol\":1685:1695  msg.sender */\n      caller\n        /* \"udemy solidity course - complete DApp/Build a Basic Token/basic_token.sol\":1676:1696  balances[msg.sender] */\n      0xffffffffffffffffffffffffffffffffffffffff\n      and\n      0xffffffffffffffffffffffffffffffffffffffff\n      and\n      dup2\n      mstore\n      0x20\n      add\n      swap1\n      dup2\n      mstore\n      0x20\n      add\n      0x00\n      keccak256\n      0x00\n        /* \"udemy solidity course - complete DApp/Build a Basic Token/basic_token.sol\":1676:1706  balances[msg.sender] -= amount */\n      dup3\n      dup3\n      sload\n      tag_91\n      swap2\n      swap1\n      tag_80\n      jump\t// in\n    tag_91:\n      swap3\n      pop\n      pop\n      dup2\n      swap1\n      sstore\n      pop\n        /* \"udemy solidity course - complete DApp/Build a Basic Token/basic_token.sol\":1732:1738  amount */\n      dup1\n        /* \"udemy solidity course - complete DApp/Build a Basic Token/basic_token.sol\":1716:1724  balances */\n      0x07\n        /* \"udemy solidity course - complete DApp/Build a Basic Token/basic_token.sol\":1716:1728  balances[to] */\n      0x00\n        /* \"udemy solidity course - complete DApp/Build a Basic Token/basic_token.sol\":1725:1727  to */\n      dup5\n        /* \"udemy solidity course - complete DApp/Build a Basic Token/basic_token.sol\":1716:1728  balances[to] */\n      0xffffffffffffffffffffffffffffffffffffffff\n      and\n      0xffffffffffffffffffffffffffffffffffffffff\n      and\n      dup2\n      mstore\n      0x20\n      add\n      swap1\n      dup2\n      mstore\n      0x20\n      add\n      0x00\n      keccak256\n      0x00\n        /* \"udemy solidity course - complete DApp/Build a Basic Token/basic_token.sol\":1716:1738  balances[to] += amount */\n      dup3\n      dup3\n      sload\n      tag_92\n      swap2\n      swap1\n      tag_72\n      jump\t// in\n    tag_92:\n      swap3\n      pop\n      pop\n      dup2\n      swap1\n      sstore\n      pop\n        /* \"udemy solidity course - complete DApp/Build a Basic Token/basic_token.sol\":1757:1769  burn(amount) */\n      tag_93\n        /* \"udemy solidity course - complete DApp/Build a Basic Token/basic_token.sol\":1762:1768  amount */\n      dup2\n        /* \"udemy solidity course - complete DApp/Build a Basic Token/basic_token.sol\":1757:1761  burn */\n      tag_94\n        /* \"udemy solidity course - complete DApp/Build a Basic Token/basic_token.sol\":1757:1769  burn(amount) */\n      jump\t// in\n    tag_93:\n        /* \"udemy solidity course - complete DApp/Build a Basic Token/basic_token.sol\":1810:1812  to */\n      dup2\n        /* \"udemy solidity course - complete DApp/Build a Basic Token/basic_token.sol\":1793:1821  Sent(msg.sender, to, amount) */\n      0xffffffffffffffffffffffffffffffffffffffff\n      and\n        /* \"udemy solidity course - complete DApp/Build a Basic Token/basic_token.sol\":1798:1808  msg.sender */\n      caller\n        /* \"udemy solidity course - complete DApp/Build a Basic Token/basic_token.sol\":1793:1821  Sent(msg.sender, to, amount) */\n      0xffffffffffffffffffffffffffffffffffffffff\n      and\n      0x3990db2d31862302a685e8086b5755072a6e2b5b780af1ee81ece35ee3cd3345\n        /* \"udemy solidity course - complete DApp/Build a Basic Token/basic_token.sol\":1814:1820  amount */\n      dup4\n        /* \"udemy solidity course - complete DApp/Build a Basic Token/basic_token.sol\":1793:1821  Sent(msg.sender, to, amount) */\n      mload(0x40)\n      tag_95\n      swap2\n      swap1\n      tag_23\n      jump\t// in\n    tag_95:\n      mload(0x40)\n      dup1\n      swap2\n      sub\n      swap1\n      log3\n        /* \"udemy solidity course - complete DApp/Build a Basic Token/basic_token.sol\":1429:1828  function transfer(address to, uint amount) public {... */\n      pop\n      pop\n      jump\t// out\n        /* \"udemy solidity course - complete DApp/Build a Basic Token/basic_token.sol\":1834:1938  function remainingSupply() public view returns(uint) {... */\n    tag_61:\n        /* \"udemy solidity course - complete DApp/Build a Basic Token/basic_token.sol\":1881:1885  uint */\n      0x00\n        /* \"udemy solidity course - complete DApp/Build a Basic Token/basic_token.sol\":1918:1931  currentSupply */\n      sload(0x02)\n        /* \"udemy solidity course - complete DApp/Build a Basic Token/basic_token.sol\":1904:1915  totalSupply */\n      sload(0x01)\n        /* \"udemy solidity course - complete DApp/Build a Basic Token/basic_token.sol\":1904:1931  totalSupply - currentSupply */\n      tag_97\n      swap2\n      swap1\n      tag_80\n      jump\t// in\n    tag_97:\n        /* \"udemy solidity course - complete DApp/Build a Basic Token/basic_token.sol\":1897:1931  return totalSupply - currentSupply */\n      swap1\n      pop\n        /* \"udemy solidity course - complete DApp/Build a Basic Token/basic_token.sol\":1834:1938  function remainingSupply() public view returns(uint) {... */\n      swap1\n      jump\t// out\n        /* \"udemy solidity course - complete DApp/Build a Basic Token/basic_token.sol\":2762:2867  function halving2() view private returns(uint) {... */\n    tag_76:\n        /* \"udemy solidity course - complete DApp/Build a Basic Token/basic_token.sol\":2803:2807  uint */\n      0x00\n        /* \"udemy solidity course - complete DApp/Build a Basic Token/basic_token.sol\":2845:2859  getBlockTime() */\n      tag_99\n        /* \"udemy solidity course - complete DApp/Build a Basic Token/basic_token.sol\":2845:2857  getBlockTime */\n      tag_44\n        /* \"udemy solidity course - complete DApp/Build a Basic Token/basic_token.sol\":2845:2859  getBlockTime() */\n      jump\t// in\n    tag_99:\n        /* \"udemy solidity course - complete DApp/Build a Basic Token/basic_token.sol\":2840:2841  2 */\n      0x02\n        /* \"udemy solidity course - complete DApp/Build a Basic Token/basic_token.sol\":2840:2859  2 ** getBlockTime() */\n      tag_100\n      swap2\n      swap1\n      tag_101\n      jump\t// in\n    tag_100:\n        /* \"udemy solidity course - complete DApp/Build a Basic Token/basic_token.sol\":2825:2836  blockReward */\n      sload(0x06)\n        /* \"udemy solidity course - complete DApp/Build a Basic Token/basic_token.sol\":2825:2860  blockReward / (2 ** getBlockTime()) */\n      tag_102\n      swap2\n      swap1\n      tag_82\n      jump\t// in\n    tag_102:\n        /* \"udemy solidity course - complete DApp/Build a Basic Token/basic_token.sol\":2818:2860  return blockReward / (2 ** getBlockTime()) */\n      swap1\n      pop\n        /* \"udemy solidity course - complete DApp/Build a Basic Token/basic_token.sol\":2762:2867  function halving2() view private returns(uint) {... */\n      swap1\n      jump\t// out\n        /* \"udemy solidity course - complete DApp/Build a Basic Token/basic_token.sol\":1944:2166  function burn(uint amount) private {... */\n    tag_94:\n        /* \"udemy solidity course - complete DApp/Build a Basic Token/basic_token.sol\":2020:2021  1 */\n      0x01\n        /* \"udemy solidity course - complete DApp/Build a Basic Token/basic_token.sol\":2013:2017  1000 */\n      0x03e8\n        /* \"udemy solidity course - complete DApp/Build a Basic Token/basic_token.sol\":2004:2010  amount */\n      dup3\n        /* \"udemy solidity course - complete DApp/Build a Basic Token/basic_token.sol\":2004:2017  amount / 1000 */\n      tag_104\n      swap2\n      swap1\n      tag_82\n      jump\t// in\n    tag_104:\n        /* \"udemy solidity course - complete DApp/Build a Basic Token/basic_token.sol\":2004:2021  amount / 1000 * 1 */\n      tag_105\n      swap2\n      swap1\n      tag_106\n      jump\t// in\n    tag_105:\n        /* \"udemy solidity course - complete DApp/Build a Basic Token/basic_token.sol\":1989:2000  totalSupply */\n      0x01\n      0x00\n        /* \"udemy solidity course - complete DApp/Build a Basic Token/basic_token.sol\":1989:2021  totalSupply -= amount / 1000 * 1 */\n      dup3\n      dup3\n      sload\n      tag_107\n      swap2\n      swap1\n      tag_80\n      jump\t// in\n    tag_107:\n      swap3\n      pop\n      pop\n      dup2\n      swap1\n      sstore\n      pop\n        /* \"udemy solidity course - complete DApp/Build a Basic Token/basic_token.sol\":2064:2065  1 */\n      0x01\n        /* \"udemy solidity course - complete DApp/Build a Basic Token/basic_token.sol\":2057:2061  1000 */\n      0x03e8\n        /* \"udemy solidity course - complete DApp/Build a Basic Token/basic_token.sol\":2048:2054  amount */\n      dup3\n        /* \"udemy solidity course - complete DApp/Build a Basic Token/basic_token.sol\":2048:2061  amount / 1000 */\n      tag_108\n      swap2\n      swap1\n      tag_82\n      jump\t// in\n    tag_108:\n        /* \"udemy solidity course - complete DApp/Build a Basic Token/basic_token.sol\":2048:2065  amount / 1000 * 1 */\n      tag_109\n      swap2\n      swap1\n      tag_106\n      jump\t// in\n    tag_109:\n        /* \"udemy solidity course - complete DApp/Build a Basic Token/basic_token.sol\":2031:2044  currentSupply */\n      0x02\n      0x00\n        /* \"udemy solidity course - complete DApp/Build a Basic Token/basic_token.sol\":2031:2065  currentSupply -= amount / 1000 * 1 */\n      dup3\n      dup3\n      sload\n      tag_110\n      swap2\n      swap1\n      tag_80\n      jump\t// in\n    tag_110:\n      swap3\n      pop\n      pop\n      dup2\n      swap1\n      sstore\n      pop\n        /* \"udemy solidity course - complete DApp/Build a Basic Token/basic_token.sol\":2107:2108  1 */\n      0x01\n        /* \"udemy solidity course - complete DApp/Build a Basic Token/basic_token.sol\":2100:2104  1000 */\n      0x03e8\n        /* \"udemy solidity course - complete DApp/Build a Basic Token/basic_token.sol\":2091:2097  amount */\n      dup3\n        /* \"udemy solidity course - complete DApp/Build a Basic Token/basic_token.sol\":2091:2104  amount / 1000 */\n      tag_111\n      swap2\n      swap1\n      tag_82\n      jump\t// in\n    tag_111:\n        /* \"udemy solidity course - complete DApp/Build a Basic Token/basic_token.sol\":2091:2108  amount / 1000 * 1 */\n      tag_112\n      swap2\n      swap1\n      tag_106\n      jump\t// in\n    tag_112:\n        /* \"udemy solidity course - complete DApp/Build a Basic Token/basic_token.sol\":2075:2087  burnedTokens */\n      0x03\n      0x00\n        /* \"udemy solidity course - complete DApp/Build a Basic Token/basic_token.sol\":2075:2108  burnedTokens += amount / 1000 * 1 */\n      dup3\n      dup3\n      sload\n      tag_113\n      swap2\n      swap1\n      tag_72\n      jump\t// in\n    tag_113:\n      swap3\n      pop\n      pop\n      dup2\n      swap1\n      sstore\n      pop\n        /* \"udemy solidity course - complete DApp/Build a Basic Token/basic_token.sol\":2158:2159  1 */\n      0x01\n        /* \"udemy solidity course - complete DApp/Build a Basic Token/basic_token.sol\":2151:2155  1000 */\n      0x03e8\n        /* \"udemy solidity course - complete DApp/Build a Basic Token/basic_token.sol\":2142:2148  amount */\n      dup3\n        /* \"udemy solidity course - complete DApp/Build a Basic Token/basic_token.sol\":2142:2155  amount / 1000 */\n      tag_114\n      swap2\n      swap1\n      tag_82\n      jump\t// in\n    tag_114:\n        /* \"udemy solidity course - complete DApp/Build a Basic Token/basic_token.sol\":2142:2159  amount / 1000 * 1 */\n      tag_115\n      swap2\n      swap1\n      tag_106\n      jump\t// in\n    tag_115:\n        /* \"udemy solidity course - complete DApp/Build a Basic Token/basic_token.sol\":2118:2126  balances */\n      0x07\n        /* \"udemy solidity course - complete DApp/Build a Basic Token/basic_token.sol\":2118:2138  balances[msg.sender] */\n      0x00\n        /* \"udemy solidity course - complete DApp/Build a Basic Token/basic_token.sol\":2127:2137  msg.sender */\n      caller\n        /* \"udemy solidity course - complete DApp/Build a Basic Token/basic_token.sol\":2118:2138  balances[msg.sender] */\n      0xffffffffffffffffffffffffffffffffffffffff\n      and\n      0xffffffffffffffffffffffffffffffffffffffff\n      and\n      dup2\n      mstore\n      0x20\n      add\n      swap1\n      dup2\n      mstore\n      0x20\n      add\n      0x00\n      keccak256\n      0x00\n        /* \"udemy solidity course - complete DApp/Build a Basic Token/basic_token.sol\":2118:2159  balances[msg.sender] -= amount / 1000 * 1 */\n      dup3\n      dup3\n      sload\n      tag_116\n      swap2\n      swap1\n      tag_80\n      jump\t// in\n    tag_116:\n      swap3\n      pop\n      pop\n      dup2\n      swap1\n      sstore\n      pop\n        /* \"udemy solidity course - complete DApp/Build a Basic Token/basic_token.sol\":1944:2166  function burn(uint amount) private {... */\n      pop\n      jump\t// out\n        /* \"#utility.yul\":7:106   */\n    tag_117:\n        /* \"#utility.yul\":59:65   */\n      0x00\n        /* \"#utility.yul\":93:98   */\n      dup2\n        /* \"#utility.yul\":87:99   */\n      mload\n        /* \"#utility.yul\":77:99   */\n      swap1\n      pop\n        /* \"#utility.yul\":7:106   */\n      swap2\n      swap1\n      pop\n      jump\t// out\n        /* \"#utility.yul\":112:281   */\n    tag_118:\n        /* \"#utility.yul\":196:207   */\n      0x00\n        /* \"#utility.yul\":230:236   */\n      dup3\n        /* \"#utility.yul\":225:228   */\n      dup3\n        /* \"#utility.yul\":218:237   */\n      mstore\n        /* \"#utility.yul\":270:274   */\n      0x20\n        /* \"#utility.yul\":265:268   */\n      dup3\n        /* \"#utility.yul\":261:275   */\n      add\n        /* \"#utility.yul\":246:275   */\n      swap1\n      pop\n        /* \"#utility.yul\":112:281   */\n      swap3\n      swap2\n      pop\n      pop\n      jump\t// out\n        /* \"#utility.yul\":287:594   */\n    tag_119:\n        /* \"#utility.yul\":355:356   */\n      0x00\n        /* \"#utility.yul\":365:478   */\n    tag_151:\n        /* \"#utility.yul\":379:385   */\n      dup4\n        /* \"#utility.yul\":376:377   */\n      dup2\n        /* \"#utility.yul\":373:386   */\n      lt\n        /* \"#utility.yul\":365:478   */\n      iszero\n      tag_153\n      jumpi\n        /* \"#utility.yul\":464:465   */\n      dup1\n        /* \"#utility.yul\":459:462   */\n      dup3\n        /* \"#utility.yul\":455:466   */\n      add\n        /* \"#utility.yul\":449:467   */\n      mload\n        /* \"#utility.yul\":445:446   */\n      dup2\n        /* \"#utility.yul\":440:443   */\n      dup5\n        /* \"#utility.yul\":436:447   */\n      add\n        /* \"#utility.yul\":429:468   */\n      mstore\n        /* \"#utility.yul\":401:403   */\n      0x20\n        /* \"#utility.yul\":398:399   */\n      dup2\n        /* \"#utility.yul\":394:404   */\n      add\n        /* \"#utility.yul\":389:404   */\n      swap1\n      pop\n        /* \"#utility.yul\":365:478   */\n      jump(tag_151)\n    tag_153:\n        /* \"#utility.yul\":496:502   */\n      dup4\n        /* \"#utility.yul\":493:494   */\n      dup2\n        /* \"#utility.yul\":490:503   */\n      gt\n        /* \"#utility.yul\":487:588   */\n      iszero\n      tag_154\n      jumpi\n        /* \"#utility.yul\":576:577   */\n      0x00\n        /* \"#utility.yul\":567:573   */\n      dup5\n        /* \"#utility.yul\":562:565   */\n      dup5\n        /* \"#utility.yul\":558:574   */\n      add\n        /* \"#utility.yul\":551:578   */\n      mstore\n        /* \"#utility.yul\":487:588   */\n    tag_154:\n        /* \"#utility.yul\":336:594   */\n      pop\n        /* \"#utility.yul\":287:594   */\n      pop\n      pop\n      pop\n      jump\t// out\n        /* \"#utility.yul\":600:702   */\n    tag_120:\n        /* \"#utility.yul\":641:647   */\n      0x00\n        /* \"#utility.yul\":692:694   */\n      0x1f\n        /* \"#utility.yul\":688:695   */\n      not\n        /* \"#utility.yul\":683:685   */\n      0x1f\n        /* \"#utility.yul\":676:681   */\n      dup4\n        /* \"#utility.yul\":672:686   */\n      add\n        /* \"#utility.yul\":668:696   */\n      and\n        /* \"#utility.yul\":658:696   */\n      swap1\n      pop\n        /* \"#utility.yul\":600:702   */\n      swap2\n      swap1\n      pop\n      jump\t// out\n        /* \"#utility.yul\":708:1072   */\n    tag_121:\n        /* \"#utility.yul\":796:799   */\n      0x00\n        /* \"#utility.yul\":824:863   */\n      tag_157\n        /* \"#utility.yul\":857:862   */\n      dup3\n        /* \"#utility.yul\":824:863   */\n      tag_117\n      jump\t// in\n    tag_157:\n        /* \"#utility.yul\":879:950   */\n      tag_158\n        /* \"#utility.yul\":943:949   */\n      dup2\n        /* \"#utility.yul\":938:941   */\n      dup6\n        /* \"#utility.yul\":879:950   */\n      tag_118\n      jump\t// in\n    tag_158:\n        /* \"#utility.yul\":872:950   */\n      swap4\n      pop\n        /* \"#utility.yul\":959:1011   */\n      tag_159\n        /* \"#utility.yul\":1004:1010   */\n      dup2\n        /* \"#utility.yul\":999:1002   */\n      dup6\n        /* \"#utility.yul\":992:996   */\n      0x20\n        /* \"#utility.yul\":985:990   */\n      dup7\n        /* \"#utility.yul\":981:997   */\n      add\n        /* \"#utility.yul\":959:1011   */\n      tag_119\n      jump\t// in\n    tag_159:\n        /* \"#utility.yul\":1036:1065   */\n      tag_160\n        /* \"#utility.yul\":1058:1064   */\n      dup2\n        /* \"#utility.yul\":1036:1065   */\n      tag_120\n      jump\t// in\n    tag_160:\n        /* \"#utility.yul\":1031:1034   */\n      dup5\n        /* \"#utility.yul\":1027:1066   */\n      add\n        /* \"#utility.yul\":1020:1066   */\n      swap2\n      pop\n        /* \"#utility.yul\":800:1072   */\n      pop\n        /* \"#utility.yul\":708:1072   */\n      swap3\n      swap2\n      pop\n      pop\n      jump\t// out\n        /* \"#utility.yul\":1078:1391   */\n    tag_18:\n        /* \"#utility.yul\":1191:1195   */\n      0x00\n        /* \"#utility.yul\":1229:1231   */\n      0x20\n        /* \"#utility.yul\":1218:1227   */\n      dup3\n        /* \"#utility.yul\":1214:1232   */\n      add\n        /* \"#utility.yul\":1206:1232   */\n      swap1\n      pop\n        /* \"#utility.yul\":1278:1287   */\n      dup2\n        /* \"#utility.yul\":1272:1276   */\n      dup2\n        /* \"#utility.yul\":1268:1288   */\n      sub\n        /* \"#utility.yul\":1264:1265   */\n      0x00\n        /* \"#utility.yul\":1253:1262   */\n      dup4\n        /* \"#utility.yul\":1249:1266   */\n      add\n        /* \"#utility.yul\":1242:1289   */\n      mstore\n        /* \"#utility.yul\":1306:1384   */\n      tag_162\n        /* \"#utility.yul\":1379:1383   */\n      dup2\n        /* \"#utility.yul\":1370:1376   */\n      dup5\n        /* \"#utility.yul\":1306:1384   */\n      tag_121\n      jump\t// in\n    tag_162:\n        /* \"#utility.yul\":1298:1384   */\n      swap1\n      pop\n        /* \"#utility.yul\":1078:1391   */\n      swap3\n      swap2\n      pop\n      pop\n      jump\t// out\n        /* \"#utility.yul\":1397:1474   */\n    tag_122:\n        /* \"#utility.yul\":1434:1441   */\n      0x00\n        /* \"#utility.yul\":1463:1468   */\n      dup2\n        /* \"#utility.yul\":1452:1468   */\n      swap1\n      pop\n        /* \"#utility.yul\":1397:1474   */\n      swap2\n      swap1\n      pop\n      jump\t// out\n        /* \"#utility.yul\":1480:1598   */\n    tag_123:\n        /* \"#utility.yul\":1567:1591   */\n      tag_165\n        /* \"#utility.yul\":1585:1590   */\n      dup2\n        /* \"#utility.yul\":1567:1591   */\n      tag_122\n      jump\t// in\n    tag_165:\n        /* \"#utility.yul\":1562:1565   */\n      dup3\n        /* \"#utility.yul\":1555:1592   */\n      mstore\n        /* \"#utility.yul\":1480:1598   */\n      pop\n      pop\n      jump\t// out\n        /* \"#utility.yul\":1604:1826   */\n    tag_23:\n        /* \"#utility.yul\":1697:1701   */\n      0x00\n        /* \"#utility.yul\":1735:1737   */\n      0x20\n        /* \"#utility.yul\":1724:1733   */\n      dup3\n        /* \"#utility.yul\":1720:1738   */\n      add\n        /* \"#utility.yul\":1712:1738   */\n      swap1\n      pop\n        /* \"#utility.yul\":1748:1819   */\n      tag_167\n        /* \"#utility.yul\":1816:1817   */\n      0x00\n        /* \"#utility.yul\":1805:1814   */\n      dup4\n        /* \"#utility.yul\":1801:1818   */\n      add\n        /* \"#utility.yul\":1792:1798   */\n      dup5\n        /* \"#utility.yul\":1748:1819   */\n      tag_123\n      jump\t// in\n    tag_167:\n        /* \"#utility.yul\":1604:1826   */\n      swap3\n      swap2\n      pop\n      pop\n      jump\t// out\n        /* \"#utility.yul\":1913:2030   */\n    tag_125:\n        /* \"#utility.yul\":2022:2023   */\n      0x00\n        /* \"#utility.yul\":2019:2020   */\n      dup1\n        /* \"#utility.yul\":2012:2024   */\n      revert\n        /* \"#utility.yul\":2159:2285   */\n    tag_127:\n        /* \"#utility.yul\":2196:2203   */\n      0x00\n        /* \"#utility.yul\":2236:2278   */\n      0xffffffffffffffffffffffffffffffffffffffff\n        /* \"#utility.yul\":2229:2234   */\n      dup3\n        /* \"#utility.yul\":2225:2279   */\n      and\n        /* \"#utility.yul\":2214:2279   */\n      swap1\n      pop\n        /* \"#utility.yul\":2159:2285   */\n      swap2\n      swap1\n      pop\n      jump\t// out\n        /* \"#utility.yul\":2291:2387   */\n    tag_128:\n        /* \"#utility.yul\":2328:2335   */\n      0x00\n        /* \"#utility.yul\":2357:2381   */\n      tag_173\n        /* \"#utility.yul\":2375:2380   */\n      dup3\n        /* \"#utility.yul\":2357:2381   */\n      tag_127\n      jump\t// in\n    tag_173:\n        /* \"#utility.yul\":2346:2381   */\n      swap1\n      pop\n        /* \"#utility.yul\":2291:2387   */\n      swap2\n      swap1\n      pop\n      jump\t// out\n        /* \"#utility.yul\":2393:2515   */\n    tag_129:\n        /* \"#utility.yul\":2466:2490   */\n      tag_175\n        /* \"#utility.yul\":2484:2489   */\n      dup2\n        /* \"#utility.yul\":2466:2490   */\n      tag_128\n      jump\t// in\n    tag_175:\n        /* \"#utility.yul\":2459:2464   */\n      dup2\n        /* \"#utility.yul\":2456:2491   */\n      eq\n        /* \"#utility.yul\":2446:2509   */\n      tag_176\n      jumpi\n        /* \"#utility.yul\":2505:2506   */\n      0x00\n        /* \"#utility.yul\":2502:2503   */\n      dup1\n        /* \"#utility.yul\":2495:2507   */\n      revert\n        /* \"#utility.yul\":2446:2509   */\n    tag_176:\n        /* \"#utility.yul\":2393:2515   */\n      pop\n      jump\t// out\n        /* \"#utility.yul\":2521:2660   */\n    tag_130:\n        /* \"#utility.yul\":2567:2572   */\n      0x00\n        /* \"#utility.yul\":2605:2611   */\n      dup2\n        /* \"#utility.yul\":2592:2612   */\n      calldataload\n        /* \"#utility.yul\":2583:2612   */\n      swap1\n      pop\n        /* \"#utility.yul\":2621:2654   */\n      tag_178\n        /* \"#utility.yul\":2648:2653   */\n      dup2\n        /* \"#utility.yul\":2621:2654   */\n      tag_129\n      jump\t// in\n    tag_178:\n        /* \"#utility.yul\":2521:2660   */\n      swap3\n      swap2\n      pop\n      pop\n      jump\t// out\n        /* \"#utility.yul\":2666:2995   */\n    tag_27:\n        /* \"#utility.yul\":2725:2731   */\n      0x00\n        /* \"#utility.yul\":2774:2776   */\n      0x20\n        /* \"#utility.yul\":2762:2771   */\n      dup3\n        /* \"#utility.yul\":2753:2760   */\n      dup5\n        /* \"#utility.yul\":2749:2772   */\n      sub\n        /* \"#utility.yul\":2745:2777   */\n      slt\n        /* \"#utility.yul\":2742:2861   */\n      iszero\n      tag_180\n      jumpi\n        /* \"#utility.yul\":2780:2859   */\n      tag_181\n      tag_125\n      jump\t// in\n    tag_181:\n        /* \"#utility.yul\":2742:2861   */\n    tag_180:\n        /* \"#utility.yul\":2900:2901   */\n      0x00\n        /* \"#utility.yul\":2925:2978   */\n      tag_182\n        /* \"#utility.yul\":2970:2977   */\n      dup5\n        /* \"#utility.yul\":2961:2967   */\n      dup3\n        /* \"#utility.yul\":2950:2959   */\n      dup6\n        /* \"#utility.yul\":2946:2968   */\n      add\n        /* \"#utility.yul\":2925:2978   */\n      tag_130\n      jump\t// in\n    tag_182:\n        /* \"#utility.yul\":2915:2978   */\n      swap2\n      pop\n        /* \"#utility.yul\":2871:2988   */\n      pop\n        /* \"#utility.yul\":2666:2995   */\n      swap3\n      swap2\n      pop\n      pop\n      jump\t// out\n        /* \"#utility.yul\":3001:3123   */\n    tag_131:\n        /* \"#utility.yul\":3074:3098   */\n      tag_184\n        /* \"#utility.yul\":3092:3097   */\n      dup2\n        /* \"#utility.yul\":3074:3098   */\n      tag_122\n      jump\t// in\n    tag_184:\n        /* \"#utility.yul\":3067:3072   */\n      dup2\n        /* \"#utility.yul\":3064:3099   */\n      eq\n        /* \"#utility.yul\":3054:3117   */\n      tag_185\n      jumpi\n        /* \"#utility.yul\":3113:3114   */\n      0x00\n        /* \"#utility.yul\":3110:3111   */\n      dup1\n        /* \"#utility.yul\":3103:3115   */\n      revert\n        /* \"#utility.yul\":3054:3117   */\n    tag_185:\n        /* \"#utility.yul\":3001:3123   */\n      pop\n      jump\t// out\n        /* \"#utility.yul\":3129:3268   */\n    tag_132:\n        /* \"#utility.yul\":3175:3180   */\n      0x00\n        /* \"#utility.yul\":3213:3219   */\n      dup2\n        /* \"#utility.yul\":3200:3220   */\n      calldataload\n        /* \"#utility.yul\":3191:3220   */\n      swap1\n      pop\n        /* \"#utility.yul\":3229:3262   */\n      tag_187\n        /* \"#utility.yul\":3256:3261   */\n      dup2\n        /* \"#utility.yul\":3229:3262   */\n      tag_131\n      jump\t// in\n    tag_187:\n        /* \"#utility.yul\":3129:3268   */\n      swap3\n      swap2\n      pop\n      pop\n      jump\t// out\n        /* \"#utility.yul\":3274:3748   */\n    tag_32:\n        /* \"#utility.yul\":3342:3348   */\n      0x00\n        /* \"#utility.yul\":3350:3356   */\n      dup1\n        /* \"#utility.yul\":3399:3401   */\n      0x40\n        /* \"#utility.yul\":3387:3396   */\n      dup4\n        /* \"#utility.yul\":3378:3385   */\n      dup6\n        /* \"#utility.yul\":3374:3397   */\n      sub\n        /* \"#utility.yul\":3370:3402   */\n      slt\n        /* \"#utility.yul\":3367:3486   */\n      iszero\n      tag_189\n      jumpi\n        /* \"#utility.yul\":3405:3484   */\n      tag_190\n      tag_125\n      jump\t// in\n    tag_190:\n        /* \"#utility.yul\":3367:3486   */\n    tag_189:\n        /* \"#utility.yul\":3525:3526   */\n      0x00\n        /* \"#utility.yul\":3550:3603   */\n      tag_191\n        /* \"#utility.yul\":3595:3602   */\n      dup6\n        /* \"#utility.yul\":3586:3592   */\n      dup3\n        /* \"#utility.yul\":3575:3584   */\n      dup7\n        /* \"#utility.yul\":3571:3593   */\n      add\n        /* \"#utility.yul\":3550:3603   */\n      tag_130\n      jump\t// in\n    tag_191:\n        /* \"#utility.yul\":3540:3603   */\n      swap3\n      pop\n        /* \"#utility.yul\":3496:3613   */\n      pop\n        /* \"#utility.yul\":3652:3654   */\n      0x20\n        /* \"#utility.yul\":3678:3731   */\n      tag_192\n        /* \"#utility.yul\":3723:3730   */\n      dup6\n        /* \"#utility.yul\":3714:3720   */\n      dup3\n        /* \"#utility.yul\":3703:3712   */\n      dup7\n        /* \"#utility.yul\":3699:3721   */\n      add\n        /* \"#utility.yul\":3678:3731   */\n      tag_132\n      jump\t// in\n    tag_192:\n        /* \"#utility.yul\":3668:3731   */\n      swap2\n      pop\n        /* \"#utility.yul\":3623:3741   */\n      pop\n        /* \"#utility.yul\":3274:3748   */\n      swap3\n      pop\n      swap3\n      swap1\n      pop\n      jump\t// out\n        /* \"#utility.yul\":3754:3872   */\n    tag_133:\n        /* \"#utility.yul\":3841:3865   */\n      tag_194\n        /* \"#utility.yul\":3859:3864   */\n      dup2\n        /* \"#utility.yul\":3841:3865   */\n      tag_128\n      jump\t// in\n    tag_194:\n        /* \"#utility.yul\":3836:3839   */\n      dup3\n        /* \"#utility.yul\":3829:3866   */\n      mstore\n        /* \"#utility.yul\":3754:3872   */\n      pop\n      pop\n      jump\t// out\n        /* \"#utility.yul\":3878:4100   */\n    tag_50:\n        /* \"#utility.yul\":3971:3975   */\n      0x00\n        /* \"#utility.yul\":4009:4011   */\n      0x20\n        /* \"#utility.yul\":3998:4007   */\n      dup3\n        /* \"#utility.yul\":3994:4012   */\n      add\n        /* \"#utility.yul\":3986:4012   */\n      swap1\n      pop\n        /* \"#utility.yul\":4022:4093   */\n      tag_196\n        /* \"#utility.yul\":4090:4091   */\n      0x00\n        /* \"#utility.yul\":4079:4088   */\n      dup4\n        /* \"#utility.yul\":4075:4092   */\n      add\n        /* \"#utility.yul\":4066:4072   */\n      dup5\n        /* \"#utility.yul\":4022:4093   */\n      tag_133\n      jump\t// in\n    tag_196:\n        /* \"#utility.yul\":3878:4100   */\n      swap3\n      swap2\n      pop\n      pop\n      jump\t// out\n        /* \"#utility.yul\":4106:4276   */\n    tag_134:\n        /* \"#utility.yul\":4246:4268   */\n      0x596f75277265206e6f7420746865206f776e6572000000000000000000000000\n        /* \"#utility.yul\":4242:4243   */\n      0x00\n        /* \"#utility.yul\":4234:4240   */\n      dup3\n        /* \"#utility.yul\":4230:4244   */\n      add\n        /* \"#utility.yul\":4223:4269   */\n      mstore\n        /* \"#utility.yul\":4106:4276   */\n      pop\n      jump\t// out\n        /* \"#utility.yul\":4282:4648   */\n    tag_135:\n        /* \"#utility.yul\":4424:4427   */\n      0x00\n        /* \"#utility.yul\":4445:4512   */\n      tag_199\n        /* \"#utility.yul\":4509:4511   */\n      0x14\n        /* \"#utility.yul\":4504:4507   */\n      dup4\n        /* \"#utility.yul\":4445:4512   */\n      tag_118\n      jump\t// in\n    tag_199:\n        /* \"#utility.yul\":4438:4512   */\n      swap2\n      pop\n        /* \"#utility.yul\":4521:4614   */\n      tag_200\n        /* \"#utility.yul\":4610:4613   */\n      dup3\n        /* \"#utility.yul\":4521:4614   */\n      tag_134\n      jump\t// in\n    tag_200:\n        /* \"#utility.yul\":4639:4641   */\n      0x20\n        /* \"#utility.yul\":4634:4637   */\n      dup3\n        /* \"#utility.yul\":4630:4642   */\n      add\n        /* \"#utility.yul\":4623:4642   */\n      swap1\n      pop\n        /* \"#utility.yul\":4282:4648   */\n      swap2\n      swap1\n      pop\n      jump\t// out\n        /* \"#utility.yul\":4654:5073   */\n    tag_66:\n        /* \"#utility.yul\":4820:4824   */\n      0x00\n        /* \"#utility.yul\":4858:4860   */\n      0x20\n        /* \"#utility.yul\":4847:4856   */\n      dup3\n        /* \"#utility.yul\":4843:4861   */\n      add\n        /* \"#utility.yul\":4835:4861   */\n      swap1\n      pop\n        /* \"#utility.yul\":4907:4916   */\n      dup2\n        /* \"#utility.yul\":4901:4905   */\n      dup2\n        /* \"#utility.yul\":4897:4917   */\n      sub\n        /* \"#utility.yul\":4893:4894   */\n      0x00\n        /* \"#utility.yul\":4882:4891   */\n      dup4\n        /* \"#utility.yul\":4878:4895   */\n      add\n        /* \"#utility.yul\":4871:4918   */\n      mstore\n        /* \"#utility.yul\":4935:5066   */\n      tag_202\n        /* \"#utility.yul\":5061:5065   */\n      dup2\n        /* \"#utility.yul\":4935:5066   */\n      tag_135\n      jump\t// in\n    tag_202:\n        /* \"#utility.yul\":4927:5066   */\n      swap1\n      pop\n        /* \"#utility.yul\":4654:5073   */\n      swap2\n      swap1\n      pop\n      jump\t// out\n        /* \"#utility.yul\":5079:5260   */\n    tag_136:\n        /* \"#utility.yul\":5219:5252   */\n      0x45524332303a206d696e7420746f20746865207a65726f206164647265737300\n        /* \"#utility.yul\":5215:5216   */\n      0x00\n        /* \"#utility.yul\":5207:5213   */\n      dup3\n        /* \"#utility.yul\":5203:5217   */\n      add\n        /* \"#utility.yul\":5196:5253   */\n      mstore\n        /* \"#utility.yul\":5079:5260   */\n      pop\n      jump\t// out\n        /* \"#utility.yul\":5266:5632   */\n    tag_137:\n        /* \"#utility.yul\":5408:5411   */\n      0x00\n        /* \"#utility.yul\":5429:5496   */\n      tag_205\n        /* \"#utility.yul\":5493:5495   */\n      0x1f\n        /* \"#utility.yul\":5488:5491   */\n      dup4\n        /* \"#utility.yul\":5429:5496   */\n      tag_118\n      jump\t// in\n    tag_205:\n        /* \"#utility.yul\":5422:5496   */\n      swap2\n      pop\n        /* \"#utility.yul\":5505:5598   */\n      tag_206\n        /* \"#utility.yul\":5594:5597   */\n      dup3\n        /* \"#utility.yul\":5505:5598   */\n      tag_136\n      jump\t// in\n    tag_206:\n        /* \"#utility.yul\":5623:5625   */\n      0x20\n        /* \"#utility.yul\":5618:5621   */\n      dup3\n        /* \"#utility.yul\":5614:5626   */\n      add\n        /* \"#utility.yul\":5607:5626   */\n      swap1\n      pop\n        /* \"#utility.yul\":5266:5632   */\n      swap2\n      swap1\n      pop\n      jump\t// out\n        /* \"#utility.yul\":5638:6057   */\n    tag_70:\n        /* \"#utility.yul\":5804:5808   */\n      0x00\n        /* \"#utility.yul\":5842:5844   */\n      0x20\n        /* \"#utility.yul\":5831:5840   */\n      dup3\n        /* \"#utility.yul\":5827:5845   */\n      add\n        /* \"#utility.yul\":5819:5845   */\n      swap1\n      pop\n        /* \"#utility.yul\":5891:5900   */\n      dup2\n        /* \"#utility.yul\":5885:5889   */\n      dup2\n        /* \"#utility.yul\":5881:5901   */\n      sub\n        /* \"#utility.yul\":5877:5878   */\n      0x00\n        /* \"#utility.yul\":5866:5875   */\n      dup4\n        /* \"#utility.yul\":5862:5879   */\n      add\n        /* \"#utility.yul\":5855:5902   */\n      mstore\n        /* \"#utility.yul\":5919:6050   */\n      tag_208\n        /* \"#utility.yul\":6045:6049   */\n      dup2\n        /* \"#utility.yul\":5919:6050   */\n      tag_137\n      jump\t// in\n    tag_208:\n        /* \"#utility.yul\":5911:6050   */\n      swap1\n      pop\n        /* \"#utility.yul\":5638:6057   */\n      swap2\n      swap1\n      pop\n      jump\t// out\n        /* \"#utility.yul\":6063:6243   */\n    tag_138:\n        /* \"#utility.yul\":6111:6188   */\n      0x4e487b7100000000000000000000000000000000000000000000000000000000\n        /* \"#utility.yul\":6108:6109   */\n      0x00\n        /* \"#utility.yul\":6101:6189   */\n      mstore\n        /* \"#utility.yul\":6208:6212   */\n      0x11\n        /* \"#utility.yul\":6205:6206   */\n      0x04\n        /* \"#utility.yul\":6198:6213   */\n      mstore\n        /* \"#utility.yul\":6232:6236   */\n      0x24\n        /* \"#utility.yul\":6229:6230   */\n      0x00\n        /* \"#utility.yul\":6222:6237   */\n      revert\n        /* \"#utility.yul\":6249:6554   */\n    tag_72:\n        /* \"#utility.yul\":6289:6292   */\n      0x00\n        /* \"#utility.yul\":6308:6328   */\n      tag_211\n        /* \"#utility.yul\":6326:6327   */\n      dup3\n        /* \"#utility.yul\":6308:6328   */\n      tag_122\n      jump\t// in\n    tag_211:\n        /* \"#utility.yul\":6303:6328   */\n      swap2\n      pop\n        /* \"#utility.yul\":6342:6362   */\n      tag_212\n        /* \"#utility.yul\":6360:6361   */\n      dup4\n        /* \"#utility.yul\":6342:6362   */\n      tag_122\n      jump\t// in\n    tag_212:\n        /* \"#utility.yul\":6337:6362   */\n      swap3\n      pop\n        /* \"#utility.yul\":6496:6497   */\n      dup3\n        /* \"#utility.yul\":6428:6494   */\n      0xffffffffffffffffffffffffffffffffffffffffffffffffffffffffffffffff\n        /* \"#utility.yul\":6424:6498   */\n      sub\n        /* \"#utility.yul\":6421:6422   */\n      dup3\n        /* \"#utility.yul\":6418:6499   */\n      gt\n        /* \"#utility.yul\":6415:6522   */\n      iszero\n      tag_213\n      jumpi\n        /* \"#utility.yul\":6502:6520   */\n      tag_214\n      tag_138\n      jump\t// in\n    tag_214:\n        /* \"#utility.yul\":6415:6522   */\n    tag_213:\n        /* \"#utility.yul\":6546:6547   */\n      dup3\n        /* \"#utility.yul\":6543:6544   */\n      dup3\n        /* \"#utility.yul\":6539:6548   */\n      add\n        /* \"#utility.yul\":6532:6548   */\n      swap1\n      pop\n        /* \"#utility.yul\":6249:6554   */\n      swap3\n      swap2\n      pop\n      pop\n      jump\t// out\n        /* \"#utility.yul\":6560:6751   */\n    tag_80:\n        /* \"#utility.yul\":6600:6604   */\n      0x00\n        /* \"#utility.yul\":6620:6640   */\n      tag_216\n        /* \"#utility.yul\":6638:6639   */\n      dup3\n        /* \"#utility.yul\":6620:6640   */\n      tag_122\n      jump\t// in\n    tag_216:\n        /* \"#utility.yul\":6615:6640   */\n      swap2\n      pop\n        /* \"#utility.yul\":6654:6674   */\n      tag_217\n        /* \"#utility.yul\":6672:6673   */\n      dup4\n        /* \"#utility.yul\":6654:6674   */\n      tag_122\n      jump\t// in\n    tag_217:\n        /* \"#utility.yul\":6649:6674   */\n      swap3\n      pop\n        /* \"#utility.yul\":6693:6694   */\n      dup3\n        /* \"#utility.yul\":6690:6691   */\n      dup3\n        /* \"#utility.yul\":6687:6695   */\n      lt\n        /* \"#utility.yul\":6684:6718   */\n      iszero\n      tag_218\n      jumpi\n        /* \"#utility.yul\":6698:6716   */\n      tag_219\n      tag_138\n      jump\t// in\n    tag_219:\n        /* \"#utility.yul\":6684:6718   */\n    tag_218:\n        /* \"#utility.yul\":6743:6744   */\n      dup3\n        /* \"#utility.yul\":6740:6741   */\n      dup3\n        /* \"#utility.yul\":6736:6745   */\n      sub\n        /* \"#utility.yul\":6728:6745   */\n      swap1\n      pop\n        /* \"#utility.yul\":6560:6751   */\n      swap3\n      swap2\n      pop\n      pop\n      jump\t// out\n        /* \"#utility.yul\":6757:6937   */\n    tag_139:\n        /* \"#utility.yul\":6805:6882   */\n      0x4e487b7100000000000000000000000000000000000000000000000000000000\n        /* \"#utility.yul\":6802:6803   */\n      0x00\n        /* \"#utility.yul\":6795:6883   */\n      mstore\n        /* \"#utility.yul\":6902:6906   */\n      0x12\n        /* \"#utility.yul\":6899:6900   */\n      0x04\n        /* \"#utility.yul\":6892:6907   */\n      mstore\n        /* \"#utility.yul\":6926:6930   */\n      0x24\n        /* \"#utility.yul\":6923:6924   */\n      0x00\n        /* \"#utility.yul\":6916:6931   */\n      revert\n        /* \"#utility.yul\":6943:7128   */\n    tag_82:\n        /* \"#utility.yul\":6983:6984   */\n      0x00\n        /* \"#utility.yul\":7000:7020   */\n      tag_222\n        /* \"#utility.yul\":7018:7019   */\n      dup3\n        /* \"#utility.yul\":7000:7020   */\n      tag_122\n      jump\t// in\n    tag_222:\n        /* \"#utility.yul\":6995:7020   */\n      swap2\n      pop\n        /* \"#utility.yul\":7034:7054   */\n      tag_223\n        /* \"#utility.yul\":7052:7053   */\n      dup4\n        /* \"#utility.yul\":7034:7054   */\n      tag_122\n      jump\t// in\n    tag_223:\n        /* \"#utility.yul\":7029:7054   */\n      swap3\n      pop\n        /* \"#utility.yul\":7073:7074   */\n      dup3\n        /* \"#utility.yul\":7063:7098   */\n      tag_224\n      jumpi\n        /* \"#utility.yul\":7078:7096   */\n      tag_225\n      tag_139\n      jump\t// in\n    tag_225:\n        /* \"#utility.yul\":7063:7098   */\n    tag_224:\n        /* \"#utility.yul\":7120:7121   */\n      dup3\n        /* \"#utility.yul\":7117:7118   */\n      dup3\n        /* \"#utility.yul\":7113:7122   */\n      div\n        /* \"#utility.yul\":7108:7122   */\n      swap1\n      pop\n        /* \"#utility.yul\":6943:7128   */\n      swap3\n      swap2\n      pop\n      pop\n      jump\t// out\n        /* \"#utility.yul\":7134:7301   */\n    tag_140:\n        /* \"#utility.yul\":7274:7293   */\n      0x4e6f7420656e6f75676820746f6b656e73000000000000000000000000000000\n        /* \"#utility.yul\":7270:7271   */\n      0x00\n        /* \"#utility.yul\":7262:7268   */\n      dup3\n        /* \"#utility.yul\":7258:7272   */\n      add\n        /* \"#utility.yul\":7251:7294   */\n      mstore\n        /* \"#utility.yul\":7134:7301   */\n      pop\n      jump\t// out\n        /* \"#utility.yul\":7307:7673   */\n    tag_141:\n        /* \"#utility.yul\":7449:7452   */\n      0x00\n        /* \"#utility.yul\":7470:7537   */\n      tag_228\n        /* \"#utility.yul\":7534:7536   */\n      0x11\n        /* \"#utility.yul\":7529:7532   */\n      dup4\n        /* \"#utility.yul\":7470:7537   */\n      tag_118\n      jump\t// in\n    tag_228:\n        /* \"#utility.yul\":7463:7537   */\n      swap2\n      pop\n        /* \"#utility.yul\":7546:7639   */\n      tag_229\n        /* \"#utility.yul\":7635:7638   */\n      dup3\n        /* \"#utility.yul\":7546:7639   */\n      tag_140\n      jump\t// in\n    tag_229:\n        /* \"#utility.yul\":7664:7666   */\n      0x20\n        /* \"#utility.yul\":7659:7662   */\n      dup3\n        /* \"#utility.yul\":7655:7667   */\n      add\n        /* \"#utility.yul\":7648:7667   */\n      swap1\n      pop\n        /* \"#utility.yul\":7307:7673   */\n      swap2\n      swap1\n      pop\n      jump\t// out\n        /* \"#utility.yul\":7679:8098   */\n    tag_86:\n        /* \"#utility.yul\":7845:7849   */\n      0x00\n        /* \"#utility.yul\":7883:7885   */\n      0x20\n        /* \"#utility.yul\":7872:7881   */\n      dup3\n        /* \"#utility.yul\":7868:7886   */\n      add\n        /* \"#utility.yul\":7860:7886   */\n      swap1\n      pop\n        /* \"#utility.yul\":7932:7941   */\n      dup2\n        /* \"#utility.yul\":7926:7930   */\n      dup2\n        /* \"#utility.yul\":7922:7942   */\n      sub\n        /* \"#utility.yul\":7918:7919   */\n      0x00\n        /* \"#utility.yul\":7907:7916   */\n      dup4\n        /* \"#utility.yul\":7903:7920   */\n      add\n        /* \"#utility.yul\":7896:7943   */\n      mstore\n        /* \"#utility.yul\":7960:8091   */\n      tag_231\n        /* \"#utility.yul\":8086:8090   */\n      dup2\n        /* \"#utility.yul\":7960:8091   */\n      tag_141\n      jump\t// in\n    tag_231:\n        /* \"#utility.yul\":7952:8091   */\n      swap1\n      pop\n        /* \"#utility.yul\":7679:8098   */\n      swap2\n      swap1\n      pop\n      jump\t// out\n        /* \"#utility.yul\":8104:8281   */\n    tag_142:\n        /* \"#utility.yul\":8244:8273   */\n      0x4e6f206d696e7420746f20746865207a65726f20616464726573730000000000\n        /* \"#utility.yul\":8240:8241   */\n      0x00\n        /* \"#utility.yul\":8232:8238   */\n      dup3\n        /* \"#utility.yul\":8228:8242   */\n      add\n        /* \"#utility.yul\":8221:8274   */\n      mstore\n        /* \"#utility.yul\":8104:8281   */\n      pop\n      jump\t// out\n        /* \"#utility.yul\":8287:8653   */\n    tag_143:\n        /* \"#utility.yul\":8429:8432   */\n      0x00\n        /* \"#utility.yul\":8450:8517   */\n      tag_234\n        /* \"#utility.yul\":8514:8516   */\n      0x1b\n        /* \"#utility.yul\":8509:8512   */\n      dup4\n        /* \"#utility.yul\":8450:8517   */\n      tag_118\n      jump\t// in\n    tag_234:\n        /* \"#utility.yul\":8443:8517   */\n      swap2\n      pop\n        /* \"#utility.yul\":8526:8619   */\n      tag_235\n        /* \"#utility.yul\":8615:8618   */\n      dup3\n        /* \"#utility.yul\":8526:8619   */\n      tag_142\n      jump\t// in\n    tag_235:\n        /* \"#utility.yul\":8644:8646   */\n      0x20\n        /* \"#utility.yul\":8639:8642   */\n      dup3\n        /* \"#utility.yul\":8635:8647   */\n      add\n        /* \"#utility.yul\":8628:8647   */\n      swap1\n      pop\n        /* \"#utility.yul\":8287:8653   */\n      swap2\n      swap1\n      pop\n      jump\t// out\n        /* \"#utility.yul\":8659:9078   */\n    tag_89:\n        /* \"#utility.yul\":8825:8829   */\n      0x00\n        /* \"#utility.yul\":8863:8865   */\n      0x20\n        /* \"#utility.yul\":8852:8861   */\n      dup3\n        /* \"#utility.yul\":8848:8866   */\n      add\n        /* \"#utility.yul\":8840:8866   */\n      swap1\n      pop\n        /* \"#utility.yul\":8912:8921   */\n      dup2\n        /* \"#utility.yul\":8906:8910   */\n      dup2\n        /* \"#utility.yul\":8902:8922   */\n      sub\n        /* \"#utility.yul\":8898:8899   */\n      0x00\n        /* \"#utility.yul\":8887:8896   */\n      dup4\n        /* \"#utility.yul\":8883:8900   */\n      add\n        /* \"#utility.yul\":8876:8923   */\n      mstore\n        /* \"#utility.yul\":8940:9071   */\n      tag_237\n        /* \"#utility.yul\":9066:9070   */\n      dup2\n        /* \"#utility.yul\":8940:9071   */\n      tag_143\n      jump\t// in\n    tag_237:\n        /* \"#utility.yul\":8932:9071   */\n      swap1\n      pop\n        /* \"#utility.yul\":8659:9078   */\n      swap2\n      swap1\n      pop\n      jump\t// out\n        /* \"#utility.yul\":9084:9186   */\n    tag_144:\n        /* \"#utility.yul\":9126:9134   */\n      0x00\n        /* \"#utility.yul\":9173:9178   */\n      dup2\n        /* \"#utility.yul\":9170:9171   */\n      0x01\n        /* \"#utility.yul\":9166:9179   */\n      shr\n        /* \"#utility.yul\":9145:9179   */\n      swap1\n      pop\n        /* \"#utility.yul\":9084:9186   */\n      swap2\n      swap1\n      pop\n      jump\t// out\n        /* \"#utility.yul\":9192:10040   */\n    tag_145:\n        /* \"#utility.yul\":9253:9258   */\n      0x00\n        /* \"#utility.yul\":9260:9264   */\n      dup1\n        /* \"#utility.yul\":9284:9290   */\n      dup3\n        /* \"#utility.yul\":9275:9290   */\n      swap2\n      pop\n        /* \"#utility.yul\":9308:9313   */\n      dup4\n        /* \"#utility.yul\":9299:9313   */\n      swap1\n      pop\n        /* \"#utility.yul\":9322:10034   */\n    tag_240:\n        /* \"#utility.yul\":9343:9344   */\n      0x01\n        /* \"#utility.yul\":9333:9341   */\n      dup6\n        /* \"#utility.yul\":9330:9345   */\n      gt\n        /* \"#utility.yul\":9322:10034   */\n      iszero\n      tag_242\n      jumpi\n        /* \"#utility.yul\":9438:9442   */\n      dup1\n        /* \"#utility.yul\":9433:9436   */\n      dup7\n        /* \"#utility.yul\":9429:9443   */\n      div\n        /* \"#utility.yul\":9423:9427   */\n      dup2\n        /* \"#utility.yul\":9420:9444   */\n      gt\n        /* \"#utility.yul\":9417:9467   */\n      iszero\n      tag_243\n      jumpi\n        /* \"#utility.yul\":9447:9465   */\n      tag_244\n      tag_138\n      jump\t// in\n    tag_244:\n        /* \"#utility.yul\":9417:9467   */\n    tag_243:\n        /* \"#utility.yul\":9497:9498   */\n      0x01\n        /* \"#utility.yul\":9487:9495   */\n      dup6\n        /* \"#utility.yul\":9483:9499   */\n      and\n        /* \"#utility.yul\":9480:9931   */\n      iszero\n      tag_245\n      jumpi\n        /* \"#utility.yul\":9912:9916   */\n      dup1\n        /* \"#utility.yul\":9905:9910   */\n      dup3\n        /* \"#utility.yul\":9901:9917   */\n      mul\n        /* \"#utility.yul\":9892:9917   */\n      swap2\n      pop\n        /* \"#utility.yul\":9480:9931   */\n    tag_245:\n        /* \"#utility.yul\":9962:9966   */\n      dup1\n        /* \"#utility.yul\":9956:9960   */\n      dup2\n        /* \"#utility.yul\":9952:9967   */\n      mul\n        /* \"#utility.yul\":9944:9967   */\n      swap1\n      pop\n        /* \"#utility.yul\":9992:10024   */\n      tag_246\n        /* \"#utility.yul\":10015:10023   */\n      dup6\n        /* \"#utility.yul\":9992:10024   */\n      tag_144\n      jump\t// in\n    tag_246:\n        /* \"#utility.yul\":9980:10024   */\n      swap5\n      pop\n        /* \"#utility.yul\":9322:10034   */\n      jump(tag_240)\n    tag_242:\n        /* \"#utility.yul\":9192:10040   */\n      swap5\n      pop\n      swap5\n      swap3\n      pop\n      pop\n      pop\n      jump\t// out\n        /* \"#utility.yul\":10046:11119   */\n    tag_146:\n        /* \"#utility.yul\":10100:10105   */\n      0x00\n        /* \"#utility.yul\":10291:10299   */\n      dup3\n        /* \"#utility.yul\":10281:10321   */\n      tag_248\n      jumpi\n        /* \"#utility.yul\":10312:10313   */\n      0x01\n        /* \"#utility.yul\":10303:10313   */\n      swap1\n      pop\n        /* \"#utility.yul\":10314:10319   */\n      jump(tag_247)\n        /* \"#utility.yul\":10281:10321   */\n    tag_248:\n        /* \"#utility.yul\":10340:10344   */\n      dup2\n        /* \"#utility.yul\":10330:10366   */\n      tag_249\n      jumpi\n        /* \"#utility.yul\":10357:10358   */\n      0x00\n        /* \"#utility.yul\":10348:10358   */\n      swap1\n      pop\n        /* \"#utility.yul\":10359:10364   */\n      jump(tag_247)\n        /* \"#utility.yul\":10330:10366   */\n    tag_249:\n        /* \"#utility.yul\":10426:10430   */\n      dup2\n        /* \"#utility.yul\":10474:10475   */\n      0x01\n        /* \"#utility.yul\":10469:10496   */\n      dup2\n      eq\n      tag_251\n      jumpi\n        /* \"#utility.yul\":10510:10511   */\n      0x02\n        /* \"#utility.yul\":10505:10696   */\n      dup2\n      eq\n      tag_252\n      jumpi\n        /* \"#utility.yul\":10419:10696   */\n      jump(tag_250)\n        /* \"#utility.yul\":10469:10496   */\n    tag_251:\n        /* \"#utility.yul\":10487:10488   */\n      0x01\n        /* \"#utility.yul\":10478:10488   */\n      swap2\n      pop\n        /* \"#utility.yul\":10489:10494   */\n      pop\n      jump(tag_247)\n        /* \"#utility.yul\":10505:10696   */\n    tag_252:\n        /* \"#utility.yul\":10550:10553   */\n      0xff\n        /* \"#utility.yul\":10540:10548   */\n      dup5\n        /* \"#utility.yul\":10537:10554   */\n      gt\n        /* \"#utility.yul\":10534:10577   */\n      iszero\n      tag_253\n      jumpi\n        /* \"#utility.yul\":10557:10575   */\n      tag_254\n      tag_138\n      jump\t// in\n    tag_254:\n        /* \"#utility.yul\":10534:10577   */\n    tag_253:\n        /* \"#utility.yul\":10606:10614   */\n      dup4\n        /* \"#utility.yul\":10603:10604   */\n      0x02\n        /* \"#utility.yul\":10599:10615   */\n      exp\n        /* \"#utility.yul\":10590:10615   */\n      swap2\n      pop\n        /* \"#utility.yul\":10641:10644   */\n      dup5\n        /* \"#utility.yul\":10634:10639   */\n      dup3\n        /* \"#utility.yul\":10631:10645   */\n      gt\n        /* \"#utility.yul\":10628:10668   */\n      iszero\n      tag_255\n      jumpi\n        /* \"#utility.yul\":10648:10666   */\n      tag_256\n      tag_138\n      jump\t// in\n    tag_256:\n        /* \"#utility.yul\":10628:10668   */\n    tag_255:\n        /* \"#utility.yul\":10681:10686   */\n      pop\n      jump(tag_247)\n        /* \"#utility.yul\":10419:10696   */\n    tag_250:\n      pop\n        /* \"#utility.yul\":10805:10807   */\n      0x20\n        /* \"#utility.yul\":10795:10803   */\n      dup4\n        /* \"#utility.yul\":10792:10808   */\n      lt\n        /* \"#utility.yul\":10786:10789   */\n      0x0133\n        /* \"#utility.yul\":10780:10784   */\n      dup4\n        /* \"#utility.yul\":10777:10790   */\n      lt\n        /* \"#utility.yul\":10773:10809   */\n      and\n        /* \"#utility.yul\":10755:10757   */\n      0x4e\n        /* \"#utility.yul\":10745:10753   */\n      dup5\n        /* \"#utility.yul\":10742:10758   */\n      lt\n        /* \"#utility.yul\":10737:10739   */\n      0x0b\n        /* \"#utility.yul\":10731:10735   */\n      dup5\n        /* \"#utility.yul\":10728:10740   */\n      lt\n        /* \"#utility.yul\":10724:10759   */\n      and\n        /* \"#utility.yul\":10708:10819   */\n      or\n        /* \"#utility.yul\":10705:10951   */\n      iszero\n      tag_257\n      jumpi\n        /* \"#utility.yul\":10861:10869   */\n      dup3\n        /* \"#utility.yul\":10855:10859   */\n      dup3\n        /* \"#utility.yul\":10851:10870   */\n      exp\n        /* \"#utility.yul\":10842:10870   */\n      swap1\n      pop\n        /* \"#utility.yul\":10896:10899   */\n      dup4\n        /* \"#utility.yul\":10889:10894   */\n      dup2\n        /* \"#utility.yul\":10886:10900   */\n      gt\n        /* \"#utility.yul\":10883:10923   */\n      iszero\n      tag_258\n      jumpi\n        /* \"#utility.yul\":10903:10921   */\n      tag_259\n      tag_138\n      jump\t// in\n    tag_259:\n        /* \"#utility.yul\":10883:10923   */\n    tag_258:\n        /* \"#utility.yul\":10936:10941   */\n      jump(tag_247)\n        /* \"#utility.yul\":10705:10951   */\n    tag_257:\n        /* \"#utility.yul\":10976:11018   */\n      tag_260\n        /* \"#utility.yul\":11014:11017   */\n      dup5\n        /* \"#utility.yul\":11004:11012   */\n      dup5\n        /* \"#utility.yul\":10998:11002   */\n      dup5\n        /* \"#utility.yul\":10995:10996   */\n      0x01\n        /* \"#utility.yul\":10976:11018   */\n      tag_145\n      jump\t// in\n    tag_260:\n        /* \"#utility.yul\":10961:11018   */\n      swap3\n      pop\n      swap1\n      pop\n        /* \"#utility.yul\":11050:11054   */\n      dup2\n        /* \"#utility.yul\":11045:11048   */\n      dup5\n        /* \"#utility.yul\":11041:11055   */\n      div\n        /* \"#utility.yul\":11034:11039   */\n      dup2\n        /* \"#utility.yul\":11031:11056   */\n      gt\n        /* \"#utility.yul\":11028:11079   */\n      iszero\n      tag_261\n      jumpi\n        /* \"#utility.yul\":11059:11077   */\n      tag_262\n      tag_138\n      jump\t// in\n    tag_262:\n        /* \"#utility.yul\":11028:11079   */\n    tag_261:\n        /* \"#utility.yul\":11108:11112   */\n      dup2\n        /* \"#utility.yul\":11101:11106   */\n      dup2\n        /* \"#utility.yul\":11097:11113   */\n      mul\n        /* \"#utility.yul\":11088:11113   */\n      swap1\n      pop\n        /* \"#utility.yul\":10046:11119   */\n    tag_247:\n      swap4\n      swap3\n      pop\n      pop\n      pop\n      jump\t// out\n        /* \"#utility.yul\":11125:11410   */\n    tag_101:\n        /* \"#utility.yul\":11185:11190   */\n      0x00\n        /* \"#utility.yul\":11209:11232   */\n      tag_264\n        /* \"#utility.yul\":11227:11231   */\n      dup3\n        /* \"#utility.yul\":11209:11232   */\n      tag_122\n      jump\t// in\n    tag_264:\n        /* \"#utility.yul\":11201:11232   */\n      swap2\n      pop\n        /* \"#utility.yul\":11253:11280   */\n      tag_265\n        /* \"#utility.yul\":11271:11279   */\n      dup4\n        /* \"#utility.yul\":11253:11280   */\n      tag_122\n      jump\t// in\n    tag_265:\n        /* \"#utility.yul\":11241:11280   */\n      swap3\n      pop\n        /* \"#utility.yul\":11299:11403   */\n      tag_266\n        /* \"#utility.yul\":11336:11402   */\n      0xffffffffffffffffffffffffffffffffffffffffffffffffffffffffffffffff\n        /* \"#utility.yul\":11326:11334   */\n      dup5\n        /* \"#utility.yul\":11320:11324   */\n      dup5\n        /* \"#utility.yul\":11299:11403   */\n      tag_146\n      jump\t// in\n    tag_266:\n        /* \"#utility.yul\":11290:11403   */\n      swap1\n      pop\n        /* \"#utility.yul\":11125:11410   */\n      swap3\n      swap2\n      pop\n      pop\n      jump\t// out\n        /* \"#utility.yul\":11416:11764   */\n    tag_106:\n        /* \"#utility.yul\":11456:11463   */\n      0x00\n        /* \"#utility.yul\":11479:11499   */\n      tag_268\n        /* \"#utility.yul\":11497:11498   */\n      dup3\n        /* \"#utility.yul\":11479:11499   */\n      tag_122\n      jump\t// in\n    tag_268:\n        /* \"#utility.yul\":11474:11499   */\n      swap2\n      pop\n        /* \"#utility.yul\":11513:11533   */\n      tag_269\n        /* \"#utility.yul\":11531:11532   */\n      dup4\n        /* \"#utility.yul\":11513:11533   */\n      tag_122\n      jump\t// in\n    tag_269:\n        /* \"#utility.yul\":11508:11533   */\n      swap3\n      pop\n        /* \"#utility.yul\":11701:11702   */\n      dup2\n        /* \"#utility.yul\":11633:11699   */\n      0xffffffffffffffffffffffffffffffffffffffffffffffffffffffffffffffff\n        /* \"#utility.yul\":11629:11703   */\n      div\n        /* \"#utility.yul\":11626:11627   */\n      dup4\n        /* \"#utility.yul\":11623:11704   */\n      gt\n        /* \"#utility.yul\":11618:11619   */\n      dup3\n        /* \"#utility.yul\":11611:11620   */\n      iszero\n        /* \"#utility.yul\":11604:11621   */\n      iszero\n        /* \"#utility.yul\":11600:11705   */\n      and\n        /* \"#utility.yul\":11597:11728   */\n      iszero\n      tag_270\n      jumpi\n        /* \"#utility.yul\":11708:11726   */\n      tag_271\n      tag_138\n      jump\t// in\n    tag_271:\n        /* \"#utility.yul\":11597:11728   */\n    tag_270:\n        /* \"#utility.yul\":11756:11757   */\n      dup3\n        /* \"#utility.yul\":11753:11754   */\n      dup3\n        /* \"#utility.yul\":11749:11758   */\n      mul\n        /* \"#utility.yul\":11738:11758   */\n      swap1\n      pop\n        /* \"#utility.yul\":11416:11764   */\n      swap3\n      swap2\n      pop\n      pop\n      jump\t// out\n\n    auxdata: 0xa264697066735822122044d67ffed6eff3bf924b428ace5ad09c76ef74893d3288085cb6a9f0c2abdf8864736f6c634300080d0033\n}\n",
				"bytecode": {
					"linkReferences": {},
					"object": "608060405261012c60055534801561001657600080fd5b506040516110ad3803806110ad833981810160405281019061003891906100c7565b336000806101000a81548173ffffffffffffffffffffffffffffffffffffffff021916908373ffffffffffffffffffffffffffffffffffffffff1602179055504260048190555080600681905550506100f4565b600080fd5b6000819050919050565b6100a481610091565b81146100af57600080fd5b50565b6000815190506100c18161009b565b92915050565b6000602082840312156100dd576100dc61008c565b5b60006100eb848285016100b2565b91505092915050565b610faa806101036000396000f3fe60806040526004361061009c5760003560e01c8063771282f611610064578063771282f61461017b57806387ceff09146101a65780638da5cb5b146101d157806395d89b41146101fc578063a9059cbb14610227578063da0239a6146102505761009c565b806306fdde03146100a157806318160ddd146100cc57806327e235e3146100f757806340c10f191461013457806347b5dd5414610150575b600080fd5b3480156100ad57600080fd5b506100b661027b565b6040516100c39190610957565b60405180910390f35b3480156100d857600080fd5b506100e16102b4565b6040516100ee9190610992565b60405180910390f35b34801561010357600080fd5b5061011e60048036038101906101199190610a10565b6102ba565b60405161012b9190610992565b60405180910390f35b61014e60048036038101906101499190610a69565b6102d2565b005b34801561015c57600080fd5b506101656104c9565b6040516101729190610992565b60405180910390f35b34801561018757600080fd5b506101906104cf565b60405161019d9190610992565b60405180910390f35b3480156101b257600080fd5b506101bb6104d5565b6040516101c89190610992565b60405180910390f35b3480156101dd57600080fd5b506101e66104fc565b6040516101f39190610ab8565b60405180910390f35b34801561020857600080fd5b50610211610520565b60405161021e9190610957565b60405180910390f35b34801561023357600080fd5b5061024e60048036038101906102499190610a69565b610559565b005b34801561025c57600080fd5b50610265610777565b6040516102729190610992565b60405180910390f35b6040518060400160405280601381526020017f5061747269636b20426173696320546f6b656e0000000000000000000000000081525081565b60015481565b60076020528060005260406000206000915090505481565b60008054906101000a900473ffffffffffffffffffffffffffffffffffffffff1673ffffffffffffffffffffffffffffffffffffffff163373ffffffffffffffffffffffffffffffffffffffff1614610360576040517f08c379a000000000000000000000000000000000000000000000000000000000815260040161035790610b1f565b60405180910390fd5b600073ffffffffffffffffffffffffffffffffffffffff168273ffffffffffffffffffffffffffffffffffffffff16036103cf576040517f08c379a00000000000000000000000000000000000000000000000000000000081526004016103c690610b8b565b60405180910390fd5b80600760008473ffffffffffffffffffffffffffffffffffffffff1673ffffffffffffffffffffffffffffffffffffffff168152602001908152602001600020600082825461041e9190610bda565b9250508190555080600260008282546104379190610bda565b9250508190555080600160008282546104509190610bda565b9250508190555061045f61078e565b508173ffffffffffffffffffffffffffffffffffffffff163373ffffffffffffffffffffffffffffffffffffffff167f3990db2d31862302a685e8086b5755072a6e2b5b780af1ee81ece35ee3cd3345836040516104bd9190610992565b60405180910390a35050565b60035481565b60025481565b600080600554600454426104e99190610c30565b6104f39190610c93565b90508091505090565b60008054906101000a900473ffffffffffffffffffffffffffffffffffffffff1681565b6040518060400160405280600481526020017f504253540000000000000000000000000000000000000000000000000000000081525081565b600760003373ffffffffffffffffffffffffffffffffffffffff1673ffffffffffffffffffffffffffffffffffffffff168152602001908152602001600020548111156105db576040517f08c379a00000000000000000000000000000000000000000000000000000000081526004016105d290610d10565b60405180910390fd5b600073ffffffffffffffffffffffffffffffffffffffff168273ffffffffffffffffffffffffffffffffffffffff160361064a576040517f08c379a000000000000000000000000000000000000000000000000000000000815260040161064190610d7c565b60405180910390fd5b60025481111561065957600080fd5b80600760003373ffffffffffffffffffffffffffffffffffffffff1673ffffffffffffffffffffffffffffffffffffffff16815260200190815260200160002060008282546106a89190610c30565b9250508190555080600760008473ffffffffffffffffffffffffffffffffffffffff1673ffffffffffffffffffffffffffffffffffffffff16815260200190815260200160002060008282546106fe9190610bda565b9250508190555061070e816107b6565b8173ffffffffffffffffffffffffffffffffffffffff163373ffffffffffffffffffffffffffffffffffffffff167f3990db2d31862302a685e8086b5755072a6e2b5b780af1ee81ece35ee3cd33458360405161076b9190610992565b60405180910390a35050565b60006002546001546107899190610c30565b905090565b60006107986104d5565b60026107a49190610ecf565b6006546107b19190610c93565b905090565b60016103e8826107c69190610c93565b6107d09190610f1a565b600160008282546107e19190610c30565b9250508190555060016103e8826107f89190610c93565b6108029190610f1a565b600260008282546108139190610c30565b9250508190555060016103e88261082a9190610c93565b6108349190610f1a565b600360008282546108459190610bda565b9250508190555060016103e88261085c9190610c93565b6108669190610f1a565b600760003373ffffffffffffffffffffffffffffffffffffffff1673ffffffffffffffffffffffffffffffffffffffff16815260200190815260200160002060008282546108b49190610c30565b9250508190555050565b600081519050919050565b600082825260208201905092915050565b60005b838110156108f85780820151818401526020810190506108dd565b83811115610907576000848401525b50505050565b6000601f19601f8301169050919050565b6000610929826108be565b61093381856108c9565b93506109438185602086016108da565b61094c8161090d565b840191505092915050565b60006020820190508181036000830152610971818461091e565b905092915050565b6000819050919050565b61098c81610979565b82525050565b60006020820190506109a76000830184610983565b92915050565b600080fd5b600073ffffffffffffffffffffffffffffffffffffffff82169050919050565b60006109dd826109b2565b9050919050565b6109ed816109d2565b81146109f857600080fd5b50565b600081359050610a0a816109e4565b92915050565b600060208284031215610a2657610a256109ad565b5b6000610a34848285016109fb565b91505092915050565b610a4681610979565b8114610a5157600080fd5b50565b600081359050610a6381610a3d565b92915050565b60008060408385031215610a8057610a7f6109ad565b5b6000610a8e858286016109fb565b9250506020610a9f85828601610a54565b9150509250929050565b610ab2816109d2565b82525050565b6000602082019050610acd6000830184610aa9565b92915050565b7f596f75277265206e6f7420746865206f776e6572000000000000000000000000600082015250565b6000610b096014836108c9565b9150610b1482610ad3565b602082019050919050565b60006020820190508181036000830152610b3881610afc565b9050919050565b7f45524332303a206d696e7420746f20746865207a65726f206164647265737300600082015250565b6000610b75601f836108c9565b9150610b8082610b3f565b602082019050919050565b60006020820190508181036000830152610ba481610b68565b9050919050565b7f4e487b7100000000000000000000000000000000000000000000000000000000600052601160045260246000fd5b6000610be582610979565b9150610bf083610979565b9250827fffffffffffffffffffffffffffffffffffffffffffffffffffffffffffffffff03821115610c2557610c24610bab565b5b828201905092915050565b6000610c3b82610979565b9150610c4683610979565b925082821015610c5957610c58610bab565b5b828203905092915050565b7f4e487b7100000000000000000000000000000000000000000000000000000000600052601260045260246000fd5b6000610c9e82610979565b9150610ca983610979565b925082610cb957610cb8610c64565b5b828204905092915050565b7f4e6f7420656e6f75676820746f6b656e73000000000000000000000000000000600082015250565b6000610cfa6011836108c9565b9150610d0582610cc4565b602082019050919050565b60006020820190508181036000830152610d2981610ced565b9050919050565b7f4e6f206d696e7420746f20746865207a65726f20616464726573730000000000600082015250565b6000610d66601b836108c9565b9150610d7182610d30565b602082019050919050565b60006020820190508181036000830152610d9581610d59565b9050919050565b60008160011c9050919050565b6000808291508390505b6001851115610df357808604811115610dcf57610dce610bab565b5b6001851615610dde5780820291505b8081029050610dec85610d9c565b9450610db3565b94509492505050565b600082610e0c5760019050610ec8565b81610e1a5760009050610ec8565b8160018114610e305760028114610e3a57610e69565b6001915050610ec8565b60ff841115610e4c57610e4b610bab565b5b8360020a915084821115610e6357610e62610bab565b5b50610ec8565b5060208310610133831016604e8410600b8410161715610e9e5782820a905083811115610e9957610e98610bab565b5b610ec8565b610eab8484846001610da9565b92509050818404811115610ec257610ec1610bab565b5b81810290505b9392505050565b6000610eda82610979565b9150610ee583610979565b9250610f127fffffffffffffffffffffffffffffffffffffffffffffffffffffffffffffffff8484610dfc565b905092915050565b6000610f2582610979565b9150610f3083610979565b9250817fffffffffffffffffffffffffffffffffffffffffffffffffffffffffffffffff0483118215151615610f6957610f68610bab565b5b82820290509291505056fea264697066735822122044d67ffed6eff3bf924b428ace5ad09c76ef74893d3288085cb6a9f0c2abdf8864736f6c634300080d0033",
					"opcodes": "PUSH1 0x80 PUSH1 0x40 MSTORE PUSH2 0x12C PUSH1 0x5 SSTORE CALLVALUE DUP1 ISZERO PUSH2 0x16 JUMPI PUSH1 0x0 DUP1 REVERT JUMPDEST POP PUSH1 0x40 MLOAD PUSH2 0x10AD CODESIZE SUB DUP1 PUSH2 0x10AD DUP4 CODECOPY DUP2 DUP2 ADD PUSH1 0x40 MSTORE DUP2 ADD SWAP1 PUSH2 0x38 SWAP2 SWAP1 PUSH2 0xC7 JUMP JUMPDEST CALLER PUSH1 0x0 DUP1 PUSH2 0x100 EXP DUP2 SLOAD DUP2 PUSH20 0xFFFFFFFFFFFFFFFFFFFFFFFFFFFFFFFFFFFFFFFF MUL NOT AND SWAP1 DUP4 PUSH20 0xFFFFFFFFFFFFFFFFFFFFFFFFFFFFFFFFFFFFFFFF AND MUL OR SWAP1 SSTORE POP TIMESTAMP PUSH1 0x4 DUP2 SWAP1 SSTORE POP DUP1 PUSH1 0x6 DUP2 SWAP1 SSTORE POP POP PUSH2 0xF4 JUMP JUMPDEST PUSH1 0x0 DUP1 REVERT JUMPDEST PUSH1 0x0 DUP2 SWAP1 POP SWAP2 SWAP1 POP JUMP JUMPDEST PUSH2 0xA4 DUP2 PUSH2 0x91 JUMP JUMPDEST DUP2 EQ PUSH2 0xAF JUMPI PUSH1 0x0 DUP1 REVERT JUMPDEST POP JUMP JUMPDEST PUSH1 0x0 DUP2 MLOAD SWAP1 POP PUSH2 0xC1 DUP2 PUSH2 0x9B JUMP JUMPDEST SWAP3 SWAP2 POP POP JUMP JUMPDEST PUSH1 0x0 PUSH1 0x20 DUP3 DUP5 SUB SLT ISZERO PUSH2 0xDD JUMPI PUSH2 0xDC PUSH2 0x8C JUMP JUMPDEST JUMPDEST PUSH1 0x0 PUSH2 0xEB DUP5 DUP3 DUP6 ADD PUSH2 0xB2 JUMP JUMPDEST SWAP2 POP POP SWAP3 SWAP2 POP POP JUMP JUMPDEST PUSH2 0xFAA DUP1 PUSH2 0x103 PUSH1 0x0 CODECOPY PUSH1 0x0 RETURN INVALID PUSH1 0x80 PUSH1 0x40 MSTORE PUSH1 0x4 CALLDATASIZE LT PUSH2 0x9C JUMPI PUSH1 0x0 CALLDATALOAD PUSH1 0xE0 SHR DUP1 PUSH4 0x771282F6 GT PUSH2 0x64 JUMPI DUP1 PUSH4 0x771282F6 EQ PUSH2 0x17B JUMPI DUP1 PUSH4 0x87CEFF09 EQ PUSH2 0x1A6 JUMPI DUP1 PUSH4 0x8DA5CB5B EQ PUSH2 0x1D1 JUMPI DUP1 PUSH4 0x95D89B41 EQ PUSH2 0x1FC JUMPI DUP1 PUSH4 0xA9059CBB EQ PUSH2 0x227 JUMPI DUP1 PUSH4 0xDA0239A6 EQ PUSH2 0x250 JUMPI PUSH2 0x9C JUMP JUMPDEST DUP1 PUSH4 0x6FDDE03 EQ PUSH2 0xA1 JUMPI DUP1 PUSH4 0x18160DDD EQ PUSH2 0xCC JUMPI DUP1 PUSH4 0x27E235E3 EQ PUSH2 0xF7 JUMPI DUP1 PUSH4 0x40C10F19 EQ PUSH2 0x134 JUMPI DUP1 PUSH4 0x47B5DD54 EQ PUSH2 0x150 JUMPI JUMPDEST PUSH1 0x0 DUP1 REVERT JUMPDEST CALLVALUE DUP1 ISZERO PUSH2 0xAD JUMPI PUSH1 0x0 DUP1 REVERT JUMPDEST POP PUSH2 0xB6 PUSH2 0x27B JUMP JUMPDEST PUSH1 0x40 MLOAD PUSH2 0xC3 SWAP2 SWAP1 PUSH2 0x957 JUMP JUMPDEST PUSH1 0x40 MLOAD DUP1 SWAP2 SUB SWAP1 RETURN JUMPDEST CALLVALUE DUP1 ISZERO PUSH2 0xD8 JUMPI PUSH1 0x0 DUP1 REVERT JUMPDEST POP PUSH2 0xE1 PUSH2 0x2B4 JUMP JUMPDEST PUSH1 0x40 MLOAD PUSH2 0xEE SWAP2 SWAP1 PUSH2 0x992 JUMP JUMPDEST PUSH1 0x40 MLOAD DUP1 SWAP2 SUB SWAP1 RETURN JUMPDEST CALLVALUE DUP1 ISZERO PUSH2 0x103 JUMPI PUSH1 0x0 DUP1 REVERT JUMPDEST POP PUSH2 0x11E PUSH1 0x4 DUP1 CALLDATASIZE SUB DUP2 ADD SWAP1 PUSH2 0x119 SWAP2 SWAP1 PUSH2 0xA10 JUMP JUMPDEST PUSH2 0x2BA JUMP JUMPDEST PUSH1 0x40 MLOAD PUSH2 0x12B SWAP2 SWAP1 PUSH2 0x992 JUMP JUMPDEST PUSH1 0x40 MLOAD DUP1 SWAP2 SUB SWAP1 RETURN JUMPDEST PUSH2 0x14E PUSH1 0x4 DUP1 CALLDATASIZE SUB DUP2 ADD SWAP1 PUSH2 0x149 SWAP2 SWAP1 PUSH2 0xA69 JUMP JUMPDEST PUSH2 0x2D2 JUMP JUMPDEST STOP JUMPDEST CALLVALUE DUP1 ISZERO PUSH2 0x15C JUMPI PUSH1 0x0 DUP1 REVERT JUMPDEST POP PUSH2 0x165 PUSH2 0x4C9 JUMP JUMPDEST PUSH1 0x40 MLOAD PUSH2 0x172 SWAP2 SWAP1 PUSH2 0x992 JUMP JUMPDEST PUSH1 0x40 MLOAD DUP1 SWAP2 SUB SWAP1 RETURN JUMPDEST CALLVALUE DUP1 ISZERO PUSH2 0x187 JUMPI PUSH1 0x0 DUP1 REVERT JUMPDEST POP PUSH2 0x190 PUSH2 0x4CF JUMP JUMPDEST PUSH1 0x40 MLOAD PUSH2 0x19D SWAP2 SWAP1 PUSH2 0x992 JUMP JUMPDEST PUSH1 0x40 MLOAD DUP1 SWAP2 SUB SWAP1 RETURN JUMPDEST CALLVALUE DUP1 ISZERO PUSH2 0x1B2 JUMPI PUSH1 0x0 DUP1 REVERT JUMPDEST POP PUSH2 0x1BB PUSH2 0x4D5 JUMP JUMPDEST PUSH1 0x40 MLOAD PUSH2 0x1C8 SWAP2 SWAP1 PUSH2 0x992 JUMP JUMPDEST PUSH1 0x40 MLOAD DUP1 SWAP2 SUB SWAP1 RETURN JUMPDEST CALLVALUE DUP1 ISZERO PUSH2 0x1DD JUMPI PUSH1 0x0 DUP1 REVERT JUMPDEST POP PUSH2 0x1E6 PUSH2 0x4FC JUMP JUMPDEST PUSH1 0x40 MLOAD PUSH2 0x1F3 SWAP2 SWAP1 PUSH2 0xAB8 JUMP JUMPDEST PUSH1 0x40 MLOAD DUP1 SWAP2 SUB SWAP1 RETURN JUMPDEST CALLVALUE DUP1 ISZERO PUSH2 0x208 JUMPI PUSH1 0x0 DUP1 REVERT JUMPDEST POP PUSH2 0x211 PUSH2 0x520 JUMP JUMPDEST PUSH1 0x40 MLOAD PUSH2 0x21E SWAP2 SWAP1 PUSH2 0x957 JUMP JUMPDEST PUSH1 0x40 MLOAD DUP1 SWAP2 SUB SWAP1 RETURN JUMPDEST CALLVALUE DUP1 ISZERO PUSH2 0x233 JUMPI PUSH1 0x0 DUP1 REVERT JUMPDEST POP PUSH2 0x24E PUSH1 0x4 DUP1 CALLDATASIZE SUB DUP2 ADD SWAP1 PUSH2 0x249 SWAP2 SWAP1 PUSH2 0xA69 JUMP JUMPDEST PUSH2 0x559 JUMP JUMPDEST STOP JUMPDEST CALLVALUE DUP1 ISZERO PUSH2 0x25C JUMPI PUSH1 0x0 DUP1 REVERT JUMPDEST POP PUSH2 0x265 PUSH2 0x777 JUMP JUMPDEST PUSH1 0x40 MLOAD PUSH2 0x272 SWAP2 SWAP1 PUSH2 0x992 JUMP JUMPDEST PUSH1 0x40 MLOAD DUP1 SWAP2 SUB SWAP1 RETURN JUMPDEST PUSH1 0x40 MLOAD DUP1 PUSH1 0x40 ADD PUSH1 0x40 MSTORE DUP1 PUSH1 0x13 DUP2 MSTORE PUSH1 0x20 ADD PUSH32 0x5061747269636B20426173696320546F6B656E00000000000000000000000000 DUP2 MSTORE POP DUP2 JUMP JUMPDEST PUSH1 0x1 SLOAD DUP2 JUMP JUMPDEST PUSH1 0x7 PUSH1 0x20 MSTORE DUP1 PUSH1 0x0 MSTORE PUSH1 0x40 PUSH1 0x0 KECCAK256 PUSH1 0x0 SWAP2 POP SWAP1 POP SLOAD DUP2 JUMP JUMPDEST PUSH1 0x0 DUP1 SLOAD SWAP1 PUSH2 0x100 EXP SWAP1 DIV PUSH20 0xFFFFFFFFFFFFFFFFFFFFFFFFFFFFFFFFFFFFFFFF AND PUSH20 0xFFFFFFFFFFFFFFFFFFFFFFFFFFFFFFFFFFFFFFFF AND CALLER PUSH20 0xFFFFFFFFFFFFFFFFFFFFFFFFFFFFFFFFFFFFFFFF AND EQ PUSH2 0x360 JUMPI PUSH1 0x40 MLOAD PUSH32 0x8C379A000000000000000000000000000000000000000000000000000000000 DUP2 MSTORE PUSH1 0x4 ADD PUSH2 0x357 SWAP1 PUSH2 0xB1F JUMP JUMPDEST PUSH1 0x40 MLOAD DUP1 SWAP2 SUB SWAP1 REVERT JUMPDEST PUSH1 0x0 PUSH20 0xFFFFFFFFFFFFFFFFFFFFFFFFFFFFFFFFFFFFFFFF AND DUP3 PUSH20 0xFFFFFFFFFFFFFFFFFFFFFFFFFFFFFFFFFFFFFFFF AND SUB PUSH2 0x3CF JUMPI PUSH1 0x40 MLOAD PUSH32 0x8C379A000000000000000000000000000000000000000000000000000000000 DUP2 MSTORE PUSH1 0x4 ADD PUSH2 0x3C6 SWAP1 PUSH2 0xB8B JUMP JUMPDEST PUSH1 0x40 MLOAD DUP1 SWAP2 SUB SWAP1 REVERT JUMPDEST DUP1 PUSH1 0x7 PUSH1 0x0 DUP5 PUSH20 0xFFFFFFFFFFFFFFFFFFFFFFFFFFFFFFFFFFFFFFFF AND PUSH20 0xFFFFFFFFFFFFFFFFFFFFFFFFFFFFFFFFFFFFFFFF AND DUP2 MSTORE PUSH1 0x20 ADD SWAP1 DUP2 MSTORE PUSH1 0x20 ADD PUSH1 0x0 KECCAK256 PUSH1 0x0 DUP3 DUP3 SLOAD PUSH2 0x41E SWAP2 SWAP1 PUSH2 0xBDA JUMP JUMPDEST SWAP3 POP POP DUP2 SWAP1 SSTORE POP DUP1 PUSH1 0x2 PUSH1 0x0 DUP3 DUP3 SLOAD PUSH2 0x437 SWAP2 SWAP1 PUSH2 0xBDA JUMP JUMPDEST SWAP3 POP POP DUP2 SWAP1 SSTORE POP DUP1 PUSH1 0x1 PUSH1 0x0 DUP3 DUP3 SLOAD PUSH2 0x450 SWAP2 SWAP1 PUSH2 0xBDA JUMP JUMPDEST SWAP3 POP POP DUP2 SWAP1 SSTORE POP PUSH2 0x45F PUSH2 0x78E JUMP JUMPDEST POP DUP2 PUSH20 0xFFFFFFFFFFFFFFFFFFFFFFFFFFFFFFFFFFFFFFFF AND CALLER PUSH20 0xFFFFFFFFFFFFFFFFFFFFFFFFFFFFFFFFFFFFFFFF AND PUSH32 0x3990DB2D31862302A685E8086B5755072A6E2B5B780AF1EE81ECE35EE3CD3345 DUP4 PUSH1 0x40 MLOAD PUSH2 0x4BD SWAP2 SWAP1 PUSH2 0x992 JUMP JUMPDEST PUSH1 0x40 MLOAD DUP1 SWAP2 SUB SWAP1 LOG3 POP POP JUMP JUMPDEST PUSH1 0x3 SLOAD DUP2 JUMP JUMPDEST PUSH1 0x2 SLOAD DUP2 JUMP JUMPDEST PUSH1 0x0 DUP1 PUSH1 0x5 SLOAD PUSH1 0x4 SLOAD TIMESTAMP PUSH2 0x4E9 SWAP2 SWAP1 PUSH2 0xC30 JUMP JUMPDEST PUSH2 0x4F3 SWAP2 SWAP1 PUSH2 0xC93 JUMP JUMPDEST SWAP1 POP DUP1 SWAP2 POP POP SWAP1 JUMP JUMPDEST PUSH1 0x0 DUP1 SLOAD SWAP1 PUSH2 0x100 EXP SWAP1 DIV PUSH20 0xFFFFFFFFFFFFFFFFFFFFFFFFFFFFFFFFFFFFFFFF AND DUP2 JUMP JUMPDEST PUSH1 0x40 MLOAD DUP1 PUSH1 0x40 ADD PUSH1 0x40 MSTORE DUP1 PUSH1 0x4 DUP2 MSTORE PUSH1 0x20 ADD PUSH32 0x5042535400000000000000000000000000000000000000000000000000000000 DUP2 MSTORE POP DUP2 JUMP JUMPDEST PUSH1 0x7 PUSH1 0x0 CALLER PUSH20 0xFFFFFFFFFFFFFFFFFFFFFFFFFFFFFFFFFFFFFFFF AND PUSH20 0xFFFFFFFFFFFFFFFFFFFFFFFFFFFFFFFFFFFFFFFF AND DUP2 MSTORE PUSH1 0x20 ADD SWAP1 DUP2 MSTORE PUSH1 0x20 ADD PUSH1 0x0 KECCAK256 SLOAD DUP2 GT ISZERO PUSH2 0x5DB JUMPI PUSH1 0x40 MLOAD PUSH32 0x8C379A000000000000000000000000000000000000000000000000000000000 DUP2 MSTORE PUSH1 0x4 ADD PUSH2 0x5D2 SWAP1 PUSH2 0xD10 JUMP JUMPDEST PUSH1 0x40 MLOAD DUP1 SWAP2 SUB SWAP1 REVERT JUMPDEST PUSH1 0x0 PUSH20 0xFFFFFFFFFFFFFFFFFFFFFFFFFFFFFFFFFFFFFFFF AND DUP3 PUSH20 0xFFFFFFFFFFFFFFFFFFFFFFFFFFFFFFFFFFFFFFFF AND SUB PUSH2 0x64A JUMPI PUSH1 0x40 MLOAD PUSH32 0x8C379A000000000000000000000000000000000000000000000000000000000 DUP2 MSTORE PUSH1 0x4 ADD PUSH2 0x641 SWAP1 PUSH2 0xD7C JUMP JUMPDEST PUSH1 0x40 MLOAD DUP1 SWAP2 SUB SWAP1 REVERT JUMPDEST PUSH1 0x2 SLOAD DUP2 GT ISZERO PUSH2 0x659 JUMPI PUSH1 0x0 DUP1 REVERT JUMPDEST DUP1 PUSH1 0x7 PUSH1 0x0 CALLER PUSH20 0xFFFFFFFFFFFFFFFFFFFFFFFFFFFFFFFFFFFFFFFF AND PUSH20 0xFFFFFFFFFFFFFFFFFFFFFFFFFFFFFFFFFFFFFFFF AND DUP2 MSTORE PUSH1 0x20 ADD SWAP1 DUP2 MSTORE PUSH1 0x20 ADD PUSH1 0x0 KECCAK256 PUSH1 0x0 DUP3 DUP3 SLOAD PUSH2 0x6A8 SWAP2 SWAP1 PUSH2 0xC30 JUMP JUMPDEST SWAP3 POP POP DUP2 SWAP1 SSTORE POP DUP1 PUSH1 0x7 PUSH1 0x0 DUP5 PUSH20 0xFFFFFFFFFFFFFFFFFFFFFFFFFFFFFFFFFFFFFFFF AND PUSH20 0xFFFFFFFFFFFFFFFFFFFFFFFFFFFFFFFFFFFFFFFF AND DUP2 MSTORE PUSH1 0x20 ADD SWAP1 DUP2 MSTORE PUSH1 0x20 ADD PUSH1 0x0 KECCAK256 PUSH1 0x0 DUP3 DUP3 SLOAD PUSH2 0x6FE SWAP2 SWAP1 PUSH2 0xBDA JUMP JUMPDEST SWAP3 POP POP DUP2 SWAP1 SSTORE POP PUSH2 0x70E DUP2 PUSH2 0x7B6 JUMP JUMPDEST DUP2 PUSH20 0xFFFFFFFFFFFFFFFFFFFFFFFFFFFFFFFFFFFFFFFF AND CALLER PUSH20 0xFFFFFFFFFFFFFFFFFFFFFFFFFFFFFFFFFFFFFFFF AND PUSH32 0x3990DB2D31862302A685E8086B5755072A6E2B5B780AF1EE81ECE35EE3CD3345 DUP4 PUSH1 0x40 MLOAD PUSH2 0x76B SWAP2 SWAP1 PUSH2 0x992 JUMP JUMPDEST PUSH1 0x40 MLOAD DUP1 SWAP2 SUB SWAP1 LOG3 POP POP JUMP JUMPDEST PUSH1 0x0 PUSH1 0x2 SLOAD PUSH1 0x1 SLOAD PUSH2 0x789 SWAP2 SWAP1 PUSH2 0xC30 JUMP JUMPDEST SWAP1 POP SWAP1 JUMP JUMPDEST PUSH1 0x0 PUSH2 0x798 PUSH2 0x4D5 JUMP JUMPDEST PUSH1 0x2 PUSH2 0x7A4 SWAP2 SWAP1 PUSH2 0xECF JUMP JUMPDEST PUSH1 0x6 SLOAD PUSH2 0x7B1 SWAP2 SWAP1 PUSH2 0xC93 JUMP JUMPDEST SWAP1 POP SWAP1 JUMP JUMPDEST PUSH1 0x1 PUSH2 0x3E8 DUP3 PUSH2 0x7C6 SWAP2 SWAP1 PUSH2 0xC93 JUMP JUMPDEST PUSH2 0x7D0 SWAP2 SWAP1 PUSH2 0xF1A JUMP JUMPDEST PUSH1 0x1 PUSH1 0x0 DUP3 DUP3 SLOAD PUSH2 0x7E1 SWAP2 SWAP1 PUSH2 0xC30 JUMP JUMPDEST SWAP3 POP POP DUP2 SWAP1 SSTORE POP PUSH1 0x1 PUSH2 0x3E8 DUP3 PUSH2 0x7F8 SWAP2 SWAP1 PUSH2 0xC93 JUMP JUMPDEST PUSH2 0x802 SWAP2 SWAP1 PUSH2 0xF1A JUMP JUMPDEST PUSH1 0x2 PUSH1 0x0 DUP3 DUP3 SLOAD PUSH2 0x813 SWAP2 SWAP1 PUSH2 0xC30 JUMP JUMPDEST SWAP3 POP POP DUP2 SWAP1 SSTORE POP PUSH1 0x1 PUSH2 0x3E8 DUP3 PUSH2 0x82A SWAP2 SWAP1 PUSH2 0xC93 JUMP JUMPDEST PUSH2 0x834 SWAP2 SWAP1 PUSH2 0xF1A JUMP JUMPDEST PUSH1 0x3 PUSH1 0x0 DUP3 DUP3 SLOAD PUSH2 0x845 SWAP2 SWAP1 PUSH2 0xBDA JUMP JUMPDEST SWAP3 POP POP DUP2 SWAP1 SSTORE POP PUSH1 0x1 PUSH2 0x3E8 DUP3 PUSH2 0x85C SWAP2 SWAP1 PUSH2 0xC93 JUMP JUMPDEST PUSH2 0x866 SWAP2 SWAP1 PUSH2 0xF1A JUMP JUMPDEST PUSH1 0x7 PUSH1 0x0 CALLER PUSH20 0xFFFFFFFFFFFFFFFFFFFFFFFFFFFFFFFFFFFFFFFF AND PUSH20 0xFFFFFFFFFFFFFFFFFFFFFFFFFFFFFFFFFFFFFFFF AND DUP2 MSTORE PUSH1 0x20 ADD SWAP1 DUP2 MSTORE PUSH1 0x20 ADD PUSH1 0x0 KECCAK256 PUSH1 0x0 DUP3 DUP3 SLOAD PUSH2 0x8B4 SWAP2 SWAP1 PUSH2 0xC30 JUMP JUMPDEST SWAP3 POP POP DUP2 SWAP1 SSTORE POP POP JUMP JUMPDEST PUSH1 0x0 DUP2 MLOAD SWAP1 POP SWAP2 SWAP1 POP JUMP JUMPDEST PUSH1 0x0 DUP3 DUP3 MSTORE PUSH1 0x20 DUP3 ADD SWAP1 POP SWAP3 SWAP2 POP POP JUMP JUMPDEST PUSH1 0x0 JUMPDEST DUP4 DUP2 LT ISZERO PUSH2 0x8F8 JUMPI DUP1 DUP3 ADD MLOAD DUP2 DUP5 ADD MSTORE PUSH1 0x20 DUP2 ADD SWAP1 POP PUSH2 0x8DD JUMP JUMPDEST DUP4 DUP2 GT ISZERO PUSH2 0x907 JUMPI PUSH1 0x0 DUP5 DUP5 ADD MSTORE JUMPDEST POP POP POP POP JUMP JUMPDEST PUSH1 0x0 PUSH1 0x1F NOT PUSH1 0x1F DUP4 ADD AND SWAP1 POP SWAP2 SWAP1 POP JUMP JUMPDEST PUSH1 0x0 PUSH2 0x929 DUP3 PUSH2 0x8BE JUMP JUMPDEST PUSH2 0x933 DUP2 DUP6 PUSH2 0x8C9 JUMP JUMPDEST SWAP4 POP PUSH2 0x943 DUP2 DUP6 PUSH1 0x20 DUP7 ADD PUSH2 0x8DA JUMP JUMPDEST PUSH2 0x94C DUP2 PUSH2 0x90D JUMP JUMPDEST DUP5 ADD SWAP2 POP POP SWAP3 SWAP2 POP POP JUMP JUMPDEST PUSH1 0x0 PUSH1 0x20 DUP3 ADD SWAP1 POP DUP2 DUP2 SUB PUSH1 0x0 DUP4 ADD MSTORE PUSH2 0x971 DUP2 DUP5 PUSH2 0x91E JUMP JUMPDEST SWAP1 POP SWAP3 SWAP2 POP POP JUMP JUMPDEST PUSH1 0x0 DUP2 SWAP1 POP SWAP2 SWAP1 POP JUMP JUMPDEST PUSH2 0x98C DUP2 PUSH2 0x979 JUMP JUMPDEST DUP3 MSTORE POP POP JUMP JUMPDEST PUSH1 0x0 PUSH1 0x20 DUP3 ADD SWAP1 POP PUSH2 0x9A7 PUSH1 0x0 DUP4 ADD DUP5 PUSH2 0x983 JUMP JUMPDEST SWAP3 SWAP2 POP POP JUMP JUMPDEST PUSH1 0x0 DUP1 REVERT JUMPDEST PUSH1 0x0 PUSH20 0xFFFFFFFFFFFFFFFFFFFFFFFFFFFFFFFFFFFFFFFF DUP3 AND SWAP1 POP SWAP2 SWAP1 POP JUMP JUMPDEST PUSH1 0x0 PUSH2 0x9DD DUP3 PUSH2 0x9B2 JUMP JUMPDEST SWAP1 POP SWAP2 SWAP1 POP JUMP JUMPDEST PUSH2 0x9ED DUP2 PUSH2 0x9D2 JUMP JUMPDEST DUP2 EQ PUSH2 0x9F8 JUMPI PUSH1 0x0 DUP1 REVERT JUMPDEST POP JUMP JUMPDEST PUSH1 0x0 DUP2 CALLDATALOAD SWAP1 POP PUSH2 0xA0A DUP2 PUSH2 0x9E4 JUMP JUMPDEST SWAP3 SWAP2 POP POP JUMP JUMPDEST PUSH1 0x0 PUSH1 0x20 DUP3 DUP5 SUB SLT ISZERO PUSH2 0xA26 JUMPI PUSH2 0xA25 PUSH2 0x9AD JUMP JUMPDEST JUMPDEST PUSH1 0x0 PUSH2 0xA34 DUP5 DUP3 DUP6 ADD PUSH2 0x9FB JUMP JUMPDEST SWAP2 POP POP SWAP3 SWAP2 POP POP JUMP JUMPDEST PUSH2 0xA46 DUP2 PUSH2 0x979 JUMP JUMPDEST DUP2 EQ PUSH2 0xA51 JUMPI PUSH1 0x0 DUP1 REVERT JUMPDEST POP JUMP JUMPDEST PUSH1 0x0 DUP2 CALLDATALOAD SWAP1 POP PUSH2 0xA63 DUP2 PUSH2 0xA3D JUMP JUMPDEST SWAP3 SWAP2 POP POP JUMP JUMPDEST PUSH1 0x0 DUP1 PUSH1 0x40 DUP4 DUP6 SUB SLT ISZERO PUSH2 0xA80 JUMPI PUSH2 0xA7F PUSH2 0x9AD JUMP JUMPDEST JUMPDEST PUSH1 0x0 PUSH2 0xA8E DUP6 DUP3 DUP7 ADD PUSH2 0x9FB JUMP JUMPDEST SWAP3 POP POP PUSH1 0x20 PUSH2 0xA9F DUP6 DUP3 DUP7 ADD PUSH2 0xA54 JUMP JUMPDEST SWAP2 POP POP SWAP3 POP SWAP3 SWAP1 POP JUMP JUMPDEST PUSH2 0xAB2 DUP2 PUSH2 0x9D2 JUMP JUMPDEST DUP3 MSTORE POP POP JUMP JUMPDEST PUSH1 0x0 PUSH1 0x20 DUP3 ADD SWAP1 POP PUSH2 0xACD PUSH1 0x0 DUP4 ADD DUP5 PUSH2 0xAA9 JUMP JUMPDEST SWAP3 SWAP2 POP POP JUMP JUMPDEST PUSH32 0x596F75277265206E6F7420746865206F776E6572000000000000000000000000 PUSH1 0x0 DUP3 ADD MSTORE POP JUMP JUMPDEST PUSH1 0x0 PUSH2 0xB09 PUSH1 0x14 DUP4 PUSH2 0x8C9 JUMP JUMPDEST SWAP2 POP PUSH2 0xB14 DUP3 PUSH2 0xAD3 JUMP JUMPDEST PUSH1 0x20 DUP3 ADD SWAP1 POP SWAP2 SWAP1 POP JUMP JUMPDEST PUSH1 0x0 PUSH1 0x20 DUP3 ADD SWAP1 POP DUP2 DUP2 SUB PUSH1 0x0 DUP4 ADD MSTORE PUSH2 0xB38 DUP2 PUSH2 0xAFC JUMP JUMPDEST SWAP1 POP SWAP2 SWAP1 POP JUMP JUMPDEST PUSH32 0x45524332303A206D696E7420746F20746865207A65726F206164647265737300 PUSH1 0x0 DUP3 ADD MSTORE POP JUMP JUMPDEST PUSH1 0x0 PUSH2 0xB75 PUSH1 0x1F DUP4 PUSH2 0x8C9 JUMP JUMPDEST SWAP2 POP PUSH2 0xB80 DUP3 PUSH2 0xB3F JUMP JUMPDEST PUSH1 0x20 DUP3 ADD SWAP1 POP SWAP2 SWAP1 POP JUMP JUMPDEST PUSH1 0x0 PUSH1 0x20 DUP3 ADD SWAP1 POP DUP2 DUP2 SUB PUSH1 0x0 DUP4 ADD MSTORE PUSH2 0xBA4 DUP2 PUSH2 0xB68 JUMP JUMPDEST SWAP1 POP SWAP2 SWAP1 POP JUMP JUMPDEST PUSH32 0x4E487B7100000000000000000000000000000000000000000000000000000000 PUSH1 0x0 MSTORE PUSH1 0x11 PUSH1 0x4 MSTORE PUSH1 0x24 PUSH1 0x0 REVERT JUMPDEST PUSH1 0x0 PUSH2 0xBE5 DUP3 PUSH2 0x979 JUMP JUMPDEST SWAP2 POP PUSH2 0xBF0 DUP4 PUSH2 0x979 JUMP JUMPDEST SWAP3 POP DUP3 PUSH32 0xFFFFFFFFFFFFFFFFFFFFFFFFFFFFFFFFFFFFFFFFFFFFFFFFFFFFFFFFFFFFFFFF SUB DUP3 GT ISZERO PUSH2 0xC25 JUMPI PUSH2 0xC24 PUSH2 0xBAB JUMP JUMPDEST JUMPDEST DUP3 DUP3 ADD SWAP1 POP SWAP3 SWAP2 POP POP JUMP JUMPDEST PUSH1 0x0 PUSH2 0xC3B DUP3 PUSH2 0x979 JUMP JUMPDEST SWAP2 POP PUSH2 0xC46 DUP4 PUSH2 0x979 JUMP JUMPDEST SWAP3 POP DUP3 DUP3 LT ISZERO PUSH2 0xC59 JUMPI PUSH2 0xC58 PUSH2 0xBAB JUMP JUMPDEST JUMPDEST DUP3 DUP3 SUB SWAP1 POP SWAP3 SWAP2 POP POP JUMP JUMPDEST PUSH32 0x4E487B7100000000000000000000000000000000000000000000000000000000 PUSH1 0x0 MSTORE PUSH1 0x12 PUSH1 0x4 MSTORE PUSH1 0x24 PUSH1 0x0 REVERT JUMPDEST PUSH1 0x0 PUSH2 0xC9E DUP3 PUSH2 0x979 JUMP JUMPDEST SWAP2 POP PUSH2 0xCA9 DUP4 PUSH2 0x979 JUMP JUMPDEST SWAP3 POP DUP3 PUSH2 0xCB9 JUMPI PUSH2 0xCB8 PUSH2 0xC64 JUMP JUMPDEST JUMPDEST DUP3 DUP3 DIV SWAP1 POP SWAP3 SWAP2 POP POP JUMP JUMPDEST PUSH32 0x4E6F7420656E6F75676820746F6B656E73000000000000000000000000000000 PUSH1 0x0 DUP3 ADD MSTORE POP JUMP JUMPDEST PUSH1 0x0 PUSH2 0xCFA PUSH1 0x11 DUP4 PUSH2 0x8C9 JUMP JUMPDEST SWAP2 POP PUSH2 0xD05 DUP3 PUSH2 0xCC4 JUMP JUMPDEST PUSH1 0x20 DUP3 ADD SWAP1 POP SWAP2 SWAP1 POP JUMP JUMPDEST PUSH1 0x0 PUSH1 0x20 DUP3 ADD SWAP1 POP DUP2 DUP2 SUB PUSH1 0x0 DUP4 ADD MSTORE PUSH2 0xD29 DUP2 PUSH2 0xCED JUMP JUMPDEST SWAP1 POP SWAP2 SWAP1 POP JUMP JUMPDEST PUSH32 0x4E6F206D696E7420746F20746865207A65726F20616464726573730000000000 PUSH1 0x0 DUP3 ADD MSTORE POP JUMP JUMPDEST PUSH1 0x0 PUSH2 0xD66 PUSH1 0x1B DUP4 PUSH2 0x8C9 JUMP JUMPDEST SWAP2 POP PUSH2 0xD71 DUP3 PUSH2 0xD30 JUMP JUMPDEST PUSH1 0x20 DUP3 ADD SWAP1 POP SWAP2 SWAP1 POP JUMP JUMPDEST PUSH1 0x0 PUSH1 0x20 DUP3 ADD SWAP1 POP DUP2 DUP2 SUB PUSH1 0x0 DUP4 ADD MSTORE PUSH2 0xD95 DUP2 PUSH2 0xD59 JUMP JUMPDEST SWAP1 POP SWAP2 SWAP1 POP JUMP JUMPDEST PUSH1 0x0 DUP2 PUSH1 0x1 SHR SWAP1 POP SWAP2 SWAP1 POP JUMP JUMPDEST PUSH1 0x0 DUP1 DUP3 SWAP2 POP DUP4 SWAP1 POP JUMPDEST PUSH1 0x1 DUP6 GT ISZERO PUSH2 0xDF3 JUMPI DUP1 DUP7 DIV DUP2 GT ISZERO PUSH2 0xDCF JUMPI PUSH2 0xDCE PUSH2 0xBAB JUMP JUMPDEST JUMPDEST PUSH1 0x1 DUP6 AND ISZERO PUSH2 0xDDE JUMPI DUP1 DUP3 MUL SWAP2 POP JUMPDEST DUP1 DUP2 MUL SWAP1 POP PUSH2 0xDEC DUP6 PUSH2 0xD9C JUMP JUMPDEST SWAP5 POP PUSH2 0xDB3 JUMP JUMPDEST SWAP5 POP SWAP5 SWAP3 POP POP POP JUMP JUMPDEST PUSH1 0x0 DUP3 PUSH2 0xE0C JUMPI PUSH1 0x1 SWAP1 POP PUSH2 0xEC8 JUMP JUMPDEST DUP2 PUSH2 0xE1A JUMPI PUSH1 0x0 SWAP1 POP PUSH2 0xEC8 JUMP JUMPDEST DUP2 PUSH1 0x1 DUP2 EQ PUSH2 0xE30 JUMPI PUSH1 0x2 DUP2 EQ PUSH2 0xE3A JUMPI PUSH2 0xE69 JUMP JUMPDEST PUSH1 0x1 SWAP2 POP POP PUSH2 0xEC8 JUMP JUMPDEST PUSH1 0xFF DUP5 GT ISZERO PUSH2 0xE4C JUMPI PUSH2 0xE4B PUSH2 0xBAB JUMP JUMPDEST JUMPDEST DUP4 PUSH1 0x2 EXP SWAP2 POP DUP5 DUP3 GT ISZERO PUSH2 0xE63 JUMPI PUSH2 0xE62 PUSH2 0xBAB JUMP JUMPDEST JUMPDEST POP PUSH2 0xEC8 JUMP JUMPDEST POP PUSH1 0x20 DUP4 LT PUSH2 0x133 DUP4 LT AND PUSH1 0x4E DUP5 LT PUSH1 0xB DUP5 LT AND OR ISZERO PUSH2 0xE9E JUMPI DUP3 DUP3 EXP SWAP1 POP DUP4 DUP2 GT ISZERO PUSH2 0xE99 JUMPI PUSH2 0xE98 PUSH2 0xBAB JUMP JUMPDEST JUMPDEST PUSH2 0xEC8 JUMP JUMPDEST PUSH2 0xEAB DUP5 DUP5 DUP5 PUSH1 0x1 PUSH2 0xDA9 JUMP JUMPDEST SWAP3 POP SWAP1 POP DUP2 DUP5 DIV DUP2 GT ISZERO PUSH2 0xEC2 JUMPI PUSH2 0xEC1 PUSH2 0xBAB JUMP JUMPDEST JUMPDEST DUP2 DUP2 MUL SWAP1 POP JUMPDEST SWAP4 SWAP3 POP POP POP JUMP JUMPDEST PUSH1 0x0 PUSH2 0xEDA DUP3 PUSH2 0x979 JUMP JUMPDEST SWAP2 POP PUSH2 0xEE5 DUP4 PUSH2 0x979 JUMP JUMPDEST SWAP3 POP PUSH2 0xF12 PUSH32 0xFFFFFFFFFFFFFFFFFFFFFFFFFFFFFFFFFFFFFFFFFFFFFFFFFFFFFFFFFFFFFFFF DUP5 DUP5 PUSH2 0xDFC JUMP JUMPDEST SWAP1 POP SWAP3 SWAP2 POP POP JUMP JUMPDEST PUSH1 0x0 PUSH2 0xF25 DUP3 PUSH2 0x979 JUMP JUMPDEST SWAP2 POP PUSH2 0xF30 DUP4 PUSH2 0x979 JUMP JUMPDEST SWAP3 POP DUP2 PUSH32 0xFFFFFFFFFFFFFFFFFFFFFFFFFFFFFFFFFFFFFFFFFFFFFFFFFFFFFFFFFFFFFFFF DIV DUP4 GT DUP3 ISZERO ISZERO AND ISZERO PUSH2 0xF69 JUMPI PUSH2 0xF68 PUSH2 0xBAB JUMP JUMPDEST JUMPDEST DUP3 DUP3 MUL SWAP1 POP SWAP3 SWAP2 POP POP JUMP INVALID LOG2 PUSH5 0x6970667358 0x22 SLT KECCAK256 DIFFICULTY 0xD6 PUSH32 0xFED6EFF3BF924B428ACE5AD09C76EF74893D3288085CB6A9F0C2ABDF8864736F PUSH13 0x634300080D0033000000000000 "
				},
				"gasEstimates": {
					"creation": {
						"codeDepositCost": "802000",
						"executionCost": "infinite",
						"totalCost": "infinite"
					},
					"external": {
						"balances(address)": "2859",
						"burnedTokens()": "2518",
						"currentSupply()": "2429",
						"getBlockTime()": "infinite",
						"mint(address,uint256)": "infinite",
						"name()": "infinite",
						"owner()": "2555",
						"remainingSupply()": "infinite",
						"symbol()": "infinite",
						"totalSupply()": "2452",
						"transfer(address,uint256)": "infinite"
					},
					"internal": {
						"burn(uint256)": "infinite",
						"halving2()": "infinite"
					}
				},
				"methodIdentifiers": {
					"balances(address)": "27e235e3",
					"burnedTokens()": "47b5dd54",
					"currentSupply()": "771282f6",
					"getBlockTime()": "87ceff09",
					"mint(address,uint256)": "40c10f19",
					"name()": "06fdde03",
					"owner()": "8da5cb5b",
					"remainingSupply()": "da0239a6",
					"symbol()": "95d89b41",
					"totalSupply()": "18160ddd",
					"transfer(address,uint256)": "a9059cbb"
				}
			},
			"storageLayout": {
				"storage": [
					{
						"astId": 3,
						"contract": "udemy solidity course - complete DApp/Build a Basic Token/basic_token.sol:basicToken",
						"label": "owner",
						"offset": 0,
						"slot": "0",
						"type": "t_address"
					},
					{
						"astId": 5,
						"contract": "udemy solidity course - complete DApp/Build a Basic Token/basic_token.sol:basicToken",
						"label": "totalSupply",
						"offset": 0,
						"slot": "1",
						"type": "t_uint256"
					},
					{
						"astId": 7,
						"contract": "udemy solidity course - complete DApp/Build a Basic Token/basic_token.sol:basicToken",
						"label": "currentSupply",
						"offset": 0,
						"slot": "2",
						"type": "t_uint256"
					},
					{
						"astId": 9,
						"contract": "udemy solidity course - complete DApp/Build a Basic Token/basic_token.sol:basicToken",
						"label": "burnedTokens",
						"offset": 0,
						"slot": "3",
						"type": "t_uint256"
					},
					{
						"astId": 20,
						"contract": "udemy solidity course - complete DApp/Build a Basic Token/basic_token.sol:basicToken",
						"label": "genesisDate",
						"offset": 0,
						"slot": "4",
						"type": "t_uint256"
					},
					{
						"astId": 23,
						"contract": "udemy solidity course - complete DApp/Build a Basic Token/basic_token.sol:basicToken",
						"label": "blockTime",
						"offset": 0,
						"slot": "5",
						"type": "t_uint256"
					},
					{
						"astId": 25,
						"contract": "udemy solidity course - complete DApp/Build a Basic Token/basic_token.sol:basicToken",
						"label": "blockReward",
						"offset": 0,
						"slot": "6",
						"type": "t_uint256"
					},
					{
						"astId": 29,
						"contract": "udemy solidity course - complete DApp/Build a Basic Token/basic_token.sol:basicToken",
						"label": "balances",
						"offset": 0,
						"slot": "7",
						"type": "t_mapping(t_address,t_uint256)"
					}
				],
				"types": {
					"t_address": {
						"encoding": "inplace",
						"label": "address",
						"numberOfBytes": "20"
					},
					"t_mapping(t_address,t_uint256)": {
						"encoding": "mapping",
						"key": "t_address",
						"label": "mapping(address => uint256)",
						"numberOfBytes": "32",
						"value": "t_uint256"
					},
					"t_uint256": {
						"encoding": "inplace",
						"label": "uint256",
						"numberOfBytes": "32"
					}
				}
			},
			"userdoc": {
				"kind": "user",
				"methods": {},
				"version": 1
			}
		}
	}
}