{
	"udemy solidity course - complete DApp/Build a Basic Token/ps-token.sol": {
		"basicToken": {
			"abi": [
				{
					"inputs": [
						{
							"internalType": "uint256",
							"name": "_totalSupply",
							"type": "uint256"
						}
					],
					"stateMutability": "nonpayable",
					"type": "constructor"
				},
				{
					"anonymous": false,
					"inputs": [
						{
							"indexed": true,
							"internalType": "address",
							"name": "from",
							"type": "address"
						},
						{
							"indexed": true,
							"internalType": "address",
							"name": "to",
							"type": "address"
						},
						{
							"indexed": false,
							"internalType": "uint256",
							"name": "amount",
							"type": "uint256"
						}
					],
					"name": "Sent",
					"type": "event"
				},
				{
					"inputs": [
						{
							"internalType": "address",
							"name": "",
							"type": "address"
						}
					],
					"name": "balances",
					"outputs": [
						{
							"internalType": "uint256",
							"name": "",
							"type": "uint256"
						}
					],
					"stateMutability": "view",
					"type": "function"
				},
				{
					"inputs": [],
					"name": "burnedTokens",
					"outputs": [
						{
							"internalType": "uint256",
							"name": "",
							"type": "uint256"
						}
					],
					"stateMutability": "view",
					"type": "function"
				},
				{
					"inputs": [],
					"name": "currentSupply",
					"outputs": [
						{
							"internalType": "uint256",
							"name": "",
							"type": "uint256"
						}
					],
					"stateMutability": "view",
					"type": "function"
				},
				{
					"inputs": [],
					"name": "halfing",
					"outputs": [],
					"stateMutability": "nonpayable",
					"type": "function"
				},
				{
					"inputs": [
						{
							"internalType": "address",
							"name": "to",
							"type": "address"
						},
						{
							"internalType": "uint256",
							"name": "amount",
							"type": "uint256"
						}
					],
					"name": "mint",
					"outputs": [],
					"stateMutability": "nonpayable",
					"type": "function"
				},
				{
					"inputs": [],
					"name": "name",
					"outputs": [
						{
							"internalType": "string",
							"name": "",
							"type": "string"
						}
					],
					"stateMutability": "view",
					"type": "function"
				},
				{
					"inputs": [],
					"name": "owner",
					"outputs": [
						{
							"internalType": "address",
							"name": "",
							"type": "address"
						}
					],
					"stateMutability": "view",
					"type": "function"
				},
				{
					"inputs": [],
					"name": "remainingSupply",
					"outputs": [
						{
							"internalType": "uint256",
							"name": "",
							"type": "uint256"
						}
					],
					"stateMutability": "view",
					"type": "function"
				},
				{
					"inputs": [],
					"name": "symbol",
					"outputs": [
						{
							"internalType": "string",
							"name": "",
							"type": "string"
						}
					],
					"stateMutability": "view",
					"type": "function"
				},
				{
					"inputs": [],
					"name": "totalSupply",
					"outputs": [
						{
							"internalType": "uint256",
							"name": "",
							"type": "uint256"
						}
					],
					"stateMutability": "view",
					"type": "function"
				},
				{
					"inputs": [
						{
							"internalType": "address",
							"name": "to",
							"type": "address"
						},
						{
							"internalType": "uint256",
							"name": "amount",
							"type": "uint256"
						}
					],
					"name": "transfer",
					"outputs": [],
					"stateMutability": "nonpayable",
					"type": "function"
				}
			],
			"devdoc": {
				"kind": "dev",
				"methods": {},
				"version": 1
			},
			"evm": {
				"assembly": "    /* \"udemy solidity course - complete DApp/Build a Basic Token/ps-token.sol\":250:2130  contract basicToken {... */\n  mstore(0x40, 0x80)\n    /* \"udemy solidity course - complete DApp/Build a Basic Token/ps-token.sol\":647:749  constructor(uint _totalSupply) {... */\n  callvalue\n  dup1\n  iszero\n  tag_1\n  jumpi\n  0x00\n  dup1\n  revert\ntag_1:\n  pop\n  mload(0x40)\n  sub(codesize, bytecodeSize)\n  dup1\n  bytecodeSize\n  dup4\n  codecopy\n  dup2\n  dup2\n  add\n  0x40\n  mstore\n  dup2\n  add\n  swap1\n  tag_2\n  swap2\n  swap1\n  tag_3\n  jump\t// in\ntag_2:\n    /* \"udemy solidity course - complete DApp/Build a Basic Token/ps-token.sol\":702:714  _totalSupply */\n  dup1\n    /* \"udemy solidity course - complete DApp/Build a Basic Token/ps-token.sol\":688:699  totalSupply */\n  0x01\n    /* \"udemy solidity course - complete DApp/Build a Basic Token/ps-token.sol\":688:714  totalSupply = _totalSupply */\n  dup2\n  swap1\n  sstore\n  pop\n    /* \"udemy solidity course - complete DApp/Build a Basic Token/ps-token.sol\":732:742  msg.sender */\n  caller\n    /* \"udemy solidity course - complete DApp/Build a Basic Token/ps-token.sol\":724:729  owner */\n  0x00\n  dup1\n    /* \"udemy solidity course - complete DApp/Build a Basic Token/ps-token.sol\":724:742  owner = msg.sender */\n  0x0100\n  exp\n  dup2\n  sload\n  dup2\n  0xffffffffffffffffffffffffffffffffffffffff\n  mul\n  not\n  and\n  swap1\n  dup4\n  0xffffffffffffffffffffffffffffffffffffffff\n  and\n  mul\n  or\n  swap1\n  sstore\n  pop\n    /* \"udemy solidity course - complete DApp/Build a Basic Token/ps-token.sol\":647:749  constructor(uint _totalSupply) {... */\n  pop\n    /* \"udemy solidity course - complete DApp/Build a Basic Token/ps-token.sol\":250:2130  contract basicToken {... */\n  jump(tag_6)\n    /* \"#utility.yul\":7:150   */\ntag_8:\n    /* \"#utility.yul\":64:69   */\n  0x00\n    /* \"#utility.yul\":95:101   */\n  dup2\n    /* \"#utility.yul\":89:102   */\n  mload\n    /* \"#utility.yul\":80:102   */\n  swap1\n  pop\n    /* \"#utility.yul\":111:144   */\n  tag_10\n    /* \"#utility.yul\":138:143   */\n  dup2\n    /* \"#utility.yul\":111:144   */\n  tag_11\n  jump\t// in\ntag_10:\n    /* \"#utility.yul\":7:150   */\n  swap3\n  swap2\n  pop\n  pop\n  jump\t// out\n    /* \"#utility.yul\":156:507   */\ntag_3:\n    /* \"#utility.yul\":226:232   */\n  0x00\n    /* \"#utility.yul\":275:277   */\n  0x20\n    /* \"#utility.yul\":263:272   */\n  dup3\n    /* \"#utility.yul\":254:261   */\n  dup5\n    /* \"#utility.yul\":250:273   */\n  sub\n    /* \"#utility.yul\":246:278   */\n  slt\n    /* \"#utility.yul\":243:362   */\n  iszero\n  tag_13\n  jumpi\n    /* \"#utility.yul\":281:360   */\n  tag_14\n  tag_15\n  jump\t// in\ntag_14:\n    /* \"#utility.yul\":243:362   */\ntag_13:\n    /* \"#utility.yul\":401:402   */\n  0x00\n    /* \"#utility.yul\":426:490   */\n  tag_16\n    /* \"#utility.yul\":482:489   */\n  dup5\n    /* \"#utility.yul\":473:479   */\n  dup3\n    /* \"#utility.yul\":462:471   */\n  dup6\n    /* \"#utility.yul\":458:480   */\n  add\n    /* \"#utility.yul\":426:490   */\n  tag_8\n  jump\t// in\ntag_16:\n    /* \"#utility.yul\":416:490   */\n  swap2\n  pop\n    /* \"#utility.yul\":372:500   */\n  pop\n    /* \"#utility.yul\":156:507   */\n  swap3\n  swap2\n  pop\n  pop\n  jump\t// out\n    /* \"#utility.yul\":594:671   */\ntag_19:\n    /* \"#utility.yul\":631:638   */\n  0x00\n    /* \"#utility.yul\":660:665   */\n  dup2\n    /* \"#utility.yul\":649:665   */\n  swap1\n  pop\n    /* \"#utility.yul\":594:671   */\n  swap2\n  swap1\n  pop\n  jump\t// out\n    /* \"#utility.yul\":800:917   */\ntag_15:\n    /* \"#utility.yul\":909:910   */\n  0x00\n    /* \"#utility.yul\":906:907   */\n  dup1\n    /* \"#utility.yul\":899:911   */\n  revert\n    /* \"#utility.yul\":923:1045   */\ntag_11:\n    /* \"#utility.yul\":996:1020   */\n  tag_25\n    /* \"#utility.yul\":1014:1019   */\n  dup2\n    /* \"#utility.yul\":996:1020   */\n  tag_19\n  jump\t// in\ntag_25:\n    /* \"#utility.yul\":989:994   */\n  dup2\n    /* \"#utility.yul\":986:1021   */\n  eq\n    /* \"#utility.yul\":976:1039   */\n  tag_26\n  jumpi\n    /* \"#utility.yul\":1035:1036   */\n  0x00\n    /* \"#utility.yul\":1032:1033   */\n  dup1\n    /* \"#utility.yul\":1025:1037   */\n  revert\n    /* \"#utility.yul\":976:1039   */\ntag_26:\n    /* \"#utility.yul\":923:1045   */\n  pop\n  jump\t// out\n    /* \"udemy solidity course - complete DApp/Build a Basic Token/ps-token.sol\":250:2130  contract basicToken {... */\ntag_6:\n  dataSize(sub_0)\n  dup1\n  dataOffset(sub_0)\n  0x00\n  codecopy\n  0x00\n  return\nstop\n\nsub_0: assembly {\n        /* \"udemy solidity course - complete DApp/Build a Basic Token/ps-token.sol\":250:2130  contract basicToken {... */\n      mstore(0x40, 0x80)\n      callvalue\n      dup1\n      iszero\n      tag_1\n      jumpi\n      0x00\n      dup1\n      revert\n    tag_1:\n      pop\n      jumpi(tag_2, lt(calldatasize, 0x04))\n      shr(0xe0, calldataload(0x00))\n      dup1\n      0x771282f6\n      gt\n      tag_14\n      jumpi\n      dup1\n      0x771282f6\n      eq\n      tag_8\n      jumpi\n      dup1\n      0x8da5cb5b\n      eq\n      tag_9\n      jumpi\n      dup1\n      0x95d89b41\n      eq\n      tag_10\n      jumpi\n      dup1\n      0xa9059cbb\n      eq\n      tag_11\n      jumpi\n      dup1\n      0xa92429fc\n      eq\n      tag_12\n      jumpi\n      dup1\n      0xda0239a6\n      eq\n      tag_13\n      jumpi\n      jump(tag_2)\n    tag_14:\n      dup1\n      0x06fdde03\n      eq\n      tag_3\n      jumpi\n      dup1\n      0x18160ddd\n      eq\n      tag_4\n      jumpi\n      dup1\n      0x27e235e3\n      eq\n      tag_5\n      jumpi\n      dup1\n      0x40c10f19\n      eq\n      tag_6\n      jumpi\n      dup1\n      0x47b5dd54\n      eq\n      tag_7\n      jumpi\n    tag_2:\n      0x00\n      dup1\n      revert\n        /* \"udemy solidity course - complete DApp/Build a Basic Token/ps-token.sol\":393:444  string public constant name = \"Patrick Basic Token\" */\n    tag_3:\n      tag_15\n      tag_16\n      jump\t// in\n    tag_15:\n      mload(0x40)\n      tag_17\n      swap2\n      swap1\n      tag_18\n      jump\t// in\n    tag_17:\n      mload(0x40)\n      dup1\n      swap2\n      sub\n      swap1\n      return\n        /* \"udemy solidity course - complete DApp/Build a Basic Token/ps-token.sol\":303:326  uint public totalSupply */\n    tag_4:\n      tag_19\n      tag_20\n      jump\t// in\n    tag_19:\n      mload(0x40)\n      tag_21\n      swap2\n      swap1\n      tag_22\n      jump\t// in\n    tag_21:\n      mload(0x40)\n      dup1\n      swap2\n      sub\n      swap1\n      return\n        /* \"udemy solidity course - complete DApp/Build a Basic Token/ps-token.sol\":528:568  mapping(address => uint) public balances */\n    tag_5:\n      tag_23\n      0x04\n      dup1\n      calldatasize\n      sub\n      dup2\n      add\n      swap1\n      tag_24\n      swap2\n      swap1\n      tag_25\n      jump\t// in\n    tag_24:\n      tag_26\n      jump\t// in\n    tag_23:\n      mload(0x40)\n      tag_27\n      swap2\n      swap1\n      tag_22\n      jump\t// in\n    tag_27:\n      mload(0x40)\n      dup1\n      swap2\n      sub\n      swap1\n      return\n        /* \"udemy solidity course - complete DApp/Build a Basic Token/ps-token.sol\":860:1143  function mint(address to, uint amount) public onlyOwner {... */\n    tag_6:\n      tag_28\n      0x04\n      dup1\n      calldatasize\n      sub\n      dup2\n      add\n      swap1\n      tag_29\n      swap2\n      swap1\n      tag_30\n      jump\t// in\n    tag_29:\n      tag_31\n      jump\t// in\n    tag_28:\n      stop\n        /* \"udemy solidity course - complete DApp/Build a Basic Token/ps-token.sol\":363:387  uint public burnedTokens */\n    tag_7:\n      tag_32\n      tag_33\n      jump\t// in\n    tag_32:\n      mload(0x40)\n      tag_34\n      swap2\n      swap1\n      tag_22\n      jump\t// in\n    tag_34:\n      mload(0x40)\n      dup1\n      swap2\n      sub\n      swap1\n      return\n        /* \"udemy solidity course - complete DApp/Build a Basic Token/ps-token.sol\":332:357  uint public currentSupply */\n    tag_8:\n      tag_35\n      tag_36\n      jump\t// in\n    tag_35:\n      mload(0x40)\n      tag_37\n      swap2\n      swap1\n      tag_22\n      jump\t// in\n    tag_37:\n      mload(0x40)\n      dup1\n      swap2\n      sub\n      swap1\n      return\n        /* \"udemy solidity course - complete DApp/Build a Basic Token/ps-token.sol\":277:297  address public owner */\n    tag_9:\n      tag_38\n      tag_39\n      jump\t// in\n    tag_38:\n      mload(0x40)\n      tag_40\n      swap2\n      swap1\n      tag_41\n      jump\t// in\n    tag_40:\n      mload(0x40)\n      dup1\n      swap2\n      sub\n      swap1\n      return\n        /* \"udemy solidity course - complete DApp/Build a Basic Token/ps-token.sol\":450:488  string public constant symbol = \"PBST\" */\n    tag_10:\n      tag_42\n      tag_43\n      jump\t// in\n    tag_42:\n      mload(0x40)\n      tag_44\n      swap2\n      swap1\n      tag_18\n      jump\t// in\n    tag_44:\n      mload(0x40)\n      dup1\n      swap2\n      sub\n      swap1\n      return\n        /* \"udemy solidity course - complete DApp/Build a Basic Token/ps-token.sol\":1149:1548  function transfer(address to, uint amount) public {... */\n    tag_11:\n      tag_45\n      0x04\n      dup1\n      calldatasize\n      sub\n      dup2\n      add\n      swap1\n      tag_46\n      swap2\n      swap1\n      tag_30\n      jump\t// in\n    tag_46:\n      tag_47\n      jump\t// in\n    tag_45:\n      stop\n        /* \"udemy solidity course - complete DApp/Build a Basic Token/ps-token.sol\":1841:2128  function halfing() public {... */\n    tag_12:\n      tag_48\n      tag_49\n      jump\t// in\n    tag_48:\n      stop\n        /* \"udemy solidity course - complete DApp/Build a Basic Token/ps-token.sol\":1554:1658  function remainingSupply() public view returns(uint) {... */\n    tag_13:\n      tag_50\n      tag_51\n      jump\t// in\n    tag_50:\n      mload(0x40)\n      tag_52\n      swap2\n      swap1\n      tag_22\n      jump\t// in\n    tag_52:\n      mload(0x40)\n      dup1\n      swap2\n      sub\n      swap1\n      return\n        /* \"udemy solidity course - complete DApp/Build a Basic Token/ps-token.sol\":393:444  string public constant name = \"Patrick Basic Token\" */\n    tag_16:\n      mload(0x40)\n      dup1\n      0x40\n      add\n      0x40\n      mstore\n      dup1\n      0x13\n      dup2\n      mstore\n      0x20\n      add\n      0x5061747269636b20426173696320546f6b656e00000000000000000000000000\n      dup2\n      mstore\n      pop\n      dup2\n      jump\t// out\n        /* \"udemy solidity course - complete DApp/Build a Basic Token/ps-token.sol\":303:326  uint public totalSupply */\n    tag_20:\n      sload(0x01)\n      dup2\n      jump\t// out\n        /* \"udemy solidity course - complete DApp/Build a Basic Token/ps-token.sol\":528:568  mapping(address => uint) public balances */\n    tag_26:\n      mstore(0x20, 0x04)\n      dup1\n      0x00\n      mstore\n      keccak256(0x00, 0x40)\n      0x00\n      swap2\n      pop\n      swap1\n      pop\n      sload\n      dup2\n      jump\t// out\n        /* \"udemy solidity course - complete DApp/Build a Basic Token/ps-token.sol\":860:1143  function mint(address to, uint amount) public onlyOwner {... */\n    tag_31:\n        /* \"udemy solidity course - complete DApp/Build a Basic Token/ps-token.sol\":806:811  owner */\n      0x00\n      dup1\n      sload\n      swap1\n      0x0100\n      exp\n      swap1\n      div\n      0xffffffffffffffffffffffffffffffffffffffff\n      and\n        /* \"udemy solidity course - complete DApp/Build a Basic Token/ps-token.sol\":792:811  msg.sender == owner */\n      0xffffffffffffffffffffffffffffffffffffffff\n      and\n        /* \"udemy solidity course - complete DApp/Build a Basic Token/ps-token.sol\":792:802  msg.sender */\n      caller\n        /* \"udemy solidity course - complete DApp/Build a Basic Token/ps-token.sol\":792:811  msg.sender == owner */\n      0xffffffffffffffffffffffffffffffffffffffff\n      and\n      eq\n        /* \"udemy solidity course - complete DApp/Build a Basic Token/ps-token.sol\":784:836  require(msg.sender == owner, \"You're not the owner\") */\n      tag_54\n      jumpi\n      mload(0x40)\n      0x08c379a000000000000000000000000000000000000000000000000000000000\n      dup2\n      mstore\n      0x04\n      add\n      tag_55\n      swap1\n      tag_56\n      jump\t// in\n    tag_55:\n      mload(0x40)\n      dup1\n      swap2\n      sub\n      swap1\n      revert\n    tag_54:\n        /* \"udemy solidity course - complete DApp/Build a Basic Token/ps-token.sol\":949:962  currentSupply */\n      sload(0x02)\n        /* \"udemy solidity course - complete DApp/Build a Basic Token/ps-token.sol\":934:945  totalSupply */\n      sload(0x01)\n        /* \"udemy solidity course - complete DApp/Build a Basic Token/ps-token.sol\":934:962  totalSupply >= currentSupply */\n      lt\n      iszero\n        /* \"udemy solidity course - complete DApp/Build a Basic Token/ps-token.sol\":926:992  require(totalSupply >= currentSupply, \"All tokens already minted\") */\n      tag_58\n      jumpi\n      mload(0x40)\n      0x08c379a000000000000000000000000000000000000000000000000000000000\n      dup2\n      mstore\n      0x04\n      add\n      tag_59\n      swap1\n      tag_60\n      jump\t// in\n    tag_59:\n      mload(0x40)\n      dup1\n      swap2\n      sub\n      swap1\n      revert\n    tag_58:\n        /* \"udemy solidity course - complete DApp/Build a Basic Token/ps-token.sol\":1024:1025  0 */\n      0x00\n        /* \"udemy solidity course - complete DApp/Build a Basic Token/ps-token.sol\":1010:1026  to != address(0) */\n      0xffffffffffffffffffffffffffffffffffffffff\n      and\n        /* \"udemy solidity course - complete DApp/Build a Basic Token/ps-token.sol\":1010:1012  to */\n      dup3\n        /* \"udemy solidity course - complete DApp/Build a Basic Token/ps-token.sol\":1010:1026  to != address(0) */\n      0xffffffffffffffffffffffffffffffffffffffff\n      and\n      eq\n      iszero\n        /* \"udemy solidity course - complete DApp/Build a Basic Token/ps-token.sol\":1002:1062  require(to != address(0), \"ERC20: mint to the zero address\") */\n      tag_61\n      jumpi\n      mload(0x40)\n      0x08c379a000000000000000000000000000000000000000000000000000000000\n      dup2\n      mstore\n      0x04\n      add\n      tag_62\n      swap1\n      tag_63\n      jump\t// in\n    tag_62:\n      mload(0x40)\n      dup1\n      swap2\n      sub\n      swap1\n      revert\n    tag_61:\n        /* \"udemy solidity course - complete DApp/Build a Basic Token/ps-token.sol\":1097:1103  amount */\n      dup1\n        /* \"udemy solidity course - complete DApp/Build a Basic Token/ps-token.sol\":1081:1089  balances */\n      0x04\n        /* \"udemy solidity course - complete DApp/Build a Basic Token/ps-token.sol\":1081:1093  balances[to] */\n      0x00\n        /* \"udemy solidity course - complete DApp/Build a Basic Token/ps-token.sol\":1090:1092  to */\n      dup5\n        /* \"udemy solidity course - complete DApp/Build a Basic Token/ps-token.sol\":1081:1093  balances[to] */\n      0xffffffffffffffffffffffffffffffffffffffff\n      and\n      0xffffffffffffffffffffffffffffffffffffffff\n      and\n      dup2\n      mstore\n      0x20\n      add\n      swap1\n      dup2\n      mstore\n      0x20\n      add\n      0x00\n      keccak256\n      0x00\n        /* \"udemy solidity course - complete DApp/Build a Basic Token/ps-token.sol\":1081:1103  balances[to] += amount */\n      dup3\n      dup3\n      sload\n      tag_64\n      swap2\n      swap1\n      tag_65\n      jump\t// in\n    tag_64:\n      swap3\n      pop\n      pop\n      dup2\n      swap1\n      sstore\n      pop\n        /* \"udemy solidity course - complete DApp/Build a Basic Token/ps-token.sol\":1130:1136  amount */\n      dup1\n        /* \"udemy solidity course - complete DApp/Build a Basic Token/ps-token.sol\":1113:1126  currentSupply */\n      0x02\n      0x00\n        /* \"udemy solidity course - complete DApp/Build a Basic Token/ps-token.sol\":1113:1136  currentSupply += amount */\n      dup3\n      dup3\n      sload\n      tag_66\n      swap2\n      swap1\n      tag_65\n      jump\t// in\n    tag_66:\n      swap3\n      pop\n      pop\n      dup2\n      swap1\n      sstore\n      pop\n        /* \"udemy solidity course - complete DApp/Build a Basic Token/ps-token.sol\":860:1143  function mint(address to, uint amount) public onlyOwner {... */\n      pop\n      pop\n      jump\t// out\n        /* \"udemy solidity course - complete DApp/Build a Basic Token/ps-token.sol\":363:387  uint public burnedTokens */\n    tag_33:\n      sload(0x03)\n      dup2\n      jump\t// out\n        /* \"udemy solidity course - complete DApp/Build a Basic Token/ps-token.sol\":332:357  uint public currentSupply */\n    tag_36:\n      sload(0x02)\n      dup2\n      jump\t// out\n        /* \"udemy solidity course - complete DApp/Build a Basic Token/ps-token.sol\":277:297  address public owner */\n    tag_39:\n      0x00\n      dup1\n      sload\n      swap1\n      0x0100\n      exp\n      swap1\n      div\n      0xffffffffffffffffffffffffffffffffffffffff\n      and\n      dup2\n      jump\t// out\n        /* \"udemy solidity course - complete DApp/Build a Basic Token/ps-token.sol\":450:488  string public constant symbol = \"PBST\" */\n    tag_43:\n      mload(0x40)\n      dup1\n      0x40\n      add\n      0x40\n      mstore\n      dup1\n      0x04\n      dup2\n      mstore\n      0x20\n      add\n      0x5042535400000000000000000000000000000000000000000000000000000000\n      dup2\n      mstore\n      pop\n      dup2\n      jump\t// out\n        /* \"udemy solidity course - complete DApp/Build a Basic Token/ps-token.sol\":1149:1548  function transfer(address to, uint amount) public {... */\n    tag_47:\n        /* \"udemy solidity course - complete DApp/Build a Basic Token/ps-token.sol\":1227:1235  balances */\n      0x04\n        /* \"udemy solidity course - complete DApp/Build a Basic Token/ps-token.sol\":1227:1247  balances[msg.sender] */\n      0x00\n        /* \"udemy solidity course - complete DApp/Build a Basic Token/ps-token.sol\":1236:1246  msg.sender */\n      caller\n        /* \"udemy solidity course - complete DApp/Build a Basic Token/ps-token.sol\":1227:1247  balances[msg.sender] */\n      0xffffffffffffffffffffffffffffffffffffffff\n      and\n      0xffffffffffffffffffffffffffffffffffffffff\n      and\n      dup2\n      mstore\n      0x20\n      add\n      swap1\n      dup2\n      mstore\n      0x20\n      add\n      0x00\n      keccak256\n      sload\n        /* \"udemy solidity course - complete DApp/Build a Basic Token/ps-token.sol\":1217:1223  amount */\n      dup2\n        /* \"udemy solidity course - complete DApp/Build a Basic Token/ps-token.sol\":1217:1247  amount <= balances[msg.sender] */\n      gt\n      iszero\n        /* \"udemy solidity course - complete DApp/Build a Basic Token/ps-token.sol\":1209:1269  require(amount <= balances[msg.sender], \"Not enough tokens\") */\n      tag_68\n      jumpi\n      mload(0x40)\n      0x08c379a000000000000000000000000000000000000000000000000000000000\n      dup2\n      mstore\n      0x04\n      add\n      tag_69\n      swap1\n      tag_70\n      jump\t// in\n    tag_69:\n      mload(0x40)\n      dup1\n      swap2\n      sub\n      swap1\n      revert\n    tag_68:\n        /* \"udemy solidity course - complete DApp/Build a Basic Token/ps-token.sol\":1301:1302  0 */\n      0x00\n        /* \"udemy solidity course - complete DApp/Build a Basic Token/ps-token.sol\":1287:1303  to != address(0) */\n      0xffffffffffffffffffffffffffffffffffffffff\n      and\n        /* \"udemy solidity course - complete DApp/Build a Basic Token/ps-token.sol\":1287:1289  to */\n      dup3\n        /* \"udemy solidity course - complete DApp/Build a Basic Token/ps-token.sol\":1287:1303  to != address(0) */\n      0xffffffffffffffffffffffffffffffffffffffff\n      and\n      eq\n      iszero\n        /* \"udemy solidity course - complete DApp/Build a Basic Token/ps-token.sol\":1279:1335  require(to != address(0), \"No mint to the zero address\") */\n      tag_71\n      jumpi\n      mload(0x40)\n      0x08c379a000000000000000000000000000000000000000000000000000000000\n      dup2\n      mstore\n      0x04\n      add\n      tag_72\n      swap1\n      tag_73\n      jump\t// in\n    tag_72:\n      mload(0x40)\n      dup1\n      swap2\n      sub\n      swap1\n      revert\n    tag_71:\n        /* \"udemy solidity course - complete DApp/Build a Basic Token/ps-token.sol\":1363:1376  currentSupply */\n      sload(0x02)\n        /* \"udemy solidity course - complete DApp/Build a Basic Token/ps-token.sol\":1353:1359  amount */\n      dup2\n        /* \"udemy solidity course - complete DApp/Build a Basic Token/ps-token.sol\":1353:1376  amount <= currentSupply */\n      gt\n      iszero\n        /* \"udemy solidity course - complete DApp/Build a Basic Token/ps-token.sol\":1345:1377  require(amount <= currentSupply) */\n      tag_74\n      jumpi\n      0x00\n      dup1\n      revert\n    tag_74:\n        /* \"udemy solidity course - complete DApp/Build a Basic Token/ps-token.sol\":1420:1426  amount */\n      dup1\n        /* \"udemy solidity course - complete DApp/Build a Basic Token/ps-token.sol\":1396:1404  balances */\n      0x04\n        /* \"udemy solidity course - complete DApp/Build a Basic Token/ps-token.sol\":1396:1416  balances[msg.sender] */\n      0x00\n        /* \"udemy solidity course - complete DApp/Build a Basic Token/ps-token.sol\":1405:1415  msg.sender */\n      caller\n        /* \"udemy solidity course - complete DApp/Build a Basic Token/ps-token.sol\":1396:1416  balances[msg.sender] */\n      0xffffffffffffffffffffffffffffffffffffffff\n      and\n      0xffffffffffffffffffffffffffffffffffffffff\n      and\n      dup2\n      mstore\n      0x20\n      add\n      swap1\n      dup2\n      mstore\n      0x20\n      add\n      0x00\n      keccak256\n      0x00\n        /* \"udemy solidity course - complete DApp/Build a Basic Token/ps-token.sol\":1396:1426  balances[msg.sender] -= amount */\n      dup3\n      dup3\n      sload\n      tag_75\n      swap2\n      swap1\n      tag_76\n      jump\t// in\n    tag_75:\n      swap3\n      pop\n      pop\n      dup2\n      swap1\n      sstore\n      pop\n        /* \"udemy solidity course - complete DApp/Build a Basic Token/ps-token.sol\":1452:1458  amount */\n      dup1\n        /* \"udemy solidity course - complete DApp/Build a Basic Token/ps-token.sol\":1436:1444  balances */\n      0x04\n        /* \"udemy solidity course - complete DApp/Build a Basic Token/ps-token.sol\":1436:1448  balances[to] */\n      0x00\n        /* \"udemy solidity course - complete DApp/Build a Basic Token/ps-token.sol\":1445:1447  to */\n      dup5\n        /* \"udemy solidity course - complete DApp/Build a Basic Token/ps-token.sol\":1436:1448  balances[to] */\n      0xffffffffffffffffffffffffffffffffffffffff\n      and\n      0xffffffffffffffffffffffffffffffffffffffff\n      and\n      dup2\n      mstore\n      0x20\n      add\n      swap1\n      dup2\n      mstore\n      0x20\n      add\n      0x00\n      keccak256\n      0x00\n        /* \"udemy solidity course - complete DApp/Build a Basic Token/ps-token.sol\":1436:1458  balances[to] += amount */\n      dup3\n      dup3\n      sload\n      tag_77\n      swap2\n      swap1\n      tag_65\n      jump\t// in\n    tag_77:\n      swap3\n      pop\n      pop\n      dup2\n      swap1\n      sstore\n      pop\n        /* \"udemy solidity course - complete DApp/Build a Basic Token/ps-token.sol\":1477:1489  burn(amount) */\n      tag_78\n        /* \"udemy solidity course - complete DApp/Build a Basic Token/ps-token.sol\":1482:1488  amount */\n      dup2\n        /* \"udemy solidity course - complete DApp/Build a Basic Token/ps-token.sol\":1477:1481  burn */\n      tag_79\n        /* \"udemy solidity course - complete DApp/Build a Basic Token/ps-token.sol\":1477:1489  burn(amount) */\n      jump\t// in\n    tag_78:\n        /* \"udemy solidity course - complete DApp/Build a Basic Token/ps-token.sol\":1530:1532  to */\n      dup2\n        /* \"udemy solidity course - complete DApp/Build a Basic Token/ps-token.sol\":1513:1541  Sent(msg.sender, to, amount) */\n      0xffffffffffffffffffffffffffffffffffffffff\n      and\n        /* \"udemy solidity course - complete DApp/Build a Basic Token/ps-token.sol\":1518:1528  msg.sender */\n      caller\n        /* \"udemy solidity course - complete DApp/Build a Basic Token/ps-token.sol\":1513:1541  Sent(msg.sender, to, amount) */\n      0xffffffffffffffffffffffffffffffffffffffff\n      and\n      0x3990db2d31862302a685e8086b5755072a6e2b5b780af1ee81ece35ee3cd3345\n        /* \"udemy solidity course - complete DApp/Build a Basic Token/ps-token.sol\":1534:1540  amount */\n      dup4\n        /* \"udemy solidity course - complete DApp/Build a Basic Token/ps-token.sol\":1513:1541  Sent(msg.sender, to, amount) */\n      mload(0x40)\n      tag_80\n      swap2\n      swap1\n      tag_22\n      jump\t// in\n    tag_80:\n      mload(0x40)\n      dup1\n      swap2\n      sub\n      swap1\n      log3\n        /* \"udemy solidity course - complete DApp/Build a Basic Token/ps-token.sol\":1149:1548  function transfer(address to, uint amount) public {... */\n      pop\n      pop\n      jump\t// out\n        /* \"udemy solidity course - complete DApp/Build a Basic Token/ps-token.sol\":1841:2128  function halfing() public {... */\n    tag_49:\n        /* \"udemy solidity course - complete DApp/Build a Basic Token/ps-token.sol\":1877:1891  uint startTime */\n      0x00\n        /* \"udemy solidity course - complete DApp/Build a Basic Token/ps-token.sol\":1894:1909  block.timestamp */\n      timestamp\n        /* \"udemy solidity course - complete DApp/Build a Basic Token/ps-token.sol\":1877:1909  uint startTime = block.timestamp */\n      swap1\n      pop\n        /* \"udemy solidity course - complete DApp/Build a Basic Token/ps-token.sol\":1919:1931  uint endTime */\n      0x00\n        /* \"udemy solidity course - complete DApp/Build a Basic Token/ps-token.sol\":1939:1948  startTime */\n      dup2\n        /* \"udemy solidity course - complete DApp/Build a Basic Token/ps-token.sol\":1934:1936  60 */\n      0x3c\n        /* \"udemy solidity course - complete DApp/Build a Basic Token/ps-token.sol\":1934:1948  60 + startTime */\n      tag_82\n      swap2\n      swap1\n      tag_65\n      jump\t// in\n    tag_82:\n        /* \"udemy solidity course - complete DApp/Build a Basic Token/ps-token.sol\":1919:1948  uint endTime = 60 + startTime */\n      swap1\n      pop\n        /* \"udemy solidity course - complete DApp/Build a Basic Token/ps-token.sol\":1973:1974  0 */\n      0x00\n        /* \"udemy solidity course - complete DApp/Build a Basic Token/ps-token.sol\":1962:1969  endTime */\n      dup2\n        /* \"udemy solidity course - complete DApp/Build a Basic Token/ps-token.sol\":1962:1974  endTime <= 0 */\n      gt\n        /* \"udemy solidity course - complete DApp/Build a Basic Token/ps-token.sol\":1959:2122  if(endTime <= 0) {... */\n      tag_83\n      jumpi\n        /* \"udemy solidity course - complete DApp/Build a Basic Token/ps-token.sol\":2018:2019  2 */\n      0x02\n        /* \"udemy solidity course - complete DApp/Build a Basic Token/ps-token.sol\":2004:2015  totalSupply */\n      sload(0x01)\n        /* \"udemy solidity course - complete DApp/Build a Basic Token/ps-token.sol\":2004:2019  totalSupply / 2 */\n      tag_84\n      swap2\n      swap1\n      tag_85\n      jump\t// in\n    tag_84:\n        /* \"udemy solidity course - complete DApp/Build a Basic Token/ps-token.sol\":1990:2001  totalSupply */\n      0x01\n        /* \"udemy solidity course - complete DApp/Build a Basic Token/ps-token.sol\":1990:2019  totalSupply = totalSupply / 2 */\n      dup2\n      swap1\n      sstore\n      pop\n        /* \"udemy solidity course - complete DApp/Build a Basic Token/ps-token.sol\":2065:2066  2 */\n      0x02\n        /* \"udemy solidity course - complete DApp/Build a Basic Token/ps-token.sol\":2049:2062  currentSupply */\n      dup1\n      sload\n        /* \"udemy solidity course - complete DApp/Build a Basic Token/ps-token.sol\":2049:2066  currentSupply / 2 */\n      tag_86\n      swap2\n      swap1\n      tag_85\n      jump\t// in\n    tag_86:\n        /* \"udemy solidity course - complete DApp/Build a Basic Token/ps-token.sol\":2033:2046  currentSupply */\n      0x02\n        /* \"udemy solidity course - complete DApp/Build a Basic Token/ps-token.sol\":2033:2066  currentSupply = currentSupply / 2 */\n      dup2\n      swap1\n      sstore\n      pop\n        /* \"udemy solidity course - complete DApp/Build a Basic Token/ps-token.sol\":2110:2111  2 */\n      0x02\n        /* \"udemy solidity course - complete DApp/Build a Basic Token/ps-token.sol\":2095:2107  burnedTokens */\n      sload(0x03)\n        /* \"udemy solidity course - complete DApp/Build a Basic Token/ps-token.sol\":2095:2111  burnedTokens / 2 */\n      tag_87\n      swap2\n      swap1\n      tag_85\n      jump\t// in\n    tag_87:\n        /* \"udemy solidity course - complete DApp/Build a Basic Token/ps-token.sol\":2080:2092  burnedTokens */\n      0x03\n        /* \"udemy solidity course - complete DApp/Build a Basic Token/ps-token.sol\":2080:2111  burnedTokens = burnedTokens / 2 */\n      dup2\n      swap1\n      sstore\n      pop\n        /* \"udemy solidity course - complete DApp/Build a Basic Token/ps-token.sol\":1959:2122  if(endTime <= 0) {... */\n    tag_83:\n        /* \"udemy solidity course - complete DApp/Build a Basic Token/ps-token.sol\":1867:2128  {... */\n      pop\n      pop\n        /* \"udemy solidity course - complete DApp/Build a Basic Token/ps-token.sol\":1841:2128  function halfing() public {... */\n      jump\t// out\n        /* \"udemy solidity course - complete DApp/Build a Basic Token/ps-token.sol\":1554:1658  function remainingSupply() public view returns(uint) {... */\n    tag_51:\n        /* \"udemy solidity course - complete DApp/Build a Basic Token/ps-token.sol\":1601:1605  uint */\n      0x00\n        /* \"udemy solidity course - complete DApp/Build a Basic Token/ps-token.sol\":1638:1651  currentSupply */\n      sload(0x02)\n        /* \"udemy solidity course - complete DApp/Build a Basic Token/ps-token.sol\":1624:1635  totalSupply */\n      sload(0x01)\n        /* \"udemy solidity course - complete DApp/Build a Basic Token/ps-token.sol\":1624:1651  totalSupply - currentSupply */\n      tag_89\n      swap2\n      swap1\n      tag_76\n      jump\t// in\n    tag_89:\n        /* \"udemy solidity course - complete DApp/Build a Basic Token/ps-token.sol\":1617:1651  return totalSupply - currentSupply */\n      swap1\n      pop\n        /* \"udemy solidity course - complete DApp/Build a Basic Token/ps-token.sol\":1554:1658  function remainingSupply() public view returns(uint) {... */\n      swap1\n      jump\t// out\n        /* \"udemy solidity course - complete DApp/Build a Basic Token/ps-token.sol\":1664:1835  function burn(uint amount) private {... */\n    tag_79:\n        /* \"udemy solidity course - complete DApp/Build a Basic Token/ps-token.sol\":1740:1741  1 */\n      0x01\n        /* \"udemy solidity course - complete DApp/Build a Basic Token/ps-token.sol\":1733:1737  1000 */\n      0x03e8\n        /* \"udemy solidity course - complete DApp/Build a Basic Token/ps-token.sol\":1724:1730  amount */\n      dup3\n        /* \"udemy solidity course - complete DApp/Build a Basic Token/ps-token.sol\":1724:1737  amount / 1000 */\n      tag_91\n      swap2\n      swap1\n      tag_85\n      jump\t// in\n    tag_91:\n        /* \"udemy solidity course - complete DApp/Build a Basic Token/ps-token.sol\":1724:1741  amount / 1000 * 1 */\n      tag_92\n      swap2\n      swap1\n      tag_93\n      jump\t// in\n    tag_92:\n        /* \"udemy solidity course - complete DApp/Build a Basic Token/ps-token.sol\":1709:1720  totalSupply */\n      0x01\n      0x00\n        /* \"udemy solidity course - complete DApp/Build a Basic Token/ps-token.sol\":1709:1741  totalSupply -= amount / 1000 * 1 */\n      dup3\n      dup3\n      sload\n      tag_94\n      swap2\n      swap1\n      tag_76\n      jump\t// in\n    tag_94:\n      swap3\n      pop\n      pop\n      dup2\n      swap1\n      sstore\n      pop\n        /* \"udemy solidity course - complete DApp/Build a Basic Token/ps-token.sol\":1784:1785  1 */\n      0x01\n        /* \"udemy solidity course - complete DApp/Build a Basic Token/ps-token.sol\":1777:1781  1000 */\n      0x03e8\n        /* \"udemy solidity course - complete DApp/Build a Basic Token/ps-token.sol\":1768:1774  amount */\n      dup3\n        /* \"udemy solidity course - complete DApp/Build a Basic Token/ps-token.sol\":1768:1781  amount / 1000 */\n      tag_95\n      swap2\n      swap1\n      tag_85\n      jump\t// in\n    tag_95:\n        /* \"udemy solidity course - complete DApp/Build a Basic Token/ps-token.sol\":1768:1785  amount / 1000 * 1 */\n      tag_96\n      swap2\n      swap1\n      tag_93\n      jump\t// in\n    tag_96:\n        /* \"udemy solidity course - complete DApp/Build a Basic Token/ps-token.sol\":1751:1764  currentSupply */\n      0x02\n      0x00\n        /* \"udemy solidity course - complete DApp/Build a Basic Token/ps-token.sol\":1751:1785  currentSupply -= amount / 1000 * 1 */\n      dup3\n      dup3\n      sload\n      tag_97\n      swap2\n      swap1\n      tag_76\n      jump\t// in\n    tag_97:\n      swap3\n      pop\n      pop\n      dup2\n      swap1\n      sstore\n      pop\n        /* \"udemy solidity course - complete DApp/Build a Basic Token/ps-token.sol\":1827:1828  1 */\n      0x01\n        /* \"udemy solidity course - complete DApp/Build a Basic Token/ps-token.sol\":1820:1824  1000 */\n      0x03e8\n        /* \"udemy solidity course - complete DApp/Build a Basic Token/ps-token.sol\":1811:1817  amount */\n      dup3\n        /* \"udemy solidity course - complete DApp/Build a Basic Token/ps-token.sol\":1811:1824  amount / 1000 */\n      tag_98\n      swap2\n      swap1\n      tag_85\n      jump\t// in\n    tag_98:\n        /* \"udemy solidity course - complete DApp/Build a Basic Token/ps-token.sol\":1811:1828  amount / 1000 * 1 */\n      tag_99\n      swap2\n      swap1\n      tag_93\n      jump\t// in\n    tag_99:\n        /* \"udemy solidity course - complete DApp/Build a Basic Token/ps-token.sol\":1795:1807  burnedTokens */\n      0x03\n      0x00\n        /* \"udemy solidity course - complete DApp/Build a Basic Token/ps-token.sol\":1795:1828  burnedTokens += amount / 1000 * 1 */\n      dup3\n      dup3\n      sload\n      tag_100\n      swap2\n      swap1\n      tag_65\n      jump\t// in\n    tag_100:\n      swap3\n      pop\n      pop\n      dup2\n      swap1\n      sstore\n      pop\n        /* \"udemy solidity course - complete DApp/Build a Basic Token/ps-token.sol\":1664:1835  function burn(uint amount) private {... */\n      pop\n      jump\t// out\n        /* \"#utility.yul\":7:146   */\n    tag_102:\n        /* \"#utility.yul\":53:58   */\n      0x00\n        /* \"#utility.yul\":91:97   */\n      dup2\n        /* \"#utility.yul\":78:98   */\n      calldataload\n        /* \"#utility.yul\":69:98   */\n      swap1\n      pop\n        /* \"#utility.yul\":107:140   */\n      tag_104\n        /* \"#utility.yul\":134:139   */\n      dup2\n        /* \"#utility.yul\":107:140   */\n      tag_105\n      jump\t// in\n    tag_104:\n        /* \"#utility.yul\":7:146   */\n      swap3\n      swap2\n      pop\n      pop\n      jump\t// out\n        /* \"#utility.yul\":152:291   */\n    tag_106:\n        /* \"#utility.yul\":198:203   */\n      0x00\n        /* \"#utility.yul\":236:242   */\n      dup2\n        /* \"#utility.yul\":223:243   */\n      calldataload\n        /* \"#utility.yul\":214:243   */\n      swap1\n      pop\n        /* \"#utility.yul\":252:285   */\n      tag_108\n        /* \"#utility.yul\":279:284   */\n      dup2\n        /* \"#utility.yul\":252:285   */\n      tag_109\n      jump\t// in\n    tag_108:\n        /* \"#utility.yul\":152:291   */\n      swap3\n      swap2\n      pop\n      pop\n      jump\t// out\n        /* \"#utility.yul\":297:626   */\n    tag_25:\n        /* \"#utility.yul\":356:362   */\n      0x00\n        /* \"#utility.yul\":405:407   */\n      0x20\n        /* \"#utility.yul\":393:402   */\n      dup3\n        /* \"#utility.yul\":384:391   */\n      dup5\n        /* \"#utility.yul\":380:403   */\n      sub\n        /* \"#utility.yul\":376:408   */\n      slt\n        /* \"#utility.yul\":373:492   */\n      iszero\n      tag_111\n      jumpi\n        /* \"#utility.yul\":411:490   */\n      tag_112\n      tag_113\n      jump\t// in\n    tag_112:\n        /* \"#utility.yul\":373:492   */\n    tag_111:\n        /* \"#utility.yul\":531:532   */\n      0x00\n        /* \"#utility.yul\":556:609   */\n      tag_114\n        /* \"#utility.yul\":601:608   */\n      dup5\n        /* \"#utility.yul\":592:598   */\n      dup3\n        /* \"#utility.yul\":581:590   */\n      dup6\n        /* \"#utility.yul\":577:599   */\n      add\n        /* \"#utility.yul\":556:609   */\n      tag_102\n      jump\t// in\n    tag_114:\n        /* \"#utility.yul\":546:609   */\n      swap2\n      pop\n        /* \"#utility.yul\":502:619   */\n      pop\n        /* \"#utility.yul\":297:626   */\n      swap3\n      swap2\n      pop\n      pop\n      jump\t// out\n        /* \"#utility.yul\":632:1106   */\n    tag_30:\n        /* \"#utility.yul\":700:706   */\n      0x00\n        /* \"#utility.yul\":708:714   */\n      dup1\n        /* \"#utility.yul\":757:759   */\n      0x40\n        /* \"#utility.yul\":745:754   */\n      dup4\n        /* \"#utility.yul\":736:743   */\n      dup6\n        /* \"#utility.yul\":732:755   */\n      sub\n        /* \"#utility.yul\":728:760   */\n      slt\n        /* \"#utility.yul\":725:844   */\n      iszero\n      tag_116\n      jumpi\n        /* \"#utility.yul\":763:842   */\n      tag_117\n      tag_113\n      jump\t// in\n    tag_117:\n        /* \"#utility.yul\":725:844   */\n    tag_116:\n        /* \"#utility.yul\":883:884   */\n      0x00\n        /* \"#utility.yul\":908:961   */\n      tag_118\n        /* \"#utility.yul\":953:960   */\n      dup6\n        /* \"#utility.yul\":944:950   */\n      dup3\n        /* \"#utility.yul\":933:942   */\n      dup7\n        /* \"#utility.yul\":929:951   */\n      add\n        /* \"#utility.yul\":908:961   */\n      tag_102\n      jump\t// in\n    tag_118:\n        /* \"#utility.yul\":898:961   */\n      swap3\n      pop\n        /* \"#utility.yul\":854:971   */\n      pop\n        /* \"#utility.yul\":1010:1012   */\n      0x20\n        /* \"#utility.yul\":1036:1089   */\n      tag_119\n        /* \"#utility.yul\":1081:1088   */\n      dup6\n        /* \"#utility.yul\":1072:1078   */\n      dup3\n        /* \"#utility.yul\":1061:1070   */\n      dup7\n        /* \"#utility.yul\":1057:1079   */\n      add\n        /* \"#utility.yul\":1036:1089   */\n      tag_106\n      jump\t// in\n    tag_119:\n        /* \"#utility.yul\":1026:1089   */\n      swap2\n      pop\n        /* \"#utility.yul\":981:1099   */\n      pop\n        /* \"#utility.yul\":632:1106   */\n      swap3\n      pop\n      swap3\n      swap1\n      pop\n      jump\t// out\n        /* \"#utility.yul\":1112:1230   */\n    tag_120:\n        /* \"#utility.yul\":1199:1223   */\n      tag_122\n        /* \"#utility.yul\":1217:1222   */\n      dup2\n        /* \"#utility.yul\":1199:1223   */\n      tag_123\n      jump\t// in\n    tag_122:\n        /* \"#utility.yul\":1194:1197   */\n      dup3\n        /* \"#utility.yul\":1187:1224   */\n      mstore\n        /* \"#utility.yul\":1112:1230   */\n      pop\n      pop\n      jump\t// out\n        /* \"#utility.yul\":1236:1600   */\n    tag_124:\n        /* \"#utility.yul\":1324:1327   */\n      0x00\n        /* \"#utility.yul\":1352:1391   */\n      tag_126\n        /* \"#utility.yul\":1385:1390   */\n      dup3\n        /* \"#utility.yul\":1352:1391   */\n      tag_127\n      jump\t// in\n    tag_126:\n        /* \"#utility.yul\":1407:1478   */\n      tag_128\n        /* \"#utility.yul\":1471:1477   */\n      dup2\n        /* \"#utility.yul\":1466:1469   */\n      dup6\n        /* \"#utility.yul\":1407:1478   */\n      tag_129\n      jump\t// in\n    tag_128:\n        /* \"#utility.yul\":1400:1478   */\n      swap4\n      pop\n        /* \"#utility.yul\":1487:1539   */\n      tag_130\n        /* \"#utility.yul\":1532:1538   */\n      dup2\n        /* \"#utility.yul\":1527:1530   */\n      dup6\n        /* \"#utility.yul\":1520:1524   */\n      0x20\n        /* \"#utility.yul\":1513:1518   */\n      dup7\n        /* \"#utility.yul\":1509:1525   */\n      add\n        /* \"#utility.yul\":1487:1539   */\n      tag_131\n      jump\t// in\n    tag_130:\n        /* \"#utility.yul\":1564:1593   */\n      tag_132\n        /* \"#utility.yul\":1586:1592   */\n      dup2\n        /* \"#utility.yul\":1564:1593   */\n      tag_133\n      jump\t// in\n    tag_132:\n        /* \"#utility.yul\":1559:1562   */\n      dup5\n        /* \"#utility.yul\":1555:1594   */\n      add\n        /* \"#utility.yul\":1548:1594   */\n      swap2\n      pop\n        /* \"#utility.yul\":1328:1600   */\n      pop\n        /* \"#utility.yul\":1236:1600   */\n      swap3\n      swap2\n      pop\n      pop\n      jump\t// out\n        /* \"#utility.yul\":1606:1972   */\n    tag_134:\n        /* \"#utility.yul\":1748:1751   */\n      0x00\n        /* \"#utility.yul\":1769:1836   */\n      tag_136\n        /* \"#utility.yul\":1833:1835   */\n      0x1b\n        /* \"#utility.yul\":1828:1831   */\n      dup4\n        /* \"#utility.yul\":1769:1836   */\n      tag_129\n      jump\t// in\n    tag_136:\n        /* \"#utility.yul\":1762:1836   */\n      swap2\n      pop\n        /* \"#utility.yul\":1845:1938   */\n      tag_137\n        /* \"#utility.yul\":1934:1937   */\n      dup3\n        /* \"#utility.yul\":1845:1938   */\n      tag_138\n      jump\t// in\n    tag_137:\n        /* \"#utility.yul\":1963:1965   */\n      0x20\n        /* \"#utility.yul\":1958:1961   */\n      dup3\n        /* \"#utility.yul\":1954:1966   */\n      add\n        /* \"#utility.yul\":1947:1966   */\n      swap1\n      pop\n        /* \"#utility.yul\":1606:1972   */\n      swap2\n      swap1\n      pop\n      jump\t// out\n        /* \"#utility.yul\":1978:2344   */\n    tag_139:\n        /* \"#utility.yul\":2120:2123   */\n      0x00\n        /* \"#utility.yul\":2141:2208   */\n      tag_141\n        /* \"#utility.yul\":2205:2207   */\n      0x19\n        /* \"#utility.yul\":2200:2203   */\n      dup4\n        /* \"#utility.yul\":2141:2208   */\n      tag_129\n      jump\t// in\n    tag_141:\n        /* \"#utility.yul\":2134:2208   */\n      swap2\n      pop\n        /* \"#utility.yul\":2217:2310   */\n      tag_142\n        /* \"#utility.yul\":2306:2309   */\n      dup3\n        /* \"#utility.yul\":2217:2310   */\n      tag_143\n      jump\t// in\n    tag_142:\n        /* \"#utility.yul\":2335:2337   */\n      0x20\n        /* \"#utility.yul\":2330:2333   */\n      dup3\n        /* \"#utility.yul\":2326:2338   */\n      add\n        /* \"#utility.yul\":2319:2338   */\n      swap1\n      pop\n        /* \"#utility.yul\":1978:2344   */\n      swap2\n      swap1\n      pop\n      jump\t// out\n        /* \"#utility.yul\":2350:2716   */\n    tag_144:\n        /* \"#utility.yul\":2492:2495   */\n      0x00\n        /* \"#utility.yul\":2513:2580   */\n      tag_146\n        /* \"#utility.yul\":2577:2579   */\n      0x14\n        /* \"#utility.yul\":2572:2575   */\n      dup4\n        /* \"#utility.yul\":2513:2580   */\n      tag_129\n      jump\t// in\n    tag_146:\n        /* \"#utility.yul\":2506:2580   */\n      swap2\n      pop\n        /* \"#utility.yul\":2589:2682   */\n      tag_147\n        /* \"#utility.yul\":2678:2681   */\n      dup3\n        /* \"#utility.yul\":2589:2682   */\n      tag_148\n      jump\t// in\n    tag_147:\n        /* \"#utility.yul\":2707:2709   */\n      0x20\n        /* \"#utility.yul\":2702:2705   */\n      dup3\n        /* \"#utility.yul\":2698:2710   */\n      add\n        /* \"#utility.yul\":2691:2710   */\n      swap1\n      pop\n        /* \"#utility.yul\":2350:2716   */\n      swap2\n      swap1\n      pop\n      jump\t// out\n        /* \"#utility.yul\":2722:3088   */\n    tag_149:\n        /* \"#utility.yul\":2864:2867   */\n      0x00\n        /* \"#utility.yul\":2885:2952   */\n      tag_151\n        /* \"#utility.yul\":2949:2951   */\n      0x11\n        /* \"#utility.yul\":2944:2947   */\n      dup4\n        /* \"#utility.yul\":2885:2952   */\n      tag_129\n      jump\t// in\n    tag_151:\n        /* \"#utility.yul\":2878:2952   */\n      swap2\n      pop\n        /* \"#utility.yul\":2961:3054   */\n      tag_152\n        /* \"#utility.yul\":3050:3053   */\n      dup3\n        /* \"#utility.yul\":2961:3054   */\n      tag_153\n      jump\t// in\n    tag_152:\n        /* \"#utility.yul\":3079:3081   */\n      0x20\n        /* \"#utility.yul\":3074:3077   */\n      dup3\n        /* \"#utility.yul\":3070:3082   */\n      add\n        /* \"#utility.yul\":3063:3082   */\n      swap1\n      pop\n        /* \"#utility.yul\":2722:3088   */\n      swap2\n      swap1\n      pop\n      jump\t// out\n        /* \"#utility.yul\":3094:3460   */\n    tag_154:\n        /* \"#utility.yul\":3236:3239   */\n      0x00\n        /* \"#utility.yul\":3257:3324   */\n      tag_156\n        /* \"#utility.yul\":3321:3323   */\n      0x1f\n        /* \"#utility.yul\":3316:3319   */\n      dup4\n        /* \"#utility.yul\":3257:3324   */\n      tag_129\n      jump\t// in\n    tag_156:\n        /* \"#utility.yul\":3250:3324   */\n      swap2\n      pop\n        /* \"#utility.yul\":3333:3426   */\n      tag_157\n        /* \"#utility.yul\":3422:3425   */\n      dup3\n        /* \"#utility.yul\":3333:3426   */\n      tag_158\n      jump\t// in\n    tag_157:\n        /* \"#utility.yul\":3451:3453   */\n      0x20\n        /* \"#utility.yul\":3446:3449   */\n      dup3\n        /* \"#utility.yul\":3442:3454   */\n      add\n        /* \"#utility.yul\":3435:3454   */\n      swap1\n      pop\n        /* \"#utility.yul\":3094:3460   */\n      swap2\n      swap1\n      pop\n      jump\t// out\n        /* \"#utility.yul\":3466:3584   */\n    tag_159:\n        /* \"#utility.yul\":3553:3577   */\n      tag_161\n        /* \"#utility.yul\":3571:3576   */\n      dup2\n        /* \"#utility.yul\":3553:3577   */\n      tag_162\n      jump\t// in\n    tag_161:\n        /* \"#utility.yul\":3548:3551   */\n      dup3\n        /* \"#utility.yul\":3541:3578   */\n      mstore\n        /* \"#utility.yul\":3466:3584   */\n      pop\n      pop\n      jump\t// out\n        /* \"#utility.yul\":3590:3812   */\n    tag_41:\n        /* \"#utility.yul\":3683:3687   */\n      0x00\n        /* \"#utility.yul\":3721:3723   */\n      0x20\n        /* \"#utility.yul\":3710:3719   */\n      dup3\n        /* \"#utility.yul\":3706:3724   */\n      add\n        /* \"#utility.yul\":3698:3724   */\n      swap1\n      pop\n        /* \"#utility.yul\":3734:3805   */\n      tag_164\n        /* \"#utility.yul\":3802:3803   */\n      0x00\n        /* \"#utility.yul\":3791:3800   */\n      dup4\n        /* \"#utility.yul\":3787:3804   */\n      add\n        /* \"#utility.yul\":3778:3784   */\n      dup5\n        /* \"#utility.yul\":3734:3805   */\n      tag_120\n      jump\t// in\n    tag_164:\n        /* \"#utility.yul\":3590:3812   */\n      swap3\n      swap2\n      pop\n      pop\n      jump\t// out\n        /* \"#utility.yul\":3818:4131   */\n    tag_18:\n        /* \"#utility.yul\":3931:3935   */\n      0x00\n        /* \"#utility.yul\":3969:3971   */\n      0x20\n        /* \"#utility.yul\":3958:3967   */\n      dup3\n        /* \"#utility.yul\":3954:3972   */\n      add\n        /* \"#utility.yul\":3946:3972   */\n      swap1\n      pop\n        /* \"#utility.yul\":4018:4027   */\n      dup2\n        /* \"#utility.yul\":4012:4016   */\n      dup2\n        /* \"#utility.yul\":4008:4028   */\n      sub\n        /* \"#utility.yul\":4004:4005   */\n      0x00\n        /* \"#utility.yul\":3993:4002   */\n      dup4\n        /* \"#utility.yul\":3989:4006   */\n      add\n        /* \"#utility.yul\":3982:4029   */\n      mstore\n        /* \"#utility.yul\":4046:4124   */\n      tag_166\n        /* \"#utility.yul\":4119:4123   */\n      dup2\n        /* \"#utility.yul\":4110:4116   */\n      dup5\n        /* \"#utility.yul\":4046:4124   */\n      tag_124\n      jump\t// in\n    tag_166:\n        /* \"#utility.yul\":4038:4124   */\n      swap1\n      pop\n        /* \"#utility.yul\":3818:4131   */\n      swap3\n      swap2\n      pop\n      pop\n      jump\t// out\n        /* \"#utility.yul\":4137:4556   */\n    tag_73:\n        /* \"#utility.yul\":4303:4307   */\n      0x00\n        /* \"#utility.yul\":4341:4343   */\n      0x20\n        /* \"#utility.yul\":4330:4339   */\n      dup3\n        /* \"#utility.yul\":4326:4344   */\n      add\n        /* \"#utility.yul\":4318:4344   */\n      swap1\n      pop\n        /* \"#utility.yul\":4390:4399   */\n      dup2\n        /* \"#utility.yul\":4384:4388   */\n      dup2\n        /* \"#utility.yul\":4380:4400   */\n      sub\n        /* \"#utility.yul\":4376:4377   */\n      0x00\n        /* \"#utility.yul\":4365:4374   */\n      dup4\n        /* \"#utility.yul\":4361:4378   */\n      add\n        /* \"#utility.yul\":4354:4401   */\n      mstore\n        /* \"#utility.yul\":4418:4549   */\n      tag_168\n        /* \"#utility.yul\":4544:4548   */\n      dup2\n        /* \"#utility.yul\":4418:4549   */\n      tag_134\n      jump\t// in\n    tag_168:\n        /* \"#utility.yul\":4410:4549   */\n      swap1\n      pop\n        /* \"#utility.yul\":4137:4556   */\n      swap2\n      swap1\n      pop\n      jump\t// out\n        /* \"#utility.yul\":4562:4981   */\n    tag_60:\n        /* \"#utility.yul\":4728:4732   */\n      0x00\n        /* \"#utility.yul\":4766:4768   */\n      0x20\n        /* \"#utility.yul\":4755:4764   */\n      dup3\n        /* \"#utility.yul\":4751:4769   */\n      add\n        /* \"#utility.yul\":4743:4769   */\n      swap1\n      pop\n        /* \"#utility.yul\":4815:4824   */\n      dup2\n        /* \"#utility.yul\":4809:4813   */\n      dup2\n        /* \"#utility.yul\":4805:4825   */\n      sub\n        /* \"#utility.yul\":4801:4802   */\n      0x00\n        /* \"#utility.yul\":4790:4799   */\n      dup4\n        /* \"#utility.yul\":4786:4803   */\n      add\n        /* \"#utility.yul\":4779:4826   */\n      mstore\n        /* \"#utility.yul\":4843:4974   */\n      tag_170\n        /* \"#utility.yul\":4969:4973   */\n      dup2\n        /* \"#utility.yul\":4843:4974   */\n      tag_139\n      jump\t// in\n    tag_170:\n        /* \"#utility.yul\":4835:4974   */\n      swap1\n      pop\n        /* \"#utility.yul\":4562:4981   */\n      swap2\n      swap1\n      pop\n      jump\t// out\n        /* \"#utility.yul\":4987:5406   */\n    tag_56:\n        /* \"#utility.yul\":5153:5157   */\n      0x00\n        /* \"#utility.yul\":5191:5193   */\n      0x20\n        /* \"#utility.yul\":5180:5189   */\n      dup3\n        /* \"#utility.yul\":5176:5194   */\n      add\n        /* \"#utility.yul\":5168:5194   */\n      swap1\n      pop\n        /* \"#utility.yul\":5240:5249   */\n      dup2\n        /* \"#utility.yul\":5234:5238   */\n      dup2\n        /* \"#utility.yul\":5230:5250   */\n      sub\n        /* \"#utility.yul\":5226:5227   */\n      0x00\n        /* \"#utility.yul\":5215:5224   */\n      dup4\n        /* \"#utility.yul\":5211:5228   */\n      add\n        /* \"#utility.yul\":5204:5251   */\n      mstore\n        /* \"#utility.yul\":5268:5399   */\n      tag_172\n        /* \"#utility.yul\":5394:5398   */\n      dup2\n        /* \"#utility.yul\":5268:5399   */\n      tag_144\n      jump\t// in\n    tag_172:\n        /* \"#utility.yul\":5260:5399   */\n      swap1\n      pop\n        /* \"#utility.yul\":4987:5406   */\n      swap2\n      swap1\n      pop\n      jump\t// out\n        /* \"#utility.yul\":5412:5831   */\n    tag_70:\n        /* \"#utility.yul\":5578:5582   */\n      0x00\n        /* \"#utility.yul\":5616:5618   */\n      0x20\n        /* \"#utility.yul\":5605:5614   */\n      dup3\n        /* \"#utility.yul\":5601:5619   */\n      add\n        /* \"#utility.yul\":5593:5619   */\n      swap1\n      pop\n        /* \"#utility.yul\":5665:5674   */\n      dup2\n        /* \"#utility.yul\":5659:5663   */\n      dup2\n        /* \"#utility.yul\":5655:5675   */\n      sub\n        /* \"#utility.yul\":5651:5652   */\n      0x00\n        /* \"#utility.yul\":5640:5649   */\n      dup4\n        /* \"#utility.yul\":5636:5653   */\n      add\n        /* \"#utility.yul\":5629:5676   */\n      mstore\n        /* \"#utility.yul\":5693:5824   */\n      tag_174\n        /* \"#utility.yul\":5819:5823   */\n      dup2\n        /* \"#utility.yul\":5693:5824   */\n      tag_149\n      jump\t// in\n    tag_174:\n        /* \"#utility.yul\":5685:5824   */\n      swap1\n      pop\n        /* \"#utility.yul\":5412:5831   */\n      swap2\n      swap1\n      pop\n      jump\t// out\n        /* \"#utility.yul\":5837:6256   */\n    tag_63:\n        /* \"#utility.yul\":6003:6007   */\n      0x00\n        /* \"#utility.yul\":6041:6043   */\n      0x20\n        /* \"#utility.yul\":6030:6039   */\n      dup3\n        /* \"#utility.yul\":6026:6044   */\n      add\n        /* \"#utility.yul\":6018:6044   */\n      swap1\n      pop\n        /* \"#utility.yul\":6090:6099   */\n      dup2\n        /* \"#utility.yul\":6084:6088   */\n      dup2\n        /* \"#utility.yul\":6080:6100   */\n      sub\n        /* \"#utility.yul\":6076:6077   */\n      0x00\n        /* \"#utility.yul\":6065:6074   */\n      dup4\n        /* \"#utility.yul\":6061:6078   */\n      add\n        /* \"#utility.yul\":6054:6101   */\n      mstore\n        /* \"#utility.yul\":6118:6249   */\n      tag_176\n        /* \"#utility.yul\":6244:6248   */\n      dup2\n        /* \"#utility.yul\":6118:6249   */\n      tag_154\n      jump\t// in\n    tag_176:\n        /* \"#utility.yul\":6110:6249   */\n      swap1\n      pop\n        /* \"#utility.yul\":5837:6256   */\n      swap2\n      swap1\n      pop\n      jump\t// out\n        /* \"#utility.yul\":6262:6484   */\n    tag_22:\n        /* \"#utility.yul\":6355:6359   */\n      0x00\n        /* \"#utility.yul\":6393:6395   */\n      0x20\n        /* \"#utility.yul\":6382:6391   */\n      dup3\n        /* \"#utility.yul\":6378:6396   */\n      add\n        /* \"#utility.yul\":6370:6396   */\n      swap1\n      pop\n        /* \"#utility.yul\":6406:6477   */\n      tag_178\n        /* \"#utility.yul\":6474:6475   */\n      0x00\n        /* \"#utility.yul\":6463:6472   */\n      dup4\n        /* \"#utility.yul\":6459:6476   */\n      add\n        /* \"#utility.yul\":6450:6456   */\n      dup5\n        /* \"#utility.yul\":6406:6477   */\n      tag_159\n      jump\t// in\n    tag_178:\n        /* \"#utility.yul\":6262:6484   */\n      swap3\n      swap2\n      pop\n      pop\n      jump\t// out\n        /* \"#utility.yul\":6571:6670   */\n    tag_127:\n        /* \"#utility.yul\":6623:6629   */\n      0x00\n        /* \"#utility.yul\":6657:6662   */\n      dup2\n        /* \"#utility.yul\":6651:6663   */\n      mload\n        /* \"#utility.yul\":6641:6663   */\n      swap1\n      pop\n        /* \"#utility.yul\":6571:6670   */\n      swap2\n      swap1\n      pop\n      jump\t// out\n        /* \"#utility.yul\":6676:6845   */\n    tag_129:\n        /* \"#utility.yul\":6760:6771   */\n      0x00\n        /* \"#utility.yul\":6794:6800   */\n      dup3\n        /* \"#utility.yul\":6789:6792   */\n      dup3\n        /* \"#utility.yul\":6782:6801   */\n      mstore\n        /* \"#utility.yul\":6834:6838   */\n      0x20\n        /* \"#utility.yul\":6829:6832   */\n      dup3\n        /* \"#utility.yul\":6825:6839   */\n      add\n        /* \"#utility.yul\":6810:6839   */\n      swap1\n      pop\n        /* \"#utility.yul\":6676:6845   */\n      swap3\n      swap2\n      pop\n      pop\n      jump\t// out\n        /* \"#utility.yul\":6851:7156   */\n    tag_65:\n        /* \"#utility.yul\":6891:6894   */\n      0x00\n        /* \"#utility.yul\":6910:6930   */\n      tag_184\n        /* \"#utility.yul\":6928:6929   */\n      dup3\n        /* \"#utility.yul\":6910:6930   */\n      tag_162\n      jump\t// in\n    tag_184:\n        /* \"#utility.yul\":6905:6930   */\n      swap2\n      pop\n        /* \"#utility.yul\":6944:6964   */\n      tag_185\n        /* \"#utility.yul\":6962:6963   */\n      dup4\n        /* \"#utility.yul\":6944:6964   */\n      tag_162\n      jump\t// in\n    tag_185:\n        /* \"#utility.yul\":6939:6964   */\n      swap3\n      pop\n        /* \"#utility.yul\":7098:7099   */\n      dup3\n        /* \"#utility.yul\":7030:7096   */\n      0xffffffffffffffffffffffffffffffffffffffffffffffffffffffffffffffff\n        /* \"#utility.yul\":7026:7100   */\n      sub\n        /* \"#utility.yul\":7023:7024   */\n      dup3\n        /* \"#utility.yul\":7020:7101   */\n      gt\n        /* \"#utility.yul\":7017:7124   */\n      iszero\n      tag_186\n      jumpi\n        /* \"#utility.yul\":7104:7122   */\n      tag_187\n      tag_188\n      jump\t// in\n    tag_187:\n        /* \"#utility.yul\":7017:7124   */\n    tag_186:\n        /* \"#utility.yul\":7148:7149   */\n      dup3\n        /* \"#utility.yul\":7145:7146   */\n      dup3\n        /* \"#utility.yul\":7141:7150   */\n      add\n        /* \"#utility.yul\":7134:7150   */\n      swap1\n      pop\n        /* \"#utility.yul\":6851:7156   */\n      swap3\n      swap2\n      pop\n      pop\n      jump\t// out\n        /* \"#utility.yul\":7162:7347   */\n    tag_85:\n        /* \"#utility.yul\":7202:7203   */\n      0x00\n        /* \"#utility.yul\":7219:7239   */\n      tag_190\n        /* \"#utility.yul\":7237:7238   */\n      dup3\n        /* \"#utility.yul\":7219:7239   */\n      tag_162\n      jump\t// in\n    tag_190:\n        /* \"#utility.yul\":7214:7239   */\n      swap2\n      pop\n        /* \"#utility.yul\":7253:7273   */\n      tag_191\n        /* \"#utility.yul\":7271:7272   */\n      dup4\n        /* \"#utility.yul\":7253:7273   */\n      tag_162\n      jump\t// in\n    tag_191:\n        /* \"#utility.yul\":7248:7273   */\n      swap3\n      pop\n        /* \"#utility.yul\":7292:7293   */\n      dup3\n        /* \"#utility.yul\":7282:7317   */\n      tag_192\n      jumpi\n        /* \"#utility.yul\":7297:7315   */\n      tag_193\n      tag_194\n      jump\t// in\n    tag_193:\n        /* \"#utility.yul\":7282:7317   */\n    tag_192:\n        /* \"#utility.yul\":7339:7340   */\n      dup3\n        /* \"#utility.yul\":7336:7337   */\n      dup3\n        /* \"#utility.yul\":7332:7341   */\n      div\n        /* \"#utility.yul\":7327:7341   */\n      swap1\n      pop\n        /* \"#utility.yul\":7162:7347   */\n      swap3\n      swap2\n      pop\n      pop\n      jump\t// out\n        /* \"#utility.yul\":7353:7701   */\n    tag_93:\n        /* \"#utility.yul\":7393:7400   */\n      0x00\n        /* \"#utility.yul\":7416:7436   */\n      tag_196\n        /* \"#utility.yul\":7434:7435   */\n      dup3\n        /* \"#utility.yul\":7416:7436   */\n      tag_162\n      jump\t// in\n    tag_196:\n        /* \"#utility.yul\":7411:7436   */\n      swap2\n      pop\n        /* \"#utility.yul\":7450:7470   */\n      tag_197\n        /* \"#utility.yul\":7468:7469   */\n      dup4\n        /* \"#utility.yul\":7450:7470   */\n      tag_162\n      jump\t// in\n    tag_197:\n        /* \"#utility.yul\":7445:7470   */\n      swap3\n      pop\n        /* \"#utility.yul\":7638:7639   */\n      dup2\n        /* \"#utility.yul\":7570:7636   */\n      0xffffffffffffffffffffffffffffffffffffffffffffffffffffffffffffffff\n        /* \"#utility.yul\":7566:7640   */\n      div\n        /* \"#utility.yul\":7563:7564   */\n      dup4\n        /* \"#utility.yul\":7560:7641   */\n      gt\n        /* \"#utility.yul\":7555:7556   */\n      dup3\n        /* \"#utility.yul\":7548:7557   */\n      iszero\n        /* \"#utility.yul\":7541:7558   */\n      iszero\n        /* \"#utility.yul\":7537:7642   */\n      and\n        /* \"#utility.yul\":7534:7665   */\n      iszero\n      tag_198\n      jumpi\n        /* \"#utility.yul\":7645:7663   */\n      tag_199\n      tag_188\n      jump\t// in\n    tag_199:\n        /* \"#utility.yul\":7534:7665   */\n    tag_198:\n        /* \"#utility.yul\":7693:7694   */\n      dup3\n        /* \"#utility.yul\":7690:7691   */\n      dup3\n        /* \"#utility.yul\":7686:7695   */\n      mul\n        /* \"#utility.yul\":7675:7695   */\n      swap1\n      pop\n        /* \"#utility.yul\":7353:7701   */\n      swap3\n      swap2\n      pop\n      pop\n      jump\t// out\n        /* \"#utility.yul\":7707:7898   */\n    tag_76:\n        /* \"#utility.yul\":7747:7751   */\n      0x00\n        /* \"#utility.yul\":7767:7787   */\n      tag_201\n        /* \"#utility.yul\":7785:7786   */\n      dup3\n        /* \"#utility.yul\":7767:7787   */\n      tag_162\n      jump\t// in\n    tag_201:\n        /* \"#utility.yul\":7762:7787   */\n      swap2\n      pop\n        /* \"#utility.yul\":7801:7821   */\n      tag_202\n        /* \"#utility.yul\":7819:7820   */\n      dup4\n        /* \"#utility.yul\":7801:7821   */\n      tag_162\n      jump\t// in\n    tag_202:\n        /* \"#utility.yul\":7796:7821   */\n      swap3\n      pop\n        /* \"#utility.yul\":7840:7841   */\n      dup3\n        /* \"#utility.yul\":7837:7838   */\n      dup3\n        /* \"#utility.yul\":7834:7842   */\n      lt\n        /* \"#utility.yul\":7831:7865   */\n      iszero\n      tag_203\n      jumpi\n        /* \"#utility.yul\":7845:7863   */\n      tag_204\n      tag_188\n      jump\t// in\n    tag_204:\n        /* \"#utility.yul\":7831:7865   */\n    tag_203:\n        /* \"#utility.yul\":7890:7891   */\n      dup3\n        /* \"#utility.yul\":7887:7888   */\n      dup3\n        /* \"#utility.yul\":7883:7892   */\n      sub\n        /* \"#utility.yul\":7875:7892   */\n      swap1\n      pop\n        /* \"#utility.yul\":7707:7898   */\n      swap3\n      swap2\n      pop\n      pop\n      jump\t// out\n        /* \"#utility.yul\":7904:8000   */\n    tag_123:\n        /* \"#utility.yul\":7941:7948   */\n      0x00\n        /* \"#utility.yul\":7970:7994   */\n      tag_206\n        /* \"#utility.yul\":7988:7993   */\n      dup3\n        /* \"#utility.yul\":7970:7994   */\n      tag_207\n      jump\t// in\n    tag_206:\n        /* \"#utility.yul\":7959:7994   */\n      swap1\n      pop\n        /* \"#utility.yul\":7904:8000   */\n      swap2\n      swap1\n      pop\n      jump\t// out\n        /* \"#utility.yul\":8006:8132   */\n    tag_207:\n        /* \"#utility.yul\":8043:8050   */\n      0x00\n        /* \"#utility.yul\":8083:8125   */\n      0xffffffffffffffffffffffffffffffffffffffff\n        /* \"#utility.yul\":8076:8081   */\n      dup3\n        /* \"#utility.yul\":8072:8126   */\n      and\n        /* \"#utility.yul\":8061:8126   */\n      swap1\n      pop\n        /* \"#utility.yul\":8006:8132   */\n      swap2\n      swap1\n      pop\n      jump\t// out\n        /* \"#utility.yul\":8138:8215   */\n    tag_162:\n        /* \"#utility.yul\":8175:8182   */\n      0x00\n        /* \"#utility.yul\":8204:8209   */\n      dup2\n        /* \"#utility.yul\":8193:8209   */\n      swap1\n      pop\n        /* \"#utility.yul\":8138:8215   */\n      swap2\n      swap1\n      pop\n      jump\t// out\n        /* \"#utility.yul\":8221:8528   */\n    tag_131:\n        /* \"#utility.yul\":8289:8290   */\n      0x00\n        /* \"#utility.yul\":8299:8412   */\n    tag_211:\n        /* \"#utility.yul\":8313:8319   */\n      dup4\n        /* \"#utility.yul\":8310:8311   */\n      dup2\n        /* \"#utility.yul\":8307:8320   */\n      lt\n        /* \"#utility.yul\":8299:8412   */\n      iszero\n      tag_213\n      jumpi\n        /* \"#utility.yul\":8398:8399   */\n      dup1\n        /* \"#utility.yul\":8393:8396   */\n      dup3\n        /* \"#utility.yul\":8389:8400   */\n      add\n        /* \"#utility.yul\":8383:8401   */\n      mload\n        /* \"#utility.yul\":8379:8380   */\n      dup2\n        /* \"#utility.yul\":8374:8377   */\n      dup5\n        /* \"#utility.yul\":8370:8381   */\n      add\n        /* \"#utility.yul\":8363:8402   */\n      mstore\n        /* \"#utility.yul\":8335:8337   */\n      0x20\n        /* \"#utility.yul\":8332:8333   */\n      dup2\n        /* \"#utility.yul\":8328:8338   */\n      add\n        /* \"#utility.yul\":8323:8338   */\n      swap1\n      pop\n        /* \"#utility.yul\":8299:8412   */\n      jump(tag_211)\n    tag_213:\n        /* \"#utility.yul\":8430:8436   */\n      dup4\n        /* \"#utility.yul\":8427:8428   */\n      dup2\n        /* \"#utility.yul\":8424:8437   */\n      gt\n        /* \"#utility.yul\":8421:8522   */\n      iszero\n      tag_214\n      jumpi\n        /* \"#utility.yul\":8510:8511   */\n      0x00\n        /* \"#utility.yul\":8501:8507   */\n      dup5\n        /* \"#utility.yul\":8496:8499   */\n      dup5\n        /* \"#utility.yul\":8492:8508   */\n      add\n        /* \"#utility.yul\":8485:8512   */\n      mstore\n        /* \"#utility.yul\":8421:8522   */\n    tag_214:\n        /* \"#utility.yul\":8270:8528   */\n      pop\n        /* \"#utility.yul\":8221:8528   */\n      pop\n      pop\n      pop\n      jump\t// out\n        /* \"#utility.yul\":8534:8714   */\n    tag_188:\n        /* \"#utility.yul\":8582:8659   */\n      0x4e487b7100000000000000000000000000000000000000000000000000000000\n        /* \"#utility.yul\":8579:8580   */\n      0x00\n        /* \"#utility.yul\":8572:8660   */\n      mstore\n        /* \"#utility.yul\":8679:8683   */\n      0x11\n        /* \"#utility.yul\":8676:8677   */\n      0x04\n        /* \"#utility.yul\":8669:8684   */\n      mstore\n        /* \"#utility.yul\":8703:8707   */\n      0x24\n        /* \"#utility.yul\":8700:8701   */\n      0x00\n        /* \"#utility.yul\":8693:8708   */\n      revert\n        /* \"#utility.yul\":8720:8900   */\n    tag_194:\n        /* \"#utility.yul\":8768:8845   */\n      0x4e487b7100000000000000000000000000000000000000000000000000000000\n        /* \"#utility.yul\":8765:8766   */\n      0x00\n        /* \"#utility.yul\":8758:8846   */\n      mstore\n        /* \"#utility.yul\":8865:8869   */\n      0x12\n        /* \"#utility.yul\":8862:8863   */\n      0x04\n        /* \"#utility.yul\":8855:8870   */\n      mstore\n        /* \"#utility.yul\":8889:8893   */\n      0x24\n        /* \"#utility.yul\":8886:8887   */\n      0x00\n        /* \"#utility.yul\":8879:8894   */\n      revert\n        /* \"#utility.yul\":9029:9146   */\n    tag_113:\n        /* \"#utility.yul\":9138:9139   */\n      0x00\n        /* \"#utility.yul\":9135:9136   */\n      dup1\n        /* \"#utility.yul\":9128:9140   */\n      revert\n        /* \"#utility.yul\":9152:9254   */\n    tag_133:\n        /* \"#utility.yul\":9193:9199   */\n      0x00\n        /* \"#utility.yul\":9244:9246   */\n      0x1f\n        /* \"#utility.yul\":9240:9247   */\n      not\n        /* \"#utility.yul\":9235:9237   */\n      0x1f\n        /* \"#utility.yul\":9228:9233   */\n      dup4\n        /* \"#utility.yul\":9224:9238   */\n      add\n        /* \"#utility.yul\":9220:9248   */\n      and\n        /* \"#utility.yul\":9210:9248   */\n      swap1\n      pop\n        /* \"#utility.yul\":9152:9254   */\n      swap2\n      swap1\n      pop\n      jump\t// out\n        /* \"#utility.yul\":9260:9437   */\n    tag_138:\n        /* \"#utility.yul\":9400:9429   */\n      0x4e6f206d696e7420746f20746865207a65726f20616464726573730000000000\n        /* \"#utility.yul\":9396:9397   */\n      0x00\n        /* \"#utility.yul\":9388:9394   */\n      dup3\n        /* \"#utility.yul\":9384:9398   */\n      add\n        /* \"#utility.yul\":9377:9430   */\n      mstore\n        /* \"#utility.yul\":9260:9437   */\n      pop\n      jump\t// out\n        /* \"#utility.yul\":9443:9618   */\n    tag_143:\n        /* \"#utility.yul\":9583:9610   */\n      0x416c6c20746f6b656e7320616c7265616479206d696e74656400000000000000\n        /* \"#utility.yul\":9579:9580   */\n      0x00\n        /* \"#utility.yul\":9571:9577   */\n      dup3\n        /* \"#utility.yul\":9567:9581   */\n      add\n        /* \"#utility.yul\":9560:9611   */\n      mstore\n        /* \"#utility.yul\":9443:9618   */\n      pop\n      jump\t// out\n        /* \"#utility.yul\":9624:9794   */\n    tag_148:\n        /* \"#utility.yul\":9764:9786   */\n      0x596f75277265206e6f7420746865206f776e6572000000000000000000000000\n        /* \"#utility.yul\":9760:9761   */\n      0x00\n        /* \"#utility.yul\":9752:9758   */\n      dup3\n        /* \"#utility.yul\":9748:9762   */\n      add\n        /* \"#utility.yul\":9741:9787   */\n      mstore\n        /* \"#utility.yul\":9624:9794   */\n      pop\n      jump\t// out\n        /* \"#utility.yul\":9800:9967   */\n    tag_153:\n        /* \"#utility.yul\":9940:9959   */\n      0x4e6f7420656e6f75676820746f6b656e73000000000000000000000000000000\n        /* \"#utility.yul\":9936:9937   */\n      0x00\n        /* \"#utility.yul\":9928:9934   */\n      dup3\n        /* \"#utility.yul\":9924:9938   */\n      add\n        /* \"#utility.yul\":9917:9960   */\n      mstore\n        /* \"#utility.yul\":9800:9967   */\n      pop\n      jump\t// out\n        /* \"#utility.yul\":9973:10154   */\n    tag_158:\n        /* \"#utility.yul\":10113:10146   */\n      0x45524332303a206d696e7420746f20746865207a65726f206164647265737300\n        /* \"#utility.yul\":10109:10110   */\n      0x00\n        /* \"#utility.yul\":10101:10107   */\n      dup3\n        /* \"#utility.yul\":10097:10111   */\n      add\n        /* \"#utility.yul\":10090:10147   */\n      mstore\n        /* \"#utility.yul\":9973:10154   */\n      pop\n      jump\t// out\n        /* \"#utility.yul\":10160:10282   */\n    tag_105:\n        /* \"#utility.yul\":10233:10257   */\n      tag_227\n        /* \"#utility.yul\":10251:10256   */\n      dup2\n        /* \"#utility.yul\":10233:10257   */\n      tag_123\n      jump\t// in\n    tag_227:\n        /* \"#utility.yul\":10226:10231   */\n      dup2\n        /* \"#utility.yul\":10223:10258   */\n      eq\n        /* \"#utility.yul\":10213:10276   */\n      tag_228\n      jumpi\n        /* \"#utility.yul\":10272:10273   */\n      0x00\n        /* \"#utility.yul\":10269:10270   */\n      dup1\n        /* \"#utility.yul\":10262:10274   */\n      revert\n        /* \"#utility.yul\":10213:10276   */\n    tag_228:\n        /* \"#utility.yul\":10160:10282   */\n      pop\n      jump\t// out\n        /* \"#utility.yul\":10288:10410   */\n    tag_109:\n        /* \"#utility.yul\":10361:10385   */\n      tag_230\n        /* \"#utility.yul\":10379:10384   */\n      dup2\n        /* \"#utility.yul\":10361:10385   */\n      tag_162\n      jump\t// in\n    tag_230:\n        /* \"#utility.yul\":10354:10359   */\n      dup2\n        /* \"#utility.yul\":10351:10386   */\n      eq\n        /* \"#utility.yul\":10341:10404   */\n      tag_231\n      jumpi\n        /* \"#utility.yul\":10400:10401   */\n      0x00\n        /* \"#utility.yul\":10397:10398   */\n      dup1\n        /* \"#utility.yul\":10390:10402   */\n      revert\n        /* \"#utility.yul\":10341:10404   */\n    tag_231:\n        /* \"#utility.yul\":10288:10410   */\n      pop\n      jump\t// out\n\n    auxdata: 0xa2646970667358221220bbef78b6775f8192852505fa999091da6006dd6670d20a3c59a297e931abbf0f64736f6c63430008070033\n}\n",
				"bytecode": {
					"linkReferences": {},
					"object": "608060405234801561001057600080fd5b50604051610e6a380380610e6a83398181016040528101906100329190610094565b80600181905550336000806101000a81548173ffffffffffffffffffffffffffffffffffffffff021916908373ffffffffffffffffffffffffffffffffffffffff160217905550506100e7565b60008151905061008e816100d0565b92915050565b6000602082840312156100aa576100a96100cb565b5b60006100b88482850161007f565b91505092915050565b6000819050919050565b600080fd5b6100d9816100c1565b81146100e457600080fd5b50565b610d74806100f66000396000f3fe608060405234801561001057600080fd5b50600436106100a95760003560e01c8063771282f611610071578063771282f6146101545780638da5cb5b1461017257806395d89b4114610190578063a9059cbb146101ae578063a92429fc146101ca578063da0239a6146101d4576100a9565b806306fdde03146100ae57806318160ddd146100cc57806327e235e3146100ea57806340c10f191461011a57806347b5dd5414610136575b600080fd5b6100b66101f2565b6040516100c39190610952565b60405180910390f35b6100d461022b565b6040516100e19190610a14565b60405180910390f35b61010460048036038101906100ff91906107c4565b610231565b6040516101119190610a14565b60405180910390f35b610134600480360381019061012f91906107f1565b610249565b005b61013e610401565b60405161014b9190610a14565b60405180910390f35b61015c610407565b6040516101699190610a14565b60405180910390f35b61017a61040d565b6040516101879190610937565b60405180910390f35b610198610431565b6040516101a59190610952565b60405180910390f35b6101c860048036038101906101c391906107f1565b61046a565b005b6101d2610689565b005b6101dc6106ea565b6040516101e99190610a14565b60405180910390f35b6040518060400160405280601381526020017f5061747269636b20426173696320546f6b656e0000000000000000000000000081525081565b60015481565b60046020528060005260406000206000915090505481565b60008054906101000a900473ffffffffffffffffffffffffffffffffffffffff1673ffffffffffffffffffffffffffffffffffffffff163373ffffffffffffffffffffffffffffffffffffffff16146102d7576040517f08c379a00000000000000000000000000000000000000000000000000000000081526004016102ce906109b4565b60405180910390fd5b600254600154101561031e576040517f08c379a000000000000000000000000000000000000000000000000000000000815260040161031590610994565b60405180910390fd5b600073ffffffffffffffffffffffffffffffffffffffff168273ffffffffffffffffffffffffffffffffffffffff16141561038e576040517f08c379a0000000000000000000000000000000000000000000000000000000008152600401610385906109f4565b60405180910390fd5b80600460008473ffffffffffffffffffffffffffffffffffffffff1673ffffffffffffffffffffffffffffffffffffffff16815260200190815260200160002060008282546103dd9190610a4b565b9250508190555080600260008282546103f69190610a4b565b925050819055505050565b60035481565b60025481565b60008054906101000a900473ffffffffffffffffffffffffffffffffffffffff1681565b6040518060400160405280600481526020017f504253540000000000000000000000000000000000000000000000000000000081525081565b600460003373ffffffffffffffffffffffffffffffffffffffff1673ffffffffffffffffffffffffffffffffffffffff168152602001908152602001600020548111156104ec576040517f08c379a00000000000000000000000000000000000000000000000000000000081526004016104e3906109d4565b60405180910390fd5b600073ffffffffffffffffffffffffffffffffffffffff168273ffffffffffffffffffffffffffffffffffffffff16141561055c576040517f08c379a000000000000000000000000000000000000000000000000000000000815260040161055390610974565b60405180910390fd5b60025481111561056b57600080fd5b80600460003373ffffffffffffffffffffffffffffffffffffffff1673ffffffffffffffffffffffffffffffffffffffff16815260200190815260200160002060008282546105ba9190610b2c565b9250508190555080600460008473ffffffffffffffffffffffffffffffffffffffff1673ffffffffffffffffffffffffffffffffffffffff16815260200190815260200160002060008282546106109190610a4b565b9250508190555061062081610701565b8173ffffffffffffffffffffffffffffffffffffffff163373ffffffffffffffffffffffffffffffffffffffff167f3990db2d31862302a685e8086b5755072a6e2b5b780af1ee81ece35ee3cd33458360405161067d9190610a14565b60405180910390a35050565b6000429050600081603c61069d9190610a4b565b9050600081116106e65760026001546106b69190610aa1565b600181905550600280546106ca9190610aa1565b60028190555060026003546106df9190610aa1565b6003819055505b5050565b60006002546001546106fc9190610b2c565b905090565b60016103e8826107119190610aa1565b61071b9190610ad2565b6001600082825461072c9190610b2c565b9250508190555060016103e8826107439190610aa1565b61074d9190610ad2565b6002600082825461075e9190610b2c565b9250508190555060016103e8826107759190610aa1565b61077f9190610ad2565b600360008282546107909190610a4b565b9250508190555050565b6000813590506107a981610d10565b92915050565b6000813590506107be81610d27565b92915050565b6000602082840312156107da576107d9610c2d565b5b60006107e88482850161079a565b91505092915050565b6000806040838503121561080857610807610c2d565b5b60006108168582860161079a565b9250506020610827858286016107af565b9150509250929050565b61083a81610b60565b82525050565b600061084b82610a2f565b6108558185610a3a565b9350610865818560208601610b9c565b61086e81610c32565b840191505092915050565b6000610886601b83610a3a565b915061089182610c43565b602082019050919050565b60006108a9601983610a3a565b91506108b482610c6c565b602082019050919050565b60006108cc601483610a3a565b91506108d782610c95565b602082019050919050565b60006108ef601183610a3a565b91506108fa82610cbe565b602082019050919050565b6000610912601f83610a3a565b915061091d82610ce7565b602082019050919050565b61093181610b92565b82525050565b600060208201905061094c6000830184610831565b92915050565b6000602082019050818103600083015261096c8184610840565b905092915050565b6000602082019050818103600083015261098d81610879565b9050919050565b600060208201905081810360008301526109ad8161089c565b9050919050565b600060208201905081810360008301526109cd816108bf565b9050919050565b600060208201905081810360008301526109ed816108e2565b9050919050565b60006020820190508181036000830152610a0d81610905565b9050919050565b6000602082019050610a296000830184610928565b92915050565b600081519050919050565b600082825260208201905092915050565b6000610a5682610b92565b9150610a6183610b92565b9250827fffffffffffffffffffffffffffffffffffffffffffffffffffffffffffffffff03821115610a9657610a95610bcf565b5b828201905092915050565b6000610aac82610b92565b9150610ab783610b92565b925082610ac757610ac6610bfe565b5b828204905092915050565b6000610add82610b92565b9150610ae883610b92565b9250817fffffffffffffffffffffffffffffffffffffffffffffffffffffffffffffffff0483118215151615610b2157610b20610bcf565b5b828202905092915050565b6000610b3782610b92565b9150610b4283610b92565b925082821015610b5557610b54610bcf565b5b828203905092915050565b6000610b6b82610b72565b9050919050565b600073ffffffffffffffffffffffffffffffffffffffff82169050919050565b6000819050919050565b60005b83811015610bba578082015181840152602081019050610b9f565b83811115610bc9576000848401525b50505050565b7f4e487b7100000000000000000000000000000000000000000000000000000000600052601160045260246000fd5b7f4e487b7100000000000000000000000000000000000000000000000000000000600052601260045260246000fd5b600080fd5b6000601f19601f8301169050919050565b7f4e6f206d696e7420746f20746865207a65726f20616464726573730000000000600082015250565b7f416c6c20746f6b656e7320616c7265616479206d696e74656400000000000000600082015250565b7f596f75277265206e6f7420746865206f776e6572000000000000000000000000600082015250565b7f4e6f7420656e6f75676820746f6b656e73000000000000000000000000000000600082015250565b7f45524332303a206d696e7420746f20746865207a65726f206164647265737300600082015250565b610d1981610b60565b8114610d2457600080fd5b50565b610d3081610b92565b8114610d3b57600080fd5b5056fea2646970667358221220bbef78b6775f8192852505fa999091da6006dd6670d20a3c59a297e931abbf0f64736f6c63430008070033",
					"opcodes": "PUSH1 0x80 PUSH1 0x40 MSTORE CALLVALUE DUP1 ISZERO PUSH2 0x10 JUMPI PUSH1 0x0 DUP1 REVERT JUMPDEST POP PUSH1 0x40 MLOAD PUSH2 0xE6A CODESIZE SUB DUP1 PUSH2 0xE6A DUP4 CODECOPY DUP2 DUP2 ADD PUSH1 0x40 MSTORE DUP2 ADD SWAP1 PUSH2 0x32 SWAP2 SWAP1 PUSH2 0x94 JUMP JUMPDEST DUP1 PUSH1 0x1 DUP2 SWAP1 SSTORE POP CALLER PUSH1 0x0 DUP1 PUSH2 0x100 EXP DUP2 SLOAD DUP2 PUSH20 0xFFFFFFFFFFFFFFFFFFFFFFFFFFFFFFFFFFFFFFFF MUL NOT AND SWAP1 DUP4 PUSH20 0xFFFFFFFFFFFFFFFFFFFFFFFFFFFFFFFFFFFFFFFF AND MUL OR SWAP1 SSTORE POP POP PUSH2 0xE7 JUMP JUMPDEST PUSH1 0x0 DUP2 MLOAD SWAP1 POP PUSH2 0x8E DUP2 PUSH2 0xD0 JUMP JUMPDEST SWAP3 SWAP2 POP POP JUMP JUMPDEST PUSH1 0x0 PUSH1 0x20 DUP3 DUP5 SUB SLT ISZERO PUSH2 0xAA JUMPI PUSH2 0xA9 PUSH2 0xCB JUMP JUMPDEST JUMPDEST PUSH1 0x0 PUSH2 0xB8 DUP5 DUP3 DUP6 ADD PUSH2 0x7F JUMP JUMPDEST SWAP2 POP POP SWAP3 SWAP2 POP POP JUMP JUMPDEST PUSH1 0x0 DUP2 SWAP1 POP SWAP2 SWAP1 POP JUMP JUMPDEST PUSH1 0x0 DUP1 REVERT JUMPDEST PUSH2 0xD9 DUP2 PUSH2 0xC1 JUMP JUMPDEST DUP2 EQ PUSH2 0xE4 JUMPI PUSH1 0x0 DUP1 REVERT JUMPDEST POP JUMP JUMPDEST PUSH2 0xD74 DUP1 PUSH2 0xF6 PUSH1 0x0 CODECOPY PUSH1 0x0 RETURN INVALID PUSH1 0x80 PUSH1 0x40 MSTORE CALLVALUE DUP1 ISZERO PUSH2 0x10 JUMPI PUSH1 0x0 DUP1 REVERT JUMPDEST POP PUSH1 0x4 CALLDATASIZE LT PUSH2 0xA9 JUMPI PUSH1 0x0 CALLDATALOAD PUSH1 0xE0 SHR DUP1 PUSH4 0x771282F6 GT PUSH2 0x71 JUMPI DUP1 PUSH4 0x771282F6 EQ PUSH2 0x154 JUMPI DUP1 PUSH4 0x8DA5CB5B EQ PUSH2 0x172 JUMPI DUP1 PUSH4 0x95D89B41 EQ PUSH2 0x190 JUMPI DUP1 PUSH4 0xA9059CBB EQ PUSH2 0x1AE JUMPI DUP1 PUSH4 0xA92429FC EQ PUSH2 0x1CA JUMPI DUP1 PUSH4 0xDA0239A6 EQ PUSH2 0x1D4 JUMPI PUSH2 0xA9 JUMP JUMPDEST DUP1 PUSH4 0x6FDDE03 EQ PUSH2 0xAE JUMPI DUP1 PUSH4 0x18160DDD EQ PUSH2 0xCC JUMPI DUP1 PUSH4 0x27E235E3 EQ PUSH2 0xEA JUMPI DUP1 PUSH4 0x40C10F19 EQ PUSH2 0x11A JUMPI DUP1 PUSH4 0x47B5DD54 EQ PUSH2 0x136 JUMPI JUMPDEST PUSH1 0x0 DUP1 REVERT JUMPDEST PUSH2 0xB6 PUSH2 0x1F2 JUMP JUMPDEST PUSH1 0x40 MLOAD PUSH2 0xC3 SWAP2 SWAP1 PUSH2 0x952 JUMP JUMPDEST PUSH1 0x40 MLOAD DUP1 SWAP2 SUB SWAP1 RETURN JUMPDEST PUSH2 0xD4 PUSH2 0x22B JUMP JUMPDEST PUSH1 0x40 MLOAD PUSH2 0xE1 SWAP2 SWAP1 PUSH2 0xA14 JUMP JUMPDEST PUSH1 0x40 MLOAD DUP1 SWAP2 SUB SWAP1 RETURN JUMPDEST PUSH2 0x104 PUSH1 0x4 DUP1 CALLDATASIZE SUB DUP2 ADD SWAP1 PUSH2 0xFF SWAP2 SWAP1 PUSH2 0x7C4 JUMP JUMPDEST PUSH2 0x231 JUMP JUMPDEST PUSH1 0x40 MLOAD PUSH2 0x111 SWAP2 SWAP1 PUSH2 0xA14 JUMP JUMPDEST PUSH1 0x40 MLOAD DUP1 SWAP2 SUB SWAP1 RETURN JUMPDEST PUSH2 0x134 PUSH1 0x4 DUP1 CALLDATASIZE SUB DUP2 ADD SWAP1 PUSH2 0x12F SWAP2 SWAP1 PUSH2 0x7F1 JUMP JUMPDEST PUSH2 0x249 JUMP JUMPDEST STOP JUMPDEST PUSH2 0x13E PUSH2 0x401 JUMP JUMPDEST PUSH1 0x40 MLOAD PUSH2 0x14B SWAP2 SWAP1 PUSH2 0xA14 JUMP JUMPDEST PUSH1 0x40 MLOAD DUP1 SWAP2 SUB SWAP1 RETURN JUMPDEST PUSH2 0x15C PUSH2 0x407 JUMP JUMPDEST PUSH1 0x40 MLOAD PUSH2 0x169 SWAP2 SWAP1 PUSH2 0xA14 JUMP JUMPDEST PUSH1 0x40 MLOAD DUP1 SWAP2 SUB SWAP1 RETURN JUMPDEST PUSH2 0x17A PUSH2 0x40D JUMP JUMPDEST PUSH1 0x40 MLOAD PUSH2 0x187 SWAP2 SWAP1 PUSH2 0x937 JUMP JUMPDEST PUSH1 0x40 MLOAD DUP1 SWAP2 SUB SWAP1 RETURN JUMPDEST PUSH2 0x198 PUSH2 0x431 JUMP JUMPDEST PUSH1 0x40 MLOAD PUSH2 0x1A5 SWAP2 SWAP1 PUSH2 0x952 JUMP JUMPDEST PUSH1 0x40 MLOAD DUP1 SWAP2 SUB SWAP1 RETURN JUMPDEST PUSH2 0x1C8 PUSH1 0x4 DUP1 CALLDATASIZE SUB DUP2 ADD SWAP1 PUSH2 0x1C3 SWAP2 SWAP1 PUSH2 0x7F1 JUMP JUMPDEST PUSH2 0x46A JUMP JUMPDEST STOP JUMPDEST PUSH2 0x1D2 PUSH2 0x689 JUMP JUMPDEST STOP JUMPDEST PUSH2 0x1DC PUSH2 0x6EA JUMP JUMPDEST PUSH1 0x40 MLOAD PUSH2 0x1E9 SWAP2 SWAP1 PUSH2 0xA14 JUMP JUMPDEST PUSH1 0x40 MLOAD DUP1 SWAP2 SUB SWAP1 RETURN JUMPDEST PUSH1 0x40 MLOAD DUP1 PUSH1 0x40 ADD PUSH1 0x40 MSTORE DUP1 PUSH1 0x13 DUP2 MSTORE PUSH1 0x20 ADD PUSH32 0x5061747269636B20426173696320546F6B656E00000000000000000000000000 DUP2 MSTORE POP DUP2 JUMP JUMPDEST PUSH1 0x1 SLOAD DUP2 JUMP JUMPDEST PUSH1 0x4 PUSH1 0x20 MSTORE DUP1 PUSH1 0x0 MSTORE PUSH1 0x40 PUSH1 0x0 KECCAK256 PUSH1 0x0 SWAP2 POP SWAP1 POP SLOAD DUP2 JUMP JUMPDEST PUSH1 0x0 DUP1 SLOAD SWAP1 PUSH2 0x100 EXP SWAP1 DIV PUSH20 0xFFFFFFFFFFFFFFFFFFFFFFFFFFFFFFFFFFFFFFFF AND PUSH20 0xFFFFFFFFFFFFFFFFFFFFFFFFFFFFFFFFFFFFFFFF AND CALLER PUSH20 0xFFFFFFFFFFFFFFFFFFFFFFFFFFFFFFFFFFFFFFFF AND EQ PUSH2 0x2D7 JUMPI PUSH1 0x40 MLOAD PUSH32 0x8C379A000000000000000000000000000000000000000000000000000000000 DUP2 MSTORE PUSH1 0x4 ADD PUSH2 0x2CE SWAP1 PUSH2 0x9B4 JUMP JUMPDEST PUSH1 0x40 MLOAD DUP1 SWAP2 SUB SWAP1 REVERT JUMPDEST PUSH1 0x2 SLOAD PUSH1 0x1 SLOAD LT ISZERO PUSH2 0x31E JUMPI PUSH1 0x40 MLOAD PUSH32 0x8C379A000000000000000000000000000000000000000000000000000000000 DUP2 MSTORE PUSH1 0x4 ADD PUSH2 0x315 SWAP1 PUSH2 0x994 JUMP JUMPDEST PUSH1 0x40 MLOAD DUP1 SWAP2 SUB SWAP1 REVERT JUMPDEST PUSH1 0x0 PUSH20 0xFFFFFFFFFFFFFFFFFFFFFFFFFFFFFFFFFFFFFFFF AND DUP3 PUSH20 0xFFFFFFFFFFFFFFFFFFFFFFFFFFFFFFFFFFFFFFFF AND EQ ISZERO PUSH2 0x38E JUMPI PUSH1 0x40 MLOAD PUSH32 0x8C379A000000000000000000000000000000000000000000000000000000000 DUP2 MSTORE PUSH1 0x4 ADD PUSH2 0x385 SWAP1 PUSH2 0x9F4 JUMP JUMPDEST PUSH1 0x40 MLOAD DUP1 SWAP2 SUB SWAP1 REVERT JUMPDEST DUP1 PUSH1 0x4 PUSH1 0x0 DUP5 PUSH20 0xFFFFFFFFFFFFFFFFFFFFFFFFFFFFFFFFFFFFFFFF AND PUSH20 0xFFFFFFFFFFFFFFFFFFFFFFFFFFFFFFFFFFFFFFFF AND DUP2 MSTORE PUSH1 0x20 ADD SWAP1 DUP2 MSTORE PUSH1 0x20 ADD PUSH1 0x0 KECCAK256 PUSH1 0x0 DUP3 DUP3 SLOAD PUSH2 0x3DD SWAP2 SWAP1 PUSH2 0xA4B JUMP JUMPDEST SWAP3 POP POP DUP2 SWAP1 SSTORE POP DUP1 PUSH1 0x2 PUSH1 0x0 DUP3 DUP3 SLOAD PUSH2 0x3F6 SWAP2 SWAP1 PUSH2 0xA4B JUMP JUMPDEST SWAP3 POP POP DUP2 SWAP1 SSTORE POP POP POP JUMP JUMPDEST PUSH1 0x3 SLOAD DUP2 JUMP JUMPDEST PUSH1 0x2 SLOAD DUP2 JUMP JUMPDEST PUSH1 0x0 DUP1 SLOAD SWAP1 PUSH2 0x100 EXP SWAP1 DIV PUSH20 0xFFFFFFFFFFFFFFFFFFFFFFFFFFFFFFFFFFFFFFFF AND DUP2 JUMP JUMPDEST PUSH1 0x40 MLOAD DUP1 PUSH1 0x40 ADD PUSH1 0x40 MSTORE DUP1 PUSH1 0x4 DUP2 MSTORE PUSH1 0x20 ADD PUSH32 0x5042535400000000000000000000000000000000000000000000000000000000 DUP2 MSTORE POP DUP2 JUMP JUMPDEST PUSH1 0x4 PUSH1 0x0 CALLER PUSH20 0xFFFFFFFFFFFFFFFFFFFFFFFFFFFFFFFFFFFFFFFF AND PUSH20 0xFFFFFFFFFFFFFFFFFFFFFFFFFFFFFFFFFFFFFFFF AND DUP2 MSTORE PUSH1 0x20 ADD SWAP1 DUP2 MSTORE PUSH1 0x20 ADD PUSH1 0x0 KECCAK256 SLOAD DUP2 GT ISZERO PUSH2 0x4EC JUMPI PUSH1 0x40 MLOAD PUSH32 0x8C379A000000000000000000000000000000000000000000000000000000000 DUP2 MSTORE PUSH1 0x4 ADD PUSH2 0x4E3 SWAP1 PUSH2 0x9D4 JUMP JUMPDEST PUSH1 0x40 MLOAD DUP1 SWAP2 SUB SWAP1 REVERT JUMPDEST PUSH1 0x0 PUSH20 0xFFFFFFFFFFFFFFFFFFFFFFFFFFFFFFFFFFFFFFFF AND DUP3 PUSH20 0xFFFFFFFFFFFFFFFFFFFFFFFFFFFFFFFFFFFFFFFF AND EQ ISZERO PUSH2 0x55C JUMPI PUSH1 0x40 MLOAD PUSH32 0x8C379A000000000000000000000000000000000000000000000000000000000 DUP2 MSTORE PUSH1 0x4 ADD PUSH2 0x553 SWAP1 PUSH2 0x974 JUMP JUMPDEST PUSH1 0x40 MLOAD DUP1 SWAP2 SUB SWAP1 REVERT JUMPDEST PUSH1 0x2 SLOAD DUP2 GT ISZERO PUSH2 0x56B JUMPI PUSH1 0x0 DUP1 REVERT JUMPDEST DUP1 PUSH1 0x4 PUSH1 0x0 CALLER PUSH20 0xFFFFFFFFFFFFFFFFFFFFFFFFFFFFFFFFFFFFFFFF AND PUSH20 0xFFFFFFFFFFFFFFFFFFFFFFFFFFFFFFFFFFFFFFFF AND DUP2 MSTORE PUSH1 0x20 ADD SWAP1 DUP2 MSTORE PUSH1 0x20 ADD PUSH1 0x0 KECCAK256 PUSH1 0x0 DUP3 DUP3 SLOAD PUSH2 0x5BA SWAP2 SWAP1 PUSH2 0xB2C JUMP JUMPDEST SWAP3 POP POP DUP2 SWAP1 SSTORE POP DUP1 PUSH1 0x4 PUSH1 0x0 DUP5 PUSH20 0xFFFFFFFFFFFFFFFFFFFFFFFFFFFFFFFFFFFFFFFF AND PUSH20 0xFFFFFFFFFFFFFFFFFFFFFFFFFFFFFFFFFFFFFFFF AND DUP2 MSTORE PUSH1 0x20 ADD SWAP1 DUP2 MSTORE PUSH1 0x20 ADD PUSH1 0x0 KECCAK256 PUSH1 0x0 DUP3 DUP3 SLOAD PUSH2 0x610 SWAP2 SWAP1 PUSH2 0xA4B JUMP JUMPDEST SWAP3 POP POP DUP2 SWAP1 SSTORE POP PUSH2 0x620 DUP2 PUSH2 0x701 JUMP JUMPDEST DUP2 PUSH20 0xFFFFFFFFFFFFFFFFFFFFFFFFFFFFFFFFFFFFFFFF AND CALLER PUSH20 0xFFFFFFFFFFFFFFFFFFFFFFFFFFFFFFFFFFFFFFFF AND PUSH32 0x3990DB2D31862302A685E8086B5755072A6E2B5B780AF1EE81ECE35EE3CD3345 DUP4 PUSH1 0x40 MLOAD PUSH2 0x67D SWAP2 SWAP1 PUSH2 0xA14 JUMP JUMPDEST PUSH1 0x40 MLOAD DUP1 SWAP2 SUB SWAP1 LOG3 POP POP JUMP JUMPDEST PUSH1 0x0 TIMESTAMP SWAP1 POP PUSH1 0x0 DUP2 PUSH1 0x3C PUSH2 0x69D SWAP2 SWAP1 PUSH2 0xA4B JUMP JUMPDEST SWAP1 POP PUSH1 0x0 DUP2 GT PUSH2 0x6E6 JUMPI PUSH1 0x2 PUSH1 0x1 SLOAD PUSH2 0x6B6 SWAP2 SWAP1 PUSH2 0xAA1 JUMP JUMPDEST PUSH1 0x1 DUP2 SWAP1 SSTORE POP PUSH1 0x2 DUP1 SLOAD PUSH2 0x6CA SWAP2 SWAP1 PUSH2 0xAA1 JUMP JUMPDEST PUSH1 0x2 DUP2 SWAP1 SSTORE POP PUSH1 0x2 PUSH1 0x3 SLOAD PUSH2 0x6DF SWAP2 SWAP1 PUSH2 0xAA1 JUMP JUMPDEST PUSH1 0x3 DUP2 SWAP1 SSTORE POP JUMPDEST POP POP JUMP JUMPDEST PUSH1 0x0 PUSH1 0x2 SLOAD PUSH1 0x1 SLOAD PUSH2 0x6FC SWAP2 SWAP1 PUSH2 0xB2C JUMP JUMPDEST SWAP1 POP SWAP1 JUMP JUMPDEST PUSH1 0x1 PUSH2 0x3E8 DUP3 PUSH2 0x711 SWAP2 SWAP1 PUSH2 0xAA1 JUMP JUMPDEST PUSH2 0x71B SWAP2 SWAP1 PUSH2 0xAD2 JUMP JUMPDEST PUSH1 0x1 PUSH1 0x0 DUP3 DUP3 SLOAD PUSH2 0x72C SWAP2 SWAP1 PUSH2 0xB2C JUMP JUMPDEST SWAP3 POP POP DUP2 SWAP1 SSTORE POP PUSH1 0x1 PUSH2 0x3E8 DUP3 PUSH2 0x743 SWAP2 SWAP1 PUSH2 0xAA1 JUMP JUMPDEST PUSH2 0x74D SWAP2 SWAP1 PUSH2 0xAD2 JUMP JUMPDEST PUSH1 0x2 PUSH1 0x0 DUP3 DUP3 SLOAD PUSH2 0x75E SWAP2 SWAP1 PUSH2 0xB2C JUMP JUMPDEST SWAP3 POP POP DUP2 SWAP1 SSTORE POP PUSH1 0x1 PUSH2 0x3E8 DUP3 PUSH2 0x775 SWAP2 SWAP1 PUSH2 0xAA1 JUMP JUMPDEST PUSH2 0x77F SWAP2 SWAP1 PUSH2 0xAD2 JUMP JUMPDEST PUSH1 0x3 PUSH1 0x0 DUP3 DUP3 SLOAD PUSH2 0x790 SWAP2 SWAP1 PUSH2 0xA4B JUMP JUMPDEST SWAP3 POP POP DUP2 SWAP1 SSTORE POP POP JUMP JUMPDEST PUSH1 0x0 DUP2 CALLDATALOAD SWAP1 POP PUSH2 0x7A9 DUP2 PUSH2 0xD10 JUMP JUMPDEST SWAP3 SWAP2 POP POP JUMP JUMPDEST PUSH1 0x0 DUP2 CALLDATALOAD SWAP1 POP PUSH2 0x7BE DUP2 PUSH2 0xD27 JUMP JUMPDEST SWAP3 SWAP2 POP POP JUMP JUMPDEST PUSH1 0x0 PUSH1 0x20 DUP3 DUP5 SUB SLT ISZERO PUSH2 0x7DA JUMPI PUSH2 0x7D9 PUSH2 0xC2D JUMP JUMPDEST JUMPDEST PUSH1 0x0 PUSH2 0x7E8 DUP5 DUP3 DUP6 ADD PUSH2 0x79A JUMP JUMPDEST SWAP2 POP POP SWAP3 SWAP2 POP POP JUMP JUMPDEST PUSH1 0x0 DUP1 PUSH1 0x40 DUP4 DUP6 SUB SLT ISZERO PUSH2 0x808 JUMPI PUSH2 0x807 PUSH2 0xC2D JUMP JUMPDEST JUMPDEST PUSH1 0x0 PUSH2 0x816 DUP6 DUP3 DUP7 ADD PUSH2 0x79A JUMP JUMPDEST SWAP3 POP POP PUSH1 0x20 PUSH2 0x827 DUP6 DUP3 DUP7 ADD PUSH2 0x7AF JUMP JUMPDEST SWAP2 POP POP SWAP3 POP SWAP3 SWAP1 POP JUMP JUMPDEST PUSH2 0x83A DUP2 PUSH2 0xB60 JUMP JUMPDEST DUP3 MSTORE POP POP JUMP JUMPDEST PUSH1 0x0 PUSH2 0x84B DUP3 PUSH2 0xA2F JUMP JUMPDEST PUSH2 0x855 DUP2 DUP6 PUSH2 0xA3A JUMP JUMPDEST SWAP4 POP PUSH2 0x865 DUP2 DUP6 PUSH1 0x20 DUP7 ADD PUSH2 0xB9C JUMP JUMPDEST PUSH2 0x86E DUP2 PUSH2 0xC32 JUMP JUMPDEST DUP5 ADD SWAP2 POP POP SWAP3 SWAP2 POP POP JUMP JUMPDEST PUSH1 0x0 PUSH2 0x886 PUSH1 0x1B DUP4 PUSH2 0xA3A JUMP JUMPDEST SWAP2 POP PUSH2 0x891 DUP3 PUSH2 0xC43 JUMP JUMPDEST PUSH1 0x20 DUP3 ADD SWAP1 POP SWAP2 SWAP1 POP JUMP JUMPDEST PUSH1 0x0 PUSH2 0x8A9 PUSH1 0x19 DUP4 PUSH2 0xA3A JUMP JUMPDEST SWAP2 POP PUSH2 0x8B4 DUP3 PUSH2 0xC6C JUMP JUMPDEST PUSH1 0x20 DUP3 ADD SWAP1 POP SWAP2 SWAP1 POP JUMP JUMPDEST PUSH1 0x0 PUSH2 0x8CC PUSH1 0x14 DUP4 PUSH2 0xA3A JUMP JUMPDEST SWAP2 POP PUSH2 0x8D7 DUP3 PUSH2 0xC95 JUMP JUMPDEST PUSH1 0x20 DUP3 ADD SWAP1 POP SWAP2 SWAP1 POP JUMP JUMPDEST PUSH1 0x0 PUSH2 0x8EF PUSH1 0x11 DUP4 PUSH2 0xA3A JUMP JUMPDEST SWAP2 POP PUSH2 0x8FA DUP3 PUSH2 0xCBE JUMP JUMPDEST PUSH1 0x20 DUP3 ADD SWAP1 POP SWAP2 SWAP1 POP JUMP JUMPDEST PUSH1 0x0 PUSH2 0x912 PUSH1 0x1F DUP4 PUSH2 0xA3A JUMP JUMPDEST SWAP2 POP PUSH2 0x91D DUP3 PUSH2 0xCE7 JUMP JUMPDEST PUSH1 0x20 DUP3 ADD SWAP1 POP SWAP2 SWAP1 POP JUMP JUMPDEST PUSH2 0x931 DUP2 PUSH2 0xB92 JUMP JUMPDEST DUP3 MSTORE POP POP JUMP JUMPDEST PUSH1 0x0 PUSH1 0x20 DUP3 ADD SWAP1 POP PUSH2 0x94C PUSH1 0x0 DUP4 ADD DUP5 PUSH2 0x831 JUMP JUMPDEST SWAP3 SWAP2 POP POP JUMP JUMPDEST PUSH1 0x0 PUSH1 0x20 DUP3 ADD SWAP1 POP DUP2 DUP2 SUB PUSH1 0x0 DUP4 ADD MSTORE PUSH2 0x96C DUP2 DUP5 PUSH2 0x840 JUMP JUMPDEST SWAP1 POP SWAP3 SWAP2 POP POP JUMP JUMPDEST PUSH1 0x0 PUSH1 0x20 DUP3 ADD SWAP1 POP DUP2 DUP2 SUB PUSH1 0x0 DUP4 ADD MSTORE PUSH2 0x98D DUP2 PUSH2 0x879 JUMP JUMPDEST SWAP1 POP SWAP2 SWAP1 POP JUMP JUMPDEST PUSH1 0x0 PUSH1 0x20 DUP3 ADD SWAP1 POP DUP2 DUP2 SUB PUSH1 0x0 DUP4 ADD MSTORE PUSH2 0x9AD DUP2 PUSH2 0x89C JUMP JUMPDEST SWAP1 POP SWAP2 SWAP1 POP JUMP JUMPDEST PUSH1 0x0 PUSH1 0x20 DUP3 ADD SWAP1 POP DUP2 DUP2 SUB PUSH1 0x0 DUP4 ADD MSTORE PUSH2 0x9CD DUP2 PUSH2 0x8BF JUMP JUMPDEST SWAP1 POP SWAP2 SWAP1 POP JUMP JUMPDEST PUSH1 0x0 PUSH1 0x20 DUP3 ADD SWAP1 POP DUP2 DUP2 SUB PUSH1 0x0 DUP4 ADD MSTORE PUSH2 0x9ED DUP2 PUSH2 0x8E2 JUMP JUMPDEST SWAP1 POP SWAP2 SWAP1 POP JUMP JUMPDEST PUSH1 0x0 PUSH1 0x20 DUP3 ADD SWAP1 POP DUP2 DUP2 SUB PUSH1 0x0 DUP4 ADD MSTORE PUSH2 0xA0D DUP2 PUSH2 0x905 JUMP JUMPDEST SWAP1 POP SWAP2 SWAP1 POP JUMP JUMPDEST PUSH1 0x0 PUSH1 0x20 DUP3 ADD SWAP1 POP PUSH2 0xA29 PUSH1 0x0 DUP4 ADD DUP5 PUSH2 0x928 JUMP JUMPDEST SWAP3 SWAP2 POP POP JUMP JUMPDEST PUSH1 0x0 DUP2 MLOAD SWAP1 POP SWAP2 SWAP1 POP JUMP JUMPDEST PUSH1 0x0 DUP3 DUP3 MSTORE PUSH1 0x20 DUP3 ADD SWAP1 POP SWAP3 SWAP2 POP POP JUMP JUMPDEST PUSH1 0x0 PUSH2 0xA56 DUP3 PUSH2 0xB92 JUMP JUMPDEST SWAP2 POP PUSH2 0xA61 DUP4 PUSH2 0xB92 JUMP JUMPDEST SWAP3 POP DUP3 PUSH32 0xFFFFFFFFFFFFFFFFFFFFFFFFFFFFFFFFFFFFFFFFFFFFFFFFFFFFFFFFFFFFFFFF SUB DUP3 GT ISZERO PUSH2 0xA96 JUMPI PUSH2 0xA95 PUSH2 0xBCF JUMP JUMPDEST JUMPDEST DUP3 DUP3 ADD SWAP1 POP SWAP3 SWAP2 POP POP JUMP JUMPDEST PUSH1 0x0 PUSH2 0xAAC DUP3 PUSH2 0xB92 JUMP JUMPDEST SWAP2 POP PUSH2 0xAB7 DUP4 PUSH2 0xB92 JUMP JUMPDEST SWAP3 POP DUP3 PUSH2 0xAC7 JUMPI PUSH2 0xAC6 PUSH2 0xBFE JUMP JUMPDEST JUMPDEST DUP3 DUP3 DIV SWAP1 POP SWAP3 SWAP2 POP POP JUMP JUMPDEST PUSH1 0x0 PUSH2 0xADD DUP3 PUSH2 0xB92 JUMP JUMPDEST SWAP2 POP PUSH2 0xAE8 DUP4 PUSH2 0xB92 JUMP JUMPDEST SWAP3 POP DUP2 PUSH32 0xFFFFFFFFFFFFFFFFFFFFFFFFFFFFFFFFFFFFFFFFFFFFFFFFFFFFFFFFFFFFFFFF DIV DUP4 GT DUP3 ISZERO ISZERO AND ISZERO PUSH2 0xB21 JUMPI PUSH2 0xB20 PUSH2 0xBCF JUMP JUMPDEST JUMPDEST DUP3 DUP3 MUL SWAP1 POP SWAP3 SWAP2 POP POP JUMP JUMPDEST PUSH1 0x0 PUSH2 0xB37 DUP3 PUSH2 0xB92 JUMP JUMPDEST SWAP2 POP PUSH2 0xB42 DUP4 PUSH2 0xB92 JUMP JUMPDEST SWAP3 POP DUP3 DUP3 LT ISZERO PUSH2 0xB55 JUMPI PUSH2 0xB54 PUSH2 0xBCF JUMP JUMPDEST JUMPDEST DUP3 DUP3 SUB SWAP1 POP SWAP3 SWAP2 POP POP JUMP JUMPDEST PUSH1 0x0 PUSH2 0xB6B DUP3 PUSH2 0xB72 JUMP JUMPDEST SWAP1 POP SWAP2 SWAP1 POP JUMP JUMPDEST PUSH1 0x0 PUSH20 0xFFFFFFFFFFFFFFFFFFFFFFFFFFFFFFFFFFFFFFFF DUP3 AND SWAP1 POP SWAP2 SWAP1 POP JUMP JUMPDEST PUSH1 0x0 DUP2 SWAP1 POP SWAP2 SWAP1 POP JUMP JUMPDEST PUSH1 0x0 JUMPDEST DUP4 DUP2 LT ISZERO PUSH2 0xBBA JUMPI DUP1 DUP3 ADD MLOAD DUP2 DUP5 ADD MSTORE PUSH1 0x20 DUP2 ADD SWAP1 POP PUSH2 0xB9F JUMP JUMPDEST DUP4 DUP2 GT ISZERO PUSH2 0xBC9 JUMPI PUSH1 0x0 DUP5 DUP5 ADD MSTORE JUMPDEST POP POP POP POP JUMP JUMPDEST PUSH32 0x4E487B7100000000000000000000000000000000000000000000000000000000 PUSH1 0x0 MSTORE PUSH1 0x11 PUSH1 0x4 MSTORE PUSH1 0x24 PUSH1 0x0 REVERT JUMPDEST PUSH32 0x4E487B7100000000000000000000000000000000000000000000000000000000 PUSH1 0x0 MSTORE PUSH1 0x12 PUSH1 0x4 MSTORE PUSH1 0x24 PUSH1 0x0 REVERT JUMPDEST PUSH1 0x0 DUP1 REVERT JUMPDEST PUSH1 0x0 PUSH1 0x1F NOT PUSH1 0x1F DUP4 ADD AND SWAP1 POP SWAP2 SWAP1 POP JUMP JUMPDEST PUSH32 0x4E6F206D696E7420746F20746865207A65726F20616464726573730000000000 PUSH1 0x0 DUP3 ADD MSTORE POP JUMP JUMPDEST PUSH32 0x416C6C20746F6B656E7320616C7265616479206D696E74656400000000000000 PUSH1 0x0 DUP3 ADD MSTORE POP JUMP JUMPDEST PUSH32 0x596F75277265206E6F7420746865206F776E6572000000000000000000000000 PUSH1 0x0 DUP3 ADD MSTORE POP JUMP JUMPDEST PUSH32 0x4E6F7420656E6F75676820746F6B656E73000000000000000000000000000000 PUSH1 0x0 DUP3 ADD MSTORE POP JUMP JUMPDEST PUSH32 0x45524332303A206D696E7420746F20746865207A65726F206164647265737300 PUSH1 0x0 DUP3 ADD MSTORE POP JUMP JUMPDEST PUSH2 0xD19 DUP2 PUSH2 0xB60 JUMP JUMPDEST DUP2 EQ PUSH2 0xD24 JUMPI PUSH1 0x0 DUP1 REVERT JUMPDEST POP JUMP JUMPDEST PUSH2 0xD30 DUP2 PUSH2 0xB92 JUMP JUMPDEST DUP2 EQ PUSH2 0xD3B JUMPI PUSH1 0x0 DUP1 REVERT JUMPDEST POP JUMP INVALID LOG2 PUSH5 0x6970667358 0x22 SLT KECCAK256 0xBB 0xEF PUSH25 0xB6775F8192852505FA999091DA6006DD6670D20A3C59A297E9 BALANCE 0xAB 0xBF 0xF PUSH5 0x736F6C6343 STOP ADDMOD SMOD STOP CALLER "
				},
				"gasEstimates": {
					"creation": {
						"codeDepositCost": "688800",
						"executionCost": "infinite",
						"totalCost": "infinite"
					},
					"external": {
						"balances(address)": "2859",
						"burnedTokens()": "2518",
						"currentSupply()": "2429",
						"halfing()": "infinite",
						"mint(address,uint256)": "infinite",
						"name()": "infinite",
						"owner()": "2533",
						"remainingSupply()": "infinite",
						"symbol()": "infinite",
						"totalSupply()": "2452",
						"transfer(address,uint256)": "infinite"
					},
					"internal": {
						"burn(uint256)": "infinite"
					}
				},
				"methodIdentifiers": {
					"balances(address)": "27e235e3",
					"burnedTokens()": "47b5dd54",
					"currentSupply()": "771282f6",
					"halfing()": "a92429fc",
					"mint(address,uint256)": "40c10f19",
					"name()": "06fdde03",
					"owner()": "8da5cb5b",
					"remainingSupply()": "da0239a6",
					"symbol()": "95d89b41",
					"totalSupply()": "18160ddd",
					"transfer(address,uint256)": "a9059cbb"
				}
			},
			"storageLayout": {
				"storage": [
					{
						"astId": 875,
						"contract": "udemy solidity course - complete DApp/Build a Basic Token/ps-token.sol:basicToken",
						"label": "owner",
						"offset": 0,
						"slot": "0",
						"type": "t_address"
					},
					{
						"astId": 877,
						"contract": "udemy solidity course - complete DApp/Build a Basic Token/ps-token.sol:basicToken",
						"label": "totalSupply",
						"offset": 0,
						"slot": "1",
						"type": "t_uint256"
					},
					{
						"astId": 879,
						"contract": "udemy solidity course - complete DApp/Build a Basic Token/ps-token.sol:basicToken",
						"label": "currentSupply",
						"offset": 0,
						"slot": "2",
						"type": "t_uint256"
					},
					{
						"astId": 881,
						"contract": "udemy solidity course - complete DApp/Build a Basic Token/ps-token.sol:basicToken",
						"label": "burnedTokens",
						"offset": 0,
						"slot": "3",
						"type": "t_uint256"
					},
					{
						"astId": 894,
						"contract": "udemy solidity course - complete DApp/Build a Basic Token/ps-token.sol:basicToken",
						"label": "balances",
						"offset": 0,
						"slot": "4",
						"type": "t_mapping(t_address,t_uint256)"
					}
				],
				"types": {
					"t_address": {
						"encoding": "inplace",
						"label": "address",
						"numberOfBytes": "20"
					},
					"t_mapping(t_address,t_uint256)": {
						"encoding": "mapping",
						"key": "t_address",
						"label": "mapping(address => uint256)",
						"numberOfBytes": "32",
						"value": "t_uint256"
					},
					"t_uint256": {
						"encoding": "inplace",
						"label": "uint256",
						"numberOfBytes": "32"
					}
				}
			},
			"userdoc": {
				"kind": "user",
				"methods": {},
				"version": 1
			}
		}
	}
}