{
	"FreeCodeCamp/FundMe/FundMe.sol": {
		"FundMe": {
			"abi": [
				{
					"inputs": [],
					"name": "fund",
					"outputs": [],
					"stateMutability": "payable",
					"type": "function"
				},
				{
					"inputs": [
						{
							"internalType": "address",
							"name": "",
							"type": "address"
						}
					],
					"name": "fundsAmountOfAddress",
					"outputs": [
						{
							"internalType": "uint256",
							"name": "",
							"type": "uint256"
						}
					],
					"stateMutability": "view",
					"type": "function"
				},
				{
					"inputs": [],
					"name": "getConversionRate",
					"outputs": [],
					"stateMutability": "nonpayable",
					"type": "function"
				},
				{
					"inputs": [],
					"name": "getPrice",
					"outputs": [
						{
							"internalType": "int256",
							"name": "",
							"type": "int256"
						}
					],
					"stateMutability": "view",
					"type": "function"
				},
				{
					"inputs": [],
					"name": "minimumUsd",
					"outputs": [
						{
							"internalType": "uint256",
							"name": "",
							"type": "uint256"
						}
					],
					"stateMutability": "view",
					"type": "function"
				}
			],
			"devdoc": {
				"kind": "dev",
				"methods": {},
				"version": 1
			},
			"evm": {
				"assembly": "    /* \"FreeCodeCamp/FundMe/FundMe.sol\":213:2389  contract FundMe {... */\n  mstore(0x40, 0x80)\n    /* \"FreeCodeCamp/FundMe/FundMe.sol\":264:266  50 */\n  0x32\n    /* \"FreeCodeCamp/FundMe/FundMe.sol\":236:266  uint256 public minimumUsd = 50 */\n  0x00\n  sstore\n    /* \"FreeCodeCamp/FundMe/FundMe.sol\":213:2389  contract FundMe {... */\n  callvalue\n  dup1\n  iszero\n  tag_1\n  jumpi\n  0x00\n  dup1\n  revert\ntag_1:\n  pop\n  dataSize(sub_0)\n  dup1\n  dataOffset(sub_0)\n  0x00\n  codecopy\n  0x00\n  return\nstop\n\nsub_0: assembly {\n        /* \"FreeCodeCamp/FundMe/FundMe.sol\":213:2389  contract FundMe {... */\n      mstore(0x40, 0x80)\n      jumpi(tag_1, lt(calldatasize, 0x04))\n      shr(0xe0, calldataload(0x00))\n      dup1\n      0x098de820\n      eq\n      tag_2\n      jumpi\n      dup1\n      0x98d5fdca\n      eq\n      tag_3\n      jumpi\n      dup1\n      0xa712b310\n      eq\n      tag_4\n      jumpi\n      dup1\n      0xb60d4288\n      eq\n      tag_5\n      jumpi\n      dup1\n      0xf36089ec\n      eq\n      tag_6\n      jumpi\n    tag_1:\n      0x00\n      dup1\n      revert\n        /* \"FreeCodeCamp/FundMe/FundMe.sol\":236:266  uint256 public minimumUsd = 50 */\n    tag_2:\n      callvalue\n      dup1\n      iszero\n      tag_7\n      jumpi\n      0x00\n      dup1\n      revert\n    tag_7:\n      pop\n      tag_8\n      tag_9\n      jump\t// in\n    tag_8:\n      mload(0x40)\n      tag_10\n      swap2\n      swap1\n      tag_11\n      jump\t// in\n    tag_10:\n      mload(0x40)\n      dup1\n      swap2\n      sub\n      swap1\n      return\n        /* \"FreeCodeCamp/FundMe/FundMe.sol\":1368:1863  function getPrice() public view returns(int) {... */\n    tag_3:\n      callvalue\n      dup1\n      iszero\n      tag_12\n      jumpi\n      0x00\n      dup1\n      revert\n    tag_12:\n      pop\n      tag_13\n      tag_14\n      jump\t// in\n    tag_13:\n      mload(0x40)\n      tag_15\n      swap2\n      swap1\n      tag_16\n      jump\t// in\n    tag_15:\n      mload(0x40)\n      dup1\n      swap2\n      sub\n      swap1\n      return\n        /* \"FreeCodeCamp/FundMe/FundMe.sol\":693:745  mapping(address => uint) public fundsAmountOfAddress */\n    tag_4:\n      callvalue\n      dup1\n      iszero\n      tag_17\n      jumpi\n      0x00\n      dup1\n      revert\n    tag_17:\n      pop\n      tag_18\n      0x04\n      dup1\n      calldatasize\n      sub\n      dup2\n      add\n      swap1\n      tag_19\n      swap2\n      swap1\n      tag_20\n      jump\t// in\n    tag_19:\n      tag_21\n      jump\t// in\n    tag_18:\n      mload(0x40)\n      tag_22\n      swap2\n      swap1\n      tag_11\n      jump\t// in\n    tag_22:\n      mload(0x40)\n      dup1\n      swap2\n      sub\n      swap1\n      return\n        /* \"FreeCodeCamp/FundMe/FundMe.sol\":945:1362  function fund() public payable {... */\n    tag_5:\n      tag_23\n      tag_24\n      jump\t// in\n    tag_23:\n      stop\n        /* \"FreeCodeCamp/FundMe/FundMe.sol\":1869:1907  function getConversionRate() public {} */\n    tag_6:\n      callvalue\n      dup1\n      iszero\n      tag_25\n      jumpi\n      0x00\n      dup1\n      revert\n    tag_25:\n      pop\n      tag_26\n      tag_27\n      jump\t// in\n    tag_26:\n      stop\n        /* \"FreeCodeCamp/FundMe/FundMe.sol\":236:266  uint256 public minimumUsd = 50 */\n    tag_9:\n      sload(0x00)\n      dup2\n      jump\t// out\n        /* \"FreeCodeCamp/FundMe/FundMe.sol\":1368:1863  function getPrice() public view returns(int) {... */\n    tag_14:\n        /* \"FreeCodeCamp/FundMe/FundMe.sol\":1408:1411  int */\n      0x00\n        /* \"FreeCodeCamp/FundMe/FundMe.sol\":1439:1470  AggregatorV3Interface priceFeed */\n      dup1\n        /* \"FreeCodeCamp/FundMe/FundMe.sol\":1495:1537  0xD4a33860578De61DBAbDc8BFdb98FD742fA7028e */\n      0xd4a33860578de61dbabdc8bfdb98fd742fa7028e\n        /* \"FreeCodeCamp/FundMe/FundMe.sol\":1439:1538  AggregatorV3Interface priceFeed = AggregatorV3Interface(0xD4a33860578De61DBAbDc8BFdb98FD742fA7028e) */\n      swap1\n      pop\n        /* \"FreeCodeCamp/FundMe/FundMe.sol\":1680:1689  int price */\n      0x00\n        /* \"FreeCodeCamp/FundMe/FundMe.sol\":1806:1815  priceFeed */\n      dup2\n        /* \"FreeCodeCamp/FundMe/FundMe.sol\":1806:1831  priceFeed.latestRoundData */\n      0xffffffffffffffffffffffffffffffffffffffff\n      and\n      0xfeaf968c\n        /* \"FreeCodeCamp/FundMe/FundMe.sol\":1806:1833  priceFeed.latestRoundData() */\n      mload(0x40)\n      dup2\n      0xffffffff\n      and\n      0xe0\n      shl\n      dup2\n      mstore\n      0x04\n      add\n      0xa0\n      mload(0x40)\n      dup1\n      dup4\n      sub\n      dup2\n      dup7\n      gas\n      staticcall\n      iszero\n      dup1\n      iszero\n      tag_30\n      jumpi\n      returndatasize\n      0x00\n      dup1\n      returndatacopy\n      revert(0x00, returndatasize)\n    tag_30:\n      pop\n      pop\n      pop\n      pop\n      mload(0x40)\n      returndatasize\n      not(0x1f)\n      0x1f\n      dup3\n      add\n      and\n      dup3\n      add\n      dup1\n      0x40\n      mstore\n      pop\n      dup2\n      add\n      swap1\n      tag_31\n      swap2\n      swap1\n      tag_32\n      jump\t// in\n    tag_31:\n        /* \"FreeCodeCamp/FundMe/FundMe.sol\":1632:1833  (... */\n      pop\n      pop\n      pop\n      swap2\n      pop\n      pop\n        /* \"FreeCodeCamp/FundMe/FundMe.sol\":1851:1856  price */\n      dup1\n        /* \"FreeCodeCamp/FundMe/FundMe.sol\":1844:1856  return price */\n      swap3\n      pop\n      pop\n      pop\n        /* \"FreeCodeCamp/FundMe/FundMe.sol\":1368:1863  function getPrice() public view returns(int) {... */\n      swap1\n      jump\t// out\n        /* \"FreeCodeCamp/FundMe/FundMe.sol\":693:745  mapping(address => uint) public fundsAmountOfAddress */\n    tag_21:\n      mstore(0x20, 0x01)\n      dup1\n      0x00\n      mstore\n      keccak256(0x00, 0x40)\n      0x00\n      swap2\n      pop\n      swap1\n      pop\n      sload\n      dup2\n      jump\t// out\n        /* \"FreeCodeCamp/FundMe/FundMe.sol\":945:1362  function fund() public payable {... */\n    tag_24:\n        /* \"FreeCodeCamp/FundMe/FundMe.sol\":1115:1125  minimumUsd */\n      sload(0x00)\n        /* \"FreeCodeCamp/FundMe/FundMe.sol\":1102:1111  msg.value */\n      callvalue\n        /* \"FreeCodeCamp/FundMe/FundMe.sol\":1102:1125  msg.value >= minimumUsd */\n      lt\n      iszero\n        /* \"FreeCodeCamp/FundMe/FundMe.sol\":1094:1149  require(msg.value >= minimumUsd, \"Didn't send enough!\") */\n      tag_34\n      jumpi\n      mload(0x40)\n      0x08c379a000000000000000000000000000000000000000000000000000000000\n      dup2\n      mstore\n      0x04\n      add\n      tag_35\n      swap1\n      tag_36\n      jump\t// in\n    tag_35:\n      mload(0x40)\n      dup1\n      swap2\n      sub\n      swap1\n      revert\n    tag_34:\n        /* \"FreeCodeCamp/FundMe/FundMe.sol\":945:1362  function fund() public payable {... */\n      jump\t// out\n        /* \"FreeCodeCamp/FundMe/FundMe.sol\":1869:1907  function getConversionRate() public {} */\n    tag_27:\n      jump\t// out\n        /* \"#utility.yul\":7:84   */\n    tag_38:\n        /* \"#utility.yul\":44:51   */\n      0x00\n        /* \"#utility.yul\":73:78   */\n      dup2\n        /* \"#utility.yul\":62:78   */\n      swap1\n      pop\n        /* \"#utility.yul\":7:84   */\n      swap2\n      swap1\n      pop\n      jump\t// out\n        /* \"#utility.yul\":90:208   */\n    tag_39:\n        /* \"#utility.yul\":177:201   */\n      tag_62\n        /* \"#utility.yul\":195:200   */\n      dup2\n        /* \"#utility.yul\":177:201   */\n      tag_38\n      jump\t// in\n    tag_62:\n        /* \"#utility.yul\":172:175   */\n      dup3\n        /* \"#utility.yul\":165:202   */\n      mstore\n        /* \"#utility.yul\":90:208   */\n      pop\n      pop\n      jump\t// out\n        /* \"#utility.yul\":214:436   */\n    tag_11:\n        /* \"#utility.yul\":307:311   */\n      0x00\n        /* \"#utility.yul\":345:347   */\n      0x20\n        /* \"#utility.yul\":334:343   */\n      dup3\n        /* \"#utility.yul\":330:348   */\n      add\n        /* \"#utility.yul\":322:348   */\n      swap1\n      pop\n        /* \"#utility.yul\":358:429   */\n      tag_64\n        /* \"#utility.yul\":426:427   */\n      0x00\n        /* \"#utility.yul\":415:424   */\n      dup4\n        /* \"#utility.yul\":411:428   */\n      add\n        /* \"#utility.yul\":402:408   */\n      dup5\n        /* \"#utility.yul\":358:429   */\n      tag_39\n      jump\t// in\n    tag_64:\n        /* \"#utility.yul\":214:436   */\n      swap3\n      swap2\n      pop\n      pop\n      jump\t// out\n        /* \"#utility.yul\":442:518   */\n    tag_40:\n        /* \"#utility.yul\":478:485   */\n      0x00\n        /* \"#utility.yul\":507:512   */\n      dup2\n        /* \"#utility.yul\":496:512   */\n      swap1\n      pop\n        /* \"#utility.yul\":442:518   */\n      swap2\n      swap1\n      pop\n      jump\t// out\n        /* \"#utility.yul\":524:639   */\n    tag_41:\n        /* \"#utility.yul\":609:632   */\n      tag_67\n        /* \"#utility.yul\":626:631   */\n      dup2\n        /* \"#utility.yul\":609:632   */\n      tag_40\n      jump\t// in\n    tag_67:\n        /* \"#utility.yul\":604:607   */\n      dup3\n        /* \"#utility.yul\":597:633   */\n      mstore\n        /* \"#utility.yul\":524:639   */\n      pop\n      pop\n      jump\t// out\n        /* \"#utility.yul\":645:863   */\n    tag_16:\n        /* \"#utility.yul\":736:740   */\n      0x00\n        /* \"#utility.yul\":774:776   */\n      0x20\n        /* \"#utility.yul\":763:772   */\n      dup3\n        /* \"#utility.yul\":759:777   */\n      add\n        /* \"#utility.yul\":751:777   */\n      swap1\n      pop\n        /* \"#utility.yul\":787:856   */\n      tag_69\n        /* \"#utility.yul\":853:854   */\n      0x00\n        /* \"#utility.yul\":842:851   */\n      dup4\n        /* \"#utility.yul\":838:855   */\n      add\n        /* \"#utility.yul\":829:835   */\n      dup5\n        /* \"#utility.yul\":787:856   */\n      tag_41\n      jump\t// in\n    tag_69:\n        /* \"#utility.yul\":645:863   */\n      swap3\n      swap2\n      pop\n      pop\n      jump\t// out\n        /* \"#utility.yul\":950:1067   */\n    tag_43:\n        /* \"#utility.yul\":1059:1060   */\n      0x00\n        /* \"#utility.yul\":1056:1057   */\n      dup1\n        /* \"#utility.yul\":1049:1061   */\n      revert\n        /* \"#utility.yul\":1196:1322   */\n    tag_45:\n        /* \"#utility.yul\":1233:1240   */\n      0x00\n        /* \"#utility.yul\":1273:1315   */\n      0xffffffffffffffffffffffffffffffffffffffff\n        /* \"#utility.yul\":1266:1271   */\n      dup3\n        /* \"#utility.yul\":1262:1316   */\n      and\n        /* \"#utility.yul\":1251:1316   */\n      swap1\n      pop\n        /* \"#utility.yul\":1196:1322   */\n      swap2\n      swap1\n      pop\n      jump\t// out\n        /* \"#utility.yul\":1328:1424   */\n    tag_46:\n        /* \"#utility.yul\":1365:1372   */\n      0x00\n        /* \"#utility.yul\":1394:1418   */\n      tag_75\n        /* \"#utility.yul\":1412:1417   */\n      dup3\n        /* \"#utility.yul\":1394:1418   */\n      tag_45\n      jump\t// in\n    tag_75:\n        /* \"#utility.yul\":1383:1418   */\n      swap1\n      pop\n        /* \"#utility.yul\":1328:1424   */\n      swap2\n      swap1\n      pop\n      jump\t// out\n        /* \"#utility.yul\":1430:1552   */\n    tag_47:\n        /* \"#utility.yul\":1503:1527   */\n      tag_77\n        /* \"#utility.yul\":1521:1526   */\n      dup2\n        /* \"#utility.yul\":1503:1527   */\n      tag_46\n      jump\t// in\n    tag_77:\n        /* \"#utility.yul\":1496:1501   */\n      dup2\n        /* \"#utility.yul\":1493:1528   */\n      eq\n        /* \"#utility.yul\":1483:1546   */\n      tag_78\n      jumpi\n        /* \"#utility.yul\":1542:1543   */\n      0x00\n        /* \"#utility.yul\":1539:1540   */\n      dup1\n        /* \"#utility.yul\":1532:1544   */\n      revert\n        /* \"#utility.yul\":1483:1546   */\n    tag_78:\n        /* \"#utility.yul\":1430:1552   */\n      pop\n      jump\t// out\n        /* \"#utility.yul\":1558:1697   */\n    tag_48:\n        /* \"#utility.yul\":1604:1609   */\n      0x00\n        /* \"#utility.yul\":1642:1648   */\n      dup2\n        /* \"#utility.yul\":1629:1649   */\n      calldataload\n        /* \"#utility.yul\":1620:1649   */\n      swap1\n      pop\n        /* \"#utility.yul\":1658:1691   */\n      tag_80\n        /* \"#utility.yul\":1685:1690   */\n      dup2\n        /* \"#utility.yul\":1658:1691   */\n      tag_47\n      jump\t// in\n    tag_80:\n        /* \"#utility.yul\":1558:1697   */\n      swap3\n      swap2\n      pop\n      pop\n      jump\t// out\n        /* \"#utility.yul\":1703:2032   */\n    tag_20:\n        /* \"#utility.yul\":1762:1768   */\n      0x00\n        /* \"#utility.yul\":1811:1813   */\n      0x20\n        /* \"#utility.yul\":1799:1808   */\n      dup3\n        /* \"#utility.yul\":1790:1797   */\n      dup5\n        /* \"#utility.yul\":1786:1809   */\n      sub\n        /* \"#utility.yul\":1782:1814   */\n      slt\n        /* \"#utility.yul\":1779:1898   */\n      iszero\n      tag_82\n      jumpi\n        /* \"#utility.yul\":1817:1896   */\n      tag_83\n      tag_43\n      jump\t// in\n    tag_83:\n        /* \"#utility.yul\":1779:1898   */\n    tag_82:\n        /* \"#utility.yul\":1937:1938   */\n      0x00\n        /* \"#utility.yul\":1962:2015   */\n      tag_84\n        /* \"#utility.yul\":2007:2014   */\n      dup5\n        /* \"#utility.yul\":1998:2004   */\n      dup3\n        /* \"#utility.yul\":1987:1996   */\n      dup6\n        /* \"#utility.yul\":1983:2005   */\n      add\n        /* \"#utility.yul\":1962:2015   */\n      tag_48\n      jump\t// in\n    tag_84:\n        /* \"#utility.yul\":1952:2015   */\n      swap2\n      pop\n        /* \"#utility.yul\":1908:2025   */\n      pop\n        /* \"#utility.yul\":1703:2032   */\n      swap3\n      swap2\n      pop\n      pop\n      jump\t// out\n        /* \"#utility.yul\":2038:2143   */\n    tag_49:\n        /* \"#utility.yul\":2074:2081   */\n      0x00\n        /* \"#utility.yul\":2114:2136   */\n      0xffffffffffffffffffff\n        /* \"#utility.yul\":2107:2112   */\n      dup3\n        /* \"#utility.yul\":2103:2137   */\n      and\n        /* \"#utility.yul\":2092:2137   */\n      swap1\n      pop\n        /* \"#utility.yul\":2038:2143   */\n      swap2\n      swap1\n      pop\n      jump\t// out\n        /* \"#utility.yul\":2149:2269   */\n    tag_50:\n        /* \"#utility.yul\":2221:2244   */\n      tag_87\n        /* \"#utility.yul\":2238:2243   */\n      dup2\n        /* \"#utility.yul\":2221:2244   */\n      tag_49\n      jump\t// in\n    tag_87:\n        /* \"#utility.yul\":2214:2219   */\n      dup2\n        /* \"#utility.yul\":2211:2245   */\n      eq\n        /* \"#utility.yul\":2201:2263   */\n      tag_88\n      jumpi\n        /* \"#utility.yul\":2259:2260   */\n      0x00\n        /* \"#utility.yul\":2256:2257   */\n      dup1\n        /* \"#utility.yul\":2249:2261   */\n      revert\n        /* \"#utility.yul\":2201:2263   */\n    tag_88:\n        /* \"#utility.yul\":2149:2269   */\n      pop\n      jump\t// out\n        /* \"#utility.yul\":2275:2416   */\n    tag_51:\n        /* \"#utility.yul\":2331:2336   */\n      0x00\n        /* \"#utility.yul\":2362:2368   */\n      dup2\n        /* \"#utility.yul\":2356:2369   */\n      mload\n        /* \"#utility.yul\":2347:2369   */\n      swap1\n      pop\n        /* \"#utility.yul\":2378:2410   */\n      tag_90\n        /* \"#utility.yul\":2404:2409   */\n      dup2\n        /* \"#utility.yul\":2378:2410   */\n      tag_50\n      jump\t// in\n    tag_90:\n        /* \"#utility.yul\":2275:2416   */\n      swap3\n      swap2\n      pop\n      pop\n      jump\t// out\n        /* \"#utility.yul\":2422:2542   */\n    tag_52:\n        /* \"#utility.yul\":2494:2517   */\n      tag_92\n        /* \"#utility.yul\":2511:2516   */\n      dup2\n        /* \"#utility.yul\":2494:2517   */\n      tag_40\n      jump\t// in\n    tag_92:\n        /* \"#utility.yul\":2487:2492   */\n      dup2\n        /* \"#utility.yul\":2484:2518   */\n      eq\n        /* \"#utility.yul\":2474:2536   */\n      tag_93\n      jumpi\n        /* \"#utility.yul\":2532:2533   */\n      0x00\n        /* \"#utility.yul\":2529:2530   */\n      dup1\n        /* \"#utility.yul\":2522:2534   */\n      revert\n        /* \"#utility.yul\":2474:2536   */\n    tag_93:\n        /* \"#utility.yul\":2422:2542   */\n      pop\n      jump\t// out\n        /* \"#utility.yul\":2548:2689   */\n    tag_53:\n        /* \"#utility.yul\":2604:2609   */\n      0x00\n        /* \"#utility.yul\":2635:2641   */\n      dup2\n        /* \"#utility.yul\":2629:2642   */\n      mload\n        /* \"#utility.yul\":2620:2642   */\n      swap1\n      pop\n        /* \"#utility.yul\":2651:2683   */\n      tag_95\n        /* \"#utility.yul\":2677:2682   */\n      dup2\n        /* \"#utility.yul\":2651:2683   */\n      tag_52\n      jump\t// in\n    tag_95:\n        /* \"#utility.yul\":2548:2689   */\n      swap3\n      swap2\n      pop\n      pop\n      jump\t// out\n        /* \"#utility.yul\":2695:2817   */\n    tag_54:\n        /* \"#utility.yul\":2768:2792   */\n      tag_97\n        /* \"#utility.yul\":2786:2791   */\n      dup2\n        /* \"#utility.yul\":2768:2792   */\n      tag_38\n      jump\t// in\n    tag_97:\n        /* \"#utility.yul\":2761:2766   */\n      dup2\n        /* \"#utility.yul\":2758:2793   */\n      eq\n        /* \"#utility.yul\":2748:2811   */\n      tag_98\n      jumpi\n        /* \"#utility.yul\":2807:2808   */\n      0x00\n        /* \"#utility.yul\":2804:2805   */\n      dup1\n        /* \"#utility.yul\":2797:2809   */\n      revert\n        /* \"#utility.yul\":2748:2811   */\n    tag_98:\n        /* \"#utility.yul\":2695:2817   */\n      pop\n      jump\t// out\n        /* \"#utility.yul\":2823:2966   */\n    tag_55:\n        /* \"#utility.yul\":2880:2885   */\n      0x00\n        /* \"#utility.yul\":2911:2917   */\n      dup2\n        /* \"#utility.yul\":2905:2918   */\n      mload\n        /* \"#utility.yul\":2896:2918   */\n      swap1\n      pop\n        /* \"#utility.yul\":2927:2960   */\n      tag_100\n        /* \"#utility.yul\":2954:2959   */\n      dup2\n        /* \"#utility.yul\":2927:2960   */\n      tag_54\n      jump\t// in\n    tag_100:\n        /* \"#utility.yul\":2823:2966   */\n      swap3\n      swap2\n      pop\n      pop\n      jump\t// out\n        /* \"#utility.yul\":2972:3943   */\n    tag_32:\n        /* \"#utility.yul\":3075:3081   */\n      0x00\n        /* \"#utility.yul\":3083:3089   */\n      dup1\n        /* \"#utility.yul\":3091:3097   */\n      0x00\n        /* \"#utility.yul\":3099:3105   */\n      dup1\n        /* \"#utility.yul\":3107:3113   */\n      0x00\n        /* \"#utility.yul\":3156:3159   */\n      0xa0\n        /* \"#utility.yul\":3144:3153   */\n      dup7\n        /* \"#utility.yul\":3135:3142   */\n      dup9\n        /* \"#utility.yul\":3131:3154   */\n      sub\n        /* \"#utility.yul\":3127:3160   */\n      slt\n        /* \"#utility.yul\":3124:3244   */\n      iszero\n      tag_102\n      jumpi\n        /* \"#utility.yul\":3163:3242   */\n      tag_103\n      tag_43\n      jump\t// in\n    tag_103:\n        /* \"#utility.yul\":3124:3244   */\n    tag_102:\n        /* \"#utility.yul\":3283:3284   */\n      0x00\n        /* \"#utility.yul\":3308:3371   */\n      tag_104\n        /* \"#utility.yul\":3363:3370   */\n      dup9\n        /* \"#utility.yul\":3354:3360   */\n      dup3\n        /* \"#utility.yul\":3343:3352   */\n      dup10\n        /* \"#utility.yul\":3339:3361   */\n      add\n        /* \"#utility.yul\":3308:3371   */\n      tag_51\n      jump\t// in\n    tag_104:\n        /* \"#utility.yul\":3298:3371   */\n      swap6\n      pop\n        /* \"#utility.yul\":3254:3381   */\n      pop\n        /* \"#utility.yul\":3420:3422   */\n      0x20\n        /* \"#utility.yul\":3446:3509   */\n      tag_105\n        /* \"#utility.yul\":3501:3508   */\n      dup9\n        /* \"#utility.yul\":3492:3498   */\n      dup3\n        /* \"#utility.yul\":3481:3490   */\n      dup10\n        /* \"#utility.yul\":3477:3499   */\n      add\n        /* \"#utility.yul\":3446:3509   */\n      tag_53\n      jump\t// in\n    tag_105:\n        /* \"#utility.yul\":3436:3509   */\n      swap5\n      pop\n        /* \"#utility.yul\":3391:3519   */\n      pop\n        /* \"#utility.yul\":3558:3560   */\n      0x40\n        /* \"#utility.yul\":3584:3648   */\n      tag_106\n        /* \"#utility.yul\":3640:3647   */\n      dup9\n        /* \"#utility.yul\":3631:3637   */\n      dup3\n        /* \"#utility.yul\":3620:3629   */\n      dup10\n        /* \"#utility.yul\":3616:3638   */\n      add\n        /* \"#utility.yul\":3584:3648   */\n      tag_55\n      jump\t// in\n    tag_106:\n        /* \"#utility.yul\":3574:3648   */\n      swap4\n      pop\n        /* \"#utility.yul\":3529:3658   */\n      pop\n        /* \"#utility.yul\":3697:3699   */\n      0x60\n        /* \"#utility.yul\":3723:3787   */\n      tag_107\n        /* \"#utility.yul\":3779:3786   */\n      dup9\n        /* \"#utility.yul\":3770:3776   */\n      dup3\n        /* \"#utility.yul\":3759:3768   */\n      dup10\n        /* \"#utility.yul\":3755:3777   */\n      add\n        /* \"#utility.yul\":3723:3787   */\n      tag_55\n      jump\t// in\n    tag_107:\n        /* \"#utility.yul\":3713:3787   */\n      swap3\n      pop\n        /* \"#utility.yul\":3668:3797   */\n      pop\n        /* \"#utility.yul\":3836:3839   */\n      0x80\n        /* \"#utility.yul\":3863:3926   */\n      tag_108\n        /* \"#utility.yul\":3918:3925   */\n      dup9\n        /* \"#utility.yul\":3909:3915   */\n      dup3\n        /* \"#utility.yul\":3898:3907   */\n      dup10\n        /* \"#utility.yul\":3894:3916   */\n      add\n        /* \"#utility.yul\":3863:3926   */\n      tag_51\n      jump\t// in\n    tag_108:\n        /* \"#utility.yul\":3853:3926   */\n      swap2\n      pop\n        /* \"#utility.yul\":3807:3936   */\n      pop\n        /* \"#utility.yul\":2972:3943   */\n      swap3\n      swap6\n      pop\n      swap3\n      swap6\n      swap1\n      swap4\n      pop\n      jump\t// out\n        /* \"#utility.yul\":3949:4118   */\n    tag_56:\n        /* \"#utility.yul\":4033:4044   */\n      0x00\n        /* \"#utility.yul\":4067:4073   */\n      dup3\n        /* \"#utility.yul\":4062:4065   */\n      dup3\n        /* \"#utility.yul\":4055:4074   */\n      mstore\n        /* \"#utility.yul\":4107:4111   */\n      0x20\n        /* \"#utility.yul\":4102:4105   */\n      dup3\n        /* \"#utility.yul\":4098:4112   */\n      add\n        /* \"#utility.yul\":4083:4112   */\n      swap1\n      pop\n        /* \"#utility.yul\":3949:4118   */\n      swap3\n      swap2\n      pop\n      pop\n      jump\t// out\n        /* \"#utility.yul\":4124:4293   */\n    tag_57:\n        /* \"#utility.yul\":4264:4285   */\n      0x4469646e27742073656e6420656e6f7567682100000000000000000000000000\n        /* \"#utility.yul\":4260:4261   */\n      0x00\n        /* \"#utility.yul\":4252:4258   */\n      dup3\n        /* \"#utility.yul\":4248:4262   */\n      add\n        /* \"#utility.yul\":4241:4286   */\n      mstore\n        /* \"#utility.yul\":4124:4293   */\n      pop\n      jump\t// out\n        /* \"#utility.yul\":4299:4665   */\n    tag_58:\n        /* \"#utility.yul\":4441:4444   */\n      0x00\n        /* \"#utility.yul\":4462:4529   */\n      tag_112\n        /* \"#utility.yul\":4526:4528   */\n      0x13\n        /* \"#utility.yul\":4521:4524   */\n      dup4\n        /* \"#utility.yul\":4462:4529   */\n      tag_56\n      jump\t// in\n    tag_112:\n        /* \"#utility.yul\":4455:4529   */\n      swap2\n      pop\n        /* \"#utility.yul\":4538:4631   */\n      tag_113\n        /* \"#utility.yul\":4627:4630   */\n      dup3\n        /* \"#utility.yul\":4538:4631   */\n      tag_57\n      jump\t// in\n    tag_113:\n        /* \"#utility.yul\":4656:4658   */\n      0x20\n        /* \"#utility.yul\":4651:4654   */\n      dup3\n        /* \"#utility.yul\":4647:4659   */\n      add\n        /* \"#utility.yul\":4640:4659   */\n      swap1\n      pop\n        /* \"#utility.yul\":4299:4665   */\n      swap2\n      swap1\n      pop\n      jump\t// out\n        /* \"#utility.yul\":4671:5090   */\n    tag_36:\n        /* \"#utility.yul\":4837:4841   */\n      0x00\n        /* \"#utility.yul\":4875:4877   */\n      0x20\n        /* \"#utility.yul\":4864:4873   */\n      dup3\n        /* \"#utility.yul\":4860:4878   */\n      add\n        /* \"#utility.yul\":4852:4878   */\n      swap1\n      pop\n        /* \"#utility.yul\":4924:4933   */\n      dup2\n        /* \"#utility.yul\":4918:4922   */\n      dup2\n        /* \"#utility.yul\":4914:4934   */\n      sub\n        /* \"#utility.yul\":4910:4911   */\n      0x00\n        /* \"#utility.yul\":4899:4908   */\n      dup4\n        /* \"#utility.yul\":4895:4912   */\n      add\n        /* \"#utility.yul\":4888:4935   */\n      mstore\n        /* \"#utility.yul\":4952:5083   */\n      tag_115\n        /* \"#utility.yul\":5078:5082   */\n      dup2\n        /* \"#utility.yul\":4952:5083   */\n      tag_58\n      jump\t// in\n    tag_115:\n        /* \"#utility.yul\":4944:5083   */\n      swap1\n      pop\n        /* \"#utility.yul\":4671:5090   */\n      swap2\n      swap1\n      pop\n      jump\t// out\n\n    auxdata: 0xa264697066735822122004ca7ff491c216cd54ecd1489e6fb3d2d050fd8f619a577975cae1b4af90e60264736f6c634300080d0033\n}\n",
				"bytecode": {
					"linkReferences": {},
					"object": "6080604052603260005534801561001557600080fd5b506104c3806100256000396000f3fe60806040526004361061004a5760003560e01c8063098de8201461004f57806398d5fdca1461007a578063a712b310146100a5578063b60d4288146100e2578063f36089ec146100ec575b600080fd5b34801561005b57600080fd5b50610064610103565b604051610071919061021c565b60405180910390f35b34801561008657600080fd5b5061008f610109565b60405161009c9190610250565b60405180910390f35b3480156100b157600080fd5b506100cc60048036038101906100c791906102ce565b6101a2565b6040516100d9919061021c565b60405180910390f35b6100ea6101ba565b005b3480156100f857600080fd5b50610101610201565b005b60005481565b60008073d4a33860578de61dbabdc8bfdb98fd742fa7028e905060008173ffffffffffffffffffffffffffffffffffffffff1663feaf968c6040518163ffffffff1660e01b815260040160a060405180830381865afa158015610170573d6000803e3d6000fd5b505050506040513d601f19601f820116820180604052508101906101949190610395565b505050915050809250505090565b60016020528060005260406000206000915090505481565b6000543410156101ff576040517f08c379a00000000000000000000000000000000000000000000000000000000081526004016101f69061046d565b60405180910390fd5b565b565b6000819050919050565b61021681610203565b82525050565b6000602082019050610231600083018461020d565b92915050565b6000819050919050565b61024a81610237565b82525050565b60006020820190506102656000830184610241565b92915050565b600080fd5b600073ffffffffffffffffffffffffffffffffffffffff82169050919050565b600061029b82610270565b9050919050565b6102ab81610290565b81146102b657600080fd5b50565b6000813590506102c8816102a2565b92915050565b6000602082840312156102e4576102e361026b565b5b60006102f2848285016102b9565b91505092915050565b600069ffffffffffffffffffff82169050919050565b61031a816102fb565b811461032557600080fd5b50565b60008151905061033781610311565b92915050565b61034681610237565b811461035157600080fd5b50565b6000815190506103638161033d565b92915050565b61037281610203565b811461037d57600080fd5b50565b60008151905061038f81610369565b92915050565b600080600080600060a086880312156103b1576103b061026b565b5b60006103bf88828901610328565b95505060206103d088828901610354565b94505060406103e188828901610380565b93505060606103f288828901610380565b925050608061040388828901610328565b9150509295509295909350565b600082825260208201905092915050565b7f4469646e27742073656e6420656e6f7567682100000000000000000000000000600082015250565b6000610457601383610410565b915061046282610421565b602082019050919050565b600060208201905081810360008301526104868161044a565b905091905056fea264697066735822122004ca7ff491c216cd54ecd1489e6fb3d2d050fd8f619a577975cae1b4af90e60264736f6c634300080d0033",
					"opcodes": "PUSH1 0x80 PUSH1 0x40 MSTORE PUSH1 0x32 PUSH1 0x0 SSTORE CALLVALUE DUP1 ISZERO PUSH2 0x15 JUMPI PUSH1 0x0 DUP1 REVERT JUMPDEST POP PUSH2 0x4C3 DUP1 PUSH2 0x25 PUSH1 0x0 CODECOPY PUSH1 0x0 RETURN INVALID PUSH1 0x80 PUSH1 0x40 MSTORE PUSH1 0x4 CALLDATASIZE LT PUSH2 0x4A JUMPI PUSH1 0x0 CALLDATALOAD PUSH1 0xE0 SHR DUP1 PUSH4 0x98DE820 EQ PUSH2 0x4F JUMPI DUP1 PUSH4 0x98D5FDCA EQ PUSH2 0x7A JUMPI DUP1 PUSH4 0xA712B310 EQ PUSH2 0xA5 JUMPI DUP1 PUSH4 0xB60D4288 EQ PUSH2 0xE2 JUMPI DUP1 PUSH4 0xF36089EC EQ PUSH2 0xEC JUMPI JUMPDEST PUSH1 0x0 DUP1 REVERT JUMPDEST CALLVALUE DUP1 ISZERO PUSH2 0x5B JUMPI PUSH1 0x0 DUP1 REVERT JUMPDEST POP PUSH2 0x64 PUSH2 0x103 JUMP JUMPDEST PUSH1 0x40 MLOAD PUSH2 0x71 SWAP2 SWAP1 PUSH2 0x21C JUMP JUMPDEST PUSH1 0x40 MLOAD DUP1 SWAP2 SUB SWAP1 RETURN JUMPDEST CALLVALUE DUP1 ISZERO PUSH2 0x86 JUMPI PUSH1 0x0 DUP1 REVERT JUMPDEST POP PUSH2 0x8F PUSH2 0x109 JUMP JUMPDEST PUSH1 0x40 MLOAD PUSH2 0x9C SWAP2 SWAP1 PUSH2 0x250 JUMP JUMPDEST PUSH1 0x40 MLOAD DUP1 SWAP2 SUB SWAP1 RETURN JUMPDEST CALLVALUE DUP1 ISZERO PUSH2 0xB1 JUMPI PUSH1 0x0 DUP1 REVERT JUMPDEST POP PUSH2 0xCC PUSH1 0x4 DUP1 CALLDATASIZE SUB DUP2 ADD SWAP1 PUSH2 0xC7 SWAP2 SWAP1 PUSH2 0x2CE JUMP JUMPDEST PUSH2 0x1A2 JUMP JUMPDEST PUSH1 0x40 MLOAD PUSH2 0xD9 SWAP2 SWAP1 PUSH2 0x21C JUMP JUMPDEST PUSH1 0x40 MLOAD DUP1 SWAP2 SUB SWAP1 RETURN JUMPDEST PUSH2 0xEA PUSH2 0x1BA JUMP JUMPDEST STOP JUMPDEST CALLVALUE DUP1 ISZERO PUSH2 0xF8 JUMPI PUSH1 0x0 DUP1 REVERT JUMPDEST POP PUSH2 0x101 PUSH2 0x201 JUMP JUMPDEST STOP JUMPDEST PUSH1 0x0 SLOAD DUP2 JUMP JUMPDEST PUSH1 0x0 DUP1 PUSH20 0xD4A33860578DE61DBABDC8BFDB98FD742FA7028E SWAP1 POP PUSH1 0x0 DUP2 PUSH20 0xFFFFFFFFFFFFFFFFFFFFFFFFFFFFFFFFFFFFFFFF AND PUSH4 0xFEAF968C PUSH1 0x40 MLOAD DUP2 PUSH4 0xFFFFFFFF AND PUSH1 0xE0 SHL DUP2 MSTORE PUSH1 0x4 ADD PUSH1 0xA0 PUSH1 0x40 MLOAD DUP1 DUP4 SUB DUP2 DUP7 GAS STATICCALL ISZERO DUP1 ISZERO PUSH2 0x170 JUMPI RETURNDATASIZE PUSH1 0x0 DUP1 RETURNDATACOPY RETURNDATASIZE PUSH1 0x0 REVERT JUMPDEST POP POP POP POP PUSH1 0x40 MLOAD RETURNDATASIZE PUSH1 0x1F NOT PUSH1 0x1F DUP3 ADD AND DUP3 ADD DUP1 PUSH1 0x40 MSTORE POP DUP2 ADD SWAP1 PUSH2 0x194 SWAP2 SWAP1 PUSH2 0x395 JUMP JUMPDEST POP POP POP SWAP2 POP POP DUP1 SWAP3 POP POP POP SWAP1 JUMP JUMPDEST PUSH1 0x1 PUSH1 0x20 MSTORE DUP1 PUSH1 0x0 MSTORE PUSH1 0x40 PUSH1 0x0 KECCAK256 PUSH1 0x0 SWAP2 POP SWAP1 POP SLOAD DUP2 JUMP JUMPDEST PUSH1 0x0 SLOAD CALLVALUE LT ISZERO PUSH2 0x1FF JUMPI PUSH1 0x40 MLOAD PUSH32 0x8C379A000000000000000000000000000000000000000000000000000000000 DUP2 MSTORE PUSH1 0x4 ADD PUSH2 0x1F6 SWAP1 PUSH2 0x46D JUMP JUMPDEST PUSH1 0x40 MLOAD DUP1 SWAP2 SUB SWAP1 REVERT JUMPDEST JUMP JUMPDEST JUMP JUMPDEST PUSH1 0x0 DUP2 SWAP1 POP SWAP2 SWAP1 POP JUMP JUMPDEST PUSH2 0x216 DUP2 PUSH2 0x203 JUMP JUMPDEST DUP3 MSTORE POP POP JUMP JUMPDEST PUSH1 0x0 PUSH1 0x20 DUP3 ADD SWAP1 POP PUSH2 0x231 PUSH1 0x0 DUP4 ADD DUP5 PUSH2 0x20D JUMP JUMPDEST SWAP3 SWAP2 POP POP JUMP JUMPDEST PUSH1 0x0 DUP2 SWAP1 POP SWAP2 SWAP1 POP JUMP JUMPDEST PUSH2 0x24A DUP2 PUSH2 0x237 JUMP JUMPDEST DUP3 MSTORE POP POP JUMP JUMPDEST PUSH1 0x0 PUSH1 0x20 DUP3 ADD SWAP1 POP PUSH2 0x265 PUSH1 0x0 DUP4 ADD DUP5 PUSH2 0x241 JUMP JUMPDEST SWAP3 SWAP2 POP POP JUMP JUMPDEST PUSH1 0x0 DUP1 REVERT JUMPDEST PUSH1 0x0 PUSH20 0xFFFFFFFFFFFFFFFFFFFFFFFFFFFFFFFFFFFFFFFF DUP3 AND SWAP1 POP SWAP2 SWAP1 POP JUMP JUMPDEST PUSH1 0x0 PUSH2 0x29B DUP3 PUSH2 0x270 JUMP JUMPDEST SWAP1 POP SWAP2 SWAP1 POP JUMP JUMPDEST PUSH2 0x2AB DUP2 PUSH2 0x290 JUMP JUMPDEST DUP2 EQ PUSH2 0x2B6 JUMPI PUSH1 0x0 DUP1 REVERT JUMPDEST POP JUMP JUMPDEST PUSH1 0x0 DUP2 CALLDATALOAD SWAP1 POP PUSH2 0x2C8 DUP2 PUSH2 0x2A2 JUMP JUMPDEST SWAP3 SWAP2 POP POP JUMP JUMPDEST PUSH1 0x0 PUSH1 0x20 DUP3 DUP5 SUB SLT ISZERO PUSH2 0x2E4 JUMPI PUSH2 0x2E3 PUSH2 0x26B JUMP JUMPDEST JUMPDEST PUSH1 0x0 PUSH2 0x2F2 DUP5 DUP3 DUP6 ADD PUSH2 0x2B9 JUMP JUMPDEST SWAP2 POP POP SWAP3 SWAP2 POP POP JUMP JUMPDEST PUSH1 0x0 PUSH10 0xFFFFFFFFFFFFFFFFFFFF DUP3 AND SWAP1 POP SWAP2 SWAP1 POP JUMP JUMPDEST PUSH2 0x31A DUP2 PUSH2 0x2FB JUMP JUMPDEST DUP2 EQ PUSH2 0x325 JUMPI PUSH1 0x0 DUP1 REVERT JUMPDEST POP JUMP JUMPDEST PUSH1 0x0 DUP2 MLOAD SWAP1 POP PUSH2 0x337 DUP2 PUSH2 0x311 JUMP JUMPDEST SWAP3 SWAP2 POP POP JUMP JUMPDEST PUSH2 0x346 DUP2 PUSH2 0x237 JUMP JUMPDEST DUP2 EQ PUSH2 0x351 JUMPI PUSH1 0x0 DUP1 REVERT JUMPDEST POP JUMP JUMPDEST PUSH1 0x0 DUP2 MLOAD SWAP1 POP PUSH2 0x363 DUP2 PUSH2 0x33D JUMP JUMPDEST SWAP3 SWAP2 POP POP JUMP JUMPDEST PUSH2 0x372 DUP2 PUSH2 0x203 JUMP JUMPDEST DUP2 EQ PUSH2 0x37D JUMPI PUSH1 0x0 DUP1 REVERT JUMPDEST POP JUMP JUMPDEST PUSH1 0x0 DUP2 MLOAD SWAP1 POP PUSH2 0x38F DUP2 PUSH2 0x369 JUMP JUMPDEST SWAP3 SWAP2 POP POP JUMP JUMPDEST PUSH1 0x0 DUP1 PUSH1 0x0 DUP1 PUSH1 0x0 PUSH1 0xA0 DUP7 DUP9 SUB SLT ISZERO PUSH2 0x3B1 JUMPI PUSH2 0x3B0 PUSH2 0x26B JUMP JUMPDEST JUMPDEST PUSH1 0x0 PUSH2 0x3BF DUP9 DUP3 DUP10 ADD PUSH2 0x328 JUMP JUMPDEST SWAP6 POP POP PUSH1 0x20 PUSH2 0x3D0 DUP9 DUP3 DUP10 ADD PUSH2 0x354 JUMP JUMPDEST SWAP5 POP POP PUSH1 0x40 PUSH2 0x3E1 DUP9 DUP3 DUP10 ADD PUSH2 0x380 JUMP JUMPDEST SWAP4 POP POP PUSH1 0x60 PUSH2 0x3F2 DUP9 DUP3 DUP10 ADD PUSH2 0x380 JUMP JUMPDEST SWAP3 POP POP PUSH1 0x80 PUSH2 0x403 DUP9 DUP3 DUP10 ADD PUSH2 0x328 JUMP JUMPDEST SWAP2 POP POP SWAP3 SWAP6 POP SWAP3 SWAP6 SWAP1 SWAP4 POP JUMP JUMPDEST PUSH1 0x0 DUP3 DUP3 MSTORE PUSH1 0x20 DUP3 ADD SWAP1 POP SWAP3 SWAP2 POP POP JUMP JUMPDEST PUSH32 0x4469646E27742073656E6420656E6F7567682100000000000000000000000000 PUSH1 0x0 DUP3 ADD MSTORE POP JUMP JUMPDEST PUSH1 0x0 PUSH2 0x457 PUSH1 0x13 DUP4 PUSH2 0x410 JUMP JUMPDEST SWAP2 POP PUSH2 0x462 DUP3 PUSH2 0x421 JUMP JUMPDEST PUSH1 0x20 DUP3 ADD SWAP1 POP SWAP2 SWAP1 POP JUMP JUMPDEST PUSH1 0x0 PUSH1 0x20 DUP3 ADD SWAP1 POP DUP2 DUP2 SUB PUSH1 0x0 DUP4 ADD MSTORE PUSH2 0x486 DUP2 PUSH2 0x44A JUMP JUMPDEST SWAP1 POP SWAP2 SWAP1 POP JUMP INVALID LOG2 PUSH5 0x6970667358 0x22 SLT KECCAK256 DIV 0xCA PUSH32 0xF491C216CD54ECD1489E6FB3D2D050FD8F619A577975CAE1B4AF90E60264736F PUSH13 0x634300080D0033000000000000 "
				},
				"gasEstimates": {
					"creation": {
						"codeDepositCost": "243800",
						"executionCost": "22393",
						"totalCost": "266193"
					},
					"external": {
						"fund()": "2578",
						"fundsAmountOfAddress(address)": "2836",
						"getConversionRate()": "210",
						"getPrice()": "infinite",
						"minimumUsd()": "2407"
					}
				},
				"methodIdentifiers": {
					"fund()": "b60d4288",
					"fundsAmountOfAddress(address)": "a712b310",
					"getConversionRate()": "f36089ec",
					"getPrice()": "98d5fdca",
					"minimumUsd()": "098de820"
				}
			},
			"storageLayout": {
				"storage": [
					{
						"astId": 51,
						"contract": "FreeCodeCamp/FundMe/FundMe.sol:FundMe",
						"label": "minimumUsd",
						"offset": 0,
						"slot": "0",
						"type": "t_uint256"
					},
					{
						"astId": 55,
						"contract": "FreeCodeCamp/FundMe/FundMe.sol:FundMe",
						"label": "fundsAmountOfAddress",
						"offset": 0,
						"slot": "1",
						"type": "t_mapping(t_address,t_uint256)"
					}
				],
				"types": {
					"t_address": {
						"encoding": "inplace",
						"label": "address",
						"numberOfBytes": "20"
					},
					"t_mapping(t_address,t_uint256)": {
						"encoding": "mapping",
						"key": "t_address",
						"label": "mapping(address => uint256)",
						"numberOfBytes": "32",
						"value": "t_uint256"
					},
					"t_uint256": {
						"encoding": "inplace",
						"label": "uint256",
						"numberOfBytes": "32"
					}
				}
			},
			"userdoc": {
				"kind": "user",
				"methods": {},
				"version": 1
			}
		}
	}
}