{
	"FreeCodeCamp/FundMe/Fundme-SelfTryFirst.sol": {
		"FundMe": {
			"abi": [
				{
					"inputs": [
						{
							"internalType": "uint256",
							"name": "_minimumFundsValue",
							"type": "uint256"
						}
					],
					"stateMutability": "nonpayable",
					"type": "constructor"
				},
				{
					"inputs": [
						{
							"internalType": "address payable",
							"name": "funder",
							"type": "address"
						},
						{
							"internalType": "uint256",
							"name": "amount",
							"type": "uint256"
						}
					],
					"name": "fund",
					"outputs": [],
					"stateMutability": "nonpayable",
					"type": "function"
				},
				{
					"inputs": [
						{
							"internalType": "uint256",
							"name": "",
							"type": "uint256"
						}
					],
					"name": "funderArray",
					"outputs": [
						{
							"internalType": "address",
							"name": "",
							"type": "address"
						}
					],
					"stateMutability": "view",
					"type": "function"
				},
				{
					"inputs": [
						{
							"internalType": "address",
							"name": "",
							"type": "address"
						}
					],
					"name": "fundsAmountOfAddress",
					"outputs": [
						{
							"internalType": "uint256",
							"name": "",
							"type": "uint256"
						}
					],
					"stateMutability": "view",
					"type": "function"
				},
				{
					"inputs": [],
					"name": "totalFunds",
					"outputs": [
						{
							"internalType": "uint256",
							"name": "",
							"type": "uint256"
						}
					],
					"stateMutability": "view",
					"type": "function"
				},
				{
					"inputs": [
						{
							"internalType": "address",
							"name": "to",
							"type": "address"
						},
						{
							"internalType": "uint256",
							"name": "amount",
							"type": "uint256"
						}
					],
					"name": "withdraw",
					"outputs": [],
					"stateMutability": "nonpayable",
					"type": "function"
				}
			],
			"devdoc": {
				"kind": "dev",
				"methods": {},
				"version": 1
			},
			"evm": {
				"assembly": "    /* \"FreeCodeCamp/FundMe/Fundme-SelfTryFirst.sol\":135:1149  contract FundMe {... */\n  mstore(0x40, 0x80)\n    /* \"FreeCodeCamp/FundMe/Fundme-SelfTryFirst.sol\":268:425  constructor(uint _minimumFundsValue) {... */\n  callvalue\n  dup1\n  iszero\n  tag_1\n  jumpi\n  0x00\n  dup1\n  revert\ntag_1:\n  pop\n  mload(0x40)\n  sub(codesize, bytecodeSize)\n  dup1\n  bytecodeSize\n  dup4\n  codecopy\n  dup2\n  dup2\n  add\n  0x40\n  mstore\n  dup2\n  add\n  swap1\n  tag_2\n  swap2\n  swap1\n  tag_3\n  jump\t// in\ntag_2:\n    /* \"FreeCodeCamp/FundMe/Fundme-SelfTryFirst.sol\":323:333  msg.sender */\n  caller\n    /* \"FreeCodeCamp/FundMe/Fundme-SelfTryFirst.sol\":315:320  owner */\n  0x02\n  0x00\n    /* \"FreeCodeCamp/FundMe/Fundme-SelfTryFirst.sol\":315:333  owner = msg.sender */\n  0x0100\n  exp\n  dup2\n  sload\n  dup2\n  0xffffffffffffffffffffffffffffffffffffffff\n  mul\n  not\n  and\n  swap1\n  dup4\n  0xffffffffffffffffffffffffffffffffffffffff\n  and\n  mul\n  or\n  swap1\n  sstore\n  pop\n    /* \"FreeCodeCamp/FundMe/Fundme-SelfTryFirst.sol\":400:418  _minimumFundsValue */\n  dup1\n    /* \"FreeCodeCamp/FundMe/Fundme-SelfTryFirst.sol\":380:397  minimumFundsValue */\n  0x00\n    /* \"FreeCodeCamp/FundMe/Fundme-SelfTryFirst.sol\":380:418  minimumFundsValue = _minimumFundsValue */\n  dup2\n  swap1\n  sstore\n  pop\n    /* \"FreeCodeCamp/FundMe/Fundme-SelfTryFirst.sol\":268:425  constructor(uint _minimumFundsValue) {... */\n  pop\n    /* \"FreeCodeCamp/FundMe/Fundme-SelfTryFirst.sol\":135:1149  contract FundMe {... */\n  jump(tag_6)\n    /* \"#utility.yul\":88:205   */\ntag_8:\n    /* \"#utility.yul\":197:198   */\n  0x00\n    /* \"#utility.yul\":194:195   */\n  dup1\n    /* \"#utility.yul\":187:199   */\n  revert\n    /* \"#utility.yul\":334:411   */\ntag_10:\n    /* \"#utility.yul\":371:378   */\n  0x00\n    /* \"#utility.yul\":400:405   */\n  dup2\n    /* \"#utility.yul\":389:405   */\n  swap1\n  pop\n    /* \"#utility.yul\":334:411   */\n  swap2\n  swap1\n  pop\n  jump\t// out\n    /* \"#utility.yul\":417:539   */\ntag_11:\n    /* \"#utility.yul\":490:514   */\n  tag_19\n    /* \"#utility.yul\":508:513   */\n  dup2\n    /* \"#utility.yul\":490:514   */\n  tag_10\n  jump\t// in\ntag_19:\n    /* \"#utility.yul\":483:488   */\n  dup2\n    /* \"#utility.yul\":480:515   */\n  eq\n    /* \"#utility.yul\":470:533   */\n  tag_20\n  jumpi\n    /* \"#utility.yul\":529:530   */\n  0x00\n    /* \"#utility.yul\":526:527   */\n  dup1\n    /* \"#utility.yul\":519:531   */\n  revert\n    /* \"#utility.yul\":470:533   */\ntag_20:\n    /* \"#utility.yul\":417:539   */\n  pop\n  jump\t// out\n    /* \"#utility.yul\":545:688   */\ntag_12:\n    /* \"#utility.yul\":602:607   */\n  0x00\n    /* \"#utility.yul\":633:639   */\n  dup2\n    /* \"#utility.yul\":627:640   */\n  mload\n    /* \"#utility.yul\":618:640   */\n  swap1\n  pop\n    /* \"#utility.yul\":649:682   */\n  tag_22\n    /* \"#utility.yul\":676:681   */\n  dup2\n    /* \"#utility.yul\":649:682   */\n  tag_11\n  jump\t// in\ntag_22:\n    /* \"#utility.yul\":545:688   */\n  swap3\n  swap2\n  pop\n  pop\n  jump\t// out\n    /* \"#utility.yul\":694:1045   */\ntag_3:\n    /* \"#utility.yul\":764:770   */\n  0x00\n    /* \"#utility.yul\":813:815   */\n  0x20\n    /* \"#utility.yul\":801:810   */\n  dup3\n    /* \"#utility.yul\":792:799   */\n  dup5\n    /* \"#utility.yul\":788:811   */\n  sub\n    /* \"#utility.yul\":784:816   */\n  slt\n    /* \"#utility.yul\":781:900   */\n  iszero\n  tag_24\n  jumpi\n    /* \"#utility.yul\":819:898   */\n  tag_25\n  tag_8\n  jump\t// in\ntag_25:\n    /* \"#utility.yul\":781:900   */\ntag_24:\n    /* \"#utility.yul\":939:940   */\n  0x00\n    /* \"#utility.yul\":964:1028   */\n  tag_26\n    /* \"#utility.yul\":1020:1027   */\n  dup5\n    /* \"#utility.yul\":1011:1017   */\n  dup3\n    /* \"#utility.yul\":1000:1009   */\n  dup6\n    /* \"#utility.yul\":996:1018   */\n  add\n    /* \"#utility.yul\":964:1028   */\n  tag_12\n  jump\t// in\ntag_26:\n    /* \"#utility.yul\":954:1028   */\n  swap2\n  pop\n    /* \"#utility.yul\":910:1038   */\n  pop\n    /* \"#utility.yul\":694:1045   */\n  swap3\n  swap2\n  pop\n  pop\n  jump\t// out\n    /* \"FreeCodeCamp/FundMe/Fundme-SelfTryFirst.sol\":135:1149  contract FundMe {... */\ntag_6:\n  dataSize(sub_0)\n  dup1\n  dataOffset(sub_0)\n  0x00\n  codecopy\n  0x00\n  return\nstop\n\nsub_0: assembly {\n        /* \"FreeCodeCamp/FundMe/Fundme-SelfTryFirst.sol\":135:1149  contract FundMe {... */\n      mstore(0x40, 0x80)\n      callvalue\n      dup1\n      iszero\n      tag_1\n      jumpi\n      0x00\n      dup1\n      revert\n    tag_1:\n      pop\n      jumpi(tag_2, lt(calldatasize, 0x04))\n      shr(0xe0, calldataload(0x00))\n      dup1\n      0x248b0c1f\n      eq\n      tag_3\n      jumpi\n      dup1\n      0x7b1837de\n      eq\n      tag_4\n      jumpi\n      dup1\n      0x968ed600\n      eq\n      tag_5\n      jumpi\n      dup1\n      0xa712b310\n      eq\n      tag_6\n      jumpi\n      dup1\n      0xf3fef3a3\n      eq\n      tag_7\n      jumpi\n    tag_2:\n      0x00\n      dup1\n      revert\n        /* \"FreeCodeCamp/FundMe/Fundme-SelfTryFirst.sol\":186:214  address[] public funderArray */\n    tag_3:\n      tag_8\n      0x04\n      dup1\n      calldatasize\n      sub\n      dup2\n      add\n      swap1\n      tag_9\n      swap2\n      swap1\n      tag_10\n      jump\t// in\n    tag_9:\n      tag_11\n      jump\t// in\n    tag_8:\n      mload(0x40)\n      tag_12\n      swap2\n      swap1\n      tag_13\n      jump\t// in\n    tag_12:\n      mload(0x40)\n      dup1\n      swap2\n      sub\n      swap1\n      return\n        /* \"FreeCodeCamp/FundMe/Fundme-SelfTryFirst.sol\":622:809  function fund(address payable funder, uint amount) public onlyOwner {... */\n    tag_4:\n      tag_14\n      0x04\n      dup1\n      calldatasize\n      sub\n      dup2\n      add\n      swap1\n      tag_15\n      swap2\n      swap1\n      tag_16\n      jump\t// in\n    tag_15:\n      tag_17\n      jump\t// in\n    tag_14:\n      stop\n        /* \"FreeCodeCamp/FundMe/Fundme-SelfTryFirst.sol\":239:261  uint public totalFunds */\n    tag_5:\n      tag_18\n      tag_19\n      jump\t// in\n    tag_18:\n      mload(0x40)\n      tag_20\n      swap2\n      swap1\n      tag_21\n      jump\t// in\n    tag_20:\n      mload(0x40)\n      dup1\n      swap2\n      sub\n      swap1\n      return\n        /* \"FreeCodeCamp/FundMe/Fundme-SelfTryFirst.sol\":536:588  mapping(address => uint) public fundsAmountOfAddress */\n    tag_6:\n      tag_22\n      0x04\n      dup1\n      calldatasize\n      sub\n      dup2\n      add\n      swap1\n      tag_23\n      swap2\n      swap1\n      tag_24\n      jump\t// in\n    tag_23:\n      tag_25\n      jump\t// in\n    tag_22:\n      mload(0x40)\n      tag_26\n      swap2\n      swap1\n      tag_21\n      jump\t// in\n    tag_26:\n      mload(0x40)\n      dup1\n      swap2\n      sub\n      swap1\n      return\n        /* \"FreeCodeCamp/FundMe/Fundme-SelfTryFirst.sol\":837:1147  function withdraw(address to, uint amount) public onlyOwner {... */\n    tag_7:\n      tag_27\n      0x04\n      dup1\n      calldatasize\n      sub\n      dup2\n      add\n      swap1\n      tag_28\n      swap2\n      swap1\n      tag_29\n      jump\t// in\n    tag_28:\n      tag_30\n      jump\t// in\n    tag_27:\n      stop\n        /* \"FreeCodeCamp/FundMe/Fundme-SelfTryFirst.sol\":186:214  address[] public funderArray */\n    tag_11:\n      0x01\n      dup2\n      dup2\n      sload\n      dup2\n      lt\n      tag_31\n      jumpi\n      0x00\n      dup1\n      revert\n    tag_31:\n      swap1\n      0x00\n      mstore\n      keccak256(0x00, 0x20)\n      add\n      0x00\n      swap2\n      pop\n      sload\n      swap1\n      0x0100\n      exp\n      swap1\n      div\n      0xffffffffffffffffffffffffffffffffffffffff\n      and\n      dup2\n      jump\t// out\n        /* \"FreeCodeCamp/FundMe/Fundme-SelfTryFirst.sol\":622:809  function fund(address payable funder, uint amount) public onlyOwner {... */\n    tag_17:\n        /* \"FreeCodeCamp/FundMe/Fundme-SelfTryFirst.sol\":482:487  owner */\n      0x02\n      0x00\n      swap1\n      sload\n      swap1\n      0x0100\n      exp\n      swap1\n      div\n      0xffffffffffffffffffffffffffffffffffffffff\n      and\n        /* \"FreeCodeCamp/FundMe/Fundme-SelfTryFirst.sol\":468:487  msg.sender == owner */\n      0xffffffffffffffffffffffffffffffffffffffff\n      and\n        /* \"FreeCodeCamp/FundMe/Fundme-SelfTryFirst.sol\":468:478  msg.sender */\n      caller\n        /* \"FreeCodeCamp/FundMe/Fundme-SelfTryFirst.sol\":468:487  msg.sender == owner */\n      0xffffffffffffffffffffffffffffffffffffffff\n      and\n      eq\n        /* \"FreeCodeCamp/FundMe/Fundme-SelfTryFirst.sol\":460:512  require(msg.sender == owner, \"You're not the owner\") */\n      tag_34\n      jumpi\n      mload(0x40)\n      0x08c379a000000000000000000000000000000000000000000000000000000000\n      dup2\n      mstore\n      0x04\n      add\n      tag_35\n      swap1\n      tag_36\n      jump\t// in\n    tag_35:\n      mload(0x40)\n      dup1\n      swap2\n      sub\n      swap1\n      revert\n    tag_34:\n        /* \"FreeCodeCamp/FundMe/Fundme-SelfTryFirst.sol\":700:711  funderArray */\n      0x01\n        /* \"FreeCodeCamp/FundMe/Fundme-SelfTryFirst.sol\":717:723  funder */\n      dup3\n        /* \"FreeCodeCamp/FundMe/Fundme-SelfTryFirst.sol\":700:724  funderArray.push(funder) */\n      swap1\n      dup1\n      0x01\n      dup2\n      sload\n      add\n      dup1\n      dup3\n      sstore\n      dup1\n      swap2\n      pop\n      pop\n      0x01\n      swap1\n      sub\n      swap1\n      0x00\n      mstore\n      keccak256(0x00, 0x20)\n      add\n      0x00\n      swap1\n      swap2\n      swap1\n      swap2\n      swap1\n      swap2\n      0x0100\n      exp\n      dup2\n      sload\n      dup2\n      0xffffffffffffffffffffffffffffffffffffffff\n      mul\n      not\n      and\n      swap1\n      dup4\n      0xffffffffffffffffffffffffffffffffffffffff\n      and\n      mul\n      or\n      swap1\n      sstore\n      pop\n        /* \"FreeCodeCamp/FundMe/Fundme-SelfTryFirst.sol\":766:772  amount */\n      dup1\n        /* \"FreeCodeCamp/FundMe/Fundme-SelfTryFirst.sol\":734:754  fundsAmountOfAddress */\n      0x04\n        /* \"FreeCodeCamp/FundMe/Fundme-SelfTryFirst.sol\":734:762  fundsAmountOfAddress[funder] */\n      0x00\n        /* \"FreeCodeCamp/FundMe/Fundme-SelfTryFirst.sol\":755:761  funder */\n      dup5\n        /* \"FreeCodeCamp/FundMe/Fundme-SelfTryFirst.sol\":734:762  fundsAmountOfAddress[funder] */\n      0xffffffffffffffffffffffffffffffffffffffff\n      and\n      0xffffffffffffffffffffffffffffffffffffffff\n      and\n      dup2\n      mstore\n      0x20\n      add\n      swap1\n      dup2\n      mstore\n      0x20\n      add\n      0x00\n      keccak256\n      0x00\n        /* \"FreeCodeCamp/FundMe/Fundme-SelfTryFirst.sol\":734:772  fundsAmountOfAddress[funder] += amount */\n      dup3\n      dup3\n      sload\n      tag_39\n      swap2\n      swap1\n      tag_40\n      jump\t// in\n    tag_39:\n      swap3\n      pop\n      pop\n      dup2\n      swap1\n      sstore\n      pop\n        /* \"FreeCodeCamp/FundMe/Fundme-SelfTryFirst.sol\":796:802  amount */\n      dup1\n        /* \"FreeCodeCamp/FundMe/Fundme-SelfTryFirst.sol\":782:792  totalFunds */\n      0x03\n      0x00\n        /* \"FreeCodeCamp/FundMe/Fundme-SelfTryFirst.sol\":782:802  totalFunds += amount */\n      dup3\n      dup3\n      sload\n      tag_41\n      swap2\n      swap1\n      tag_40\n      jump\t// in\n    tag_41:\n      swap3\n      pop\n      pop\n      dup2\n      swap1\n      sstore\n      pop\n        /* \"FreeCodeCamp/FundMe/Fundme-SelfTryFirst.sol\":622:809  function fund(address payable funder, uint amount) public onlyOwner {... */\n      pop\n      pop\n      jump\t// out\n        /* \"FreeCodeCamp/FundMe/Fundme-SelfTryFirst.sol\":239:261  uint public totalFunds */\n    tag_19:\n      sload(0x03)\n      dup2\n      jump\t// out\n        /* \"FreeCodeCamp/FundMe/Fundme-SelfTryFirst.sol\":536:588  mapping(address => uint) public fundsAmountOfAddress */\n    tag_25:\n      mstore(0x20, 0x04)\n      dup1\n      0x00\n      mstore\n      keccak256(0x00, 0x40)\n      0x00\n      swap2\n      pop\n      swap1\n      pop\n      sload\n      dup2\n      jump\t// out\n        /* \"FreeCodeCamp/FundMe/Fundme-SelfTryFirst.sol\":837:1147  function withdraw(address to, uint amount) public onlyOwner {... */\n    tag_30:\n        /* \"FreeCodeCamp/FundMe/Fundme-SelfTryFirst.sol\":482:487  owner */\n      0x02\n      0x00\n      swap1\n      sload\n      swap1\n      0x0100\n      exp\n      swap1\n      div\n      0xffffffffffffffffffffffffffffffffffffffff\n      and\n        /* \"FreeCodeCamp/FundMe/Fundme-SelfTryFirst.sol\":468:487  msg.sender == owner */\n      0xffffffffffffffffffffffffffffffffffffffff\n      and\n        /* \"FreeCodeCamp/FundMe/Fundme-SelfTryFirst.sol\":468:478  msg.sender */\n      caller\n        /* \"FreeCodeCamp/FundMe/Fundme-SelfTryFirst.sol\":468:487  msg.sender == owner */\n      0xffffffffffffffffffffffffffffffffffffffff\n      and\n      eq\n        /* \"FreeCodeCamp/FundMe/Fundme-SelfTryFirst.sol\":460:512  require(msg.sender == owner, \"You're not the owner\") */\n      tag_43\n      jumpi\n      mload(0x40)\n      0x08c379a000000000000000000000000000000000000000000000000000000000\n      dup2\n      mstore\n      0x04\n      add\n      tag_44\n      swap1\n      tag_36\n      jump\t// in\n    tag_44:\n      mload(0x40)\n      dup1\n      swap2\n      sub\n      swap1\n      revert\n    tag_43:\n        /* \"FreeCodeCamp/FundMe/Fundme-SelfTryFirst.sol\":929:946  minimumFundsValue */\n      sload(0x00)\n        /* \"FreeCodeCamp/FundMe/Fundme-SelfTryFirst.sol\":915:925  totalFunds */\n      sload(0x03)\n        /* \"FreeCodeCamp/FundMe/Fundme-SelfTryFirst.sol\":915:946  totalFunds >= minimumFundsValue */\n      lt\n      iszero\n        /* \"FreeCodeCamp/FundMe/Fundme-SelfTryFirst.sol\":907:986  require(totalFunds >= minimumFundsValue, \"The minimum funds arent achived yet\") */\n      tag_46\n      jumpi\n      mload(0x40)\n      0x08c379a000000000000000000000000000000000000000000000000000000000\n      dup2\n      mstore\n      0x04\n      add\n      tag_47\n      swap1\n      tag_48\n      jump\t// in\n    tag_47:\n      mload(0x40)\n      dup1\n      swap2\n      sub\n      swap1\n      revert\n    tag_46:\n        /* \"FreeCodeCamp/FundMe/Fundme-SelfTryFirst.sol\":1014:1034  fundsAmountOfAddress */\n      0x04\n        /* \"FreeCodeCamp/FundMe/Fundme-SelfTryFirst.sol\":1014:1038  fundsAmountOfAddress[to] */\n      0x00\n        /* \"FreeCodeCamp/FundMe/Fundme-SelfTryFirst.sol\":1035:1037  to */\n      dup4\n        /* \"FreeCodeCamp/FundMe/Fundme-SelfTryFirst.sol\":1014:1038  fundsAmountOfAddress[to] */\n      0xffffffffffffffffffffffffffffffffffffffff\n      and\n      0xffffffffffffffffffffffffffffffffffffffff\n      and\n      dup2\n      mstore\n      0x20\n      add\n      swap1\n      dup2\n      mstore\n      0x20\n      add\n      0x00\n      keccak256\n      sload\n        /* \"FreeCodeCamp/FundMe/Fundme-SelfTryFirst.sol\":1004:1010  amount */\n      dup2\n        /* \"FreeCodeCamp/FundMe/Fundme-SelfTryFirst.sol\":1004:1038  amount <= fundsAmountOfAddress[to] */\n      gt\n      iszero\n        /* \"FreeCodeCamp/FundMe/Fundme-SelfTryFirst.sol\":996:1066  require(amount <= fundsAmountOfAddress[to], \"You've not enough funds\") */\n      tag_49\n      jumpi\n      mload(0x40)\n      0x08c379a000000000000000000000000000000000000000000000000000000000\n      dup2\n      mstore\n      0x04\n      add\n      tag_50\n      swap1\n      tag_51\n      jump\t// in\n    tag_50:\n      mload(0x40)\n      dup1\n      swap2\n      sub\n      swap1\n      revert\n    tag_49:\n        /* \"FreeCodeCamp/FundMe/Fundme-SelfTryFirst.sol\":1104:1110  amount */\n      dup1\n        /* \"FreeCodeCamp/FundMe/Fundme-SelfTryFirst.sol\":1076:1096  fundsAmountOfAddress */\n      0x04\n        /* \"FreeCodeCamp/FundMe/Fundme-SelfTryFirst.sol\":1076:1100  fundsAmountOfAddress[to] */\n      0x00\n        /* \"FreeCodeCamp/FundMe/Fundme-SelfTryFirst.sol\":1097:1099  to */\n      dup5\n        /* \"FreeCodeCamp/FundMe/Fundme-SelfTryFirst.sol\":1076:1100  fundsAmountOfAddress[to] */\n      0xffffffffffffffffffffffffffffffffffffffff\n      and\n      0xffffffffffffffffffffffffffffffffffffffff\n      and\n      dup2\n      mstore\n      0x20\n      add\n      swap1\n      dup2\n      mstore\n      0x20\n      add\n      0x00\n      keccak256\n      0x00\n        /* \"FreeCodeCamp/FundMe/Fundme-SelfTryFirst.sol\":1076:1110  fundsAmountOfAddress[to] -= amount */\n      dup3\n      dup3\n      sload\n      tag_52\n      swap2\n      swap1\n      tag_53\n      jump\t// in\n    tag_52:\n      swap3\n      pop\n      pop\n      dup2\n      swap1\n      sstore\n      pop\n        /* \"FreeCodeCamp/FundMe/Fundme-SelfTryFirst.sol\":1134:1140  amount */\n      dup1\n        /* \"FreeCodeCamp/FundMe/Fundme-SelfTryFirst.sol\":1120:1130  totalFunds */\n      0x03\n      0x00\n        /* \"FreeCodeCamp/FundMe/Fundme-SelfTryFirst.sol\":1120:1140  totalFunds -= amount */\n      dup3\n      dup3\n      sload\n      tag_54\n      swap2\n      swap1\n      tag_53\n      jump\t// in\n    tag_54:\n      swap3\n      pop\n      pop\n      dup2\n      swap1\n      sstore\n      pop\n        /* \"FreeCodeCamp/FundMe/Fundme-SelfTryFirst.sol\":837:1147  function withdraw(address to, uint amount) public onlyOwner {... */\n      pop\n      pop\n      jump\t// out\n        /* \"#utility.yul\":88:205   */\n    tag_56:\n        /* \"#utility.yul\":197:198   */\n      0x00\n        /* \"#utility.yul\":194:195   */\n      dup1\n        /* \"#utility.yul\":187:199   */\n      revert\n        /* \"#utility.yul\":334:411   */\n    tag_58:\n        /* \"#utility.yul\":371:378   */\n      0x00\n        /* \"#utility.yul\":400:405   */\n      dup2\n        /* \"#utility.yul\":389:405   */\n      swap1\n      pop\n        /* \"#utility.yul\":334:411   */\n      swap2\n      swap1\n      pop\n      jump\t// out\n        /* \"#utility.yul\":417:539   */\n    tag_59:\n        /* \"#utility.yul\":490:514   */\n      tag_84\n        /* \"#utility.yul\":508:513   */\n      dup2\n        /* \"#utility.yul\":490:514   */\n      tag_58\n      jump\t// in\n    tag_84:\n        /* \"#utility.yul\":483:488   */\n      dup2\n        /* \"#utility.yul\":480:515   */\n      eq\n        /* \"#utility.yul\":470:533   */\n      tag_85\n      jumpi\n        /* \"#utility.yul\":529:530   */\n      0x00\n        /* \"#utility.yul\":526:527   */\n      dup1\n        /* \"#utility.yul\":519:531   */\n      revert\n        /* \"#utility.yul\":470:533   */\n    tag_85:\n        /* \"#utility.yul\":417:539   */\n      pop\n      jump\t// out\n        /* \"#utility.yul\":545:684   */\n    tag_60:\n        /* \"#utility.yul\":591:596   */\n      0x00\n        /* \"#utility.yul\":629:635   */\n      dup2\n        /* \"#utility.yul\":616:636   */\n      calldataload\n        /* \"#utility.yul\":607:636   */\n      swap1\n      pop\n        /* \"#utility.yul\":645:678   */\n      tag_87\n        /* \"#utility.yul\":672:677   */\n      dup2\n        /* \"#utility.yul\":645:678   */\n      tag_59\n      jump\t// in\n    tag_87:\n        /* \"#utility.yul\":545:684   */\n      swap3\n      swap2\n      pop\n      pop\n      jump\t// out\n        /* \"#utility.yul\":690:1019   */\n    tag_10:\n        /* \"#utility.yul\":749:755   */\n      0x00\n        /* \"#utility.yul\":798:800   */\n      0x20\n        /* \"#utility.yul\":786:795   */\n      dup3\n        /* \"#utility.yul\":777:784   */\n      dup5\n        /* \"#utility.yul\":773:796   */\n      sub\n        /* \"#utility.yul\":769:801   */\n      slt\n        /* \"#utility.yul\":766:885   */\n      iszero\n      tag_89\n      jumpi\n        /* \"#utility.yul\":804:883   */\n      tag_90\n      tag_56\n      jump\t// in\n    tag_90:\n        /* \"#utility.yul\":766:885   */\n    tag_89:\n        /* \"#utility.yul\":924:925   */\n      0x00\n        /* \"#utility.yul\":949:1002   */\n      tag_91\n        /* \"#utility.yul\":994:1001   */\n      dup5\n        /* \"#utility.yul\":985:991   */\n      dup3\n        /* \"#utility.yul\":974:983   */\n      dup6\n        /* \"#utility.yul\":970:992   */\n      add\n        /* \"#utility.yul\":949:1002   */\n      tag_60\n      jump\t// in\n    tag_91:\n        /* \"#utility.yul\":939:1002   */\n      swap2\n      pop\n        /* \"#utility.yul\":895:1012   */\n      pop\n        /* \"#utility.yul\":690:1019   */\n      swap3\n      swap2\n      pop\n      pop\n      jump\t// out\n        /* \"#utility.yul\":1025:1151   */\n    tag_61:\n        /* \"#utility.yul\":1062:1069   */\n      0x00\n        /* \"#utility.yul\":1102:1144   */\n      0xffffffffffffffffffffffffffffffffffffffff\n        /* \"#utility.yul\":1095:1100   */\n      dup3\n        /* \"#utility.yul\":1091:1145   */\n      and\n        /* \"#utility.yul\":1080:1145   */\n      swap1\n      pop\n        /* \"#utility.yul\":1025:1151   */\n      swap2\n      swap1\n      pop\n      jump\t// out\n        /* \"#utility.yul\":1157:1253   */\n    tag_62:\n        /* \"#utility.yul\":1194:1201   */\n      0x00\n        /* \"#utility.yul\":1223:1247   */\n      tag_94\n        /* \"#utility.yul\":1241:1246   */\n      dup3\n        /* \"#utility.yul\":1223:1247   */\n      tag_61\n      jump\t// in\n    tag_94:\n        /* \"#utility.yul\":1212:1247   */\n      swap1\n      pop\n        /* \"#utility.yul\":1157:1253   */\n      swap2\n      swap1\n      pop\n      jump\t// out\n        /* \"#utility.yul\":1259:1377   */\n    tag_63:\n        /* \"#utility.yul\":1346:1370   */\n      tag_96\n        /* \"#utility.yul\":1364:1369   */\n      dup2\n        /* \"#utility.yul\":1346:1370   */\n      tag_62\n      jump\t// in\n    tag_96:\n        /* \"#utility.yul\":1341:1344   */\n      dup3\n        /* \"#utility.yul\":1334:1371   */\n      mstore\n        /* \"#utility.yul\":1259:1377   */\n      pop\n      pop\n      jump\t// out\n        /* \"#utility.yul\":1383:1605   */\n    tag_13:\n        /* \"#utility.yul\":1476:1480   */\n      0x00\n        /* \"#utility.yul\":1514:1516   */\n      0x20\n        /* \"#utility.yul\":1503:1512   */\n      dup3\n        /* \"#utility.yul\":1499:1517   */\n      add\n        /* \"#utility.yul\":1491:1517   */\n      swap1\n      pop\n        /* \"#utility.yul\":1527:1598   */\n      tag_98\n        /* \"#utility.yul\":1595:1596   */\n      0x00\n        /* \"#utility.yul\":1584:1593   */\n      dup4\n        /* \"#utility.yul\":1580:1597   */\n      add\n        /* \"#utility.yul\":1571:1577   */\n      dup5\n        /* \"#utility.yul\":1527:1598   */\n      tag_63\n      jump\t// in\n    tag_98:\n        /* \"#utility.yul\":1383:1605   */\n      swap3\n      swap2\n      pop\n      pop\n      jump\t// out\n        /* \"#utility.yul\":1611:1715   */\n    tag_64:\n        /* \"#utility.yul\":1656:1663   */\n      0x00\n        /* \"#utility.yul\":1685:1709   */\n      tag_100\n        /* \"#utility.yul\":1703:1708   */\n      dup3\n        /* \"#utility.yul\":1685:1709   */\n      tag_61\n      jump\t// in\n    tag_100:\n        /* \"#utility.yul\":1674:1709   */\n      swap1\n      pop\n        /* \"#utility.yul\":1611:1715   */\n      swap2\n      swap1\n      pop\n      jump\t// out\n        /* \"#utility.yul\":1721:1859   */\n    tag_65:\n        /* \"#utility.yul\":1802:1834   */\n      tag_102\n        /* \"#utility.yul\":1828:1833   */\n      dup2\n        /* \"#utility.yul\":1802:1834   */\n      tag_64\n      jump\t// in\n    tag_102:\n        /* \"#utility.yul\":1795:1800   */\n      dup2\n        /* \"#utility.yul\":1792:1835   */\n      eq\n        /* \"#utility.yul\":1782:1853   */\n      tag_103\n      jumpi\n        /* \"#utility.yul\":1849:1850   */\n      0x00\n        /* \"#utility.yul\":1846:1847   */\n      dup1\n        /* \"#utility.yul\":1839:1851   */\n      revert\n        /* \"#utility.yul\":1782:1853   */\n    tag_103:\n        /* \"#utility.yul\":1721:1859   */\n      pop\n      jump\t// out\n        /* \"#utility.yul\":1865:2020   */\n    tag_66:\n        /* \"#utility.yul\":1919:1924   */\n      0x00\n        /* \"#utility.yul\":1957:1963   */\n      dup2\n        /* \"#utility.yul\":1944:1964   */\n      calldataload\n        /* \"#utility.yul\":1935:1964   */\n      swap1\n      pop\n        /* \"#utility.yul\":1973:2014   */\n      tag_105\n        /* \"#utility.yul\":2008:2013   */\n      dup2\n        /* \"#utility.yul\":1973:2014   */\n      tag_65\n      jump\t// in\n    tag_105:\n        /* \"#utility.yul\":1865:2020   */\n      swap3\n      swap2\n      pop\n      pop\n      jump\t// out\n        /* \"#utility.yul\":2026:2516   */\n    tag_16:\n        /* \"#utility.yul\":2102:2108   */\n      0x00\n        /* \"#utility.yul\":2110:2116   */\n      dup1\n        /* \"#utility.yul\":2159:2161   */\n      0x40\n        /* \"#utility.yul\":2147:2156   */\n      dup4\n        /* \"#utility.yul\":2138:2145   */\n      dup6\n        /* \"#utility.yul\":2134:2157   */\n      sub\n        /* \"#utility.yul\":2130:2162   */\n      slt\n        /* \"#utility.yul\":2127:2246   */\n      iszero\n      tag_107\n      jumpi\n        /* \"#utility.yul\":2165:2244   */\n      tag_108\n      tag_56\n      jump\t// in\n    tag_108:\n        /* \"#utility.yul\":2127:2246   */\n    tag_107:\n        /* \"#utility.yul\":2285:2286   */\n      0x00\n        /* \"#utility.yul\":2310:2371   */\n      tag_109\n        /* \"#utility.yul\":2363:2370   */\n      dup6\n        /* \"#utility.yul\":2354:2360   */\n      dup3\n        /* \"#utility.yul\":2343:2352   */\n      dup7\n        /* \"#utility.yul\":2339:2361   */\n      add\n        /* \"#utility.yul\":2310:2371   */\n      tag_66\n      jump\t// in\n    tag_109:\n        /* \"#utility.yul\":2300:2371   */\n      swap3\n      pop\n        /* \"#utility.yul\":2256:2381   */\n      pop\n        /* \"#utility.yul\":2420:2422   */\n      0x20\n        /* \"#utility.yul\":2446:2499   */\n      tag_110\n        /* \"#utility.yul\":2491:2498   */\n      dup6\n        /* \"#utility.yul\":2482:2488   */\n      dup3\n        /* \"#utility.yul\":2471:2480   */\n      dup7\n        /* \"#utility.yul\":2467:2489   */\n      add\n        /* \"#utility.yul\":2446:2499   */\n      tag_60\n      jump\t// in\n    tag_110:\n        /* \"#utility.yul\":2436:2499   */\n      swap2\n      pop\n        /* \"#utility.yul\":2391:2509   */\n      pop\n        /* \"#utility.yul\":2026:2516   */\n      swap3\n      pop\n      swap3\n      swap1\n      pop\n      jump\t// out\n        /* \"#utility.yul\":2522:2640   */\n    tag_67:\n        /* \"#utility.yul\":2609:2633   */\n      tag_112\n        /* \"#utility.yul\":2627:2632   */\n      dup2\n        /* \"#utility.yul\":2609:2633   */\n      tag_58\n      jump\t// in\n    tag_112:\n        /* \"#utility.yul\":2604:2607   */\n      dup3\n        /* \"#utility.yul\":2597:2634   */\n      mstore\n        /* \"#utility.yul\":2522:2640   */\n      pop\n      pop\n      jump\t// out\n        /* \"#utility.yul\":2646:2868   */\n    tag_21:\n        /* \"#utility.yul\":2739:2743   */\n      0x00\n        /* \"#utility.yul\":2777:2779   */\n      0x20\n        /* \"#utility.yul\":2766:2775   */\n      dup3\n        /* \"#utility.yul\":2762:2780   */\n      add\n        /* \"#utility.yul\":2754:2780   */\n      swap1\n      pop\n        /* \"#utility.yul\":2790:2861   */\n      tag_114\n        /* \"#utility.yul\":2858:2859   */\n      0x00\n        /* \"#utility.yul\":2847:2856   */\n      dup4\n        /* \"#utility.yul\":2843:2860   */\n      add\n        /* \"#utility.yul\":2834:2840   */\n      dup5\n        /* \"#utility.yul\":2790:2861   */\n      tag_67\n      jump\t// in\n    tag_114:\n        /* \"#utility.yul\":2646:2868   */\n      swap3\n      swap2\n      pop\n      pop\n      jump\t// out\n        /* \"#utility.yul\":2874:2996   */\n    tag_68:\n        /* \"#utility.yul\":2947:2971   */\n      tag_116\n        /* \"#utility.yul\":2965:2970   */\n      dup2\n        /* \"#utility.yul\":2947:2971   */\n      tag_62\n      jump\t// in\n    tag_116:\n        /* \"#utility.yul\":2940:2945   */\n      dup2\n        /* \"#utility.yul\":2937:2972   */\n      eq\n        /* \"#utility.yul\":2927:2990   */\n      tag_117\n      jumpi\n        /* \"#utility.yul\":2986:2987   */\n      0x00\n        /* \"#utility.yul\":2983:2984   */\n      dup1\n        /* \"#utility.yul\":2976:2988   */\n      revert\n        /* \"#utility.yul\":2927:2990   */\n    tag_117:\n        /* \"#utility.yul\":2874:2996   */\n      pop\n      jump\t// out\n        /* \"#utility.yul\":3002:3141   */\n    tag_69:\n        /* \"#utility.yul\":3048:3053   */\n      0x00\n        /* \"#utility.yul\":3086:3092   */\n      dup2\n        /* \"#utility.yul\":3073:3093   */\n      calldataload\n        /* \"#utility.yul\":3064:3093   */\n      swap1\n      pop\n        /* \"#utility.yul\":3102:3135   */\n      tag_119\n        /* \"#utility.yul\":3129:3134   */\n      dup2\n        /* \"#utility.yul\":3102:3135   */\n      tag_68\n      jump\t// in\n    tag_119:\n        /* \"#utility.yul\":3002:3141   */\n      swap3\n      swap2\n      pop\n      pop\n      jump\t// out\n        /* \"#utility.yul\":3147:3476   */\n    tag_24:\n        /* \"#utility.yul\":3206:3212   */\n      0x00\n        /* \"#utility.yul\":3255:3257   */\n      0x20\n        /* \"#utility.yul\":3243:3252   */\n      dup3\n        /* \"#utility.yul\":3234:3241   */\n      dup5\n        /* \"#utility.yul\":3230:3253   */\n      sub\n        /* \"#utility.yul\":3226:3258   */\n      slt\n        /* \"#utility.yul\":3223:3342   */\n      iszero\n      tag_121\n      jumpi\n        /* \"#utility.yul\":3261:3340   */\n      tag_122\n      tag_56\n      jump\t// in\n    tag_122:\n        /* \"#utility.yul\":3223:3342   */\n    tag_121:\n        /* \"#utility.yul\":3381:3382   */\n      0x00\n        /* \"#utility.yul\":3406:3459   */\n      tag_123\n        /* \"#utility.yul\":3451:3458   */\n      dup5\n        /* \"#utility.yul\":3442:3448   */\n      dup3\n        /* \"#utility.yul\":3431:3440   */\n      dup6\n        /* \"#utility.yul\":3427:3449   */\n      add\n        /* \"#utility.yul\":3406:3459   */\n      tag_69\n      jump\t// in\n    tag_123:\n        /* \"#utility.yul\":3396:3459   */\n      swap2\n      pop\n        /* \"#utility.yul\":3352:3469   */\n      pop\n        /* \"#utility.yul\":3147:3476   */\n      swap3\n      swap2\n      pop\n      pop\n      jump\t// out\n        /* \"#utility.yul\":3482:3956   */\n    tag_29:\n        /* \"#utility.yul\":3550:3556   */\n      0x00\n        /* \"#utility.yul\":3558:3564   */\n      dup1\n        /* \"#utility.yul\":3607:3609   */\n      0x40\n        /* \"#utility.yul\":3595:3604   */\n      dup4\n        /* \"#utility.yul\":3586:3593   */\n      dup6\n        /* \"#utility.yul\":3582:3605   */\n      sub\n        /* \"#utility.yul\":3578:3610   */\n      slt\n        /* \"#utility.yul\":3575:3694   */\n      iszero\n      tag_125\n      jumpi\n        /* \"#utility.yul\":3613:3692   */\n      tag_126\n      tag_56\n      jump\t// in\n    tag_126:\n        /* \"#utility.yul\":3575:3694   */\n    tag_125:\n        /* \"#utility.yul\":3733:3734   */\n      0x00\n        /* \"#utility.yul\":3758:3811   */\n      tag_127\n        /* \"#utility.yul\":3803:3810   */\n      dup6\n        /* \"#utility.yul\":3794:3800   */\n      dup3\n        /* \"#utility.yul\":3783:3792   */\n      dup7\n        /* \"#utility.yul\":3779:3801   */\n      add\n        /* \"#utility.yul\":3758:3811   */\n      tag_69\n      jump\t// in\n    tag_127:\n        /* \"#utility.yul\":3748:3811   */\n      swap3\n      pop\n        /* \"#utility.yul\":3704:3821   */\n      pop\n        /* \"#utility.yul\":3860:3862   */\n      0x20\n        /* \"#utility.yul\":3886:3939   */\n      tag_128\n        /* \"#utility.yul\":3931:3938   */\n      dup6\n        /* \"#utility.yul\":3922:3928   */\n      dup3\n        /* \"#utility.yul\":3911:3920   */\n      dup7\n        /* \"#utility.yul\":3907:3929   */\n      add\n        /* \"#utility.yul\":3886:3939   */\n      tag_60\n      jump\t// in\n    tag_128:\n        /* \"#utility.yul\":3876:3939   */\n      swap2\n      pop\n        /* \"#utility.yul\":3831:3949   */\n      pop\n        /* \"#utility.yul\":3482:3956   */\n      swap3\n      pop\n      swap3\n      swap1\n      pop\n      jump\t// out\n        /* \"#utility.yul\":3962:4131   */\n    tag_70:\n        /* \"#utility.yul\":4046:4057   */\n      0x00\n        /* \"#utility.yul\":4080:4086   */\n      dup3\n        /* \"#utility.yul\":4075:4078   */\n      dup3\n        /* \"#utility.yul\":4068:4087   */\n      mstore\n        /* \"#utility.yul\":4120:4124   */\n      0x20\n        /* \"#utility.yul\":4115:4118   */\n      dup3\n        /* \"#utility.yul\":4111:4125   */\n      add\n        /* \"#utility.yul\":4096:4125   */\n      swap1\n      pop\n        /* \"#utility.yul\":3962:4131   */\n      swap3\n      swap2\n      pop\n      pop\n      jump\t// out\n        /* \"#utility.yul\":4137:4307   */\n    tag_71:\n        /* \"#utility.yul\":4277:4299   */\n      0x596f75277265206e6f7420746865206f776e6572000000000000000000000000\n        /* \"#utility.yul\":4273:4274   */\n      0x00\n        /* \"#utility.yul\":4265:4271   */\n      dup3\n        /* \"#utility.yul\":4261:4275   */\n      add\n        /* \"#utility.yul\":4254:4300   */\n      mstore\n        /* \"#utility.yul\":4137:4307   */\n      pop\n      jump\t// out\n        /* \"#utility.yul\":4313:4679   */\n    tag_72:\n        /* \"#utility.yul\":4455:4458   */\n      0x00\n        /* \"#utility.yul\":4476:4543   */\n      tag_132\n        /* \"#utility.yul\":4540:4542   */\n      0x14\n        /* \"#utility.yul\":4535:4538   */\n      dup4\n        /* \"#utility.yul\":4476:4543   */\n      tag_70\n      jump\t// in\n    tag_132:\n        /* \"#utility.yul\":4469:4543   */\n      swap2\n      pop\n        /* \"#utility.yul\":4552:4645   */\n      tag_133\n        /* \"#utility.yul\":4641:4644   */\n      dup3\n        /* \"#utility.yul\":4552:4645   */\n      tag_71\n      jump\t// in\n    tag_133:\n        /* \"#utility.yul\":4670:4672   */\n      0x20\n        /* \"#utility.yul\":4665:4668   */\n      dup3\n        /* \"#utility.yul\":4661:4673   */\n      add\n        /* \"#utility.yul\":4654:4673   */\n      swap1\n      pop\n        /* \"#utility.yul\":4313:4679   */\n      swap2\n      swap1\n      pop\n      jump\t// out\n        /* \"#utility.yul\":4685:5104   */\n    tag_36:\n        /* \"#utility.yul\":4851:4855   */\n      0x00\n        /* \"#utility.yul\":4889:4891   */\n      0x20\n        /* \"#utility.yul\":4878:4887   */\n      dup3\n        /* \"#utility.yul\":4874:4892   */\n      add\n        /* \"#utility.yul\":4866:4892   */\n      swap1\n      pop\n        /* \"#utility.yul\":4938:4947   */\n      dup2\n        /* \"#utility.yul\":4932:4936   */\n      dup2\n        /* \"#utility.yul\":4928:4948   */\n      sub\n        /* \"#utility.yul\":4924:4925   */\n      0x00\n        /* \"#utility.yul\":4913:4922   */\n      dup4\n        /* \"#utility.yul\":4909:4926   */\n      add\n        /* \"#utility.yul\":4902:4949   */\n      mstore\n        /* \"#utility.yul\":4966:5097   */\n      tag_135\n        /* \"#utility.yul\":5092:5096   */\n      dup2\n        /* \"#utility.yul\":4966:5097   */\n      tag_72\n      jump\t// in\n    tag_135:\n        /* \"#utility.yul\":4958:5097   */\n      swap1\n      pop\n        /* \"#utility.yul\":4685:5104   */\n      swap2\n      swap1\n      pop\n      jump\t// out\n        /* \"#utility.yul\":5110:5290   */\n    tag_73:\n        /* \"#utility.yul\":5158:5235   */\n      0x4e487b7100000000000000000000000000000000000000000000000000000000\n        /* \"#utility.yul\":5155:5156   */\n      0x00\n        /* \"#utility.yul\":5148:5236   */\n      mstore\n        /* \"#utility.yul\":5255:5259   */\n      0x11\n        /* \"#utility.yul\":5252:5253   */\n      0x04\n        /* \"#utility.yul\":5245:5260   */\n      mstore\n        /* \"#utility.yul\":5279:5283   */\n      0x24\n        /* \"#utility.yul\":5276:5277   */\n      0x00\n        /* \"#utility.yul\":5269:5284   */\n      revert\n        /* \"#utility.yul\":5296:5601   */\n    tag_40:\n        /* \"#utility.yul\":5336:5339   */\n      0x00\n        /* \"#utility.yul\":5355:5375   */\n      tag_138\n        /* \"#utility.yul\":5373:5374   */\n      dup3\n        /* \"#utility.yul\":5355:5375   */\n      tag_58\n      jump\t// in\n    tag_138:\n        /* \"#utility.yul\":5350:5375   */\n      swap2\n      pop\n        /* \"#utility.yul\":5389:5409   */\n      tag_139\n        /* \"#utility.yul\":5407:5408   */\n      dup4\n        /* \"#utility.yul\":5389:5409   */\n      tag_58\n      jump\t// in\n    tag_139:\n        /* \"#utility.yul\":5384:5409   */\n      swap3\n      pop\n        /* \"#utility.yul\":5543:5544   */\n      dup3\n        /* \"#utility.yul\":5475:5541   */\n      0xffffffffffffffffffffffffffffffffffffffffffffffffffffffffffffffff\n        /* \"#utility.yul\":5471:5545   */\n      sub\n        /* \"#utility.yul\":5468:5469   */\n      dup3\n        /* \"#utility.yul\":5465:5546   */\n      gt\n        /* \"#utility.yul\":5462:5569   */\n      iszero\n      tag_140\n      jumpi\n        /* \"#utility.yul\":5549:5567   */\n      tag_141\n      tag_73\n      jump\t// in\n    tag_141:\n        /* \"#utility.yul\":5462:5569   */\n    tag_140:\n        /* \"#utility.yul\":5593:5594   */\n      dup3\n        /* \"#utility.yul\":5590:5591   */\n      dup3\n        /* \"#utility.yul\":5586:5595   */\n      add\n        /* \"#utility.yul\":5579:5595   */\n      swap1\n      pop\n        /* \"#utility.yul\":5296:5601   */\n      swap3\n      swap2\n      pop\n      pop\n      jump\t// out\n        /* \"#utility.yul\":5607:5829   */\n    tag_74:\n        /* \"#utility.yul\":5747:5781   */\n      0x546865206d696e696d756d2066756e6473206172656e74206163686976656420\n        /* \"#utility.yul\":5743:5744   */\n      0x00\n        /* \"#utility.yul\":5735:5741   */\n      dup3\n        /* \"#utility.yul\":5731:5745   */\n      add\n        /* \"#utility.yul\":5724:5782   */\n      mstore\n        /* \"#utility.yul\":5816:5821   */\n      0x7965740000000000000000000000000000000000000000000000000000000000\n        /* \"#utility.yul\":5811:5813   */\n      0x20\n        /* \"#utility.yul\":5803:5809   */\n      dup3\n        /* \"#utility.yul\":5799:5814   */\n      add\n        /* \"#utility.yul\":5792:5822   */\n      mstore\n        /* \"#utility.yul\":5607:5829   */\n      pop\n      jump\t// out\n        /* \"#utility.yul\":5835:6201   */\n    tag_75:\n        /* \"#utility.yul\":5977:5980   */\n      0x00\n        /* \"#utility.yul\":5998:6065   */\n      tag_144\n        /* \"#utility.yul\":6062:6064   */\n      0x23\n        /* \"#utility.yul\":6057:6060   */\n      dup4\n        /* \"#utility.yul\":5998:6065   */\n      tag_70\n      jump\t// in\n    tag_144:\n        /* \"#utility.yul\":5991:6065   */\n      swap2\n      pop\n        /* \"#utility.yul\":6074:6167   */\n      tag_145\n        /* \"#utility.yul\":6163:6166   */\n      dup3\n        /* \"#utility.yul\":6074:6167   */\n      tag_74\n      jump\t// in\n    tag_145:\n        /* \"#utility.yul\":6192:6194   */\n      0x40\n        /* \"#utility.yul\":6187:6190   */\n      dup3\n        /* \"#utility.yul\":6183:6195   */\n      add\n        /* \"#utility.yul\":6176:6195   */\n      swap1\n      pop\n        /* \"#utility.yul\":5835:6201   */\n      swap2\n      swap1\n      pop\n      jump\t// out\n        /* \"#utility.yul\":6207:6626   */\n    tag_48:\n        /* \"#utility.yul\":6373:6377   */\n      0x00\n        /* \"#utility.yul\":6411:6413   */\n      0x20\n        /* \"#utility.yul\":6400:6409   */\n      dup3\n        /* \"#utility.yul\":6396:6414   */\n      add\n        /* \"#utility.yul\":6388:6414   */\n      swap1\n      pop\n        /* \"#utility.yul\":6460:6469   */\n      dup2\n        /* \"#utility.yul\":6454:6458   */\n      dup2\n        /* \"#utility.yul\":6450:6470   */\n      sub\n        /* \"#utility.yul\":6446:6447   */\n      0x00\n        /* \"#utility.yul\":6435:6444   */\n      dup4\n        /* \"#utility.yul\":6431:6448   */\n      add\n        /* \"#utility.yul\":6424:6471   */\n      mstore\n        /* \"#utility.yul\":6488:6619   */\n      tag_147\n        /* \"#utility.yul\":6614:6618   */\n      dup2\n        /* \"#utility.yul\":6488:6619   */\n      tag_75\n      jump\t// in\n    tag_147:\n        /* \"#utility.yul\":6480:6619   */\n      swap1\n      pop\n        /* \"#utility.yul\":6207:6626   */\n      swap2\n      swap1\n      pop\n      jump\t// out\n        /* \"#utility.yul\":6632:6805   */\n    tag_76:\n        /* \"#utility.yul\":6772:6797   */\n      0x596f75277665206e6f7420656e6f7567682066756e6473000000000000000000\n        /* \"#utility.yul\":6768:6769   */\n      0x00\n        /* \"#utility.yul\":6760:6766   */\n      dup3\n        /* \"#utility.yul\":6756:6770   */\n      add\n        /* \"#utility.yul\":6749:6798   */\n      mstore\n        /* \"#utility.yul\":6632:6805   */\n      pop\n      jump\t// out\n        /* \"#utility.yul\":6811:7177   */\n    tag_77:\n        /* \"#utility.yul\":6953:6956   */\n      0x00\n        /* \"#utility.yul\":6974:7041   */\n      tag_150\n        /* \"#utility.yul\":7038:7040   */\n      0x17\n        /* \"#utility.yul\":7033:7036   */\n      dup4\n        /* \"#utility.yul\":6974:7041   */\n      tag_70\n      jump\t// in\n    tag_150:\n        /* \"#utility.yul\":6967:7041   */\n      swap2\n      pop\n        /* \"#utility.yul\":7050:7143   */\n      tag_151\n        /* \"#utility.yul\":7139:7142   */\n      dup3\n        /* \"#utility.yul\":7050:7143   */\n      tag_76\n      jump\t// in\n    tag_151:\n        /* \"#utility.yul\":7168:7170   */\n      0x20\n        /* \"#utility.yul\":7163:7166   */\n      dup3\n        /* \"#utility.yul\":7159:7171   */\n      add\n        /* \"#utility.yul\":7152:7171   */\n      swap1\n      pop\n        /* \"#utility.yul\":6811:7177   */\n      swap2\n      swap1\n      pop\n      jump\t// out\n        /* \"#utility.yul\":7183:7602   */\n    tag_51:\n        /* \"#utility.yul\":7349:7353   */\n      0x00\n        /* \"#utility.yul\":7387:7389   */\n      0x20\n        /* \"#utility.yul\":7376:7385   */\n      dup3\n        /* \"#utility.yul\":7372:7390   */\n      add\n        /* \"#utility.yul\":7364:7390   */\n      swap1\n      pop\n        /* \"#utility.yul\":7436:7445   */\n      dup2\n        /* \"#utility.yul\":7430:7434   */\n      dup2\n        /* \"#utility.yul\":7426:7446   */\n      sub\n        /* \"#utility.yul\":7422:7423   */\n      0x00\n        /* \"#utility.yul\":7411:7420   */\n      dup4\n        /* \"#utility.yul\":7407:7424   */\n      add\n        /* \"#utility.yul\":7400:7447   */\n      mstore\n        /* \"#utility.yul\":7464:7595   */\n      tag_153\n        /* \"#utility.yul\":7590:7594   */\n      dup2\n        /* \"#utility.yul\":7464:7595   */\n      tag_77\n      jump\t// in\n    tag_153:\n        /* \"#utility.yul\":7456:7595   */\n      swap1\n      pop\n        /* \"#utility.yul\":7183:7602   */\n      swap2\n      swap1\n      pop\n      jump\t// out\n        /* \"#utility.yul\":7608:7799   */\n    tag_53:\n        /* \"#utility.yul\":7648:7652   */\n      0x00\n        /* \"#utility.yul\":7668:7688   */\n      tag_155\n        /* \"#utility.yul\":7686:7687   */\n      dup3\n        /* \"#utility.yul\":7668:7688   */\n      tag_58\n      jump\t// in\n    tag_155:\n        /* \"#utility.yul\":7663:7688   */\n      swap2\n      pop\n        /* \"#utility.yul\":7702:7722   */\n      tag_156\n        /* \"#utility.yul\":7720:7721   */\n      dup4\n        /* \"#utility.yul\":7702:7722   */\n      tag_58\n      jump\t// in\n    tag_156:\n        /* \"#utility.yul\":7697:7722   */\n      swap3\n      pop\n        /* \"#utility.yul\":7741:7742   */\n      dup3\n        /* \"#utility.yul\":7738:7739   */\n      dup3\n        /* \"#utility.yul\":7735:7743   */\n      lt\n        /* \"#utility.yul\":7732:7766   */\n      iszero\n      tag_157\n      jumpi\n        /* \"#utility.yul\":7746:7764   */\n      tag_158\n      tag_73\n      jump\t// in\n    tag_158:\n        /* \"#utility.yul\":7732:7766   */\n    tag_157:\n        /* \"#utility.yul\":7791:7792   */\n      dup3\n        /* \"#utility.yul\":7788:7789   */\n      dup3\n        /* \"#utility.yul\":7784:7793   */\n      sub\n        /* \"#utility.yul\":7776:7793   */\n      swap1\n      pop\n        /* \"#utility.yul\":7608:7799   */\n      swap3\n      swap2\n      pop\n      pop\n      jump\t// out\n\n    auxdata: 0xa2646970667358221220ebcc41d4da0f4727a6a753bed0a09305c8be950915c7f50ca87e458d61f5404b64736f6c634300080d0033\n}\n",
				"bytecode": {
					"linkReferences": {},
					"object": "608060405234801561001057600080fd5b50604051610a07380380610a07833981810160405281019061003291906100bb565b33600260006101000a81548173ffffffffffffffffffffffffffffffffffffffff021916908373ffffffffffffffffffffffffffffffffffffffff16021790555080600081905550506100e8565b600080fd5b6000819050919050565b61009881610085565b81146100a357600080fd5b50565b6000815190506100b58161008f565b92915050565b6000602082840312156100d1576100d0610080565b5b60006100df848285016100a6565b91505092915050565b610910806100f76000396000f3fe608060405234801561001057600080fd5b50600436106100575760003560e01c8063248b0c1f1461005c5780637b1837de1461008c578063968ed600146100a8578063a712b310146100c6578063f3fef3a3146100f6575b600080fd5b610076600480360381019061007191906104dc565b610112565b604051610083919061054a565b60405180910390f35b6100a660048036038101906100a191906105a3565b610151565b005b6100b06102b7565b6040516100bd91906105f2565b60405180910390f35b6100e060048036038101906100db9190610639565b6102bd565b6040516100ed91906105f2565b60405180910390f35b610110600480360381019061010b9190610666565b6102d5565b005b6001818154811061012257600080fd5b906000526020600020016000915054906101000a900473ffffffffffffffffffffffffffffffffffffffff1681565b600260009054906101000a900473ffffffffffffffffffffffffffffffffffffffff1673ffffffffffffffffffffffffffffffffffffffff163373ffffffffffffffffffffffffffffffffffffffff16146101e1576040517f08c379a00000000000000000000000000000000000000000000000000000000081526004016101d890610703565b60405180910390fd5b6001829080600181540180825580915050600190039060005260206000200160009091909190916101000a81548173ffffffffffffffffffffffffffffffffffffffff021916908373ffffffffffffffffffffffffffffffffffffffff16021790555080600460008473ffffffffffffffffffffffffffffffffffffffff1673ffffffffffffffffffffffffffffffffffffffff16815260200190815260200160002060008282546102939190610752565b9250508190555080600360008282546102ac9190610752565b925050819055505050565b60035481565b60046020528060005260406000206000915090505481565b600260009054906101000a900473ffffffffffffffffffffffffffffffffffffffff1673ffffffffffffffffffffffffffffffffffffffff163373ffffffffffffffffffffffffffffffffffffffff1614610365576040517f08c379a000000000000000000000000000000000000000000000000000000000815260040161035c90610703565b60405180910390fd5b60005460035410156103ac576040517f08c379a00000000000000000000000000000000000000000000000000000000081526004016103a39061081a565b60405180910390fd5b600460008373ffffffffffffffffffffffffffffffffffffffff1673ffffffffffffffffffffffffffffffffffffffff1681526020019081526020016000205481111561042e576040517f08c379a000000000000000000000000000000000000000000000000000000000815260040161042590610886565b60405180910390fd5b80600460008473ffffffffffffffffffffffffffffffffffffffff1673ffffffffffffffffffffffffffffffffffffffff168152602001908152602001600020600082825461047d91906108a6565b92505081905550806003600082825461049691906108a6565b925050819055505050565b600080fd5b6000819050919050565b6104b9816104a6565b81146104c457600080fd5b50565b6000813590506104d6816104b0565b92915050565b6000602082840312156104f2576104f16104a1565b5b6000610500848285016104c7565b91505092915050565b600073ffffffffffffffffffffffffffffffffffffffff82169050919050565b600061053482610509565b9050919050565b61054481610529565b82525050565b600060208201905061055f600083018461053b565b92915050565b600061057082610509565b9050919050565b61058081610565565b811461058b57600080fd5b50565b60008135905061059d81610577565b92915050565b600080604083850312156105ba576105b96104a1565b5b60006105c88582860161058e565b92505060206105d9858286016104c7565b9150509250929050565b6105ec816104a6565b82525050565b600060208201905061060760008301846105e3565b92915050565b61061681610529565b811461062157600080fd5b50565b6000813590506106338161060d565b92915050565b60006020828403121561064f5761064e6104a1565b5b600061065d84828501610624565b91505092915050565b6000806040838503121561067d5761067c6104a1565b5b600061068b85828601610624565b925050602061069c858286016104c7565b9150509250929050565b600082825260208201905092915050565b7f596f75277265206e6f7420746865206f776e6572000000000000000000000000600082015250565b60006106ed6014836106a6565b91506106f8826106b7565b602082019050919050565b6000602082019050818103600083015261071c816106e0565b9050919050565b7f4e487b7100000000000000000000000000000000000000000000000000000000600052601160045260246000fd5b600061075d826104a6565b9150610768836104a6565b9250827fffffffffffffffffffffffffffffffffffffffffffffffffffffffffffffffff0382111561079d5761079c610723565b5b828201905092915050565b7f546865206d696e696d756d2066756e6473206172656e7420616368697665642060008201527f7965740000000000000000000000000000000000000000000000000000000000602082015250565b60006108046023836106a6565b915061080f826107a8565b604082019050919050565b60006020820190508181036000830152610833816107f7565b9050919050565b7f596f75277665206e6f7420656e6f7567682066756e6473000000000000000000600082015250565b60006108706017836106a6565b915061087b8261083a565b602082019050919050565b6000602082019050818103600083015261089f81610863565b9050919050565b60006108b1826104a6565b91506108bc836104a6565b9250828210156108cf576108ce610723565b5b82820390509291505056fea2646970667358221220ebcc41d4da0f4727a6a753bed0a09305c8be950915c7f50ca87e458d61f5404b64736f6c634300080d0033",
					"opcodes": "PUSH1 0x80 PUSH1 0x40 MSTORE CALLVALUE DUP1 ISZERO PUSH2 0x10 JUMPI PUSH1 0x0 DUP1 REVERT JUMPDEST POP PUSH1 0x40 MLOAD PUSH2 0xA07 CODESIZE SUB DUP1 PUSH2 0xA07 DUP4 CODECOPY DUP2 DUP2 ADD PUSH1 0x40 MSTORE DUP2 ADD SWAP1 PUSH2 0x32 SWAP2 SWAP1 PUSH2 0xBB JUMP JUMPDEST CALLER PUSH1 0x2 PUSH1 0x0 PUSH2 0x100 EXP DUP2 SLOAD DUP2 PUSH20 0xFFFFFFFFFFFFFFFFFFFFFFFFFFFFFFFFFFFFFFFF MUL NOT AND SWAP1 DUP4 PUSH20 0xFFFFFFFFFFFFFFFFFFFFFFFFFFFFFFFFFFFFFFFF AND MUL OR SWAP1 SSTORE POP DUP1 PUSH1 0x0 DUP2 SWAP1 SSTORE POP POP PUSH2 0xE8 JUMP JUMPDEST PUSH1 0x0 DUP1 REVERT JUMPDEST PUSH1 0x0 DUP2 SWAP1 POP SWAP2 SWAP1 POP JUMP JUMPDEST PUSH2 0x98 DUP2 PUSH2 0x85 JUMP JUMPDEST DUP2 EQ PUSH2 0xA3 JUMPI PUSH1 0x0 DUP1 REVERT JUMPDEST POP JUMP JUMPDEST PUSH1 0x0 DUP2 MLOAD SWAP1 POP PUSH2 0xB5 DUP2 PUSH2 0x8F JUMP JUMPDEST SWAP3 SWAP2 POP POP JUMP JUMPDEST PUSH1 0x0 PUSH1 0x20 DUP3 DUP5 SUB SLT ISZERO PUSH2 0xD1 JUMPI PUSH2 0xD0 PUSH2 0x80 JUMP JUMPDEST JUMPDEST PUSH1 0x0 PUSH2 0xDF DUP5 DUP3 DUP6 ADD PUSH2 0xA6 JUMP JUMPDEST SWAP2 POP POP SWAP3 SWAP2 POP POP JUMP JUMPDEST PUSH2 0x910 DUP1 PUSH2 0xF7 PUSH1 0x0 CODECOPY PUSH1 0x0 RETURN INVALID PUSH1 0x80 PUSH1 0x40 MSTORE CALLVALUE DUP1 ISZERO PUSH2 0x10 JUMPI PUSH1 0x0 DUP1 REVERT JUMPDEST POP PUSH1 0x4 CALLDATASIZE LT PUSH2 0x57 JUMPI PUSH1 0x0 CALLDATALOAD PUSH1 0xE0 SHR DUP1 PUSH4 0x248B0C1F EQ PUSH2 0x5C JUMPI DUP1 PUSH4 0x7B1837DE EQ PUSH2 0x8C JUMPI DUP1 PUSH4 0x968ED600 EQ PUSH2 0xA8 JUMPI DUP1 PUSH4 0xA712B310 EQ PUSH2 0xC6 JUMPI DUP1 PUSH4 0xF3FEF3A3 EQ PUSH2 0xF6 JUMPI JUMPDEST PUSH1 0x0 DUP1 REVERT JUMPDEST PUSH2 0x76 PUSH1 0x4 DUP1 CALLDATASIZE SUB DUP2 ADD SWAP1 PUSH2 0x71 SWAP2 SWAP1 PUSH2 0x4DC JUMP JUMPDEST PUSH2 0x112 JUMP JUMPDEST PUSH1 0x40 MLOAD PUSH2 0x83 SWAP2 SWAP1 PUSH2 0x54A JUMP JUMPDEST PUSH1 0x40 MLOAD DUP1 SWAP2 SUB SWAP1 RETURN JUMPDEST PUSH2 0xA6 PUSH1 0x4 DUP1 CALLDATASIZE SUB DUP2 ADD SWAP1 PUSH2 0xA1 SWAP2 SWAP1 PUSH2 0x5A3 JUMP JUMPDEST PUSH2 0x151 JUMP JUMPDEST STOP JUMPDEST PUSH2 0xB0 PUSH2 0x2B7 JUMP JUMPDEST PUSH1 0x40 MLOAD PUSH2 0xBD SWAP2 SWAP1 PUSH2 0x5F2 JUMP JUMPDEST PUSH1 0x40 MLOAD DUP1 SWAP2 SUB SWAP1 RETURN JUMPDEST PUSH2 0xE0 PUSH1 0x4 DUP1 CALLDATASIZE SUB DUP2 ADD SWAP1 PUSH2 0xDB SWAP2 SWAP1 PUSH2 0x639 JUMP JUMPDEST PUSH2 0x2BD JUMP JUMPDEST PUSH1 0x40 MLOAD PUSH2 0xED SWAP2 SWAP1 PUSH2 0x5F2 JUMP JUMPDEST PUSH1 0x40 MLOAD DUP1 SWAP2 SUB SWAP1 RETURN JUMPDEST PUSH2 0x110 PUSH1 0x4 DUP1 CALLDATASIZE SUB DUP2 ADD SWAP1 PUSH2 0x10B SWAP2 SWAP1 PUSH2 0x666 JUMP JUMPDEST PUSH2 0x2D5 JUMP JUMPDEST STOP JUMPDEST PUSH1 0x1 DUP2 DUP2 SLOAD DUP2 LT PUSH2 0x122 JUMPI PUSH1 0x0 DUP1 REVERT JUMPDEST SWAP1 PUSH1 0x0 MSTORE PUSH1 0x20 PUSH1 0x0 KECCAK256 ADD PUSH1 0x0 SWAP2 POP SLOAD SWAP1 PUSH2 0x100 EXP SWAP1 DIV PUSH20 0xFFFFFFFFFFFFFFFFFFFFFFFFFFFFFFFFFFFFFFFF AND DUP2 JUMP JUMPDEST PUSH1 0x2 PUSH1 0x0 SWAP1 SLOAD SWAP1 PUSH2 0x100 EXP SWAP1 DIV PUSH20 0xFFFFFFFFFFFFFFFFFFFFFFFFFFFFFFFFFFFFFFFF AND PUSH20 0xFFFFFFFFFFFFFFFFFFFFFFFFFFFFFFFFFFFFFFFF AND CALLER PUSH20 0xFFFFFFFFFFFFFFFFFFFFFFFFFFFFFFFFFFFFFFFF AND EQ PUSH2 0x1E1 JUMPI PUSH1 0x40 MLOAD PUSH32 0x8C379A000000000000000000000000000000000000000000000000000000000 DUP2 MSTORE PUSH1 0x4 ADD PUSH2 0x1D8 SWAP1 PUSH2 0x703 JUMP JUMPDEST PUSH1 0x40 MLOAD DUP1 SWAP2 SUB SWAP1 REVERT JUMPDEST PUSH1 0x1 DUP3 SWAP1 DUP1 PUSH1 0x1 DUP2 SLOAD ADD DUP1 DUP3 SSTORE DUP1 SWAP2 POP POP PUSH1 0x1 SWAP1 SUB SWAP1 PUSH1 0x0 MSTORE PUSH1 0x20 PUSH1 0x0 KECCAK256 ADD PUSH1 0x0 SWAP1 SWAP2 SWAP1 SWAP2 SWAP1 SWAP2 PUSH2 0x100 EXP DUP2 SLOAD DUP2 PUSH20 0xFFFFFFFFFFFFFFFFFFFFFFFFFFFFFFFFFFFFFFFF MUL NOT AND SWAP1 DUP4 PUSH20 0xFFFFFFFFFFFFFFFFFFFFFFFFFFFFFFFFFFFFFFFF AND MUL OR SWAP1 SSTORE POP DUP1 PUSH1 0x4 PUSH1 0x0 DUP5 PUSH20 0xFFFFFFFFFFFFFFFFFFFFFFFFFFFFFFFFFFFFFFFF AND PUSH20 0xFFFFFFFFFFFFFFFFFFFFFFFFFFFFFFFFFFFFFFFF AND DUP2 MSTORE PUSH1 0x20 ADD SWAP1 DUP2 MSTORE PUSH1 0x20 ADD PUSH1 0x0 KECCAK256 PUSH1 0x0 DUP3 DUP3 SLOAD PUSH2 0x293 SWAP2 SWAP1 PUSH2 0x752 JUMP JUMPDEST SWAP3 POP POP DUP2 SWAP1 SSTORE POP DUP1 PUSH1 0x3 PUSH1 0x0 DUP3 DUP3 SLOAD PUSH2 0x2AC SWAP2 SWAP1 PUSH2 0x752 JUMP JUMPDEST SWAP3 POP POP DUP2 SWAP1 SSTORE POP POP POP JUMP JUMPDEST PUSH1 0x3 SLOAD DUP2 JUMP JUMPDEST PUSH1 0x4 PUSH1 0x20 MSTORE DUP1 PUSH1 0x0 MSTORE PUSH1 0x40 PUSH1 0x0 KECCAK256 PUSH1 0x0 SWAP2 POP SWAP1 POP SLOAD DUP2 JUMP JUMPDEST PUSH1 0x2 PUSH1 0x0 SWAP1 SLOAD SWAP1 PUSH2 0x100 EXP SWAP1 DIV PUSH20 0xFFFFFFFFFFFFFFFFFFFFFFFFFFFFFFFFFFFFFFFF AND PUSH20 0xFFFFFFFFFFFFFFFFFFFFFFFFFFFFFFFFFFFFFFFF AND CALLER PUSH20 0xFFFFFFFFFFFFFFFFFFFFFFFFFFFFFFFFFFFFFFFF AND EQ PUSH2 0x365 JUMPI PUSH1 0x40 MLOAD PUSH32 0x8C379A000000000000000000000000000000000000000000000000000000000 DUP2 MSTORE PUSH1 0x4 ADD PUSH2 0x35C SWAP1 PUSH2 0x703 JUMP JUMPDEST PUSH1 0x40 MLOAD DUP1 SWAP2 SUB SWAP1 REVERT JUMPDEST PUSH1 0x0 SLOAD PUSH1 0x3 SLOAD LT ISZERO PUSH2 0x3AC JUMPI PUSH1 0x40 MLOAD PUSH32 0x8C379A000000000000000000000000000000000000000000000000000000000 DUP2 MSTORE PUSH1 0x4 ADD PUSH2 0x3A3 SWAP1 PUSH2 0x81A JUMP JUMPDEST PUSH1 0x40 MLOAD DUP1 SWAP2 SUB SWAP1 REVERT JUMPDEST PUSH1 0x4 PUSH1 0x0 DUP4 PUSH20 0xFFFFFFFFFFFFFFFFFFFFFFFFFFFFFFFFFFFFFFFF AND PUSH20 0xFFFFFFFFFFFFFFFFFFFFFFFFFFFFFFFFFFFFFFFF AND DUP2 MSTORE PUSH1 0x20 ADD SWAP1 DUP2 MSTORE PUSH1 0x20 ADD PUSH1 0x0 KECCAK256 SLOAD DUP2 GT ISZERO PUSH2 0x42E JUMPI PUSH1 0x40 MLOAD PUSH32 0x8C379A000000000000000000000000000000000000000000000000000000000 DUP2 MSTORE PUSH1 0x4 ADD PUSH2 0x425 SWAP1 PUSH2 0x886 JUMP JUMPDEST PUSH1 0x40 MLOAD DUP1 SWAP2 SUB SWAP1 REVERT JUMPDEST DUP1 PUSH1 0x4 PUSH1 0x0 DUP5 PUSH20 0xFFFFFFFFFFFFFFFFFFFFFFFFFFFFFFFFFFFFFFFF AND PUSH20 0xFFFFFFFFFFFFFFFFFFFFFFFFFFFFFFFFFFFFFFFF AND DUP2 MSTORE PUSH1 0x20 ADD SWAP1 DUP2 MSTORE PUSH1 0x20 ADD PUSH1 0x0 KECCAK256 PUSH1 0x0 DUP3 DUP3 SLOAD PUSH2 0x47D SWAP2 SWAP1 PUSH2 0x8A6 JUMP JUMPDEST SWAP3 POP POP DUP2 SWAP1 SSTORE POP DUP1 PUSH1 0x3 PUSH1 0x0 DUP3 DUP3 SLOAD PUSH2 0x496 SWAP2 SWAP1 PUSH2 0x8A6 JUMP JUMPDEST SWAP3 POP POP DUP2 SWAP1 SSTORE POP POP POP JUMP JUMPDEST PUSH1 0x0 DUP1 REVERT JUMPDEST PUSH1 0x0 DUP2 SWAP1 POP SWAP2 SWAP1 POP JUMP JUMPDEST PUSH2 0x4B9 DUP2 PUSH2 0x4A6 JUMP JUMPDEST DUP2 EQ PUSH2 0x4C4 JUMPI PUSH1 0x0 DUP1 REVERT JUMPDEST POP JUMP JUMPDEST PUSH1 0x0 DUP2 CALLDATALOAD SWAP1 POP PUSH2 0x4D6 DUP2 PUSH2 0x4B0 JUMP JUMPDEST SWAP3 SWAP2 POP POP JUMP JUMPDEST PUSH1 0x0 PUSH1 0x20 DUP3 DUP5 SUB SLT ISZERO PUSH2 0x4F2 JUMPI PUSH2 0x4F1 PUSH2 0x4A1 JUMP JUMPDEST JUMPDEST PUSH1 0x0 PUSH2 0x500 DUP5 DUP3 DUP6 ADD PUSH2 0x4C7 JUMP JUMPDEST SWAP2 POP POP SWAP3 SWAP2 POP POP JUMP JUMPDEST PUSH1 0x0 PUSH20 0xFFFFFFFFFFFFFFFFFFFFFFFFFFFFFFFFFFFFFFFF DUP3 AND SWAP1 POP SWAP2 SWAP1 POP JUMP JUMPDEST PUSH1 0x0 PUSH2 0x534 DUP3 PUSH2 0x509 JUMP JUMPDEST SWAP1 POP SWAP2 SWAP1 POP JUMP JUMPDEST PUSH2 0x544 DUP2 PUSH2 0x529 JUMP JUMPDEST DUP3 MSTORE POP POP JUMP JUMPDEST PUSH1 0x0 PUSH1 0x20 DUP3 ADD SWAP1 POP PUSH2 0x55F PUSH1 0x0 DUP4 ADD DUP5 PUSH2 0x53B JUMP JUMPDEST SWAP3 SWAP2 POP POP JUMP JUMPDEST PUSH1 0x0 PUSH2 0x570 DUP3 PUSH2 0x509 JUMP JUMPDEST SWAP1 POP SWAP2 SWAP1 POP JUMP JUMPDEST PUSH2 0x580 DUP2 PUSH2 0x565 JUMP JUMPDEST DUP2 EQ PUSH2 0x58B JUMPI PUSH1 0x0 DUP1 REVERT JUMPDEST POP JUMP JUMPDEST PUSH1 0x0 DUP2 CALLDATALOAD SWAP1 POP PUSH2 0x59D DUP2 PUSH2 0x577 JUMP JUMPDEST SWAP3 SWAP2 POP POP JUMP JUMPDEST PUSH1 0x0 DUP1 PUSH1 0x40 DUP4 DUP6 SUB SLT ISZERO PUSH2 0x5BA JUMPI PUSH2 0x5B9 PUSH2 0x4A1 JUMP JUMPDEST JUMPDEST PUSH1 0x0 PUSH2 0x5C8 DUP6 DUP3 DUP7 ADD PUSH2 0x58E JUMP JUMPDEST SWAP3 POP POP PUSH1 0x20 PUSH2 0x5D9 DUP6 DUP3 DUP7 ADD PUSH2 0x4C7 JUMP JUMPDEST SWAP2 POP POP SWAP3 POP SWAP3 SWAP1 POP JUMP JUMPDEST PUSH2 0x5EC DUP2 PUSH2 0x4A6 JUMP JUMPDEST DUP3 MSTORE POP POP JUMP JUMPDEST PUSH1 0x0 PUSH1 0x20 DUP3 ADD SWAP1 POP PUSH2 0x607 PUSH1 0x0 DUP4 ADD DUP5 PUSH2 0x5E3 JUMP JUMPDEST SWAP3 SWAP2 POP POP JUMP JUMPDEST PUSH2 0x616 DUP2 PUSH2 0x529 JUMP JUMPDEST DUP2 EQ PUSH2 0x621 JUMPI PUSH1 0x0 DUP1 REVERT JUMPDEST POP JUMP JUMPDEST PUSH1 0x0 DUP2 CALLDATALOAD SWAP1 POP PUSH2 0x633 DUP2 PUSH2 0x60D JUMP JUMPDEST SWAP3 SWAP2 POP POP JUMP JUMPDEST PUSH1 0x0 PUSH1 0x20 DUP3 DUP5 SUB SLT ISZERO PUSH2 0x64F JUMPI PUSH2 0x64E PUSH2 0x4A1 JUMP JUMPDEST JUMPDEST PUSH1 0x0 PUSH2 0x65D DUP5 DUP3 DUP6 ADD PUSH2 0x624 JUMP JUMPDEST SWAP2 POP POP SWAP3 SWAP2 POP POP JUMP JUMPDEST PUSH1 0x0 DUP1 PUSH1 0x40 DUP4 DUP6 SUB SLT ISZERO PUSH2 0x67D JUMPI PUSH2 0x67C PUSH2 0x4A1 JUMP JUMPDEST JUMPDEST PUSH1 0x0 PUSH2 0x68B DUP6 DUP3 DUP7 ADD PUSH2 0x624 JUMP JUMPDEST SWAP3 POP POP PUSH1 0x20 PUSH2 0x69C DUP6 DUP3 DUP7 ADD PUSH2 0x4C7 JUMP JUMPDEST SWAP2 POP POP SWAP3 POP SWAP3 SWAP1 POP JUMP JUMPDEST PUSH1 0x0 DUP3 DUP3 MSTORE PUSH1 0x20 DUP3 ADD SWAP1 POP SWAP3 SWAP2 POP POP JUMP JUMPDEST PUSH32 0x596F75277265206E6F7420746865206F776E6572000000000000000000000000 PUSH1 0x0 DUP3 ADD MSTORE POP JUMP JUMPDEST PUSH1 0x0 PUSH2 0x6ED PUSH1 0x14 DUP4 PUSH2 0x6A6 JUMP JUMPDEST SWAP2 POP PUSH2 0x6F8 DUP3 PUSH2 0x6B7 JUMP JUMPDEST PUSH1 0x20 DUP3 ADD SWAP1 POP SWAP2 SWAP1 POP JUMP JUMPDEST PUSH1 0x0 PUSH1 0x20 DUP3 ADD SWAP1 POP DUP2 DUP2 SUB PUSH1 0x0 DUP4 ADD MSTORE PUSH2 0x71C DUP2 PUSH2 0x6E0 JUMP JUMPDEST SWAP1 POP SWAP2 SWAP1 POP JUMP JUMPDEST PUSH32 0x4E487B7100000000000000000000000000000000000000000000000000000000 PUSH1 0x0 MSTORE PUSH1 0x11 PUSH1 0x4 MSTORE PUSH1 0x24 PUSH1 0x0 REVERT JUMPDEST PUSH1 0x0 PUSH2 0x75D DUP3 PUSH2 0x4A6 JUMP JUMPDEST SWAP2 POP PUSH2 0x768 DUP4 PUSH2 0x4A6 JUMP JUMPDEST SWAP3 POP DUP3 PUSH32 0xFFFFFFFFFFFFFFFFFFFFFFFFFFFFFFFFFFFFFFFFFFFFFFFFFFFFFFFFFFFFFFFF SUB DUP3 GT ISZERO PUSH2 0x79D JUMPI PUSH2 0x79C PUSH2 0x723 JUMP JUMPDEST JUMPDEST DUP3 DUP3 ADD SWAP1 POP SWAP3 SWAP2 POP POP JUMP JUMPDEST PUSH32 0x546865206D696E696D756D2066756E6473206172656E74206163686976656420 PUSH1 0x0 DUP3 ADD MSTORE PUSH32 0x7965740000000000000000000000000000000000000000000000000000000000 PUSH1 0x20 DUP3 ADD MSTORE POP JUMP JUMPDEST PUSH1 0x0 PUSH2 0x804 PUSH1 0x23 DUP4 PUSH2 0x6A6 JUMP JUMPDEST SWAP2 POP PUSH2 0x80F DUP3 PUSH2 0x7A8 JUMP JUMPDEST PUSH1 0x40 DUP3 ADD SWAP1 POP SWAP2 SWAP1 POP JUMP JUMPDEST PUSH1 0x0 PUSH1 0x20 DUP3 ADD SWAP1 POP DUP2 DUP2 SUB PUSH1 0x0 DUP4 ADD MSTORE PUSH2 0x833 DUP2 PUSH2 0x7F7 JUMP JUMPDEST SWAP1 POP SWAP2 SWAP1 POP JUMP JUMPDEST PUSH32 0x596F75277665206E6F7420656E6F7567682066756E6473000000000000000000 PUSH1 0x0 DUP3 ADD MSTORE POP JUMP JUMPDEST PUSH1 0x0 PUSH2 0x870 PUSH1 0x17 DUP4 PUSH2 0x6A6 JUMP JUMPDEST SWAP2 POP PUSH2 0x87B DUP3 PUSH2 0x83A JUMP JUMPDEST PUSH1 0x20 DUP3 ADD SWAP1 POP SWAP2 SWAP1 POP JUMP JUMPDEST PUSH1 0x0 PUSH1 0x20 DUP3 ADD SWAP1 POP DUP2 DUP2 SUB PUSH1 0x0 DUP4 ADD MSTORE PUSH2 0x89F DUP2 PUSH2 0x863 JUMP JUMPDEST SWAP1 POP SWAP2 SWAP1 POP JUMP JUMPDEST PUSH1 0x0 PUSH2 0x8B1 DUP3 PUSH2 0x4A6 JUMP JUMPDEST SWAP2 POP PUSH2 0x8BC DUP4 PUSH2 0x4A6 JUMP JUMPDEST SWAP3 POP DUP3 DUP3 LT ISZERO PUSH2 0x8CF JUMPI PUSH2 0x8CE PUSH2 0x723 JUMP JUMPDEST JUMPDEST DUP3 DUP3 SUB SWAP1 POP SWAP3 SWAP2 POP POP JUMP INVALID LOG2 PUSH5 0x6970667358 0x22 SLT KECCAK256 0xEB 0xCC COINBASE 0xD4 0xDA 0xF SELFBALANCE 0x27 0xA6 0xA7 MSTORE8 0xBE 0xD0 LOG0 SWAP4 SDIV 0xC8 0xBE SWAP6 MULMOD ISZERO 0xC7 CREATE2 0xC 0xA8 PUSH31 0x458D61F5404B64736F6C634300080D00330000000000000000000000000000 "
				},
				"gasEstimates": {
					"creation": {
						"codeDepositCost": "464000",
						"executionCost": "infinite",
						"totalCost": "infinite"
					},
					"external": {
						"fund(address,uint256)": "infinite",
						"funderArray(uint256)": "4934",
						"fundsAmountOfAddress(address)": "2858",
						"totalFunds()": "2451",
						"withdraw(address,uint256)": "infinite"
					}
				},
				"methodIdentifiers": {
					"fund(address,uint256)": "7b1837de",
					"funderArray(uint256)": "248b0c1f",
					"fundsAmountOfAddress(address)": "a712b310",
					"totalFunds()": "968ed600",
					"withdraw(address,uint256)": "f3fef3a3"
				}
			},
			"storageLayout": {
				"storage": [
					{
						"astId": 3,
						"contract": "FreeCodeCamp/FundMe/Fundme-SelfTryFirst.sol:FundMe",
						"label": "minimumFundsValue",
						"offset": 0,
						"slot": "0",
						"type": "t_uint256"
					},
					{
						"astId": 6,
						"contract": "FreeCodeCamp/FundMe/Fundme-SelfTryFirst.sol:FundMe",
						"label": "funderArray",
						"offset": 0,
						"slot": "1",
						"type": "t_array(t_address)dyn_storage"
					},
					{
						"astId": 8,
						"contract": "FreeCodeCamp/FundMe/Fundme-SelfTryFirst.sol:FundMe",
						"label": "owner",
						"offset": 0,
						"slot": "2",
						"type": "t_address"
					},
					{
						"astId": 10,
						"contract": "FreeCodeCamp/FundMe/Fundme-SelfTryFirst.sol:FundMe",
						"label": "totalFunds",
						"offset": 0,
						"slot": "3",
						"type": "t_uint256"
					},
					{
						"astId": 41,
						"contract": "FreeCodeCamp/FundMe/Fundme-SelfTryFirst.sol:FundMe",
						"label": "fundsAmountOfAddress",
						"offset": 0,
						"slot": "4",
						"type": "t_mapping(t_address,t_uint256)"
					}
				],
				"types": {
					"t_address": {
						"encoding": "inplace",
						"label": "address",
						"numberOfBytes": "20"
					},
					"t_array(t_address)dyn_storage": {
						"base": "t_address",
						"encoding": "dynamic_array",
						"label": "address[]",
						"numberOfBytes": "32"
					},
					"t_mapping(t_address,t_uint256)": {
						"encoding": "mapping",
						"key": "t_address",
						"label": "mapping(address => uint256)",
						"numberOfBytes": "32",
						"value": "t_uint256"
					},
					"t_uint256": {
						"encoding": "inplace",
						"label": "uint256",
						"numberOfBytes": "32"
					}
				}
			},
			"userdoc": {
				"kind": "user",
				"methods": {},
				"version": 1
			}
		}
	}
}