{
	"FreeCodeCamp/FundMe/FundMe.sol": {
		"FundMe": {
			"abi": [
				{
					"inputs": [],
					"name": "fund",
					"outputs": [],
					"stateMutability": "payable",
					"type": "function"
				},
				{
					"inputs": [
						{
							"internalType": "address",
							"name": "",
							"type": "address"
						}
					],
					"name": "fundsAmountOfAddress",
					"outputs": [
						{
							"internalType": "uint256",
							"name": "",
							"type": "uint256"
						}
					],
					"stateMutability": "view",
					"type": "function"
				},
				{
					"inputs": [],
					"name": "getConversionRate",
					"outputs": [],
					"stateMutability": "nonpayable",
					"type": "function"
				},
				{
					"inputs": [],
					"name": "getPrice",
					"outputs": [
						{
							"internalType": "int256",
							"name": "",
							"type": "int256"
						}
					],
					"stateMutability": "view",
					"type": "function"
				},
				{
					"inputs": [],
					"name": "getVersion",
					"outputs": [
						{
							"internalType": "uint256",
							"name": "",
							"type": "uint256"
						}
					],
					"stateMutability": "view",
					"type": "function"
				},
				{
					"inputs": [],
					"name": "minimumUsd",
					"outputs": [
						{
							"internalType": "uint256",
							"name": "",
							"type": "uint256"
						}
					],
					"stateMutability": "view",
					"type": "function"
				}
			],
			"devdoc": {
				"kind": "dev",
				"methods": {},
				"version": 1
			},
			"evm": {
				"assembly": "    /* \"FreeCodeCamp/FundMe/FundMe.sol\":214:2675  contract FundMe {... */\n  mstore(0x40, 0x80)\n    /* \"FreeCodeCamp/FundMe/FundMe.sol\":265:267  50 */\n  0x32\n    /* \"FreeCodeCamp/FundMe/FundMe.sol\":237:267  uint256 public minimumUsd = 50 */\n  0x00\n  sstore\n    /* \"FreeCodeCamp/FundMe/FundMe.sol\":214:2675  contract FundMe {... */\n  callvalue\n  dup1\n  iszero\n  tag_1\n  jumpi\n  0x00\n  dup1\n  revert\ntag_1:\n  pop\n  dataSize(sub_0)\n  dup1\n  dataOffset(sub_0)\n  0x00\n  codecopy\n  0x00\n  return\nstop\n\nsub_0: assembly {\n        /* \"FreeCodeCamp/FundMe/FundMe.sol\":214:2675  contract FundMe {... */\n      mstore(0x40, 0x80)\n      jumpi(tag_1, lt(calldatasize, 0x04))\n      shr(0xe0, calldataload(0x00))\n      dup1\n      0x098de820\n      eq\n      tag_2\n      jumpi\n      dup1\n      0x0d8e6e2c\n      eq\n      tag_3\n      jumpi\n      dup1\n      0x98d5fdca\n      eq\n      tag_4\n      jumpi\n      dup1\n      0xa712b310\n      eq\n      tag_5\n      jumpi\n      dup1\n      0xb60d4288\n      eq\n      tag_6\n      jumpi\n      dup1\n      0xf36089ec\n      eq\n      tag_7\n      jumpi\n    tag_1:\n      0x00\n      dup1\n      revert\n        /* \"FreeCodeCamp/FundMe/FundMe.sol\":237:267  uint256 public minimumUsd = 50 */\n    tag_2:\n      callvalue\n      dup1\n      iszero\n      tag_8\n      jumpi\n      0x00\n      dup1\n      revert\n    tag_8:\n      pop\n      tag_9\n      tag_10\n      jump\t// in\n    tag_9:\n      mload(0x40)\n      tag_11\n      swap2\n      swap1\n      tag_12\n      jump\t// in\n    tag_11:\n      mload(0x40)\n      dup1\n      swap2\n      sub\n      swap1\n      return\n        /* \"FreeCodeCamp/FundMe/FundMe.sol\":1945:2148  function getVersion() public view returns(uint256) {... */\n    tag_3:\n      callvalue\n      dup1\n      iszero\n      tag_13\n      jumpi\n      0x00\n      dup1\n      revert\n    tag_13:\n      pop\n      tag_14\n      tag_15\n      jump\t// in\n    tag_14:\n      mload(0x40)\n      tag_16\n      swap2\n      swap1\n      tag_12\n      jump\t// in\n    tag_16:\n      mload(0x40)\n      dup1\n      swap2\n      sub\n      swap1\n      return\n        /* \"FreeCodeCamp/FundMe/FundMe.sol\":1369:1864  function getPrice() public view returns(int) {... */\n    tag_4:\n      callvalue\n      dup1\n      iszero\n      tag_17\n      jumpi\n      0x00\n      dup1\n      revert\n    tag_17:\n      pop\n      tag_18\n      tag_19\n      jump\t// in\n    tag_18:\n      mload(0x40)\n      tag_20\n      swap2\n      swap1\n      tag_21\n      jump\t// in\n    tag_20:\n      mload(0x40)\n      dup1\n      swap2\n      sub\n      swap1\n      return\n        /* \"FreeCodeCamp/FundMe/FundMe.sol\":694:746  mapping(address => uint) public fundsAmountOfAddress */\n    tag_5:\n      callvalue\n      dup1\n      iszero\n      tag_22\n      jumpi\n      0x00\n      dup1\n      revert\n    tag_22:\n      pop\n      tag_23\n      0x04\n      dup1\n      calldatasize\n      sub\n      dup2\n      add\n      swap1\n      tag_24\n      swap2\n      swap1\n      tag_25\n      jump\t// in\n    tag_24:\n      tag_26\n      jump\t// in\n    tag_23:\n      mload(0x40)\n      tag_27\n      swap2\n      swap1\n      tag_12\n      jump\t// in\n    tag_27:\n      mload(0x40)\n      dup1\n      swap2\n      sub\n      swap1\n      return\n        /* \"FreeCodeCamp/FundMe/FundMe.sol\":946:1363  function fund() public payable {... */\n    tag_6:\n      tag_28\n      tag_29\n      jump\t// in\n    tag_28:\n      stop\n        /* \"FreeCodeCamp/FundMe/FundMe.sol\":2155:2193  function getConversionRate() public {} */\n    tag_7:\n      callvalue\n      dup1\n      iszero\n      tag_30\n      jumpi\n      0x00\n      dup1\n      revert\n    tag_30:\n      pop\n      tag_31\n      tag_32\n      jump\t// in\n    tag_31:\n      stop\n        /* \"FreeCodeCamp/FundMe/FundMe.sol\":237:267  uint256 public minimumUsd = 50 */\n    tag_10:\n      sload(0x00)\n      dup2\n      jump\t// out\n        /* \"FreeCodeCamp/FundMe/FundMe.sol\":1945:2148  function getVersion() public view returns(uint256) {... */\n    tag_15:\n        /* \"FreeCodeCamp/FundMe/FundMe.sol\":1987:1994  uint256 */\n      0x00\n        /* \"FreeCodeCamp/FundMe/FundMe.sol\":2006:2037  AggregatorV3Interface priceFeed */\n      dup1\n        /* \"FreeCodeCamp/FundMe/FundMe.sol\":2062:2104  0xD4a33860578De61DBAbDc8BFdb98FD742fA7028e */\n      0xd4a33860578de61dbabdc8bfdb98fd742fa7028e\n        /* \"FreeCodeCamp/FundMe/FundMe.sol\":2006:2105  AggregatorV3Interface priceFeed = AggregatorV3Interface(0xD4a33860578De61DBAbDc8BFdb98FD742fA7028e) */\n      swap1\n      pop\n        /* \"FreeCodeCamp/FundMe/FundMe.sol\":2122:2131  priceFeed */\n      dup1\n        /* \"FreeCodeCamp/FundMe/FundMe.sol\":2122:2139  priceFeed.version */\n      0xffffffffffffffffffffffffffffffffffffffff\n      and\n      0x54fd4d50\n        /* \"FreeCodeCamp/FundMe/FundMe.sol\":2122:2141  priceFeed.version() */\n      mload(0x40)\n      dup2\n      0xffffffff\n      and\n      0xe0\n      shl\n      dup2\n      mstore\n      0x04\n      add\n      0x20\n      mload(0x40)\n      dup1\n      dup4\n      sub\n      dup2\n      dup7\n      gas\n      staticcall\n      iszero\n      dup1\n      iszero\n      tag_35\n      jumpi\n      returndatasize\n      0x00\n      dup1\n      returndatacopy\n      revert(0x00, returndatasize)\n    tag_35:\n      pop\n      pop\n      pop\n      pop\n      mload(0x40)\n      returndatasize\n      not(0x1f)\n      0x1f\n      dup3\n      add\n      and\n      dup3\n      add\n      dup1\n      0x40\n      mstore\n      pop\n      dup2\n      add\n      swap1\n      tag_36\n      swap2\n      swap1\n      tag_37\n      jump\t// in\n    tag_36:\n        /* \"FreeCodeCamp/FundMe/FundMe.sol\":2115:2141  return priceFeed.version() */\n      swap2\n      pop\n      pop\n        /* \"FreeCodeCamp/FundMe/FundMe.sol\":1945:2148  function getVersion() public view returns(uint256) {... */\n      swap1\n      jump\t// out\n        /* \"FreeCodeCamp/FundMe/FundMe.sol\":1369:1864  function getPrice() public view returns(int) {... */\n    tag_19:\n        /* \"FreeCodeCamp/FundMe/FundMe.sol\":1409:1412  int */\n      0x00\n        /* \"FreeCodeCamp/FundMe/FundMe.sol\":1440:1471  AggregatorV3Interface priceFeed */\n      dup1\n        /* \"FreeCodeCamp/FundMe/FundMe.sol\":1496:1538  0xD4a33860578De61DBAbDc8BFdb98FD742fA7028e */\n      0xd4a33860578de61dbabdc8bfdb98fd742fa7028e\n        /* \"FreeCodeCamp/FundMe/FundMe.sol\":1440:1539  AggregatorV3Interface priceFeed = AggregatorV3Interface(0xD4a33860578De61DBAbDc8BFdb98FD742fA7028e) */\n      swap1\n      pop\n        /* \"FreeCodeCamp/FundMe/FundMe.sol\":1681:1690  int price */\n      0x00\n        /* \"FreeCodeCamp/FundMe/FundMe.sol\":1807:1816  priceFeed */\n      dup2\n        /* \"FreeCodeCamp/FundMe/FundMe.sol\":1807:1832  priceFeed.latestRoundData */\n      0xffffffffffffffffffffffffffffffffffffffff\n      and\n      0xfeaf968c\n        /* \"FreeCodeCamp/FundMe/FundMe.sol\":1807:1834  priceFeed.latestRoundData() */\n      mload(0x40)\n      dup2\n      0xffffffff\n      and\n      0xe0\n      shl\n      dup2\n      mstore\n      0x04\n      add\n      0xa0\n      mload(0x40)\n      dup1\n      dup4\n      sub\n      dup2\n      dup7\n      gas\n      staticcall\n      iszero\n      dup1\n      iszero\n      tag_40\n      jumpi\n      returndatasize\n      0x00\n      dup1\n      returndatacopy\n      revert(0x00, returndatasize)\n    tag_40:\n      pop\n      pop\n      pop\n      pop\n      mload(0x40)\n      returndatasize\n      not(0x1f)\n      0x1f\n      dup3\n      add\n      and\n      dup3\n      add\n      dup1\n      0x40\n      mstore\n      pop\n      dup2\n      add\n      swap1\n      tag_41\n      swap2\n      swap1\n      tag_42\n      jump\t// in\n    tag_41:\n        /* \"FreeCodeCamp/FundMe/FundMe.sol\":1633:1834  (... */\n      pop\n      pop\n      pop\n      swap2\n      pop\n      pop\n        /* \"FreeCodeCamp/FundMe/FundMe.sol\":1852:1857  price */\n      dup1\n        /* \"FreeCodeCamp/FundMe/FundMe.sol\":1845:1857  return price */\n      swap3\n      pop\n      pop\n      pop\n        /* \"FreeCodeCamp/FundMe/FundMe.sol\":1369:1864  function getPrice() public view returns(int) {... */\n      swap1\n      jump\t// out\n        /* \"FreeCodeCamp/FundMe/FundMe.sol\":694:746  mapping(address => uint) public fundsAmountOfAddress */\n    tag_26:\n      mstore(0x20, 0x01)\n      dup1\n      0x00\n      mstore\n      keccak256(0x00, 0x40)\n      0x00\n      swap2\n      pop\n      swap1\n      pop\n      sload\n      dup2\n      jump\t// out\n        /* \"FreeCodeCamp/FundMe/FundMe.sol\":946:1363  function fund() public payable {... */\n    tag_29:\n        /* \"FreeCodeCamp/FundMe/FundMe.sol\":1116:1126  minimumUsd */\n      sload(0x00)\n        /* \"FreeCodeCamp/FundMe/FundMe.sol\":1103:1112  msg.value */\n      callvalue\n        /* \"FreeCodeCamp/FundMe/FundMe.sol\":1103:1126  msg.value >= minimumUsd */\n      lt\n      iszero\n        /* \"FreeCodeCamp/FundMe/FundMe.sol\":1095:1150  require(msg.value >= minimumUsd, \"Didn't send enough!\") */\n      tag_44\n      jumpi\n      mload(0x40)\n      0x08c379a000000000000000000000000000000000000000000000000000000000\n      dup2\n      mstore\n      0x04\n      add\n      tag_45\n      swap1\n      tag_46\n      jump\t// in\n    tag_45:\n      mload(0x40)\n      dup1\n      swap2\n      sub\n      swap1\n      revert\n    tag_44:\n        /* \"FreeCodeCamp/FundMe/FundMe.sol\":946:1363  function fund() public payable {... */\n      jump\t// out\n        /* \"FreeCodeCamp/FundMe/FundMe.sol\":2155:2193  function getConversionRate() public {} */\n    tag_32:\n      jump\t// out\n        /* \"#utility.yul\":7:84   */\n    tag_48:\n        /* \"#utility.yul\":44:51   */\n      0x00\n        /* \"#utility.yul\":73:78   */\n      dup2\n        /* \"#utility.yul\":62:78   */\n      swap1\n      pop\n        /* \"#utility.yul\":7:84   */\n      swap2\n      swap1\n      pop\n      jump\t// out\n        /* \"#utility.yul\":90:208   */\n    tag_49:\n        /* \"#utility.yul\":177:201   */\n      tag_72\n        /* \"#utility.yul\":195:200   */\n      dup2\n        /* \"#utility.yul\":177:201   */\n      tag_48\n      jump\t// in\n    tag_72:\n        /* \"#utility.yul\":172:175   */\n      dup3\n        /* \"#utility.yul\":165:202   */\n      mstore\n        /* \"#utility.yul\":90:208   */\n      pop\n      pop\n      jump\t// out\n        /* \"#utility.yul\":214:436   */\n    tag_12:\n        /* \"#utility.yul\":307:311   */\n      0x00\n        /* \"#utility.yul\":345:347   */\n      0x20\n        /* \"#utility.yul\":334:343   */\n      dup3\n        /* \"#utility.yul\":330:348   */\n      add\n        /* \"#utility.yul\":322:348   */\n      swap1\n      pop\n        /* \"#utility.yul\":358:429   */\n      tag_74\n        /* \"#utility.yul\":426:427   */\n      0x00\n        /* \"#utility.yul\":415:424   */\n      dup4\n        /* \"#utility.yul\":411:428   */\n      add\n        /* \"#utility.yul\":402:408   */\n      dup5\n        /* \"#utility.yul\":358:429   */\n      tag_49\n      jump\t// in\n    tag_74:\n        /* \"#utility.yul\":214:436   */\n      swap3\n      swap2\n      pop\n      pop\n      jump\t// out\n        /* \"#utility.yul\":442:518   */\n    tag_50:\n        /* \"#utility.yul\":478:485   */\n      0x00\n        /* \"#utility.yul\":507:512   */\n      dup2\n        /* \"#utility.yul\":496:512   */\n      swap1\n      pop\n        /* \"#utility.yul\":442:518   */\n      swap2\n      swap1\n      pop\n      jump\t// out\n        /* \"#utility.yul\":524:639   */\n    tag_51:\n        /* \"#utility.yul\":609:632   */\n      tag_77\n        /* \"#utility.yul\":626:631   */\n      dup2\n        /* \"#utility.yul\":609:632   */\n      tag_50\n      jump\t// in\n    tag_77:\n        /* \"#utility.yul\":604:607   */\n      dup3\n        /* \"#utility.yul\":597:633   */\n      mstore\n        /* \"#utility.yul\":524:639   */\n      pop\n      pop\n      jump\t// out\n        /* \"#utility.yul\":645:863   */\n    tag_21:\n        /* \"#utility.yul\":736:740   */\n      0x00\n        /* \"#utility.yul\":774:776   */\n      0x20\n        /* \"#utility.yul\":763:772   */\n      dup3\n        /* \"#utility.yul\":759:777   */\n      add\n        /* \"#utility.yul\":751:777   */\n      swap1\n      pop\n        /* \"#utility.yul\":787:856   */\n      tag_79\n        /* \"#utility.yul\":853:854   */\n      0x00\n        /* \"#utility.yul\":842:851   */\n      dup4\n        /* \"#utility.yul\":838:855   */\n      add\n        /* \"#utility.yul\":829:835   */\n      dup5\n        /* \"#utility.yul\":787:856   */\n      tag_51\n      jump\t// in\n    tag_79:\n        /* \"#utility.yul\":645:863   */\n      swap3\n      swap2\n      pop\n      pop\n      jump\t// out\n        /* \"#utility.yul\":950:1067   */\n    tag_53:\n        /* \"#utility.yul\":1059:1060   */\n      0x00\n        /* \"#utility.yul\":1056:1057   */\n      dup1\n        /* \"#utility.yul\":1049:1061   */\n      revert\n        /* \"#utility.yul\":1196:1322   */\n    tag_55:\n        /* \"#utility.yul\":1233:1240   */\n      0x00\n        /* \"#utility.yul\":1273:1315   */\n      0xffffffffffffffffffffffffffffffffffffffff\n        /* \"#utility.yul\":1266:1271   */\n      dup3\n        /* \"#utility.yul\":1262:1316   */\n      and\n        /* \"#utility.yul\":1251:1316   */\n      swap1\n      pop\n        /* \"#utility.yul\":1196:1322   */\n      swap2\n      swap1\n      pop\n      jump\t// out\n        /* \"#utility.yul\":1328:1424   */\n    tag_56:\n        /* \"#utility.yul\":1365:1372   */\n      0x00\n        /* \"#utility.yul\":1394:1418   */\n      tag_85\n        /* \"#utility.yul\":1412:1417   */\n      dup3\n        /* \"#utility.yul\":1394:1418   */\n      tag_55\n      jump\t// in\n    tag_85:\n        /* \"#utility.yul\":1383:1418   */\n      swap1\n      pop\n        /* \"#utility.yul\":1328:1424   */\n      swap2\n      swap1\n      pop\n      jump\t// out\n        /* \"#utility.yul\":1430:1552   */\n    tag_57:\n        /* \"#utility.yul\":1503:1527   */\n      tag_87\n        /* \"#utility.yul\":1521:1526   */\n      dup2\n        /* \"#utility.yul\":1503:1527   */\n      tag_56\n      jump\t// in\n    tag_87:\n        /* \"#utility.yul\":1496:1501   */\n      dup2\n        /* \"#utility.yul\":1493:1528   */\n      eq\n        /* \"#utility.yul\":1483:1546   */\n      tag_88\n      jumpi\n        /* \"#utility.yul\":1542:1543   */\n      0x00\n        /* \"#utility.yul\":1539:1540   */\n      dup1\n        /* \"#utility.yul\":1532:1544   */\n      revert\n        /* \"#utility.yul\":1483:1546   */\n    tag_88:\n        /* \"#utility.yul\":1430:1552   */\n      pop\n      jump\t// out\n        /* \"#utility.yul\":1558:1697   */\n    tag_58:\n        /* \"#utility.yul\":1604:1609   */\n      0x00\n        /* \"#utility.yul\":1642:1648   */\n      dup2\n        /* \"#utility.yul\":1629:1649   */\n      calldataload\n        /* \"#utility.yul\":1620:1649   */\n      swap1\n      pop\n        /* \"#utility.yul\":1658:1691   */\n      tag_90\n        /* \"#utility.yul\":1685:1690   */\n      dup2\n        /* \"#utility.yul\":1658:1691   */\n      tag_57\n      jump\t// in\n    tag_90:\n        /* \"#utility.yul\":1558:1697   */\n      swap3\n      swap2\n      pop\n      pop\n      jump\t// out\n        /* \"#utility.yul\":1703:2032   */\n    tag_25:\n        /* \"#utility.yul\":1762:1768   */\n      0x00\n        /* \"#utility.yul\":1811:1813   */\n      0x20\n        /* \"#utility.yul\":1799:1808   */\n      dup3\n        /* \"#utility.yul\":1790:1797   */\n      dup5\n        /* \"#utility.yul\":1786:1809   */\n      sub\n        /* \"#utility.yul\":1782:1814   */\n      slt\n        /* \"#utility.yul\":1779:1898   */\n      iszero\n      tag_92\n      jumpi\n        /* \"#utility.yul\":1817:1896   */\n      tag_93\n      tag_53\n      jump\t// in\n    tag_93:\n        /* \"#utility.yul\":1779:1898   */\n    tag_92:\n        /* \"#utility.yul\":1937:1938   */\n      0x00\n        /* \"#utility.yul\":1962:2015   */\n      tag_94\n        /* \"#utility.yul\":2007:2014   */\n      dup5\n        /* \"#utility.yul\":1998:2004   */\n      dup3\n        /* \"#utility.yul\":1987:1996   */\n      dup6\n        /* \"#utility.yul\":1983:2005   */\n      add\n        /* \"#utility.yul\":1962:2015   */\n      tag_58\n      jump\t// in\n    tag_94:\n        /* \"#utility.yul\":1952:2015   */\n      swap2\n      pop\n        /* \"#utility.yul\":1908:2025   */\n      pop\n        /* \"#utility.yul\":1703:2032   */\n      swap3\n      swap2\n      pop\n      pop\n      jump\t// out\n        /* \"#utility.yul\":2038:2160   */\n    tag_59:\n        /* \"#utility.yul\":2111:2135   */\n      tag_96\n        /* \"#utility.yul\":2129:2134   */\n      dup2\n        /* \"#utility.yul\":2111:2135   */\n      tag_48\n      jump\t// in\n    tag_96:\n        /* \"#utility.yul\":2104:2109   */\n      dup2\n        /* \"#utility.yul\":2101:2136   */\n      eq\n        /* \"#utility.yul\":2091:2154   */\n      tag_97\n      jumpi\n        /* \"#utility.yul\":2150:2151   */\n      0x00\n        /* \"#utility.yul\":2147:2148   */\n      dup1\n        /* \"#utility.yul\":2140:2152   */\n      revert\n        /* \"#utility.yul\":2091:2154   */\n    tag_97:\n        /* \"#utility.yul\":2038:2160   */\n      pop\n      jump\t// out\n        /* \"#utility.yul\":2166:2309   */\n    tag_60:\n        /* \"#utility.yul\":2223:2228   */\n      0x00\n        /* \"#utility.yul\":2254:2260   */\n      dup2\n        /* \"#utility.yul\":2248:2261   */\n      mload\n        /* \"#utility.yul\":2239:2261   */\n      swap1\n      pop\n        /* \"#utility.yul\":2270:2303   */\n      tag_99\n        /* \"#utility.yul\":2297:2302   */\n      dup2\n        /* \"#utility.yul\":2270:2303   */\n      tag_59\n      jump\t// in\n    tag_99:\n        /* \"#utility.yul\":2166:2309   */\n      swap3\n      swap2\n      pop\n      pop\n      jump\t// out\n        /* \"#utility.yul\":2315:2666   */\n    tag_37:\n        /* \"#utility.yul\":2385:2391   */\n      0x00\n        /* \"#utility.yul\":2434:2436   */\n      0x20\n        /* \"#utility.yul\":2422:2431   */\n      dup3\n        /* \"#utility.yul\":2413:2420   */\n      dup5\n        /* \"#utility.yul\":2409:2432   */\n      sub\n        /* \"#utility.yul\":2405:2437   */\n      slt\n        /* \"#utility.yul\":2402:2521   */\n      iszero\n      tag_101\n      jumpi\n        /* \"#utility.yul\":2440:2519   */\n      tag_102\n      tag_53\n      jump\t// in\n    tag_102:\n        /* \"#utility.yul\":2402:2521   */\n    tag_101:\n        /* \"#utility.yul\":2560:2561   */\n      0x00\n        /* \"#utility.yul\":2585:2649   */\n      tag_103\n        /* \"#utility.yul\":2641:2648   */\n      dup5\n        /* \"#utility.yul\":2632:2638   */\n      dup3\n        /* \"#utility.yul\":2621:2630   */\n      dup6\n        /* \"#utility.yul\":2617:2639   */\n      add\n        /* \"#utility.yul\":2585:2649   */\n      tag_60\n      jump\t// in\n    tag_103:\n        /* \"#utility.yul\":2575:2649   */\n      swap2\n      pop\n        /* \"#utility.yul\":2531:2659   */\n      pop\n        /* \"#utility.yul\":2315:2666   */\n      swap3\n      swap2\n      pop\n      pop\n      jump\t// out\n        /* \"#utility.yul\":2672:2777   */\n    tag_61:\n        /* \"#utility.yul\":2708:2715   */\n      0x00\n        /* \"#utility.yul\":2748:2770   */\n      0xffffffffffffffffffff\n        /* \"#utility.yul\":2741:2746   */\n      dup3\n        /* \"#utility.yul\":2737:2771   */\n      and\n        /* \"#utility.yul\":2726:2771   */\n      swap1\n      pop\n        /* \"#utility.yul\":2672:2777   */\n      swap2\n      swap1\n      pop\n      jump\t// out\n        /* \"#utility.yul\":2783:2903   */\n    tag_62:\n        /* \"#utility.yul\":2855:2878   */\n      tag_106\n        /* \"#utility.yul\":2872:2877   */\n      dup2\n        /* \"#utility.yul\":2855:2878   */\n      tag_61\n      jump\t// in\n    tag_106:\n        /* \"#utility.yul\":2848:2853   */\n      dup2\n        /* \"#utility.yul\":2845:2879   */\n      eq\n        /* \"#utility.yul\":2835:2897   */\n      tag_107\n      jumpi\n        /* \"#utility.yul\":2893:2894   */\n      0x00\n        /* \"#utility.yul\":2890:2891   */\n      dup1\n        /* \"#utility.yul\":2883:2895   */\n      revert\n        /* \"#utility.yul\":2835:2897   */\n    tag_107:\n        /* \"#utility.yul\":2783:2903   */\n      pop\n      jump\t// out\n        /* \"#utility.yul\":2909:3050   */\n    tag_63:\n        /* \"#utility.yul\":2965:2970   */\n      0x00\n        /* \"#utility.yul\":2996:3002   */\n      dup2\n        /* \"#utility.yul\":2990:3003   */\n      mload\n        /* \"#utility.yul\":2981:3003   */\n      swap1\n      pop\n        /* \"#utility.yul\":3012:3044   */\n      tag_109\n        /* \"#utility.yul\":3038:3043   */\n      dup2\n        /* \"#utility.yul\":3012:3044   */\n      tag_62\n      jump\t// in\n    tag_109:\n        /* \"#utility.yul\":2909:3050   */\n      swap3\n      swap2\n      pop\n      pop\n      jump\t// out\n        /* \"#utility.yul\":3056:3176   */\n    tag_64:\n        /* \"#utility.yul\":3128:3151   */\n      tag_111\n        /* \"#utility.yul\":3145:3150   */\n      dup2\n        /* \"#utility.yul\":3128:3151   */\n      tag_50\n      jump\t// in\n    tag_111:\n        /* \"#utility.yul\":3121:3126   */\n      dup2\n        /* \"#utility.yul\":3118:3152   */\n      eq\n        /* \"#utility.yul\":3108:3170   */\n      tag_112\n      jumpi\n        /* \"#utility.yul\":3166:3167   */\n      0x00\n        /* \"#utility.yul\":3163:3164   */\n      dup1\n        /* \"#utility.yul\":3156:3168   */\n      revert\n        /* \"#utility.yul\":3108:3170   */\n    tag_112:\n        /* \"#utility.yul\":3056:3176   */\n      pop\n      jump\t// out\n        /* \"#utility.yul\":3182:3323   */\n    tag_65:\n        /* \"#utility.yul\":3238:3243   */\n      0x00\n        /* \"#utility.yul\":3269:3275   */\n      dup2\n        /* \"#utility.yul\":3263:3276   */\n      mload\n        /* \"#utility.yul\":3254:3276   */\n      swap1\n      pop\n        /* \"#utility.yul\":3285:3317   */\n      tag_114\n        /* \"#utility.yul\":3311:3316   */\n      dup2\n        /* \"#utility.yul\":3285:3317   */\n      tag_64\n      jump\t// in\n    tag_114:\n        /* \"#utility.yul\":3182:3323   */\n      swap3\n      swap2\n      pop\n      pop\n      jump\t// out\n        /* \"#utility.yul\":3329:4300   */\n    tag_42:\n        /* \"#utility.yul\":3432:3438   */\n      0x00\n        /* \"#utility.yul\":3440:3446   */\n      dup1\n        /* \"#utility.yul\":3448:3454   */\n      0x00\n        /* \"#utility.yul\":3456:3462   */\n      dup1\n        /* \"#utility.yul\":3464:3470   */\n      0x00\n        /* \"#utility.yul\":3513:3516   */\n      0xa0\n        /* \"#utility.yul\":3501:3510   */\n      dup7\n        /* \"#utility.yul\":3492:3499   */\n      dup9\n        /* \"#utility.yul\":3488:3511   */\n      sub\n        /* \"#utility.yul\":3484:3517   */\n      slt\n        /* \"#utility.yul\":3481:3601   */\n      iszero\n      tag_116\n      jumpi\n        /* \"#utility.yul\":3520:3599   */\n      tag_117\n      tag_53\n      jump\t// in\n    tag_117:\n        /* \"#utility.yul\":3481:3601   */\n    tag_116:\n        /* \"#utility.yul\":3640:3641   */\n      0x00\n        /* \"#utility.yul\":3665:3728   */\n      tag_118\n        /* \"#utility.yul\":3720:3727   */\n      dup9\n        /* \"#utility.yul\":3711:3717   */\n      dup3\n        /* \"#utility.yul\":3700:3709   */\n      dup10\n        /* \"#utility.yul\":3696:3718   */\n      add\n        /* \"#utility.yul\":3665:3728   */\n      tag_63\n      jump\t// in\n    tag_118:\n        /* \"#utility.yul\":3655:3728   */\n      swap6\n      pop\n        /* \"#utility.yul\":3611:3738   */\n      pop\n        /* \"#utility.yul\":3777:3779   */\n      0x20\n        /* \"#utility.yul\":3803:3866   */\n      tag_119\n        /* \"#utility.yul\":3858:3865   */\n      dup9\n        /* \"#utility.yul\":3849:3855   */\n      dup3\n        /* \"#utility.yul\":3838:3847   */\n      dup10\n        /* \"#utility.yul\":3834:3856   */\n      add\n        /* \"#utility.yul\":3803:3866   */\n      tag_65\n      jump\t// in\n    tag_119:\n        /* \"#utility.yul\":3793:3866   */\n      swap5\n      pop\n        /* \"#utility.yul\":3748:3876   */\n      pop\n        /* \"#utility.yul\":3915:3917   */\n      0x40\n        /* \"#utility.yul\":3941:4005   */\n      tag_120\n        /* \"#utility.yul\":3997:4004   */\n      dup9\n        /* \"#utility.yul\":3988:3994   */\n      dup3\n        /* \"#utility.yul\":3977:3986   */\n      dup10\n        /* \"#utility.yul\":3973:3995   */\n      add\n        /* \"#utility.yul\":3941:4005   */\n      tag_60\n      jump\t// in\n    tag_120:\n        /* \"#utility.yul\":3931:4005   */\n      swap4\n      pop\n        /* \"#utility.yul\":3886:4015   */\n      pop\n        /* \"#utility.yul\":4054:4056   */\n      0x60\n        /* \"#utility.yul\":4080:4144   */\n      tag_121\n        /* \"#utility.yul\":4136:4143   */\n      dup9\n        /* \"#utility.yul\":4127:4133   */\n      dup3\n        /* \"#utility.yul\":4116:4125   */\n      dup10\n        /* \"#utility.yul\":4112:4134   */\n      add\n        /* \"#utility.yul\":4080:4144   */\n      tag_60\n      jump\t// in\n    tag_121:\n        /* \"#utility.yul\":4070:4144   */\n      swap3\n      pop\n        /* \"#utility.yul\":4025:4154   */\n      pop\n        /* \"#utility.yul\":4193:4196   */\n      0x80\n        /* \"#utility.yul\":4220:4283   */\n      tag_122\n        /* \"#utility.yul\":4275:4282   */\n      dup9\n        /* \"#utility.yul\":4266:4272   */\n      dup3\n        /* \"#utility.yul\":4255:4264   */\n      dup10\n        /* \"#utility.yul\":4251:4273   */\n      add\n        /* \"#utility.yul\":4220:4283   */\n      tag_63\n      jump\t// in\n    tag_122:\n        /* \"#utility.yul\":4210:4283   */\n      swap2\n      pop\n        /* \"#utility.yul\":4164:4293   */\n      pop\n        /* \"#utility.yul\":3329:4300   */\n      swap3\n      swap6\n      pop\n      swap3\n      swap6\n      swap1\n      swap4\n      pop\n      jump\t// out\n        /* \"#utility.yul\":4306:4475   */\n    tag_66:\n        /* \"#utility.yul\":4390:4401   */\n      0x00\n        /* \"#utility.yul\":4424:4430   */\n      dup3\n        /* \"#utility.yul\":4419:4422   */\n      dup3\n        /* \"#utility.yul\":4412:4431   */\n      mstore\n        /* \"#utility.yul\":4464:4468   */\n      0x20\n        /* \"#utility.yul\":4459:4462   */\n      dup3\n        /* \"#utility.yul\":4455:4469   */\n      add\n        /* \"#utility.yul\":4440:4469   */\n      swap1\n      pop\n        /* \"#utility.yul\":4306:4475   */\n      swap3\n      swap2\n      pop\n      pop\n      jump\t// out\n        /* \"#utility.yul\":4481:4650   */\n    tag_67:\n        /* \"#utility.yul\":4621:4642   */\n      0x4469646e27742073656e6420656e6f7567682100000000000000000000000000\n        /* \"#utility.yul\":4617:4618   */\n      0x00\n        /* \"#utility.yul\":4609:4615   */\n      dup3\n        /* \"#utility.yul\":4605:4619   */\n      add\n        /* \"#utility.yul\":4598:4643   */\n      mstore\n        /* \"#utility.yul\":4481:4650   */\n      pop\n      jump\t// out\n        /* \"#utility.yul\":4656:5022   */\n    tag_68:\n        /* \"#utility.yul\":4798:4801   */\n      0x00\n        /* \"#utility.yul\":4819:4886   */\n      tag_126\n        /* \"#utility.yul\":4883:4885   */\n      0x13\n        /* \"#utility.yul\":4878:4881   */\n      dup4\n        /* \"#utility.yul\":4819:4886   */\n      tag_66\n      jump\t// in\n    tag_126:\n        /* \"#utility.yul\":4812:4886   */\n      swap2\n      pop\n        /* \"#utility.yul\":4895:4988   */\n      tag_127\n        /* \"#utility.yul\":4984:4987   */\n      dup3\n        /* \"#utility.yul\":4895:4988   */\n      tag_67\n      jump\t// in\n    tag_127:\n        /* \"#utility.yul\":5013:5015   */\n      0x20\n        /* \"#utility.yul\":5008:5011   */\n      dup3\n        /* \"#utility.yul\":5004:5016   */\n      add\n        /* \"#utility.yul\":4997:5016   */\n      swap1\n      pop\n        /* \"#utility.yul\":4656:5022   */\n      swap2\n      swap1\n      pop\n      jump\t// out\n        /* \"#utility.yul\":5028:5447   */\n    tag_46:\n        /* \"#utility.yul\":5194:5198   */\n      0x00\n        /* \"#utility.yul\":5232:5234   */\n      0x20\n        /* \"#utility.yul\":5221:5230   */\n      dup3\n        /* \"#utility.yul\":5217:5235   */\n      add\n        /* \"#utility.yul\":5209:5235   */\n      swap1\n      pop\n        /* \"#utility.yul\":5281:5290   */\n      dup2\n        /* \"#utility.yul\":5275:5279   */\n      dup2\n        /* \"#utility.yul\":5271:5291   */\n      sub\n        /* \"#utility.yul\":5267:5268   */\n      0x00\n        /* \"#utility.yul\":5256:5265   */\n      dup4\n        /* \"#utility.yul\":5252:5269   */\n      add\n        /* \"#utility.yul\":5245:5292   */\n      mstore\n        /* \"#utility.yul\":5309:5440   */\n      tag_129\n        /* \"#utility.yul\":5435:5439   */\n      dup2\n        /* \"#utility.yul\":5309:5440   */\n      tag_68\n      jump\t// in\n    tag_129:\n        /* \"#utility.yul\":5301:5440   */\n      swap1\n      pop\n        /* \"#utility.yul\":5028:5447   */\n      swap2\n      swap1\n      pop\n      jump\t// out\n\n    auxdata: 0xa264697066735822122081d08db80c6505bf142b013dd3d6feff4bb26cd3e23b8541a4be05483c3ba67264736f6c63430008110033\n}\n",
				"bytecode": {
					"linkReferences": {},
					"object": "6080604052603260005534801561001557600080fd5b506105b5806100256000396000f3fe6080604052600436106100555760003560e01c8063098de8201461005a5780630d8e6e2c1461008557806398d5fdca146100b0578063a712b310146100db578063b60d428814610118578063f36089ec14610122575b600080fd5b34801561006657600080fd5b5061006f610139565b60405161007c91906102e1565b60405180910390f35b34801561009157600080fd5b5061009a61013f565b6040516100a791906102e1565b60405180910390f35b3480156100bc57600080fd5b506100c56101ce565b6040516100d29190610315565b60405180910390f35b3480156100e757600080fd5b5061010260048036038101906100fd9190610393565b610267565b60405161010f91906102e1565b60405180910390f35b61012061027f565b005b34801561012e57600080fd5b506101376102c6565b005b60005481565b60008073d4a33860578de61dbabdc8bfdb98fd742fa7028e90508073ffffffffffffffffffffffffffffffffffffffff166354fd4d506040518163ffffffff1660e01b8152600401602060405180830381865afa1580156101a4573d6000803e3d6000fd5b505050506040513d601f19601f820116820180604052508101906101c891906103ec565b91505090565b60008073d4a33860578de61dbabdc8bfdb98fd742fa7028e905060008173ffffffffffffffffffffffffffffffffffffffff1663feaf968c6040518163ffffffff1660e01b815260040160a060405180830381865afa158015610235573d6000803e3d6000fd5b505050506040513d601f19601f820116820180604052508101906102599190610487565b505050915050809250505090565b60016020528060005260406000206000915090505481565b6000543410156102c4576040517f08c379a00000000000000000000000000000000000000000000000000000000081526004016102bb9061055f565b60405180910390fd5b565b565b6000819050919050565b6102db816102c8565b82525050565b60006020820190506102f660008301846102d2565b92915050565b6000819050919050565b61030f816102fc565b82525050565b600060208201905061032a6000830184610306565b92915050565b600080fd5b600073ffffffffffffffffffffffffffffffffffffffff82169050919050565b600061036082610335565b9050919050565b61037081610355565b811461037b57600080fd5b50565b60008135905061038d81610367565b92915050565b6000602082840312156103a9576103a8610330565b5b60006103b78482850161037e565b91505092915050565b6103c9816102c8565b81146103d457600080fd5b50565b6000815190506103e6816103c0565b92915050565b60006020828403121561040257610401610330565b5b6000610410848285016103d7565b91505092915050565b600069ffffffffffffffffffff82169050919050565b61043881610419565b811461044357600080fd5b50565b6000815190506104558161042f565b92915050565b610464816102fc565b811461046f57600080fd5b50565b6000815190506104818161045b565b92915050565b600080600080600060a086880312156104a3576104a2610330565b5b60006104b188828901610446565b95505060206104c288828901610472565b94505060406104d3888289016103d7565b93505060606104e4888289016103d7565b92505060806104f588828901610446565b9150509295509295909350565b600082825260208201905092915050565b7f4469646e27742073656e6420656e6f7567682100000000000000000000000000600082015250565b6000610549601383610502565b915061055482610513565b602082019050919050565b600060208201905081810360008301526105788161053c565b905091905056fea264697066735822122081d08db80c6505bf142b013dd3d6feff4bb26cd3e23b8541a4be05483c3ba67264736f6c63430008110033",
					"opcodes": "PUSH1 0x80 PUSH1 0x40 MSTORE PUSH1 0x32 PUSH1 0x0 SSTORE CALLVALUE DUP1 ISZERO PUSH2 0x15 JUMPI PUSH1 0x0 DUP1 REVERT JUMPDEST POP PUSH2 0x5B5 DUP1 PUSH2 0x25 PUSH1 0x0 CODECOPY PUSH1 0x0 RETURN INVALID PUSH1 0x80 PUSH1 0x40 MSTORE PUSH1 0x4 CALLDATASIZE LT PUSH2 0x55 JUMPI PUSH1 0x0 CALLDATALOAD PUSH1 0xE0 SHR DUP1 PUSH4 0x98DE820 EQ PUSH2 0x5A JUMPI DUP1 PUSH4 0xD8E6E2C EQ PUSH2 0x85 JUMPI DUP1 PUSH4 0x98D5FDCA EQ PUSH2 0xB0 JUMPI DUP1 PUSH4 0xA712B310 EQ PUSH2 0xDB JUMPI DUP1 PUSH4 0xB60D4288 EQ PUSH2 0x118 JUMPI DUP1 PUSH4 0xF36089EC EQ PUSH2 0x122 JUMPI JUMPDEST PUSH1 0x0 DUP1 REVERT JUMPDEST CALLVALUE DUP1 ISZERO PUSH2 0x66 JUMPI PUSH1 0x0 DUP1 REVERT JUMPDEST POP PUSH2 0x6F PUSH2 0x139 JUMP JUMPDEST PUSH1 0x40 MLOAD PUSH2 0x7C SWAP2 SWAP1 PUSH2 0x2E1 JUMP JUMPDEST PUSH1 0x40 MLOAD DUP1 SWAP2 SUB SWAP1 RETURN JUMPDEST CALLVALUE DUP1 ISZERO PUSH2 0x91 JUMPI PUSH1 0x0 DUP1 REVERT JUMPDEST POP PUSH2 0x9A PUSH2 0x13F JUMP JUMPDEST PUSH1 0x40 MLOAD PUSH2 0xA7 SWAP2 SWAP1 PUSH2 0x2E1 JUMP JUMPDEST PUSH1 0x40 MLOAD DUP1 SWAP2 SUB SWAP1 RETURN JUMPDEST CALLVALUE DUP1 ISZERO PUSH2 0xBC JUMPI PUSH1 0x0 DUP1 REVERT JUMPDEST POP PUSH2 0xC5 PUSH2 0x1CE JUMP JUMPDEST PUSH1 0x40 MLOAD PUSH2 0xD2 SWAP2 SWAP1 PUSH2 0x315 JUMP JUMPDEST PUSH1 0x40 MLOAD DUP1 SWAP2 SUB SWAP1 RETURN JUMPDEST CALLVALUE DUP1 ISZERO PUSH2 0xE7 JUMPI PUSH1 0x0 DUP1 REVERT JUMPDEST POP PUSH2 0x102 PUSH1 0x4 DUP1 CALLDATASIZE SUB DUP2 ADD SWAP1 PUSH2 0xFD SWAP2 SWAP1 PUSH2 0x393 JUMP JUMPDEST PUSH2 0x267 JUMP JUMPDEST PUSH1 0x40 MLOAD PUSH2 0x10F SWAP2 SWAP1 PUSH2 0x2E1 JUMP JUMPDEST PUSH1 0x40 MLOAD DUP1 SWAP2 SUB SWAP1 RETURN JUMPDEST PUSH2 0x120 PUSH2 0x27F JUMP JUMPDEST STOP JUMPDEST CALLVALUE DUP1 ISZERO PUSH2 0x12E JUMPI PUSH1 0x0 DUP1 REVERT JUMPDEST POP PUSH2 0x137 PUSH2 0x2C6 JUMP JUMPDEST STOP JUMPDEST PUSH1 0x0 SLOAD DUP2 JUMP JUMPDEST PUSH1 0x0 DUP1 PUSH20 0xD4A33860578DE61DBABDC8BFDB98FD742FA7028E SWAP1 POP DUP1 PUSH20 0xFFFFFFFFFFFFFFFFFFFFFFFFFFFFFFFFFFFFFFFF AND PUSH4 0x54FD4D50 PUSH1 0x40 MLOAD DUP2 PUSH4 0xFFFFFFFF AND PUSH1 0xE0 SHL DUP2 MSTORE PUSH1 0x4 ADD PUSH1 0x20 PUSH1 0x40 MLOAD DUP1 DUP4 SUB DUP2 DUP7 GAS STATICCALL ISZERO DUP1 ISZERO PUSH2 0x1A4 JUMPI RETURNDATASIZE PUSH1 0x0 DUP1 RETURNDATACOPY RETURNDATASIZE PUSH1 0x0 REVERT JUMPDEST POP POP POP POP PUSH1 0x40 MLOAD RETURNDATASIZE PUSH1 0x1F NOT PUSH1 0x1F DUP3 ADD AND DUP3 ADD DUP1 PUSH1 0x40 MSTORE POP DUP2 ADD SWAP1 PUSH2 0x1C8 SWAP2 SWAP1 PUSH2 0x3EC JUMP JUMPDEST SWAP2 POP POP SWAP1 JUMP JUMPDEST PUSH1 0x0 DUP1 PUSH20 0xD4A33860578DE61DBABDC8BFDB98FD742FA7028E SWAP1 POP PUSH1 0x0 DUP2 PUSH20 0xFFFFFFFFFFFFFFFFFFFFFFFFFFFFFFFFFFFFFFFF AND PUSH4 0xFEAF968C PUSH1 0x40 MLOAD DUP2 PUSH4 0xFFFFFFFF AND PUSH1 0xE0 SHL DUP2 MSTORE PUSH1 0x4 ADD PUSH1 0xA0 PUSH1 0x40 MLOAD DUP1 DUP4 SUB DUP2 DUP7 GAS STATICCALL ISZERO DUP1 ISZERO PUSH2 0x235 JUMPI RETURNDATASIZE PUSH1 0x0 DUP1 RETURNDATACOPY RETURNDATASIZE PUSH1 0x0 REVERT JUMPDEST POP POP POP POP PUSH1 0x40 MLOAD RETURNDATASIZE PUSH1 0x1F NOT PUSH1 0x1F DUP3 ADD AND DUP3 ADD DUP1 PUSH1 0x40 MSTORE POP DUP2 ADD SWAP1 PUSH2 0x259 SWAP2 SWAP1 PUSH2 0x487 JUMP JUMPDEST POP POP POP SWAP2 POP POP DUP1 SWAP3 POP POP POP SWAP1 JUMP JUMPDEST PUSH1 0x1 PUSH1 0x20 MSTORE DUP1 PUSH1 0x0 MSTORE PUSH1 0x40 PUSH1 0x0 KECCAK256 PUSH1 0x0 SWAP2 POP SWAP1 POP SLOAD DUP2 JUMP JUMPDEST PUSH1 0x0 SLOAD CALLVALUE LT ISZERO PUSH2 0x2C4 JUMPI PUSH1 0x40 MLOAD PUSH32 0x8C379A000000000000000000000000000000000000000000000000000000000 DUP2 MSTORE PUSH1 0x4 ADD PUSH2 0x2BB SWAP1 PUSH2 0x55F JUMP JUMPDEST PUSH1 0x40 MLOAD DUP1 SWAP2 SUB SWAP1 REVERT JUMPDEST JUMP JUMPDEST JUMP JUMPDEST PUSH1 0x0 DUP2 SWAP1 POP SWAP2 SWAP1 POP JUMP JUMPDEST PUSH2 0x2DB DUP2 PUSH2 0x2C8 JUMP JUMPDEST DUP3 MSTORE POP POP JUMP JUMPDEST PUSH1 0x0 PUSH1 0x20 DUP3 ADD SWAP1 POP PUSH2 0x2F6 PUSH1 0x0 DUP4 ADD DUP5 PUSH2 0x2D2 JUMP JUMPDEST SWAP3 SWAP2 POP POP JUMP JUMPDEST PUSH1 0x0 DUP2 SWAP1 POP SWAP2 SWAP1 POP JUMP JUMPDEST PUSH2 0x30F DUP2 PUSH2 0x2FC JUMP JUMPDEST DUP3 MSTORE POP POP JUMP JUMPDEST PUSH1 0x0 PUSH1 0x20 DUP3 ADD SWAP1 POP PUSH2 0x32A PUSH1 0x0 DUP4 ADD DUP5 PUSH2 0x306 JUMP JUMPDEST SWAP3 SWAP2 POP POP JUMP JUMPDEST PUSH1 0x0 DUP1 REVERT JUMPDEST PUSH1 0x0 PUSH20 0xFFFFFFFFFFFFFFFFFFFFFFFFFFFFFFFFFFFFFFFF DUP3 AND SWAP1 POP SWAP2 SWAP1 POP JUMP JUMPDEST PUSH1 0x0 PUSH2 0x360 DUP3 PUSH2 0x335 JUMP JUMPDEST SWAP1 POP SWAP2 SWAP1 POP JUMP JUMPDEST PUSH2 0x370 DUP2 PUSH2 0x355 JUMP JUMPDEST DUP2 EQ PUSH2 0x37B JUMPI PUSH1 0x0 DUP1 REVERT JUMPDEST POP JUMP JUMPDEST PUSH1 0x0 DUP2 CALLDATALOAD SWAP1 POP PUSH2 0x38D DUP2 PUSH2 0x367 JUMP JUMPDEST SWAP3 SWAP2 POP POP JUMP JUMPDEST PUSH1 0x0 PUSH1 0x20 DUP3 DUP5 SUB SLT ISZERO PUSH2 0x3A9 JUMPI PUSH2 0x3A8 PUSH2 0x330 JUMP JUMPDEST JUMPDEST PUSH1 0x0 PUSH2 0x3B7 DUP5 DUP3 DUP6 ADD PUSH2 0x37E JUMP JUMPDEST SWAP2 POP POP SWAP3 SWAP2 POP POP JUMP JUMPDEST PUSH2 0x3C9 DUP2 PUSH2 0x2C8 JUMP JUMPDEST DUP2 EQ PUSH2 0x3D4 JUMPI PUSH1 0x0 DUP1 REVERT JUMPDEST POP JUMP JUMPDEST PUSH1 0x0 DUP2 MLOAD SWAP1 POP PUSH2 0x3E6 DUP2 PUSH2 0x3C0 JUMP JUMPDEST SWAP3 SWAP2 POP POP JUMP JUMPDEST PUSH1 0x0 PUSH1 0x20 DUP3 DUP5 SUB SLT ISZERO PUSH2 0x402 JUMPI PUSH2 0x401 PUSH2 0x330 JUMP JUMPDEST JUMPDEST PUSH1 0x0 PUSH2 0x410 DUP5 DUP3 DUP6 ADD PUSH2 0x3D7 JUMP JUMPDEST SWAP2 POP POP SWAP3 SWAP2 POP POP JUMP JUMPDEST PUSH1 0x0 PUSH10 0xFFFFFFFFFFFFFFFFFFFF DUP3 AND SWAP1 POP SWAP2 SWAP1 POP JUMP JUMPDEST PUSH2 0x438 DUP2 PUSH2 0x419 JUMP JUMPDEST DUP2 EQ PUSH2 0x443 JUMPI PUSH1 0x0 DUP1 REVERT JUMPDEST POP JUMP JUMPDEST PUSH1 0x0 DUP2 MLOAD SWAP1 POP PUSH2 0x455 DUP2 PUSH2 0x42F JUMP JUMPDEST SWAP3 SWAP2 POP POP JUMP JUMPDEST PUSH2 0x464 DUP2 PUSH2 0x2FC JUMP JUMPDEST DUP2 EQ PUSH2 0x46F JUMPI PUSH1 0x0 DUP1 REVERT JUMPDEST POP JUMP JUMPDEST PUSH1 0x0 DUP2 MLOAD SWAP1 POP PUSH2 0x481 DUP2 PUSH2 0x45B JUMP JUMPDEST SWAP3 SWAP2 POP POP JUMP JUMPDEST PUSH1 0x0 DUP1 PUSH1 0x0 DUP1 PUSH1 0x0 PUSH1 0xA0 DUP7 DUP9 SUB SLT ISZERO PUSH2 0x4A3 JUMPI PUSH2 0x4A2 PUSH2 0x330 JUMP JUMPDEST JUMPDEST PUSH1 0x0 PUSH2 0x4B1 DUP9 DUP3 DUP10 ADD PUSH2 0x446 JUMP JUMPDEST SWAP6 POP POP PUSH1 0x20 PUSH2 0x4C2 DUP9 DUP3 DUP10 ADD PUSH2 0x472 JUMP JUMPDEST SWAP5 POP POP PUSH1 0x40 PUSH2 0x4D3 DUP9 DUP3 DUP10 ADD PUSH2 0x3D7 JUMP JUMPDEST SWAP4 POP POP PUSH1 0x60 PUSH2 0x4E4 DUP9 DUP3 DUP10 ADD PUSH2 0x3D7 JUMP JUMPDEST SWAP3 POP POP PUSH1 0x80 PUSH2 0x4F5 DUP9 DUP3 DUP10 ADD PUSH2 0x446 JUMP JUMPDEST SWAP2 POP POP SWAP3 SWAP6 POP SWAP3 SWAP6 SWAP1 SWAP4 POP JUMP JUMPDEST PUSH1 0x0 DUP3 DUP3 MSTORE PUSH1 0x20 DUP3 ADD SWAP1 POP SWAP3 SWAP2 POP POP JUMP JUMPDEST PUSH32 0x4469646E27742073656E6420656E6F7567682100000000000000000000000000 PUSH1 0x0 DUP3 ADD MSTORE POP JUMP JUMPDEST PUSH1 0x0 PUSH2 0x549 PUSH1 0x13 DUP4 PUSH2 0x502 JUMP JUMPDEST SWAP2 POP PUSH2 0x554 DUP3 PUSH2 0x513 JUMP JUMPDEST PUSH1 0x20 DUP3 ADD SWAP1 POP SWAP2 SWAP1 POP JUMP JUMPDEST PUSH1 0x0 PUSH1 0x20 DUP3 ADD SWAP1 POP DUP2 DUP2 SUB PUSH1 0x0 DUP4 ADD MSTORE PUSH2 0x578 DUP2 PUSH2 0x53C JUMP JUMPDEST SWAP1 POP SWAP2 SWAP1 POP JUMP INVALID LOG2 PUSH5 0x6970667358 0x22 SLT KECCAK256 DUP2 0xD0 DUP14 0xB8 0xC PUSH6 0x5BF142B013D 0xD3 0xD6 INVALID SELFDESTRUCT 0x4B 0xB2 PUSH13 0xD3E23B8541A4BE05483C3BA672 PUSH5 0x736F6C6343 STOP ADDMOD GT STOP CALLER "
				},
				"gasEstimates": {
					"creation": {
						"codeDepositCost": "292200",
						"executionCost": "22437",
						"totalCost": "314637"
					},
					"external": {
						"fund()": "2600",
						"fundsAmountOfAddress(address)": "2858",
						"getConversionRate()": "232",
						"getPrice()": "infinite",
						"getVersion()": "infinite",
						"minimumUsd()": "2407"
					}
				},
				"methodIdentifiers": {
					"fund()": "b60d4288",
					"fundsAmountOfAddress(address)": "a712b310",
					"getConversionRate()": "f36089ec",
					"getPrice()": "98d5fdca",
					"getVersion()": "0d8e6e2c",
					"minimumUsd()": "098de820"
				}
			},
			"storageLayout": {
				"storage": [
					{
						"astId": 51,
						"contract": "FreeCodeCamp/FundMe/FundMe.sol:FundMe",
						"label": "minimumUsd",
						"offset": 0,
						"slot": "0",
						"type": "t_uint256"
					},
					{
						"astId": 55,
						"contract": "FreeCodeCamp/FundMe/FundMe.sol:FundMe",
						"label": "fundsAmountOfAddress",
						"offset": 0,
						"slot": "1",
						"type": "t_mapping(t_address,t_uint256)"
					}
				],
				"types": {
					"t_address": {
						"encoding": "inplace",
						"label": "address",
						"numberOfBytes": "20"
					},
					"t_mapping(t_address,t_uint256)": {
						"encoding": "mapping",
						"key": "t_address",
						"label": "mapping(address => uint256)",
						"numberOfBytes": "32",
						"value": "t_uint256"
					},
					"t_uint256": {
						"encoding": "inplace",
						"label": "uint256",
						"numberOfBytes": "32"
					}
				}
			},
			"userdoc": {
				"kind": "user",
				"methods": {},
				"version": 1
			}
		}
	}
}