{
	"data": {
		"bytecode": {
			"linkReferences": {},
			"object": "60806040526010600055600054600a6200001a9190620001be565b6001553480156200002a57600080fd5b506200020f565b7f4e487b7100000000000000000000000000000000000000000000000000000000600052601160045260246000fd5b60008160011c9050919050565b6000808291508390505b6001851115620000bf5780860481111562000097576200009662000031565b5b6001851615620000a75780820291505b8081029050620000b78562000060565b945062000077565b94509492505050565b600082620000da5760019050620001ad565b81620000ea5760009050620001ad565b81600181146200010357600281146200010e5762000144565b6001915050620001ad565b60ff84111562000123576200012262000031565b5b8360020a9150848211156200013d576200013c62000031565b5b50620001ad565b5060208310610133831016604e8410600b84101617156200017e5782820a90508381111562000178576200017762000031565b5b620001ad565b6200018d84848460016200006d565b92509050818404811115620001a757620001a662000031565b5b81810290505b9392505050565b6000819050919050565b6000620001cb82620001b4565b9150620001d883620001b4565b9250620002077fffffffffffffffffffffffffffffffffffffffffffffffffffffffffffffffff8484620000c8565b905092915050565b610976806200021f6000396000f3fe608060405234801561001057600080fd5b50600436106100415760003560e01c80632052465e14610046578063528b7b8f146100775780637bff0a01146100a7575b600080fd5b610060600480360381019061005b9190610465565b6100c3565b60405161006e92919061053a565b60405180910390f35b610091600480360381019061008c9190610465565b61017f565b60405161009e91906105ab565b60405180910390f35b6100c160048036038101906100bc91906106fb565b6101b2565b005b600281815481106100d357600080fd5b90600052602060002090600202016000915090508060000180546100f690610773565b80601f016020809104026020016040519081016040528092919081815260200182805461012290610773565b801561016f5780601f106101445761010080835404028352916020019161016f565b820191906000526020600020905b81548152906001019060200180831161015257829003601f168201915b5050505050908060010154905082565b60036020528060005260406000206000915054906101000a900473ffffffffffffffffffffffffffffffffffffffff1681565b60006101bd826101cd565b90506101c98282610212565b5050565b600080826040516020016101e191906107e0565b6040516020818303038152906040528051906020012060001c90506001548161020a9190610826565b915050919050565b60026040518060400160405280848152602001838152509080600181540180825580915050600190039060005260206000209060020201600090919091909150600082015181600001908051906020019061026e929190610378565b506020820151816001015550506000600160028054905061028f9190610886565b9050336003600083815260200190815260200160002060006101000a81548173ffffffffffffffffffffffffffffffffffffffff021916908373ffffffffffffffffffffffffffffffffffffffff160217905550600460003373ffffffffffffffffffffffffffffffffffffffff1673ffffffffffffffffffffffffffffffffffffffff1681526020019081526020016000206000815480929190610333906108ba565b91905055507f88f026aacbbecc90c18411df4b1185fd8d9be2470f1962f192bf84a27d0704b781848460405161036b93929190610902565b60405180910390a1505050565b82805461038490610773565b90600052602060002090601f0160209004810192826103a657600085556103ed565b82601f106103bf57805160ff19168380011785556103ed565b828001600101855582156103ed579182015b828111156103ec5782518255916020019190600101906103d1565b5b5090506103fa91906103fe565b5090565b5b808211156104175760008160009055506001016103ff565b5090565b6000604051905090565b600080fd5b600080fd5b6000819050919050565b6104428161042f565b811461044d57600080fd5b50565b60008135905061045f81610439565b92915050565b60006020828403121561047b5761047a610425565b5b600061048984828501610450565b91505092915050565b600081519050919050565b600082825260208201905092915050565b60005b838110156104cc5780820151818401526020810190506104b1565b838111156104db576000848401525b50505050565b6000601f19601f8301169050919050565b60006104fd82610492565b610507818561049d565b93506105178185602086016104ae565b610520816104e1565b840191505092915050565b6105348161042f565b82525050565b6000604082019050818103600083015261055481856104f2565b9050610563602083018461052b565b9392505050565b600073ffffffffffffffffffffffffffffffffffffffff82169050919050565b60006105958261056a565b9050919050565b6105a58161058a565b82525050565b60006020820190506105c0600083018461059c565b92915050565b600080fd5b600080fd5b7f4e487b7100000000000000000000000000000000000000000000000000000000600052604160045260246000fd5b610608826104e1565b810181811067ffffffffffffffff82111715610627576106266105d0565b5b80604052505050565b600061063a61041b565b905061064682826105ff565b919050565b600067ffffffffffffffff821115610666576106656105d0565b5b61066f826104e1565b9050602081019050919050565b82818337600083830152505050565b600061069e6106998461064b565b610630565b9050828152602081018484840111156106ba576106b96105cb565b5b6106c584828561067c565b509392505050565b600082601f8301126106e2576106e16105c6565b5b81356106f284826020860161068b565b91505092915050565b60006020828403121561071157610710610425565b5b600082013567ffffffffffffffff81111561072f5761072e61042a565b5b61073b848285016106cd565b91505092915050565b7f4e487b7100000000000000000000000000000000000000000000000000000000600052602260045260246000fd5b6000600282049050600182168061078b57607f821691505b60208210810361079e5761079d610744565b5b50919050565b600081905092915050565b60006107ba82610492565b6107c481856107a4565b93506107d48185602086016104ae565b80840191505092915050565b60006107ec82846107af565b915081905092915050565b7f4e487b7100000000000000000000000000000000000000000000000000000000600052601260045260246000fd5b60006108318261042f565b915061083c8361042f565b92508261084c5761084b6107f7565b5b828206905092915050565b7f4e487b7100000000000000000000000000000000000000000000000000000000600052601160045260246000fd5b60006108918261042f565b915061089c8361042f565b9250828210156108af576108ae610857565b5b828203905092915050565b60006108c58261042f565b91507fffffffffffffffffffffffffffffffffffffffffffffffffffffffffffffffff82036108f7576108f6610857565b5b600182019050919050565b6000606082019050610917600083018661052b565b818103602083015261092981856104f2565b9050610938604083018461052b565b94935050505056fea264697066735822122067960c88059a0d90357b16264ab8bc47e304236ae83885335ec719b477bcd09764736f6c634300080d0033",
			"opcodes": "PUSH1 0x80 PUSH1 0x40 MSTORE PUSH1 0x10 PUSH1 0x0 SSTORE PUSH1 0x0 SLOAD PUSH1 0xA PUSH3 0x1A SWAP2 SWAP1 PUSH3 0x1BE JUMP JUMPDEST PUSH1 0x1 SSTORE CALLVALUE DUP1 ISZERO PUSH3 0x2A JUMPI PUSH1 0x0 DUP1 REVERT JUMPDEST POP PUSH3 0x20F JUMP JUMPDEST PUSH32 0x4E487B7100000000000000000000000000000000000000000000000000000000 PUSH1 0x0 MSTORE PUSH1 0x11 PUSH1 0x4 MSTORE PUSH1 0x24 PUSH1 0x0 REVERT JUMPDEST PUSH1 0x0 DUP2 PUSH1 0x1 SHR SWAP1 POP SWAP2 SWAP1 POP JUMP JUMPDEST PUSH1 0x0 DUP1 DUP3 SWAP2 POP DUP4 SWAP1 POP JUMPDEST PUSH1 0x1 DUP6 GT ISZERO PUSH3 0xBF JUMPI DUP1 DUP7 DIV DUP2 GT ISZERO PUSH3 0x97 JUMPI PUSH3 0x96 PUSH3 0x31 JUMP JUMPDEST JUMPDEST PUSH1 0x1 DUP6 AND ISZERO PUSH3 0xA7 JUMPI DUP1 DUP3 MUL SWAP2 POP JUMPDEST DUP1 DUP2 MUL SWAP1 POP PUSH3 0xB7 DUP6 PUSH3 0x60 JUMP JUMPDEST SWAP5 POP PUSH3 0x77 JUMP JUMPDEST SWAP5 POP SWAP5 SWAP3 POP POP POP JUMP JUMPDEST PUSH1 0x0 DUP3 PUSH3 0xDA JUMPI PUSH1 0x1 SWAP1 POP PUSH3 0x1AD JUMP JUMPDEST DUP2 PUSH3 0xEA JUMPI PUSH1 0x0 SWAP1 POP PUSH3 0x1AD JUMP JUMPDEST DUP2 PUSH1 0x1 DUP2 EQ PUSH3 0x103 JUMPI PUSH1 0x2 DUP2 EQ PUSH3 0x10E JUMPI PUSH3 0x144 JUMP JUMPDEST PUSH1 0x1 SWAP2 POP POP PUSH3 0x1AD JUMP JUMPDEST PUSH1 0xFF DUP5 GT ISZERO PUSH3 0x123 JUMPI PUSH3 0x122 PUSH3 0x31 JUMP JUMPDEST JUMPDEST DUP4 PUSH1 0x2 EXP SWAP2 POP DUP5 DUP3 GT ISZERO PUSH3 0x13D JUMPI PUSH3 0x13C PUSH3 0x31 JUMP JUMPDEST JUMPDEST POP PUSH3 0x1AD JUMP JUMPDEST POP PUSH1 0x20 DUP4 LT PUSH2 0x133 DUP4 LT AND PUSH1 0x4E DUP5 LT PUSH1 0xB DUP5 LT AND OR ISZERO PUSH3 0x17E JUMPI DUP3 DUP3 EXP SWAP1 POP DUP4 DUP2 GT ISZERO PUSH3 0x178 JUMPI PUSH3 0x177 PUSH3 0x31 JUMP JUMPDEST JUMPDEST PUSH3 0x1AD JUMP JUMPDEST PUSH3 0x18D DUP5 DUP5 DUP5 PUSH1 0x1 PUSH3 0x6D JUMP JUMPDEST SWAP3 POP SWAP1 POP DUP2 DUP5 DIV DUP2 GT ISZERO PUSH3 0x1A7 JUMPI PUSH3 0x1A6 PUSH3 0x31 JUMP JUMPDEST JUMPDEST DUP2 DUP2 MUL SWAP1 POP JUMPDEST SWAP4 SWAP3 POP POP POP JUMP JUMPDEST PUSH1 0x0 DUP2 SWAP1 POP SWAP2 SWAP1 POP JUMP JUMPDEST PUSH1 0x0 PUSH3 0x1CB DUP3 PUSH3 0x1B4 JUMP JUMPDEST SWAP2 POP PUSH3 0x1D8 DUP4 PUSH3 0x1B4 JUMP JUMPDEST SWAP3 POP PUSH3 0x207 PUSH32 0xFFFFFFFFFFFFFFFFFFFFFFFFFFFFFFFFFFFFFFFFFFFFFFFFFFFFFFFFFFFFFFFF DUP5 DUP5 PUSH3 0xC8 JUMP JUMPDEST SWAP1 POP SWAP3 SWAP2 POP POP JUMP JUMPDEST PUSH2 0x976 DUP1 PUSH3 0x21F PUSH1 0x0 CODECOPY PUSH1 0x0 RETURN INVALID PUSH1 0x80 PUSH1 0x40 MSTORE CALLVALUE DUP1 ISZERO PUSH2 0x10 JUMPI PUSH1 0x0 DUP1 REVERT JUMPDEST POP PUSH1 0x4 CALLDATASIZE LT PUSH2 0x41 JUMPI PUSH1 0x0 CALLDATALOAD PUSH1 0xE0 SHR DUP1 PUSH4 0x2052465E EQ PUSH2 0x46 JUMPI DUP1 PUSH4 0x528B7B8F EQ PUSH2 0x77 JUMPI DUP1 PUSH4 0x7BFF0A01 EQ PUSH2 0xA7 JUMPI JUMPDEST PUSH1 0x0 DUP1 REVERT JUMPDEST PUSH2 0x60 PUSH1 0x4 DUP1 CALLDATASIZE SUB DUP2 ADD SWAP1 PUSH2 0x5B SWAP2 SWAP1 PUSH2 0x465 JUMP JUMPDEST PUSH2 0xC3 JUMP JUMPDEST PUSH1 0x40 MLOAD PUSH2 0x6E SWAP3 SWAP2 SWAP1 PUSH2 0x53A JUMP JUMPDEST PUSH1 0x40 MLOAD DUP1 SWAP2 SUB SWAP1 RETURN JUMPDEST PUSH2 0x91 PUSH1 0x4 DUP1 CALLDATASIZE SUB DUP2 ADD SWAP1 PUSH2 0x8C SWAP2 SWAP1 PUSH2 0x465 JUMP JUMPDEST PUSH2 0x17F JUMP JUMPDEST PUSH1 0x40 MLOAD PUSH2 0x9E SWAP2 SWAP1 PUSH2 0x5AB JUMP JUMPDEST PUSH1 0x40 MLOAD DUP1 SWAP2 SUB SWAP1 RETURN JUMPDEST PUSH2 0xC1 PUSH1 0x4 DUP1 CALLDATASIZE SUB DUP2 ADD SWAP1 PUSH2 0xBC SWAP2 SWAP1 PUSH2 0x6FB JUMP JUMPDEST PUSH2 0x1B2 JUMP JUMPDEST STOP JUMPDEST PUSH1 0x2 DUP2 DUP2 SLOAD DUP2 LT PUSH2 0xD3 JUMPI PUSH1 0x0 DUP1 REVERT JUMPDEST SWAP1 PUSH1 0x0 MSTORE PUSH1 0x20 PUSH1 0x0 KECCAK256 SWAP1 PUSH1 0x2 MUL ADD PUSH1 0x0 SWAP2 POP SWAP1 POP DUP1 PUSH1 0x0 ADD DUP1 SLOAD PUSH2 0xF6 SWAP1 PUSH2 0x773 JUMP JUMPDEST DUP1 PUSH1 0x1F ADD PUSH1 0x20 DUP1 SWAP2 DIV MUL PUSH1 0x20 ADD PUSH1 0x40 MLOAD SWAP1 DUP2 ADD PUSH1 0x40 MSTORE DUP1 SWAP3 SWAP2 SWAP1 DUP2 DUP2 MSTORE PUSH1 0x20 ADD DUP3 DUP1 SLOAD PUSH2 0x122 SWAP1 PUSH2 0x773 JUMP JUMPDEST DUP1 ISZERO PUSH2 0x16F JUMPI DUP1 PUSH1 0x1F LT PUSH2 0x144 JUMPI PUSH2 0x100 DUP1 DUP4 SLOAD DIV MUL DUP4 MSTORE SWAP2 PUSH1 0x20 ADD SWAP2 PUSH2 0x16F JUMP JUMPDEST DUP3 ADD SWAP2 SWAP1 PUSH1 0x0 MSTORE PUSH1 0x20 PUSH1 0x0 KECCAK256 SWAP1 JUMPDEST DUP2 SLOAD DUP2 MSTORE SWAP1 PUSH1 0x1 ADD SWAP1 PUSH1 0x20 ADD DUP1 DUP4 GT PUSH2 0x152 JUMPI DUP3 SWAP1 SUB PUSH1 0x1F AND DUP3 ADD SWAP2 JUMPDEST POP POP POP POP POP SWAP1 DUP1 PUSH1 0x1 ADD SLOAD SWAP1 POP DUP3 JUMP JUMPDEST PUSH1 0x3 PUSH1 0x20 MSTORE DUP1 PUSH1 0x0 MSTORE PUSH1 0x40 PUSH1 0x0 KECCAK256 PUSH1 0x0 SWAP2 POP SLOAD SWAP1 PUSH2 0x100 EXP SWAP1 DIV PUSH20 0xFFFFFFFFFFFFFFFFFFFFFFFFFFFFFFFFFFFFFFFF AND DUP2 JUMP JUMPDEST PUSH1 0x0 PUSH2 0x1BD DUP3 PUSH2 0x1CD JUMP JUMPDEST SWAP1 POP PUSH2 0x1C9 DUP3 DUP3 PUSH2 0x212 JUMP JUMPDEST POP POP JUMP JUMPDEST PUSH1 0x0 DUP1 DUP3 PUSH1 0x40 MLOAD PUSH1 0x20 ADD PUSH2 0x1E1 SWAP2 SWAP1 PUSH2 0x7E0 JUMP JUMPDEST PUSH1 0x40 MLOAD PUSH1 0x20 DUP2 DUP4 SUB SUB DUP2 MSTORE SWAP1 PUSH1 0x40 MSTORE DUP1 MLOAD SWAP1 PUSH1 0x20 ADD KECCAK256 PUSH1 0x0 SHR SWAP1 POP PUSH1 0x1 SLOAD DUP2 PUSH2 0x20A SWAP2 SWAP1 PUSH2 0x826 JUMP JUMPDEST SWAP2 POP POP SWAP2 SWAP1 POP JUMP JUMPDEST PUSH1 0x2 PUSH1 0x40 MLOAD DUP1 PUSH1 0x40 ADD PUSH1 0x40 MSTORE DUP1 DUP5 DUP2 MSTORE PUSH1 0x20 ADD DUP4 DUP2 MSTORE POP SWAP1 DUP1 PUSH1 0x1 DUP2 SLOAD ADD DUP1 DUP3 SSTORE DUP1 SWAP2 POP POP PUSH1 0x1 SWAP1 SUB SWAP1 PUSH1 0x0 MSTORE PUSH1 0x20 PUSH1 0x0 KECCAK256 SWAP1 PUSH1 0x2 MUL ADD PUSH1 0x0 SWAP1 SWAP2 SWAP1 SWAP2 SWAP1 SWAP2 POP PUSH1 0x0 DUP3 ADD MLOAD DUP2 PUSH1 0x0 ADD SWAP1 DUP1 MLOAD SWAP1 PUSH1 0x20 ADD SWAP1 PUSH2 0x26E SWAP3 SWAP2 SWAP1 PUSH2 0x378 JUMP JUMPDEST POP PUSH1 0x20 DUP3 ADD MLOAD DUP2 PUSH1 0x1 ADD SSTORE POP POP PUSH1 0x0 PUSH1 0x1 PUSH1 0x2 DUP1 SLOAD SWAP1 POP PUSH2 0x28F SWAP2 SWAP1 PUSH2 0x886 JUMP JUMPDEST SWAP1 POP CALLER PUSH1 0x3 PUSH1 0x0 DUP4 DUP2 MSTORE PUSH1 0x20 ADD SWAP1 DUP2 MSTORE PUSH1 0x20 ADD PUSH1 0x0 KECCAK256 PUSH1 0x0 PUSH2 0x100 EXP DUP2 SLOAD DUP2 PUSH20 0xFFFFFFFFFFFFFFFFFFFFFFFFFFFFFFFFFFFFFFFF MUL NOT AND SWAP1 DUP4 PUSH20 0xFFFFFFFFFFFFFFFFFFFFFFFFFFFFFFFFFFFFFFFF AND MUL OR SWAP1 SSTORE POP PUSH1 0x4 PUSH1 0x0 CALLER PUSH20 0xFFFFFFFFFFFFFFFFFFFFFFFFFFFFFFFFFFFFFFFF AND PUSH20 0xFFFFFFFFFFFFFFFFFFFFFFFFFFFFFFFFFFFFFFFF AND DUP2 MSTORE PUSH1 0x20 ADD SWAP1 DUP2 MSTORE PUSH1 0x20 ADD PUSH1 0x0 KECCAK256 PUSH1 0x0 DUP2 SLOAD DUP1 SWAP3 SWAP2 SWAP1 PUSH2 0x333 SWAP1 PUSH2 0x8BA JUMP JUMPDEST SWAP2 SWAP1 POP SSTORE POP PUSH32 0x88F026AACBBECC90C18411DF4B1185FD8D9BE2470F1962F192BF84A27D0704B7 DUP2 DUP5 DUP5 PUSH1 0x40 MLOAD PUSH2 0x36B SWAP4 SWAP3 SWAP2 SWAP1 PUSH2 0x902 JUMP JUMPDEST PUSH1 0x40 MLOAD DUP1 SWAP2 SUB SWAP1 LOG1 POP POP POP JUMP JUMPDEST DUP3 DUP1 SLOAD PUSH2 0x384 SWAP1 PUSH2 0x773 JUMP JUMPDEST SWAP1 PUSH1 0x0 MSTORE PUSH1 0x20 PUSH1 0x0 KECCAK256 SWAP1 PUSH1 0x1F ADD PUSH1 0x20 SWAP1 DIV DUP2 ADD SWAP3 DUP3 PUSH2 0x3A6 JUMPI PUSH1 0x0 DUP6 SSTORE PUSH2 0x3ED JUMP JUMPDEST DUP3 PUSH1 0x1F LT PUSH2 0x3BF JUMPI DUP1 MLOAD PUSH1 0xFF NOT AND DUP4 DUP1 ADD OR DUP6 SSTORE PUSH2 0x3ED JUMP JUMPDEST DUP3 DUP1 ADD PUSH1 0x1 ADD DUP6 SSTORE DUP3 ISZERO PUSH2 0x3ED JUMPI SWAP2 DUP3 ADD JUMPDEST DUP3 DUP2 GT ISZERO PUSH2 0x3EC JUMPI DUP3 MLOAD DUP3 SSTORE SWAP2 PUSH1 0x20 ADD SWAP2 SWAP1 PUSH1 0x1 ADD SWAP1 PUSH2 0x3D1 JUMP JUMPDEST JUMPDEST POP SWAP1 POP PUSH2 0x3FA SWAP2 SWAP1 PUSH2 0x3FE JUMP JUMPDEST POP SWAP1 JUMP JUMPDEST JUMPDEST DUP1 DUP3 GT ISZERO PUSH2 0x417 JUMPI PUSH1 0x0 DUP2 PUSH1 0x0 SWAP1 SSTORE POP PUSH1 0x1 ADD PUSH2 0x3FF JUMP JUMPDEST POP SWAP1 JUMP JUMPDEST PUSH1 0x0 PUSH1 0x40 MLOAD SWAP1 POP SWAP1 JUMP JUMPDEST PUSH1 0x0 DUP1 REVERT JUMPDEST PUSH1 0x0 DUP1 REVERT JUMPDEST PUSH1 0x0 DUP2 SWAP1 POP SWAP2 SWAP1 POP JUMP JUMPDEST PUSH2 0x442 DUP2 PUSH2 0x42F JUMP JUMPDEST DUP2 EQ PUSH2 0x44D JUMPI PUSH1 0x0 DUP1 REVERT JUMPDEST POP JUMP JUMPDEST PUSH1 0x0 DUP2 CALLDATALOAD SWAP1 POP PUSH2 0x45F DUP2 PUSH2 0x439 JUMP JUMPDEST SWAP3 SWAP2 POP POP JUMP JUMPDEST PUSH1 0x0 PUSH1 0x20 DUP3 DUP5 SUB SLT ISZERO PUSH2 0x47B JUMPI PUSH2 0x47A PUSH2 0x425 JUMP JUMPDEST JUMPDEST PUSH1 0x0 PUSH2 0x489 DUP5 DUP3 DUP6 ADD PUSH2 0x450 JUMP JUMPDEST SWAP2 POP POP SWAP3 SWAP2 POP POP JUMP JUMPDEST PUSH1 0x0 DUP2 MLOAD SWAP1 POP SWAP2 SWAP1 POP JUMP JUMPDEST PUSH1 0x0 DUP3 DUP3 MSTORE PUSH1 0x20 DUP3 ADD SWAP1 POP SWAP3 SWAP2 POP POP JUMP JUMPDEST PUSH1 0x0 JUMPDEST DUP4 DUP2 LT ISZERO PUSH2 0x4CC JUMPI DUP1 DUP3 ADD MLOAD DUP2 DUP5 ADD MSTORE PUSH1 0x20 DUP2 ADD SWAP1 POP PUSH2 0x4B1 JUMP JUMPDEST DUP4 DUP2 GT ISZERO PUSH2 0x4DB JUMPI PUSH1 0x0 DUP5 DUP5 ADD MSTORE JUMPDEST POP POP POP POP JUMP JUMPDEST PUSH1 0x0 PUSH1 0x1F NOT PUSH1 0x1F DUP4 ADD AND SWAP1 POP SWAP2 SWAP1 POP JUMP JUMPDEST PUSH1 0x0 PUSH2 0x4FD DUP3 PUSH2 0x492 JUMP JUMPDEST PUSH2 0x507 DUP2 DUP6 PUSH2 0x49D JUMP JUMPDEST SWAP4 POP PUSH2 0x517 DUP2 DUP6 PUSH1 0x20 DUP7 ADD PUSH2 0x4AE JUMP JUMPDEST PUSH2 0x520 DUP2 PUSH2 0x4E1 JUMP JUMPDEST DUP5 ADD SWAP2 POP POP SWAP3 SWAP2 POP POP JUMP JUMPDEST PUSH2 0x534 DUP2 PUSH2 0x42F JUMP JUMPDEST DUP3 MSTORE POP POP JUMP JUMPDEST PUSH1 0x0 PUSH1 0x40 DUP3 ADD SWAP1 POP DUP2 DUP2 SUB PUSH1 0x0 DUP4 ADD MSTORE PUSH2 0x554 DUP2 DUP6 PUSH2 0x4F2 JUMP JUMPDEST SWAP1 POP PUSH2 0x563 PUSH1 0x20 DUP4 ADD DUP5 PUSH2 0x52B JUMP JUMPDEST SWAP4 SWAP3 POP POP POP JUMP JUMPDEST PUSH1 0x0 PUSH20 0xFFFFFFFFFFFFFFFFFFFFFFFFFFFFFFFFFFFFFFFF DUP3 AND SWAP1 POP SWAP2 SWAP1 POP JUMP JUMPDEST PUSH1 0x0 PUSH2 0x595 DUP3 PUSH2 0x56A JUMP JUMPDEST SWAP1 POP SWAP2 SWAP1 POP JUMP JUMPDEST PUSH2 0x5A5 DUP2 PUSH2 0x58A JUMP JUMPDEST DUP3 MSTORE POP POP JUMP JUMPDEST PUSH1 0x0 PUSH1 0x20 DUP3 ADD SWAP1 POP PUSH2 0x5C0 PUSH1 0x0 DUP4 ADD DUP5 PUSH2 0x59C JUMP JUMPDEST SWAP3 SWAP2 POP POP JUMP JUMPDEST PUSH1 0x0 DUP1 REVERT JUMPDEST PUSH1 0x0 DUP1 REVERT JUMPDEST PUSH32 0x4E487B7100000000000000000000000000000000000000000000000000000000 PUSH1 0x0 MSTORE PUSH1 0x41 PUSH1 0x4 MSTORE PUSH1 0x24 PUSH1 0x0 REVERT JUMPDEST PUSH2 0x608 DUP3 PUSH2 0x4E1 JUMP JUMPDEST DUP2 ADD DUP2 DUP2 LT PUSH8 0xFFFFFFFFFFFFFFFF DUP3 GT OR ISZERO PUSH2 0x627 JUMPI PUSH2 0x626 PUSH2 0x5D0 JUMP JUMPDEST JUMPDEST DUP1 PUSH1 0x40 MSTORE POP POP POP JUMP JUMPDEST PUSH1 0x0 PUSH2 0x63A PUSH2 0x41B JUMP JUMPDEST SWAP1 POP PUSH2 0x646 DUP3 DUP3 PUSH2 0x5FF JUMP JUMPDEST SWAP2 SWAP1 POP JUMP JUMPDEST PUSH1 0x0 PUSH8 0xFFFFFFFFFFFFFFFF DUP3 GT ISZERO PUSH2 0x666 JUMPI PUSH2 0x665 PUSH2 0x5D0 JUMP JUMPDEST JUMPDEST PUSH2 0x66F DUP3 PUSH2 0x4E1 JUMP JUMPDEST SWAP1 POP PUSH1 0x20 DUP2 ADD SWAP1 POP SWAP2 SWAP1 POP JUMP JUMPDEST DUP3 DUP2 DUP4 CALLDATACOPY PUSH1 0x0 DUP4 DUP4 ADD MSTORE POP POP POP JUMP JUMPDEST PUSH1 0x0 PUSH2 0x69E PUSH2 0x699 DUP5 PUSH2 0x64B JUMP JUMPDEST PUSH2 0x630 JUMP JUMPDEST SWAP1 POP DUP3 DUP2 MSTORE PUSH1 0x20 DUP2 ADD DUP5 DUP5 DUP5 ADD GT ISZERO PUSH2 0x6BA JUMPI PUSH2 0x6B9 PUSH2 0x5CB JUMP JUMPDEST JUMPDEST PUSH2 0x6C5 DUP5 DUP3 DUP6 PUSH2 0x67C JUMP JUMPDEST POP SWAP4 SWAP3 POP POP POP JUMP JUMPDEST PUSH1 0x0 DUP3 PUSH1 0x1F DUP4 ADD SLT PUSH2 0x6E2 JUMPI PUSH2 0x6E1 PUSH2 0x5C6 JUMP JUMPDEST JUMPDEST DUP2 CALLDATALOAD PUSH2 0x6F2 DUP5 DUP3 PUSH1 0x20 DUP7 ADD PUSH2 0x68B JUMP JUMPDEST SWAP2 POP POP SWAP3 SWAP2 POP POP JUMP JUMPDEST PUSH1 0x0 PUSH1 0x20 DUP3 DUP5 SUB SLT ISZERO PUSH2 0x711 JUMPI PUSH2 0x710 PUSH2 0x425 JUMP JUMPDEST JUMPDEST PUSH1 0x0 DUP3 ADD CALLDATALOAD PUSH8 0xFFFFFFFFFFFFFFFF DUP2 GT ISZERO PUSH2 0x72F JUMPI PUSH2 0x72E PUSH2 0x42A JUMP JUMPDEST JUMPDEST PUSH2 0x73B DUP5 DUP3 DUP6 ADD PUSH2 0x6CD JUMP JUMPDEST SWAP2 POP POP SWAP3 SWAP2 POP POP JUMP JUMPDEST PUSH32 0x4E487B7100000000000000000000000000000000000000000000000000000000 PUSH1 0x0 MSTORE PUSH1 0x22 PUSH1 0x4 MSTORE PUSH1 0x24 PUSH1 0x0 REVERT JUMPDEST PUSH1 0x0 PUSH1 0x2 DUP3 DIV SWAP1 POP PUSH1 0x1 DUP3 AND DUP1 PUSH2 0x78B JUMPI PUSH1 0x7F DUP3 AND SWAP2 POP JUMPDEST PUSH1 0x20 DUP3 LT DUP2 SUB PUSH2 0x79E JUMPI PUSH2 0x79D PUSH2 0x744 JUMP JUMPDEST JUMPDEST POP SWAP2 SWAP1 POP JUMP JUMPDEST PUSH1 0x0 DUP2 SWAP1 POP SWAP3 SWAP2 POP POP JUMP JUMPDEST PUSH1 0x0 PUSH2 0x7BA DUP3 PUSH2 0x492 JUMP JUMPDEST PUSH2 0x7C4 DUP2 DUP6 PUSH2 0x7A4 JUMP JUMPDEST SWAP4 POP PUSH2 0x7D4 DUP2 DUP6 PUSH1 0x20 DUP7 ADD PUSH2 0x4AE JUMP JUMPDEST DUP1 DUP5 ADD SWAP2 POP POP SWAP3 SWAP2 POP POP JUMP JUMPDEST PUSH1 0x0 PUSH2 0x7EC DUP3 DUP5 PUSH2 0x7AF JUMP JUMPDEST SWAP2 POP DUP2 SWAP1 POP SWAP3 SWAP2 POP POP JUMP JUMPDEST PUSH32 0x4E487B7100000000000000000000000000000000000000000000000000000000 PUSH1 0x0 MSTORE PUSH1 0x12 PUSH1 0x4 MSTORE PUSH1 0x24 PUSH1 0x0 REVERT JUMPDEST PUSH1 0x0 PUSH2 0x831 DUP3 PUSH2 0x42F JUMP JUMPDEST SWAP2 POP PUSH2 0x83C DUP4 PUSH2 0x42F JUMP JUMPDEST SWAP3 POP DUP3 PUSH2 0x84C JUMPI PUSH2 0x84B PUSH2 0x7F7 JUMP JUMPDEST JUMPDEST DUP3 DUP3 MOD SWAP1 POP SWAP3 SWAP2 POP POP JUMP JUMPDEST PUSH32 0x4E487B7100000000000000000000000000000000000000000000000000000000 PUSH1 0x0 MSTORE PUSH1 0x11 PUSH1 0x4 MSTORE PUSH1 0x24 PUSH1 0x0 REVERT JUMPDEST PUSH1 0x0 PUSH2 0x891 DUP3 PUSH2 0x42F JUMP JUMPDEST SWAP2 POP PUSH2 0x89C DUP4 PUSH2 0x42F JUMP JUMPDEST SWAP3 POP DUP3 DUP3 LT ISZERO PUSH2 0x8AF JUMPI PUSH2 0x8AE PUSH2 0x857 JUMP JUMPDEST JUMPDEST DUP3 DUP3 SUB SWAP1 POP SWAP3 SWAP2 POP POP JUMP JUMPDEST PUSH1 0x0 PUSH2 0x8C5 DUP3 PUSH2 0x42F JUMP JUMPDEST SWAP2 POP PUSH32 0xFFFFFFFFFFFFFFFFFFFFFFFFFFFFFFFFFFFFFFFFFFFFFFFFFFFFFFFFFFFFFFFF DUP3 SUB PUSH2 0x8F7 JUMPI PUSH2 0x8F6 PUSH2 0x857 JUMP JUMPDEST JUMPDEST PUSH1 0x1 DUP3 ADD SWAP1 POP SWAP2 SWAP1 POP JUMP JUMPDEST PUSH1 0x0 PUSH1 0x60 DUP3 ADD SWAP1 POP PUSH2 0x917 PUSH1 0x0 DUP4 ADD DUP7 PUSH2 0x52B JUMP JUMPDEST DUP2 DUP2 SUB PUSH1 0x20 DUP4 ADD MSTORE PUSH2 0x929 DUP2 DUP6 PUSH2 0x4F2 JUMP JUMPDEST SWAP1 POP PUSH2 0x938 PUSH1 0x40 DUP4 ADD DUP5 PUSH2 0x52B JUMP JUMPDEST SWAP5 SWAP4 POP POP POP POP JUMP INVALID LOG2 PUSH5 0x6970667358 0x22 SLT KECCAK256 PUSH8 0x960C88059A0D9035 PUSH28 0x16264AB8BC47E304236AE83885335EC719B477BCD09764736F6C6343 STOP ADDMOD 0xD STOP CALLER "
		},
		"gasEstimates": {
			"creation": {
				"codeDepositCost": "484400",
				"executionCost": "infinite",
				"totalCost": "infinite"
			},
			"external": {
				"createRandomZombie(string)": "infinite",
				"zombieToOwner(uint256)": "2839",
				"zombies(uint256)": "infinite"
			},
			"internal": {
				"_createZombie(string memory,uint256)": "infinite",
				"_generateRandomDna(string memory)": "infinite"
			}
		},
		"methodIdentifiers": {
			"createRandomZombie(string)": "7bff0a01",
			"zombieToOwner(uint256)": "528b7b8f",
			"zombies(uint256)": "2052465e"
		}
	},
	"abi": [
		{
			"anonymous": false,
			"inputs": [
				{
					"indexed": false,
					"internalType": "uint256",
					"name": "zombieId",
					"type": "uint256"
				},
				{
					"indexed": false,
					"internalType": "string",
					"name": "name",
					"type": "string"
				},
				{
					"indexed": false,
					"internalType": "uint256",
					"name": "dna",
					"type": "uint256"
				}
			],
			"name": "NewZombie",
			"type": "event"
		},
		{
			"inputs": [
				{
					"internalType": "string",
					"name": "_name",
					"type": "string"
				}
			],
			"name": "createRandomZombie",
			"outputs": [],
			"stateMutability": "nonpayable",
			"type": "function"
		},
		{
			"inputs": [
				{
					"internalType": "uint256",
					"name": "",
					"type": "uint256"
				}
			],
			"name": "zombieToOwner",
			"outputs": [
				{
					"internalType": "address",
					"name": "",
					"type": "address"
				}
			],
			"stateMutability": "view",
			"type": "function"
		},
		{
			"inputs": [
				{
					"internalType": "uint256",
					"name": "",
					"type": "uint256"
				}
			],
			"name": "zombies",
			"outputs": [
				{
					"internalType": "string",
					"name": "name",
					"type": "string"
				},
				{
					"internalType": "uint256",
					"name": "dna",
					"type": "uint256"
				}
			],
			"stateMutability": "view",
			"type": "function"
		}
	]
}